{"abi":[{"anonymous":false,"inputs":[{"indexed":true,"internalType":"address","name":"user","type":"address"},{"indexed":true,"internalType":"address","name":"signer","type":"address"},{"indexed":false,"internalType":"uint256","name":"timestamp","type":"uint256"},{"indexed":false,"internalType":"uint256","name":"blockNumber","type":"uint256"}],"name":"AddedManager","type":"event"},{"anonymous":false,"inputs":[{"indexed":true,"internalType":"address","name":"user","type":"address"},{"indexed":true,"internalType":"address","name":"signer","type":"address"},{"indexed":false,"internalType":"uint256","name":"timestamp","type":"uint256"},{"indexed":false,"internalType":"uint256","name":"blockNumber","type":"uint256"}],"name":"AddedTo725StoreList","type":"event"},{"anonymous":false,"inputs":[{"indexed":true,"internalType":"address","name":"user","type":"address"},{"indexed":true,"internalType":"address","name":"signer","type":"address"},{"indexed":false,"internalType":"uint256","name":"timestamp","type":"uint256"},{"indexed":false,"internalType":"uint256","name":"blockNumber","type":"uint256"}],"name":"AddedToCreateERC20List","type":"event"},{"anonymous":false,"inputs":[{"indexed":true,"internalType":"address","name":"user","type":"address"},{"indexed":true,"internalType":"address","name":"signer","type":"address"},{"indexed":false,"internalType":"uint256","name":"timestamp","type":"uint256"},{"indexed":false,"internalType":"uint256","name":"blockNumber","type":"uint256"}],"name":"AddedToMetadataList","type":"event"},{"anonymous":false,"inputs":[{"indexed":true,"internalType":"address","name":"owner","type":"address"},{"indexed":true,"internalType":"address","name":"approved","type":"address"},{"indexed":true,"internalType":"uint256","name":"tokenId","type":"uint256"}],"name":"Approval","type":"event"},{"anonymous":false,"inputs":[{"indexed":true,"internalType":"address","name":"owner","type":"address"},{"indexed":true,"internalType":"address","name":"operator","type":"address"},{"indexed":false,"internalType":"bool","name":"approved","type":"bool"}],"name":"ApprovalForAll","type":"event"},{"anonymous":false,"inputs":[{"indexed":true,"internalType":"address","name":"signer","type":"address"},{"indexed":false,"internalType":"uint256","name":"timestamp","type":"uint256"},{"indexed":false,"internalType":"uint256","name":"blockNumber","type":"uint256"}],"name":"CleanedPermissions","type":"event"},{"anonymous":false,"inputs":[{"indexed":true,"internalType":"address","name":"contractAddress","type":"address"}],"name":"ContractCreated","type":"event"},{"anonymous":false,"inputs":[{"indexed":true,"internalType":"bytes32","name":"key","type":"bytes32"},{"indexed":false,"internalType":"bytes","name":"value","type":"bytes"}],"name":"DataChanged","type":"event"},{"anonymous":false,"inputs":[{"indexed":true,"internalType":"uint256","name":"_operation","type":"uint256"},{"indexed":true,"internalType":"address","name":"_to","type":"address"},{"indexed":true,"internalType":"uint256","name":"_value","type":"uint256"},{"indexed":false,"internalType":"bytes","name":"_data","type":"bytes"}],"name":"Executed","type":"event"},{"anonymous":false,"inputs":[{"indexed":true,"internalType":"address","name":"createdBy","type":"address"},{"indexed":false,"internalType":"uint8","name":"state","type":"uint8"},{"indexed":false,"internalType":"string","name":"decryptorUrl","type":"string"},{"indexed":false,"internalType":"bytes","name":"flags","type":"bytes"},{"indexed":false,"internalType":"bytes","name":"data","type":"bytes"},{"indexed":false,"internalType":"bytes32","name":"metaDataHash","type":"bytes32"},{"indexed":false,"internalType":"uint256","name":"timestamp","type":"uint256"},{"indexed":false,"internalType":"uint256","name":"blockNumber","type":"uint256"}],"name":"MetadataCreated","type":"event"},{"anonymous":false,"inputs":[{"indexed":true,"internalType":"address","name":"updatedBy","type":"address"},{"indexed":false,"internalType":"uint8","name":"state","type":"uint8"},{"indexed":false,"internalType":"uint256","name":"timestamp","type":"uint256"},{"indexed":false,"internalType":"uint256","name":"blockNumber","type":"uint256"}],"name":"MetadataState","type":"event"},{"anonymous":false,"inputs":[{"indexed":true,"internalType":"address","name":"updatedBy","type":"address"},{"indexed":false,"internalType":"uint8","name":"state","type":"uint8"},{"indexed":false,"internalType":"string","name":"decryptorUrl","type":"string"},{"indexed":false,"internalType":"bytes","name":"flags","type":"bytes"},{"indexed":false,"internalType":"bytes","name":"data","type":"bytes"},{"indexed":false,"internalType":"bytes32","name":"metaDataHash","type":"bytes32"},{"indexed":false,"internalType":"uint256","name":"timestamp","type":"uint256"},{"indexed":false,"internalType":"uint256","name":"blockNumber","type":"uint256"}],"name":"MetadataUpdated","type":"event"},{"anonymous":false,"inputs":[{"indexed":true,"internalType":"address","name":"validator","type":"address"},{"indexed":false,"internalType":"bytes32","name":"metaDataHash","type":"bytes32"},{"indexed":false,"internalType":"uint8","name":"v","type":"uint8"},{"indexed":false,"internalType":"bytes32","name":"r","type":"bytes32"},{"indexed":false,"internalType":"bytes32","name":"s","type":"bytes32"}],"name":"MetadataValidated","type":"event"},{"anonymous":false,"inputs":[{"indexed":true,"internalType":"address","name":"user","type":"address"},{"indexed":true,"internalType":"address","name":"signer","type":"address"},{"indexed":false,"internalType":"uint256","name":"timestamp","type":"uint256"},{"indexed":false,"internalType":"uint256","name":"blockNumber","type":"uint256"}],"name":"RemovedFrom725StoreList","type":"event"},{"anonymous":false,"inputs":[{"indexed":true,"internalType":"address","name":"user","type":"address"},{"indexed":true,"internalType":"address","name":"signer","type":"address"},{"indexed":false,"internalType":"uint256","name":"timestamp","type":"uint256"},{"indexed":false,"internalType":"uint256","name":"blockNumber","type":"uint256"}],"name":"RemovedFromCreateERC20List","type":"event"},{"anonymous":false,"inputs":[{"indexed":true,"internalType":"address","name":"user","type":"address"},{"indexed":true,"internalType":"address","name":"signer","type":"address"},{"indexed":false,"internalType":"uint256","name":"timestamp","type":"uint256"},{"indexed":false,"internalType":"uint256","name":"blockNumber","type":"uint256"}],"name":"RemovedFromMetadataList","type":"event"},{"anonymous":false,"inputs":[{"indexed":true,"internalType":"address","name":"user","type":"address"},{"indexed":true,"internalType":"address","name":"signer","type":"address"},{"indexed":false,"internalType":"uint256","name":"timestamp","type":"uint256"},{"indexed":false,"internalType":"uint256","name":"blockNumber","type":"uint256"}],"name":"RemovedManager","type":"event"},{"anonymous":false,"inputs":[{"indexed":true,"internalType":"address","name":"newTokenAddress","type":"address"},{"indexed":true,"internalType":"address","name":"templateAddress","type":"address"},{"indexed":false,"internalType":"string","name":"name","type":"string"},{"indexed":false,"internalType":"string","name":"symbol","type":"string"},{"indexed":false,"internalType":"uint256","name":"cap","type":"uint256"},{"indexed":false,"internalType":"address","name":"creator","type":"address"}],"name":"TokenCreated","type":"event"},{"anonymous":false,"inputs":[{"indexed":true,"internalType":"address","name":"updatedBy","type":"address"},{"indexed":false,"internalType":"string","name":"tokenURI","type":"string"},{"indexed":false,"internalType":"uint256","name":"tokenID","type":"uint256"},{"indexed":false,"internalType":"uint256","name":"timestamp","type":"uint256"},{"indexed":false,"internalType":"uint256","name":"blockNumber","type":"uint256"}],"name":"TokenURIUpdate","type":"event"},{"anonymous":false,"inputs":[{"indexed":true,"internalType":"address","name":"from","type":"address"},{"indexed":true,"internalType":"address","name":"to","type":"address"},{"indexed":true,"internalType":"uint256","name":"tokenId","type":"uint256"}],"name":"Transfer","type":"event"},{"stateMutability":"payable","type":"fallback"},{"inputs":[{"internalType":"address","name":"_managerAddress","type":"address"}],"name":"addManager","outputs":[],"stateMutability":"nonpayable","type":"function"},{"inputs":[{"internalType":"address[]","name":"addresses","type":"address[]"},{"internalType":"enum ERC721RolesAddress.RolesType[]","name":"roles","type":"uint8[]"}],"name":"addMultipleUsersToRoles","outputs":[],"stateMutability":"nonpayable","type":"function"},{"inputs":[{"internalType":"address","name":"_allowedAddress","type":"address"}],"name":"addTo725StoreList","outputs":[],"stateMutability":"nonpayable","type":"function"},{"inputs":[{"internalType":"address","name":"_allowedAddress","type":"address"}],"name":"addToCreateERC20List","outputs":[],"stateMutability":"nonpayable","type":"function"},{"inputs":[{"internalType":"address","name":"_allowedAddress","type":"address"}],"name":"addToMetadataList","outputs":[],"stateMutability":"nonpayable","type":"function"},{"inputs":[{"internalType":"address","name":"to","type":"address"},{"internalType":"uint256","name":"tokenId","type":"uint256"}],"name":"approve","outputs":[],"stateMutability":"nonpayable","type":"function"},{"inputs":[{"internalType":"uint256","name":"","type":"uint256"}],"name":"auth","outputs":[{"internalType":"address","name":"","type":"address"}],"stateMutability":"view","type":"function"},{"inputs":[{"internalType":"address","name":"owner","type":"address"}],"name":"balanceOf","outputs":[{"internalType":"uint256","name":"","type":"uint256"}],"stateMutability":"view","type":"function"},{"inputs":[],"name":"baseURI","outputs":[{"internalType":"string","name":"","type":"string"}],"stateMutability":"view","type":"function"},{"inputs":[],"name":"cleanPermissions","outputs":[],"stateMutability":"nonpayable","type":"function"},{"inputs":[{"internalType":"uint256","name":"_templateIndex","type":"uint256"},{"internalType":"string[]","name":"strings","type":"string[]"},{"internalType":"address[]","name":"addresses","type":"address[]"},{"internalType":"uint256[]","name":"uints","type":"uint256[]"},{"internalType":"bytes[]","name":"bytess","type":"bytes[]"}],"name":"createERC20","outputs":[{"internalType":"address","name":"","type":"address"}],"stateMutability":"nonpayable","type":"function"},{"inputs":[{"internalType":"uint256","name":"_operation","type":"uint256"},{"internalType":"address","name":"_to","type":"address"},{"internalType":"uint256","name":"_value","type":"uint256"},{"internalType":"bytes","name":"_data","type":"bytes"}],"name":"executeCall","outputs":[],"stateMutability":"payable","type":"function"},{"inputs":[{"internalType":"uint256","name":"tokenId","type":"uint256"}],"name":"getApproved","outputs":[{"internalType":"address","name":"","type":"address"}],"stateMutability":"view","type":"function"},{"inputs":[{"internalType":"bytes32","name":"_key","type":"bytes32"}],"name":"getData","outputs":[{"internalType":"bytes","name":"_value","type":"bytes"}],"stateMutability":"view","type":"function"},{"inputs":[],"name":"getId","outputs":[{"internalType":"uint8","name":"","type":"uint8"}],"stateMutability":"pure","type":"function"},{"inputs":[],"name":"getMetaData","outputs":[{"internalType":"string","name":"","type":"string"},{"internalType":"string","name":"","type":"string"},{"internalType":"uint8","name":"","type":"uint8"},{"internalType":"bool","name":"","type":"bool"}],"stateMutability":"view","type":"function"},{"inputs":[{"internalType":"address","name":"user","type":"address"}],"name":"getPermissions","outputs":[{"components":[{"internalType":"bool","name":"manager","type":"bool"},{"internalType":"bool","name":"deployERC20","type":"bool"},{"internalType":"bool","name":"updateMetadata","type":"bool"},{"internalType":"bool","name":"store","type":"bool"}],"internalType":"struct ERC721RolesAddress.Roles","name":"","type":"tuple"}],"stateMutability":"view","type":"function"},{"inputs":[],"name":"getTokensList","outputs":[{"internalType":"address[]","name":"","type":"address[]"}],"stateMutability":"view","type":"function"},{"inputs":[],"name":"hasMetaData","outputs":[{"internalType":"bool","name":"","type":"bool"}],"stateMutability":"view","type":"function"},{"inputs":[{"internalType":"address","name":"owner","type":"address"},{"internalType":"string","name":"name_","type":"string"},{"internalType":"string","name":"symbol_","type":"string"},{"internalType":"address","name":"tokenFactory","type":"address"},{"internalType":"address","name":"additionalERC20Deployer","type":"address"},{"internalType":"address","name":"additionalMetaDataUpdater","type":"address"},{"internalType":"string","name":"tokenURI","type":"string"},{"internalType":"bool","name":"transferable_","type":"bool"}],"name":"initialize","outputs":[{"internalType":"bool","name":"","type":"bool"}],"stateMutability":"nonpayable","type":"function"},{"inputs":[{"internalType":"address","name":"owner","type":"address"},{"internalType":"address","name":"operator","type":"address"}],"name":"isApprovedForAll","outputs":[{"internalType":"bool","name":"","type":"bool"}],"stateMutability":"view","type":"function"},{"inputs":[{"internalType":"address","name":"datatoken","type":"address"}],"name":"isDeployed","outputs":[{"internalType":"bool","name":"","type":"bool"}],"stateMutability":"view","type":"function"},{"inputs":[{"internalType":"address","name":"account","type":"address"}],"name":"isERC20Deployer","outputs":[{"internalType":"bool","name":"","type":"bool"}],"stateMutability":"view","type":"function"},{"inputs":[],"name":"isInitialized","outputs":[{"internalType":"bool","name":"","type":"bool"}],"stateMutability":"view","type":"function"},{"inputs":[],"name":"metaDataDecryptorAddress","outputs":[{"internalType":"string","name":"","type":"string"}],"stateMutability":"view","type":"function"},{"inputs":[],"name":"metaDataDecryptorUrl","outputs":[{"internalType":"string","name":"","type":"string"}],"stateMutability":"view","type":"function"},{"inputs":[],"name":"metaDataState","outputs":[{"internalType":"uint8","name":"","type":"uint8"}],"stateMutability":"view","type":"function"},{"inputs":[],"name":"name","outputs":[{"internalType":"string","name":"","type":"string"}],"stateMutability":"view","type":"function"},{"inputs":[{"internalType":"uint256","name":"tokenId","type":"uint256"}],"name":"ownerOf","outputs":[{"internalType":"address","name":"","type":"address"}],"stateMutability":"view","type":"function"},{"inputs":[{"internalType":"address","name":"_allowedAddress","type":"address"}],"name":"removeFrom725StoreList","outputs":[],"stateMutability":"nonpayable","type":"function"},{"inputs":[{"internalType":"address","name":"_allowedAddress","type":"address"}],"name":"removeFromCreateERC20List","outputs":[],"stateMutability":"nonpayable","type":"function"},{"inputs":[{"internalType":"address","name":"_allowedAddress","type":"address"}],"name":"removeFromMetadataList","outputs":[],"stateMutability":"nonpayable","type":"function"},{"inputs":[{"internalType":"address","name":"_managerAddress","type":"address"}],"name":"removeManager","outputs":[],"stateMutability":"nonpayable","type":"function"},{"inputs":[{"internalType":"address","name":"from","type":"address"},{"internalType":"address","name":"to","type":"address"},{"internalType":"uint256","name":"tokenId","type":"uint256"}],"name":"safeTransferFrom","outputs":[],"stateMutability":"nonpayable","type":"function"},{"inputs":[{"internalType":"address","name":"operator","type":"address"},{"internalType":"bool","name":"approved","type":"bool"}],"name":"setApprovalForAll","outputs":[],"stateMutability":"nonpayable","type":"function"},{"inputs":[{"internalType":"string","name":"_baseURI","type":"string"}],"name":"setBaseURI","outputs":[],"stateMutability":"nonpayable","type":"function"},{"inputs":[{"internalType":"bytes32","name":"_key","type":"bytes32"},{"internalType":"bytes","name":"_value","type":"bytes"}],"name":"setDataERC20","outputs":[],"stateMutability":"nonpayable","type":"function"},{"inputs":[{"internalType":"uint8","name":"_metaDataState","type":"uint8"},{"internalType":"string","name":"_metaDataDecryptorUrl","type":"string"},{"internalType":"string","name":"_metaDataDecryptorAddress","type":"string"},{"internalType":"bytes","name":"flags","type":"bytes"},{"internalType":"bytes","name":"data","type":"bytes"},{"internalType":"bytes32","name":"_metaDataHash","type":"bytes32"},{"components":[{"internalType":"address","name":"validatorAddress","type":"address"},{"internalType":"uint8","name":"v","type":"uint8"},{"internalType":"bytes32","name":"r","type":"bytes32"},{"internalType":"bytes32","name":"s","type":"bytes32"}],"internalType":"struct ERC721Template.metaDataProof[]","name":"_metadataProofs","type":"tuple[]"}],"name":"setMetaData","outputs":[],"stateMutability":"nonpayable","type":"function"},{"inputs":[{"components":[{"internalType":"uint8","name":"metaDataState","type":"uint8"},{"internalType":"string","name":"metaDataDecryptorUrl","type":"string"},{"internalType":"string","name":"metaDataDecryptorAddress","type":"string"},{"internalType":"bytes","name":"flags","type":"bytes"},{"internalType":"bytes","name":"data","type":"bytes"},{"internalType":"bytes32","name":"metaDataHash","type":"bytes32"},{"internalType":"uint256","name":"tokenId","type":"uint256"},{"internalType":"string","name":"tokenURI","type":"string"},{"components":[{"internalType":"address","name":"validatorAddress","type":"address"},{"internalType":"uint8","name":"v","type":"uint8"},{"internalType":"bytes32","name":"r","type":"bytes32"},{"internalType":"bytes32","name":"s","type":"bytes32"}],"internalType":"struct ERC721Template.metaDataProof[]","name":"metadataProofs","type":"tuple[]"}],"internalType":"struct ERC721Template.metaDataAndTokenURI","name":"_metaDataAndTokenURI","type":"tuple"}],"name":"setMetaDataAndTokenURI","outputs":[],"stateMutability":"nonpayable","type":"function"},{"inputs":[{"internalType":"uint8","name":"_metaDataState","type":"uint8"}],"name":"setMetaDataState","outputs":[],"stateMutability":"nonpayable","type":"function"},{"inputs":[{"internalType":"bytes32","name":"_key","type":"bytes32"},{"internalType":"bytes","name":"_value","type":"bytes"}],"name":"setNewData","outputs":[],"stateMutability":"nonpayable","type":"function"},{"inputs":[{"internalType":"uint256","name":"tokenId","type":"uint256"},{"internalType":"string","name":"tokenURI","type":"string"}],"name":"setTokenURI","outputs":[],"stateMutability":"nonpayable","type":"function"},{"inputs":[{"internalType":"bytes4","name":"interfaceId","type":"bytes4"}],"name":"supportsInterface","outputs":[{"internalType":"bool","name":"","type":"bool"}],"stateMutability":"view","type":"function"},{"inputs":[],"name":"symbol","outputs":[{"internalType":"string","name":"","type":"string"}],"stateMutability":"view","type":"function"},{"inputs":[{"internalType":"uint256","name":"index","type":"uint256"}],"name":"tokenByIndex","outputs":[{"internalType":"uint256","name":"","type":"uint256"}],"stateMutability":"view","type":"function"},{"inputs":[{"internalType":"address","name":"owner","type":"address"},{"internalType":"uint256","name":"index","type":"uint256"}],"name":"tokenOfOwnerByIndex","outputs":[{"internalType":"uint256","name":"","type":"uint256"}],"stateMutability":"view","type":"function"},{"inputs":[{"internalType":"uint256","name":"tokenId","type":"uint256"}],"name":"tokenURI","outputs":[{"internalType":"string","name":"","type":"string"}],"stateMutability":"view","type":"function"},{"inputs":[],"name":"totalSupply","outputs":[{"internalType":"uint256","name":"","type":"uint256"}],"stateMutability":"view","type":"function"},{"inputs":[{"internalType":"address","name":"from","type":"address"},{"internalType":"address","name":"to","type":"address"},{"internalType":"uint256","name":"tokenId","type":"uint256"}],"name":"transferFrom","outputs":[],"stateMutability":"nonpayable","type":"function"},{"inputs":[],"name":"transferable","outputs":[{"internalType":"bool","name":"","type":"bool"}],"stateMutability":"view","type":"function"},{"inputs":[],"name":"withdrawETH","outputs":[],"stateMutability":"payable","type":"function"},{"stateMutability":"payable","type":"receive"}],"bytecode":"60806040523480156200001157600080fd5b50604080518082018252600881526754656d706c61746560c01b6020808301919091528251808401909352600e83526d15195b5c1b185d1954de5b589bdb60921b9083015290620000696301ffc9a760e01b620000d1565b81516200007e9060019060208501906200018d565b508051620000949060029060208401906200018d565b506200009f62000155565b50620000b49050632260147f60e11b620000d1565b620000c6632bd57b7360e01b620000d1565b6001600d5562000270565b6001600160e01b03198082161415620001305760405162461bcd60e51b815260206004820152601c60248201527f4552433136353a20696e76616c696420696e7465726661636520696400000000604482015260640160405180910390fd5b6001600160e01b0319166000908152602081905260409020805460ff19166001179055565b620001676380ac58cd60e01b620000d1565b62000179635b5e139f60e01b620000d1565b6200018b63780e9d6360e01b620000d1565b565b8280546200019b9062000233565b90600052602060002090601f016020900481019282620001bf57600085556200020a565b82601f10620001da57805160ff19168380011785556200020a565b828001600101855582156200020a579182015b828111156200020a578251825591602001919060010190620001ed565b50620002189291506200021c565b5090565b5b808211156200021857600081556001016200021d565b600181811c908216806200024857607f821691505b602082108114156200026a57634e487b7160e01b600052602260045260246000fd5b50919050565b6153f280620002806000396000f3fe6080604052600436106102c75760003560e01c80634f6ccce71161017e578063a22cb465116100d3578063ccd7d4761161008f578063e086e5ec1161006c578063e086e5ec146109a0578063e38d7cad146109a8578063e985e9c5146109c8578063fe1ec88014610a1157005b8063ccd7d47614610942578063d2786ba41461095c578063d8053ad31461098157005b8063a22cb4651461088f578063ac18de43146108af578063b0c41ead146108cf578063c2d60e6e146108ef578063c55f81261461090f578063c87b56dd1461092257005b80636c0360eb1161013a57806390184b021161011757806390184b02146107e957806392ff0d311461082257806395d89b411461083c57806396fb3eaf1461085157005b80636c0360eb1461079f57806370a08231146107b457806382cf129d146107d457005b80634f6ccce7146106dd57806354f6127f146106fd57806355f804b31461071d5780635d1ca6311461073d5780636352211e1461075f57806367530a611461077f57005b80631a1d51e811610234578063392e53cd116101f0578063466bca02116101cd578063466bca0214610666578063467c97f5146106885780634a63740a146106a85780634f189cb2146106c857005b8063392e53cd1461060e57806342842e0e14610626578063431053ac1461064657005b80631a1d51e81461054e5780631aa3adf91461056e57806323b872dd1461058e578063273e06b3146105ae5780632d06177a146105ce5780632f745c59146105ee57005b806310c558bf1161028357806310c558bf146103ce578063160a7925146103ee578063162094c4146104cb57806318160ddd146104eb57806319a18a851461050e57806319c186e51461052e57005b806301ffc9a7146102d057806306fdde031461031f578063081812fc14610341578063095ea7b3146103795780630e05662e146103995780630e57c7e8146103ae57005b366102ce57005b005b3480156102dc57600080fd5b5061030a6102eb3660046142a8565b6001600160e01b03191660009081526020819052604090205460ff1690565b60405190151581526020015b60405180910390f35b34801561032b57600080fd5b50610334610a31565b604051610316919061431d565b34801561034d57600080fd5b5061036161035c366004614330565b610ac3565b6040516001600160a01b039091168152602001610316565b34801561038557600080fd5b506102ce61039436600461436e565b610b50565b3480156103a557600080fd5b50610334610c66565b3480156103ba57600080fd5b506102ce6103c93660046143db565b610cf4565b3480156103da57600080fd5b506102ce6103e9366004614426565b610d69565b3480156103fa57600080fd5b50610490610409366004614426565b604080516080810182526000808252602082018190529181018290526060810191909152506001600160a01b03166000908152600a60209081526040918290208251608081018452905460ff808216151583526101008204811615159383019390935262010000810483161515938201939093526301000000909204161515606082015290565b604051610316919081511515815260208083015115159082015260408083015115159082015260609182015115159181019190915260800190565b3480156104d757600080fd5b506102ce6104e63660046144f8565b610da9565b3480156104f757600080fd5b50610500610e37565b604051908152602001610316565b34801561051a57600080fd5b506102ce61052936600461453e565b610e48565b34801561053a57600080fd5b506102ce610549366004614426565b610f79565b34801561055a57600080fd5b5061030a610569366004614589565b611038565b34801561057a57600080fd5b506102ce61058936600461478d565b61119e565b34801561059a57600080fd5b506102ce6105a9366004614894565b6111f3565b3480156105ba57600080fd5b506102ce6105c9366004614426565b6112ea565b3480156105da57600080fd5b506102ce6105e9366004614426565b611435565b3480156105fa57600080fd5b5061050061060936600461436e565b611478565b34801561061a57600080fd5b5060105460ff1661030a565b34801561063257600080fd5b506102ce610641366004614894565b6114a3565b34801561065257600080fd5b506102ce610661366004614426565b61159f565b34801561067257600080fd5b5061067b6116d4565b60405161031691906148d5565b34801561069457600080fd5b506102ce6106a3366004614922565b611735565b3480156106b457600080fd5b506102ce6106c3366004614426565b6117c0565b3480156106d457600080fd5b506102ce6117fd565b3480156106e957600080fd5b506105006106f8366004614330565b611853565b34801561070957600080fd5b50610334610718366004614330565b611869565b34801561072957600080fd5b506102ce61073836600461493d565b61190b565b34801561074957600080fd5b5060015b60405160ff9091168152602001610316565b34801561076b57600080fd5b5061036161077a366004614330565b611958565b34801561078b57600080fd5b506102ce61079a3660046143db565b611980565b3480156107ab57600080fd5b506103346119f0565b3480156107c057600080fd5b506105006107cf366004614426565b6119fa565b3480156107e057600080fd5b50610334611a86565b3480156107f557600080fd5b5061030a610804366004614426565b6001600160a01b031660009081526015602052604090205460ff1690565b34801561082e57600080fd5b5060165461030a9060ff1681565b34801561084857600080fd5b50610334611a93565b34801561085d57600080fd5b5061030a61086c366004614426565b6001600160a01b03166000908152600a6020526040902054610100900460ff1690565b34801561089b57600080fd5b506102ce6108aa366004614971565b611aa2565b3480156108bb57600080fd5b506102ce6108ca366004614426565b611b60565b3480156108db57600080fd5b506103616108ea366004614330565b611ba3565b3480156108fb57600080fd5b506102ce61090a366004614a0f565b611bcd565b6102ce61091d366004614ac6565b611fd5565b34801561092e57600080fd5b5061033461093d366004614330565b61201d565b34801561094e57600080fd5b5060135461074d9060ff1681565b34801561096857600080fd5b5061097161216b565b6040516103169493929190614b2f565b34801561098d57600080fd5b5060105461030a90610100900460ff1681565b6102ce6122bb565b3480156109b457600080fd5b506103616109c3366004614bb4565b6122fd565b3480156109d457600080fd5b5061030a6109e3366004614c83565b6001600160a01b03918216600090815260086020908152604080832093909416825291909152205460ff1690565b348015610a1d57600080fd5b506102ce610a2c366004614426565b6124cd565b6060600e8054610a4090614cbc565b80601f0160208091040260200160405190810160405280929190818152602001828054610a6c90614cbc565b8015610ab95780601f10610a8e57610100808354040283529160200191610ab9565b820191906000526020600020905b815481529060010190602001808311610a9c57829003601f168201915b5050505050905090565b6000610ace826125fd565b610b345760405162461bcd60e51b815260206004820152602c60248201527f4552433732313a20617070726f76656420717565727920666f72206e6f6e657860448201526b34b9ba32b73a103a37b5b2b760a11b60648201526084015b60405180910390fd5b506000908152600760205260409020546001600160a01b031690565b6000610b5b82611958565b9050806001600160a01b0316836001600160a01b03161415610bc95760405162461bcd60e51b815260206004820152602160248201527f4552433732313a20617070726f76616c20746f2063757272656e74206f776e656044820152603960f91b6064820152608401610b2b565b336001600160a01b0382161480610be55750610be581336109e3565b610c575760405162461bcd60e51b815260206004820152603860248201527f4552433732313a20617070726f76652063616c6c6572206973206e6f74206f7760448201527f6e6572206e6f7220617070726f76656420666f7220616c6c00000000000000006064820152608401610b2b565b610c61838361260a565b505050565b60128054610c7390614cbc565b80601f0160208091040260200160405190810160405280929190818152602001828054610c9f90614cbc565b8015610cec5780601f10610cc157610100808354040283529160200191610cec565b820191906000526020600020905b815481529060010190602001808311610ccf57829003601f168201915b505050505081565b3360009081526015602052604090205460ff16610d5e5760405162461bcd60e51b815260206004820152602260248201527f45524337323154656d706c6174653a204e4f5420455243323020436f6e74726160448201526118dd60f21b6064820152608401610b2b565b610c61838383612678565b336000908152600a602052604090205460ff161515600114610d9d5760405162461bcd60e51b8152600401610b2b90614cf7565b610da6816126d1565b50565b610db282611958565b6001600160a01b0316336001600160a01b031614610de25760405162461bcd60e51b8152600401610b2b90614d2e565b610dec8282612752565b336001600160a01b03167f6de6cd3982065cbd31e789e3109106f4d76d1c8a46e85262045cf947fb3fd4ed82844243604051610e2b9493929190614d65565b60405180910390a25050565b6000610e4360056127dd565b905090565b336000908152600a602052604090205462010000900460ff16610e7d5760405162461bcd60e51b8152600401610b2b90614d94565b610f2a610e8d6020830183614922565b610e9a6020840184614dd5565b610ea76040860186614dd5565b610eb46060880188614dd5565b610ec160808a018a614dd5565b60a08b0135610ed46101008d018d614e1b565b808060200260200160405190810160405280939291908181526020016000905b82821015610f2057610f1160808302860136819003810190614e64565b81526020019060010190610ef4565b50505050506127e7565b610da660c0820135610f3f60e0840184614dd5565b8080601f016020809104026020016040519081016040528093929190818152602001838380828437600092019190915250610da992505050565b336000908152600a602052604090205460ff161515600114610fad5760405162461bcd60e51b8152600401610b2b90614cf7565b6001600160a01b03811615610da6576001600160a01b0381166000908152600a60205260409020805463ff00000019166301000000178155610fee82612bf0565b6040805142815243602082015233916001600160a01b038516917feb09276310ed110a7e565d64966d0ff68a47112d2dd5eeb6cbd7451836ce35ee91015b60405180910390a35050565b60105460009060ff16156110a95760405162461bcd60e51b815260206004820152603260248201527f45524337323154656d706c6174653a20746f6b656e20696e7374616e636520616044820152711b1c9958591e481a5b9a5d1a585b1a5e995960721b6064820152608401610b2b565b6001600160a01b038516156110c1576110c185612ca7565b6001600160a01b038416156110d9576110d9846126d1565b60006111658c8c8c8080601f016020809104026020016040519081016040528093929190818152602001838380828437600081840152601f19601f820116905080830192505050505050508b8b8080601f0160208091040260200160405190810160405280939291908181526020018383808284376000920191909152508d92508a9150899050612d17565b905061116f612e67565b61117f632260147f60e11b612e93565b61118f632bd57b7360e01b612e93565b9b9a5050505050505050505050565b336000908152600a602052604090205462010000900460ff166111d35760405162461bcd60e51b8152600401610b2b90614d94565b6111e68b8b8b8b8b8b8b8b8b8b8b6127e7565b5050505050505050505050565b60165460ff166112155760405162461bcd60e51b8152600401610b2b90614e80565b806001146112355760405162461bcd60e51b8152600401610b2b90614ec3565b61129f61129a601480548060200260200160405190810160405280929190818152602001828054801561129157602002820191906000526020600020905b81546001600160a01b03168152600190910190602001808311611273575b50505050505190565b612f12565b6112a7612fa3565b6112b082613054565b6001600160a01b0382166000908152600a60205260409020805463ffffff00191663010101001781556112e48484846130d1565b50505050565b336000908152600a602052604090205460ff1615156001148061133b5750336001600160a01b03821614801561133b5750336000908152600a60205260409020546301000000900460ff1615156001145b156113b8576001600160a01b0381166000818152600a602052604090819020805463ff000000191681559051909133917fc929b18b08ffea86a1f95e29384dbe8968f2fcbd70cfd735df3aba1cc548cbf3906113a39042904390918252602082015260400190565b60405180910390a36113b482613112565b5050565b60405162461bcd60e51b815260206004820152604660248201527f455243373231526f6c6573416464726573733a204e6f7420656e6f756768207060448201527f65726d697373696f6e7320746f2072656d6f76652066726f6d2037323553746f6064820152651c99531a5cdd60d21b608482015260a401610b2b565b61143f6001611958565b6001600160a01b0316336001600160a01b03161461146f5760405162461bcd60e51b8152600401610b2b90614d2e565b610da681613054565b6001600160a01b038216600090815260046020526040812061149a9083613289565b90505b92915050565b60165460ff166114c55760405162461bcd60e51b8152600401610b2b90614e80565b806001146114e55760405162461bcd60e51b8152600401610b2b90614ec3565b61154861129a6014805480602002602001604051908101604052809291908181526020018280548015611291576020028201919060005260206000209081546001600160a01b031681526001909101906020018083116112735750505050505190565b611550612fa3565b61155982613054565b6001600160a01b0382166000908152600a60209081526040808320805463ffffff001916630101010017815581519283019091529181526112e490859085908590613295565b336000908152600a602052604090205460ff161515600114806115ef5750336001600160a01b0382161480156115ef5750336000908152600a602052604090205462010000900460ff1615156001145b15611656576001600160a01b0381166000818152600a602052604090819020805462ff0000191681559051909133917f9b41e1311fa819e825bc77fa2568492112e15ea92d173f3f8ee1c8ec3c1c562b906113a39042904390918252602082015260400190565b60405162461bcd60e51b815260206004820152604760248201527f455243373231526f6c6573416464726573733a204e6f7420656e6f756768207060448201527f65726d697373696f6e7320746f2072656d6f76652066726f6d206d65746164616064820152661d18481b1a5cdd60ca1b608482015260a401610b2b565b60606014805480602002602001604051908101604052809291908181526020018280548015610ab957602002820191906000526020600020905b81546001600160a01b0316815260019091019060200180831161170e575050505050905090565b336000908152600a602052604090205462010000900460ff1661176a5760405162461bcd60e51b8152600401610b2b90614d94565b6013805460ff191660ff831690811790915560408051918252426020830152439082015233907fa8336411cc72db0e5bdc4dff989eeb35879bafaceffb59b54b37645c3395adb99060600160405180910390a250565b336000908152600a602052604090205460ff1615156001146117f45760405162461bcd60e51b8152600401610b2b90614cf7565b610da681612ca7565b6118076001611958565b6001600160a01b0316336001600160a01b0316146118375760405162461bcd60e51b8152600401610b2b90614d2e565b61183f612fa3565b61185161184c6001611958565b613054565b565b6000806118616005846132c7565b509392505050565b6000818152600c6020526040902080546060919061188690614cbc565b80601f01602080910402602001604051908101604052809291908181526020018280546118b290614cbc565b80156118ff5780601f106118d4576101008083540402835291602001916118ff565b820191906000526020600020905b8154815290600101906020018083116118e257829003601f168201915b50505050509050919050565b6119156001611958565b6001600160a01b0316336001600160a01b0316146119455760405162461bcd60e51b8152600401610b2b90614d2e565b80516113b490600390602084019061416b565b600061149d8260405180606001604052806029815260200161539460299139600591906132e5565b336000908152600a60205260409020546301000000900460ff16610d5e5760405162461bcd60e51b815260206004820152602160248201527f45524337323154656d706c6174653a204e4f542053544f5245205550444154456044820152602960f91b6064820152608401610b2b565b6060610e436132fc565b60006001600160a01b038216611a655760405162461bcd60e51b815260206004820152602a60248201527f4552433732313a2062616c616e636520717565727920666f7220746865207a65604482015269726f206164647265737360b01b6064820152608401610b2b565b6001600160a01b038216600090815260046020526040902061149d906127dd565b60118054610c7390614cbc565b6060600f8054610a4090614cbc565b6001600160a01b038216331415611afb5760405162461bcd60e51b815260206004820152601960248201527f4552433732313a20617070726f766520746f2063616c6c6572000000000000006044820152606401610b2b565b3360008181526008602090815260408083206001600160a01b03871680855290835292819020805460ff191686151590811790915590519081529192917f17307eab39ab6107e8899845ad3d59bd9653f200f220920489ca2b5937696c31910161102c565b611b6a6001611958565b6001600160a01b0316336001600160a01b031614611b9a5760405162461bcd60e51b8152600401610b2b90614d2e565b610da68161330b565b600b8181548110611bb357600080fd5b6000918252602090912001546001600160a01b0316905081565b336000908152600a602052604090205460ff161515600114611c015760405162461bcd60e51b8152600401610b2b90614cf7565b80518251148015611c13575060008151115b8015611c20575060328151105b611c615760405162461bcd60e51b8152602060048201526012602482015271496e76616c69642061727261792073697a6560701b6044820152606401610b2b565b60005b8151811015610c615760006001600160a01b0316838281518110611c8a57611c8a614f0f565b60200260200101516001600160a01b031614611fc3576000600a6000858481518110611cb857611cb8614f0f565b60200260200101516001600160a01b03166001600160a01b03168152602001908152602001600020905060006003811115611cf557611cf5614f25565b838381518110611d0757611d07614f0f565b60200260200101516003811115611d2057611d20614f25565b1415611d9b57805460ff1916600117815583513390859084908110611d4757611d47614f0f565b60200260200101516001600160a01b03167faf8fc8b6726138c96881c895390a08e9d91a94c288f06281e7f9821c49c7155b4243604051611d92929190918252602082015260400190565b60405180910390a35b6001838381518110611daf57611daf614f0f565b60200260200101516003811115611dc857611dc8614f25565b1415611e4557805461ff00191661010017815583513390859084908110611df157611df1614f0f565b60200260200101516001600160a01b03167f0572d56343be407a66810f01449212e8545e14ff5049c479d34be944cdfd0d4f4243604051611e3c929190918252602082015260400190565b60405180910390a35b6002838381518110611e5957611e59614f0f565b60200260200101516003811115611e7257611e72614f25565b1415611ef157805462ff000019166201000017815583513390859084908110611e9d57611e9d614f0f565b60200260200101516001600160a01b03167fc2a42571a74ce1442c8c44d375ba9442e7d55d94b37afeace261c83c62128fa44243604051611ee8929190918252602082015260400190565b60405180910390a35b6003838381518110611f0557611f05614f0f565b60200260200101516003811115611f1e57611f1e614f25565b1415611f9f57805463ff0000001916630100000017815583513390859084908110611f4b57611f4b614f0f565b60200260200101516001600160a01b03167feb09276310ed110a7e565d64966d0ff68a47112d2dd5eeb6cbd7451836ce35ee4243604051611f96929190918252602082015260400190565b60405180910390a35b611fc1848381518110611fb457611fb4614f0f565b6020026020010151612bf0565b505b80611fcd81614f51565b915050611c64565b336000908152600a602052604090205460ff1615156001146120095760405162461bcd60e51b8152600401610b2b90614cf7565b612016858585858561336b565b5050505050565b6060612028826125fd565b61208c5760405162461bcd60e51b815260206004820152602f60248201527f4552433732314d657461646174613a2055524920717565727920666f72206e6f60448201526e3732bc34b9ba32b73a103a37b5b2b760891b6064820152608401610b2b565b600082815260096020526040812080546120a590614cbc565b80601f01602080910402602001604051908101604052809291908181526020018280546120d190614cbc565b801561211e5780601f106120f35761010080835404028352916020019161211e565b820191906000526020600020905b81548152906001019060200180831161210157829003601f168201915b50505050509050600061212f6132fc565b82519091501561216457808260405160200161214c929190614f6c565b60405160208183030381529060405292505050919050565b5092915050565b60608060008060116012601360009054906101000a900460ff16601060019054906101000a900460ff168380546121a190614cbc565b80601f01602080910402602001604051908101604052809291908181526020018280546121cd90614cbc565b801561221a5780601f106121ef5761010080835404028352916020019161221a565b820191906000526020600020905b8154815290600101906020018083116121fd57829003601f168201915b5050505050935082805461222d90614cbc565b80601f016020809104026020016040519081016040528092919081815260200182805461225990614cbc565b80156122a65780601f1061227b576101008083540402835291602001916122a6565b820191906000526020600020905b81548152906001019060200180831161228957829003601f168201915b50505050509250935093509350935090919293565b6122c56001611958565b6001600160a01b03166108fc479081150290604051600060405180830381858888f19350505050158015610da6573d6000803e3d6000fd5b60006002600d5414156123525760405162461bcd60e51b815260206004820152601f60248201527f5265656e7472616e637947756172643a207265656e7472616e742063616c6c006044820152606401610b2b565b6002600d55336000908152600a6020526040902054610100900460ff166123ca5760405162461bcd60e51b815260206004820152602660248201527f45524337323154656d706c6174653a204e4f542045524332304445504c4f5945604482015265525f524f4c4560d01b6064820152608401610b2b565b601354604051630557fcfb60e41b815260009161010090046001600160a01b03169063557fcfb090612410908e908e908e908e908e908e908e908e908e906004016150e5565b6020604051808303816000875af115801561242f573d6000803e3d6000fd5b505050506040513d601f19601f820116820180604052508101906124539190615196565b6001600160a01b0381166000818152601560205260408120805460ff191660019081179091556014805491820181559091527fce6d7b5282bd9a3661ae061feed1dbda4e52ab073b1f9285be6e155d9c38d4ec0180546001600160a01b03191690911790559150506001600d559998505050505050505050565b336000908152600a602052604090205460ff1615156001148061251d5750336001600160a01b03821614801561251d5750336000908152600a602052604090205460ff6101009091041615156001145b15612583576001600160a01b0381166000818152600a602052604090819020805461ff00191681559051909133917f59bd33f4c27cc16a2d74450e1fa43d7896020be9aecea4bee009db9294de8997906113a39042904390918252602082015260400190565b60405162461bcd60e51b815260206004820152604360248201527f455243373231526f6c6573416464726573733a204e6f7420656e6f756768207060448201527f65726d697373696f6e7320746f2072656d6f76652066726f6d2045524332304c6064820152621a5cdd60ea1b608482015260a401610b2b565b600061149d600583613594565b600081815260076020526040902080546001600160a01b0319166001600160a01b038416908117909155819061263f82611958565b6001600160a01b03167f8c5be1e5ebec7d5bd14f71427d1e84f3dd0314c0f7b2291e5b200ac8c7c3b92560405160405180910390a45050565b6000838152600c602052604090206126919083836141ef565b50827fece574603820d07bc9b91f2a932baadf4628aabcb8afba49776529c14a6104b283836040516126c49291906151b3565b60405180910390a2505050565b6001600160a01b03811615610da6576001600160a01b0381166000908152600a60205260409020805462ff000019166201000017815561271082612bf0565b6040805142815243602082015233916001600160a01b038516917fc2a42571a74ce1442c8c44d375ba9442e7d55d94b37afeace261c83c62128fa4910161102c565b61275b826125fd565b6127be5760405162461bcd60e51b815260206004820152602e60248201527f45524337323155524953746f726167653a2055524920736574206f66206e6f6e60448201526d32bc34b9ba32b73a103a37b5b2b760911b6064820152608401610b2b565b60008281526009602090815260409091208251610c619284019061416b565b600061149d825490565b6013805460ff191660ff8d1617905561280260118b8b6141ef565b5061280f601289896141ef565b50601054610100900460ff1661288657336001600160a01b03167f5463569dcc320958360074a9ab27e809e8a6942c394fb151d139b5f7b4ecb1bd8c8c8c8a8a8a8a8a424360405161286a9a999897969594939291906151c7565b60405180910390a26010805461ff0019166101001790556128d8565b60135460405133917fe5c4cf86b1815151e6f453e1e133d4454ae3b0b07145db39f2e0178685deac84916128cf9160ff16908e908e908c908c908c908c908c90429043906151c7565b60405180910390a25b60328151111561291c5760405162461bcd60e51b815260206004820152600f60248201526e546f6f204d616e792050726f6f667360881b6044820152606401610b2b565b60408051808201909152601c81527f19457468657265756d205369676e6564204d6573736167653a0a333200000000602082015260005b8251811015612be15760006001600160a01b031683828151811061297957612979614f0f565b6020026020010151600001516001600160a01b031614612afb57600082856040516020016129a892919061522f565b60405160208183030381529060405280519060200120905060006001828685815181106129d7576129d7614f0f565b6020026020010151602001518786815181106129f5576129f5614f0f565b602002602001015160400151888781518110612a1357612a13614f0f565b60200260200101516060015160405160008152602001604052604051612a55949392919093845260ff9290921660208401526040830152606082015260800190565b6020604051602081039080840390855afa158015612a77573d6000803e3d6000fd5b505050602060405103519050848381518110612a9557612a95614f0f565b6020026020010151600001516001600160a01b0316816001600160a01b031614612af85760405162461bcd60e51b815260206004820152601460248201527324b73b30b634b210383937b7b31039b4b3b732b960611b6044820152606401610b2b565b50505b828181518110612b0d57612b0d614f0f565b6020026020010151600001516001600160a01b03167f2819d8badf5cff2c9220b8ee99dacc14d67058e343d7f0c2c444d198507fe94185858481518110612b5657612b56614f0f565b602002602001015160200151868581518110612b7457612b74614f0f565b602002602001015160400151878681518110612b9257612b92614f0f565b602002602001015160600151604051612bc7949392919093845260ff9290921660208401526040830152606082015260800190565b60405180910390a280612bd981614f51565b915050612953565b50505050505050505050505050565b60005b600b54811015612c4c57816001600160a01b0316600b8281548110612c1a57612c1a614f0f565b6000918252602090912001546001600160a01b03161415612c3a57612c4c565b80612c4481614f51565b915050612bf3565b600b548114156113b457600b80546001810182556000919091527f0175b7a638427703f0dbe7bb9bbf987a2551717b34e79f33b5b1008d1fa01db90180546001600160a01b0384166001600160a01b03199091161790555050565b6001600160a01b0381166000908152600a60205260409020805461ff001916610100178155612cd582612bf0565b6040805142815243602082015233916001600160a01b038516917f0572d56343be407a66810f01449212e8545e14ff5049c479d34be944cdfd0d4f910161102c565b60006001600160a01b038716612d865760405162461bcd60e51b815260206004820152602e60248201527f45524337323154656d706c6174653a3a20496e76616c6964206d696e7465722c60448201526d20207a65726f206164647265737360901b6064820152608401610b2b565b8551612d9990600e90602089019061416b565b508451612dad90600f90602088019061416b565b5060138054610100600160a81b0319166101006001600160a01b03871602179055604080516020810191829052600090819052612dec9160039161416b565b5060108054600161ffff1990911681179091556016805460ff1916841515179055612e189088906135ac565b612e2187613054565b6001600160a01b0387166000908152600a60205260409020805463ffffff0019166301010100178155612e55600185612752565b505060105460ff169695505050505050565b612e776380ac58cd60e01b612e93565b612e87635b5e139f60e01b612e93565b61185163780e9d6360e01b5b6001600160e01b03198082161415612eed5760405162461bcd60e51b815260206004820152601c60248201527f4552433136353a20696e76616c696420696e74657266616365206964000000006044820152606401610b2b565b6001600160e01b0319166000908152602081905260409020805460ff19166001179055565b60005b818110156113b45760148181548110612f3057612f30614f0f565b6000918252602082200154604080516382c03da560e01b815290516001600160a01b03909216926382c03da59260048084019382900301818387803b158015612f7857600080fd5b505af1158015612f8c573d6000803e3d6000fd5b505050508080612f9b90614f51565b915050612f15565b60005b600b5481101561300b576000600a6000600b8481548110612fc957612fc9614f0f565b60009182526020808320909101546001600160a01b031683528201929092526040019020805463ffffffff19169055508061300381614f51565b915050612fa6565b50613018600b6000614263565b6040805142815243602082015233917f712bc71db81927a76b8bf1ea346247bb0ad58f18e4e5c1bd4aa0ec6573e02a2b910160405180910390a2565b6001600160a01b03811615610da6576001600160a01b0381166000908152600a60205260409020805460ff1916600117815561308f82612bf0565b6040805142815243602082015233916001600160a01b038516917faf8fc8b6726138c96881c895390a08e9d91a94c288f06281e7f9821c49c7155b910161102c565b6130db33826135c6565b6130f75760405162461bcd60e51b8152600401610b2b90615251565b610c6183838360405180602001604052806000815250613295565b6001600160a01b0381166000908152600a60205260409020805460ff1615801561314357508054610100900460ff16155b80156131575750805462010000900460ff16155b801561316c575080546301000000900460ff16155b156113b45760005b600b548110156131cd57826001600160a01b0316600b828154811061319b5761319b614f0f565b6000918252602090912001546001600160a01b031614156131bb576131cd565b806131c581614f51565b915050613174565b600b54811015610c6157600b80546131e7906001906152a2565b815481106131f7576131f7614f0f565b600091825260209091200154600b80546001600160a01b03909216918390811061322357613223614f0f565b9060005260206000200160006101000a8154816001600160a01b0302191690836001600160a01b03160217905550600b805480613262576132626152b9565b600082815260209020810160001990810180546001600160a01b0319169055019055505050565b600061149a83836136b0565b61329f33836135c6565b6132bb5760405162461bcd60e51b8152600401610b2b90615251565b6112e484848484613736565b60008080806132d68686613769565b909450925050505b9250929050565b60006132f2848484613806565b90505b9392505050565b606060038054610a4090614cbc565b6001600160a01b0381166000818152600a602052604090819020805460ff191681559051909133917fb572db0e6da4924b771ed1712b980d48b5992b9a1c27aede55fbb3318c48996a906113a39042904390918252602082015260400190565b82846001600160a01b0316867f1f920dbda597d7bf95035464170fa58d0a4b57f13a1c315ace6793b9f63688b885856040516133a89291906151b3565b60405180910390a460006109c45a6133c091906152a2565b9050856134105761340a858585858080601f01602080910402602001604051908101604052809392919081815260200183838082843760009201919091525087925061386f915050565b5061358c565b60038614156134595761340a8484848080601f01602080910402602001604051908101604052809392919081815260200183838082843760009201919091525061388792505050565b600286141561354d5760006134b084848080601f0160208091040260200160405190810160405280939291908181526020018383808284376000920191909152506134ab9250602091508790506152a2565b613923565b905060006134ff85858080601f016020809104026020016040519081016040528093929190818152602001838380828437600092018290525092506134fa915060209050886152a2565b613981565b9050600061350e878484613a8e565b6040519091506001600160a01b038216907fcf78cf0d6f3d8371e1075c69c492ab4ec5d8cf23a1a239b6a51a1d00be7ca31290600090a250505061358c565b60405162461bcd60e51b815260206004820152601460248201527357726f6e67206f7065726174696f6e207479706560601b6044820152606401610b2b565b505050505050565b6000818152600183016020526040812054151561149a565b6113b4828260405180602001604052806000815250613b90565b60006135d1826125fd565b6136325760405162461bcd60e51b815260206004820152602c60248201527f4552433732313a206f70657261746f7220717565727920666f72206e6f6e657860448201526b34b9ba32b73a103a37b5b2b760a11b6064820152608401610b2b565b600061363d83611958565b9050806001600160a01b0316846001600160a01b031614806136785750836001600160a01b031661366d84610ac3565b6001600160a01b0316145b806136a857506001600160a01b0380821660009081526008602090815260408083209388168352929052205460ff165b949350505050565b8154600090821061370e5760405162461bcd60e51b815260206004820152602260248201527f456e756d657261626c655365743a20696e646578206f7574206f6620626f756e604482015261647360f01b6064820152608401610b2b565b82600001828154811061372357613723614f0f565b9060005260206000200154905092915050565b613741848484613bc3565b61374d84848484613d44565b6112e45760405162461bcd60e51b8152600401610b2b906152cf565b8154600090819083106137c95760405162461bcd60e51b815260206004820152602260248201527f456e756d657261626c654d61703a20696e646578206f7574206f6620626f756e604482015261647360f01b6064820152608401610b2b565b60008460000184815481106137e0576137e0614f0f565b906000526020600020906002020190508060000154816001015492509250509250929050565b600082815260018401602052604081205482816138365760405162461bcd60e51b8152600401610b2b919061431d565b50846138436001836152a2565b8154811061385357613853614f0f565b9060005260206000209060020201600101549150509392505050565b6000806000845160208601878987f195945050505050565b600081516020830184f090506001600160a01b0381166138e95760405162461bcd60e51b815260206004820152601960248201527f436f756c64206e6f74206465706c6f7920636f6e7472616374000000000000006044820152606401610b2b565b6040516001600160a01b038216907fcf78cf0d6f3d8371e1075c69c492ab4ec5d8cf23a1a239b6a51a1d00be7ca31290600090a292915050565b6000613930826020615321565b835110156139785760405162461bcd60e51b8152602060048201526015602482015274746f427974657333325f6f75744f66426f756e647360581b6044820152606401610b2b565b50016020015190565b60608161398f81601f615321565b10156139ce5760405162461bcd60e51b815260206004820152600e60248201526d736c6963655f6f766572666c6f7760901b6044820152606401610b2b565b6139d88284615321565b84511015613a1c5760405162461bcd60e51b8152602060048201526011602482015270736c6963655f6f75744f66426f756e647360781b6044820152606401610b2b565b606082158015613a3b5760405191506000825260208201604052613a85565b6040519150601f8416801560200281840101858101878315602002848b0101015b81831015613a74578051835260209283019201613a5c565b5050858452601f01601f1916604052505b50949350505050565b60008084471015613ae15760405162461bcd60e51b815260206004820152601d60248201527f437265617465323a20696e73756666696369656e742062616c616e63650000006044820152606401610b2b565b8251613b2f5760405162461bcd60e51b815260206004820181905260248201527f437265617465323a2062797465636f6465206c656e677468206973207a65726f6044820152606401610b2b565b8383516020850187f590506001600160a01b0381166132f25760405162461bcd60e51b815260206004820152601960248201527f437265617465323a204661696c6564206f6e206465706c6f79000000000000006044820152606401610b2b565b613b9a8383613e42565b613ba76000848484613d44565b610c615760405162461bcd60e51b8152600401610b2b906152cf565b826001600160a01b0316613bd682611958565b6001600160a01b031614613c3e5760405162461bcd60e51b815260206004820152602960248201527f4552433732313a207472616e73666572206f6620746f6b656e2074686174206960448201526839903737ba1037bbb760b91b6064820152608401610b2b565b6001600160a01b038216613ca05760405162461bcd60e51b8152602060048201526024808201527f4552433732313a207472616e7366657220746f20746865207a65726f206164646044820152637265737360e01b6064820152608401610b2b565b613cab60008261260a565b6001600160a01b0383166000908152600460205260409020613ccd9082613f5a565b506001600160a01b0382166000908152600460205260409020613cf09082613f66565b50613cfd60058284613f72565b5080826001600160a01b0316846001600160a01b03167fddf252ad1be2c89b69c2b068fc378daa952ba7f163c4a11628f55a4df523b3ef60405160405180910390a4505050565b60006001600160a01b0384163b15613e3757604051630a85bd0160e11b81526001600160a01b0385169063150b7a0290613d88903390899088908890600401615339565b6020604051808303816000875af1925050508015613dc3575060408051601f3d908101601f19168201909252613dc091810190615376565b60015b613e1d573d808015613df1576040519150601f19603f3d011682016040523d82523d6000602084013e613df6565b606091505b508051613e155760405162461bcd60e51b8152600401610b2b906152cf565b805181602001fd5b6001600160e01b031916630a85bd0160e11b1490506136a8565b506001949350505050565b6001600160a01b038216613e985760405162461bcd60e51b815260206004820181905260248201527f4552433732313a206d696e7420746f20746865207a65726f20616464726573736044820152606401610b2b565b613ea1816125fd565b15613eee5760405162461bcd60e51b815260206004820152601c60248201527f4552433732313a20746f6b656e20616c7265616479206d696e746564000000006044820152606401610b2b565b6001600160a01b0382166000908152600460205260409020613f109082613f66565b50613f1d60058284613f72565b5060405181906001600160a01b038416906000907fddf252ad1be2c89b69c2b068fc378daa952ba7f163c4a11628f55a4df523b3ef908290a45050565b600061149a8383613f88565b600061149a838361407b565b60006132f284846001600160a01b0385166140ca565b60008181526001830160205260408120548015614071576000613fac6001836152a2565b8554909150600090613fc0906001906152a2565b90506000866000018281548110613fd957613fd9614f0f565b9060005260206000200154905080876000018481548110613ffc57613ffc614f0f565b600091825260209091200155614013836001615321565b60008281526001890160205260409020558654879080614035576140356152b9565b6001900381819060005260206000200160009055905586600101600087815260200190815260200160002060009055600194505050505061149d565b600091505061149d565b60008181526001830160205260408120546140c25750815460018181018455600084815260208082209093018490558454848252828601909352604090209190915561149d565b50600061149d565b60008281526001840160205260408120548061412f5750506040805180820182528381526020808201848152865460018181018955600089815284812095516002909302909501918255915190820155865486845281880190925292909120556132f5565b828561413c6001846152a2565b8154811061414c5761414c614f0f565b90600052602060002090600202016001018190555060009150506132f5565b82805461417790614cbc565b90600052602060002090601f01602090048101928261419957600085556141df565b82601f106141b257805160ff19168380011785556141df565b828001600101855582156141df579182015b828111156141df5782518255916020019190600101906141c4565b506141eb92915061427d565b5090565b8280546141fb90614cbc565b90600052602060002090601f01602090048101928261421d57600085556141df565b82601f106142365782800160ff198235161785556141df565b828001600101855582156141df579182015b828111156141df578235825591602001919060010190614248565b5080546000825590600052602060002090810190610da691905b5b808211156141eb576000815560010161427e565b6001600160e01b031981168114610da657600080fd5b6000602082840312156142ba57600080fd5b81356132f581614292565b60005b838110156142e05781810151838201526020016142c8565b838111156112e45750506000910152565b600081518084526143098160208601602086016142c5565b601f01601f19169290920160200192915050565b60208152600061149a60208301846142f1565b60006020828403121561434257600080fd5b5035919050565b6001600160a01b0381168114610da657600080fd5b803561436981614349565b919050565b6000806040838503121561438157600080fd5b823561438c81614349565b946020939093013593505050565b60008083601f8401126143ac57600080fd5b5081356001600160401b038111156143c357600080fd5b6020830191508360208285010111156132de57600080fd5b6000806000604084860312156143f057600080fd5b8335925060208401356001600160401b0381111561440d57600080fd5b6144198682870161439a565b9497909650939450505050565b60006020828403121561443857600080fd5b81356132f581614349565b634e487b7160e01b600052604160045260246000fd5b604051601f8201601f191681016001600160401b038111828210171561448157614481614443565b604052919050565b600082601f83011261449a57600080fd5b81356001600160401b038111156144b3576144b3614443565b6144c6601f8201601f1916602001614459565b8181528460208386010111156144db57600080fd5b816020850160208301376000918101602001919091529392505050565b6000806040838503121561450b57600080fd5b8235915060208301356001600160401b0381111561452857600080fd5b61453485828601614489565b9150509250929050565b60006020828403121561455057600080fd5b81356001600160401b0381111561456657600080fd5b820161012081850312156132f557600080fd5b8035801515811461436957600080fd5b6000806000806000806000806000806101008b8d0312156145a957600080fd5b6145b28b61435e565b995060208b01356001600160401b03808211156145ce57600080fd5b6145da8e838f0161439a565b909b50995060408d01359150808211156145f357600080fd5b6145ff8e838f0161439a565b909950975087915061461360608e0161435e565b965061462160808e0161435e565b955061462f60a08e0161435e565b945060c08d013591508082111561464557600080fd5b506146528d828e01614489565b92505061466160e08c01614579565b90509295989b9194979a5092959850565b803560ff8116811461436957600080fd5b60006001600160401b0382111561469c5761469c614443565b5060051b60200190565b6000608082840312156146b857600080fd5b604051608081018181106001600160401b03821117156146da576146da614443565b60405290508082356146eb81614349565b81526146f960208401614672565b602082015260408301356040820152606083013560608201525092915050565b600082601f83011261472a57600080fd5b8135602061473f61473a83614683565b614459565b82815260079290921b8401810191818101908684111561475e57600080fd5b8286015b848110156147825761477488826146a6565b835291830191608001614762565b509695505050505050565b600080600080600080600080600080600060e08c8e0312156147ae57600080fd5b6147b78c614672565b9a506001600160401b038060208e013511156147d257600080fd5b6147e28e60208f01358f0161439a565b909b50995060408d01358110156147f857600080fd5b6148088e60408f01358f0161439a565b909950975060608d013581101561481e57600080fd5b61482e8e60608f01358f0161439a565b909750955060808d013581101561484457600080fd5b6148548e60808f01358f0161439a565b909550935060a08d0135925060c08d013581101561487157600080fd5b506148828d60c08e01358e01614719565b90509295989b509295989b9093969950565b6000806000606084860312156148a957600080fd5b83356148b481614349565b925060208401356148c481614349565b929592945050506040919091013590565b6020808252825182820181905260009190848201906040850190845b818110156149165783516001600160a01b0316835292840192918401916001016148f1565b50909695505050505050565b60006020828403121561493457600080fd5b61149a82614672565b60006020828403121561494f57600080fd5b81356001600160401b0381111561496557600080fd5b6136a884828501614489565b6000806040838503121561498457600080fd5b823561498f81614349565b915061499d60208401614579565b90509250929050565b600082601f8301126149b757600080fd5b813560206149c761473a83614683565b82815260059290921b840181019181810190868411156149e657600080fd5b8286015b8481101561478257803560048110614a025760008081fd5b83529183019183016149ea565b60008060408385031215614a2257600080fd5b82356001600160401b0380821115614a3957600080fd5b818501915085601f830112614a4d57600080fd5b81356020614a5d61473a83614683565b82815260059290921b84018101918181019089841115614a7c57600080fd5b948201945b83861015614aa3578535614a9481614349565b82529482019490820190614a81565b96505086013592505080821115614ab957600080fd5b50614534858286016149a6565b600080600080600060808688031215614ade57600080fd5b853594506020860135614af081614349565b93506040860135925060608601356001600160401b03811115614b1257600080fd5b614b1e8882890161439a565b969995985093965092949392505050565b608081526000614b4260808301876142f1565b8281036020840152614b5481876142f1565b60ff959095166040840152505090151560609091015292915050565b60008083601f840112614b8257600080fd5b5081356001600160401b03811115614b9957600080fd5b6020830191508360208260051b85010111156132de57600080fd5b600080600080600080600080600060a08a8c031215614bd257600080fd5b8935985060208a01356001600160401b0380821115614bf057600080fd5b614bfc8d838e01614b70565b909a50985060408c0135915080821115614c1557600080fd5b614c218d838e01614b70565b909850965060608c0135915080821115614c3a57600080fd5b614c468d838e01614b70565b909650945060808c0135915080821115614c5f57600080fd5b50614c6c8c828d01614b70565b915080935050809150509295985092959850929598565b60008060408385031215614c9657600080fd5b8235614ca181614349565b91506020830135614cb181614349565b809150509250929050565b600181811c90821680614cd057607f821691505b60208210811415614cf157634e487b7160e01b600052602260045260246000fd5b50919050565b6020808252601f908201527f455243373231526f6c6573416464726573733a204e4f54204d414e4147455200604082015260600190565b6020808252601c908201527f45524337323154656d706c6174653a206e6f74204e46544f776e657200000000604082015260600190565b608081526000614d7860808301876142f1565b6020830195909552506040810192909252606090910152919050565b60208082526021908201527f45524337323154656d706c6174653a204e4f54204d455441444154415f524f4c6040820152604560f81b606082015260800190565b6000808335601e19843603018112614dec57600080fd5b8301803591506001600160401b03821115614e0657600080fd5b6020019150368190038213156132de57600080fd5b6000808335601e19843603018112614e3257600080fd5b8301803591506001600160401b03821115614e4c57600080fd5b6020019150600781901b36038213156132de57600080fd5b600060808284031215614e7657600080fd5b61149a83836146a6565b60208082526023908201527f45524337323154656d706c6174653a204973206e6f6e207472616e7366657261604082015262626c6560e81b606082015260800190565b6020808252602c908201527f45524337323154656d706c6174653a2043616e6e6f74207472616e736665722060408201526b1d1a1a5cc81d1bdad95b925960a21b606082015260800190565b634e487b7160e01b600052603260045260246000fd5b634e487b7160e01b600052602160045260246000fd5b634e487b7160e01b600052601160045260246000fd5b6000600019821415614f6557614f65614f3b565b5060010190565b60008351614f7e8184602088016142c5565b835190830190614f928183602088016142c5565b01949350505050565b81835281816020850137506000828201602090810191909152601f909101601f19169091010190565b6000808335601e19843603018112614fdb57600080fd5b83016020810192503590506001600160401b03811115614ffa57600080fd5b8036038313156132de57600080fd5b8183526000602080850194508260005b8581101561504757813561502c81614349565b6001600160a01b031687529582019590820190600101615019565b509495945050505050565b81835260006001600160fb1b0383111561506b57600080fd5b8260051b8083602087013760009401602001938452509192915050565b81835260006020808501808196508560051b810191508460005b878110156150d85782840389526150b98288614fc4565b6150c4868284614f9b565b9a87019a95505050908401906001016150a2565b5091979650505050505050565b89815260a0602082018190528101889052600060c060058a901b830181019083018b835b8c8110156151465785840360bf19018352615124828f614fc4565b61512f868284614f9b565b955050506020928301929190910190600101615109565b505050828103604084015261515c81898b615009565b90508281036060840152615171818789615052565b90508281036080840152615186818587615088565b9c9b505050505050505050505050565b6000602082840312156151a857600080fd5b81516132f581614349565b6020815260006132f2602083018486614f9b565b60ff8b16815260e0602082015260006151e460e083018b8d614f9b565b82810360408401526151f7818a8c614f9b565b9050828103606084015261520c81888a614f9b565b6080840196909652505060a081019290925260c090910152979650505050505050565b600083516152418184602088016142c5565b9190910191825250602001919050565b60208082526031908201527f4552433732313a207472616e736665722063616c6c6572206973206e6f74206f6040820152701ddb995c881b9bdc88185c1c1c9bdd9959607a1b606082015260800190565b6000828210156152b4576152b4614f3b565b500390565b634e487b7160e01b600052603160045260246000fd5b60208082526032908201527f4552433732313a207472616e7366657220746f206e6f6e20455243373231526560408201527131b2b4bb32b91034b6b83632b6b2b73a32b960711b606082015260800190565b6000821982111561533457615334614f3b565b500190565b6001600160a01b038581168252841660208201526040810183905260806060820181905260009061536c908301846142f1565b9695505050505050565b60006020828403121561538857600080fd5b81516132f58161429256fe4552433732313a206f776e657220717565727920666f72206e6f6e6578697374656e7420746f6b656ea2646970667358221220f3138e1d1f78de6234a0d20981fefc61c64c74b9de332f98a6441afb74d5e07364736f6c634300080c0033","bytecodeSha1":"184a8872bfd690af24caf1fdaf31979e2347f386","compiler":{"evm_version":"istanbul","optimizer":{"enabled":true,"runs":200},"version":"0.8.12+commit.f00d7308"},"contractName":"ERC721Template","language":"Solidity","natspec":{"kind":"dev","methods":{"addManager(address)":{"details":"addManager      Only NFT Owner can add a new manager (Roles admin)      There can be multiple minters","params":{"_managerAddress":"new manager address"}},"addMultipleUsersToRoles(address[],uint8[])":{"details":"addMultipleUsersToRoles      Add multiple users to multiple roles","params":{"addresses":"Array of addresses","roles":"Array of coresponding roles"}},"addTo725StoreList(address)":{"details":"addTo725StoreList      Adds store role to an user.      It can be called only by a manager","params":{"_allowedAddress":"user address"}},"addToCreateERC20List(address)":{"details":"addToCreateERC20List      Adds deployERC20 role to an user.      It can be called only by a manager","params":{"_allowedAddress":"user address"}},"addToMetadataList(address)":{"details":"addToMetadataList      Adds metadata role to an user.      It can be called only by a manager","params":{"_allowedAddress":"user address"}},"approve(address,uint256)":{"details":"See {IERC721-approve}."},"balanceOf(address)":{"details":"See {IERC721-balanceOf}."},"baseURI()":{"details":"Returns the base URI set via {_setBaseURI}. This will be automatically added as a prefix in {tokenURI} to each token's URI, or to the token ID if no specific URI is set for that token ID."},"cleanPermissions()":{"details":"cleanPermissions      Only NFT Owner  can call it.      This function allows to remove all ROLES at erc721 level:               Managers, ERC20Deployer, MetadataUpdater, StoreUpdater      Permissions at erc20 level stay."},"createERC20(uint256,string[],address[],uint256[],bytes[])":{"details":"createERC20        ONLY user with deployERC20 permission (assigned by Manager) can call it Creates a new ERC20 datatoken. It also adds initial minting and fee management permissions to custom users.","params":{"_templateIndex":"ERC20Template index ","addresses":"refers to an array of addresses                     [0]  = minter account who can mint datatokens (can have multiple minters)                     [1]  = feeManager initial feeManager for this DT                     [2]  = publishing Market Address                     [3]  = publishing Market Fee Token","bytess":"refers to an array of bytes                     Currently not used, usefull for future templates","strings":"refers to an array of strings                      [0] = name                      [1] = symbol","uints":"refers to an array of uints                     [0] = cap_ the total ERC20 cap                     [1] = publishing Market Fee Amount"},"returns":{"_0":"ERC20 token address"}},"executeCall(uint256,address,uint256,bytes)":{"notice":"Executes any other smart contract.  Is only callable by the Manager.","params":{"_data":"the call data, or the contract data to deploy*","_operation":"the operation to execute: CALL = 0; DELEGATECALL = 1; CREATE2 = 2; CREATE = 3;","_to":"the smart contract or address to interact with.           `_to` will be unused if a contract is created (operation 2 and 3)","_value":"the value of ETH to transfer"}},"getApproved(uint256)":{"details":"See {IERC721-getApproved}."},"getData(bytes32)":{"notice":"Gets data at a given `key`","params":{"_key":"the key which value to retrieve"},"returns":{"_value":"The data stored at the key"}},"getId()":{"details":"getId      Return template id in case we need different ABIs.       If you construct your own template, please make sure to change the hardcoded value"},"getMetaData()":{"details":"getMetaData      Returns metaDataState, metaDataDecryptorUrl, metaDataDecryptorAddress"},"getPermissions(address)":{"details":"getPermissions      Returns list of roles for an user","params":{"user":"user address"}},"initialize(address,string,string,address,address,address,string,bool)":{"details":"initialize      Calls private _initialize function. Only if contract is not initialized. This function mints an NFT (tokenId=1) to the owner and add owner as Manager Role","params":{"additionalERC20Deployer":"address of additionalERC20Deployer","additionalMetaDataUpdater":"address of additionalMetaDataUpdater","name_":"NFT name","owner":"NFT Owner","symbol_":"NFT Symbol","tokenFactory":"NFT factory address","tokenURI":"tokenURI","transferable_":"if set to false, this NFT is non-transferable"},"returns":{"_0":"boolean"}},"isApprovedForAll(address,address)":{"details":"See {IERC721-isApprovedForAll}."},"isERC20Deployer(address)":{"details":"isERC20Deployer","returns":{"_0":"true if the account has ERC20 Deploy role"}},"isInitialized()":{"details":"isInitialized      It checks whether the contract is initialized.","returns":{"_0":"true if the contract is initialized."}},"name()":{"details":"name      It returns the token name.","returns":{"_0":"Datatoken name."}},"ownerOf(uint256)":{"details":"See {IERC721-ownerOf}."},"removeFrom725StoreList(address)":{"details":"removeFrom725StoreList      Removes store role from an user.      It can be called by a manager or by the same user, if he already has store role","params":{"_allowedAddress":"user address"}},"removeFromCreateERC20List(address)":{"details":"removeFromCreateERC20List      Removes deployERC20 role from an user.      It can be called by a manager or by the same user, if he already has deployERC20 role","params":{"_allowedAddress":"user address"}},"removeFromMetadataList(address)":{"details":"removeFromMetadataList      Removes metadata role from an user.      It can be called by a manager or by the same user, if he already has metadata role","params":{"_allowedAddress":"user address"}},"removeManager(address)":{"details":"removeManager      Only NFT Owner can remove a manager (Roles admin)      There can be multiple minters","params":{"_managerAddress":"new manager address"}},"safeTransferFrom(address,address,uint256)":{"details":"safeTransferFrom       Used for transferring the NFT, can be used by an approved relayer Even if we only have 1 tokenId, we leave it open as arguments for being a standard ERC721","params":{"from":"nft owner","to":"nft receiver","tokenId":"tokenId (1)"}},"setApprovalForAll(address,bool)":{"details":"See {IERC721-setApprovalForAll}."},"setDataERC20(bytes32,bytes)":{"details":"setDataERC20      ONLY callable FROM the ERC20Template and BY the corresponding ERC20Deployer This function allows to store data with a preset key (keccak256(ERC20Address)) into NFT 725 Store","params":{"_key":"keccak256(ERC20Address) see setData into ERC20Template.sol","_value":"data to store at that key"}},"setMetaData(uint8,string,string,bytes,bytes,bytes32,(address,uint8,bytes32,bytes32)[])":{"details":"setMetaData      Creates or update Metadata for Aqua(emit event) Also, updates the METADATA_DECRYPTOR key","params":{"_metaDataDecryptorAddress":"decryptor public key","_metaDataDecryptorUrl":"decryptor URL","_metaDataHash":"hash of clear data (before the encryption, if any)","_metaDataState":"metadata state","_metadataProofs":"optional signatures of entitys who validated data (before the encryption, if any)","data":"data used by Aquarius","flags":"flags used by Aquarius"}},"setMetaDataAndTokenURI((uint8,string,string,bytes,bytes,bytes32,uint256,string,(address,uint8,bytes32,bytes32)[]))":{"details":"setMetaDataAndTokenURI       Helper function to improve UX Calls setMetaData & setTokenURI","params":{"_metaDataAndTokenURI":"metaDataAndTokenURI struct"}},"setMetaDataState(uint8)":{"details":"setMetaDataState      Updates metadata state","params":{"_metaDataState":"metadata state"}},"setNewData(bytes32,bytes)":{"details":"setNewData       ONLY user with store permission (assigned by Manager) can call it This function allows to set any arbitrary key-value into the 725 standard      There can be multiple store updaters","params":{"_key":"key (see 725 for standard (keccak256))  Data keys, should be the keccak256 hash of a type name. e.g. keccak256('ERCXXXMyNewKeyType') is 0x6935a24ea384927f250ee0b954ed498cd9203fc5d2bf95c735e52e6ca675e047","_value":"data to store at that key"}},"setTokenURI(uint256,string)":{"details":"setTokenURI      sets tokenURI for a tokenId","params":{"tokenId":"token ID","tokenURI":"token URI"}},"supportsInterface(bytes4)":{"details":"See {IERC165-supportsInterface}. Time complexity O(1), guaranteed to always use less than 30 000 gas."},"symbol()":{"details":"symbol      It returns the token symbol.","returns":{"_0":"Datatoken symbol."}},"tokenByIndex(uint256)":{"details":"See {IERC721Enumerable-tokenByIndex}."},"tokenOfOwnerByIndex(address,uint256)":{"details":"See {IERC721Enumerable-tokenOfOwnerByIndex}."},"tokenURI(uint256)":{"details":"See {IERC721Metadata-tokenURI}."},"totalSupply()":{"details":"See {IERC721Enumerable-totalSupply}."},"transferFrom(address,address,uint256)":{"details":"transferFrom       Used for transferring the NFT, can be used by an approved relayer Even if we only have 1 tokenId, we leave it open as arguments for being a standard ERC721","params":{"from":"nft owner","to":"nft receiver","tokenId":"tokenId (1)"}},"withdrawETH()":{"details":"withdrawETH      transfers all the accumlated ether the ownerOf"}},"version":1},"opcodes":"PUSH1 0x80 PUSH1 0x40 MSTORE PUSH1 0x4 CALLDATASIZE LT PUSH2 0x2C7 JUMPI PUSH1 0x0 CALLDATALOAD PUSH1 0xE0 SHR DUP1 PUSH4 0x4F6CCCE7 GT PUSH2 0x17E JUMPI DUP1 PUSH4 0xA22CB465 GT PUSH2 0xD3 JUMPI DUP1 PUSH4 0xCCD7D476 GT PUSH2 0x8F JUMPI DUP1 PUSH4 0xE086E5EC GT PUSH2 0x6C JUMPI DUP1 PUSH4 0xE086E5EC EQ PUSH2 0x9A0 JUMPI DUP1 PUSH4 0xE38D7CAD EQ PUSH2 0x9A8 JUMPI DUP1 PUSH4 0xE985E9C5 EQ PUSH2 0x9C8 JUMPI DUP1 PUSH4 0xFE1EC880 EQ PUSH2 0xA11 JUMPI STOP JUMPDEST DUP1 PUSH4 0xCCD7D476 EQ PUSH2 0x942 JUMPI DUP1 PUSH4 0xD2786BA4 EQ PUSH2 0x95C JUMPI DUP1 PUSH4 0xD8053AD3 EQ PUSH2 0x981 JUMPI STOP JUMPDEST DUP1 PUSH4 0xA22CB465 EQ PUSH2 0x88F JUMPI DUP1 PUSH4 0xAC18DE43 EQ PUSH2 0x8AF JUMPI DUP1 PUSH4 0xB0C41EAD EQ PUSH2 0x8CF JUMPI DUP1 PUSH4 0xC2D60E6E EQ PUSH2 0x8EF JUMPI DUP1 PUSH4 0xC55F8126 EQ PUSH2 0x90F JUMPI DUP1 PUSH4 0xC87B56DD EQ PUSH2 0x922 JUMPI STOP JUMPDEST DUP1 PUSH4 0x6C0360EB GT PUSH2 0x13A JUMPI DUP1 PUSH4 0x90184B02 GT PUSH2 0x117 JUMPI DUP1 PUSH4 0x90184B02 EQ PUSH2 0x7E9 JUMPI DUP1 PUSH4 0x92FF0D31 EQ PUSH2 0x822 JUMPI DUP1 PUSH4 0x95D89B41 EQ PUSH2 0x83C JUMPI DUP1 PUSH4 0x96FB3EAF EQ PUSH2 0x851 JUMPI STOP JUMPDEST DUP1 PUSH4 0x6C0360EB EQ PUSH2 0x79F JUMPI DUP1 PUSH4 0x70A08231 EQ PUSH2 0x7B4 JUMPI DUP1 PUSH4 0x82CF129D EQ PUSH2 0x7D4 JUMPI STOP JUMPDEST DUP1 PUSH4 0x4F6CCCE7 EQ PUSH2 0x6DD JUMPI DUP1 PUSH4 0x54F6127F EQ PUSH2 0x6FD JUMPI DUP1 PUSH4 0x55F804B3 EQ PUSH2 0x71D JUMPI DUP1 PUSH4 0x5D1CA631 EQ PUSH2 0x73D JUMPI DUP1 PUSH4 0x6352211E EQ PUSH2 0x75F JUMPI DUP1 PUSH4 0x67530A61 EQ PUSH2 0x77F JUMPI STOP JUMPDEST DUP1 PUSH4 0x1A1D51E8 GT PUSH2 0x234 JUMPI DUP1 PUSH4 0x392E53CD GT PUSH2 0x1F0 JUMPI DUP1 PUSH4 0x466BCA02 GT PUSH2 0x1CD JUMPI DUP1 PUSH4 0x466BCA02 EQ PUSH2 0x666 JUMPI DUP1 PUSH4 0x467C97F5 EQ PUSH2 0x688 JUMPI DUP1 PUSH4 0x4A63740A EQ PUSH2 0x6A8 JUMPI DUP1 PUSH4 0x4F189CB2 EQ PUSH2 0x6C8 JUMPI STOP JUMPDEST DUP1 PUSH4 0x392E53CD EQ PUSH2 0x60E JUMPI DUP1 PUSH4 0x42842E0E EQ PUSH2 0x626 JUMPI DUP1 PUSH4 0x431053AC EQ PUSH2 0x646 JUMPI STOP JUMPDEST DUP1 PUSH4 0x1A1D51E8 EQ PUSH2 0x54E JUMPI DUP1 PUSH4 0x1AA3ADF9 EQ PUSH2 0x56E JUMPI DUP1 PUSH4 0x23B872DD EQ PUSH2 0x58E JUMPI DUP1 PUSH4 0x273E06B3 EQ PUSH2 0x5AE JUMPI DUP1 PUSH4 0x2D06177A EQ PUSH2 0x5CE JUMPI DUP1 PUSH4 0x2F745C59 EQ PUSH2 0x5EE JUMPI STOP JUMPDEST DUP1 PUSH4 0x10C558BF GT PUSH2 0x283 JUMPI DUP1 PUSH4 0x10C558BF EQ PUSH2 0x3CE JUMPI DUP1 PUSH4 0x160A7925 EQ PUSH2 0x3EE JUMPI DUP1 PUSH4 0x162094C4 EQ PUSH2 0x4CB JUMPI DUP1 PUSH4 0x18160DDD EQ PUSH2 0x4EB JUMPI DUP1 PUSH4 0x19A18A85 EQ PUSH2 0x50E JUMPI DUP1 PUSH4 0x19C186E5 EQ PUSH2 0x52E JUMPI STOP JUMPDEST DUP1 PUSH4 0x1FFC9A7 EQ PUSH2 0x2D0 JUMPI DUP1 PUSH4 0x6FDDE03 EQ PUSH2 0x31F JUMPI DUP1 PUSH4 0x81812FC EQ PUSH2 0x341 JUMPI DUP1 PUSH4 0x95EA7B3 EQ PUSH2 0x379 JUMPI DUP1 PUSH4 0xE05662E EQ PUSH2 0x399 JUMPI DUP1 PUSH4 0xE57C7E8 EQ PUSH2 0x3AE JUMPI STOP JUMPDEST CALLDATASIZE PUSH2 0x2CE JUMPI STOP JUMPDEST STOP JUMPDEST CALLVALUE DUP1 ISZERO PUSH2 0x2DC JUMPI PUSH1 0x0 DUP1 REVERT JUMPDEST POP PUSH2 0x30A PUSH2 0x2EB CALLDATASIZE PUSH1 0x4 PUSH2 0x42A8 JUMP JUMPDEST PUSH1 0x1 PUSH1 0x1 PUSH1 0xE0 SHL SUB NOT AND PUSH1 0x0 SWAP1 DUP2 MSTORE PUSH1 0x20 DUP2 SWAP1 MSTORE PUSH1 0x40 SWAP1 KECCAK256 SLOAD PUSH1 0xFF AND SWAP1 JUMP JUMPDEST PUSH1 0x40 MLOAD SWAP1 ISZERO ISZERO DUP2 MSTORE PUSH1 0x20 ADD JUMPDEST PUSH1 0x40 MLOAD DUP1 SWAP2 SUB SWAP1 RETURN JUMPDEST CALLVALUE DUP1 ISZERO PUSH2 0x32B JUMPI PUSH1 0x0 DUP1 REVERT JUMPDEST POP PUSH2 0x334 PUSH2 0xA31 JUMP JUMPDEST PUSH1 0x40 MLOAD PUSH2 0x316 SWAP2 SWAP1 PUSH2 0x431D JUMP JUMPDEST CALLVALUE DUP1 ISZERO PUSH2 0x34D JUMPI PUSH1 0x0 DUP1 REVERT JUMPDEST POP PUSH2 0x361 PUSH2 0x35C CALLDATASIZE PUSH1 0x4 PUSH2 0x4330 JUMP JUMPDEST PUSH2 0xAC3 JUMP JUMPDEST PUSH1 0x40 MLOAD PUSH1 0x1 PUSH1 0x1 PUSH1 0xA0 SHL SUB SWAP1 SWAP2 AND DUP2 MSTORE PUSH1 0x20 ADD PUSH2 0x316 JUMP JUMPDEST CALLVALUE DUP1 ISZERO PUSH2 0x385 JUMPI PUSH1 0x0 DUP1 REVERT JUMPDEST POP PUSH2 0x2CE PUSH2 0x394 CALLDATASIZE PUSH1 0x4 PUSH2 0x436E JUMP JUMPDEST PUSH2 0xB50 JUMP JUMPDEST CALLVALUE DUP1 ISZERO PUSH2 0x3A5 JUMPI PUSH1 0x0 DUP1 REVERT JUMPDEST POP PUSH2 0x334 PUSH2 0xC66 JUMP JUMPDEST CALLVALUE DUP1 ISZERO PUSH2 0x3BA JUMPI PUSH1 0x0 DUP1 REVERT JUMPDEST POP PUSH2 0x2CE PUSH2 0x3C9 CALLDATASIZE PUSH1 0x4 PUSH2 0x43DB JUMP JUMPDEST PUSH2 0xCF4 JUMP JUMPDEST CALLVALUE DUP1 ISZERO PUSH2 0x3DA JUMPI PUSH1 0x0 DUP1 REVERT JUMPDEST POP PUSH2 0x2CE PUSH2 0x3E9 CALLDATASIZE PUSH1 0x4 PUSH2 0x4426 JUMP JUMPDEST PUSH2 0xD69 JUMP JUMPDEST CALLVALUE DUP1 ISZERO PUSH2 0x3FA JUMPI PUSH1 0x0 DUP1 REVERT JUMPDEST POP PUSH2 0x490 PUSH2 0x409 CALLDATASIZE PUSH1 0x4 PUSH2 0x4426 JUMP JUMPDEST PUSH1 0x40 DUP1 MLOAD PUSH1 0x80 DUP2 ADD DUP3 MSTORE PUSH1 0x0 DUP1 DUP3 MSTORE PUSH1 0x20 DUP3 ADD DUP2 SWAP1 MSTORE SWAP2 DUP2 ADD DUP3 SWAP1 MSTORE PUSH1 0x60 DUP2 ADD SWAP2 SWAP1 SWAP2 MSTORE POP PUSH1 0x1 PUSH1 0x1 PUSH1 0xA0 SHL SUB AND PUSH1 0x0 SWAP1 DUP2 MSTORE PUSH1 0xA PUSH1 0x20 SWAP1 DUP2 MSTORE PUSH1 0x40 SWAP2 DUP3 SWAP1 KECCAK256 DUP3 MLOAD PUSH1 0x80 DUP2 ADD DUP5 MSTORE SWAP1 SLOAD PUSH1 0xFF DUP1 DUP3 AND ISZERO ISZERO DUP4 MSTORE PUSH2 0x100 DUP3 DIV DUP2 AND ISZERO ISZERO SWAP4 DUP4 ADD SWAP4 SWAP1 SWAP4 MSTORE PUSH3 0x10000 DUP2 DIV DUP4 AND ISZERO ISZERO SWAP4 DUP3 ADD SWAP4 SWAP1 SWAP4 MSTORE PUSH4 0x1000000 SWAP1 SWAP3 DIV AND ISZERO ISZERO PUSH1 0x60 DUP3 ADD MSTORE SWAP1 JUMP JUMPDEST PUSH1 0x40 MLOAD PUSH2 0x316 SWAP2 SWAP1 DUP2 MLOAD ISZERO ISZERO DUP2 MSTORE PUSH1 0x20 DUP1 DUP4 ADD MLOAD ISZERO ISZERO SWAP1 DUP3 ADD MSTORE PUSH1 0x40 DUP1 DUP4 ADD MLOAD ISZERO ISZERO SWAP1 DUP3 ADD MSTORE PUSH1 0x60 SWAP2 DUP3 ADD MLOAD ISZERO ISZERO SWAP2 DUP2 ADD SWAP2 SWAP1 SWAP2 MSTORE PUSH1 0x80 ADD SWAP1 JUMP JUMPDEST CALLVALUE DUP1 ISZERO PUSH2 0x4D7 JUMPI PUSH1 0x0 DUP1 REVERT JUMPDEST POP PUSH2 0x2CE PUSH2 0x4E6 CALLDATASIZE PUSH1 0x4 PUSH2 0x44F8 JUMP JUMPDEST PUSH2 0xDA9 JUMP JUMPDEST CALLVALUE DUP1 ISZERO PUSH2 0x4F7 JUMPI PUSH1 0x0 DUP1 REVERT JUMPDEST POP PUSH2 0x500 PUSH2 0xE37 JUMP JUMPDEST PUSH1 0x40 MLOAD SWAP1 DUP2 MSTORE PUSH1 0x20 ADD PUSH2 0x316 JUMP JUMPDEST CALLVALUE DUP1 ISZERO PUSH2 0x51A JUMPI PUSH1 0x0 DUP1 REVERT JUMPDEST POP PUSH2 0x2CE PUSH2 0x529 CALLDATASIZE PUSH1 0x4 PUSH2 0x453E JUMP JUMPDEST PUSH2 0xE48 JUMP JUMPDEST CALLVALUE DUP1 ISZERO PUSH2 0x53A JUMPI PUSH1 0x0 DUP1 REVERT JUMPDEST POP PUSH2 0x2CE PUSH2 0x549 CALLDATASIZE PUSH1 0x4 PUSH2 0x4426 JUMP JUMPDEST PUSH2 0xF79 JUMP JUMPDEST CALLVALUE DUP1 ISZERO PUSH2 0x55A JUMPI PUSH1 0x0 DUP1 REVERT JUMPDEST POP PUSH2 0x30A PUSH2 0x569 CALLDATASIZE PUSH1 0x4 PUSH2 0x4589 JUMP JUMPDEST PUSH2 0x1038 JUMP JUMPDEST CALLVALUE DUP1 ISZERO PUSH2 0x57A JUMPI PUSH1 0x0 DUP1 REVERT JUMPDEST POP PUSH2 0x2CE PUSH2 0x589 CALLDATASIZE PUSH1 0x4 PUSH2 0x478D JUMP JUMPDEST PUSH2 0x119E JUMP JUMPDEST CALLVALUE DUP1 ISZERO PUSH2 0x59A JUMPI PUSH1 0x0 DUP1 REVERT JUMPDEST POP PUSH2 0x2CE PUSH2 0x5A9 CALLDATASIZE PUSH1 0x4 PUSH2 0x4894 JUMP JUMPDEST PUSH2 0x11F3 JUMP JUMPDEST CALLVALUE DUP1 ISZERO PUSH2 0x5BA JUMPI PUSH1 0x0 DUP1 REVERT JUMPDEST POP PUSH2 0x2CE PUSH2 0x5C9 CALLDATASIZE PUSH1 0x4 PUSH2 0x4426 JUMP JUMPDEST PUSH2 0x12EA JUMP JUMPDEST CALLVALUE DUP1 ISZERO PUSH2 0x5DA JUMPI PUSH1 0x0 DUP1 REVERT JUMPDEST POP PUSH2 0x2CE PUSH2 0x5E9 CALLDATASIZE PUSH1 0x4 PUSH2 0x4426 JUMP JUMPDEST PUSH2 0x1435 JUMP JUMPDEST CALLVALUE DUP1 ISZERO PUSH2 0x5FA JUMPI PUSH1 0x0 DUP1 REVERT JUMPDEST POP PUSH2 0x500 PUSH2 0x609 CALLDATASIZE PUSH1 0x4 PUSH2 0x436E JUMP JUMPDEST PUSH2 0x1478 JUMP JUMPDEST CALLVALUE DUP1 ISZERO PUSH2 0x61A JUMPI PUSH1 0x0 DUP1 REVERT JUMPDEST POP PUSH1 0x10 SLOAD PUSH1 0xFF AND PUSH2 0x30A JUMP JUMPDEST CALLVALUE DUP1 ISZERO PUSH2 0x632 JUMPI PUSH1 0x0 DUP1 REVERT JUMPDEST POP PUSH2 0x2CE PUSH2 0x641 CALLDATASIZE PUSH1 0x4 PUSH2 0x4894 JUMP JUMPDEST PUSH2 0x14A3 JUMP JUMPDEST CALLVALUE DUP1 ISZERO PUSH2 0x652 JUMPI PUSH1 0x0 DUP1 REVERT JUMPDEST POP PUSH2 0x2CE PUSH2 0x661 CALLDATASIZE PUSH1 0x4 PUSH2 0x4426 JUMP JUMPDEST PUSH2 0x159F JUMP JUMPDEST CALLVALUE DUP1 ISZERO PUSH2 0x672 JUMPI PUSH1 0x0 DUP1 REVERT JUMPDEST POP PUSH2 0x67B PUSH2 0x16D4 JUMP JUMPDEST PUSH1 0x40 MLOAD PUSH2 0x316 SWAP2 SWAP1 PUSH2 0x48D5 JUMP JUMPDEST CALLVALUE DUP1 ISZERO PUSH2 0x694 JUMPI PUSH1 0x0 DUP1 REVERT JUMPDEST POP PUSH2 0x2CE PUSH2 0x6A3 CALLDATASIZE PUSH1 0x4 PUSH2 0x4922 JUMP JUMPDEST PUSH2 0x1735 JUMP JUMPDEST CALLVALUE DUP1 ISZERO PUSH2 0x6B4 JUMPI PUSH1 0x0 DUP1 REVERT JUMPDEST POP PUSH2 0x2CE PUSH2 0x6C3 CALLDATASIZE PUSH1 0x4 PUSH2 0x4426 JUMP JUMPDEST PUSH2 0x17C0 JUMP JUMPDEST CALLVALUE DUP1 ISZERO PUSH2 0x6D4 JUMPI PUSH1 0x0 DUP1 REVERT JUMPDEST POP PUSH2 0x2CE PUSH2 0x17FD JUMP JUMPDEST CALLVALUE DUP1 ISZERO PUSH2 0x6E9 JUMPI PUSH1 0x0 DUP1 REVERT JUMPDEST POP PUSH2 0x500 PUSH2 0x6F8 CALLDATASIZE PUSH1 0x4 PUSH2 0x4330 JUMP JUMPDEST PUSH2 0x1853 JUMP JUMPDEST CALLVALUE DUP1 ISZERO PUSH2 0x709 JUMPI PUSH1 0x0 DUP1 REVERT JUMPDEST POP PUSH2 0x334 PUSH2 0x718 CALLDATASIZE PUSH1 0x4 PUSH2 0x4330 JUMP JUMPDEST PUSH2 0x1869 JUMP JUMPDEST CALLVALUE DUP1 ISZERO PUSH2 0x729 JUMPI PUSH1 0x0 DUP1 REVERT JUMPDEST POP PUSH2 0x2CE PUSH2 0x738 CALLDATASIZE PUSH1 0x4 PUSH2 0x493D JUMP JUMPDEST PUSH2 0x190B JUMP JUMPDEST CALLVALUE DUP1 ISZERO PUSH2 0x749 JUMPI PUSH1 0x0 DUP1 REVERT JUMPDEST POP PUSH1 0x1 JUMPDEST PUSH1 0x40 MLOAD PUSH1 0xFF SWAP1 SWAP2 AND DUP2 MSTORE PUSH1 0x20 ADD PUSH2 0x316 JUMP JUMPDEST CALLVALUE DUP1 ISZERO PUSH2 0x76B JUMPI PUSH1 0x0 DUP1 REVERT JUMPDEST POP PUSH2 0x361 PUSH2 0x77A CALLDATASIZE PUSH1 0x4 PUSH2 0x4330 JUMP JUMPDEST PUSH2 0x1958 JUMP JUMPDEST CALLVALUE DUP1 ISZERO PUSH2 0x78B JUMPI PUSH1 0x0 DUP1 REVERT JUMPDEST POP PUSH2 0x2CE PUSH2 0x79A CALLDATASIZE PUSH1 0x4 PUSH2 0x43DB JUMP JUMPDEST PUSH2 0x1980 JUMP JUMPDEST CALLVALUE DUP1 ISZERO PUSH2 0x7AB JUMPI PUSH1 0x0 DUP1 REVERT JUMPDEST POP PUSH2 0x334 PUSH2 0x19F0 JUMP JUMPDEST CALLVALUE DUP1 ISZERO PUSH2 0x7C0 JUMPI PUSH1 0x0 DUP1 REVERT JUMPDEST POP PUSH2 0x500 PUSH2 0x7CF CALLDATASIZE PUSH1 0x4 PUSH2 0x4426 JUMP JUMPDEST PUSH2 0x19FA JUMP JUMPDEST CALLVALUE DUP1 ISZERO PUSH2 0x7E0 JUMPI PUSH1 0x0 DUP1 REVERT JUMPDEST POP PUSH2 0x334 PUSH2 0x1A86 JUMP JUMPDEST CALLVALUE DUP1 ISZERO PUSH2 0x7F5 JUMPI PUSH1 0x0 DUP1 REVERT JUMPDEST POP PUSH2 0x30A PUSH2 0x804 CALLDATASIZE PUSH1 0x4 PUSH2 0x4426 JUMP JUMPDEST PUSH1 0x1 PUSH1 0x1 PUSH1 0xA0 SHL SUB AND PUSH1 0x0 SWAP1 DUP2 MSTORE PUSH1 0x15 PUSH1 0x20 MSTORE PUSH1 0x40 SWAP1 KECCAK256 SLOAD PUSH1 0xFF AND SWAP1 JUMP JUMPDEST CALLVALUE DUP1 ISZERO PUSH2 0x82E JUMPI PUSH1 0x0 DUP1 REVERT JUMPDEST POP PUSH1 0x16 SLOAD PUSH2 0x30A SWAP1 PUSH1 0xFF AND DUP2 JUMP JUMPDEST CALLVALUE DUP1 ISZERO PUSH2 0x848 JUMPI PUSH1 0x0 DUP1 REVERT JUMPDEST POP PUSH2 0x334 PUSH2 0x1A93 JUMP JUMPDEST CALLVALUE DUP1 ISZERO PUSH2 0x85D JUMPI PUSH1 0x0 DUP1 REVERT JUMPDEST POP PUSH2 0x30A PUSH2 0x86C CALLDATASIZE PUSH1 0x4 PUSH2 0x4426 JUMP JUMPDEST PUSH1 0x1 PUSH1 0x1 PUSH1 0xA0 SHL SUB AND PUSH1 0x0 SWAP1 DUP2 MSTORE PUSH1 0xA PUSH1 0x20 MSTORE PUSH1 0x40 SWAP1 KECCAK256 SLOAD PUSH2 0x100 SWAP1 DIV PUSH1 0xFF AND SWAP1 JUMP JUMPDEST CALLVALUE DUP1 ISZERO PUSH2 0x89B JUMPI PUSH1 0x0 DUP1 REVERT JUMPDEST POP PUSH2 0x2CE PUSH2 0x8AA CALLDATASIZE PUSH1 0x4 PUSH2 0x4971 JUMP JUMPDEST PUSH2 0x1AA2 JUMP JUMPDEST CALLVALUE DUP1 ISZERO PUSH2 0x8BB JUMPI PUSH1 0x0 DUP1 REVERT JUMPDEST POP PUSH2 0x2CE PUSH2 0x8CA CALLDATASIZE PUSH1 0x4 PUSH2 0x4426 JUMP JUMPDEST PUSH2 0x1B60 JUMP JUMPDEST CALLVALUE DUP1 ISZERO PUSH2 0x8DB JUMPI PUSH1 0x0 DUP1 REVERT JUMPDEST POP PUSH2 0x361 PUSH2 0x8EA CALLDATASIZE PUSH1 0x4 PUSH2 0x4330 JUMP JUMPDEST PUSH2 0x1BA3 JUMP JUMPDEST CALLVALUE DUP1 ISZERO PUSH2 0x8FB JUMPI PUSH1 0x0 DUP1 REVERT JUMPDEST POP PUSH2 0x2CE PUSH2 0x90A CALLDATASIZE PUSH1 0x4 PUSH2 0x4A0F JUMP JUMPDEST PUSH2 0x1BCD JUMP JUMPDEST PUSH2 0x2CE PUSH2 0x91D CALLDATASIZE PUSH1 0x4 PUSH2 0x4AC6 JUMP JUMPDEST PUSH2 0x1FD5 JUMP JUMPDEST CALLVALUE DUP1 ISZERO PUSH2 0x92E JUMPI PUSH1 0x0 DUP1 REVERT JUMPDEST POP PUSH2 0x334 PUSH2 0x93D CALLDATASIZE PUSH1 0x4 PUSH2 0x4330 JUMP JUMPDEST PUSH2 0x201D JUMP JUMPDEST CALLVALUE DUP1 ISZERO PUSH2 0x94E JUMPI PUSH1 0x0 DUP1 REVERT JUMPDEST POP PUSH1 0x13 SLOAD PUSH2 0x74D SWAP1 PUSH1 0xFF AND DUP2 JUMP JUMPDEST CALLVALUE DUP1 ISZERO PUSH2 0x968 JUMPI PUSH1 0x0 DUP1 REVERT JUMPDEST POP PUSH2 0x971 PUSH2 0x216B JUMP JUMPDEST PUSH1 0x40 MLOAD PUSH2 0x316 SWAP5 SWAP4 SWAP3 SWAP2 SWAP1 PUSH2 0x4B2F JUMP JUMPDEST CALLVALUE DUP1 ISZERO PUSH2 0x98D JUMPI PUSH1 0x0 DUP1 REVERT JUMPDEST POP PUSH1 0x10 SLOAD PUSH2 0x30A SWAP1 PUSH2 0x100 SWAP1 DIV PUSH1 0xFF AND DUP2 JUMP JUMPDEST PUSH2 0x2CE PUSH2 0x22BB JUMP JUMPDEST CALLVALUE DUP1 ISZERO PUSH2 0x9B4 JUMPI PUSH1 0x0 DUP1 REVERT JUMPDEST POP PUSH2 0x361 PUSH2 0x9C3 CALLDATASIZE PUSH1 0x4 PUSH2 0x4BB4 JUMP JUMPDEST PUSH2 0x22FD JUMP JUMPDEST CALLVALUE DUP1 ISZERO PUSH2 0x9D4 JUMPI PUSH1 0x0 DUP1 REVERT JUMPDEST POP PUSH2 0x30A PUSH2 0x9E3 CALLDATASIZE PUSH1 0x4 PUSH2 0x4C83 JUMP JUMPDEST PUSH1 0x1 PUSH1 0x1 PUSH1 0xA0 SHL SUB SWAP2 DUP3 AND PUSH1 0x0 SWAP1 DUP2 MSTORE PUSH1 0x8 PUSH1 0x20 SWAP1 DUP2 MSTORE PUSH1 0x40 DUP1 DUP4 KECCAK256 SWAP4 SWAP1 SWAP5 AND DUP3 MSTORE SWAP2 SWAP1 SWAP2 MSTORE KECCAK256 SLOAD PUSH1 0xFF AND SWAP1 JUMP JUMPDEST CALLVALUE DUP1 ISZERO PUSH2 0xA1D JUMPI PUSH1 0x0 DUP1 REVERT JUMPDEST POP PUSH2 0x2CE PUSH2 0xA2C CALLDATASIZE PUSH1 0x4 PUSH2 0x4426 JUMP JUMPDEST PUSH2 0x24CD JUMP JUMPDEST PUSH1 0x60 PUSH1 0xE DUP1 SLOAD PUSH2 0xA40 SWAP1 PUSH2 0x4CBC JUMP JUMPDEST DUP1 PUSH1 0x1F ADD PUSH1 0x20 DUP1 SWAP2 DIV MUL PUSH1 0x20 ADD PUSH1 0x40 MLOAD SWAP1 DUP2 ADD PUSH1 0x40 MSTORE DUP1 SWAP3 SWAP2 SWAP1 DUP2 DUP2 MSTORE PUSH1 0x20 ADD DUP3 DUP1 SLOAD PUSH2 0xA6C SWAP1 PUSH2 0x4CBC JUMP JUMPDEST DUP1 ISZERO PUSH2 0xAB9 JUMPI DUP1 PUSH1 0x1F LT PUSH2 0xA8E JUMPI PUSH2 0x100 DUP1 DUP4 SLOAD DIV MUL DUP4 MSTORE SWAP2 PUSH1 0x20 ADD SWAP2 PUSH2 0xAB9 JUMP JUMPDEST DUP3 ADD SWAP2 SWAP1 PUSH1 0x0 MSTORE PUSH1 0x20 PUSH1 0x0 KECCAK256 SWAP1 JUMPDEST DUP2 SLOAD DUP2 MSTORE SWAP1 PUSH1 0x1 ADD SWAP1 PUSH1 0x20 ADD DUP1 DUP4 GT PUSH2 0xA9C JUMPI DUP3 SWAP1 SUB PUSH1 0x1F AND DUP3 ADD SWAP2 JUMPDEST POP POP POP POP POP SWAP1 POP SWAP1 JUMP JUMPDEST PUSH1 0x0 PUSH2 0xACE DUP3 PUSH2 0x25FD JUMP JUMPDEST PUSH2 0xB34 JUMPI PUSH1 0x40 MLOAD PUSH3 0x461BCD PUSH1 0xE5 SHL DUP2 MSTORE PUSH1 0x20 PUSH1 0x4 DUP3 ADD MSTORE PUSH1 0x2C PUSH1 0x24 DUP3 ADD MSTORE PUSH32 0x4552433732313A20617070726F76656420717565727920666F72206E6F6E6578 PUSH1 0x44 DUP3 ADD MSTORE PUSH12 0x34B9BA32B73A103A37B5B2B7 PUSH1 0xA1 SHL PUSH1 0x64 DUP3 ADD MSTORE PUSH1 0x84 ADD JUMPDEST PUSH1 0x40 MLOAD DUP1 SWAP2 SUB SWAP1 REVERT JUMPDEST POP PUSH1 0x0 SWAP1 DUP2 MSTORE PUSH1 0x7 PUSH1 0x20 MSTORE PUSH1 0x40 SWAP1 KECCAK256 SLOAD PUSH1 0x1 PUSH1 0x1 PUSH1 0xA0 SHL SUB AND SWAP1 JUMP JUMPDEST PUSH1 0x0 PUSH2 0xB5B DUP3 PUSH2 0x1958 JUMP JUMPDEST SWAP1 POP DUP1 PUSH1 0x1 PUSH1 0x1 PUSH1 0xA0 SHL SUB AND DUP4 PUSH1 0x1 PUSH1 0x1 PUSH1 0xA0 SHL SUB AND EQ ISZERO PUSH2 0xBC9 JUMPI PUSH1 0x40 MLOAD PUSH3 0x461BCD PUSH1 0xE5 SHL DUP2 MSTORE PUSH1 0x20 PUSH1 0x4 DUP3 ADD MSTORE PUSH1 0x21 PUSH1 0x24 DUP3 ADD MSTORE PUSH32 0x4552433732313A20617070726F76616C20746F2063757272656E74206F776E65 PUSH1 0x44 DUP3 ADD MSTORE PUSH1 0x39 PUSH1 0xF9 SHL PUSH1 0x64 DUP3 ADD MSTORE PUSH1 0x84 ADD PUSH2 0xB2B JUMP JUMPDEST CALLER PUSH1 0x1 PUSH1 0x1 PUSH1 0xA0 SHL SUB DUP3 AND EQ DUP1 PUSH2 0xBE5 JUMPI POP PUSH2 0xBE5 DUP2 CALLER PUSH2 0x9E3 JUMP JUMPDEST PUSH2 0xC57 JUMPI PUSH1 0x40 MLOAD PUSH3 0x461BCD PUSH1 0xE5 SHL DUP2 MSTORE PUSH1 0x20 PUSH1 0x4 DUP3 ADD MSTORE PUSH1 0x38 PUSH1 0x24 DUP3 ADD MSTORE PUSH32 0x4552433732313A20617070726F76652063616C6C6572206973206E6F74206F77 PUSH1 0x44 DUP3 ADD MSTORE PUSH32 0x6E6572206E6F7220617070726F76656420666F7220616C6C0000000000000000 PUSH1 0x64 DUP3 ADD MSTORE PUSH1 0x84 ADD PUSH2 0xB2B JUMP JUMPDEST PUSH2 0xC61 DUP4 DUP4 PUSH2 0x260A JUMP JUMPDEST POP POP POP JUMP JUMPDEST PUSH1 0x12 DUP1 SLOAD PUSH2 0xC73 SWAP1 PUSH2 0x4CBC JUMP JUMPDEST DUP1 PUSH1 0x1F ADD PUSH1 0x20 DUP1 SWAP2 DIV MUL PUSH1 0x20 ADD PUSH1 0x40 MLOAD SWAP1 DUP2 ADD PUSH1 0x40 MSTORE DUP1 SWAP3 SWAP2 SWAP1 DUP2 DUP2 MSTORE PUSH1 0x20 ADD DUP3 DUP1 SLOAD PUSH2 0xC9F SWAP1 PUSH2 0x4CBC JUMP JUMPDEST DUP1 ISZERO PUSH2 0xCEC JUMPI DUP1 PUSH1 0x1F LT PUSH2 0xCC1 JUMPI PUSH2 0x100 DUP1 DUP4 SLOAD DIV MUL DUP4 MSTORE SWAP2 PUSH1 0x20 ADD SWAP2 PUSH2 0xCEC JUMP JUMPDEST DUP3 ADD SWAP2 SWAP1 PUSH1 0x0 MSTORE PUSH1 0x20 PUSH1 0x0 KECCAK256 SWAP1 JUMPDEST DUP2 SLOAD DUP2 MSTORE SWAP1 PUSH1 0x1 ADD SWAP1 PUSH1 0x20 ADD DUP1 DUP4 GT PUSH2 0xCCF JUMPI DUP3 SWAP1 SUB PUSH1 0x1F AND DUP3 ADD SWAP2 JUMPDEST POP POP POP POP POP DUP2 JUMP JUMPDEST CALLER PUSH1 0x0 SWAP1 DUP2 MSTORE PUSH1 0x15 PUSH1 0x20 MSTORE PUSH1 0x40 SWAP1 KECCAK256 SLOAD PUSH1 0xFF AND PUSH2 0xD5E JUMPI PUSH1 0x40 MLOAD PUSH3 0x461BCD PUSH1 0xE5 SHL DUP2 MSTORE PUSH1 0x20 PUSH1 0x4 DUP3 ADD MSTORE PUSH1 0x22 PUSH1 0x24 DUP3 ADD MSTORE PUSH32 0x45524337323154656D706C6174653A204E4F5420455243323020436F6E747261 PUSH1 0x44 DUP3 ADD MSTORE PUSH2 0x18DD PUSH1 0xF2 SHL PUSH1 0x64 DUP3 ADD MSTORE PUSH1 0x84 ADD PUSH2 0xB2B JUMP JUMPDEST PUSH2 0xC61 DUP4 DUP4 DUP4 PUSH2 0x2678 JUMP JUMPDEST CALLER PUSH1 0x0 SWAP1 DUP2 MSTORE PUSH1 0xA PUSH1 0x20 MSTORE PUSH1 0x40 SWAP1 KECCAK256 SLOAD PUSH1 0xFF AND ISZERO ISZERO PUSH1 0x1 EQ PUSH2 0xD9D JUMPI PUSH1 0x40 MLOAD PUSH3 0x461BCD PUSH1 0xE5 SHL DUP2 MSTORE PUSH1 0x4 ADD PUSH2 0xB2B SWAP1 PUSH2 0x4CF7 JUMP JUMPDEST PUSH2 0xDA6 DUP2 PUSH2 0x26D1 JUMP JUMPDEST POP JUMP JUMPDEST PUSH2 0xDB2 DUP3 PUSH2 0x1958 JUMP JUMPDEST PUSH1 0x1 PUSH1 0x1 PUSH1 0xA0 SHL SUB AND CALLER PUSH1 0x1 PUSH1 0x1 PUSH1 0xA0 SHL SUB AND EQ PUSH2 0xDE2 JUMPI PUSH1 0x40 MLOAD PUSH3 0x461BCD PUSH1 0xE5 SHL DUP2 MSTORE PUSH1 0x4 ADD PUSH2 0xB2B SWAP1 PUSH2 0x4D2E JUMP JUMPDEST PUSH2 0xDEC DUP3 DUP3 PUSH2 0x2752 JUMP JUMPDEST CALLER PUSH1 0x1 PUSH1 0x1 PUSH1 0xA0 SHL SUB AND PUSH32 0x6DE6CD3982065CBD31E789E3109106F4D76D1C8A46E85262045CF947FB3FD4ED DUP3 DUP5 TIMESTAMP NUMBER PUSH1 0x40 MLOAD PUSH2 0xE2B SWAP5 SWAP4 SWAP3 SWAP2 SWAP1 PUSH2 0x4D65 JUMP JUMPDEST PUSH1 0x40 MLOAD DUP1 SWAP2 SUB SWAP1 LOG2 POP POP JUMP JUMPDEST PUSH1 0x0 PUSH2 0xE43 PUSH1 0x5 PUSH2 0x27DD JUMP JUMPDEST SWAP1 POP SWAP1 JUMP JUMPDEST CALLER PUSH1 0x0 SWAP1 DUP2 MSTORE PUSH1 0xA PUSH1 0x20 MSTORE PUSH1 0x40 SWAP1 KECCAK256 SLOAD PUSH3 0x10000 SWAP1 DIV PUSH1 0xFF AND PUSH2 0xE7D JUMPI PUSH1 0x40 MLOAD PUSH3 0x461BCD PUSH1 0xE5 SHL DUP2 MSTORE PUSH1 0x4 ADD PUSH2 0xB2B SWAP1 PUSH2 0x4D94 JUMP JUMPDEST PUSH2 0xF2A PUSH2 0xE8D PUSH1 0x20 DUP4 ADD DUP4 PUSH2 0x4922 JUMP JUMPDEST PUSH2 0xE9A PUSH1 0x20 DUP5 ADD DUP5 PUSH2 0x4DD5 JUMP JUMPDEST PUSH2 0xEA7 PUSH1 0x40 DUP7 ADD DUP7 PUSH2 0x4DD5 JUMP JUMPDEST PUSH2 0xEB4 PUSH1 0x60 DUP9 ADD DUP9 PUSH2 0x4DD5 JUMP JUMPDEST PUSH2 0xEC1 PUSH1 0x80 DUP11 ADD DUP11 PUSH2 0x4DD5 JUMP JUMPDEST PUSH1 0xA0 DUP12 ADD CALLDATALOAD PUSH2 0xED4 PUSH2 0x100 DUP14 ADD DUP14 PUSH2 0x4E1B JUMP JUMPDEST DUP1 DUP1 PUSH1 0x20 MUL PUSH1 0x20 ADD PUSH1 0x40 MLOAD SWAP1 DUP2 ADD PUSH1 0x40 MSTORE DUP1 SWAP4 SWAP3 SWAP2 SWAP1 DUP2 DUP2 MSTORE PUSH1 0x20 ADD PUSH1 0x0 SWAP1 JUMPDEST DUP3 DUP3 LT ISZERO PUSH2 0xF20 JUMPI PUSH2 0xF11 PUSH1 0x80 DUP4 MUL DUP7 ADD CALLDATASIZE DUP2 SWAP1 SUB DUP2 ADD SWAP1 PUSH2 0x4E64 JUMP JUMPDEST DUP2 MSTORE PUSH1 0x20 ADD SWAP1 PUSH1 0x1 ADD SWAP1 PUSH2 0xEF4 JUMP JUMPDEST POP POP POP POP POP PUSH2 0x27E7 JUMP JUMPDEST PUSH2 0xDA6 PUSH1 0xC0 DUP3 ADD CALLDATALOAD PUSH2 0xF3F PUSH1 0xE0 DUP5 ADD DUP5 PUSH2 0x4DD5 JUMP JUMPDEST DUP1 DUP1 PUSH1 0x1F ADD PUSH1 0x20 DUP1 SWAP2 DIV MUL PUSH1 0x20 ADD PUSH1 0x40 MLOAD SWAP1 DUP2 ADD PUSH1 0x40 MSTORE DUP1 SWAP4 SWAP3 SWAP2 SWAP1 DUP2 DUP2 MSTORE PUSH1 0x20 ADD DUP4 DUP4 DUP1 DUP3 DUP5 CALLDATACOPY PUSH1 0x0 SWAP3 ADD SWAP2 SWAP1 SWAP2 MSTORE POP PUSH2 0xDA9 SWAP3 POP POP POP JUMP JUMPDEST CALLER PUSH1 0x0 SWAP1 DUP2 MSTORE PUSH1 0xA PUSH1 0x20 MSTORE PUSH1 0x40 SWAP1 KECCAK256 SLOAD PUSH1 0xFF AND ISZERO ISZERO PUSH1 0x1 EQ PUSH2 0xFAD JUMPI PUSH1 0x40 MLOAD PUSH3 0x461BCD PUSH1 0xE5 SHL DUP2 MSTORE PUSH1 0x4 ADD PUSH2 0xB2B SWAP1 PUSH2 0x4CF7 JUMP JUMPDEST PUSH1 0x1 PUSH1 0x1 PUSH1 0xA0 SHL SUB DUP2 AND ISZERO PUSH2 0xDA6 JUMPI PUSH1 0x1 PUSH1 0x1 PUSH1 0xA0 SHL SUB DUP2 AND PUSH1 0x0 SWAP1 DUP2 MSTORE PUSH1 0xA PUSH1 0x20 MSTORE PUSH1 0x40 SWAP1 KECCAK256 DUP1 SLOAD PUSH4 0xFF000000 NOT AND PUSH4 0x1000000 OR DUP2 SSTORE PUSH2 0xFEE DUP3 PUSH2 0x2BF0 JUMP JUMPDEST PUSH1 0x40 DUP1 MLOAD TIMESTAMP DUP2 MSTORE NUMBER PUSH1 0x20 DUP3 ADD MSTORE CALLER SWAP2 PUSH1 0x1 PUSH1 0x1 PUSH1 0xA0 SHL SUB DUP6 AND SWAP2 PUSH32 0xEB09276310ED110A7E565D64966D0FF68A47112D2DD5EEB6CBD7451836CE35EE SWAP2 ADD JUMPDEST PUSH1 0x40 MLOAD DUP1 SWAP2 SUB SWAP1 LOG3 POP POP JUMP JUMPDEST PUSH1 0x10 SLOAD PUSH1 0x0 SWAP1 PUSH1 0xFF AND ISZERO PUSH2 0x10A9 JUMPI PUSH1 0x40 MLOAD PUSH3 0x461BCD PUSH1 0xE5 SHL DUP2 MSTORE PUSH1 0x20 PUSH1 0x4 DUP3 ADD MSTORE PUSH1 0x32 PUSH1 0x24 DUP3 ADD MSTORE PUSH32 0x45524337323154656D706C6174653A20746F6B656E20696E7374616E63652061 PUSH1 0x44 DUP3 ADD MSTORE PUSH18 0x1B1C9958591E481A5B9A5D1A585B1A5E9959 PUSH1 0x72 SHL PUSH1 0x64 DUP3 ADD MSTORE PUSH1 0x84 ADD PUSH2 0xB2B JUMP JUMPDEST PUSH1 0x1 PUSH1 0x1 PUSH1 0xA0 SHL SUB DUP6 AND ISZERO PUSH2 0x10C1 JUMPI PUSH2 0x10C1 DUP6 PUSH2 0x2CA7 JUMP JUMPDEST PUSH1 0x1 PUSH1 0x1 PUSH1 0xA0 SHL SUB DUP5 AND ISZERO PUSH2 0x10D9 JUMPI PUSH2 0x10D9 DUP5 PUSH2 0x26D1 JUMP JUMPDEST PUSH1 0x0 PUSH2 0x1165 DUP13 DUP13 DUP13 DUP1 DUP1 PUSH1 0x1F ADD PUSH1 0x20 DUP1 SWAP2 DIV MUL PUSH1 0x20 ADD PUSH1 0x40 MLOAD SWAP1 DUP2 ADD PUSH1 0x40 MSTORE DUP1 SWAP4 SWAP3 SWAP2 SWAP1 DUP2 DUP2 MSTORE PUSH1 0x20 ADD DUP4 DUP4 DUP1 DUP3 DUP5 CALLDATACOPY PUSH1 0x0 DUP2 DUP5 ADD MSTORE PUSH1 0x1F NOT PUSH1 0x1F DUP3 ADD AND SWAP1 POP DUP1 DUP4 ADD SWAP3 POP POP POP POP POP POP POP DUP12 DUP12 DUP1 DUP1 PUSH1 0x1F ADD PUSH1 0x20 DUP1 SWAP2 DIV MUL PUSH1 0x20 ADD PUSH1 0x40 MLOAD SWAP1 DUP2 ADD PUSH1 0x40 MSTORE DUP1 SWAP4 SWAP3 SWAP2 SWAP1 DUP2 DUP2 MSTORE PUSH1 0x20 ADD DUP4 DUP4 DUP1 DUP3 DUP5 CALLDATACOPY PUSH1 0x0 SWAP3 ADD SWAP2 SWAP1 SWAP2 MSTORE POP DUP14 SWAP3 POP DUP11 SWAP2 POP DUP10 SWAP1 POP PUSH2 0x2D17 JUMP JUMPDEST SWAP1 POP PUSH2 0x116F PUSH2 0x2E67 JUMP JUMPDEST PUSH2 0x117F PUSH4 0x2260147F PUSH1 0xE1 SHL PUSH2 0x2E93 JUMP JUMPDEST PUSH2 0x118F PUSH4 0x2BD57B73 PUSH1 0xE0 SHL PUSH2 0x2E93 JUMP JUMPDEST SWAP12 SWAP11 POP POP POP POP POP POP POP POP POP POP POP JUMP JUMPDEST CALLER PUSH1 0x0 SWAP1 DUP2 MSTORE PUSH1 0xA PUSH1 0x20 MSTORE PUSH1 0x40 SWAP1 KECCAK256 SLOAD PUSH3 0x10000 SWAP1 DIV PUSH1 0xFF AND PUSH2 0x11D3 JUMPI PUSH1 0x40 MLOAD PUSH3 0x461BCD PUSH1 0xE5 SHL DUP2 MSTORE PUSH1 0x4 ADD PUSH2 0xB2B SWAP1 PUSH2 0x4D94 JUMP JUMPDEST PUSH2 0x11E6 DUP12 DUP12 DUP12 DUP12 DUP12 DUP12 DUP12 DUP12 DUP12 DUP12 DUP12 PUSH2 0x27E7 JUMP JUMPDEST POP POP POP POP POP POP POP POP POP POP POP JUMP JUMPDEST PUSH1 0x16 SLOAD PUSH1 0xFF AND PUSH2 0x1215 JUMPI PUSH1 0x40 MLOAD PUSH3 0x461BCD PUSH1 0xE5 SHL DUP2 MSTORE PUSH1 0x4 ADD PUSH2 0xB2B SWAP1 PUSH2 0x4E80 JUMP JUMPDEST DUP1 PUSH1 0x1 EQ PUSH2 0x1235 JUMPI PUSH1 0x40 MLOAD PUSH3 0x461BCD PUSH1 0xE5 SHL DUP2 MSTORE PUSH1 0x4 ADD PUSH2 0xB2B SWAP1 PUSH2 0x4EC3 JUMP JUMPDEST PUSH2 0x129F PUSH2 0x129A PUSH1 0x14 DUP1 SLOAD DUP1 PUSH1 0x20 MUL PUSH1 0x20 ADD PUSH1 0x40 MLOAD SWAP1 DUP2 ADD PUSH1 0x40 MSTORE DUP1 SWAP3 SWAP2 SWAP1 DUP2 DUP2 MSTORE PUSH1 0x20 ADD DUP3 DUP1 SLOAD DUP1 ISZERO PUSH2 0x1291 JUMPI PUSH1 0x20 MUL DUP3 ADD SWAP2 SWAP1 PUSH1 0x0 MSTORE PUSH1 0x20 PUSH1 0x0 KECCAK256 SWAP1 JUMPDEST DUP2 SLOAD PUSH1 0x1 PUSH1 0x1 PUSH1 0xA0 SHL SUB AND DUP2 MSTORE PUSH1 0x1 SWAP1 SWAP2 ADD SWAP1 PUSH1 0x20 ADD DUP1 DUP4 GT PUSH2 0x1273 JUMPI JUMPDEST POP POP POP POP POP MLOAD SWAP1 JUMP JUMPDEST PUSH2 0x2F12 JUMP JUMPDEST PUSH2 0x12A7 PUSH2 0x2FA3 JUMP JUMPDEST PUSH2 0x12B0 DUP3 PUSH2 0x3054 JUMP JUMPDEST PUSH1 0x1 PUSH1 0x1 PUSH1 0xA0 SHL SUB DUP3 AND PUSH1 0x0 SWAP1 DUP2 MSTORE PUSH1 0xA PUSH1 0x20 MSTORE PUSH1 0x40 SWAP1 KECCAK256 DUP1 SLOAD PUSH4 0xFFFFFF00 NOT AND PUSH4 0x1010100 OR DUP2 SSTORE PUSH2 0x12E4 DUP5 DUP5 DUP5 PUSH2 0x30D1 JUMP JUMPDEST POP POP POP POP JUMP JUMPDEST CALLER PUSH1 0x0 SWAP1 DUP2 MSTORE PUSH1 0xA PUSH1 0x20 MSTORE PUSH1 0x40 SWAP1 KECCAK256 SLOAD PUSH1 0xFF AND ISZERO ISZERO PUSH1 0x1 EQ DUP1 PUSH2 0x133B JUMPI POP CALLER PUSH1 0x1 PUSH1 0x1 PUSH1 0xA0 SHL SUB DUP3 AND EQ DUP1 ISZERO PUSH2 0x133B JUMPI POP CALLER PUSH1 0x0 SWAP1 DUP2 MSTORE PUSH1 0xA PUSH1 0x20 MSTORE PUSH1 0x40 SWAP1 KECCAK256 SLOAD PUSH4 0x1000000 SWAP1 DIV PUSH1 0xFF AND ISZERO ISZERO PUSH1 0x1 EQ JUMPDEST ISZERO PUSH2 0x13B8 JUMPI PUSH1 0x1 PUSH1 0x1 PUSH1 0xA0 SHL SUB DUP2 AND PUSH1 0x0 DUP2 DUP2 MSTORE PUSH1 0xA PUSH1 0x20 MSTORE PUSH1 0x40 SWAP1 DUP2 SWAP1 KECCAK256 DUP1 SLOAD PUSH4 0xFF000000 NOT AND DUP2 SSTORE SWAP1 MLOAD SWAP1 SWAP2 CALLER SWAP2 PUSH32 0xC929B18B08FFEA86A1F95E29384DBE8968F2FCBD70CFD735DF3ABA1CC548CBF3 SWAP1 PUSH2 0x13A3 SWAP1 TIMESTAMP SWAP1 NUMBER SWAP1 SWAP2 DUP3 MSTORE PUSH1 0x20 DUP3 ADD MSTORE PUSH1 0x40 ADD SWAP1 JUMP JUMPDEST PUSH1 0x40 MLOAD DUP1 SWAP2 SUB SWAP1 LOG3 PUSH2 0x13B4 DUP3 PUSH2 0x3112 JUMP JUMPDEST POP POP JUMP JUMPDEST PUSH1 0x40 MLOAD PUSH3 0x461BCD PUSH1 0xE5 SHL DUP2 MSTORE PUSH1 0x20 PUSH1 0x4 DUP3 ADD MSTORE PUSH1 0x46 PUSH1 0x24 DUP3 ADD MSTORE PUSH32 0x455243373231526F6C6573416464726573733A204E6F7420656E6F7567682070 PUSH1 0x44 DUP3 ADD MSTORE PUSH32 0x65726D697373696F6E7320746F2072656D6F76652066726F6D2037323553746F PUSH1 0x64 DUP3 ADD MSTORE PUSH6 0x1C99531A5CDD PUSH1 0xD2 SHL PUSH1 0x84 DUP3 ADD MSTORE PUSH1 0xA4 ADD PUSH2 0xB2B JUMP JUMPDEST PUSH2 0x143F PUSH1 0x1 PUSH2 0x1958 JUMP JUMPDEST PUSH1 0x1 PUSH1 0x1 PUSH1 0xA0 SHL SUB AND CALLER PUSH1 0x1 PUSH1 0x1 PUSH1 0xA0 SHL SUB AND EQ PUSH2 0x146F JUMPI PUSH1 0x40 MLOAD PUSH3 0x461BCD PUSH1 0xE5 SHL DUP2 MSTORE PUSH1 0x4 ADD PUSH2 0xB2B SWAP1 PUSH2 0x4D2E JUMP JUMPDEST PUSH2 0xDA6 DUP2 PUSH2 0x3054 JUMP JUMPDEST PUSH1 0x1 PUSH1 0x1 PUSH1 0xA0 SHL SUB DUP3 AND PUSH1 0x0 SWAP1 DUP2 MSTORE PUSH1 0x4 PUSH1 0x20 MSTORE PUSH1 0x40 DUP2 KECCAK256 PUSH2 0x149A SWAP1 DUP4 PUSH2 0x3289 JUMP JUMPDEST SWAP1 POP JUMPDEST SWAP3 SWAP2 POP POP JUMP JUMPDEST PUSH1 0x16 SLOAD PUSH1 0xFF AND PUSH2 0x14C5 JUMPI PUSH1 0x40 MLOAD PUSH3 0x461BCD PUSH1 0xE5 SHL DUP2 MSTORE PUSH1 0x4 ADD PUSH2 0xB2B SWAP1 PUSH2 0x4E80 JUMP JUMPDEST DUP1 PUSH1 0x1 EQ PUSH2 0x14E5 JUMPI PUSH1 0x40 MLOAD PUSH3 0x461BCD PUSH1 0xE5 SHL DUP2 MSTORE PUSH1 0x4 ADD PUSH2 0xB2B SWAP1 PUSH2 0x4EC3 JUMP JUMPDEST PUSH2 0x1548 PUSH2 0x129A PUSH1 0x14 DUP1 SLOAD DUP1 PUSH1 0x20 MUL PUSH1 0x20 ADD PUSH1 0x40 MLOAD SWAP1 DUP2 ADD PUSH1 0x40 MSTORE DUP1 SWAP3 SWAP2 SWAP1 DUP2 DUP2 MSTORE PUSH1 0x20 ADD DUP3 DUP1 SLOAD DUP1 ISZERO PUSH2 0x1291 JUMPI PUSH1 0x20 MUL DUP3 ADD SWAP2 SWAP1 PUSH1 0x0 MSTORE PUSH1 0x20 PUSH1 0x0 KECCAK256 SWAP1 DUP2 SLOAD PUSH1 0x1 PUSH1 0x1 PUSH1 0xA0 SHL SUB AND DUP2 MSTORE PUSH1 0x1 SWAP1 SWAP2 ADD SWAP1 PUSH1 0x20 ADD DUP1 DUP4 GT PUSH2 0x1273 JUMPI POP POP POP POP POP MLOAD SWAP1 JUMP JUMPDEST PUSH2 0x1550 PUSH2 0x2FA3 JUMP JUMPDEST PUSH2 0x1559 DUP3 PUSH2 0x3054 JUMP JUMPDEST PUSH1 0x1 PUSH1 0x1 PUSH1 0xA0 SHL SUB DUP3 AND PUSH1 0x0 SWAP1 DUP2 MSTORE PUSH1 0xA PUSH1 0x20 SWAP1 DUP2 MSTORE PUSH1 0x40 DUP1 DUP4 KECCAK256 DUP1 SLOAD PUSH4 0xFFFFFF00 NOT AND PUSH4 0x1010100 OR DUP2 SSTORE DUP2 MLOAD SWAP3 DUP4 ADD SWAP1 SWAP2 MSTORE SWAP2 DUP2 MSTORE PUSH2 0x12E4 SWAP1 DUP6 SWAP1 DUP6 SWAP1 DUP6 SWAP1 PUSH2 0x3295 JUMP JUMPDEST CALLER PUSH1 0x0 SWAP1 DUP2 MSTORE PUSH1 0xA PUSH1 0x20 MSTORE PUSH1 0x40 SWAP1 KECCAK256 SLOAD PUSH1 0xFF AND ISZERO ISZERO PUSH1 0x1 EQ DUP1 PUSH2 0x15EF JUMPI POP CALLER PUSH1 0x1 PUSH1 0x1 PUSH1 0xA0 SHL SUB DUP3 AND EQ DUP1 ISZERO PUSH2 0x15EF JUMPI POP CALLER PUSH1 0x0 SWAP1 DUP2 MSTORE PUSH1 0xA PUSH1 0x20 MSTORE PUSH1 0x40 SWAP1 KECCAK256 SLOAD PUSH3 0x10000 SWAP1 DIV PUSH1 0xFF AND ISZERO ISZERO PUSH1 0x1 EQ JUMPDEST ISZERO PUSH2 0x1656 JUMPI PUSH1 0x1 PUSH1 0x1 PUSH1 0xA0 SHL SUB DUP2 AND PUSH1 0x0 DUP2 DUP2 MSTORE PUSH1 0xA PUSH1 0x20 MSTORE PUSH1 0x40 SWAP1 DUP2 SWAP1 KECCAK256 DUP1 SLOAD PUSH3 0xFF0000 NOT AND DUP2 SSTORE SWAP1 MLOAD SWAP1 SWAP2 CALLER SWAP2 PUSH32 0x9B41E1311FA819E825BC77FA2568492112E15EA92D173F3F8EE1C8EC3C1C562B SWAP1 PUSH2 0x13A3 SWAP1 TIMESTAMP SWAP1 NUMBER SWAP1 SWAP2 DUP3 MSTORE PUSH1 0x20 DUP3 ADD MSTORE PUSH1 0x40 ADD SWAP1 JUMP JUMPDEST PUSH1 0x40 MLOAD PUSH3 0x461BCD PUSH1 0xE5 SHL DUP2 MSTORE PUSH1 0x20 PUSH1 0x4 DUP3 ADD MSTORE PUSH1 0x47 PUSH1 0x24 DUP3 ADD MSTORE PUSH32 0x455243373231526F6C6573416464726573733A204E6F7420656E6F7567682070 PUSH1 0x44 DUP3 ADD MSTORE PUSH32 0x65726D697373696F6E7320746F2072656D6F76652066726F6D206D6574616461 PUSH1 0x64 DUP3 ADD MSTORE PUSH7 0x1D18481B1A5CDD PUSH1 0xCA SHL PUSH1 0x84 DUP3 ADD MSTORE PUSH1 0xA4 ADD PUSH2 0xB2B JUMP JUMPDEST PUSH1 0x60 PUSH1 0x14 DUP1 SLOAD DUP1 PUSH1 0x20 MUL PUSH1 0x20 ADD PUSH1 0x40 MLOAD SWAP1 DUP2 ADD PUSH1 0x40 MSTORE DUP1 SWAP3 SWAP2 SWAP1 DUP2 DUP2 MSTORE PUSH1 0x20 ADD DUP3 DUP1 SLOAD DUP1 ISZERO PUSH2 0xAB9 JUMPI PUSH1 0x20 MUL DUP3 ADD SWAP2 SWAP1 PUSH1 0x0 MSTORE PUSH1 0x20 PUSH1 0x0 KECCAK256 SWAP1 JUMPDEST DUP2 SLOAD PUSH1 0x1 PUSH1 0x1 PUSH1 0xA0 SHL SUB AND DUP2 MSTORE PUSH1 0x1 SWAP1 SWAP2 ADD SWAP1 PUSH1 0x20 ADD DUP1 DUP4 GT PUSH2 0x170E JUMPI POP POP POP POP POP SWAP1 POP SWAP1 JUMP JUMPDEST CALLER PUSH1 0x0 SWAP1 DUP2 MSTORE PUSH1 0xA PUSH1 0x20 MSTORE PUSH1 0x40 SWAP1 KECCAK256 SLOAD PUSH3 0x10000 SWAP1 DIV PUSH1 0xFF AND PUSH2 0x176A JUMPI PUSH1 0x40 MLOAD PUSH3 0x461BCD PUSH1 0xE5 SHL DUP2 MSTORE PUSH1 0x4 ADD PUSH2 0xB2B SWAP1 PUSH2 0x4D94 JUMP JUMPDEST PUSH1 0x13 DUP1 SLOAD PUSH1 0xFF NOT AND PUSH1 0xFF DUP4 AND SWAP1 DUP2 OR SWAP1 SWAP2 SSTORE PUSH1 0x40 DUP1 MLOAD SWAP2 DUP3 MSTORE TIMESTAMP PUSH1 0x20 DUP4 ADD MSTORE NUMBER SWAP1 DUP3 ADD MSTORE CALLER SWAP1 PUSH32 0xA8336411CC72DB0E5BDC4DFF989EEB35879BAFACEFFB59B54B37645C3395ADB9 SWAP1 PUSH1 0x60 ADD PUSH1 0x40 MLOAD DUP1 SWAP2 SUB SWAP1 LOG2 POP JUMP JUMPDEST CALLER PUSH1 0x0 SWAP1 DUP2 MSTORE PUSH1 0xA PUSH1 0x20 MSTORE PUSH1 0x40 SWAP1 KECCAK256 SLOAD PUSH1 0xFF AND ISZERO ISZERO PUSH1 0x1 EQ PUSH2 0x17F4 JUMPI PUSH1 0x40 MLOAD PUSH3 0x461BCD PUSH1 0xE5 SHL DUP2 MSTORE PUSH1 0x4 ADD PUSH2 0xB2B SWAP1 PUSH2 0x4CF7 JUMP JUMPDEST PUSH2 0xDA6 DUP2 PUSH2 0x2CA7 JUMP JUMPDEST PUSH2 0x1807 PUSH1 0x1 PUSH2 0x1958 JUMP JUMPDEST PUSH1 0x1 PUSH1 0x1 PUSH1 0xA0 SHL SUB AND CALLER PUSH1 0x1 PUSH1 0x1 PUSH1 0xA0 SHL SUB AND EQ PUSH2 0x1837 JUMPI PUSH1 0x40 MLOAD PUSH3 0x461BCD PUSH1 0xE5 SHL DUP2 MSTORE PUSH1 0x4 ADD PUSH2 0xB2B SWAP1 PUSH2 0x4D2E JUMP JUMPDEST PUSH2 0x183F PUSH2 0x2FA3 JUMP JUMPDEST PUSH2 0x1851 PUSH2 0x184C PUSH1 0x1 PUSH2 0x1958 JUMP JUMPDEST PUSH2 0x3054 JUMP JUMPDEST JUMP JUMPDEST PUSH1 0x0 DUP1 PUSH2 0x1861 PUSH1 0x5 DUP5 PUSH2 0x32C7 JUMP JUMPDEST POP SWAP4 SWAP3 POP POP POP JUMP JUMPDEST PUSH1 0x0 DUP2 DUP2 MSTORE PUSH1 0xC PUSH1 0x20 MSTORE PUSH1 0x40 SWAP1 KECCAK256 DUP1 SLOAD PUSH1 0x60 SWAP2 SWAP1 PUSH2 0x1886 SWAP1 PUSH2 0x4CBC JUMP JUMPDEST DUP1 PUSH1 0x1F ADD PUSH1 0x20 DUP1 SWAP2 DIV MUL PUSH1 0x20 ADD PUSH1 0x40 MLOAD SWAP1 DUP2 ADD PUSH1 0x40 MSTORE DUP1 SWAP3 SWAP2 SWAP1 DUP2 DUP2 MSTORE PUSH1 0x20 ADD DUP3 DUP1 SLOAD PUSH2 0x18B2 SWAP1 PUSH2 0x4CBC JUMP JUMPDEST DUP1 ISZERO PUSH2 0x18FF JUMPI DUP1 PUSH1 0x1F LT PUSH2 0x18D4 JUMPI PUSH2 0x100 DUP1 DUP4 SLOAD DIV MUL DUP4 MSTORE SWAP2 PUSH1 0x20 ADD SWAP2 PUSH2 0x18FF JUMP JUMPDEST DUP3 ADD SWAP2 SWAP1 PUSH1 0x0 MSTORE PUSH1 0x20 PUSH1 0x0 KECCAK256 SWAP1 JUMPDEST DUP2 SLOAD DUP2 MSTORE SWAP1 PUSH1 0x1 ADD SWAP1 PUSH1 0x20 ADD DUP1 DUP4 GT PUSH2 0x18E2 JUMPI DUP3 SWAP1 SUB PUSH1 0x1F AND DUP3 ADD SWAP2 JUMPDEST POP POP POP POP POP SWAP1 POP SWAP2 SWAP1 POP JUMP JUMPDEST PUSH2 0x1915 PUSH1 0x1 PUSH2 0x1958 JUMP JUMPDEST PUSH1 0x1 PUSH1 0x1 PUSH1 0xA0 SHL SUB AND CALLER PUSH1 0x1 PUSH1 0x1 PUSH1 0xA0 SHL SUB AND EQ PUSH2 0x1945 JUMPI PUSH1 0x40 MLOAD PUSH3 0x461BCD PUSH1 0xE5 SHL DUP2 MSTORE PUSH1 0x4 ADD PUSH2 0xB2B SWAP1 PUSH2 0x4D2E JUMP JUMPDEST DUP1 MLOAD PUSH2 0x13B4 SWAP1 PUSH1 0x3 SWAP1 PUSH1 0x20 DUP5 ADD SWAP1 PUSH2 0x416B JUMP JUMPDEST PUSH1 0x0 PUSH2 0x149D DUP3 PUSH1 0x40 MLOAD DUP1 PUSH1 0x60 ADD PUSH1 0x40 MSTORE DUP1 PUSH1 0x29 DUP2 MSTORE PUSH1 0x20 ADD PUSH2 0x5394 PUSH1 0x29 SWAP2 CODECOPY PUSH1 0x5 SWAP2 SWAP1 PUSH2 0x32E5 JUMP JUMPDEST CALLER PUSH1 0x0 SWAP1 DUP2 MSTORE PUSH1 0xA PUSH1 0x20 MSTORE PUSH1 0x40 SWAP1 KECCAK256 SLOAD PUSH4 0x1000000 SWAP1 DIV PUSH1 0xFF AND PUSH2 0xD5E JUMPI PUSH1 0x40 MLOAD PUSH3 0x461BCD PUSH1 0xE5 SHL DUP2 MSTORE PUSH1 0x20 PUSH1 0x4 DUP3 ADD MSTORE PUSH1 0x21 PUSH1 0x24 DUP3 ADD MSTORE PUSH32 0x45524337323154656D706C6174653A204E4F542053544F524520555044415445 PUSH1 0x44 DUP3 ADD MSTORE PUSH1 0x29 PUSH1 0xF9 SHL PUSH1 0x64 DUP3 ADD MSTORE PUSH1 0x84 ADD PUSH2 0xB2B JUMP JUMPDEST PUSH1 0x60 PUSH2 0xE43 PUSH2 0x32FC JUMP JUMPDEST PUSH1 0x0 PUSH1 0x1 PUSH1 0x1 PUSH1 0xA0 SHL SUB DUP3 AND PUSH2 0x1A65 JUMPI PUSH1 0x40 MLOAD PUSH3 0x461BCD PUSH1 0xE5 SHL DUP2 MSTORE PUSH1 0x20 PUSH1 0x4 DUP3 ADD MSTORE PUSH1 0x2A PUSH1 0x24 DUP3 ADD MSTORE PUSH32 0x4552433732313A2062616C616E636520717565727920666F7220746865207A65 PUSH1 0x44 DUP3 ADD MSTORE PUSH10 0x726F2061646472657373 PUSH1 0xB0 SHL PUSH1 0x64 DUP3 ADD MSTORE PUSH1 0x84 ADD PUSH2 0xB2B JUMP JUMPDEST PUSH1 0x1 PUSH1 0x1 PUSH1 0xA0 SHL SUB DUP3 AND PUSH1 0x0 SWAP1 DUP2 MSTORE PUSH1 0x4 PUSH1 0x20 MSTORE PUSH1 0x40 SWAP1 KECCAK256 PUSH2 0x149D SWAP1 PUSH2 0x27DD JUMP JUMPDEST PUSH1 0x11 DUP1 SLOAD PUSH2 0xC73 SWAP1 PUSH2 0x4CBC JUMP JUMPDEST PUSH1 0x60 PUSH1 0xF DUP1 SLOAD PUSH2 0xA40 SWAP1 PUSH2 0x4CBC JUMP JUMPDEST PUSH1 0x1 PUSH1 0x1 PUSH1 0xA0 SHL SUB DUP3 AND CALLER EQ ISZERO PUSH2 0x1AFB JUMPI PUSH1 0x40 MLOAD PUSH3 0x461BCD PUSH1 0xE5 SHL DUP2 MSTORE PUSH1 0x20 PUSH1 0x4 DUP3 ADD MSTORE PUSH1 0x19 PUSH1 0x24 DUP3 ADD MSTORE PUSH32 0x4552433732313A20617070726F766520746F2063616C6C657200000000000000 PUSH1 0x44 DUP3 ADD MSTORE PUSH1 0x64 ADD PUSH2 0xB2B JUMP JUMPDEST CALLER PUSH1 0x0 DUP2 DUP2 MSTORE PUSH1 0x8 PUSH1 0x20 SWAP1 DUP2 MSTORE PUSH1 0x40 DUP1 DUP4 KECCAK256 PUSH1 0x1 PUSH1 0x1 PUSH1 0xA0 SHL SUB DUP8 AND DUP1 DUP6 MSTORE SWAP1 DUP4 MSTORE SWAP3 DUP2 SWAP1 KECCAK256 DUP1 SLOAD PUSH1 0xFF NOT AND DUP7 ISZERO ISZERO SWAP1 DUP2 OR SWAP1 SWAP2 SSTORE SWAP1 MLOAD SWAP1 DUP2 MSTORE SWAP2 SWAP3 SWAP2 PUSH32 0x17307EAB39AB6107E8899845AD3D59BD9653F200F220920489CA2B5937696C31 SWAP2 ADD PUSH2 0x102C JUMP JUMPDEST PUSH2 0x1B6A PUSH1 0x1 PUSH2 0x1958 JUMP JUMPDEST PUSH1 0x1 PUSH1 0x1 PUSH1 0xA0 SHL SUB AND CALLER PUSH1 0x1 PUSH1 0x1 PUSH1 0xA0 SHL SUB AND EQ PUSH2 0x1B9A JUMPI PUSH1 0x40 MLOAD PUSH3 0x461BCD PUSH1 0xE5 SHL DUP2 MSTORE PUSH1 0x4 ADD PUSH2 0xB2B SWAP1 PUSH2 0x4D2E JUMP JUMPDEST PUSH2 0xDA6 DUP2 PUSH2 0x330B JUMP JUMPDEST PUSH1 0xB DUP2 DUP2 SLOAD DUP2 LT PUSH2 0x1BB3 JUMPI PUSH1 0x0 DUP1 REVERT JUMPDEST PUSH1 0x0 SWAP2 DUP3 MSTORE PUSH1 0x20 SWAP1 SWAP2 KECCAK256 ADD SLOAD PUSH1 0x1 PUSH1 0x1 PUSH1 0xA0 SHL SUB AND SWAP1 POP DUP2 JUMP JUMPDEST CALLER PUSH1 0x0 SWAP1 DUP2 MSTORE PUSH1 0xA PUSH1 0x20 MSTORE PUSH1 0x40 SWAP1 KECCAK256 SLOAD PUSH1 0xFF AND ISZERO ISZERO PUSH1 0x1 EQ PUSH2 0x1C01 JUMPI PUSH1 0x40 MLOAD PUSH3 0x461BCD PUSH1 0xE5 SHL DUP2 MSTORE PUSH1 0x4 ADD PUSH2 0xB2B SWAP1 PUSH2 0x4CF7 JUMP JUMPDEST DUP1 MLOAD DUP3 MLOAD EQ DUP1 ISZERO PUSH2 0x1C13 JUMPI POP PUSH1 0x0 DUP2 MLOAD GT JUMPDEST DUP1 ISZERO PUSH2 0x1C20 JUMPI POP PUSH1 0x32 DUP2 MLOAD LT JUMPDEST PUSH2 0x1C61 JUMPI PUSH1 0x40 MLOAD PUSH3 0x461BCD PUSH1 0xE5 SHL DUP2 MSTORE PUSH1 0x20 PUSH1 0x4 DUP3 ADD MSTORE PUSH1 0x12 PUSH1 0x24 DUP3 ADD MSTORE PUSH18 0x496E76616C69642061727261792073697A65 PUSH1 0x70 SHL PUSH1 0x44 DUP3 ADD MSTORE PUSH1 0x64 ADD PUSH2 0xB2B JUMP JUMPDEST PUSH1 0x0 JUMPDEST DUP2 MLOAD DUP2 LT ISZERO PUSH2 0xC61 JUMPI PUSH1 0x0 PUSH1 0x1 PUSH1 0x1 PUSH1 0xA0 SHL SUB AND DUP4 DUP3 DUP2 MLOAD DUP2 LT PUSH2 0x1C8A JUMPI PUSH2 0x1C8A PUSH2 0x4F0F JUMP JUMPDEST PUSH1 0x20 MUL PUSH1 0x20 ADD ADD MLOAD PUSH1 0x1 PUSH1 0x1 PUSH1 0xA0 SHL SUB AND EQ PUSH2 0x1FC3 JUMPI PUSH1 0x0 PUSH1 0xA PUSH1 0x0 DUP6 DUP5 DUP2 MLOAD DUP2 LT PUSH2 0x1CB8 JUMPI PUSH2 0x1CB8 PUSH2 0x4F0F JUMP JUMPDEST PUSH1 0x20 MUL PUSH1 0x20 ADD ADD MLOAD PUSH1 0x1 PUSH1 0x1 PUSH1 0xA0 SHL SUB AND PUSH1 0x1 PUSH1 0x1 PUSH1 0xA0 SHL SUB AND DUP2 MSTORE PUSH1 0x20 ADD SWAP1 DUP2 MSTORE PUSH1 0x20 ADD PUSH1 0x0 KECCAK256 SWAP1 POP PUSH1 0x0 PUSH1 0x3 DUP2 GT ISZERO PUSH2 0x1CF5 JUMPI PUSH2 0x1CF5 PUSH2 0x4F25 JUMP JUMPDEST DUP4 DUP4 DUP2 MLOAD DUP2 LT PUSH2 0x1D07 JUMPI PUSH2 0x1D07 PUSH2 0x4F0F JUMP JUMPDEST PUSH1 0x20 MUL PUSH1 0x20 ADD ADD MLOAD PUSH1 0x3 DUP2 GT ISZERO PUSH2 0x1D20 JUMPI PUSH2 0x1D20 PUSH2 0x4F25 JUMP JUMPDEST EQ ISZERO PUSH2 0x1D9B JUMPI DUP1 SLOAD PUSH1 0xFF NOT AND PUSH1 0x1 OR DUP2 SSTORE DUP4 MLOAD CALLER SWAP1 DUP6 SWAP1 DUP5 SWAP1 DUP2 LT PUSH2 0x1D47 JUMPI PUSH2 0x1D47 PUSH2 0x4F0F JUMP JUMPDEST PUSH1 0x20 MUL PUSH1 0x20 ADD ADD MLOAD PUSH1 0x1 PUSH1 0x1 PUSH1 0xA0 SHL SUB AND PUSH32 0xAF8FC8B6726138C96881C895390A08E9D91A94C288F06281E7F9821C49C7155B TIMESTAMP NUMBER PUSH1 0x40 MLOAD PUSH2 0x1D92 SWAP3 SWAP2 SWAP1 SWAP2 DUP3 MSTORE PUSH1 0x20 DUP3 ADD MSTORE PUSH1 0x40 ADD SWAP1 JUMP JUMPDEST PUSH1 0x40 MLOAD DUP1 SWAP2 SUB SWAP1 LOG3 JUMPDEST PUSH1 0x1 DUP4 DUP4 DUP2 MLOAD DUP2 LT PUSH2 0x1DAF JUMPI PUSH2 0x1DAF PUSH2 0x4F0F JUMP JUMPDEST PUSH1 0x20 MUL PUSH1 0x20 ADD ADD MLOAD PUSH1 0x3 DUP2 GT ISZERO PUSH2 0x1DC8 JUMPI PUSH2 0x1DC8 PUSH2 0x4F25 JUMP JUMPDEST EQ ISZERO PUSH2 0x1E45 JUMPI DUP1 SLOAD PUSH2 0xFF00 NOT AND PUSH2 0x100 OR DUP2 SSTORE DUP4 MLOAD CALLER SWAP1 DUP6 SWAP1 DUP5 SWAP1 DUP2 LT PUSH2 0x1DF1 JUMPI PUSH2 0x1DF1 PUSH2 0x4F0F JUMP JUMPDEST PUSH1 0x20 MUL PUSH1 0x20 ADD ADD MLOAD PUSH1 0x1 PUSH1 0x1 PUSH1 0xA0 SHL SUB AND PUSH32 0x572D56343BE407A66810F01449212E8545E14FF5049C479D34BE944CDFD0D4F TIMESTAMP NUMBER PUSH1 0x40 MLOAD PUSH2 0x1E3C SWAP3 SWAP2 SWAP1 SWAP2 DUP3 MSTORE PUSH1 0x20 DUP3 ADD MSTORE PUSH1 0x40 ADD SWAP1 JUMP JUMPDEST PUSH1 0x40 MLOAD DUP1 SWAP2 SUB SWAP1 LOG3 JUMPDEST PUSH1 0x2 DUP4 DUP4 DUP2 MLOAD DUP2 LT PUSH2 0x1E59 JUMPI PUSH2 0x1E59 PUSH2 0x4F0F JUMP JUMPDEST PUSH1 0x20 MUL PUSH1 0x20 ADD ADD MLOAD PUSH1 0x3 DUP2 GT ISZERO PUSH2 0x1E72 JUMPI PUSH2 0x1E72 PUSH2 0x4F25 JUMP JUMPDEST EQ ISZERO PUSH2 0x1EF1 JUMPI DUP1 SLOAD PUSH3 0xFF0000 NOT AND PUSH3 0x10000 OR DUP2 SSTORE DUP4 MLOAD CALLER SWAP1 DUP6 SWAP1 DUP5 SWAP1 DUP2 LT PUSH2 0x1E9D JUMPI PUSH2 0x1E9D PUSH2 0x4F0F JUMP JUMPDEST PUSH1 0x20 MUL PUSH1 0x20 ADD ADD MLOAD PUSH1 0x1 PUSH1 0x1 PUSH1 0xA0 SHL SUB AND PUSH32 0xC2A42571A74CE1442C8C44D375BA9442E7D55D94B37AFEACE261C83C62128FA4 TIMESTAMP NUMBER PUSH1 0x40 MLOAD PUSH2 0x1EE8 SWAP3 SWAP2 SWAP1 SWAP2 DUP3 MSTORE PUSH1 0x20 DUP3 ADD MSTORE PUSH1 0x40 ADD SWAP1 JUMP JUMPDEST PUSH1 0x40 MLOAD DUP1 SWAP2 SUB SWAP1 LOG3 JUMPDEST PUSH1 0x3 DUP4 DUP4 DUP2 MLOAD DUP2 LT PUSH2 0x1F05 JUMPI PUSH2 0x1F05 PUSH2 0x4F0F JUMP JUMPDEST PUSH1 0x20 MUL PUSH1 0x20 ADD ADD MLOAD PUSH1 0x3 DUP2 GT ISZERO PUSH2 0x1F1E JUMPI PUSH2 0x1F1E PUSH2 0x4F25 JUMP JUMPDEST EQ ISZERO PUSH2 0x1F9F JUMPI DUP1 SLOAD PUSH4 0xFF000000 NOT AND PUSH4 0x1000000 OR DUP2 SSTORE DUP4 MLOAD CALLER SWAP1 DUP6 SWAP1 DUP5 SWAP1 DUP2 LT PUSH2 0x1F4B JUMPI PUSH2 0x1F4B PUSH2 0x4F0F JUMP JUMPDEST PUSH1 0x20 MUL PUSH1 0x20 ADD ADD MLOAD PUSH1 0x1 PUSH1 0x1 PUSH1 0xA0 SHL SUB AND PUSH32 0xEB09276310ED110A7E565D64966D0FF68A47112D2DD5EEB6CBD7451836CE35EE TIMESTAMP NUMBER PUSH1 0x40 MLOAD PUSH2 0x1F96 SWAP3 SWAP2 SWAP1 SWAP2 DUP3 MSTORE PUSH1 0x20 DUP3 ADD MSTORE PUSH1 0x40 ADD SWAP1 JUMP JUMPDEST PUSH1 0x40 MLOAD DUP1 SWAP2 SUB SWAP1 LOG3 JUMPDEST PUSH2 0x1FC1 DUP5 DUP4 DUP2 MLOAD DUP2 LT PUSH2 0x1FB4 JUMPI PUSH2 0x1FB4 PUSH2 0x4F0F JUMP JUMPDEST PUSH1 0x20 MUL PUSH1 0x20 ADD ADD MLOAD PUSH2 0x2BF0 JUMP JUMPDEST POP JUMPDEST DUP1 PUSH2 0x1FCD DUP2 PUSH2 0x4F51 JUMP JUMPDEST SWAP2 POP POP PUSH2 0x1C64 JUMP JUMPDEST CALLER PUSH1 0x0 SWAP1 DUP2 MSTORE PUSH1 0xA PUSH1 0x20 MSTORE PUSH1 0x40 SWAP1 KECCAK256 SLOAD PUSH1 0xFF AND ISZERO ISZERO PUSH1 0x1 EQ PUSH2 0x2009 JUMPI PUSH1 0x40 MLOAD PUSH3 0x461BCD PUSH1 0xE5 SHL DUP2 MSTORE PUSH1 0x4 ADD PUSH2 0xB2B SWAP1 PUSH2 0x4CF7 JUMP JUMPDEST PUSH2 0x2016 DUP6 DUP6 DUP6 DUP6 DUP6 PUSH2 0x336B JUMP JUMPDEST POP POP POP POP POP JUMP JUMPDEST PUSH1 0x60 PUSH2 0x2028 DUP3 PUSH2 0x25FD JUMP JUMPDEST PUSH2 0x208C JUMPI PUSH1 0x40 MLOAD PUSH3 0x461BCD PUSH1 0xE5 SHL DUP2 MSTORE PUSH1 0x20 PUSH1 0x4 DUP3 ADD MSTORE PUSH1 0x2F PUSH1 0x24 DUP3 ADD MSTORE PUSH32 0x4552433732314D657461646174613A2055524920717565727920666F72206E6F PUSH1 0x44 DUP3 ADD MSTORE PUSH15 0x3732BC34B9BA32B73A103A37B5B2B7 PUSH1 0x89 SHL PUSH1 0x64 DUP3 ADD MSTORE PUSH1 0x84 ADD PUSH2 0xB2B JUMP JUMPDEST PUSH1 0x0 DUP3 DUP2 MSTORE PUSH1 0x9 PUSH1 0x20 MSTORE PUSH1 0x40 DUP2 KECCAK256 DUP1 SLOAD PUSH2 0x20A5 SWAP1 PUSH2 0x4CBC JUMP JUMPDEST DUP1 PUSH1 0x1F ADD PUSH1 0x20 DUP1 SWAP2 DIV MUL PUSH1 0x20 ADD PUSH1 0x40 MLOAD SWAP1 DUP2 ADD PUSH1 0x40 MSTORE DUP1 SWAP3 SWAP2 SWAP1 DUP2 DUP2 MSTORE PUSH1 0x20 ADD DUP3 DUP1 SLOAD PUSH2 0x20D1 SWAP1 PUSH2 0x4CBC JUMP JUMPDEST DUP1 ISZERO PUSH2 0x211E JUMPI DUP1 PUSH1 0x1F LT PUSH2 0x20F3 JUMPI PUSH2 0x100 DUP1 DUP4 SLOAD DIV MUL DUP4 MSTORE SWAP2 PUSH1 0x20 ADD SWAP2 PUSH2 0x211E JUMP JUMPDEST DUP3 ADD SWAP2 SWAP1 PUSH1 0x0 MSTORE PUSH1 0x20 PUSH1 0x0 KECCAK256 SWAP1 JUMPDEST DUP2 SLOAD DUP2 MSTORE SWAP1 PUSH1 0x1 ADD SWAP1 PUSH1 0x20 ADD DUP1 DUP4 GT PUSH2 0x2101 JUMPI DUP3 SWAP1 SUB PUSH1 0x1F AND DUP3 ADD SWAP2 JUMPDEST POP POP POP POP POP SWAP1 POP PUSH1 0x0 PUSH2 0x212F PUSH2 0x32FC JUMP JUMPDEST DUP3 MLOAD SWAP1 SWAP2 POP ISZERO PUSH2 0x2164 JUMPI DUP1 DUP3 PUSH1 0x40 MLOAD PUSH1 0x20 ADD PUSH2 0x214C SWAP3 SWAP2 SWAP1 PUSH2 0x4F6C JUMP JUMPDEST PUSH1 0x40 MLOAD PUSH1 0x20 DUP2 DUP4 SUB SUB DUP2 MSTORE SWAP1 PUSH1 0x40 MSTORE SWAP3 POP POP POP SWAP2 SWAP1 POP JUMP JUMPDEST POP SWAP3 SWAP2 POP POP JUMP JUMPDEST PUSH1 0x60 DUP1 PUSH1 0x0 DUP1 PUSH1 0x11 PUSH1 0x12 PUSH1 0x13 PUSH1 0x0 SWAP1 SLOAD SWAP1 PUSH2 0x100 EXP SWAP1 DIV PUSH1 0xFF AND PUSH1 0x10 PUSH1 0x1 SWAP1 SLOAD SWAP1 PUSH2 0x100 EXP SWAP1 DIV PUSH1 0xFF AND DUP4 DUP1 SLOAD PUSH2 0x21A1 SWAP1 PUSH2 0x4CBC JUMP JUMPDEST DUP1 PUSH1 0x1F ADD PUSH1 0x20 DUP1 SWAP2 DIV MUL PUSH1 0x20 ADD PUSH1 0x40 MLOAD SWAP1 DUP2 ADD PUSH1 0x40 MSTORE DUP1 SWAP3 SWAP2 SWAP1 DUP2 DUP2 MSTORE PUSH1 0x20 ADD DUP3 DUP1 SLOAD PUSH2 0x21CD SWAP1 PUSH2 0x4CBC JUMP JUMPDEST DUP1 ISZERO PUSH2 0x221A JUMPI DUP1 PUSH1 0x1F LT PUSH2 0x21EF JUMPI PUSH2 0x100 DUP1 DUP4 SLOAD DIV MUL DUP4 MSTORE SWAP2 PUSH1 0x20 ADD SWAP2 PUSH2 0x221A JUMP JUMPDEST DUP3 ADD SWAP2 SWAP1 PUSH1 0x0 MSTORE PUSH1 0x20 PUSH1 0x0 KECCAK256 SWAP1 JUMPDEST DUP2 SLOAD DUP2 MSTORE SWAP1 PUSH1 0x1 ADD SWAP1 PUSH1 0x20 ADD DUP1 DUP4 GT PUSH2 0x21FD JUMPI DUP3 SWAP1 SUB PUSH1 0x1F AND DUP3 ADD SWAP2 JUMPDEST POP POP POP POP POP SWAP4 POP DUP3 DUP1 SLOAD PUSH2 0x222D SWAP1 PUSH2 0x4CBC JUMP JUMPDEST DUP1 PUSH1 0x1F ADD PUSH1 0x20 DUP1 SWAP2 DIV MUL PUSH1 0x20 ADD PUSH1 0x40 MLOAD SWAP1 DUP2 ADD PUSH1 0x40 MSTORE DUP1 SWAP3 SWAP2 SWAP1 DUP2 DUP2 MSTORE PUSH1 0x20 ADD DUP3 DUP1 SLOAD PUSH2 0x2259 SWAP1 PUSH2 0x4CBC JUMP JUMPDEST DUP1 ISZERO PUSH2 0x22A6 JUMPI DUP1 PUSH1 0x1F LT PUSH2 0x227B JUMPI PUSH2 0x100 DUP1 DUP4 SLOAD DIV MUL DUP4 MSTORE SWAP2 PUSH1 0x20 ADD SWAP2 PUSH2 0x22A6 JUMP JUMPDEST DUP3 ADD SWAP2 SWAP1 PUSH1 0x0 MSTORE PUSH1 0x20 PUSH1 0x0 KECCAK256 SWAP1 JUMPDEST DUP2 SLOAD DUP2 MSTORE SWAP1 PUSH1 0x1 ADD SWAP1 PUSH1 0x20 ADD DUP1 DUP4 GT PUSH2 0x2289 JUMPI DUP3 SWAP1 SUB PUSH1 0x1F AND DUP3 ADD SWAP2 JUMPDEST POP POP POP POP POP SWAP3 POP SWAP4 POP SWAP4 POP SWAP4 POP SWAP4 POP SWAP1 SWAP2 SWAP3 SWAP4 JUMP JUMPDEST PUSH2 0x22C5 PUSH1 0x1 PUSH2 0x1958 JUMP JUMPDEST PUSH1 0x1 PUSH1 0x1 PUSH1 0xA0 SHL SUB AND PUSH2 0x8FC SELFBALANCE SWAP1 DUP2 ISZERO MUL SWAP1 PUSH1 0x40 MLOAD PUSH1 0x0 PUSH1 0x40 MLOAD DUP1 DUP4 SUB DUP2 DUP6 DUP9 DUP9 CALL SWAP4 POP POP POP POP ISZERO DUP1 ISZERO PUSH2 0xDA6 JUMPI RETURNDATASIZE PUSH1 0x0 DUP1 RETURNDATACOPY RETURNDATASIZE PUSH1 0x0 REVERT JUMPDEST PUSH1 0x0 PUSH1 0x2 PUSH1 0xD SLOAD EQ ISZERO PUSH2 0x2352 JUMPI PUSH1 0x40 MLOAD PUSH3 0x461BCD PUSH1 0xE5 SHL DUP2 MSTORE PUSH1 0x20 PUSH1 0x4 DUP3 ADD MSTORE PUSH1 0x1F PUSH1 0x24 DUP3 ADD MSTORE PUSH32 0x5265656E7472616E637947756172643A207265656E7472616E742063616C6C00 PUSH1 0x44 DUP3 ADD MSTORE PUSH1 0x64 ADD PUSH2 0xB2B JUMP JUMPDEST PUSH1 0x2 PUSH1 0xD SSTORE CALLER PUSH1 0x0 SWAP1 DUP2 MSTORE PUSH1 0xA PUSH1 0x20 MSTORE PUSH1 0x40 SWAP1 KECCAK256 SLOAD PUSH2 0x100 SWAP1 DIV PUSH1 0xFF AND PUSH2 0x23CA JUMPI PUSH1 0x40 MLOAD PUSH3 0x461BCD PUSH1 0xE5 SHL DUP2 MSTORE PUSH1 0x20 PUSH1 0x4 DUP3 ADD MSTORE PUSH1 0x26 PUSH1 0x24 DUP3 ADD MSTORE PUSH32 0x45524337323154656D706C6174653A204E4F542045524332304445504C4F5945 PUSH1 0x44 DUP3 ADD MSTORE PUSH6 0x525F524F4C45 PUSH1 0xD0 SHL PUSH1 0x64 DUP3 ADD MSTORE PUSH1 0x84 ADD PUSH2 0xB2B JUMP JUMPDEST PUSH1 0x13 SLOAD PUSH1 0x40 MLOAD PUSH4 0x557FCFB PUSH1 0xE4 SHL DUP2 MSTORE PUSH1 0x0 SWAP2 PUSH2 0x100 SWAP1 DIV PUSH1 0x1 PUSH1 0x1 PUSH1 0xA0 SHL SUB AND SWAP1 PUSH4 0x557FCFB0 SWAP1 PUSH2 0x2410 SWAP1 DUP15 SWAP1 DUP15 SWAP1 DUP15 SWAP1 DUP15 SWAP1 DUP15 SWAP1 DUP15 SWAP1 DUP15 SWAP1 DUP15 SWAP1 DUP15 SWAP1 PUSH1 0x4 ADD PUSH2 0x50E5 JUMP JUMPDEST PUSH1 0x20 PUSH1 0x40 MLOAD DUP1 DUP4 SUB DUP2 PUSH1 0x0 DUP8 GAS CALL ISZERO DUP1 ISZERO PUSH2 0x242F JUMPI RETURNDATASIZE PUSH1 0x0 DUP1 RETURNDATACOPY RETURNDATASIZE PUSH1 0x0 REVERT JUMPDEST POP POP POP POP PUSH1 0x40 MLOAD RETURNDATASIZE PUSH1 0x1F NOT PUSH1 0x1F DUP3 ADD AND DUP3 ADD DUP1 PUSH1 0x40 MSTORE POP DUP2 ADD SWAP1 PUSH2 0x2453 SWAP2 SWAP1 PUSH2 0x5196 JUMP JUMPDEST PUSH1 0x1 PUSH1 0x1 PUSH1 0xA0 SHL SUB DUP2 AND PUSH1 0x0 DUP2 DUP2 MSTORE PUSH1 0x15 PUSH1 0x20 MSTORE PUSH1 0x40 DUP2 KECCAK256 DUP1 SLOAD PUSH1 0xFF NOT AND PUSH1 0x1 SWAP1 DUP2 OR SWAP1 SWAP2 SSTORE PUSH1 0x14 DUP1 SLOAD SWAP2 DUP3 ADD DUP2 SSTORE SWAP1 SWAP2 MSTORE PUSH32 0xCE6D7B5282BD9A3661AE061FEED1DBDA4E52AB073B1F9285BE6E155D9C38D4EC ADD DUP1 SLOAD PUSH1 0x1 PUSH1 0x1 PUSH1 0xA0 SHL SUB NOT AND SWAP1 SWAP2 OR SWAP1 SSTORE SWAP2 POP POP PUSH1 0x1 PUSH1 0xD SSTORE SWAP10 SWAP9 POP POP POP POP POP POP POP POP POP JUMP JUMPDEST CALLER PUSH1 0x0 SWAP1 DUP2 MSTORE PUSH1 0xA PUSH1 0x20 MSTORE PUSH1 0x40 SWAP1 KECCAK256 SLOAD PUSH1 0xFF AND ISZERO ISZERO PUSH1 0x1 EQ DUP1 PUSH2 0x251D JUMPI POP CALLER PUSH1 0x1 PUSH1 0x1 PUSH1 0xA0 SHL SUB DUP3 AND EQ DUP1 ISZERO PUSH2 0x251D JUMPI POP CALLER PUSH1 0x0 SWAP1 DUP2 MSTORE PUSH1 0xA PUSH1 0x20 MSTORE PUSH1 0x40 SWAP1 KECCAK256 SLOAD PUSH1 0xFF PUSH2 0x100 SWAP1 SWAP2 DIV AND ISZERO ISZERO PUSH1 0x1 EQ JUMPDEST ISZERO PUSH2 0x2583 JUMPI PUSH1 0x1 PUSH1 0x1 PUSH1 0xA0 SHL SUB DUP2 AND PUSH1 0x0 DUP2 DUP2 MSTORE PUSH1 0xA PUSH1 0x20 MSTORE PUSH1 0x40 SWAP1 DUP2 SWAP1 KECCAK256 DUP1 SLOAD PUSH2 0xFF00 NOT AND DUP2 SSTORE SWAP1 MLOAD SWAP1 SWAP2 CALLER SWAP2 PUSH32 0x59BD33F4C27CC16A2D74450E1FA43D7896020BE9AECEA4BEE009DB9294DE8997 SWAP1 PUSH2 0x13A3 SWAP1 TIMESTAMP SWAP1 NUMBER SWAP1 SWAP2 DUP3 MSTORE PUSH1 0x20 DUP3 ADD MSTORE PUSH1 0x40 ADD SWAP1 JUMP JUMPDEST PUSH1 0x40 MLOAD PUSH3 0x461BCD PUSH1 0xE5 SHL DUP2 MSTORE PUSH1 0x20 PUSH1 0x4 DUP3 ADD MSTORE PUSH1 0x43 PUSH1 0x24 DUP3 ADD MSTORE PUSH32 0x455243373231526F6C6573416464726573733A204E6F7420656E6F7567682070 PUSH1 0x44 DUP3 ADD MSTORE PUSH32 0x65726D697373696F6E7320746F2072656D6F76652066726F6D2045524332304C PUSH1 0x64 DUP3 ADD MSTORE PUSH3 0x1A5CDD PUSH1 0xEA SHL PUSH1 0x84 DUP3 ADD MSTORE PUSH1 0xA4 ADD PUSH2 0xB2B JUMP JUMPDEST PUSH1 0x0 PUSH2 0x149D PUSH1 0x5 DUP4 PUSH2 0x3594 JUMP JUMPDEST PUSH1 0x0 DUP2 DUP2 MSTORE PUSH1 0x7 PUSH1 0x20 MSTORE PUSH1 0x40 SWAP1 KECCAK256 DUP1 SLOAD PUSH1 0x1 PUSH1 0x1 PUSH1 0xA0 SHL SUB NOT AND PUSH1 0x1 PUSH1 0x1 PUSH1 0xA0 SHL SUB DUP5 AND SWAP1 DUP2 OR SWAP1 SWAP2 SSTORE DUP2 SWAP1 PUSH2 0x263F DUP3 PUSH2 0x1958 JUMP JUMPDEST PUSH1 0x1 PUSH1 0x1 PUSH1 0xA0 SHL SUB AND PUSH32 0x8C5BE1E5EBEC7D5BD14F71427D1E84F3DD0314C0F7B2291E5B200AC8C7C3B925 PUSH1 0x40 MLOAD PUSH1 0x40 MLOAD DUP1 SWAP2 SUB SWAP1 LOG4 POP POP JUMP JUMPDEST PUSH1 0x0 DUP4 DUP2 MSTORE PUSH1 0xC PUSH1 0x20 MSTORE PUSH1 0x40 SWAP1 KECCAK256 PUSH2 0x2691 SWAP1 DUP4 DUP4 PUSH2 0x41EF JUMP JUMPDEST POP DUP3 PUSH32 0xECE574603820D07BC9B91F2A932BAADF4628AABCB8AFBA49776529C14A6104B2 DUP4 DUP4 PUSH1 0x40 MLOAD PUSH2 0x26C4 SWAP3 SWAP2 SWAP1 PUSH2 0x51B3 JUMP JUMPDEST PUSH1 0x40 MLOAD DUP1 SWAP2 SUB SWAP1 LOG2 POP POP POP JUMP JUMPDEST PUSH1 0x1 PUSH1 0x1 PUSH1 0xA0 SHL SUB DUP2 AND ISZERO PUSH2 0xDA6 JUMPI PUSH1 0x1 PUSH1 0x1 PUSH1 0xA0 SHL SUB DUP2 AND PUSH1 0x0 SWAP1 DUP2 MSTORE PUSH1 0xA PUSH1 0x20 MSTORE PUSH1 0x40 SWAP1 KECCAK256 DUP1 SLOAD PUSH3 0xFF0000 NOT AND PUSH3 0x10000 OR DUP2 SSTORE PUSH2 0x2710 DUP3 PUSH2 0x2BF0 JUMP JUMPDEST PUSH1 0x40 DUP1 MLOAD TIMESTAMP DUP2 MSTORE NUMBER PUSH1 0x20 DUP3 ADD MSTORE CALLER SWAP2 PUSH1 0x1 PUSH1 0x1 PUSH1 0xA0 SHL SUB DUP6 AND SWAP2 PUSH32 0xC2A42571A74CE1442C8C44D375BA9442E7D55D94B37AFEACE261C83C62128FA4 SWAP2 ADD PUSH2 0x102C JUMP JUMPDEST PUSH2 0x275B DUP3 PUSH2 0x25FD JUMP JUMPDEST PUSH2 0x27BE JUMPI PUSH1 0x40 MLOAD PUSH3 0x461BCD PUSH1 0xE5 SHL DUP2 MSTORE PUSH1 0x20 PUSH1 0x4 DUP3 ADD MSTORE PUSH1 0x2E PUSH1 0x24 DUP3 ADD MSTORE PUSH32 0x45524337323155524953746F726167653A2055524920736574206F66206E6F6E PUSH1 0x44 DUP3 ADD MSTORE PUSH14 0x32BC34B9BA32B73A103A37B5B2B7 PUSH1 0x91 SHL PUSH1 0x64 DUP3 ADD MSTORE PUSH1 0x84 ADD PUSH2 0xB2B JUMP JUMPDEST PUSH1 0x0 DUP3 DUP2 MSTORE PUSH1 0x9 PUSH1 0x20 SWAP1 DUP2 MSTORE PUSH1 0x40 SWAP1 SWAP2 KECCAK256 DUP3 MLOAD PUSH2 0xC61 SWAP3 DUP5 ADD SWAP1 PUSH2 0x416B JUMP JUMPDEST PUSH1 0x0 PUSH2 0x149D DUP3 SLOAD SWAP1 JUMP JUMPDEST PUSH1 0x13 DUP1 SLOAD PUSH1 0xFF NOT AND PUSH1 0xFF DUP14 AND OR SWAP1 SSTORE PUSH2 0x2802 PUSH1 0x11 DUP12 DUP12 PUSH2 0x41EF JUMP JUMPDEST POP PUSH2 0x280F PUSH1 0x12 DUP10 DUP10 PUSH2 0x41EF JUMP JUMPDEST POP PUSH1 0x10 SLOAD PUSH2 0x100 SWAP1 DIV PUSH1 0xFF AND PUSH2 0x2886 JUMPI CALLER PUSH1 0x1 PUSH1 0x1 PUSH1 0xA0 SHL SUB AND PUSH32 0x5463569DCC320958360074A9AB27E809E8A6942C394FB151D139B5F7B4ECB1BD DUP13 DUP13 DUP13 DUP11 DUP11 DUP11 DUP11 DUP11 TIMESTAMP NUMBER PUSH1 0x40 MLOAD PUSH2 0x286A SWAP11 SWAP10 SWAP9 SWAP8 SWAP7 SWAP6 SWAP5 SWAP4 SWAP3 SWAP2 SWAP1 PUSH2 0x51C7 JUMP JUMPDEST PUSH1 0x40 MLOAD DUP1 SWAP2 SUB SWAP1 LOG2 PUSH1 0x10 DUP1 SLOAD PUSH2 0xFF00 NOT AND PUSH2 0x100 OR SWAP1 SSTORE PUSH2 0x28D8 JUMP JUMPDEST PUSH1 0x13 SLOAD PUSH1 0x40 MLOAD CALLER SWAP2 PUSH32 0xE5C4CF86B1815151E6F453E1E133D4454AE3B0B07145DB39F2E0178685DEAC84 SWAP2 PUSH2 0x28CF SWAP2 PUSH1 0xFF AND SWAP1 DUP15 SWAP1 DUP15 SWAP1 DUP13 SWAP1 DUP13 SWAP1 DUP13 SWAP1 DUP13 SWAP1 DUP13 SWAP1 TIMESTAMP SWAP1 NUMBER SWAP1 PUSH2 0x51C7 JUMP JUMPDEST PUSH1 0x40 MLOAD DUP1 SWAP2 SUB SWAP1 LOG2 JUMPDEST PUSH1 0x32 DUP2 MLOAD GT ISZERO PUSH2 0x291C JUMPI PUSH1 0x40 MLOAD PUSH3 0x461BCD PUSH1 0xE5 SHL DUP2 MSTORE PUSH1 0x20 PUSH1 0x4 DUP3 ADD MSTORE PUSH1 0xF PUSH1 0x24 DUP3 ADD MSTORE PUSH15 0x546F6F204D616E792050726F6F6673 PUSH1 0x88 SHL PUSH1 0x44 DUP3 ADD MSTORE PUSH1 0x64 ADD PUSH2 0xB2B JUMP JUMPDEST PUSH1 0x40 DUP1 MLOAD DUP1 DUP3 ADD SWAP1 SWAP2 MSTORE PUSH1 0x1C DUP2 MSTORE PUSH32 0x19457468657265756D205369676E6564204D6573736167653A0A333200000000 PUSH1 0x20 DUP3 ADD MSTORE PUSH1 0x0 JUMPDEST DUP3 MLOAD DUP2 LT ISZERO PUSH2 0x2BE1 JUMPI PUSH1 0x0 PUSH1 0x1 PUSH1 0x1 PUSH1 0xA0 SHL SUB AND DUP4 DUP3 DUP2 MLOAD DUP2 LT PUSH2 0x2979 JUMPI PUSH2 0x2979 PUSH2 0x4F0F JUMP JUMPDEST PUSH1 0x20 MUL PUSH1 0x20 ADD ADD MLOAD PUSH1 0x0 ADD MLOAD PUSH1 0x1 PUSH1 0x1 PUSH1 0xA0 SHL SUB AND EQ PUSH2 0x2AFB JUMPI PUSH1 0x0 DUP3 DUP6 PUSH1 0x40 MLOAD PUSH1 0x20 ADD PUSH2 0x29A8 SWAP3 SWAP2 SWAP1 PUSH2 0x522F JUMP JUMPDEST PUSH1 0x40 MLOAD PUSH1 0x20 DUP2 DUP4 SUB SUB DUP2 MSTORE SWAP1 PUSH1 0x40 MSTORE DUP1 MLOAD SWAP1 PUSH1 0x20 ADD KECCAK256 SWAP1 POP PUSH1 0x0 PUSH1 0x1 DUP3 DUP7 DUP6 DUP2 MLOAD DUP2 LT PUSH2 0x29D7 JUMPI PUSH2 0x29D7 PUSH2 0x4F0F JUMP JUMPDEST PUSH1 0x20 MUL PUSH1 0x20 ADD ADD MLOAD PUSH1 0x20 ADD MLOAD DUP8 DUP7 DUP2 MLOAD DUP2 LT PUSH2 0x29F5 JUMPI PUSH2 0x29F5 PUSH2 0x4F0F JUMP JUMPDEST PUSH1 0x20 MUL PUSH1 0x20 ADD ADD MLOAD PUSH1 0x40 ADD MLOAD DUP9 DUP8 DUP2 MLOAD DUP2 LT PUSH2 0x2A13 JUMPI PUSH2 0x2A13 PUSH2 0x4F0F JUMP JUMPDEST PUSH1 0x20 MUL PUSH1 0x20 ADD ADD MLOAD PUSH1 0x60 ADD MLOAD PUSH1 0x40 MLOAD PUSH1 0x0 DUP2 MSTORE PUSH1 0x20 ADD PUSH1 0x40 MSTORE PUSH1 0x40 MLOAD PUSH2 0x2A55 SWAP5 SWAP4 SWAP3 SWAP2 SWAP1 SWAP4 DUP5 MSTORE PUSH1 0xFF SWAP3 SWAP1 SWAP3 AND PUSH1 0x20 DUP5 ADD MSTORE PUSH1 0x40 DUP4 ADD MSTORE PUSH1 0x60 DUP3 ADD MSTORE PUSH1 0x80 ADD SWAP1 JUMP JUMPDEST PUSH1 0x20 PUSH1 0x40 MLOAD PUSH1 0x20 DUP2 SUB SWAP1 DUP1 DUP5 SUB SWAP1 DUP6 GAS STATICCALL ISZERO DUP1 ISZERO PUSH2 0x2A77 JUMPI RETURNDATASIZE PUSH1 0x0 DUP1 RETURNDATACOPY RETURNDATASIZE PUSH1 0x0 REVERT JUMPDEST POP POP POP PUSH1 0x20 PUSH1 0x40 MLOAD SUB MLOAD SWAP1 POP DUP5 DUP4 DUP2 MLOAD DUP2 LT PUSH2 0x2A95 JUMPI PUSH2 0x2A95 PUSH2 0x4F0F JUMP JUMPDEST PUSH1 0x20 MUL PUSH1 0x20 ADD ADD MLOAD PUSH1 0x0 ADD MLOAD PUSH1 0x1 PUSH1 0x1 PUSH1 0xA0 SHL SUB AND DUP2 PUSH1 0x1 PUSH1 0x1 PUSH1 0xA0 SHL SUB AND EQ PUSH2 0x2AF8 JUMPI PUSH1 0x40 MLOAD PUSH3 0x461BCD PUSH1 0xE5 SHL DUP2 MSTORE PUSH1 0x20 PUSH1 0x4 DUP3 ADD MSTORE PUSH1 0x14 PUSH1 0x24 DUP3 ADD MSTORE PUSH20 0x24B73B30B634B210383937B7B31039B4B3B732B9 PUSH1 0x61 SHL PUSH1 0x44 DUP3 ADD MSTORE PUSH1 0x64 ADD PUSH2 0xB2B JUMP JUMPDEST POP POP JUMPDEST DUP3 DUP2 DUP2 MLOAD DUP2 LT PUSH2 0x2B0D JUMPI PUSH2 0x2B0D PUSH2 0x4F0F JUMP JUMPDEST PUSH1 0x20 MUL PUSH1 0x20 ADD ADD MLOAD PUSH1 0x0 ADD MLOAD PUSH1 0x1 PUSH1 0x1 PUSH1 0xA0 SHL SUB AND PUSH32 0x2819D8BADF5CFF2C9220B8EE99DACC14D67058E343D7F0C2C444D198507FE941 DUP6 DUP6 DUP5 DUP2 MLOAD DUP2 LT PUSH2 0x2B56 JUMPI PUSH2 0x2B56 PUSH2 0x4F0F JUMP JUMPDEST PUSH1 0x20 MUL PUSH1 0x20 ADD ADD MLOAD PUSH1 0x20 ADD MLOAD DUP7 DUP6 DUP2 MLOAD DUP2 LT PUSH2 0x2B74 JUMPI PUSH2 0x2B74 PUSH2 0x4F0F JUMP JUMPDEST PUSH1 0x20 MUL PUSH1 0x20 ADD ADD MLOAD PUSH1 0x40 ADD MLOAD DUP8 DUP7 DUP2 MLOAD DUP2 LT PUSH2 0x2B92 JUMPI PUSH2 0x2B92 PUSH2 0x4F0F JUMP JUMPDEST PUSH1 0x20 MUL PUSH1 0x20 ADD ADD MLOAD PUSH1 0x60 ADD MLOAD PUSH1 0x40 MLOAD PUSH2 0x2BC7 SWAP5 SWAP4 SWAP3 SWAP2 SWAP1 SWAP4 DUP5 MSTORE PUSH1 0xFF SWAP3 SWAP1 SWAP3 AND PUSH1 0x20 DUP5 ADD MSTORE PUSH1 0x40 DUP4 ADD MSTORE PUSH1 0x60 DUP3 ADD MSTORE PUSH1 0x80 ADD SWAP1 JUMP JUMPDEST PUSH1 0x40 MLOAD DUP1 SWAP2 SUB SWAP1 LOG2 DUP1 PUSH2 0x2BD9 DUP2 PUSH2 0x4F51 JUMP JUMPDEST SWAP2 POP POP PUSH2 0x2953 JUMP JUMPDEST POP POP POP POP POP POP POP POP POP POP POP POP POP JUMP JUMPDEST PUSH1 0x0 JUMPDEST PUSH1 0xB SLOAD DUP2 LT ISZERO PUSH2 0x2C4C JUMPI DUP2 PUSH1 0x1 PUSH1 0x1 PUSH1 0xA0 SHL SUB AND PUSH1 0xB DUP3 DUP2 SLOAD DUP2 LT PUSH2 0x2C1A JUMPI PUSH2 0x2C1A PUSH2 0x4F0F JUMP JUMPDEST PUSH1 0x0 SWAP2 DUP3 MSTORE PUSH1 0x20 SWAP1 SWAP2 KECCAK256 ADD SLOAD PUSH1 0x1 PUSH1 0x1 PUSH1 0xA0 SHL SUB AND EQ ISZERO PUSH2 0x2C3A JUMPI PUSH2 0x2C4C JUMP JUMPDEST DUP1 PUSH2 0x2C44 DUP2 PUSH2 0x4F51 JUMP JUMPDEST SWAP2 POP POP PUSH2 0x2BF3 JUMP JUMPDEST PUSH1 0xB SLOAD DUP2 EQ ISZERO PUSH2 0x13B4 JUMPI PUSH1 0xB DUP1 SLOAD PUSH1 0x1 DUP2 ADD DUP3 SSTORE PUSH1 0x0 SWAP2 SWAP1 SWAP2 MSTORE PUSH32 0x175B7A638427703F0DBE7BB9BBF987A2551717B34E79F33B5B1008D1FA01DB9 ADD DUP1 SLOAD PUSH1 0x1 PUSH1 0x1 PUSH1 0xA0 SHL SUB DUP5 AND PUSH1 0x1 PUSH1 0x1 PUSH1 0xA0 SHL SUB NOT SWAP1 SWAP2 AND OR SWAP1 SSTORE POP POP JUMP JUMPDEST PUSH1 0x1 PUSH1 0x1 PUSH1 0xA0 SHL SUB DUP2 AND PUSH1 0x0 SWAP1 DUP2 MSTORE PUSH1 0xA PUSH1 0x20 MSTORE PUSH1 0x40 SWAP1 KECCAK256 DUP1 SLOAD PUSH2 0xFF00 NOT AND PUSH2 0x100 OR DUP2 SSTORE PUSH2 0x2CD5 DUP3 PUSH2 0x2BF0 JUMP JUMPDEST PUSH1 0x40 DUP1 MLOAD TIMESTAMP DUP2 MSTORE NUMBER PUSH1 0x20 DUP3 ADD MSTORE CALLER SWAP2 PUSH1 0x1 PUSH1 0x1 PUSH1 0xA0 SHL SUB DUP6 AND SWAP2 PUSH32 0x572D56343BE407A66810F01449212E8545E14FF5049C479D34BE944CDFD0D4F SWAP2 ADD PUSH2 0x102C JUMP JUMPDEST PUSH1 0x0 PUSH1 0x1 PUSH1 0x1 PUSH1 0xA0 SHL SUB DUP8 AND PUSH2 0x2D86 JUMPI PUSH1 0x40 MLOAD PUSH3 0x461BCD PUSH1 0xE5 SHL DUP2 MSTORE PUSH1 0x20 PUSH1 0x4 DUP3 ADD MSTORE PUSH1 0x2E PUSH1 0x24 DUP3 ADD MSTORE PUSH32 0x45524337323154656D706C6174653A3A20496E76616C6964206D696E7465722C PUSH1 0x44 DUP3 ADD MSTORE PUSH14 0x20207A65726F2061646472657373 PUSH1 0x90 SHL PUSH1 0x64 DUP3 ADD MSTORE PUSH1 0x84 ADD PUSH2 0xB2B JUMP JUMPDEST DUP6 MLOAD PUSH2 0x2D99 SWAP1 PUSH1 0xE SWAP1 PUSH1 0x20 DUP10 ADD SWAP1 PUSH2 0x416B JUMP JUMPDEST POP DUP5 MLOAD PUSH2 0x2DAD SWAP1 PUSH1 0xF SWAP1 PUSH1 0x20 DUP9 ADD SWAP1 PUSH2 0x416B JUMP JUMPDEST POP PUSH1 0x13 DUP1 SLOAD PUSH2 0x100 PUSH1 0x1 PUSH1 0xA8 SHL SUB NOT AND PUSH2 0x100 PUSH1 0x1 PUSH1 0x1 PUSH1 0xA0 SHL SUB DUP8 AND MUL OR SWAP1 SSTORE PUSH1 0x40 DUP1 MLOAD PUSH1 0x20 DUP2 ADD SWAP2 DUP3 SWAP1 MSTORE PUSH1 0x0 SWAP1 DUP2 SWAP1 MSTORE PUSH2 0x2DEC SWAP2 PUSH1 0x3 SWAP2 PUSH2 0x416B JUMP JUMPDEST POP PUSH1 0x10 DUP1 SLOAD PUSH1 0x1 PUSH2 0xFFFF NOT SWAP1 SWAP2 AND DUP2 OR SWAP1 SWAP2 SSTORE PUSH1 0x16 DUP1 SLOAD PUSH1 0xFF NOT AND DUP5 ISZERO ISZERO OR SWAP1 SSTORE PUSH2 0x2E18 SWAP1 DUP9 SWAP1 PUSH2 0x35AC JUMP JUMPDEST PUSH2 0x2E21 DUP8 PUSH2 0x3054 JUMP JUMPDEST PUSH1 0x1 PUSH1 0x1 PUSH1 0xA0 SHL SUB DUP8 AND PUSH1 0x0 SWAP1 DUP2 MSTORE PUSH1 0xA PUSH1 0x20 MSTORE PUSH1 0x40 SWAP1 KECCAK256 DUP1 SLOAD PUSH4 0xFFFFFF00 NOT AND PUSH4 0x1010100 OR DUP2 SSTORE PUSH2 0x2E55 PUSH1 0x1 DUP6 PUSH2 0x2752 JUMP JUMPDEST POP POP PUSH1 0x10 SLOAD PUSH1 0xFF AND SWAP7 SWAP6 POP POP POP POP POP POP JUMP JUMPDEST PUSH2 0x2E77 PUSH4 0x80AC58CD PUSH1 0xE0 SHL PUSH2 0x2E93 JUMP JUMPDEST PUSH2 0x2E87 PUSH4 0x5B5E139F PUSH1 0xE0 SHL PUSH2 0x2E93 JUMP JUMPDEST PUSH2 0x1851 PUSH4 0x780E9D63 PUSH1 0xE0 SHL JUMPDEST PUSH1 0x1 PUSH1 0x1 PUSH1 0xE0 SHL SUB NOT DUP1 DUP3 AND EQ ISZERO PUSH2 0x2EED JUMPI PUSH1 0x40 MLOAD PUSH3 0x461BCD PUSH1 0xE5 SHL DUP2 MSTORE PUSH1 0x20 PUSH1 0x4 DUP3 ADD MSTORE PUSH1 0x1C PUSH1 0x24 DUP3 ADD MSTORE PUSH32 0x4552433136353A20696E76616C696420696E7465726661636520696400000000 PUSH1 0x44 DUP3 ADD MSTORE PUSH1 0x64 ADD PUSH2 0xB2B JUMP JUMPDEST PUSH1 0x1 PUSH1 0x1 PUSH1 0xE0 SHL SUB NOT AND PUSH1 0x0 SWAP1 DUP2 MSTORE PUSH1 0x20 DUP2 SWAP1 MSTORE PUSH1 0x40 SWAP1 KECCAK256 DUP1 SLOAD PUSH1 0xFF NOT AND PUSH1 0x1 OR SWAP1 SSTORE JUMP JUMPDEST PUSH1 0x0 JUMPDEST DUP2 DUP2 LT ISZERO PUSH2 0x13B4 JUMPI PUSH1 0x14 DUP2 DUP2 SLOAD DUP2 LT PUSH2 0x2F30 JUMPI PUSH2 0x2F30 PUSH2 0x4F0F JUMP JUMPDEST PUSH1 0x0 SWAP2 DUP3 MSTORE PUSH1 0x20 DUP3 KECCAK256 ADD SLOAD PUSH1 0x40 DUP1 MLOAD PUSH4 0x82C03DA5 PUSH1 0xE0 SHL DUP2 MSTORE SWAP1 MLOAD PUSH1 0x1 PUSH1 0x1 PUSH1 0xA0 SHL SUB SWAP1 SWAP3 AND SWAP3 PUSH4 0x82C03DA5 SWAP3 PUSH1 0x4 DUP1 DUP5 ADD SWAP4 DUP3 SWAP1 SUB ADD DUP2 DUP4 DUP8 DUP1 EXTCODESIZE ISZERO DUP1 ISZERO PUSH2 0x2F78 JUMPI PUSH1 0x0 DUP1 REVERT JUMPDEST POP GAS CALL ISZERO DUP1 ISZERO PUSH2 0x2F8C JUMPI RETURNDATASIZE PUSH1 0x0 DUP1 RETURNDATACOPY RETURNDATASIZE PUSH1 0x0 REVERT JUMPDEST POP POP POP POP DUP1 DUP1 PUSH2 0x2F9B SWAP1 PUSH2 0x4F51 JUMP JUMPDEST SWAP2 POP POP PUSH2 0x2F15 JUMP JUMPDEST PUSH1 0x0 JUMPDEST PUSH1 0xB SLOAD DUP2 LT ISZERO PUSH2 0x300B JUMPI PUSH1 0x0 PUSH1 0xA PUSH1 0x0 PUSH1 0xB DUP5 DUP2 SLOAD DUP2 LT PUSH2 0x2FC9 JUMPI PUSH2 0x2FC9 PUSH2 0x4F0F JUMP JUMPDEST PUSH1 0x0 SWAP2 DUP3 MSTORE PUSH1 0x20 DUP1 DUP4 KECCAK256 SWAP1 SWAP2 ADD SLOAD PUSH1 0x1 PUSH1 0x1 PUSH1 0xA0 SHL SUB AND DUP4 MSTORE DUP3 ADD SWAP3 SWAP1 SWAP3 MSTORE PUSH1 0x40 ADD SWAP1 KECCAK256 DUP1 SLOAD PUSH4 0xFFFFFFFF NOT AND SWAP1 SSTORE POP DUP1 PUSH2 0x3003 DUP2 PUSH2 0x4F51 JUMP JUMPDEST SWAP2 POP POP PUSH2 0x2FA6 JUMP JUMPDEST POP PUSH2 0x3018 PUSH1 0xB PUSH1 0x0 PUSH2 0x4263 JUMP JUMPDEST PUSH1 0x40 DUP1 MLOAD TIMESTAMP DUP2 MSTORE NUMBER PUSH1 0x20 DUP3 ADD MSTORE CALLER SWAP2 PUSH32 0x712BC71DB81927A76B8BF1EA346247BB0AD58F18E4E5C1BD4AA0EC6573E02A2B SWAP2 ADD PUSH1 0x40 MLOAD DUP1 SWAP2 SUB SWAP1 LOG2 JUMP JUMPDEST PUSH1 0x1 PUSH1 0x1 PUSH1 0xA0 SHL SUB DUP2 AND ISZERO PUSH2 0xDA6 JUMPI PUSH1 0x1 PUSH1 0x1 PUSH1 0xA0 SHL SUB DUP2 AND PUSH1 0x0 SWAP1 DUP2 MSTORE PUSH1 0xA PUSH1 0x20 MSTORE PUSH1 0x40 SWAP1 KECCAK256 DUP1 SLOAD PUSH1 0xFF NOT AND PUSH1 0x1 OR DUP2 SSTORE PUSH2 0x308F DUP3 PUSH2 0x2BF0 JUMP JUMPDEST PUSH1 0x40 DUP1 MLOAD TIMESTAMP DUP2 MSTORE NUMBER PUSH1 0x20 DUP3 ADD MSTORE CALLER SWAP2 PUSH1 0x1 PUSH1 0x1 PUSH1 0xA0 SHL SUB DUP6 AND SWAP2 PUSH32 0xAF8FC8B6726138C96881C895390A08E9D91A94C288F06281E7F9821C49C7155B SWAP2 ADD PUSH2 0x102C JUMP JUMPDEST PUSH2 0x30DB CALLER DUP3 PUSH2 0x35C6 JUMP JUMPDEST PUSH2 0x30F7 JUMPI PUSH1 0x40 MLOAD PUSH3 0x461BCD PUSH1 0xE5 SHL DUP2 MSTORE PUSH1 0x4 ADD PUSH2 0xB2B SWAP1 PUSH2 0x5251 JUMP JUMPDEST PUSH2 0xC61 DUP4 DUP4 DUP4 PUSH1 0x40 MLOAD DUP1 PUSH1 0x20 ADD PUSH1 0x40 MSTORE DUP1 PUSH1 0x0 DUP2 MSTORE POP PUSH2 0x3295 JUMP JUMPDEST PUSH1 0x1 PUSH1 0x1 PUSH1 0xA0 SHL SUB DUP2 AND PUSH1 0x0 SWAP1 DUP2 MSTORE PUSH1 0xA PUSH1 0x20 MSTORE PUSH1 0x40 SWAP1 KECCAK256 DUP1 SLOAD PUSH1 0xFF AND ISZERO DUP1 ISZERO PUSH2 0x3143 JUMPI POP DUP1 SLOAD PUSH2 0x100 SWAP1 DIV PUSH1 0xFF AND ISZERO JUMPDEST DUP1 ISZERO PUSH2 0x3157 JUMPI POP DUP1 SLOAD PUSH3 0x10000 SWAP1 DIV PUSH1 0xFF AND ISZERO JUMPDEST DUP1 ISZERO PUSH2 0x316C JUMPI POP DUP1 SLOAD PUSH4 0x1000000 SWAP1 DIV PUSH1 0xFF AND ISZERO JUMPDEST ISZERO PUSH2 0x13B4 JUMPI PUSH1 0x0 JUMPDEST PUSH1 0xB SLOAD DUP2 LT ISZERO PUSH2 0x31CD JUMPI DUP3 PUSH1 0x1 PUSH1 0x1 PUSH1 0xA0 SHL SUB AND PUSH1 0xB DUP3 DUP2 SLOAD DUP2 LT PUSH2 0x319B JUMPI PUSH2 0x319B PUSH2 0x4F0F JUMP JUMPDEST PUSH1 0x0 SWAP2 DUP3 MSTORE PUSH1 0x20 SWAP1 SWAP2 KECCAK256 ADD SLOAD PUSH1 0x1 PUSH1 0x1 PUSH1 0xA0 SHL SUB AND EQ ISZERO PUSH2 0x31BB JUMPI PUSH2 0x31CD JUMP JUMPDEST DUP1 PUSH2 0x31C5 DUP2 PUSH2 0x4F51 JUMP JUMPDEST SWAP2 POP POP PUSH2 0x3174 JUMP JUMPDEST PUSH1 0xB SLOAD DUP2 LT ISZERO PUSH2 0xC61 JUMPI PUSH1 0xB DUP1 SLOAD PUSH2 0x31E7 SWAP1 PUSH1 0x1 SWAP1 PUSH2 0x52A2 JUMP JUMPDEST DUP2 SLOAD DUP2 LT PUSH2 0x31F7 JUMPI PUSH2 0x31F7 PUSH2 0x4F0F JUMP JUMPDEST PUSH1 0x0 SWAP2 DUP3 MSTORE PUSH1 0x20 SWAP1 SWAP2 KECCAK256 ADD SLOAD PUSH1 0xB DUP1 SLOAD PUSH1 0x1 PUSH1 0x1 PUSH1 0xA0 SHL SUB SWAP1 SWAP3 AND SWAP2 DUP4 SWAP1 DUP2 LT PUSH2 0x3223 JUMPI PUSH2 0x3223 PUSH2 0x4F0F JUMP JUMPDEST SWAP1 PUSH1 0x0 MSTORE PUSH1 0x20 PUSH1 0x0 KECCAK256 ADD PUSH1 0x0 PUSH2 0x100 EXP DUP2 SLOAD DUP2 PUSH1 0x1 PUSH1 0x1 PUSH1 0xA0 SHL SUB MUL NOT AND SWAP1 DUP4 PUSH1 0x1 PUSH1 0x1 PUSH1 0xA0 SHL SUB AND MUL OR SWAP1 SSTORE POP PUSH1 0xB DUP1 SLOAD DUP1 PUSH2 0x3262 JUMPI PUSH2 0x3262 PUSH2 0x52B9 JUMP JUMPDEST PUSH1 0x0 DUP3 DUP2 MSTORE PUSH1 0x20 SWAP1 KECCAK256 DUP2 ADD PUSH1 0x0 NOT SWAP1 DUP2 ADD DUP1 SLOAD PUSH1 0x1 PUSH1 0x1 PUSH1 0xA0 SHL SUB NOT AND SWAP1 SSTORE ADD SWAP1 SSTORE POP POP POP JUMP JUMPDEST PUSH1 0x0 PUSH2 0x149A DUP4 DUP4 PUSH2 0x36B0 JUMP JUMPDEST PUSH2 0x329F CALLER DUP4 PUSH2 0x35C6 JUMP JUMPDEST PUSH2 0x32BB JUMPI PUSH1 0x40 MLOAD PUSH3 0x461BCD PUSH1 0xE5 SHL DUP2 MSTORE PUSH1 0x4 ADD PUSH2 0xB2B SWAP1 PUSH2 0x5251 JUMP JUMPDEST PUSH2 0x12E4 DUP5 DUP5 DUP5 DUP5 PUSH2 0x3736 JUMP JUMPDEST PUSH1 0x0 DUP1 DUP1 DUP1 PUSH2 0x32D6 DUP7 DUP7 PUSH2 0x3769 JUMP JUMPDEST SWAP1 SWAP5 POP SWAP3 POP POP POP JUMPDEST SWAP3 POP SWAP3 SWAP1 POP JUMP JUMPDEST PUSH1 0x0 PUSH2 0x32F2 DUP5 DUP5 DUP5 PUSH2 0x3806 JUMP JUMPDEST SWAP1 POP JUMPDEST SWAP4 SWAP3 POP POP POP JUMP JUMPDEST PUSH1 0x60 PUSH1 0x3 DUP1 SLOAD PUSH2 0xA40 SWAP1 PUSH2 0x4CBC JUMP JUMPDEST PUSH1 0x1 PUSH1 0x1 PUSH1 0xA0 SHL SUB DUP2 AND PUSH1 0x0 DUP2 DUP2 MSTORE PUSH1 0xA PUSH1 0x20 MSTORE PUSH1 0x40 SWAP1 DUP2 SWAP1 KECCAK256 DUP1 SLOAD PUSH1 0xFF NOT AND DUP2 SSTORE SWAP1 MLOAD SWAP1 SWAP2 CALLER SWAP2 PUSH32 0xB572DB0E6DA4924B771ED1712B980D48B5992B9A1C27AEDE55FBB3318C48996A SWAP1 PUSH2 0x13A3 SWAP1 TIMESTAMP SWAP1 NUMBER SWAP1 SWAP2 DUP3 MSTORE PUSH1 0x20 DUP3 ADD MSTORE PUSH1 0x40 ADD SWAP1 JUMP JUMPDEST DUP3 DUP5 PUSH1 0x1 PUSH1 0x1 PUSH1 0xA0 SHL SUB AND DUP7 PUSH32 0x1F920DBDA597D7BF95035464170FA58D0A4B57F13A1C315ACE6793B9F63688B8 DUP6 DUP6 PUSH1 0x40 MLOAD PUSH2 0x33A8 SWAP3 SWAP2 SWAP1 PUSH2 0x51B3 JUMP JUMPDEST PUSH1 0x40 MLOAD DUP1 SWAP2 SUB SWAP1 LOG4 PUSH1 0x0 PUSH2 0x9C4 GAS PUSH2 0x33C0 SWAP2 SWAP1 PUSH2 0x52A2 JUMP JUMPDEST SWAP1 POP DUP6 PUSH2 0x3410 JUMPI PUSH2 0x340A DUP6 DUP6 DUP6 DUP6 DUP1 DUP1 PUSH1 0x1F ADD PUSH1 0x20 DUP1 SWAP2 DIV MUL PUSH1 0x20 ADD PUSH1 0x40 MLOAD SWAP1 DUP2 ADD PUSH1 0x40 MSTORE DUP1 SWAP4 SWAP3 SWAP2 SWAP1 DUP2 DUP2 MSTORE PUSH1 0x20 ADD DUP4 DUP4 DUP1 DUP3 DUP5 CALLDATACOPY PUSH1 0x0 SWAP3 ADD SWAP2 SWAP1 SWAP2 MSTORE POP DUP8 SWAP3 POP PUSH2 0x386F SWAP2 POP POP JUMP JUMPDEST POP PUSH2 0x358C JUMP JUMPDEST PUSH1 0x3 DUP7 EQ ISZERO PUSH2 0x3459 JUMPI PUSH2 0x340A DUP5 DUP5 DUP5 DUP1 DUP1 PUSH1 0x1F ADD PUSH1 0x20 DUP1 SWAP2 DIV MUL PUSH1 0x20 ADD PUSH1 0x40 MLOAD SWAP1 DUP2 ADD PUSH1 0x40 MSTORE DUP1 SWAP4 SWAP3 SWAP2 SWAP1 DUP2 DUP2 MSTORE PUSH1 0x20 ADD DUP4 DUP4 DUP1 DUP3 DUP5 CALLDATACOPY PUSH1 0x0 SWAP3 ADD SWAP2 SWAP1 SWAP2 MSTORE POP PUSH2 0x3887 SWAP3 POP POP POP JUMP JUMPDEST PUSH1 0x2 DUP7 EQ ISZERO PUSH2 0x354D JUMPI PUSH1 0x0 PUSH2 0x34B0 DUP5 DUP5 DUP1 DUP1 PUSH1 0x1F ADD PUSH1 0x20 DUP1 SWAP2 DIV MUL PUSH1 0x20 ADD PUSH1 0x40 MLOAD SWAP1 DUP2 ADD PUSH1 0x40 MSTORE DUP1 SWAP4 SWAP3 SWAP2 SWAP1 DUP2 DUP2 MSTORE PUSH1 0x20 ADD DUP4 DUP4 DUP1 DUP3 DUP5 CALLDATACOPY PUSH1 0x0 SWAP3 ADD SWAP2 SWAP1 SWAP2 MSTORE POP PUSH2 0x34AB SWAP3 POP PUSH1 0x20 SWAP2 POP DUP8 SWAP1 POP PUSH2 0x52A2 JUMP JUMPDEST PUSH2 0x3923 JUMP JUMPDEST SWAP1 POP PUSH1 0x0 PUSH2 0x34FF DUP6 DUP6 DUP1 DUP1 PUSH1 0x1F ADD PUSH1 0x20 DUP1 SWAP2 DIV MUL PUSH1 0x20 ADD PUSH1 0x40 MLOAD SWAP1 DUP2 ADD PUSH1 0x40 MSTORE DUP1 SWAP4 SWAP3 SWAP2 SWAP1 DUP2 DUP2 MSTORE PUSH1 0x20 ADD DUP4 DUP4 DUP1 DUP3 DUP5 CALLDATACOPY PUSH1 0x0 SWAP3 ADD DUP3 SWAP1 MSTORE POP SWAP3 POP PUSH2 0x34FA SWAP2 POP PUSH1 0x20 SWAP1 POP DUP9 PUSH2 0x52A2 JUMP JUMPDEST PUSH2 0x3981 JUMP JUMPDEST SWAP1 POP PUSH1 0x0 PUSH2 0x350E DUP8 DUP5 DUP5 PUSH2 0x3A8E JUMP JUMPDEST PUSH1 0x40 MLOAD SWAP1 SWAP2 POP PUSH1 0x1 PUSH1 0x1 PUSH1 0xA0 SHL SUB DUP3 AND SWAP1 PUSH32 0xCF78CF0D6F3D8371E1075C69C492AB4EC5D8CF23A1A239B6A51A1D00BE7CA312 SWAP1 PUSH1 0x0 SWAP1 LOG2 POP POP POP PUSH2 0x358C JUMP JUMPDEST PUSH1 0x40 MLOAD PUSH3 0x461BCD PUSH1 0xE5 SHL DUP2 MSTORE PUSH1 0x20 PUSH1 0x4 DUP3 ADD MSTORE PUSH1 0x14 PUSH1 0x24 DUP3 ADD MSTORE PUSH20 0x57726F6E67206F7065726174696F6E2074797065 PUSH1 0x60 SHL PUSH1 0x44 DUP3 ADD MSTORE PUSH1 0x64 ADD PUSH2 0xB2B JUMP JUMPDEST POP POP POP POP POP POP JUMP JUMPDEST PUSH1 0x0 DUP2 DUP2 MSTORE PUSH1 0x1 DUP4 ADD PUSH1 0x20 MSTORE PUSH1 0x40 DUP2 KECCAK256 SLOAD ISZERO ISZERO PUSH2 0x149A JUMP JUMPDEST PUSH2 0x13B4 DUP3 DUP3 PUSH1 0x40 MLOAD DUP1 PUSH1 0x20 ADD PUSH1 0x40 MSTORE DUP1 PUSH1 0x0 DUP2 MSTORE POP PUSH2 0x3B90 JUMP JUMPDEST PUSH1 0x0 PUSH2 0x35D1 DUP3 PUSH2 0x25FD JUMP JUMPDEST PUSH2 0x3632 JUMPI PUSH1 0x40 MLOAD PUSH3 0x461BCD PUSH1 0xE5 SHL DUP2 MSTORE PUSH1 0x20 PUSH1 0x4 DUP3 ADD MSTORE PUSH1 0x2C PUSH1 0x24 DUP3 ADD MSTORE PUSH32 0x4552433732313A206F70657261746F7220717565727920666F72206E6F6E6578 PUSH1 0x44 DUP3 ADD MSTORE PUSH12 0x34B9BA32B73A103A37B5B2B7 PUSH1 0xA1 SHL PUSH1 0x64 DUP3 ADD MSTORE PUSH1 0x84 ADD PUSH2 0xB2B JUMP JUMPDEST PUSH1 0x0 PUSH2 0x363D DUP4 PUSH2 0x1958 JUMP JUMPDEST SWAP1 POP DUP1 PUSH1 0x1 PUSH1 0x1 PUSH1 0xA0 SHL SUB AND DUP5 PUSH1 0x1 PUSH1 0x1 PUSH1 0xA0 SHL SUB AND EQ DUP1 PUSH2 0x3678 JUMPI POP DUP4 PUSH1 0x1 PUSH1 0x1 PUSH1 0xA0 SHL SUB AND PUSH2 0x366D DUP5 PUSH2 0xAC3 JUMP JUMPDEST PUSH1 0x1 PUSH1 0x1 PUSH1 0xA0 SHL SUB AND EQ JUMPDEST DUP1 PUSH2 0x36A8 JUMPI POP PUSH1 0x1 PUSH1 0x1 PUSH1 0xA0 SHL SUB DUP1 DUP3 AND PUSH1 0x0 SWAP1 DUP2 MSTORE PUSH1 0x8 PUSH1 0x20 SWAP1 DUP2 MSTORE PUSH1 0x40 DUP1 DUP4 KECCAK256 SWAP4 DUP9 AND DUP4 MSTORE SWAP3 SWAP1 MSTORE KECCAK256 SLOAD PUSH1 0xFF AND JUMPDEST SWAP5 SWAP4 POP POP POP POP JUMP JUMPDEST DUP2 SLOAD PUSH1 0x0 SWAP1 DUP3 LT PUSH2 0x370E JUMPI PUSH1 0x40 MLOAD PUSH3 0x461BCD PUSH1 0xE5 SHL DUP2 MSTORE PUSH1 0x20 PUSH1 0x4 DUP3 ADD MSTORE PUSH1 0x22 PUSH1 0x24 DUP3 ADD MSTORE PUSH32 0x456E756D657261626C655365743A20696E646578206F7574206F6620626F756E PUSH1 0x44 DUP3 ADD MSTORE PUSH2 0x6473 PUSH1 0xF0 SHL PUSH1 0x64 DUP3 ADD MSTORE PUSH1 0x84 ADD PUSH2 0xB2B JUMP JUMPDEST DUP3 PUSH1 0x0 ADD DUP3 DUP2 SLOAD DUP2 LT PUSH2 0x3723 JUMPI PUSH2 0x3723 PUSH2 0x4F0F JUMP JUMPDEST SWAP1 PUSH1 0x0 MSTORE PUSH1 0x20 PUSH1 0x0 KECCAK256 ADD SLOAD SWAP1 POP SWAP3 SWAP2 POP POP JUMP JUMPDEST PUSH2 0x3741 DUP5 DUP5 DUP5 PUSH2 0x3BC3 JUMP JUMPDEST PUSH2 0x374D DUP5 DUP5 DUP5 DUP5 PUSH2 0x3D44 JUMP JUMPDEST PUSH2 0x12E4 JUMPI PUSH1 0x40 MLOAD PUSH3 0x461BCD PUSH1 0xE5 SHL DUP2 MSTORE PUSH1 0x4 ADD PUSH2 0xB2B SWAP1 PUSH2 0x52CF JUMP JUMPDEST DUP2 SLOAD PUSH1 0x0 SWAP1 DUP2 SWAP1 DUP4 LT PUSH2 0x37C9 JUMPI PUSH1 0x40 MLOAD PUSH3 0x461BCD PUSH1 0xE5 SHL DUP2 MSTORE PUSH1 0x20 PUSH1 0x4 DUP3 ADD MSTORE PUSH1 0x22 PUSH1 0x24 DUP3 ADD MSTORE PUSH32 0x456E756D657261626C654D61703A20696E646578206F7574206F6620626F756E PUSH1 0x44 DUP3 ADD MSTORE PUSH2 0x6473 PUSH1 0xF0 SHL PUSH1 0x64 DUP3 ADD MSTORE PUSH1 0x84 ADD PUSH2 0xB2B JUMP JUMPDEST PUSH1 0x0 DUP5 PUSH1 0x0 ADD DUP5 DUP2 SLOAD DUP2 LT PUSH2 0x37E0 JUMPI PUSH2 0x37E0 PUSH2 0x4F0F JUMP JUMPDEST SWAP1 PUSH1 0x0 MSTORE PUSH1 0x20 PUSH1 0x0 KECCAK256 SWAP1 PUSH1 0x2 MUL ADD SWAP1 POP DUP1 PUSH1 0x0 ADD SLOAD DUP2 PUSH1 0x1 ADD SLOAD SWAP3 POP SWAP3 POP POP SWAP3 POP SWAP3 SWAP1 POP JUMP JUMPDEST PUSH1 0x0 DUP3 DUP2 MSTORE PUSH1 0x1 DUP5 ADD PUSH1 0x20 MSTORE PUSH1 0x40 DUP2 KECCAK256 SLOAD DUP3 DUP2 PUSH2 0x3836 JUMPI PUSH1 0x40 MLOAD PUSH3 0x461BCD PUSH1 0xE5 SHL DUP2 MSTORE PUSH1 0x4 ADD PUSH2 0xB2B SWAP2 SWAP1 PUSH2 0x431D JUMP JUMPDEST POP DUP5 PUSH2 0x3843 PUSH1 0x1 DUP4 PUSH2 0x52A2 JUMP JUMPDEST DUP2 SLOAD DUP2 LT PUSH2 0x3853 JUMPI PUSH2 0x3853 PUSH2 0x4F0F JUMP JUMPDEST SWAP1 PUSH1 0x0 MSTORE PUSH1 0x20 PUSH1 0x0 KECCAK256 SWAP1 PUSH1 0x2 MUL ADD PUSH1 0x1 ADD SLOAD SWAP2 POP POP SWAP4 SWAP3 POP POP POP JUMP JUMPDEST PUSH1 0x0 DUP1 PUSH1 0x0 DUP5 MLOAD PUSH1 0x20 DUP7 ADD DUP8 DUP10 DUP8 CALL SWAP6 SWAP5 POP POP POP POP POP JUMP JUMPDEST PUSH1 0x0 DUP2 MLOAD PUSH1 0x20 DUP4 ADD DUP5 CREATE SWAP1 POP PUSH1 0x1 PUSH1 0x1 PUSH1 0xA0 SHL SUB DUP2 AND PUSH2 0x38E9 JUMPI PUSH1 0x40 MLOAD PUSH3 0x461BCD PUSH1 0xE5 SHL DUP2 MSTORE PUSH1 0x20 PUSH1 0x4 DUP3 ADD MSTORE PUSH1 0x19 PUSH1 0x24 DUP3 ADD MSTORE PUSH32 0x436F756C64206E6F74206465706C6F7920636F6E747261637400000000000000 PUSH1 0x44 DUP3 ADD MSTORE PUSH1 0x64 ADD PUSH2 0xB2B JUMP JUMPDEST PUSH1 0x40 MLOAD PUSH1 0x1 PUSH1 0x1 PUSH1 0xA0 SHL SUB DUP3 AND SWAP1 PUSH32 0xCF78CF0D6F3D8371E1075C69C492AB4EC5D8CF23A1A239B6A51A1D00BE7CA312 SWAP1 PUSH1 0x0 SWAP1 LOG2 SWAP3 SWAP2 POP POP JUMP JUMPDEST PUSH1 0x0 PUSH2 0x3930 DUP3 PUSH1 0x20 PUSH2 0x5321 JUMP JUMPDEST DUP4 MLOAD LT ISZERO PUSH2 0x3978 JUMPI PUSH1 0x40 MLOAD PUSH3 0x461BCD PUSH1 0xE5 SHL DUP2 MSTORE PUSH1 0x20 PUSH1 0x4 DUP3 ADD MSTORE PUSH1 0x15 PUSH1 0x24 DUP3 ADD MSTORE PUSH21 0x746F427974657333325F6F75744F66426F756E6473 PUSH1 0x58 SHL PUSH1 0x44 DUP3 ADD MSTORE PUSH1 0x64 ADD PUSH2 0xB2B JUMP JUMPDEST POP ADD PUSH1 0x20 ADD MLOAD SWAP1 JUMP JUMPDEST PUSH1 0x60 DUP2 PUSH2 0x398F DUP2 PUSH1 0x1F PUSH2 0x5321 JUMP JUMPDEST LT ISZERO PUSH2 0x39CE JUMPI PUSH1 0x40 MLOAD PUSH3 0x461BCD PUSH1 0xE5 SHL DUP2 MSTORE PUSH1 0x20 PUSH1 0x4 DUP3 ADD MSTORE PUSH1 0xE PUSH1 0x24 DUP3 ADD MSTORE PUSH14 0x736C6963655F6F766572666C6F77 PUSH1 0x90 SHL PUSH1 0x44 DUP3 ADD MSTORE PUSH1 0x64 ADD PUSH2 0xB2B JUMP JUMPDEST PUSH2 0x39D8 DUP3 DUP5 PUSH2 0x5321 JUMP JUMPDEST DUP5 MLOAD LT ISZERO PUSH2 0x3A1C JUMPI PUSH1 0x40 MLOAD PUSH3 0x461BCD PUSH1 0xE5 SHL DUP2 MSTORE PUSH1 0x20 PUSH1 0x4 DUP3 ADD MSTORE PUSH1 0x11 PUSH1 0x24 DUP3 ADD MSTORE PUSH17 0x736C6963655F6F75744F66426F756E6473 PUSH1 0x78 SHL PUSH1 0x44 DUP3 ADD MSTORE PUSH1 0x64 ADD PUSH2 0xB2B JUMP JUMPDEST PUSH1 0x60 DUP3 ISZERO DUP1 ISZERO PUSH2 0x3A3B JUMPI PUSH1 0x40 MLOAD SWAP2 POP PUSH1 0x0 DUP3 MSTORE PUSH1 0x20 DUP3 ADD PUSH1 0x40 MSTORE PUSH2 0x3A85 JUMP JUMPDEST PUSH1 0x40 MLOAD SWAP2 POP PUSH1 0x1F DUP5 AND DUP1 ISZERO PUSH1 0x20 MUL DUP2 DUP5 ADD ADD DUP6 DUP2 ADD DUP8 DUP4 ISZERO PUSH1 0x20 MUL DUP5 DUP12 ADD ADD ADD JUMPDEST DUP2 DUP4 LT ISZERO PUSH2 0x3A74 JUMPI DUP1 MLOAD DUP4 MSTORE PUSH1 0x20 SWAP3 DUP4 ADD SWAP3 ADD PUSH2 0x3A5C JUMP JUMPDEST POP POP DUP6 DUP5 MSTORE PUSH1 0x1F ADD PUSH1 0x1F NOT AND PUSH1 0x40 MSTORE POP JUMPDEST POP SWAP5 SWAP4 POP POP POP POP JUMP JUMPDEST PUSH1 0x0 DUP1 DUP5 SELFBALANCE LT ISZERO PUSH2 0x3AE1 JUMPI PUSH1 0x40 MLOAD PUSH3 0x461BCD PUSH1 0xE5 SHL DUP2 MSTORE PUSH1 0x20 PUSH1 0x4 DUP3 ADD MSTORE PUSH1 0x1D PUSH1 0x24 DUP3 ADD MSTORE PUSH32 0x437265617465323A20696E73756666696369656E742062616C616E6365000000 PUSH1 0x44 DUP3 ADD MSTORE PUSH1 0x64 ADD PUSH2 0xB2B JUMP JUMPDEST DUP3 MLOAD PUSH2 0x3B2F JUMPI PUSH1 0x40 MLOAD PUSH3 0x461BCD PUSH1 0xE5 SHL DUP2 MSTORE PUSH1 0x20 PUSH1 0x4 DUP3 ADD DUP2 SWAP1 MSTORE PUSH1 0x24 DUP3 ADD MSTORE PUSH32 0x437265617465323A2062797465636F6465206C656E677468206973207A65726F PUSH1 0x44 DUP3 ADD MSTORE PUSH1 0x64 ADD PUSH2 0xB2B JUMP JUMPDEST DUP4 DUP4 MLOAD PUSH1 0x20 DUP6 ADD DUP8 CREATE2 SWAP1 POP PUSH1 0x1 PUSH1 0x1 PUSH1 0xA0 SHL SUB DUP2 AND PUSH2 0x32F2 JUMPI PUSH1 0x40 MLOAD PUSH3 0x461BCD PUSH1 0xE5 SHL DUP2 MSTORE PUSH1 0x20 PUSH1 0x4 DUP3 ADD MSTORE PUSH1 0x19 PUSH1 0x24 DUP3 ADD MSTORE PUSH32 0x437265617465323A204661696C6564206F6E206465706C6F7900000000000000 PUSH1 0x44 DUP3 ADD MSTORE PUSH1 0x64 ADD PUSH2 0xB2B JUMP JUMPDEST PUSH2 0x3B9A DUP4 DUP4 PUSH2 0x3E42 JUMP JUMPDEST PUSH2 0x3BA7 PUSH1 0x0 DUP5 DUP5 DUP5 PUSH2 0x3D44 JUMP JUMPDEST PUSH2 0xC61 JUMPI PUSH1 0x40 MLOAD PUSH3 0x461BCD PUSH1 0xE5 SHL DUP2 MSTORE PUSH1 0x4 ADD PUSH2 0xB2B SWAP1 PUSH2 0x52CF JUMP JUMPDEST DUP3 PUSH1 0x1 PUSH1 0x1 PUSH1 0xA0 SHL SUB AND PUSH2 0x3BD6 DUP3 PUSH2 0x1958 JUMP JUMPDEST PUSH1 0x1 PUSH1 0x1 PUSH1 0xA0 SHL SUB AND EQ PUSH2 0x3C3E JUMPI PUSH1 0x40 MLOAD PUSH3 0x461BCD PUSH1 0xE5 SHL DUP2 MSTORE PUSH1 0x20 PUSH1 0x4 DUP3 ADD MSTORE PUSH1 0x29 PUSH1 0x24 DUP3 ADD MSTORE PUSH32 0x4552433732313A207472616E73666572206F6620746F6B656E20746861742069 PUSH1 0x44 DUP3 ADD MSTORE PUSH9 0x39903737BA1037BBB7 PUSH1 0xB9 SHL PUSH1 0x64 DUP3 ADD MSTORE PUSH1 0x84 ADD PUSH2 0xB2B JUMP JUMPDEST PUSH1 0x1 PUSH1 0x1 PUSH1 0xA0 SHL SUB DUP3 AND PUSH2 0x3CA0 JUMPI PUSH1 0x40 MLOAD PUSH3 0x461BCD PUSH1 0xE5 SHL DUP2 MSTORE PUSH1 0x20 PUSH1 0x4 DUP3 ADD MSTORE PUSH1 0x24 DUP1 DUP3 ADD MSTORE PUSH32 0x4552433732313A207472616E7366657220746F20746865207A65726F20616464 PUSH1 0x44 DUP3 ADD MSTORE PUSH4 0x72657373 PUSH1 0xE0 SHL PUSH1 0x64 DUP3 ADD MSTORE PUSH1 0x84 ADD PUSH2 0xB2B JUMP JUMPDEST PUSH2 0x3CAB PUSH1 0x0 DUP3 PUSH2 0x260A JUMP JUMPDEST PUSH1 0x1 PUSH1 0x1 PUSH1 0xA0 SHL SUB DUP4 AND PUSH1 0x0 SWAP1 DUP2 MSTORE PUSH1 0x4 PUSH1 0x20 MSTORE PUSH1 0x40 SWAP1 KECCAK256 PUSH2 0x3CCD SWAP1 DUP3 PUSH2 0x3F5A JUMP JUMPDEST POP PUSH1 0x1 PUSH1 0x1 PUSH1 0xA0 SHL SUB DUP3 AND PUSH1 0x0 SWAP1 DUP2 MSTORE PUSH1 0x4 PUSH1 0x20 MSTORE PUSH1 0x40 SWAP1 KECCAK256 PUSH2 0x3CF0 SWAP1 DUP3 PUSH2 0x3F66 JUMP JUMPDEST POP PUSH2 0x3CFD PUSH1 0x5 DUP3 DUP5 PUSH2 0x3F72 JUMP JUMPDEST POP DUP1 DUP3 PUSH1 0x1 PUSH1 0x1 PUSH1 0xA0 SHL SUB AND DUP5 PUSH1 0x1 PUSH1 0x1 PUSH1 0xA0 SHL SUB AND PUSH32 0xDDF252AD1BE2C89B69C2B068FC378DAA952BA7F163C4A11628F55A4DF523B3EF PUSH1 0x40 MLOAD PUSH1 0x40 MLOAD DUP1 SWAP2 SUB SWAP1 LOG4 POP POP POP JUMP JUMPDEST PUSH1 0x0 PUSH1 0x1 PUSH1 0x1 PUSH1 0xA0 SHL SUB DUP5 AND EXTCODESIZE ISZERO PUSH2 0x3E37 JUMPI PUSH1 0x40 MLOAD PUSH4 0xA85BD01 PUSH1 0xE1 SHL DUP2 MSTORE PUSH1 0x1 PUSH1 0x1 PUSH1 0xA0 SHL SUB DUP6 AND SWAP1 PUSH4 0x150B7A02 SWAP1 PUSH2 0x3D88 SWAP1 CALLER SWAP1 DUP10 SWAP1 DUP9 SWAP1 DUP9 SWAP1 PUSH1 0x4 ADD PUSH2 0x5339 JUMP JUMPDEST PUSH1 0x20 PUSH1 0x40 MLOAD DUP1 DUP4 SUB DUP2 PUSH1 0x0 DUP8 GAS CALL SWAP3 POP POP POP DUP1 ISZERO PUSH2 0x3DC3 JUMPI POP PUSH1 0x40 DUP1 MLOAD PUSH1 0x1F RETURNDATASIZE SWAP1 DUP2 ADD PUSH1 0x1F NOT AND DUP3 ADD SWAP1 SWAP3 MSTORE PUSH2 0x3DC0 SWAP2 DUP2 ADD SWAP1 PUSH2 0x5376 JUMP JUMPDEST PUSH1 0x1 JUMPDEST PUSH2 0x3E1D JUMPI RETURNDATASIZE DUP1 DUP1 ISZERO PUSH2 0x3DF1 JUMPI PUSH1 0x40 MLOAD SWAP2 POP PUSH1 0x1F NOT PUSH1 0x3F RETURNDATASIZE ADD AND DUP3 ADD PUSH1 0x40 MSTORE RETURNDATASIZE DUP3 MSTORE RETURNDATASIZE PUSH1 0x0 PUSH1 0x20 DUP5 ADD RETURNDATACOPY PUSH2 0x3DF6 JUMP JUMPDEST PUSH1 0x60 SWAP2 POP JUMPDEST POP DUP1 MLOAD PUSH2 0x3E15 JUMPI PUSH1 0x40 MLOAD PUSH3 0x461BCD PUSH1 0xE5 SHL DUP2 MSTORE PUSH1 0x4 ADD PUSH2 0xB2B SWAP1 PUSH2 0x52CF JUMP JUMPDEST DUP1 MLOAD DUP2 PUSH1 0x20 ADD REVERT JUMPDEST PUSH1 0x1 PUSH1 0x1 PUSH1 0xE0 SHL SUB NOT AND PUSH4 0xA85BD01 PUSH1 0xE1 SHL EQ SWAP1 POP PUSH2 0x36A8 JUMP JUMPDEST POP PUSH1 0x1 SWAP5 SWAP4 POP POP POP POP JUMP JUMPDEST PUSH1 0x1 PUSH1 0x1 PUSH1 0xA0 SHL SUB DUP3 AND PUSH2 0x3E98 JUMPI PUSH1 0x40 MLOAD PUSH3 0x461BCD PUSH1 0xE5 SHL DUP2 MSTORE PUSH1 0x20 PUSH1 0x4 DUP3 ADD DUP2 SWAP1 MSTORE PUSH1 0x24 DUP3 ADD MSTORE PUSH32 0x4552433732313A206D696E7420746F20746865207A65726F2061646472657373 PUSH1 0x44 DUP3 ADD MSTORE PUSH1 0x64 ADD PUSH2 0xB2B JUMP JUMPDEST PUSH2 0x3EA1 DUP2 PUSH2 0x25FD JUMP JUMPDEST ISZERO PUSH2 0x3EEE JUMPI PUSH1 0x40 MLOAD PUSH3 0x461BCD PUSH1 0xE5 SHL DUP2 MSTORE PUSH1 0x20 PUSH1 0x4 DUP3 ADD MSTORE PUSH1 0x1C PUSH1 0x24 DUP3 ADD MSTORE PUSH32 0x4552433732313A20746F6B656E20616C7265616479206D696E74656400000000 PUSH1 0x44 DUP3 ADD MSTORE PUSH1 0x64 ADD PUSH2 0xB2B JUMP JUMPDEST PUSH1 0x1 PUSH1 0x1 PUSH1 0xA0 SHL SUB DUP3 AND PUSH1 0x0 SWAP1 DUP2 MSTORE PUSH1 0x4 PUSH1 0x20 MSTORE PUSH1 0x40 SWAP1 KECCAK256 PUSH2 0x3F10 SWAP1 DUP3 PUSH2 0x3F66 JUMP JUMPDEST POP PUSH2 0x3F1D PUSH1 0x5 DUP3 DUP5 PUSH2 0x3F72 JUMP JUMPDEST POP PUSH1 0x40 MLOAD DUP2 SWAP1 PUSH1 0x1 PUSH1 0x1 PUSH1 0xA0 SHL SUB DUP5 AND SWAP1 PUSH1 0x0 SWAP1 PUSH32 0xDDF252AD1BE2C89B69C2B068FC378DAA952BA7F163C4A11628F55A4DF523B3EF SWAP1 DUP3 SWAP1 LOG4 POP POP JUMP JUMPDEST PUSH1 0x0 PUSH2 0x149A DUP4 DUP4 PUSH2 0x3F88 JUMP JUMPDEST PUSH1 0x0 PUSH2 0x149A DUP4 DUP4 PUSH2 0x407B JUMP JUMPDEST PUSH1 0x0 PUSH2 0x32F2 DUP5 DUP5 PUSH1 0x1 PUSH1 0x1 PUSH1 0xA0 SHL SUB DUP6 AND PUSH2 0x40CA JUMP JUMPDEST PUSH1 0x0 DUP2 DUP2 MSTORE PUSH1 0x1 DUP4 ADD PUSH1 0x20 MSTORE PUSH1 0x40 DUP2 KECCAK256 SLOAD DUP1 ISZERO PUSH2 0x4071 JUMPI PUSH1 0x0 PUSH2 0x3FAC PUSH1 0x1 DUP4 PUSH2 0x52A2 JUMP JUMPDEST DUP6 SLOAD SWAP1 SWAP2 POP PUSH1 0x0 SWAP1 PUSH2 0x3FC0 SWAP1 PUSH1 0x1 SWAP1 PUSH2 0x52A2 JUMP JUMPDEST SWAP1 POP PUSH1 0x0 DUP7 PUSH1 0x0 ADD DUP3 DUP2 SLOAD DUP2 LT PUSH2 0x3FD9 JUMPI PUSH2 0x3FD9 PUSH2 0x4F0F JUMP JUMPDEST SWAP1 PUSH1 0x0 MSTORE PUSH1 0x20 PUSH1 0x0 KECCAK256 ADD SLOAD SWAP1 POP DUP1 DUP8 PUSH1 0x0 ADD DUP5 DUP2 SLOAD DUP2 LT PUSH2 0x3FFC JUMPI PUSH2 0x3FFC PUSH2 0x4F0F JUMP JUMPDEST PUSH1 0x0 SWAP2 DUP3 MSTORE PUSH1 0x20 SWAP1 SWAP2 KECCAK256 ADD SSTORE PUSH2 0x4013 DUP4 PUSH1 0x1 PUSH2 0x5321 JUMP JUMPDEST PUSH1 0x0 DUP3 DUP2 MSTORE PUSH1 0x1 DUP10 ADD PUSH1 0x20 MSTORE PUSH1 0x40 SWAP1 KECCAK256 SSTORE DUP7 SLOAD DUP8 SWAP1 DUP1 PUSH2 0x4035 JUMPI PUSH2 0x4035 PUSH2 0x52B9 JUMP JUMPDEST PUSH1 0x1 SWAP1 SUB DUP2 DUP2 SWAP1 PUSH1 0x0 MSTORE PUSH1 0x20 PUSH1 0x0 KECCAK256 ADD PUSH1 0x0 SWAP1 SSTORE SWAP1 SSTORE DUP7 PUSH1 0x1 ADD PUSH1 0x0 DUP8 DUP2 MSTORE PUSH1 0x20 ADD SWAP1 DUP2 MSTORE PUSH1 0x20 ADD PUSH1 0x0 KECCAK256 PUSH1 0x0 SWAP1 SSTORE PUSH1 0x1 SWAP5 POP POP POP POP POP PUSH2 0x149D JUMP JUMPDEST PUSH1 0x0 SWAP2 POP POP PUSH2 0x149D JUMP JUMPDEST PUSH1 0x0 DUP2 DUP2 MSTORE PUSH1 0x1 DUP4 ADD PUSH1 0x20 MSTORE PUSH1 0x40 DUP2 KECCAK256 SLOAD PUSH2 0x40C2 JUMPI POP DUP2 SLOAD PUSH1 0x1 DUP2 DUP2 ADD DUP5 SSTORE PUSH1 0x0 DUP5 DUP2 MSTORE PUSH1 0x20 DUP1 DUP3 KECCAK256 SWAP1 SWAP4 ADD DUP5 SWAP1 SSTORE DUP5 SLOAD DUP5 DUP3 MSTORE DUP3 DUP7 ADD SWAP1 SWAP4 MSTORE PUSH1 0x40 SWAP1 KECCAK256 SWAP2 SWAP1 SWAP2 SSTORE PUSH2 0x149D JUMP JUMPDEST POP PUSH1 0x0 PUSH2 0x149D JUMP JUMPDEST PUSH1 0x0 DUP3 DUP2 MSTORE PUSH1 0x1 DUP5 ADD PUSH1 0x20 MSTORE PUSH1 0x40 DUP2 KECCAK256 SLOAD DUP1 PUSH2 0x412F JUMPI POP POP PUSH1 0x40 DUP1 MLOAD DUP1 DUP3 ADD DUP3 MSTORE DUP4 DUP2 MSTORE PUSH1 0x20 DUP1 DUP3 ADD DUP5 DUP2 MSTORE DUP7 SLOAD PUSH1 0x1 DUP2 DUP2 ADD DUP10 SSTORE PUSH1 0x0 DUP10 DUP2 MSTORE DUP5 DUP2 KECCAK256 SWAP6 MLOAD PUSH1 0x2 SWAP1 SWAP4 MUL SWAP1 SWAP6 ADD SWAP2 DUP3 SSTORE SWAP2 MLOAD SWAP1 DUP3 ADD SSTORE DUP7 SLOAD DUP7 DUP5 MSTORE DUP2 DUP9 ADD SWAP1 SWAP3 MSTORE SWAP3 SWAP1 SWAP2 KECCAK256 SSTORE PUSH2 0x32F5 JUMP JUMPDEST DUP3 DUP6 PUSH2 0x413C PUSH1 0x1 DUP5 PUSH2 0x52A2 JUMP JUMPDEST DUP2 SLOAD DUP2 LT PUSH2 0x414C JUMPI PUSH2 0x414C PUSH2 0x4F0F JUMP JUMPDEST SWAP1 PUSH1 0x0 MSTORE PUSH1 0x20 PUSH1 0x0 KECCAK256 SWAP1 PUSH1 0x2 MUL ADD PUSH1 0x1 ADD DUP2 SWAP1 SSTORE POP PUSH1 0x0 SWAP2 POP POP PUSH2 0x32F5 JUMP JUMPDEST DUP3 DUP1 SLOAD PUSH2 0x4177 SWAP1 PUSH2 0x4CBC JUMP JUMPDEST SWAP1 PUSH1 0x0 MSTORE PUSH1 0x20 PUSH1 0x0 KECCAK256 SWAP1 PUSH1 0x1F ADD PUSH1 0x20 SWAP1 DIV DUP2 ADD SWAP3 DUP3 PUSH2 0x4199 JUMPI PUSH1 0x0 DUP6 SSTORE PUSH2 0x41DF JUMP JUMPDEST DUP3 PUSH1 0x1F LT PUSH2 0x41B2 JUMPI DUP1 MLOAD PUSH1 0xFF NOT AND DUP4 DUP1 ADD OR DUP6 SSTORE PUSH2 0x41DF JUMP JUMPDEST DUP3 DUP1 ADD PUSH1 0x1 ADD DUP6 SSTORE DUP3 ISZERO PUSH2 0x41DF JUMPI SWAP2 DUP3 ADD JUMPDEST DUP3 DUP2 GT ISZERO PUSH2 0x41DF JUMPI DUP3 MLOAD DUP3 SSTORE SWAP2 PUSH1 0x20 ADD SWAP2 SWAP1 PUSH1 0x1 ADD SWAP1 PUSH2 0x41C4 JUMP JUMPDEST POP PUSH2 0x41EB SWAP3 SWAP2 POP PUSH2 0x427D JUMP JUMPDEST POP SWAP1 JUMP JUMPDEST DUP3 DUP1 SLOAD PUSH2 0x41FB SWAP1 PUSH2 0x4CBC JUMP JUMPDEST SWAP1 PUSH1 0x0 MSTORE PUSH1 0x20 PUSH1 0x0 KECCAK256 SWAP1 PUSH1 0x1F ADD PUSH1 0x20 SWAP1 DIV DUP2 ADD SWAP3 DUP3 PUSH2 0x421D JUMPI PUSH1 0x0 DUP6 SSTORE PUSH2 0x41DF JUMP JUMPDEST DUP3 PUSH1 0x1F LT PUSH2 0x4236 JUMPI DUP3 DUP1 ADD PUSH1 0xFF NOT DUP3 CALLDATALOAD AND OR DUP6 SSTORE PUSH2 0x41DF JUMP JUMPDEST DUP3 DUP1 ADD PUSH1 0x1 ADD DUP6 SSTORE DUP3 ISZERO PUSH2 0x41DF JUMPI SWAP2 DUP3 ADD JUMPDEST DUP3 DUP2 GT ISZERO PUSH2 0x41DF JUMPI DUP3 CALLDATALOAD DUP3 SSTORE SWAP2 PUSH1 0x20 ADD SWAP2 SWAP1 PUSH1 0x1 ADD SWAP1 PUSH2 0x4248 JUMP JUMPDEST POP DUP1 SLOAD PUSH1 0x0 DUP3 SSTORE SWAP1 PUSH1 0x0 MSTORE PUSH1 0x20 PUSH1 0x0 KECCAK256 SWAP1 DUP2 ADD SWAP1 PUSH2 0xDA6 SWAP2 SWAP1 JUMPDEST JUMPDEST DUP1 DUP3 GT ISZERO PUSH2 0x41EB JUMPI PUSH1 0x0 DUP2 SSTORE PUSH1 0x1 ADD PUSH2 0x427E JUMP JUMPDEST PUSH1 0x1 PUSH1 0x1 PUSH1 0xE0 SHL SUB NOT DUP2 AND DUP2 EQ PUSH2 0xDA6 JUMPI PUSH1 0x0 DUP1 REVERT JUMPDEST PUSH1 0x0 PUSH1 0x20 DUP3 DUP5 SUB SLT ISZERO PUSH2 0x42BA JUMPI PUSH1 0x0 DUP1 REVERT JUMPDEST DUP2 CALLDATALOAD PUSH2 0x32F5 DUP2 PUSH2 0x4292 JUMP JUMPDEST PUSH1 0x0 JUMPDEST DUP4 DUP2 LT ISZERO PUSH2 0x42E0 JUMPI DUP2 DUP2 ADD MLOAD DUP4 DUP3 ADD MSTORE PUSH1 0x20 ADD PUSH2 0x42C8 JUMP JUMPDEST DUP4 DUP2 GT ISZERO PUSH2 0x12E4 JUMPI POP POP PUSH1 0x0 SWAP2 ADD MSTORE JUMP JUMPDEST PUSH1 0x0 DUP2 MLOAD DUP1 DUP5 MSTORE PUSH2 0x4309 DUP2 PUSH1 0x20 DUP7 ADD PUSH1 0x20 DUP7 ADD PUSH2 0x42C5 JUMP JUMPDEST PUSH1 0x1F ADD PUSH1 0x1F NOT AND SWAP3 SWAP1 SWAP3 ADD PUSH1 0x20 ADD SWAP3 SWAP2 POP POP JUMP JUMPDEST PUSH1 0x20 DUP2 MSTORE PUSH1 0x0 PUSH2 0x149A PUSH1 0x20 DUP4 ADD DUP5 PUSH2 0x42F1 JUMP JUMPDEST PUSH1 0x0 PUSH1 0x20 DUP3 DUP5 SUB SLT ISZERO PUSH2 0x4342 JUMPI PUSH1 0x0 DUP1 REVERT JUMPDEST POP CALLDATALOAD SWAP2 SWAP1 POP JUMP JUMPDEST PUSH1 0x1 PUSH1 0x1 PUSH1 0xA0 SHL SUB DUP2 AND DUP2 EQ PUSH2 0xDA6 JUMPI PUSH1 0x0 DUP1 REVERT JUMPDEST DUP1 CALLDATALOAD PUSH2 0x4369 DUP2 PUSH2 0x4349 JUMP JUMPDEST SWAP2 SWAP1 POP JUMP JUMPDEST PUSH1 0x0 DUP1 PUSH1 0x40 DUP4 DUP6 SUB SLT ISZERO PUSH2 0x4381 JUMPI PUSH1 0x0 DUP1 REVERT JUMPDEST DUP3 CALLDATALOAD PUSH2 0x438C DUP2 PUSH2 0x4349 JUMP JUMPDEST SWAP5 PUSH1 0x20 SWAP4 SWAP1 SWAP4 ADD CALLDATALOAD SWAP4 POP POP POP JUMP JUMPDEST PUSH1 0x0 DUP1 DUP4 PUSH1 0x1F DUP5 ADD SLT PUSH2 0x43AC JUMPI PUSH1 0x0 DUP1 REVERT JUMPDEST POP DUP2 CALLDATALOAD PUSH1 0x1 PUSH1 0x1 PUSH1 0x40 SHL SUB DUP2 GT ISZERO PUSH2 0x43C3 JUMPI PUSH1 0x0 DUP1 REVERT JUMPDEST PUSH1 0x20 DUP4 ADD SWAP2 POP DUP4 PUSH1 0x20 DUP3 DUP6 ADD ADD GT ISZERO PUSH2 0x32DE JUMPI PUSH1 0x0 DUP1 REVERT JUMPDEST PUSH1 0x0 DUP1 PUSH1 0x0 PUSH1 0x40 DUP5 DUP7 SUB SLT ISZERO PUSH2 0x43F0 JUMPI PUSH1 0x0 DUP1 REVERT JUMPDEST DUP4 CALLDATALOAD SWAP3 POP PUSH1 0x20 DUP5 ADD CALLDATALOAD PUSH1 0x1 PUSH1 0x1 PUSH1 0x40 SHL SUB DUP2 GT ISZERO PUSH2 0x440D JUMPI PUSH1 0x0 DUP1 REVERT JUMPDEST PUSH2 0x4419 DUP7 DUP3 DUP8 ADD PUSH2 0x439A JUMP JUMPDEST SWAP5 SWAP8 SWAP1 SWAP7 POP SWAP4 SWAP5 POP POP POP POP JUMP JUMPDEST PUSH1 0x0 PUSH1 0x20 DUP3 DUP5 SUB SLT ISZERO PUSH2 0x4438 JUMPI PUSH1 0x0 DUP1 REVERT JUMPDEST DUP2 CALLDATALOAD PUSH2 0x32F5 DUP2 PUSH2 0x4349 JUMP JUMPDEST PUSH4 0x4E487B71 PUSH1 0xE0 SHL PUSH1 0x0 MSTORE PUSH1 0x41 PUSH1 0x4 MSTORE PUSH1 0x24 PUSH1 0x0 REVERT JUMPDEST PUSH1 0x40 MLOAD PUSH1 0x1F DUP3 ADD PUSH1 0x1F NOT AND DUP2 ADD PUSH1 0x1 PUSH1 0x1 PUSH1 0x40 SHL SUB DUP2 GT DUP3 DUP3 LT OR ISZERO PUSH2 0x4481 JUMPI PUSH2 0x4481 PUSH2 0x4443 JUMP JUMPDEST PUSH1 0x40 MSTORE SWAP2 SWAP1 POP JUMP JUMPDEST PUSH1 0x0 DUP3 PUSH1 0x1F DUP4 ADD SLT PUSH2 0x449A JUMPI PUSH1 0x0 DUP1 REVERT JUMPDEST DUP2 CALLDATALOAD PUSH1 0x1 PUSH1 0x1 PUSH1 0x40 SHL SUB DUP2 GT ISZERO PUSH2 0x44B3 JUMPI PUSH2 0x44B3 PUSH2 0x4443 JUMP JUMPDEST PUSH2 0x44C6 PUSH1 0x1F DUP3 ADD PUSH1 0x1F NOT AND PUSH1 0x20 ADD PUSH2 0x4459 JUMP JUMPDEST DUP2 DUP2 MSTORE DUP5 PUSH1 0x20 DUP4 DUP7 ADD ADD GT ISZERO PUSH2 0x44DB JUMPI PUSH1 0x0 DUP1 REVERT JUMPDEST DUP2 PUSH1 0x20 DUP6 ADD PUSH1 0x20 DUP4 ADD CALLDATACOPY PUSH1 0x0 SWAP2 DUP2 ADD PUSH1 0x20 ADD SWAP2 SWAP1 SWAP2 MSTORE SWAP4 SWAP3 POP POP POP JUMP JUMPDEST PUSH1 0x0 DUP1 PUSH1 0x40 DUP4 DUP6 SUB SLT ISZERO PUSH2 0x450B JUMPI PUSH1 0x0 DUP1 REVERT JUMPDEST DUP3 CALLDATALOAD SWAP2 POP PUSH1 0x20 DUP4 ADD CALLDATALOAD PUSH1 0x1 PUSH1 0x1 PUSH1 0x40 SHL SUB DUP2 GT ISZERO PUSH2 0x4528 JUMPI PUSH1 0x0 DUP1 REVERT JUMPDEST PUSH2 0x4534 DUP6 DUP3 DUP7 ADD PUSH2 0x4489 JUMP JUMPDEST SWAP2 POP POP SWAP3 POP SWAP3 SWAP1 POP JUMP JUMPDEST PUSH1 0x0 PUSH1 0x20 DUP3 DUP5 SUB SLT ISZERO PUSH2 0x4550 JUMPI PUSH1 0x0 DUP1 REVERT JUMPDEST DUP2 CALLDATALOAD PUSH1 0x1 PUSH1 0x1 PUSH1 0x40 SHL SUB DUP2 GT ISZERO PUSH2 0x4566 JUMPI PUSH1 0x0 DUP1 REVERT JUMPDEST DUP3 ADD PUSH2 0x120 DUP2 DUP6 SUB SLT ISZERO PUSH2 0x32F5 JUMPI PUSH1 0x0 DUP1 REVERT JUMPDEST DUP1 CALLDATALOAD DUP1 ISZERO ISZERO DUP2 EQ PUSH2 0x4369 JUMPI PUSH1 0x0 DUP1 REVERT JUMPDEST PUSH1 0x0 DUP1 PUSH1 0x0 DUP1 PUSH1 0x0 DUP1 PUSH1 0x0 DUP1 PUSH1 0x0 DUP1 PUSH2 0x100 DUP12 DUP14 SUB SLT ISZERO PUSH2 0x45A9 JUMPI PUSH1 0x0 DUP1 REVERT JUMPDEST PUSH2 0x45B2 DUP12 PUSH2 0x435E JUMP JUMPDEST SWAP10 POP PUSH1 0x20 DUP12 ADD CALLDATALOAD PUSH1 0x1 PUSH1 0x1 PUSH1 0x40 SHL SUB DUP1 DUP3 GT ISZERO PUSH2 0x45CE JUMPI PUSH1 0x0 DUP1 REVERT JUMPDEST PUSH2 0x45DA DUP15 DUP4 DUP16 ADD PUSH2 0x439A JUMP JUMPDEST SWAP1 SWAP12 POP SWAP10 POP PUSH1 0x40 DUP14 ADD CALLDATALOAD SWAP2 POP DUP1 DUP3 GT ISZERO PUSH2 0x45F3 JUMPI PUSH1 0x0 DUP1 REVERT JUMPDEST PUSH2 0x45FF DUP15 DUP4 DUP16 ADD PUSH2 0x439A JUMP JUMPDEST SWAP1 SWAP10 POP SWAP8 POP DUP8 SWAP2 POP PUSH2 0x4613 PUSH1 0x60 DUP15 ADD PUSH2 0x435E JUMP JUMPDEST SWAP7 POP PUSH2 0x4621 PUSH1 0x80 DUP15 ADD PUSH2 0x435E JUMP JUMPDEST SWAP6 POP PUSH2 0x462F PUSH1 0xA0 DUP15 ADD PUSH2 0x435E JUMP JUMPDEST SWAP5 POP PUSH1 0xC0 DUP14 ADD CALLDATALOAD SWAP2 POP DUP1 DUP3 GT ISZERO PUSH2 0x4645 JUMPI PUSH1 0x0 DUP1 REVERT JUMPDEST POP PUSH2 0x4652 DUP14 DUP3 DUP15 ADD PUSH2 0x4489 JUMP JUMPDEST SWAP3 POP POP PUSH2 0x4661 PUSH1 0xE0 DUP13 ADD PUSH2 0x4579 JUMP JUMPDEST SWAP1 POP SWAP3 SWAP6 SWAP9 SWAP12 SWAP2 SWAP5 SWAP8 SWAP11 POP SWAP3 SWAP6 SWAP9 POP JUMP JUMPDEST DUP1 CALLDATALOAD PUSH1 0xFF DUP2 AND DUP2 EQ PUSH2 0x4369 JUMPI PUSH1 0x0 DUP1 REVERT JUMPDEST PUSH1 0x0 PUSH1 0x1 PUSH1 0x1 PUSH1 0x40 SHL SUB DUP3 GT ISZERO PUSH2 0x469C JUMPI PUSH2 0x469C PUSH2 0x4443 JUMP JUMPDEST POP PUSH1 0x5 SHL PUSH1 0x20 ADD SWAP1 JUMP JUMPDEST PUSH1 0x0 PUSH1 0x80 DUP3 DUP5 SUB SLT ISZERO PUSH2 0x46B8 JUMPI PUSH1 0x0 DUP1 REVERT JUMPDEST PUSH1 0x40 MLOAD PUSH1 0x80 DUP2 ADD DUP2 DUP2 LT PUSH1 0x1 PUSH1 0x1 PUSH1 0x40 SHL SUB DUP3 GT OR ISZERO PUSH2 0x46DA JUMPI PUSH2 0x46DA PUSH2 0x4443 JUMP JUMPDEST PUSH1 0x40 MSTORE SWAP1 POP DUP1 DUP3 CALLDATALOAD PUSH2 0x46EB DUP2 PUSH2 0x4349 JUMP JUMPDEST DUP2 MSTORE PUSH2 0x46F9 PUSH1 0x20 DUP5 ADD PUSH2 0x4672 JUMP JUMPDEST PUSH1 0x20 DUP3 ADD MSTORE PUSH1 0x40 DUP4 ADD CALLDATALOAD PUSH1 0x40 DUP3 ADD MSTORE PUSH1 0x60 DUP4 ADD CALLDATALOAD PUSH1 0x60 DUP3 ADD MSTORE POP SWAP3 SWAP2 POP POP JUMP JUMPDEST PUSH1 0x0 DUP3 PUSH1 0x1F DUP4 ADD SLT PUSH2 0x472A JUMPI PUSH1 0x0 DUP1 REVERT JUMPDEST DUP2 CALLDATALOAD PUSH1 0x20 PUSH2 0x473F PUSH2 0x473A DUP4 PUSH2 0x4683 JUMP JUMPDEST PUSH2 0x4459 JUMP JUMPDEST DUP3 DUP2 MSTORE PUSH1 0x7 SWAP3 SWAP1 SWAP3 SHL DUP5 ADD DUP2 ADD SWAP2 DUP2 DUP2 ADD SWAP1 DUP7 DUP5 GT ISZERO PUSH2 0x475E JUMPI PUSH1 0x0 DUP1 REVERT JUMPDEST DUP3 DUP7 ADD JUMPDEST DUP5 DUP2 LT ISZERO PUSH2 0x4782 JUMPI PUSH2 0x4774 DUP9 DUP3 PUSH2 0x46A6 JUMP JUMPDEST DUP4 MSTORE SWAP2 DUP4 ADD SWAP2 PUSH1 0x80 ADD PUSH2 0x4762 JUMP JUMPDEST POP SWAP7 SWAP6 POP POP POP POP POP POP JUMP JUMPDEST PUSH1 0x0 DUP1 PUSH1 0x0 DUP1 PUSH1 0x0 DUP1 PUSH1 0x0 DUP1 PUSH1 0x0 DUP1 PUSH1 0x0 PUSH1 0xE0 DUP13 DUP15 SUB SLT ISZERO PUSH2 0x47AE JUMPI PUSH1 0x0 DUP1 REVERT JUMPDEST PUSH2 0x47B7 DUP13 PUSH2 0x4672 JUMP JUMPDEST SWAP11 POP PUSH1 0x1 PUSH1 0x1 PUSH1 0x40 SHL SUB DUP1 PUSH1 0x20 DUP15 ADD CALLDATALOAD GT ISZERO PUSH2 0x47D2 JUMPI PUSH1 0x0 DUP1 REVERT JUMPDEST PUSH2 0x47E2 DUP15 PUSH1 0x20 DUP16 ADD CALLDATALOAD DUP16 ADD PUSH2 0x439A JUMP JUMPDEST SWAP1 SWAP12 POP SWAP10 POP PUSH1 0x40 DUP14 ADD CALLDATALOAD DUP2 LT ISZERO PUSH2 0x47F8 JUMPI PUSH1 0x0 DUP1 REVERT JUMPDEST PUSH2 0x4808 DUP15 PUSH1 0x40 DUP16 ADD CALLDATALOAD DUP16 ADD PUSH2 0x439A JUMP JUMPDEST SWAP1 SWAP10 POP SWAP8 POP PUSH1 0x60 DUP14 ADD CALLDATALOAD DUP2 LT ISZERO PUSH2 0x481E JUMPI PUSH1 0x0 DUP1 REVERT JUMPDEST PUSH2 0x482E DUP15 PUSH1 0x60 DUP16 ADD CALLDATALOAD DUP16 ADD PUSH2 0x439A JUMP JUMPDEST SWAP1 SWAP8 POP SWAP6 POP PUSH1 0x80 DUP14 ADD CALLDATALOAD DUP2 LT ISZERO PUSH2 0x4844 JUMPI PUSH1 0x0 DUP1 REVERT JUMPDEST PUSH2 0x4854 DUP15 PUSH1 0x80 DUP16 ADD CALLDATALOAD DUP16 ADD PUSH2 0x439A JUMP JUMPDEST SWAP1 SWAP6 POP SWAP4 POP PUSH1 0xA0 DUP14 ADD CALLDATALOAD SWAP3 POP PUSH1 0xC0 DUP14 ADD CALLDATALOAD DUP2 LT ISZERO PUSH2 0x4871 JUMPI PUSH1 0x0 DUP1 REVERT JUMPDEST POP PUSH2 0x4882 DUP14 PUSH1 0xC0 DUP15 ADD CALLDATALOAD DUP15 ADD PUSH2 0x4719 JUMP JUMPDEST SWAP1 POP SWAP3 SWAP6 SWAP9 SWAP12 POP SWAP3 SWAP6 SWAP9 SWAP12 SWAP1 SWAP4 SWAP7 SWAP10 POP JUMP JUMPDEST PUSH1 0x0 DUP1 PUSH1 0x0 PUSH1 0x60 DUP5 DUP7 SUB SLT ISZERO PUSH2 0x48A9 JUMPI PUSH1 0x0 DUP1 REVERT JUMPDEST DUP4 CALLDATALOAD PUSH2 0x48B4 DUP2 PUSH2 0x4349 JUMP JUMPDEST SWAP3 POP PUSH1 0x20 DUP5 ADD CALLDATALOAD PUSH2 0x48C4 DUP2 PUSH2 0x4349 JUMP JUMPDEST SWAP3 SWAP6 SWAP3 SWAP5 POP POP POP PUSH1 0x40 SWAP2 SWAP1 SWAP2 ADD CALLDATALOAD SWAP1 JUMP JUMPDEST PUSH1 0x20 DUP1 DUP3 MSTORE DUP3 MLOAD DUP3 DUP3 ADD DUP2 SWAP1 MSTORE PUSH1 0x0 SWAP2 SWAP1 DUP5 DUP3 ADD SWAP1 PUSH1 0x40 DUP6 ADD SWAP1 DUP5 JUMPDEST DUP2 DUP2 LT ISZERO PUSH2 0x4916 JUMPI DUP4 MLOAD PUSH1 0x1 PUSH1 0x1 PUSH1 0xA0 SHL SUB AND DUP4 MSTORE SWAP3 DUP5 ADD SWAP3 SWAP2 DUP5 ADD SWAP2 PUSH1 0x1 ADD PUSH2 0x48F1 JUMP JUMPDEST POP SWAP1 SWAP7 SWAP6 POP POP POP POP POP POP JUMP JUMPDEST PUSH1 0x0 PUSH1 0x20 DUP3 DUP5 SUB SLT ISZERO PUSH2 0x4934 JUMPI PUSH1 0x0 DUP1 REVERT JUMPDEST PUSH2 0x149A DUP3 PUSH2 0x4672 JUMP JUMPDEST PUSH1 0x0 PUSH1 0x20 DUP3 DUP5 SUB SLT ISZERO PUSH2 0x494F JUMPI PUSH1 0x0 DUP1 REVERT JUMPDEST DUP2 CALLDATALOAD PUSH1 0x1 PUSH1 0x1 PUSH1 0x40 SHL SUB DUP2 GT ISZERO PUSH2 0x4965 JUMPI PUSH1 0x0 DUP1 REVERT JUMPDEST PUSH2 0x36A8 DUP5 DUP3 DUP6 ADD PUSH2 0x4489 JUMP JUMPDEST PUSH1 0x0 DUP1 PUSH1 0x40 DUP4 DUP6 SUB SLT ISZERO PUSH2 0x4984 JUMPI PUSH1 0x0 DUP1 REVERT JUMPDEST DUP3 CALLDATALOAD PUSH2 0x498F DUP2 PUSH2 0x4349 JUMP JUMPDEST SWAP2 POP PUSH2 0x499D PUSH1 0x20 DUP5 ADD PUSH2 0x4579 JUMP JUMPDEST SWAP1 POP SWAP3 POP SWAP3 SWAP1 POP JUMP JUMPDEST PUSH1 0x0 DUP3 PUSH1 0x1F DUP4 ADD SLT PUSH2 0x49B7 JUMPI PUSH1 0x0 DUP1 REVERT JUMPDEST DUP2 CALLDATALOAD PUSH1 0x20 PUSH2 0x49C7 PUSH2 0x473A DUP4 PUSH2 0x4683 JUMP JUMPDEST DUP3 DUP2 MSTORE PUSH1 0x5 SWAP3 SWAP1 SWAP3 SHL DUP5 ADD DUP2 ADD SWAP2 DUP2 DUP2 ADD SWAP1 DUP7 DUP5 GT ISZERO PUSH2 0x49E6 JUMPI PUSH1 0x0 DUP1 REVERT JUMPDEST DUP3 DUP7 ADD JUMPDEST DUP5 DUP2 LT ISZERO PUSH2 0x4782 JUMPI DUP1 CALLDATALOAD PUSH1 0x4 DUP2 LT PUSH2 0x4A02 JUMPI PUSH1 0x0 DUP1 DUP2 REVERT JUMPDEST DUP4 MSTORE SWAP2 DUP4 ADD SWAP2 DUP4 ADD PUSH2 0x49EA JUMP JUMPDEST PUSH1 0x0 DUP1 PUSH1 0x40 DUP4 DUP6 SUB SLT ISZERO PUSH2 0x4A22 JUMPI PUSH1 0x0 DUP1 REVERT JUMPDEST DUP3 CALLDATALOAD PUSH1 0x1 PUSH1 0x1 PUSH1 0x40 SHL SUB DUP1 DUP3 GT ISZERO PUSH2 0x4A39 JUMPI PUSH1 0x0 DUP1 REVERT JUMPDEST DUP2 DUP6 ADD SWAP2 POP DUP6 PUSH1 0x1F DUP4 ADD SLT PUSH2 0x4A4D JUMPI PUSH1 0x0 DUP1 REVERT JUMPDEST DUP2 CALLDATALOAD PUSH1 0x20 PUSH2 0x4A5D PUSH2 0x473A DUP4 PUSH2 0x4683 JUMP JUMPDEST DUP3 DUP2 MSTORE PUSH1 0x5 SWAP3 SWAP1 SWAP3 SHL DUP5 ADD DUP2 ADD SWAP2 DUP2 DUP2 ADD SWAP1 DUP10 DUP5 GT ISZERO PUSH2 0x4A7C JUMPI PUSH1 0x0 DUP1 REVERT JUMPDEST SWAP5 DUP3 ADD SWAP5 JUMPDEST DUP4 DUP7 LT ISZERO PUSH2 0x4AA3 JUMPI DUP6 CALLDATALOAD PUSH2 0x4A94 DUP2 PUSH2 0x4349 JUMP JUMPDEST DUP3 MSTORE SWAP5 DUP3 ADD SWAP5 SWAP1 DUP3 ADD SWAP1 PUSH2 0x4A81 JUMP JUMPDEST SWAP7 POP POP DUP7 ADD CALLDATALOAD SWAP3 POP POP DUP1 DUP3 GT ISZERO PUSH2 0x4AB9 JUMPI PUSH1 0x0 DUP1 REVERT JUMPDEST POP PUSH2 0x4534 DUP6 DUP3 DUP7 ADD PUSH2 0x49A6 JUMP JUMPDEST PUSH1 0x0 DUP1 PUSH1 0x0 DUP1 PUSH1 0x0 PUSH1 0x80 DUP7 DUP9 SUB SLT ISZERO PUSH2 0x4ADE JUMPI PUSH1 0x0 DUP1 REVERT JUMPDEST DUP6 CALLDATALOAD SWAP5 POP PUSH1 0x20 DUP7 ADD CALLDATALOAD PUSH2 0x4AF0 DUP2 PUSH2 0x4349 JUMP JUMPDEST SWAP4 POP PUSH1 0x40 DUP7 ADD CALLDATALOAD SWAP3 POP PUSH1 0x60 DUP7 ADD CALLDATALOAD PUSH1 0x1 PUSH1 0x1 PUSH1 0x40 SHL SUB DUP2 GT ISZERO PUSH2 0x4B12 JUMPI PUSH1 0x0 DUP1 REVERT JUMPDEST PUSH2 0x4B1E DUP9 DUP3 DUP10 ADD PUSH2 0x439A JUMP JUMPDEST SWAP7 SWAP10 SWAP6 SWAP9 POP SWAP4 SWAP7 POP SWAP3 SWAP5 SWAP4 SWAP3 POP POP POP JUMP JUMPDEST PUSH1 0x80 DUP2 MSTORE PUSH1 0x0 PUSH2 0x4B42 PUSH1 0x80 DUP4 ADD DUP8 PUSH2 0x42F1 JUMP JUMPDEST DUP3 DUP2 SUB PUSH1 0x20 DUP5 ADD MSTORE PUSH2 0x4B54 DUP2 DUP8 PUSH2 0x42F1 JUMP JUMPDEST PUSH1 0xFF SWAP6 SWAP1 SWAP6 AND PUSH1 0x40 DUP5 ADD MSTORE POP POP SWAP1 ISZERO ISZERO PUSH1 0x60 SWAP1 SWAP2 ADD MSTORE SWAP3 SWAP2 POP POP JUMP JUMPDEST PUSH1 0x0 DUP1 DUP4 PUSH1 0x1F DUP5 ADD SLT PUSH2 0x4B82 JUMPI PUSH1 0x0 DUP1 REVERT JUMPDEST POP DUP2 CALLDATALOAD PUSH1 0x1 PUSH1 0x1 PUSH1 0x40 SHL SUB DUP2 GT ISZERO PUSH2 0x4B99 JUMPI PUSH1 0x0 DUP1 REVERT JUMPDEST PUSH1 0x20 DUP4 ADD SWAP2 POP DUP4 PUSH1 0x20 DUP3 PUSH1 0x5 SHL DUP6 ADD ADD GT ISZERO PUSH2 0x32DE JUMPI PUSH1 0x0 DUP1 REVERT JUMPDEST PUSH1 0x0 DUP1 PUSH1 0x0 DUP1 PUSH1 0x0 DUP1 PUSH1 0x0 DUP1 PUSH1 0x0 PUSH1 0xA0 DUP11 DUP13 SUB SLT ISZERO PUSH2 0x4BD2 JUMPI PUSH1 0x0 DUP1 REVERT JUMPDEST DUP10 CALLDATALOAD SWAP9 POP PUSH1 0x20 DUP11 ADD CALLDATALOAD PUSH1 0x1 PUSH1 0x1 PUSH1 0x40 SHL SUB DUP1 DUP3 GT ISZERO PUSH2 0x4BF0 JUMPI PUSH1 0x0 DUP1 REVERT JUMPDEST PUSH2 0x4BFC DUP14 DUP4 DUP15 ADD PUSH2 0x4B70 JUMP JUMPDEST SWAP1 SWAP11 POP SWAP9 POP PUSH1 0x40 DUP13 ADD CALLDATALOAD SWAP2 POP DUP1 DUP3 GT ISZERO PUSH2 0x4C15 JUMPI PUSH1 0x0 DUP1 REVERT JUMPDEST PUSH2 0x4C21 DUP14 DUP4 DUP15 ADD PUSH2 0x4B70 JUMP JUMPDEST SWAP1 SWAP9 POP SWAP7 POP PUSH1 0x60 DUP13 ADD CALLDATALOAD SWAP2 POP DUP1 DUP3 GT ISZERO PUSH2 0x4C3A JUMPI PUSH1 0x0 DUP1 REVERT JUMPDEST PUSH2 0x4C46 DUP14 DUP4 DUP15 ADD PUSH2 0x4B70 JUMP JUMPDEST SWAP1 SWAP7 POP SWAP5 POP PUSH1 0x80 DUP13 ADD CALLDATALOAD SWAP2 POP DUP1 DUP3 GT ISZERO PUSH2 0x4C5F JUMPI PUSH1 0x0 DUP1 REVERT JUMPDEST POP PUSH2 0x4C6C DUP13 DUP3 DUP14 ADD PUSH2 0x4B70 JUMP JUMPDEST SWAP2 POP DUP1 SWAP4 POP POP DUP1 SWAP2 POP POP SWAP3 SWAP6 SWAP9 POP SWAP3 SWAP6 SWAP9 POP SWAP3 SWAP6 SWAP9 JUMP JUMPDEST PUSH1 0x0 DUP1 PUSH1 0x40 DUP4 DUP6 SUB SLT ISZERO PUSH2 0x4C96 JUMPI PUSH1 0x0 DUP1 REVERT JUMPDEST DUP3 CALLDATALOAD PUSH2 0x4CA1 DUP2 PUSH2 0x4349 JUMP JUMPDEST SWAP2 POP PUSH1 0x20 DUP4 ADD CALLDATALOAD PUSH2 0x4CB1 DUP2 PUSH2 0x4349 JUMP JUMPDEST DUP1 SWAP2 POP POP SWAP3 POP SWAP3 SWAP1 POP JUMP JUMPDEST PUSH1 0x1 DUP2 DUP2 SHR SWAP1 DUP3 AND DUP1 PUSH2 0x4CD0 JUMPI PUSH1 0x7F DUP3 AND SWAP2 POP JUMPDEST PUSH1 0x20 DUP3 LT DUP2 EQ ISZERO PUSH2 0x4CF1 JUMPI PUSH4 0x4E487B71 PUSH1 0xE0 SHL PUSH1 0x0 MSTORE PUSH1 0x22 PUSH1 0x4 MSTORE PUSH1 0x24 PUSH1 0x0 REVERT JUMPDEST POP SWAP2 SWAP1 POP JUMP JUMPDEST PUSH1 0x20 DUP1 DUP3 MSTORE PUSH1 0x1F SWAP1 DUP3 ADD MSTORE PUSH32 0x455243373231526F6C6573416464726573733A204E4F54204D414E4147455200 PUSH1 0x40 DUP3 ADD MSTORE PUSH1 0x60 ADD SWAP1 JUMP JUMPDEST PUSH1 0x20 DUP1 DUP3 MSTORE PUSH1 0x1C SWAP1 DUP3 ADD MSTORE PUSH32 0x45524337323154656D706C6174653A206E6F74204E46544F776E657200000000 PUSH1 0x40 DUP3 ADD MSTORE PUSH1 0x60 ADD SWAP1 JUMP JUMPDEST PUSH1 0x80 DUP2 MSTORE PUSH1 0x0 PUSH2 0x4D78 PUSH1 0x80 DUP4 ADD DUP8 PUSH2 0x42F1 JUMP JUMPDEST PUSH1 0x20 DUP4 ADD SWAP6 SWAP1 SWAP6 MSTORE POP PUSH1 0x40 DUP2 ADD SWAP3 SWAP1 SWAP3 MSTORE PUSH1 0x60 SWAP1 SWAP2 ADD MSTORE SWAP2 SWAP1 POP JUMP JUMPDEST PUSH1 0x20 DUP1 DUP3 MSTORE PUSH1 0x21 SWAP1 DUP3 ADD MSTORE PUSH32 0x45524337323154656D706C6174653A204E4F54204D455441444154415F524F4C PUSH1 0x40 DUP3 ADD MSTORE PUSH1 0x45 PUSH1 0xF8 SHL PUSH1 0x60 DUP3 ADD MSTORE PUSH1 0x80 ADD SWAP1 JUMP JUMPDEST PUSH1 0x0 DUP1 DUP4 CALLDATALOAD PUSH1 0x1E NOT DUP5 CALLDATASIZE SUB ADD DUP2 SLT PUSH2 0x4DEC JUMPI PUSH1 0x0 DUP1 REVERT JUMPDEST DUP4 ADD DUP1 CALLDATALOAD SWAP2 POP PUSH1 0x1 PUSH1 0x1 PUSH1 0x40 SHL SUB DUP3 GT ISZERO PUSH2 0x4E06 JUMPI PUSH1 0x0 DUP1 REVERT JUMPDEST PUSH1 0x20 ADD SWAP2 POP CALLDATASIZE DUP2 SWAP1 SUB DUP3 SGT ISZERO PUSH2 0x32DE JUMPI PUSH1 0x0 DUP1 REVERT JUMPDEST PUSH1 0x0 DUP1 DUP4 CALLDATALOAD PUSH1 0x1E NOT DUP5 CALLDATASIZE SUB ADD DUP2 SLT PUSH2 0x4E32 JUMPI PUSH1 0x0 DUP1 REVERT JUMPDEST DUP4 ADD DUP1 CALLDATALOAD SWAP2 POP PUSH1 0x1 PUSH1 0x1 PUSH1 0x40 SHL SUB DUP3 GT ISZERO PUSH2 0x4E4C JUMPI PUSH1 0x0 DUP1 REVERT JUMPDEST PUSH1 0x20 ADD SWAP2 POP PUSH1 0x7 DUP2 SWAP1 SHL CALLDATASIZE SUB DUP3 SGT ISZERO PUSH2 0x32DE JUMPI PUSH1 0x0 DUP1 REVERT JUMPDEST PUSH1 0x0 PUSH1 0x80 DUP3 DUP5 SUB SLT ISZERO PUSH2 0x4E76 JUMPI PUSH1 0x0 DUP1 REVERT JUMPDEST PUSH2 0x149A DUP4 DUP4 PUSH2 0x46A6 JUMP JUMPDEST PUSH1 0x20 DUP1 DUP3 MSTORE PUSH1 0x23 SWAP1 DUP3 ADD MSTORE PUSH32 0x45524337323154656D706C6174653A204973206E6F6E207472616E7366657261 PUSH1 0x40 DUP3 ADD MSTORE PUSH3 0x626C65 PUSH1 0xE8 SHL PUSH1 0x60 DUP3 ADD MSTORE PUSH1 0x80 ADD SWAP1 JUMP JUMPDEST PUSH1 0x20 DUP1 DUP3 MSTORE PUSH1 0x2C SWAP1 DUP3 ADD MSTORE PUSH32 0x45524337323154656D706C6174653A2043616E6E6F74207472616E7366657220 PUSH1 0x40 DUP3 ADD MSTORE PUSH12 0x1D1A1A5CC81D1BDAD95B9259 PUSH1 0xA2 SHL PUSH1 0x60 DUP3 ADD MSTORE PUSH1 0x80 ADD SWAP1 JUMP JUMPDEST PUSH4 0x4E487B71 PUSH1 0xE0 SHL PUSH1 0x0 MSTORE PUSH1 0x32 PUSH1 0x4 MSTORE PUSH1 0x24 PUSH1 0x0 REVERT JUMPDEST PUSH4 0x4E487B71 PUSH1 0xE0 SHL PUSH1 0x0 MSTORE PUSH1 0x21 PUSH1 0x4 MSTORE PUSH1 0x24 PUSH1 0x0 REVERT JUMPDEST PUSH4 0x4E487B71 PUSH1 0xE0 SHL PUSH1 0x0 MSTORE PUSH1 0x11 PUSH1 0x4 MSTORE PUSH1 0x24 PUSH1 0x0 REVERT JUMPDEST PUSH1 0x0 PUSH1 0x0 NOT DUP3 EQ ISZERO PUSH2 0x4F65 JUMPI PUSH2 0x4F65 PUSH2 0x4F3B JUMP JUMPDEST POP PUSH1 0x1 ADD SWAP1 JUMP JUMPDEST PUSH1 0x0 DUP4 MLOAD PUSH2 0x4F7E DUP2 DUP5 PUSH1 0x20 DUP9 ADD PUSH2 0x42C5 JUMP JUMPDEST DUP4 MLOAD SWAP1 DUP4 ADD SWAP1 PUSH2 0x4F92 DUP2 DUP4 PUSH1 0x20 DUP9 ADD PUSH2 0x42C5 JUMP JUMPDEST ADD SWAP5 SWAP4 POP POP POP POP JUMP JUMPDEST DUP2 DUP4 MSTORE DUP2 DUP2 PUSH1 0x20 DUP6 ADD CALLDATACOPY POP PUSH1 0x0 DUP3 DUP3 ADD PUSH1 0x20 SWAP1 DUP2 ADD SWAP2 SWAP1 SWAP2 MSTORE PUSH1 0x1F SWAP1 SWAP2 ADD PUSH1 0x1F NOT AND SWAP1 SWAP2 ADD ADD SWAP1 JUMP JUMPDEST PUSH1 0x0 DUP1 DUP4 CALLDATALOAD PUSH1 0x1E NOT DUP5 CALLDATASIZE SUB ADD DUP2 SLT PUSH2 0x4FDB JUMPI PUSH1 0x0 DUP1 REVERT JUMPDEST DUP4 ADD PUSH1 0x20 DUP2 ADD SWAP3 POP CALLDATALOAD SWAP1 POP PUSH1 0x1 PUSH1 0x1 PUSH1 0x40 SHL SUB DUP2 GT ISZERO PUSH2 0x4FFA JUMPI PUSH1 0x0 DUP1 REVERT JUMPDEST DUP1 CALLDATASIZE SUB DUP4 SGT ISZERO PUSH2 0x32DE JUMPI PUSH1 0x0 DUP1 REVERT JUMPDEST DUP2 DUP4 MSTORE PUSH1 0x0 PUSH1 0x20 DUP1 DUP6 ADD SWAP5 POP DUP3 PUSH1 0x0 JUMPDEST DUP6 DUP2 LT ISZERO PUSH2 0x5047 JUMPI DUP2 CALLDATALOAD PUSH2 0x502C DUP2 PUSH2 0x4349 JUMP JUMPDEST PUSH1 0x1 PUSH1 0x1 PUSH1 0xA0 SHL SUB AND DUP8 MSTORE SWAP6 DUP3 ADD SWAP6 SWAP1 DUP3 ADD SWAP1 PUSH1 0x1 ADD PUSH2 0x5019 JUMP JUMPDEST POP SWAP5 SWAP6 SWAP5 POP POP POP POP POP JUMP JUMPDEST DUP2 DUP4 MSTORE PUSH1 0x0 PUSH1 0x1 PUSH1 0x1 PUSH1 0xFB SHL SUB DUP4 GT ISZERO PUSH2 0x506B JUMPI PUSH1 0x0 DUP1 REVERT JUMPDEST DUP3 PUSH1 0x5 SHL DUP1 DUP4 PUSH1 0x20 DUP8 ADD CALLDATACOPY PUSH1 0x0 SWAP5 ADD PUSH1 0x20 ADD SWAP4 DUP5 MSTORE POP SWAP2 SWAP3 SWAP2 POP POP JUMP JUMPDEST DUP2 DUP4 MSTORE PUSH1 0x0 PUSH1 0x20 DUP1 DUP6 ADD DUP1 DUP2 SWAP7 POP DUP6 PUSH1 0x5 SHL DUP2 ADD SWAP2 POP DUP5 PUSH1 0x0 JUMPDEST DUP8 DUP2 LT ISZERO PUSH2 0x50D8 JUMPI DUP3 DUP5 SUB DUP10 MSTORE PUSH2 0x50B9 DUP3 DUP9 PUSH2 0x4FC4 JUMP JUMPDEST PUSH2 0x50C4 DUP7 DUP3 DUP5 PUSH2 0x4F9B JUMP JUMPDEST SWAP11 DUP8 ADD SWAP11 SWAP6 POP POP POP SWAP1 DUP5 ADD SWAP1 PUSH1 0x1 ADD PUSH2 0x50A2 JUMP JUMPDEST POP SWAP2 SWAP8 SWAP7 POP POP POP POP POP POP POP JUMP JUMPDEST DUP10 DUP2 MSTORE PUSH1 0xA0 PUSH1 0x20 DUP3 ADD DUP2 SWAP1 MSTORE DUP2 ADD DUP9 SWAP1 MSTORE PUSH1 0x0 PUSH1 0xC0 PUSH1 0x5 DUP11 SWAP1 SHL DUP4 ADD DUP2 ADD SWAP1 DUP4 ADD DUP12 DUP4 JUMPDEST DUP13 DUP2 LT ISZERO PUSH2 0x5146 JUMPI DUP6 DUP5 SUB PUSH1 0xBF NOT ADD DUP4 MSTORE PUSH2 0x5124 DUP3 DUP16 PUSH2 0x4FC4 JUMP JUMPDEST PUSH2 0x512F DUP7 DUP3 DUP5 PUSH2 0x4F9B JUMP JUMPDEST SWAP6 POP POP POP PUSH1 0x20 SWAP3 DUP4 ADD SWAP3 SWAP2 SWAP1 SWAP2 ADD SWAP1 PUSH1 0x1 ADD PUSH2 0x5109 JUMP JUMPDEST POP POP POP DUP3 DUP2 SUB PUSH1 0x40 DUP5 ADD MSTORE PUSH2 0x515C DUP2 DUP10 DUP12 PUSH2 0x5009 JUMP JUMPDEST SWAP1 POP DUP3 DUP2 SUB PUSH1 0x60 DUP5 ADD MSTORE PUSH2 0x5171 DUP2 DUP8 DUP10 PUSH2 0x5052 JUMP JUMPDEST SWAP1 POP DUP3 DUP2 SUB PUSH1 0x80 DUP5 ADD MSTORE PUSH2 0x5186 DUP2 DUP6 DUP8 PUSH2 0x5088 JUMP JUMPDEST SWAP13 SWAP12 POP POP POP POP POP POP POP POP POP POP POP POP JUMP JUMPDEST PUSH1 0x0 PUSH1 0x20 DUP3 DUP5 SUB SLT ISZERO PUSH2 0x51A8 JUMPI PUSH1 0x0 DUP1 REVERT JUMPDEST DUP2 MLOAD PUSH2 0x32F5 DUP2 PUSH2 0x4349 JUMP JUMPDEST PUSH1 0x20 DUP2 MSTORE PUSH1 0x0 PUSH2 0x32F2 PUSH1 0x20 DUP4 ADD DUP5 DUP7 PUSH2 0x4F9B JUMP JUMPDEST PUSH1 0xFF DUP12 AND DUP2 MSTORE PUSH1 0xE0 PUSH1 0x20 DUP3 ADD MSTORE PUSH1 0x0 PUSH2 0x51E4 PUSH1 0xE0 DUP4 ADD DUP12 DUP14 PUSH2 0x4F9B JUMP JUMPDEST DUP3 DUP2 SUB PUSH1 0x40 DUP5 ADD MSTORE PUSH2 0x51F7 DUP2 DUP11 DUP13 PUSH2 0x4F9B JUMP JUMPDEST SWAP1 POP DUP3 DUP2 SUB PUSH1 0x60 DUP5 ADD MSTORE PUSH2 0x520C DUP2 DUP9 DUP11 PUSH2 0x4F9B JUMP JUMPDEST PUSH1 0x80 DUP5 ADD SWAP7 SWAP1 SWAP7 MSTORE POP POP PUSH1 0xA0 DUP2 ADD SWAP3 SWAP1 SWAP3 MSTORE PUSH1 0xC0 SWAP1 SWAP2 ADD MSTORE SWAP8 SWAP7 POP POP POP POP POP POP POP JUMP JUMPDEST PUSH1 0x0 DUP4 MLOAD PUSH2 0x5241 DUP2 DUP5 PUSH1 0x20 DUP9 ADD PUSH2 0x42C5 JUMP JUMPDEST SWAP2 SWAP1 SWAP2 ADD SWAP2 DUP3 MSTORE POP PUSH1 0x20 ADD SWAP2 SWAP1 POP JUMP JUMPDEST PUSH1 0x20 DUP1 DUP3 MSTORE PUSH1 0x31 SWAP1 DUP3 ADD MSTORE PUSH32 0x4552433732313A207472616E736665722063616C6C6572206973206E6F74206F PUSH1 0x40 DUP3 ADD MSTORE PUSH17 0x1DDB995C881B9BDC88185C1C1C9BDD9959 PUSH1 0x7A SHL PUSH1 0x60 DUP3 ADD MSTORE PUSH1 0x80 ADD SWAP1 JUMP JUMPDEST PUSH1 0x0 DUP3 DUP3 LT ISZERO PUSH2 0x52B4 JUMPI PUSH2 0x52B4 PUSH2 0x4F3B JUMP JUMPDEST POP SUB SWAP1 JUMP JUMPDEST PUSH4 0x4E487B71 PUSH1 0xE0 SHL PUSH1 0x0 MSTORE PUSH1 0x31 PUSH1 0x4 MSTORE PUSH1 0x24 PUSH1 0x0 REVERT JUMPDEST PUSH1 0x20 DUP1 DUP3 MSTORE PUSH1 0x32 SWAP1 DUP3 ADD MSTORE PUSH32 0x4552433732313A207472616E7366657220746F206E6F6E204552433732315265 PUSH1 0x40 DUP3 ADD MSTORE PUSH18 0x31B2B4BB32B91034B6B83632B6B2B73A32B9 PUSH1 0x71 SHL PUSH1 0x60 DUP3 ADD MSTORE PUSH1 0x80 ADD SWAP1 JUMP JUMPDEST PUSH1 0x0 DUP3 NOT DUP3 GT ISZERO PUSH2 0x5334 JUMPI PUSH2 0x5334 PUSH2 0x4F3B JUMP JUMPDEST POP ADD SWAP1 JUMP JUMPDEST PUSH1 0x1 PUSH1 0x1 PUSH1 0xA0 SHL SUB DUP6 DUP2 AND DUP3 MSTORE DUP5 AND PUSH1 0x20 DUP3 ADD MSTORE PUSH1 0x40 DUP2 ADD DUP4 SWAP1 MSTORE PUSH1 0x80 PUSH1 0x60 DUP3 ADD DUP2 SWAP1 MSTORE PUSH1 0x0 SWAP1 PUSH2 0x536C SWAP1 DUP4 ADD DUP5 PUSH2 0x42F1 JUMP JUMPDEST SWAP7 SWAP6 POP POP POP POP POP POP JUMP JUMPDEST PUSH1 0x0 PUSH1 0x20 DUP3 DUP5 SUB SLT ISZERO PUSH2 0x5388 JUMPI PUSH1 0x0 DUP1 REVERT JUMPDEST DUP2 MLOAD PUSH2 0x32F5 DUP2 PUSH2 0x4292 JUMP INVALID GASLIMIT MSTORE NUMBER CALLDATACOPY ORIGIN BALANCE GASPRICE KECCAK256 PUSH16 0x776E657220717565727920666F72206E PUSH16 0x6E6578697374656E7420746F6B656EA2 PUSH5 0x6970667358 0x22 SLT KECCAK256 RETURN SGT DUP15 SAR 0x1F PUSH25 0xDE6234A0D20981FEFC61C64C74B9DE332F98A6441AFB74D5E0 PUSH20 0x64736F6C634300080C0033000000000000000000 ","sha1":"af617cf8c463ac1aa724fd0b5d1391c39247f399","source":"pragma solidity 0.8.12;\n// Copyright BigchainDB GmbH and Ocean Protocol contributors\n// SPDX-License-Identifier: (Apache-2.0 AND CC-BY-4.0)\n// Code is Apache-2.0 and docs are CC-BY-4.0\nimport \"../interfaces/IERC721Template.sol\";\nimport \"../utils/ERC721/ERC721.sol\";\nimport \"../utils/ERC725/ERC725Ocean.sol\";\nimport \"../utils/ERC721/IERC721Enumerable.sol\";\nimport \"OpenZeppelin/openzeppelin-contracts@4.2.0/contracts/utils/Create2.sol\";\nimport \"OpenZeppelin/openzeppelin-contracts@4.2.0/contracts/security/ReentrancyGuard.sol\";\nimport \"../interfaces/IFactory.sol\";\nimport \"../interfaces/IERC20Template.sol\";\nimport \"../utils/ERC721RolesAddress.sol\";\n\n\n\ncontract ERC721Template is\n    ERC721(\"Template\", \"TemplateSymbol\"),\n    ERC721RolesAddress,\n    ERC725Ocean,\n    ReentrancyGuard\n{\n    \n    string private _name;\n    string private _symbol;\n    //uint256 private tokenId = 1;\n    bool private initialized;\n    bool public hasMetaData;\n    string public metaDataDecryptorUrl;\n    string public metaDataDecryptorAddress;\n    uint8 public metaDataState;\n    address private _tokenFactory;\n    address[] private deployedERC20List;\n    uint8 private constant templateId = 1;\n    mapping(address => bool) private deployedERC20;\n    bool public transferable;\n\n    //stored here only for ABI reasons\n    event TokenCreated(\n        address indexed newTokenAddress,\n        address indexed templateAddress,\n        string name,\n        string symbol,\n        uint256 cap,\n        address creator\n    );  \n    event MetadataCreated(\n        address indexed createdBy,\n        uint8 state,\n        string decryptorUrl,\n        bytes flags,\n        bytes data,\n        bytes32 metaDataHash,\n        uint256 timestamp,\n        uint256 blockNumber\n    );\n    event MetadataUpdated(\n        address indexed updatedBy,\n        uint8 state,\n        string decryptorUrl,\n        bytes flags,\n        bytes data,\n        bytes32 metaDataHash,\n        uint256 timestamp,\n        uint256 blockNumber\n    );\n    event MetadataValidated(\n        address indexed validator,\n        bytes32 metaDataHash,\n        uint8 v, \n        bytes32 r, \n        bytes32 s\n    );\n    event MetadataState(\n        address indexed updatedBy,\n        uint8 state,\n        uint256 timestamp,\n        uint256 blockNumber\n    );\n\n    event TokenURIUpdate(\n        address indexed updatedBy,\n        string tokenURI,\n        uint256 tokenID,\n        uint256 timestamp,\n        uint256 blockNumber\n    );\n\n    modifier onlyNFTOwner() {\n        require(msg.sender == ownerOf(1), \"ERC721Template: not NFTOwner\");\n        _;\n    }\n\n     \n    /**\n     * @dev initialize\n     *      Calls private _initialize function. Only if contract is not initialized.\n            This function mints an NFT (tokenId=1) to the owner and add owner as Manager Role\n     * @param owner NFT Owner\n     * @param name_ NFT name\n     * @param symbol_ NFT Symbol\n     * @param tokenFactory NFT factory address\n     * @param additionalERC20Deployer address of additionalERC20Deployer\n     * @param additionalMetaDataUpdater address of additionalMetaDataUpdater\n     * @param tokenURI tokenURI\n     * @param transferable_ if set to false, this NFT is non-transferable\n     \n     @return boolean\n     */\n\n    function initialize(\n        address owner,\n        string calldata name_,\n        string calldata symbol_,\n        address tokenFactory,\n        address additionalERC20Deployer,\n        address additionalMetaDataUpdater,\n        string memory tokenURI,\n        bool transferable_\n    ) external returns (bool) {\n        require(\n            !initialized,\n            \"ERC721Template: token instance already initialized\"\n        );\n        if(additionalERC20Deployer != address(0))\n            _addToCreateERC20List(additionalERC20Deployer);\n        if(additionalMetaDataUpdater != address(0))\n            _addToMetadataList(additionalMetaDataUpdater);\n        bool initResult = \n            _initialize(\n                owner,\n                name_,\n                symbol_,\n                tokenFactory,\n                tokenURI,\n                transferable_\n            );\n        //register all erc721 interfaces\n        registerAllInterfaces();\n        //register erc725 interfaces\n        _registerInterface(_INTERFACE_ID_ERC725X);\n        _registerInterface(_INTERFACE_ID_ERC725Y);\n        return(initResult);\n    }\n\n    /**\n     * @dev _initialize\n     *      Calls private _initialize function. Only if contract is not initialized.\n     *       This function mints an NFT (tokenId=1) to the owner\n     *       and add owner as Manager Role (Roles admin)\n     * @param owner NFT Owner\n     * @param name_ NFT name\n     * @param symbol_ NFT Symbol\n     * @param tokenFactory NFT factory address\n     * @param tokenURI tokenURI for token 1\n     \n     @return boolean\n     */\n\n    function _initialize(\n        address owner,\n        string memory name_,\n        string memory symbol_,\n        address tokenFactory,\n        string memory tokenURI,\n        bool transferable_\n    ) internal returns (bool) {\n        require(\n            owner != address(0),\n            \"ERC721Template:: Invalid minter,  zero address\"\n        );\n        \n        _name = name_;\n        _symbol = symbol_;\n        _tokenFactory = tokenFactory;\n        defaultBaseURI = \"\";\n        initialized = true;\n        hasMetaData = false;\n        transferable = transferable_;\n        _safeMint(owner, 1);\n        _addManager(owner);\n\n        // we add the nft owner to all other roles (so that doesn't need to make multiple transactions)\n        Roles storage user = permissions[owner];\n        user.updateMetadata = true;\n        user.deployERC20 = true;\n        user.store = true;\n        // no need to push to auth since it has been already added in _addManager()\n        _setTokenURI(1, tokenURI);\n        \n        return initialized;\n    }\n\n    /**\n     * @dev setTokenURI\n     *      sets tokenURI for a tokenId\n     * @param tokenId token ID\n     * @param tokenURI token URI\n     */\n    function setTokenURI(uint256 tokenId, string memory tokenURI) public {\n        require(msg.sender == ownerOf(tokenId), \"ERC721Template: not NFTOwner\");\n        _setTokenURI(tokenId, tokenURI);\n        emit TokenURIUpdate(msg.sender, tokenURI, tokenId,\n            /* solium-disable-next-line */\n            block.timestamp,\n            block.number);\n    }\n\n    \n\n    /**\n     * @dev setMetaDataState\n     *      Updates metadata state\n     * @param _metaDataState metadata state\n     */\n    function setMetaDataState(uint8 _metaDataState) public {\n        require(\n            permissions[msg.sender].updateMetadata,\n            \"ERC721Template: NOT METADATA_ROLE\"\n        );\n        metaDataState = _metaDataState;\n        emit MetadataState(msg.sender, _metaDataState,\n            /* solium-disable-next-line */\n            block.timestamp,\n            block.number);\n    }\n\n    struct metaDataProof {\n        address validatorAddress;\n        uint8 v; // v of validator signed message\n        bytes32 r; // r of validator signed message\n        bytes32 s; // s of validator signed message\n    }\n    /**\n     * @dev setMetaData\n     *     \n             Creates or update Metadata for Aqua(emit event)\n             Also, updates the METADATA_DECRYPTOR key\n     * @param _metaDataState metadata state\n     * @param _metaDataDecryptorUrl decryptor URL\n     * @param _metaDataDecryptorAddress decryptor public key\n     * @param flags flags used by Aquarius\n     * @param data data used by Aquarius\n     * @param _metaDataHash hash of clear data (before the encryption, if any)\n     * @param _metadataProofs optional signatures of entitys who validated data (before the encryption, if any)\n     */\n    function setMetaData(uint8 _metaDataState, string calldata _metaDataDecryptorUrl\n        , string calldata _metaDataDecryptorAddress, bytes calldata flags, \n        bytes calldata data,bytes32 _metaDataHash, metaDataProof[] memory _metadataProofs) external {\n        require(\n            permissions[msg.sender].updateMetadata,\n            \"ERC721Template: NOT METADATA_ROLE\"\n        );\n        _setMetaData(_metaDataState, _metaDataDecryptorUrl, _metaDataDecryptorAddress,flags, \n        data,_metaDataHash, _metadataProofs);\n    }\n\n    function _setMetaData(uint8 _metaDataState, string calldata _metaDataDecryptorUrl\n        , string calldata _metaDataDecryptorAddress, bytes calldata flags, \n        bytes calldata data,bytes32 _metaDataHash, metaDataProof[] memory _metadataProofs) internal {\n        metaDataState = _metaDataState;\n        metaDataDecryptorUrl = _metaDataDecryptorUrl;\n        metaDataDecryptorAddress = _metaDataDecryptorAddress;\n        if(!hasMetaData){\n            emit MetadataCreated(msg.sender, _metaDataState, _metaDataDecryptorUrl,\n            flags, data, _metaDataHash, \n            /* solium-disable-next-line */\n            block.timestamp,\n            block.number);\n            hasMetaData = true;\n        }\n        else\n            emit MetadataUpdated(msg.sender, metaDataState, _metaDataDecryptorUrl,\n            flags, data, _metaDataHash,\n            /* solium-disable-next-line */\n            block.timestamp,\n            block.number);\n        //check proofs and emit an event for each proof\n        require(_metadataProofs.length <= 50, 'Too Many Proofs');\n        bytes memory prefix = \"\\x19Ethereum Signed Message:\\n32\";\n        for (uint256 i = 0; i < _metadataProofs.length; i++) {\n            if(_metadataProofs[i].validatorAddress != address(0)){\n                    bytes32 prefixedHash = keccak256(abi.encodePacked(prefix, _metaDataHash));\n                    address signer = ecrecover(prefixedHash,\n                    _metadataProofs[i].v, _metadataProofs[i].r, _metadataProofs[i].s);\n                    require(signer == _metadataProofs[i].validatorAddress, \"Invalid proof signer\");\n            }\n            emit MetadataValidated(_metadataProofs[i].validatorAddress, \n            _metaDataHash, \n            _metadataProofs[i].v, _metadataProofs[i].r, _metadataProofs[i].s);\n        }\n    }\n\n    struct metaDataAndTokenURI {\n        uint8 metaDataState;\n        string metaDataDecryptorUrl;\n        string metaDataDecryptorAddress;\n        bytes flags;\n        bytes data;\n        bytes32 metaDataHash;\n        uint256 tokenId;\n        string tokenURI;\n        metaDataProof[] metadataProofs;\n    }\n\n    /**\n     * @dev setMetaDataAndTokenURI\n     *       Helper function to improve UX\n             Calls setMetaData & setTokenURI\n     * @param _metaDataAndTokenURI   metaDataAndTokenURI struct\n     */\n    function setMetaDataAndTokenURI(metaDataAndTokenURI calldata _metaDataAndTokenURI) external {\n        require(\n            permissions[msg.sender].updateMetadata,\n            \"ERC721Template: NOT METADATA_ROLE\"\n        );\n        _setMetaData(_metaDataAndTokenURI.metaDataState, _metaDataAndTokenURI.metaDataDecryptorUrl, \n            _metaDataAndTokenURI.metaDataDecryptorAddress, _metaDataAndTokenURI.flags, \n            _metaDataAndTokenURI.data, _metaDataAndTokenURI.metaDataHash, _metaDataAndTokenURI.metadataProofs);\n        \n        setTokenURI(_metaDataAndTokenURI.tokenId, _metaDataAndTokenURI.tokenURI);\n        \n    }\n    /**\n     * @dev getMetaData\n     *      Returns metaDataState, metaDataDecryptorUrl, metaDataDecryptorAddress\n     */\n    function getMetaData() external view returns (string memory, string memory, uint8, bool){\n        return (metaDataDecryptorUrl, metaDataDecryptorAddress, metaDataState, hasMetaData);\n    } \n\n\n    /**\n     * @dev createERC20\n     *        ONLY user with deployERC20 permission (assigned by Manager) can call it\n             Creates a new ERC20 datatoken.\n            It also adds initial minting and fee management permissions to custom users.\n\n     * @param _templateIndex ERC20Template index \n     * @param strings refers to an array of strings\n     *                      [0] = name\n     *                      [1] = symbol\n     * @param addresses refers to an array of addresses\n     *                     [0]  = minter account who can mint datatokens (can have multiple minters)\n     *                     [1]  = feeManager initial feeManager for this DT\n     *                     [2]  = publishing Market Address\n     *                     [3]  = publishing Market Fee Token\n     * @param uints  refers to an array of uints\n     *                     [0] = cap_ the total ERC20 cap\n     *                     [1] = publishing Market Fee Amount\n     * @param bytess  refers to an array of bytes\n     *                     Currently not used, usefull for future templates\n     \n     @return ERC20 token address\n     */\n\n    function createERC20(\n        uint256 _templateIndex,\n        string[] calldata strings,\n        address[] calldata addresses,\n        uint256[] calldata uints,\n        bytes[] calldata bytess\n    ) external nonReentrant returns (address ) {\n        require(\n            permissions[msg.sender].deployERC20,\n            \"ERC721Template: NOT ERC20DEPLOYER_ROLE\"\n        );\n\n        address token = IFactory(_tokenFactory).createToken(\n            _templateIndex,\n            strings,\n            addresses,\n            uints,\n            bytess\n        );\n\n        deployedERC20[token] = true;\n\n        deployedERC20List.push(token);\n        return token;\n    }\n\n    /**\n     * @dev isERC20Deployer\n     * @return true if the account has ERC20 Deploy role\n     */\n    function isERC20Deployer(address account) external view returns (bool) {\n        return permissions[account].deployERC20;\n    }\n    \n    /**\n     * @dev name\n     *      It returns the token name.\n     * @return Datatoken name.\n     */\n    function name() public view override returns (string memory) {\n        return _name;\n    }\n\n    /**\n     * @dev symbol\n     *      It returns the token symbol.\n     * @return Datatoken symbol.\n     */\n    function symbol() public view override returns (string memory) {\n        return _symbol;\n    }\n\n      /**\n     * @dev isInitialized\n     *      It checks whether the contract is initialized.\n     * @return true if the contract is initialized.\n     */\n\n    function isInitialized() external view returns (bool) {\n        return initialized;\n    }\n\n    /**\n     * @dev addManager\n     *      Only NFT Owner can add a new manager (Roles admin)\n     *      There can be multiple minters\n     * @param _managerAddress new manager address\n     */\n\n    function addManager(address _managerAddress) external onlyNFTOwner {\n        _addManager(_managerAddress);\n    }\n\n    /**\n     * @dev removeManager\n     *      Only NFT Owner can remove a manager (Roles admin)\n     *      There can be multiple minters\n     * @param _managerAddress new manager address\n     */\n\n\n    function removeManager(address _managerAddress) external onlyNFTOwner {\n        _removeManager(_managerAddress);\n    }\n\n     /**\n     * @notice Executes any other smart contract. \n                Is only callable by the Manager.\n     *\n     *\n     * @param _operation the operation to execute: CALL = 0; DELEGATECALL = 1; CREATE2 = 2; CREATE = 3;\n     * @param _to the smart contract or address to interact with. \n     *          `_to` will be unused if a contract is created (operation 2 and 3)\n     * @param _value the value of ETH to transfer\n     * @param _data the call data, or the contract data to deploy\n    **/\n\n    function executeCall(\n        uint256 _operation,\n        address _to,\n        uint256 _value,\n        bytes calldata _data\n    ) external payable onlyManager {\n        execute(_operation, _to, _value, _data);\n    }\n\n\n      /**\n     * @dev setNewData\n     *       ONLY user with store permission (assigned by Manager) can call it\n            This function allows to set any arbitrary key-value into the 725 standard\n     *      There can be multiple store updaters\n     * @param _key key (see 725 for standard (keccak256)) \n        Data keys, should be the keccak256 hash of a type name.\n        e.g. keccak256('ERCXXXMyNewKeyType') is 0x6935a24ea384927f250ee0b954ed498cd9203fc5d2bf95c735e52e6ca675e047\n\n     * @param _value data to store at that key\n     */\n\n\n    function setNewData(bytes32 _key, bytes calldata _value) external {\n        require(\n            permissions[msg.sender].store,\n            \"ERC721Template: NOT STORE UPDATER\"\n        );\n        setData(_key, _value);\n    }\n\n       /**\n     * @dev setDataERC20\n     *      ONLY callable FROM the ERC20Template and BY the corresponding ERC20Deployer\n            This function allows to store data with a preset key (keccak256(ERC20Address)) into NFT 725 Store\n     * @param _key keccak256(ERC20Address) see setData into ERC20Template.sol\n     * @param _value data to store at that key\n     */\n\n\n    function setDataERC20(bytes32 _key, bytes calldata _value) external {\n        require(\n            deployedERC20[msg.sender],\n            \"ERC721Template: NOT ERC20 Contract\"\n        );\n        setData(_key, _value);\n    }\n\n\n    /**\n     * @dev cleanPermissions\n     *      Only NFT Owner  can call it.\n     *      This function allows to remove all ROLES at erc721 level: \n     *              Managers, ERC20Deployer, MetadataUpdater, StoreUpdater\n     *      Permissions at erc20 level stay.\n     */\n    \n    function cleanPermissions() external onlyNFTOwner {\n        _cleanPermissions();\n        //make sure that owner still has permissions\n        _addManager(ownerOf(1));\n    }\n\n\n  \n     /**\n     * @dev transferFrom \n     *      Used for transferring the NFT, can be used by an approved relayer\n            Even if we only have 1 tokenId, we leave it open as arguments for being a standard ERC721\n            @param from nft owner\n            @param to nft receiver\n            @param tokenId tokenId (1)\n     */\n\n    function transferFrom(\n        address from,\n        address to,\n        uint256 tokenId\n    ) external {\n        require(transferable, \"ERC721Template: Is non transferable\");\n        require(tokenId == 1, \"ERC721Template: Cannot transfer this tokenId\");\n        _cleanERC20Permissions(getAddressLength(deployedERC20List));\n        _cleanPermissions();\n        _addManager(to);\n          // we add the nft owner to all other roles (so that doesn't need to make multiple transactions)\n        Roles storage user = permissions[to];\n        user.updateMetadata = true;\n        user.deployERC20 = true;\n        user.store = true;\n        // no need to push to auth since it has been already added in _addManager()\n        _transferFrom(from, to, tokenId);\n        \n    }\n\n    /**\n     * @dev safeTransferFrom \n     *      Used for transferring the NFT, can be used by an approved relayer\n            Even if we only have 1 tokenId, we leave it open as arguments for being a standard ERC721\n            @param from nft owner\n            @param to nft receiver\n            @param tokenId tokenId (1)\n     */\n\n    function safeTransferFrom(address from, address to,uint256 tokenId) external {\n        require(transferable, \"ERC721Template: Is non transferable\");\n        require(tokenId == 1, \"ERC721Template: Cannot transfer this tokenId\");\n        _cleanERC20Permissions(getAddressLength(deployedERC20List));\n        _cleanPermissions();\n        _addManager(to);\n        // we add the nft owner to all other roles (so that doesn't need to make multiple transactions)\n        Roles storage user = permissions[to];\n        user.updateMetadata = true;\n        user.deployERC20 = true;\n        user.store = true;\n        // no need to push to auth since it has been already added in _addManager()\n        _safeTransferFrom(from, to, tokenId, \"\");\n        \n    }\n\n      /**\n     * @dev getAddressLength\n     *      It returns the array lentgh\n            @param array address array we want to get length\n     * @return length\n     */\n\n\n    function getAddressLength(address[] memory array)\n        private\n        pure\n        returns (uint256)\n    {\n        return array.length;\n    }\n\n      /**\n     * @dev _cleanERC20Permissions\n     *      Internal function used to clean permissions at ERC20 level when transferring the NFT\n            @param length lentgh of the deployedERC20List \n     */\n\n    function _cleanERC20Permissions(uint256 length) internal {\n        for (uint256 i = 0; i < length; i++) {\n            IERC20Template(deployedERC20List[i]).cleanFrom721();\n        }\n    }\n\n    /**\n     * @dev getId\n     *      Return template id in case we need different ABIs. \n     *      If you construct your own template, please make sure to change the hardcoded value\n     */\n    function getId() pure public returns (uint8) {\n        return 1;\n    }\n     /**\n     * @dev fallback function\n     *      this is a default fallback function in which receives\n     *      the collected ether.\n     */\n    fallback() external payable {}\n\n    /**\n     * @dev receive function\n     *      this is a default receive function in which receives\n     *      the collected ether.\n     */\n    receive() external payable {}\n\n    /**\n     * @dev withdrawETH\n     *      transfers all the accumlated ether the ownerOf\n     */\n    function withdrawETH() \n        external \n        payable\n    {\n        payable(ownerOf(1)).transfer(address(this).balance);\n    }\n\n    function getTokensList() external view returns (address[] memory) {\n        return deployedERC20List;\n    }\n    \n    function isDeployed(address datatoken) external view returns (bool) {\n        return deployedERC20[datatoken];\n    }\n\n    function setBaseURI(string memory _baseURI) external onlyNFTOwner {\n            defaultBaseURI = _baseURI;\n    }\n}","sourcePath":"contracts/oceanv4/templates/ERC721Template.sol","type":"contract","deployment":{"address":"0x471817de04FAa9B616ED7644117d957439717bF9","chainid":"80001","blockHeight":35336622}}