{"abi":[{"inputs":[{"internalType":"address","name":"_routerOwner","type":"address"},{"internalType":"address","name":"_oceanToken","type":"address"},{"internalType":"address","name":"_bpoolTemplate","type":"address"},{"internalType":"address","name":"_opcCollector","type":"address"},{"internalType":"address[]","name":"_preCreatedPools","type":"address[]"}],"stateMutability":"nonpayable","type":"constructor","name":"constructor"},{"anonymous":false,"inputs":[{"indexed":true,"internalType":"address","name":"newBPoolAddress","type":"address"},{"indexed":true,"internalType":"address","name":"registeredBy","type":"address"},{"indexed":true,"internalType":"address","name":"datatokenAddress","type":"address"},{"indexed":false,"internalType":"address","name":"baseTokenAddress","type":"address"},{"indexed":false,"internalType":"address","name":"bpoolTemplateAddress","type":"address"},{"indexed":false,"internalType":"address","name":"ssAddress","type":"address"}],"name":"BPoolCreated","type":"event"},{"anonymous":false,"inputs":[{"indexed":true,"internalType":"address","name":"caller","type":"address"},{"indexed":true,"internalType":"address","name":"contractAddress","type":"address"}],"name":"DispenserContractAdded","type":"event"},{"anonymous":false,"inputs":[{"indexed":true,"internalType":"address","name":"caller","type":"address"},{"indexed":true,"internalType":"address","name":"contractAddress","type":"address"}],"name":"DispenserContractRemoved","type":"event"},{"anonymous":false,"inputs":[{"indexed":true,"internalType":"address","name":"caller","type":"address"},{"indexed":true,"internalType":"address","name":"contractAddress","type":"address"}],"name":"FactoryContractChanged","type":"event"},{"anonymous":false,"inputs":[{"indexed":true,"internalType":"address","name":"caller","type":"address"},{"indexed":true,"internalType":"address","name":"contractAddress","type":"address"}],"name":"FixedRateContractAdded","type":"event"},{"anonymous":false,"inputs":[{"indexed":true,"internalType":"address","name":"caller","type":"address"},{"indexed":true,"internalType":"address","name":"contractAddress","type":"address"}],"name":"FixedRateContractRemoved","type":"event"},{"anonymous":false,"inputs":[{"indexed":false,"internalType":"address","name":"instance","type":"address"}],"name":"InstanceDeployed","type":"event"},{"anonymous":false,"inputs":[{"indexed":true,"internalType":"address","name":"poolAddress","type":"address"},{"indexed":false,"internalType":"bool","name":"isOcean","type":"bool"}],"name":"NewPool","type":"event"},{"anonymous":false,"inputs":[{"indexed":true,"internalType":"address","name":"caller","type":"address"},{"indexed":true,"internalType":"address","name":"_newOpcCollector","type":"address"}],"name":"OPCCollectorChanged","type":"event"},{"anonymous":false,"inputs":[{"indexed":true,"internalType":"address","name":"caller","type":"address"},{"indexed":false,"internalType":"uint256","name":"newSwapOceanFee","type":"uint256"},{"indexed":false,"internalType":"uint256","name":"newSwapNonOceanFee","type":"uint256"},{"indexed":false,"internalType":"uint256","name":"newConsumeFee","type":"uint256"},{"indexed":false,"internalType":"uint256","name":"newProviderFee","type":"uint256"}],"name":"OPCFeeChanged","type":"event"},{"anonymous":false,"inputs":[{"indexed":true,"internalType":"address","name":"caller","type":"address"},{"indexed":true,"internalType":"address","name":"contractAddress","type":"address"}],"name":"PoolTemplateAdded","type":"event"},{"anonymous":false,"inputs":[{"indexed":true,"internalType":"address","name":"caller","type":"address"},{"indexed":true,"internalType":"address","name":"contractAddress","type":"address"}],"name":"PoolTemplateRemoved","type":"event"},{"anonymous":false,"inputs":[{"indexed":true,"internalType":"address","name":"caller","type":"address"},{"indexed":true,"internalType":"address","name":"newRouter","type":"address"}],"name":"RouterChanged","type":"event"},{"anonymous":false,"inputs":[{"indexed":true,"internalType":"address","name":"caller","type":"address"},{"indexed":true,"internalType":"address","name":"contractAddress","type":"address"}],"name":"SSContractAdded","type":"event"},{"anonymous":false,"inputs":[{"indexed":true,"internalType":"address","name":"caller","type":"address"},{"indexed":true,"internalType":"address","name":"contractAddress","type":"address"}],"name":"SSContractRemoved","type":"event"},{"anonymous":false,"inputs":[{"indexed":true,"internalType":"address","name":"caller","type":"address"},{"indexed":true,"internalType":"address","name":"token","type":"address"}],"name":"TokenAdded","type":"event"},{"anonymous":false,"inputs":[{"indexed":true,"internalType":"address","name":"caller","type":"address"},{"indexed":true,"internalType":"address","name":"token","type":"address"}],"name":"TokenRemoved","type":"event"},{"anonymous":false,"inputs":[{"indexed":true,"internalType":"address","name":"caller","type":"address"},{"indexed":false,"internalType":"uint256","name":"minVestingPeriodInBlocks","type":"uint256"}],"name":"VestingPeriodChanges","type":"event"},{"inputs":[],"name":"BONE","outputs":[{"internalType":"uint256","name":"","type":"uint256"}],"stateMutability":"view","type":"function"},{"inputs":[],"name":"BPOW_PRECISION","outputs":[{"internalType":"uint256","name":"","type":"uint256"}],"stateMutability":"view","type":"function"},{"inputs":[],"name":"EXIT_FEE","outputs":[{"internalType":"uint256","name":"","type":"uint256"}],"stateMutability":"view","type":"function"},{"inputs":[],"name":"INIT_POOL_SUPPLY","outputs":[{"internalType":"uint256","name":"","type":"uint256"}],"stateMutability":"view","type":"function"},{"inputs":[],"name":"MAX_BOUND_TOKENS","outputs":[{"internalType":"uint256","name":"","type":"uint256"}],"stateMutability":"view","type":"function"},{"inputs":[],"name":"MAX_BPOW_BASE","outputs":[{"internalType":"uint256","name":"","type":"uint256"}],"stateMutability":"view","type":"function"},{"inputs":[],"name":"MAX_FEE","outputs":[{"internalType":"uint256","name":"","type":"uint256"}],"stateMutability":"view","type":"function"},{"inputs":[],"name":"MAX_IN_RATIO","outputs":[{"internalType":"uint256","name":"","type":"uint256"}],"stateMutability":"view","type":"function"},{"inputs":[],"name":"MAX_OUT_RATIO","outputs":[{"internalType":"uint256","name":"","type":"uint256"}],"stateMutability":"view","type":"function"},{"inputs":[],"name":"MAX_TOTAL_WEIGHT","outputs":[{"internalType":"uint256","name":"","type":"uint256"}],"stateMutability":"view","type":"function"},{"inputs":[],"name":"MAX_WEIGHT","outputs":[{"internalType":"uint256","name":"","type":"uint256"}],"stateMutability":"view","type":"function"},{"inputs":[],"name":"MIN_BALANCE","outputs":[{"internalType":"uint256","name":"","type":"uint256"}],"stateMutability":"view","type":"function"},{"inputs":[],"name":"MIN_BOUND_TOKENS","outputs":[{"internalType":"uint256","name":"","type":"uint256"}],"stateMutability":"view","type":"function"},{"inputs":[],"name":"MIN_BPOW_BASE","outputs":[{"internalType":"uint256","name":"","type":"uint256"}],"stateMutability":"view","type":"function"},{"inputs":[],"name":"MIN_FEE","outputs":[{"internalType":"uint256","name":"","type":"uint256"}],"stateMutability":"view","type":"function"},{"inputs":[],"name":"MIN_WEIGHT","outputs":[{"internalType":"uint256","name":"","type":"uint256"}],"stateMutability":"view","type":"function"},{"inputs":[{"internalType":"address","name":"tokenAddress","type":"address"}],"name":"addApprovedToken","outputs":[],"stateMutability":"nonpayable","type":"function"},{"inputs":[{"internalType":"address","name":"_dispenser","type":"address"}],"name":"addDispenserContract","outputs":[],"stateMutability":"nonpayable","type":"function"},{"inputs":[{"internalType":"address","name":"_factory","type":"address"}],"name":"addFactory","outputs":[],"stateMutability":"nonpayable","type":"function"},{"inputs":[{"internalType":"address","name":"_fixedRate","type":"address"}],"name":"addFixedRateContract","outputs":[],"stateMutability":"nonpayable","type":"function"},{"inputs":[{"internalType":"address","name":"poolTemplate","type":"address"}],"name":"addPoolTemplate","outputs":[],"stateMutability":"nonpayable","type":"function"},{"inputs":[{"internalType":"address","name":"_ssContract","type":"address"}],"name":"addSSContract","outputs":[],"stateMutability":"nonpayable","type":"function"},{"inputs":[{"internalType":"uint256","name":"","type":"uint256"}],"name":"approvedTokens","outputs":[{"internalType":"address","name":"","type":"address"}],"stateMutability":"view","type":"function"},{"inputs":[{"components":[{"internalType":"bytes32","name":"exchangeIds","type":"bytes32"},{"internalType":"address","name":"source","type":"address"},{"internalType":"enum IFactoryRouter.operationType","name":"operation","type":"uint8"},{"internalType":"address","name":"tokenIn","type":"address"},{"internalType":"uint256","name":"amountsIn","type":"uint256"},{"internalType":"address","name":"tokenOut","type":"address"},{"internalType":"uint256","name":"amountsOut","type":"uint256"},{"internalType":"uint256","name":"maxPrice","type":"uint256"},{"internalType":"uint256","name":"swapMarketFee","type":"uint256"},{"internalType":"address","name":"marketFeeAddress","type":"address"}],"internalType":"struct IFactoryRouter.Operations[]","name":"_operations","type":"tuple[]"}],"name":"buyDTBatch","outputs":[],"stateMutability":"nonpayable","type":"function"},{"inputs":[{"internalType":"address","name":"_routerOwner","type":"address"}],"name":"changeRouterOwner","outputs":[],"stateMutability":"nonpayable","type":"function"},{"inputs":[],"name":"consumeFee","outputs":[{"internalType":"uint256","name":"","type":"uint256"}],"stateMutability":"view","type":"function"},{"inputs":[{"internalType":"address","name":"_dispenser","type":"address"},{"internalType":"address","name":"datatoken","type":"address"},{"internalType":"uint256","name":"maxTokens","type":"uint256"},{"internalType":"uint256","name":"maxBalance","type":"uint256"},{"internalType":"address","name":"owner","type":"address"},{"internalType":"address","name":"allowedSwapper","type":"address"}],"name":"deployDispenser","outputs":[],"stateMutability":"nonpayable","type":"function"},{"inputs":[{"internalType":"address","name":"fixedPriceAddress","type":"address"},{"internalType":"address[]","name":"addresses","type":"address[]"},{"internalType":"uint256[]","name":"uints","type":"uint256[]"}],"name":"deployFixedRate","outputs":[{"internalType":"bytes32","name":"exchangeId","type":"bytes32"}],"stateMutability":"nonpayable","type":"function"},{"inputs":[{"internalType":"address[2]","name":"tokens","type":"address[2]"},{"internalType":"uint256[]","name":"ssParams","type":"uint256[]"},{"internalType":"uint256[]","name":"swapFees","type":"uint256[]"},{"internalType":"address[]","name":"addresses","type":"address[]"}],"name":"deployPool","outputs":[{"internalType":"address","name":"","type":"address"}],"stateMutability":"nonpayable","type":"function"},{"inputs":[{"internalType":"uint256","name":"","type":"uint256"}],"name":"dispensers","outputs":[{"internalType":"address","name":"","type":"address"}],"stateMutability":"view","type":"function"},{"inputs":[],"name":"factory","outputs":[{"internalType":"address","name":"","type":"address"}],"stateMutability":"view","type":"function"},{"inputs":[],"name":"fixedRate","outputs":[{"internalType":"address","name":"","type":"address"}],"stateMutability":"view","type":"function"},{"inputs":[{"internalType":"uint256","name":"","type":"uint256"}],"name":"fixedrates","outputs":[{"internalType":"address","name":"","type":"address"}],"stateMutability":"view","type":"function"},{"inputs":[],"name":"getApprovedTokens","outputs":[{"internalType":"address[]","name":"","type":"address[]"}],"stateMutability":"view","type":"function"},{"inputs":[],"name":"getDispensersContracts","outputs":[{"internalType":"address[]","name":"","type":"address[]"}],"stateMutability":"view","type":"function"},{"inputs":[],"name":"getFixedRatesContracts","outputs":[{"internalType":"address[]","name":"","type":"address[]"}],"stateMutability":"view","type":"function"},{"inputs":[],"name":"getMinVestingPeriod","outputs":[{"internalType":"uint256","name":"","type":"uint256"}],"stateMutability":"view","type":"function"},{"inputs":[],"name":"getOPCCollector","outputs":[{"internalType":"address","name":"","type":"address"}],"stateMutability":"view","type":"function"},{"inputs":[],"name":"getOPCConsumeFee","outputs":[{"internalType":"uint256","name":"","type":"uint256"}],"stateMutability":"view","type":"function"},{"inputs":[{"internalType":"address","name":"baseToken","type":"address"}],"name":"getOPCFee","outputs":[{"internalType":"uint256","name":"","type":"uint256"}],"stateMutability":"view","type":"function"},{"inputs":[],"name":"getOPCFees","outputs":[{"internalType":"uint256","name":"","type":"uint256"},{"internalType":"uint256","name":"","type":"uint256"}],"stateMutability":"view","type":"function"},{"inputs":[],"name":"getOPCProviderFee","outputs":[{"internalType":"uint256","name":"","type":"uint256"}],"stateMutability":"view","type":"function"},{"inputs":[],"name":"getPoolTemplates","outputs":[{"internalType":"address[]","name":"","type":"address[]"}],"stateMutability":"view","type":"function"},{"inputs":[],"name":"getSSContracts","outputs":[{"internalType":"address[]","name":"","type":"address[]"}],"stateMutability":"view","type":"function"},{"inputs":[{"internalType":"address","name":"tokenAddress","type":"address"}],"name":"isApprovedToken","outputs":[{"internalType":"bool","name":"","type":"bool"}],"stateMutability":"view","type":"function"},{"inputs":[{"internalType":"address","name":"_dispenser","type":"address"}],"name":"isDispenserContract","outputs":[{"internalType":"bool","name":"","type":"bool"}],"stateMutability":"view","type":"function"},{"inputs":[{"internalType":"address","name":"_fixedRate","type":"address"}],"name":"isFixedRateContract","outputs":[{"internalType":"bool","name":"","type":"bool"}],"stateMutability":"view","type":"function"},{"inputs":[{"internalType":"address","name":"poolTemplate","type":"address"}],"name":"isPoolTemplate","outputs":[{"internalType":"bool","name":"","type":"bool"}],"stateMutability":"view","type":"function"},{"inputs":[{"internalType":"address","name":"_ssContract","type":"address"}],"name":"isSSContract","outputs":[{"internalType":"bool","name":"","type":"bool"}],"stateMutability":"view","type":"function"},{"inputs":[],"name":"minVestingPeriodInBlocks","outputs":[{"internalType":"uint256","name":"","type":"uint256"}],"stateMutability":"view","type":"function"},{"inputs":[],"name":"opcCollector","outputs":[{"internalType":"address","name":"","type":"address"}],"stateMutability":"view","type":"function"},{"inputs":[{"internalType":"uint256","name":"","type":"uint256"}],"name":"poolTemplates","outputs":[{"internalType":"address","name":"","type":"address"}],"stateMutability":"view","type":"function"},{"inputs":[],"name":"providerFee","outputs":[{"internalType":"uint256","name":"","type":"uint256"}],"stateMutability":"view","type":"function"},{"inputs":[{"internalType":"address","name":"tokenAddress","type":"address"}],"name":"removeApprovedToken","outputs":[],"stateMutability":"nonpayable","type":"function"},{"inputs":[{"internalType":"address","name":"_dispenser","type":"address"}],"name":"removeDispenserContract","outputs":[],"stateMutability":"nonpayable","type":"function"},{"inputs":[{"internalType":"address","name":"_fixedRate","type":"address"}],"name":"removeFixedRateContract","outputs":[],"stateMutability":"nonpayable","type":"function"},{"inputs":[{"internalType":"address","name":"poolTemplate","type":"address"}],"name":"removePoolTemplate","outputs":[],"stateMutability":"nonpayable","type":"function"},{"inputs":[{"internalType":"address","name":"_ssContract","type":"address"}],"name":"removeSSContract","outputs":[],"stateMutability":"nonpayable","type":"function"},{"inputs":[],"name":"routerOwner","outputs":[{"internalType":"address","name":"","type":"address"}],"stateMutability":"view","type":"function"},{"inputs":[{"internalType":"uint256","name":"","type":"uint256"}],"name":"ssContracts","outputs":[{"internalType":"address","name":"","type":"address"}],"stateMutability":"view","type":"function"},{"inputs":[{"components":[{"internalType":"address","name":"poolAddress","type":"address"},{"internalType":"uint256","name":"tokenAmountIn","type":"uint256"},{"internalType":"uint256","name":"minPoolAmountOut","type":"uint256"}],"internalType":"struct IFactoryRouter.Stakes[]","name":"_stakes","type":"tuple[]"}],"name":"stakeBatch","outputs":[],"stateMutability":"nonpayable","type":"function"},{"inputs":[],"name":"swapNonOceanFee","outputs":[{"internalType":"uint256","name":"","type":"uint256"}],"stateMutability":"view","type":"function"},{"inputs":[],"name":"swapOceanFee","outputs":[{"internalType":"uint256","name":"","type":"uint256"}],"stateMutability":"view","type":"function"},{"inputs":[{"internalType":"uint256","name":"_newPeriod","type":"uint256"}],"name":"updateMinVestingPeriod","outputs":[],"stateMutability":"nonpayable","type":"function"},{"inputs":[{"internalType":"address","name":"_opcCollector","type":"address"}],"name":"updateOPCCollector","outputs":[],"stateMutability":"nonpayable","type":"function"},{"inputs":[{"internalType":"uint256","name":"_newSwapOceanFee","type":"uint256"},{"internalType":"uint256","name":"_newSwapNonOceanFee","type":"uint256"},{"internalType":"uint256","name":"_newConsumeFee","type":"uint256"},{"internalType":"uint256","name":"_newProviderFee","type":"uint256"}],"name":"updateOPCFee","outputs":[],"stateMutability":"nonpayable","type":"function"}],"bytecode":"60806040526225049060055566038d7ea4c6800060065566071afd498d0000600755666a94d74f43000060085560006009553480156200003e57600080fd5b5060405162004ee938038062004ee983398101604081905262000061916200062d565b8282826001600160a01b038316620000d65760405162461bcd60e51b815260206004820152602d60248201527f42466163746f72793a20696e76616c69642062706f6f6c2074656d706c61746560448201526c207a65726f206164647265737360981b60648201526084015b60405180910390fd5b6001600160a01b0382166200012e5760405162461bcd60e51b815260206004820152601660248201527f42466163746f72793a207a65726f2061646472657373000000000000000000006044820152606401620000cd565b600080546001600160a01b0319166001600160a01b03841617905562000154836200037f565b805115620002035760005b8151811015620002015760006001600160a01b0316336001600160a01b03168383815181106200019357620001936200074d565b602090810291909101810151604080516000808252938101849052908101929092526001600160a01b0316907fbb6121447d29a04cc37bfd93cdf6a9dd08229f2d941116c1528f04698c4e790e9060600160405180910390a480620001f88162000763565b9150506200015f565b505b5050506001600160a01b0385166200026a5760405162461bcd60e51b815260206004820152602360248201527f466163746f7279526f757465723a20496e76616c696420726f75746572206f776044820152623732b960e91b6064820152608401620000cd565b6001600160a01b038216620002ce5760405162461bcd60e51b815260206004820152602360248201527f466163746f7279526f757465723a20496e76616c6964206f7063436f6c6c65636044820152623a37b960e91b6064820152608401620000cd565b6001600160a01b038416620003395760405162461bcd60e51b815260206004820152602a60248201527f466163746f7279526f757465723a20496e76616c6964204f6365616e20546f6b604482015269656e206164647265737360b01b6064820152608401620000cd565b600280546001600160a01b038088166001600160a01b0319928316179092556000805492851692909116919091179055620003748462000476565b50505050506200078d565b6001600160a01b038116620003eb5760405162461bcd60e51b815260206004820152602b60248201527f466163746f7279526f757465723a20496e76616c696420706f6f6c54656d706c60448201526a617465206164647265737360a81b6064820152608401620000cd565b620003f68162000501565b620004735760018054808201825560009182527fb10e2d527612073b26eecdfd717e6a320cf44b4afac2b0732d9fcbe2b7fa0cf60180546001600160a01b0319166001600160a01b038416908117909155604051909133917fc3674c32cbec94fe266aab7ef71f65b9bf77e1ed501d4f2bece8752f5352e9ac9190a35b50565b62000481816200051f565b6200047357600a805460018101825560009182527fc65a7bb8d6351c1cf70c95a316cc6a92839c986682d98bc35f958f4883f9d2a80180546001600160a01b0319166001600160a01b038416908117909155604051909133917fdffbd9ded1c09446f09377de547142dcce7dc541c8b0b028142b1eba7026b9e79190a350565b600062000519826200059160201b620030361760201c565b92915050565b6000805b600a548110156200058857826001600160a01b0316600a82815481106200054e576200054e6200074d565b6000918252602090912001546001600160a01b03161415620005735750600192915050565b806200057f8162000763565b91505062000523565b50600092915050565b6000805b6001548110156200058857826001600160a01b031660018281548110620005c057620005c06200074d565b6000918252602090912001546001600160a01b03161415620005e55750600192915050565b80620005f18162000763565b91505062000595565b80516001600160a01b03811681146200061257600080fd5b919050565b634e487b7160e01b600052604160045260246000fd5b600080600080600060a086880312156200064657600080fd5b6200065186620005fa565b9450602062000662818801620005fa565b94506200067260408801620005fa565b93506200068260608801620005fa565b60808801519093506001600160401b0380821115620006a057600080fd5b818901915089601f830112620006b557600080fd5b815181811115620006ca57620006ca62000617565b8060051b604051601f19603f83011681018181108582111715620006f257620006f262000617565b60405291825284820192508381018501918c8311156200071157600080fd5b938501935b828510156200073a576200072a85620005fa565b8452938501939285019262000716565b8096505050505050509295509295909350565b634e487b7160e01b600052603260045260246000fd5b60006000198214156200078657634e487b7160e01b600052601160045260246000fd5b5060010190565b61474c806200079d6000396000f3fe608060405234801561001057600080fd5b50600436106103e65760003560e01c8063858ab5961161020a578063c45a015511610125578063e183fb3f116100b8578063e525f99c11610087578063e525f99c14610782578063ec09302114610795578063ecdda5881461079d578063ee3bc635146107b0578063fca24bc6146107c357600080fd5b8063e183fb3f1461075d578063e193faad14610766578063e2bdeefa14610779578063e4a28a521461041b57600080fd5b8063cd10534b116100f4578063cd10534b14610709578063d629a00a1461071c578063dce2d0df1461072f578063de9a95a71461074a57600080fd5b8063c45a0155146106dc578063c6580d12146106ef578063c6e983d9146106f7578063cb870cbf1461070057600080fd5b8063b7b800a41161019d578063bc694ea21161016c578063bc694ea2146106ae578063bfa04b85146106b6578063c07c00fe146106c9578063c36596a6146104bd57600080fd5b8063b7b800a41461065d578063b8421e2b1461068b578063ba019dab1461069e578063bc063e1a146106a657600080fd5b80639f2c010a116101d95780639f2c010a1461064a578063b0e0d1361461065d578063b19aaac614610665578063b66806fb1461067857600080fd5b8063858ab5961461061f578063867378c5146106325780639381cd2b1461063a578063992e2a921461064257600080fd5b8063475030c0116103055780636cdf90a1116102985780637cbf85bf116102675780637cbf85bf146105cb5780637d28354d146105de578063802d1422146105e657806382449375146105f95780638552730a1461060c57600080fd5b80636cdf90a114610595578063737e5ca0146105a85780637521aff9146105b057806376c7a3c7146105c357600080fd5b80635705987a116102d45780635705987a1461055f5780636afc0c5f146105725780636c45e8811461057a5780636c9fb6121461058257600080fd5b8063475030c01461052857806347e140941461053157806350cbbe7614610544578063510f34651461055757600080fd5b80631dafede01161037d5780632d5ad3d51161034c5780632d5ad3d5146104e7578063335b7fa2146104fa578063415792081461050d57806346104ea81461052057600080fd5b80631dafede0146104aa578063218b5382146104bd578063241c7a6d146104cc57806329ce1ec5146104d457600080fd5b806316592614116103b9578063165926141461046957806316d9cb3d1461047e578063189d00ca146104915780631a81876d1461049957600080fd5b806303814238146103eb57806309a3bbe41461041b57806315c25dd51461043157806315d4c9eb14610454575b600080fd5b6000546103fe906001600160a01b031681565b6040516001600160a01b0390911681526020015b60405180910390f35b6104236107d6565b604051908152602001610412565b61044461043f366004613cc2565b6107ec565b6040519015158152602001610412565b61045c610856565b6040516104129190613cdf565b61047c610477366004613cc2565b6108b8565b005b61047c61048c366004613cc2565b610a60565b610423610b39565b6000546001600160a01b03166103fe565b6103fe6104b8366004613d2c565b610b50565b610423670de0b6b3a764000081565b61045c610b7a565b61047c6104e2366004613cc2565b610b89565b6104446104f5366004613cc2565b610cb4565b6103fe610508366004613d2c565b610d15565b61047c61051b366004613cc2565b610d25565b61045c610dfc565b61042360055481565b61047c61053f366004613cc2565b610e5c565b6103fe610552366004613d2c565b610ffa565b600554610423565b61047c61056d366004613cc2565b61100a565b61045c6111eb565b600954610423565b61047c610590366004613cc2565b61124b565b6104446105a3366004613cc2565b611323565b61045c611384565b61047c6105be366004613d2c565b6113e4565b61042361144b565b6103fe6105d9366004613d2c565b61145f565b600854610423565b6004546103fe906001600160a01b031681565b610423610607366004613d91565b61146f565b6002546103fe906001600160a01b031681565b61047c61062d366004613e14565b6115e1565b6104236119e5565b6104236119fc565b610423611a0f565b61047c610658366004613cc2565b611a2d565b610423600281565b61047c610673366004613cc2565b611bcb565b6103fe610686366004613d2c565b611bfe565b610423610699366004613cc2565b611c0e565b610423600181565b610423611c33565b610423611c46565b61047c6106c4366004613e89565b611c65565b6104446106d7366004613cc2565b611cf3565b6003546103fe906001600160a01b031681565b610423600081565b61042360095481565b61042360075481565b61047c610717366004613cc2565b611d04565b61047c61072a366004613ebb565b611d37565b60065460075460408051928352602083019190915201610412565b61047c610758366004613cc2565b611ea7565b61042360065481565b61047c610774366004613cc2565b611f7f565b61042360085481565b61047c610790366004613cc2565b611fb2565b61042361207e565b61047c6107ab366004613f2b565b612091565b6103fe6107be366004613f8f565b612c33565b6104446107d1366004613cc2565b612fd5565b6107e9670de0b6b3a76400006032614055565b81565b6000805b600b5481101561084d57826001600160a01b0316600b828154811061081757610817614074565b6000918252602090912001546001600160a01b0316141561083b5750600192915050565b806108458161408a565b9150506107f0565b50600092915050565b6060600d8054806020026020016040519081016040528092919081815260200182805480156108ae57602002820191906000526020600020905b81546001600160a01b03168152600190910190602001808311610890575b5050505050905090565b6002546001600160a01b031633146108eb5760405162461bcd60e51b81526004016108e2906140a5565b60405180910390fd5b6001600160a01b0381166109115760405162461bcd60e51b81526004016108e2906140d5565b60005b600d5481101561096d57816001600160a01b0316600d828154811061093b5761093b614074565b6000918252602090912001546001600160a01b0316141561095b5761096d565b806109658161408a565b915050610914565b600d54811015610a5c57600d80546109879060019061411e565b8154811061099757610997614074565b600091825260209091200154600d80546001600160a01b0390921691839081106109c3576109c3614074565b9060005260206000200160006101000a8154816001600160a01b0302191690836001600160a01b03160217905550600d805480610a0257610a02614135565b600082815260208120820160001990810180546001600160a01b03191690559091019091556040516001600160a01b0384169133917f63fe522dcdc5f006279afe8840a87398bb3d0dbb906b848866195859621908b39190a35b5050565b6002546001600160a01b03163314610a8a5760405162461bcd60e51b81526004016108e2906140a5565b6001600160a01b038116610ab05760405162461bcd60e51b81526004016108e29061414b565b610ab981611323565b610b3657600c805460018101825560009182527fdf6966c971051c3d54ec59162606531493a51404a002842f56009d7e5cf4a8c70180546001600160a01b0319166001600160a01b038416908117909155604051909133917f45ccb9b9d6b112eb7a38daf6a23bda8b4c8449d5cf64a034975a5beb8cdd37b39190a35b50565b6107e96402540be400670de0b6b3a7640000614194565b600a8181548110610b6057600080fd5b6000918252602090912001546001600160a01b0316905081565b6060610b84613097565b905090565b6002546001600160a01b03163314610bb35760405162461bcd60e51b81526004016108e2906140a5565b6001600160a01b038116610c195760405162461bcd60e51b815260206004820152602760248201527f466163746f7279526f757465723a20496e76616c6964205f666163746f7279206044820152666164647265737360c81b60648201526084016108e2565b6003546001600160a01b031615610c685760405162461bcd60e51b8152602060048201526013602482015272119050d513d49648105314915051164814d155606a1b60448201526064016108e2565b600380546001600160a01b0319166001600160a01b03831690811790915560405133907f1f869f1ddaa0e2e3652252b3394c05c805f54a0d5f7fb6975f785ae4f91e587190600090a350565b6000805b600a5481101561084d57826001600160a01b0316600a8281548110610cdf57610cdf614074565b6000918252602090912001546001600160a01b03161415610d035750600192915050565b80610d0d8161408a565b915050610cb8565b600d8181548110610b6057600080fd5b6002546001600160a01b03163314610d4f5760405162461bcd60e51b81526004016108e2906140a5565b6001600160a01b038116610db15760405162461bcd60e51b8152602060048201526024808201527f4e6577206f7063436f6c6c6563746f722063616e6e6f74206265205a45524f5f60448201526320a2222960e11b60648201526084016108e2565b600080546001600160a01b0319166001600160a01b0383169081178255604051909133917fbadc0056fc46a437b2d0a4e9ae17a4f964e18972b5f2455b98b7331c1401a80f9190a350565b6060600c8054806020026020016040519081016040528092919081815260200182805480156108ae576020028201919060005260206000209081546001600160a01b03168152600190910190602001808311610890575050505050905090565b6002546001600160a01b03163314610e865760405162461bcd60e51b81526004016108e2906140a5565b6001600160a01b038116610eac5760405162461bcd60e51b81526004016108e2906141b6565b60005b600b54811015610f0857816001600160a01b0316600b8281548110610ed657610ed6614074565b6000918252602090912001546001600160a01b03161415610ef657610f08565b80610f008161408a565b915050610eaf565b600b54811015610a5c57600b8054610f229060019061411e565b81548110610f3257610f32614074565b600091825260209091200154600b80546001600160a01b039092169183908110610f5e57610f5e614074565b9060005260206000200160006101000a8154816001600160a01b0302191690836001600160a01b03160217905550600b805480610f9d57610f9d614135565b600082815260208120820160001990810180546001600160a01b03191690559091019091556040516001600160a01b0384169133917f7df5d17d768be6563796784637c80bc9204e2af0bc4ba8630f5aa2fed96ea4879190a35050565b60018181548110610b6057600080fd5b6002546001600160a01b031633146110345760405162461bcd60e51b81526004016108e2906140a5565b6001600160a01b03811661109d5760405162461bcd60e51b815260206004820152602a60248201527f466163746f7279526f757465723a20496e76616c6964204f6365616e20546f6b604482015269656e206164647265737360b01b60648201526084016108e2565b60005b600a548110156110f957816001600160a01b0316600a82815481106110c7576110c7614074565b6000918252602090912001546001600160a01b031614156110e7576110f9565b806110f18161408a565b9150506110a0565b600a54811015610a5c57600a80546111139060019061411e565b8154811061112357611123614074565b600091825260209091200154600a80546001600160a01b03909216918390811061114f5761114f614074565b9060005260206000200160006101000a8154816001600160a01b0302191690836001600160a01b03160217905550600a80548061118e5761118e614135565b600082815260208120820160001990810180546001600160a01b03191690559091019091556040516001600160a01b0384169133917fbbe55b1ff108e23e5ff1a6f5d36946eec15ec0ca0ded2bfed4cdcf697ca904609190a35050565b6060600a8054806020026020016040519081016040528092919081815260200182805480156108ae576020028201919060005260206000209081546001600160a01b03168152600190910190602001808311610890575050505050905090565b6002546001600160a01b031633146112755760405162461bcd60e51b81526004016108e2906140a5565b6001600160a01b03811661129b5760405162461bcd60e51b81526004016108e2906141b6565b6112a4816107ec565b610b3657600b805460018101825560009182527f0175b7a638427703f0dbe7bb9bbf987a2551717b34e79f33b5b1008d1fa01db90180546001600160a01b0319166001600160a01b038416908117909155604051909133917fcef3ce01f85c030161b431114e41e463297b68f169c1013c526b1cbc5747e5449190a350565b6000805b600c5481101561084d57826001600160a01b0316600c828154811061134e5761134e614074565b6000918252602090912001546001600160a01b031614156113725750600192915050565b8061137c8161408a565b915050611327565b6060600b8054806020026020016040519081016040528092919081815260200182805480156108ae576020028201919060005260206000209081546001600160a01b03168152600190910190602001808311610890575050505050905090565b6002546001600160a01b0316331461140e5760405162461bcd60e51b81526004016108e2906140a5565b600581905560405181815233907f5ee73342e684c0b848562c301fa2dc6b0146b266cfa12d4219fb04b316f7a4759060200160405180910390a250565b6107e9612710670de0b6b3a7640000614194565b600b8181548110610b6057600080fd5b60035460405163226e761560e01b81523360048201526000916001600160a01b03169063226e761590602401602060405180830381865afa1580156114b8573d6000803e3d6000fd5b505050506040513d601f19601f820116820180604052508101906114dc9190614210565b6114f85760405162461bcd60e51b81526004016108e29061422b565b61150186611323565b6115605760405162461bcd60e51b815260206004820152602a60248201527f464143544f525920524f555445523a20496e76616c696420466978656450726960448201526918d950dbdb9d1c9858dd60b21b60648201526084016108e2565b60405163012c327560e01b81526001600160a01b0387169063012c3275906115949033908990899089908990600401614276565b6020604051808303816000875af11580156115b3573d6000803e3d6000fd5b505050506040513d601f19601f820116820180604052508101906115d79190614305565b9695505050505050565b60328111156116025760405162461bcd60e51b81526004016108e29061431e565b60005b818110156119e057600083838381811061162157611621614074565b6116379260206060909202019081019150613cc2565b6001600160a01b0316634df947d06040518163ffffffff1660e01b8152600401602060405180830381865afa158015611674573d6000803e3d6000fd5b505050506040513d601f19601f820116820180604052508101906116989190614360565b90506116c18133308787878181106116b2576116b2614074565b905060600201602001356130f7565b60008484848181106116d5576116d5614074565b6116eb9260206060909202019081019150613cc2565b6040516370a0823160e01b81523060048201526001600160a01b0391909116906370a0823190602401602060405180830381865afa158015611731573d6000803e3d6000fd5b505050506040513d601f19601f820116820180604052508101906117559190614305565b90506117b785858581811061176c5761176c614074565b6117829260206060909202019081019150613cc2565b86868681811061179457611794614074565b90506060020160200135846001600160a01b03166132459092919063ffffffff16565b60008585858181106117cb576117cb614074565b6117e19260206060909202019081019150613cc2565b6001600160a01b0316638329ab3387878781811061180157611801614074565b9050606002016020013588888881811061181d5761181d614074565b905060600201604001356040518363ffffffff1660e01b815260040161184d929190918252602082015260400190565b6020604051808303816000875af115801561186c573d6000803e3d6000fd5b505050506040513d601f19601f820116820180604052508101906118909190614305565b90508585858181106118a4576118a4614074565b905060600201604001358110156118ed5760405162461bcd60e51b815260206004820152600d60248201526c04e4f5420454e4f554748204c5609c1b60448201526064016108e2565b600086868681811061190157611901614074565b6119179260206060909202019081019150613cc2565b6040516370a0823160e01b81523060048201526001600160a01b0391909116906370a0823190602401602060405180830381865afa15801561195d573d6000803e3d6000fd5b505050506040513d601f19601f820116820180604052508101906119819190614305565b90506119c9336119918386613330565b8989898181106119a3576119a3614074565b6119b99260206060909202019081019150613cc2565b6001600160a01b03169190613343565b5050505080806119d89061408a565b915050611605565b505050565b6107e964e8d4a51000670de0b6b3a7640000614194565b6107e9670de0b6b3a76400006064614055565b611a226002670de0b6b3a7640000614194565b6107e990600161437d565b6002546001600160a01b03163314611a575760405162461bcd60e51b81526004016108e2906140a5565b6001600160a01b038116611a7d5760405162461bcd60e51b81526004016108e29061414b565b60005b600c54811015611ad957816001600160a01b0316600c8281548110611aa757611aa7614074565b6000918252602090912001546001600160a01b03161415611ac757611ad9565b80611ad18161408a565b915050611a80565b600c54811015610a5c57600c8054611af39060019061411e565b81548110611b0357611b03614074565b600091825260209091200154600c80546001600160a01b039092169183908110611b2f57611b2f614074565b9060005260206000200160006101000a8154816001600160a01b0302191690836001600160a01b03160217905550600c805480611b6e57611b6e614135565b600082815260208120820160001990810180546001600160a01b03191690559091019091556040516001600160a01b0384169133917ff1ec0697329a2e8de8cf055335547acc40fbace8712fc77aeea1ea2afbcf7e3b9190a35050565b6002546001600160a01b03163314611bf55760405162461bcd60e51b81526004016108e2906140a5565b610b3681613373565b600c8181548110610b6057600080fd5b6000611c1982610cb4565b15611c2657505060065490565b505060075490565b919050565b6107e9600a670de0b6b3a7640000614194565b6001611c5b670de0b6b3a76400006002614055565b6107e9919061411e565b6002546001600160a01b03163314611c8f5760405162461bcd60e51b81526004016108e2906140a5565b600684905560078390556008829055600981905560408051858152602081018590529081018390526060810182905233907fe6171cf0506862c0a0185f8c21dca979859d4eb63186eff63f1b3dd14926be7b9060800160405180910390a250505050565b6000611cfe82613036565b92915050565b6002546001600160a01b03163314611d2e5760405162461bcd60e51b81526004016108e2906140a5565b610b3681613464565b60035460405163226e761560e01b81523360048201526001600160a01b039091169063226e761590602401602060405180830381865afa158015611d7f573d6000803e3d6000fd5b505050506040513d601f19601f82011682018060405250810190611da39190614210565b611dbf5760405162461bcd60e51b81526004016108e29061422b565b611dc886612fd5565b611e265760405162461bcd60e51b815260206004820152602960248201527f464143544f525920524f555445523a20496e76616c69642044697370656e73656044820152681c90dbdb9d1c9858dd60ba1b60648201526084016108e2565b6040516324ce291760e01b81526001600160a01b0386811660048301526024820186905260448201859052838116606483015282811660848301528716906324ce29179060a401600060405180830381600087803b158015611e8757600080fd5b505af1158015611e9b573d6000803e3d6000fd5b50505050505050505050565b6002546001600160a01b03163314611ed15760405162461bcd60e51b81526004016108e2906140a5565b6001600160a01b038116611ef75760405162461bcd60e51b81526004016108e2906140d5565b611f0081612fd5565b610b3657600d805460018101825560009182527fd7b6990105719101dabeb77144f2a3385c8033acd3af97e9423a695e81ad1eb50180546001600160a01b0319166001600160a01b038416908117909155604051909133917f78be9d87a7b2c8707b044dbf5b04c3f747b692c55ec34dcd1d7357736478789c9190a350565b6002546001600160a01b03163314611fa95760405162461bcd60e51b81526004016108e2906140a5565b610b36816134ec565b6002546001600160a01b03163314611fdc5760405162461bcd60e51b81526004016108e2906140a5565b6001600160a01b0381166120325760405162461bcd60e51b815260206004820152601860248201527f496e76616c6964206e657720726f75746572206f776e6572000000000000000060448201526064016108e2565b600280546001600160a01b0319166001600160a01b03831690811790915560405133907fc736654a613824c69968e0ec25ac1a428ccd49e15c28e97b5dfd2c6059757e2a90600090a350565b6107e96002670de0b6b3a7640000614194565b60328111156120b25760405162461bcd60e51b81526004016108e29061431e565b60005b818110156119e057600060405180606001604052808585858181106120dc576120dc614074565b9050610140020160600160208101906120f59190613cc2565b6001600160a01b0316815260200185858581811061211557612115614074565b9050610140020160a001602081019061212e9190613cc2565b6001600160a01b0316815260200185858581811061214e5761214e614074565b905061014002016101200160208101906121689190613cc2565b6001600160a01b03166001600160a01b031681525090506000604051806080016040528086868681811061219e5761219e614074565b905061014002016080013581526020018686868181106121c0576121c0614074565b9050610140020160c0013581526020018686868181106121e2576121e2614074565b9050610140020160e00135815260200186868681811061220457612204614074565b90506101400201610100013581525090506000600381111561222857612228614395565b85858581811061223a5761223a614074565b90506101400201604001602081019061225391906143ab565b600381111561226457612264614395565b1415612417576122bc85858581811061227f5761227f614074565b9050610140020160600160208101906122989190613cc2565b33308888888181106122ac576122ac614074565b90506101400201608001356130f7565b6123428585858181106122d1576122d1614074565b9050610140020160200160208101906122ea9190613cc2565b8686868181106122fc576122fc614074565b905061014002016080013587878781811061231957612319614074565b9050610140020160600160208101906123329190613cc2565b6001600160a01b03169190613245565b600085858581811061235657612356614074565b90506101400201602001602081019061236f9190613cc2565b6001600160a01b031663c421a3fc84846040518363ffffffff1660e01b815260040161239c9291906143cc565b60408051808303816000875af11580156123ba573d6000803e3d6000fd5b505050506040513d601f19601f820116820180604052508101906123de9190614431565b50905061241133828888888181106123f8576123f8614074565b9050610140020160a00160208101906119b99190613cc2565b50612c1e565b600185858581811061242b5761242b614074565b90506101400201604001602081019061244491906143ab565b600381111561245557612455614395565b141561274757600085858581811061246f5761246f614074565b9050610140020160200160208101906124889190613cc2565b6001600160a01b031663caa011488787878181106124a8576124a8614074565b9050610140020160600160208101906124c19190613cc2565b8888888181106124d3576124d3614074565b9050610140020160a00160208101906124ec9190613cc2565b8989898181106124fe576124fe614074565b9050610140020160c001358a8a8a81811061251b5761251b614074565b6040516001600160e01b031960e089901b1681526001600160a01b039687166004820152959094166024860152506044840191909152610100610140909202010135606482015260840160a060405180830381865afa158015612582573d6000803e3d6000fd5b505050506040513d601f19601f820116820180604052508101906125a69190614455565b509293506125e69250889150879050868181106125c5576125c5614074565b9050610140020160600160208101906125de9190613cc2565b3330846130f7565b6126278686868181106125fb576125fb614074565b9050610140020160200160208101906126149190613cc2565b8288888881811061231957612319614074565b600086868681811061263b5761263b614074565b9050610140020160200160208101906126549190613cc2565b6001600160a01b031663c98a59cf85856040518363ffffffff1660e01b81526004016126819291906143cc565b60408051808303816000875af115801561269f573d6000803e3d6000fd5b505050506040513d601f19601f820116820180604052508101906126c39190614431565b50835190915081111561270d5760405162461bcd60e51b81526020600482015260126024820152712a27a79026a0a72c902a27a5a2a7299024a760711b60448201526064016108e2565b6127403388888881811061272357612723614074565b9050610140020160c001358989898181106123f8576123f8614074565b5050612c1e565b600285858581811061275b5761275b614074565b90506101400201604001602081019061277491906143ab565b600381111561278557612785614395565b1415612b3557600085858581811061279f5761279f614074565b9050610140020160200160208101906127b89190613cc2565b6001600160a01b0316634c87087d8787878181106127d8576127d8614074565b90506101400201600001356040518263ffffffff1660e01b815260040161280191815260200190565b61018060405180830381865afa15801561281f573d6000803e3d6000fd5b505050506040513d601f19601f820116820180604052508101906128439190614495565b50505050505050505050915050600086868681811061286457612864614074565b90506101400201602001602081019061287d9190613cc2565b6001600160a01b031663dd1bc96a88888881811061289d5761289d614074565b90506101400201600001358989898181106128ba576128ba614074565b9050610140020160c001358a8a8a8181106128d7576128d7614074565b6040516001600160e01b031960e088901b16815260048101959095526024850193909352506101006101409092020101356044820152606401608060405180830381865afa15801561292d573d6000803e3d6000fd5b505050506040513d601f19601f820116820180604052508101906129519190614549565b505050905061296b8787878181106125c5576125c5614074565b6129ac87878781811061298057612980614074565b9050610140020160200160208101906129999190613cc2565b8289898981811061231957612319614074565b8686868181106129be576129be614074565b9050610140020160200160208101906129d79190613cc2565b6001600160a01b03166368c4b7e98888888181106129f7576129f7614074565b9050610140020160000135898989818110612a1457612a14614074565b9050610140020160c001358a8a8a818110612a3157612a31614074565b90506101400201608001358b8b8b818110612a4e57612a4e614074565b90506101400201610120016020810190612a689190613cc2565b8c8c8c818110612a7a57612a7a614074565b6040516001600160e01b031960e08a901b168152600481019790975260248701959095525060448501929092526001600160a01b03166064840152610100610140909202010135608482015260a401600060405180830381600087803b158015612ae357600080fd5b505af1158015612af7573d6000803e3d6000fd5b5050505061274033888888818110612b1157612b11614074565b9050610140020160c00135846001600160a01b03166133439092919063ffffffff16565b848484818110612b4757612b47614074565b905061014002016020016020810190612b609190613cc2565b6001600160a01b0316631d746d83868686818110612b8057612b80614074565b9050610140020160a0016020810190612b999190613cc2565b878787818110612bab57612bab614074565b60405160e086901b6001600160e01b03191681526001600160a01b03949094166004850152610140029190910160c00135602483015250336044820152606401600060405180830381600087803b158015612c0557600080fd5b505af1158015612c19573d6000803e3d6000fd5b505050505b50508080612c2b9061408a565b9150506120b5565b60035460405163226e761560e01b81523360048201526000916001600160a01b03169063226e761590602401602060405180830381865afa158015612c7c573d6000803e3d6000fd5b505050506040513d601f19601f82011682018060405250810190612ca09190614210565b612cbc5760405162461bcd60e51b81526004016108e29061422b565b612ce783836000818110612cd257612cd2614074565b905060200201602081019061043f9190613cc2565b612d3e5760405162461bcd60e51b815260206004820152602260248201527f464143544f525920524f555445523a20696e76616c6964207373436f6e74726160448201526118dd60f21b60648201526084016108e2565b600087876001818110612d5357612d53614074565b9050602002013511612d985760405162461bcd60e51b815260206004820152600e60248201526d57726f6e6720646563696d616c7360901b60448201526064016108e2565b612e1a612dab60408a0160208b01613cc2565b84846002818110612dbe57612dbe614074565b9050602002016020810190612dd39190613cc2565b85856000818110612de657612de6614074565b9050602002016020810190612dfb9190613cc2565b8a8a6004818110612e0e57612e0e614074565b905060200201356130f7565b604080518082018252600091612edd91908b90600290839083908082843760009201919091525050604080516020808d0282810182019093528c82529092508c918c9182919085019084908082843760009201919091525050604080516020808d0282810182019093528c82529093508c92508b91829185019084908082843760009201919091525050604080516020808c0282810182019093528b82529093508b92508a91829185019084908082843760009201919091525061365b92505050565b90506001600160a01b038116612f2d5760405162461bcd60e51b8152602060048201526015602482015274119052531151081513c81111541313d6481413d3d3605a1b60448201526064016108e2565b612f406104f560408b0160208c01613cc2565b15612f8957604051600181526001600160a01b038216907f90279d7790471e260411db76079630dfaa838fc987d29ae7aa7dc1bcd773ef2e9060200160405180910390a2612fc9565b604051600081526001600160a01b038216907f90279d7790471e260411db76079630dfaa838fc987d29ae7aa7dc1bcd773ef2e9060200160405180910390a25b98975050505050505050565b6000805b600d5481101561084d57826001600160a01b0316600d828154811061300057613000614074565b6000918252602090912001546001600160a01b031614156130245750600192915050565b8061302e8161408a565b915050612fd9565b6000805b60015481101561084d57826001600160a01b03166001828154811061306157613061614074565b6000918252602090912001546001600160a01b031614156130855750600192915050565b8061308f8161408a565b91505061303a565b606060018054806020026020016040519081016040528092919081815260200182805480156108ae576020028201919060005260206000209081546001600160a01b03168152600190910190602001808311610890575050505050905090565b6040516370a0823160e01b81526001600160a01b038381166004830152600091908616906370a0823190602401602060405180830381865afa158015613141573d6000803e3d6000fd5b505050506040513d601f19601f820116820180604052508101906131659190614305565b905061317c6001600160a01b03861685858561398f565b61318681836139c7565b6040516370a0823160e01b81526001600160a01b0385811660048301528716906370a0823190602401602060405180830381865afa1580156131cc573d6000803e3d6000fd5b505050506040513d601f19601f820116820180604052508101906131f09190614305565b101561323e5760405162461bcd60e51b815260206004820152601a60248201527f5472616e7366657220616d6f756e7420697320746f6f206c6f7700000000000060448201526064016108e2565b5050505050565b604051636eb1769f60e11b81523060048201526001600160a01b038381166024830152600091839186169063dd62ed3e90604401602060405180830381865afa158015613296573d6000803e3d6000fd5b505050506040513d601f19601f820116820180604052508101906132ba9190614305565b6132c4919061437d565b6040516001600160a01b03851660248201526044810182905290915061332a90859063095ea7b360e01b906064015b60408051601f198184030181529190526020810180516001600160e01b03166001600160e01b0319909316929092179091526139d3565b50505050565b600061333c828461411e565b9392505050565b6040516001600160a01b0383166024820152604481018290526119e090849063a9059cbb60e01b906064016132f3565b6001600160a01b0381166133dd5760405162461bcd60e51b815260206004820152602b60248201527f466163746f7279526f757465723a20496e76616c696420706f6f6c54656d706c60448201526a617465206164647265737360a81b60648201526084016108e2565b6133e681611cf3565b610b365760018054808201825560009182527fb10e2d527612073b26eecdfd717e6a320cf44b4afac2b0732d9fcbe2b7fa0cf60180546001600160a01b0319166001600160a01b038416908117909155604051909133917fc3674c32cbec94fe266aab7ef71f65b9bf77e1ed501d4f2bece8752f5352e9ac9190a350565b61346d81610cb4565b610b3657600a805460018101825560009182527fc65a7bb8d6351c1cf70c95a316cc6a92839c986682d98bc35f958f4883f9d2a80180546001600160a01b0319166001600160a01b038416908117909155604051909133917fdffbd9ded1c09446f09377de547142dcce7dc541c8b0b028142b1eba7026b9e79190a350565b60005b60015481101561354857816001600160a01b03166001828154811061351657613516614074565b6000918252602090912001546001600160a01b0316141561353657613548565b806135408161408a565b9150506134ef565b600154811015610a5c57805b60018054613562919061411e565b8110156135ec576001613575828261437d565b8154811061358557613585614074565b600091825260209091200154600180546001600160a01b0390921691839081106135b1576135b1614074565b600091825260209091200180546001600160a01b0319166001600160a01b0392909216919091179055806135e48161408a565b915050613554565b5060018054806135fe576135fe614135565b600082815260208120820160001990810180546001600160a01b03191690559091019091556040516001600160a01b0384169133917fc73fd5d40669565e257cbcd153784617ef26acfcc9fead31e68c0dce3ce82fb29190a35050565b60006136808260058151811061367357613673614074565b6020026020010151611cf3565b6136cc5760405162461bcd60e51b815260206004820152601d60248201527f42466163746f72793a2057726f6e6720506f6f6c2054656d706c61746500000060448201526064016108e2565b60006040518060200160405280846004815181106136ec576136ec614074565b60200260200101516001600160a01b03166001600160a01b0316815250905061372e8360058151811061372157613721614074565b6020026020010151613aa5565b91506001600160a01b0382166137925760405162461bcd60e51b8152602060048201526024808201527f42466163746f72793a20696e76616c69642062706f6f6c207a65726f206164646044820152637265737360e01b60648201526084016108e2565b6000829050806001600160a01b031663284e97a9856000815181106137b9576137b9614074565b602002602001015130886000808d896040518863ffffffff1660e01b81526004016137ea97969594939291906145e6565b6020604051808303816000875af1158015613809573d6000803e3d6000fd5b505050506040513d601f19601f8201168201806040525081019061382d9190614210565b6138705760405162461bcd60e51b815260206004820152601460248201527311549497d253925512505312569157d09413d3d360621b60448201526064016108e2565b8360008151811061388357613883614074565b60200260200101516001600160a01b03166383b87e5a886000600281106138ac576138ac614074565b6020020151896001602002015186886003815181106138cd576138cd614074565b60200260200101518b6040518663ffffffff1660e01b81526004016138f695949392919061465f565b6020604051808303816000875af1158015613915573d6000803e3d6000fd5b505050506040513d601f19601f820116820180604052508101906139399190614210565b6139855760405162461bcd60e51b815260206004820152601a60248201527f4552525f494e495449414c495a455f534944455354414b494e4700000000000060448201526064016108e2565b5050949350505050565b6040516001600160a01b038085166024830152831660448201526064810182905261332a9085906323b872dd60e01b906084016132f3565b600061333c828461437d565b6000613a28826040518060400160405280602081526020017f5361666545524332303a206c6f772d6c6576656c2063616c6c206661696c6564815250856001600160a01b0316613b359092919063ffffffff16565b8051909150156119e05780806020019051810190613a469190614210565b6119e05760405162461bcd60e51b815260206004820152602a60248201527f5361666545524332303a204552433230206f7065726174696f6e20646964206e6044820152691bdd081cdd58d8d9595960b21b60648201526084016108e2565b6000808260601b9050604051733d602d80600a3d3981f3363d3d373d3d3d363d7360601b81528160148201526e5af43d82803e903d91602b57fd5bf360881b60288201526037816000f06040516001600160a01b03821681529093507f117c72e6c25f0a072e36e148df71468ce2f3dbe7defec5b2c257a6e3eb65278c915060200160405180910390a150919050565b6060613b448484600085613b4c565b949350505050565b606082471015613bad5760405162461bcd60e51b815260206004820152602660248201527f416464726573733a20696e73756666696369656e742062616c616e636520666f6044820152651c8818d85b1b60d21b60648201526084016108e2565b843b613bfb5760405162461bcd60e51b815260206004820152601d60248201527f416464726573733a2063616c6c20746f206e6f6e2d636f6e747261637400000060448201526064016108e2565b600080866001600160a01b03168587604051613c1791906146c7565b60006040518083038185875af1925050503d8060008114613c54576040519150601f19603f3d011682016040523d82523d6000602084013e613c59565b606091505b5091509150613c69828286613c74565b979650505050505050565b60608315613c8357508161333c565b825115613c935782518084602001fd5b8160405162461bcd60e51b81526004016108e291906146e3565b6001600160a01b0381168114610b3657600080fd5b600060208284031215613cd457600080fd5b813561333c81613cad565b6020808252825182820181905260009190848201906040850190845b81811015613d205783516001600160a01b031683529284019291840191600101613cfb565b50909695505050505050565b600060208284031215613d3e57600080fd5b5035919050565b60008083601f840112613d5757600080fd5b50813567ffffffffffffffff811115613d6f57600080fd5b6020830191508360208260051b8501011115613d8a57600080fd5b9250929050565b600080600080600060608688031215613da957600080fd5b8535613db481613cad565b9450602086013567ffffffffffffffff80821115613dd157600080fd5b613ddd89838a01613d45565b90965094506040880135915080821115613df657600080fd5b50613e0388828901613d45565b969995985093965092949392505050565b60008060208385031215613e2757600080fd5b823567ffffffffffffffff80821115613e3f57600080fd5b818501915085601f830112613e5357600080fd5b813581811115613e6257600080fd5b866020606083028501011115613e7757600080fd5b60209290920196919550909350505050565b60008060008060808587031215613e9f57600080fd5b5050823594602084013594506040840135936060013592509050565b60008060008060008060c08789031215613ed457600080fd5b8635613edf81613cad565b95506020870135613eef81613cad565b945060408701359350606087013592506080870135613f0d81613cad565b915060a0870135613f1d81613cad565b809150509295509295509295565b60008060208385031215613f3e57600080fd5b823567ffffffffffffffff80821115613f5657600080fd5b818501915085601f830112613f6a57600080fd5b813581811115613f7957600080fd5b86602061014083028501011115613e7757600080fd5b600080600080600080600060a0888a031215613faa57600080fd5b6040880189811115613fbb57600080fd5b8897503567ffffffffffffffff80821115613fd557600080fd5b613fe18b838c01613d45565b909850965060608a0135915080821115613ffa57600080fd5b6140068b838c01613d45565b909650945060808a013591508082111561401f57600080fd5b5061402c8a828b01613d45565b989b979a50959850939692959293505050565b634e487b7160e01b600052601160045260246000fd5b600081600019048311821515161561406f5761406f61403f565b500290565b634e487b7160e01b600052603260045260246000fd5b600060001982141561409e5761409e61403f565b5060010190565b60208082526016908201527527b1b2b0b72937baba32b91d102727aa1027aba722a960511b604082015260600190565b60208082526029908201527f466163746f7279526f757465723a20496e76616c6964205f64697370656e736560408201526872206164647265737360b81b606082015260800190565b6000828210156141305761413061403f565b500390565b634e487b7160e01b600052603160045260246000fd5b60208082526029908201527f466163746f7279526f757465723a20496e76616c6964205f666978656452617460408201526865206164647265737360b81b606082015260800190565b6000826141b157634e487b7160e01b600052601260045260246000fd5b500490565b6020808252602a908201527f466163746f7279526f757465723a20496e76616c6964205f7373436f6e7472616040820152696374206164647265737360b01b606082015260800190565b80518015158114611c2e57600080fd5b60006020828403121561422257600080fd5b61333c82614200565b6020808252602b908201527f464143544f525920524f555445523a204e4f54204f524947494e414c2045524360408201526a32302054454d504c41544560a81b606082015260800190565b6001600160a01b03868116825260606020808401829052908301869052600091879160808501845b898110156142c55784356142b181613cad565b84168252938201939082019060010161429e565b5085810360408701528681526001600160fb1b038711156142e557600080fd5b8660051b9350838883830137600093010191825250979650505050505050565b60006020828403121561431757600080fd5b5051919050565b60208082526022908201527f466163746f7279526f757465723a20546f6f204d616e79204f7065726174696f6040820152616e7360f01b606082015260800190565b60006020828403121561437257600080fd5b815161333c81613cad565b600082198211156143905761439061403f565b500190565b634e487b7160e01b600052602160045260246000fd5b6000602082840312156143bd57600080fd5b81356004811061333c57600080fd5b60e08101818460005b60038110156143fd5781516001600160a01b03168352602092830192909101906001016143d5565b505050606082018360005b6004811015614427578151835260209283019290910190600101614408565b5050509392505050565b6000806040838503121561444457600080fd5b505080516020909101519092909150565b600080600080600060a0868803121561446d57600080fd5b5050835160208501516040860151606087015160809097015192989197509594509092509050565b6000806000806000806000806000806000806101808d8f0312156144b857600080fd5b8c516144c381613cad565b60208e0151909c506144d481613cad565b60408e015160608f0151919c509a506144ec81613cad565b60808e015160a08f0151919a509850965061450960c08e01614200565b955060e08d015194506101008d015193506101208d015192506101408d015191506145376101608e01614200565b90509295989b509295989b509295989b565b6000806000806080858703121561455f57600080fd5b505082516020840151604085015160609095015191969095509092509050565b600081518084526020808501945080840160005b838110156145af57815187529582019590820190600101614593565b509495945050505050565b8060005b600181101561332a5781516001600160a01b03168452602093840193909101906001016145be565b600061010060018060a01b03808b1684526020818b16818601528260408601526146128386018b61457f565b93508815156060860152871515608086015260a0850192508660005b600281101561464d57815184168552938201939082019060010161462e565b5050505050612fc960e08301846145ba565b6001600160a01b038681168252858116602083015284811660408301528316606082015260a060808201819052600090613c699083018461457f565b60005b838110156146b657818101518382015260200161469e565b8381111561332a5750506000910152565b600082516146d981846020870161469b565b9190910192915050565b602081526000825180602084015261470281604085016020870161469b565b601f01601f1916919091016040019291505056fea264697066735822122085288c01dc1fc1abadefca7ca32ec938b4000f85413e214fc8c09d2c7f48e0c164736f6c634300080c0033","bytecodeSha1":"1005ec2a7f9a2f49798ea3bedc527e32d0e38713","compiler":{"evm_version":"istanbul","optimizer":{"enabled":true,"runs":200},"version":"0.8.12+commit.f00d7308"},"contractName":"FactoryRouter","language":"Solidity","natspec":{"kind":"dev","methods":{"addApprovedToken(address)":{"details":"addApprovedToken      Adds a token to the list of tokens with reduced fees","params":{"tokenAddress":"address Token to be added"}},"addDispenserContract(address)":{"details":"addDispenserContract      Adds an address to the list of dispensers","params":{"_dispenser":"address Contract to be added"}},"addFixedRateContract(address)":{"details":"addFixedRateContract      Adds an address to the list of fixed rate contracts","params":{"_fixedRate":"address Contract to be added"}},"addPoolTemplate(address)":{"details":"addPoolTemplate      Adds an address to the list of pools templates","params":{"poolTemplate":"address Contract to be added"}},"addSSContract(address)":{"details":"addSSContract      Adds a token to the list of ssContracts","params":{"_ssContract":"address Contract to be added"}},"deployDispenser(address,address,uint256,uint256,address,address)":{"details":"deployDispenser      Activates a new Dispenser As for deployPool, this function cannot be called directly, but ONLY through the ERC20DT contract from a ERC20DEployer role","params":{"_dispenser":"dispenser contract address","allowedSwapper":"- if !=0, only this address can request DTs","datatoken":"refers to datatoken address.","maxBalance":"- max balance of requester.","maxTokens":"- max tokens to dispense","owner":"- owner"}},"deployFixedRate(address,address[],uint256[])":{"details":"deployFixedRate      Creates a new FixedRateExchange setup. As for deployPool, this function cannot be called directly, but ONLY through the ERC20DT contract from a ERC20DEployer role","params":{"addresses":"array of addresses [baseToken,owner,marketFeeCollector]","fixedPriceAddress":"fixedPriceAddress","uints":"array of uints [baseTokenDecimals,datatokenDecimals, fixedRate, marketFee, withMint]"},"returns":{"exchangeId":"exchangeId"}},"deployPool(address[2],uint256[],uint256[],address[])":{"details":"Deploys a new `OceanPool` on Ocean Friendly Fork modified for 1SS. This function cannot be called directly, but ONLY through the ERC20DT contract from a ERC20DEployer role ssContract address tokens [datatokenAddress, baseTokenAddress] publisherAddress user which will be assigned the vested amount.","params":{"addresses":"refers to an array of addresses passed by user                     [0]  = side staking contract address                     [1]  = baseToken address for pool creation(OCEAN or other)                     [2]  = baseTokenSender user which will provide the baseToken amount for initial liquidity                     [3]  = publisherAddress user which will be assigned the vested amount                     [4]  = marketFeeCollector marketFeeCollector address [5]  = poolTemplateAddress","ssParams":"params for the ssContract.                      [0]  = rate (wei)                     [1]  = baseToken decimals                     [2]  = vesting amount (wei)                     [3]  = vested blocks                     [4]  = initial liquidity in baseToken for pool creation","swapFees":"swapFees (swapFee, swapMarketFee), swapOceanFee will be set automatically later                     [0] = swapFee for LP Providers                     [1] = swapFee for marketplace runner .","tokens":"precreated parameter"},"returns":{"_0":"pool address"}},"getApprovedTokens()":{"details":"getApprovedTokens      Returns the list of tokens with reduced fees"},"getDispensersContracts()":{"details":"getDispensersContracts      Returns the list of fixed rate contracts"},"getFixedRatesContracts()":{"details":"getFixedRatesContracts      Returns the list of fixed rate contracts"},"getOPCConsumeFee()":{"details":"getConsumeFee      Gets OP Community Fee cuts for consume fees"},"getOPCFee(address)":{"details":"getOPCFee      Gets OP Community Fees for a particular token","params":{"baseToken":"address token to be checked"}},"getOPCFees()":{"details":"getOPCFees      Gets OP Community Fees for approved tokens and non approved tokens"},"getOPCProviderFee()":{"details":"getOPCProviderFee      Gets OP Community Fee cuts for provider fees"},"getSSContracts()":{"details":"getSSContracts      Returns the list of ssContracts"},"isApprovedToken(address)":{"details":"isApprovedToken      Returns true if token exists in the list of tokens with reduced fees","params":{"tokenAddress":"address Token to be checked"}},"isDispenserContract(address)":{"details":"isDispenserContract      Returns true if address exists in the list of dispensers","params":{"_dispenser":"address Contract to be checked"}},"isFixedRateContract(address)":{"details":"isFixedRateContract      Removes true if address exists in the list of fixed rate contracts","params":{"_fixedRate":"address Contract to be checked"}},"isSSContract(address)":{"details":"isSSContract      Returns true if token exists in the list of ssContracts","params":{"_ssContract":"address Contract to be checked"}},"removeApprovedToken(address)":{"details":"removeApprovedToken      Removes a token if exists from the list of tokens with reduced fees","params":{"tokenAddress":"address Token to be removed"}},"removeDispenserContract(address)":{"details":"removeDispenserContract      Removes an address from the list of dispensers","params":{"_dispenser":"address Contract to be removed"}},"removeFixedRateContract(address)":{"details":"removeFixedRateContract      Removes an address from the list of fixed rate contracts","params":{"_fixedRate":"address Contract to be removed"}},"removePoolTemplate(address)":{"details":"removePoolTemplate      Removes an address from the list of pool templates","params":{"poolTemplate":"address Contract to be removed"}},"removeSSContract(address)":{"details":"removeSSContract      Removes a token if exists from the list of ssContracts","params":{"_ssContract":"address Contract to be removed"}},"updateOPCFee(uint256,uint256,uint256,uint256)":{"details":"updateOPCFee      Updates OP Community Fees","params":{"_newConsumeFee":"Amount charged from consumeFees","_newProviderFee":"Amount charged for providerFees","_newSwapNonOceanFee":"Amount charged for swapping with non ocean approved tokens","_newSwapOceanFee":"Amount charged for swapping with ocean approved tokens"}}},"version":1},"opcodes":"PUSH1 0x80 PUSH1 0x40 MSTORE CALLVALUE DUP1 ISZERO PUSH2 0x10 JUMPI PUSH1 0x0 DUP1 REVERT JUMPDEST POP PUSH1 0x4 CALLDATASIZE LT PUSH2 0x3E6 JUMPI PUSH1 0x0 CALLDATALOAD PUSH1 0xE0 SHR DUP1 PUSH4 0x858AB596 GT PUSH2 0x20A JUMPI DUP1 PUSH4 0xC45A0155 GT PUSH2 0x125 JUMPI DUP1 PUSH4 0xE183FB3F GT PUSH2 0xB8 JUMPI DUP1 PUSH4 0xE525F99C GT PUSH2 0x87 JUMPI DUP1 PUSH4 0xE525F99C EQ PUSH2 0x782 JUMPI DUP1 PUSH4 0xEC093021 EQ PUSH2 0x795 JUMPI DUP1 PUSH4 0xECDDA588 EQ PUSH2 0x79D JUMPI DUP1 PUSH4 0xEE3BC635 EQ PUSH2 0x7B0 JUMPI DUP1 PUSH4 0xFCA24BC6 EQ PUSH2 0x7C3 JUMPI PUSH1 0x0 DUP1 REVERT JUMPDEST DUP1 PUSH4 0xE183FB3F EQ PUSH2 0x75D JUMPI DUP1 PUSH4 0xE193FAAD EQ PUSH2 0x766 JUMPI DUP1 PUSH4 0xE2BDEEFA EQ PUSH2 0x779 JUMPI DUP1 PUSH4 0xE4A28A52 EQ PUSH2 0x41B JUMPI PUSH1 0x0 DUP1 REVERT JUMPDEST DUP1 PUSH4 0xCD10534B GT PUSH2 0xF4 JUMPI DUP1 PUSH4 0xCD10534B EQ PUSH2 0x709 JUMPI DUP1 PUSH4 0xD629A00A EQ PUSH2 0x71C JUMPI DUP1 PUSH4 0xDCE2D0DF EQ PUSH2 0x72F JUMPI DUP1 PUSH4 0xDE9A95A7 EQ PUSH2 0x74A JUMPI PUSH1 0x0 DUP1 REVERT JUMPDEST DUP1 PUSH4 0xC45A0155 EQ PUSH2 0x6DC JUMPI DUP1 PUSH4 0xC6580D12 EQ PUSH2 0x6EF JUMPI DUP1 PUSH4 0xC6E983D9 EQ PUSH2 0x6F7 JUMPI DUP1 PUSH4 0xCB870CBF EQ PUSH2 0x700 JUMPI PUSH1 0x0 DUP1 REVERT JUMPDEST DUP1 PUSH4 0xB7B800A4 GT PUSH2 0x19D JUMPI DUP1 PUSH4 0xBC694EA2 GT PUSH2 0x16C JUMPI DUP1 PUSH4 0xBC694EA2 EQ PUSH2 0x6AE JUMPI DUP1 PUSH4 0xBFA04B85 EQ PUSH2 0x6B6 JUMPI DUP1 PUSH4 0xC07C00FE EQ PUSH2 0x6C9 JUMPI DUP1 PUSH4 0xC36596A6 EQ PUSH2 0x4BD JUMPI PUSH1 0x0 DUP1 REVERT JUMPDEST DUP1 PUSH4 0xB7B800A4 EQ PUSH2 0x65D JUMPI DUP1 PUSH4 0xB8421E2B EQ PUSH2 0x68B JUMPI DUP1 PUSH4 0xBA019DAB EQ PUSH2 0x69E JUMPI DUP1 PUSH4 0xBC063E1A EQ PUSH2 0x6A6 JUMPI PUSH1 0x0 DUP1 REVERT JUMPDEST DUP1 PUSH4 0x9F2C010A GT PUSH2 0x1D9 JUMPI DUP1 PUSH4 0x9F2C010A EQ PUSH2 0x64A JUMPI DUP1 PUSH4 0xB0E0D136 EQ PUSH2 0x65D JUMPI DUP1 PUSH4 0xB19AAAC6 EQ PUSH2 0x665 JUMPI DUP1 PUSH4 0xB66806FB EQ PUSH2 0x678 JUMPI PUSH1 0x0 DUP1 REVERT JUMPDEST DUP1 PUSH4 0x858AB596 EQ PUSH2 0x61F JUMPI DUP1 PUSH4 0x867378C5 EQ PUSH2 0x632 JUMPI DUP1 PUSH4 0x9381CD2B EQ PUSH2 0x63A JUMPI DUP1 PUSH4 0x992E2A92 EQ PUSH2 0x642 JUMPI PUSH1 0x0 DUP1 REVERT JUMPDEST DUP1 PUSH4 0x475030C0 GT PUSH2 0x305 JUMPI DUP1 PUSH4 0x6CDF90A1 GT PUSH2 0x298 JUMPI DUP1 PUSH4 0x7CBF85BF GT PUSH2 0x267 JUMPI DUP1 PUSH4 0x7CBF85BF EQ PUSH2 0x5CB JUMPI DUP1 PUSH4 0x7D28354D EQ PUSH2 0x5DE JUMPI DUP1 PUSH4 0x802D1422 EQ PUSH2 0x5E6 JUMPI DUP1 PUSH4 0x82449375 EQ PUSH2 0x5F9 JUMPI DUP1 PUSH4 0x8552730A EQ PUSH2 0x60C JUMPI PUSH1 0x0 DUP1 REVERT JUMPDEST DUP1 PUSH4 0x6CDF90A1 EQ PUSH2 0x595 JUMPI DUP1 PUSH4 0x737E5CA0 EQ PUSH2 0x5A8 JUMPI DUP1 PUSH4 0x7521AFF9 EQ PUSH2 0x5B0 JUMPI DUP1 PUSH4 0x76C7A3C7 EQ PUSH2 0x5C3 JUMPI PUSH1 0x0 DUP1 REVERT JUMPDEST DUP1 PUSH4 0x5705987A GT PUSH2 0x2D4 JUMPI DUP1 PUSH4 0x5705987A EQ PUSH2 0x55F JUMPI DUP1 PUSH4 0x6AFC0C5F EQ PUSH2 0x572 JUMPI DUP1 PUSH4 0x6C45E881 EQ PUSH2 0x57A JUMPI DUP1 PUSH4 0x6C9FB612 EQ PUSH2 0x582 JUMPI PUSH1 0x0 DUP1 REVERT JUMPDEST DUP1 PUSH4 0x475030C0 EQ PUSH2 0x528 JUMPI DUP1 PUSH4 0x47E14094 EQ PUSH2 0x531 JUMPI DUP1 PUSH4 0x50CBBE76 EQ PUSH2 0x544 JUMPI DUP1 PUSH4 0x510F3465 EQ PUSH2 0x557 JUMPI PUSH1 0x0 DUP1 REVERT JUMPDEST DUP1 PUSH4 0x1DAFEDE0 GT PUSH2 0x37D JUMPI DUP1 PUSH4 0x2D5AD3D5 GT PUSH2 0x34C JUMPI DUP1 PUSH4 0x2D5AD3D5 EQ PUSH2 0x4E7 JUMPI DUP1 PUSH4 0x335B7FA2 EQ PUSH2 0x4FA JUMPI DUP1 PUSH4 0x41579208 EQ PUSH2 0x50D JUMPI DUP1 PUSH4 0x46104EA8 EQ PUSH2 0x520 JUMPI PUSH1 0x0 DUP1 REVERT JUMPDEST DUP1 PUSH4 0x1DAFEDE0 EQ PUSH2 0x4AA JUMPI DUP1 PUSH4 0x218B5382 EQ PUSH2 0x4BD JUMPI DUP1 PUSH4 0x241C7A6D EQ PUSH2 0x4CC JUMPI DUP1 PUSH4 0x29CE1EC5 EQ PUSH2 0x4D4 JUMPI PUSH1 0x0 DUP1 REVERT JUMPDEST DUP1 PUSH4 0x16592614 GT PUSH2 0x3B9 JUMPI DUP1 PUSH4 0x16592614 EQ PUSH2 0x469 JUMPI DUP1 PUSH4 0x16D9CB3D EQ PUSH2 0x47E JUMPI DUP1 PUSH4 0x189D00CA EQ PUSH2 0x491 JUMPI DUP1 PUSH4 0x1A81876D EQ PUSH2 0x499 JUMPI PUSH1 0x0 DUP1 REVERT JUMPDEST DUP1 PUSH4 0x3814238 EQ PUSH2 0x3EB JUMPI DUP1 PUSH4 0x9A3BBE4 EQ PUSH2 0x41B JUMPI DUP1 PUSH4 0x15C25DD5 EQ PUSH2 0x431 JUMPI DUP1 PUSH4 0x15D4C9EB EQ PUSH2 0x454 JUMPI JUMPDEST PUSH1 0x0 DUP1 REVERT JUMPDEST PUSH1 0x0 SLOAD PUSH2 0x3FE SWAP1 PUSH1 0x1 PUSH1 0x1 PUSH1 0xA0 SHL SUB AND DUP2 JUMP JUMPDEST PUSH1 0x40 MLOAD PUSH1 0x1 PUSH1 0x1 PUSH1 0xA0 SHL SUB SWAP1 SWAP2 AND DUP2 MSTORE PUSH1 0x20 ADD JUMPDEST PUSH1 0x40 MLOAD DUP1 SWAP2 SUB SWAP1 RETURN JUMPDEST PUSH2 0x423 PUSH2 0x7D6 JUMP JUMPDEST PUSH1 0x40 MLOAD SWAP1 DUP2 MSTORE PUSH1 0x20 ADD PUSH2 0x412 JUMP JUMPDEST PUSH2 0x444 PUSH2 0x43F CALLDATASIZE PUSH1 0x4 PUSH2 0x3CC2 JUMP JUMPDEST PUSH2 0x7EC JUMP JUMPDEST PUSH1 0x40 MLOAD SWAP1 ISZERO ISZERO DUP2 MSTORE PUSH1 0x20 ADD PUSH2 0x412 JUMP JUMPDEST PUSH2 0x45C PUSH2 0x856 JUMP JUMPDEST PUSH1 0x40 MLOAD PUSH2 0x412 SWAP2 SWAP1 PUSH2 0x3CDF JUMP JUMPDEST PUSH2 0x47C PUSH2 0x477 CALLDATASIZE PUSH1 0x4 PUSH2 0x3CC2 JUMP JUMPDEST PUSH2 0x8B8 JUMP JUMPDEST STOP JUMPDEST PUSH2 0x47C PUSH2 0x48C CALLDATASIZE PUSH1 0x4 PUSH2 0x3CC2 JUMP JUMPDEST PUSH2 0xA60 JUMP JUMPDEST PUSH2 0x423 PUSH2 0xB39 JUMP JUMPDEST PUSH1 0x0 SLOAD PUSH1 0x1 PUSH1 0x1 PUSH1 0xA0 SHL SUB AND PUSH2 0x3FE JUMP JUMPDEST PUSH2 0x3FE PUSH2 0x4B8 CALLDATASIZE PUSH1 0x4 PUSH2 0x3D2C JUMP JUMPDEST PUSH2 0xB50 JUMP JUMPDEST PUSH2 0x423 PUSH8 0xDE0B6B3A7640000 DUP2 JUMP JUMPDEST PUSH2 0x45C PUSH2 0xB7A JUMP JUMPDEST PUSH2 0x47C PUSH2 0x4E2 CALLDATASIZE PUSH1 0x4 PUSH2 0x3CC2 JUMP JUMPDEST PUSH2 0xB89 JUMP JUMPDEST PUSH2 0x444 PUSH2 0x4F5 CALLDATASIZE PUSH1 0x4 PUSH2 0x3CC2 JUMP JUMPDEST PUSH2 0xCB4 JUMP JUMPDEST PUSH2 0x3FE PUSH2 0x508 CALLDATASIZE PUSH1 0x4 PUSH2 0x3D2C JUMP JUMPDEST PUSH2 0xD15 JUMP JUMPDEST PUSH2 0x47C PUSH2 0x51B CALLDATASIZE PUSH1 0x4 PUSH2 0x3CC2 JUMP JUMPDEST PUSH2 0xD25 JUMP JUMPDEST PUSH2 0x45C PUSH2 0xDFC JUMP JUMPDEST PUSH2 0x423 PUSH1 0x5 SLOAD DUP2 JUMP JUMPDEST PUSH2 0x47C PUSH2 0x53F CALLDATASIZE PUSH1 0x4 PUSH2 0x3CC2 JUMP JUMPDEST PUSH2 0xE5C JUMP JUMPDEST PUSH2 0x3FE PUSH2 0x552 CALLDATASIZE PUSH1 0x4 PUSH2 0x3D2C JUMP JUMPDEST PUSH2 0xFFA JUMP JUMPDEST PUSH1 0x5 SLOAD PUSH2 0x423 JUMP JUMPDEST PUSH2 0x47C PUSH2 0x56D CALLDATASIZE PUSH1 0x4 PUSH2 0x3CC2 JUMP JUMPDEST PUSH2 0x100A JUMP JUMPDEST PUSH2 0x45C PUSH2 0x11EB JUMP JUMPDEST PUSH1 0x9 SLOAD PUSH2 0x423 JUMP JUMPDEST PUSH2 0x47C PUSH2 0x590 CALLDATASIZE PUSH1 0x4 PUSH2 0x3CC2 JUMP JUMPDEST PUSH2 0x124B JUMP JUMPDEST PUSH2 0x444 PUSH2 0x5A3 CALLDATASIZE PUSH1 0x4 PUSH2 0x3CC2 JUMP JUMPDEST PUSH2 0x1323 JUMP JUMPDEST PUSH2 0x45C PUSH2 0x1384 JUMP JUMPDEST PUSH2 0x47C PUSH2 0x5BE CALLDATASIZE PUSH1 0x4 PUSH2 0x3D2C JUMP JUMPDEST PUSH2 0x13E4 JUMP JUMPDEST PUSH2 0x423 PUSH2 0x144B JUMP JUMPDEST PUSH2 0x3FE PUSH2 0x5D9 CALLDATASIZE PUSH1 0x4 PUSH2 0x3D2C JUMP JUMPDEST PUSH2 0x145F JUMP JUMPDEST PUSH1 0x8 SLOAD PUSH2 0x423 JUMP JUMPDEST PUSH1 0x4 SLOAD PUSH2 0x3FE SWAP1 PUSH1 0x1 PUSH1 0x1 PUSH1 0xA0 SHL SUB AND DUP2 JUMP JUMPDEST PUSH2 0x423 PUSH2 0x607 CALLDATASIZE PUSH1 0x4 PUSH2 0x3D91 JUMP JUMPDEST PUSH2 0x146F JUMP JUMPDEST PUSH1 0x2 SLOAD PUSH2 0x3FE SWAP1 PUSH1 0x1 PUSH1 0x1 PUSH1 0xA0 SHL SUB AND DUP2 JUMP JUMPDEST PUSH2 0x47C PUSH2 0x62D CALLDATASIZE PUSH1 0x4 PUSH2 0x3E14 JUMP JUMPDEST PUSH2 0x15E1 JUMP JUMPDEST PUSH2 0x423 PUSH2 0x19E5 JUMP JUMPDEST PUSH2 0x423 PUSH2 0x19FC JUMP JUMPDEST PUSH2 0x423 PUSH2 0x1A0F JUMP JUMPDEST PUSH2 0x47C PUSH2 0x658 CALLDATASIZE PUSH1 0x4 PUSH2 0x3CC2 JUMP JUMPDEST PUSH2 0x1A2D JUMP JUMPDEST PUSH2 0x423 PUSH1 0x2 DUP2 JUMP JUMPDEST PUSH2 0x47C PUSH2 0x673 CALLDATASIZE PUSH1 0x4 PUSH2 0x3CC2 JUMP JUMPDEST PUSH2 0x1BCB JUMP JUMPDEST PUSH2 0x3FE PUSH2 0x686 CALLDATASIZE PUSH1 0x4 PUSH2 0x3D2C JUMP JUMPDEST PUSH2 0x1BFE JUMP JUMPDEST PUSH2 0x423 PUSH2 0x699 CALLDATASIZE PUSH1 0x4 PUSH2 0x3CC2 JUMP JUMPDEST PUSH2 0x1C0E JUMP JUMPDEST PUSH2 0x423 PUSH1 0x1 DUP2 JUMP JUMPDEST PUSH2 0x423 PUSH2 0x1C33 JUMP JUMPDEST PUSH2 0x423 PUSH2 0x1C46 JUMP JUMPDEST PUSH2 0x47C PUSH2 0x6C4 CALLDATASIZE PUSH1 0x4 PUSH2 0x3E89 JUMP JUMPDEST PUSH2 0x1C65 JUMP JUMPDEST PUSH2 0x444 PUSH2 0x6D7 CALLDATASIZE PUSH1 0x4 PUSH2 0x3CC2 JUMP JUMPDEST PUSH2 0x1CF3 JUMP JUMPDEST PUSH1 0x3 SLOAD PUSH2 0x3FE SWAP1 PUSH1 0x1 PUSH1 0x1 PUSH1 0xA0 SHL SUB AND DUP2 JUMP JUMPDEST PUSH2 0x423 PUSH1 0x0 DUP2 JUMP JUMPDEST PUSH2 0x423 PUSH1 0x9 SLOAD DUP2 JUMP JUMPDEST PUSH2 0x423 PUSH1 0x7 SLOAD DUP2 JUMP JUMPDEST PUSH2 0x47C PUSH2 0x717 CALLDATASIZE PUSH1 0x4 PUSH2 0x3CC2 JUMP JUMPDEST PUSH2 0x1D04 JUMP JUMPDEST PUSH2 0x47C PUSH2 0x72A CALLDATASIZE PUSH1 0x4 PUSH2 0x3EBB JUMP JUMPDEST PUSH2 0x1D37 JUMP JUMPDEST PUSH1 0x6 SLOAD PUSH1 0x7 SLOAD PUSH1 0x40 DUP1 MLOAD SWAP3 DUP4 MSTORE PUSH1 0x20 DUP4 ADD SWAP2 SWAP1 SWAP2 MSTORE ADD PUSH2 0x412 JUMP JUMPDEST PUSH2 0x47C PUSH2 0x758 CALLDATASIZE PUSH1 0x4 PUSH2 0x3CC2 JUMP JUMPDEST PUSH2 0x1EA7 JUMP JUMPDEST PUSH2 0x423 PUSH1 0x6 SLOAD DUP2 JUMP JUMPDEST PUSH2 0x47C PUSH2 0x774 CALLDATASIZE PUSH1 0x4 PUSH2 0x3CC2 JUMP JUMPDEST PUSH2 0x1F7F JUMP JUMPDEST PUSH2 0x423 PUSH1 0x8 SLOAD DUP2 JUMP JUMPDEST PUSH2 0x47C PUSH2 0x790 CALLDATASIZE PUSH1 0x4 PUSH2 0x3CC2 JUMP JUMPDEST PUSH2 0x1FB2 JUMP JUMPDEST PUSH2 0x423 PUSH2 0x207E JUMP JUMPDEST PUSH2 0x47C PUSH2 0x7AB CALLDATASIZE PUSH1 0x4 PUSH2 0x3F2B JUMP JUMPDEST PUSH2 0x2091 JUMP JUMPDEST PUSH2 0x3FE PUSH2 0x7BE CALLDATASIZE PUSH1 0x4 PUSH2 0x3F8F JUMP JUMPDEST PUSH2 0x2C33 JUMP JUMPDEST PUSH2 0x444 PUSH2 0x7D1 CALLDATASIZE PUSH1 0x4 PUSH2 0x3CC2 JUMP JUMPDEST PUSH2 0x2FD5 JUMP JUMPDEST PUSH2 0x7E9 PUSH8 0xDE0B6B3A7640000 PUSH1 0x32 PUSH2 0x4055 JUMP JUMPDEST DUP2 JUMP JUMPDEST PUSH1 0x0 DUP1 JUMPDEST PUSH1 0xB SLOAD DUP2 LT ISZERO PUSH2 0x84D JUMPI DUP3 PUSH1 0x1 PUSH1 0x1 PUSH1 0xA0 SHL SUB AND PUSH1 0xB DUP3 DUP2 SLOAD DUP2 LT PUSH2 0x817 JUMPI PUSH2 0x817 PUSH2 0x4074 JUMP JUMPDEST PUSH1 0x0 SWAP2 DUP3 MSTORE PUSH1 0x20 SWAP1 SWAP2 KECCAK256 ADD SLOAD PUSH1 0x1 PUSH1 0x1 PUSH1 0xA0 SHL SUB AND EQ ISZERO PUSH2 0x83B JUMPI POP PUSH1 0x1 SWAP3 SWAP2 POP POP JUMP JUMPDEST DUP1 PUSH2 0x845 DUP2 PUSH2 0x408A JUMP JUMPDEST SWAP2 POP POP PUSH2 0x7F0 JUMP JUMPDEST POP PUSH1 0x0 SWAP3 SWAP2 POP POP JUMP JUMPDEST PUSH1 0x60 PUSH1 0xD DUP1 SLOAD DUP1 PUSH1 0x20 MUL PUSH1 0x20 ADD PUSH1 0x40 MLOAD SWAP1 DUP2 ADD PUSH1 0x40 MSTORE DUP1 SWAP3 SWAP2 SWAP1 DUP2 DUP2 MSTORE PUSH1 0x20 ADD DUP3 DUP1 SLOAD DUP1 ISZERO PUSH2 0x8AE JUMPI PUSH1 0x20 MUL DUP3 ADD SWAP2 SWAP1 PUSH1 0x0 MSTORE PUSH1 0x20 PUSH1 0x0 KECCAK256 SWAP1 JUMPDEST DUP2 SLOAD PUSH1 0x1 PUSH1 0x1 PUSH1 0xA0 SHL SUB AND DUP2 MSTORE PUSH1 0x1 SWAP1 SWAP2 ADD SWAP1 PUSH1 0x20 ADD DUP1 DUP4 GT PUSH2 0x890 JUMPI JUMPDEST POP POP POP POP POP SWAP1 POP SWAP1 JUMP JUMPDEST PUSH1 0x2 SLOAD PUSH1 0x1 PUSH1 0x1 PUSH1 0xA0 SHL SUB AND CALLER EQ PUSH2 0x8EB JUMPI PUSH1 0x40 MLOAD PUSH3 0x461BCD PUSH1 0xE5 SHL DUP2 MSTORE PUSH1 0x4 ADD PUSH2 0x8E2 SWAP1 PUSH2 0x40A5 JUMP JUMPDEST PUSH1 0x40 MLOAD DUP1 SWAP2 SUB SWAP1 REVERT JUMPDEST PUSH1 0x1 PUSH1 0x1 PUSH1 0xA0 SHL SUB DUP2 AND PUSH2 0x911 JUMPI PUSH1 0x40 MLOAD PUSH3 0x461BCD PUSH1 0xE5 SHL DUP2 MSTORE PUSH1 0x4 ADD PUSH2 0x8E2 SWAP1 PUSH2 0x40D5 JUMP JUMPDEST PUSH1 0x0 JUMPDEST PUSH1 0xD SLOAD DUP2 LT ISZERO PUSH2 0x96D JUMPI DUP2 PUSH1 0x1 PUSH1 0x1 PUSH1 0xA0 SHL SUB AND PUSH1 0xD DUP3 DUP2 SLOAD DUP2 LT PUSH2 0x93B JUMPI PUSH2 0x93B PUSH2 0x4074 JUMP JUMPDEST PUSH1 0x0 SWAP2 DUP3 MSTORE PUSH1 0x20 SWAP1 SWAP2 KECCAK256 ADD SLOAD PUSH1 0x1 PUSH1 0x1 PUSH1 0xA0 SHL SUB AND EQ ISZERO PUSH2 0x95B JUMPI PUSH2 0x96D JUMP JUMPDEST DUP1 PUSH2 0x965 DUP2 PUSH2 0x408A JUMP JUMPDEST SWAP2 POP POP PUSH2 0x914 JUMP JUMPDEST PUSH1 0xD SLOAD DUP2 LT ISZERO PUSH2 0xA5C JUMPI PUSH1 0xD DUP1 SLOAD PUSH2 0x987 SWAP1 PUSH1 0x1 SWAP1 PUSH2 0x411E JUMP JUMPDEST DUP2 SLOAD DUP2 LT PUSH2 0x997 JUMPI PUSH2 0x997 PUSH2 0x4074 JUMP JUMPDEST PUSH1 0x0 SWAP2 DUP3 MSTORE PUSH1 0x20 SWAP1 SWAP2 KECCAK256 ADD SLOAD PUSH1 0xD DUP1 SLOAD PUSH1 0x1 PUSH1 0x1 PUSH1 0xA0 SHL SUB SWAP1 SWAP3 AND SWAP2 DUP4 SWAP1 DUP2 LT PUSH2 0x9C3 JUMPI PUSH2 0x9C3 PUSH2 0x4074 JUMP JUMPDEST SWAP1 PUSH1 0x0 MSTORE PUSH1 0x20 PUSH1 0x0 KECCAK256 ADD PUSH1 0x0 PUSH2 0x100 EXP DUP2 SLOAD DUP2 PUSH1 0x1 PUSH1 0x1 PUSH1 0xA0 SHL SUB MUL NOT AND SWAP1 DUP4 PUSH1 0x1 PUSH1 0x1 PUSH1 0xA0 SHL SUB AND MUL OR SWAP1 SSTORE POP PUSH1 0xD DUP1 SLOAD DUP1 PUSH2 0xA02 JUMPI PUSH2 0xA02 PUSH2 0x4135 JUMP JUMPDEST PUSH1 0x0 DUP3 DUP2 MSTORE PUSH1 0x20 DUP2 KECCAK256 DUP3 ADD PUSH1 0x0 NOT SWAP1 DUP2 ADD DUP1 SLOAD PUSH1 0x1 PUSH1 0x1 PUSH1 0xA0 SHL SUB NOT AND SWAP1 SSTORE SWAP1 SWAP2 ADD SWAP1 SWAP2 SSTORE PUSH1 0x40 MLOAD PUSH1 0x1 PUSH1 0x1 PUSH1 0xA0 SHL SUB DUP5 AND SWAP2 CALLER SWAP2 PUSH32 0x63FE522DCDC5F006279AFE8840A87398BB3D0DBB906B848866195859621908B3 SWAP2 SWAP1 LOG3 JUMPDEST POP POP JUMP JUMPDEST PUSH1 0x2 SLOAD PUSH1 0x1 PUSH1 0x1 PUSH1 0xA0 SHL SUB AND CALLER EQ PUSH2 0xA8A JUMPI PUSH1 0x40 MLOAD PUSH3 0x461BCD PUSH1 0xE5 SHL DUP2 MSTORE PUSH1 0x4 ADD PUSH2 0x8E2 SWAP1 PUSH2 0x40A5 JUMP JUMPDEST PUSH1 0x1 PUSH1 0x1 PUSH1 0xA0 SHL SUB DUP2 AND PUSH2 0xAB0 JUMPI PUSH1 0x40 MLOAD PUSH3 0x461BCD PUSH1 0xE5 SHL DUP2 MSTORE PUSH1 0x4 ADD PUSH2 0x8E2 SWAP1 PUSH2 0x414B JUMP JUMPDEST PUSH2 0xAB9 DUP2 PUSH2 0x1323 JUMP JUMPDEST PUSH2 0xB36 JUMPI PUSH1 0xC DUP1 SLOAD PUSH1 0x1 DUP2 ADD DUP3 SSTORE PUSH1 0x0 SWAP2 DUP3 MSTORE PUSH32 0xDF6966C971051C3D54EC59162606531493A51404A002842F56009D7E5CF4A8C7 ADD DUP1 SLOAD PUSH1 0x1 PUSH1 0x1 PUSH1 0xA0 SHL SUB NOT AND PUSH1 0x1 PUSH1 0x1 PUSH1 0xA0 SHL SUB DUP5 AND SWAP1 DUP2 OR SWAP1 SWAP2 SSTORE PUSH1 0x40 MLOAD SWAP1 SWAP2 CALLER SWAP2 PUSH32 0x45CCB9B9D6B112EB7A38DAF6A23BDA8B4C8449D5CF64A034975A5BEB8CDD37B3 SWAP2 SWAP1 LOG3 JUMPDEST POP JUMP JUMPDEST PUSH2 0x7E9 PUSH5 0x2540BE400 PUSH8 0xDE0B6B3A7640000 PUSH2 0x4194 JUMP JUMPDEST PUSH1 0xA DUP2 DUP2 SLOAD DUP2 LT PUSH2 0xB60 JUMPI PUSH1 0x0 DUP1 REVERT JUMPDEST PUSH1 0x0 SWAP2 DUP3 MSTORE PUSH1 0x20 SWAP1 SWAP2 KECCAK256 ADD SLOAD PUSH1 0x1 PUSH1 0x1 PUSH1 0xA0 SHL SUB AND SWAP1 POP DUP2 JUMP JUMPDEST PUSH1 0x60 PUSH2 0xB84 PUSH2 0x3097 JUMP JUMPDEST SWAP1 POP SWAP1 JUMP JUMPDEST PUSH1 0x2 SLOAD PUSH1 0x1 PUSH1 0x1 PUSH1 0xA0 SHL SUB AND CALLER EQ PUSH2 0xBB3 JUMPI PUSH1 0x40 MLOAD PUSH3 0x461BCD PUSH1 0xE5 SHL DUP2 MSTORE PUSH1 0x4 ADD PUSH2 0x8E2 SWAP1 PUSH2 0x40A5 JUMP JUMPDEST PUSH1 0x1 PUSH1 0x1 PUSH1 0xA0 SHL SUB DUP2 AND PUSH2 0xC19 JUMPI PUSH1 0x40 MLOAD PUSH3 0x461BCD PUSH1 0xE5 SHL DUP2 MSTORE PUSH1 0x20 PUSH1 0x4 DUP3 ADD MSTORE PUSH1 0x27 PUSH1 0x24 DUP3 ADD MSTORE PUSH32 0x466163746F7279526F757465723A20496E76616C6964205F666163746F727920 PUSH1 0x44 DUP3 ADD MSTORE PUSH7 0x61646472657373 PUSH1 0xC8 SHL PUSH1 0x64 DUP3 ADD MSTORE PUSH1 0x84 ADD PUSH2 0x8E2 JUMP JUMPDEST PUSH1 0x3 SLOAD PUSH1 0x1 PUSH1 0x1 PUSH1 0xA0 SHL SUB AND ISZERO PUSH2 0xC68 JUMPI PUSH1 0x40 MLOAD PUSH3 0x461BCD PUSH1 0xE5 SHL DUP2 MSTORE PUSH1 0x20 PUSH1 0x4 DUP3 ADD MSTORE PUSH1 0x13 PUSH1 0x24 DUP3 ADD MSTORE PUSH19 0x119050D513D49648105314915051164814D155 PUSH1 0x6A SHL PUSH1 0x44 DUP3 ADD MSTORE PUSH1 0x64 ADD PUSH2 0x8E2 JUMP JUMPDEST PUSH1 0x3 DUP1 SLOAD PUSH1 0x1 PUSH1 0x1 PUSH1 0xA0 SHL SUB NOT AND PUSH1 0x1 PUSH1 0x1 PUSH1 0xA0 SHL SUB DUP4 AND SWAP1 DUP2 OR SWAP1 SWAP2 SSTORE PUSH1 0x40 MLOAD CALLER SWAP1 PUSH32 0x1F869F1DDAA0E2E3652252B3394C05C805F54A0D5F7FB6975F785AE4F91E5871 SWAP1 PUSH1 0x0 SWAP1 LOG3 POP JUMP JUMPDEST PUSH1 0x0 DUP1 JUMPDEST PUSH1 0xA SLOAD DUP2 LT ISZERO PUSH2 0x84D JUMPI DUP3 PUSH1 0x1 PUSH1 0x1 PUSH1 0xA0 SHL SUB AND PUSH1 0xA DUP3 DUP2 SLOAD DUP2 LT PUSH2 0xCDF JUMPI PUSH2 0xCDF PUSH2 0x4074 JUMP JUMPDEST PUSH1 0x0 SWAP2 DUP3 MSTORE PUSH1 0x20 SWAP1 SWAP2 KECCAK256 ADD SLOAD PUSH1 0x1 PUSH1 0x1 PUSH1 0xA0 SHL SUB AND EQ ISZERO PUSH2 0xD03 JUMPI POP PUSH1 0x1 SWAP3 SWAP2 POP POP JUMP JUMPDEST DUP1 PUSH2 0xD0D DUP2 PUSH2 0x408A JUMP JUMPDEST SWAP2 POP POP PUSH2 0xCB8 JUMP JUMPDEST PUSH1 0xD DUP2 DUP2 SLOAD DUP2 LT PUSH2 0xB60 JUMPI PUSH1 0x0 DUP1 REVERT JUMPDEST PUSH1 0x2 SLOAD PUSH1 0x1 PUSH1 0x1 PUSH1 0xA0 SHL SUB AND CALLER EQ PUSH2 0xD4F JUMPI PUSH1 0x40 MLOAD PUSH3 0x461BCD PUSH1 0xE5 SHL DUP2 MSTORE PUSH1 0x4 ADD PUSH2 0x8E2 SWAP1 PUSH2 0x40A5 JUMP JUMPDEST PUSH1 0x1 PUSH1 0x1 PUSH1 0xA0 SHL SUB DUP2 AND PUSH2 0xDB1 JUMPI PUSH1 0x40 MLOAD PUSH3 0x461BCD PUSH1 0xE5 SHL DUP2 MSTORE PUSH1 0x20 PUSH1 0x4 DUP3 ADD MSTORE PUSH1 0x24 DUP1 DUP3 ADD MSTORE PUSH32 0x4E6577206F7063436F6C6C6563746F722063616E6E6F74206265205A45524F5F PUSH1 0x44 DUP3 ADD MSTORE PUSH4 0x20A22229 PUSH1 0xE1 SHL PUSH1 0x64 DUP3 ADD MSTORE PUSH1 0x84 ADD PUSH2 0x8E2 JUMP JUMPDEST PUSH1 0x0 DUP1 SLOAD PUSH1 0x1 PUSH1 0x1 PUSH1 0xA0 SHL SUB NOT AND PUSH1 0x1 PUSH1 0x1 PUSH1 0xA0 SHL SUB DUP4 AND SWAP1 DUP2 OR DUP3 SSTORE PUSH1 0x40 MLOAD SWAP1 SWAP2 CALLER SWAP2 PUSH32 0xBADC0056FC46A437B2D0A4E9AE17A4F964E18972B5F2455B98B7331C1401A80F SWAP2 SWAP1 LOG3 POP JUMP JUMPDEST PUSH1 0x60 PUSH1 0xC DUP1 SLOAD DUP1 PUSH1 0x20 MUL PUSH1 0x20 ADD PUSH1 0x40 MLOAD SWAP1 DUP2 ADD PUSH1 0x40 MSTORE DUP1 SWAP3 SWAP2 SWAP1 DUP2 DUP2 MSTORE PUSH1 0x20 ADD DUP3 DUP1 SLOAD DUP1 ISZERO PUSH2 0x8AE JUMPI PUSH1 0x20 MUL DUP3 ADD SWAP2 SWAP1 PUSH1 0x0 MSTORE PUSH1 0x20 PUSH1 0x0 KECCAK256 SWAP1 DUP2 SLOAD PUSH1 0x1 PUSH1 0x1 PUSH1 0xA0 SHL SUB AND DUP2 MSTORE PUSH1 0x1 SWAP1 SWAP2 ADD SWAP1 PUSH1 0x20 ADD DUP1 DUP4 GT PUSH2 0x890 JUMPI POP POP POP POP POP SWAP1 POP SWAP1 JUMP JUMPDEST PUSH1 0x2 SLOAD PUSH1 0x1 PUSH1 0x1 PUSH1 0xA0 SHL SUB AND CALLER EQ PUSH2 0xE86 JUMPI PUSH1 0x40 MLOAD PUSH3 0x461BCD PUSH1 0xE5 SHL DUP2 MSTORE PUSH1 0x4 ADD PUSH2 0x8E2 SWAP1 PUSH2 0x40A5 JUMP JUMPDEST PUSH1 0x1 PUSH1 0x1 PUSH1 0xA0 SHL SUB DUP2 AND PUSH2 0xEAC JUMPI PUSH1 0x40 MLOAD PUSH3 0x461BCD PUSH1 0xE5 SHL DUP2 MSTORE PUSH1 0x4 ADD PUSH2 0x8E2 SWAP1 PUSH2 0x41B6 JUMP JUMPDEST PUSH1 0x0 JUMPDEST PUSH1 0xB SLOAD DUP2 LT ISZERO PUSH2 0xF08 JUMPI DUP2 PUSH1 0x1 PUSH1 0x1 PUSH1 0xA0 SHL SUB AND PUSH1 0xB DUP3 DUP2 SLOAD DUP2 LT PUSH2 0xED6 JUMPI PUSH2 0xED6 PUSH2 0x4074 JUMP JUMPDEST PUSH1 0x0 SWAP2 DUP3 MSTORE PUSH1 0x20 SWAP1 SWAP2 KECCAK256 ADD SLOAD PUSH1 0x1 PUSH1 0x1 PUSH1 0xA0 SHL SUB AND EQ ISZERO PUSH2 0xEF6 JUMPI PUSH2 0xF08 JUMP JUMPDEST DUP1 PUSH2 0xF00 DUP2 PUSH2 0x408A JUMP JUMPDEST SWAP2 POP POP PUSH2 0xEAF JUMP JUMPDEST PUSH1 0xB SLOAD DUP2 LT ISZERO PUSH2 0xA5C JUMPI PUSH1 0xB DUP1 SLOAD PUSH2 0xF22 SWAP1 PUSH1 0x1 SWAP1 PUSH2 0x411E JUMP JUMPDEST DUP2 SLOAD DUP2 LT PUSH2 0xF32 JUMPI PUSH2 0xF32 PUSH2 0x4074 JUMP JUMPDEST PUSH1 0x0 SWAP2 DUP3 MSTORE PUSH1 0x20 SWAP1 SWAP2 KECCAK256 ADD SLOAD PUSH1 0xB DUP1 SLOAD PUSH1 0x1 PUSH1 0x1 PUSH1 0xA0 SHL SUB SWAP1 SWAP3 AND SWAP2 DUP4 SWAP1 DUP2 LT PUSH2 0xF5E JUMPI PUSH2 0xF5E PUSH2 0x4074 JUMP JUMPDEST SWAP1 PUSH1 0x0 MSTORE PUSH1 0x20 PUSH1 0x0 KECCAK256 ADD PUSH1 0x0 PUSH2 0x100 EXP DUP2 SLOAD DUP2 PUSH1 0x1 PUSH1 0x1 PUSH1 0xA0 SHL SUB MUL NOT AND SWAP1 DUP4 PUSH1 0x1 PUSH1 0x1 PUSH1 0xA0 SHL SUB AND MUL OR SWAP1 SSTORE POP PUSH1 0xB DUP1 SLOAD DUP1 PUSH2 0xF9D JUMPI PUSH2 0xF9D PUSH2 0x4135 JUMP JUMPDEST PUSH1 0x0 DUP3 DUP2 MSTORE PUSH1 0x20 DUP2 KECCAK256 DUP3 ADD PUSH1 0x0 NOT SWAP1 DUP2 ADD DUP1 SLOAD PUSH1 0x1 PUSH1 0x1 PUSH1 0xA0 SHL SUB NOT AND SWAP1 SSTORE SWAP1 SWAP2 ADD SWAP1 SWAP2 SSTORE PUSH1 0x40 MLOAD PUSH1 0x1 PUSH1 0x1 PUSH1 0xA0 SHL SUB DUP5 AND SWAP2 CALLER SWAP2 PUSH32 0x7DF5D17D768BE6563796784637C80BC9204E2AF0BC4BA8630F5AA2FED96EA487 SWAP2 SWAP1 LOG3 POP POP JUMP JUMPDEST PUSH1 0x1 DUP2 DUP2 SLOAD DUP2 LT PUSH2 0xB60 JUMPI PUSH1 0x0 DUP1 REVERT JUMPDEST PUSH1 0x2 SLOAD PUSH1 0x1 PUSH1 0x1 PUSH1 0xA0 SHL SUB AND CALLER EQ PUSH2 0x1034 JUMPI PUSH1 0x40 MLOAD PUSH3 0x461BCD PUSH1 0xE5 SHL DUP2 MSTORE PUSH1 0x4 ADD PUSH2 0x8E2 SWAP1 PUSH2 0x40A5 JUMP JUMPDEST PUSH1 0x1 PUSH1 0x1 PUSH1 0xA0 SHL SUB DUP2 AND PUSH2 0x109D JUMPI PUSH1 0x40 MLOAD PUSH3 0x461BCD PUSH1 0xE5 SHL DUP2 MSTORE PUSH1 0x20 PUSH1 0x4 DUP3 ADD MSTORE PUSH1 0x2A PUSH1 0x24 DUP3 ADD MSTORE PUSH32 0x466163746F7279526F757465723A20496E76616C6964204F6365616E20546F6B PUSH1 0x44 DUP3 ADD MSTORE PUSH10 0x656E2061646472657373 PUSH1 0xB0 SHL PUSH1 0x64 DUP3 ADD MSTORE PUSH1 0x84 ADD PUSH2 0x8E2 JUMP JUMPDEST PUSH1 0x0 JUMPDEST PUSH1 0xA SLOAD DUP2 LT ISZERO PUSH2 0x10F9 JUMPI DUP2 PUSH1 0x1 PUSH1 0x1 PUSH1 0xA0 SHL SUB AND PUSH1 0xA DUP3 DUP2 SLOAD DUP2 LT PUSH2 0x10C7 JUMPI PUSH2 0x10C7 PUSH2 0x4074 JUMP JUMPDEST PUSH1 0x0 SWAP2 DUP3 MSTORE PUSH1 0x20 SWAP1 SWAP2 KECCAK256 ADD SLOAD PUSH1 0x1 PUSH1 0x1 PUSH1 0xA0 SHL SUB AND EQ ISZERO PUSH2 0x10E7 JUMPI PUSH2 0x10F9 JUMP JUMPDEST DUP1 PUSH2 0x10F1 DUP2 PUSH2 0x408A JUMP JUMPDEST SWAP2 POP POP PUSH2 0x10A0 JUMP JUMPDEST PUSH1 0xA SLOAD DUP2 LT ISZERO PUSH2 0xA5C JUMPI PUSH1 0xA DUP1 SLOAD PUSH2 0x1113 SWAP1 PUSH1 0x1 SWAP1 PUSH2 0x411E JUMP JUMPDEST DUP2 SLOAD DUP2 LT PUSH2 0x1123 JUMPI PUSH2 0x1123 PUSH2 0x4074 JUMP JUMPDEST PUSH1 0x0 SWAP2 DUP3 MSTORE PUSH1 0x20 SWAP1 SWAP2 KECCAK256 ADD SLOAD PUSH1 0xA DUP1 SLOAD PUSH1 0x1 PUSH1 0x1 PUSH1 0xA0 SHL SUB SWAP1 SWAP3 AND SWAP2 DUP4 SWAP1 DUP2 LT PUSH2 0x114F JUMPI PUSH2 0x114F PUSH2 0x4074 JUMP JUMPDEST SWAP1 PUSH1 0x0 MSTORE PUSH1 0x20 PUSH1 0x0 KECCAK256 ADD PUSH1 0x0 PUSH2 0x100 EXP DUP2 SLOAD DUP2 PUSH1 0x1 PUSH1 0x1 PUSH1 0xA0 SHL SUB MUL NOT AND SWAP1 DUP4 PUSH1 0x1 PUSH1 0x1 PUSH1 0xA0 SHL SUB AND MUL OR SWAP1 SSTORE POP PUSH1 0xA DUP1 SLOAD DUP1 PUSH2 0x118E JUMPI PUSH2 0x118E PUSH2 0x4135 JUMP JUMPDEST PUSH1 0x0 DUP3 DUP2 MSTORE PUSH1 0x20 DUP2 KECCAK256 DUP3 ADD PUSH1 0x0 NOT SWAP1 DUP2 ADD DUP1 SLOAD PUSH1 0x1 PUSH1 0x1 PUSH1 0xA0 SHL SUB NOT AND SWAP1 SSTORE SWAP1 SWAP2 ADD SWAP1 SWAP2 SSTORE PUSH1 0x40 MLOAD PUSH1 0x1 PUSH1 0x1 PUSH1 0xA0 SHL SUB DUP5 AND SWAP2 CALLER SWAP2 PUSH32 0xBBE55B1FF108E23E5FF1A6F5D36946EEC15EC0CA0DED2BFED4CDCF697CA90460 SWAP2 SWAP1 LOG3 POP POP JUMP JUMPDEST PUSH1 0x60 PUSH1 0xA DUP1 SLOAD DUP1 PUSH1 0x20 MUL PUSH1 0x20 ADD PUSH1 0x40 MLOAD SWAP1 DUP2 ADD PUSH1 0x40 MSTORE DUP1 SWAP3 SWAP2 SWAP1 DUP2 DUP2 MSTORE PUSH1 0x20 ADD DUP3 DUP1 SLOAD DUP1 ISZERO PUSH2 0x8AE JUMPI PUSH1 0x20 MUL DUP3 ADD SWAP2 SWAP1 PUSH1 0x0 MSTORE PUSH1 0x20 PUSH1 0x0 KECCAK256 SWAP1 DUP2 SLOAD PUSH1 0x1 PUSH1 0x1 PUSH1 0xA0 SHL SUB AND DUP2 MSTORE PUSH1 0x1 SWAP1 SWAP2 ADD SWAP1 PUSH1 0x20 ADD DUP1 DUP4 GT PUSH2 0x890 JUMPI POP POP POP POP POP SWAP1 POP SWAP1 JUMP JUMPDEST PUSH1 0x2 SLOAD PUSH1 0x1 PUSH1 0x1 PUSH1 0xA0 SHL SUB AND CALLER EQ PUSH2 0x1275 JUMPI PUSH1 0x40 MLOAD PUSH3 0x461BCD PUSH1 0xE5 SHL DUP2 MSTORE PUSH1 0x4 ADD PUSH2 0x8E2 SWAP1 PUSH2 0x40A5 JUMP JUMPDEST PUSH1 0x1 PUSH1 0x1 PUSH1 0xA0 SHL SUB DUP2 AND PUSH2 0x129B JUMPI PUSH1 0x40 MLOAD PUSH3 0x461BCD PUSH1 0xE5 SHL DUP2 MSTORE PUSH1 0x4 ADD PUSH2 0x8E2 SWAP1 PUSH2 0x41B6 JUMP JUMPDEST PUSH2 0x12A4 DUP2 PUSH2 0x7EC JUMP JUMPDEST PUSH2 0xB36 JUMPI PUSH1 0xB DUP1 SLOAD PUSH1 0x1 DUP2 ADD DUP3 SSTORE PUSH1 0x0 SWAP2 DUP3 MSTORE PUSH32 0x175B7A638427703F0DBE7BB9BBF987A2551717B34E79F33B5B1008D1FA01DB9 ADD DUP1 SLOAD PUSH1 0x1 PUSH1 0x1 PUSH1 0xA0 SHL SUB NOT AND PUSH1 0x1 PUSH1 0x1 PUSH1 0xA0 SHL SUB DUP5 AND SWAP1 DUP2 OR SWAP1 SWAP2 SSTORE PUSH1 0x40 MLOAD SWAP1 SWAP2 CALLER SWAP2 PUSH32 0xCEF3CE01F85C030161B431114E41E463297B68F169C1013C526B1CBC5747E544 SWAP2 SWAP1 LOG3 POP JUMP JUMPDEST PUSH1 0x0 DUP1 JUMPDEST PUSH1 0xC SLOAD DUP2 LT ISZERO PUSH2 0x84D JUMPI DUP3 PUSH1 0x1 PUSH1 0x1 PUSH1 0xA0 SHL SUB AND PUSH1 0xC DUP3 DUP2 SLOAD DUP2 LT PUSH2 0x134E JUMPI PUSH2 0x134E PUSH2 0x4074 JUMP JUMPDEST PUSH1 0x0 SWAP2 DUP3 MSTORE PUSH1 0x20 SWAP1 SWAP2 KECCAK256 ADD SLOAD PUSH1 0x1 PUSH1 0x1 PUSH1 0xA0 SHL SUB AND EQ ISZERO PUSH2 0x1372 JUMPI POP PUSH1 0x1 SWAP3 SWAP2 POP POP JUMP JUMPDEST DUP1 PUSH2 0x137C DUP2 PUSH2 0x408A JUMP JUMPDEST SWAP2 POP POP PUSH2 0x1327 JUMP JUMPDEST PUSH1 0x60 PUSH1 0xB DUP1 SLOAD DUP1 PUSH1 0x20 MUL PUSH1 0x20 ADD PUSH1 0x40 MLOAD SWAP1 DUP2 ADD PUSH1 0x40 MSTORE DUP1 SWAP3 SWAP2 SWAP1 DUP2 DUP2 MSTORE PUSH1 0x20 ADD DUP3 DUP1 SLOAD DUP1 ISZERO PUSH2 0x8AE JUMPI PUSH1 0x20 MUL DUP3 ADD SWAP2 SWAP1 PUSH1 0x0 MSTORE PUSH1 0x20 PUSH1 0x0 KECCAK256 SWAP1 DUP2 SLOAD PUSH1 0x1 PUSH1 0x1 PUSH1 0xA0 SHL SUB AND DUP2 MSTORE PUSH1 0x1 SWAP1 SWAP2 ADD SWAP1 PUSH1 0x20 ADD DUP1 DUP4 GT PUSH2 0x890 JUMPI POP POP POP POP POP SWAP1 POP SWAP1 JUMP JUMPDEST PUSH1 0x2 SLOAD PUSH1 0x1 PUSH1 0x1 PUSH1 0xA0 SHL SUB AND CALLER EQ PUSH2 0x140E JUMPI PUSH1 0x40 MLOAD PUSH3 0x461BCD PUSH1 0xE5 SHL DUP2 MSTORE PUSH1 0x4 ADD PUSH2 0x8E2 SWAP1 PUSH2 0x40A5 JUMP JUMPDEST PUSH1 0x5 DUP2 SWAP1 SSTORE PUSH1 0x40 MLOAD DUP2 DUP2 MSTORE CALLER SWAP1 PUSH32 0x5EE73342E684C0B848562C301FA2DC6B0146B266CFA12D4219FB04B316F7A475 SWAP1 PUSH1 0x20 ADD PUSH1 0x40 MLOAD DUP1 SWAP2 SUB SWAP1 LOG2 POP JUMP JUMPDEST PUSH2 0x7E9 PUSH2 0x2710 PUSH8 0xDE0B6B3A7640000 PUSH2 0x4194 JUMP JUMPDEST PUSH1 0xB DUP2 DUP2 SLOAD DUP2 LT PUSH2 0xB60 JUMPI PUSH1 0x0 DUP1 REVERT JUMPDEST PUSH1 0x3 SLOAD PUSH1 0x40 MLOAD PUSH4 0x226E7615 PUSH1 0xE0 SHL DUP2 MSTORE CALLER PUSH1 0x4 DUP3 ADD MSTORE PUSH1 0x0 SWAP2 PUSH1 0x1 PUSH1 0x1 PUSH1 0xA0 SHL SUB AND SWAP1 PUSH4 0x226E7615 SWAP1 PUSH1 0x24 ADD PUSH1 0x20 PUSH1 0x40 MLOAD DUP1 DUP4 SUB DUP2 DUP7 GAS STATICCALL ISZERO DUP1 ISZERO PUSH2 0x14B8 JUMPI RETURNDATASIZE PUSH1 0x0 DUP1 RETURNDATACOPY RETURNDATASIZE PUSH1 0x0 REVERT JUMPDEST POP POP POP POP PUSH1 0x40 MLOAD RETURNDATASIZE PUSH1 0x1F NOT PUSH1 0x1F DUP3 ADD AND DUP3 ADD DUP1 PUSH1 0x40 MSTORE POP DUP2 ADD SWAP1 PUSH2 0x14DC SWAP2 SWAP1 PUSH2 0x4210 JUMP JUMPDEST PUSH2 0x14F8 JUMPI PUSH1 0x40 MLOAD PUSH3 0x461BCD PUSH1 0xE5 SHL DUP2 MSTORE PUSH1 0x4 ADD PUSH2 0x8E2 SWAP1 PUSH2 0x422B JUMP JUMPDEST PUSH2 0x1501 DUP7 PUSH2 0x1323 JUMP JUMPDEST PUSH2 0x1560 JUMPI PUSH1 0x40 MLOAD PUSH3 0x461BCD PUSH1 0xE5 SHL DUP2 MSTORE PUSH1 0x20 PUSH1 0x4 DUP3 ADD MSTORE PUSH1 0x2A PUSH1 0x24 DUP3 ADD MSTORE PUSH32 0x464143544F525920524F555445523A20496E76616C6964204669786564507269 PUSH1 0x44 DUP3 ADD MSTORE PUSH10 0x18D950DBDB9D1C9858DD PUSH1 0xB2 SHL PUSH1 0x64 DUP3 ADD MSTORE PUSH1 0x84 ADD PUSH2 0x8E2 JUMP JUMPDEST PUSH1 0x40 MLOAD PUSH4 0x12C3275 PUSH1 0xE0 SHL DUP2 MSTORE PUSH1 0x1 PUSH1 0x1 PUSH1 0xA0 SHL SUB DUP8 AND SWAP1 PUSH4 0x12C3275 SWAP1 PUSH2 0x1594 SWAP1 CALLER SWAP1 DUP10 SWAP1 DUP10 SWAP1 DUP10 SWAP1 DUP10 SWAP1 PUSH1 0x4 ADD PUSH2 0x4276 JUMP JUMPDEST PUSH1 0x20 PUSH1 0x40 MLOAD DUP1 DUP4 SUB DUP2 PUSH1 0x0 DUP8 GAS CALL ISZERO DUP1 ISZERO PUSH2 0x15B3 JUMPI RETURNDATASIZE PUSH1 0x0 DUP1 RETURNDATACOPY RETURNDATASIZE PUSH1 0x0 REVERT JUMPDEST POP POP POP POP PUSH1 0x40 MLOAD RETURNDATASIZE PUSH1 0x1F NOT PUSH1 0x1F DUP3 ADD AND DUP3 ADD DUP1 PUSH1 0x40 MSTORE POP DUP2 ADD SWAP1 PUSH2 0x15D7 SWAP2 SWAP1 PUSH2 0x4305 JUMP JUMPDEST SWAP7 SWAP6 POP POP POP POP POP POP JUMP JUMPDEST PUSH1 0x32 DUP2 GT ISZERO PUSH2 0x1602 JUMPI PUSH1 0x40 MLOAD PUSH3 0x461BCD PUSH1 0xE5 SHL DUP2 MSTORE PUSH1 0x4 ADD PUSH2 0x8E2 SWAP1 PUSH2 0x431E JUMP JUMPDEST PUSH1 0x0 JUMPDEST DUP2 DUP2 LT ISZERO PUSH2 0x19E0 JUMPI PUSH1 0x0 DUP4 DUP4 DUP4 DUP2 DUP2 LT PUSH2 0x1621 JUMPI PUSH2 0x1621 PUSH2 0x4074 JUMP JUMPDEST PUSH2 0x1637 SWAP3 PUSH1 0x20 PUSH1 0x60 SWAP1 SWAP3 MUL ADD SWAP1 DUP2 ADD SWAP2 POP PUSH2 0x3CC2 JUMP JUMPDEST PUSH1 0x1 PUSH1 0x1 PUSH1 0xA0 SHL SUB AND PUSH4 0x4DF947D0 PUSH1 0x40 MLOAD DUP2 PUSH4 0xFFFFFFFF AND PUSH1 0xE0 SHL DUP2 MSTORE PUSH1 0x4 ADD PUSH1 0x20 PUSH1 0x40 MLOAD DUP1 DUP4 SUB DUP2 DUP7 GAS STATICCALL ISZERO DUP1 ISZERO PUSH2 0x1674 JUMPI RETURNDATASIZE PUSH1 0x0 DUP1 RETURNDATACOPY RETURNDATASIZE PUSH1 0x0 REVERT JUMPDEST POP POP POP POP PUSH1 0x40 MLOAD RETURNDATASIZE PUSH1 0x1F NOT PUSH1 0x1F DUP3 ADD AND DUP3 ADD DUP1 PUSH1 0x40 MSTORE POP DUP2 ADD SWAP1 PUSH2 0x1698 SWAP2 SWAP1 PUSH2 0x4360 JUMP JUMPDEST SWAP1 POP PUSH2 0x16C1 DUP2 CALLER ADDRESS DUP8 DUP8 DUP8 DUP2 DUP2 LT PUSH2 0x16B2 JUMPI PUSH2 0x16B2 PUSH2 0x4074 JUMP JUMPDEST SWAP1 POP PUSH1 0x60 MUL ADD PUSH1 0x20 ADD CALLDATALOAD PUSH2 0x30F7 JUMP JUMPDEST PUSH1 0x0 DUP5 DUP5 DUP5 DUP2 DUP2 LT PUSH2 0x16D5 JUMPI PUSH2 0x16D5 PUSH2 0x4074 JUMP JUMPDEST PUSH2 0x16EB SWAP3 PUSH1 0x20 PUSH1 0x60 SWAP1 SWAP3 MUL ADD SWAP1 DUP2 ADD SWAP2 POP PUSH2 0x3CC2 JUMP JUMPDEST PUSH1 0x40 MLOAD PUSH4 0x70A08231 PUSH1 0xE0 SHL DUP2 MSTORE ADDRESS PUSH1 0x4 DUP3 ADD MSTORE PUSH1 0x1 PUSH1 0x1 PUSH1 0xA0 SHL SUB SWAP2 SWAP1 SWAP2 AND SWAP1 PUSH4 0x70A08231 SWAP1 PUSH1 0x24 ADD PUSH1 0x20 PUSH1 0x40 MLOAD DUP1 DUP4 SUB DUP2 DUP7 GAS STATICCALL ISZERO DUP1 ISZERO PUSH2 0x1731 JUMPI RETURNDATASIZE PUSH1 0x0 DUP1 RETURNDATACOPY RETURNDATASIZE PUSH1 0x0 REVERT JUMPDEST POP POP POP POP PUSH1 0x40 MLOAD RETURNDATASIZE PUSH1 0x1F NOT PUSH1 0x1F DUP3 ADD AND DUP3 ADD DUP1 PUSH1 0x40 MSTORE POP DUP2 ADD SWAP1 PUSH2 0x1755 SWAP2 SWAP1 PUSH2 0x4305 JUMP JUMPDEST SWAP1 POP PUSH2 0x17B7 DUP6 DUP6 DUP6 DUP2 DUP2 LT PUSH2 0x176C JUMPI PUSH2 0x176C PUSH2 0x4074 JUMP JUMPDEST PUSH2 0x1782 SWAP3 PUSH1 0x20 PUSH1 0x60 SWAP1 SWAP3 MUL ADD SWAP1 DUP2 ADD SWAP2 POP PUSH2 0x3CC2 JUMP JUMPDEST DUP7 DUP7 DUP7 DUP2 DUP2 LT PUSH2 0x1794 JUMPI PUSH2 0x1794 PUSH2 0x4074 JUMP JUMPDEST SWAP1 POP PUSH1 0x60 MUL ADD PUSH1 0x20 ADD CALLDATALOAD DUP5 PUSH1 0x1 PUSH1 0x1 PUSH1 0xA0 SHL SUB AND PUSH2 0x3245 SWAP1 SWAP3 SWAP2 SWAP1 PUSH4 0xFFFFFFFF AND JUMP JUMPDEST PUSH1 0x0 DUP6 DUP6 DUP6 DUP2 DUP2 LT PUSH2 0x17CB JUMPI PUSH2 0x17CB PUSH2 0x4074 JUMP JUMPDEST PUSH2 0x17E1 SWAP3 PUSH1 0x20 PUSH1 0x60 SWAP1 SWAP3 MUL ADD SWAP1 DUP2 ADD SWAP2 POP PUSH2 0x3CC2 JUMP JUMPDEST PUSH1 0x1 PUSH1 0x1 PUSH1 0xA0 SHL SUB AND PUSH4 0x8329AB33 DUP8 DUP8 DUP8 DUP2 DUP2 LT PUSH2 0x1801 JUMPI PUSH2 0x1801 PUSH2 0x4074 JUMP JUMPDEST SWAP1 POP PUSH1 0x60 MUL ADD PUSH1 0x20 ADD CALLDATALOAD DUP9 DUP9 DUP9 DUP2 DUP2 LT PUSH2 0x181D JUMPI PUSH2 0x181D PUSH2 0x4074 JUMP JUMPDEST SWAP1 POP PUSH1 0x60 MUL ADD PUSH1 0x40 ADD CALLDATALOAD PUSH1 0x40 MLOAD DUP4 PUSH4 0xFFFFFFFF AND PUSH1 0xE0 SHL DUP2 MSTORE PUSH1 0x4 ADD PUSH2 0x184D SWAP3 SWAP2 SWAP1 SWAP2 DUP3 MSTORE PUSH1 0x20 DUP3 ADD MSTORE PUSH1 0x40 ADD SWAP1 JUMP JUMPDEST PUSH1 0x20 PUSH1 0x40 MLOAD DUP1 DUP4 SUB DUP2 PUSH1 0x0 DUP8 GAS CALL ISZERO DUP1 ISZERO PUSH2 0x186C JUMPI RETURNDATASIZE PUSH1 0x0 DUP1 RETURNDATACOPY RETURNDATASIZE PUSH1 0x0 REVERT JUMPDEST POP POP POP POP PUSH1 0x40 MLOAD RETURNDATASIZE PUSH1 0x1F NOT PUSH1 0x1F DUP3 ADD AND DUP3 ADD DUP1 PUSH1 0x40 MSTORE POP DUP2 ADD SWAP1 PUSH2 0x1890 SWAP2 SWAP1 PUSH2 0x4305 JUMP JUMPDEST SWAP1 POP DUP6 DUP6 DUP6 DUP2 DUP2 LT PUSH2 0x18A4 JUMPI PUSH2 0x18A4 PUSH2 0x4074 JUMP JUMPDEST SWAP1 POP PUSH1 0x60 MUL ADD PUSH1 0x40 ADD CALLDATALOAD DUP2 LT ISZERO PUSH2 0x18ED JUMPI PUSH1 0x40 MLOAD PUSH3 0x461BCD PUSH1 0xE5 SHL DUP2 MSTORE PUSH1 0x20 PUSH1 0x4 DUP3 ADD MSTORE PUSH1 0xD PUSH1 0x24 DUP3 ADD MSTORE PUSH13 0x4E4F5420454E4F554748204C5 PUSH1 0x9C SHL PUSH1 0x44 DUP3 ADD MSTORE PUSH1 0x64 ADD PUSH2 0x8E2 JUMP JUMPDEST PUSH1 0x0 DUP7 DUP7 DUP7 DUP2 DUP2 LT PUSH2 0x1901 JUMPI PUSH2 0x1901 PUSH2 0x4074 JUMP JUMPDEST PUSH2 0x1917 SWAP3 PUSH1 0x20 PUSH1 0x60 SWAP1 SWAP3 MUL ADD SWAP1 DUP2 ADD SWAP2 POP PUSH2 0x3CC2 JUMP JUMPDEST PUSH1 0x40 MLOAD PUSH4 0x70A08231 PUSH1 0xE0 SHL DUP2 MSTORE ADDRESS PUSH1 0x4 DUP3 ADD MSTORE PUSH1 0x1 PUSH1 0x1 PUSH1 0xA0 SHL SUB SWAP2 SWAP1 SWAP2 AND SWAP1 PUSH4 0x70A08231 SWAP1 PUSH1 0x24 ADD PUSH1 0x20 PUSH1 0x40 MLOAD DUP1 DUP4 SUB DUP2 DUP7 GAS STATICCALL ISZERO DUP1 ISZERO PUSH2 0x195D JUMPI RETURNDATASIZE PUSH1 0x0 DUP1 RETURNDATACOPY RETURNDATASIZE PUSH1 0x0 REVERT JUMPDEST POP POP POP POP PUSH1 0x40 MLOAD RETURNDATASIZE PUSH1 0x1F NOT PUSH1 0x1F DUP3 ADD AND DUP3 ADD DUP1 PUSH1 0x40 MSTORE POP DUP2 ADD SWAP1 PUSH2 0x1981 SWAP2 SWAP1 PUSH2 0x4305 JUMP JUMPDEST SWAP1 POP PUSH2 0x19C9 CALLER PUSH2 0x1991 DUP4 DUP7 PUSH2 0x3330 JUMP JUMPDEST DUP10 DUP10 DUP10 DUP2 DUP2 LT PUSH2 0x19A3 JUMPI PUSH2 0x19A3 PUSH2 0x4074 JUMP JUMPDEST PUSH2 0x19B9 SWAP3 PUSH1 0x20 PUSH1 0x60 SWAP1 SWAP3 MUL ADD SWAP1 DUP2 ADD SWAP2 POP PUSH2 0x3CC2 JUMP JUMPDEST PUSH1 0x1 PUSH1 0x1 PUSH1 0xA0 SHL SUB AND SWAP2 SWAP1 PUSH2 0x3343 JUMP JUMPDEST POP POP POP POP DUP1 DUP1 PUSH2 0x19D8 SWAP1 PUSH2 0x408A JUMP JUMPDEST SWAP2 POP POP PUSH2 0x1605 JUMP JUMPDEST POP POP POP JUMP JUMPDEST PUSH2 0x7E9 PUSH5 0xE8D4A51000 PUSH8 0xDE0B6B3A7640000 PUSH2 0x4194 JUMP JUMPDEST PUSH2 0x7E9 PUSH8 0xDE0B6B3A7640000 PUSH1 0x64 PUSH2 0x4055 JUMP JUMPDEST PUSH2 0x1A22 PUSH1 0x2 PUSH8 0xDE0B6B3A7640000 PUSH2 0x4194 JUMP JUMPDEST PUSH2 0x7E9 SWAP1 PUSH1 0x1 PUSH2 0x437D JUMP JUMPDEST PUSH1 0x2 SLOAD PUSH1 0x1 PUSH1 0x1 PUSH1 0xA0 SHL SUB AND CALLER EQ PUSH2 0x1A57 JUMPI PUSH1 0x40 MLOAD PUSH3 0x461BCD PUSH1 0xE5 SHL DUP2 MSTORE PUSH1 0x4 ADD PUSH2 0x8E2 SWAP1 PUSH2 0x40A5 JUMP JUMPDEST PUSH1 0x1 PUSH1 0x1 PUSH1 0xA0 SHL SUB DUP2 AND PUSH2 0x1A7D JUMPI PUSH1 0x40 MLOAD PUSH3 0x461BCD PUSH1 0xE5 SHL DUP2 MSTORE PUSH1 0x4 ADD PUSH2 0x8E2 SWAP1 PUSH2 0x414B JUMP JUMPDEST PUSH1 0x0 JUMPDEST PUSH1 0xC SLOAD DUP2 LT ISZERO PUSH2 0x1AD9 JUMPI DUP2 PUSH1 0x1 PUSH1 0x1 PUSH1 0xA0 SHL SUB AND PUSH1 0xC DUP3 DUP2 SLOAD DUP2 LT PUSH2 0x1AA7 JUMPI PUSH2 0x1AA7 PUSH2 0x4074 JUMP JUMPDEST PUSH1 0x0 SWAP2 DUP3 MSTORE PUSH1 0x20 SWAP1 SWAP2 KECCAK256 ADD SLOAD PUSH1 0x1 PUSH1 0x1 PUSH1 0xA0 SHL SUB AND EQ ISZERO PUSH2 0x1AC7 JUMPI PUSH2 0x1AD9 JUMP JUMPDEST DUP1 PUSH2 0x1AD1 DUP2 PUSH2 0x408A JUMP JUMPDEST SWAP2 POP POP PUSH2 0x1A80 JUMP JUMPDEST PUSH1 0xC SLOAD DUP2 LT ISZERO PUSH2 0xA5C JUMPI PUSH1 0xC DUP1 SLOAD PUSH2 0x1AF3 SWAP1 PUSH1 0x1 SWAP1 PUSH2 0x411E JUMP JUMPDEST DUP2 SLOAD DUP2 LT PUSH2 0x1B03 JUMPI PUSH2 0x1B03 PUSH2 0x4074 JUMP JUMPDEST PUSH1 0x0 SWAP2 DUP3 MSTORE PUSH1 0x20 SWAP1 SWAP2 KECCAK256 ADD SLOAD PUSH1 0xC DUP1 SLOAD PUSH1 0x1 PUSH1 0x1 PUSH1 0xA0 SHL SUB SWAP1 SWAP3 AND SWAP2 DUP4 SWAP1 DUP2 LT PUSH2 0x1B2F JUMPI PUSH2 0x1B2F PUSH2 0x4074 JUMP JUMPDEST SWAP1 PUSH1 0x0 MSTORE PUSH1 0x20 PUSH1 0x0 KECCAK256 ADD PUSH1 0x0 PUSH2 0x100 EXP DUP2 SLOAD DUP2 PUSH1 0x1 PUSH1 0x1 PUSH1 0xA0 SHL SUB MUL NOT AND SWAP1 DUP4 PUSH1 0x1 PUSH1 0x1 PUSH1 0xA0 SHL SUB AND MUL OR SWAP1 SSTORE POP PUSH1 0xC DUP1 SLOAD DUP1 PUSH2 0x1B6E JUMPI PUSH2 0x1B6E PUSH2 0x4135 JUMP JUMPDEST PUSH1 0x0 DUP3 DUP2 MSTORE PUSH1 0x20 DUP2 KECCAK256 DUP3 ADD PUSH1 0x0 NOT SWAP1 DUP2 ADD DUP1 SLOAD PUSH1 0x1 PUSH1 0x1 PUSH1 0xA0 SHL SUB NOT AND SWAP1 SSTORE SWAP1 SWAP2 ADD SWAP1 SWAP2 SSTORE PUSH1 0x40 MLOAD PUSH1 0x1 PUSH1 0x1 PUSH1 0xA0 SHL SUB DUP5 AND SWAP2 CALLER SWAP2 PUSH32 0xF1EC0697329A2E8DE8CF055335547ACC40FBACE8712FC77AEEA1EA2AFBCF7E3B SWAP2 SWAP1 LOG3 POP POP JUMP JUMPDEST PUSH1 0x2 SLOAD PUSH1 0x1 PUSH1 0x1 PUSH1 0xA0 SHL SUB AND CALLER EQ PUSH2 0x1BF5 JUMPI PUSH1 0x40 MLOAD PUSH3 0x461BCD PUSH1 0xE5 SHL DUP2 MSTORE PUSH1 0x4 ADD PUSH2 0x8E2 SWAP1 PUSH2 0x40A5 JUMP JUMPDEST PUSH2 0xB36 DUP2 PUSH2 0x3373 JUMP JUMPDEST PUSH1 0xC DUP2 DUP2 SLOAD DUP2 LT PUSH2 0xB60 JUMPI PUSH1 0x0 DUP1 REVERT JUMPDEST PUSH1 0x0 PUSH2 0x1C19 DUP3 PUSH2 0xCB4 JUMP JUMPDEST ISZERO PUSH2 0x1C26 JUMPI POP POP PUSH1 0x6 SLOAD SWAP1 JUMP JUMPDEST POP POP PUSH1 0x7 SLOAD SWAP1 JUMP JUMPDEST SWAP2 SWAP1 POP JUMP JUMPDEST PUSH2 0x7E9 PUSH1 0xA PUSH8 0xDE0B6B3A7640000 PUSH2 0x4194 JUMP JUMPDEST PUSH1 0x1 PUSH2 0x1C5B PUSH8 0xDE0B6B3A7640000 PUSH1 0x2 PUSH2 0x4055 JUMP JUMPDEST PUSH2 0x7E9 SWAP2 SWAP1 PUSH2 0x411E JUMP JUMPDEST PUSH1 0x2 SLOAD PUSH1 0x1 PUSH1 0x1 PUSH1 0xA0 SHL SUB AND CALLER EQ PUSH2 0x1C8F JUMPI PUSH1 0x40 MLOAD PUSH3 0x461BCD PUSH1 0xE5 SHL DUP2 MSTORE PUSH1 0x4 ADD PUSH2 0x8E2 SWAP1 PUSH2 0x40A5 JUMP JUMPDEST PUSH1 0x6 DUP5 SWAP1 SSTORE PUSH1 0x7 DUP4 SWAP1 SSTORE PUSH1 0x8 DUP3 SWAP1 SSTORE PUSH1 0x9 DUP2 SWAP1 SSTORE PUSH1 0x40 DUP1 MLOAD DUP6 DUP2 MSTORE PUSH1 0x20 DUP2 ADD DUP6 SWAP1 MSTORE SWAP1 DUP2 ADD DUP4 SWAP1 MSTORE PUSH1 0x60 DUP2 ADD DUP3 SWAP1 MSTORE CALLER SWAP1 PUSH32 0xE6171CF0506862C0A0185F8C21DCA979859D4EB63186EFF63F1B3DD14926BE7B SWAP1 PUSH1 0x80 ADD PUSH1 0x40 MLOAD DUP1 SWAP2 SUB SWAP1 LOG2 POP POP POP POP JUMP JUMPDEST PUSH1 0x0 PUSH2 0x1CFE DUP3 PUSH2 0x3036 JUMP JUMPDEST SWAP3 SWAP2 POP POP JUMP JUMPDEST PUSH1 0x2 SLOAD PUSH1 0x1 PUSH1 0x1 PUSH1 0xA0 SHL SUB AND CALLER EQ PUSH2 0x1D2E JUMPI PUSH1 0x40 MLOAD PUSH3 0x461BCD PUSH1 0xE5 SHL DUP2 MSTORE PUSH1 0x4 ADD PUSH2 0x8E2 SWAP1 PUSH2 0x40A5 JUMP JUMPDEST PUSH2 0xB36 DUP2 PUSH2 0x3464 JUMP JUMPDEST PUSH1 0x3 SLOAD PUSH1 0x40 MLOAD PUSH4 0x226E7615 PUSH1 0xE0 SHL DUP2 MSTORE CALLER PUSH1 0x4 DUP3 ADD MSTORE PUSH1 0x1 PUSH1 0x1 PUSH1 0xA0 SHL SUB SWAP1 SWAP2 AND SWAP1 PUSH4 0x226E7615 SWAP1 PUSH1 0x24 ADD PUSH1 0x20 PUSH1 0x40 MLOAD DUP1 DUP4 SUB DUP2 DUP7 GAS STATICCALL ISZERO DUP1 ISZERO PUSH2 0x1D7F JUMPI RETURNDATASIZE PUSH1 0x0 DUP1 RETURNDATACOPY RETURNDATASIZE PUSH1 0x0 REVERT JUMPDEST POP POP POP POP PUSH1 0x40 MLOAD RETURNDATASIZE PUSH1 0x1F NOT PUSH1 0x1F DUP3 ADD AND DUP3 ADD DUP1 PUSH1 0x40 MSTORE POP DUP2 ADD SWAP1 PUSH2 0x1DA3 SWAP2 SWAP1 PUSH2 0x4210 JUMP JUMPDEST PUSH2 0x1DBF JUMPI PUSH1 0x40 MLOAD PUSH3 0x461BCD PUSH1 0xE5 SHL DUP2 MSTORE PUSH1 0x4 ADD PUSH2 0x8E2 SWAP1 PUSH2 0x422B JUMP JUMPDEST PUSH2 0x1DC8 DUP7 PUSH2 0x2FD5 JUMP JUMPDEST PUSH2 0x1E26 JUMPI PUSH1 0x40 MLOAD PUSH3 0x461BCD PUSH1 0xE5 SHL DUP2 MSTORE PUSH1 0x20 PUSH1 0x4 DUP3 ADD MSTORE PUSH1 0x29 PUSH1 0x24 DUP3 ADD MSTORE PUSH32 0x464143544F525920524F555445523A20496E76616C69642044697370656E7365 PUSH1 0x44 DUP3 ADD MSTORE PUSH9 0x1C90DBDB9D1C9858DD PUSH1 0xBA SHL PUSH1 0x64 DUP3 ADD MSTORE PUSH1 0x84 ADD PUSH2 0x8E2 JUMP JUMPDEST PUSH1 0x40 MLOAD PUSH4 0x24CE2917 PUSH1 0xE0 SHL DUP2 MSTORE PUSH1 0x1 PUSH1 0x1 PUSH1 0xA0 SHL SUB DUP7 DUP2 AND PUSH1 0x4 DUP4 ADD MSTORE PUSH1 0x24 DUP3 ADD DUP7 SWAP1 MSTORE PUSH1 0x44 DUP3 ADD DUP6 SWAP1 MSTORE DUP4 DUP2 AND PUSH1 0x64 DUP4 ADD MSTORE DUP3 DUP2 AND PUSH1 0x84 DUP4 ADD MSTORE DUP8 AND SWAP1 PUSH4 0x24CE2917 SWAP1 PUSH1 0xA4 ADD PUSH1 0x0 PUSH1 0x40 MLOAD DUP1 DUP4 SUB DUP2 PUSH1 0x0 DUP8 DUP1 EXTCODESIZE ISZERO DUP1 ISZERO PUSH2 0x1E87 JUMPI PUSH1 0x0 DUP1 REVERT JUMPDEST POP GAS CALL ISZERO DUP1 ISZERO PUSH2 0x1E9B JUMPI RETURNDATASIZE PUSH1 0x0 DUP1 RETURNDATACOPY RETURNDATASIZE PUSH1 0x0 REVERT JUMPDEST POP POP POP POP POP POP POP POP POP POP JUMP JUMPDEST PUSH1 0x2 SLOAD PUSH1 0x1 PUSH1 0x1 PUSH1 0xA0 SHL SUB AND CALLER EQ PUSH2 0x1ED1 JUMPI PUSH1 0x40 MLOAD PUSH3 0x461BCD PUSH1 0xE5 SHL DUP2 MSTORE PUSH1 0x4 ADD PUSH2 0x8E2 SWAP1 PUSH2 0x40A5 JUMP JUMPDEST PUSH1 0x1 PUSH1 0x1 PUSH1 0xA0 SHL SUB DUP2 AND PUSH2 0x1EF7 JUMPI PUSH1 0x40 MLOAD PUSH3 0x461BCD PUSH1 0xE5 SHL DUP2 MSTORE PUSH1 0x4 ADD PUSH2 0x8E2 SWAP1 PUSH2 0x40D5 JUMP JUMPDEST PUSH2 0x1F00 DUP2 PUSH2 0x2FD5 JUMP JUMPDEST PUSH2 0xB36 JUMPI PUSH1 0xD DUP1 SLOAD PUSH1 0x1 DUP2 ADD DUP3 SSTORE PUSH1 0x0 SWAP2 DUP3 MSTORE PUSH32 0xD7B6990105719101DABEB77144F2A3385C8033ACD3AF97E9423A695E81AD1EB5 ADD DUP1 SLOAD PUSH1 0x1 PUSH1 0x1 PUSH1 0xA0 SHL SUB NOT AND PUSH1 0x1 PUSH1 0x1 PUSH1 0xA0 SHL SUB DUP5 AND SWAP1 DUP2 OR SWAP1 SWAP2 SSTORE PUSH1 0x40 MLOAD SWAP1 SWAP2 CALLER SWAP2 PUSH32 0x78BE9D87A7B2C8707B044DBF5B04C3F747B692C55EC34DCD1D7357736478789C SWAP2 SWAP1 LOG3 POP JUMP JUMPDEST PUSH1 0x2 SLOAD PUSH1 0x1 PUSH1 0x1 PUSH1 0xA0 SHL SUB AND CALLER EQ PUSH2 0x1FA9 JUMPI PUSH1 0x40 MLOAD PUSH3 0x461BCD PUSH1 0xE5 SHL DUP2 MSTORE PUSH1 0x4 ADD PUSH2 0x8E2 SWAP1 PUSH2 0x40A5 JUMP JUMPDEST PUSH2 0xB36 DUP2 PUSH2 0x34EC JUMP JUMPDEST PUSH1 0x2 SLOAD PUSH1 0x1 PUSH1 0x1 PUSH1 0xA0 SHL SUB AND CALLER EQ PUSH2 0x1FDC JUMPI PUSH1 0x40 MLOAD PUSH3 0x461BCD PUSH1 0xE5 SHL DUP2 MSTORE PUSH1 0x4 ADD PUSH2 0x8E2 SWAP1 PUSH2 0x40A5 JUMP JUMPDEST PUSH1 0x1 PUSH1 0x1 PUSH1 0xA0 SHL SUB DUP2 AND PUSH2 0x2032 JUMPI PUSH1 0x40 MLOAD PUSH3 0x461BCD PUSH1 0xE5 SHL DUP2 MSTORE PUSH1 0x20 PUSH1 0x4 DUP3 ADD MSTORE PUSH1 0x18 PUSH1 0x24 DUP3 ADD MSTORE PUSH32 0x496E76616C6964206E657720726F75746572206F776E65720000000000000000 PUSH1 0x44 DUP3 ADD MSTORE PUSH1 0x64 ADD PUSH2 0x8E2 JUMP JUMPDEST PUSH1 0x2 DUP1 SLOAD PUSH1 0x1 PUSH1 0x1 PUSH1 0xA0 SHL SUB NOT AND PUSH1 0x1 PUSH1 0x1 PUSH1 0xA0 SHL SUB DUP4 AND SWAP1 DUP2 OR SWAP1 SWAP2 SSTORE PUSH1 0x40 MLOAD CALLER SWAP1 PUSH32 0xC736654A613824C69968E0EC25AC1A428CCD49E15C28E97B5DFD2C6059757E2A SWAP1 PUSH1 0x0 SWAP1 LOG3 POP JUMP JUMPDEST PUSH2 0x7E9 PUSH1 0x2 PUSH8 0xDE0B6B3A7640000 PUSH2 0x4194 JUMP JUMPDEST PUSH1 0x32 DUP2 GT ISZERO PUSH2 0x20B2 JUMPI PUSH1 0x40 MLOAD PUSH3 0x461BCD PUSH1 0xE5 SHL DUP2 MSTORE PUSH1 0x4 ADD PUSH2 0x8E2 SWAP1 PUSH2 0x431E JUMP JUMPDEST PUSH1 0x0 JUMPDEST DUP2 DUP2 LT ISZERO PUSH2 0x19E0 JUMPI PUSH1 0x0 PUSH1 0x40 MLOAD DUP1 PUSH1 0x60 ADD PUSH1 0x40 MSTORE DUP1 DUP6 DUP6 DUP6 DUP2 DUP2 LT PUSH2 0x20DC JUMPI PUSH2 0x20DC PUSH2 0x4074 JUMP JUMPDEST SWAP1 POP PUSH2 0x140 MUL ADD PUSH1 0x60 ADD PUSH1 0x20 DUP2 ADD SWAP1 PUSH2 0x20F5 SWAP2 SWAP1 PUSH2 0x3CC2 JUMP JUMPDEST PUSH1 0x1 PUSH1 0x1 PUSH1 0xA0 SHL SUB AND DUP2 MSTORE PUSH1 0x20 ADD DUP6 DUP6 DUP6 DUP2 DUP2 LT PUSH2 0x2115 JUMPI PUSH2 0x2115 PUSH2 0x4074 JUMP JUMPDEST SWAP1 POP PUSH2 0x140 MUL ADD PUSH1 0xA0 ADD PUSH1 0x20 DUP2 ADD SWAP1 PUSH2 0x212E SWAP2 SWAP1 PUSH2 0x3CC2 JUMP JUMPDEST PUSH1 0x1 PUSH1 0x1 PUSH1 0xA0 SHL SUB AND DUP2 MSTORE PUSH1 0x20 ADD DUP6 DUP6 DUP6 DUP2 DUP2 LT PUSH2 0x214E JUMPI PUSH2 0x214E PUSH2 0x4074 JUMP JUMPDEST SWAP1 POP PUSH2 0x140 MUL ADD PUSH2 0x120 ADD PUSH1 0x20 DUP2 ADD SWAP1 PUSH2 0x2168 SWAP2 SWAP1 PUSH2 0x3CC2 JUMP JUMPDEST PUSH1 0x1 PUSH1 0x1 PUSH1 0xA0 SHL SUB AND PUSH1 0x1 PUSH1 0x1 PUSH1 0xA0 SHL SUB AND DUP2 MSTORE POP SWAP1 POP PUSH1 0x0 PUSH1 0x40 MLOAD DUP1 PUSH1 0x80 ADD PUSH1 0x40 MSTORE DUP1 DUP7 DUP7 DUP7 DUP2 DUP2 LT PUSH2 0x219E JUMPI PUSH2 0x219E PUSH2 0x4074 JUMP JUMPDEST SWAP1 POP PUSH2 0x140 MUL ADD PUSH1 0x80 ADD CALLDATALOAD DUP2 MSTORE PUSH1 0x20 ADD DUP7 DUP7 DUP7 DUP2 DUP2 LT PUSH2 0x21C0 JUMPI PUSH2 0x21C0 PUSH2 0x4074 JUMP JUMPDEST SWAP1 POP PUSH2 0x140 MUL ADD PUSH1 0xC0 ADD CALLDATALOAD DUP2 MSTORE PUSH1 0x20 ADD DUP7 DUP7 DUP7 DUP2 DUP2 LT PUSH2 0x21E2 JUMPI PUSH2 0x21E2 PUSH2 0x4074 JUMP JUMPDEST SWAP1 POP PUSH2 0x140 MUL ADD PUSH1 0xE0 ADD CALLDATALOAD DUP2 MSTORE PUSH1 0x20 ADD DUP7 DUP7 DUP7 DUP2 DUP2 LT PUSH2 0x2204 JUMPI PUSH2 0x2204 PUSH2 0x4074 JUMP JUMPDEST SWAP1 POP PUSH2 0x140 MUL ADD PUSH2 0x100 ADD CALLDATALOAD DUP2 MSTORE POP SWAP1 POP PUSH1 0x0 PUSH1 0x3 DUP2 GT ISZERO PUSH2 0x2228 JUMPI PUSH2 0x2228 PUSH2 0x4395 JUMP JUMPDEST DUP6 DUP6 DUP6 DUP2 DUP2 LT PUSH2 0x223A JUMPI PUSH2 0x223A PUSH2 0x4074 JUMP JUMPDEST SWAP1 POP PUSH2 0x140 MUL ADD PUSH1 0x40 ADD PUSH1 0x20 DUP2 ADD SWAP1 PUSH2 0x2253 SWAP2 SWAP1 PUSH2 0x43AB JUMP JUMPDEST PUSH1 0x3 DUP2 GT ISZERO PUSH2 0x2264 JUMPI PUSH2 0x2264 PUSH2 0x4395 JUMP JUMPDEST EQ ISZERO PUSH2 0x2417 JUMPI PUSH2 0x22BC DUP6 DUP6 DUP6 DUP2 DUP2 LT PUSH2 0x227F JUMPI PUSH2 0x227F PUSH2 0x4074 JUMP JUMPDEST SWAP1 POP PUSH2 0x140 MUL ADD PUSH1 0x60 ADD PUSH1 0x20 DUP2 ADD SWAP1 PUSH2 0x2298 SWAP2 SWAP1 PUSH2 0x3CC2 JUMP JUMPDEST CALLER ADDRESS DUP9 DUP9 DUP9 DUP2 DUP2 LT PUSH2 0x22AC JUMPI PUSH2 0x22AC PUSH2 0x4074 JUMP JUMPDEST SWAP1 POP PUSH2 0x140 MUL ADD PUSH1 0x80 ADD CALLDATALOAD PUSH2 0x30F7 JUMP JUMPDEST PUSH2 0x2342 DUP6 DUP6 DUP6 DUP2 DUP2 LT PUSH2 0x22D1 JUMPI PUSH2 0x22D1 PUSH2 0x4074 JUMP JUMPDEST SWAP1 POP PUSH2 0x140 MUL ADD PUSH1 0x20 ADD PUSH1 0x20 DUP2 ADD SWAP1 PUSH2 0x22EA SWAP2 SWAP1 PUSH2 0x3CC2 JUMP JUMPDEST DUP7 DUP7 DUP7 DUP2 DUP2 LT PUSH2 0x22FC JUMPI PUSH2 0x22FC PUSH2 0x4074 JUMP JUMPDEST SWAP1 POP PUSH2 0x140 MUL ADD PUSH1 0x80 ADD CALLDATALOAD DUP8 DUP8 DUP8 DUP2 DUP2 LT PUSH2 0x2319 JUMPI PUSH2 0x2319 PUSH2 0x4074 JUMP JUMPDEST SWAP1 POP PUSH2 0x140 MUL ADD PUSH1 0x60 ADD PUSH1 0x20 DUP2 ADD SWAP1 PUSH2 0x2332 SWAP2 SWAP1 PUSH2 0x3CC2 JUMP JUMPDEST PUSH1 0x1 PUSH1 0x1 PUSH1 0xA0 SHL SUB AND SWAP2 SWAP1 PUSH2 0x3245 JUMP JUMPDEST PUSH1 0x0 DUP6 DUP6 DUP6 DUP2 DUP2 LT PUSH2 0x2356 JUMPI PUSH2 0x2356 PUSH2 0x4074 JUMP JUMPDEST SWAP1 POP PUSH2 0x140 MUL ADD PUSH1 0x20 ADD PUSH1 0x20 DUP2 ADD SWAP1 PUSH2 0x236F SWAP2 SWAP1 PUSH2 0x3CC2 JUMP JUMPDEST PUSH1 0x1 PUSH1 0x1 PUSH1 0xA0 SHL SUB AND PUSH4 0xC421A3FC DUP5 DUP5 PUSH1 0x40 MLOAD DUP4 PUSH4 0xFFFFFFFF AND PUSH1 0xE0 SHL DUP2 MSTORE PUSH1 0x4 ADD PUSH2 0x239C SWAP3 SWAP2 SWAP1 PUSH2 0x43CC JUMP JUMPDEST PUSH1 0x40 DUP1 MLOAD DUP1 DUP4 SUB DUP2 PUSH1 0x0 DUP8 GAS CALL ISZERO DUP1 ISZERO PUSH2 0x23BA JUMPI RETURNDATASIZE PUSH1 0x0 DUP1 RETURNDATACOPY RETURNDATASIZE PUSH1 0x0 REVERT JUMPDEST POP POP POP POP PUSH1 0x40 MLOAD RETURNDATASIZE PUSH1 0x1F NOT PUSH1 0x1F DUP3 ADD AND DUP3 ADD DUP1 PUSH1 0x40 MSTORE POP DUP2 ADD SWAP1 PUSH2 0x23DE SWAP2 SWAP1 PUSH2 0x4431 JUMP JUMPDEST POP SWAP1 POP PUSH2 0x2411 CALLER DUP3 DUP9 DUP9 DUP9 DUP2 DUP2 LT PUSH2 0x23F8 JUMPI PUSH2 0x23F8 PUSH2 0x4074 JUMP JUMPDEST SWAP1 POP PUSH2 0x140 MUL ADD PUSH1 0xA0 ADD PUSH1 0x20 DUP2 ADD SWAP1 PUSH2 0x19B9 SWAP2 SWAP1 PUSH2 0x3CC2 JUMP JUMPDEST POP PUSH2 0x2C1E JUMP JUMPDEST PUSH1 0x1 DUP6 DUP6 DUP6 DUP2 DUP2 LT PUSH2 0x242B JUMPI PUSH2 0x242B PUSH2 0x4074 JUMP JUMPDEST SWAP1 POP PUSH2 0x140 MUL ADD PUSH1 0x40 ADD PUSH1 0x20 DUP2 ADD SWAP1 PUSH2 0x2444 SWAP2 SWAP1 PUSH2 0x43AB JUMP JUMPDEST PUSH1 0x3 DUP2 GT ISZERO PUSH2 0x2455 JUMPI PUSH2 0x2455 PUSH2 0x4395 JUMP JUMPDEST EQ ISZERO PUSH2 0x2747 JUMPI PUSH1 0x0 DUP6 DUP6 DUP6 DUP2 DUP2 LT PUSH2 0x246F JUMPI PUSH2 0x246F PUSH2 0x4074 JUMP JUMPDEST SWAP1 POP PUSH2 0x140 MUL ADD PUSH1 0x20 ADD PUSH1 0x20 DUP2 ADD SWAP1 PUSH2 0x2488 SWAP2 SWAP1 PUSH2 0x3CC2 JUMP JUMPDEST PUSH1 0x1 PUSH1 0x1 PUSH1 0xA0 SHL SUB AND PUSH4 0xCAA01148 DUP8 DUP8 DUP8 DUP2 DUP2 LT PUSH2 0x24A8 JUMPI PUSH2 0x24A8 PUSH2 0x4074 JUMP JUMPDEST SWAP1 POP PUSH2 0x140 MUL ADD PUSH1 0x60 ADD PUSH1 0x20 DUP2 ADD SWAP1 PUSH2 0x24C1 SWAP2 SWAP1 PUSH2 0x3CC2 JUMP JUMPDEST DUP9 DUP9 DUP9 DUP2 DUP2 LT PUSH2 0x24D3 JUMPI PUSH2 0x24D3 PUSH2 0x4074 JUMP JUMPDEST SWAP1 POP PUSH2 0x140 MUL ADD PUSH1 0xA0 ADD PUSH1 0x20 DUP2 ADD SWAP1 PUSH2 0x24EC SWAP2 SWAP1 PUSH2 0x3CC2 JUMP JUMPDEST DUP10 DUP10 DUP10 DUP2 DUP2 LT PUSH2 0x24FE JUMPI PUSH2 0x24FE PUSH2 0x4074 JUMP JUMPDEST SWAP1 POP PUSH2 0x140 MUL ADD PUSH1 0xC0 ADD CALLDATALOAD DUP11 DUP11 DUP11 DUP2 DUP2 LT PUSH2 0x251B JUMPI PUSH2 0x251B PUSH2 0x4074 JUMP JUMPDEST PUSH1 0x40 MLOAD PUSH1 0x1 PUSH1 0x1 PUSH1 0xE0 SHL SUB NOT PUSH1 0xE0 DUP10 SWAP1 SHL AND DUP2 MSTORE PUSH1 0x1 PUSH1 0x1 PUSH1 0xA0 SHL SUB SWAP7 DUP8 AND PUSH1 0x4 DUP3 ADD MSTORE SWAP6 SWAP1 SWAP5 AND PUSH1 0x24 DUP7 ADD MSTORE POP PUSH1 0x44 DUP5 ADD SWAP2 SWAP1 SWAP2 MSTORE PUSH2 0x100 PUSH2 0x140 SWAP1 SWAP3 MUL ADD ADD CALLDATALOAD PUSH1 0x64 DUP3 ADD MSTORE PUSH1 0x84 ADD PUSH1 0xA0 PUSH1 0x40 MLOAD DUP1 DUP4 SUB DUP2 DUP7 GAS STATICCALL ISZERO DUP1 ISZERO PUSH2 0x2582 JUMPI RETURNDATASIZE PUSH1 0x0 DUP1 RETURNDATACOPY RETURNDATASIZE PUSH1 0x0 REVERT JUMPDEST POP POP POP POP PUSH1 0x40 MLOAD RETURNDATASIZE PUSH1 0x1F NOT PUSH1 0x1F DUP3 ADD AND DUP3 ADD DUP1 PUSH1 0x40 MSTORE POP DUP2 ADD SWAP1 PUSH2 0x25A6 SWAP2 SWAP1 PUSH2 0x4455 JUMP JUMPDEST POP SWAP3 SWAP4 POP PUSH2 0x25E6 SWAP3 POP DUP9 SWAP2 POP DUP8 SWAP1 POP DUP7 DUP2 DUP2 LT PUSH2 0x25C5 JUMPI PUSH2 0x25C5 PUSH2 0x4074 JUMP JUMPDEST SWAP1 POP PUSH2 0x140 MUL ADD PUSH1 0x60 ADD PUSH1 0x20 DUP2 ADD SWAP1 PUSH2 0x25DE SWAP2 SWAP1 PUSH2 0x3CC2 JUMP JUMPDEST CALLER ADDRESS DUP5 PUSH2 0x30F7 JUMP JUMPDEST PUSH2 0x2627 DUP7 DUP7 DUP7 DUP2 DUP2 LT PUSH2 0x25FB JUMPI PUSH2 0x25FB PUSH2 0x4074 JUMP JUMPDEST SWAP1 POP PUSH2 0x140 MUL ADD PUSH1 0x20 ADD PUSH1 0x20 DUP2 ADD SWAP1 PUSH2 0x2614 SWAP2 SWAP1 PUSH2 0x3CC2 JUMP JUMPDEST DUP3 DUP9 DUP9 DUP9 DUP2 DUP2 LT PUSH2 0x2319 JUMPI PUSH2 0x2319 PUSH2 0x4074 JUMP JUMPDEST PUSH1 0x0 DUP7 DUP7 DUP7 DUP2 DUP2 LT PUSH2 0x263B JUMPI PUSH2 0x263B PUSH2 0x4074 JUMP JUMPDEST SWAP1 POP PUSH2 0x140 MUL ADD PUSH1 0x20 ADD PUSH1 0x20 DUP2 ADD SWAP1 PUSH2 0x2654 SWAP2 SWAP1 PUSH2 0x3CC2 JUMP JUMPDEST PUSH1 0x1 PUSH1 0x1 PUSH1 0xA0 SHL SUB AND PUSH4 0xC98A59CF DUP6 DUP6 PUSH1 0x40 MLOAD DUP4 PUSH4 0xFFFFFFFF AND PUSH1 0xE0 SHL DUP2 MSTORE PUSH1 0x4 ADD PUSH2 0x2681 SWAP3 SWAP2 SWAP1 PUSH2 0x43CC JUMP JUMPDEST PUSH1 0x40 DUP1 MLOAD DUP1 DUP4 SUB DUP2 PUSH1 0x0 DUP8 GAS CALL ISZERO DUP1 ISZERO PUSH2 0x269F JUMPI RETURNDATASIZE PUSH1 0x0 DUP1 RETURNDATACOPY RETURNDATASIZE PUSH1 0x0 REVERT JUMPDEST POP POP POP POP PUSH1 0x40 MLOAD RETURNDATASIZE PUSH1 0x1F NOT PUSH1 0x1F DUP3 ADD AND DUP3 ADD DUP1 PUSH1 0x40 MSTORE POP DUP2 ADD SWAP1 PUSH2 0x26C3 SWAP2 SWAP1 PUSH2 0x4431 JUMP JUMPDEST POP DUP4 MLOAD SWAP1 SWAP2 POP DUP2 GT ISZERO PUSH2 0x270D JUMPI PUSH1 0x40 MLOAD PUSH3 0x461BCD PUSH1 0xE5 SHL DUP2 MSTORE PUSH1 0x20 PUSH1 0x4 DUP3 ADD MSTORE PUSH1 0x12 PUSH1 0x24 DUP3 ADD MSTORE PUSH18 0x2A27A79026A0A72C902A27A5A2A7299024A7 PUSH1 0x71 SHL PUSH1 0x44 DUP3 ADD MSTORE PUSH1 0x64 ADD PUSH2 0x8E2 JUMP JUMPDEST PUSH2 0x2740 CALLER DUP9 DUP9 DUP9 DUP2 DUP2 LT PUSH2 0x2723 JUMPI PUSH2 0x2723 PUSH2 0x4074 JUMP JUMPDEST SWAP1 POP PUSH2 0x140 MUL ADD PUSH1 0xC0 ADD CALLDATALOAD DUP10 DUP10 DUP10 DUP2 DUP2 LT PUSH2 0x23F8 JUMPI PUSH2 0x23F8 PUSH2 0x4074 JUMP JUMPDEST POP POP PUSH2 0x2C1E JUMP JUMPDEST PUSH1 0x2 DUP6 DUP6 DUP6 DUP2 DUP2 LT PUSH2 0x275B JUMPI PUSH2 0x275B PUSH2 0x4074 JUMP JUMPDEST SWAP1 POP PUSH2 0x140 MUL ADD PUSH1 0x40 ADD PUSH1 0x20 DUP2 ADD SWAP1 PUSH2 0x2774 SWAP2 SWAP1 PUSH2 0x43AB JUMP JUMPDEST PUSH1 0x3 DUP2 GT ISZERO PUSH2 0x2785 JUMPI PUSH2 0x2785 PUSH2 0x4395 JUMP JUMPDEST EQ ISZERO PUSH2 0x2B35 JUMPI PUSH1 0x0 DUP6 DUP6 DUP6 DUP2 DUP2 LT PUSH2 0x279F JUMPI PUSH2 0x279F PUSH2 0x4074 JUMP JUMPDEST SWAP1 POP PUSH2 0x140 MUL ADD PUSH1 0x20 ADD PUSH1 0x20 DUP2 ADD SWAP1 PUSH2 0x27B8 SWAP2 SWAP1 PUSH2 0x3CC2 JUMP JUMPDEST PUSH1 0x1 PUSH1 0x1 PUSH1 0xA0 SHL SUB AND PUSH4 0x4C87087D DUP8 DUP8 DUP8 DUP2 DUP2 LT PUSH2 0x27D8 JUMPI PUSH2 0x27D8 PUSH2 0x4074 JUMP JUMPDEST SWAP1 POP PUSH2 0x140 MUL ADD PUSH1 0x0 ADD CALLDATALOAD PUSH1 0x40 MLOAD DUP3 PUSH4 0xFFFFFFFF AND PUSH1 0xE0 SHL DUP2 MSTORE PUSH1 0x4 ADD PUSH2 0x2801 SWAP2 DUP2 MSTORE PUSH1 0x20 ADD SWAP1 JUMP JUMPDEST PUSH2 0x180 PUSH1 0x40 MLOAD DUP1 DUP4 SUB DUP2 DUP7 GAS STATICCALL ISZERO DUP1 ISZERO PUSH2 0x281F JUMPI RETURNDATASIZE PUSH1 0x0 DUP1 RETURNDATACOPY RETURNDATASIZE PUSH1 0x0 REVERT JUMPDEST POP POP POP POP PUSH1 0x40 MLOAD RETURNDATASIZE PUSH1 0x1F NOT PUSH1 0x1F DUP3 ADD AND DUP3 ADD DUP1 PUSH1 0x40 MSTORE POP DUP2 ADD SWAP1 PUSH2 0x2843 SWAP2 SWAP1 PUSH2 0x4495 JUMP JUMPDEST POP POP POP POP POP POP POP POP POP POP SWAP2 POP POP PUSH1 0x0 DUP7 DUP7 DUP7 DUP2 DUP2 LT PUSH2 0x2864 JUMPI PUSH2 0x2864 PUSH2 0x4074 JUMP JUMPDEST SWAP1 POP PUSH2 0x140 MUL ADD PUSH1 0x20 ADD PUSH1 0x20 DUP2 ADD SWAP1 PUSH2 0x287D SWAP2 SWAP1 PUSH2 0x3CC2 JUMP JUMPDEST PUSH1 0x1 PUSH1 0x1 PUSH1 0xA0 SHL SUB AND PUSH4 0xDD1BC96A DUP9 DUP9 DUP9 DUP2 DUP2 LT PUSH2 0x289D JUMPI PUSH2 0x289D PUSH2 0x4074 JUMP JUMPDEST SWAP1 POP PUSH2 0x140 MUL ADD PUSH1 0x0 ADD CALLDATALOAD DUP10 DUP10 DUP10 DUP2 DUP2 LT PUSH2 0x28BA JUMPI PUSH2 0x28BA PUSH2 0x4074 JUMP JUMPDEST SWAP1 POP PUSH2 0x140 MUL ADD PUSH1 0xC0 ADD CALLDATALOAD DUP11 DUP11 DUP11 DUP2 DUP2 LT PUSH2 0x28D7 JUMPI PUSH2 0x28D7 PUSH2 0x4074 JUMP JUMPDEST PUSH1 0x40 MLOAD PUSH1 0x1 PUSH1 0x1 PUSH1 0xE0 SHL SUB NOT PUSH1 0xE0 DUP9 SWAP1 SHL AND DUP2 MSTORE PUSH1 0x4 DUP2 ADD SWAP6 SWAP1 SWAP6 MSTORE PUSH1 0x24 DUP6 ADD SWAP4 SWAP1 SWAP4 MSTORE POP PUSH2 0x100 PUSH2 0x140 SWAP1 SWAP3 MUL ADD ADD CALLDATALOAD PUSH1 0x44 DUP3 ADD MSTORE PUSH1 0x64 ADD PUSH1 0x80 PUSH1 0x40 MLOAD DUP1 DUP4 SUB DUP2 DUP7 GAS STATICCALL ISZERO DUP1 ISZERO PUSH2 0x292D JUMPI RETURNDATASIZE PUSH1 0x0 DUP1 RETURNDATACOPY RETURNDATASIZE PUSH1 0x0 REVERT JUMPDEST POP POP POP POP PUSH1 0x40 MLOAD RETURNDATASIZE PUSH1 0x1F NOT PUSH1 0x1F DUP3 ADD AND DUP3 ADD DUP1 PUSH1 0x40 MSTORE POP DUP2 ADD SWAP1 PUSH2 0x2951 SWAP2 SWAP1 PUSH2 0x4549 JUMP JUMPDEST POP POP POP SWAP1 POP PUSH2 0x296B DUP8 DUP8 DUP8 DUP2 DUP2 LT PUSH2 0x25C5 JUMPI PUSH2 0x25C5 PUSH2 0x4074 JUMP JUMPDEST PUSH2 0x29AC DUP8 DUP8 DUP8 DUP2 DUP2 LT PUSH2 0x2980 JUMPI PUSH2 0x2980 PUSH2 0x4074 JUMP JUMPDEST SWAP1 POP PUSH2 0x140 MUL ADD PUSH1 0x20 ADD PUSH1 0x20 DUP2 ADD SWAP1 PUSH2 0x2999 SWAP2 SWAP1 PUSH2 0x3CC2 JUMP JUMPDEST DUP3 DUP10 DUP10 DUP10 DUP2 DUP2 LT PUSH2 0x2319 JUMPI PUSH2 0x2319 PUSH2 0x4074 JUMP JUMPDEST DUP7 DUP7 DUP7 DUP2 DUP2 LT PUSH2 0x29BE JUMPI PUSH2 0x29BE PUSH2 0x4074 JUMP JUMPDEST SWAP1 POP PUSH2 0x140 MUL ADD PUSH1 0x20 ADD PUSH1 0x20 DUP2 ADD SWAP1 PUSH2 0x29D7 SWAP2 SWAP1 PUSH2 0x3CC2 JUMP JUMPDEST PUSH1 0x1 PUSH1 0x1 PUSH1 0xA0 SHL SUB AND PUSH4 0x68C4B7E9 DUP9 DUP9 DUP9 DUP2 DUP2 LT PUSH2 0x29F7 JUMPI PUSH2 0x29F7 PUSH2 0x4074 JUMP JUMPDEST SWAP1 POP PUSH2 0x140 MUL ADD PUSH1 0x0 ADD CALLDATALOAD DUP10 DUP10 DUP10 DUP2 DUP2 LT PUSH2 0x2A14 JUMPI PUSH2 0x2A14 PUSH2 0x4074 JUMP JUMPDEST SWAP1 POP PUSH2 0x140 MUL ADD PUSH1 0xC0 ADD CALLDATALOAD DUP11 DUP11 DUP11 DUP2 DUP2 LT PUSH2 0x2A31 JUMPI PUSH2 0x2A31 PUSH2 0x4074 JUMP JUMPDEST SWAP1 POP PUSH2 0x140 MUL ADD PUSH1 0x80 ADD CALLDATALOAD DUP12 DUP12 DUP12 DUP2 DUP2 LT PUSH2 0x2A4E JUMPI PUSH2 0x2A4E PUSH2 0x4074 JUMP JUMPDEST SWAP1 POP PUSH2 0x140 MUL ADD PUSH2 0x120 ADD PUSH1 0x20 DUP2 ADD SWAP1 PUSH2 0x2A68 SWAP2 SWAP1 PUSH2 0x3CC2 JUMP JUMPDEST DUP13 DUP13 DUP13 DUP2 DUP2 LT PUSH2 0x2A7A JUMPI PUSH2 0x2A7A PUSH2 0x4074 JUMP JUMPDEST PUSH1 0x40 MLOAD PUSH1 0x1 PUSH1 0x1 PUSH1 0xE0 SHL SUB NOT PUSH1 0xE0 DUP11 SWAP1 SHL AND DUP2 MSTORE PUSH1 0x4 DUP2 ADD SWAP8 SWAP1 SWAP8 MSTORE PUSH1 0x24 DUP8 ADD SWAP6 SWAP1 SWAP6 MSTORE POP PUSH1 0x44 DUP6 ADD SWAP3 SWAP1 SWAP3 MSTORE PUSH1 0x1 PUSH1 0x1 PUSH1 0xA0 SHL SUB AND PUSH1 0x64 DUP5 ADD MSTORE PUSH2 0x100 PUSH2 0x140 SWAP1 SWAP3 MUL ADD ADD CALLDATALOAD PUSH1 0x84 DUP3 ADD MSTORE PUSH1 0xA4 ADD PUSH1 0x0 PUSH1 0x40 MLOAD DUP1 DUP4 SUB DUP2 PUSH1 0x0 DUP8 DUP1 EXTCODESIZE ISZERO DUP1 ISZERO PUSH2 0x2AE3 JUMPI PUSH1 0x0 DUP1 REVERT JUMPDEST POP GAS CALL ISZERO DUP1 ISZERO PUSH2 0x2AF7 JUMPI RETURNDATASIZE PUSH1 0x0 DUP1 RETURNDATACOPY RETURNDATASIZE PUSH1 0x0 REVERT JUMPDEST POP POP POP POP PUSH2 0x2740 CALLER DUP9 DUP9 DUP9 DUP2 DUP2 LT PUSH2 0x2B11 JUMPI PUSH2 0x2B11 PUSH2 0x4074 JUMP JUMPDEST SWAP1 POP PUSH2 0x140 MUL ADD PUSH1 0xC0 ADD CALLDATALOAD DUP5 PUSH1 0x1 PUSH1 0x1 PUSH1 0xA0 SHL SUB AND PUSH2 0x3343 SWAP1 SWAP3 SWAP2 SWAP1 PUSH4 0xFFFFFFFF AND JUMP JUMPDEST DUP5 DUP5 DUP5 DUP2 DUP2 LT PUSH2 0x2B47 JUMPI PUSH2 0x2B47 PUSH2 0x4074 JUMP JUMPDEST SWAP1 POP PUSH2 0x140 MUL ADD PUSH1 0x20 ADD PUSH1 0x20 DUP2 ADD SWAP1 PUSH2 0x2B60 SWAP2 SWAP1 PUSH2 0x3CC2 JUMP JUMPDEST PUSH1 0x1 PUSH1 0x1 PUSH1 0xA0 SHL SUB AND PUSH4 0x1D746D83 DUP7 DUP7 DUP7 DUP2 DUP2 LT PUSH2 0x2B80 JUMPI PUSH2 0x2B80 PUSH2 0x4074 JUMP JUMPDEST SWAP1 POP PUSH2 0x140 MUL ADD PUSH1 0xA0 ADD PUSH1 0x20 DUP2 ADD SWAP1 PUSH2 0x2B99 SWAP2 SWAP1 PUSH2 0x3CC2 JUMP JUMPDEST DUP8 DUP8 DUP8 DUP2 DUP2 LT PUSH2 0x2BAB JUMPI PUSH2 0x2BAB PUSH2 0x4074 JUMP JUMPDEST PUSH1 0x40 MLOAD PUSH1 0xE0 DUP7 SWAP1 SHL PUSH1 0x1 PUSH1 0x1 PUSH1 0xE0 SHL SUB NOT AND DUP2 MSTORE PUSH1 0x1 PUSH1 0x1 PUSH1 0xA0 SHL SUB SWAP5 SWAP1 SWAP5 AND PUSH1 0x4 DUP6 ADD MSTORE PUSH2 0x140 MUL SWAP2 SWAP1 SWAP2 ADD PUSH1 0xC0 ADD CALLDATALOAD PUSH1 0x24 DUP4 ADD MSTORE POP CALLER PUSH1 0x44 DUP3 ADD MSTORE PUSH1 0x64 ADD PUSH1 0x0 PUSH1 0x40 MLOAD DUP1 DUP4 SUB DUP2 PUSH1 0x0 DUP8 DUP1 EXTCODESIZE ISZERO DUP1 ISZERO PUSH2 0x2C05 JUMPI PUSH1 0x0 DUP1 REVERT JUMPDEST POP GAS CALL ISZERO DUP1 ISZERO PUSH2 0x2C19 JUMPI RETURNDATASIZE PUSH1 0x0 DUP1 RETURNDATACOPY RETURNDATASIZE PUSH1 0x0 REVERT JUMPDEST POP POP POP POP JUMPDEST POP POP DUP1 DUP1 PUSH2 0x2C2B SWAP1 PUSH2 0x408A JUMP JUMPDEST SWAP2 POP POP PUSH2 0x20B5 JUMP JUMPDEST PUSH1 0x3 SLOAD PUSH1 0x40 MLOAD PUSH4 0x226E7615 PUSH1 0xE0 SHL DUP2 MSTORE CALLER PUSH1 0x4 DUP3 ADD MSTORE PUSH1 0x0 SWAP2 PUSH1 0x1 PUSH1 0x1 PUSH1 0xA0 SHL SUB AND SWAP1 PUSH4 0x226E7615 SWAP1 PUSH1 0x24 ADD PUSH1 0x20 PUSH1 0x40 MLOAD DUP1 DUP4 SUB DUP2 DUP7 GAS STATICCALL ISZERO DUP1 ISZERO PUSH2 0x2C7C JUMPI RETURNDATASIZE PUSH1 0x0 DUP1 RETURNDATACOPY RETURNDATASIZE PUSH1 0x0 REVERT JUMPDEST POP POP POP POP PUSH1 0x40 MLOAD RETURNDATASIZE PUSH1 0x1F NOT PUSH1 0x1F DUP3 ADD AND DUP3 ADD DUP1 PUSH1 0x40 MSTORE POP DUP2 ADD SWAP1 PUSH2 0x2CA0 SWAP2 SWAP1 PUSH2 0x4210 JUMP JUMPDEST PUSH2 0x2CBC JUMPI PUSH1 0x40 MLOAD PUSH3 0x461BCD PUSH1 0xE5 SHL DUP2 MSTORE PUSH1 0x4 ADD PUSH2 0x8E2 SWAP1 PUSH2 0x422B JUMP JUMPDEST PUSH2 0x2CE7 DUP4 DUP4 PUSH1 0x0 DUP2 DUP2 LT PUSH2 0x2CD2 JUMPI PUSH2 0x2CD2 PUSH2 0x4074 JUMP JUMPDEST SWAP1 POP PUSH1 0x20 MUL ADD PUSH1 0x20 DUP2 ADD SWAP1 PUSH2 0x43F SWAP2 SWAP1 PUSH2 0x3CC2 JUMP JUMPDEST PUSH2 0x2D3E JUMPI PUSH1 0x40 MLOAD PUSH3 0x461BCD PUSH1 0xE5 SHL DUP2 MSTORE PUSH1 0x20 PUSH1 0x4 DUP3 ADD MSTORE PUSH1 0x22 PUSH1 0x24 DUP3 ADD MSTORE PUSH32 0x464143544F525920524F555445523A20696E76616C6964207373436F6E747261 PUSH1 0x44 DUP3 ADD MSTORE PUSH2 0x18DD PUSH1 0xF2 SHL PUSH1 0x64 DUP3 ADD MSTORE PUSH1 0x84 ADD PUSH2 0x8E2 JUMP JUMPDEST PUSH1 0x0 DUP8 DUP8 PUSH1 0x1 DUP2 DUP2 LT PUSH2 0x2D53 JUMPI PUSH2 0x2D53 PUSH2 0x4074 JUMP JUMPDEST SWAP1 POP PUSH1 0x20 MUL ADD CALLDATALOAD GT PUSH2 0x2D98 JUMPI PUSH1 0x40 MLOAD PUSH3 0x461BCD PUSH1 0xE5 SHL DUP2 MSTORE PUSH1 0x20 PUSH1 0x4 DUP3 ADD MSTORE PUSH1 0xE PUSH1 0x24 DUP3 ADD MSTORE PUSH14 0x57726F6E6720646563696D616C73 PUSH1 0x90 SHL PUSH1 0x44 DUP3 ADD MSTORE PUSH1 0x64 ADD PUSH2 0x8E2 JUMP JUMPDEST PUSH2 0x2E1A PUSH2 0x2DAB PUSH1 0x40 DUP11 ADD PUSH1 0x20 DUP12 ADD PUSH2 0x3CC2 JUMP JUMPDEST DUP5 DUP5 PUSH1 0x2 DUP2 DUP2 LT PUSH2 0x2DBE JUMPI PUSH2 0x2DBE PUSH2 0x4074 JUMP JUMPDEST SWAP1 POP PUSH1 0x20 MUL ADD PUSH1 0x20 DUP2 ADD SWAP1 PUSH2 0x2DD3 SWAP2 SWAP1 PUSH2 0x3CC2 JUMP JUMPDEST DUP6 DUP6 PUSH1 0x0 DUP2 DUP2 LT PUSH2 0x2DE6 JUMPI PUSH2 0x2DE6 PUSH2 0x4074 JUMP JUMPDEST SWAP1 POP PUSH1 0x20 MUL ADD PUSH1 0x20 DUP2 ADD SWAP1 PUSH2 0x2DFB SWAP2 SWAP1 PUSH2 0x3CC2 JUMP JUMPDEST DUP11 DUP11 PUSH1 0x4 DUP2 DUP2 LT PUSH2 0x2E0E JUMPI PUSH2 0x2E0E PUSH2 0x4074 JUMP JUMPDEST SWAP1 POP PUSH1 0x20 MUL ADD CALLDATALOAD PUSH2 0x30F7 JUMP JUMPDEST PUSH1 0x40 DUP1 MLOAD DUP1 DUP3 ADD DUP3 MSTORE PUSH1 0x0 SWAP2 PUSH2 0x2EDD SWAP2 SWAP1 DUP12 SWAP1 PUSH1 0x2 SWAP1 DUP4 SWAP1 DUP4 SWAP1 DUP1 DUP3 DUP5 CALLDATACOPY PUSH1 0x0 SWAP3 ADD SWAP2 SWAP1 SWAP2 MSTORE POP POP PUSH1 0x40 DUP1 MLOAD PUSH1 0x20 DUP1 DUP14 MUL DUP3 DUP2 ADD DUP3 ADD SWAP1 SWAP4 MSTORE DUP13 DUP3 MSTORE SWAP1 SWAP3 POP DUP13 SWAP2 DUP13 SWAP2 DUP3 SWAP2 SWAP1 DUP6 ADD SWAP1 DUP5 SWAP1 DUP1 DUP3 DUP5 CALLDATACOPY PUSH1 0x0 SWAP3 ADD SWAP2 SWAP1 SWAP2 MSTORE POP POP PUSH1 0x40 DUP1 MLOAD PUSH1 0x20 DUP1 DUP14 MUL DUP3 DUP2 ADD DUP3 ADD SWAP1 SWAP4 MSTORE DUP13 DUP3 MSTORE SWAP1 SWAP4 POP DUP13 SWAP3 POP DUP12 SWAP2 DUP3 SWAP2 DUP6 ADD SWAP1 DUP5 SWAP1 DUP1 DUP3 DUP5 CALLDATACOPY PUSH1 0x0 SWAP3 ADD SWAP2 SWAP1 SWAP2 MSTORE POP POP PUSH1 0x40 DUP1 MLOAD PUSH1 0x20 DUP1 DUP13 MUL DUP3 DUP2 ADD DUP3 ADD SWAP1 SWAP4 MSTORE DUP12 DUP3 MSTORE SWAP1 SWAP4 POP DUP12 SWAP3 POP DUP11 SWAP2 DUP3 SWAP2 DUP6 ADD SWAP1 DUP5 SWAP1 DUP1 DUP3 DUP5 CALLDATACOPY PUSH1 0x0 SWAP3 ADD SWAP2 SWAP1 SWAP2 MSTORE POP PUSH2 0x365B SWAP3 POP POP POP JUMP JUMPDEST SWAP1 POP PUSH1 0x1 PUSH1 0x1 PUSH1 0xA0 SHL SUB DUP2 AND PUSH2 0x2F2D JUMPI PUSH1 0x40 MLOAD PUSH3 0x461BCD PUSH1 0xE5 SHL DUP2 MSTORE PUSH1 0x20 PUSH1 0x4 DUP3 ADD MSTORE PUSH1 0x15 PUSH1 0x24 DUP3 ADD MSTORE PUSH21 0x119052531151081513C81111541313D6481413D3D3 PUSH1 0x5A SHL PUSH1 0x44 DUP3 ADD MSTORE PUSH1 0x64 ADD PUSH2 0x8E2 JUMP JUMPDEST PUSH2 0x2F40 PUSH2 0x4F5 PUSH1 0x40 DUP12 ADD PUSH1 0x20 DUP13 ADD PUSH2 0x3CC2 JUMP JUMPDEST ISZERO PUSH2 0x2F89 JUMPI PUSH1 0x40 MLOAD PUSH1 0x1 DUP2 MSTORE PUSH1 0x1 PUSH1 0x1 PUSH1 0xA0 SHL SUB DUP3 AND SWAP1 PUSH32 0x90279D7790471E260411DB76079630DFAA838FC987D29AE7AA7DC1BCD773EF2E SWAP1 PUSH1 0x20 ADD PUSH1 0x40 MLOAD DUP1 SWAP2 SUB SWAP1 LOG2 PUSH2 0x2FC9 JUMP JUMPDEST PUSH1 0x40 MLOAD PUSH1 0x0 DUP2 MSTORE PUSH1 0x1 PUSH1 0x1 PUSH1 0xA0 SHL SUB DUP3 AND SWAP1 PUSH32 0x90279D7790471E260411DB76079630DFAA838FC987D29AE7AA7DC1BCD773EF2E SWAP1 PUSH1 0x20 ADD PUSH1 0x40 MLOAD DUP1 SWAP2 SUB SWAP1 LOG2 JUMPDEST SWAP9 SWAP8 POP POP POP POP POP POP POP POP JUMP JUMPDEST PUSH1 0x0 DUP1 JUMPDEST PUSH1 0xD SLOAD DUP2 LT ISZERO PUSH2 0x84D JUMPI DUP3 PUSH1 0x1 PUSH1 0x1 PUSH1 0xA0 SHL SUB AND PUSH1 0xD DUP3 DUP2 SLOAD DUP2 LT PUSH2 0x3000 JUMPI PUSH2 0x3000 PUSH2 0x4074 JUMP JUMPDEST PUSH1 0x0 SWAP2 DUP3 MSTORE PUSH1 0x20 SWAP1 SWAP2 KECCAK256 ADD SLOAD PUSH1 0x1 PUSH1 0x1 PUSH1 0xA0 SHL SUB AND EQ ISZERO PUSH2 0x3024 JUMPI POP PUSH1 0x1 SWAP3 SWAP2 POP POP JUMP JUMPDEST DUP1 PUSH2 0x302E DUP2 PUSH2 0x408A JUMP JUMPDEST SWAP2 POP POP PUSH2 0x2FD9 JUMP JUMPDEST PUSH1 0x0 DUP1 JUMPDEST PUSH1 0x1 SLOAD DUP2 LT ISZERO PUSH2 0x84D JUMPI DUP3 PUSH1 0x1 PUSH1 0x1 PUSH1 0xA0 SHL SUB AND PUSH1 0x1 DUP3 DUP2 SLOAD DUP2 LT PUSH2 0x3061 JUMPI PUSH2 0x3061 PUSH2 0x4074 JUMP JUMPDEST PUSH1 0x0 SWAP2 DUP3 MSTORE PUSH1 0x20 SWAP1 SWAP2 KECCAK256 ADD SLOAD PUSH1 0x1 PUSH1 0x1 PUSH1 0xA0 SHL SUB AND EQ ISZERO PUSH2 0x3085 JUMPI POP PUSH1 0x1 SWAP3 SWAP2 POP POP JUMP JUMPDEST DUP1 PUSH2 0x308F DUP2 PUSH2 0x408A JUMP JUMPDEST SWAP2 POP POP PUSH2 0x303A JUMP JUMPDEST PUSH1 0x60 PUSH1 0x1 DUP1 SLOAD DUP1 PUSH1 0x20 MUL PUSH1 0x20 ADD PUSH1 0x40 MLOAD SWAP1 DUP2 ADD PUSH1 0x40 MSTORE DUP1 SWAP3 SWAP2 SWAP1 DUP2 DUP2 MSTORE PUSH1 0x20 ADD DUP3 DUP1 SLOAD DUP1 ISZERO PUSH2 0x8AE JUMPI PUSH1 0x20 MUL DUP3 ADD SWAP2 SWAP1 PUSH1 0x0 MSTORE PUSH1 0x20 PUSH1 0x0 KECCAK256 SWAP1 DUP2 SLOAD PUSH1 0x1 PUSH1 0x1 PUSH1 0xA0 SHL SUB AND DUP2 MSTORE PUSH1 0x1 SWAP1 SWAP2 ADD SWAP1 PUSH1 0x20 ADD DUP1 DUP4 GT PUSH2 0x890 JUMPI POP POP POP POP POP SWAP1 POP SWAP1 JUMP JUMPDEST PUSH1 0x40 MLOAD PUSH4 0x70A08231 PUSH1 0xE0 SHL DUP2 MSTORE PUSH1 0x1 PUSH1 0x1 PUSH1 0xA0 SHL SUB DUP4 DUP2 AND PUSH1 0x4 DUP4 ADD MSTORE PUSH1 0x0 SWAP2 SWAP1 DUP7 AND SWAP1 PUSH4 0x70A08231 SWAP1 PUSH1 0x24 ADD PUSH1 0x20 PUSH1 0x40 MLOAD DUP1 DUP4 SUB DUP2 DUP7 GAS STATICCALL ISZERO DUP1 ISZERO PUSH2 0x3141 JUMPI RETURNDATASIZE PUSH1 0x0 DUP1 RETURNDATACOPY RETURNDATASIZE PUSH1 0x0 REVERT JUMPDEST POP POP POP POP PUSH1 0x40 MLOAD RETURNDATASIZE PUSH1 0x1F NOT PUSH1 0x1F DUP3 ADD AND DUP3 ADD DUP1 PUSH1 0x40 MSTORE POP DUP2 ADD SWAP1 PUSH2 0x3165 SWAP2 SWAP1 PUSH2 0x4305 JUMP JUMPDEST SWAP1 POP PUSH2 0x317C PUSH1 0x1 PUSH1 0x1 PUSH1 0xA0 SHL SUB DUP7 AND DUP6 DUP6 DUP6 PUSH2 0x398F JUMP JUMPDEST PUSH2 0x3186 DUP2 DUP4 PUSH2 0x39C7 JUMP JUMPDEST PUSH1 0x40 MLOAD PUSH4 0x70A08231 PUSH1 0xE0 SHL DUP2 MSTORE PUSH1 0x1 PUSH1 0x1 PUSH1 0xA0 SHL SUB DUP6 DUP2 AND PUSH1 0x4 DUP4 ADD MSTORE DUP8 AND SWAP1 PUSH4 0x70A08231 SWAP1 PUSH1 0x24 ADD PUSH1 0x20 PUSH1 0x40 MLOAD DUP1 DUP4 SUB DUP2 DUP7 GAS STATICCALL ISZERO DUP1 ISZERO PUSH2 0x31CC JUMPI RETURNDATASIZE PUSH1 0x0 DUP1 RETURNDATACOPY RETURNDATASIZE PUSH1 0x0 REVERT JUMPDEST POP POP POP POP PUSH1 0x40 MLOAD RETURNDATASIZE PUSH1 0x1F NOT PUSH1 0x1F DUP3 ADD AND DUP3 ADD DUP1 PUSH1 0x40 MSTORE POP DUP2 ADD SWAP1 PUSH2 0x31F0 SWAP2 SWAP1 PUSH2 0x4305 JUMP JUMPDEST LT ISZERO PUSH2 0x323E JUMPI PUSH1 0x40 MLOAD PUSH3 0x461BCD PUSH1 0xE5 SHL DUP2 MSTORE PUSH1 0x20 PUSH1 0x4 DUP3 ADD MSTORE PUSH1 0x1A PUSH1 0x24 DUP3 ADD MSTORE PUSH32 0x5472616E7366657220616D6F756E7420697320746F6F206C6F77000000000000 PUSH1 0x44 DUP3 ADD MSTORE PUSH1 0x64 ADD PUSH2 0x8E2 JUMP JUMPDEST POP POP POP POP POP JUMP JUMPDEST PUSH1 0x40 MLOAD PUSH4 0x6EB1769F PUSH1 0xE1 SHL DUP2 MSTORE ADDRESS PUSH1 0x4 DUP3 ADD MSTORE PUSH1 0x1 PUSH1 0x1 PUSH1 0xA0 SHL SUB DUP4 DUP2 AND PUSH1 0x24 DUP4 ADD MSTORE PUSH1 0x0 SWAP2 DUP4 SWAP2 DUP7 AND SWAP1 PUSH4 0xDD62ED3E SWAP1 PUSH1 0x44 ADD PUSH1 0x20 PUSH1 0x40 MLOAD DUP1 DUP4 SUB DUP2 DUP7 GAS STATICCALL ISZERO DUP1 ISZERO PUSH2 0x3296 JUMPI RETURNDATASIZE PUSH1 0x0 DUP1 RETURNDATACOPY RETURNDATASIZE PUSH1 0x0 REVERT JUMPDEST POP POP POP POP PUSH1 0x40 MLOAD RETURNDATASIZE PUSH1 0x1F NOT PUSH1 0x1F DUP3 ADD AND DUP3 ADD DUP1 PUSH1 0x40 MSTORE POP DUP2 ADD SWAP1 PUSH2 0x32BA SWAP2 SWAP1 PUSH2 0x4305 JUMP JUMPDEST PUSH2 0x32C4 SWAP2 SWAP1 PUSH2 0x437D JUMP JUMPDEST PUSH1 0x40 MLOAD PUSH1 0x1 PUSH1 0x1 PUSH1 0xA0 SHL SUB DUP6 AND PUSH1 0x24 DUP3 ADD MSTORE PUSH1 0x44 DUP2 ADD DUP3 SWAP1 MSTORE SWAP1 SWAP2 POP PUSH2 0x332A SWAP1 DUP6 SWAP1 PUSH4 0x95EA7B3 PUSH1 0xE0 SHL SWAP1 PUSH1 0x64 ADD JUMPDEST PUSH1 0x40 DUP1 MLOAD PUSH1 0x1F NOT DUP2 DUP5 SUB ADD DUP2 MSTORE SWAP2 SWAP1 MSTORE PUSH1 0x20 DUP2 ADD DUP1 MLOAD PUSH1 0x1 PUSH1 0x1 PUSH1 0xE0 SHL SUB AND PUSH1 0x1 PUSH1 0x1 PUSH1 0xE0 SHL SUB NOT SWAP1 SWAP4 AND SWAP3 SWAP1 SWAP3 OR SWAP1 SWAP2 MSTORE PUSH2 0x39D3 JUMP JUMPDEST POP POP POP POP JUMP JUMPDEST PUSH1 0x0 PUSH2 0x333C DUP3 DUP5 PUSH2 0x411E JUMP JUMPDEST SWAP4 SWAP3 POP POP POP JUMP JUMPDEST PUSH1 0x40 MLOAD PUSH1 0x1 PUSH1 0x1 PUSH1 0xA0 SHL SUB DUP4 AND PUSH1 0x24 DUP3 ADD MSTORE PUSH1 0x44 DUP2 ADD DUP3 SWAP1 MSTORE PUSH2 0x19E0 SWAP1 DUP5 SWAP1 PUSH4 0xA9059CBB PUSH1 0xE0 SHL SWAP1 PUSH1 0x64 ADD PUSH2 0x32F3 JUMP JUMPDEST PUSH1 0x1 PUSH1 0x1 PUSH1 0xA0 SHL SUB DUP2 AND PUSH2 0x33DD JUMPI PUSH1 0x40 MLOAD PUSH3 0x461BCD PUSH1 0xE5 SHL DUP2 MSTORE PUSH1 0x20 PUSH1 0x4 DUP3 ADD MSTORE PUSH1 0x2B PUSH1 0x24 DUP3 ADD MSTORE PUSH32 0x466163746F7279526F757465723A20496E76616C696420706F6F6C54656D706C PUSH1 0x44 DUP3 ADD MSTORE PUSH11 0x6174652061646472657373 PUSH1 0xA8 SHL PUSH1 0x64 DUP3 ADD MSTORE PUSH1 0x84 ADD PUSH2 0x8E2 JUMP JUMPDEST PUSH2 0x33E6 DUP2 PUSH2 0x1CF3 JUMP JUMPDEST PUSH2 0xB36 JUMPI PUSH1 0x1 DUP1 SLOAD DUP1 DUP3 ADD DUP3 SSTORE PUSH1 0x0 SWAP2 DUP3 MSTORE PUSH32 0xB10E2D527612073B26EECDFD717E6A320CF44B4AFAC2B0732D9FCBE2B7FA0CF6 ADD DUP1 SLOAD PUSH1 0x1 PUSH1 0x1 PUSH1 0xA0 SHL SUB NOT AND PUSH1 0x1 PUSH1 0x1 PUSH1 0xA0 SHL SUB DUP5 AND SWAP1 DUP2 OR SWAP1 SWAP2 SSTORE PUSH1 0x40 MLOAD SWAP1 SWAP2 CALLER SWAP2 PUSH32 0xC3674C32CBEC94FE266AAB7EF71F65B9BF77E1ED501D4F2BECE8752F5352E9AC SWAP2 SWAP1 LOG3 POP JUMP JUMPDEST PUSH2 0x346D DUP2 PUSH2 0xCB4 JUMP JUMPDEST PUSH2 0xB36 JUMPI PUSH1 0xA DUP1 SLOAD PUSH1 0x1 DUP2 ADD DUP3 SSTORE PUSH1 0x0 SWAP2 DUP3 MSTORE PUSH32 0xC65A7BB8D6351C1CF70C95A316CC6A92839C986682D98BC35F958F4883F9D2A8 ADD DUP1 SLOAD PUSH1 0x1 PUSH1 0x1 PUSH1 0xA0 SHL SUB NOT AND PUSH1 0x1 PUSH1 0x1 PUSH1 0xA0 SHL SUB DUP5 AND SWAP1 DUP2 OR SWAP1 SWAP2 SSTORE PUSH1 0x40 MLOAD SWAP1 SWAP2 CALLER SWAP2 PUSH32 0xDFFBD9DED1C09446F09377DE547142DCCE7DC541C8B0B028142B1EBA7026B9E7 SWAP2 SWAP1 LOG3 POP JUMP JUMPDEST PUSH1 0x0 JUMPDEST PUSH1 0x1 SLOAD DUP2 LT ISZERO PUSH2 0x3548 JUMPI DUP2 PUSH1 0x1 PUSH1 0x1 PUSH1 0xA0 SHL SUB AND PUSH1 0x1 DUP3 DUP2 SLOAD DUP2 LT PUSH2 0x3516 JUMPI PUSH2 0x3516 PUSH2 0x4074 JUMP JUMPDEST PUSH1 0x0 SWAP2 DUP3 MSTORE PUSH1 0x20 SWAP1 SWAP2 KECCAK256 ADD SLOAD PUSH1 0x1 PUSH1 0x1 PUSH1 0xA0 SHL SUB AND EQ ISZERO PUSH2 0x3536 JUMPI PUSH2 0x3548 JUMP JUMPDEST DUP1 PUSH2 0x3540 DUP2 PUSH2 0x408A JUMP JUMPDEST SWAP2 POP POP PUSH2 0x34EF JUMP JUMPDEST PUSH1 0x1 SLOAD DUP2 LT ISZERO PUSH2 0xA5C JUMPI DUP1 JUMPDEST PUSH1 0x1 DUP1 SLOAD PUSH2 0x3562 SWAP2 SWAP1 PUSH2 0x411E JUMP JUMPDEST DUP2 LT ISZERO PUSH2 0x35EC JUMPI PUSH1 0x1 PUSH2 0x3575 DUP3 DUP3 PUSH2 0x437D JUMP JUMPDEST DUP2 SLOAD DUP2 LT PUSH2 0x3585 JUMPI PUSH2 0x3585 PUSH2 0x4074 JUMP JUMPDEST PUSH1 0x0 SWAP2 DUP3 MSTORE PUSH1 0x20 SWAP1 SWAP2 KECCAK256 ADD SLOAD PUSH1 0x1 DUP1 SLOAD PUSH1 0x1 PUSH1 0x1 PUSH1 0xA0 SHL SUB SWAP1 SWAP3 AND SWAP2 DUP4 SWAP1 DUP2 LT PUSH2 0x35B1 JUMPI PUSH2 0x35B1 PUSH2 0x4074 JUMP JUMPDEST PUSH1 0x0 SWAP2 DUP3 MSTORE PUSH1 0x20 SWAP1 SWAP2 KECCAK256 ADD DUP1 SLOAD PUSH1 0x1 PUSH1 0x1 PUSH1 0xA0 SHL SUB NOT AND PUSH1 0x1 PUSH1 0x1 PUSH1 0xA0 SHL SUB SWAP3 SWAP1 SWAP3 AND SWAP2 SWAP1 SWAP2 OR SWAP1 SSTORE DUP1 PUSH2 0x35E4 DUP2 PUSH2 0x408A JUMP JUMPDEST SWAP2 POP POP PUSH2 0x3554 JUMP JUMPDEST POP PUSH1 0x1 DUP1 SLOAD DUP1 PUSH2 0x35FE JUMPI PUSH2 0x35FE PUSH2 0x4135 JUMP JUMPDEST PUSH1 0x0 DUP3 DUP2 MSTORE PUSH1 0x20 DUP2 KECCAK256 DUP3 ADD PUSH1 0x0 NOT SWAP1 DUP2 ADD DUP1 SLOAD PUSH1 0x1 PUSH1 0x1 PUSH1 0xA0 SHL SUB NOT AND SWAP1 SSTORE SWAP1 SWAP2 ADD SWAP1 SWAP2 SSTORE PUSH1 0x40 MLOAD PUSH1 0x1 PUSH1 0x1 PUSH1 0xA0 SHL SUB DUP5 AND SWAP2 CALLER SWAP2 PUSH32 0xC73FD5D40669565E257CBCD153784617EF26ACFCC9FEAD31E68C0DCE3CE82FB2 SWAP2 SWAP1 LOG3 POP POP JUMP JUMPDEST PUSH1 0x0 PUSH2 0x3680 DUP3 PUSH1 0x5 DUP2 MLOAD DUP2 LT PUSH2 0x3673 JUMPI PUSH2 0x3673 PUSH2 0x4074 JUMP JUMPDEST PUSH1 0x20 MUL PUSH1 0x20 ADD ADD MLOAD PUSH2 0x1CF3 JUMP JUMPDEST PUSH2 0x36CC JUMPI PUSH1 0x40 MLOAD PUSH3 0x461BCD PUSH1 0xE5 SHL DUP2 MSTORE PUSH1 0x20 PUSH1 0x4 DUP3 ADD MSTORE PUSH1 0x1D PUSH1 0x24 DUP3 ADD MSTORE PUSH32 0x42466163746F72793A2057726F6E6720506F6F6C2054656D706C617465000000 PUSH1 0x44 DUP3 ADD MSTORE PUSH1 0x64 ADD PUSH2 0x8E2 JUMP JUMPDEST PUSH1 0x0 PUSH1 0x40 MLOAD DUP1 PUSH1 0x20 ADD PUSH1 0x40 MSTORE DUP1 DUP5 PUSH1 0x4 DUP2 MLOAD DUP2 LT PUSH2 0x36EC JUMPI PUSH2 0x36EC PUSH2 0x4074 JUMP JUMPDEST PUSH1 0x20 MUL PUSH1 0x20 ADD ADD MLOAD PUSH1 0x1 PUSH1 0x1 PUSH1 0xA0 SHL SUB AND PUSH1 0x1 PUSH1 0x1 PUSH1 0xA0 SHL SUB AND DUP2 MSTORE POP SWAP1 POP PUSH2 0x372E DUP4 PUSH1 0x5 DUP2 MLOAD DUP2 LT PUSH2 0x3721 JUMPI PUSH2 0x3721 PUSH2 0x4074 JUMP JUMPDEST PUSH1 0x20 MUL PUSH1 0x20 ADD ADD MLOAD PUSH2 0x3AA5 JUMP JUMPDEST SWAP2 POP PUSH1 0x1 PUSH1 0x1 PUSH1 0xA0 SHL SUB DUP3 AND PUSH2 0x3792 JUMPI PUSH1 0x40 MLOAD PUSH3 0x461BCD PUSH1 0xE5 SHL DUP2 MSTORE PUSH1 0x20 PUSH1 0x4 DUP3 ADD MSTORE PUSH1 0x24 DUP1 DUP3 ADD MSTORE PUSH32 0x42466163746F72793A20696E76616C69642062706F6F6C207A65726F20616464 PUSH1 0x44 DUP3 ADD MSTORE PUSH4 0x72657373 PUSH1 0xE0 SHL PUSH1 0x64 DUP3 ADD MSTORE PUSH1 0x84 ADD PUSH2 0x8E2 JUMP JUMPDEST PUSH1 0x0 DUP3 SWAP1 POP DUP1 PUSH1 0x1 PUSH1 0x1 PUSH1 0xA0 SHL SUB AND PUSH4 0x284E97A9 DUP6 PUSH1 0x0 DUP2 MLOAD DUP2 LT PUSH2 0x37B9 JUMPI PUSH2 0x37B9 PUSH2 0x4074 JUMP JUMPDEST PUSH1 0x20 MUL PUSH1 0x20 ADD ADD MLOAD ADDRESS DUP9 PUSH1 0x0 DUP1 DUP14 DUP10 PUSH1 0x40 MLOAD DUP9 PUSH4 0xFFFFFFFF AND PUSH1 0xE0 SHL DUP2 MSTORE PUSH1 0x4 ADD PUSH2 0x37EA SWAP8 SWAP7 SWAP6 SWAP5 SWAP4 SWAP3 SWAP2 SWAP1 PUSH2 0x45E6 JUMP JUMPDEST PUSH1 0x20 PUSH1 0x40 MLOAD DUP1 DUP4 SUB DUP2 PUSH1 0x0 DUP8 GAS CALL ISZERO DUP1 ISZERO PUSH2 0x3809 JUMPI RETURNDATASIZE PUSH1 0x0 DUP1 RETURNDATACOPY RETURNDATASIZE PUSH1 0x0 REVERT JUMPDEST POP POP POP POP PUSH1 0x40 MLOAD RETURNDATASIZE PUSH1 0x1F NOT PUSH1 0x1F DUP3 ADD AND DUP3 ADD DUP1 PUSH1 0x40 MSTORE POP DUP2 ADD SWAP1 PUSH2 0x382D SWAP2 SWAP1 PUSH2 0x4210 JUMP JUMPDEST PUSH2 0x3870 JUMPI PUSH1 0x40 MLOAD PUSH3 0x461BCD PUSH1 0xE5 SHL DUP2 MSTORE PUSH1 0x20 PUSH1 0x4 DUP3 ADD MSTORE PUSH1 0x14 PUSH1 0x24 DUP3 ADD MSTORE PUSH20 0x11549497D253925512505312569157D09413D3D3 PUSH1 0x62 SHL PUSH1 0x44 DUP3 ADD MSTORE PUSH1 0x64 ADD PUSH2 0x8E2 JUMP JUMPDEST DUP4 PUSH1 0x0 DUP2 MLOAD DUP2 LT PUSH2 0x3883 JUMPI PUSH2 0x3883 PUSH2 0x4074 JUMP JUMPDEST PUSH1 0x20 MUL PUSH1 0x20 ADD ADD MLOAD PUSH1 0x1 PUSH1 0x1 PUSH1 0xA0 SHL SUB AND PUSH4 0x83B87E5A DUP9 PUSH1 0x0 PUSH1 0x2 DUP2 LT PUSH2 0x38AC JUMPI PUSH2 0x38AC PUSH2 0x4074 JUMP JUMPDEST PUSH1 0x20 MUL ADD MLOAD DUP10 PUSH1 0x1 PUSH1 0x20 MUL ADD MLOAD DUP7 DUP9 PUSH1 0x3 DUP2 MLOAD DUP2 LT PUSH2 0x38CD JUMPI PUSH2 0x38CD PUSH2 0x4074 JUMP JUMPDEST PUSH1 0x20 MUL PUSH1 0x20 ADD ADD MLOAD DUP12 PUSH1 0x40 MLOAD DUP7 PUSH4 0xFFFFFFFF AND PUSH1 0xE0 SHL DUP2 MSTORE PUSH1 0x4 ADD PUSH2 0x38F6 SWAP6 SWAP5 SWAP4 SWAP3 SWAP2 SWAP1 PUSH2 0x465F JUMP JUMPDEST PUSH1 0x20 PUSH1 0x40 MLOAD DUP1 DUP4 SUB DUP2 PUSH1 0x0 DUP8 GAS CALL ISZERO DUP1 ISZERO PUSH2 0x3915 JUMPI RETURNDATASIZE PUSH1 0x0 DUP1 RETURNDATACOPY RETURNDATASIZE PUSH1 0x0 REVERT JUMPDEST POP POP POP POP PUSH1 0x40 MLOAD RETURNDATASIZE PUSH1 0x1F NOT PUSH1 0x1F DUP3 ADD AND DUP3 ADD DUP1 PUSH1 0x40 MSTORE POP DUP2 ADD SWAP1 PUSH2 0x3939 SWAP2 SWAP1 PUSH2 0x4210 JUMP JUMPDEST PUSH2 0x3985 JUMPI PUSH1 0x40 MLOAD PUSH3 0x461BCD PUSH1 0xE5 SHL DUP2 MSTORE PUSH1 0x20 PUSH1 0x4 DUP3 ADD MSTORE PUSH1 0x1A PUSH1 0x24 DUP3 ADD MSTORE PUSH32 0x4552525F494E495449414C495A455F534944455354414B494E47000000000000 PUSH1 0x44 DUP3 ADD MSTORE PUSH1 0x64 ADD PUSH2 0x8E2 JUMP JUMPDEST POP POP SWAP5 SWAP4 POP POP POP POP JUMP JUMPDEST PUSH1 0x40 MLOAD PUSH1 0x1 PUSH1 0x1 PUSH1 0xA0 SHL SUB DUP1 DUP6 AND PUSH1 0x24 DUP4 ADD MSTORE DUP4 AND PUSH1 0x44 DUP3 ADD MSTORE PUSH1 0x64 DUP2 ADD DUP3 SWAP1 MSTORE PUSH2 0x332A SWAP1 DUP6 SWAP1 PUSH4 0x23B872DD PUSH1 0xE0 SHL SWAP1 PUSH1 0x84 ADD PUSH2 0x32F3 JUMP JUMPDEST PUSH1 0x0 PUSH2 0x333C DUP3 DUP5 PUSH2 0x437D JUMP JUMPDEST PUSH1 0x0 PUSH2 0x3A28 DUP3 PUSH1 0x40 MLOAD DUP1 PUSH1 0x40 ADD PUSH1 0x40 MSTORE DUP1 PUSH1 0x20 DUP2 MSTORE PUSH1 0x20 ADD PUSH32 0x5361666545524332303A206C6F772D6C6576656C2063616C6C206661696C6564 DUP2 MSTORE POP DUP6 PUSH1 0x1 PUSH1 0x1 PUSH1 0xA0 SHL SUB AND PUSH2 0x3B35 SWAP1 SWAP3 SWAP2 SWAP1 PUSH4 0xFFFFFFFF AND JUMP JUMPDEST DUP1 MLOAD SWAP1 SWAP2 POP ISZERO PUSH2 0x19E0 JUMPI DUP1 DUP1 PUSH1 0x20 ADD SWAP1 MLOAD DUP2 ADD SWAP1 PUSH2 0x3A46 SWAP2 SWAP1 PUSH2 0x4210 JUMP JUMPDEST PUSH2 0x19E0 JUMPI PUSH1 0x40 MLOAD PUSH3 0x461BCD PUSH1 0xE5 SHL DUP2 MSTORE PUSH1 0x20 PUSH1 0x4 DUP3 ADD MSTORE PUSH1 0x2A PUSH1 0x24 DUP3 ADD MSTORE PUSH32 0x5361666545524332303A204552433230206F7065726174696F6E20646964206E PUSH1 0x44 DUP3 ADD MSTORE PUSH10 0x1BDD081CDD58D8D95959 PUSH1 0xB2 SHL PUSH1 0x64 DUP3 ADD MSTORE PUSH1 0x84 ADD PUSH2 0x8E2 JUMP JUMPDEST PUSH1 0x0 DUP1 DUP3 PUSH1 0x60 SHL SWAP1 POP PUSH1 0x40 MLOAD PUSH20 0x3D602D80600A3D3981F3363D3D373D3D3D363D73 PUSH1 0x60 SHL DUP2 MSTORE DUP2 PUSH1 0x14 DUP3 ADD MSTORE PUSH15 0x5AF43D82803E903D91602B57FD5BF3 PUSH1 0x88 SHL PUSH1 0x28 DUP3 ADD MSTORE PUSH1 0x37 DUP2 PUSH1 0x0 CREATE PUSH1 0x40 MLOAD PUSH1 0x1 PUSH1 0x1 PUSH1 0xA0 SHL SUB DUP3 AND DUP2 MSTORE SWAP1 SWAP4 POP PUSH32 0x117C72E6C25F0A072E36E148DF71468CE2F3DBE7DEFEC5B2C257A6E3EB65278C SWAP2 POP PUSH1 0x20 ADD PUSH1 0x40 MLOAD DUP1 SWAP2 SUB SWAP1 LOG1 POP SWAP2 SWAP1 POP JUMP JUMPDEST PUSH1 0x60 PUSH2 0x3B44 DUP5 DUP5 PUSH1 0x0 DUP6 PUSH2 0x3B4C JUMP JUMPDEST SWAP5 SWAP4 POP POP POP POP JUMP JUMPDEST PUSH1 0x60 DUP3 SELFBALANCE LT ISZERO PUSH2 0x3BAD JUMPI PUSH1 0x40 MLOAD PUSH3 0x461BCD PUSH1 0xE5 SHL DUP2 MSTORE PUSH1 0x20 PUSH1 0x4 DUP3 ADD MSTORE PUSH1 0x26 PUSH1 0x24 DUP3 ADD MSTORE PUSH32 0x416464726573733A20696E73756666696369656E742062616C616E636520666F PUSH1 0x44 DUP3 ADD MSTORE PUSH6 0x1C8818D85B1B PUSH1 0xD2 SHL PUSH1 0x64 DUP3 ADD MSTORE PUSH1 0x84 ADD PUSH2 0x8E2 JUMP JUMPDEST DUP5 EXTCODESIZE PUSH2 0x3BFB JUMPI PUSH1 0x40 MLOAD PUSH3 0x461BCD PUSH1 0xE5 SHL DUP2 MSTORE PUSH1 0x20 PUSH1 0x4 DUP3 ADD MSTORE PUSH1 0x1D PUSH1 0x24 DUP3 ADD MSTORE PUSH32 0x416464726573733A2063616C6C20746F206E6F6E2D636F6E7472616374000000 PUSH1 0x44 DUP3 ADD MSTORE PUSH1 0x64 ADD PUSH2 0x8E2 JUMP JUMPDEST PUSH1 0x0 DUP1 DUP7 PUSH1 0x1 PUSH1 0x1 PUSH1 0xA0 SHL SUB AND DUP6 DUP8 PUSH1 0x40 MLOAD PUSH2 0x3C17 SWAP2 SWAP1 PUSH2 0x46C7 JUMP JUMPDEST PUSH1 0x0 PUSH1 0x40 MLOAD DUP1 DUP4 SUB DUP2 DUP6 DUP8 GAS CALL SWAP3 POP POP POP RETURNDATASIZE DUP1 PUSH1 0x0 DUP2 EQ PUSH2 0x3C54 JUMPI PUSH1 0x40 MLOAD SWAP2 POP PUSH1 0x1F NOT PUSH1 0x3F RETURNDATASIZE ADD AND DUP3 ADD PUSH1 0x40 MSTORE RETURNDATASIZE DUP3 MSTORE RETURNDATASIZE PUSH1 0x0 PUSH1 0x20 DUP5 ADD RETURNDATACOPY PUSH2 0x3C59 JUMP JUMPDEST PUSH1 0x60 SWAP2 POP JUMPDEST POP SWAP2 POP SWAP2 POP PUSH2 0x3C69 DUP3 DUP3 DUP7 PUSH2 0x3C74 JUMP JUMPDEST SWAP8 SWAP7 POP POP POP POP POP POP POP JUMP JUMPDEST PUSH1 0x60 DUP4 ISZERO PUSH2 0x3C83 JUMPI POP DUP2 PUSH2 0x333C JUMP JUMPDEST DUP3 MLOAD ISZERO PUSH2 0x3C93 JUMPI DUP3 MLOAD DUP1 DUP5 PUSH1 0x20 ADD REVERT JUMPDEST DUP2 PUSH1 0x40 MLOAD PUSH3 0x461BCD PUSH1 0xE5 SHL DUP2 MSTORE PUSH1 0x4 ADD PUSH2 0x8E2 SWAP2 SWAP1 PUSH2 0x46E3 JUMP JUMPDEST PUSH1 0x1 PUSH1 0x1 PUSH1 0xA0 SHL SUB DUP2 AND DUP2 EQ PUSH2 0xB36 JUMPI PUSH1 0x0 DUP1 REVERT JUMPDEST PUSH1 0x0 PUSH1 0x20 DUP3 DUP5 SUB SLT ISZERO PUSH2 0x3CD4 JUMPI PUSH1 0x0 DUP1 REVERT JUMPDEST DUP2 CALLDATALOAD PUSH2 0x333C DUP2 PUSH2 0x3CAD JUMP JUMPDEST PUSH1 0x20 DUP1 DUP3 MSTORE DUP3 MLOAD DUP3 DUP3 ADD DUP2 SWAP1 MSTORE PUSH1 0x0 SWAP2 SWAP1 DUP5 DUP3 ADD SWAP1 PUSH1 0x40 DUP6 ADD SWAP1 DUP5 JUMPDEST DUP2 DUP2 LT ISZERO PUSH2 0x3D20 JUMPI DUP4 MLOAD PUSH1 0x1 PUSH1 0x1 PUSH1 0xA0 SHL SUB AND DUP4 MSTORE SWAP3 DUP5 ADD SWAP3 SWAP2 DUP5 ADD SWAP2 PUSH1 0x1 ADD PUSH2 0x3CFB JUMP JUMPDEST POP SWAP1 SWAP7 SWAP6 POP POP POP POP POP POP JUMP JUMPDEST PUSH1 0x0 PUSH1 0x20 DUP3 DUP5 SUB SLT ISZERO PUSH2 0x3D3E JUMPI PUSH1 0x0 DUP1 REVERT JUMPDEST POP CALLDATALOAD SWAP2 SWAP1 POP JUMP JUMPDEST PUSH1 0x0 DUP1 DUP4 PUSH1 0x1F DUP5 ADD SLT PUSH2 0x3D57 JUMPI PUSH1 0x0 DUP1 REVERT JUMPDEST POP DUP2 CALLDATALOAD PUSH8 0xFFFFFFFFFFFFFFFF DUP2 GT ISZERO PUSH2 0x3D6F JUMPI PUSH1 0x0 DUP1 REVERT JUMPDEST PUSH1 0x20 DUP4 ADD SWAP2 POP DUP4 PUSH1 0x20 DUP3 PUSH1 0x5 SHL DUP6 ADD ADD GT ISZERO PUSH2 0x3D8A JUMPI PUSH1 0x0 DUP1 REVERT JUMPDEST SWAP3 POP SWAP3 SWAP1 POP JUMP JUMPDEST PUSH1 0x0 DUP1 PUSH1 0x0 DUP1 PUSH1 0x0 PUSH1 0x60 DUP7 DUP9 SUB SLT ISZERO PUSH2 0x3DA9 JUMPI PUSH1 0x0 DUP1 REVERT JUMPDEST DUP6 CALLDATALOAD PUSH2 0x3DB4 DUP2 PUSH2 0x3CAD JUMP JUMPDEST SWAP5 POP PUSH1 0x20 DUP7 ADD CALLDATALOAD PUSH8 0xFFFFFFFFFFFFFFFF DUP1 DUP3 GT ISZERO PUSH2 0x3DD1 JUMPI PUSH1 0x0 DUP1 REVERT JUMPDEST PUSH2 0x3DDD DUP10 DUP4 DUP11 ADD PUSH2 0x3D45 JUMP JUMPDEST SWAP1 SWAP7 POP SWAP5 POP PUSH1 0x40 DUP9 ADD CALLDATALOAD SWAP2 POP DUP1 DUP3 GT ISZERO PUSH2 0x3DF6 JUMPI PUSH1 0x0 DUP1 REVERT JUMPDEST POP PUSH2 0x3E03 DUP9 DUP3 DUP10 ADD PUSH2 0x3D45 JUMP JUMPDEST SWAP7 SWAP10 SWAP6 SWAP9 POP SWAP4 SWAP7 POP SWAP3 SWAP5 SWAP4 SWAP3 POP POP POP JUMP JUMPDEST PUSH1 0x0 DUP1 PUSH1 0x20 DUP4 DUP6 SUB SLT ISZERO PUSH2 0x3E27 JUMPI PUSH1 0x0 DUP1 REVERT JUMPDEST DUP3 CALLDATALOAD PUSH8 0xFFFFFFFFFFFFFFFF DUP1 DUP3 GT ISZERO PUSH2 0x3E3F JUMPI PUSH1 0x0 DUP1 REVERT JUMPDEST DUP2 DUP6 ADD SWAP2 POP DUP6 PUSH1 0x1F DUP4 ADD SLT PUSH2 0x3E53 JUMPI PUSH1 0x0 DUP1 REVERT JUMPDEST DUP2 CALLDATALOAD DUP2 DUP2 GT ISZERO PUSH2 0x3E62 JUMPI PUSH1 0x0 DUP1 REVERT JUMPDEST DUP7 PUSH1 0x20 PUSH1 0x60 DUP4 MUL DUP6 ADD ADD GT ISZERO PUSH2 0x3E77 JUMPI PUSH1 0x0 DUP1 REVERT JUMPDEST PUSH1 0x20 SWAP3 SWAP1 SWAP3 ADD SWAP7 SWAP2 SWAP6 POP SWAP1 SWAP4 POP POP POP POP JUMP JUMPDEST PUSH1 0x0 DUP1 PUSH1 0x0 DUP1 PUSH1 0x80 DUP6 DUP8 SUB SLT ISZERO PUSH2 0x3E9F JUMPI PUSH1 0x0 DUP1 REVERT JUMPDEST POP POP DUP3 CALLDATALOAD SWAP5 PUSH1 0x20 DUP5 ADD CALLDATALOAD SWAP5 POP PUSH1 0x40 DUP5 ADD CALLDATALOAD SWAP4 PUSH1 0x60 ADD CALLDATALOAD SWAP3 POP SWAP1 POP JUMP JUMPDEST PUSH1 0x0 DUP1 PUSH1 0x0 DUP1 PUSH1 0x0 DUP1 PUSH1 0xC0 DUP8 DUP10 SUB SLT ISZERO PUSH2 0x3ED4 JUMPI PUSH1 0x0 DUP1 REVERT JUMPDEST DUP7 CALLDATALOAD PUSH2 0x3EDF DUP2 PUSH2 0x3CAD JUMP JUMPDEST SWAP6 POP PUSH1 0x20 DUP8 ADD CALLDATALOAD PUSH2 0x3EEF DUP2 PUSH2 0x3CAD JUMP JUMPDEST SWAP5 POP PUSH1 0x40 DUP8 ADD CALLDATALOAD SWAP4 POP PUSH1 0x60 DUP8 ADD CALLDATALOAD SWAP3 POP PUSH1 0x80 DUP8 ADD CALLDATALOAD PUSH2 0x3F0D DUP2 PUSH2 0x3CAD JUMP JUMPDEST SWAP2 POP PUSH1 0xA0 DUP8 ADD CALLDATALOAD PUSH2 0x3F1D DUP2 PUSH2 0x3CAD JUMP JUMPDEST DUP1 SWAP2 POP POP SWAP3 SWAP6 POP SWAP3 SWAP6 POP SWAP3 SWAP6 JUMP JUMPDEST PUSH1 0x0 DUP1 PUSH1 0x20 DUP4 DUP6 SUB SLT ISZERO PUSH2 0x3F3E JUMPI PUSH1 0x0 DUP1 REVERT JUMPDEST DUP3 CALLDATALOAD PUSH8 0xFFFFFFFFFFFFFFFF DUP1 DUP3 GT ISZERO PUSH2 0x3F56 JUMPI PUSH1 0x0 DUP1 REVERT JUMPDEST DUP2 DUP6 ADD SWAP2 POP DUP6 PUSH1 0x1F DUP4 ADD SLT PUSH2 0x3F6A JUMPI PUSH1 0x0 DUP1 REVERT JUMPDEST DUP2 CALLDATALOAD DUP2 DUP2 GT ISZERO PUSH2 0x3F79 JUMPI PUSH1 0x0 DUP1 REVERT JUMPDEST DUP7 PUSH1 0x20 PUSH2 0x140 DUP4 MUL DUP6 ADD ADD GT ISZERO PUSH2 0x3E77 JUMPI PUSH1 0x0 DUP1 REVERT JUMPDEST PUSH1 0x0 DUP1 PUSH1 0x0 DUP1 PUSH1 0x0 DUP1 PUSH1 0x0 PUSH1 0xA0 DUP9 DUP11 SUB SLT ISZERO PUSH2 0x3FAA JUMPI PUSH1 0x0 DUP1 REVERT JUMPDEST PUSH1 0x40 DUP9 ADD DUP10 DUP2 GT ISZERO PUSH2 0x3FBB JUMPI PUSH1 0x0 DUP1 REVERT JUMPDEST DUP9 SWAP8 POP CALLDATALOAD PUSH8 0xFFFFFFFFFFFFFFFF DUP1 DUP3 GT ISZERO PUSH2 0x3FD5 JUMPI PUSH1 0x0 DUP1 REVERT JUMPDEST PUSH2 0x3FE1 DUP12 DUP4 DUP13 ADD PUSH2 0x3D45 JUMP JUMPDEST SWAP1 SWAP9 POP SWAP7 POP PUSH1 0x60 DUP11 ADD CALLDATALOAD SWAP2 POP DUP1 DUP3 GT ISZERO PUSH2 0x3FFA JUMPI PUSH1 0x0 DUP1 REVERT JUMPDEST PUSH2 0x4006 DUP12 DUP4 DUP13 ADD PUSH2 0x3D45 JUMP JUMPDEST SWAP1 SWAP7 POP SWAP5 POP PUSH1 0x80 DUP11 ADD CALLDATALOAD SWAP2 POP DUP1 DUP3 GT ISZERO PUSH2 0x401F JUMPI PUSH1 0x0 DUP1 REVERT JUMPDEST POP PUSH2 0x402C DUP11 DUP3 DUP12 ADD PUSH2 0x3D45 JUMP JUMPDEST SWAP9 SWAP12 SWAP8 SWAP11 POP SWAP6 SWAP9 POP SWAP4 SWAP7 SWAP3 SWAP6 SWAP3 SWAP4 POP POP POP JUMP JUMPDEST PUSH4 0x4E487B71 PUSH1 0xE0 SHL PUSH1 0x0 MSTORE PUSH1 0x11 PUSH1 0x4 MSTORE PUSH1 0x24 PUSH1 0x0 REVERT JUMPDEST PUSH1 0x0 DUP2 PUSH1 0x0 NOT DIV DUP4 GT DUP3 ISZERO ISZERO AND ISZERO PUSH2 0x406F JUMPI PUSH2 0x406F PUSH2 0x403F JUMP JUMPDEST POP MUL SWAP1 JUMP JUMPDEST PUSH4 0x4E487B71 PUSH1 0xE0 SHL PUSH1 0x0 MSTORE PUSH1 0x32 PUSH1 0x4 MSTORE PUSH1 0x24 PUSH1 0x0 REVERT JUMPDEST PUSH1 0x0 PUSH1 0x0 NOT DUP3 EQ ISZERO PUSH2 0x409E JUMPI PUSH2 0x409E PUSH2 0x403F JUMP JUMPDEST POP PUSH1 0x1 ADD SWAP1 JUMP JUMPDEST PUSH1 0x20 DUP1 DUP3 MSTORE PUSH1 0x16 SWAP1 DUP3 ADD MSTORE PUSH22 0x27B1B2B0B72937BABA32B91D102727AA1027ABA722A9 PUSH1 0x51 SHL PUSH1 0x40 DUP3 ADD MSTORE PUSH1 0x60 ADD SWAP1 JUMP JUMPDEST PUSH1 0x20 DUP1 DUP3 MSTORE PUSH1 0x29 SWAP1 DUP3 ADD MSTORE PUSH32 0x466163746F7279526F757465723A20496E76616C6964205F64697370656E7365 PUSH1 0x40 DUP3 ADD MSTORE PUSH9 0x722061646472657373 PUSH1 0xB8 SHL PUSH1 0x60 DUP3 ADD MSTORE PUSH1 0x80 ADD SWAP1 JUMP JUMPDEST PUSH1 0x0 DUP3 DUP3 LT ISZERO PUSH2 0x4130 JUMPI PUSH2 0x4130 PUSH2 0x403F JUMP JUMPDEST POP SUB SWAP1 JUMP JUMPDEST PUSH4 0x4E487B71 PUSH1 0xE0 SHL PUSH1 0x0 MSTORE PUSH1 0x31 PUSH1 0x4 MSTORE PUSH1 0x24 PUSH1 0x0 REVERT JUMPDEST PUSH1 0x20 DUP1 DUP3 MSTORE PUSH1 0x29 SWAP1 DUP3 ADD MSTORE PUSH32 0x466163746F7279526F757465723A20496E76616C6964205F6669786564526174 PUSH1 0x40 DUP3 ADD MSTORE PUSH9 0x652061646472657373 PUSH1 0xB8 SHL PUSH1 0x60 DUP3 ADD MSTORE PUSH1 0x80 ADD SWAP1 JUMP JUMPDEST PUSH1 0x0 DUP3 PUSH2 0x41B1 JUMPI PUSH4 0x4E487B71 PUSH1 0xE0 SHL PUSH1 0x0 MSTORE PUSH1 0x12 PUSH1 0x4 MSTORE PUSH1 0x24 PUSH1 0x0 REVERT JUMPDEST POP DIV SWAP1 JUMP JUMPDEST PUSH1 0x20 DUP1 DUP3 MSTORE PUSH1 0x2A SWAP1 DUP3 ADD MSTORE PUSH32 0x466163746F7279526F757465723A20496E76616C6964205F7373436F6E747261 PUSH1 0x40 DUP3 ADD MSTORE PUSH10 0x63742061646472657373 PUSH1 0xB0 SHL PUSH1 0x60 DUP3 ADD MSTORE PUSH1 0x80 ADD SWAP1 JUMP JUMPDEST DUP1 MLOAD DUP1 ISZERO ISZERO DUP2 EQ PUSH2 0x1C2E JUMPI PUSH1 0x0 DUP1 REVERT JUMPDEST PUSH1 0x0 PUSH1 0x20 DUP3 DUP5 SUB SLT ISZERO PUSH2 0x4222 JUMPI PUSH1 0x0 DUP1 REVERT JUMPDEST PUSH2 0x333C DUP3 PUSH2 0x4200 JUMP JUMPDEST PUSH1 0x20 DUP1 DUP3 MSTORE PUSH1 0x2B SWAP1 DUP3 ADD MSTORE PUSH32 0x464143544F525920524F555445523A204E4F54204F524947494E414C20455243 PUSH1 0x40 DUP3 ADD MSTORE PUSH11 0x32302054454D504C415445 PUSH1 0xA8 SHL PUSH1 0x60 DUP3 ADD MSTORE PUSH1 0x80 ADD SWAP1 JUMP JUMPDEST PUSH1 0x1 PUSH1 0x1 PUSH1 0xA0 SHL SUB DUP7 DUP2 AND DUP3 MSTORE PUSH1 0x60 PUSH1 0x20 DUP1 DUP5 ADD DUP3 SWAP1 MSTORE SWAP1 DUP4 ADD DUP7 SWAP1 MSTORE PUSH1 0x0 SWAP2 DUP8 SWAP2 PUSH1 0x80 DUP6 ADD DUP5 JUMPDEST DUP10 DUP2 LT ISZERO PUSH2 0x42C5 JUMPI DUP5 CALLDATALOAD PUSH2 0x42B1 DUP2 PUSH2 0x3CAD JUMP JUMPDEST DUP5 AND DUP3 MSTORE SWAP4 DUP3 ADD SWAP4 SWAP1 DUP3 ADD SWAP1 PUSH1 0x1 ADD PUSH2 0x429E JUMP JUMPDEST POP DUP6 DUP2 SUB PUSH1 0x40 DUP8 ADD MSTORE DUP7 DUP2 MSTORE PUSH1 0x1 PUSH1 0x1 PUSH1 0xFB SHL SUB DUP8 GT ISZERO PUSH2 0x42E5 JUMPI PUSH1 0x0 DUP1 REVERT JUMPDEST DUP7 PUSH1 0x5 SHL SWAP4 POP DUP4 DUP9 DUP4 DUP4 ADD CALLDATACOPY PUSH1 0x0 SWAP4 ADD ADD SWAP2 DUP3 MSTORE POP SWAP8 SWAP7 POP POP POP POP POP POP POP JUMP JUMPDEST PUSH1 0x0 PUSH1 0x20 DUP3 DUP5 SUB SLT ISZERO PUSH2 0x4317 JUMPI PUSH1 0x0 DUP1 REVERT JUMPDEST POP MLOAD SWAP2 SWAP1 POP JUMP JUMPDEST PUSH1 0x20 DUP1 DUP3 MSTORE PUSH1 0x22 SWAP1 DUP3 ADD MSTORE PUSH32 0x466163746F7279526F757465723A20546F6F204D616E79204F7065726174696F PUSH1 0x40 DUP3 ADD MSTORE PUSH2 0x6E73 PUSH1 0xF0 SHL PUSH1 0x60 DUP3 ADD MSTORE PUSH1 0x80 ADD SWAP1 JUMP JUMPDEST PUSH1 0x0 PUSH1 0x20 DUP3 DUP5 SUB SLT ISZERO PUSH2 0x4372 JUMPI PUSH1 0x0 DUP1 REVERT JUMPDEST DUP2 MLOAD PUSH2 0x333C DUP2 PUSH2 0x3CAD JUMP JUMPDEST PUSH1 0x0 DUP3 NOT DUP3 GT ISZERO PUSH2 0x4390 JUMPI PUSH2 0x4390 PUSH2 0x403F JUMP JUMPDEST POP ADD SWAP1 JUMP JUMPDEST PUSH4 0x4E487B71 PUSH1 0xE0 SHL PUSH1 0x0 MSTORE PUSH1 0x21 PUSH1 0x4 MSTORE PUSH1 0x24 PUSH1 0x0 REVERT JUMPDEST PUSH1 0x0 PUSH1 0x20 DUP3 DUP5 SUB SLT ISZERO PUSH2 0x43BD JUMPI PUSH1 0x0 DUP1 REVERT JUMPDEST DUP2 CALLDATALOAD PUSH1 0x4 DUP2 LT PUSH2 0x333C JUMPI PUSH1 0x0 DUP1 REVERT JUMPDEST PUSH1 0xE0 DUP2 ADD DUP2 DUP5 PUSH1 0x0 JUMPDEST PUSH1 0x3 DUP2 LT ISZERO PUSH2 0x43FD JUMPI DUP2 MLOAD PUSH1 0x1 PUSH1 0x1 PUSH1 0xA0 SHL SUB AND DUP4 MSTORE PUSH1 0x20 SWAP3 DUP4 ADD SWAP3 SWAP1 SWAP2 ADD SWAP1 PUSH1 0x1 ADD PUSH2 0x43D5 JUMP JUMPDEST POP POP POP PUSH1 0x60 DUP3 ADD DUP4 PUSH1 0x0 JUMPDEST PUSH1 0x4 DUP2 LT ISZERO PUSH2 0x4427 JUMPI DUP2 MLOAD DUP4 MSTORE PUSH1 0x20 SWAP3 DUP4 ADD SWAP3 SWAP1 SWAP2 ADD SWAP1 PUSH1 0x1 ADD PUSH2 0x4408 JUMP JUMPDEST POP POP POP SWAP4 SWAP3 POP POP POP JUMP JUMPDEST PUSH1 0x0 DUP1 PUSH1 0x40 DUP4 DUP6 SUB SLT ISZERO PUSH2 0x4444 JUMPI PUSH1 0x0 DUP1 REVERT JUMPDEST POP POP DUP1 MLOAD PUSH1 0x20 SWAP1 SWAP2 ADD MLOAD SWAP1 SWAP3 SWAP1 SWAP2 POP JUMP JUMPDEST PUSH1 0x0 DUP1 PUSH1 0x0 DUP1 PUSH1 0x0 PUSH1 0xA0 DUP7 DUP9 SUB SLT ISZERO PUSH2 0x446D JUMPI PUSH1 0x0 DUP1 REVERT JUMPDEST POP POP DUP4 MLOAD PUSH1 0x20 DUP6 ADD MLOAD PUSH1 0x40 DUP7 ADD MLOAD PUSH1 0x60 DUP8 ADD MLOAD PUSH1 0x80 SWAP1 SWAP8 ADD MLOAD SWAP3 SWAP9 SWAP2 SWAP8 POP SWAP6 SWAP5 POP SWAP1 SWAP3 POP SWAP1 POP JUMP JUMPDEST PUSH1 0x0 DUP1 PUSH1 0x0 DUP1 PUSH1 0x0 DUP1 PUSH1 0x0 DUP1 PUSH1 0x0 DUP1 PUSH1 0x0 DUP1 PUSH2 0x180 DUP14 DUP16 SUB SLT ISZERO PUSH2 0x44B8 JUMPI PUSH1 0x0 DUP1 REVERT JUMPDEST DUP13 MLOAD PUSH2 0x44C3 DUP2 PUSH2 0x3CAD JUMP JUMPDEST PUSH1 0x20 DUP15 ADD MLOAD SWAP1 SWAP13 POP PUSH2 0x44D4 DUP2 PUSH2 0x3CAD JUMP JUMPDEST PUSH1 0x40 DUP15 ADD MLOAD PUSH1 0x60 DUP16 ADD MLOAD SWAP2 SWAP13 POP SWAP11 POP PUSH2 0x44EC DUP2 PUSH2 0x3CAD JUMP JUMPDEST PUSH1 0x80 DUP15 ADD MLOAD PUSH1 0xA0 DUP16 ADD MLOAD SWAP2 SWAP11 POP SWAP9 POP SWAP7 POP PUSH2 0x4509 PUSH1 0xC0 DUP15 ADD PUSH2 0x4200 JUMP JUMPDEST SWAP6 POP PUSH1 0xE0 DUP14 ADD MLOAD SWAP5 POP PUSH2 0x100 DUP14 ADD MLOAD SWAP4 POP PUSH2 0x120 DUP14 ADD MLOAD SWAP3 POP PUSH2 0x140 DUP14 ADD MLOAD SWAP2 POP PUSH2 0x4537 PUSH2 0x160 DUP15 ADD PUSH2 0x4200 JUMP JUMPDEST SWAP1 POP SWAP3 SWAP6 SWAP9 SWAP12 POP SWAP3 SWAP6 SWAP9 SWAP12 POP SWAP3 SWAP6 SWAP9 SWAP12 JUMP JUMPDEST PUSH1 0x0 DUP1 PUSH1 0x0 DUP1 PUSH1 0x80 DUP6 DUP8 SUB SLT ISZERO PUSH2 0x455F JUMPI PUSH1 0x0 DUP1 REVERT JUMPDEST POP POP DUP3 MLOAD PUSH1 0x20 DUP5 ADD MLOAD PUSH1 0x40 DUP6 ADD MLOAD PUSH1 0x60 SWAP1 SWAP6 ADD MLOAD SWAP2 SWAP7 SWAP1 SWAP6 POP SWAP1 SWAP3 POP SWAP1 POP JUMP JUMPDEST PUSH1 0x0 DUP2 MLOAD DUP1 DUP5 MSTORE PUSH1 0x20 DUP1 DUP6 ADD SWAP5 POP DUP1 DUP5 ADD PUSH1 0x0 JUMPDEST DUP4 DUP2 LT ISZERO PUSH2 0x45AF JUMPI DUP2 MLOAD DUP8 MSTORE SWAP6 DUP3 ADD SWAP6 SWAP1 DUP3 ADD SWAP1 PUSH1 0x1 ADD PUSH2 0x4593 JUMP JUMPDEST POP SWAP5 SWAP6 SWAP5 POP POP POP POP POP JUMP JUMPDEST DUP1 PUSH1 0x0 JUMPDEST PUSH1 0x1 DUP2 LT ISZERO PUSH2 0x332A JUMPI DUP2 MLOAD PUSH1 0x1 PUSH1 0x1 PUSH1 0xA0 SHL SUB AND DUP5 MSTORE PUSH1 0x20 SWAP4 DUP5 ADD SWAP4 SWAP1 SWAP2 ADD SWAP1 PUSH1 0x1 ADD PUSH2 0x45BE JUMP JUMPDEST PUSH1 0x0 PUSH2 0x100 PUSH1 0x1 DUP1 PUSH1 0xA0 SHL SUB DUP1 DUP12 AND DUP5 MSTORE PUSH1 0x20 DUP2 DUP12 AND DUP2 DUP7 ADD MSTORE DUP3 PUSH1 0x40 DUP7 ADD MSTORE PUSH2 0x4612 DUP4 DUP7 ADD DUP12 PUSH2 0x457F JUMP JUMPDEST SWAP4 POP DUP9 ISZERO ISZERO PUSH1 0x60 DUP7 ADD MSTORE DUP8 ISZERO ISZERO PUSH1 0x80 DUP7 ADD MSTORE PUSH1 0xA0 DUP6 ADD SWAP3 POP DUP7 PUSH1 0x0 JUMPDEST PUSH1 0x2 DUP2 LT ISZERO PUSH2 0x464D JUMPI DUP2 MLOAD DUP5 AND DUP6 MSTORE SWAP4 DUP3 ADD SWAP4 SWAP1 DUP3 ADD SWAP1 PUSH1 0x1 ADD PUSH2 0x462E JUMP JUMPDEST POP POP POP POP POP PUSH2 0x2FC9 PUSH1 0xE0 DUP4 ADD DUP5 PUSH2 0x45BA JUMP JUMPDEST PUSH1 0x1 PUSH1 0x1 PUSH1 0xA0 SHL SUB DUP7 DUP2 AND DUP3 MSTORE DUP6 DUP2 AND PUSH1 0x20 DUP4 ADD MSTORE DUP5 DUP2 AND PUSH1 0x40 DUP4 ADD MSTORE DUP4 AND PUSH1 0x60 DUP3 ADD MSTORE PUSH1 0xA0 PUSH1 0x80 DUP3 ADD DUP2 SWAP1 MSTORE PUSH1 0x0 SWAP1 PUSH2 0x3C69 SWAP1 DUP4 ADD DUP5 PUSH2 0x457F JUMP JUMPDEST PUSH1 0x0 JUMPDEST DUP4 DUP2 LT ISZERO PUSH2 0x46B6 JUMPI DUP2 DUP2 ADD MLOAD DUP4 DUP3 ADD MSTORE PUSH1 0x20 ADD PUSH2 0x469E JUMP JUMPDEST DUP4 DUP2 GT ISZERO PUSH2 0x332A JUMPI POP POP PUSH1 0x0 SWAP2 ADD MSTORE JUMP JUMPDEST PUSH1 0x0 DUP3 MLOAD PUSH2 0x46D9 DUP2 DUP5 PUSH1 0x20 DUP8 ADD PUSH2 0x469B JUMP JUMPDEST SWAP2 SWAP1 SWAP2 ADD SWAP3 SWAP2 POP POP JUMP JUMPDEST PUSH1 0x20 DUP2 MSTORE PUSH1 0x0 DUP3 MLOAD DUP1 PUSH1 0x20 DUP5 ADD MSTORE PUSH2 0x4702 DUP2 PUSH1 0x40 DUP6 ADD PUSH1 0x20 DUP8 ADD PUSH2 0x469B JUMP JUMPDEST PUSH1 0x1F ADD PUSH1 0x1F NOT AND SWAP2 SWAP1 SWAP2 ADD PUSH1 0x40 ADD SWAP3 SWAP2 POP POP JUMP INVALID LOG2 PUSH5 0x6970667358 0x22 SLT KECCAK256 DUP6 0x28 DUP13 ADD 0xDC 0x1F 0xC1 0xAB 0xAD 0xEF 0xCA PUSH29 0xA32EC938B4000F85413E214FC8C09D2C7F48E0C164736F6C634300080C STOP CALLER ","sha1":"900f40e55cb328294ba6e289df79db009a060529","source":"pragma solidity 0.8.12;\n// Copyright BigchainDB GmbH and Ocean Protocol contributors\n// SPDX-License-Identifier: (Apache-2.0 AND CC-BY-4.0)\n// Code is Apache-2.0 and docs are CC-BY-4.0\n\nimport \"./balancer/BFactory.sol\";\nimport \"../interfaces/IFactory.sol\";\nimport \"../interfaces/IERC20.sol\";\nimport \"../interfaces/IFixedRateExchange.sol\";\nimport \"../interfaces/IPool.sol\";\nimport \"../interfaces/IDispenser.sol\";\nimport \"../utils/SafeERC20.sol\";\nimport \"OpenZeppelin/openzeppelin-contracts@4.2.0/contracts/utils/math/SafeMath.sol\";\n\ncontract FactoryRouter is BFactory, IFactoryRouter {\n    using SafeERC20 for IERC20;\n    using SafeMath for uint256;\n    address public routerOwner;\n    address public factory;\n    address public fixedRate;\n    uint256 public minVestingPeriodInBlocks = 2426000;\n\n    uint256 public swapOceanFee = 1e15; //0.1%\n    uint256 public swapNonOceanFee = 2e15;  // 0.2%\n    uint256 public consumeFee = 3e16; // 0.03 DT\n    uint256 public providerFee = 0; // 0%\n    address[] public approvedTokens;\n    address[] public ssContracts;\n    address[] public fixedrates;\n    address[] public dispensers;\n    // mapping(address => bool) public approvedTokens;\n    // mapping(address => bool) public ssContracts;\n    // mapping(address => bool) public fixedPrice;\n    // mapping(address => bool) public dispenser;\n\n    event NewPool(address indexed poolAddress, bool isOcean);\n    event VestingPeriodChanges(address indexed caller, uint256 minVestingPeriodInBlocks);\n    event RouterChanged(address indexed caller, address indexed newRouter);\n    event FactoryContractChanged(\n        address indexed caller,\n        address indexed contractAddress\n    );\n    event TokenAdded(address indexed caller, address indexed token);\n    event TokenRemoved(address indexed caller, address indexed token);\n    event SSContractAdded(\n        address indexed caller,\n        address indexed contractAddress\n    );\n    event SSContractRemoved(\n        address indexed caller,\n        address indexed contractAddress\n    );\n    event FixedRateContractAdded(\n        address indexed caller,\n        address indexed contractAddress\n    );\n    event FixedRateContractRemoved(\n        address indexed caller,\n        address indexed contractAddress\n    );\n    event DispenserContractAdded(\n        address indexed caller,\n        address indexed contractAddress\n    );\n    event DispenserContractRemoved(\n        address indexed caller,\n        address indexed contractAddress\n    );\n\n    event OPCFeeChanged(address indexed caller, uint256 newSwapOceanFee,\n        uint256 newSwapNonOceanFee, uint256 newConsumeFee, uint256 newProviderFee);\n\n    modifier onlyRouterOwner() {\n        require(routerOwner == msg.sender, \"OceanRouter: NOT OWNER\");\n        _;\n    }\n\n    event OPCCollectorChanged(address indexed caller, address indexed _newOpcCollector);\n\n    constructor(\n        address _routerOwner,\n        address _oceanToken,\n        address _bpoolTemplate,\n        address _opcCollector,\n        address[] memory _preCreatedPools\n    ) BFactory(_bpoolTemplate, _opcCollector, _preCreatedPools) {\n        require(\n            _routerOwner != address(0),\n            \"FactoryRouter: Invalid router owner\"\n        );\n        require(\n            _opcCollector != address(0),\n            \"FactoryRouter: Invalid opcCollector\"\n        );\n        require(\n            _oceanToken != address(0),\n            \"FactoryRouter: Invalid Ocean Token address\"\n        );\n        routerOwner = _routerOwner;\n        opcCollector = _opcCollector;\n        _addApprovedToken(_oceanToken);\n    }\n\n    function changeRouterOwner(address _routerOwner) external onlyRouterOwner {\n        require(_routerOwner != address(0), \"Invalid new router owner\");\n        routerOwner = _routerOwner;\n        emit RouterChanged(msg.sender, _routerOwner);\n    }\n\n    /**\n     * @dev addApprovedToken\n     *      Adds a token to the list of tokens with reduced fees\n     *  @param tokenAddress address Token to be added\n     */\n    function addApprovedToken(address tokenAddress) external onlyRouterOwner {\n        _addApprovedToken(tokenAddress);\n    }\n    \n    function _addApprovedToken(address tokenAddress) internal {\n        if(!isApprovedToken(tokenAddress)){\n            approvedTokens.push(tokenAddress);\n            emit TokenAdded(msg.sender, tokenAddress);\n        }\n    }\n\n    /**\n     * @dev removeApprovedToken\n     *      Removes a token if exists from the list of tokens with reduced fees\n     *  @param tokenAddress address Token to be removed\n     */\n    function removeApprovedToken(address tokenAddress)\n        external\n        onlyRouterOwner\n    {\n        require(\n            tokenAddress != address(0),\n            \"FactoryRouter: Invalid Ocean Token address\"\n        );\n        uint256 i;\n        for (i = 0; i < approvedTokens.length; i++) {\n            if(approvedTokens[i] == tokenAddress) break;\n        }\n        if(i < approvedTokens.length){\n            approvedTokens[i] = approvedTokens[approvedTokens.length -1];\n            approvedTokens.pop();\n            emit TokenRemoved(msg.sender, tokenAddress);\n        }\n    }\n    /**\n     * @dev isApprovedToken\n     *      Returns true if token exists in the list of tokens with reduced fees\n     *  @param tokenAddress address Token to be checked\n     */\n    function isApprovedToken(address tokenAddress) public view returns(bool) {\n        for (uint256 i = 0; i < approvedTokens.length; i++) {\n            if(approvedTokens[i] == tokenAddress) return true;\n        }\n        return false;\n    }\n    /**\n     * @dev getApprovedTokens\n     *      Returns the list of tokens with reduced fees\n     */\n    function getApprovedTokens() public view returns(address[] memory) {\n        return(approvedTokens);\n    }\n\n\n     /**\n     * @dev addSSContract\n     *      Adds a token to the list of ssContracts\n     *  @param _ssContract address Contract to be added\n     */\n\n    function addSSContract(address _ssContract) external onlyRouterOwner {\n        require(\n            _ssContract != address(0),\n            \"FactoryRouter: Invalid _ssContract address\"\n        );\n        if(!isSSContract(_ssContract)){\n            ssContracts.push(_ssContract);\n            emit SSContractAdded(msg.sender, _ssContract);\n        }\n    }\n    /**\n     * @dev removeSSContract\n     *      Removes a token if exists from the list of ssContracts\n     *  @param _ssContract address Contract to be removed\n     */\n\n    function removeSSContract(address _ssContract) external onlyRouterOwner {\n        require(\n            _ssContract != address(0),\n            \"FactoryRouter: Invalid _ssContract address\"\n        );\n        uint256 i;\n        for (i = 0; i < ssContracts.length; i++) {\n            if(ssContracts[i] == _ssContract) break;\n        }\n        if(i < ssContracts.length){\n            // it's in the array\n            ssContracts[i] = ssContracts[ssContracts.length -1];\n            ssContracts.pop();\n            emit SSContractRemoved(msg.sender, _ssContract);\n        }\n    }\n\n    /**\n     * @dev isSSContract\n     *      Returns true if token exists in the list of ssContracts\n     *  @param _ssContract  address Contract to be checked\n     */\n    function isSSContract(address _ssContract) public view returns(bool) {\n        for (uint256 i = 0; i < ssContracts.length; i++) {\n            if(ssContracts[i] == _ssContract) return true;\n        }\n        return false;\n    }\n    /**\n     * @dev getSSContracts\n     *      Returns the list of ssContracts\n     */\n    function getSSContracts() public view returns(address[] memory) {\n        return(ssContracts);\n    }\n\n    function addFactory(address _factory) external onlyRouterOwner {\n        require(\n            _factory != address(0),\n            \"FactoryRouter: Invalid _factory address\"\n        );\n        require(factory == address(0), \"FACTORY ALREADY SET\");\n        factory = _factory;\n        emit FactoryContractChanged(msg.sender, _factory);\n    }\n\n\n    /**\n     * @dev addFixedRateContract\n     *      Adds an address to the list of fixed rate contracts\n     *  @param _fixedRate address Contract to be added\n     */\n    function addFixedRateContract(address _fixedRate) external onlyRouterOwner {\n        require(\n            _fixedRate != address(0),\n            \"FactoryRouter: Invalid _fixedRate address\"\n        );\n        if(!isFixedRateContract(_fixedRate)){\n            fixedrates.push(_fixedRate);\n            emit FixedRateContractAdded(msg.sender, _fixedRate);\n        }\n    }\n     /**\n     * @dev removeFixedRateContract\n     *      Removes an address from the list of fixed rate contracts\n     *  @param _fixedRate address Contract to be removed\n     */\n    function removeFixedRateContract(address _fixedRate)\n        external\n        onlyRouterOwner\n    {\n        require(\n            _fixedRate != address(0),\n            \"FactoryRouter: Invalid _fixedRate address\"\n        );\n        uint256 i;\n        for (i = 0; i < fixedrates.length; i++) {\n            if(fixedrates[i] == _fixedRate) break;\n        }\n        if(i < fixedrates.length){\n            // it's in the array\n            fixedrates[i] = fixedrates[fixedrates.length -1];\n            fixedrates.pop();\n            emit FixedRateContractRemoved(msg.sender, _fixedRate);\n        }\n    }\n    /**\n     * @dev isFixedRateContract\n     *      Removes true if address exists in the list of fixed rate contracts\n     *  @param _fixedRate address Contract to be checked\n     */\n    function isFixedRateContract(address _fixedRate) public view returns(bool) {\n        for (uint256 i = 0; i < fixedrates.length; i++) {\n            if(fixedrates[i] == _fixedRate) return true;\n        }\n        return false;\n    }\n    /**\n     * @dev getFixedRatesContracts\n     *      Returns the list of fixed rate contracts\n     */\n    function getFixedRatesContracts() public view returns(address[] memory) {\n        return(fixedrates);\n    }\n\n    /**\n     * @dev addDispenserContract\n     *      Adds an address to the list of dispensers\n     *  @param _dispenser address Contract to be added\n     */\n    function addDispenserContract(address _dispenser) external onlyRouterOwner {\n        require(\n            _dispenser != address(0),\n            \"FactoryRouter: Invalid _dispenser address\"\n        );\n          if(!isDispenserContract(_dispenser)){\n            dispensers.push(_dispenser);\n            emit DispenserContractAdded(msg.sender, _dispenser);\n        }\n    }\n\n    /**\n     * @dev removeDispenserContract\n     *      Removes an address from the list of dispensers\n     *  @param _dispenser address Contract to be removed\n     */\n    function removeDispenserContract(address _dispenser)\n        external\n        onlyRouterOwner\n    {\n        require(\n            _dispenser != address(0),\n            \"FactoryRouter: Invalid _dispenser address\"\n        );\n        uint256 i;\n        for (i = 0; i < dispensers.length; i++) {\n            if(dispensers[i] == _dispenser) break;\n        }\n        if(i < dispensers.length){\n            // it's in the array\n            dispensers[i] = dispensers[dispensers.length -1];\n            dispensers.pop();\n            emit DispenserContractRemoved(msg.sender, _dispenser);\n        }\n    }\n    /**\n     * @dev isDispenserContract\n     *      Returns true if address exists in the list of dispensers\n     *  @param _dispenser  address Contract to be checked\n     */\n    function isDispenserContract(address _dispenser) public view returns(bool) {\n        for (uint256 i = 0; i < dispensers.length; i++) {\n            if(dispensers[i] == _dispenser) return true;\n        }\n        return false;\n    }\n    /**\n     * @dev getDispensersContracts\n     *      Returns the list of fixed rate contracts\n     */\n    function getDispensersContracts() public view returns(address[] memory) {\n        return(dispensers);\n    }\n\n    /**\n     * @dev getOPCFee\n     *      Gets OP Community Fees for a particular token\n     * @param baseToken  address token to be checked\n     */\n    function getOPCFee(address baseToken) public view returns (uint256) {\n        if (isApprovedToken(baseToken)) {\n            return swapOceanFee;\n        } else return swapNonOceanFee;\n    }\n\n    /**\n     * @dev getOPCFees\n     *      Gets OP Community Fees for approved tokens and non approved tokens\n     */\n    function getOPCFees() public view returns (uint256,uint256) {\n        return (swapOceanFee, swapNonOceanFee);\n    }\n\n    /**\n     * @dev getConsumeFee\n     *      Gets OP Community Fee cuts for consume fees\n     */\n    function getOPCConsumeFee() public view returns (uint256) {\n        return consumeFee;\n    }\n\n    /**\n     * @dev getOPCProviderFee\n     *      Gets OP Community Fee cuts for provider fees\n     */\n    function getOPCProviderFee() public view returns (uint256) {\n        return providerFee;\n    }\n\n\n    /**\n     * @dev updateOPCFee\n     *      Updates OP Community Fees\n     * @param _newSwapOceanFee Amount charged for swapping with ocean approved tokens\n     * @param _newSwapNonOceanFee Amount charged for swapping with non ocean approved tokens\n     * @param _newConsumeFee Amount charged from consumeFees\n     * @param _newProviderFee Amount charged for providerFees\n     */\n    function updateOPCFee(uint256 _newSwapOceanFee, uint256 _newSwapNonOceanFee,\n        uint256 _newConsumeFee, uint256 _newProviderFee) external onlyRouterOwner {\n\n        swapOceanFee = _newSwapOceanFee;\n        swapNonOceanFee = _newSwapNonOceanFee;\n        consumeFee = _newConsumeFee;\n        providerFee = _newProviderFee;\n        emit OPCFeeChanged(msg.sender, _newSwapOceanFee, _newSwapNonOceanFee, _newConsumeFee, _newProviderFee);\n    }\n\n    /*\n     * @dev getMinVestingPeriod\n     *      Returns current minVestingPeriodInBlocks\n       @return minVestingPeriodInBlocks\n     */\n    function getMinVestingPeriod() public view returns (uint256) {\n        return minVestingPeriodInBlocks;\n    }\n    /*\n     * @dev updateMinVestingPeriod\n     *      Set new minVestingPeriodInBlocks\n     * @param _newPeriod\n     */\n    function updateMinVestingPeriod(uint256 _newPeriod) external onlyRouterOwner {\n        minVestingPeriodInBlocks = _newPeriod;\n        emit VestingPeriodChanges(msg.sender, _newPeriod);\n    }\n    /**\n     * @dev Deploys a new `OceanPool` on Ocean Friendly Fork modified for 1SS.\n     This function cannot be called directly, but ONLY through the ERC20DT contract from a ERC20DEployer role\n\n      ssContract address\n     tokens [datatokenAddress, baseTokenAddress]\n     publisherAddress user which will be assigned the vested amount.\n     * @param tokens precreated parameter\n     * @param ssParams params for the ssContract. \n     *                     [0]  = rate (wei)\n     *                     [1]  = baseToken decimals\n     *                     [2]  = vesting amount (wei)\n     *                     [3]  = vested blocks\n     *                     [4]  = initial liquidity in baseToken for pool creation\n     * @param swapFees swapFees (swapFee, swapMarketFee), swapOceanFee will be set automatically later\n     *                     [0] = swapFee for LP Providers\n     *                     [1] = swapFee for marketplace runner\n      \n      .\n     * @param addresses refers to an array of addresses passed by user\n     *                     [0]  = side staking contract address\n     *                     [1]  = baseToken address for pool creation(OCEAN or other)\n     *                     [2]  = baseTokenSender user which will provide the baseToken amount for initial liquidity\n     *                     [3]  = publisherAddress user which will be assigned the vested amount\n     *                     [4]  = marketFeeCollector marketFeeCollector address\n                           [5]  = poolTemplateAddress\n       \n        @return pool address\n     */\n    function deployPool(\n        address[2] calldata tokens,\n        // [datatokenAddress, baseTokenAddress]\n        uint256[] calldata ssParams,\n        uint256[] calldata swapFees,\n        address[] calldata addresses\n    )\n        external\n        returns (\n            //[controller,baseTokenAddress,baseTokenSender,publisherAddress, marketFeeCollector,poolTemplateAddress]\n\n            address\n        )\n    {\n        require(\n            IFactory(factory).erc20List(msg.sender),\n            \"FACTORY ROUTER: NOT ORIGINAL ERC20 TEMPLATE\"\n        );\n        require(isSSContract(addresses[0]),\n            \"FACTORY ROUTER: invalid ssContract\"\n        );\n        require(ssParams[1] > 0, \"Wrong decimals\");\n\n        // we pull baseToken for creating initial pool and send it to the controller (ssContract)\n        _pullUnderlying(tokens[1],addresses[2], addresses[0], ssParams[4]);\n        \n        address pool = newBPool(tokens, ssParams, swapFees, addresses);\n        require(pool != address(0), \"FAILED TO DEPLOY POOL\");\n        if (isApprovedToken(tokens[1])) emit NewPool(pool, true);\n        else emit NewPool(pool, false);\n        return pool;\n    }\n\n    function _getLength(IERC20[] memory array) internal pure returns (uint256) {\n        return array.length;\n    }\n\n    /**\n     * @dev deployFixedRate\n     *      Creates a new FixedRateExchange setup.\n     * As for deployPool, this function cannot be called directly,\n     * but ONLY through the ERC20DT contract from a ERC20DEployer role\n     * @param fixedPriceAddress fixedPriceAddress\n     * @param addresses array of addresses [baseToken,owner,marketFeeCollector]\n     * @param uints array of uints [baseTokenDecimals,datatokenDecimals, fixedRate, marketFee, withMint]\n       @return exchangeId\n     */\n\n    function deployFixedRate(\n        address fixedPriceAddress,\n        address[] calldata addresses,\n        uint256[] calldata uints\n    ) external returns (bytes32 exchangeId) {\n        require(\n            IFactory(factory).erc20List(msg.sender),\n            \"FACTORY ROUTER: NOT ORIGINAL ERC20 TEMPLATE\"\n        );\n\n        require(isFixedRateContract(fixedPriceAddress),\n            \"FACTORY ROUTER: Invalid FixedPriceContract\"\n        );\n\n        exchangeId = IFixedRateExchange(fixedPriceAddress).createWithDecimals(\n            msg.sender,\n            addresses,\n            uints\n        );\n    }\n\n    /**\n     * @dev deployDispenser\n     *      Activates a new Dispenser\n     * As for deployPool, this function cannot be called directly,\n     * but ONLY through the ERC20DT contract from a ERC20DEployer role\n     * @param _dispenser dispenser contract address\n     * @param datatoken refers to datatoken address.\n     * @param maxTokens - max tokens to dispense\n     * @param maxBalance - max balance of requester.\n     * @param owner - owner\n     * @param allowedSwapper - if !=0, only this address can request DTs\n     */\n\n    function deployDispenser(\n        address _dispenser,\n        address datatoken,\n        uint256 maxTokens,\n        uint256 maxBalance,\n        address owner,\n        address allowedSwapper\n    ) external {\n        require(\n            IFactory(factory).erc20List(msg.sender),\n            \"FACTORY ROUTER: NOT ORIGINAL ERC20 TEMPLATE\"\n        );\n\n        require(isDispenserContract(_dispenser),\n            \"FACTORY ROUTER: Invalid DispenserContract\"\n        );\n        IDispenser(_dispenser).create(\n            datatoken,\n            maxTokens,\n            maxBalance,\n            owner,\n            allowedSwapper\n        );\n    }\n\n     /**\n     * @dev addPoolTemplate\n     *      Adds an address to the list of pools templates\n     *  @param poolTemplate address Contract to be added\n     */\n    function addPoolTemplate(address poolTemplate) external onlyRouterOwner {\n        _addPoolTemplate(poolTemplate);\n    }\n     /**\n     * @dev removePoolTemplate\n     *      Removes an address from the list of pool templates\n     *  @param poolTemplate address Contract to be removed\n     */\n    function removePoolTemplate(address poolTemplate) external onlyRouterOwner {\n        _removePoolTemplate(poolTemplate);\n    }\n\n    // If you need to buy multiple DT (let's say for a compute job which has multiple datasets),\n    // you have to send one transaction for each DT that you want to buy.\n\n    // Perks:\n\n    // one single call to buy multiple DT for multiple assets (better UX, better gas optimization)\n\n    // require tokenIn approvals for router from user. (except for dispenser operations)\n    function buyDTBatch(Operations[] calldata _operations) external {\n        // TODO: to avoid DOS attack, we set a limit to maximum orders (50?)\n        require(_operations.length <= 50, \"FactoryRouter: Too Many Operations\");\n        for (uint256 i = 0; i < _operations.length; i++) {\n            // address[] memory tokenInOutMarket = new address[](3);\n            address[3] memory tokenInOutMarket = [\n                _operations[i].tokenIn,\n                _operations[i].tokenOut,\n                _operations[i].marketFeeAddress\n            ];\n            uint256[4] memory amountsInOutMaxFee = [\n                _operations[i].amountsIn,\n                _operations[i].amountsOut,\n                _operations[i].maxPrice,\n                _operations[i].swapMarketFee\n            ];\n\n            // tokenInOutMarket[0] =\n            if (_operations[i].operation == operationType.SwapExactIn) {\n                // Get amountIn from user to router\n                _pullUnderlying(_operations[i].tokenIn,msg.sender,\n                    address(this),\n                    _operations[i].amountsIn);\n                // we approve pool to pull token from router\n                IERC20(_operations[i].tokenIn).safeIncreaseAllowance(\n                    _operations[i].source,\n                    _operations[i].amountsIn\n                );\n\n                // Perform swap\n                (uint256 amountReceived, ) = IPool(_operations[i].source)\n                    .swapExactAmountIn(tokenInOutMarket, amountsInOutMaxFee);\n                // transfer token swapped to user\n\n                IERC20(_operations[i].tokenOut).safeTransfer(\n                    msg.sender,\n                    amountReceived\n                );\n            } else if (_operations[i].operation == operationType.SwapExactOut) {\n                // calculate how much amount In we need for exact Out\n                uint256 amountIn;\n                (amountIn, , , , ) = IPool(_operations[i].source)\n                    .getAmountInExactOut(\n                        _operations[i].tokenIn,\n                        _operations[i].tokenOut,\n                        _operations[i].amountsOut,\n                        _operations[i].swapMarketFee\n                    );\n                // pull amount In from user\n                _pullUnderlying(_operations[i].tokenIn,msg.sender,\n                    address(this),\n                    amountIn);\n                // we approve pool to pull token from router\n                IERC20(_operations[i].tokenIn).safeIncreaseAllowance(\n                    _operations[i].source,\n                    amountIn\n                );\n                // perform swap\n                (uint tokenAmountIn,) = IPool(_operations[i].source).swapExactAmountOut(\n                    tokenInOutMarket,\n                    amountsInOutMaxFee\n                );\n                require(tokenAmountIn <= amountsInOutMaxFee[0], 'TOO MANY TOKENS IN');\n                // send amount out back to user\n                IERC20(_operations[i].tokenOut).safeTransfer(\n                    msg.sender,\n                    _operations[i].amountsOut\n                );\n            } else if (_operations[i].operation == operationType.FixedRate) {\n                // get datatoken address\n                (, address datatoken, , , , , , , , , , ) = IFixedRateExchange(\n                    _operations[i].source\n                ).getExchange(_operations[i].exchangeIds);\n                // get tokenIn amount required for dt out\n                (uint256 baseTokenAmount, , , ) = IFixedRateExchange(\n                    _operations[i].source\n                ).calcBaseInGivenOutDT(\n                        _operations[i].exchangeIds,\n                        _operations[i].amountsOut,\n                        _operations[i].swapMarketFee\n                    );\n\n                // pull tokenIn amount\n                _pullUnderlying(_operations[i].tokenIn,msg.sender,\n                    address(this),\n                    baseTokenAmount);\n                // we approve pool to pull token from router\n                IERC20(_operations[i].tokenIn).safeIncreaseAllowance(\n                    _operations[i].source,\n                    baseTokenAmount\n                );\n                // perform swap\n                IFixedRateExchange(_operations[i].source).buyDT(\n                    _operations[i].exchangeIds,\n                    _operations[i].amountsOut,\n                    _operations[i].amountsIn,\n                    _operations[i].marketFeeAddress,\n                    _operations[i].swapMarketFee\n                );\n                // send dt out to user\n                IERC20(datatoken).safeTransfer(\n                    msg.sender,\n                    _operations[i].amountsOut\n                );\n            } else {\n                IDispenser(_operations[i].source).dispense(\n                    _operations[i].tokenOut,\n                    _operations[i].amountsOut,\n                    msg.sender\n                );\n            }\n        }\n    }\n\n    // require pool[].baseToken (for each pool) approvals for router from user.\n    function stakeBatch(Stakes[] calldata _stakes) external {\n        // TODO: to avoid DOS attack, we set a limit to maximum orders (50?)\n        require(_stakes.length <= 50, \"FactoryRouter: Too Many Operations\");\n        for (uint256 i = 0; i < _stakes.length; i++) {\n            address baseToken = IPool(_stakes[i].poolAddress).getBaseTokenAddress();\n            _pullUnderlying(baseToken,msg.sender,\n                    address(this),\n                    _stakes[i].tokenAmountIn);\n            uint256 balanceBefore = IERC20(_stakes[i].poolAddress).balanceOf(address(this));\n            // we approve pool to pull token from router\n            IERC20(baseToken).safeIncreaseAllowance(\n                    _stakes[i].poolAddress,\n                    _stakes[i].tokenAmountIn);\n            //now stake\n            uint poolAmountOut = IPool(_stakes[i].poolAddress).joinswapExternAmountIn(\n                _stakes[i].tokenAmountIn, _stakes[i].minPoolAmountOut\n                );\n            require(poolAmountOut >=  _stakes[i].minPoolAmountOut,'NOT ENOUGH LP');\n            uint256 balanceAfter = IERC20(_stakes[i].poolAddress).balanceOf(address(this));\n            //send LP shares to user\n            IERC20(_stakes[i].poolAddress).safeTransfer(\n                    msg.sender,\n                    balanceAfter.sub(balanceBefore)\n                );\n        }\n    }\n    \n    function _pullUnderlying(\n        address erc20,\n        address from,\n        address to,\n        uint256 amount\n    ) internal {\n        uint256 balanceBefore = IERC20(erc20).balanceOf(to);\n        IERC20(erc20).safeTransferFrom(from, to, amount);\n        require(IERC20(erc20).balanceOf(to) >= balanceBefore.add(amount),\n                    \"Transfer amount is too low\");\n    }\n\n    function getPoolTemplates() public view override(BFactory, IFactoryRouter) returns (address[] memory) {\n        return BFactory.getPoolTemplates();\n    }\n\n    function isPoolTemplate(address poolTemplate) public view override(BFactory, IFactoryRouter)\n        returns (bool) {\n        return BFactory.isPoolTemplate(poolTemplate);\n    }\n\n\n    /*\n     * @dev updateOPCCollector\n     *      Set new opcCollector\n     * @param opcCollector\n     */\n    function updateOPCCollector(address _opcCollector) external onlyRouterOwner {\n        require(_opcCollector != address(0), \"New opcCollector cannot be ZERO_ADDR\");\n        opcCollector = _opcCollector;\n        emit OPCCollectorChanged(msg.sender, _opcCollector);\n    }\n    /*\n      * @dev getOPCCollector\n      * getter for opcCollector\n    */\n    function getOPCCollector() view public returns (address) {\n        return opcCollector;\n    }\n}","sourcePath":"contracts/oceanv4/pools/FactoryRouter.sol","type":"contract","deployment":{"address":"0x159924ca0F47D6F704B97E29099b89e518A17B5E","chainid":"5","blockHeight":8974884}}