{"abi":[{"anonymous":false,"inputs":[{"indexed":true,"internalType":"address","name":"user","type":"address"},{"indexed":true,"internalType":"address","name":"signer","type":"address"},{"indexed":false,"internalType":"uint256","name":"timestamp","type":"uint256"},{"indexed":false,"internalType":"uint256","name":"blockNumber","type":"uint256"}],"name":"AddedMinter","type":"event"},{"anonymous":false,"inputs":[{"indexed":true,"internalType":"address","name":"user","type":"address"},{"indexed":true,"internalType":"address","name":"signer","type":"address"},{"indexed":false,"internalType":"uint256","name":"timestamp","type":"uint256"},{"indexed":false,"internalType":"uint256","name":"blockNumber","type":"uint256"}],"name":"AddedPaymentManager","type":"event"},{"anonymous":false,"inputs":[{"indexed":true,"internalType":"address","name":"owner","type":"address"},{"indexed":true,"internalType":"address","name":"spender","type":"address"},{"indexed":false,"internalType":"uint256","name":"value","type":"uint256"}],"name":"Approval","type":"event"},{"anonymous":false,"inputs":[{"indexed":true,"internalType":"address","name":"signer","type":"address"},{"indexed":false,"internalType":"uint256","name":"timestamp","type":"uint256"},{"indexed":false,"internalType":"uint256","name":"blockNumber","type":"uint256"}],"name":"CleanedPermissions","type":"event"},{"anonymous":false,"inputs":[{"indexed":true,"internalType":"address","name":"consumeMarketFeeAddress","type":"address"},{"indexed":true,"internalType":"address","name":"consumeMarketFeeToken","type":"address"},{"indexed":false,"internalType":"uint256","name":"consumeMarketFeeAmount","type":"uint256"}],"name":"ConsumeMarketFee","type":"event"},{"anonymous":false,"inputs":[{"indexed":false,"internalType":"address","name":"currentMinter","type":"address"},{"indexed":false,"internalType":"address","name":"newMinter","type":"address"}],"name":"MinterApproved","type":"event"},{"anonymous":false,"inputs":[{"indexed":false,"internalType":"address","name":"currentMinter","type":"address"},{"indexed":false,"internalType":"address","name":"newMinter","type":"address"}],"name":"MinterProposed","type":"event"},{"anonymous":false,"inputs":[{"indexed":false,"internalType":"address","name":"dispenserContract","type":"address"}],"name":"NewDispenser","type":"event"},{"anonymous":false,"inputs":[{"indexed":false,"internalType":"bytes32","name":"exchangeId","type":"bytes32"},{"indexed":true,"internalType":"address","name":"owner","type":"address"},{"indexed":false,"internalType":"address","name":"exchangeContract","type":"address"},{"indexed":true,"internalType":"address","name":"baseToken","type":"address"}],"name":"NewFixedRate","type":"event"},{"anonymous":false,"inputs":[{"indexed":true,"internalType":"address","name":"caller","type":"address"},{"indexed":true,"internalType":"address","name":"_newPaymentCollector","type":"address"},{"indexed":false,"internalType":"uint256","name":"timestamp","type":"uint256"},{"indexed":false,"internalType":"uint256","name":"blockNumber","type":"uint256"}],"name":"NewPaymentCollector","type":"event"},{"anonymous":false,"inputs":[{"indexed":false,"internalType":"address","name":"poolAddress","type":"address"},{"indexed":false,"internalType":"address","name":"ssContract","type":"address"},{"indexed":false,"internalType":"address","name":"baseTokenAddress","type":"address"}],"name":"NewPool","type":"event"},{"anonymous":false,"inputs":[{"indexed":true,"internalType":"address","name":"providerAddress","type":"address"},{"indexed":true,"internalType":"address","name":"consumerAddress","type":"address"},{"indexed":false,"internalType":"bytes32","name":"orderTxId","type":"bytes32"},{"indexed":false,"internalType":"bytes","name":"providerData","type":"bytes"},{"indexed":false,"internalType":"bytes","name":"providerSignature","type":"bytes"},{"indexed":false,"internalType":"bytes","name":"consumerData","type":"bytes"},{"indexed":false,"internalType":"bytes","name":"consumerSignature","type":"bytes"},{"indexed":false,"internalType":"uint256","name":"timestamp","type":"uint256"},{"indexed":false,"internalType":"uint256","name":"blockNumber","type":"uint256"}],"name":"OrderExecuted","type":"event"},{"anonymous":false,"inputs":[{"indexed":false,"internalType":"bytes32","name":"orderTxId","type":"bytes32"},{"indexed":false,"internalType":"address","name":"caller","type":"address"},{"indexed":false,"internalType":"uint256","name":"timestamp","type":"uint256"},{"indexed":false,"internalType":"uint256","name":"number","type":"uint256"}],"name":"OrderReused","type":"event"},{"anonymous":false,"inputs":[{"indexed":true,"internalType":"address","name":"consumer","type":"address"},{"indexed":false,"internalType":"address","name":"payer","type":"address"},{"indexed":false,"internalType":"uint256","name":"amount","type":"uint256"},{"indexed":false,"internalType":"uint256","name":"serviceIndex","type":"uint256"},{"indexed":false,"internalType":"uint256","name":"timestamp","type":"uint256"},{"indexed":true,"internalType":"address","name":"publishMarketAddress","type":"address"},{"indexed":false,"internalType":"uint256","name":"blockNumber","type":"uint256"}],"name":"OrderStarted","type":"event"},{"anonymous":false,"inputs":[{"indexed":true,"internalType":"address","name":"providerFeeAddress","type":"address"},{"indexed":true,"internalType":"address","name":"providerFeeToken","type":"address"},{"indexed":false,"internalType":"uint256","name":"providerFeeAmount","type":"uint256"},{"indexed":false,"internalType":"bytes","name":"providerData","type":"bytes"},{"indexed":false,"internalType":"uint8","name":"v","type":"uint8"},{"indexed":false,"internalType":"bytes32","name":"r","type":"bytes32"},{"indexed":false,"internalType":"bytes32","name":"s","type":"bytes32"},{"indexed":false,"internalType":"uint256","name":"validUntil","type":"uint256"}],"name":"ProviderFee","type":"event"},{"anonymous":false,"inputs":[{"indexed":true,"internalType":"address","name":"PublishMarketFeeAddress","type":"address"},{"indexed":true,"internalType":"address","name":"PublishMarketFeeToken","type":"address"},{"indexed":false,"internalType":"uint256","name":"PublishMarketFeeAmount","type":"uint256"}],"name":"PublishMarketFee","type":"event"},{"anonymous":false,"inputs":[{"indexed":false,"internalType":"address","name":"caller","type":"address"},{"indexed":false,"internalType":"address","name":"PublishMarketFeeAddress","type":"address"},{"indexed":false,"internalType":"address","name":"PublishMarketFeeToken","type":"address"},{"indexed":false,"internalType":"uint256","name":"PublishMarketFeeAmount","type":"uint256"}],"name":"PublishMarketFeeChanged","type":"event"},{"anonymous":false,"inputs":[{"indexed":true,"internalType":"address","name":"user","type":"address"},{"indexed":true,"internalType":"address","name":"signer","type":"address"},{"indexed":false,"internalType":"uint256","name":"timestamp","type":"uint256"},{"indexed":false,"internalType":"uint256","name":"blockNumber","type":"uint256"}],"name":"RemovedMinter","type":"event"},{"anonymous":false,"inputs":[{"indexed":true,"internalType":"address","name":"user","type":"address"},{"indexed":true,"internalType":"address","name":"signer","type":"address"},{"indexed":false,"internalType":"uint256","name":"timestamp","type":"uint256"},{"indexed":false,"internalType":"uint256","name":"blockNumber","type":"uint256"}],"name":"RemovedPaymentManager","type":"event"},{"anonymous":false,"inputs":[{"indexed":true,"internalType":"address","name":"from","type":"address"},{"indexed":true,"internalType":"address","name":"to","type":"address"},{"indexed":false,"internalType":"uint256","name":"value","type":"uint256"}],"name":"Transfer","type":"event"},{"anonymous":false,"inputs":[{"indexed":true,"internalType":"address","name":"datatokenAddress","type":"address"},{"indexed":true,"internalType":"address","name":"publisherAddress","type":"address"},{"indexed":false,"internalType":"uint256","name":"vestingEndBlock","type":"uint256"},{"indexed":false,"internalType":"uint256","name":"totalVestingAmount","type":"uint256"}],"name":"VestingCreated","type":"event"},{"stateMutability":"payable","type":"fallback"},{"inputs":[],"name":"BASE","outputs":[{"internalType":"uint256","name":"","type":"uint256"}],"stateMutability":"view","type":"function"},{"inputs":[],"name":"DOMAIN_SEPARATOR","outputs":[{"internalType":"bytes32","name":"","type":"bytes32"}],"stateMutability":"view","type":"function"},{"inputs":[],"name":"PERMIT_TYPEHASH","outputs":[{"internalType":"bytes32","name":"","type":"bytes32"}],"stateMutability":"view","type":"function"},{"inputs":[{"internalType":"address","name":"_minter","type":"address"}],"name":"addMinter","outputs":[],"stateMutability":"nonpayable","type":"function"},{"inputs":[{"internalType":"address","name":"_paymentManager","type":"address"}],"name":"addPaymentManager","outputs":[],"stateMutability":"nonpayable","type":"function"},{"inputs":[{"internalType":"address","name":"owner","type":"address"},{"internalType":"address","name":"spender","type":"address"}],"name":"allowance","outputs":[{"internalType":"uint256","name":"","type":"uint256"}],"stateMutability":"view","type":"function"},{"inputs":[{"internalType":"address","name":"spender","type":"address"},{"internalType":"uint256","name":"amount","type":"uint256"}],"name":"approve","outputs":[{"internalType":"bool","name":"","type":"bool"}],"stateMutability":"nonpayable","type":"function"},{"inputs":[{"internalType":"uint256","name":"","type":"uint256"}],"name":"authERC20","outputs":[{"internalType":"address","name":"","type":"address"}],"stateMutability":"view","type":"function"},{"inputs":[{"internalType":"address","name":"account","type":"address"}],"name":"balanceOf","outputs":[{"internalType":"uint256","name":"","type":"uint256"}],"stateMutability":"view","type":"function"},{"inputs":[{"internalType":"uint256","name":"amount","type":"uint256"}],"name":"burn","outputs":[],"stateMutability":"nonpayable","type":"function"},{"inputs":[{"internalType":"address","name":"account","type":"address"},{"internalType":"uint256","name":"amount","type":"uint256"}],"name":"burnFrom","outputs":[],"stateMutability":"nonpayable","type":"function"},{"inputs":[],"name":"cap","outputs":[{"internalType":"uint256","name":"","type":"uint256"}],"stateMutability":"view","type":"function"},{"inputs":[],"name":"cleanFrom721","outputs":[],"stateMutability":"nonpayable","type":"function"},{"inputs":[],"name":"cleanPermissions","outputs":[],"stateMutability":"nonpayable","type":"function"},{"inputs":[{"internalType":"address","name":"_dispenser","type":"address"},{"internalType":"uint256","name":"maxTokens","type":"uint256"},{"internalType":"uint256","name":"maxBalance","type":"uint256"},{"internalType":"bool","name":"withMint","type":"bool"},{"internalType":"address","name":"allowedSwapper","type":"address"}],"name":"createDispenser","outputs":[],"stateMutability":"nonpayable","type":"function"},{"inputs":[{"internalType":"address","name":"fixedPriceAddress","type":"address"},{"internalType":"address[]","name":"addresses","type":"address[]"},{"internalType":"uint256[]","name":"uints","type":"uint256[]"}],"name":"createFixedRate","outputs":[{"internalType":"bytes32","name":"exchangeId","type":"bytes32"}],"stateMutability":"nonpayable","type":"function"},{"inputs":[],"name":"decimals","outputs":[{"internalType":"uint8","name":"","type":"uint8"}],"stateMutability":"pure","type":"function"},{"inputs":[{"internalType":"address","name":"spender","type":"address"},{"internalType":"uint256","name":"subtractedValue","type":"uint256"}],"name":"decreaseAllowance","outputs":[{"internalType":"bool","name":"","type":"bool"}],"stateMutability":"nonpayable","type":"function"},{"inputs":[{"internalType":"uint256[]","name":"ssParams","type":"uint256[]"},{"internalType":"uint256[]","name":"swapFees","type":"uint256[]"},{"internalType":"address[]","name":"addresses","type":"address[]"}],"name":"deployPool","outputs":[{"internalType":"address","name":"pool","type":"address"}],"stateMutability":"nonpayable","type":"function"},{"inputs":[],"name":"getDispensers","outputs":[{"internalType":"address[]","name":"","type":"address[]"}],"stateMutability":"view","type":"function"},{"inputs":[],"name":"getERC721Address","outputs":[{"internalType":"address","name":"","type":"address"}],"stateMutability":"view","type":"function"},{"inputs":[],"name":"getFixedRates","outputs":[{"components":[{"internalType":"address","name":"contractAddress","type":"address"},{"internalType":"bytes32","name":"id","type":"bytes32"}],"internalType":"struct ERC20Template.fixedRate[]","name":"","type":"tuple[]"}],"stateMutability":"view","type":"function"},{"inputs":[],"name":"getId","outputs":[{"internalType":"uint8","name":"","type":"uint8"}],"stateMutability":"pure","type":"function"},{"inputs":[],"name":"getPaymentCollector","outputs":[{"internalType":"address","name":"","type":"address"}],"stateMutability":"view","type":"function"},{"inputs":[{"internalType":"address","name":"user","type":"address"}],"name":"getPermissions","outputs":[{"components":[{"internalType":"bool","name":"minter","type":"bool"},{"internalType":"bool","name":"paymentManager","type":"bool"}],"internalType":"struct ERC20Roles.RolesERC20","name":"","type":"tuple"}],"stateMutability":"view","type":"function"},{"inputs":[],"name":"getPools","outputs":[{"internalType":"address[]","name":"","type":"address[]"}],"stateMutability":"view","type":"function"},{"inputs":[],"name":"getPublishingMarketFee","outputs":[{"internalType":"address","name":"","type":"address"},{"internalType":"address","name":"","type":"address"},{"internalType":"uint256","name":"","type":"uint256"}],"stateMutability":"view","type":"function"},{"inputs":[{"internalType":"address","name":"spender","type":"address"},{"internalType":"uint256","name":"addedValue","type":"uint256"}],"name":"increaseAllowance","outputs":[{"internalType":"bool","name":"","type":"bool"}],"stateMutability":"nonpayable","type":"function"},{"inputs":[{"internalType":"string[]","name":"strings_","type":"string[]"},{"internalType":"address[]","name":"addresses_","type":"address[]"},{"internalType":"address[]","name":"factoryAddresses_","type":"address[]"},{"internalType":"uint256[]","name":"uints_","type":"uint256[]"},{"internalType":"bytes[]","name":"bytes_","type":"bytes[]"}],"name":"initialize","outputs":[{"internalType":"bool","name":"","type":"bool"}],"stateMutability":"nonpayable","type":"function"},{"inputs":[{"internalType":"address","name":"user","type":"address"}],"name":"isERC20Deployer","outputs":[{"internalType":"bool","name":"","type":"bool"}],"stateMutability":"view","type":"function"},{"inputs":[],"name":"isInitialized","outputs":[{"internalType":"bool","name":"","type":"bool"}],"stateMutability":"view","type":"function"},{"inputs":[{"internalType":"address","name":"account","type":"address"}],"name":"isMinter","outputs":[{"internalType":"bool","name":"","type":"bool"}],"stateMutability":"view","type":"function"},{"inputs":[{"internalType":"address","name":"account","type":"address"},{"internalType":"uint256","name":"value","type":"uint256"}],"name":"mint","outputs":[],"stateMutability":"nonpayable","type":"function"},{"inputs":[],"name":"name","outputs":[{"internalType":"string","name":"","type":"string"}],"stateMutability":"view","type":"function"},{"inputs":[{"internalType":"address","name":"","type":"address"}],"name":"nonces","outputs":[{"internalType":"uint256","name":"","type":"uint256"}],"stateMutability":"view","type":"function"},{"inputs":[{"internalType":"bytes32","name":"orderTxId","type":"bytes32"},{"internalType":"bytes","name":"providerData","type":"bytes"},{"internalType":"bytes","name":"providerSignature","type":"bytes"},{"internalType":"bytes","name":"consumerData","type":"bytes"},{"internalType":"bytes","name":"consumerSignature","type":"bytes"},{"internalType":"address","name":"consumerAddress","type":"address"}],"name":"orderExecuted","outputs":[],"stateMutability":"nonpayable","type":"function"},{"inputs":[{"internalType":"address","name":"","type":"address"}],"name":"permissions","outputs":[{"internalType":"bool","name":"minter","type":"bool"},{"internalType":"bool","name":"paymentManager","type":"bool"}],"stateMutability":"view","type":"function"},{"inputs":[{"internalType":"address","name":"owner","type":"address"},{"internalType":"address","name":"spender","type":"address"},{"internalType":"uint256","name":"value","type":"uint256"},{"internalType":"uint256","name":"deadline","type":"uint256"},{"internalType":"uint8","name":"v","type":"uint8"},{"internalType":"bytes32","name":"r","type":"bytes32"},{"internalType":"bytes32","name":"s","type":"bytes32"}],"name":"permit","outputs":[],"stateMutability":"nonpayable","type":"function"},{"inputs":[{"internalType":"address","name":"_minter","type":"address"}],"name":"removeMinter","outputs":[],"stateMutability":"nonpayable","type":"function"},{"inputs":[{"internalType":"address","name":"_paymentManager","type":"address"}],"name":"removePaymentManager","outputs":[],"stateMutability":"nonpayable","type":"function"},{"inputs":[{"internalType":"bytes32","name":"orderTxId","type":"bytes32"},{"components":[{"internalType":"address","name":"providerFeeAddress","type":"address"},{"internalType":"address","name":"providerFeeToken","type":"address"},{"internalType":"uint256","name":"providerFeeAmount","type":"uint256"},{"internalType":"uint8","name":"v","type":"uint8"},{"internalType":"bytes32","name":"r","type":"bytes32"},{"internalType":"bytes32","name":"s","type":"bytes32"},{"internalType":"uint256","name":"validUntil","type":"uint256"},{"internalType":"bytes","name":"providerData","type":"bytes"}],"internalType":"struct ERC20Template.providerFee","name":"_providerFee","type":"tuple"}],"name":"reuseOrder","outputs":[],"stateMutability":"nonpayable","type":"function"},{"inputs":[],"name":"router","outputs":[{"internalType":"address","name":"","type":"address"}],"stateMutability":"view","type":"function"},{"inputs":[{"internalType":"bytes","name":"_value","type":"bytes"}],"name":"setData","outputs":[],"stateMutability":"nonpayable","type":"function"},{"inputs":[{"internalType":"address","name":"_newPaymentCollector","type":"address"}],"name":"setPaymentCollector","outputs":[],"stateMutability":"nonpayable","type":"function"},{"inputs":[{"internalType":"address","name":"_publishMarketFeeAddress","type":"address"},{"internalType":"address","name":"_publishMarketFeeToken","type":"address"},{"internalType":"uint256","name":"_publishMarketFeeAmount","type":"uint256"}],"name":"setPublishingMarketFee","outputs":[],"stateMutability":"nonpayable","type":"function"},{"inputs":[{"internalType":"address","name":"consumer","type":"address"},{"internalType":"uint256","name":"serviceIndex","type":"uint256"},{"components":[{"internalType":"address","name":"providerFeeAddress","type":"address"},{"internalType":"address","name":"providerFeeToken","type":"address"},{"internalType":"uint256","name":"providerFeeAmount","type":"uint256"},{"internalType":"uint8","name":"v","type":"uint8"},{"internalType":"bytes32","name":"r","type":"bytes32"},{"internalType":"bytes32","name":"s","type":"bytes32"},{"internalType":"uint256","name":"validUntil","type":"uint256"},{"internalType":"bytes","name":"providerData","type":"bytes"}],"internalType":"struct ERC20Template.providerFee","name":"_providerFee","type":"tuple"},{"components":[{"internalType":"address","name":"consumeMarketFeeAddress","type":"address"},{"internalType":"address","name":"consumeMarketFeeToken","type":"address"},{"internalType":"uint256","name":"consumeMarketFeeAmount","type":"uint256"}],"internalType":"struct ERC20Template.consumeMarketFee","name":"_consumeMarketFee","type":"tuple"}],"name":"startOrder","outputs":[],"stateMutability":"nonpayable","type":"function"},{"inputs":[],"name":"symbol","outputs":[{"internalType":"string","name":"","type":"string"}],"stateMutability":"view","type":"function"},{"inputs":[],"name":"totalSupply","outputs":[{"internalType":"uint256","name":"","type":"uint256"}],"stateMutability":"view","type":"function"},{"inputs":[{"internalType":"address","name":"recipient","type":"address"},{"internalType":"uint256","name":"amount","type":"uint256"}],"name":"transfer","outputs":[{"internalType":"bool","name":"","type":"bool"}],"stateMutability":"nonpayable","type":"function"},{"inputs":[{"internalType":"address","name":"sender","type":"address"},{"internalType":"address","name":"recipient","type":"address"},{"internalType":"uint256","name":"amount","type":"uint256"}],"name":"transferFrom","outputs":[{"internalType":"bool","name":"","type":"bool"}],"stateMutability":"nonpayable","type":"function"},{"inputs":[],"name":"withdrawETH","outputs":[],"stateMutability":"payable","type":"function"},{"stateMutability":"payable","type":"receive"}],"bytecode":"6080604052600b805460ff191690553480156200001b57600080fd5b5060408051808201825260048152631d195cdd60e21b60208083019182528351808501909452600a8452691d195cdd14de5b589bdb60b21b9084015281519192916200006a916003916200008e565b508051620000809060049060208401906200008e565b505060016007555062000171565b8280546200009c9062000134565b90600052602060002090601f016020900481019282620000c057600085556200010b565b82601f10620000db57805160ff19168380011785556200010b565b828001600101855582156200010b579182015b828111156200010b578251825591602001919060010190620000ee565b50620001199291506200011d565b5090565b5b808211156200011957600081556001016200011e565b600181811c908216806200014957607f821691505b602082108114156200016b57634e487b7160e01b600052602260045260246000fd5b50919050565b615eb380620001816000396000f3fe6080604052600436106102c65760003560e01c80635d1ca6311161017e578063a457c2d7116100d3578063d505accf1161008f578063e487c2e81161006c578063e487c2e8146109a3578063ec342ad0146109b8578063ef867ff4146109d4578063f887ea40146109f457005b8063d505accf14610935578063dd62ed3e14610955578063e086e5ec1461099b57005b8063a457c2d71461085c578063a9059cbb1461087c578063aa271e1a1461089c578063aa492ef9146108d5578063ab62f0e1146108f5578063b3998be01461091557005b80637ecebe001161013a5780638b96412b116101175780638b96412b146107e757806395d89b411461080757806396fb3eaf1461081c578063983b2d561461083c57005b80637ecebe001461078557806382c03da5146107b257806389208f0f146107c757005b80635d1ca631146106c4578063673a2a1f146106d857806370a08231146106ed57806379cc67901461072357806379d9d7f3146107435780637dda231e1461076357005b8063355274ea1161023457806340c10f19116101f05780634f189cb2116101cd5780634f189cb21461064f57806357a3a31b1461066457806357ad5ff6146106845780635bfe4da0146106a457005b806340c10f19146105ed57806342966c681461060d57806347ac7d551461062d57005b8063355274ea1461052e578063361fef49146105435780633644e51514610563578063392e53cd146105795780633950935114610591578063397b3743146105b157005b8063191c918a11610283578063191c918a1461045857806323b872dd1461047857806325b00243146104985780633092afd5146104b857806330adf81f146104d8578063313ce5671461050c57005b80627ffb78146102cf57806301e882081461030b57806306fdde031461035b578063095ea7b31461037d578063160a7925146103ad57806318160ddd1461043957005b366102cd57005b005b3480156102db57600080fd5b50600b5461010090046001600160a01b03165b6040516001600160a01b0390911681526020015b60405180910390f35b34801561031757600080fd5b50610344610326366004614e12565b60056020526000908152604090205460ff8082169161010090041682565b604080519215158352901515602083015201610302565b34801561036757600080fd5b50610370610a14565b6040516103029190614e5b565b34801561038957600080fd5b5061039d610398366004614e8e565b610aa6565b6040519015158152602001610302565b3480156103b957600080fd5b5061041a6103c8366004614e12565b6040805180820190915260008082526020820152506001600160a01b031660009081526005602090815260409182902082518084019093525460ff808216151584526101009091041615159082015290565b6040805182511515815260209283015115159281019290925201610302565b34801561044557600080fd5b506002545b604051908152602001610302565b34801561046457600080fd5b506102cd610473366004614ec8565b610abd565b34801561048457600080fd5b5061039d610493366004614f27565b610d1e565b3480156104a457600080fd5b506102cd6104b3366004614e12565b610dca565b3480156104c457600080fd5b506102cd6104d3366004614e12565b610ee9565b3480156104e457600080fd5b5061044a7f6e71edae12b1b97f4d1f60370fef10105fa2faae0126114a169c64845d6126c981565b34801561051857600080fd5b5060125b60405160ff9091168152602001610302565b34801561053a57600080fd5b50600a5461044a565b34801561054f57600080fd5b506102cd61055e366004614f81565b611005565b34801561056f57600080fd5b5061044a60105481565b34801561058557600080fd5b50600b5460ff1661039d565b34801561059d57600080fd5b5061039d6105ac366004614e8e565b611083565b3480156105bd57600080fd5b50600d54600e54600f54604080516001600160a01b03948516815293909216602084015290820152606001610302565b3480156105f957600080fd5b506102cd610608366004614e8e565b6110bf565b34801561061957600080fd5b506102cd610628366004614fc7565b611190565b34801561063957600080fd5b5061064261119a565b6040516103029190615024565b34801561065b57600080fd5b506102cd6111fb565b34801561067057600080fd5b506102cd61067f366004614e12565b6112d6565b34801561069057600080fd5b506102cd61069f366004614f27565b61149d565b3480156106b057600080fd5b506102ee6106bf36600461516f565b611656565b3480156106d057600080fd5b50600161051c565b3480156106e457600080fd5b50610642611ae1565b3480156106f957600080fd5b5061044a610708366004614e12565b6001600160a01b031660009081526020819052604090205490565b34801561072f57600080fd5b506102cd61073e366004614e8e565b611b41565b34801561074f57600080fd5b506102cd61075e3660046151f6565b611bc7565b34801561076f57600080fd5b50610778611ffe565b6040516103029190615269565b34801561079157600080fd5b5061044a6107a0366004614e12565b60116020526000908152604090205481565b3480156107be57600080fd5b506102cd612073565b3480156107d357600080fd5b506102cd6107e2366004615309565b6120d2565b3480156107f357600080fd5b5061044a6108023660046153e6565b6123bf565b34801561081357600080fd5b506103706126d8565b34801561082857600080fd5b5061039d610837366004614e12565b6126e7565b34801561084857600080fd5b506102cd610857366004614e12565b612765565b34801561086857600080fd5b5061039d610877366004614e8e565b612881565b34801561088857600080fd5b5061039d610897366004614e8e565b61291a565b3480156108a857600080fd5b5061039d6108b7366004614e12565b6001600160a01b031660009081526005602052604090205460ff1690565b3480156108e157600080fd5b506102cd6108f0366004614e12565b612927565b34801561090157600080fd5b506102cd610910366004615451565b612a43565b34801561092157600080fd5b5061039d6109303660046154d6565b612bfe565b34801561094157600080fd5b506102cd6109503660046155d7565b612d31565b34801561096157600080fd5b5061044a610970366004615645565b6001600160a01b03918216600090815260016020908152604080832093909416825291909152205490565b6102cd612f43565b3480156109af57600080fd5b506102ee612f83565b3480156109c457600080fd5b5061044a670de0b6b3a764000081565b3480156109e057600080fd5b506102ee6109ef366004614fc7565b61301c565b348015610a0057600080fd5b506012546102ee906001600160a01b031681565b606060088054610a239061567e565b80601f0160208091040260200160405190810160405280929190818152602001828054610a4f9061567e565b8015610a9c5780601f10610a7157610100808354040283529160200191610a9c565b820191906000526020600020905b815481529060010190602001808311610a7f57829003601f168201915b5050505050905090565b6000610ab3338484613046565b5060015b92915050565b600b5460405163160a792560e01b81523360048201526101009091046001600160a01b03169063160a792590602401608060405180830381865afa158015610b09573d6000803e3d6000fd5b505050506040513d601f19601f82011682018060405250810190610b2d91906156b3565b6020015180610bb45750600b546040516331a9108f60e11b815260016004820152339161010090046001600160a01b031690636352211e90602401602060405180830381865afa158015610b85573d6000803e3d6000fd5b505050506040513d601f19601f82011682018060405250810190610ba99190615737565b6001600160a01b0316145b610bd95760405162461bcd60e51b8152600401610bd090615754565b60405180910390fd5b60026007541415610bfc5760405162461bcd60e51b8152600401610bd090615789565b60026007558115610c1057610c108561316a565b601580546001810182556000919091527f55f448fdea98c4d29eb340757ef0a66cd03dbb9538908a6a81d96026b71ec4750180546001600160a01b0319166001600160a01b0387169081179091556040519081527fa31ffd41531537eb31bfd827a3f5372b5f62bf4dd8579e5354b280dc58490e709060200160405180910390a1601254604051636b14d00560e11b81526001600160a01b038781166004830152306024830152604482018790526064820186905233608483015283811660a48301529091169063d629a00a9060c401600060405180830381600087803b158015610cfa57600080fd5b505af1158015610d0e573d6000803e3d6000fd5b5050600160075550505050505050565b6000610d2b848484613241565b6001600160a01b038416600090815260016020908152604080832033845290915290205482811015610db05760405162461bcd60e51b815260206004820152602860248201527f45524332303a207472616e7366657220616d6f756e74206578636565647320616044820152676c6c6f77616e636560c01b6064820152608401610bd0565b610dbd8533858403613046565b60019150505b9392505050565b600b5460405163160a792560e01b81523360048201526101009091046001600160a01b03169063160a792590602401608060405180830381865afa158015610e16573d6000803e3d6000fd5b505050506040513d601f19601f82011682018060405250810190610e3a91906156b3565b6020015180610ec15750600b546040516331a9108f60e11b815260016004820152339161010090046001600160a01b031690636352211e90602401602060405180830381865afa158015610e92573d6000803e3d6000fd5b505050506040513d601f19601f82011682018060405250810190610eb69190615737565b6001600160a01b0316145b610edd5760405162461bcd60e51b8152600401610bd090615754565b610ee681613411565b50565b600b5460405163160a792560e01b81523360048201526101009091046001600160a01b03169063160a792590602401608060405180830381865afa158015610f35573d6000803e3d6000fd5b505050506040513d601f19601f82011682018060405250810190610f5991906156b3565b6020015180610fe05750600b546040516331a9108f60e11b815260016004820152339161010090046001600160a01b031690636352211e90602401602060405180830381865afa158015610fb1573d6000803e3d6000fd5b505050506040513d601f19601f82011682018060405250810190610fd59190615737565b6001600160a01b0316145b610ffc5760405162461bcd60e51b8152600401610bd090615754565b610ee681613483565b600260075414156110285760405162461bcd60e51b8152600401610bd090615789565b600260075560408051838152336020820152428183015243606082015290517f526e31449ea46e2aecf9b480c8d7dfa191348ef74ffdf75b445a6ab726daa6ff9181900360800190a161107a816134e3565b50506001600755565b3360008181526001602090815260408083206001600160a01b03871684529091528120549091610ab39185906110ba9086906157d6565b613046565b3360009081526005602052604090205460ff1661111e5760405162461bcd60e51b815260206004820152601960248201527f455243323054656d706c6174653a204e4f54204d494e544552000000000000006044820152606401610bd0565b600a546111348261112e60025490565b906138f5565b11156111825760405162461bcd60e51b815260206004820152601f60248201527f44617461746f6b656e54656d706c6174653a20636170206578636565646564006044820152606401610bd0565b61118c8282613901565b5050565b610ee633826139e0565b60606015805480602002602001604051908101604052809291908181526020018280548015610a9c57602002820191906000526020600020905b81546001600160a01b031681526001909101906020018083116111d4575050505050905090565b600b546040516331a9108f60e11b8152600160048201526101009091046001600160a01b031690636352211e90602401602060405180830381865afa158015611248573d6000803e3d6000fd5b505050506040513d601f19601f8201168201806040525081019061126c9190615737565b6001600160a01b0316336001600160a01b0316146112cc5760405162461bcd60e51b815260206004820152601b60248201527f455243323054656d706c6174653a206e6f74204e46544f776e657200000000006044820152606401610bd0565b6112d4613b2e565b565b33600090815260056020526040902054610100900460ff16806113695750600b5460405163160a792560e01b81523360048201526101009091046001600160a01b03169063160a792590602401608060405180830381865afa158015611340573d6000803e3d6000fd5b505050506040513d601f19601f8201168201806040525081019061136491906156b3565b602001515b806113ec5750600b546040516331a9108f60e11b815260016004820152339161010090046001600160a01b031690636352211e90602401602060405180830381865afa1580156113bd573d6000803e3d6000fd5b505050506040513d601f19601f820116820180604052508101906113e19190615737565b6001600160a01b0316145b61144c5760405162461bcd60e51b815260206004820152602b60248201527f455243323054656d706c6174653a204e4f54205041594d454e54204d414e414760448201526a22a91037b91027aba722a960a91b6064820152608401610bd0565b61145581613ffc565b604080514281524360208201526001600160a01b0383169133917f4d7694d695c57cc54947177c8e8a0e61aae664e9223492a798c32fadfc6419cc910160405180910390a350565b600d546001600160a01b0316331461150a5760405162461bcd60e51b815260206004820152602a60248201527f455243323054656d706c6174653a206e6f74207075626c6973684d61726b65746044820152694665654164647265737360b01b6064820152608401610bd0565b6001600160a01b0383166115715760405162461bcd60e51b815260206004820152602860248201527f496e76616c6964205f7075626c6973684d61726b657446656541646472657373604482015267206164647265737360c01b6064820152608401610bd0565b6001600160a01b0382166115d65760405162461bcd60e51b815260206004820152602660248201527f496e76616c6964205f7075626c6973684d61726b6574466565546f6b656e206160448201526564647265737360d01b6064820152608401610bd0565b600d80546001600160a01b038581166001600160a01b03199283168117909355600e8054918616919092168117909155600f839055604080513381526020810193909352820152606081018290527f02ab4b3fc023109c2d0da394bda239166c833f63c42b71b67ed4b836dca0ddfe9060800160405180910390a1505050565b600b5460405163160a792560e01b815233600482015260009161010090046001600160a01b03169063160a792590602401608060405180830381865afa1580156116a4573d6000803e3d6000fd5b505050506040513d601f19601f820116820180604052508101906116c891906156b3565b602001518061174f5750600b546040516331a9108f60e11b815260016004820152339161010090046001600160a01b031690636352211e90602401602060405180830381865afa158015611720573d6000803e3d6000fd5b505050506040513d601f19601f820116820180604052508101906117449190615737565b6001600160a01b0316145b61176b5760405162461bcd60e51b8152600401610bd090615754565b6002600754141561178e5760405162461bcd60e51b8152600401610bd090615789565b600260075561179c60025490565b156117f55760405162461bcd60e51b8152602060048201526024808201527f455243323054656d706c6174653a20746f6b656e7320616c7265616479206d696044820152631b9d195960e21b6064820152608401610bd0565b6118188260008151811061180b5761180b6157ee565b602002602001015161316a565b601260009054906101000a90046001600160a01b03166001600160a01b031663510f34656040518163ffffffff1660e01b8152600401602060405180830381865afa15801561186b573d6000803e3d6000fd5b505050506040513d601f19601f8201168201806040525081019061188f9190615804565b846003815181106118a2576118a26157ee565b602002602001015110156119385760405162461bcd60e51b815260206004820152605160248201527f455243323054656d706c6174653a2056657374696e6720706572696f6420746f60448201527f6f206c6f772e2053656520466163746f7279526f757465722e6d696e56657374606482015270696e67506572696f64496e426c6f636b7360781b608482015260a401610bd0565b60006040518060400160405280306001600160a01b03166001600160a01b0316815260200184600181518110611970576119706157ee565b60209081029190910101516001600160a01b0390811690915260125460405163ee3bc63560e01b8152929350169063ee3bc635906119b890849089908990899060040161584d565b6020604051808303816000875af11580156119d7573d6000803e3d6000fd5b505050506040513d601f19601f820116820180604052508101906119fb9190615737565b6013805460018101825560009182527f66de8ffda797e3de9c05e8fc57b3bf0ec28a930d40b0d285d93c06501cf6a0900180546001600160a01b0319166001600160a01b03841617905584519193507fd02da1bec30f7f750aa0a131745dfb9ce96767c45a192dc26409f5d690e0b9679184918691611a7c57611a7c6157ee565b602002602001015185600181518110611a9757611a976157ee565b6020026020010151604051611acc939291906001600160a01b0393841681529183166020830152909116604082015260600190565b60405180910390a15060016007559392505050565b60606013805480602002602001604051908101604052809291908181526020018280548015610a9c576020028201919060005260206000209081546001600160a01b031681526001909101906020018083116111d4575050505050905090565b6000611b4d8333610970565b905081811015611bab5760405162461bcd60e51b8152602060048201526024808201527f45524332303a206275726e20616d6f756e74206578636565647320616c6c6f77604482015263616e636560e01b6064820152608401610bd0565b611bb88333848403613046565b611bc283836139e0565b505050565b60026007541415611bea5760405162461bcd60e51b8152600401610bd090615789565b600260075533600090815260208190526040902054670de0b6b3a764000090811115611c645760405162461bcd60e51b8152602060048201526024808201527f4e6f7420656e6f7567682064617461746f6b656e7320746f207374617274204f604482015263393232b960e11b6064820152608401610bd0565b600d5460408051338152602081018490529081018690524260608201524360808201526001600160a01b03918216918716907fe1c4fa794edfa8f619b8257a077398950357b9c6398528f94480307352f9afcc9060a00160405180910390a36000600f54118015611cdf5750600e546001600160a01b031615155b8015611cf55750600d546001600160a01b031615155b15611d6a57600e54600d54600f54611d1d926001600160a01b0390811692339291169061401e565b600e54600d54600f546040519081526001600160a01b0392831692909116907f4049a448ac6f0284a98d2cb9199e73605944ea5bec901a037f88c84703de82b29060200160405180910390a35b60008260400135118015611d9757506000611d8b6040840160208501614e12565b6001600160a01b031614155b8015611db957506000611dad6020840184614e12565b6001600160a01b031614155b15611e5657611de9611dd16040840160208501614e12565b33611ddf6020860186614e12565b856040013561401e565b611df96040830160208401614e12565b6001600160a01b0316611e0f6020840184614e12565b6001600160a01b03167f6d11837f46cc09b011cf4aae09fcade046c020aac088090ae4f77ff67b7079728460400135604051611e4d91815260200190565b60405180910390a35b611e5f836134e3565b60125460408051637d28354d60e01b815290516000926001600160a01b031691637d28354d9160048083019260209291908290030181865afa158015611ea9573d6000803e3d6000fd5b505050506040513d601f19601f82011682018060405250810190611ecd9190615804565b9050611ee4611eda612f83565b610897848461416c565b611f305760405162461bcd60e51b815260206004820152601e60248201527f4661696c656420746f2073656e6420445420746f207075626c697368657200006044820152606401610bd0565b60125460408051631a81876d60e01b81529051611fa5926001600160a01b031691631a81876d9160048083019260209291908290030181865afa158015611f7b573d6000803e3d6000fd5b505050506040513d601f19601f82011682018060405250810190611f9f9190615737565b8261291a565b611ff15760405162461bcd60e51b815260206004820152601860248201527f4661696c656420746f2073656e6420445420746f204f504300000000000000006044820152606401610bd0565b5050600160075550505050565b60606014805480602002602001604051908101604052809291908181526020016000905b8282101561206a576000848152602090819020604080518082019091526002850290910180546001600160a01b03168252600190810154828401529083529092019101612022565b50505050905090565b600b5461010090046001600160a01b031633146112cc5760405162461bcd60e51b815260206004820152601f60248201527f455243323054656d706c6174653a204e4f542037323120436f6e7472616374006044820152606401610bd0565b336001600160a01b038216141561212b5760405162461bcd60e51b815260206004820152601f60248201527f50726f76696465722063616e6e6f742062652074686520636f6e73756d6572006044820152606401610bd0565b60006040518060400160405280601c81526020017f19457468657265756d205369676e6564204d6573736167653a0a33320000000081525090506000818c8c8c60405160200161217d939291906158b8565b604051602081830303815290604052805190602001206040516020016121a49291906158d2565b604051602081830303815290604052805190602001209050336001600160a01b0316612206828b8b8080601f01602080910402602001604051908101604052809392919081815260200183838082843760009201919091525061417892505050565b6001600160a01b03161461225c5760405162461bcd60e51b815260206004820152601f60248201527f50726f7669646572207369676e617475726520636865636b206661696c6564006044820152606401610bd0565b60008288886040516020016122729291906158f4565b604051602081830303815290604052805190602001206040516020016122999291906158d2565b604051602081830303815290604052805190602001209050836001600160a01b03166122fb8288888080601f01602080910402602001604051908101604052809392919081815260200183838082843760009201919091525061417892505050565b6001600160a01b0316146123515760405162461bcd60e51b815260206004820152601f60248201527f436f6e73756d6572207369676e617475726520636865636b206661696c6564006044820152606401610bd0565b836001600160a01b0316336001600160a01b03167fc9a10280e9c735c63092fa5431e6acb3ed342e08b69a083e5e676994eb7070f98f8f8f8f8f8f8f8f8f42436040516123a89b9a9998979695949392919061592d565b60405180910390a350505050505050505050505050565b600b5460405163160a792560e01b815233600482015260009161010090046001600160a01b03169063160a792590602401608060405180830381865afa15801561240d573d6000803e3d6000fd5b505050506040513d601f19601f8201168201806040525081019061243191906156b3565b60200151806124b85750600b546040516331a9108f60e11b815260016004820152339161010090046001600160a01b031690636352211e90602401602060405180830381865afa158015612489573d6000803e3d6000fd5b505050506040513d601f19601f820116820180604052508101906124ad9190615737565b6001600160a01b0316145b6124d45760405162461bcd60e51b8152600401610bd090615754565b600260075414156124f75760405162461bcd60e51b8152600401610bd090615789565b6002600781905550600082600481518110612514576125146157ee565b6020026020010151111561252b5761252b8461316a565b601254604051638244937560e01b81526001600160a01b039091169063824493759061255f9087908790879060040161599f565b6020604051808303816000875af115801561257e573d6000803e3d6000fd5b505050506040513d601f19601f820116820180604052508101906125a29190615804565b9050826000815181106125b7576125b76157ee565b60200260200101516001600160a01b0316836001815181106125db576125db6157ee565b60200260200101516001600160a01b03167fb3fac3ae95956dbac74e63ba8dac94081832395c8788e3049c900a7732f34805838760405161262f9291909182526001600160a01b0316602082015260400190565b60405180910390a3604080518082019091526001600160a01b03948516815260208101828152601480546001808201835560009290925292517fce6d7b5282bd9a3661ae061feed1dbda4e52ab073b1f9285be6e155d9c38d4ec600290940293840180546001600160a01b0319169190981617909655517fce6d7b5282bd9a3661ae061feed1dbda4e52ab073b1f9285be6e155d9c38d4ed909101556007939093555090919050565b606060098054610a239061567e565b600b5460405163160a792560e01b81526001600160a01b0383811660048301526000926101009004169063160a792590602401608060405180830381865afa158015612737573d6000803e3d6000fd5b505050506040513d601f19601f8201168201806040525081019061275b91906156b3565b6020015192915050565b600b5460405163160a792560e01b81523360048201526101009091046001600160a01b03169063160a792590602401608060405180830381865afa1580156127b1573d6000803e3d6000fd5b505050506040513d601f19601f820116820180604052508101906127d591906156b3565b602001518061285c5750600b546040516331a9108f60e11b815260016004820152339161010090046001600160a01b031690636352211e90602401602060405180830381865afa15801561282d573d6000803e3d6000fd5b505050506040513d601f19601f820116820180604052508101906128519190615737565b6001600160a01b0316145b6128785760405162461bcd60e51b8152600401610bd090615754565b610ee68161316a565b3360009081526001602090815260408083206001600160a01b0386168452909152812054828110156129035760405162461bcd60e51b815260206004820152602560248201527f45524332303a2064656372656173656420616c6c6f77616e63652062656c6f77604482015264207a65726f60d81b6064820152608401610bd0565b6129103385858403613046565b5060019392505050565b6000610ab3338484613241565b600b5460405163160a792560e01b81523360048201526101009091046001600160a01b03169063160a792590602401608060405180830381865afa158015612973573d6000803e3d6000fd5b505050506040513d601f19601f8201168201806040525081019061299791906156b3565b6020015180612a1e5750600b546040516331a9108f60e11b815260016004820152339161010090046001600160a01b031690636352211e90602401602060405180830381865afa1580156129ef573d6000803e3d6000fd5b505050506040513d601f19601f82011682018060405250810190612a139190615737565b6001600160a01b0316145b612a3a5760405162461bcd60e51b8152600401610bd090615754565b610ee681614250565b600b5460405163160a792560e01b81523360048201526101009091046001600160a01b03169063160a792590602401608060405180830381865afa158015612a8f573d6000803e3d6000fd5b505050506040513d601f19601f82011682018060405250810190612ab391906156b3565b6020015180612b3a5750600b546040516331a9108f60e11b815260016004820152339161010090046001600160a01b031690636352211e90602401602060405180830381865afa158015612b0b573d6000803e3d6000fd5b505050506040513d601f19601f82011682018060405250810190612b2f9190615737565b6001600160a01b0316145b612b565760405162461bcd60e51b8152600401610bd090615754565b6040516bffffffffffffffffffffffff193060601b16602082015260009060340160408051808303601f19018152908290528051602090910120600b546301caf8fd60e31b835290925061010090046001600160a01b031690630e57c7e890612bc7908490879087906004016159df565b600060405180830381600087803b158015612be157600080fd5b505af1158015612bf5573d6000803e3d6000fd5b50505050505050565b600b5460009060ff1615612c6e5760405162461bcd60e51b815260206004820152603160248201527f455243323054656d706c6174653a20746f6b656e20696e7374616e636520616c6044820152701c9958591e481a5b9a5d1a585b1a5e9959607a1b6064820152608401610bd0565b612d22612c7b8b8d615a59565b8a8a8080602002602001604051908101604052809392919081815260200183836020028082843760009201919091525050604080516020808e0282810182019093528d82529093508d92508c91829185019084908082843760009201919091525050604080516020808d0282810182019093528c82529093508c92508b918291850190849080828437600092019190915250612d1d92508991508a9050615ae0565b614331565b9b9a5050505050505050505050565b43841015612d745760405162461bcd60e51b815260206004820152601060248201526f115490cc8c11150e881156141254915160821b6044820152606401610bd0565b6010546001600160a01b038816600090815260116020526040812080549192917f6e71edae12b1b97f4d1f60370fef10105fa2faae0126114a169c64845d6126c9918b918b918b919087612dc783615b5b565b909155506040805160208101969096526001600160a01b0394851690860152929091166060840152608083015260a082015260c0810187905260e00160405160208183030381529060405280519060200120604051602001612e4092919061190160f01b81526002810192909252602282015260420190565b60408051601f198184030181528282528051602091820120600080855291840180845281905260ff88169284019290925260608301869052608083018590529092509060019060a0016020604051602081039080840390855afa158015612eab573d6000803e3d6000fd5b5050604051601f1901519150506001600160a01b03811615801590612ee15750886001600160a01b0316816001600160a01b0316145b612f2d5760405162461bcd60e51b815260206004820152601a60248201527f455243323044543a20494e56414c49445f5349474e41545552450000000000006044820152606401610bd0565b612f38898989613046565b505050505050505050565b612f4b612f83565b6001600160a01b03166108fc479081150290604051600060405180830381858888f19350505050158015610ee6573d6000803e3d6000fd5b600c546000906001600160a01b031661300c57600b546040516331a9108f60e11b8152600160048201526101009091046001600160a01b031690636352211e90602401602060405180830381865afa158015612fe3573d6000803e3d6000fd5b505050506040513d601f19601f820116820180604052508101906130079190615737565b905090565b50600c546001600160a01b031690565b6006818154811061302c57600080fd5b6000918252602090912001546001600160a01b0316905081565b6001600160a01b0383166130a85760405162461bcd60e51b8152602060048201526024808201527f45524332303a20617070726f76652066726f6d20746865207a65726f206164646044820152637265737360e01b6064820152608401610bd0565b6001600160a01b0382166131095760405162461bcd60e51b815260206004820152602260248201527f45524332303a20617070726f766520746f20746865207a65726f206164647265604482015261737360f01b6064820152608401610bd0565b6001600160a01b0383811660008181526001602090815260408083209487168084529482529182902085905590518481527f8c5be1e5ebec7d5bd14f71427d1e84f3dd0314c0f7b2291e5b200ac8c7c3b925910160405180910390a3505050565b6001600160a01b03811615610ee6576001600160a01b0381166000908152600560205260409020805460ff16156131e35760405162461bcd60e51b815260206004820152601d60248201527f4552433230526f6c65733a2020414c52454144592041204d494e5445520000006044820152606401610bd0565b805460ff191660011781556131f782614789565b6040805142815243602082015233916001600160a01b038516917f4f7e100eb1ee13e903798bd0d6aa854152e07eb05544f392b9409c12935c809591015b60405180910390a35050565b6001600160a01b0383166132a55760405162461bcd60e51b815260206004820152602560248201527f45524332303a207472616e736665722066726f6d20746865207a65726f206164604482015264647265737360d81b6064820152608401610bd0565b6001600160a01b0382166133075760405162461bcd60e51b815260206004820152602360248201527f45524332303a207472616e7366657220746f20746865207a65726f206164647260448201526265737360e81b6064820152608401610bd0565b6001600160a01b0383166000908152602081905260409020548181101561337f5760405162461bcd60e51b815260206004820152602660248201527f45524332303a207472616e7366657220616d6f756e7420657863656564732062604482015265616c616e636560d01b6064820152608401610bd0565b6001600160a01b038085166000908152602081905260408082208585039055918516815290812080548492906133b69084906157d6565b92505081905550826001600160a01b0316846001600160a01b03167fddf252ad1be2c89b69c2b068fc378daa952ba7f163c4a11628f55a4df523b3ef8460405161340291815260200190565b60405180910390a35b50505050565b6001600160a01b03811660008181526005602052604090819020805461ff00191681559051909133917faee911eec8b2df8f3ae0464841541b1e5f339519bd5cf51889fe8b07fecff658906134729042904390918252602082015260400190565b60405180910390a361118c82614840565b6001600160a01b03811660008181526005602052604090819020805460ff191681559051909133917fefa2735987005aaa89c050c0ff8cc9ae7d9079d19382081c429130f98c52d480906134729042904390918252602082015260400190565b60408051808201909152601c81527f19457468657265756d205369676e6564204d6573736167653a0a333200000000602082015260008161352760e0850185615b76565b6135346020870187614e12565b6135446040880160208901614e12565b87604001358860c0013560405160200161356396959493929190615bbc565b6040516020818303038152906040528051906020012060405160200161358a9291906158d2565b60408051601f198184030181529190528051602090910120905060006001826135b96080870160608801615bfa565b6040805160008152602081018083529390935260ff90911690820152608080870135606083015260a08088013591830191909152016020604051602081039080840390855afa158015613610573d6000803e3d6000fd5b5050604051601f190151915061362b90506020850185614e12565b6001600160a01b0316816001600160a01b0316146136825760405162461bcd60e51b8152602060048201526014602482015273496e76616c69642070726f76696465722066656560601b6044820152606401610bd0565b6136926040850160208601614e12565b6001600160a01b03166136a86020860186614e12565b6001600160a01b03167ff8ed11cdaaf10eca2b6c941fb802cb8682afe86cac1eb93f70d0780fa062c54460408701356136e460e0890189615b76565b6136f460808b0160608c01615bfa565b8a608001358b60a001358c60c001356040516137169796959493929190615c15565b60405180910390a36000846040013511801561374b5750600061373f6040860160208701614e12565b6001600160a01b031614155b801561376d575060006137616020860186614e12565b6001600160a01b031614155b1561340b5760125460408051636c45e88160e01b815290516000926001600160a01b031691636c45e8819160048083019260209291908290030181865afa1580156137bc573d6000803e3d6000fd5b505050506040513d601f19601f820116820180604052508101906137e09190615804565b90506000811561380d5761380a670de0b6b3a764000061380460408901358561498e565b9061499a565b90505b600061381d60408801358361416c565b905061383e6138326040890160208a01614e12565b33308a6040013561401e565b61386f61384e6020890189614e12565b8261385f60408b0160208c01614e12565b6001600160a01b031691906149a6565b8115612bf55760125460408051631a81876d60e01b81529051612bf5926001600160a01b031691631a81876d9160048083019260209291908290030181865afa1580156138c0573d6000803e3d6000fd5b505050506040513d601f19601f820116820180604052508101906138e49190615737565b8361385f60408b0160208c01614e12565b6000610dc382846157d6565b6001600160a01b0382166139575760405162461bcd60e51b815260206004820152601f60248201527f45524332303a206d696e7420746f20746865207a65726f2061646472657373006044820152606401610bd0565b806002600082825461396991906157d6565b90915550506001600160a01b038216600090815260208190526040812080548392906139969084906157d6565b90915550506040518181526001600160a01b038316906000907fddf252ad1be2c89b69c2b068fc378daa952ba7f163c4a11628f55a4df523b3ef9060200160405180910390a35050565b6001600160a01b038216613a405760405162461bcd60e51b815260206004820152602160248201527f45524332303a206275726e2066726f6d20746865207a65726f206164647265736044820152607360f81b6064820152608401610bd0565b6001600160a01b03821660009081526020819052604090205481811015613ab45760405162461bcd60e51b815260206004820152602260248201527f45524332303a206275726e20616d6f756e7420657863656564732062616c616e604482015261636560f01b6064820152608401610bd0565b6001600160a01b0383166000908152602081905260408120838303905560028054849290613ae3908490615c58565b90915550506040518281526000906001600160a01b038516907fddf252ad1be2c89b69c2b068fc378daa952ba7f163c4a11628f55a4df523b3ef9060200160405180910390a3505050565b601554601454600091613b40916157d6565b9050600080826001600160401b03811115613b5d57613b5d615037565b604051908082528060200260200182016040528015613b86578160200160208202803683370190505b50905060005b601454811015613e6c57600060148281548110613bab57613bab6157ee565b60009182526020822060029091020154601480546001600160a01b039092169350829182918591634c87087d919088908110613be957613be96157ee565b9060005260206000209060020201600101546040518263ffffffff1660e01b8152600401613c1991815260200190565b61018060405180830381865afa158015613c37573d6000803e3d6000fd5b505050506040513d601f19601f82011682018060405250810190613c5b9190615c6f565b9b509b509b505050505050505050506000821115613d0157836001600160a01b031663f32f947660148781548110613c9557613c956157ee565b906000526020600020906002020160010154846040518363ffffffff1660e01b8152600401613cce929190918252602082015260400190565b600060405180830381600087803b158015613ce857600080fd5b505af1158015613cfc573d6000803e3d6000fd5b505050505b8215613d9557836001600160a01b031663c612e48a60148781548110613d2957613d296157ee565b906000526020600020906002020160010154856040518363ffffffff1660e01b8152600401613d62929190918252602082015260400190565b600060405180830381600087803b158015613d7c57600080fd5b505af1158015613d90573d6000803e3d6000fd5b505050505b613dd860148681548110613dab57613dab6157ee565b600091825260208083206002909202909101546001600160a01b0316825260059052604090205460ff1690565b8015613de657506001811515145b15613e555760148581548110613dfe57613dfe6157ee565b600091825260209091206002909102015486516001600160a01b0390911690879089908110613e2f57613e2f6157ee565b6001600160a01b039092166020928302919091019091015286613e5181615b5b565b9750505b505050508080613e6490615b5b565b915050613b8c565b5060005b601554811015613fb15760158181548110613e8d57613e8d6157ee565b60009182526020909120015460405163f9bfaa7d60e01b81523060048201526001600160a01b039091169063f9bfaa7d90602401600060405180830381600087803b158015613edb57600080fd5b505af1158015613eef573d6000803e3d6000fd5b50505050613f3160158281548110613f0957613f096157ee565b60009182526020808320909101546001600160a01b0316825260059052604090205460ff1690565b15613f9f5760158181548110613f4957613f496157ee565b9060005260206000200160009054906101000a90046001600160a01b0316828481518110613f7957613f796157ee565b6001600160a01b039092166020928302919091019091015282613f9b81615b5b565b9350505b80613fa981615b5b565b915050613e70565b613fb9614a09565b50600c80546001600160a01b031916905560005b8281101561340b57613fea82828151811061180b5761180b6157ee565b80613ff481615b5b565b915050613fcd565b600c80546001600160a01b0319166001600160a01b0392909216919091179055565b6040516370a0823160e01b81526001600160a01b038381166004830152600091908616906370a0823190602401602060405180830381865afa158015614068573d6000803e3d6000fd5b505050506040513d601f19601f8201168201806040525081019061408c9190615804565b90506140a36001600160a01b038616858585614ab8565b6140ad81836138f5565b6040516370a0823160e01b81526001600160a01b0385811660048301528716906370a0823190602401602060405180830381865afa1580156140f3573d6000803e3d6000fd5b505050506040513d601f19601f820116820180604052508101906141179190615804565b10156141655760405162461bcd60e51b815260206004820152601a60248201527f5472616e7366657220616d6f756e7420697320746f6f206c6f770000000000006044820152606401610bd0565b5050505050565b6000610dc38284615c58565b60008060008084516041146141935760009350505050610ab7565b50505060208201516040830151604184015160ff16601b8110156141bf576141bc601b82615d2c565b90505b8060ff16601b141580156141d757508060ff16601c14155b156141e85760009350505050610ab7565b60408051600081526020810180835288905260ff831691810191909152606081018490526080810183905260019060a0016020604051602081039080840390855afa15801561423b573d6000803e3d6000fd5b5050604051601f190151979650505050505050565b6001600160a01b03811615610ee6576001600160a01b03811660009081526005602052604090208054610100900460ff16156142d95760405162461bcd60e51b815260206004820152602260248201527f4552433230526f6c65733a2020414c5245414459204120464545204d414e414760448201526122a960f11b6064820152608401610bd0565b805461ff0019166101001781556142ef82614789565b6040805142815243602082015233916001600160a01b038516917fb17da2e9910b4ba5754e8872385ba315a238bafb5ae221fc85093c33432c40a79101613235565b60008084600081518110614347576143476157ee565b6020026020010151905084600181518110614364576143646157ee565b6020908102919091010151601280546001600160a01b0319166001600160a01b0392831617905581166143ee5760405162461bcd60e51b815260206004820152602c60248201527f455243323054656d706c6174653a20496e76616c6964206d696e7465722c202060448201526b7a65726f206164647265737360a01b6064820152608401610bd0565b6012546001600160a01b031661445a5760405162461bcd60e51b815260206004820152602b60248201527f455243323054656d706c6174653a20496e76616c696420726f757465722c207a60448201526a65726f206164647265737360a81b6064820152608401610bd0565b600019600a5586518790600090614473576144736157ee565b602002602001015160089080519060200190614490929190614d3a565b50866001815181106144a4576144a46157ee565b6020026020010151600990805190602001906144c1929190614d3a565b50600b805460ff196001600160a01b03841661010002166001600160a81b0319909116176001179055855161450190879060009061180b5761180b6157ee565b60006001600160a01b03168660018151811061451f5761451f6157ee565b60200260200101516001600160a01b0316146145c9576145588660018151811061454b5761454b6157ee565b6020026020010151613ffc565b8560018151811061456b5761456b6157ee565b60200260200101516001600160a01b0316336001600160a01b03167f4d7694d695c57cc54947177c8e8a0e61aae664e9223492a798c32fadfc6419cc42436040516145c0929190918252602082015260400190565b60405180910390a35b856002815181106145dc576145dc6157ee565b6020026020010151600d60006101000a8154816001600160a01b0302191690836001600160a01b031602179055508560038151811061461d5761461d6157ee565b6020026020010151600e60006101000a8154816001600160a01b0302191690836001600160a01b031602179055508360018151811061465e5761465e6157ee565b602090810291909101810151600f819055600d54600e54604080513381526001600160a01b039384169581019590955291169083015260608201527f02ab4b3fc023109c2d0da394bda239166c833f63c42b71b67ed4b836dca0ddfe9060800160405180910390a160405146907f8b73c3c69bb8fe3d512ecc4cf759cc79239f7b179b0ffacaa9a75d522b39400f906146f990600890615d51565b60408051918290038220828201825260018352603160f81b6020938401528151928301939093528101919091527fc89efdaa54c0f20c7adf612882df0950f5a951637e0307cdcb4c672f298b8bc66060820152608081018290523060a082015260c00160408051808303601f1901815291905280516020909101206010555050600b5460ff169695505050505050565b60005b6006548110156147e557816001600160a01b0316600682815481106147b3576147b36157ee565b6000918252602090912001546001600160a01b031614156147d3576147e5565b806147dd81615b5b565b91505061478c565b60065481141561118c57600680546001810182556000919091527ff652222313e28459528d920b65115c16c04f3efc82aaedc97be59f3f377c0d3f0180546001600160a01b0384166001600160a01b03199091161790555050565b6001600160a01b0381166000908152600560205260409020805460ff1615801561487157508054610100900460ff16155b1561118c5760005b6006548110156148d257826001600160a01b0316600682815481106148a0576148a06157ee565b6000918252602090912001546001600160a01b031614156148c0576148d2565b806148ca81615b5b565b915050614879565b600654811015611bc257600680546148ec90600190615c58565b815481106148fc576148fc6157ee565b600091825260209091200154600680546001600160a01b039092169183908110614928576149286157ee565b9060005260206000200160006101000a8154816001600160a01b0302191690836001600160a01b03160217905550600680548061496757614967615ded565b600082815260209020810160001990810180546001600160a01b0319169055019055505050565b6000610dc38284615e03565b6000610dc38284615e22565b6040516001600160a01b038316602482015260448101829052611bc290849063a9059cbb60e01b906064015b60408051601f198184030181529190526020810180516001600160e01b03166001600160e01b031990931692909217909152614af0565b60005b600654811015614a6f5760006005600060068481548110614a2f57614a2f6157ee565b60009182526020808320909101546001600160a01b031683528201929092526040019020805461ffff191690555080614a6781615b5b565b915050614a0c565b50614a7c60066000614dbe565b6040805142815243602082015233917f712bc71db81927a76b8bf1ea346247bb0ad58f18e4e5c1bd4aa0ec6573e02a2b910160405180910390a2565b6040516001600160a01b038085166024830152831660448201526064810182905261340b9085906323b872dd60e01b906084016149d2565b6000614b45826040518060400160405280602081526020017f5361666545524332303a206c6f772d6c6576656c2063616c6c206661696c6564815250856001600160a01b0316614bc29092919063ffffffff16565b805190915015611bc25780806020019051810190614b639190615e44565b611bc25760405162461bcd60e51b815260206004820152602a60248201527f5361666545524332303a204552433230206f7065726174696f6e20646964206e6044820152691bdd081cdd58d8d9595960b21b6064820152608401610bd0565b6060614bd18484600085614bd9565b949350505050565b606082471015614c3a5760405162461bcd60e51b815260206004820152602660248201527f416464726573733a20696e73756666696369656e742062616c616e636520666f6044820152651c8818d85b1b60d21b6064820152608401610bd0565b843b614c885760405162461bcd60e51b815260206004820152601d60248201527f416464726573733a2063616c6c20746f206e6f6e2d636f6e74726163740000006044820152606401610bd0565b600080866001600160a01b03168587604051614ca49190615e61565b60006040518083038185875af1925050503d8060008114614ce1576040519150601f19603f3d011682016040523d82523d6000602084013e614ce6565b606091505b5091509150614cf6828286614d01565b979650505050505050565b60608315614d10575081610dc3565b825115614d205782518084602001fd5b8160405162461bcd60e51b8152600401610bd09190614e5b565b828054614d469061567e565b90600052602060002090601f016020900481019282614d685760008555614dae565b82601f10614d8157805160ff1916838001178555614dae565b82800160010185558215614dae579182015b82811115614dae578251825591602001919060010190614d93565b50614dba929150614dd8565b5090565b5080546000825590600052602060002090810190610ee691905b5b80821115614dba5760008155600101614dd9565b6001600160a01b0381168114610ee657600080fd5b8035614e0d81614ded565b919050565b600060208284031215614e2457600080fd5b8135610dc381614ded565b60005b83811015614e4a578181015183820152602001614e32565b8381111561340b5750506000910152565b6020815260008251806020840152614e7a816040850160208701614e2f565b601f01601f19169190910160400192915050565b60008060408385031215614ea157600080fd5b8235614eac81614ded565b946020939093013593505050565b8015158114610ee657600080fd5b600080600080600060a08688031215614ee057600080fd5b8535614eeb81614ded565b945060208601359350604086013592506060860135614f0981614eba565b91506080860135614f1981614ded565b809150509295509295909350565b600080600060608486031215614f3c57600080fd5b8335614f4781614ded565b92506020840135614f5781614ded565b929592945050506040919091013590565b60006101008284031215614f7b57600080fd5b50919050565b60008060408385031215614f9457600080fd5b8235915060208301356001600160401b03811115614fb157600080fd5b614fbd85828601614f68565b9150509250929050565b600060208284031215614fd957600080fd5b5035919050565b600081518084526020808501945080840160005b838110156150195781516001600160a01b031687529582019590820190600101614ff4565b509495945050505050565b602081526000610dc36020830184614fe0565b634e487b7160e01b600052604160045260246000fd5b604051601f8201601f191681016001600160401b038111828210171561507557615075615037565b604052919050565b60006001600160401b0382111561509657615096615037565b5060051b60200190565b600082601f8301126150b157600080fd5b813560206150c66150c18361507d565b61504d565b82815260059290921b840181019181810190868411156150e557600080fd5b8286015b8481101561510057803583529183019183016150e9565b509695505050505050565b600082601f83011261511c57600080fd5b8135602061512c6150c18361507d565b82815260059290921b8401810191818101908684111561514b57600080fd5b8286015b8481101561510057803561516281614ded565b835291830191830161514f565b60008060006060848603121561518457600080fd5b83356001600160401b038082111561519b57600080fd5b6151a7878388016150a0565b945060208601359150808211156151bd57600080fd5b6151c9878388016150a0565b935060408601359150808211156151df57600080fd5b506151ec8682870161510b565b9150509250925092565b60008060008084860360c081121561520d57600080fd5b853561521881614ded565b94506020860135935060408601356001600160401b0381111561523a57600080fd5b61524688828901614f68565b9350506060605f198201121561525b57600080fd5b509295919450926060019150565b602080825282518282018190526000919060409081850190868401855b828110156152b457815180516001600160a01b03168552860151868501529284019290850190600101615286565b5091979650505050505050565b60008083601f8401126152d357600080fd5b5081356001600160401b038111156152ea57600080fd5b60208301915083602082850101111561530257600080fd5b9250929050565b60008060008060008060008060008060c08b8d03121561532857600080fd5b8a35995060208b01356001600160401b038082111561534657600080fd5b6153528e838f016152c1565b909b50995060408d013591508082111561536b57600080fd5b6153778e838f016152c1565b909950975060608d013591508082111561539057600080fd5b61539c8e838f016152c1565b909750955060808d01359150808211156153b557600080fd5b506153c28d828e016152c1565b90945092506153d5905060a08c01614e02565b90509295989b9194979a5092959850565b6000806000606084860312156153fb57600080fd5b833561540681614ded565b925060208401356001600160401b038082111561542257600080fd5b61542e8783880161510b565b9350604086013591508082111561544457600080fd5b506151ec868287016150a0565b6000806020838503121561546457600080fd5b82356001600160401b0381111561547a57600080fd5b615486858286016152c1565b90969095509350505050565b60008083601f8401126154a457600080fd5b5081356001600160401b038111156154bb57600080fd5b6020830191508360208260051b850101111561530257600080fd5b60008060008060008060008060008060a08b8d0312156154f557600080fd5b8a356001600160401b038082111561550c57600080fd5b6155188e838f01615492565b909c509a5060208d013591508082111561553157600080fd5b61553d8e838f01615492565b909a50985060408d013591508082111561555657600080fd5b6155628e838f01615492565b909850965060608d013591508082111561557b57600080fd5b6155878e838f01615492565b909650945060808d01359150808211156155a057600080fd5b506155ad8d828e01615492565b915080935050809150509295989b9194979a5092959850565b803560ff81168114614e0d57600080fd5b600080600080600080600060e0888a0312156155f257600080fd5b87356155fd81614ded565b9650602088013561560d81614ded565b95506040880135945060608801359350615629608089016155c6565b925060a0880135915060c0880135905092959891949750929550565b6000806040838503121561565857600080fd5b823561566381614ded565b9150602083013561567381614ded565b809150509250929050565b600181811c9082168061569257607f821691505b60208210811415614f7b57634e487b7160e01b600052602260045260246000fd5b6000608082840312156156c557600080fd5b604051608081018181106001600160401b03821117156156e7576156e7615037565b60405282516156f581614eba565b8152602083015161570581614eba565b6020820152604083015161571881614eba565b6040820152606083015161572b81614eba565b60608201529392505050565b60006020828403121561574957600080fd5b8151610dc381614ded565b6020808252818101527f455243323054656d706c6174653a204e4f54204445504c4f59455220524f4c45604082015260600190565b6020808252601f908201527f5265656e7472616e637947756172643a207265656e7472616e742063616c6c00604082015260600190565b634e487b7160e01b600052601160045260246000fd5b600082198211156157e9576157e96157c0565b500190565b634e487b7160e01b600052603260045260246000fd5b60006020828403121561581657600080fd5b5051919050565b600081518084526020808501945080840160005b8381101561501957815187529582019590820190600101615831565b60008186825b600281101561587b5781516001600160a01b0316835260209283019290910190600101615853565b50505060a0604083015261589260a083018661581d565b82810360608401526158a4818661581d565b90508281036080840152614cf68185614fe0565b838152818360208301376000910160200190815292915050565b600083516158e4818460208801614e2f565b9190910191825250602001919050565b8183823760009101908152919050565b81835281816020850137506000828201602090810191909152601f909101601f19169091010190565b8b815260e06020820152600061594760e083018c8e615904565b828103604084015261595a818b8d615904565b9050828103606084015261596f81898b615904565b90508281036080840152615984818789615904565b60a0840195909552505060c001529998505050505050505050565b6001600160a01b03841681526060602082018190526000906159c390830185614fe0565b82810360408401526159d5818561581d565b9695505050505050565b8381526040602082015260006159f9604083018486615904565b95945050505050565b60006001600160401b03831115615a1b57615a1b615037565b615a2e601f8401601f191660200161504d565b9050828152838383011115615a4257600080fd5b828260208301376000602084830101529392505050565b6000615a676150c18461507d565b80848252602080830192508560051b850136811115615a8557600080fd5b855b81811015615ad45780356001600160401b03811115615aa65760008081fd5b870136601f820112615ab85760008081fd5b615ac6368235868401615a02565b865250938201938201615a87565b50919695505050505050565b6000615aee6150c18461507d565b80848252602080830192508560051b850136811115615b0c57600080fd5b855b81811015615ad45780356001600160401b03811115615b2d5760008081fd5b870136601f820112615b3f5760008081fd5b615b4d368235868401615a02565b865250938201938201615b0e565b6000600019821415615b6f57615b6f6157c0565b5060010190565b6000808335601e19843603018112615b8d57600080fd5b8301803591506001600160401b03821115615ba757600080fd5b60200191503681900382131561530257600080fd5b858782376bffffffffffffffffffffffff19606095861b8116969091019586529290931b909116601484015260288301526048820152606801919050565b600060208284031215615c0c57600080fd5b610dc3826155c6565b87815260c060208201526000615c2f60c08301888a615904565b905060ff861660408301528460608301528360808301528260a083015298975050505050505050565b600082821015615c6a57615c6a6157c0565b500390565b6000806000806000806000806000806000806101808d8f031215615c9257600080fd5b8c51615c9d81614ded565b60208e0151909c50615cae81614ded565b60408e015160608f0151919c509a50615cc681614ded565b8099505060808d0151975060a08d0151965060c08d0151615ce681614eba565b8096505060e08d015194506101008d015193506101208d015192506101408d015191506101608d0151615d1881614eba565b809150509295989b509295989b509295989b565b600060ff821660ff84168060ff03821115615d4957615d496157c0565b019392505050565b600080835481600182811c915080831680615d6d57607f831692505b6020808410821415615d8d57634e487b7160e01b86526022600452602486fd5b818015615da15760018114615db257615ddf565b60ff19861689528489019650615ddf565b60008a81526020902060005b86811015615dd75781548b820152908501908301615dbe565b505084890196505b509498975050505050505050565b634e487b7160e01b600052603160045260246000fd5b6000816000190483118215151615615e1d57615e1d6157c0565b500290565b600082615e3f57634e487b7160e01b600052601260045260246000fd5b500490565b600060208284031215615e5657600080fd5b8151610dc381614eba565b60008251615e73818460208701614e2f565b919091019291505056fea26469706673582212209697a906b59504c4a6db4f342ff16b072ab394c370e0c31fd5da8055dbc9825e64736f6c634300080c0033","bytecodeSha1":"de606e8aeba84e21f529001f314de990b3370168","compiler":{"evm_version":"istanbul","optimizer":{"enabled":true,"runs":200},"version":"0.8.12+commit.f00d7308"},"contractName":"ERC20Template","language":"Solidity","natspec":{"details":"DatatokenTemplate is an ERC20 compliant token template      Used by the factory contract as a bytecode reference to      deploy new Datatokens.","kind":"dev","methods":{"addMinter(address)":{"details":"addMinter      Only ERC20Deployer (at 721 level) can update.      There can be multiple minters","params":{"_minter":"new minter address"}},"addPaymentManager(address)":{"details":"addPaymentManager (can set who's going to collect fee when consuming orders)      Only ERC20Deployer (at 721 level) can update.      There can be multiple paymentCollectors","params":{"_paymentManager":"new minter address"}},"allowance(address,address)":{"details":"See {IERC20-allowance}."},"approve(address,uint256)":{"details":"See {IERC20-approve}. Requirements: - `spender` cannot be the zero address."},"balanceOf(address)":{"details":"See {IERC20-balanceOf}."},"burn(uint256)":{"details":"Destroys `amount` tokens from the caller. See {ERC20-_burn}."},"burnFrom(address,uint256)":{"details":"Destroys `amount` tokens from `account`, deducting from the caller's allowance. See {ERC20-_burn} and {ERC20-allowance}. Requirements: - the caller must have allowance for ``accounts``'s tokens of at least `amount`."},"cap()":{"details":"cap      it returns the capital.","returns":{"_0":"Datatoken cap."}},"cleanFrom721()":{"details":"cleanFrom721()      OnlyNFT(721) Contract can call it.      This function allows to remove all minters, feeManagers and reset the paymentCollector       This function is used when transferring an NFT to a new owner, so that permissions at ERC20level (minter,feeManager,paymentCollector) can be reset."},"cleanPermissions()":{"details":"cleanPermissions()      Only NFT Owner (at 721 level) can call it.      This function allows to remove all minters, feeManagers and reset the paymentCollector"},"createDispenser(address,uint256,uint256,bool,address)":{"details":"createDispenser      Creates a new Dispenser","params":{"_dispenser":"dispenser contract address","allowedSwapper":"- only account that can ask tokens. set address(0) if not required","maxBalance":"- max balance of requester.","maxTokens":"- max tokens to dispense","withMint":"- true if we want to allow the dispenser to be a minter"}},"createFixedRate(address,address[],uint256[])":{"details":"createFixedRate      Creates a new FixedRateExchange setup.","params":{"addresses":"array of addresses [baseToken,owner,marketFeeCollector]","fixedPriceAddress":"fixedPriceAddress","uints":"array of uints [baseTokenDecimals,datatokenDecimals, fixedRate, marketFee, withMint]"},"returns":{"exchangeId":"exchangeId"}},"decimals()":{"details":"decimals      It returns the token decimals.      how many supported decimal points","returns":{"_0":"Datatoken decimals."}},"decreaseAllowance(address,uint256)":{"details":"Atomically decreases the allowance granted to `spender` by the caller. This is an alternative to {approve} that can be used as a mitigation for problems described in {IERC20-approve}. Emits an {Approval} event indicating the updated allowance. Requirements: - `spender` cannot be the zero address. - `spender` must have allowance for the caller of at least `subtractedValue`."},"deployPool(uint256[],uint256[],address[])":{"details":"deployPool      Function to deploy new Pool with 1SS. It also has a vesting schedule.     This function can only be called ONCE and ONLY if no token have been minted yet.      Requires baseToken approval","params":{"addresses":"refers to an array of addresses passed by user                     [0]  = side staking contract address                     [1]  = baseToken address for pool creation(OCEAN or other)                     [2]  = baseTokenSender user which will provide the baseToken amount for initial liquidity                     [3]  = publisherAddress user which will be assigned the vested amount                     [4]  = marketFeeCollector marketFeeCollector address [5] = poolTemplateAddress","ssParams":"params for the ssContract.                      [0]  = rate (wei)                     [1]  = baseToken decimals                     [2]  = vesting amount (wei)                     [3]  = vested blocks                     [4]  = initial liquidity in baseToken for pool creation","swapFees":"swapFees (swapFee, swapMarketFee), swapOceanFee will be set automatically later                     [0] = swapFee for LP Providers                     [1] = swapFee for marketplace runner ."}},"getDispensers()":{"details":"getDispensers      Returns the list of dispensers created for this datatoken"},"getERC721Address()":{"details":"getERC721Address      It returns the parent ERC721","returns":{"_0":"ERC721 address."}},"getFixedRates()":{"details":"getFixedRates      Returns the list of fixedRateExchanges created for this datatoken"},"getId()":{"details":"getId      Return template id in case we need different ABIs.       If you construct your own template, please make sure to change the hardcoded value"},"getPaymentCollector()":{"details":"getPaymentCollector      It returns the current paymentCollector","returns":{"_0":"paymentCollector address"}},"getPermissions(address)":{"details":"getPermissions      Returns list of roles for an user","params":{"user":"user address"}},"getPools()":{"details":"getPools      Returns the list of pools created for this datatoken"},"getPublishingMarketFee()":{"details":"getPublishingMarketFee      Get publishingMarket Fee      This function allows to get the current fee set by the publishing market"},"increaseAllowance(address,uint256)":{"details":"Atomically increases the allowance granted to `spender` by the caller. This is an alternative to {approve} that can be used as a mitigation for problems described in {IERC20-approve}. Emits an {Approval} event indicating the updated allowance. Requirements: - `spender` cannot be the zero address."},"initialize(string[],address[],address[],uint256[],bytes[])":{"details":"initialize      Called prior contract initialization (e.g creating new Datatoken instance)      Calls private _initialize function. Only if contract is not initialized.","params":{"addresses_":"refers to an array of addresses passed by user                     [0]  = minter account who can mint datatokens (can have multiple minters)                     [1]  = paymentCollector  initial paymentCollector  for this DT                     [2]  = publishing Market Address                     [3]  = publishing Market Fee Token","bytes_":"refers to an array of bytes                     Currently not used, usefull for future templates","factoryAddresses_":"refers to an array of addresses passed by the factory                     [0]  = erc721Address                     [1]  = router address","strings_":"refers to an array of strings                      [0] = name token                      [1] = symbol","uints_":"refers to an array of uints                     [0] = cap_ the total ERC20 cap                     [1] = publishing Market Fee Amount"}},"isERC20Deployer(address)":{"details":"isERC20Deployer      returns true if address has deployERC20 role"},"isInitialized()":{"details":"isInitialized      It checks whether the contract is initialized.","returns":{"_0":"true if the contract is initialized."}},"isMinter(address)":{"details":"isMinter      Check if an address has the minter role","params":{"account":"refers to an address that is checked"}},"mint(address,uint256)":{"details":"mint      Only the minter address can call it.      msg.value should be higher than zero and gt or eq minting fee","params":{"account":"refers to an address that token is going to be minted to.","value":"refers to amount of tokens that is going to be minted."}},"name()":{"details":"name      It returns the token name.","returns":{"_0":"Datatoken name."}},"orderExecuted(bytes32,bytes,bytes,bytes,bytes,address)":{"details":"orderExecuted      Providers should call this to prove order execution","params":{"consumerAddress":"consumer address","consumerData":"consumer data","consumerSignature":"consumer signature","orderTxId":"order tx","providerData":"provider data","providerSignature":"provider signature"}},"permit(address,address,uint256,uint256,uint8,bytes32,bytes32)":{"details":"permit      used for signed approvals, see ERC20Template test for more details","params":{"deadline":"deadline after which signed message is no more valid","owner":"user who signed the message","r":"parameters from signed message","s":"parameters from signed message","spender":"spender","v":"parameters from signed message","value":"token amount"}},"removeMinter(address)":{"details":"removeMinter      Only ERC20Deployer (at 721 level) can update.      There can be multiple minters","params":{"_minter":"minter address to remove"}},"removePaymentManager(address)":{"details":"removePaymentManager      Only ERC20Deployer (at 721 level) can update.      There can be multiple paymentManagers","params":{"_paymentManager":"_paymentManager address to remove"}},"reuseOrder(bytes32,(address,address,uint256,uint8,bytes32,bytes32,uint256,bytes))":{"details":"reuseOrder      called by payer or consumer having a valid order, but with expired provider access      Pays the provider fee again, but it will not require a new datatoken payment      Requires previous approval of provider fee.","params":{"_providerFee":"provider feee","orderTxId":"previous valid order"}},"setData(bytes)":{"details":"setData      Only ERC20Deployer (at 721 level) can call it.      This function allows to store data with a preset key (keccak256(ERC20Address)) into NFT 725 Store","params":{"_value":"data to be set with this key"}},"setPaymentCollector(address)":{"details":"setPaymentCollector      Only feeManager can call it      This function allows to set a newPaymentCollector (receives DT when consuming) If not set the paymentCollector is the NFT Owner","params":{"_newPaymentCollector":"new fee collector "}},"setPublishingMarketFee(address,address,uint256)":{"details":"setPublishingMarketFee      Only publishMarketFeeAddress can call it      This function allows to set the fee required by the publisherMarket","params":{"_publishMarketFeeAddress":"new _publishMarketFeeAddress","_publishMarketFeeAmount":"new fee amount","_publishMarketFeeToken":"new _publishMarketFeeToken"}},"startOrder(address,uint256,(address,address,uint256,uint8,bytes32,bytes32,uint256,bytes),(address,address,uint256))":{"details":"startOrder      called by payer or consumer prior ordering a service consume on a marketplace.      Requires previous approval of consumeFeeToken and publishMarketFeeToken","params":{"_consumeMarketFee":"consume market fee","_providerFee":"provider fee","consumer":"is the consumer address (payer could be different address)","serviceIndex":"service index in the metadata"}},"symbol()":{"details":"symbol      It returns the token symbol.","returns":{"_0":"Datatoken symbol."}},"totalSupply()":{"details":"See {IERC20-totalSupply}."},"transfer(address,uint256)":{"details":"See {IERC20-transfer}. Requirements: - `recipient` cannot be the zero address. - the caller must have a balance of at least `amount`."},"transferFrom(address,address,uint256)":{"details":"See {IERC20-transferFrom}. Emits an {Approval} event indicating the updated allowance. This is not required by the EIP. See the note at the beginning of {ERC20}. Requirements: - `sender` and `recipient` cannot be the zero address. - `sender` must have a balance of at least `amount`. - the caller must have allowance for ``sender``'s tokens of at least `amount`."},"withdrawETH()":{"details":"withdrawETH      transfers all the accumlated ether the collector account"}},"title":"DatatokenTemplate","version":1},"opcodes":"PUSH1 0x80 PUSH1 0x40 MSTORE PUSH1 0x4 CALLDATASIZE LT PUSH2 0x2C6 JUMPI PUSH1 0x0 CALLDATALOAD PUSH1 0xE0 SHR DUP1 PUSH4 0x5D1CA631 GT PUSH2 0x17E JUMPI DUP1 PUSH4 0xA457C2D7 GT PUSH2 0xD3 JUMPI DUP1 PUSH4 0xD505ACCF GT PUSH2 0x8F JUMPI DUP1 PUSH4 0xE487C2E8 GT PUSH2 0x6C JUMPI DUP1 PUSH4 0xE487C2E8 EQ PUSH2 0x9A3 JUMPI DUP1 PUSH4 0xEC342AD0 EQ PUSH2 0x9B8 JUMPI DUP1 PUSH4 0xEF867FF4 EQ PUSH2 0x9D4 JUMPI DUP1 PUSH4 0xF887EA40 EQ PUSH2 0x9F4 JUMPI STOP JUMPDEST DUP1 PUSH4 0xD505ACCF EQ PUSH2 0x935 JUMPI DUP1 PUSH4 0xDD62ED3E EQ PUSH2 0x955 JUMPI DUP1 PUSH4 0xE086E5EC EQ PUSH2 0x99B JUMPI STOP JUMPDEST DUP1 PUSH4 0xA457C2D7 EQ PUSH2 0x85C JUMPI DUP1 PUSH4 0xA9059CBB EQ PUSH2 0x87C JUMPI DUP1 PUSH4 0xAA271E1A EQ PUSH2 0x89C JUMPI DUP1 PUSH4 0xAA492EF9 EQ PUSH2 0x8D5 JUMPI DUP1 PUSH4 0xAB62F0E1 EQ PUSH2 0x8F5 JUMPI DUP1 PUSH4 0xB3998BE0 EQ PUSH2 0x915 JUMPI STOP JUMPDEST DUP1 PUSH4 0x7ECEBE00 GT PUSH2 0x13A JUMPI DUP1 PUSH4 0x8B96412B GT PUSH2 0x117 JUMPI DUP1 PUSH4 0x8B96412B EQ PUSH2 0x7E7 JUMPI DUP1 PUSH4 0x95D89B41 EQ PUSH2 0x807 JUMPI DUP1 PUSH4 0x96FB3EAF EQ PUSH2 0x81C JUMPI DUP1 PUSH4 0x983B2D56 EQ PUSH2 0x83C JUMPI STOP JUMPDEST DUP1 PUSH4 0x7ECEBE00 EQ PUSH2 0x785 JUMPI DUP1 PUSH4 0x82C03DA5 EQ PUSH2 0x7B2 JUMPI DUP1 PUSH4 0x89208F0F EQ PUSH2 0x7C7 JUMPI STOP JUMPDEST DUP1 PUSH4 0x5D1CA631 EQ PUSH2 0x6C4 JUMPI DUP1 PUSH4 0x673A2A1F EQ PUSH2 0x6D8 JUMPI DUP1 PUSH4 0x70A08231 EQ PUSH2 0x6ED JUMPI DUP1 PUSH4 0x79CC6790 EQ PUSH2 0x723 JUMPI DUP1 PUSH4 0x79D9D7F3 EQ PUSH2 0x743 JUMPI DUP1 PUSH4 0x7DDA231E EQ PUSH2 0x763 JUMPI STOP JUMPDEST DUP1 PUSH4 0x355274EA GT PUSH2 0x234 JUMPI DUP1 PUSH4 0x40C10F19 GT PUSH2 0x1F0 JUMPI DUP1 PUSH4 0x4F189CB2 GT PUSH2 0x1CD JUMPI DUP1 PUSH4 0x4F189CB2 EQ PUSH2 0x64F JUMPI DUP1 PUSH4 0x57A3A31B EQ PUSH2 0x664 JUMPI DUP1 PUSH4 0x57AD5FF6 EQ PUSH2 0x684 JUMPI DUP1 PUSH4 0x5BFE4DA0 EQ PUSH2 0x6A4 JUMPI STOP JUMPDEST DUP1 PUSH4 0x40C10F19 EQ PUSH2 0x5ED JUMPI DUP1 PUSH4 0x42966C68 EQ PUSH2 0x60D JUMPI DUP1 PUSH4 0x47AC7D55 EQ PUSH2 0x62D JUMPI STOP JUMPDEST DUP1 PUSH4 0x355274EA EQ PUSH2 0x52E JUMPI DUP1 PUSH4 0x361FEF49 EQ PUSH2 0x543 JUMPI DUP1 PUSH4 0x3644E515 EQ PUSH2 0x563 JUMPI DUP1 PUSH4 0x392E53CD EQ PUSH2 0x579 JUMPI DUP1 PUSH4 0x39509351 EQ PUSH2 0x591 JUMPI DUP1 PUSH4 0x397B3743 EQ PUSH2 0x5B1 JUMPI STOP JUMPDEST DUP1 PUSH4 0x191C918A GT PUSH2 0x283 JUMPI DUP1 PUSH4 0x191C918A EQ PUSH2 0x458 JUMPI DUP1 PUSH4 0x23B872DD EQ PUSH2 0x478 JUMPI DUP1 PUSH4 0x25B00243 EQ PUSH2 0x498 JUMPI DUP1 PUSH4 0x3092AFD5 EQ PUSH2 0x4B8 JUMPI DUP1 PUSH4 0x30ADF81F EQ PUSH2 0x4D8 JUMPI DUP1 PUSH4 0x313CE567 EQ PUSH2 0x50C JUMPI STOP JUMPDEST DUP1 PUSH3 0x7FFB78 EQ PUSH2 0x2CF JUMPI DUP1 PUSH4 0x1E88208 EQ PUSH2 0x30B JUMPI DUP1 PUSH4 0x6FDDE03 EQ PUSH2 0x35B JUMPI DUP1 PUSH4 0x95EA7B3 EQ PUSH2 0x37D JUMPI DUP1 PUSH4 0x160A7925 EQ PUSH2 0x3AD JUMPI DUP1 PUSH4 0x18160DDD EQ PUSH2 0x439 JUMPI STOP JUMPDEST CALLDATASIZE PUSH2 0x2CD JUMPI STOP JUMPDEST STOP JUMPDEST CALLVALUE DUP1 ISZERO PUSH2 0x2DB JUMPI PUSH1 0x0 DUP1 REVERT JUMPDEST POP PUSH1 0xB SLOAD PUSH2 0x100 SWAP1 DIV PUSH1 0x1 PUSH1 0x1 PUSH1 0xA0 SHL SUB AND JUMPDEST PUSH1 0x40 MLOAD PUSH1 0x1 PUSH1 0x1 PUSH1 0xA0 SHL SUB SWAP1 SWAP2 AND DUP2 MSTORE PUSH1 0x20 ADD JUMPDEST PUSH1 0x40 MLOAD DUP1 SWAP2 SUB SWAP1 RETURN JUMPDEST CALLVALUE DUP1 ISZERO PUSH2 0x317 JUMPI PUSH1 0x0 DUP1 REVERT JUMPDEST POP PUSH2 0x344 PUSH2 0x326 CALLDATASIZE PUSH1 0x4 PUSH2 0x4E12 JUMP JUMPDEST PUSH1 0x5 PUSH1 0x20 MSTORE PUSH1 0x0 SWAP1 DUP2 MSTORE PUSH1 0x40 SWAP1 KECCAK256 SLOAD PUSH1 0xFF DUP1 DUP3 AND SWAP2 PUSH2 0x100 SWAP1 DIV AND DUP3 JUMP JUMPDEST PUSH1 0x40 DUP1 MLOAD SWAP3 ISZERO ISZERO DUP4 MSTORE SWAP1 ISZERO ISZERO PUSH1 0x20 DUP4 ADD MSTORE ADD PUSH2 0x302 JUMP JUMPDEST CALLVALUE DUP1 ISZERO PUSH2 0x367 JUMPI PUSH1 0x0 DUP1 REVERT JUMPDEST POP PUSH2 0x370 PUSH2 0xA14 JUMP JUMPDEST PUSH1 0x40 MLOAD PUSH2 0x302 SWAP2 SWAP1 PUSH2 0x4E5B JUMP JUMPDEST CALLVALUE DUP1 ISZERO PUSH2 0x389 JUMPI PUSH1 0x0 DUP1 REVERT JUMPDEST POP PUSH2 0x39D PUSH2 0x398 CALLDATASIZE PUSH1 0x4 PUSH2 0x4E8E JUMP JUMPDEST PUSH2 0xAA6 JUMP JUMPDEST PUSH1 0x40 MLOAD SWAP1 ISZERO ISZERO DUP2 MSTORE PUSH1 0x20 ADD PUSH2 0x302 JUMP JUMPDEST CALLVALUE DUP1 ISZERO PUSH2 0x3B9 JUMPI PUSH1 0x0 DUP1 REVERT JUMPDEST POP PUSH2 0x41A PUSH2 0x3C8 CALLDATASIZE PUSH1 0x4 PUSH2 0x4E12 JUMP JUMPDEST PUSH1 0x40 DUP1 MLOAD DUP1 DUP3 ADD SWAP1 SWAP2 MSTORE PUSH1 0x0 DUP1 DUP3 MSTORE PUSH1 0x20 DUP3 ADD MSTORE POP PUSH1 0x1 PUSH1 0x1 PUSH1 0xA0 SHL SUB AND PUSH1 0x0 SWAP1 DUP2 MSTORE PUSH1 0x5 PUSH1 0x20 SWAP1 DUP2 MSTORE PUSH1 0x40 SWAP2 DUP3 SWAP1 KECCAK256 DUP3 MLOAD DUP1 DUP5 ADD SWAP1 SWAP4 MSTORE SLOAD PUSH1 0xFF DUP1 DUP3 AND ISZERO ISZERO DUP5 MSTORE PUSH2 0x100 SWAP1 SWAP2 DIV AND ISZERO ISZERO SWAP1 DUP3 ADD MSTORE SWAP1 JUMP JUMPDEST PUSH1 0x40 DUP1 MLOAD DUP3 MLOAD ISZERO ISZERO DUP2 MSTORE PUSH1 0x20 SWAP3 DUP4 ADD MLOAD ISZERO ISZERO SWAP3 DUP2 ADD SWAP3 SWAP1 SWAP3 MSTORE ADD PUSH2 0x302 JUMP JUMPDEST CALLVALUE DUP1 ISZERO PUSH2 0x445 JUMPI PUSH1 0x0 DUP1 REVERT JUMPDEST POP PUSH1 0x2 SLOAD JUMPDEST PUSH1 0x40 MLOAD SWAP1 DUP2 MSTORE PUSH1 0x20 ADD PUSH2 0x302 JUMP JUMPDEST CALLVALUE DUP1 ISZERO PUSH2 0x464 JUMPI PUSH1 0x0 DUP1 REVERT JUMPDEST POP PUSH2 0x2CD PUSH2 0x473 CALLDATASIZE PUSH1 0x4 PUSH2 0x4EC8 JUMP JUMPDEST PUSH2 0xABD JUMP JUMPDEST CALLVALUE DUP1 ISZERO PUSH2 0x484 JUMPI PUSH1 0x0 DUP1 REVERT JUMPDEST POP PUSH2 0x39D PUSH2 0x493 CALLDATASIZE PUSH1 0x4 PUSH2 0x4F27 JUMP JUMPDEST PUSH2 0xD1E JUMP JUMPDEST CALLVALUE DUP1 ISZERO PUSH2 0x4A4 JUMPI PUSH1 0x0 DUP1 REVERT JUMPDEST POP PUSH2 0x2CD PUSH2 0x4B3 CALLDATASIZE PUSH1 0x4 PUSH2 0x4E12 JUMP JUMPDEST PUSH2 0xDCA JUMP JUMPDEST CALLVALUE DUP1 ISZERO PUSH2 0x4C4 JUMPI PUSH1 0x0 DUP1 REVERT JUMPDEST POP PUSH2 0x2CD PUSH2 0x4D3 CALLDATASIZE PUSH1 0x4 PUSH2 0x4E12 JUMP JUMPDEST PUSH2 0xEE9 JUMP JUMPDEST CALLVALUE DUP1 ISZERO PUSH2 0x4E4 JUMPI PUSH1 0x0 DUP1 REVERT JUMPDEST POP PUSH2 0x44A PUSH32 0x6E71EDAE12B1B97F4D1F60370FEF10105FA2FAAE0126114A169C64845D6126C9 DUP2 JUMP JUMPDEST CALLVALUE DUP1 ISZERO PUSH2 0x518 JUMPI PUSH1 0x0 DUP1 REVERT JUMPDEST POP PUSH1 0x12 JUMPDEST PUSH1 0x40 MLOAD PUSH1 0xFF SWAP1 SWAP2 AND DUP2 MSTORE PUSH1 0x20 ADD PUSH2 0x302 JUMP JUMPDEST CALLVALUE DUP1 ISZERO PUSH2 0x53A JUMPI PUSH1 0x0 DUP1 REVERT JUMPDEST POP PUSH1 0xA SLOAD PUSH2 0x44A JUMP JUMPDEST CALLVALUE DUP1 ISZERO PUSH2 0x54F JUMPI PUSH1 0x0 DUP1 REVERT JUMPDEST POP PUSH2 0x2CD PUSH2 0x55E CALLDATASIZE PUSH1 0x4 PUSH2 0x4F81 JUMP JUMPDEST PUSH2 0x1005 JUMP JUMPDEST CALLVALUE DUP1 ISZERO PUSH2 0x56F JUMPI PUSH1 0x0 DUP1 REVERT JUMPDEST POP PUSH2 0x44A PUSH1 0x10 SLOAD DUP2 JUMP JUMPDEST CALLVALUE DUP1 ISZERO PUSH2 0x585 JUMPI PUSH1 0x0 DUP1 REVERT JUMPDEST POP PUSH1 0xB SLOAD PUSH1 0xFF AND PUSH2 0x39D JUMP JUMPDEST CALLVALUE DUP1 ISZERO PUSH2 0x59D JUMPI PUSH1 0x0 DUP1 REVERT JUMPDEST POP PUSH2 0x39D PUSH2 0x5AC CALLDATASIZE PUSH1 0x4 PUSH2 0x4E8E JUMP JUMPDEST PUSH2 0x1083 JUMP JUMPDEST CALLVALUE DUP1 ISZERO PUSH2 0x5BD JUMPI PUSH1 0x0 DUP1 REVERT JUMPDEST POP PUSH1 0xD SLOAD PUSH1 0xE SLOAD PUSH1 0xF SLOAD PUSH1 0x40 DUP1 MLOAD PUSH1 0x1 PUSH1 0x1 PUSH1 0xA0 SHL SUB SWAP5 DUP6 AND DUP2 MSTORE SWAP4 SWAP1 SWAP3 AND PUSH1 0x20 DUP5 ADD MSTORE SWAP1 DUP3 ADD MSTORE PUSH1 0x60 ADD PUSH2 0x302 JUMP JUMPDEST CALLVALUE DUP1 ISZERO PUSH2 0x5F9 JUMPI PUSH1 0x0 DUP1 REVERT JUMPDEST POP PUSH2 0x2CD PUSH2 0x608 CALLDATASIZE PUSH1 0x4 PUSH2 0x4E8E JUMP JUMPDEST PUSH2 0x10BF JUMP JUMPDEST CALLVALUE DUP1 ISZERO PUSH2 0x619 JUMPI PUSH1 0x0 DUP1 REVERT JUMPDEST POP PUSH2 0x2CD PUSH2 0x628 CALLDATASIZE PUSH1 0x4 PUSH2 0x4FC7 JUMP JUMPDEST PUSH2 0x1190 JUMP JUMPDEST CALLVALUE DUP1 ISZERO PUSH2 0x639 JUMPI PUSH1 0x0 DUP1 REVERT JUMPDEST POP PUSH2 0x642 PUSH2 0x119A JUMP JUMPDEST PUSH1 0x40 MLOAD PUSH2 0x302 SWAP2 SWAP1 PUSH2 0x5024 JUMP JUMPDEST CALLVALUE DUP1 ISZERO PUSH2 0x65B JUMPI PUSH1 0x0 DUP1 REVERT JUMPDEST POP PUSH2 0x2CD PUSH2 0x11FB JUMP JUMPDEST CALLVALUE DUP1 ISZERO PUSH2 0x670 JUMPI PUSH1 0x0 DUP1 REVERT JUMPDEST POP PUSH2 0x2CD PUSH2 0x67F CALLDATASIZE PUSH1 0x4 PUSH2 0x4E12 JUMP JUMPDEST PUSH2 0x12D6 JUMP JUMPDEST CALLVALUE DUP1 ISZERO PUSH2 0x690 JUMPI PUSH1 0x0 DUP1 REVERT JUMPDEST POP PUSH2 0x2CD PUSH2 0x69F CALLDATASIZE PUSH1 0x4 PUSH2 0x4F27 JUMP JUMPDEST PUSH2 0x149D JUMP JUMPDEST CALLVALUE DUP1 ISZERO PUSH2 0x6B0 JUMPI PUSH1 0x0 DUP1 REVERT JUMPDEST POP PUSH2 0x2EE PUSH2 0x6BF CALLDATASIZE PUSH1 0x4 PUSH2 0x516F JUMP JUMPDEST PUSH2 0x1656 JUMP JUMPDEST CALLVALUE DUP1 ISZERO PUSH2 0x6D0 JUMPI PUSH1 0x0 DUP1 REVERT JUMPDEST POP PUSH1 0x1 PUSH2 0x51C JUMP JUMPDEST CALLVALUE DUP1 ISZERO PUSH2 0x6E4 JUMPI PUSH1 0x0 DUP1 REVERT JUMPDEST POP PUSH2 0x642 PUSH2 0x1AE1 JUMP JUMPDEST CALLVALUE DUP1 ISZERO PUSH2 0x6F9 JUMPI PUSH1 0x0 DUP1 REVERT JUMPDEST POP PUSH2 0x44A PUSH2 0x708 CALLDATASIZE PUSH1 0x4 PUSH2 0x4E12 JUMP JUMPDEST PUSH1 0x1 PUSH1 0x1 PUSH1 0xA0 SHL SUB AND PUSH1 0x0 SWAP1 DUP2 MSTORE PUSH1 0x20 DUP2 SWAP1 MSTORE PUSH1 0x40 SWAP1 KECCAK256 SLOAD SWAP1 JUMP JUMPDEST CALLVALUE DUP1 ISZERO PUSH2 0x72F JUMPI PUSH1 0x0 DUP1 REVERT JUMPDEST POP PUSH2 0x2CD PUSH2 0x73E CALLDATASIZE PUSH1 0x4 PUSH2 0x4E8E JUMP JUMPDEST PUSH2 0x1B41 JUMP JUMPDEST CALLVALUE DUP1 ISZERO PUSH2 0x74F JUMPI PUSH1 0x0 DUP1 REVERT JUMPDEST POP PUSH2 0x2CD PUSH2 0x75E CALLDATASIZE PUSH1 0x4 PUSH2 0x51F6 JUMP JUMPDEST PUSH2 0x1BC7 JUMP JUMPDEST CALLVALUE DUP1 ISZERO PUSH2 0x76F JUMPI PUSH1 0x0 DUP1 REVERT JUMPDEST POP PUSH2 0x778 PUSH2 0x1FFE JUMP JUMPDEST PUSH1 0x40 MLOAD PUSH2 0x302 SWAP2 SWAP1 PUSH2 0x5269 JUMP JUMPDEST CALLVALUE DUP1 ISZERO PUSH2 0x791 JUMPI PUSH1 0x0 DUP1 REVERT JUMPDEST POP PUSH2 0x44A PUSH2 0x7A0 CALLDATASIZE PUSH1 0x4 PUSH2 0x4E12 JUMP JUMPDEST PUSH1 0x11 PUSH1 0x20 MSTORE PUSH1 0x0 SWAP1 DUP2 MSTORE PUSH1 0x40 SWAP1 KECCAK256 SLOAD DUP2 JUMP JUMPDEST CALLVALUE DUP1 ISZERO PUSH2 0x7BE JUMPI PUSH1 0x0 DUP1 REVERT JUMPDEST POP PUSH2 0x2CD PUSH2 0x2073 JUMP JUMPDEST CALLVALUE DUP1 ISZERO PUSH2 0x7D3 JUMPI PUSH1 0x0 DUP1 REVERT JUMPDEST POP PUSH2 0x2CD PUSH2 0x7E2 CALLDATASIZE PUSH1 0x4 PUSH2 0x5309 JUMP JUMPDEST PUSH2 0x20D2 JUMP JUMPDEST CALLVALUE DUP1 ISZERO PUSH2 0x7F3 JUMPI PUSH1 0x0 DUP1 REVERT JUMPDEST POP PUSH2 0x44A PUSH2 0x802 CALLDATASIZE PUSH1 0x4 PUSH2 0x53E6 JUMP JUMPDEST PUSH2 0x23BF JUMP JUMPDEST CALLVALUE DUP1 ISZERO PUSH2 0x813 JUMPI PUSH1 0x0 DUP1 REVERT JUMPDEST POP PUSH2 0x370 PUSH2 0x26D8 JUMP JUMPDEST CALLVALUE DUP1 ISZERO PUSH2 0x828 JUMPI PUSH1 0x0 DUP1 REVERT JUMPDEST POP PUSH2 0x39D PUSH2 0x837 CALLDATASIZE PUSH1 0x4 PUSH2 0x4E12 JUMP JUMPDEST PUSH2 0x26E7 JUMP JUMPDEST CALLVALUE DUP1 ISZERO PUSH2 0x848 JUMPI PUSH1 0x0 DUP1 REVERT JUMPDEST POP PUSH2 0x2CD PUSH2 0x857 CALLDATASIZE PUSH1 0x4 PUSH2 0x4E12 JUMP JUMPDEST PUSH2 0x2765 JUMP JUMPDEST CALLVALUE DUP1 ISZERO PUSH2 0x868 JUMPI PUSH1 0x0 DUP1 REVERT JUMPDEST POP PUSH2 0x39D PUSH2 0x877 CALLDATASIZE PUSH1 0x4 PUSH2 0x4E8E JUMP JUMPDEST PUSH2 0x2881 JUMP JUMPDEST CALLVALUE DUP1 ISZERO PUSH2 0x888 JUMPI PUSH1 0x0 DUP1 REVERT JUMPDEST POP PUSH2 0x39D PUSH2 0x897 CALLDATASIZE PUSH1 0x4 PUSH2 0x4E8E JUMP JUMPDEST PUSH2 0x291A JUMP JUMPDEST CALLVALUE DUP1 ISZERO PUSH2 0x8A8 JUMPI PUSH1 0x0 DUP1 REVERT JUMPDEST POP PUSH2 0x39D PUSH2 0x8B7 CALLDATASIZE PUSH1 0x4 PUSH2 0x4E12 JUMP JUMPDEST PUSH1 0x1 PUSH1 0x1 PUSH1 0xA0 SHL SUB AND PUSH1 0x0 SWAP1 DUP2 MSTORE PUSH1 0x5 PUSH1 0x20 MSTORE PUSH1 0x40 SWAP1 KECCAK256 SLOAD PUSH1 0xFF AND SWAP1 JUMP JUMPDEST CALLVALUE DUP1 ISZERO PUSH2 0x8E1 JUMPI PUSH1 0x0 DUP1 REVERT JUMPDEST POP PUSH2 0x2CD PUSH2 0x8F0 CALLDATASIZE PUSH1 0x4 PUSH2 0x4E12 JUMP JUMPDEST PUSH2 0x2927 JUMP JUMPDEST CALLVALUE DUP1 ISZERO PUSH2 0x901 JUMPI PUSH1 0x0 DUP1 REVERT JUMPDEST POP PUSH2 0x2CD PUSH2 0x910 CALLDATASIZE PUSH1 0x4 PUSH2 0x5451 JUMP JUMPDEST PUSH2 0x2A43 JUMP JUMPDEST CALLVALUE DUP1 ISZERO PUSH2 0x921 JUMPI PUSH1 0x0 DUP1 REVERT JUMPDEST POP PUSH2 0x39D PUSH2 0x930 CALLDATASIZE PUSH1 0x4 PUSH2 0x54D6 JUMP JUMPDEST PUSH2 0x2BFE JUMP JUMPDEST CALLVALUE DUP1 ISZERO PUSH2 0x941 JUMPI PUSH1 0x0 DUP1 REVERT JUMPDEST POP PUSH2 0x2CD PUSH2 0x950 CALLDATASIZE PUSH1 0x4 PUSH2 0x55D7 JUMP JUMPDEST PUSH2 0x2D31 JUMP JUMPDEST CALLVALUE DUP1 ISZERO PUSH2 0x961 JUMPI PUSH1 0x0 DUP1 REVERT JUMPDEST POP PUSH2 0x44A PUSH2 0x970 CALLDATASIZE PUSH1 0x4 PUSH2 0x5645 JUMP JUMPDEST PUSH1 0x1 PUSH1 0x1 PUSH1 0xA0 SHL SUB SWAP2 DUP3 AND PUSH1 0x0 SWAP1 DUP2 MSTORE PUSH1 0x1 PUSH1 0x20 SWAP1 DUP2 MSTORE PUSH1 0x40 DUP1 DUP4 KECCAK256 SWAP4 SWAP1 SWAP5 AND DUP3 MSTORE SWAP2 SWAP1 SWAP2 MSTORE KECCAK256 SLOAD SWAP1 JUMP JUMPDEST PUSH2 0x2CD PUSH2 0x2F43 JUMP JUMPDEST CALLVALUE DUP1 ISZERO PUSH2 0x9AF JUMPI PUSH1 0x0 DUP1 REVERT JUMPDEST POP PUSH2 0x2EE PUSH2 0x2F83 JUMP JUMPDEST CALLVALUE DUP1 ISZERO PUSH2 0x9C4 JUMPI PUSH1 0x0 DUP1 REVERT JUMPDEST POP PUSH2 0x44A PUSH8 0xDE0B6B3A7640000 DUP2 JUMP JUMPDEST CALLVALUE DUP1 ISZERO PUSH2 0x9E0 JUMPI PUSH1 0x0 DUP1 REVERT JUMPDEST POP PUSH2 0x2EE PUSH2 0x9EF CALLDATASIZE PUSH1 0x4 PUSH2 0x4FC7 JUMP JUMPDEST PUSH2 0x301C JUMP JUMPDEST CALLVALUE DUP1 ISZERO PUSH2 0xA00 JUMPI PUSH1 0x0 DUP1 REVERT JUMPDEST POP PUSH1 0x12 SLOAD PUSH2 0x2EE SWAP1 PUSH1 0x1 PUSH1 0x1 PUSH1 0xA0 SHL SUB AND DUP2 JUMP JUMPDEST PUSH1 0x60 PUSH1 0x8 DUP1 SLOAD PUSH2 0xA23 SWAP1 PUSH2 0x567E JUMP JUMPDEST DUP1 PUSH1 0x1F ADD PUSH1 0x20 DUP1 SWAP2 DIV MUL PUSH1 0x20 ADD PUSH1 0x40 MLOAD SWAP1 DUP2 ADD PUSH1 0x40 MSTORE DUP1 SWAP3 SWAP2 SWAP1 DUP2 DUP2 MSTORE PUSH1 0x20 ADD DUP3 DUP1 SLOAD PUSH2 0xA4F SWAP1 PUSH2 0x567E JUMP JUMPDEST DUP1 ISZERO PUSH2 0xA9C JUMPI DUP1 PUSH1 0x1F LT PUSH2 0xA71 JUMPI PUSH2 0x100 DUP1 DUP4 SLOAD DIV MUL DUP4 MSTORE SWAP2 PUSH1 0x20 ADD SWAP2 PUSH2 0xA9C JUMP JUMPDEST DUP3 ADD SWAP2 SWAP1 PUSH1 0x0 MSTORE PUSH1 0x20 PUSH1 0x0 KECCAK256 SWAP1 JUMPDEST DUP2 SLOAD DUP2 MSTORE SWAP1 PUSH1 0x1 ADD SWAP1 PUSH1 0x20 ADD DUP1 DUP4 GT PUSH2 0xA7F JUMPI DUP3 SWAP1 SUB PUSH1 0x1F AND DUP3 ADD SWAP2 JUMPDEST POP POP POP POP POP SWAP1 POP SWAP1 JUMP JUMPDEST PUSH1 0x0 PUSH2 0xAB3 CALLER DUP5 DUP5 PUSH2 0x3046 JUMP JUMPDEST POP PUSH1 0x1 JUMPDEST SWAP3 SWAP2 POP POP JUMP JUMPDEST PUSH1 0xB SLOAD PUSH1 0x40 MLOAD PUSH4 0x160A7925 PUSH1 0xE0 SHL DUP2 MSTORE CALLER PUSH1 0x4 DUP3 ADD MSTORE PUSH2 0x100 SWAP1 SWAP2 DIV PUSH1 0x1 PUSH1 0x1 PUSH1 0xA0 SHL SUB AND SWAP1 PUSH4 0x160A7925 SWAP1 PUSH1 0x24 ADD PUSH1 0x80 PUSH1 0x40 MLOAD DUP1 DUP4 SUB DUP2 DUP7 GAS STATICCALL ISZERO DUP1 ISZERO PUSH2 0xB09 JUMPI RETURNDATASIZE PUSH1 0x0 DUP1 RETURNDATACOPY RETURNDATASIZE PUSH1 0x0 REVERT JUMPDEST POP POP POP POP PUSH1 0x40 MLOAD RETURNDATASIZE PUSH1 0x1F NOT PUSH1 0x1F DUP3 ADD AND DUP3 ADD DUP1 PUSH1 0x40 MSTORE POP DUP2 ADD SWAP1 PUSH2 0xB2D SWAP2 SWAP1 PUSH2 0x56B3 JUMP JUMPDEST PUSH1 0x20 ADD MLOAD DUP1 PUSH2 0xBB4 JUMPI POP PUSH1 0xB SLOAD PUSH1 0x40 MLOAD PUSH4 0x31A9108F PUSH1 0xE1 SHL DUP2 MSTORE PUSH1 0x1 PUSH1 0x4 DUP3 ADD MSTORE CALLER SWAP2 PUSH2 0x100 SWAP1 DIV PUSH1 0x1 PUSH1 0x1 PUSH1 0xA0 SHL SUB AND SWAP1 PUSH4 0x6352211E SWAP1 PUSH1 0x24 ADD PUSH1 0x20 PUSH1 0x40 MLOAD DUP1 DUP4 SUB DUP2 DUP7 GAS STATICCALL ISZERO DUP1 ISZERO PUSH2 0xB85 JUMPI RETURNDATASIZE PUSH1 0x0 DUP1 RETURNDATACOPY RETURNDATASIZE PUSH1 0x0 REVERT JUMPDEST POP POP POP POP PUSH1 0x40 MLOAD RETURNDATASIZE PUSH1 0x1F NOT PUSH1 0x1F DUP3 ADD AND DUP3 ADD DUP1 PUSH1 0x40 MSTORE POP DUP2 ADD SWAP1 PUSH2 0xBA9 SWAP2 SWAP1 PUSH2 0x5737 JUMP JUMPDEST PUSH1 0x1 PUSH1 0x1 PUSH1 0xA0 SHL SUB AND EQ JUMPDEST PUSH2 0xBD9 JUMPI PUSH1 0x40 MLOAD PUSH3 0x461BCD PUSH1 0xE5 SHL DUP2 MSTORE PUSH1 0x4 ADD PUSH2 0xBD0 SWAP1 PUSH2 0x5754 JUMP JUMPDEST PUSH1 0x40 MLOAD DUP1 SWAP2 SUB SWAP1 REVERT JUMPDEST PUSH1 0x2 PUSH1 0x7 SLOAD EQ ISZERO PUSH2 0xBFC JUMPI PUSH1 0x40 MLOAD PUSH3 0x461BCD PUSH1 0xE5 SHL DUP2 MSTORE PUSH1 0x4 ADD PUSH2 0xBD0 SWAP1 PUSH2 0x5789 JUMP JUMPDEST PUSH1 0x2 PUSH1 0x7 SSTORE DUP2 ISZERO PUSH2 0xC10 JUMPI PUSH2 0xC10 DUP6 PUSH2 0x316A JUMP JUMPDEST PUSH1 0x15 DUP1 SLOAD PUSH1 0x1 DUP2 ADD DUP3 SSTORE PUSH1 0x0 SWAP2 SWAP1 SWAP2 MSTORE PUSH32 0x55F448FDEA98C4D29EB340757EF0A66CD03DBB9538908A6A81D96026B71EC475 ADD DUP1 SLOAD PUSH1 0x1 PUSH1 0x1 PUSH1 0xA0 SHL SUB NOT AND PUSH1 0x1 PUSH1 0x1 PUSH1 0xA0 SHL SUB DUP8 AND SWAP1 DUP2 OR SWAP1 SWAP2 SSTORE PUSH1 0x40 MLOAD SWAP1 DUP2 MSTORE PUSH32 0xA31FFD41531537EB31BFD827A3F5372B5F62BF4DD8579E5354B280DC58490E70 SWAP1 PUSH1 0x20 ADD PUSH1 0x40 MLOAD DUP1 SWAP2 SUB SWAP1 LOG1 PUSH1 0x12 SLOAD PUSH1 0x40 MLOAD PUSH4 0x6B14D005 PUSH1 0xE1 SHL DUP2 MSTORE PUSH1 0x1 PUSH1 0x1 PUSH1 0xA0 SHL SUB DUP8 DUP2 AND PUSH1 0x4 DUP4 ADD MSTORE ADDRESS PUSH1 0x24 DUP4 ADD MSTORE PUSH1 0x44 DUP3 ADD DUP8 SWAP1 MSTORE PUSH1 0x64 DUP3 ADD DUP7 SWAP1 MSTORE CALLER PUSH1 0x84 DUP4 ADD MSTORE DUP4 DUP2 AND PUSH1 0xA4 DUP4 ADD MSTORE SWAP1 SWAP2 AND SWAP1 PUSH4 0xD629A00A SWAP1 PUSH1 0xC4 ADD PUSH1 0x0 PUSH1 0x40 MLOAD DUP1 DUP4 SUB DUP2 PUSH1 0x0 DUP8 DUP1 EXTCODESIZE ISZERO DUP1 ISZERO PUSH2 0xCFA JUMPI PUSH1 0x0 DUP1 REVERT JUMPDEST POP GAS CALL ISZERO DUP1 ISZERO PUSH2 0xD0E JUMPI RETURNDATASIZE PUSH1 0x0 DUP1 RETURNDATACOPY RETURNDATASIZE PUSH1 0x0 REVERT JUMPDEST POP POP PUSH1 0x1 PUSH1 0x7 SSTORE POP POP POP POP POP POP POP JUMP JUMPDEST PUSH1 0x0 PUSH2 0xD2B DUP5 DUP5 DUP5 PUSH2 0x3241 JUMP JUMPDEST PUSH1 0x1 PUSH1 0x1 PUSH1 0xA0 SHL SUB DUP5 AND PUSH1 0x0 SWAP1 DUP2 MSTORE PUSH1 0x1 PUSH1 0x20 SWAP1 DUP2 MSTORE PUSH1 0x40 DUP1 DUP4 KECCAK256 CALLER DUP5 MSTORE SWAP1 SWAP2 MSTORE SWAP1 KECCAK256 SLOAD DUP3 DUP2 LT ISZERO PUSH2 0xDB0 JUMPI PUSH1 0x40 MLOAD PUSH3 0x461BCD PUSH1 0xE5 SHL DUP2 MSTORE PUSH1 0x20 PUSH1 0x4 DUP3 ADD MSTORE PUSH1 0x28 PUSH1 0x24 DUP3 ADD MSTORE PUSH32 0x45524332303A207472616E7366657220616D6F756E7420657863656564732061 PUSH1 0x44 DUP3 ADD MSTORE PUSH8 0x6C6C6F77616E6365 PUSH1 0xC0 SHL PUSH1 0x64 DUP3 ADD MSTORE PUSH1 0x84 ADD PUSH2 0xBD0 JUMP JUMPDEST PUSH2 0xDBD DUP6 CALLER DUP6 DUP5 SUB PUSH2 0x3046 JUMP JUMPDEST PUSH1 0x1 SWAP2 POP POP JUMPDEST SWAP4 SWAP3 POP POP POP JUMP JUMPDEST PUSH1 0xB SLOAD PUSH1 0x40 MLOAD PUSH4 0x160A7925 PUSH1 0xE0 SHL DUP2 MSTORE CALLER PUSH1 0x4 DUP3 ADD MSTORE PUSH2 0x100 SWAP1 SWAP2 DIV PUSH1 0x1 PUSH1 0x1 PUSH1 0xA0 SHL SUB AND SWAP1 PUSH4 0x160A7925 SWAP1 PUSH1 0x24 ADD PUSH1 0x80 PUSH1 0x40 MLOAD DUP1 DUP4 SUB DUP2 DUP7 GAS STATICCALL ISZERO DUP1 ISZERO PUSH2 0xE16 JUMPI RETURNDATASIZE PUSH1 0x0 DUP1 RETURNDATACOPY RETURNDATASIZE PUSH1 0x0 REVERT JUMPDEST POP POP POP POP PUSH1 0x40 MLOAD RETURNDATASIZE PUSH1 0x1F NOT PUSH1 0x1F DUP3 ADD AND DUP3 ADD DUP1 PUSH1 0x40 MSTORE POP DUP2 ADD SWAP1 PUSH2 0xE3A SWAP2 SWAP1 PUSH2 0x56B3 JUMP JUMPDEST PUSH1 0x20 ADD MLOAD DUP1 PUSH2 0xEC1 JUMPI POP PUSH1 0xB SLOAD PUSH1 0x40 MLOAD PUSH4 0x31A9108F PUSH1 0xE1 SHL DUP2 MSTORE PUSH1 0x1 PUSH1 0x4 DUP3 ADD MSTORE CALLER SWAP2 PUSH2 0x100 SWAP1 DIV PUSH1 0x1 PUSH1 0x1 PUSH1 0xA0 SHL SUB AND SWAP1 PUSH4 0x6352211E SWAP1 PUSH1 0x24 ADD PUSH1 0x20 PUSH1 0x40 MLOAD DUP1 DUP4 SUB DUP2 DUP7 GAS STATICCALL ISZERO DUP1 ISZERO PUSH2 0xE92 JUMPI RETURNDATASIZE PUSH1 0x0 DUP1 RETURNDATACOPY RETURNDATASIZE PUSH1 0x0 REVERT JUMPDEST POP POP POP POP PUSH1 0x40 MLOAD RETURNDATASIZE PUSH1 0x1F NOT PUSH1 0x1F DUP3 ADD AND DUP3 ADD DUP1 PUSH1 0x40 MSTORE POP DUP2 ADD SWAP1 PUSH2 0xEB6 SWAP2 SWAP1 PUSH2 0x5737 JUMP JUMPDEST PUSH1 0x1 PUSH1 0x1 PUSH1 0xA0 SHL SUB AND EQ JUMPDEST PUSH2 0xEDD JUMPI PUSH1 0x40 MLOAD PUSH3 0x461BCD PUSH1 0xE5 SHL DUP2 MSTORE PUSH1 0x4 ADD PUSH2 0xBD0 SWAP1 PUSH2 0x5754 JUMP JUMPDEST PUSH2 0xEE6 DUP2 PUSH2 0x3411 JUMP JUMPDEST POP JUMP JUMPDEST PUSH1 0xB SLOAD PUSH1 0x40 MLOAD PUSH4 0x160A7925 PUSH1 0xE0 SHL DUP2 MSTORE CALLER PUSH1 0x4 DUP3 ADD MSTORE PUSH2 0x100 SWAP1 SWAP2 DIV PUSH1 0x1 PUSH1 0x1 PUSH1 0xA0 SHL SUB AND SWAP1 PUSH4 0x160A7925 SWAP1 PUSH1 0x24 ADD PUSH1 0x80 PUSH1 0x40 MLOAD DUP1 DUP4 SUB DUP2 DUP7 GAS STATICCALL ISZERO DUP1 ISZERO PUSH2 0xF35 JUMPI RETURNDATASIZE PUSH1 0x0 DUP1 RETURNDATACOPY RETURNDATASIZE PUSH1 0x0 REVERT JUMPDEST POP POP POP POP PUSH1 0x40 MLOAD RETURNDATASIZE PUSH1 0x1F NOT PUSH1 0x1F DUP3 ADD AND DUP3 ADD DUP1 PUSH1 0x40 MSTORE POP DUP2 ADD SWAP1 PUSH2 0xF59 SWAP2 SWAP1 PUSH2 0x56B3 JUMP JUMPDEST PUSH1 0x20 ADD MLOAD DUP1 PUSH2 0xFE0 JUMPI POP PUSH1 0xB SLOAD PUSH1 0x40 MLOAD PUSH4 0x31A9108F PUSH1 0xE1 SHL DUP2 MSTORE PUSH1 0x1 PUSH1 0x4 DUP3 ADD MSTORE CALLER SWAP2 PUSH2 0x100 SWAP1 DIV PUSH1 0x1 PUSH1 0x1 PUSH1 0xA0 SHL SUB AND SWAP1 PUSH4 0x6352211E SWAP1 PUSH1 0x24 ADD PUSH1 0x20 PUSH1 0x40 MLOAD DUP1 DUP4 SUB DUP2 DUP7 GAS STATICCALL ISZERO DUP1 ISZERO PUSH2 0xFB1 JUMPI RETURNDATASIZE PUSH1 0x0 DUP1 RETURNDATACOPY RETURNDATASIZE PUSH1 0x0 REVERT JUMPDEST POP POP POP POP PUSH1 0x40 MLOAD RETURNDATASIZE PUSH1 0x1F NOT PUSH1 0x1F DUP3 ADD AND DUP3 ADD DUP1 PUSH1 0x40 MSTORE POP DUP2 ADD SWAP1 PUSH2 0xFD5 SWAP2 SWAP1 PUSH2 0x5737 JUMP JUMPDEST PUSH1 0x1 PUSH1 0x1 PUSH1 0xA0 SHL SUB AND EQ JUMPDEST PUSH2 0xFFC JUMPI PUSH1 0x40 MLOAD PUSH3 0x461BCD PUSH1 0xE5 SHL DUP2 MSTORE PUSH1 0x4 ADD PUSH2 0xBD0 SWAP1 PUSH2 0x5754 JUMP JUMPDEST PUSH2 0xEE6 DUP2 PUSH2 0x3483 JUMP JUMPDEST PUSH1 0x2 PUSH1 0x7 SLOAD EQ ISZERO PUSH2 0x1028 JUMPI PUSH1 0x40 MLOAD PUSH3 0x461BCD PUSH1 0xE5 SHL DUP2 MSTORE PUSH1 0x4 ADD PUSH2 0xBD0 SWAP1 PUSH2 0x5789 JUMP JUMPDEST PUSH1 0x2 PUSH1 0x7 SSTORE PUSH1 0x40 DUP1 MLOAD DUP4 DUP2 MSTORE CALLER PUSH1 0x20 DUP3 ADD MSTORE TIMESTAMP DUP2 DUP4 ADD MSTORE NUMBER PUSH1 0x60 DUP3 ADD MSTORE SWAP1 MLOAD PUSH32 0x526E31449EA46E2AECF9B480C8D7DFA191348EF74FFDF75B445A6AB726DAA6FF SWAP2 DUP2 SWAP1 SUB PUSH1 0x80 ADD SWAP1 LOG1 PUSH2 0x107A DUP2 PUSH2 0x34E3 JUMP JUMPDEST POP POP PUSH1 0x1 PUSH1 0x7 SSTORE JUMP JUMPDEST CALLER PUSH1 0x0 DUP2 DUP2 MSTORE PUSH1 0x1 PUSH1 0x20 SWAP1 DUP2 MSTORE PUSH1 0x40 DUP1 DUP4 KECCAK256 PUSH1 0x1 PUSH1 0x1 PUSH1 0xA0 SHL SUB DUP8 AND DUP5 MSTORE SWAP1 SWAP2 MSTORE DUP2 KECCAK256 SLOAD SWAP1 SWAP2 PUSH2 0xAB3 SWAP2 DUP6 SWAP1 PUSH2 0x10BA SWAP1 DUP7 SWAP1 PUSH2 0x57D6 JUMP JUMPDEST PUSH2 0x3046 JUMP JUMPDEST CALLER PUSH1 0x0 SWAP1 DUP2 MSTORE PUSH1 0x5 PUSH1 0x20 MSTORE PUSH1 0x40 SWAP1 KECCAK256 SLOAD PUSH1 0xFF AND PUSH2 0x111E JUMPI PUSH1 0x40 MLOAD PUSH3 0x461BCD PUSH1 0xE5 SHL DUP2 MSTORE PUSH1 0x20 PUSH1 0x4 DUP3 ADD MSTORE PUSH1 0x19 PUSH1 0x24 DUP3 ADD MSTORE PUSH32 0x455243323054656D706C6174653A204E4F54204D494E54455200000000000000 PUSH1 0x44 DUP3 ADD MSTORE PUSH1 0x64 ADD PUSH2 0xBD0 JUMP JUMPDEST PUSH1 0xA SLOAD PUSH2 0x1134 DUP3 PUSH2 0x112E PUSH1 0x2 SLOAD SWAP1 JUMP JUMPDEST SWAP1 PUSH2 0x38F5 JUMP JUMPDEST GT ISZERO PUSH2 0x1182 JUMPI PUSH1 0x40 MLOAD PUSH3 0x461BCD PUSH1 0xE5 SHL DUP2 MSTORE PUSH1 0x20 PUSH1 0x4 DUP3 ADD MSTORE PUSH1 0x1F PUSH1 0x24 DUP3 ADD MSTORE PUSH32 0x44617461746F6B656E54656D706C6174653A2063617020657863656564656400 PUSH1 0x44 DUP3 ADD MSTORE PUSH1 0x64 ADD PUSH2 0xBD0 JUMP JUMPDEST PUSH2 0x118C DUP3 DUP3 PUSH2 0x3901 JUMP JUMPDEST POP POP JUMP JUMPDEST PUSH2 0xEE6 CALLER DUP3 PUSH2 0x39E0 JUMP JUMPDEST PUSH1 0x60 PUSH1 0x15 DUP1 SLOAD DUP1 PUSH1 0x20 MUL PUSH1 0x20 ADD PUSH1 0x40 MLOAD SWAP1 DUP2 ADD PUSH1 0x40 MSTORE DUP1 SWAP3 SWAP2 SWAP1 DUP2 DUP2 MSTORE PUSH1 0x20 ADD DUP3 DUP1 SLOAD DUP1 ISZERO PUSH2 0xA9C JUMPI PUSH1 0x20 MUL DUP3 ADD SWAP2 SWAP1 PUSH1 0x0 MSTORE PUSH1 0x20 PUSH1 0x0 KECCAK256 SWAP1 JUMPDEST DUP2 SLOAD PUSH1 0x1 PUSH1 0x1 PUSH1 0xA0 SHL SUB AND DUP2 MSTORE PUSH1 0x1 SWAP1 SWAP2 ADD SWAP1 PUSH1 0x20 ADD DUP1 DUP4 GT PUSH2 0x11D4 JUMPI POP POP POP POP POP SWAP1 POP SWAP1 JUMP JUMPDEST PUSH1 0xB SLOAD PUSH1 0x40 MLOAD PUSH4 0x31A9108F PUSH1 0xE1 SHL DUP2 MSTORE PUSH1 0x1 PUSH1 0x4 DUP3 ADD MSTORE PUSH2 0x100 SWAP1 SWAP2 DIV PUSH1 0x1 PUSH1 0x1 PUSH1 0xA0 SHL SUB AND SWAP1 PUSH4 0x6352211E SWAP1 PUSH1 0x24 ADD PUSH1 0x20 PUSH1 0x40 MLOAD DUP1 DUP4 SUB DUP2 DUP7 GAS STATICCALL ISZERO DUP1 ISZERO PUSH2 0x1248 JUMPI RETURNDATASIZE PUSH1 0x0 DUP1 RETURNDATACOPY RETURNDATASIZE PUSH1 0x0 REVERT JUMPDEST POP POP POP POP PUSH1 0x40 MLOAD RETURNDATASIZE PUSH1 0x1F NOT PUSH1 0x1F DUP3 ADD AND DUP3 ADD DUP1 PUSH1 0x40 MSTORE POP DUP2 ADD SWAP1 PUSH2 0x126C SWAP2 SWAP1 PUSH2 0x5737 JUMP JUMPDEST PUSH1 0x1 PUSH1 0x1 PUSH1 0xA0 SHL SUB AND CALLER PUSH1 0x1 PUSH1 0x1 PUSH1 0xA0 SHL SUB AND EQ PUSH2 0x12CC JUMPI PUSH1 0x40 MLOAD PUSH3 0x461BCD PUSH1 0xE5 SHL DUP2 MSTORE PUSH1 0x20 PUSH1 0x4 DUP3 ADD MSTORE PUSH1 0x1B PUSH1 0x24 DUP3 ADD MSTORE PUSH32 0x455243323054656D706C6174653A206E6F74204E46544F776E65720000000000 PUSH1 0x44 DUP3 ADD MSTORE PUSH1 0x64 ADD PUSH2 0xBD0 JUMP JUMPDEST PUSH2 0x12D4 PUSH2 0x3B2E JUMP JUMPDEST JUMP JUMPDEST CALLER PUSH1 0x0 SWAP1 DUP2 MSTORE PUSH1 0x5 PUSH1 0x20 MSTORE PUSH1 0x40 SWAP1 KECCAK256 SLOAD PUSH2 0x100 SWAP1 DIV PUSH1 0xFF AND DUP1 PUSH2 0x1369 JUMPI POP PUSH1 0xB SLOAD PUSH1 0x40 MLOAD PUSH4 0x160A7925 PUSH1 0xE0 SHL DUP2 MSTORE CALLER PUSH1 0x4 DUP3 ADD MSTORE PUSH2 0x100 SWAP1 SWAP2 DIV PUSH1 0x1 PUSH1 0x1 PUSH1 0xA0 SHL SUB AND SWAP1 PUSH4 0x160A7925 SWAP1 PUSH1 0x24 ADD PUSH1 0x80 PUSH1 0x40 MLOAD DUP1 DUP4 SUB DUP2 DUP7 GAS STATICCALL ISZERO DUP1 ISZERO PUSH2 0x1340 JUMPI RETURNDATASIZE PUSH1 0x0 DUP1 RETURNDATACOPY RETURNDATASIZE PUSH1 0x0 REVERT JUMPDEST POP POP POP POP PUSH1 0x40 MLOAD RETURNDATASIZE PUSH1 0x1F NOT PUSH1 0x1F DUP3 ADD AND DUP3 ADD DUP1 PUSH1 0x40 MSTORE POP DUP2 ADD SWAP1 PUSH2 0x1364 SWAP2 SWAP1 PUSH2 0x56B3 JUMP JUMPDEST PUSH1 0x20 ADD MLOAD JUMPDEST DUP1 PUSH2 0x13EC JUMPI POP PUSH1 0xB SLOAD PUSH1 0x40 MLOAD PUSH4 0x31A9108F PUSH1 0xE1 SHL DUP2 MSTORE PUSH1 0x1 PUSH1 0x4 DUP3 ADD MSTORE CALLER SWAP2 PUSH2 0x100 SWAP1 DIV PUSH1 0x1 PUSH1 0x1 PUSH1 0xA0 SHL SUB AND SWAP1 PUSH4 0x6352211E SWAP1 PUSH1 0x24 ADD PUSH1 0x20 PUSH1 0x40 MLOAD DUP1 DUP4 SUB DUP2 DUP7 GAS STATICCALL ISZERO DUP1 ISZERO PUSH2 0x13BD JUMPI RETURNDATASIZE PUSH1 0x0 DUP1 RETURNDATACOPY RETURNDATASIZE PUSH1 0x0 REVERT JUMPDEST POP POP POP POP PUSH1 0x40 MLOAD RETURNDATASIZE PUSH1 0x1F NOT PUSH1 0x1F DUP3 ADD AND DUP3 ADD DUP1 PUSH1 0x40 MSTORE POP DUP2 ADD SWAP1 PUSH2 0x13E1 SWAP2 SWAP1 PUSH2 0x5737 JUMP JUMPDEST PUSH1 0x1 PUSH1 0x1 PUSH1 0xA0 SHL SUB AND EQ JUMPDEST PUSH2 0x144C JUMPI PUSH1 0x40 MLOAD PUSH3 0x461BCD PUSH1 0xE5 SHL DUP2 MSTORE PUSH1 0x20 PUSH1 0x4 DUP3 ADD MSTORE PUSH1 0x2B PUSH1 0x24 DUP3 ADD MSTORE PUSH32 0x455243323054656D706C6174653A204E4F54205041594D454E54204D414E4147 PUSH1 0x44 DUP3 ADD MSTORE PUSH11 0x22A91037B91027ABA722A9 PUSH1 0xA9 SHL PUSH1 0x64 DUP3 ADD MSTORE PUSH1 0x84 ADD PUSH2 0xBD0 JUMP JUMPDEST PUSH2 0x1455 DUP2 PUSH2 0x3FFC JUMP JUMPDEST PUSH1 0x40 DUP1 MLOAD TIMESTAMP DUP2 MSTORE NUMBER PUSH1 0x20 DUP3 ADD MSTORE PUSH1 0x1 PUSH1 0x1 PUSH1 0xA0 SHL SUB DUP4 AND SWAP2 CALLER SWAP2 PUSH32 0x4D7694D695C57CC54947177C8E8A0E61AAE664E9223492A798C32FADFC6419CC SWAP2 ADD PUSH1 0x40 MLOAD DUP1 SWAP2 SUB SWAP1 LOG3 POP JUMP JUMPDEST PUSH1 0xD SLOAD PUSH1 0x1 PUSH1 0x1 PUSH1 0xA0 SHL SUB AND CALLER EQ PUSH2 0x150A JUMPI PUSH1 0x40 MLOAD PUSH3 0x461BCD PUSH1 0xE5 SHL DUP2 MSTORE PUSH1 0x20 PUSH1 0x4 DUP3 ADD MSTORE PUSH1 0x2A PUSH1 0x24 DUP3 ADD MSTORE PUSH32 0x455243323054656D706C6174653A206E6F74207075626C6973684D61726B6574 PUSH1 0x44 DUP3 ADD MSTORE PUSH10 0x46656541646472657373 PUSH1 0xB0 SHL PUSH1 0x64 DUP3 ADD MSTORE PUSH1 0x84 ADD PUSH2 0xBD0 JUMP JUMPDEST PUSH1 0x1 PUSH1 0x1 PUSH1 0xA0 SHL SUB DUP4 AND PUSH2 0x1571 JUMPI PUSH1 0x40 MLOAD PUSH3 0x461BCD PUSH1 0xE5 SHL DUP2 MSTORE PUSH1 0x20 PUSH1 0x4 DUP3 ADD MSTORE PUSH1 0x28 PUSH1 0x24 DUP3 ADD MSTORE PUSH32 0x496E76616C6964205F7075626C6973684D61726B657446656541646472657373 PUSH1 0x44 DUP3 ADD MSTORE PUSH8 0x2061646472657373 PUSH1 0xC0 SHL PUSH1 0x64 DUP3 ADD MSTORE PUSH1 0x84 ADD PUSH2 0xBD0 JUMP JUMPDEST PUSH1 0x1 PUSH1 0x1 PUSH1 0xA0 SHL SUB DUP3 AND PUSH2 0x15D6 JUMPI PUSH1 0x40 MLOAD PUSH3 0x461BCD PUSH1 0xE5 SHL DUP2 MSTORE PUSH1 0x20 PUSH1 0x4 DUP3 ADD MSTORE PUSH1 0x26 PUSH1 0x24 DUP3 ADD MSTORE PUSH32 0x496E76616C6964205F7075626C6973684D61726B6574466565546F6B656E2061 PUSH1 0x44 DUP3 ADD MSTORE PUSH6 0x646472657373 PUSH1 0xD0 SHL PUSH1 0x64 DUP3 ADD MSTORE PUSH1 0x84 ADD PUSH2 0xBD0 JUMP JUMPDEST PUSH1 0xD DUP1 SLOAD PUSH1 0x1 PUSH1 0x1 PUSH1 0xA0 SHL SUB DUP6 DUP2 AND PUSH1 0x1 PUSH1 0x1 PUSH1 0xA0 SHL SUB NOT SWAP3 DUP4 AND DUP2 OR SWAP1 SWAP4 SSTORE PUSH1 0xE DUP1 SLOAD SWAP2 DUP7 AND SWAP2 SWAP1 SWAP3 AND DUP2 OR SWAP1 SWAP2 SSTORE PUSH1 0xF DUP4 SWAP1 SSTORE PUSH1 0x40 DUP1 MLOAD CALLER DUP2 MSTORE PUSH1 0x20 DUP2 ADD SWAP4 SWAP1 SWAP4 MSTORE DUP3 ADD MSTORE PUSH1 0x60 DUP2 ADD DUP3 SWAP1 MSTORE PUSH32 0x2AB4B3FC023109C2D0DA394BDA239166C833F63C42B71B67ED4B836DCA0DDFE SWAP1 PUSH1 0x80 ADD PUSH1 0x40 MLOAD DUP1 SWAP2 SUB SWAP1 LOG1 POP POP POP JUMP JUMPDEST PUSH1 0xB SLOAD PUSH1 0x40 MLOAD PUSH4 0x160A7925 PUSH1 0xE0 SHL DUP2 MSTORE CALLER PUSH1 0x4 DUP3 ADD MSTORE PUSH1 0x0 SWAP2 PUSH2 0x100 SWAP1 DIV PUSH1 0x1 PUSH1 0x1 PUSH1 0xA0 SHL SUB AND SWAP1 PUSH4 0x160A7925 SWAP1 PUSH1 0x24 ADD PUSH1 0x80 PUSH1 0x40 MLOAD DUP1 DUP4 SUB DUP2 DUP7 GAS STATICCALL ISZERO DUP1 ISZERO PUSH2 0x16A4 JUMPI RETURNDATASIZE PUSH1 0x0 DUP1 RETURNDATACOPY RETURNDATASIZE PUSH1 0x0 REVERT JUMPDEST POP POP POP POP PUSH1 0x40 MLOAD RETURNDATASIZE PUSH1 0x1F NOT PUSH1 0x1F DUP3 ADD AND DUP3 ADD DUP1 PUSH1 0x40 MSTORE POP DUP2 ADD SWAP1 PUSH2 0x16C8 SWAP2 SWAP1 PUSH2 0x56B3 JUMP JUMPDEST PUSH1 0x20 ADD MLOAD DUP1 PUSH2 0x174F JUMPI POP PUSH1 0xB SLOAD PUSH1 0x40 MLOAD PUSH4 0x31A9108F PUSH1 0xE1 SHL DUP2 MSTORE PUSH1 0x1 PUSH1 0x4 DUP3 ADD MSTORE CALLER SWAP2 PUSH2 0x100 SWAP1 DIV PUSH1 0x1 PUSH1 0x1 PUSH1 0xA0 SHL SUB AND SWAP1 PUSH4 0x6352211E SWAP1 PUSH1 0x24 ADD PUSH1 0x20 PUSH1 0x40 MLOAD DUP1 DUP4 SUB DUP2 DUP7 GAS STATICCALL ISZERO DUP1 ISZERO PUSH2 0x1720 JUMPI RETURNDATASIZE PUSH1 0x0 DUP1 RETURNDATACOPY RETURNDATASIZE PUSH1 0x0 REVERT JUMPDEST POP POP POP POP PUSH1 0x40 MLOAD RETURNDATASIZE PUSH1 0x1F NOT PUSH1 0x1F DUP3 ADD AND DUP3 ADD DUP1 PUSH1 0x40 MSTORE POP DUP2 ADD SWAP1 PUSH2 0x1744 SWAP2 SWAP1 PUSH2 0x5737 JUMP JUMPDEST PUSH1 0x1 PUSH1 0x1 PUSH1 0xA0 SHL SUB AND EQ JUMPDEST PUSH2 0x176B JUMPI PUSH1 0x40 MLOAD PUSH3 0x461BCD PUSH1 0xE5 SHL DUP2 MSTORE PUSH1 0x4 ADD PUSH2 0xBD0 SWAP1 PUSH2 0x5754 JUMP JUMPDEST PUSH1 0x2 PUSH1 0x7 SLOAD EQ ISZERO PUSH2 0x178E JUMPI PUSH1 0x40 MLOAD PUSH3 0x461BCD PUSH1 0xE5 SHL DUP2 MSTORE PUSH1 0x4 ADD PUSH2 0xBD0 SWAP1 PUSH2 0x5789 JUMP JUMPDEST PUSH1 0x2 PUSH1 0x7 SSTORE PUSH2 0x179C PUSH1 0x2 SLOAD SWAP1 JUMP JUMPDEST ISZERO PUSH2 0x17F5 JUMPI PUSH1 0x40 MLOAD PUSH3 0x461BCD PUSH1 0xE5 SHL DUP2 MSTORE PUSH1 0x20 PUSH1 0x4 DUP3 ADD MSTORE PUSH1 0x24 DUP1 DUP3 ADD MSTORE PUSH32 0x455243323054656D706C6174653A20746F6B656E7320616C7265616479206D69 PUSH1 0x44 DUP3 ADD MSTORE PUSH4 0x1B9D1959 PUSH1 0xE2 SHL PUSH1 0x64 DUP3 ADD MSTORE PUSH1 0x84 ADD PUSH2 0xBD0 JUMP JUMPDEST PUSH2 0x1818 DUP3 PUSH1 0x0 DUP2 MLOAD DUP2 LT PUSH2 0x180B JUMPI PUSH2 0x180B PUSH2 0x57EE JUMP JUMPDEST PUSH1 0x20 MUL PUSH1 0x20 ADD ADD MLOAD PUSH2 0x316A JUMP JUMPDEST PUSH1 0x12 PUSH1 0x0 SWAP1 SLOAD SWAP1 PUSH2 0x100 EXP SWAP1 DIV PUSH1 0x1 PUSH1 0x1 PUSH1 0xA0 SHL SUB AND PUSH1 0x1 PUSH1 0x1 PUSH1 0xA0 SHL SUB AND PUSH4 0x510F3465 PUSH1 0x40 MLOAD DUP2 PUSH4 0xFFFFFFFF AND PUSH1 0xE0 SHL DUP2 MSTORE PUSH1 0x4 ADD PUSH1 0x20 PUSH1 0x40 MLOAD DUP1 DUP4 SUB DUP2 DUP7 GAS STATICCALL ISZERO DUP1 ISZERO PUSH2 0x186B JUMPI RETURNDATASIZE PUSH1 0x0 DUP1 RETURNDATACOPY RETURNDATASIZE PUSH1 0x0 REVERT JUMPDEST POP POP POP POP PUSH1 0x40 MLOAD RETURNDATASIZE PUSH1 0x1F NOT PUSH1 0x1F DUP3 ADD AND DUP3 ADD DUP1 PUSH1 0x40 MSTORE POP DUP2 ADD SWAP1 PUSH2 0x188F SWAP2 SWAP1 PUSH2 0x5804 JUMP JUMPDEST DUP5 PUSH1 0x3 DUP2 MLOAD DUP2 LT PUSH2 0x18A2 JUMPI PUSH2 0x18A2 PUSH2 0x57EE JUMP JUMPDEST PUSH1 0x20 MUL PUSH1 0x20 ADD ADD MLOAD LT ISZERO PUSH2 0x1938 JUMPI PUSH1 0x40 MLOAD PUSH3 0x461BCD PUSH1 0xE5 SHL DUP2 MSTORE PUSH1 0x20 PUSH1 0x4 DUP3 ADD MSTORE PUSH1 0x51 PUSH1 0x24 DUP3 ADD MSTORE PUSH32 0x455243323054656D706C6174653A2056657374696E6720706572696F6420746F PUSH1 0x44 DUP3 ADD MSTORE PUSH32 0x6F206C6F772E2053656520466163746F7279526F757465722E6D696E56657374 PUSH1 0x64 DUP3 ADD MSTORE PUSH17 0x696E67506572696F64496E426C6F636B73 PUSH1 0x78 SHL PUSH1 0x84 DUP3 ADD MSTORE PUSH1 0xA4 ADD PUSH2 0xBD0 JUMP JUMPDEST PUSH1 0x0 PUSH1 0x40 MLOAD DUP1 PUSH1 0x40 ADD PUSH1 0x40 MSTORE DUP1 ADDRESS PUSH1 0x1 PUSH1 0x1 PUSH1 0xA0 SHL SUB AND PUSH1 0x1 PUSH1 0x1 PUSH1 0xA0 SHL SUB AND DUP2 MSTORE PUSH1 0x20 ADD DUP5 PUSH1 0x1 DUP2 MLOAD DUP2 LT PUSH2 0x1970 JUMPI PUSH2 0x1970 PUSH2 0x57EE JUMP JUMPDEST PUSH1 0x20 SWAP1 DUP2 MUL SWAP2 SWAP1 SWAP2 ADD ADD MLOAD PUSH1 0x1 PUSH1 0x1 PUSH1 0xA0 SHL SUB SWAP1 DUP2 AND SWAP1 SWAP2 MSTORE PUSH1 0x12 SLOAD PUSH1 0x40 MLOAD PUSH4 0xEE3BC635 PUSH1 0xE0 SHL DUP2 MSTORE SWAP3 SWAP4 POP AND SWAP1 PUSH4 0xEE3BC635 SWAP1 PUSH2 0x19B8 SWAP1 DUP5 SWAP1 DUP10 SWAP1 DUP10 SWAP1 DUP10 SWAP1 PUSH1 0x4 ADD PUSH2 0x584D JUMP JUMPDEST PUSH1 0x20 PUSH1 0x40 MLOAD DUP1 DUP4 SUB DUP2 PUSH1 0x0 DUP8 GAS CALL ISZERO DUP1 ISZERO PUSH2 0x19D7 JUMPI RETURNDATASIZE PUSH1 0x0 DUP1 RETURNDATACOPY RETURNDATASIZE PUSH1 0x0 REVERT JUMPDEST POP POP POP POP PUSH1 0x40 MLOAD RETURNDATASIZE PUSH1 0x1F NOT PUSH1 0x1F DUP3 ADD AND DUP3 ADD DUP1 PUSH1 0x40 MSTORE POP DUP2 ADD SWAP1 PUSH2 0x19FB SWAP2 SWAP1 PUSH2 0x5737 JUMP JUMPDEST PUSH1 0x13 DUP1 SLOAD PUSH1 0x1 DUP2 ADD DUP3 SSTORE PUSH1 0x0 SWAP2 DUP3 MSTORE PUSH32 0x66DE8FFDA797E3DE9C05E8FC57B3BF0EC28A930D40B0D285D93C06501CF6A090 ADD DUP1 SLOAD PUSH1 0x1 PUSH1 0x1 PUSH1 0xA0 SHL SUB NOT AND PUSH1 0x1 PUSH1 0x1 PUSH1 0xA0 SHL SUB DUP5 AND OR SWAP1 SSTORE DUP5 MLOAD SWAP2 SWAP4 POP PUSH32 0xD02DA1BEC30F7F750AA0A131745DFB9CE96767C45A192DC26409F5D690E0B967 SWAP2 DUP5 SWAP2 DUP7 SWAP2 PUSH2 0x1A7C JUMPI PUSH2 0x1A7C PUSH2 0x57EE JUMP JUMPDEST PUSH1 0x20 MUL PUSH1 0x20 ADD ADD MLOAD DUP6 PUSH1 0x1 DUP2 MLOAD DUP2 LT PUSH2 0x1A97 JUMPI PUSH2 0x1A97 PUSH2 0x57EE JUMP JUMPDEST PUSH1 0x20 MUL PUSH1 0x20 ADD ADD MLOAD PUSH1 0x40 MLOAD PUSH2 0x1ACC SWAP4 SWAP3 SWAP2 SWAP1 PUSH1 0x1 PUSH1 0x1 PUSH1 0xA0 SHL SUB SWAP4 DUP5 AND DUP2 MSTORE SWAP2 DUP4 AND PUSH1 0x20 DUP4 ADD MSTORE SWAP1 SWAP2 AND PUSH1 0x40 DUP3 ADD MSTORE PUSH1 0x60 ADD SWAP1 JUMP JUMPDEST PUSH1 0x40 MLOAD DUP1 SWAP2 SUB SWAP1 LOG1 POP PUSH1 0x1 PUSH1 0x7 SSTORE SWAP4 SWAP3 POP POP POP JUMP JUMPDEST PUSH1 0x60 PUSH1 0x13 DUP1 SLOAD DUP1 PUSH1 0x20 MUL PUSH1 0x20 ADD PUSH1 0x40 MLOAD SWAP1 DUP2 ADD PUSH1 0x40 MSTORE DUP1 SWAP3 SWAP2 SWAP1 DUP2 DUP2 MSTORE PUSH1 0x20 ADD DUP3 DUP1 SLOAD DUP1 ISZERO PUSH2 0xA9C JUMPI PUSH1 0x20 MUL DUP3 ADD SWAP2 SWAP1 PUSH1 0x0 MSTORE PUSH1 0x20 PUSH1 0x0 KECCAK256 SWAP1 DUP2 SLOAD PUSH1 0x1 PUSH1 0x1 PUSH1 0xA0 SHL SUB AND DUP2 MSTORE PUSH1 0x1 SWAP1 SWAP2 ADD SWAP1 PUSH1 0x20 ADD DUP1 DUP4 GT PUSH2 0x11D4 JUMPI POP POP POP POP POP SWAP1 POP SWAP1 JUMP JUMPDEST PUSH1 0x0 PUSH2 0x1B4D DUP4 CALLER PUSH2 0x970 JUMP JUMPDEST SWAP1 POP DUP2 DUP2 LT ISZERO PUSH2 0x1BAB JUMPI PUSH1 0x40 MLOAD PUSH3 0x461BCD PUSH1 0xE5 SHL DUP2 MSTORE PUSH1 0x20 PUSH1 0x4 DUP3 ADD MSTORE PUSH1 0x24 DUP1 DUP3 ADD MSTORE PUSH32 0x45524332303A206275726E20616D6F756E74206578636565647320616C6C6F77 PUSH1 0x44 DUP3 ADD MSTORE PUSH4 0x616E6365 PUSH1 0xE0 SHL PUSH1 0x64 DUP3 ADD MSTORE PUSH1 0x84 ADD PUSH2 0xBD0 JUMP JUMPDEST PUSH2 0x1BB8 DUP4 CALLER DUP5 DUP5 SUB PUSH2 0x3046 JUMP JUMPDEST PUSH2 0x1BC2 DUP4 DUP4 PUSH2 0x39E0 JUMP JUMPDEST POP POP POP JUMP JUMPDEST PUSH1 0x2 PUSH1 0x7 SLOAD EQ ISZERO PUSH2 0x1BEA JUMPI PUSH1 0x40 MLOAD PUSH3 0x461BCD PUSH1 0xE5 SHL DUP2 MSTORE PUSH1 0x4 ADD PUSH2 0xBD0 SWAP1 PUSH2 0x5789 JUMP JUMPDEST PUSH1 0x2 PUSH1 0x7 SSTORE CALLER PUSH1 0x0 SWAP1 DUP2 MSTORE PUSH1 0x20 DUP2 SWAP1 MSTORE PUSH1 0x40 SWAP1 KECCAK256 SLOAD PUSH8 0xDE0B6B3A7640000 SWAP1 DUP2 GT ISZERO PUSH2 0x1C64 JUMPI PUSH1 0x40 MLOAD PUSH3 0x461BCD PUSH1 0xE5 SHL DUP2 MSTORE PUSH1 0x20 PUSH1 0x4 DUP3 ADD MSTORE PUSH1 0x24 DUP1 DUP3 ADD MSTORE PUSH32 0x4E6F7420656E6F7567682064617461746F6B656E7320746F207374617274204F PUSH1 0x44 DUP3 ADD MSTORE PUSH4 0x393232B9 PUSH1 0xE1 SHL PUSH1 0x64 DUP3 ADD MSTORE PUSH1 0x84 ADD PUSH2 0xBD0 JUMP JUMPDEST PUSH1 0xD SLOAD PUSH1 0x40 DUP1 MLOAD CALLER DUP2 MSTORE PUSH1 0x20 DUP2 ADD DUP5 SWAP1 MSTORE SWAP1 DUP2 ADD DUP7 SWAP1 MSTORE TIMESTAMP PUSH1 0x60 DUP3 ADD MSTORE NUMBER PUSH1 0x80 DUP3 ADD MSTORE PUSH1 0x1 PUSH1 0x1 PUSH1 0xA0 SHL SUB SWAP2 DUP3 AND SWAP2 DUP8 AND SWAP1 PUSH32 0xE1C4FA794EDFA8F619B8257A077398950357B9C6398528F94480307352F9AFCC SWAP1 PUSH1 0xA0 ADD PUSH1 0x40 MLOAD DUP1 SWAP2 SUB SWAP1 LOG3 PUSH1 0x0 PUSH1 0xF SLOAD GT DUP1 ISZERO PUSH2 0x1CDF JUMPI POP PUSH1 0xE SLOAD PUSH1 0x1 PUSH1 0x1 PUSH1 0xA0 SHL SUB AND ISZERO ISZERO JUMPDEST DUP1 ISZERO PUSH2 0x1CF5 JUMPI POP PUSH1 0xD SLOAD PUSH1 0x1 PUSH1 0x1 PUSH1 0xA0 SHL SUB AND ISZERO ISZERO JUMPDEST ISZERO PUSH2 0x1D6A JUMPI PUSH1 0xE SLOAD PUSH1 0xD SLOAD PUSH1 0xF SLOAD PUSH2 0x1D1D SWAP3 PUSH1 0x1 PUSH1 0x1 PUSH1 0xA0 SHL SUB SWAP1 DUP2 AND SWAP3 CALLER SWAP3 SWAP2 AND SWAP1 PUSH2 0x401E JUMP JUMPDEST PUSH1 0xE SLOAD PUSH1 0xD SLOAD PUSH1 0xF SLOAD PUSH1 0x40 MLOAD SWAP1 DUP2 MSTORE PUSH1 0x1 PUSH1 0x1 PUSH1 0xA0 SHL SUB SWAP3 DUP4 AND SWAP3 SWAP1 SWAP2 AND SWAP1 PUSH32 0x4049A448AC6F0284A98D2CB9199E73605944EA5BEC901A037F88C84703DE82B2 SWAP1 PUSH1 0x20 ADD PUSH1 0x40 MLOAD DUP1 SWAP2 SUB SWAP1 LOG3 JUMPDEST PUSH1 0x0 DUP3 PUSH1 0x40 ADD CALLDATALOAD GT DUP1 ISZERO PUSH2 0x1D97 JUMPI POP PUSH1 0x0 PUSH2 0x1D8B PUSH1 0x40 DUP5 ADD PUSH1 0x20 DUP6 ADD PUSH2 0x4E12 JUMP JUMPDEST PUSH1 0x1 PUSH1 0x1 PUSH1 0xA0 SHL SUB AND EQ ISZERO JUMPDEST DUP1 ISZERO PUSH2 0x1DB9 JUMPI POP PUSH1 0x0 PUSH2 0x1DAD PUSH1 0x20 DUP5 ADD DUP5 PUSH2 0x4E12 JUMP JUMPDEST PUSH1 0x1 PUSH1 0x1 PUSH1 0xA0 SHL SUB AND EQ ISZERO JUMPDEST ISZERO PUSH2 0x1E56 JUMPI PUSH2 0x1DE9 PUSH2 0x1DD1 PUSH1 0x40 DUP5 ADD PUSH1 0x20 DUP6 ADD PUSH2 0x4E12 JUMP JUMPDEST CALLER PUSH2 0x1DDF PUSH1 0x20 DUP7 ADD DUP7 PUSH2 0x4E12 JUMP JUMPDEST DUP6 PUSH1 0x40 ADD CALLDATALOAD PUSH2 0x401E JUMP JUMPDEST PUSH2 0x1DF9 PUSH1 0x40 DUP4 ADD PUSH1 0x20 DUP5 ADD PUSH2 0x4E12 JUMP JUMPDEST PUSH1 0x1 PUSH1 0x1 PUSH1 0xA0 SHL SUB AND PUSH2 0x1E0F PUSH1 0x20 DUP5 ADD DUP5 PUSH2 0x4E12 JUMP JUMPDEST PUSH1 0x1 PUSH1 0x1 PUSH1 0xA0 SHL SUB AND PUSH32 0x6D11837F46CC09B011CF4AAE09FCADE046C020AAC088090AE4F77FF67B707972 DUP5 PUSH1 0x40 ADD CALLDATALOAD PUSH1 0x40 MLOAD PUSH2 0x1E4D SWAP2 DUP2 MSTORE PUSH1 0x20 ADD SWAP1 JUMP JUMPDEST PUSH1 0x40 MLOAD DUP1 SWAP2 SUB SWAP1 LOG3 JUMPDEST PUSH2 0x1E5F DUP4 PUSH2 0x34E3 JUMP JUMPDEST PUSH1 0x12 SLOAD PUSH1 0x40 DUP1 MLOAD PUSH4 0x7D28354D PUSH1 0xE0 SHL DUP2 MSTORE SWAP1 MLOAD PUSH1 0x0 SWAP3 PUSH1 0x1 PUSH1 0x1 PUSH1 0xA0 SHL SUB AND SWAP2 PUSH4 0x7D28354D SWAP2 PUSH1 0x4 DUP1 DUP4 ADD SWAP3 PUSH1 0x20 SWAP3 SWAP2 SWAP1 DUP3 SWAP1 SUB ADD DUP2 DUP7 GAS STATICCALL ISZERO DUP1 ISZERO PUSH2 0x1EA9 JUMPI RETURNDATASIZE PUSH1 0x0 DUP1 RETURNDATACOPY RETURNDATASIZE PUSH1 0x0 REVERT JUMPDEST POP POP POP POP PUSH1 0x40 MLOAD RETURNDATASIZE PUSH1 0x1F NOT PUSH1 0x1F DUP3 ADD AND DUP3 ADD DUP1 PUSH1 0x40 MSTORE POP DUP2 ADD SWAP1 PUSH2 0x1ECD SWAP2 SWAP1 PUSH2 0x5804 JUMP JUMPDEST SWAP1 POP PUSH2 0x1EE4 PUSH2 0x1EDA PUSH2 0x2F83 JUMP JUMPDEST PUSH2 0x897 DUP5 DUP5 PUSH2 0x416C JUMP JUMPDEST PUSH2 0x1F30 JUMPI PUSH1 0x40 MLOAD PUSH3 0x461BCD PUSH1 0xE5 SHL DUP2 MSTORE PUSH1 0x20 PUSH1 0x4 DUP3 ADD MSTORE PUSH1 0x1E PUSH1 0x24 DUP3 ADD MSTORE PUSH32 0x4661696C656420746F2073656E6420445420746F207075626C69736865720000 PUSH1 0x44 DUP3 ADD MSTORE PUSH1 0x64 ADD PUSH2 0xBD0 JUMP JUMPDEST PUSH1 0x12 SLOAD PUSH1 0x40 DUP1 MLOAD PUSH4 0x1A81876D PUSH1 0xE0 SHL DUP2 MSTORE SWAP1 MLOAD PUSH2 0x1FA5 SWAP3 PUSH1 0x1 PUSH1 0x1 PUSH1 0xA0 SHL SUB AND SWAP2 PUSH4 0x1A81876D SWAP2 PUSH1 0x4 DUP1 DUP4 ADD SWAP3 PUSH1 0x20 SWAP3 SWAP2 SWAP1 DUP3 SWAP1 SUB ADD DUP2 DUP7 GAS STATICCALL ISZERO DUP1 ISZERO PUSH2 0x1F7B JUMPI RETURNDATASIZE PUSH1 0x0 DUP1 RETURNDATACOPY RETURNDATASIZE PUSH1 0x0 REVERT JUMPDEST POP POP POP POP PUSH1 0x40 MLOAD RETURNDATASIZE PUSH1 0x1F NOT PUSH1 0x1F DUP3 ADD AND DUP3 ADD DUP1 PUSH1 0x40 MSTORE POP DUP2 ADD SWAP1 PUSH2 0x1F9F SWAP2 SWAP1 PUSH2 0x5737 JUMP JUMPDEST DUP3 PUSH2 0x291A JUMP JUMPDEST PUSH2 0x1FF1 JUMPI PUSH1 0x40 MLOAD PUSH3 0x461BCD PUSH1 0xE5 SHL DUP2 MSTORE PUSH1 0x20 PUSH1 0x4 DUP3 ADD MSTORE PUSH1 0x18 PUSH1 0x24 DUP3 ADD MSTORE PUSH32 0x4661696C656420746F2073656E6420445420746F204F50430000000000000000 PUSH1 0x44 DUP3 ADD MSTORE PUSH1 0x64 ADD PUSH2 0xBD0 JUMP JUMPDEST POP POP PUSH1 0x1 PUSH1 0x7 SSTORE POP POP POP POP JUMP JUMPDEST PUSH1 0x60 PUSH1 0x14 DUP1 SLOAD DUP1 PUSH1 0x20 MUL PUSH1 0x20 ADD PUSH1 0x40 MLOAD SWAP1 DUP2 ADD PUSH1 0x40 MSTORE DUP1 SWAP3 SWAP2 SWAP1 DUP2 DUP2 MSTORE PUSH1 0x20 ADD PUSH1 0x0 SWAP1 JUMPDEST DUP3 DUP3 LT ISZERO PUSH2 0x206A JUMPI PUSH1 0x0 DUP5 DUP2 MSTORE PUSH1 0x20 SWAP1 DUP2 SWAP1 KECCAK256 PUSH1 0x40 DUP1 MLOAD DUP1 DUP3 ADD SWAP1 SWAP2 MSTORE PUSH1 0x2 DUP6 MUL SWAP1 SWAP2 ADD DUP1 SLOAD PUSH1 0x1 PUSH1 0x1 PUSH1 0xA0 SHL SUB AND DUP3 MSTORE PUSH1 0x1 SWAP1 DUP2 ADD SLOAD DUP3 DUP5 ADD MSTORE SWAP1 DUP4 MSTORE SWAP1 SWAP3 ADD SWAP2 ADD PUSH2 0x2022 JUMP JUMPDEST POP POP POP POP SWAP1 POP SWAP1 JUMP JUMPDEST PUSH1 0xB SLOAD PUSH2 0x100 SWAP1 DIV PUSH1 0x1 PUSH1 0x1 PUSH1 0xA0 SHL SUB AND CALLER EQ PUSH2 0x12CC JUMPI PUSH1 0x40 MLOAD PUSH3 0x461BCD PUSH1 0xE5 SHL DUP2 MSTORE PUSH1 0x20 PUSH1 0x4 DUP3 ADD MSTORE PUSH1 0x1F PUSH1 0x24 DUP3 ADD MSTORE PUSH32 0x455243323054656D706C6174653A204E4F542037323120436F6E747261637400 PUSH1 0x44 DUP3 ADD MSTORE PUSH1 0x64 ADD PUSH2 0xBD0 JUMP JUMPDEST CALLER PUSH1 0x1 PUSH1 0x1 PUSH1 0xA0 SHL SUB DUP3 AND EQ ISZERO PUSH2 0x212B JUMPI PUSH1 0x40 MLOAD PUSH3 0x461BCD PUSH1 0xE5 SHL DUP2 MSTORE PUSH1 0x20 PUSH1 0x4 DUP3 ADD MSTORE PUSH1 0x1F PUSH1 0x24 DUP3 ADD MSTORE PUSH32 0x50726F76696465722063616E6E6F742062652074686520636F6E73756D657200 PUSH1 0x44 DUP3 ADD MSTORE PUSH1 0x64 ADD PUSH2 0xBD0 JUMP JUMPDEST PUSH1 0x0 PUSH1 0x40 MLOAD DUP1 PUSH1 0x40 ADD PUSH1 0x40 MSTORE DUP1 PUSH1 0x1C DUP2 MSTORE PUSH1 0x20 ADD PUSH32 0x19457468657265756D205369676E6564204D6573736167653A0A333200000000 DUP2 MSTORE POP SWAP1 POP PUSH1 0x0 DUP2 DUP13 DUP13 DUP13 PUSH1 0x40 MLOAD PUSH1 0x20 ADD PUSH2 0x217D SWAP4 SWAP3 SWAP2 SWAP1 PUSH2 0x58B8 JUMP JUMPDEST PUSH1 0x40 MLOAD PUSH1 0x20 DUP2 DUP4 SUB SUB DUP2 MSTORE SWAP1 PUSH1 0x40 MSTORE DUP1 MLOAD SWAP1 PUSH1 0x20 ADD KECCAK256 PUSH1 0x40 MLOAD PUSH1 0x20 ADD PUSH2 0x21A4 SWAP3 SWAP2 SWAP1 PUSH2 0x58D2 JUMP JUMPDEST PUSH1 0x40 MLOAD PUSH1 0x20 DUP2 DUP4 SUB SUB DUP2 MSTORE SWAP1 PUSH1 0x40 MSTORE DUP1 MLOAD SWAP1 PUSH1 0x20 ADD KECCAK256 SWAP1 POP CALLER PUSH1 0x1 PUSH1 0x1 PUSH1 0xA0 SHL SUB AND PUSH2 0x2206 DUP3 DUP12 DUP12 DUP1 DUP1 PUSH1 0x1F ADD PUSH1 0x20 DUP1 SWAP2 DIV MUL PUSH1 0x20 ADD PUSH1 0x40 MLOAD SWAP1 DUP2 ADD PUSH1 0x40 MSTORE DUP1 SWAP4 SWAP3 SWAP2 SWAP1 DUP2 DUP2 MSTORE PUSH1 0x20 ADD DUP4 DUP4 DUP1 DUP3 DUP5 CALLDATACOPY PUSH1 0x0 SWAP3 ADD SWAP2 SWAP1 SWAP2 MSTORE POP PUSH2 0x4178 SWAP3 POP POP POP JUMP JUMPDEST PUSH1 0x1 PUSH1 0x1 PUSH1 0xA0 SHL SUB AND EQ PUSH2 0x225C JUMPI PUSH1 0x40 MLOAD PUSH3 0x461BCD PUSH1 0xE5 SHL DUP2 MSTORE PUSH1 0x20 PUSH1 0x4 DUP3 ADD MSTORE PUSH1 0x1F PUSH1 0x24 DUP3 ADD MSTORE PUSH32 0x50726F7669646572207369676E617475726520636865636B206661696C656400 PUSH1 0x44 DUP3 ADD MSTORE PUSH1 0x64 ADD PUSH2 0xBD0 JUMP JUMPDEST PUSH1 0x0 DUP3 DUP9 DUP9 PUSH1 0x40 MLOAD PUSH1 0x20 ADD PUSH2 0x2272 SWAP3 SWAP2 SWAP1 PUSH2 0x58F4 JUMP JUMPDEST PUSH1 0x40 MLOAD PUSH1 0x20 DUP2 DUP4 SUB SUB DUP2 MSTORE SWAP1 PUSH1 0x40 MSTORE DUP1 MLOAD SWAP1 PUSH1 0x20 ADD KECCAK256 PUSH1 0x40 MLOAD PUSH1 0x20 ADD PUSH2 0x2299 SWAP3 SWAP2 SWAP1 PUSH2 0x58D2 JUMP JUMPDEST PUSH1 0x40 MLOAD PUSH1 0x20 DUP2 DUP4 SUB SUB DUP2 MSTORE SWAP1 PUSH1 0x40 MSTORE DUP1 MLOAD SWAP1 PUSH1 0x20 ADD KECCAK256 SWAP1 POP DUP4 PUSH1 0x1 PUSH1 0x1 PUSH1 0xA0 SHL SUB AND PUSH2 0x22FB DUP3 DUP9 DUP9 DUP1 DUP1 PUSH1 0x1F ADD PUSH1 0x20 DUP1 SWAP2 DIV MUL PUSH1 0x20 ADD PUSH1 0x40 MLOAD SWAP1 DUP2 ADD PUSH1 0x40 MSTORE DUP1 SWAP4 SWAP3 SWAP2 SWAP1 DUP2 DUP2 MSTORE PUSH1 0x20 ADD DUP4 DUP4 DUP1 DUP3 DUP5 CALLDATACOPY PUSH1 0x0 SWAP3 ADD SWAP2 SWAP1 SWAP2 MSTORE POP PUSH2 0x4178 SWAP3 POP POP POP JUMP JUMPDEST PUSH1 0x1 PUSH1 0x1 PUSH1 0xA0 SHL SUB AND EQ PUSH2 0x2351 JUMPI PUSH1 0x40 MLOAD PUSH3 0x461BCD PUSH1 0xE5 SHL DUP2 MSTORE PUSH1 0x20 PUSH1 0x4 DUP3 ADD MSTORE PUSH1 0x1F PUSH1 0x24 DUP3 ADD MSTORE PUSH32 0x436F6E73756D6572207369676E617475726520636865636B206661696C656400 PUSH1 0x44 DUP3 ADD MSTORE PUSH1 0x64 ADD PUSH2 0xBD0 JUMP JUMPDEST DUP4 PUSH1 0x1 PUSH1 0x1 PUSH1 0xA0 SHL SUB AND CALLER PUSH1 0x1 PUSH1 0x1 PUSH1 0xA0 SHL SUB AND PUSH32 0xC9A10280E9C735C63092FA5431E6ACB3ED342E08B69A083E5E676994EB7070F9 DUP16 DUP16 DUP16 DUP16 DUP16 DUP16 DUP16 DUP16 DUP16 TIMESTAMP NUMBER PUSH1 0x40 MLOAD PUSH2 0x23A8 SWAP12 SWAP11 SWAP10 SWAP9 SWAP8 SWAP7 SWAP6 SWAP5 SWAP4 SWAP3 SWAP2 SWAP1 PUSH2 0x592D JUMP JUMPDEST PUSH1 0x40 MLOAD DUP1 SWAP2 SUB SWAP1 LOG3 POP POP POP POP POP POP POP POP POP POP POP POP POP JUMP JUMPDEST PUSH1 0xB SLOAD PUSH1 0x40 MLOAD PUSH4 0x160A7925 PUSH1 0xE0 SHL DUP2 MSTORE CALLER PUSH1 0x4 DUP3 ADD MSTORE PUSH1 0x0 SWAP2 PUSH2 0x100 SWAP1 DIV PUSH1 0x1 PUSH1 0x1 PUSH1 0xA0 SHL SUB AND SWAP1 PUSH4 0x160A7925 SWAP1 PUSH1 0x24 ADD PUSH1 0x80 PUSH1 0x40 MLOAD DUP1 DUP4 SUB DUP2 DUP7 GAS STATICCALL ISZERO DUP1 ISZERO PUSH2 0x240D JUMPI RETURNDATASIZE PUSH1 0x0 DUP1 RETURNDATACOPY RETURNDATASIZE PUSH1 0x0 REVERT JUMPDEST POP POP POP POP PUSH1 0x40 MLOAD RETURNDATASIZE PUSH1 0x1F NOT PUSH1 0x1F DUP3 ADD AND DUP3 ADD DUP1 PUSH1 0x40 MSTORE POP DUP2 ADD SWAP1 PUSH2 0x2431 SWAP2 SWAP1 PUSH2 0x56B3 JUMP JUMPDEST PUSH1 0x20 ADD MLOAD DUP1 PUSH2 0x24B8 JUMPI POP PUSH1 0xB SLOAD PUSH1 0x40 MLOAD PUSH4 0x31A9108F PUSH1 0xE1 SHL DUP2 MSTORE PUSH1 0x1 PUSH1 0x4 DUP3 ADD MSTORE CALLER SWAP2 PUSH2 0x100 SWAP1 DIV PUSH1 0x1 PUSH1 0x1 PUSH1 0xA0 SHL SUB AND SWAP1 PUSH4 0x6352211E SWAP1 PUSH1 0x24 ADD PUSH1 0x20 PUSH1 0x40 MLOAD DUP1 DUP4 SUB DUP2 DUP7 GAS STATICCALL ISZERO DUP1 ISZERO PUSH2 0x2489 JUMPI RETURNDATASIZE PUSH1 0x0 DUP1 RETURNDATACOPY RETURNDATASIZE PUSH1 0x0 REVERT JUMPDEST POP POP POP POP PUSH1 0x40 MLOAD RETURNDATASIZE PUSH1 0x1F NOT PUSH1 0x1F DUP3 ADD AND DUP3 ADD DUP1 PUSH1 0x40 MSTORE POP DUP2 ADD SWAP1 PUSH2 0x24AD SWAP2 SWAP1 PUSH2 0x5737 JUMP JUMPDEST PUSH1 0x1 PUSH1 0x1 PUSH1 0xA0 SHL SUB AND EQ JUMPDEST PUSH2 0x24D4 JUMPI PUSH1 0x40 MLOAD PUSH3 0x461BCD PUSH1 0xE5 SHL DUP2 MSTORE PUSH1 0x4 ADD PUSH2 0xBD0 SWAP1 PUSH2 0x5754 JUMP JUMPDEST PUSH1 0x2 PUSH1 0x7 SLOAD EQ ISZERO PUSH2 0x24F7 JUMPI PUSH1 0x40 MLOAD PUSH3 0x461BCD PUSH1 0xE5 SHL DUP2 MSTORE PUSH1 0x4 ADD PUSH2 0xBD0 SWAP1 PUSH2 0x5789 JUMP JUMPDEST PUSH1 0x2 PUSH1 0x7 DUP2 SWAP1 SSTORE POP PUSH1 0x0 DUP3 PUSH1 0x4 DUP2 MLOAD DUP2 LT PUSH2 0x2514 JUMPI PUSH2 0x2514 PUSH2 0x57EE JUMP JUMPDEST PUSH1 0x20 MUL PUSH1 0x20 ADD ADD MLOAD GT ISZERO PUSH2 0x252B JUMPI PUSH2 0x252B DUP5 PUSH2 0x316A JUMP JUMPDEST PUSH1 0x12 SLOAD PUSH1 0x40 MLOAD PUSH4 0x82449375 PUSH1 0xE0 SHL DUP2 MSTORE PUSH1 0x1 PUSH1 0x1 PUSH1 0xA0 SHL SUB SWAP1 SWAP2 AND SWAP1 PUSH4 0x82449375 SWAP1 PUSH2 0x255F SWAP1 DUP8 SWAP1 DUP8 SWAP1 DUP8 SWAP1 PUSH1 0x4 ADD PUSH2 0x599F JUMP JUMPDEST PUSH1 0x20 PUSH1 0x40 MLOAD DUP1 DUP4 SUB DUP2 PUSH1 0x0 DUP8 GAS CALL ISZERO DUP1 ISZERO PUSH2 0x257E JUMPI RETURNDATASIZE PUSH1 0x0 DUP1 RETURNDATACOPY RETURNDATASIZE PUSH1 0x0 REVERT JUMPDEST POP POP POP POP PUSH1 0x40 MLOAD RETURNDATASIZE PUSH1 0x1F NOT PUSH1 0x1F DUP3 ADD AND DUP3 ADD DUP1 PUSH1 0x40 MSTORE POP DUP2 ADD SWAP1 PUSH2 0x25A2 SWAP2 SWAP1 PUSH2 0x5804 JUMP JUMPDEST SWAP1 POP DUP3 PUSH1 0x0 DUP2 MLOAD DUP2 LT PUSH2 0x25B7 JUMPI PUSH2 0x25B7 PUSH2 0x57EE JUMP JUMPDEST PUSH1 0x20 MUL PUSH1 0x20 ADD ADD MLOAD PUSH1 0x1 PUSH1 0x1 PUSH1 0xA0 SHL SUB AND DUP4 PUSH1 0x1 DUP2 MLOAD DUP2 LT PUSH2 0x25DB JUMPI PUSH2 0x25DB PUSH2 0x57EE JUMP JUMPDEST PUSH1 0x20 MUL PUSH1 0x20 ADD ADD MLOAD PUSH1 0x1 PUSH1 0x1 PUSH1 0xA0 SHL SUB AND PUSH32 0xB3FAC3AE95956DBAC74E63BA8DAC94081832395C8788E3049C900A7732F34805 DUP4 DUP8 PUSH1 0x40 MLOAD PUSH2 0x262F SWAP3 SWAP2 SWAP1 SWAP2 DUP3 MSTORE PUSH1 0x1 PUSH1 0x1 PUSH1 0xA0 SHL SUB AND PUSH1 0x20 DUP3 ADD MSTORE PUSH1 0x40 ADD SWAP1 JUMP JUMPDEST PUSH1 0x40 MLOAD DUP1 SWAP2 SUB SWAP1 LOG3 PUSH1 0x40 DUP1 MLOAD DUP1 DUP3 ADD SWAP1 SWAP2 MSTORE PUSH1 0x1 PUSH1 0x1 PUSH1 0xA0 SHL SUB SWAP5 DUP6 AND DUP2 MSTORE PUSH1 0x20 DUP2 ADD DUP3 DUP2 MSTORE PUSH1 0x14 DUP1 SLOAD PUSH1 0x1 DUP1 DUP3 ADD DUP4 SSTORE PUSH1 0x0 SWAP3 SWAP1 SWAP3 MSTORE SWAP3 MLOAD PUSH32 0xCE6D7B5282BD9A3661AE061FEED1DBDA4E52AB073B1F9285BE6E155D9C38D4EC PUSH1 0x2 SWAP1 SWAP5 MUL SWAP4 DUP5 ADD DUP1 SLOAD PUSH1 0x1 PUSH1 0x1 PUSH1 0xA0 SHL SUB NOT AND SWAP2 SWAP1 SWAP9 AND OR SWAP1 SWAP7 SSTORE MLOAD PUSH32 0xCE6D7B5282BD9A3661AE061FEED1DBDA4E52AB073B1F9285BE6E155D9C38D4ED SWAP1 SWAP2 ADD SSTORE PUSH1 0x7 SWAP4 SWAP1 SWAP4 SSTORE POP SWAP1 SWAP2 SWAP1 POP JUMP JUMPDEST PUSH1 0x60 PUSH1 0x9 DUP1 SLOAD PUSH2 0xA23 SWAP1 PUSH2 0x567E JUMP JUMPDEST PUSH1 0xB SLOAD PUSH1 0x40 MLOAD PUSH4 0x160A7925 PUSH1 0xE0 SHL DUP2 MSTORE PUSH1 0x1 PUSH1 0x1 PUSH1 0xA0 SHL SUB DUP4 DUP2 AND PUSH1 0x4 DUP4 ADD MSTORE PUSH1 0x0 SWAP3 PUSH2 0x100 SWAP1 DIV AND SWAP1 PUSH4 0x160A7925 SWAP1 PUSH1 0x24 ADD PUSH1 0x80 PUSH1 0x40 MLOAD DUP1 DUP4 SUB DUP2 DUP7 GAS STATICCALL ISZERO DUP1 ISZERO PUSH2 0x2737 JUMPI RETURNDATASIZE PUSH1 0x0 DUP1 RETURNDATACOPY RETURNDATASIZE PUSH1 0x0 REVERT JUMPDEST POP POP POP POP PUSH1 0x40 MLOAD RETURNDATASIZE PUSH1 0x1F NOT PUSH1 0x1F DUP3 ADD AND DUP3 ADD DUP1 PUSH1 0x40 MSTORE POP DUP2 ADD SWAP1 PUSH2 0x275B SWAP2 SWAP1 PUSH2 0x56B3 JUMP JUMPDEST PUSH1 0x20 ADD MLOAD SWAP3 SWAP2 POP POP JUMP JUMPDEST PUSH1 0xB SLOAD PUSH1 0x40 MLOAD PUSH4 0x160A7925 PUSH1 0xE0 SHL DUP2 MSTORE CALLER PUSH1 0x4 DUP3 ADD MSTORE PUSH2 0x100 SWAP1 SWAP2 DIV PUSH1 0x1 PUSH1 0x1 PUSH1 0xA0 SHL SUB AND SWAP1 PUSH4 0x160A7925 SWAP1 PUSH1 0x24 ADD PUSH1 0x80 PUSH1 0x40 MLOAD DUP1 DUP4 SUB DUP2 DUP7 GAS STATICCALL ISZERO DUP1 ISZERO PUSH2 0x27B1 JUMPI RETURNDATASIZE PUSH1 0x0 DUP1 RETURNDATACOPY RETURNDATASIZE PUSH1 0x0 REVERT JUMPDEST POP POP POP POP PUSH1 0x40 MLOAD RETURNDATASIZE PUSH1 0x1F NOT PUSH1 0x1F DUP3 ADD AND DUP3 ADD DUP1 PUSH1 0x40 MSTORE POP DUP2 ADD SWAP1 PUSH2 0x27D5 SWAP2 SWAP1 PUSH2 0x56B3 JUMP JUMPDEST PUSH1 0x20 ADD MLOAD DUP1 PUSH2 0x285C JUMPI POP PUSH1 0xB SLOAD PUSH1 0x40 MLOAD PUSH4 0x31A9108F PUSH1 0xE1 SHL DUP2 MSTORE PUSH1 0x1 PUSH1 0x4 DUP3 ADD MSTORE CALLER SWAP2 PUSH2 0x100 SWAP1 DIV PUSH1 0x1 PUSH1 0x1 PUSH1 0xA0 SHL SUB AND SWAP1 PUSH4 0x6352211E SWAP1 PUSH1 0x24 ADD PUSH1 0x20 PUSH1 0x40 MLOAD DUP1 DUP4 SUB DUP2 DUP7 GAS STATICCALL ISZERO DUP1 ISZERO PUSH2 0x282D JUMPI RETURNDATASIZE PUSH1 0x0 DUP1 RETURNDATACOPY RETURNDATASIZE PUSH1 0x0 REVERT JUMPDEST POP POP POP POP PUSH1 0x40 MLOAD RETURNDATASIZE PUSH1 0x1F NOT PUSH1 0x1F DUP3 ADD AND DUP3 ADD DUP1 PUSH1 0x40 MSTORE POP DUP2 ADD SWAP1 PUSH2 0x2851 SWAP2 SWAP1 PUSH2 0x5737 JUMP JUMPDEST PUSH1 0x1 PUSH1 0x1 PUSH1 0xA0 SHL SUB AND EQ JUMPDEST PUSH2 0x2878 JUMPI PUSH1 0x40 MLOAD PUSH3 0x461BCD PUSH1 0xE5 SHL DUP2 MSTORE PUSH1 0x4 ADD PUSH2 0xBD0 SWAP1 PUSH2 0x5754 JUMP JUMPDEST PUSH2 0xEE6 DUP2 PUSH2 0x316A JUMP JUMPDEST CALLER PUSH1 0x0 SWAP1 DUP2 MSTORE PUSH1 0x1 PUSH1 0x20 SWAP1 DUP2 MSTORE PUSH1 0x40 DUP1 DUP4 KECCAK256 PUSH1 0x1 PUSH1 0x1 PUSH1 0xA0 SHL SUB DUP7 AND DUP5 MSTORE SWAP1 SWAP2 MSTORE DUP2 KECCAK256 SLOAD DUP3 DUP2 LT ISZERO PUSH2 0x2903 JUMPI PUSH1 0x40 MLOAD PUSH3 0x461BCD PUSH1 0xE5 SHL DUP2 MSTORE PUSH1 0x20 PUSH1 0x4 DUP3 ADD MSTORE PUSH1 0x25 PUSH1 0x24 DUP3 ADD MSTORE PUSH32 0x45524332303A2064656372656173656420616C6C6F77616E63652062656C6F77 PUSH1 0x44 DUP3 ADD MSTORE PUSH5 0x207A65726F PUSH1 0xD8 SHL PUSH1 0x64 DUP3 ADD MSTORE PUSH1 0x84 ADD PUSH2 0xBD0 JUMP JUMPDEST PUSH2 0x2910 CALLER DUP6 DUP6 DUP5 SUB PUSH2 0x3046 JUMP JUMPDEST POP PUSH1 0x1 SWAP4 SWAP3 POP POP POP JUMP JUMPDEST PUSH1 0x0 PUSH2 0xAB3 CALLER DUP5 DUP5 PUSH2 0x3241 JUMP JUMPDEST PUSH1 0xB SLOAD PUSH1 0x40 MLOAD PUSH4 0x160A7925 PUSH1 0xE0 SHL DUP2 MSTORE CALLER PUSH1 0x4 DUP3 ADD MSTORE PUSH2 0x100 SWAP1 SWAP2 DIV PUSH1 0x1 PUSH1 0x1 PUSH1 0xA0 SHL SUB AND SWAP1 PUSH4 0x160A7925 SWAP1 PUSH1 0x24 ADD PUSH1 0x80 PUSH1 0x40 MLOAD DUP1 DUP4 SUB DUP2 DUP7 GAS STATICCALL ISZERO DUP1 ISZERO PUSH2 0x2973 JUMPI RETURNDATASIZE PUSH1 0x0 DUP1 RETURNDATACOPY RETURNDATASIZE PUSH1 0x0 REVERT JUMPDEST POP POP POP POP PUSH1 0x40 MLOAD RETURNDATASIZE PUSH1 0x1F NOT PUSH1 0x1F DUP3 ADD AND DUP3 ADD DUP1 PUSH1 0x40 MSTORE POP DUP2 ADD SWAP1 PUSH2 0x2997 SWAP2 SWAP1 PUSH2 0x56B3 JUMP JUMPDEST PUSH1 0x20 ADD MLOAD DUP1 PUSH2 0x2A1E JUMPI POP PUSH1 0xB SLOAD PUSH1 0x40 MLOAD PUSH4 0x31A9108F PUSH1 0xE1 SHL DUP2 MSTORE PUSH1 0x1 PUSH1 0x4 DUP3 ADD MSTORE CALLER SWAP2 PUSH2 0x100 SWAP1 DIV PUSH1 0x1 PUSH1 0x1 PUSH1 0xA0 SHL SUB AND SWAP1 PUSH4 0x6352211E SWAP1 PUSH1 0x24 ADD PUSH1 0x20 PUSH1 0x40 MLOAD DUP1 DUP4 SUB DUP2 DUP7 GAS STATICCALL ISZERO DUP1 ISZERO PUSH2 0x29EF JUMPI RETURNDATASIZE PUSH1 0x0 DUP1 RETURNDATACOPY RETURNDATASIZE PUSH1 0x0 REVERT JUMPDEST POP POP POP POP PUSH1 0x40 MLOAD RETURNDATASIZE PUSH1 0x1F NOT PUSH1 0x1F DUP3 ADD AND DUP3 ADD DUP1 PUSH1 0x40 MSTORE POP DUP2 ADD SWAP1 PUSH2 0x2A13 SWAP2 SWAP1 PUSH2 0x5737 JUMP JUMPDEST PUSH1 0x1 PUSH1 0x1 PUSH1 0xA0 SHL SUB AND EQ JUMPDEST PUSH2 0x2A3A JUMPI PUSH1 0x40 MLOAD PUSH3 0x461BCD PUSH1 0xE5 SHL DUP2 MSTORE PUSH1 0x4 ADD PUSH2 0xBD0 SWAP1 PUSH2 0x5754 JUMP JUMPDEST PUSH2 0xEE6 DUP2 PUSH2 0x4250 JUMP JUMPDEST PUSH1 0xB SLOAD PUSH1 0x40 MLOAD PUSH4 0x160A7925 PUSH1 0xE0 SHL DUP2 MSTORE CALLER PUSH1 0x4 DUP3 ADD MSTORE PUSH2 0x100 SWAP1 SWAP2 DIV PUSH1 0x1 PUSH1 0x1 PUSH1 0xA0 SHL SUB AND SWAP1 PUSH4 0x160A7925 SWAP1 PUSH1 0x24 ADD PUSH1 0x80 PUSH1 0x40 MLOAD DUP1 DUP4 SUB DUP2 DUP7 GAS STATICCALL ISZERO DUP1 ISZERO PUSH2 0x2A8F JUMPI RETURNDATASIZE PUSH1 0x0 DUP1 RETURNDATACOPY RETURNDATASIZE PUSH1 0x0 REVERT JUMPDEST POP POP POP POP PUSH1 0x40 MLOAD RETURNDATASIZE PUSH1 0x1F NOT PUSH1 0x1F DUP3 ADD AND DUP3 ADD DUP1 PUSH1 0x40 MSTORE POP DUP2 ADD SWAP1 PUSH2 0x2AB3 SWAP2 SWAP1 PUSH2 0x56B3 JUMP JUMPDEST PUSH1 0x20 ADD MLOAD DUP1 PUSH2 0x2B3A JUMPI POP PUSH1 0xB SLOAD PUSH1 0x40 MLOAD PUSH4 0x31A9108F PUSH1 0xE1 SHL DUP2 MSTORE PUSH1 0x1 PUSH1 0x4 DUP3 ADD MSTORE CALLER SWAP2 PUSH2 0x100 SWAP1 DIV PUSH1 0x1 PUSH1 0x1 PUSH1 0xA0 SHL SUB AND SWAP1 PUSH4 0x6352211E SWAP1 PUSH1 0x24 ADD PUSH1 0x20 PUSH1 0x40 MLOAD DUP1 DUP4 SUB DUP2 DUP7 GAS STATICCALL ISZERO DUP1 ISZERO PUSH2 0x2B0B JUMPI RETURNDATASIZE PUSH1 0x0 DUP1 RETURNDATACOPY RETURNDATASIZE PUSH1 0x0 REVERT JUMPDEST POP POP POP POP PUSH1 0x40 MLOAD RETURNDATASIZE PUSH1 0x1F NOT PUSH1 0x1F DUP3 ADD AND DUP3 ADD DUP1 PUSH1 0x40 MSTORE POP DUP2 ADD SWAP1 PUSH2 0x2B2F SWAP2 SWAP1 PUSH2 0x5737 JUMP JUMPDEST PUSH1 0x1 PUSH1 0x1 PUSH1 0xA0 SHL SUB AND EQ JUMPDEST PUSH2 0x2B56 JUMPI PUSH1 0x40 MLOAD PUSH3 0x461BCD PUSH1 0xE5 SHL DUP2 MSTORE PUSH1 0x4 ADD PUSH2 0xBD0 SWAP1 PUSH2 0x5754 JUMP JUMPDEST PUSH1 0x40 MLOAD PUSH12 0xFFFFFFFFFFFFFFFFFFFFFFFF NOT ADDRESS PUSH1 0x60 SHL AND PUSH1 0x20 DUP3 ADD MSTORE PUSH1 0x0 SWAP1 PUSH1 0x34 ADD PUSH1 0x40 DUP1 MLOAD DUP1 DUP4 SUB PUSH1 0x1F NOT ADD DUP2 MSTORE SWAP1 DUP3 SWAP1 MSTORE DUP1 MLOAD PUSH1 0x20 SWAP1 SWAP2 ADD KECCAK256 PUSH1 0xB SLOAD PUSH4 0x1CAF8FD PUSH1 0xE3 SHL DUP4 MSTORE SWAP1 SWAP3 POP PUSH2 0x100 SWAP1 DIV PUSH1 0x1 PUSH1 0x1 PUSH1 0xA0 SHL SUB AND SWAP1 PUSH4 0xE57C7E8 SWAP1 PUSH2 0x2BC7 SWAP1 DUP5 SWAP1 DUP8 SWAP1 DUP8 SWAP1 PUSH1 0x4 ADD PUSH2 0x59DF JUMP JUMPDEST PUSH1 0x0 PUSH1 0x40 MLOAD DUP1 DUP4 SUB DUP2 PUSH1 0x0 DUP8 DUP1 EXTCODESIZE ISZERO DUP1 ISZERO PUSH2 0x2BE1 JUMPI PUSH1 0x0 DUP1 REVERT JUMPDEST POP GAS CALL ISZERO DUP1 ISZERO PUSH2 0x2BF5 JUMPI RETURNDATASIZE PUSH1 0x0 DUP1 RETURNDATACOPY RETURNDATASIZE PUSH1 0x0 REVERT JUMPDEST POP POP POP POP POP POP POP JUMP JUMPDEST PUSH1 0xB SLOAD PUSH1 0x0 SWAP1 PUSH1 0xFF AND ISZERO PUSH2 0x2C6E JUMPI PUSH1 0x40 MLOAD PUSH3 0x461BCD PUSH1 0xE5 SHL DUP2 MSTORE PUSH1 0x20 PUSH1 0x4 DUP3 ADD MSTORE PUSH1 0x31 PUSH1 0x24 DUP3 ADD MSTORE PUSH32 0x455243323054656D706C6174653A20746F6B656E20696E7374616E636520616C PUSH1 0x44 DUP3 ADD MSTORE PUSH17 0x1C9958591E481A5B9A5D1A585B1A5E9959 PUSH1 0x7A SHL PUSH1 0x64 DUP3 ADD MSTORE PUSH1 0x84 ADD PUSH2 0xBD0 JUMP JUMPDEST PUSH2 0x2D22 PUSH2 0x2C7B DUP12 DUP14 PUSH2 0x5A59 JUMP JUMPDEST DUP11 DUP11 DUP1 DUP1 PUSH1 0x20 MUL PUSH1 0x20 ADD PUSH1 0x40 MLOAD SWAP1 DUP2 ADD PUSH1 0x40 MSTORE DUP1 SWAP4 SWAP3 SWAP2 SWAP1 DUP2 DUP2 MSTORE PUSH1 0x20 ADD DUP4 DUP4 PUSH1 0x20 MUL DUP1 DUP3 DUP5 CALLDATACOPY PUSH1 0x0 SWAP3 ADD SWAP2 SWAP1 SWAP2 MSTORE POP POP PUSH1 0x40 DUP1 MLOAD PUSH1 0x20 DUP1 DUP15 MUL DUP3 DUP2 ADD DUP3 ADD SWAP1 SWAP4 MSTORE DUP14 DUP3 MSTORE SWAP1 SWAP4 POP DUP14 SWAP3 POP DUP13 SWAP2 DUP3 SWAP2 DUP6 ADD SWAP1 DUP5 SWAP1 DUP1 DUP3 DUP5 CALLDATACOPY PUSH1 0x0 SWAP3 ADD SWAP2 SWAP1 SWAP2 MSTORE POP POP PUSH1 0x40 DUP1 MLOAD PUSH1 0x20 DUP1 DUP14 MUL DUP3 DUP2 ADD DUP3 ADD SWAP1 SWAP4 MSTORE DUP13 DUP3 MSTORE SWAP1 SWAP4 POP DUP13 SWAP3 POP DUP12 SWAP2 DUP3 SWAP2 DUP6 ADD SWAP1 DUP5 SWAP1 DUP1 DUP3 DUP5 CALLDATACOPY PUSH1 0x0 SWAP3 ADD SWAP2 SWAP1 SWAP2 MSTORE POP PUSH2 0x2D1D SWAP3 POP DUP10 SWAP2 POP DUP11 SWAP1 POP PUSH2 0x5AE0 JUMP JUMPDEST PUSH2 0x4331 JUMP JUMPDEST SWAP12 SWAP11 POP POP POP POP POP POP POP POP POP POP POP JUMP JUMPDEST NUMBER DUP5 LT ISZERO PUSH2 0x2D74 JUMPI PUSH1 0x40 MLOAD PUSH3 0x461BCD PUSH1 0xE5 SHL DUP2 MSTORE PUSH1 0x20 PUSH1 0x4 DUP3 ADD MSTORE PUSH1 0x10 PUSH1 0x24 DUP3 ADD MSTORE PUSH16 0x115490CC8C11150E8811561412549151 PUSH1 0x82 SHL PUSH1 0x44 DUP3 ADD MSTORE PUSH1 0x64 ADD PUSH2 0xBD0 JUMP JUMPDEST PUSH1 0x10 SLOAD PUSH1 0x1 PUSH1 0x1 PUSH1 0xA0 SHL SUB DUP9 AND PUSH1 0x0 SWAP1 DUP2 MSTORE PUSH1 0x11 PUSH1 0x20 MSTORE PUSH1 0x40 DUP2 KECCAK256 DUP1 SLOAD SWAP2 SWAP3 SWAP2 PUSH32 0x6E71EDAE12B1B97F4D1F60370FEF10105FA2FAAE0126114A169C64845D6126C9 SWAP2 DUP12 SWAP2 DUP12 SWAP2 DUP12 SWAP2 SWAP1 DUP8 PUSH2 0x2DC7 DUP4 PUSH2 0x5B5B JUMP JUMPDEST SWAP1 SWAP2 SSTORE POP PUSH1 0x40 DUP1 MLOAD PUSH1 0x20 DUP2 ADD SWAP7 SWAP1 SWAP7 MSTORE PUSH1 0x1 PUSH1 0x1 PUSH1 0xA0 SHL SUB SWAP5 DUP6 AND SWAP1 DUP7 ADD MSTORE SWAP3 SWAP1 SWAP2 AND PUSH1 0x60 DUP5 ADD MSTORE PUSH1 0x80 DUP4 ADD MSTORE PUSH1 0xA0 DUP3 ADD MSTORE PUSH1 0xC0 DUP2 ADD DUP8 SWAP1 MSTORE PUSH1 0xE0 ADD PUSH1 0x40 MLOAD PUSH1 0x20 DUP2 DUP4 SUB SUB DUP2 MSTORE SWAP1 PUSH1 0x40 MSTORE DUP1 MLOAD SWAP1 PUSH1 0x20 ADD KECCAK256 PUSH1 0x40 MLOAD PUSH1 0x20 ADD PUSH2 0x2E40 SWAP3 SWAP2 SWAP1 PUSH2 0x1901 PUSH1 0xF0 SHL DUP2 MSTORE PUSH1 0x2 DUP2 ADD SWAP3 SWAP1 SWAP3 MSTORE PUSH1 0x22 DUP3 ADD MSTORE PUSH1 0x42 ADD SWAP1 JUMP JUMPDEST PUSH1 0x40 DUP1 MLOAD PUSH1 0x1F NOT DUP2 DUP5 SUB ADD DUP2 MSTORE DUP3 DUP3 MSTORE DUP1 MLOAD PUSH1 0x20 SWAP2 DUP3 ADD KECCAK256 PUSH1 0x0 DUP1 DUP6 MSTORE SWAP2 DUP5 ADD DUP1 DUP5 MSTORE DUP2 SWAP1 MSTORE PUSH1 0xFF DUP9 AND SWAP3 DUP5 ADD SWAP3 SWAP1 SWAP3 MSTORE PUSH1 0x60 DUP4 ADD DUP7 SWAP1 MSTORE PUSH1 0x80 DUP4 ADD DUP6 SWAP1 MSTORE SWAP1 SWAP3 POP SWAP1 PUSH1 0x1 SWAP1 PUSH1 0xA0 ADD PUSH1 0x20 PUSH1 0x40 MLOAD PUSH1 0x20 DUP2 SUB SWAP1 DUP1 DUP5 SUB SWAP1 DUP6 GAS STATICCALL ISZERO DUP1 ISZERO PUSH2 0x2EAB JUMPI RETURNDATASIZE PUSH1 0x0 DUP1 RETURNDATACOPY RETURNDATASIZE PUSH1 0x0 REVERT JUMPDEST POP POP PUSH1 0x40 MLOAD PUSH1 0x1F NOT ADD MLOAD SWAP2 POP POP PUSH1 0x1 PUSH1 0x1 PUSH1 0xA0 SHL SUB DUP2 AND ISZERO DUP1 ISZERO SWAP1 PUSH2 0x2EE1 JUMPI POP DUP9 PUSH1 0x1 PUSH1 0x1 PUSH1 0xA0 SHL SUB AND DUP2 PUSH1 0x1 PUSH1 0x1 PUSH1 0xA0 SHL SUB AND EQ JUMPDEST PUSH2 0x2F2D JUMPI PUSH1 0x40 MLOAD PUSH3 0x461BCD PUSH1 0xE5 SHL DUP2 MSTORE PUSH1 0x20 PUSH1 0x4 DUP3 ADD MSTORE PUSH1 0x1A PUSH1 0x24 DUP3 ADD MSTORE PUSH32 0x455243323044543A20494E56414C49445F5349474E4154555245000000000000 PUSH1 0x44 DUP3 ADD MSTORE PUSH1 0x64 ADD PUSH2 0xBD0 JUMP JUMPDEST PUSH2 0x2F38 DUP10 DUP10 DUP10 PUSH2 0x3046 JUMP JUMPDEST POP POP POP POP POP POP POP POP POP JUMP JUMPDEST PUSH2 0x2F4B PUSH2 0x2F83 JUMP JUMPDEST PUSH1 0x1 PUSH1 0x1 PUSH1 0xA0 SHL SUB AND PUSH2 0x8FC SELFBALANCE SWAP1 DUP2 ISZERO MUL SWAP1 PUSH1 0x40 MLOAD PUSH1 0x0 PUSH1 0x40 MLOAD DUP1 DUP4 SUB DUP2 DUP6 DUP9 DUP9 CALL SWAP4 POP POP POP POP ISZERO DUP1 ISZERO PUSH2 0xEE6 JUMPI RETURNDATASIZE PUSH1 0x0 DUP1 RETURNDATACOPY RETURNDATASIZE PUSH1 0x0 REVERT JUMPDEST PUSH1 0xC SLOAD PUSH1 0x0 SWAP1 PUSH1 0x1 PUSH1 0x1 PUSH1 0xA0 SHL SUB AND PUSH2 0x300C JUMPI PUSH1 0xB SLOAD PUSH1 0x40 MLOAD PUSH4 0x31A9108F PUSH1 0xE1 SHL DUP2 MSTORE PUSH1 0x1 PUSH1 0x4 DUP3 ADD MSTORE PUSH2 0x100 SWAP1 SWAP2 DIV PUSH1 0x1 PUSH1 0x1 PUSH1 0xA0 SHL SUB AND SWAP1 PUSH4 0x6352211E SWAP1 PUSH1 0x24 ADD PUSH1 0x20 PUSH1 0x40 MLOAD DUP1 DUP4 SUB DUP2 DUP7 GAS STATICCALL ISZERO DUP1 ISZERO PUSH2 0x2FE3 JUMPI RETURNDATASIZE PUSH1 0x0 DUP1 RETURNDATACOPY RETURNDATASIZE PUSH1 0x0 REVERT JUMPDEST POP POP POP POP PUSH1 0x40 MLOAD RETURNDATASIZE PUSH1 0x1F NOT PUSH1 0x1F DUP3 ADD AND DUP3 ADD DUP1 PUSH1 0x40 MSTORE POP DUP2 ADD SWAP1 PUSH2 0x3007 SWAP2 SWAP1 PUSH2 0x5737 JUMP JUMPDEST SWAP1 POP SWAP1 JUMP JUMPDEST POP PUSH1 0xC SLOAD PUSH1 0x1 PUSH1 0x1 PUSH1 0xA0 SHL SUB AND SWAP1 JUMP JUMPDEST PUSH1 0x6 DUP2 DUP2 SLOAD DUP2 LT PUSH2 0x302C JUMPI PUSH1 0x0 DUP1 REVERT JUMPDEST PUSH1 0x0 SWAP2 DUP3 MSTORE PUSH1 0x20 SWAP1 SWAP2 KECCAK256 ADD SLOAD PUSH1 0x1 PUSH1 0x1 PUSH1 0xA0 SHL SUB AND SWAP1 POP DUP2 JUMP JUMPDEST PUSH1 0x1 PUSH1 0x1 PUSH1 0xA0 SHL SUB DUP4 AND PUSH2 0x30A8 JUMPI PUSH1 0x40 MLOAD PUSH3 0x461BCD PUSH1 0xE5 SHL DUP2 MSTORE PUSH1 0x20 PUSH1 0x4 DUP3 ADD MSTORE PUSH1 0x24 DUP1 DUP3 ADD MSTORE PUSH32 0x45524332303A20617070726F76652066726F6D20746865207A65726F20616464 PUSH1 0x44 DUP3 ADD MSTORE PUSH4 0x72657373 PUSH1 0xE0 SHL PUSH1 0x64 DUP3 ADD MSTORE PUSH1 0x84 ADD PUSH2 0xBD0 JUMP JUMPDEST PUSH1 0x1 PUSH1 0x1 PUSH1 0xA0 SHL SUB DUP3 AND PUSH2 0x3109 JUMPI PUSH1 0x40 MLOAD PUSH3 0x461BCD PUSH1 0xE5 SHL DUP2 MSTORE PUSH1 0x20 PUSH1 0x4 DUP3 ADD MSTORE PUSH1 0x22 PUSH1 0x24 DUP3 ADD MSTORE PUSH32 0x45524332303A20617070726F766520746F20746865207A65726F206164647265 PUSH1 0x44 DUP3 ADD MSTORE PUSH2 0x7373 PUSH1 0xF0 SHL PUSH1 0x64 DUP3 ADD MSTORE PUSH1 0x84 ADD PUSH2 0xBD0 JUMP JUMPDEST PUSH1 0x1 PUSH1 0x1 PUSH1 0xA0 SHL SUB DUP4 DUP2 AND PUSH1 0x0 DUP2 DUP2 MSTORE PUSH1 0x1 PUSH1 0x20 SWAP1 DUP2 MSTORE PUSH1 0x40 DUP1 DUP4 KECCAK256 SWAP5 DUP8 AND DUP1 DUP5 MSTORE SWAP5 DUP3 MSTORE SWAP2 DUP3 SWAP1 KECCAK256 DUP6 SWAP1 SSTORE SWAP1 MLOAD DUP5 DUP2 MSTORE PUSH32 0x8C5BE1E5EBEC7D5BD14F71427D1E84F3DD0314C0F7B2291E5B200AC8C7C3B925 SWAP2 ADD PUSH1 0x40 MLOAD DUP1 SWAP2 SUB SWAP1 LOG3 POP POP POP JUMP JUMPDEST PUSH1 0x1 PUSH1 0x1 PUSH1 0xA0 SHL SUB DUP2 AND ISZERO PUSH2 0xEE6 JUMPI PUSH1 0x1 PUSH1 0x1 PUSH1 0xA0 SHL SUB DUP2 AND PUSH1 0x0 SWAP1 DUP2 MSTORE PUSH1 0x5 PUSH1 0x20 MSTORE PUSH1 0x40 SWAP1 KECCAK256 DUP1 SLOAD PUSH1 0xFF AND ISZERO PUSH2 0x31E3 JUMPI PUSH1 0x40 MLOAD PUSH3 0x461BCD PUSH1 0xE5 SHL DUP2 MSTORE PUSH1 0x20 PUSH1 0x4 DUP3 ADD MSTORE PUSH1 0x1D PUSH1 0x24 DUP3 ADD MSTORE PUSH32 0x4552433230526F6C65733A2020414C52454144592041204D494E544552000000 PUSH1 0x44 DUP3 ADD MSTORE PUSH1 0x64 ADD PUSH2 0xBD0 JUMP JUMPDEST DUP1 SLOAD PUSH1 0xFF NOT AND PUSH1 0x1 OR DUP2 SSTORE PUSH2 0x31F7 DUP3 PUSH2 0x4789 JUMP JUMPDEST PUSH1 0x40 DUP1 MLOAD TIMESTAMP DUP2 MSTORE NUMBER PUSH1 0x20 DUP3 ADD MSTORE CALLER SWAP2 PUSH1 0x1 PUSH1 0x1 PUSH1 0xA0 SHL SUB DUP6 AND SWAP2 PUSH32 0x4F7E100EB1EE13E903798BD0D6AA854152E07EB05544F392B9409C12935C8095 SWAP2 ADD JUMPDEST PUSH1 0x40 MLOAD DUP1 SWAP2 SUB SWAP1 LOG3 POP POP JUMP JUMPDEST PUSH1 0x1 PUSH1 0x1 PUSH1 0xA0 SHL SUB DUP4 AND PUSH2 0x32A5 JUMPI PUSH1 0x40 MLOAD PUSH3 0x461BCD PUSH1 0xE5 SHL DUP2 MSTORE PUSH1 0x20 PUSH1 0x4 DUP3 ADD MSTORE PUSH1 0x25 PUSH1 0x24 DUP3 ADD MSTORE PUSH32 0x45524332303A207472616E736665722066726F6D20746865207A65726F206164 PUSH1 0x44 DUP3 ADD MSTORE PUSH5 0x6472657373 PUSH1 0xD8 SHL PUSH1 0x64 DUP3 ADD MSTORE PUSH1 0x84 ADD PUSH2 0xBD0 JUMP JUMPDEST PUSH1 0x1 PUSH1 0x1 PUSH1 0xA0 SHL SUB DUP3 AND PUSH2 0x3307 JUMPI PUSH1 0x40 MLOAD PUSH3 0x461BCD PUSH1 0xE5 SHL DUP2 MSTORE PUSH1 0x20 PUSH1 0x4 DUP3 ADD MSTORE PUSH1 0x23 PUSH1 0x24 DUP3 ADD MSTORE PUSH32 0x45524332303A207472616E7366657220746F20746865207A65726F2061646472 PUSH1 0x44 DUP3 ADD MSTORE PUSH3 0x657373 PUSH1 0xE8 SHL PUSH1 0x64 DUP3 ADD MSTORE PUSH1 0x84 ADD PUSH2 0xBD0 JUMP JUMPDEST PUSH1 0x1 PUSH1 0x1 PUSH1 0xA0 SHL SUB DUP4 AND PUSH1 0x0 SWAP1 DUP2 MSTORE PUSH1 0x20 DUP2 SWAP1 MSTORE PUSH1 0x40 SWAP1 KECCAK256 SLOAD DUP2 DUP2 LT ISZERO PUSH2 0x337F JUMPI PUSH1 0x40 MLOAD PUSH3 0x461BCD PUSH1 0xE5 SHL DUP2 MSTORE PUSH1 0x20 PUSH1 0x4 DUP3 ADD MSTORE PUSH1 0x26 PUSH1 0x24 DUP3 ADD MSTORE PUSH32 0x45524332303A207472616E7366657220616D6F756E7420657863656564732062 PUSH1 0x44 DUP3 ADD MSTORE PUSH6 0x616C616E6365 PUSH1 0xD0 SHL PUSH1 0x64 DUP3 ADD MSTORE PUSH1 0x84 ADD PUSH2 0xBD0 JUMP JUMPDEST PUSH1 0x1 PUSH1 0x1 PUSH1 0xA0 SHL SUB DUP1 DUP6 AND PUSH1 0x0 SWAP1 DUP2 MSTORE PUSH1 0x20 DUP2 SWAP1 MSTORE PUSH1 0x40 DUP1 DUP3 KECCAK256 DUP6 DUP6 SUB SWAP1 SSTORE SWAP2 DUP6 AND DUP2 MSTORE SWAP1 DUP2 KECCAK256 DUP1 SLOAD DUP5 SWAP3 SWAP1 PUSH2 0x33B6 SWAP1 DUP5 SWAP1 PUSH2 0x57D6 JUMP JUMPDEST SWAP3 POP POP DUP2 SWAP1 SSTORE POP DUP3 PUSH1 0x1 PUSH1 0x1 PUSH1 0xA0 SHL SUB AND DUP5 PUSH1 0x1 PUSH1 0x1 PUSH1 0xA0 SHL SUB AND PUSH32 0xDDF252AD1BE2C89B69C2B068FC378DAA952BA7F163C4A11628F55A4DF523B3EF DUP5 PUSH1 0x40 MLOAD PUSH2 0x3402 SWAP2 DUP2 MSTORE PUSH1 0x20 ADD SWAP1 JUMP JUMPDEST PUSH1 0x40 MLOAD DUP1 SWAP2 SUB SWAP1 LOG3 JUMPDEST POP POP POP POP JUMP JUMPDEST PUSH1 0x1 PUSH1 0x1 PUSH1 0xA0 SHL SUB DUP2 AND PUSH1 0x0 DUP2 DUP2 MSTORE PUSH1 0x5 PUSH1 0x20 MSTORE PUSH1 0x40 SWAP1 DUP2 SWAP1 KECCAK256 DUP1 SLOAD PUSH2 0xFF00 NOT AND DUP2 SSTORE SWAP1 MLOAD SWAP1 SWAP2 CALLER SWAP2 PUSH32 0xAEE911EEC8B2DF8F3AE0464841541B1E5F339519BD5CF51889FE8B07FECFF658 SWAP1 PUSH2 0x3472 SWAP1 TIMESTAMP SWAP1 NUMBER SWAP1 SWAP2 DUP3 MSTORE PUSH1 0x20 DUP3 ADD MSTORE PUSH1 0x40 ADD SWAP1 JUMP JUMPDEST PUSH1 0x40 MLOAD DUP1 SWAP2 SUB SWAP1 LOG3 PUSH2 0x118C DUP3 PUSH2 0x4840 JUMP JUMPDEST PUSH1 0x1 PUSH1 0x1 PUSH1 0xA0 SHL SUB DUP2 AND PUSH1 0x0 DUP2 DUP2 MSTORE PUSH1 0x5 PUSH1 0x20 MSTORE PUSH1 0x40 SWAP1 DUP2 SWAP1 KECCAK256 DUP1 SLOAD PUSH1 0xFF NOT AND DUP2 SSTORE SWAP1 MLOAD SWAP1 SWAP2 CALLER SWAP2 PUSH32 0xEFA2735987005AAA89C050C0FF8CC9AE7D9079D19382081C429130F98C52D480 SWAP1 PUSH2 0x3472 SWAP1 TIMESTAMP SWAP1 NUMBER SWAP1 SWAP2 DUP3 MSTORE PUSH1 0x20 DUP3 ADD MSTORE PUSH1 0x40 ADD SWAP1 JUMP JUMPDEST PUSH1 0x40 DUP1 MLOAD DUP1 DUP3 ADD SWAP1 SWAP2 MSTORE PUSH1 0x1C DUP2 MSTORE PUSH32 0x19457468657265756D205369676E6564204D6573736167653A0A333200000000 PUSH1 0x20 DUP3 ADD MSTORE PUSH1 0x0 DUP2 PUSH2 0x3527 PUSH1 0xE0 DUP6 ADD DUP6 PUSH2 0x5B76 JUMP JUMPDEST PUSH2 0x3534 PUSH1 0x20 DUP8 ADD DUP8 PUSH2 0x4E12 JUMP JUMPDEST PUSH2 0x3544 PUSH1 0x40 DUP9 ADD PUSH1 0x20 DUP10 ADD PUSH2 0x4E12 JUMP JUMPDEST DUP8 PUSH1 0x40 ADD CALLDATALOAD DUP9 PUSH1 0xC0 ADD CALLDATALOAD PUSH1 0x40 MLOAD PUSH1 0x20 ADD PUSH2 0x3563 SWAP7 SWAP6 SWAP5 SWAP4 SWAP3 SWAP2 SWAP1 PUSH2 0x5BBC JUMP JUMPDEST PUSH1 0x40 MLOAD PUSH1 0x20 DUP2 DUP4 SUB SUB DUP2 MSTORE SWAP1 PUSH1 0x40 MSTORE DUP1 MLOAD SWAP1 PUSH1 0x20 ADD KECCAK256 PUSH1 0x40 MLOAD PUSH1 0x20 ADD PUSH2 0x358A SWAP3 SWAP2 SWAP1 PUSH2 0x58D2 JUMP JUMPDEST PUSH1 0x40 DUP1 MLOAD PUSH1 0x1F NOT DUP2 DUP5 SUB ADD DUP2 MSTORE SWAP2 SWAP1 MSTORE DUP1 MLOAD PUSH1 0x20 SWAP1 SWAP2 ADD KECCAK256 SWAP1 POP PUSH1 0x0 PUSH1 0x1 DUP3 PUSH2 0x35B9 PUSH1 0x80 DUP8 ADD PUSH1 0x60 DUP9 ADD PUSH2 0x5BFA JUMP JUMPDEST PUSH1 0x40 DUP1 MLOAD PUSH1 0x0 DUP2 MSTORE PUSH1 0x20 DUP2 ADD DUP1 DUP4 MSTORE SWAP4 SWAP1 SWAP4 MSTORE PUSH1 0xFF SWAP1 SWAP2 AND SWAP1 DUP3 ADD MSTORE PUSH1 0x80 DUP1 DUP8 ADD CALLDATALOAD PUSH1 0x60 DUP4 ADD MSTORE PUSH1 0xA0 DUP1 DUP9 ADD CALLDATALOAD SWAP2 DUP4 ADD SWAP2 SWAP1 SWAP2 MSTORE ADD PUSH1 0x20 PUSH1 0x40 MLOAD PUSH1 0x20 DUP2 SUB SWAP1 DUP1 DUP5 SUB SWAP1 DUP6 GAS STATICCALL ISZERO DUP1 ISZERO PUSH2 0x3610 JUMPI RETURNDATASIZE PUSH1 0x0 DUP1 RETURNDATACOPY RETURNDATASIZE PUSH1 0x0 REVERT JUMPDEST POP POP PUSH1 0x40 MLOAD PUSH1 0x1F NOT ADD MLOAD SWAP2 POP PUSH2 0x362B SWAP1 POP PUSH1 0x20 DUP6 ADD DUP6 PUSH2 0x4E12 JUMP JUMPDEST PUSH1 0x1 PUSH1 0x1 PUSH1 0xA0 SHL SUB AND DUP2 PUSH1 0x1 PUSH1 0x1 PUSH1 0xA0 SHL SUB AND EQ PUSH2 0x3682 JUMPI PUSH1 0x40 MLOAD PUSH3 0x461BCD PUSH1 0xE5 SHL DUP2 MSTORE PUSH1 0x20 PUSH1 0x4 DUP3 ADD MSTORE PUSH1 0x14 PUSH1 0x24 DUP3 ADD MSTORE PUSH20 0x496E76616C69642070726F766964657220666565 PUSH1 0x60 SHL PUSH1 0x44 DUP3 ADD MSTORE PUSH1 0x64 ADD PUSH2 0xBD0 JUMP JUMPDEST PUSH2 0x3692 PUSH1 0x40 DUP6 ADD PUSH1 0x20 DUP7 ADD PUSH2 0x4E12 JUMP JUMPDEST PUSH1 0x1 PUSH1 0x1 PUSH1 0xA0 SHL SUB AND PUSH2 0x36A8 PUSH1 0x20 DUP7 ADD DUP7 PUSH2 0x4E12 JUMP JUMPDEST PUSH1 0x1 PUSH1 0x1 PUSH1 0xA0 SHL SUB AND PUSH32 0xF8ED11CDAAF10ECA2B6C941FB802CB8682AFE86CAC1EB93F70D0780FA062C544 PUSH1 0x40 DUP8 ADD CALLDATALOAD PUSH2 0x36E4 PUSH1 0xE0 DUP10 ADD DUP10 PUSH2 0x5B76 JUMP JUMPDEST PUSH2 0x36F4 PUSH1 0x80 DUP12 ADD PUSH1 0x60 DUP13 ADD PUSH2 0x5BFA JUMP JUMPDEST DUP11 PUSH1 0x80 ADD CALLDATALOAD DUP12 PUSH1 0xA0 ADD CALLDATALOAD DUP13 PUSH1 0xC0 ADD CALLDATALOAD PUSH1 0x40 MLOAD PUSH2 0x3716 SWAP8 SWAP7 SWAP6 SWAP5 SWAP4 SWAP3 SWAP2 SWAP1 PUSH2 0x5C15 JUMP JUMPDEST PUSH1 0x40 MLOAD DUP1 SWAP2 SUB SWAP1 LOG3 PUSH1 0x0 DUP5 PUSH1 0x40 ADD CALLDATALOAD GT DUP1 ISZERO PUSH2 0x374B JUMPI POP PUSH1 0x0 PUSH2 0x373F PUSH1 0x40 DUP7 ADD PUSH1 0x20 DUP8 ADD PUSH2 0x4E12 JUMP JUMPDEST PUSH1 0x1 PUSH1 0x1 PUSH1 0xA0 SHL SUB AND EQ ISZERO JUMPDEST DUP1 ISZERO PUSH2 0x376D JUMPI POP PUSH1 0x0 PUSH2 0x3761 PUSH1 0x20 DUP7 ADD DUP7 PUSH2 0x4E12 JUMP JUMPDEST PUSH1 0x1 PUSH1 0x1 PUSH1 0xA0 SHL SUB AND EQ ISZERO JUMPDEST ISZERO PUSH2 0x340B JUMPI PUSH1 0x12 SLOAD PUSH1 0x40 DUP1 MLOAD PUSH4 0x6C45E881 PUSH1 0xE0 SHL DUP2 MSTORE SWAP1 MLOAD PUSH1 0x0 SWAP3 PUSH1 0x1 PUSH1 0x1 PUSH1 0xA0 SHL SUB AND SWAP2 PUSH4 0x6C45E881 SWAP2 PUSH1 0x4 DUP1 DUP4 ADD SWAP3 PUSH1 0x20 SWAP3 SWAP2 SWAP1 DUP3 SWAP1 SUB ADD DUP2 DUP7 GAS STATICCALL ISZERO DUP1 ISZERO PUSH2 0x37BC JUMPI RETURNDATASIZE PUSH1 0x0 DUP1 RETURNDATACOPY RETURNDATASIZE PUSH1 0x0 REVERT JUMPDEST POP POP POP POP PUSH1 0x40 MLOAD RETURNDATASIZE PUSH1 0x1F NOT PUSH1 0x1F DUP3 ADD AND DUP3 ADD DUP1 PUSH1 0x40 MSTORE POP DUP2 ADD SWAP1 PUSH2 0x37E0 SWAP2 SWAP1 PUSH2 0x5804 JUMP JUMPDEST SWAP1 POP PUSH1 0x0 DUP2 ISZERO PUSH2 0x380D JUMPI PUSH2 0x380A PUSH8 0xDE0B6B3A7640000 PUSH2 0x3804 PUSH1 0x40 DUP10 ADD CALLDATALOAD DUP6 PUSH2 0x498E JUMP JUMPDEST SWAP1 PUSH2 0x499A JUMP JUMPDEST SWAP1 POP JUMPDEST PUSH1 0x0 PUSH2 0x381D PUSH1 0x40 DUP9 ADD CALLDATALOAD DUP4 PUSH2 0x416C JUMP JUMPDEST SWAP1 POP PUSH2 0x383E PUSH2 0x3832 PUSH1 0x40 DUP10 ADD PUSH1 0x20 DUP11 ADD PUSH2 0x4E12 JUMP JUMPDEST CALLER ADDRESS DUP11 PUSH1 0x40 ADD CALLDATALOAD PUSH2 0x401E JUMP JUMPDEST PUSH2 0x386F PUSH2 0x384E PUSH1 0x20 DUP10 ADD DUP10 PUSH2 0x4E12 JUMP JUMPDEST DUP3 PUSH2 0x385F PUSH1 0x40 DUP12 ADD PUSH1 0x20 DUP13 ADD PUSH2 0x4E12 JUMP JUMPDEST PUSH1 0x1 PUSH1 0x1 PUSH1 0xA0 SHL SUB AND SWAP2 SWAP1 PUSH2 0x49A6 JUMP JUMPDEST DUP2 ISZERO PUSH2 0x2BF5 JUMPI PUSH1 0x12 SLOAD PUSH1 0x40 DUP1 MLOAD PUSH4 0x1A81876D PUSH1 0xE0 SHL DUP2 MSTORE SWAP1 MLOAD PUSH2 0x2BF5 SWAP3 PUSH1 0x1 PUSH1 0x1 PUSH1 0xA0 SHL SUB AND SWAP2 PUSH4 0x1A81876D SWAP2 PUSH1 0x4 DUP1 DUP4 ADD SWAP3 PUSH1 0x20 SWAP3 SWAP2 SWAP1 DUP3 SWAP1 SUB ADD DUP2 DUP7 GAS STATICCALL ISZERO DUP1 ISZERO PUSH2 0x38C0 JUMPI RETURNDATASIZE PUSH1 0x0 DUP1 RETURNDATACOPY RETURNDATASIZE PUSH1 0x0 REVERT JUMPDEST POP POP POP POP PUSH1 0x40 MLOAD RETURNDATASIZE PUSH1 0x1F NOT PUSH1 0x1F DUP3 ADD AND DUP3 ADD DUP1 PUSH1 0x40 MSTORE POP DUP2 ADD SWAP1 PUSH2 0x38E4 SWAP2 SWAP1 PUSH2 0x5737 JUMP JUMPDEST DUP4 PUSH2 0x385F PUSH1 0x40 DUP12 ADD PUSH1 0x20 DUP13 ADD PUSH2 0x4E12 JUMP JUMPDEST PUSH1 0x0 PUSH2 0xDC3 DUP3 DUP5 PUSH2 0x57D6 JUMP JUMPDEST PUSH1 0x1 PUSH1 0x1 PUSH1 0xA0 SHL SUB DUP3 AND PUSH2 0x3957 JUMPI PUSH1 0x40 MLOAD PUSH3 0x461BCD PUSH1 0xE5 SHL DUP2 MSTORE PUSH1 0x20 PUSH1 0x4 DUP3 ADD MSTORE PUSH1 0x1F PUSH1 0x24 DUP3 ADD MSTORE PUSH32 0x45524332303A206D696E7420746F20746865207A65726F206164647265737300 PUSH1 0x44 DUP3 ADD MSTORE PUSH1 0x64 ADD PUSH2 0xBD0 JUMP JUMPDEST DUP1 PUSH1 0x2 PUSH1 0x0 DUP3 DUP3 SLOAD PUSH2 0x3969 SWAP2 SWAP1 PUSH2 0x57D6 JUMP JUMPDEST SWAP1 SWAP2 SSTORE POP POP PUSH1 0x1 PUSH1 0x1 PUSH1 0xA0 SHL SUB DUP3 AND PUSH1 0x0 SWAP1 DUP2 MSTORE PUSH1 0x20 DUP2 SWAP1 MSTORE PUSH1 0x40 DUP2 KECCAK256 DUP1 SLOAD DUP4 SWAP3 SWAP1 PUSH2 0x3996 SWAP1 DUP5 SWAP1 PUSH2 0x57D6 JUMP JUMPDEST SWAP1 SWAP2 SSTORE POP POP PUSH1 0x40 MLOAD DUP2 DUP2 MSTORE PUSH1 0x1 PUSH1 0x1 PUSH1 0xA0 SHL SUB DUP4 AND SWAP1 PUSH1 0x0 SWAP1 PUSH32 0xDDF252AD1BE2C89B69C2B068FC378DAA952BA7F163C4A11628F55A4DF523B3EF SWAP1 PUSH1 0x20 ADD PUSH1 0x40 MLOAD DUP1 SWAP2 SUB SWAP1 LOG3 POP POP JUMP JUMPDEST PUSH1 0x1 PUSH1 0x1 PUSH1 0xA0 SHL SUB DUP3 AND PUSH2 0x3A40 JUMPI PUSH1 0x40 MLOAD PUSH3 0x461BCD PUSH1 0xE5 SHL DUP2 MSTORE PUSH1 0x20 PUSH1 0x4 DUP3 ADD MSTORE PUSH1 0x21 PUSH1 0x24 DUP3 ADD MSTORE PUSH32 0x45524332303A206275726E2066726F6D20746865207A65726F20616464726573 PUSH1 0x44 DUP3 ADD MSTORE PUSH1 0x73 PUSH1 0xF8 SHL PUSH1 0x64 DUP3 ADD MSTORE PUSH1 0x84 ADD PUSH2 0xBD0 JUMP JUMPDEST PUSH1 0x1 PUSH1 0x1 PUSH1 0xA0 SHL SUB DUP3 AND PUSH1 0x0 SWAP1 DUP2 MSTORE PUSH1 0x20 DUP2 SWAP1 MSTORE PUSH1 0x40 SWAP1 KECCAK256 SLOAD DUP2 DUP2 LT ISZERO PUSH2 0x3AB4 JUMPI PUSH1 0x40 MLOAD PUSH3 0x461BCD PUSH1 0xE5 SHL DUP2 MSTORE PUSH1 0x20 PUSH1 0x4 DUP3 ADD MSTORE PUSH1 0x22 PUSH1 0x24 DUP3 ADD MSTORE PUSH32 0x45524332303A206275726E20616D6F756E7420657863656564732062616C616E PUSH1 0x44 DUP3 ADD MSTORE PUSH2 0x6365 PUSH1 0xF0 SHL PUSH1 0x64 DUP3 ADD MSTORE PUSH1 0x84 ADD PUSH2 0xBD0 JUMP JUMPDEST PUSH1 0x1 PUSH1 0x1 PUSH1 0xA0 SHL SUB DUP4 AND PUSH1 0x0 SWAP1 DUP2 MSTORE PUSH1 0x20 DUP2 SWAP1 MSTORE PUSH1 0x40 DUP2 KECCAK256 DUP4 DUP4 SUB SWAP1 SSTORE PUSH1 0x2 DUP1 SLOAD DUP5 SWAP3 SWAP1 PUSH2 0x3AE3 SWAP1 DUP5 SWAP1 PUSH2 0x5C58 JUMP JUMPDEST SWAP1 SWAP2 SSTORE POP POP PUSH1 0x40 MLOAD DUP3 DUP2 MSTORE PUSH1 0x0 SWAP1 PUSH1 0x1 PUSH1 0x1 PUSH1 0xA0 SHL SUB DUP6 AND SWAP1 PUSH32 0xDDF252AD1BE2C89B69C2B068FC378DAA952BA7F163C4A11628F55A4DF523B3EF SWAP1 PUSH1 0x20 ADD PUSH1 0x40 MLOAD DUP1 SWAP2 SUB SWAP1 LOG3 POP POP POP JUMP JUMPDEST PUSH1 0x15 SLOAD PUSH1 0x14 SLOAD PUSH1 0x0 SWAP2 PUSH2 0x3B40 SWAP2 PUSH2 0x57D6 JUMP JUMPDEST SWAP1 POP PUSH1 0x0 DUP1 DUP3 PUSH1 0x1 PUSH1 0x1 PUSH1 0x40 SHL SUB DUP2 GT ISZERO PUSH2 0x3B5D JUMPI PUSH2 0x3B5D PUSH2 0x5037 JUMP JUMPDEST PUSH1 0x40 MLOAD SWAP1 DUP1 DUP3 MSTORE DUP1 PUSH1 0x20 MUL PUSH1 0x20 ADD DUP3 ADD PUSH1 0x40 MSTORE DUP1 ISZERO PUSH2 0x3B86 JUMPI DUP2 PUSH1 0x20 ADD PUSH1 0x20 DUP3 MUL DUP1 CALLDATASIZE DUP4 CALLDATACOPY ADD SWAP1 POP JUMPDEST POP SWAP1 POP PUSH1 0x0 JUMPDEST PUSH1 0x14 SLOAD DUP2 LT ISZERO PUSH2 0x3E6C JUMPI PUSH1 0x0 PUSH1 0x14 DUP3 DUP2 SLOAD DUP2 LT PUSH2 0x3BAB JUMPI PUSH2 0x3BAB PUSH2 0x57EE JUMP JUMPDEST PUSH1 0x0 SWAP2 DUP3 MSTORE PUSH1 0x20 DUP3 KECCAK256 PUSH1 0x2 SWAP1 SWAP2 MUL ADD SLOAD PUSH1 0x14 DUP1 SLOAD PUSH1 0x1 PUSH1 0x1 PUSH1 0xA0 SHL SUB SWAP1 SWAP3 AND SWAP4 POP DUP3 SWAP2 DUP3 SWAP2 DUP6 SWAP2 PUSH4 0x4C87087D SWAP2 SWAP1 DUP9 SWAP1 DUP2 LT PUSH2 0x3BE9 JUMPI PUSH2 0x3BE9 PUSH2 0x57EE JUMP JUMPDEST SWAP1 PUSH1 0x0 MSTORE PUSH1 0x20 PUSH1 0x0 KECCAK256 SWAP1 PUSH1 0x2 MUL ADD PUSH1 0x1 ADD SLOAD PUSH1 0x40 MLOAD DUP3 PUSH4 0xFFFFFFFF AND PUSH1 0xE0 SHL DUP2 MSTORE PUSH1 0x4 ADD PUSH2 0x3C19 SWAP2 DUP2 MSTORE PUSH1 0x20 ADD SWAP1 JUMP JUMPDEST PUSH2 0x180 PUSH1 0x40 MLOAD DUP1 DUP4 SUB DUP2 DUP7 GAS STATICCALL ISZERO DUP1 ISZERO PUSH2 0x3C37 JUMPI RETURNDATASIZE PUSH1 0x0 DUP1 RETURNDATACOPY RETURNDATASIZE PUSH1 0x0 REVERT JUMPDEST POP POP POP POP PUSH1 0x40 MLOAD RETURNDATASIZE PUSH1 0x1F NOT PUSH1 0x1F DUP3 ADD AND DUP3 ADD DUP1 PUSH1 0x40 MSTORE POP DUP2 ADD SWAP1 PUSH2 0x3C5B SWAP2 SWAP1 PUSH2 0x5C6F JUMP JUMPDEST SWAP12 POP SWAP12 POP SWAP12 POP POP POP POP POP POP POP POP POP POP PUSH1 0x0 DUP3 GT ISZERO PUSH2 0x3D01 JUMPI DUP4 PUSH1 0x1 PUSH1 0x1 PUSH1 0xA0 SHL SUB AND PUSH4 0xF32F9476 PUSH1 0x14 DUP8 DUP2 SLOAD DUP2 LT PUSH2 0x3C95 JUMPI PUSH2 0x3C95 PUSH2 0x57EE JUMP JUMPDEST SWAP1 PUSH1 0x0 MSTORE PUSH1 0x20 PUSH1 0x0 KECCAK256 SWAP1 PUSH1 0x2 MUL ADD PUSH1 0x1 ADD SLOAD DUP5 PUSH1 0x40 MLOAD DUP4 PUSH4 0xFFFFFFFF AND PUSH1 0xE0 SHL DUP2 MSTORE PUSH1 0x4 ADD PUSH2 0x3CCE SWAP3 SWAP2 SWAP1 SWAP2 DUP3 MSTORE PUSH1 0x20 DUP3 ADD MSTORE PUSH1 0x40 ADD SWAP1 JUMP JUMPDEST PUSH1 0x0 PUSH1 0x40 MLOAD DUP1 DUP4 SUB DUP2 PUSH1 0x0 DUP8 DUP1 EXTCODESIZE ISZERO DUP1 ISZERO PUSH2 0x3CE8 JUMPI PUSH1 0x0 DUP1 REVERT JUMPDEST POP GAS CALL ISZERO DUP1 ISZERO PUSH2 0x3CFC JUMPI RETURNDATASIZE PUSH1 0x0 DUP1 RETURNDATACOPY RETURNDATASIZE PUSH1 0x0 REVERT JUMPDEST POP POP POP POP JUMPDEST DUP3 ISZERO PUSH2 0x3D95 JUMPI DUP4 PUSH1 0x1 PUSH1 0x1 PUSH1 0xA0 SHL SUB AND PUSH4 0xC612E48A PUSH1 0x14 DUP8 DUP2 SLOAD DUP2 LT PUSH2 0x3D29 JUMPI PUSH2 0x3D29 PUSH2 0x57EE JUMP JUMPDEST SWAP1 PUSH1 0x0 MSTORE PUSH1 0x20 PUSH1 0x0 KECCAK256 SWAP1 PUSH1 0x2 MUL ADD PUSH1 0x1 ADD SLOAD DUP6 PUSH1 0x40 MLOAD DUP4 PUSH4 0xFFFFFFFF AND PUSH1 0xE0 SHL DUP2 MSTORE PUSH1 0x4 ADD PUSH2 0x3D62 SWAP3 SWAP2 SWAP1 SWAP2 DUP3 MSTORE PUSH1 0x20 DUP3 ADD MSTORE PUSH1 0x40 ADD SWAP1 JUMP JUMPDEST PUSH1 0x0 PUSH1 0x40 MLOAD DUP1 DUP4 SUB DUP2 PUSH1 0x0 DUP8 DUP1 EXTCODESIZE ISZERO DUP1 ISZERO PUSH2 0x3D7C JUMPI PUSH1 0x0 DUP1 REVERT JUMPDEST POP GAS CALL ISZERO DUP1 ISZERO PUSH2 0x3D90 JUMPI RETURNDATASIZE PUSH1 0x0 DUP1 RETURNDATACOPY RETURNDATASIZE PUSH1 0x0 REVERT JUMPDEST POP POP POP POP JUMPDEST PUSH2 0x3DD8 PUSH1 0x14 DUP7 DUP2 SLOAD DUP2 LT PUSH2 0x3DAB JUMPI PUSH2 0x3DAB PUSH2 0x57EE JUMP JUMPDEST PUSH1 0x0 SWAP2 DUP3 MSTORE PUSH1 0x20 DUP1 DUP4 KECCAK256 PUSH1 0x2 SWAP1 SWAP3 MUL SWAP1 SWAP2 ADD SLOAD PUSH1 0x1 PUSH1 0x1 PUSH1 0xA0 SHL SUB AND DUP3 MSTORE PUSH1 0x5 SWAP1 MSTORE PUSH1 0x40 SWAP1 KECCAK256 SLOAD PUSH1 0xFF AND SWAP1 JUMP JUMPDEST DUP1 ISZERO PUSH2 0x3DE6 JUMPI POP PUSH1 0x1 DUP2 ISZERO ISZERO EQ JUMPDEST ISZERO PUSH2 0x3E55 JUMPI PUSH1 0x14 DUP6 DUP2 SLOAD DUP2 LT PUSH2 0x3DFE JUMPI PUSH2 0x3DFE PUSH2 0x57EE JUMP JUMPDEST PUSH1 0x0 SWAP2 DUP3 MSTORE PUSH1 0x20 SWAP1 SWAP2 KECCAK256 PUSH1 0x2 SWAP1 SWAP2 MUL ADD SLOAD DUP7 MLOAD PUSH1 0x1 PUSH1 0x1 PUSH1 0xA0 SHL SUB SWAP1 SWAP2 AND SWAP1 DUP8 SWAP1 DUP10 SWAP1 DUP2 LT PUSH2 0x3E2F JUMPI PUSH2 0x3E2F PUSH2 0x57EE JUMP JUMPDEST PUSH1 0x1 PUSH1 0x1 PUSH1 0xA0 SHL SUB SWAP1 SWAP3 AND PUSH1 0x20 SWAP3 DUP4 MUL SWAP2 SWAP1 SWAP2 ADD SWAP1 SWAP2 ADD MSTORE DUP7 PUSH2 0x3E51 DUP2 PUSH2 0x5B5B JUMP JUMPDEST SWAP8 POP POP JUMPDEST POP POP POP POP DUP1 DUP1 PUSH2 0x3E64 SWAP1 PUSH2 0x5B5B JUMP JUMPDEST SWAP2 POP POP PUSH2 0x3B8C JUMP JUMPDEST POP PUSH1 0x0 JUMPDEST PUSH1 0x15 SLOAD DUP2 LT ISZERO PUSH2 0x3FB1 JUMPI PUSH1 0x15 DUP2 DUP2 SLOAD DUP2 LT PUSH2 0x3E8D JUMPI PUSH2 0x3E8D PUSH2 0x57EE JUMP JUMPDEST PUSH1 0x0 SWAP2 DUP3 MSTORE PUSH1 0x20 SWAP1 SWAP2 KECCAK256 ADD SLOAD PUSH1 0x40 MLOAD PUSH4 0xF9BFAA7D PUSH1 0xE0 SHL DUP2 MSTORE ADDRESS PUSH1 0x4 DUP3 ADD MSTORE PUSH1 0x1 PUSH1 0x1 PUSH1 0xA0 SHL SUB SWAP1 SWAP2 AND SWAP1 PUSH4 0xF9BFAA7D SWAP1 PUSH1 0x24 ADD PUSH1 0x0 PUSH1 0x40 MLOAD DUP1 DUP4 SUB DUP2 PUSH1 0x0 DUP8 DUP1 EXTCODESIZE ISZERO DUP1 ISZERO PUSH2 0x3EDB JUMPI PUSH1 0x0 DUP1 REVERT JUMPDEST POP GAS CALL ISZERO DUP1 ISZERO PUSH2 0x3EEF JUMPI RETURNDATASIZE PUSH1 0x0 DUP1 RETURNDATACOPY RETURNDATASIZE PUSH1 0x0 REVERT JUMPDEST POP POP POP POP PUSH2 0x3F31 PUSH1 0x15 DUP3 DUP2 SLOAD DUP2 LT PUSH2 0x3F09 JUMPI PUSH2 0x3F09 PUSH2 0x57EE JUMP JUMPDEST PUSH1 0x0 SWAP2 DUP3 MSTORE PUSH1 0x20 DUP1 DUP4 KECCAK256 SWAP1 SWAP2 ADD SLOAD PUSH1 0x1 PUSH1 0x1 PUSH1 0xA0 SHL SUB AND DUP3 MSTORE PUSH1 0x5 SWAP1 MSTORE PUSH1 0x40 SWAP1 KECCAK256 SLOAD PUSH1 0xFF AND SWAP1 JUMP JUMPDEST ISZERO PUSH2 0x3F9F JUMPI PUSH1 0x15 DUP2 DUP2 SLOAD DUP2 LT PUSH2 0x3F49 JUMPI PUSH2 0x3F49 PUSH2 0x57EE JUMP JUMPDEST SWAP1 PUSH1 0x0 MSTORE PUSH1 0x20 PUSH1 0x0 KECCAK256 ADD PUSH1 0x0 SWAP1 SLOAD SWAP1 PUSH2 0x100 EXP SWAP1 DIV PUSH1 0x1 PUSH1 0x1 PUSH1 0xA0 SHL SUB AND DUP3 DUP5 DUP2 MLOAD DUP2 LT PUSH2 0x3F79 JUMPI PUSH2 0x3F79 PUSH2 0x57EE JUMP JUMPDEST PUSH1 0x1 PUSH1 0x1 PUSH1 0xA0 SHL SUB SWAP1 SWAP3 AND PUSH1 0x20 SWAP3 DUP4 MUL SWAP2 SWAP1 SWAP2 ADD SWAP1 SWAP2 ADD MSTORE DUP3 PUSH2 0x3F9B DUP2 PUSH2 0x5B5B JUMP JUMPDEST SWAP4 POP POP JUMPDEST DUP1 PUSH2 0x3FA9 DUP2 PUSH2 0x5B5B JUMP JUMPDEST SWAP2 POP POP PUSH2 0x3E70 JUMP JUMPDEST PUSH2 0x3FB9 PUSH2 0x4A09 JUMP JUMPDEST POP PUSH1 0xC DUP1 SLOAD PUSH1 0x1 PUSH1 0x1 PUSH1 0xA0 SHL SUB NOT AND SWAP1 SSTORE PUSH1 0x0 JUMPDEST DUP3 DUP2 LT ISZERO PUSH2 0x340B JUMPI PUSH2 0x3FEA DUP3 DUP3 DUP2 MLOAD DUP2 LT PUSH2 0x180B JUMPI PUSH2 0x180B PUSH2 0x57EE JUMP JUMPDEST DUP1 PUSH2 0x3FF4 DUP2 PUSH2 0x5B5B JUMP JUMPDEST SWAP2 POP POP PUSH2 0x3FCD JUMP JUMPDEST PUSH1 0xC DUP1 SLOAD PUSH1 0x1 PUSH1 0x1 PUSH1 0xA0 SHL SUB NOT AND PUSH1 0x1 PUSH1 0x1 PUSH1 0xA0 SHL SUB SWAP3 SWAP1 SWAP3 AND SWAP2 SWAP1 SWAP2 OR SWAP1 SSTORE JUMP JUMPDEST PUSH1 0x40 MLOAD PUSH4 0x70A08231 PUSH1 0xE0 SHL DUP2 MSTORE PUSH1 0x1 PUSH1 0x1 PUSH1 0xA0 SHL SUB DUP4 DUP2 AND PUSH1 0x4 DUP4 ADD MSTORE PUSH1 0x0 SWAP2 SWAP1 DUP7 AND SWAP1 PUSH4 0x70A08231 SWAP1 PUSH1 0x24 ADD PUSH1 0x20 PUSH1 0x40 MLOAD DUP1 DUP4 SUB DUP2 DUP7 GAS STATICCALL ISZERO DUP1 ISZERO PUSH2 0x4068 JUMPI RETURNDATASIZE PUSH1 0x0 DUP1 RETURNDATACOPY RETURNDATASIZE PUSH1 0x0 REVERT JUMPDEST POP POP POP POP PUSH1 0x40 MLOAD RETURNDATASIZE PUSH1 0x1F NOT PUSH1 0x1F DUP3 ADD AND DUP3 ADD DUP1 PUSH1 0x40 MSTORE POP DUP2 ADD SWAP1 PUSH2 0x408C SWAP2 SWAP1 PUSH2 0x5804 JUMP JUMPDEST SWAP1 POP PUSH2 0x40A3 PUSH1 0x1 PUSH1 0x1 PUSH1 0xA0 SHL SUB DUP7 AND DUP6 DUP6 DUP6 PUSH2 0x4AB8 JUMP JUMPDEST PUSH2 0x40AD DUP2 DUP4 PUSH2 0x38F5 JUMP JUMPDEST PUSH1 0x40 MLOAD PUSH4 0x70A08231 PUSH1 0xE0 SHL DUP2 MSTORE PUSH1 0x1 PUSH1 0x1 PUSH1 0xA0 SHL SUB DUP6 DUP2 AND PUSH1 0x4 DUP4 ADD MSTORE DUP8 AND SWAP1 PUSH4 0x70A08231 SWAP1 PUSH1 0x24 ADD PUSH1 0x20 PUSH1 0x40 MLOAD DUP1 DUP4 SUB DUP2 DUP7 GAS STATICCALL ISZERO DUP1 ISZERO PUSH2 0x40F3 JUMPI RETURNDATASIZE PUSH1 0x0 DUP1 RETURNDATACOPY RETURNDATASIZE PUSH1 0x0 REVERT JUMPDEST POP POP POP POP PUSH1 0x40 MLOAD RETURNDATASIZE PUSH1 0x1F NOT PUSH1 0x1F DUP3 ADD AND DUP3 ADD DUP1 PUSH1 0x40 MSTORE POP DUP2 ADD SWAP1 PUSH2 0x4117 SWAP2 SWAP1 PUSH2 0x5804 JUMP JUMPDEST LT ISZERO PUSH2 0x4165 JUMPI PUSH1 0x40 MLOAD PUSH3 0x461BCD PUSH1 0xE5 SHL DUP2 MSTORE PUSH1 0x20 PUSH1 0x4 DUP3 ADD MSTORE PUSH1 0x1A PUSH1 0x24 DUP3 ADD MSTORE PUSH32 0x5472616E7366657220616D6F756E7420697320746F6F206C6F77000000000000 PUSH1 0x44 DUP3 ADD MSTORE PUSH1 0x64 ADD PUSH2 0xBD0 JUMP JUMPDEST POP POP POP POP POP JUMP JUMPDEST PUSH1 0x0 PUSH2 0xDC3 DUP3 DUP5 PUSH2 0x5C58 JUMP JUMPDEST PUSH1 0x0 DUP1 PUSH1 0x0 DUP1 DUP5 MLOAD PUSH1 0x41 EQ PUSH2 0x4193 JUMPI PUSH1 0x0 SWAP4 POP POP POP POP PUSH2 0xAB7 JUMP JUMPDEST POP POP POP PUSH1 0x20 DUP3 ADD MLOAD PUSH1 0x40 DUP4 ADD MLOAD PUSH1 0x41 DUP5 ADD MLOAD PUSH1 0xFF AND PUSH1 0x1B DUP2 LT ISZERO PUSH2 0x41BF JUMPI PUSH2 0x41BC PUSH1 0x1B DUP3 PUSH2 0x5D2C JUMP JUMPDEST SWAP1 POP JUMPDEST DUP1 PUSH1 0xFF AND PUSH1 0x1B EQ ISZERO DUP1 ISZERO PUSH2 0x41D7 JUMPI POP DUP1 PUSH1 0xFF AND PUSH1 0x1C EQ ISZERO JUMPDEST ISZERO PUSH2 0x41E8 JUMPI PUSH1 0x0 SWAP4 POP POP POP POP PUSH2 0xAB7 JUMP JUMPDEST PUSH1 0x40 DUP1 MLOAD PUSH1 0x0 DUP2 MSTORE PUSH1 0x20 DUP2 ADD DUP1 DUP4 MSTORE DUP9 SWAP1 MSTORE PUSH1 0xFF DUP4 AND SWAP2 DUP2 ADD SWAP2 SWAP1 SWAP2 MSTORE PUSH1 0x60 DUP2 ADD DUP5 SWAP1 MSTORE PUSH1 0x80 DUP2 ADD DUP4 SWAP1 MSTORE PUSH1 0x1 SWAP1 PUSH1 0xA0 ADD PUSH1 0x20 PUSH1 0x40 MLOAD PUSH1 0x20 DUP2 SUB SWAP1 DUP1 DUP5 SUB SWAP1 DUP6 GAS STATICCALL ISZERO DUP1 ISZERO PUSH2 0x423B JUMPI RETURNDATASIZE PUSH1 0x0 DUP1 RETURNDATACOPY RETURNDATASIZE PUSH1 0x0 REVERT JUMPDEST POP POP PUSH1 0x40 MLOAD PUSH1 0x1F NOT ADD MLOAD SWAP8 SWAP7 POP POP POP POP POP POP POP JUMP JUMPDEST PUSH1 0x1 PUSH1 0x1 PUSH1 0xA0 SHL SUB DUP2 AND ISZERO PUSH2 0xEE6 JUMPI PUSH1 0x1 PUSH1 0x1 PUSH1 0xA0 SHL SUB DUP2 AND PUSH1 0x0 SWAP1 DUP2 MSTORE PUSH1 0x5 PUSH1 0x20 MSTORE PUSH1 0x40 SWAP1 KECCAK256 DUP1 SLOAD PUSH2 0x100 SWAP1 DIV PUSH1 0xFF AND ISZERO PUSH2 0x42D9 JUMPI PUSH1 0x40 MLOAD PUSH3 0x461BCD PUSH1 0xE5 SHL DUP2 MSTORE PUSH1 0x20 PUSH1 0x4 DUP3 ADD MSTORE PUSH1 0x22 PUSH1 0x24 DUP3 ADD MSTORE PUSH32 0x4552433230526F6C65733A2020414C5245414459204120464545204D414E4147 PUSH1 0x44 DUP3 ADD MSTORE PUSH2 0x22A9 PUSH1 0xF1 SHL PUSH1 0x64 DUP3 ADD MSTORE PUSH1 0x84 ADD PUSH2 0xBD0 JUMP JUMPDEST DUP1 SLOAD PUSH2 0xFF00 NOT AND PUSH2 0x100 OR DUP2 SSTORE PUSH2 0x42EF DUP3 PUSH2 0x4789 JUMP JUMPDEST PUSH1 0x40 DUP1 MLOAD TIMESTAMP DUP2 MSTORE NUMBER PUSH1 0x20 DUP3 ADD MSTORE CALLER SWAP2 PUSH1 0x1 PUSH1 0x1 PUSH1 0xA0 SHL SUB DUP6 AND SWAP2 PUSH32 0xB17DA2E9910B4BA5754E8872385BA315A238BAFB5AE221FC85093C33432C40A7 SWAP2 ADD PUSH2 0x3235 JUMP JUMPDEST PUSH1 0x0 DUP1 DUP5 PUSH1 0x0 DUP2 MLOAD DUP2 LT PUSH2 0x4347 JUMPI PUSH2 0x4347 PUSH2 0x57EE JUMP JUMPDEST PUSH1 0x20 MUL PUSH1 0x20 ADD ADD MLOAD SWAP1 POP DUP5 PUSH1 0x1 DUP2 MLOAD DUP2 LT PUSH2 0x4364 JUMPI PUSH2 0x4364 PUSH2 0x57EE JUMP JUMPDEST PUSH1 0x20 SWAP1 DUP2 MUL SWAP2 SWAP1 SWAP2 ADD ADD MLOAD PUSH1 0x12 DUP1 SLOAD PUSH1 0x1 PUSH1 0x1 PUSH1 0xA0 SHL SUB NOT AND PUSH1 0x1 PUSH1 0x1 PUSH1 0xA0 SHL SUB SWAP3 DUP4 AND OR SWAP1 SSTORE DUP2 AND PUSH2 0x43EE JUMPI PUSH1 0x40 MLOAD PUSH3 0x461BCD PUSH1 0xE5 SHL DUP2 MSTORE PUSH1 0x20 PUSH1 0x4 DUP3 ADD MSTORE PUSH1 0x2C PUSH1 0x24 DUP3 ADD MSTORE PUSH32 0x455243323054656D706C6174653A20496E76616C6964206D696E7465722C2020 PUSH1 0x44 DUP3 ADD MSTORE PUSH12 0x7A65726F2061646472657373 PUSH1 0xA0 SHL PUSH1 0x64 DUP3 ADD MSTORE PUSH1 0x84 ADD PUSH2 0xBD0 JUMP JUMPDEST PUSH1 0x12 SLOAD PUSH1 0x1 PUSH1 0x1 PUSH1 0xA0 SHL SUB AND PUSH2 0x445A JUMPI PUSH1 0x40 MLOAD PUSH3 0x461BCD PUSH1 0xE5 SHL DUP2 MSTORE PUSH1 0x20 PUSH1 0x4 DUP3 ADD MSTORE PUSH1 0x2B PUSH1 0x24 DUP3 ADD MSTORE PUSH32 0x455243323054656D706C6174653A20496E76616C696420726F757465722C207A PUSH1 0x44 DUP3 ADD MSTORE PUSH11 0x65726F2061646472657373 PUSH1 0xA8 SHL PUSH1 0x64 DUP3 ADD MSTORE PUSH1 0x84 ADD PUSH2 0xBD0 JUMP JUMPDEST PUSH1 0x0 NOT PUSH1 0xA SSTORE DUP7 MLOAD DUP8 SWAP1 PUSH1 0x0 SWAP1 PUSH2 0x4473 JUMPI PUSH2 0x4473 PUSH2 0x57EE JUMP JUMPDEST PUSH1 0x20 MUL PUSH1 0x20 ADD ADD MLOAD PUSH1 0x8 SWAP1 DUP1 MLOAD SWAP1 PUSH1 0x20 ADD SWAP1 PUSH2 0x4490 SWAP3 SWAP2 SWAP1 PUSH2 0x4D3A JUMP JUMPDEST POP DUP7 PUSH1 0x1 DUP2 MLOAD DUP2 LT PUSH2 0x44A4 JUMPI PUSH2 0x44A4 PUSH2 0x57EE JUMP JUMPDEST PUSH1 0x20 MUL PUSH1 0x20 ADD ADD MLOAD PUSH1 0x9 SWAP1 DUP1 MLOAD SWAP1 PUSH1 0x20 ADD SWAP1 PUSH2 0x44C1 SWAP3 SWAP2 SWAP1 PUSH2 0x4D3A JUMP JUMPDEST POP PUSH1 0xB DUP1 SLOAD PUSH1 0xFF NOT PUSH1 0x1 PUSH1 0x1 PUSH1 0xA0 SHL SUB DUP5 AND PUSH2 0x100 MUL AND PUSH1 0x1 PUSH1 0x1 PUSH1 0xA8 SHL SUB NOT SWAP1 SWAP2 AND OR PUSH1 0x1 OR SWAP1 SSTORE DUP6 MLOAD PUSH2 0x4501 SWAP1 DUP8 SWAP1 PUSH1 0x0 SWAP1 PUSH2 0x180B JUMPI PUSH2 0x180B PUSH2 0x57EE JUMP JUMPDEST PUSH1 0x0 PUSH1 0x1 PUSH1 0x1 PUSH1 0xA0 SHL SUB AND DUP7 PUSH1 0x1 DUP2 MLOAD DUP2 LT PUSH2 0x451F JUMPI PUSH2 0x451F PUSH2 0x57EE JUMP JUMPDEST PUSH1 0x20 MUL PUSH1 0x20 ADD ADD MLOAD PUSH1 0x1 PUSH1 0x1 PUSH1 0xA0 SHL SUB AND EQ PUSH2 0x45C9 JUMPI PUSH2 0x4558 DUP7 PUSH1 0x1 DUP2 MLOAD DUP2 LT PUSH2 0x454B JUMPI PUSH2 0x454B PUSH2 0x57EE JUMP JUMPDEST PUSH1 0x20 MUL PUSH1 0x20 ADD ADD MLOAD PUSH2 0x3FFC JUMP JUMPDEST DUP6 PUSH1 0x1 DUP2 MLOAD DUP2 LT PUSH2 0x456B JUMPI PUSH2 0x456B PUSH2 0x57EE JUMP JUMPDEST PUSH1 0x20 MUL PUSH1 0x20 ADD ADD MLOAD PUSH1 0x1 PUSH1 0x1 PUSH1 0xA0 SHL SUB AND CALLER PUSH1 0x1 PUSH1 0x1 PUSH1 0xA0 SHL SUB AND PUSH32 0x4D7694D695C57CC54947177C8E8A0E61AAE664E9223492A798C32FADFC6419CC TIMESTAMP NUMBER PUSH1 0x40 MLOAD PUSH2 0x45C0 SWAP3 SWAP2 SWAP1 SWAP2 DUP3 MSTORE PUSH1 0x20 DUP3 ADD MSTORE PUSH1 0x40 ADD SWAP1 JUMP JUMPDEST PUSH1 0x40 MLOAD DUP1 SWAP2 SUB SWAP1 LOG3 JUMPDEST DUP6 PUSH1 0x2 DUP2 MLOAD DUP2 LT PUSH2 0x45DC JUMPI PUSH2 0x45DC PUSH2 0x57EE JUMP JUMPDEST PUSH1 0x20 MUL PUSH1 0x20 ADD ADD MLOAD PUSH1 0xD PUSH1 0x0 PUSH2 0x100 EXP DUP2 SLOAD DUP2 PUSH1 0x1 PUSH1 0x1 PUSH1 0xA0 SHL SUB MUL NOT AND SWAP1 DUP4 PUSH1 0x1 PUSH1 0x1 PUSH1 0xA0 SHL SUB AND MUL OR SWAP1 SSTORE POP DUP6 PUSH1 0x3 DUP2 MLOAD DUP2 LT PUSH2 0x461D JUMPI PUSH2 0x461D PUSH2 0x57EE JUMP JUMPDEST PUSH1 0x20 MUL PUSH1 0x20 ADD ADD MLOAD PUSH1 0xE PUSH1 0x0 PUSH2 0x100 EXP DUP2 SLOAD DUP2 PUSH1 0x1 PUSH1 0x1 PUSH1 0xA0 SHL SUB MUL NOT AND SWAP1 DUP4 PUSH1 0x1 PUSH1 0x1 PUSH1 0xA0 SHL SUB AND MUL OR SWAP1 SSTORE POP DUP4 PUSH1 0x1 DUP2 MLOAD DUP2 LT PUSH2 0x465E JUMPI PUSH2 0x465E PUSH2 0x57EE JUMP JUMPDEST PUSH1 0x20 SWAP1 DUP2 MUL SWAP2 SWAP1 SWAP2 ADD DUP2 ADD MLOAD PUSH1 0xF DUP2 SWAP1 SSTORE PUSH1 0xD SLOAD PUSH1 0xE SLOAD PUSH1 0x40 DUP1 MLOAD CALLER DUP2 MSTORE PUSH1 0x1 PUSH1 0x1 PUSH1 0xA0 SHL SUB SWAP4 DUP5 AND SWAP6 DUP2 ADD SWAP6 SWAP1 SWAP6 MSTORE SWAP2 AND SWAP1 DUP4 ADD MSTORE PUSH1 0x60 DUP3 ADD MSTORE PUSH32 0x2AB4B3FC023109C2D0DA394BDA239166C833F63C42B71B67ED4B836DCA0DDFE SWAP1 PUSH1 0x80 ADD PUSH1 0x40 MLOAD DUP1 SWAP2 SUB SWAP1 LOG1 PUSH1 0x40 MLOAD CHAINID SWAP1 PUSH32 0x8B73C3C69BB8FE3D512ECC4CF759CC79239F7B179B0FFACAA9A75D522B39400F SWAP1 PUSH2 0x46F9 SWAP1 PUSH1 0x8 SWAP1 PUSH2 0x5D51 JUMP JUMPDEST PUSH1 0x40 DUP1 MLOAD SWAP2 DUP3 SWAP1 SUB DUP3 KECCAK256 DUP3 DUP3 ADD DUP3 MSTORE PUSH1 0x1 DUP4 MSTORE PUSH1 0x31 PUSH1 0xF8 SHL PUSH1 0x20 SWAP4 DUP5 ADD MSTORE DUP2 MLOAD SWAP3 DUP4 ADD SWAP4 SWAP1 SWAP4 MSTORE DUP2 ADD SWAP2 SWAP1 SWAP2 MSTORE PUSH32 0xC89EFDAA54C0F20C7ADF612882DF0950F5A951637E0307CDCB4C672F298B8BC6 PUSH1 0x60 DUP3 ADD MSTORE PUSH1 0x80 DUP2 ADD DUP3 SWAP1 MSTORE ADDRESS PUSH1 0xA0 DUP3 ADD MSTORE PUSH1 0xC0 ADD PUSH1 0x40 DUP1 MLOAD DUP1 DUP4 SUB PUSH1 0x1F NOT ADD DUP2 MSTORE SWAP2 SWAP1 MSTORE DUP1 MLOAD PUSH1 0x20 SWAP1 SWAP2 ADD KECCAK256 PUSH1 0x10 SSTORE POP POP PUSH1 0xB SLOAD PUSH1 0xFF AND SWAP7 SWAP6 POP POP POP POP POP POP JUMP JUMPDEST PUSH1 0x0 JUMPDEST PUSH1 0x6 SLOAD DUP2 LT ISZERO PUSH2 0x47E5 JUMPI DUP2 PUSH1 0x1 PUSH1 0x1 PUSH1 0xA0 SHL SUB AND PUSH1 0x6 DUP3 DUP2 SLOAD DUP2 LT PUSH2 0x47B3 JUMPI PUSH2 0x47B3 PUSH2 0x57EE JUMP JUMPDEST PUSH1 0x0 SWAP2 DUP3 MSTORE PUSH1 0x20 SWAP1 SWAP2 KECCAK256 ADD SLOAD PUSH1 0x1 PUSH1 0x1 PUSH1 0xA0 SHL SUB AND EQ ISZERO PUSH2 0x47D3 JUMPI PUSH2 0x47E5 JUMP JUMPDEST DUP1 PUSH2 0x47DD DUP2 PUSH2 0x5B5B JUMP JUMPDEST SWAP2 POP POP PUSH2 0x478C JUMP JUMPDEST PUSH1 0x6 SLOAD DUP2 EQ ISZERO PUSH2 0x118C JUMPI PUSH1 0x6 DUP1 SLOAD PUSH1 0x1 DUP2 ADD DUP3 SSTORE PUSH1 0x0 SWAP2 SWAP1 SWAP2 MSTORE PUSH32 0xF652222313E28459528D920B65115C16C04F3EFC82AAEDC97BE59F3F377C0D3F ADD DUP1 SLOAD PUSH1 0x1 PUSH1 0x1 PUSH1 0xA0 SHL SUB DUP5 AND PUSH1 0x1 PUSH1 0x1 PUSH1 0xA0 SHL SUB NOT SWAP1 SWAP2 AND OR SWAP1 SSTORE POP POP JUMP JUMPDEST PUSH1 0x1 PUSH1 0x1 PUSH1 0xA0 SHL SUB DUP2 AND PUSH1 0x0 SWAP1 DUP2 MSTORE PUSH1 0x5 PUSH1 0x20 MSTORE PUSH1 0x40 SWAP1 KECCAK256 DUP1 SLOAD PUSH1 0xFF AND ISZERO DUP1 ISZERO PUSH2 0x4871 JUMPI POP DUP1 SLOAD PUSH2 0x100 SWAP1 DIV PUSH1 0xFF AND ISZERO JUMPDEST ISZERO PUSH2 0x118C JUMPI PUSH1 0x0 JUMPDEST PUSH1 0x6 SLOAD DUP2 LT ISZERO PUSH2 0x48D2 JUMPI DUP3 PUSH1 0x1 PUSH1 0x1 PUSH1 0xA0 SHL SUB AND PUSH1 0x6 DUP3 DUP2 SLOAD DUP2 LT PUSH2 0x48A0 JUMPI PUSH2 0x48A0 PUSH2 0x57EE JUMP JUMPDEST PUSH1 0x0 SWAP2 DUP3 MSTORE PUSH1 0x20 SWAP1 SWAP2 KECCAK256 ADD SLOAD PUSH1 0x1 PUSH1 0x1 PUSH1 0xA0 SHL SUB AND EQ ISZERO PUSH2 0x48C0 JUMPI PUSH2 0x48D2 JUMP JUMPDEST DUP1 PUSH2 0x48CA DUP2 PUSH2 0x5B5B JUMP JUMPDEST SWAP2 POP POP PUSH2 0x4879 JUMP JUMPDEST PUSH1 0x6 SLOAD DUP2 LT ISZERO PUSH2 0x1BC2 JUMPI PUSH1 0x6 DUP1 SLOAD PUSH2 0x48EC SWAP1 PUSH1 0x1 SWAP1 PUSH2 0x5C58 JUMP JUMPDEST DUP2 SLOAD DUP2 LT PUSH2 0x48FC JUMPI PUSH2 0x48FC PUSH2 0x57EE JUMP JUMPDEST PUSH1 0x0 SWAP2 DUP3 MSTORE PUSH1 0x20 SWAP1 SWAP2 KECCAK256 ADD SLOAD PUSH1 0x6 DUP1 SLOAD PUSH1 0x1 PUSH1 0x1 PUSH1 0xA0 SHL SUB SWAP1 SWAP3 AND SWAP2 DUP4 SWAP1 DUP2 LT PUSH2 0x4928 JUMPI PUSH2 0x4928 PUSH2 0x57EE JUMP JUMPDEST SWAP1 PUSH1 0x0 MSTORE PUSH1 0x20 PUSH1 0x0 KECCAK256 ADD PUSH1 0x0 PUSH2 0x100 EXP DUP2 SLOAD DUP2 PUSH1 0x1 PUSH1 0x1 PUSH1 0xA0 SHL SUB MUL NOT AND SWAP1 DUP4 PUSH1 0x1 PUSH1 0x1 PUSH1 0xA0 SHL SUB AND MUL OR SWAP1 SSTORE POP PUSH1 0x6 DUP1 SLOAD DUP1 PUSH2 0x4967 JUMPI PUSH2 0x4967 PUSH2 0x5DED JUMP JUMPDEST PUSH1 0x0 DUP3 DUP2 MSTORE PUSH1 0x20 SWAP1 KECCAK256 DUP2 ADD PUSH1 0x0 NOT SWAP1 DUP2 ADD DUP1 SLOAD PUSH1 0x1 PUSH1 0x1 PUSH1 0xA0 SHL SUB NOT AND SWAP1 SSTORE ADD SWAP1 SSTORE POP POP POP JUMP JUMPDEST PUSH1 0x0 PUSH2 0xDC3 DUP3 DUP5 PUSH2 0x5E03 JUMP JUMPDEST PUSH1 0x0 PUSH2 0xDC3 DUP3 DUP5 PUSH2 0x5E22 JUMP JUMPDEST PUSH1 0x40 MLOAD PUSH1 0x1 PUSH1 0x1 PUSH1 0xA0 SHL SUB DUP4 AND PUSH1 0x24 DUP3 ADD MSTORE PUSH1 0x44 DUP2 ADD DUP3 SWAP1 MSTORE PUSH2 0x1BC2 SWAP1 DUP5 SWAP1 PUSH4 0xA9059CBB PUSH1 0xE0 SHL SWAP1 PUSH1 0x64 ADD JUMPDEST PUSH1 0x40 DUP1 MLOAD PUSH1 0x1F NOT DUP2 DUP5 SUB ADD DUP2 MSTORE SWAP2 SWAP1 MSTORE PUSH1 0x20 DUP2 ADD DUP1 MLOAD PUSH1 0x1 PUSH1 0x1 PUSH1 0xE0 SHL SUB AND PUSH1 0x1 PUSH1 0x1 PUSH1 0xE0 SHL SUB NOT SWAP1 SWAP4 AND SWAP3 SWAP1 SWAP3 OR SWAP1 SWAP2 MSTORE PUSH2 0x4AF0 JUMP JUMPDEST PUSH1 0x0 JUMPDEST PUSH1 0x6 SLOAD DUP2 LT ISZERO PUSH2 0x4A6F JUMPI PUSH1 0x0 PUSH1 0x5 PUSH1 0x0 PUSH1 0x6 DUP5 DUP2 SLOAD DUP2 LT PUSH2 0x4A2F JUMPI PUSH2 0x4A2F PUSH2 0x57EE JUMP JUMPDEST PUSH1 0x0 SWAP2 DUP3 MSTORE PUSH1 0x20 DUP1 DUP4 KECCAK256 SWAP1 SWAP2 ADD SLOAD PUSH1 0x1 PUSH1 0x1 PUSH1 0xA0 SHL SUB AND DUP4 MSTORE DUP3 ADD SWAP3 SWAP1 SWAP3 MSTORE PUSH1 0x40 ADD SWAP1 KECCAK256 DUP1 SLOAD PUSH2 0xFFFF NOT AND SWAP1 SSTORE POP DUP1 PUSH2 0x4A67 DUP2 PUSH2 0x5B5B JUMP JUMPDEST SWAP2 POP POP PUSH2 0x4A0C JUMP JUMPDEST POP PUSH2 0x4A7C PUSH1 0x6 PUSH1 0x0 PUSH2 0x4DBE JUMP JUMPDEST PUSH1 0x40 DUP1 MLOAD TIMESTAMP DUP2 MSTORE NUMBER PUSH1 0x20 DUP3 ADD MSTORE CALLER SWAP2 PUSH32 0x712BC71DB81927A76B8BF1EA346247BB0AD58F18E4E5C1BD4AA0EC6573E02A2B SWAP2 ADD PUSH1 0x40 MLOAD DUP1 SWAP2 SUB SWAP1 LOG2 JUMP JUMPDEST PUSH1 0x40 MLOAD PUSH1 0x1 PUSH1 0x1 PUSH1 0xA0 SHL SUB DUP1 DUP6 AND PUSH1 0x24 DUP4 ADD MSTORE DUP4 AND PUSH1 0x44 DUP3 ADD MSTORE PUSH1 0x64 DUP2 ADD DUP3 SWAP1 MSTORE PUSH2 0x340B SWAP1 DUP6 SWAP1 PUSH4 0x23B872DD PUSH1 0xE0 SHL SWAP1 PUSH1 0x84 ADD PUSH2 0x49D2 JUMP JUMPDEST PUSH1 0x0 PUSH2 0x4B45 DUP3 PUSH1 0x40 MLOAD DUP1 PUSH1 0x40 ADD PUSH1 0x40 MSTORE DUP1 PUSH1 0x20 DUP2 MSTORE PUSH1 0x20 ADD PUSH32 0x5361666545524332303A206C6F772D6C6576656C2063616C6C206661696C6564 DUP2 MSTORE POP DUP6 PUSH1 0x1 PUSH1 0x1 PUSH1 0xA0 SHL SUB AND PUSH2 0x4BC2 SWAP1 SWAP3 SWAP2 SWAP1 PUSH4 0xFFFFFFFF AND JUMP JUMPDEST DUP1 MLOAD SWAP1 SWAP2 POP ISZERO PUSH2 0x1BC2 JUMPI DUP1 DUP1 PUSH1 0x20 ADD SWAP1 MLOAD DUP2 ADD SWAP1 PUSH2 0x4B63 SWAP2 SWAP1 PUSH2 0x5E44 JUMP JUMPDEST PUSH2 0x1BC2 JUMPI PUSH1 0x40 MLOAD PUSH3 0x461BCD PUSH1 0xE5 SHL DUP2 MSTORE PUSH1 0x20 PUSH1 0x4 DUP3 ADD MSTORE PUSH1 0x2A PUSH1 0x24 DUP3 ADD MSTORE PUSH32 0x5361666545524332303A204552433230206F7065726174696F6E20646964206E PUSH1 0x44 DUP3 ADD MSTORE PUSH10 0x1BDD081CDD58D8D95959 PUSH1 0xB2 SHL PUSH1 0x64 DUP3 ADD MSTORE PUSH1 0x84 ADD PUSH2 0xBD0 JUMP JUMPDEST PUSH1 0x60 PUSH2 0x4BD1 DUP5 DUP5 PUSH1 0x0 DUP6 PUSH2 0x4BD9 JUMP JUMPDEST SWAP5 SWAP4 POP POP POP POP JUMP JUMPDEST PUSH1 0x60 DUP3 SELFBALANCE LT ISZERO PUSH2 0x4C3A JUMPI PUSH1 0x40 MLOAD PUSH3 0x461BCD PUSH1 0xE5 SHL DUP2 MSTORE PUSH1 0x20 PUSH1 0x4 DUP3 ADD MSTORE PUSH1 0x26 PUSH1 0x24 DUP3 ADD MSTORE PUSH32 0x416464726573733A20696E73756666696369656E742062616C616E636520666F PUSH1 0x44 DUP3 ADD MSTORE PUSH6 0x1C8818D85B1B PUSH1 0xD2 SHL PUSH1 0x64 DUP3 ADD MSTORE PUSH1 0x84 ADD PUSH2 0xBD0 JUMP JUMPDEST DUP5 EXTCODESIZE PUSH2 0x4C88 JUMPI PUSH1 0x40 MLOAD PUSH3 0x461BCD PUSH1 0xE5 SHL DUP2 MSTORE PUSH1 0x20 PUSH1 0x4 DUP3 ADD MSTORE PUSH1 0x1D PUSH1 0x24 DUP3 ADD MSTORE PUSH32 0x416464726573733A2063616C6C20746F206E6F6E2D636F6E7472616374000000 PUSH1 0x44 DUP3 ADD MSTORE PUSH1 0x64 ADD PUSH2 0xBD0 JUMP JUMPDEST PUSH1 0x0 DUP1 DUP7 PUSH1 0x1 PUSH1 0x1 PUSH1 0xA0 SHL SUB AND DUP6 DUP8 PUSH1 0x40 MLOAD PUSH2 0x4CA4 SWAP2 SWAP1 PUSH2 0x5E61 JUMP JUMPDEST PUSH1 0x0 PUSH1 0x40 MLOAD DUP1 DUP4 SUB DUP2 DUP6 DUP8 GAS CALL SWAP3 POP POP POP RETURNDATASIZE DUP1 PUSH1 0x0 DUP2 EQ PUSH2 0x4CE1 JUMPI PUSH1 0x40 MLOAD SWAP2 POP PUSH1 0x1F NOT PUSH1 0x3F RETURNDATASIZE ADD AND DUP3 ADD PUSH1 0x40 MSTORE RETURNDATASIZE DUP3 MSTORE RETURNDATASIZE PUSH1 0x0 PUSH1 0x20 DUP5 ADD RETURNDATACOPY PUSH2 0x4CE6 JUMP JUMPDEST PUSH1 0x60 SWAP2 POP JUMPDEST POP SWAP2 POP SWAP2 POP PUSH2 0x4CF6 DUP3 DUP3 DUP7 PUSH2 0x4D01 JUMP JUMPDEST SWAP8 SWAP7 POP POP POP POP POP POP POP JUMP JUMPDEST PUSH1 0x60 DUP4 ISZERO PUSH2 0x4D10 JUMPI POP DUP2 PUSH2 0xDC3 JUMP JUMPDEST DUP3 MLOAD ISZERO PUSH2 0x4D20 JUMPI DUP3 MLOAD DUP1 DUP5 PUSH1 0x20 ADD REVERT JUMPDEST DUP2 PUSH1 0x40 MLOAD PUSH3 0x461BCD PUSH1 0xE5 SHL DUP2 MSTORE PUSH1 0x4 ADD PUSH2 0xBD0 SWAP2 SWAP1 PUSH2 0x4E5B JUMP JUMPDEST DUP3 DUP1 SLOAD PUSH2 0x4D46 SWAP1 PUSH2 0x567E JUMP JUMPDEST SWAP1 PUSH1 0x0 MSTORE PUSH1 0x20 PUSH1 0x0 KECCAK256 SWAP1 PUSH1 0x1F ADD PUSH1 0x20 SWAP1 DIV DUP2 ADD SWAP3 DUP3 PUSH2 0x4D68 JUMPI PUSH1 0x0 DUP6 SSTORE PUSH2 0x4DAE JUMP JUMPDEST DUP3 PUSH1 0x1F LT PUSH2 0x4D81 JUMPI DUP1 MLOAD PUSH1 0xFF NOT AND DUP4 DUP1 ADD OR DUP6 SSTORE PUSH2 0x4DAE JUMP JUMPDEST DUP3 DUP1 ADD PUSH1 0x1 ADD DUP6 SSTORE DUP3 ISZERO PUSH2 0x4DAE JUMPI SWAP2 DUP3 ADD JUMPDEST DUP3 DUP2 GT ISZERO PUSH2 0x4DAE JUMPI DUP3 MLOAD DUP3 SSTORE SWAP2 PUSH1 0x20 ADD SWAP2 SWAP1 PUSH1 0x1 ADD SWAP1 PUSH2 0x4D93 JUMP JUMPDEST POP PUSH2 0x4DBA SWAP3 SWAP2 POP PUSH2 0x4DD8 JUMP JUMPDEST POP SWAP1 JUMP JUMPDEST POP DUP1 SLOAD PUSH1 0x0 DUP3 SSTORE SWAP1 PUSH1 0x0 MSTORE PUSH1 0x20 PUSH1 0x0 KECCAK256 SWAP1 DUP2 ADD SWAP1 PUSH2 0xEE6 SWAP2 SWAP1 JUMPDEST JUMPDEST DUP1 DUP3 GT ISZERO PUSH2 0x4DBA JUMPI PUSH1 0x0 DUP2 SSTORE PUSH1 0x1 ADD PUSH2 0x4DD9 JUMP JUMPDEST PUSH1 0x1 PUSH1 0x1 PUSH1 0xA0 SHL SUB DUP2 AND DUP2 EQ PUSH2 0xEE6 JUMPI PUSH1 0x0 DUP1 REVERT JUMPDEST DUP1 CALLDATALOAD PUSH2 0x4E0D DUP2 PUSH2 0x4DED JUMP JUMPDEST SWAP2 SWAP1 POP JUMP JUMPDEST PUSH1 0x0 PUSH1 0x20 DUP3 DUP5 SUB SLT ISZERO PUSH2 0x4E24 JUMPI PUSH1 0x0 DUP1 REVERT JUMPDEST DUP2 CALLDATALOAD PUSH2 0xDC3 DUP2 PUSH2 0x4DED JUMP JUMPDEST PUSH1 0x0 JUMPDEST DUP4 DUP2 LT ISZERO PUSH2 0x4E4A JUMPI DUP2 DUP2 ADD MLOAD DUP4 DUP3 ADD MSTORE PUSH1 0x20 ADD PUSH2 0x4E32 JUMP JUMPDEST DUP4 DUP2 GT ISZERO PUSH2 0x340B JUMPI POP POP PUSH1 0x0 SWAP2 ADD MSTORE JUMP JUMPDEST PUSH1 0x20 DUP2 MSTORE PUSH1 0x0 DUP3 MLOAD DUP1 PUSH1 0x20 DUP5 ADD MSTORE PUSH2 0x4E7A DUP2 PUSH1 0x40 DUP6 ADD PUSH1 0x20 DUP8 ADD PUSH2 0x4E2F JUMP JUMPDEST PUSH1 0x1F ADD PUSH1 0x1F NOT AND SWAP2 SWAP1 SWAP2 ADD PUSH1 0x40 ADD SWAP3 SWAP2 POP POP JUMP JUMPDEST PUSH1 0x0 DUP1 PUSH1 0x40 DUP4 DUP6 SUB SLT ISZERO PUSH2 0x4EA1 JUMPI PUSH1 0x0 DUP1 REVERT JUMPDEST DUP3 CALLDATALOAD PUSH2 0x4EAC DUP2 PUSH2 0x4DED JUMP JUMPDEST SWAP5 PUSH1 0x20 SWAP4 SWAP1 SWAP4 ADD CALLDATALOAD SWAP4 POP POP POP JUMP JUMPDEST DUP1 ISZERO ISZERO DUP2 EQ PUSH2 0xEE6 JUMPI PUSH1 0x0 DUP1 REVERT JUMPDEST PUSH1 0x0 DUP1 PUSH1 0x0 DUP1 PUSH1 0x0 PUSH1 0xA0 DUP7 DUP9 SUB SLT ISZERO PUSH2 0x4EE0 JUMPI PUSH1 0x0 DUP1 REVERT JUMPDEST DUP6 CALLDATALOAD PUSH2 0x4EEB DUP2 PUSH2 0x4DED JUMP JUMPDEST SWAP5 POP PUSH1 0x20 DUP7 ADD CALLDATALOAD SWAP4 POP PUSH1 0x40 DUP7 ADD CALLDATALOAD SWAP3 POP PUSH1 0x60 DUP7 ADD CALLDATALOAD PUSH2 0x4F09 DUP2 PUSH2 0x4EBA JUMP JUMPDEST SWAP2 POP PUSH1 0x80 DUP7 ADD CALLDATALOAD PUSH2 0x4F19 DUP2 PUSH2 0x4DED JUMP JUMPDEST DUP1 SWAP2 POP POP SWAP3 SWAP6 POP SWAP3 SWAP6 SWAP1 SWAP4 POP JUMP JUMPDEST PUSH1 0x0 DUP1 PUSH1 0x0 PUSH1 0x60 DUP5 DUP7 SUB SLT ISZERO PUSH2 0x4F3C JUMPI PUSH1 0x0 DUP1 REVERT JUMPDEST DUP4 CALLDATALOAD PUSH2 0x4F47 DUP2 PUSH2 0x4DED JUMP JUMPDEST SWAP3 POP PUSH1 0x20 DUP5 ADD CALLDATALOAD PUSH2 0x4F57 DUP2 PUSH2 0x4DED JUMP JUMPDEST SWAP3 SWAP6 SWAP3 SWAP5 POP POP POP PUSH1 0x40 SWAP2 SWAP1 SWAP2 ADD CALLDATALOAD SWAP1 JUMP JUMPDEST PUSH1 0x0 PUSH2 0x100 DUP3 DUP5 SUB SLT ISZERO PUSH2 0x4F7B JUMPI PUSH1 0x0 DUP1 REVERT JUMPDEST POP SWAP2 SWAP1 POP JUMP JUMPDEST PUSH1 0x0 DUP1 PUSH1 0x40 DUP4 DUP6 SUB SLT ISZERO PUSH2 0x4F94 JUMPI PUSH1 0x0 DUP1 REVERT JUMPDEST DUP3 CALLDATALOAD SWAP2 POP PUSH1 0x20 DUP4 ADD CALLDATALOAD PUSH1 0x1 PUSH1 0x1 PUSH1 0x40 SHL SUB DUP2 GT ISZERO PUSH2 0x4FB1 JUMPI PUSH1 0x0 DUP1 REVERT JUMPDEST PUSH2 0x4FBD DUP6 DUP3 DUP7 ADD PUSH2 0x4F68 JUMP JUMPDEST SWAP2 POP POP SWAP3 POP SWAP3 SWAP1 POP JUMP JUMPDEST PUSH1 0x0 PUSH1 0x20 DUP3 DUP5 SUB SLT ISZERO PUSH2 0x4FD9 JUMPI PUSH1 0x0 DUP1 REVERT JUMPDEST POP CALLDATALOAD SWAP2 SWAP1 POP JUMP JUMPDEST PUSH1 0x0 DUP2 MLOAD DUP1 DUP5 MSTORE PUSH1 0x20 DUP1 DUP6 ADD SWAP5 POP DUP1 DUP5 ADD PUSH1 0x0 JUMPDEST DUP4 DUP2 LT ISZERO PUSH2 0x5019 JUMPI DUP2 MLOAD PUSH1 0x1 PUSH1 0x1 PUSH1 0xA0 SHL SUB AND DUP8 MSTORE SWAP6 DUP3 ADD SWAP6 SWAP1 DUP3 ADD SWAP1 PUSH1 0x1 ADD PUSH2 0x4FF4 JUMP JUMPDEST POP SWAP5 SWAP6 SWAP5 POP POP POP POP POP JUMP JUMPDEST PUSH1 0x20 DUP2 MSTORE PUSH1 0x0 PUSH2 0xDC3 PUSH1 0x20 DUP4 ADD DUP5 PUSH2 0x4FE0 JUMP JUMPDEST PUSH4 0x4E487B71 PUSH1 0xE0 SHL PUSH1 0x0 MSTORE PUSH1 0x41 PUSH1 0x4 MSTORE PUSH1 0x24 PUSH1 0x0 REVERT JUMPDEST PUSH1 0x40 MLOAD PUSH1 0x1F DUP3 ADD PUSH1 0x1F NOT AND DUP2 ADD PUSH1 0x1 PUSH1 0x1 PUSH1 0x40 SHL SUB DUP2 GT DUP3 DUP3 LT OR ISZERO PUSH2 0x5075 JUMPI PUSH2 0x5075 PUSH2 0x5037 JUMP JUMPDEST PUSH1 0x40 MSTORE SWAP2 SWAP1 POP JUMP JUMPDEST PUSH1 0x0 PUSH1 0x1 PUSH1 0x1 PUSH1 0x40 SHL SUB DUP3 GT ISZERO PUSH2 0x5096 JUMPI PUSH2 0x5096 PUSH2 0x5037 JUMP JUMPDEST POP PUSH1 0x5 SHL PUSH1 0x20 ADD SWAP1 JUMP JUMPDEST PUSH1 0x0 DUP3 PUSH1 0x1F DUP4 ADD SLT PUSH2 0x50B1 JUMPI PUSH1 0x0 DUP1 REVERT JUMPDEST DUP2 CALLDATALOAD PUSH1 0x20 PUSH2 0x50C6 PUSH2 0x50C1 DUP4 PUSH2 0x507D JUMP JUMPDEST PUSH2 0x504D JUMP JUMPDEST DUP3 DUP2 MSTORE PUSH1 0x5 SWAP3 SWAP1 SWAP3 SHL DUP5 ADD DUP2 ADD SWAP2 DUP2 DUP2 ADD SWAP1 DUP7 DUP5 GT ISZERO PUSH2 0x50E5 JUMPI PUSH1 0x0 DUP1 REVERT JUMPDEST DUP3 DUP7 ADD JUMPDEST DUP5 DUP2 LT ISZERO PUSH2 0x5100 JUMPI DUP1 CALLDATALOAD DUP4 MSTORE SWAP2 DUP4 ADD SWAP2 DUP4 ADD PUSH2 0x50E9 JUMP JUMPDEST POP SWAP7 SWAP6 POP POP POP POP POP POP JUMP JUMPDEST PUSH1 0x0 DUP3 PUSH1 0x1F DUP4 ADD SLT PUSH2 0x511C JUMPI PUSH1 0x0 DUP1 REVERT JUMPDEST DUP2 CALLDATALOAD PUSH1 0x20 PUSH2 0x512C PUSH2 0x50C1 DUP4 PUSH2 0x507D JUMP JUMPDEST DUP3 DUP2 MSTORE PUSH1 0x5 SWAP3 SWAP1 SWAP3 SHL DUP5 ADD DUP2 ADD SWAP2 DUP2 DUP2 ADD SWAP1 DUP7 DUP5 GT ISZERO PUSH2 0x514B JUMPI PUSH1 0x0 DUP1 REVERT JUMPDEST DUP3 DUP7 ADD JUMPDEST DUP5 DUP2 LT ISZERO PUSH2 0x5100 JUMPI DUP1 CALLDATALOAD PUSH2 0x5162 DUP2 PUSH2 0x4DED JUMP JUMPDEST DUP4 MSTORE SWAP2 DUP4 ADD SWAP2 DUP4 ADD PUSH2 0x514F JUMP JUMPDEST PUSH1 0x0 DUP1 PUSH1 0x0 PUSH1 0x60 DUP5 DUP7 SUB SLT ISZERO PUSH2 0x5184 JUMPI PUSH1 0x0 DUP1 REVERT JUMPDEST DUP4 CALLDATALOAD PUSH1 0x1 PUSH1 0x1 PUSH1 0x40 SHL SUB DUP1 DUP3 GT ISZERO PUSH2 0x519B JUMPI PUSH1 0x0 DUP1 REVERT JUMPDEST PUSH2 0x51A7 DUP8 DUP4 DUP9 ADD PUSH2 0x50A0 JUMP JUMPDEST SWAP5 POP PUSH1 0x20 DUP7 ADD CALLDATALOAD SWAP2 POP DUP1 DUP3 GT ISZERO PUSH2 0x51BD JUMPI PUSH1 0x0 DUP1 REVERT JUMPDEST PUSH2 0x51C9 DUP8 DUP4 DUP9 ADD PUSH2 0x50A0 JUMP JUMPDEST SWAP4 POP PUSH1 0x40 DUP7 ADD CALLDATALOAD SWAP2 POP DUP1 DUP3 GT ISZERO PUSH2 0x51DF JUMPI PUSH1 0x0 DUP1 REVERT JUMPDEST POP PUSH2 0x51EC DUP7 DUP3 DUP8 ADD PUSH2 0x510B JUMP JUMPDEST SWAP2 POP POP SWAP3 POP SWAP3 POP SWAP3 JUMP JUMPDEST PUSH1 0x0 DUP1 PUSH1 0x0 DUP1 DUP5 DUP7 SUB PUSH1 0xC0 DUP2 SLT ISZERO PUSH2 0x520D JUMPI PUSH1 0x0 DUP1 REVERT JUMPDEST DUP6 CALLDATALOAD PUSH2 0x5218 DUP2 PUSH2 0x4DED JUMP JUMPDEST SWAP5 POP PUSH1 0x20 DUP7 ADD CALLDATALOAD SWAP4 POP PUSH1 0x40 DUP7 ADD CALLDATALOAD PUSH1 0x1 PUSH1 0x1 PUSH1 0x40 SHL SUB DUP2 GT ISZERO PUSH2 0x523A JUMPI PUSH1 0x0 DUP1 REVERT JUMPDEST PUSH2 0x5246 DUP9 DUP3 DUP10 ADD PUSH2 0x4F68 JUMP JUMPDEST SWAP4 POP POP PUSH1 0x60 PUSH1 0x5F NOT DUP3 ADD SLT ISZERO PUSH2 0x525B JUMPI PUSH1 0x0 DUP1 REVERT JUMPDEST POP SWAP3 SWAP6 SWAP2 SWAP5 POP SWAP3 PUSH1 0x60 ADD SWAP2 POP JUMP JUMPDEST PUSH1 0x20 DUP1 DUP3 MSTORE DUP3 MLOAD DUP3 DUP3 ADD DUP2 SWAP1 MSTORE PUSH1 0x0 SWAP2 SWAP1 PUSH1 0x40 SWAP1 DUP2 DUP6 ADD SWAP1 DUP7 DUP5 ADD DUP6 JUMPDEST DUP3 DUP2 LT ISZERO PUSH2 0x52B4 JUMPI DUP2 MLOAD DUP1 MLOAD PUSH1 0x1 PUSH1 0x1 PUSH1 0xA0 SHL SUB AND DUP6 MSTORE DUP7 ADD MLOAD DUP7 DUP6 ADD MSTORE SWAP3 DUP5 ADD SWAP3 SWAP1 DUP6 ADD SWAP1 PUSH1 0x1 ADD PUSH2 0x5286 JUMP JUMPDEST POP SWAP2 SWAP8 SWAP7 POP POP POP POP POP POP POP JUMP JUMPDEST PUSH1 0x0 DUP1 DUP4 PUSH1 0x1F DUP5 ADD SLT PUSH2 0x52D3 JUMPI PUSH1 0x0 DUP1 REVERT JUMPDEST POP DUP2 CALLDATALOAD PUSH1 0x1 PUSH1 0x1 PUSH1 0x40 SHL SUB DUP2 GT ISZERO PUSH2 0x52EA JUMPI PUSH1 0x0 DUP1 REVERT JUMPDEST PUSH1 0x20 DUP4 ADD SWAP2 POP DUP4 PUSH1 0x20 DUP3 DUP6 ADD ADD GT ISZERO PUSH2 0x5302 JUMPI PUSH1 0x0 DUP1 REVERT JUMPDEST SWAP3 POP SWAP3 SWAP1 POP JUMP JUMPDEST PUSH1 0x0 DUP1 PUSH1 0x0 DUP1 PUSH1 0x0 DUP1 PUSH1 0x0 DUP1 PUSH1 0x0 DUP1 PUSH1 0xC0 DUP12 DUP14 SUB SLT ISZERO PUSH2 0x5328 JUMPI PUSH1 0x0 DUP1 REVERT JUMPDEST DUP11 CALLDATALOAD SWAP10 POP PUSH1 0x20 DUP12 ADD CALLDATALOAD PUSH1 0x1 PUSH1 0x1 PUSH1 0x40 SHL SUB DUP1 DUP3 GT ISZERO PUSH2 0x5346 JUMPI PUSH1 0x0 DUP1 REVERT JUMPDEST PUSH2 0x5352 DUP15 DUP4 DUP16 ADD PUSH2 0x52C1 JUMP JUMPDEST SWAP1 SWAP12 POP SWAP10 POP PUSH1 0x40 DUP14 ADD CALLDATALOAD SWAP2 POP DUP1 DUP3 GT ISZERO PUSH2 0x536B JUMPI PUSH1 0x0 DUP1 REVERT JUMPDEST PUSH2 0x5377 DUP15 DUP4 DUP16 ADD PUSH2 0x52C1 JUMP JUMPDEST SWAP1 SWAP10 POP SWAP8 POP PUSH1 0x60 DUP14 ADD CALLDATALOAD SWAP2 POP DUP1 DUP3 GT ISZERO PUSH2 0x5390 JUMPI PUSH1 0x0 DUP1 REVERT JUMPDEST PUSH2 0x539C DUP15 DUP4 DUP16 ADD PUSH2 0x52C1 JUMP JUMPDEST SWAP1 SWAP8 POP SWAP6 POP PUSH1 0x80 DUP14 ADD CALLDATALOAD SWAP2 POP DUP1 DUP3 GT ISZERO PUSH2 0x53B5 JUMPI PUSH1 0x0 DUP1 REVERT JUMPDEST POP PUSH2 0x53C2 DUP14 DUP3 DUP15 ADD PUSH2 0x52C1 JUMP JUMPDEST SWAP1 SWAP5 POP SWAP3 POP PUSH2 0x53D5 SWAP1 POP PUSH1 0xA0 DUP13 ADD PUSH2 0x4E02 JUMP JUMPDEST SWAP1 POP SWAP3 SWAP6 SWAP9 SWAP12 SWAP2 SWAP5 SWAP8 SWAP11 POP SWAP3 SWAP6 SWAP9 POP JUMP JUMPDEST PUSH1 0x0 DUP1 PUSH1 0x0 PUSH1 0x60 DUP5 DUP7 SUB SLT ISZERO PUSH2 0x53FB JUMPI PUSH1 0x0 DUP1 REVERT JUMPDEST DUP4 CALLDATALOAD PUSH2 0x5406 DUP2 PUSH2 0x4DED JUMP JUMPDEST SWAP3 POP PUSH1 0x20 DUP5 ADD CALLDATALOAD PUSH1 0x1 PUSH1 0x1 PUSH1 0x40 SHL SUB DUP1 DUP3 GT ISZERO PUSH2 0x5422 JUMPI PUSH1 0x0 DUP1 REVERT JUMPDEST PUSH2 0x542E DUP8 DUP4 DUP9 ADD PUSH2 0x510B JUMP JUMPDEST SWAP4 POP PUSH1 0x40 DUP7 ADD CALLDATALOAD SWAP2 POP DUP1 DUP3 GT ISZERO PUSH2 0x5444 JUMPI PUSH1 0x0 DUP1 REVERT JUMPDEST POP PUSH2 0x51EC DUP7 DUP3 DUP8 ADD PUSH2 0x50A0 JUMP JUMPDEST PUSH1 0x0 DUP1 PUSH1 0x20 DUP4 DUP6 SUB SLT ISZERO PUSH2 0x5464 JUMPI PUSH1 0x0 DUP1 REVERT JUMPDEST DUP3 CALLDATALOAD PUSH1 0x1 PUSH1 0x1 PUSH1 0x40 SHL SUB DUP2 GT ISZERO PUSH2 0x547A JUMPI PUSH1 0x0 DUP1 REVERT JUMPDEST PUSH2 0x5486 DUP6 DUP3 DUP7 ADD PUSH2 0x52C1 JUMP JUMPDEST SWAP1 SWAP7 SWAP1 SWAP6 POP SWAP4 POP POP POP POP JUMP JUMPDEST PUSH1 0x0 DUP1 DUP4 PUSH1 0x1F DUP5 ADD SLT PUSH2 0x54A4 JUMPI PUSH1 0x0 DUP1 REVERT JUMPDEST POP DUP2 CALLDATALOAD PUSH1 0x1 PUSH1 0x1 PUSH1 0x40 SHL SUB DUP2 GT ISZERO PUSH2 0x54BB JUMPI PUSH1 0x0 DUP1 REVERT JUMPDEST PUSH1 0x20 DUP4 ADD SWAP2 POP DUP4 PUSH1 0x20 DUP3 PUSH1 0x5 SHL DUP6 ADD ADD GT ISZERO PUSH2 0x5302 JUMPI PUSH1 0x0 DUP1 REVERT JUMPDEST PUSH1 0x0 DUP1 PUSH1 0x0 DUP1 PUSH1 0x0 DUP1 PUSH1 0x0 DUP1 PUSH1 0x0 DUP1 PUSH1 0xA0 DUP12 DUP14 SUB SLT ISZERO PUSH2 0x54F5 JUMPI PUSH1 0x0 DUP1 REVERT JUMPDEST DUP11 CALLDATALOAD PUSH1 0x1 PUSH1 0x1 PUSH1 0x40 SHL SUB DUP1 DUP3 GT ISZERO PUSH2 0x550C JUMPI PUSH1 0x0 DUP1 REVERT JUMPDEST PUSH2 0x5518 DUP15 DUP4 DUP16 ADD PUSH2 0x5492 JUMP JUMPDEST SWAP1 SWAP13 POP SWAP11 POP PUSH1 0x20 DUP14 ADD CALLDATALOAD SWAP2 POP DUP1 DUP3 GT ISZERO PUSH2 0x5531 JUMPI PUSH1 0x0 DUP1 REVERT JUMPDEST PUSH2 0x553D DUP15 DUP4 DUP16 ADD PUSH2 0x5492 JUMP JUMPDEST SWAP1 SWAP11 POP SWAP9 POP PUSH1 0x40 DUP14 ADD CALLDATALOAD SWAP2 POP DUP1 DUP3 GT ISZERO PUSH2 0x5556 JUMPI PUSH1 0x0 DUP1 REVERT JUMPDEST PUSH2 0x5562 DUP15 DUP4 DUP16 ADD PUSH2 0x5492 JUMP JUMPDEST SWAP1 SWAP9 POP SWAP7 POP PUSH1 0x60 DUP14 ADD CALLDATALOAD SWAP2 POP DUP1 DUP3 GT ISZERO PUSH2 0x557B JUMPI PUSH1 0x0 DUP1 REVERT JUMPDEST PUSH2 0x5587 DUP15 DUP4 DUP16 ADD PUSH2 0x5492 JUMP JUMPDEST SWAP1 SWAP7 POP SWAP5 POP PUSH1 0x80 DUP14 ADD CALLDATALOAD SWAP2 POP DUP1 DUP3 GT ISZERO PUSH2 0x55A0 JUMPI PUSH1 0x0 DUP1 REVERT JUMPDEST POP PUSH2 0x55AD DUP14 DUP3 DUP15 ADD PUSH2 0x5492 JUMP JUMPDEST SWAP2 POP DUP1 SWAP4 POP POP DUP1 SWAP2 POP POP SWAP3 SWAP6 SWAP9 SWAP12 SWAP2 SWAP5 SWAP8 SWAP11 POP SWAP3 SWAP6 SWAP9 POP JUMP JUMPDEST DUP1 CALLDATALOAD PUSH1 0xFF DUP2 AND DUP2 EQ PUSH2 0x4E0D JUMPI PUSH1 0x0 DUP1 REVERT JUMPDEST PUSH1 0x0 DUP1 PUSH1 0x0 DUP1 PUSH1 0x0 DUP1 PUSH1 0x0 PUSH1 0xE0 DUP9 DUP11 SUB SLT ISZERO PUSH2 0x55F2 JUMPI PUSH1 0x0 DUP1 REVERT JUMPDEST DUP8 CALLDATALOAD PUSH2 0x55FD DUP2 PUSH2 0x4DED JUMP JUMPDEST SWAP7 POP PUSH1 0x20 DUP9 ADD CALLDATALOAD PUSH2 0x560D DUP2 PUSH2 0x4DED JUMP JUMPDEST SWAP6 POP PUSH1 0x40 DUP9 ADD CALLDATALOAD SWAP5 POP PUSH1 0x60 DUP9 ADD CALLDATALOAD SWAP4 POP PUSH2 0x5629 PUSH1 0x80 DUP10 ADD PUSH2 0x55C6 JUMP JUMPDEST SWAP3 POP PUSH1 0xA0 DUP9 ADD CALLDATALOAD SWAP2 POP PUSH1 0xC0 DUP9 ADD CALLDATALOAD SWAP1 POP SWAP3 SWAP6 SWAP9 SWAP2 SWAP5 SWAP8 POP SWAP3 SWAP6 POP JUMP JUMPDEST PUSH1 0x0 DUP1 PUSH1 0x40 DUP4 DUP6 SUB SLT ISZERO PUSH2 0x5658 JUMPI PUSH1 0x0 DUP1 REVERT JUMPDEST DUP3 CALLDATALOAD PUSH2 0x5663 DUP2 PUSH2 0x4DED JUMP JUMPDEST SWAP2 POP PUSH1 0x20 DUP4 ADD CALLDATALOAD PUSH2 0x5673 DUP2 PUSH2 0x4DED JUMP JUMPDEST DUP1 SWAP2 POP POP SWAP3 POP SWAP3 SWAP1 POP JUMP JUMPDEST PUSH1 0x1 DUP2 DUP2 SHR SWAP1 DUP3 AND DUP1 PUSH2 0x5692 JUMPI PUSH1 0x7F DUP3 AND SWAP2 POP JUMPDEST PUSH1 0x20 DUP3 LT DUP2 EQ ISZERO PUSH2 0x4F7B JUMPI PUSH4 0x4E487B71 PUSH1 0xE0 SHL PUSH1 0x0 MSTORE PUSH1 0x22 PUSH1 0x4 MSTORE PUSH1 0x24 PUSH1 0x0 REVERT JUMPDEST PUSH1 0x0 PUSH1 0x80 DUP3 DUP5 SUB SLT ISZERO PUSH2 0x56C5 JUMPI PUSH1 0x0 DUP1 REVERT JUMPDEST PUSH1 0x40 MLOAD PUSH1 0x80 DUP2 ADD DUP2 DUP2 LT PUSH1 0x1 PUSH1 0x1 PUSH1 0x40 SHL SUB DUP3 GT OR ISZERO PUSH2 0x56E7 JUMPI PUSH2 0x56E7 PUSH2 0x5037 JUMP JUMPDEST PUSH1 0x40 MSTORE DUP3 MLOAD PUSH2 0x56F5 DUP2 PUSH2 0x4EBA JUMP JUMPDEST DUP2 MSTORE PUSH1 0x20 DUP4 ADD MLOAD PUSH2 0x5705 DUP2 PUSH2 0x4EBA JUMP JUMPDEST PUSH1 0x20 DUP3 ADD MSTORE PUSH1 0x40 DUP4 ADD MLOAD PUSH2 0x5718 DUP2 PUSH2 0x4EBA JUMP JUMPDEST PUSH1 0x40 DUP3 ADD MSTORE PUSH1 0x60 DUP4 ADD MLOAD PUSH2 0x572B DUP2 PUSH2 0x4EBA JUMP JUMPDEST PUSH1 0x60 DUP3 ADD MSTORE SWAP4 SWAP3 POP POP POP JUMP JUMPDEST PUSH1 0x0 PUSH1 0x20 DUP3 DUP5 SUB SLT ISZERO PUSH2 0x5749 JUMPI PUSH1 0x0 DUP1 REVERT JUMPDEST DUP2 MLOAD PUSH2 0xDC3 DUP2 PUSH2 0x4DED JUMP JUMPDEST PUSH1 0x20 DUP1 DUP3 MSTORE DUP2 DUP2 ADD MSTORE PUSH32 0x455243323054656D706C6174653A204E4F54204445504C4F59455220524F4C45 PUSH1 0x40 DUP3 ADD MSTORE PUSH1 0x60 ADD SWAP1 JUMP JUMPDEST PUSH1 0x20 DUP1 DUP3 MSTORE PUSH1 0x1F SWAP1 DUP3 ADD MSTORE PUSH32 0x5265656E7472616E637947756172643A207265656E7472616E742063616C6C00 PUSH1 0x40 DUP3 ADD MSTORE PUSH1 0x60 ADD SWAP1 JUMP JUMPDEST PUSH4 0x4E487B71 PUSH1 0xE0 SHL PUSH1 0x0 MSTORE PUSH1 0x11 PUSH1 0x4 MSTORE PUSH1 0x24 PUSH1 0x0 REVERT JUMPDEST PUSH1 0x0 DUP3 NOT DUP3 GT ISZERO PUSH2 0x57E9 JUMPI PUSH2 0x57E9 PUSH2 0x57C0 JUMP JUMPDEST POP ADD SWAP1 JUMP JUMPDEST PUSH4 0x4E487B71 PUSH1 0xE0 SHL PUSH1 0x0 MSTORE PUSH1 0x32 PUSH1 0x4 MSTORE PUSH1 0x24 PUSH1 0x0 REVERT JUMPDEST PUSH1 0x0 PUSH1 0x20 DUP3 DUP5 SUB SLT ISZERO PUSH2 0x5816 JUMPI PUSH1 0x0 DUP1 REVERT JUMPDEST POP MLOAD SWAP2 SWAP1 POP JUMP JUMPDEST PUSH1 0x0 DUP2 MLOAD DUP1 DUP5 MSTORE PUSH1 0x20 DUP1 DUP6 ADD SWAP5 POP DUP1 DUP5 ADD PUSH1 0x0 JUMPDEST DUP4 DUP2 LT ISZERO PUSH2 0x5019 JUMPI DUP2 MLOAD DUP8 MSTORE SWAP6 DUP3 ADD SWAP6 SWAP1 DUP3 ADD SWAP1 PUSH1 0x1 ADD PUSH2 0x5831 JUMP JUMPDEST PUSH1 0x0 DUP2 DUP7 DUP3 JUMPDEST PUSH1 0x2 DUP2 LT ISZERO PUSH2 0x587B JUMPI DUP2 MLOAD PUSH1 0x1 PUSH1 0x1 PUSH1 0xA0 SHL SUB AND DUP4 MSTORE PUSH1 0x20 SWAP3 DUP4 ADD SWAP3 SWAP1 SWAP2 ADD SWAP1 PUSH1 0x1 ADD PUSH2 0x5853 JUMP JUMPDEST POP POP POP PUSH1 0xA0 PUSH1 0x40 DUP4 ADD MSTORE PUSH2 0x5892 PUSH1 0xA0 DUP4 ADD DUP7 PUSH2 0x581D JUMP JUMPDEST DUP3 DUP2 SUB PUSH1 0x60 DUP5 ADD MSTORE PUSH2 0x58A4 DUP2 DUP7 PUSH2 0x581D JUMP JUMPDEST SWAP1 POP DUP3 DUP2 SUB PUSH1 0x80 DUP5 ADD MSTORE PUSH2 0x4CF6 DUP2 DUP6 PUSH2 0x4FE0 JUMP JUMPDEST DUP4 DUP2 MSTORE DUP2 DUP4 PUSH1 0x20 DUP4 ADD CALLDATACOPY PUSH1 0x0 SWAP2 ADD PUSH1 0x20 ADD SWAP1 DUP2 MSTORE SWAP3 SWAP2 POP POP JUMP JUMPDEST PUSH1 0x0 DUP4 MLOAD PUSH2 0x58E4 DUP2 DUP5 PUSH1 0x20 DUP9 ADD PUSH2 0x4E2F JUMP JUMPDEST SWAP2 SWAP1 SWAP2 ADD SWAP2 DUP3 MSTORE POP PUSH1 0x20 ADD SWAP2 SWAP1 POP JUMP JUMPDEST DUP2 DUP4 DUP3 CALLDATACOPY PUSH1 0x0 SWAP2 ADD SWAP1 DUP2 MSTORE SWAP2 SWAP1 POP JUMP JUMPDEST DUP2 DUP4 MSTORE DUP2 DUP2 PUSH1 0x20 DUP6 ADD CALLDATACOPY POP PUSH1 0x0 DUP3 DUP3 ADD PUSH1 0x20 SWAP1 DUP2 ADD SWAP2 SWAP1 SWAP2 MSTORE PUSH1 0x1F SWAP1 SWAP2 ADD PUSH1 0x1F NOT AND SWAP1 SWAP2 ADD ADD SWAP1 JUMP JUMPDEST DUP12 DUP2 MSTORE PUSH1 0xE0 PUSH1 0x20 DUP3 ADD MSTORE PUSH1 0x0 PUSH2 0x5947 PUSH1 0xE0 DUP4 ADD DUP13 DUP15 PUSH2 0x5904 JUMP JUMPDEST DUP3 DUP2 SUB PUSH1 0x40 DUP5 ADD MSTORE PUSH2 0x595A DUP2 DUP12 DUP14 PUSH2 0x5904 JUMP JUMPDEST SWAP1 POP DUP3 DUP2 SUB PUSH1 0x60 DUP5 ADD MSTORE PUSH2 0x596F DUP2 DUP10 DUP12 PUSH2 0x5904 JUMP JUMPDEST SWAP1 POP DUP3 DUP2 SUB PUSH1 0x80 DUP5 ADD MSTORE PUSH2 0x5984 DUP2 DUP8 DUP10 PUSH2 0x5904 JUMP JUMPDEST PUSH1 0xA0 DUP5 ADD SWAP6 SWAP1 SWAP6 MSTORE POP POP PUSH1 0xC0 ADD MSTORE SWAP10 SWAP9 POP POP POP POP POP POP POP POP POP JUMP JUMPDEST PUSH1 0x1 PUSH1 0x1 PUSH1 0xA0 SHL SUB DUP5 AND DUP2 MSTORE PUSH1 0x60 PUSH1 0x20 DUP3 ADD DUP2 SWAP1 MSTORE PUSH1 0x0 SWAP1 PUSH2 0x59C3 SWAP1 DUP4 ADD DUP6 PUSH2 0x4FE0 JUMP JUMPDEST DUP3 DUP2 SUB PUSH1 0x40 DUP5 ADD MSTORE PUSH2 0x59D5 DUP2 DUP6 PUSH2 0x581D JUMP JUMPDEST SWAP7 SWAP6 POP POP POP POP POP POP JUMP JUMPDEST DUP4 DUP2 MSTORE PUSH1 0x40 PUSH1 0x20 DUP3 ADD MSTORE PUSH1 0x0 PUSH2 0x59F9 PUSH1 0x40 DUP4 ADD DUP5 DUP7 PUSH2 0x5904 JUMP JUMPDEST SWAP6 SWAP5 POP POP POP POP POP JUMP JUMPDEST PUSH1 0x0 PUSH1 0x1 PUSH1 0x1 PUSH1 0x40 SHL SUB DUP4 GT ISZERO PUSH2 0x5A1B JUMPI PUSH2 0x5A1B PUSH2 0x5037 JUMP JUMPDEST PUSH2 0x5A2E PUSH1 0x1F DUP5 ADD PUSH1 0x1F NOT AND PUSH1 0x20 ADD PUSH2 0x504D JUMP JUMPDEST SWAP1 POP DUP3 DUP2 MSTORE DUP4 DUP4 DUP4 ADD GT ISZERO PUSH2 0x5A42 JUMPI PUSH1 0x0 DUP1 REVERT JUMPDEST DUP3 DUP3 PUSH1 0x20 DUP4 ADD CALLDATACOPY PUSH1 0x0 PUSH1 0x20 DUP5 DUP4 ADD ADD MSTORE SWAP4 SWAP3 POP POP POP JUMP JUMPDEST PUSH1 0x0 PUSH2 0x5A67 PUSH2 0x50C1 DUP5 PUSH2 0x507D JUMP JUMPDEST DUP1 DUP5 DUP3 MSTORE PUSH1 0x20 DUP1 DUP4 ADD SWAP3 POP DUP6 PUSH1 0x5 SHL DUP6 ADD CALLDATASIZE DUP2 GT ISZERO PUSH2 0x5A85 JUMPI PUSH1 0x0 DUP1 REVERT JUMPDEST DUP6 JUMPDEST DUP2 DUP2 LT ISZERO PUSH2 0x5AD4 JUMPI DUP1 CALLDATALOAD PUSH1 0x1 PUSH1 0x1 PUSH1 0x40 SHL SUB DUP2 GT ISZERO PUSH2 0x5AA6 JUMPI PUSH1 0x0 DUP1 DUP2 REVERT JUMPDEST DUP8 ADD CALLDATASIZE PUSH1 0x1F DUP3 ADD SLT PUSH2 0x5AB8 JUMPI PUSH1 0x0 DUP1 DUP2 REVERT JUMPDEST PUSH2 0x5AC6 CALLDATASIZE DUP3 CALLDATALOAD DUP7 DUP5 ADD PUSH2 0x5A02 JUMP JUMPDEST DUP7 MSTORE POP SWAP4 DUP3 ADD SWAP4 DUP3 ADD PUSH2 0x5A87 JUMP JUMPDEST POP SWAP2 SWAP7 SWAP6 POP POP POP POP POP POP JUMP JUMPDEST PUSH1 0x0 PUSH2 0x5AEE PUSH2 0x50C1 DUP5 PUSH2 0x507D JUMP JUMPDEST DUP1 DUP5 DUP3 MSTORE PUSH1 0x20 DUP1 DUP4 ADD SWAP3 POP DUP6 PUSH1 0x5 SHL DUP6 ADD CALLDATASIZE DUP2 GT ISZERO PUSH2 0x5B0C JUMPI PUSH1 0x0 DUP1 REVERT JUMPDEST DUP6 JUMPDEST DUP2 DUP2 LT ISZERO PUSH2 0x5AD4 JUMPI DUP1 CALLDATALOAD PUSH1 0x1 PUSH1 0x1 PUSH1 0x40 SHL SUB DUP2 GT ISZERO PUSH2 0x5B2D JUMPI PUSH1 0x0 DUP1 DUP2 REVERT JUMPDEST DUP8 ADD CALLDATASIZE PUSH1 0x1F DUP3 ADD SLT PUSH2 0x5B3F JUMPI PUSH1 0x0 DUP1 DUP2 REVERT JUMPDEST PUSH2 0x5B4D CALLDATASIZE DUP3 CALLDATALOAD DUP7 DUP5 ADD PUSH2 0x5A02 JUMP JUMPDEST DUP7 MSTORE POP SWAP4 DUP3 ADD SWAP4 DUP3 ADD PUSH2 0x5B0E JUMP JUMPDEST PUSH1 0x0 PUSH1 0x0 NOT DUP3 EQ ISZERO PUSH2 0x5B6F JUMPI PUSH2 0x5B6F PUSH2 0x57C0 JUMP JUMPDEST POP PUSH1 0x1 ADD SWAP1 JUMP JUMPDEST PUSH1 0x0 DUP1 DUP4 CALLDATALOAD PUSH1 0x1E NOT DUP5 CALLDATASIZE SUB ADD DUP2 SLT PUSH2 0x5B8D JUMPI PUSH1 0x0 DUP1 REVERT JUMPDEST DUP4 ADD DUP1 CALLDATALOAD SWAP2 POP PUSH1 0x1 PUSH1 0x1 PUSH1 0x40 SHL SUB DUP3 GT ISZERO PUSH2 0x5BA7 JUMPI PUSH1 0x0 DUP1 REVERT JUMPDEST PUSH1 0x20 ADD SWAP2 POP CALLDATASIZE DUP2 SWAP1 SUB DUP3 SGT ISZERO PUSH2 0x5302 JUMPI PUSH1 0x0 DUP1 REVERT JUMPDEST DUP6 DUP8 DUP3 CALLDATACOPY PUSH12 0xFFFFFFFFFFFFFFFFFFFFFFFF NOT PUSH1 0x60 SWAP6 DUP7 SHL DUP2 AND SWAP7 SWAP1 SWAP2 ADD SWAP6 DUP7 MSTORE SWAP3 SWAP1 SWAP4 SHL SWAP1 SWAP2 AND PUSH1 0x14 DUP5 ADD MSTORE PUSH1 0x28 DUP4 ADD MSTORE PUSH1 0x48 DUP3 ADD MSTORE PUSH1 0x68 ADD SWAP2 SWAP1 POP JUMP JUMPDEST PUSH1 0x0 PUSH1 0x20 DUP3 DUP5 SUB SLT ISZERO PUSH2 0x5C0C JUMPI PUSH1 0x0 DUP1 REVERT JUMPDEST PUSH2 0xDC3 DUP3 PUSH2 0x55C6 JUMP JUMPDEST DUP8 DUP2 MSTORE PUSH1 0xC0 PUSH1 0x20 DUP3 ADD MSTORE PUSH1 0x0 PUSH2 0x5C2F PUSH1 0xC0 DUP4 ADD DUP9 DUP11 PUSH2 0x5904 JUMP JUMPDEST SWAP1 POP PUSH1 0xFF DUP7 AND PUSH1 0x40 DUP4 ADD MSTORE DUP5 PUSH1 0x60 DUP4 ADD MSTORE DUP4 PUSH1 0x80 DUP4 ADD MSTORE DUP3 PUSH1 0xA0 DUP4 ADD MSTORE SWAP9 SWAP8 POP POP POP POP POP POP POP POP JUMP JUMPDEST PUSH1 0x0 DUP3 DUP3 LT ISZERO PUSH2 0x5C6A JUMPI PUSH2 0x5C6A PUSH2 0x57C0 JUMP JUMPDEST POP SUB SWAP1 JUMP JUMPDEST PUSH1 0x0 DUP1 PUSH1 0x0 DUP1 PUSH1 0x0 DUP1 PUSH1 0x0 DUP1 PUSH1 0x0 DUP1 PUSH1 0x0 DUP1 PUSH2 0x180 DUP14 DUP16 SUB SLT ISZERO PUSH2 0x5C92 JUMPI PUSH1 0x0 DUP1 REVERT JUMPDEST DUP13 MLOAD PUSH2 0x5C9D DUP2 PUSH2 0x4DED JUMP JUMPDEST PUSH1 0x20 DUP15 ADD MLOAD SWAP1 SWAP13 POP PUSH2 0x5CAE DUP2 PUSH2 0x4DED JUMP JUMPDEST PUSH1 0x40 DUP15 ADD MLOAD PUSH1 0x60 DUP16 ADD MLOAD SWAP2 SWAP13 POP SWAP11 POP PUSH2 0x5CC6 DUP2 PUSH2 0x4DED JUMP JUMPDEST DUP1 SWAP10 POP POP PUSH1 0x80 DUP14 ADD MLOAD SWAP8 POP PUSH1 0xA0 DUP14 ADD MLOAD SWAP7 POP PUSH1 0xC0 DUP14 ADD MLOAD PUSH2 0x5CE6 DUP2 PUSH2 0x4EBA JUMP JUMPDEST DUP1 SWAP7 POP POP PUSH1 0xE0 DUP14 ADD MLOAD SWAP5 POP PUSH2 0x100 DUP14 ADD MLOAD SWAP4 POP PUSH2 0x120 DUP14 ADD MLOAD SWAP3 POP PUSH2 0x140 DUP14 ADD MLOAD SWAP2 POP PUSH2 0x160 DUP14 ADD MLOAD PUSH2 0x5D18 DUP2 PUSH2 0x4EBA JUMP JUMPDEST DUP1 SWAP2 POP POP SWAP3 SWAP6 SWAP9 SWAP12 POP SWAP3 SWAP6 SWAP9 SWAP12 POP SWAP3 SWAP6 SWAP9 SWAP12 JUMP JUMPDEST PUSH1 0x0 PUSH1 0xFF DUP3 AND PUSH1 0xFF DUP5 AND DUP1 PUSH1 0xFF SUB DUP3 GT ISZERO PUSH2 0x5D49 JUMPI PUSH2 0x5D49 PUSH2 0x57C0 JUMP JUMPDEST ADD SWAP4 SWAP3 POP POP POP JUMP JUMPDEST PUSH1 0x0 DUP1 DUP4 SLOAD DUP2 PUSH1 0x1 DUP3 DUP2 SHR SWAP2 POP DUP1 DUP4 AND DUP1 PUSH2 0x5D6D JUMPI PUSH1 0x7F DUP4 AND SWAP3 POP JUMPDEST PUSH1 0x20 DUP1 DUP5 LT DUP3 EQ ISZERO PUSH2 0x5D8D JUMPI PUSH4 0x4E487B71 PUSH1 0xE0 SHL DUP7 MSTORE PUSH1 0x22 PUSH1 0x4 MSTORE PUSH1 0x24 DUP7 REVERT JUMPDEST DUP2 DUP1 ISZERO PUSH2 0x5DA1 JUMPI PUSH1 0x1 DUP2 EQ PUSH2 0x5DB2 JUMPI PUSH2 0x5DDF JUMP JUMPDEST PUSH1 0xFF NOT DUP7 AND DUP10 MSTORE DUP5 DUP10 ADD SWAP7 POP PUSH2 0x5DDF JUMP JUMPDEST PUSH1 0x0 DUP11 DUP2 MSTORE PUSH1 0x20 SWAP1 KECCAK256 PUSH1 0x0 JUMPDEST DUP7 DUP2 LT ISZERO PUSH2 0x5DD7 JUMPI DUP2 SLOAD DUP12 DUP3 ADD MSTORE SWAP1 DUP6 ADD SWAP1 DUP4 ADD PUSH2 0x5DBE JUMP JUMPDEST POP POP DUP5 DUP10 ADD SWAP7 POP JUMPDEST POP SWAP5 SWAP9 SWAP8 POP POP POP POP POP POP POP POP JUMP JUMPDEST PUSH4 0x4E487B71 PUSH1 0xE0 SHL PUSH1 0x0 MSTORE PUSH1 0x31 PUSH1 0x4 MSTORE PUSH1 0x24 PUSH1 0x0 REVERT JUMPDEST PUSH1 0x0 DUP2 PUSH1 0x0 NOT DIV DUP4 GT DUP3 ISZERO ISZERO AND ISZERO PUSH2 0x5E1D JUMPI PUSH2 0x5E1D PUSH2 0x57C0 JUMP JUMPDEST POP MUL SWAP1 JUMP JUMPDEST PUSH1 0x0 DUP3 PUSH2 0x5E3F JUMPI PUSH4 0x4E487B71 PUSH1 0xE0 SHL PUSH1 0x0 MSTORE PUSH1 0x12 PUSH1 0x4 MSTORE PUSH1 0x24 PUSH1 0x0 REVERT JUMPDEST POP DIV SWAP1 JUMP JUMPDEST PUSH1 0x0 PUSH1 0x20 DUP3 DUP5 SUB SLT ISZERO PUSH2 0x5E56 JUMPI PUSH1 0x0 DUP1 REVERT JUMPDEST DUP2 MLOAD PUSH2 0xDC3 DUP2 PUSH2 0x4EBA JUMP JUMPDEST PUSH1 0x0 DUP3 MLOAD PUSH2 0x5E73 DUP2 DUP5 PUSH1 0x20 DUP8 ADD PUSH2 0x4E2F JUMP JUMPDEST SWAP2 SWAP1 SWAP2 ADD SWAP3 SWAP2 POP POP JUMP INVALID LOG2 PUSH5 0x6970667358 0x22 SLT KECCAK256 SWAP7 SWAP8 0xA9 MOD 0xB5 SWAP6 DIV 0xC4 0xA6 0xDB 0x4F CALLVALUE 0x2F CALL PUSH12 0x72AB394C370E0C31FD5DA80 SSTORE 0xDB 0xC9 DUP3 0x5E PUSH5 0x736F6C6343 STOP ADDMOD 0xC STOP CALLER ","sha1":"0b37c41a9a57b60a288e60f7238cfcca829ee8ef","source":"pragma solidity 0.8.12;\n// Copyright BigchainDB GmbH and Ocean Protocol contributors\n// SPDX-License-Identifier: (Apache-2.0 AND CC-BY-4.0)\n// Code is Apache-2.0 and docs are CC-BY-4.0\n\nimport \"../interfaces/IERC721Template.sol\";\nimport \"../interfaces/IERC20Template.sol\";\nimport \"../interfaces/IFactoryRouter.sol\";\nimport \"../interfaces/IFixedRateExchange.sol\";\nimport \"../interfaces/IDispenser.sol\";\nimport \"OpenZeppelin/openzeppelin-contracts@4.2.0/contracts/token/ERC20/ERC20.sol\";\nimport \"OpenZeppelin/openzeppelin-contracts@4.2.0/contracts/token/ERC20/extensions/ERC20Burnable.sol\";\nimport \"OpenZeppelin/openzeppelin-contracts@4.2.0/contracts/token/ERC20/IERC20.sol\";\nimport \"OpenZeppelin/openzeppelin-contracts@4.2.0/contracts/utils/math/SafeMath.sol\";\n\nimport \"OpenZeppelin/openzeppelin-contracts@4.2.0/contracts/token/ERC20/utils/SafeERC20.sol\";\nimport \"OpenZeppelin/openzeppelin-contracts@4.2.0/contracts/security/ReentrancyGuard.sol\";\nimport \"../utils/ERC20Roles.sol\";\n\n/**\n * @title DatatokenTemplate\n *\n * @dev DatatokenTemplate is an ERC20 compliant token template\n *      Used by the factory contract as a bytecode reference to\n *      deploy new Datatokens.\n */\ncontract ERC20Template is\n    ERC20(\"test\", \"testSymbol\"),\n    ERC20Roles,\n    ERC20Burnable,\n    ReentrancyGuard\n{\n    using SafeMath for uint256;\n    using SafeERC20 for IERC20;\n\n    string private _name;\n    string private _symbol;\n    uint256 private _cap;\n    uint8 private constant _decimals = 18;\n    bool private initialized = false;\n    address private _erc721Address;\n    address private paymentCollector;\n    address private publishMarketFeeAddress;\n    address private publishMarketFeeToken;\n    uint256 private publishMarketFeeAmount;\n    uint256 public constant BASE = 1e18;\n    \n    // EIP 2612 SUPPORT\n    bytes32 public DOMAIN_SEPARATOR;\n    // keccak256(\"Permit(address owner,address spender,uint256 value,uint256 nonce,uint256 deadline)\");\n    bytes32 public constant PERMIT_TYPEHASH =\n        0x6e71edae12b1b97f4d1f60370fef10105fa2faae0126114a169c64845d6126c9;\n\n    mapping(address => uint256) public nonces;\n\n    address public router;\n    address[] deployedPools;\n    struct fixedRate{\n        address contractAddress;\n        bytes32 id;\n    }\n    fixedRate[] fixedRateExchanges;\n    address[] dispensers;\n\n    struct providerFee{\n        address providerFeeAddress;\n        address providerFeeToken; // address of the token \n        uint256 providerFeeAmount; // amount to be transfered to provider\n        uint8 v; // v of provider signed message\n        bytes32 r; // r of provider signed message\n        bytes32 s; // s of provider signed message\n        uint256 validUntil; //validity expresses in unix timestamp\n        bytes providerData; //data encoded by provider   \n    }\n\n    struct consumeMarketFee{\n        address consumeMarketFeeAddress;\n        address consumeMarketFeeToken; // address of the token marketplace wants to add fee on top\n        uint256 consumeMarketFeeAmount; // amount to be transfered to marketFeeCollector\n    }\n\n    event OrderStarted(\n        address indexed consumer,\n        address payer,\n        uint256 amount,\n        uint256 serviceIndex,\n        uint256 timestamp,\n        address indexed publishMarketAddress,\n        uint256 blockNumber\n    );\n\n    event OrderReused(\n            bytes32 orderTxId,\n            address caller,\n            uint256 timestamp,\n            uint256 number\n    );\n\n    event OrderExecuted( \n        address indexed providerAddress,\n        address indexed consumerAddress,\n        bytes32 orderTxId,\n        bytes providerData,\n        bytes providerSignature,\n        bytes consumerData,\n        bytes consumerSignature,\n        uint256 timestamp,\n        uint256 blockNumber\n    );\n\n    event PublishMarketFeeChanged(\n        address caller,\n        address PublishMarketFeeAddress,\n        address PublishMarketFeeToken,\n        uint256 PublishMarketFeeAmount\n    );\n\n    // emited for every order\n    event PublishMarketFee(\n        address indexed PublishMarketFeeAddress,\n        address indexed PublishMarketFeeToken,\n        uint256 PublishMarketFeeAmount\n    );\n\n    // emited for every order\n    event ConsumeMarketFee(\n        address indexed consumeMarketFeeAddress,\n        address indexed consumeMarketFeeToken,\n        uint256 consumeMarketFeeAmount\n    );\n\n    // emited for every order\n    event ProviderFee(\n        address indexed providerFeeAddress,\n        address indexed providerFeeToken,\n        uint256 providerFeeAmount,\n        bytes providerData,\n        uint8 v, \n        bytes32 r, \n        bytes32 s,\n        uint256 validUntil\n    );\n    \n\n    event MinterProposed(address currentMinter, address newMinter);\n\n    event MinterApproved(address currentMinter, address newMinter);\n\n    event NewPool(\n        address poolAddress,\n        address ssContract,\n        address baseTokenAddress\n    );\n    event VestingCreated(address indexed datatokenAddress,\n        address indexed publisherAddress,\n        uint256 vestingEndBlock,\n        uint256 totalVestingAmount);\n    event NewFixedRate(bytes32 exchangeId, address indexed owner, address exchangeContract, address indexed baseToken);\n    event NewDispenser(address dispenserContract);\n\n    event NewPaymentCollector(\n        address indexed caller,\n        address indexed _newPaymentCollector,\n        uint256 timestamp,\n        uint256 blockNumber\n    );\n\n    modifier onlyNotInitialized() {\n        require(\n            !initialized,\n            \"ERC20Template: token instance already initialized\"\n        );\n        _;\n    }\n    modifier onlyNFTOwner() {\n        require(\n            msg.sender == IERC721Template(_erc721Address).ownerOf(1),\n            \"ERC20Template: not NFTOwner\"\n        );\n        _;\n    }\n\n    modifier onlyPublishingMarketFeeAddress() {\n        require(\n            msg.sender == publishMarketFeeAddress,\n            \"ERC20Template: not publishMarketFeeAddress\"\n        );\n        _;\n    }\n\n    modifier onlyERC20Deployer() {\n        require(\n            IERC721Template(_erc721Address)\n                .getPermissions(msg.sender)\n                .deployERC20 || IERC721Template(_erc721Address).ownerOf(1) == msg.sender,\n            \"ERC20Template: NOT DEPLOYER ROLE\"\n        );\n        _;\n    }\n\n    /**\n     * @dev initialize\n     *      Called prior contract initialization (e.g creating new Datatoken instance)\n     *      Calls private _initialize function. Only if contract is not initialized.\n     * @param strings_ refers to an array of strings\n     *                      [0] = name token\n     *                      [1] = symbol\n     * @param addresses_ refers to an array of addresses passed by user\n     *                     [0]  = minter account who can mint datatokens (can have multiple minters)\n     *                     [1]  = paymentCollector  initial paymentCollector  for this DT\n     *                     [2]  = publishing Market Address\n     *                     [3]  = publishing Market Fee Token\n     * @param factoryAddresses_ refers to an array of addresses passed by the factory\n     *                     [0]  = erc721Address\n     *                     [1]  = router address\n     *\n     * @param uints_  refers to an array of uints\n     *                     [0] = cap_ the total ERC20 cap\n     *                     [1] = publishing Market Fee Amount\n     * @param bytes_  refers to an array of bytes\n     *                     Currently not used, usefull for future templates\n     */\n    function initialize(\n        string[] calldata strings_,\n        address[] calldata addresses_,\n        address[] calldata factoryAddresses_,\n        uint256[] calldata uints_,\n        bytes[] calldata bytes_\n    ) external onlyNotInitialized returns (bool) {\n        return\n            _initialize(\n                strings_,\n                addresses_,\n                factoryAddresses_,\n                uints_,\n                bytes_\n            );\n    }\n\n    /**\n     * @dev _initialize\n     *      Private function called on contract initialization.\n     * @param strings_ refers to an array of strings\n     *                      [0] = name token\n     *                      [1] = symbol\n     * @param addresses_ refers to an array of addresses passed by user\n     *                     [0]  = minter account who can mint datatokens (can have multiple minters)\n     *                     [1]  = paymentCollector  initial paymentCollector  for this DT\n     *                     [2]  = publishing Market Address\n     *                     [3]  = publishing Market Fee Token\n     * @param factoryAddresses_ refers to an array of addresses passed by the factory\n     *                     [0]  = erc721Address\n     *                     [1]  = router address\n     *\n     * @param uints_  refers to an array of uints\n     *                     [0] = cap_ the total ERC20 cap\n     *                     [1] = publishing Market Fee Amount\n     * param bytes_  refers to an array of bytes\n     *                     Currently not used, usefull for future templates\n     */\n    function _initialize(\n        string[] memory strings_,\n        address[] memory addresses_,\n        address[] memory factoryAddresses_,\n        uint256[] memory uints_,\n        bytes[] memory\n    ) private returns (bool) {\n        address erc721Address = factoryAddresses_[0];\n        router = factoryAddresses_[1];\n        require(\n            erc721Address != address(0),\n            \"ERC20Template: Invalid minter,  zero address\"\n        );\n\n        require(\n            router != address(0),\n            \"ERC20Template: Invalid router, zero address\"\n        );\n\n        // require(uints_[0] != 0, \"DatatokenTemplate: Invalid cap value\");\n        // _cap = uints_[0];\n        _cap = 0xffffffffffffffffffffffffffffffffffffffffffffffffffffffffffffffff;\n        _name = strings_[0];\n        _symbol = strings_[1];\n        _erc721Address = erc721Address;\n        initialized = true;\n        // add a default minter, similar to what happens with manager in the 721 contract\n        _addMinter(addresses_[0]);\n        if (addresses_[1] != address(0)) {\n            _setPaymentCollector(addresses_[1]);\n            emit NewPaymentCollector(\n                msg.sender,\n                addresses_[1],\n                block.timestamp,\n                block.number\n            );\n        }\n        publishMarketFeeAddress = addresses_[2];\n        publishMarketFeeToken = addresses_[3];\n        publishMarketFeeAmount = uints_[1];\n        emit PublishMarketFeeChanged(\n            msg.sender,\n            publishMarketFeeAddress,\n            publishMarketFeeToken,\n            publishMarketFeeAmount\n        );\n        uint256 chainId;\n        assembly {\n            chainId := chainid()\n        }\n        DOMAIN_SEPARATOR = keccak256(\n            abi.encode(\n                keccak256(\n                    \"EIP712Domain(string name,string version,uint256 chainId,address verifyingContract)\"\n                ),\n                keccak256(bytes(_name)),\n                keccak256(bytes(\"1\")), // version, could be any other value\n                chainId,\n                address(this)\n            )\n        );\n\n        return initialized;\n    }\n\n    /**\n     * @dev deployPool\n     *      Function to deploy new Pool with 1SS. It also has a vesting schedule.\n     *     This function can only be called ONCE and ONLY if no token have been minted yet.\n     *      Requires baseToken approval\n     * @param ssParams params for the ssContract. \n     *                     [0]  = rate (wei)\n     *                     [1]  = baseToken decimals\n     *                     [2]  = vesting amount (wei)\n     *                     [3]  = vested blocks\n     *                     [4]  = initial liquidity in baseToken for pool creation\n     * @param swapFees swapFees (swapFee, swapMarketFee), swapOceanFee will be set automatically later\n     *                     [0] = swapFee for LP Providers\n     *                     [1] = swapFee for marketplace runner\n      \n      .\n     * @param addresses refers to an array of addresses passed by user\n     *                     [0]  = side staking contract address\n     *                     [1]  = baseToken address for pool creation(OCEAN or other)\n     *                     [2]  = baseTokenSender user which will provide the baseToken amount for initial liquidity\n     *                     [3]  = publisherAddress user which will be assigned the vested amount\n     *                     [4]  = marketFeeCollector marketFeeCollector address\n                           [5] = poolTemplateAddress\n     */\n\n    function deployPool(\n        uint256[] memory ssParams,\n        uint256[] memory swapFees,\n        address[] memory addresses\n    ) external onlyERC20Deployer nonReentrant returns (address pool) {\n        require(totalSupply() == 0, \"ERC20Template: tokens already minted\");\n        _addMinter(addresses[0]);\n        // TODO: confirm minimum number of blocks required\n        require(\n            ssParams[3] >= IFactoryRouter(router).getMinVestingPeriod(),\n            \"ERC20Template: Vesting period too low. See FactoryRouter.minVestingPeriodInBlocks\"\n        );\n\n        address[2] memory tokens = [address(this), addresses[1]];\n        pool = IFactoryRouter(router).deployPool(\n            tokens,\n            ssParams,\n            swapFees,\n            addresses\n        );\n        deployedPools.push(pool);\n        emit NewPool(pool, addresses[0], addresses[1]);\n    }\n\n    /**\n     * @dev createFixedRate\n     *      Creates a new FixedRateExchange setup.\n     * @param fixedPriceAddress fixedPriceAddress\n     * @param addresses array of addresses [baseToken,owner,marketFeeCollector]\n     * @param uints array of uints [baseTokenDecimals,datatokenDecimals, fixedRate, marketFee, withMint]\n     * @return exchangeId\n     */\n    function createFixedRate(\n        address fixedPriceAddress,\n        address[] memory addresses,\n        uint256[] memory uints\n    ) external onlyERC20Deployer nonReentrant returns (bytes32 exchangeId) {\n        // add FixedPriced contract as minter if withMint == true\n        if (uints[4] > 0) _addMinter(fixedPriceAddress);\n        exchangeId = IFactoryRouter(router).deployFixedRate(\n            fixedPriceAddress,\n            addresses,\n            uints\n        );\n        emit NewFixedRate(exchangeId, addresses[1], fixedPriceAddress, addresses[0]);\n        fixedRateExchanges.push(fixedRate(fixedPriceAddress,exchangeId));\n\n    }\n\n    /**\n     * @dev createDispenser\n     *      Creates a new Dispenser\n     * @param _dispenser dispenser contract address\n     * @param maxTokens - max tokens to dispense\n     * @param maxBalance - max balance of requester.\n     * @param withMint - true if we want to allow the dispenser to be a minter\n     * @param allowedSwapper - only account that can ask tokens. set address(0) if not required\n     */\n    function createDispenser(\n        address _dispenser,\n        uint256 maxTokens,\n        uint256 maxBalance,\n        bool withMint,\n        address allowedSwapper\n    ) external onlyERC20Deployer nonReentrant {\n        // add FixedPriced contract as minter if withMint == true\n        if (withMint) _addMinter(_dispenser);\n        dispensers.push(_dispenser);\n        emit NewDispenser(_dispenser);\n        IFactoryRouter(router).deployDispenser(\n            _dispenser,\n            address(this),\n            maxTokens,\n            maxBalance,\n            msg.sender,\n            allowedSwapper\n        );\n    }\n\n    /**\n     * @dev mint\n     *      Only the minter address can call it.\n     *      msg.value should be higher than zero and gt or eq minting fee\n     * @param account refers to an address that token is going to be minted to.\n     * @param value refers to amount of tokens that is going to be minted.\n     */\n    function mint(address account, uint256 value) external {\n        require(permissions[msg.sender].minter, \"ERC20Template: NOT MINTER\");\n        require(\n            totalSupply().add(value) <= _cap,\n            \"DatatokenTemplate: cap exceeded\"\n        );\n        _mint(account, value);\n    }\n\n    \n    /**\n     * @dev _checkProviderFee\n     *      Checks if a providerFee structure is valid, signed and \n     *      transfers fee to providerAddress\n     * @param _providerFee providerFee structure\n     */\n    function _checkProviderFee(providerFee calldata _providerFee) internal{\n        // check if they are signed\n        bytes memory prefix = \"\\x19Ethereum Signed Message:\\n32\";\n        bytes32 message = keccak256(\n            abi.encodePacked(prefix,\n                keccak256(\n                    abi.encodePacked(\n                        _providerFee.providerData,\n                        _providerFee.providerFeeAddress,\n                        _providerFee.providerFeeToken,\n                        _providerFee.providerFeeAmount,\n                        _providerFee.validUntil\n                    )\n                )\n            )\n        );\n        address signer = ecrecover(message, _providerFee.v, _providerFee.r, _providerFee.s);\n        require(signer == _providerFee.providerFeeAddress, \"Invalid provider fee\");\n        emit ProviderFee(\n            _providerFee.providerFeeAddress,\n            _providerFee.providerFeeToken,\n            _providerFee.providerFeeAmount,\n            _providerFee.providerData,\n            _providerFee.v,\n            _providerFee.r,\n            _providerFee.s,\n            _providerFee.validUntil\n        );\n        // skip fee if amount == 0 or feeToken == 0x0 address or feeAddress == 0x0 address\n        // Requires approval for the providerFeeToken of providerFeeAmount\n        if (\n            _providerFee.providerFeeAmount > 0 &&\n            _providerFee.providerFeeToken != address(0) &&\n            _providerFee.providerFeeAddress != address(0)\n        ) {\n            uint256 OPCFee = IFactoryRouter(router).getOPCProviderFee();\n            uint256 OPCcut = 0;\n            if(OPCFee > 0)\n                OPCcut = _providerFee.providerFeeAmount.mul(OPCFee).div(BASE);\n            uint256 providerCut = _providerFee.providerFeeAmount.sub(OPCcut);\n\n            _pullUnderlying(_providerFee.providerFeeToken,msg.sender,\n                address(this),\n                _providerFee.providerFeeAmount);\n            IERC20(_providerFee.providerFeeToken).safeTransfer(\n                _providerFee.providerFeeAddress,\n                providerCut\n            );\n            if(OPCcut > 0){\n              IERC20(_providerFee.providerFeeToken).safeTransfer(\n                IFactoryRouter(router).getOPCCollector(),\n                OPCcut\n            );  \n            }\n        }\n    }\n    \n    /**\n     * @dev startOrder\n     *      called by payer or consumer prior ordering a service consume on a marketplace.\n     *      Requires previous approval of consumeFeeToken and publishMarketFeeToken\n     * @param consumer is the consumer address (payer could be different address)\n     * @param serviceIndex service index in the metadata\n     * @param _providerFee provider fee\n     * @param _consumeMarketFee consume market fee\n     */\n    function startOrder(\n        address consumer,\n        uint256 serviceIndex,\n        providerFee calldata _providerFee,\n        consumeMarketFee calldata _consumeMarketFee\n    ) external nonReentrant {\n        uint256 amount = 1e18; // we always pay 1 DT. No more, no less\n        require(\n            balanceOf(msg.sender) >= amount,\n            \"Not enough datatokens to start Order\"\n        );\n        emit OrderStarted(\n            consumer,\n            msg.sender,\n            amount,\n            serviceIndex,\n            block.timestamp,\n            publishMarketFeeAddress,\n            block.number\n        );\n        // publishMarketFee\n        // Requires approval for the publishMarketFeeToken of publishMarketFeeAmount\n        // skip fee if amount == 0 or feeToken == 0x0 address or feeAddress == 0x0 address\n        if (\n            publishMarketFeeAmount > 0 &&\n            publishMarketFeeToken != address(0) &&\n            publishMarketFeeAddress != address(0)\n        ) {\n            _pullUnderlying(publishMarketFeeToken,msg.sender,\n                publishMarketFeeAddress,\n                publishMarketFeeAmount);\n            \n            emit PublishMarketFee(\n                publishMarketFeeAddress,\n                publishMarketFeeToken,\n                publishMarketFeeAmount\n            );\n        }\n\n        // consumeMarketFee\n        // Requires approval for the FeeToken \n        // skip fee if amount == 0 or feeToken == 0x0 address or feeAddress == 0x0 address\n        if (\n            _consumeMarketFee.consumeMarketFeeAmount > 0 &&\n            _consumeMarketFee.consumeMarketFeeToken != address(0) &&\n            _consumeMarketFee.consumeMarketFeeAddress != address(0)\n        ) {\n            _pullUnderlying(_consumeMarketFee.consumeMarketFeeToken,msg.sender,\n                _consumeMarketFee.consumeMarketFeeAddress,\n                _consumeMarketFee.consumeMarketFeeAmount);\n            emit ConsumeMarketFee(\n                _consumeMarketFee.consumeMarketFeeAddress,\n                _consumeMarketFee.consumeMarketFeeToken,\n                _consumeMarketFee.consumeMarketFeeAmount\n            );\n        }\n        _checkProviderFee(_providerFee);\n        uint256 OPCFee = IFactoryRouter(router).getOPCConsumeFee();\n        \n        // send datatoken to publisher\n        require(\n            transfer(getPaymentCollector(), amount.sub(OPCFee)),\n            \"Failed to send DT to publisher\"\n        );\n        require(\n            transfer(IFactoryRouter(router).getOPCCollector(), OPCFee),\n            \"Failed to send DT to OPC\"\n        );\n    }\n\n    /**\n     * @dev reuseOrder\n     *      called by payer or consumer having a valid order, but with expired provider access\n     *      Pays the provider fee again, but it will not require a new datatoken payment\n     *      Requires previous approval of provider fee.\n     * @param orderTxId previous valid order\n     * @param _providerFee provider feee\n     */\n    function reuseOrder(\n        bytes32 orderTxId,\n        providerFee calldata _providerFee\n    ) external nonReentrant {\n        emit OrderReused(\n            orderTxId,\n            msg.sender,\n            block.timestamp,\n            block.number\n        );\n        _checkProviderFee(_providerFee);\n    }\n\n    /**\n     * @dev addMinter\n     *      Only ERC20Deployer (at 721 level) can update.\n     *      There can be multiple minters\n     * @param _minter new minter address\n     */\n\n    function addMinter(address _minter) external onlyERC20Deployer {\n        _addMinter(_minter);\n    }\n\n    /**\n     * @dev removeMinter\n     *      Only ERC20Deployer (at 721 level) can update.\n     *      There can be multiple minters\n     * @param _minter minter address to remove\n     */\n\n    function removeMinter(address _minter) external onlyERC20Deployer {\n        _removeMinter(_minter);\n    }\n\n    /**\n     * @dev addPaymentManager (can set who's going to collect fee when consuming orders)\n     *      Only ERC20Deployer (at 721 level) can update.\n     *      There can be multiple paymentCollectors\n     * @param _paymentManager new minter address\n     */\n\n    function addPaymentManager(address _paymentManager)\n        external\n        onlyERC20Deployer\n    {\n        _addPaymentManager(_paymentManager);\n    }\n\n    /**\n     * @dev removePaymentManager\n     *      Only ERC20Deployer (at 721 level) can update.\n     *      There can be multiple paymentManagers\n     * @param _paymentManager _paymentManager address to remove\n     */\n\n    function removePaymentManager(address _paymentManager)\n        external\n        onlyERC20Deployer\n    {\n        _removePaymentManager(_paymentManager);\n    }\n\n    /**\n     * @dev setData\n     *      Only ERC20Deployer (at 721 level) can call it.\n     *      This function allows to store data with a preset key (keccak256(ERC20Address)) into NFT 725 Store\n     * @param _value data to be set with this key\n     */\n\n    function setData(bytes calldata _value) external onlyERC20Deployer {\n        bytes32 key = keccak256(abi.encodePacked(address(this)));\n        IERC721Template(_erc721Address).setDataERC20(key, _value);\n    }\n\n    /**\n     * @dev cleanPermissions()\n     *      Only NFT Owner (at 721 level) can call it.\n     *      This function allows to remove all minters, feeManagers and reset the paymentCollector\n     *\n     */\n\n    function cleanPermissions() external onlyNFTOwner {\n        _internalCleanPermissions();\n        \n    }\n    \n    \n    /**\n     * @dev cleanFrom721()\n     *      OnlyNFT(721) Contract can call it.\n     *      This function allows to remove all minters, feeManagers and reset the paymentCollector\n     *       This function is used when transferring an NFT to a new owner,\n     * so that permissions at ERC20level (minter,feeManager,paymentCollector) can be reset.\n     *\n     */\n    function cleanFrom721() external {\n        require(\n            msg.sender == _erc721Address,\n            \"ERC20Template: NOT 721 Contract\"\n        );\n        _internalCleanPermissions();\n        \n    }\n\n    function _internalCleanPermissions() internal {\n        uint256 totalLen = fixedRateExchanges.length + dispensers.length;\n        uint256 curentLen = 0;\n        address[] memory previousMinters=new address[](totalLen);\n        // loop though fixedrates, empty and preserve the minter rols if exists\n        uint256 i;\n        for(i=0; i<fixedRateExchanges.length; i++) {\n                IFixedRateExchange fre = IFixedRateExchange(fixedRateExchanges[i].contractAddress);\n                (\n                    ,\n                    ,\n                    ,\n                    ,\n                    ,\n                    ,\n                    ,\n                    ,\n                    ,\n                    uint256 dtBalance,\n                    uint256 btBalance,\n                    bool withMint\n                ) = fre.getExchange(fixedRateExchanges[i].id);\n                if(btBalance>0)\n                    fre.collectBT(fixedRateExchanges[i].id, btBalance);\n                if(dtBalance>0)\n                    fre.collectDT(fixedRateExchanges[i].id, dtBalance);\n                // add it to the list of minters\n                if(isMinter(fixedRateExchanges[i].contractAddress) && withMint == true){\n                    previousMinters[curentLen]=fixedRateExchanges[i].contractAddress;\n                    curentLen++;\n                }\n        }\n        // loop though dispenser and preserve the minter rols if exists\n        for(i=0; i<dispensers.length; i++) {\n                IDispenser(dispensers[i]).ownerWithdraw(address(this));\n                if(isMinter(dispensers[i])){\n                    previousMinters[curentLen]=dispensers[i];\n                    curentLen++;\n                }\n        }\n        // clear all permisions\n         _cleanPermissions();\n        // set collector to 0\n        paymentCollector = address(0);\n        // add existing minter roles for fixedrate & dispensers\n        for(i=0; i<curentLen; i++) {\n            _addMinter(previousMinters[i]);\n        }\n        \n    }\n    /**\n     * @dev setPaymentCollector\n     *      Only feeManager can call it\n     *      This function allows to set a newPaymentCollector (receives DT when consuming)\n            If not set the paymentCollector is the NFT Owner\n     * @param _newPaymentCollector new fee collector \n     */\n\n    function setPaymentCollector(address _newPaymentCollector) external {\n        //we allow _newPaymentCollector = address(0), because it means that the collector is nft owner\n        require(\n            permissions[msg.sender].paymentManager ||\n                IERC721Template(_erc721Address).getPermissions(msg.sender).deployERC20 ||\n                IERC721Template(_erc721Address).ownerOf(1)==msg.sender,\n            \"ERC20Template: NOT PAYMENT MANAGER or OWNER\"\n        );\n        _setPaymentCollector(_newPaymentCollector);\n        emit NewPaymentCollector(\n            msg.sender,\n            _newPaymentCollector,\n            block.timestamp,\n            block.number\n        );\n    }\n\n    /**\n     * @dev _setPaymentCollector\n     * @param _newPaymentCollector new fee collector\n     */\n\n    function _setPaymentCollector(address _newPaymentCollector) internal {\n        paymentCollector = _newPaymentCollector;\n    }\n\n    /**\n     * @dev getPublishingMarketFee\n     *      Get publishingMarket Fee\n     *      This function allows to get the current fee set by the publishing market\n     */\n    function getPublishingMarketFee()\n        external\n        view\n        returns (\n            address,\n            address,\n            uint256\n        )\n    {\n        return (\n            publishMarketFeeAddress,\n            publishMarketFeeToken,\n            publishMarketFeeAmount\n        );\n    }\n\n    /**\n     * @dev setPublishingMarketFee\n     *      Only publishMarketFeeAddress can call it\n     *      This function allows to set the fee required by the publisherMarket\n     * @param _publishMarketFeeAddress  new _publishMarketFeeAddress\n     * @param _publishMarketFeeToken new _publishMarketFeeToken\n     * @param _publishMarketFeeAmount new fee amount\n     */\n    function setPublishingMarketFee(\n        address _publishMarketFeeAddress,\n        address _publishMarketFeeToken,\n        uint256 _publishMarketFeeAmount\n    ) external onlyPublishingMarketFeeAddress {\n        require(\n            _publishMarketFeeAddress != address(0),\n            \"Invalid _publishMarketFeeAddress address\"\n        );\n           require(\n            _publishMarketFeeToken != address(0),\n            \"Invalid _publishMarketFeeToken address\"\n        );\n        publishMarketFeeAddress = _publishMarketFeeAddress;\n        publishMarketFeeToken = _publishMarketFeeToken;\n        publishMarketFeeAmount = _publishMarketFeeAmount;\n        emit PublishMarketFeeChanged(\n            msg.sender,\n            _publishMarketFeeAddress,\n            _publishMarketFeeToken,\n            _publishMarketFeeAmount\n        );\n    }\n\n    /**\n     * @dev getId\n     *      Return template id in case we need different ABIs. \n     *      If you construct your own template, please make sure to change the hardcoded value\n     */\n    function getId() pure public returns (uint8) {\n        return 1;\n    }\n\n    /**\n     * @dev name\n     *      It returns the token name.\n     * @return Datatoken name.\n     */\n    function name() public view override returns (string memory) {\n        return _name;\n    }\n\n    /**\n     * @dev symbol\n     *      It returns the token symbol.\n     * @return Datatoken symbol.\n     */\n    function symbol() public view override returns (string memory) {\n        return _symbol;\n    }\n\n    /**\n     * @dev getERC721Address\n     *      It returns the parent ERC721\n     * @return ERC721 address.\n     */\n    function getERC721Address() public view returns (address) {\n        return _erc721Address;\n    }\n\n    /**\n     * @dev decimals\n     *      It returns the token decimals.\n     *      how many supported decimal points\n     * @return Datatoken decimals.\n     */\n    function decimals() public pure override returns (uint8) {\n        return _decimals;\n    }\n\n    /**\n     * @dev cap\n     *      it returns the capital.\n     * @return Datatoken cap.\n     */\n    function cap() external view returns (uint256) {\n        return _cap;\n    }\n\n    /**\n     * @dev isInitialized\n     *      It checks whether the contract is initialized.\n     * @return true if the contract is initialized.\n     */\n\n    function isInitialized() external view returns (bool) {\n        return initialized;\n    }\n\n    /**\n     * @dev permit\n     *      used for signed approvals, see ERC20Template test for more details\n     * @param owner user who signed the message\n     * @param spender spender\n     * @param value token amount\n     * @param deadline deadline after which signed message is no more valid\n     * @param v parameters from signed message\n     * @param r parameters from signed message\n     * @param s parameters from signed message\n     */\n\n    function permit(\n        address owner,\n        address spender,\n        uint256 value,\n        uint256 deadline,\n        uint8 v,\n        bytes32 r,\n        bytes32 s\n    ) external {\n        require(deadline >= block.number, \"ERC20DT: EXPIRED\");\n        bytes32 digest = keccak256(\n            abi.encodePacked(\n                \"\\x19\\x01\",\n                DOMAIN_SEPARATOR,\n                keccak256(\n                    abi.encode(\n                        PERMIT_TYPEHASH,\n                        owner,\n                        spender,\n                        value,\n                        nonces[owner]++,\n                        deadline\n                    )\n                )\n            )\n        );\n        address recoveredAddress = ecrecover(digest, v, r, s);\n        require(\n            recoveredAddress != address(0) && recoveredAddress == owner,\n            \"ERC20DT: INVALID_SIGNATURE\"\n        );\n        _approve(owner, spender, value);\n    }\n\n    /**\n     * @dev getAddressLength\n     *      It returns the array lentgh\n            @param array address array we want to get length\n     * @return length\n     */\n\n    function getAddressLength(address[] memory array)\n        private\n        pure\n        returns (uint256)\n    {\n        return array.length;\n    }\n\n    /**\n     * @dev getUintLength\n     *      It returns the array lentgh\n            @param array uint array we want to get length\n     * @return length\n     */\n\n    function getUintLength(uint256[] memory array)\n        private\n        pure\n        returns (uint256)\n    {\n        return array.length;\n    }\n\n    /**\n     * @dev getBytesLength\n     *      It returns the array lentgh\n            @param array bytes32 array we want to get length\n     * @return length\n     */\n\n    function getBytesLength(bytes32[] memory array)\n        private\n        pure\n        returns (uint256)\n    {\n        return array.length;\n    }\n\n    /**\n     * @dev getPaymentCollector\n     *      It returns the current paymentCollector\n     * @return paymentCollector address\n     */\n\n    function getPaymentCollector() public view returns (address) {\n        if (paymentCollector == address(0)) {\n            return IERC721Template(_erc721Address).ownerOf(1);\n        } else {\n            return paymentCollector;\n        }\n    }\n\n    /**\n     * @dev fallback function\n     *      this is a default fallback function in which receives\n     *      the collected ether.\n     */\n    fallback() external payable {}\n    \n    /**\n     * @dev receive function\n     *      this is a default receive function in which receives\n     *      the collected ether.\n     */\n    receive() external payable {}\n\n    /**\n     * @dev withdrawETH\n     *      transfers all the accumlated ether the collector account\n     */\n    function withdrawETH() external payable {\n        payable(getPaymentCollector()).transfer(address(this).balance);\n    }\n\n    /**\n    * @dev isERC20Deployer\n    *      returns true if address has deployERC20 role\n    */\n    function isERC20Deployer(address user) public view returns(bool){\n        return(IERC721Template(_erc721Address).getPermissions(user).deployERC20);\n    }\n\n    /**\n     * @dev getPools\n     *      Returns the list of pools created for this datatoken\n     */\n    function getPools() public view returns(address[] memory) {\n        return(deployedPools);\n    }\n    /**\n     * @dev getFixedRates\n     *      Returns the list of fixedRateExchanges created for this datatoken\n     */\n    function getFixedRates() public view returns(fixedRate[] memory) {\n        return(fixedRateExchanges);\n    }\n    /**\n     * @dev getDispensers\n     *      Returns the list of dispensers created for this datatoken\n     */\n    function getDispensers() public view returns(address[] memory) {\n        return(dispensers);\n    }\n\n    function _pullUnderlying(\n        address erc20,\n        address from,\n        address to,\n        uint256 amount\n    ) internal {\n        uint256 balanceBefore = IERC20(erc20).balanceOf(to);\n        IERC20(erc20).safeTransferFrom(from, to, amount);\n        require(IERC20(erc20).balanceOf(to) >= balanceBefore.add(amount),\n                    \"Transfer amount is too low\");\n    }\n\n\n    /**\n     * @dev orderExecuted\n     *      Providers should call this to prove order execution\n     * @param orderTxId order tx\n     * @param providerData provider data\n     * @param providerSignature provider signature\n     * @param consumerData consumer data\n     * @param consumerSignature consumer signature\n     * @param consumerAddress consumer address\n     */\n    function orderExecuted(\n        bytes32 orderTxId,\n        bytes calldata providerData,\n        bytes calldata providerSignature,\n        bytes calldata consumerData,\n        bytes calldata consumerSignature,\n        address consumerAddress\n    ) external {\n        require(msg.sender != consumerAddress, \"Provider cannot be the consumer\");\n        bytes memory prefix = \"\\x19Ethereum Signed Message:\\n32\";\n        bytes32 providerHash = keccak256(\n            abi.encodePacked(prefix,\n                keccak256(\n                    abi.encodePacked(\n                        orderTxId,\n                        providerData\n                    )\n                )\n            )\n        );\n        require(_ecrecovery(providerHash, providerSignature) == msg.sender, \"Provider signature check failed\");\n        bytes32 consumerHash = keccak256(\n            abi.encodePacked(prefix,\n                keccak256(\n                    abi.encodePacked(\n                        consumerData\n                    )\n                )\n            )\n        );\n        require(_ecrecovery(consumerHash, consumerSignature) == consumerAddress, \"Consumer signature check failed\");\n        emit OrderExecuted(msg.sender, consumerAddress ,orderTxId, providerData, providerSignature,\n                consumerData, consumerSignature, block.timestamp, block.number);\n    }\n\n\n\n    function _ecrecovery(bytes32 hash, bytes memory sig) pure internal returns (address) {\n        bytes32 r;\n        bytes32 s;\n        uint8 v;\n        if (sig.length != 65) {\n          return address(0);\n        }\n        assembly {\n          r := mload(add(sig, 32))\n        s := mload(add(sig, 64))\n        v := and(mload(add(sig, 65)), 255)\n        }\n        if (v < 27) {\n          v += 27;\n        }   \n        if (v != 27 && v != 28) {\n        return address(0);\n        }\n        return ecrecover(hash, v, r, s);\n    }\n\n}\n","sourcePath":"contracts/oceanv4/templates/ERC20Template.sol","type":"contract","deployment":{"address":"0x1d535147a97bd87c8443125376E6671B60556E07","chainid":"5","blockHeight":8974884}}