{"abi":[{"inputs":[{"internalType":"address","name":"_router","type":"address"}],"stateMutability":"nonpayable","type":"constructor","name":"constructor"},{"anonymous":false,"inputs":[{"indexed":true,"internalType":"address","name":"datatokenAddress","type":"address"},{"indexed":true,"internalType":"address","name":"publisherAddress","type":"address"},{"indexed":true,"internalType":"address","name":"caller","type":"address"},{"indexed":false,"internalType":"uint256","name":"amountVested","type":"uint256"}],"name":"Vesting","type":"event"},{"anonymous":false,"inputs":[{"indexed":true,"internalType":"address","name":"datatokenAddress","type":"address"},{"indexed":true,"internalType":"address","name":"publisherAddress","type":"address"},{"indexed":false,"internalType":"uint256","name":"vestingEndBlock","type":"uint256"},{"indexed":false,"internalType":"uint256","name":"totalVestingAmount","type":"uint256"}],"name":"VestingCreated","type":"event"},{"inputs":[{"internalType":"address","name":"datatokenAddress","type":"address"},{"internalType":"uint256","name":"amount","type":"uint256"}],"name":"Stake","outputs":[],"stateMutability":"nonpayable","type":"function"},{"inputs":[{"internalType":"address","name":"datatokenAddress","type":"address"},{"internalType":"uint256","name":"dtAmountIn","type":"uint256"},{"internalType":"uint256","name":"poolAmountOut","type":"uint256"}],"name":"UnStake","outputs":[],"stateMutability":"nonpayable","type":"function"},{"inputs":[{"internalType":"address","name":"datatokenAddress","type":"address"},{"internalType":"uint256","name":"amount","type":"uint256"}],"name":"canStake","outputs":[{"internalType":"bool","name":"","type":"bool"}],"stateMutability":"view","type":"function"},{"inputs":[{"internalType":"address","name":"datatokenAddress","type":"address"},{"internalType":"uint256","name":"lptIn","type":"uint256"}],"name":"canUnStake","outputs":[{"internalType":"bool","name":"","type":"bool"}],"stateMutability":"view","type":"function"},{"inputs":[{"internalType":"address","name":"","type":"address"}],"name":"getAvailableVesting","outputs":[{"internalType":"uint256","name":"","type":"uint256"}],"stateMutability":"pure","type":"function"},{"inputs":[{"internalType":"address","name":"datatokenAddress","type":"address"}],"name":"getBaseTokenAddress","outputs":[{"internalType":"address","name":"","type":"address"}],"stateMutability":"view","type":"function"},{"inputs":[{"internalType":"address","name":"datatokenAddress","type":"address"}],"name":"getBaseTokenBalance","outputs":[{"internalType":"uint256","name":"","type":"uint256"}],"stateMutability":"view","type":"function"},{"inputs":[{"internalType":"address","name":"datatokenAddress","type":"address"}],"name":"getDatatokenBalance","outputs":[{"internalType":"uint256","name":"","type":"uint256"}],"stateMutability":"view","type":"function"},{"inputs":[{"internalType":"address","name":"datatokenAddress","type":"address"}],"name":"getDatatokenCirculatingSupply","outputs":[{"internalType":"uint256","name":"","type":"uint256"}],"stateMutability":"view","type":"function"},{"inputs":[{"internalType":"address","name":"datatokenAddress","type":"address"}],"name":"getDatatokenCurrentCirculatingSupply","outputs":[{"internalType":"uint256","name":"","type":"uint256"}],"stateMutability":"view","type":"function"},{"inputs":[],"name":"getId","outputs":[{"internalType":"uint8","name":"","type":"uint8"}],"stateMutability":"pure","type":"function"},{"inputs":[{"internalType":"address","name":"datatokenAddress","type":"address"}],"name":"getPoolAddress","outputs":[{"internalType":"address","name":"","type":"address"}],"stateMutability":"view","type":"function"},{"inputs":[{"internalType":"address","name":"datatokenAddress","type":"address"}],"name":"getPublisherAddress","outputs":[{"internalType":"address","name":"","type":"address"}],"stateMutability":"view","type":"function"},{"inputs":[{"internalType":"address","name":"datatokenAddress","type":"address"}],"name":"getVesting","outputs":[],"stateMutability":"nonpayable","type":"function"},{"inputs":[{"internalType":"address","name":"datatokenAddress","type":"address"}],"name":"getvestingAmount","outputs":[{"internalType":"uint256","name":"","type":"uint256"}],"stateMutability":"view","type":"function"},{"inputs":[{"internalType":"address","name":"datatokenAddress","type":"address"}],"name":"getvestingAmountSoFar","outputs":[{"internalType":"uint256","name":"","type":"uint256"}],"stateMutability":"view","type":"function"},{"inputs":[{"internalType":"address","name":"datatokenAddress","type":"address"}],"name":"getvestingEndBlock","outputs":[{"internalType":"uint256","name":"","type":"uint256"}],"stateMutability":"view","type":"function"},{"inputs":[{"internalType":"address","name":"datatokenAddress","type":"address"}],"name":"getvestingLastBlock","outputs":[{"internalType":"uint256","name":"","type":"uint256"}],"stateMutability":"view","type":"function"},{"inputs":[{"internalType":"address","name":"datatokenAddress","type":"address"},{"internalType":"address","name":"baseTokenAddress","type":"address"},{"internalType":"address","name":"poolAddress","type":"address"},{"internalType":"address","name":"publisherAddress","type":"address"},{"internalType":"uint256[]","name":"ssParams","type":"uint256[]"}],"name":"newDatatokenCreated","outputs":[{"internalType":"bool","name":"","type":"bool"}],"stateMutability":"nonpayable","type":"function"},{"inputs":[],"name":"router","outputs":[{"internalType":"address","name":"","type":"address"}],"stateMutability":"view","type":"function"},{"inputs":[{"internalType":"address","name":"datatokenAddress","type":"address"},{"internalType":"address","name":"poolAddress","type":"address"},{"internalType":"uint256","name":"swapFee","type":"uint256"}],"name":"setPoolSwapFee","outputs":[],"stateMutability":"nonpayable","type":"function"}],"bytecode":"60806040523480156200001157600080fd5b50604051620026a2380380620026a28339810160408190526200003491620000ba565b60016000556001600160a01b038116620000945760405162461bcd60e51b815260206004820152601760248201527f496e76616c6964205f726f757465722061646472657373000000000000000000604482015260640160405180910390fd5b600180546001600160a01b0319166001600160a01b0392909216919091179055620000ec565b600060208284031215620000cd57600080fd5b81516001600160a01b0381168114620000e557600080fd5b9392505050565b6125a680620000fc6000396000f3fe608060405234801561001057600080fd5b50600436106101375760003560e01c806383b87e5a116100b8578063ebedb8b31161007c578063ebedb8b314610293578063f03cd396146102a6578063f6da805f146102b9578063f887ea40146102cc578063fa93fd6d146102df578063ff299f33146102f257600080fd5b806383b87e5a14610234578063bccf74fe14610247578063bcf7135e1461025a578063c4be24901461026d578063cc49ede71461028057600080fd5b806354a97630116100ff57806354a97630146101d65780635d1ca631146101eb57806367f5494d146101fa5780636aca230c1461020d578063799ece851461022157600080fd5b80631228cbee1461013c5780631a1315661461016c5780631f16cde61461018f5780632686375b146101a25780632afbbacb146101c3575b600080fd5b61014f61014a366004612041565b610305565b6040516001600160a01b0390911681526020015b60405180910390f35b61017f61017a36600461205e565b61034f565b6040519015158152602001610163565b61014f61019d366004612041565b610434565b6101b56101b0366004612041565b61047e565b604051908152602001610163565b61017f6101d136600461205e565b6104c5565b6101e96101e436600461208a565b61058c565b005b60405160018152602001610163565b6101b5610208366004612041565b61066a565b6101b561021b366004612041565b50600090565b6101b561022f366004612041565b6106c1565b61017f610242366004612106565b610708565b6101b5610255366004612041565b61113b565b6101b5610268366004612041565b611182565b6101b561027b366004612041565b6111ca565b6101e961028e366004612041565b611211565b6101e96102a136600461205e565b6112a5565b6101b56102b4366004612041565b6113ad565b6101b56102c7366004612041565b6113f4565b60015461014f906001600160a01b031681565b61014f6102ed366004612041565b61145a565b6101e96103003660046121f9565b6114a6565b6001600160a01b03811660009081526002602052604081205460ff1661032d57506000919050565b506001600160a01b039081166000908152600260205260409020600101541690565b6001600160a01b03821660009081526002602052604081205460ff166103775750600061042e565b6001600160a01b038381166000908152600260205260409020600101541633146103bc5760405162461bcd60e51b81526004016103b39061223a565b60405180910390fd5b6040516370a0823160e01b8152306004820152829033906370a0823190602401602060405180830381865afa1580156103f9573d6000803e3d6000fd5b505050506040513d601f19601f8201168201806040525081019061041d9190612271565b1061042a5750600161042e565b5060005b92915050565b6001600160a01b03811660009081526002602052604081205460ff1661045c57506000919050565b506001600160a01b039081166000908152600260205260409020600701541690565b6001600160a01b03811660009081526002602052604081205460ff166104a657506000919050565b506001600160a01b03166000908152600260205260409020600a015490565b6001600160a01b0382811660009081526002602052604081206001015490911633146105035760405162461bcd60e51b81526004016103b39061223a565b6001600160a01b03831660009081526002602052604090205460ff1661052b5750600061042e565b6001600160a01b0383166000908152600260205260409020600c810154600a9091015461055891906122a0565b61056290836122b7565b6001600160a01b038416600090815260026020819052604090912001541061042a5750600161042e565b600260005414156105af5760405162461bcd60e51b81526004016103b3906122cf565b600260008181556001600160a01b0385168152602091909152604090205460ff166105d957610660565b6001600160a01b038381166000908152600260205260409020600101541633146106155760405162461bcd60e51b81526004016103b39061223a565b6000610621848361034f565b90508061062e5750610660565b6001600160a01b038416600090815260026020819052604082200180548592906106599084906122b7565b9091555050505b5050600160005550565b6001600160a01b03811660009081526002602052604081205460ff1661069257506000919050565b6001600160a01b03821660009081526002602081905260409091209081015460039091015461042e91906122a0565b6001600160a01b03811660009081526002602052604081205460ff166106e957506000919050565b506001600160a01b031660009081526002602052604090206009015490565b6001546000906001600160a01b031633146107535760405162461bcd60e51b815260206004820152600b60248201526a27a7262c902927aaaa22a960a91b60448201526064016103b3565b600260005414156107765760405162461bcd60e51b81526004016103b3906122cf565b60026000556001600160a01b0384166107c75760405162461bcd60e51b8152602060048201526013602482015272496e76616c696420706f6f6c4164647265737360681b60448201526064016103b3565b6000849050306001600160a01b0316816001600160a01b0316633018205f6040518163ffffffff1660e01b8152600401602060405180830381865afa158015610814573d6000803e3d6000fd5b505050506040513d601f19601f820116820180604052508101906108389190612306565b6001600160a01b03161461088e5760405162461bcd60e51b815260206004820152601e60248201527f576520617265206e6f742074686520706f6f6c20636f6e74726f6c6c6572000060448201526064016103b3565b866001600160a01b0316816001600160a01b031663458c3fb56040518163ffffffff1660e01b8152600401602060405180830381865afa1580156108d6573d6000803e3d6000fd5b505050506040513d601f19601f820116820180604052508101906108fa9190612306565b6001600160a01b0316146109505760405162461bcd60e51b815260206004820152601b60248201527f44617461746f6b656e2061646472657373206d6973736d61746368000000000060448201526064016103b3565b856001600160a01b0316816001600160a01b0316634df947d06040518163ffffffff1660e01b8152600401602060405180830381865afa158015610998573d6000803e3d6000fd5b505050506040513d601f19601f820116820180604052508101906109bc9190612306565b6001600160a01b031614610a125760405162461bcd60e51b815260206004820152601b60248201527f62617365546f6b656e2061646472657373206d6973736d61746368000000000060448201526064016103b3565b64e8d4a5100083600081518110610a2b57610a2b612323565b602002602001015111610a6f5760405162461bcd60e51b815260206004820152600c60248201526b496e76616c6964207261746560a01b60448201526064016103b3565b604051623d104160e31b815230600482015287906001600160a01b038216906301e88208906024016040805180830381865afa158015610ab3573d6000803e3d6000fd5b505050506040513d601f19601f82011682018060405250810190610ad7919061234e565b51610b245760405162461bcd60e51b815260206004820152601a60248201527f62617365546f6b656e2061646472657373206d69736d6174636800000000000060448201526064016103b3565b806001600160a01b03166340c10f1930836001600160a01b031663355274ea6040518163ffffffff1660e01b8152600401602060405180830381865afa158015610b72573d6000803e3d6000fd5b505050506040513d601f19601f82011682018060405250810190610b969190612271565b6040516001600160e01b031960e085901b1681526001600160a01b0390921660048301526024820152604401600060405180830381600087803b158015610bdc57600080fd5b505af1158015610bf0573d6000803e3d6000fd5b50505050806001600160a01b03166318160ddd6040518163ffffffff1660e01b8152600401602060405180830381865afa158015610c32573d6000803e3d6000fd5b505050506040513d601f19601f82011682018060405250810190610c569190612271565b6040516370a0823160e01b81523060048201526001600160a01b038316906370a0823190602401602060405180830381865afa158015610c9a573d6000803e3d6000fd5b505050506040513d601f19601f82011682018060405250810190610cbe9190612271565b1015610cfa5760405162461bcd60e51b815260206004820152600b60248201526a135a5b9d0819985a5b195960aa1b60448201526064016103b3565b600084600281518110610d0f57610d0f612323565b602002602001018181525050600084600381518110610d3057610d30612323565b60200260200101818152505083600281518110610d4f57610d4f612323565b6020026020010151610dc4600a836001600160a01b03166318160ddd6040518163ffffffff1660e01b8152600401602060405180830381865afa158015610d9a573d6000803e3d6000fd5b505050506040513d601f19601f82011682018060405250810190610dbe9190612271565b9061194a565b1015610e045760405162461bcd60e51b815260206004820152600f60248201526e4d61782076657374696e672031302560881b60448201526064016103b3565b604051806101e00160405280600115158152602001886001600160a01b03168152602001876001600160a01b03168152602001600015158152602001826001600160a01b03166318160ddd6040518163ffffffff1660e01b8152600401602060405180830381865afa158015610e7e573d6000803e3d6000fd5b505050506040513d601f19601f82011682018060405250810190610ea29190612271565b8152602001826001600160a01b031663355274ea6040518163ffffffff1660e01b8152600401602060405180830381865afa158015610ee5573d6000803e3d6000fd5b505050506040513d601f19601f82011682018060405250810190610f099190612271565b815260200185600481518110610f2157610f21612323565b602002602001015181526020016000815260200185600081518110610f4857610f48612323565b60200260200101518152602001866001600160a01b0316815260200143815260200185600381518110610f7d57610f7d612323565b602002602001015143610f9091906122b7565b815260200185600281518110610fa857610fa8612323565b60209081029190910181015182524382820152600060409283018190526001600160a01b038c811680835260028085529285902086518154888701516001600160a81b0319918216921515610100600160a81b0319169290921761010092861683021783558888015160018401805460608c0151928816931692909217600160a01b9115159190910217905560808801519482019490945560a0870151600382015560c0870151600482015560e087015160058201559286015160068401556101208601516007840180546001600160a01b031916918416919091179055610140860151600884015561016086015160098401819055610180870151600a85018190556101a0880151600b8601556101c090970151600c909401939093558451928352928201949094529288169290917f1fa0b22f78385180668c3daa666fbb365854697bc4033e144adc37f12aa88dfa910160405180910390a3611127888560018151811061111a5761111a612323565b602002602001015161195d565b600192505050600160005595945050505050565b6001600160a01b03811660009081526002602052604081205460ff1661116357506000919050565b506001600160a01b03166000908152600260205260409020600c015490565b6001600160a01b03811660009081526002602052604081205460ff166111aa57506000919050565b506001600160a01b03166000908152600260208190526040909120015490565b6001600160a01b03811660009081526002602052604081205460ff166111f257506000919050565b506001600160a01b031660009081526002602052604090206004015490565b600260005414156112345760405162461bcd60e51b81526004016103b3906122cf565b600260008181556001600160a01b0383168152602091909152604090205460ff166112995760405162461bcd60e51b815260206004820152601560248201527422a9291d24b73b30b634b2103230ba30ba37b5b2b760591b60448201526064016103b3565b60005b50506001600055565b600260005414156112c85760405162461bcd60e51b81526004016103b3906122cf565b600260008181556001600160a01b0384168152602091909152604090205460ff166112f25761129c565b6001600160a01b0382811660009081526002602052604090206001015416331461132e5760405162461bcd60e51b81526004016103b39061223a565b600061133a83836104c5565b905080611347575061129c565b6001600160a01b03808416600081815260026020526040902060010154859261137292911685611cbf565b6001600160a01b0384166000908152600260208190526040822001805485929061139d9084906122a0565b9091555050505050506001600055565b6001600160a01b03811660009081526002602052604081205460ff166113d557506000919050565b506001600160a01b03166000908152600260205260409020600b015490565b6001600160a01b03811660009081526002602052604081205460ff1661141c57506000919050565b6001600160a01b0382166000908152600260208190526040909120600c8101549181015460039091015461145091906122a0565b61042e91906122a0565b6001600160a01b03811660009081526002602052604081205460ff1661148257506000919050565b506001600160a01b0390811660009081526002602052604090205461010090041690565b826001600160a01b0381166114fd5760405162461bcd60e51b815260206004820152601e60248201527f496e76616c696420746f6b656e20636f6e74726163742061646472657373000060448201526064016103b3565b6040516396fb3eaf60e01b815233600482015281906001600160a01b038216906396fb3eaf90602401602060405180830381865afa158015611543573d6000803e3d6000fd5b505050506040513d601f19601f8201168201806040525081019061156791906123a9565b8061164e5750336001600160a01b0316816001600160a01b0316627ffb786040518163ffffffff1660e01b8152600401602060405180830381865afa1580156115b4573d6000803e3d6000fd5b505050506040513d601f19601f820116820180604052508101906115d89190612306565b6040516331a9108f60e11b8152600160048201526001600160a01b039190911690636352211e90602401602060405180830381865afa15801561161f573d6000803e3d6000fd5b505050506040513d601f19601f820116820180604052508101906116439190612306565b6001600160a01b0316145b61168a5760405162461bcd60e51b815260206004820152600d60248201526c24b73b30b634b21037bbb732b960991b60448201526064016103b3565b600260005414156116ad5760405162461bcd60e51b81526004016103b3906122cf565b600260008181556001600160a01b0387168152602091909152604090205460ff1661170e5760405162461bcd60e51b815260206004820152601160248201527024b73b30b634b2103230ba30ba37b5b2b760791b60448201526064016103b3565b6001600160a01b03841661175a5760405162461bcd60e51b8152602060048201526013602482015272496e76616c696420706f6f6c4164647265737360681b60448201526064016103b3565b6000849050306001600160a01b0316816001600160a01b0316633018205f6040518163ffffffff1660e01b8152600401602060405180830381865afa1580156117a7573d6000803e3d6000fd5b505050506040513d601f19601f820116820180604052508101906117cb9190612306565b6001600160a01b0316146118215760405162461bcd60e51b815260206004820152601e60248201527f576520617265206e6f742074686520706f6f6c20636f6e74726f6c6c6572000060448201526064016103b3565b856001600160a01b0316816001600160a01b031663458c3fb56040518163ffffffff1660e01b8152600401602060405180830381865afa158015611869573d6000803e3d6000fd5b505050506040513d601f19601f8201168201806040525081019061188d9190612306565b6001600160a01b0316146118e35760405162461bcd60e51b815260206004820152601b60248201527f44617461746f6b656e2061646472657373206d6973736d61746368000000000060448201526064016103b3565b6040516334e1990760e01b8152600481018590526001600160a01b038216906334e1990790602401600060405180830381600087803b15801561192557600080fd5b505af1158015611939573d6000803e3d6000fd5b505060016000555050505050505050565b600061195682846123c4565b9392505050565b6001600160a01b03821660009081526002602052604090205460ff16611981575050565b6001600160a01b038216600090815260026020526040902060010154600160a01b900460ff16156119b0575050565b6001600160a01b0382166000908152600260205260408120600101805460ff60a01b1916600160a01b1790556119ef670de0b6b3a764000060056123e6565b90506000611a06670de0b6b3a764000060056123e6565b6001600160a01b0385166000908152600260205260408120600481015460069091015492935091670de0b6b3a764000090859085908590611a488a60126122a0565b611a5390600a6124e9565b611a5d91906123e6565b611a6791906123e6565b611a7191906123e6565b611a7b91906123c4565b611a8591906123c4565b6001600160a01b038716600090815260026020526040812060040180549293508492909190611ab59084906122a0565b90915550506001600160a01b03861660009081526002602081905260408220018054839290611ae59084906122a0565b90915550506001600160a01b038087166000818152600260205260409020600101548892611b1592911684611cbf565b6001600160a01b0380881660009081526002602052604090208054600190910154610100909104821691611b4c9183911686611cbf565b6001600160a01b03888116600081815260026020526040908190206001810154905491516309ef3f5b60e01b815260048101939093526024830187905260448301899052610100909104831660648301526084820187905260a482018990529091169081906309ef3f5b9060c401600060405180830381600087803b158015611bd457600080fd5b505af1158015611be8573d6000803e3d6000fd5b505050506001600160a01b038981166000908152600260205260408082206001015490516370a0823160e01b815230600482015292169182906370a0823190602401602060405180830381865afa158015611c47573d6000803e3d6000fd5b505050506040513d601f19601f82011682018060405250810190611c6b9190612271565b6001600160a01b03808d16600090815260026020819052604090912060070154929350611cb29290911690611ca190849061194a565b6001600160a01b0385169190611daa565b5050505050505050505050565b604051636eb1769f60e11b81523060048201526001600160a01b038381166024830152600091839186169063dd62ed3e90604401602060405180830381865afa158015611d10573d6000803e3d6000fd5b505050506040513d601f19601f82011682018060405250810190611d349190612271565b611d3e91906122b7565b6040516001600160a01b038516602482015260448101829052909150611da490859063095ea7b360e01b906064015b60408051601f198184030181529190526020810180516001600160e01b03166001600160e01b031990931692909217909152611ddf565b50505050565b6040516001600160a01b038316602482015260448101829052611dda90849063a9059cbb60e01b90606401611d6d565b505050565b6000611e34826040518060400160405280602081526020017f5361666545524332303a206c6f772d6c6576656c2063616c6c206661696c6564815250856001600160a01b0316611eb19092919063ffffffff16565b805190915015611dda5780806020019051810190611e5291906123a9565b611dda5760405162461bcd60e51b815260206004820152602a60248201527f5361666545524332303a204552433230206f7065726174696f6e20646964206e6044820152691bdd081cdd58d8d9595960b21b60648201526084016103b3565b6060611ec08484600085611ec8565b949350505050565b606082471015611f295760405162461bcd60e51b815260206004820152602660248201527f416464726573733a20696e73756666696369656e742062616c616e636520666f6044820152651c8818d85b1b60d21b60648201526084016103b3565b843b611f775760405162461bcd60e51b815260206004820152601d60248201527f416464726573733a2063616c6c20746f206e6f6e2d636f6e747261637400000060448201526064016103b3565b600080866001600160a01b03168587604051611f939190612521565b60006040518083038185875af1925050503d8060008114611fd0576040519150601f19603f3d011682016040523d82523d6000602084013e611fd5565b606091505b5091509150611fe5828286611ff0565b979650505050505050565b60608315611fff575081611956565b82511561200f5782518084602001fd5b8160405162461bcd60e51b81526004016103b3919061253d565b6001600160a01b038116811461203e57600080fd5b50565b60006020828403121561205357600080fd5b813561195681612029565b6000806040838503121561207157600080fd5b823561207c81612029565b946020939093013593505050565b60008060006060848603121561209f57600080fd5b83356120aa81612029565b95602085013595506040909401359392505050565b634e487b7160e01b600052604160045260246000fd5b604051601f8201601f1916810167ffffffffffffffff811182821017156120fe576120fe6120bf565b604052919050565b600080600080600060a0868803121561211e57600080fd5b853561212981612029565b945060208681013561213a81612029565b9450604087013561214a81612029565b9350606087013561215a81612029565b9250608087013567ffffffffffffffff8082111561217757600080fd5b818901915089601f83011261218b57600080fd5b81358181111561219d5761219d6120bf565b8060051b91506121ae8483016120d5565b818152918301840191848101908c8411156121c857600080fd5b938501935b838510156121e6578435825293850193908501906121cd565b8096505050505050509295509295909350565b60008060006060848603121561220e57600080fd5b833561221981612029565b9250602084013561222981612029565b929592945050506040919091013590565b6020808252601c908201527f4552523a204f6e6c7920706f6f6c2063616e2063616c6c207468697300000000604082015260600190565b60006020828403121561228357600080fd5b5051919050565b634e487b7160e01b600052601160045260246000fd5b6000828210156122b2576122b261228a565b500390565b600082198211156122ca576122ca61228a565b500190565b6020808252601f908201527f5265656e7472616e637947756172643a207265656e7472616e742063616c6c00604082015260600190565b60006020828403121561231857600080fd5b815161195681612029565b634e487b7160e01b600052603260045260246000fd5b8051801515811461234957600080fd5b919050565b60006040828403121561236057600080fd5b6040516040810181811067ffffffffffffffff82111715612383576123836120bf565b60405261238f83612339565b815261239d60208401612339565b60208201529392505050565b6000602082840312156123bb57600080fd5b61195682612339565b6000826123e157634e487b7160e01b600052601260045260246000fd5b500490565b60008160001904831182151516156124005761240061228a565b500290565b600181815b808511156124405781600019048211156124265761242661228a565b8085161561243357918102915b93841c939080029061240a565b509250929050565b6000826124575750600161042e565b816124645750600061042e565b816001811461247a5760028114612484576124a0565b600191505061042e565b60ff8411156124955761249561228a565b50506001821b61042e565b5060208310610133831016604e8410600b84101617156124c3575081810a61042e565b6124cd8383612405565b80600019048211156124e1576124e161228a565b029392505050565b60006119568383612448565b60005b838110156125105781810151838201526020016124f8565b83811115611da45750506000910152565b600082516125338184602087016124f5565b9190910192915050565b602081526000825180602084015261255c8160408501602087016124f5565b601f01601f1916919091016040019291505056fea26469706673582212203643bfde37fd89529de636d74cfe0c18d96c654abb869b2d44bf0f07d178e78464736f6c634300080c0033","bytecodeSha1":"7d36335c0f023c8e1160ab8b1f04f93e77217898","compiler":{"evm_version":"istanbul","optimizer":{"enabled":true,"runs":200},"version":"0.8.12+commit.f00d7308"},"contractName":"SideStaking","language":"Solidity","natspec":{"details":"SideStaking is a contract that monitors stakings in pools,  adding or removing dt when only baseToken liquidity is added or removed      Called by the pool contract      Every ss newDatatokenCreated function has a ssParams array,  which for this contract has the following structure:                      [0]  = rate (wei)                     [1]  = baseToken decimals                     [2]  = vesting amount (wei)                     [3]  = vested blocks                     [4]  = initial liquidity in baseToken for pool creation","kind":"dev","methods":{"constructor":{"details":"constructor      Called on contract deployment."},"getAvailableVesting(address)":{"notice":"Get available vesting now param datatokenAddress - datatokenAddress"},"getBaseTokenAddress(address)":{"notice":"Returns baseToken address","params":{"datatokenAddress":"- datatokenAddress"}},"getBaseTokenBalance(address)":{"notice":"Returns baseToken balance in the contract","params":{"datatokenAddress":"- datatokenAddress"}},"getDatatokenBalance(address)":{"notice":"Returns datatoken balance in the contract","params":{"datatokenAddress":"- datatokenAddress"}},"getDatatokenCirculatingSupply(address)":{"notice":"Returns  (total vesting amount + token released from the contract when adding liquidity)","params":{"datatokenAddress":"- datatokenAddress"}},"getDatatokenCurrentCirculatingSupply(address)":{"notice":"Returns actual dts in circulation (vested token withdrawn from the contract + token released from the contract when adding liquidity)","params":{"datatokenAddress":"- datatokenAddress"}},"getId()":{"details":"getId      Return template id in case we need different ABIs.      If you construct your own template, please make sure to change the hardcoded value"},"getPoolAddress(address)":{"notice":"Returns pool address","params":{"datatokenAddress":"- datatokenAddress"}},"getPublisherAddress(address)":{"notice":"Returns publisher address","params":{"datatokenAddress":"- datatokenAddress"}},"getVesting(address)":{"notice":"Send available vested tokens to the publisher address, can be called by anyone","params":{"datatokenAddress":"- datatokenAddress"}},"getvestingAmount(address)":{"notice":"Returns total vesting amount","params":{"datatokenAddress":"- datatokenAddress"}},"getvestingAmountSoFar(address)":{"notice":"Returns amount of vested tokens that have been withdrawn from the contract so far","params":{"datatokenAddress":"- datatokenAddress"}},"getvestingEndBlock(address)":{"notice":"Returns last vesting block","params":{"datatokenAddress":"- datatokenAddress"}},"getvestingLastBlock(address)":{"notice":"Returns last block when some vesting tokens were collected","params":{"datatokenAddress":"- datatokenAddress"}},"newDatatokenCreated(address,address,address,address,uint256[])":{"details":"newDatatokenCreated      Called when new Datatoken is deployed by the DatatokenFactory","params":{"baseTokenAddress":"-","datatokenAddress":"- datatokenAddress","poolAddress":"- poolAddress","publisherAddress":"- publisherAddress","ssParams":"- ss Params, see below"}},"setPoolSwapFee(address,address,uint256)":{"notice":"Change pool fee","params":{"datatokenAddress":"- datatokenAddress","poolAddress":"- poolAddress","swapFee":"- new fee"}}},"title":"SideStaking","version":1},"opcodes":"PUSH1 0x80 PUSH1 0x40 MSTORE CALLVALUE DUP1 ISZERO PUSH2 0x10 JUMPI PUSH1 0x0 DUP1 REVERT JUMPDEST POP PUSH1 0x4 CALLDATASIZE LT PUSH2 0x137 JUMPI PUSH1 0x0 CALLDATALOAD PUSH1 0xE0 SHR DUP1 PUSH4 0x83B87E5A GT PUSH2 0xB8 JUMPI DUP1 PUSH4 0xEBEDB8B3 GT PUSH2 0x7C JUMPI DUP1 PUSH4 0xEBEDB8B3 EQ PUSH2 0x293 JUMPI DUP1 PUSH4 0xF03CD396 EQ PUSH2 0x2A6 JUMPI DUP1 PUSH4 0xF6DA805F EQ PUSH2 0x2B9 JUMPI DUP1 PUSH4 0xF887EA40 EQ PUSH2 0x2CC JUMPI DUP1 PUSH4 0xFA93FD6D EQ PUSH2 0x2DF JUMPI DUP1 PUSH4 0xFF299F33 EQ PUSH2 0x2F2 JUMPI PUSH1 0x0 DUP1 REVERT JUMPDEST DUP1 PUSH4 0x83B87E5A EQ PUSH2 0x234 JUMPI DUP1 PUSH4 0xBCCF74FE EQ PUSH2 0x247 JUMPI DUP1 PUSH4 0xBCF7135E EQ PUSH2 0x25A JUMPI DUP1 PUSH4 0xC4BE2490 EQ PUSH2 0x26D JUMPI DUP1 PUSH4 0xCC49EDE7 EQ PUSH2 0x280 JUMPI PUSH1 0x0 DUP1 REVERT JUMPDEST DUP1 PUSH4 0x54A97630 GT PUSH2 0xFF JUMPI DUP1 PUSH4 0x54A97630 EQ PUSH2 0x1D6 JUMPI DUP1 PUSH4 0x5D1CA631 EQ PUSH2 0x1EB JUMPI DUP1 PUSH4 0x67F5494D EQ PUSH2 0x1FA JUMPI DUP1 PUSH4 0x6ACA230C EQ PUSH2 0x20D JUMPI DUP1 PUSH4 0x799ECE85 EQ PUSH2 0x221 JUMPI PUSH1 0x0 DUP1 REVERT JUMPDEST DUP1 PUSH4 0x1228CBEE EQ PUSH2 0x13C JUMPI DUP1 PUSH4 0x1A131566 EQ PUSH2 0x16C JUMPI DUP1 PUSH4 0x1F16CDE6 EQ PUSH2 0x18F JUMPI DUP1 PUSH4 0x2686375B EQ PUSH2 0x1A2 JUMPI DUP1 PUSH4 0x2AFBBACB EQ PUSH2 0x1C3 JUMPI JUMPDEST PUSH1 0x0 DUP1 REVERT JUMPDEST PUSH2 0x14F PUSH2 0x14A CALLDATASIZE PUSH1 0x4 PUSH2 0x2041 JUMP JUMPDEST PUSH2 0x305 JUMP JUMPDEST PUSH1 0x40 MLOAD PUSH1 0x1 PUSH1 0x1 PUSH1 0xA0 SHL SUB SWAP1 SWAP2 AND DUP2 MSTORE PUSH1 0x20 ADD JUMPDEST PUSH1 0x40 MLOAD DUP1 SWAP2 SUB SWAP1 RETURN JUMPDEST PUSH2 0x17F PUSH2 0x17A CALLDATASIZE PUSH1 0x4 PUSH2 0x205E JUMP JUMPDEST PUSH2 0x34F JUMP JUMPDEST PUSH1 0x40 MLOAD SWAP1 ISZERO ISZERO DUP2 MSTORE PUSH1 0x20 ADD PUSH2 0x163 JUMP JUMPDEST PUSH2 0x14F PUSH2 0x19D CALLDATASIZE PUSH1 0x4 PUSH2 0x2041 JUMP JUMPDEST PUSH2 0x434 JUMP JUMPDEST PUSH2 0x1B5 PUSH2 0x1B0 CALLDATASIZE PUSH1 0x4 PUSH2 0x2041 JUMP JUMPDEST PUSH2 0x47E JUMP JUMPDEST PUSH1 0x40 MLOAD SWAP1 DUP2 MSTORE PUSH1 0x20 ADD PUSH2 0x163 JUMP JUMPDEST PUSH2 0x17F PUSH2 0x1D1 CALLDATASIZE PUSH1 0x4 PUSH2 0x205E JUMP JUMPDEST PUSH2 0x4C5 JUMP JUMPDEST PUSH2 0x1E9 PUSH2 0x1E4 CALLDATASIZE PUSH1 0x4 PUSH2 0x208A JUMP JUMPDEST PUSH2 0x58C JUMP JUMPDEST STOP JUMPDEST PUSH1 0x40 MLOAD PUSH1 0x1 DUP2 MSTORE PUSH1 0x20 ADD PUSH2 0x163 JUMP JUMPDEST PUSH2 0x1B5 PUSH2 0x208 CALLDATASIZE PUSH1 0x4 PUSH2 0x2041 JUMP JUMPDEST PUSH2 0x66A JUMP JUMPDEST PUSH2 0x1B5 PUSH2 0x21B CALLDATASIZE PUSH1 0x4 PUSH2 0x2041 JUMP JUMPDEST POP PUSH1 0x0 SWAP1 JUMP JUMPDEST PUSH2 0x1B5 PUSH2 0x22F CALLDATASIZE PUSH1 0x4 PUSH2 0x2041 JUMP JUMPDEST PUSH2 0x6C1 JUMP JUMPDEST PUSH2 0x17F PUSH2 0x242 CALLDATASIZE PUSH1 0x4 PUSH2 0x2106 JUMP JUMPDEST PUSH2 0x708 JUMP JUMPDEST PUSH2 0x1B5 PUSH2 0x255 CALLDATASIZE PUSH1 0x4 PUSH2 0x2041 JUMP JUMPDEST PUSH2 0x113B JUMP JUMPDEST PUSH2 0x1B5 PUSH2 0x268 CALLDATASIZE PUSH1 0x4 PUSH2 0x2041 JUMP JUMPDEST PUSH2 0x1182 JUMP JUMPDEST PUSH2 0x1B5 PUSH2 0x27B CALLDATASIZE PUSH1 0x4 PUSH2 0x2041 JUMP JUMPDEST PUSH2 0x11CA JUMP JUMPDEST PUSH2 0x1E9 PUSH2 0x28E CALLDATASIZE PUSH1 0x4 PUSH2 0x2041 JUMP JUMPDEST PUSH2 0x1211 JUMP JUMPDEST PUSH2 0x1E9 PUSH2 0x2A1 CALLDATASIZE PUSH1 0x4 PUSH2 0x205E JUMP JUMPDEST PUSH2 0x12A5 JUMP JUMPDEST PUSH2 0x1B5 PUSH2 0x2B4 CALLDATASIZE PUSH1 0x4 PUSH2 0x2041 JUMP JUMPDEST PUSH2 0x13AD JUMP JUMPDEST PUSH2 0x1B5 PUSH2 0x2C7 CALLDATASIZE PUSH1 0x4 PUSH2 0x2041 JUMP JUMPDEST PUSH2 0x13F4 JUMP JUMPDEST PUSH1 0x1 SLOAD PUSH2 0x14F SWAP1 PUSH1 0x1 PUSH1 0x1 PUSH1 0xA0 SHL SUB AND DUP2 JUMP JUMPDEST PUSH2 0x14F PUSH2 0x2ED CALLDATASIZE PUSH1 0x4 PUSH2 0x2041 JUMP JUMPDEST PUSH2 0x145A JUMP JUMPDEST PUSH2 0x1E9 PUSH2 0x300 CALLDATASIZE PUSH1 0x4 PUSH2 0x21F9 JUMP JUMPDEST PUSH2 0x14A6 JUMP JUMPDEST PUSH1 0x1 PUSH1 0x1 PUSH1 0xA0 SHL SUB DUP2 AND PUSH1 0x0 SWAP1 DUP2 MSTORE PUSH1 0x2 PUSH1 0x20 MSTORE PUSH1 0x40 DUP2 KECCAK256 SLOAD PUSH1 0xFF AND PUSH2 0x32D JUMPI POP PUSH1 0x0 SWAP2 SWAP1 POP JUMP JUMPDEST POP PUSH1 0x1 PUSH1 0x1 PUSH1 0xA0 SHL SUB SWAP1 DUP2 AND PUSH1 0x0 SWAP1 DUP2 MSTORE PUSH1 0x2 PUSH1 0x20 MSTORE PUSH1 0x40 SWAP1 KECCAK256 PUSH1 0x1 ADD SLOAD AND SWAP1 JUMP JUMPDEST PUSH1 0x1 PUSH1 0x1 PUSH1 0xA0 SHL SUB DUP3 AND PUSH1 0x0 SWAP1 DUP2 MSTORE PUSH1 0x2 PUSH1 0x20 MSTORE PUSH1 0x40 DUP2 KECCAK256 SLOAD PUSH1 0xFF AND PUSH2 0x377 JUMPI POP PUSH1 0x0 PUSH2 0x42E JUMP JUMPDEST PUSH1 0x1 PUSH1 0x1 PUSH1 0xA0 SHL SUB DUP4 DUP2 AND PUSH1 0x0 SWAP1 DUP2 MSTORE PUSH1 0x2 PUSH1 0x20 MSTORE PUSH1 0x40 SWAP1 KECCAK256 PUSH1 0x1 ADD SLOAD AND CALLER EQ PUSH2 0x3BC JUMPI PUSH1 0x40 MLOAD PUSH3 0x461BCD PUSH1 0xE5 SHL DUP2 MSTORE PUSH1 0x4 ADD PUSH2 0x3B3 SWAP1 PUSH2 0x223A JUMP JUMPDEST PUSH1 0x40 MLOAD DUP1 SWAP2 SUB SWAP1 REVERT JUMPDEST PUSH1 0x40 MLOAD PUSH4 0x70A08231 PUSH1 0xE0 SHL DUP2 MSTORE ADDRESS PUSH1 0x4 DUP3 ADD MSTORE DUP3 SWAP1 CALLER SWAP1 PUSH4 0x70A08231 SWAP1 PUSH1 0x24 ADD PUSH1 0x20 PUSH1 0x40 MLOAD DUP1 DUP4 SUB DUP2 DUP7 GAS STATICCALL ISZERO DUP1 ISZERO PUSH2 0x3F9 JUMPI RETURNDATASIZE PUSH1 0x0 DUP1 RETURNDATACOPY RETURNDATASIZE PUSH1 0x0 REVERT JUMPDEST POP POP POP POP PUSH1 0x40 MLOAD RETURNDATASIZE PUSH1 0x1F NOT PUSH1 0x1F DUP3 ADD AND DUP3 ADD DUP1 PUSH1 0x40 MSTORE POP DUP2 ADD SWAP1 PUSH2 0x41D SWAP2 SWAP1 PUSH2 0x2271 JUMP JUMPDEST LT PUSH2 0x42A JUMPI POP PUSH1 0x1 PUSH2 0x42E JUMP JUMPDEST POP PUSH1 0x0 JUMPDEST SWAP3 SWAP2 POP POP JUMP JUMPDEST PUSH1 0x1 PUSH1 0x1 PUSH1 0xA0 SHL SUB DUP2 AND PUSH1 0x0 SWAP1 DUP2 MSTORE PUSH1 0x2 PUSH1 0x20 MSTORE PUSH1 0x40 DUP2 KECCAK256 SLOAD PUSH1 0xFF AND PUSH2 0x45C JUMPI POP PUSH1 0x0 SWAP2 SWAP1 POP JUMP JUMPDEST POP PUSH1 0x1 PUSH1 0x1 PUSH1 0xA0 SHL SUB SWAP1 DUP2 AND PUSH1 0x0 SWAP1 DUP2 MSTORE PUSH1 0x2 PUSH1 0x20 MSTORE PUSH1 0x40 SWAP1 KECCAK256 PUSH1 0x7 ADD SLOAD AND SWAP1 JUMP JUMPDEST PUSH1 0x1 PUSH1 0x1 PUSH1 0xA0 SHL SUB DUP2 AND PUSH1 0x0 SWAP1 DUP2 MSTORE PUSH1 0x2 PUSH1 0x20 MSTORE PUSH1 0x40 DUP2 KECCAK256 SLOAD PUSH1 0xFF AND PUSH2 0x4A6 JUMPI POP PUSH1 0x0 SWAP2 SWAP1 POP JUMP JUMPDEST POP PUSH1 0x1 PUSH1 0x1 PUSH1 0xA0 SHL SUB AND PUSH1 0x0 SWAP1 DUP2 MSTORE PUSH1 0x2 PUSH1 0x20 MSTORE PUSH1 0x40 SWAP1 KECCAK256 PUSH1 0xA ADD SLOAD SWAP1 JUMP JUMPDEST PUSH1 0x1 PUSH1 0x1 PUSH1 0xA0 SHL SUB DUP3 DUP2 AND PUSH1 0x0 SWAP1 DUP2 MSTORE PUSH1 0x2 PUSH1 0x20 MSTORE PUSH1 0x40 DUP2 KECCAK256 PUSH1 0x1 ADD SLOAD SWAP1 SWAP2 AND CALLER EQ PUSH2 0x503 JUMPI PUSH1 0x40 MLOAD PUSH3 0x461BCD PUSH1 0xE5 SHL DUP2 MSTORE PUSH1 0x4 ADD PUSH2 0x3B3 SWAP1 PUSH2 0x223A JUMP JUMPDEST PUSH1 0x1 PUSH1 0x1 PUSH1 0xA0 SHL SUB DUP4 AND PUSH1 0x0 SWAP1 DUP2 MSTORE PUSH1 0x2 PUSH1 0x20 MSTORE PUSH1 0x40 SWAP1 KECCAK256 SLOAD PUSH1 0xFF AND PUSH2 0x52B JUMPI POP PUSH1 0x0 PUSH2 0x42E JUMP JUMPDEST PUSH1 0x1 PUSH1 0x1 PUSH1 0xA0 SHL SUB DUP4 AND PUSH1 0x0 SWAP1 DUP2 MSTORE PUSH1 0x2 PUSH1 0x20 MSTORE PUSH1 0x40 SWAP1 KECCAK256 PUSH1 0xC DUP2 ADD SLOAD PUSH1 0xA SWAP1 SWAP2 ADD SLOAD PUSH2 0x558 SWAP2 SWAP1 PUSH2 0x22A0 JUMP JUMPDEST PUSH2 0x562 SWAP1 DUP4 PUSH2 0x22B7 JUMP JUMPDEST PUSH1 0x1 PUSH1 0x1 PUSH1 0xA0 SHL SUB DUP5 AND PUSH1 0x0 SWAP1 DUP2 MSTORE PUSH1 0x2 PUSH1 0x20 DUP2 SWAP1 MSTORE PUSH1 0x40 SWAP1 SWAP2 KECCAK256 ADD SLOAD LT PUSH2 0x42A JUMPI POP PUSH1 0x1 PUSH2 0x42E JUMP JUMPDEST PUSH1 0x2 PUSH1 0x0 SLOAD EQ ISZERO PUSH2 0x5AF JUMPI PUSH1 0x40 MLOAD PUSH3 0x461BCD PUSH1 0xE5 SHL DUP2 MSTORE PUSH1 0x4 ADD PUSH2 0x3B3 SWAP1 PUSH2 0x22CF JUMP JUMPDEST PUSH1 0x2 PUSH1 0x0 DUP2 DUP2 SSTORE PUSH1 0x1 PUSH1 0x1 PUSH1 0xA0 SHL SUB DUP6 AND DUP2 MSTORE PUSH1 0x20 SWAP2 SWAP1 SWAP2 MSTORE PUSH1 0x40 SWAP1 KECCAK256 SLOAD PUSH1 0xFF AND PUSH2 0x5D9 JUMPI PUSH2 0x660 JUMP JUMPDEST PUSH1 0x1 PUSH1 0x1 PUSH1 0xA0 SHL SUB DUP4 DUP2 AND PUSH1 0x0 SWAP1 DUP2 MSTORE PUSH1 0x2 PUSH1 0x20 MSTORE PUSH1 0x40 SWAP1 KECCAK256 PUSH1 0x1 ADD SLOAD AND CALLER EQ PUSH2 0x615 JUMPI PUSH1 0x40 MLOAD PUSH3 0x461BCD PUSH1 0xE5 SHL DUP2 MSTORE PUSH1 0x4 ADD PUSH2 0x3B3 SWAP1 PUSH2 0x223A JUMP JUMPDEST PUSH1 0x0 PUSH2 0x621 DUP5 DUP4 PUSH2 0x34F JUMP JUMPDEST SWAP1 POP DUP1 PUSH2 0x62E JUMPI POP PUSH2 0x660 JUMP JUMPDEST PUSH1 0x1 PUSH1 0x1 PUSH1 0xA0 SHL SUB DUP5 AND PUSH1 0x0 SWAP1 DUP2 MSTORE PUSH1 0x2 PUSH1 0x20 DUP2 SWAP1 MSTORE PUSH1 0x40 DUP3 KECCAK256 ADD DUP1 SLOAD DUP6 SWAP3 SWAP1 PUSH2 0x659 SWAP1 DUP5 SWAP1 PUSH2 0x22B7 JUMP JUMPDEST SWAP1 SWAP2 SSTORE POP POP POP JUMPDEST POP POP PUSH1 0x1 PUSH1 0x0 SSTORE POP JUMP JUMPDEST PUSH1 0x1 PUSH1 0x1 PUSH1 0xA0 SHL SUB DUP2 AND PUSH1 0x0 SWAP1 DUP2 MSTORE PUSH1 0x2 PUSH1 0x20 MSTORE PUSH1 0x40 DUP2 KECCAK256 SLOAD PUSH1 0xFF AND PUSH2 0x692 JUMPI POP PUSH1 0x0 SWAP2 SWAP1 POP JUMP JUMPDEST PUSH1 0x1 PUSH1 0x1 PUSH1 0xA0 SHL SUB DUP3 AND PUSH1 0x0 SWAP1 DUP2 MSTORE PUSH1 0x2 PUSH1 0x20 DUP2 SWAP1 MSTORE PUSH1 0x40 SWAP1 SWAP2 KECCAK256 SWAP1 DUP2 ADD SLOAD PUSH1 0x3 SWAP1 SWAP2 ADD SLOAD PUSH2 0x42E SWAP2 SWAP1 PUSH2 0x22A0 JUMP JUMPDEST PUSH1 0x1 PUSH1 0x1 PUSH1 0xA0 SHL SUB DUP2 AND PUSH1 0x0 SWAP1 DUP2 MSTORE PUSH1 0x2 PUSH1 0x20 MSTORE PUSH1 0x40 DUP2 KECCAK256 SLOAD PUSH1 0xFF AND PUSH2 0x6E9 JUMPI POP PUSH1 0x0 SWAP2 SWAP1 POP JUMP JUMPDEST POP PUSH1 0x1 PUSH1 0x1 PUSH1 0xA0 SHL SUB AND PUSH1 0x0 SWAP1 DUP2 MSTORE PUSH1 0x2 PUSH1 0x20 MSTORE PUSH1 0x40 SWAP1 KECCAK256 PUSH1 0x9 ADD SLOAD SWAP1 JUMP JUMPDEST PUSH1 0x1 SLOAD PUSH1 0x0 SWAP1 PUSH1 0x1 PUSH1 0x1 PUSH1 0xA0 SHL SUB AND CALLER EQ PUSH2 0x753 JUMPI PUSH1 0x40 MLOAD PUSH3 0x461BCD PUSH1 0xE5 SHL DUP2 MSTORE PUSH1 0x20 PUSH1 0x4 DUP3 ADD MSTORE PUSH1 0xB PUSH1 0x24 DUP3 ADD MSTORE PUSH11 0x27A7262C902927AAAA22A9 PUSH1 0xA9 SHL PUSH1 0x44 DUP3 ADD MSTORE PUSH1 0x64 ADD PUSH2 0x3B3 JUMP JUMPDEST PUSH1 0x2 PUSH1 0x0 SLOAD EQ ISZERO PUSH2 0x776 JUMPI PUSH1 0x40 MLOAD PUSH3 0x461BCD PUSH1 0xE5 SHL DUP2 MSTORE PUSH1 0x4 ADD PUSH2 0x3B3 SWAP1 PUSH2 0x22CF JUMP JUMPDEST PUSH1 0x2 PUSH1 0x0 SSTORE PUSH1 0x1 PUSH1 0x1 PUSH1 0xA0 SHL SUB DUP5 AND PUSH2 0x7C7 JUMPI PUSH1 0x40 MLOAD PUSH3 0x461BCD PUSH1 0xE5 SHL DUP2 MSTORE PUSH1 0x20 PUSH1 0x4 DUP3 ADD MSTORE PUSH1 0x13 PUSH1 0x24 DUP3 ADD MSTORE PUSH19 0x496E76616C696420706F6F6C41646472657373 PUSH1 0x68 SHL PUSH1 0x44 DUP3 ADD MSTORE PUSH1 0x64 ADD PUSH2 0x3B3 JUMP JUMPDEST PUSH1 0x0 DUP5 SWAP1 POP ADDRESS PUSH1 0x1 PUSH1 0x1 PUSH1 0xA0 SHL SUB AND DUP2 PUSH1 0x1 PUSH1 0x1 PUSH1 0xA0 SHL SUB AND PUSH4 0x3018205F PUSH1 0x40 MLOAD DUP2 PUSH4 0xFFFFFFFF AND PUSH1 0xE0 SHL DUP2 MSTORE PUSH1 0x4 ADD PUSH1 0x20 PUSH1 0x40 MLOAD DUP1 DUP4 SUB DUP2 DUP7 GAS STATICCALL ISZERO DUP1 ISZERO PUSH2 0x814 JUMPI RETURNDATASIZE PUSH1 0x0 DUP1 RETURNDATACOPY RETURNDATASIZE PUSH1 0x0 REVERT JUMPDEST POP POP POP POP PUSH1 0x40 MLOAD RETURNDATASIZE PUSH1 0x1F NOT PUSH1 0x1F DUP3 ADD AND DUP3 ADD DUP1 PUSH1 0x40 MSTORE POP DUP2 ADD SWAP1 PUSH2 0x838 SWAP2 SWAP1 PUSH2 0x2306 JUMP JUMPDEST PUSH1 0x1 PUSH1 0x1 PUSH1 0xA0 SHL SUB AND EQ PUSH2 0x88E JUMPI PUSH1 0x40 MLOAD PUSH3 0x461BCD PUSH1 0xE5 SHL DUP2 MSTORE PUSH1 0x20 PUSH1 0x4 DUP3 ADD MSTORE PUSH1 0x1E PUSH1 0x24 DUP3 ADD MSTORE PUSH32 0x576520617265206E6F742074686520706F6F6C20636F6E74726F6C6C65720000 PUSH1 0x44 DUP3 ADD MSTORE PUSH1 0x64 ADD PUSH2 0x3B3 JUMP JUMPDEST DUP7 PUSH1 0x1 PUSH1 0x1 PUSH1 0xA0 SHL SUB AND DUP2 PUSH1 0x1 PUSH1 0x1 PUSH1 0xA0 SHL SUB AND PUSH4 0x458C3FB5 PUSH1 0x40 MLOAD DUP2 PUSH4 0xFFFFFFFF AND PUSH1 0xE0 SHL DUP2 MSTORE PUSH1 0x4 ADD PUSH1 0x20 PUSH1 0x40 MLOAD DUP1 DUP4 SUB DUP2 DUP7 GAS STATICCALL ISZERO DUP1 ISZERO PUSH2 0x8D6 JUMPI RETURNDATASIZE PUSH1 0x0 DUP1 RETURNDATACOPY RETURNDATASIZE PUSH1 0x0 REVERT JUMPDEST POP POP POP POP PUSH1 0x40 MLOAD RETURNDATASIZE PUSH1 0x1F NOT PUSH1 0x1F DUP3 ADD AND DUP3 ADD DUP1 PUSH1 0x40 MSTORE POP DUP2 ADD SWAP1 PUSH2 0x8FA SWAP2 SWAP1 PUSH2 0x2306 JUMP JUMPDEST PUSH1 0x1 PUSH1 0x1 PUSH1 0xA0 SHL SUB AND EQ PUSH2 0x950 JUMPI PUSH1 0x40 MLOAD PUSH3 0x461BCD PUSH1 0xE5 SHL DUP2 MSTORE PUSH1 0x20 PUSH1 0x4 DUP3 ADD MSTORE PUSH1 0x1B PUSH1 0x24 DUP3 ADD MSTORE PUSH32 0x44617461746F6B656E2061646472657373206D6973736D617463680000000000 PUSH1 0x44 DUP3 ADD MSTORE PUSH1 0x64 ADD PUSH2 0x3B3 JUMP JUMPDEST DUP6 PUSH1 0x1 PUSH1 0x1 PUSH1 0xA0 SHL SUB AND DUP2 PUSH1 0x1 PUSH1 0x1 PUSH1 0xA0 SHL SUB AND PUSH4 0x4DF947D0 PUSH1 0x40 MLOAD DUP2 PUSH4 0xFFFFFFFF AND PUSH1 0xE0 SHL DUP2 MSTORE PUSH1 0x4 ADD PUSH1 0x20 PUSH1 0x40 MLOAD DUP1 DUP4 SUB DUP2 DUP7 GAS STATICCALL ISZERO DUP1 ISZERO PUSH2 0x998 JUMPI RETURNDATASIZE PUSH1 0x0 DUP1 RETURNDATACOPY RETURNDATASIZE PUSH1 0x0 REVERT JUMPDEST POP POP POP POP PUSH1 0x40 MLOAD RETURNDATASIZE PUSH1 0x1F NOT PUSH1 0x1F DUP3 ADD AND DUP3 ADD DUP1 PUSH1 0x40 MSTORE POP DUP2 ADD SWAP1 PUSH2 0x9BC SWAP2 SWAP1 PUSH2 0x2306 JUMP JUMPDEST PUSH1 0x1 PUSH1 0x1 PUSH1 0xA0 SHL SUB AND EQ PUSH2 0xA12 JUMPI PUSH1 0x40 MLOAD PUSH3 0x461BCD PUSH1 0xE5 SHL DUP2 MSTORE PUSH1 0x20 PUSH1 0x4 DUP3 ADD MSTORE PUSH1 0x1B PUSH1 0x24 DUP3 ADD MSTORE PUSH32 0x62617365546F6B656E2061646472657373206D6973736D617463680000000000 PUSH1 0x44 DUP3 ADD MSTORE PUSH1 0x64 ADD PUSH2 0x3B3 JUMP JUMPDEST PUSH5 0xE8D4A51000 DUP4 PUSH1 0x0 DUP2 MLOAD DUP2 LT PUSH2 0xA2B JUMPI PUSH2 0xA2B PUSH2 0x2323 JUMP JUMPDEST PUSH1 0x20 MUL PUSH1 0x20 ADD ADD MLOAD GT PUSH2 0xA6F JUMPI PUSH1 0x40 MLOAD PUSH3 0x461BCD PUSH1 0xE5 SHL DUP2 MSTORE PUSH1 0x20 PUSH1 0x4 DUP3 ADD MSTORE PUSH1 0xC PUSH1 0x24 DUP3 ADD MSTORE PUSH12 0x496E76616C69642072617465 PUSH1 0xA0 SHL PUSH1 0x44 DUP3 ADD MSTORE PUSH1 0x64 ADD PUSH2 0x3B3 JUMP JUMPDEST PUSH1 0x40 MLOAD PUSH3 0x3D1041 PUSH1 0xE3 SHL DUP2 MSTORE ADDRESS PUSH1 0x4 DUP3 ADD MSTORE DUP8 SWAP1 PUSH1 0x1 PUSH1 0x1 PUSH1 0xA0 SHL SUB DUP3 AND SWAP1 PUSH4 0x1E88208 SWAP1 PUSH1 0x24 ADD PUSH1 0x40 DUP1 MLOAD DUP1 DUP4 SUB DUP2 DUP7 GAS STATICCALL ISZERO DUP1 ISZERO PUSH2 0xAB3 JUMPI RETURNDATASIZE PUSH1 0x0 DUP1 RETURNDATACOPY RETURNDATASIZE PUSH1 0x0 REVERT JUMPDEST POP POP POP POP PUSH1 0x40 MLOAD RETURNDATASIZE PUSH1 0x1F NOT PUSH1 0x1F DUP3 ADD AND DUP3 ADD DUP1 PUSH1 0x40 MSTORE POP DUP2 ADD SWAP1 PUSH2 0xAD7 SWAP2 SWAP1 PUSH2 0x234E JUMP JUMPDEST MLOAD PUSH2 0xB24 JUMPI PUSH1 0x40 MLOAD PUSH3 0x461BCD PUSH1 0xE5 SHL DUP2 MSTORE PUSH1 0x20 PUSH1 0x4 DUP3 ADD MSTORE PUSH1 0x1A PUSH1 0x24 DUP3 ADD MSTORE PUSH32 0x62617365546F6B656E2061646472657373206D69736D61746368000000000000 PUSH1 0x44 DUP3 ADD MSTORE PUSH1 0x64 ADD PUSH2 0x3B3 JUMP JUMPDEST DUP1 PUSH1 0x1 PUSH1 0x1 PUSH1 0xA0 SHL SUB AND PUSH4 0x40C10F19 ADDRESS DUP4 PUSH1 0x1 PUSH1 0x1 PUSH1 0xA0 SHL SUB AND PUSH4 0x355274EA PUSH1 0x40 MLOAD DUP2 PUSH4 0xFFFFFFFF AND PUSH1 0xE0 SHL DUP2 MSTORE PUSH1 0x4 ADD PUSH1 0x20 PUSH1 0x40 MLOAD DUP1 DUP4 SUB DUP2 DUP7 GAS STATICCALL ISZERO DUP1 ISZERO PUSH2 0xB72 JUMPI RETURNDATASIZE PUSH1 0x0 DUP1 RETURNDATACOPY RETURNDATASIZE PUSH1 0x0 REVERT JUMPDEST POP POP POP POP PUSH1 0x40 MLOAD RETURNDATASIZE PUSH1 0x1F NOT PUSH1 0x1F DUP3 ADD AND DUP3 ADD DUP1 PUSH1 0x40 MSTORE POP DUP2 ADD SWAP1 PUSH2 0xB96 SWAP2 SWAP1 PUSH2 0x2271 JUMP JUMPDEST PUSH1 0x40 MLOAD PUSH1 0x1 PUSH1 0x1 PUSH1 0xE0 SHL SUB NOT PUSH1 0xE0 DUP6 SWAP1 SHL AND DUP2 MSTORE PUSH1 0x1 PUSH1 0x1 PUSH1 0xA0 SHL SUB SWAP1 SWAP3 AND PUSH1 0x4 DUP4 ADD MSTORE PUSH1 0x24 DUP3 ADD MSTORE PUSH1 0x44 ADD PUSH1 0x0 PUSH1 0x40 MLOAD DUP1 DUP4 SUB DUP2 PUSH1 0x0 DUP8 DUP1 EXTCODESIZE ISZERO DUP1 ISZERO PUSH2 0xBDC JUMPI PUSH1 0x0 DUP1 REVERT JUMPDEST POP GAS CALL ISZERO DUP1 ISZERO PUSH2 0xBF0 JUMPI RETURNDATASIZE PUSH1 0x0 DUP1 RETURNDATACOPY RETURNDATASIZE PUSH1 0x0 REVERT JUMPDEST POP POP POP POP DUP1 PUSH1 0x1 PUSH1 0x1 PUSH1 0xA0 SHL SUB AND PUSH4 0x18160DDD PUSH1 0x40 MLOAD DUP2 PUSH4 0xFFFFFFFF AND PUSH1 0xE0 SHL DUP2 MSTORE PUSH1 0x4 ADD PUSH1 0x20 PUSH1 0x40 MLOAD DUP1 DUP4 SUB DUP2 DUP7 GAS STATICCALL ISZERO DUP1 ISZERO PUSH2 0xC32 JUMPI RETURNDATASIZE PUSH1 0x0 DUP1 RETURNDATACOPY RETURNDATASIZE PUSH1 0x0 REVERT JUMPDEST POP POP POP POP PUSH1 0x40 MLOAD RETURNDATASIZE PUSH1 0x1F NOT PUSH1 0x1F DUP3 ADD AND DUP3 ADD DUP1 PUSH1 0x40 MSTORE POP DUP2 ADD SWAP1 PUSH2 0xC56 SWAP2 SWAP1 PUSH2 0x2271 JUMP JUMPDEST PUSH1 0x40 MLOAD PUSH4 0x70A08231 PUSH1 0xE0 SHL DUP2 MSTORE ADDRESS PUSH1 0x4 DUP3 ADD MSTORE PUSH1 0x1 PUSH1 0x1 PUSH1 0xA0 SHL SUB DUP4 AND SWAP1 PUSH4 0x70A08231 SWAP1 PUSH1 0x24 ADD PUSH1 0x20 PUSH1 0x40 MLOAD DUP1 DUP4 SUB DUP2 DUP7 GAS STATICCALL ISZERO DUP1 ISZERO PUSH2 0xC9A JUMPI RETURNDATASIZE PUSH1 0x0 DUP1 RETURNDATACOPY RETURNDATASIZE PUSH1 0x0 REVERT JUMPDEST POP POP POP POP PUSH1 0x40 MLOAD RETURNDATASIZE PUSH1 0x1F NOT PUSH1 0x1F DUP3 ADD AND DUP3 ADD DUP1 PUSH1 0x40 MSTORE POP DUP2 ADD SWAP1 PUSH2 0xCBE SWAP2 SWAP1 PUSH2 0x2271 JUMP JUMPDEST LT ISZERO PUSH2 0xCFA JUMPI PUSH1 0x40 MLOAD PUSH3 0x461BCD PUSH1 0xE5 SHL DUP2 MSTORE PUSH1 0x20 PUSH1 0x4 DUP3 ADD MSTORE PUSH1 0xB PUSH1 0x24 DUP3 ADD MSTORE PUSH11 0x135A5B9D0819985A5B1959 PUSH1 0xAA SHL PUSH1 0x44 DUP3 ADD MSTORE PUSH1 0x64 ADD PUSH2 0x3B3 JUMP JUMPDEST PUSH1 0x0 DUP5 PUSH1 0x2 DUP2 MLOAD DUP2 LT PUSH2 0xD0F JUMPI PUSH2 0xD0F PUSH2 0x2323 JUMP JUMPDEST PUSH1 0x20 MUL PUSH1 0x20 ADD ADD DUP2 DUP2 MSTORE POP POP PUSH1 0x0 DUP5 PUSH1 0x3 DUP2 MLOAD DUP2 LT PUSH2 0xD30 JUMPI PUSH2 0xD30 PUSH2 0x2323 JUMP JUMPDEST PUSH1 0x20 MUL PUSH1 0x20 ADD ADD DUP2 DUP2 MSTORE POP POP DUP4 PUSH1 0x2 DUP2 MLOAD DUP2 LT PUSH2 0xD4F JUMPI PUSH2 0xD4F PUSH2 0x2323 JUMP JUMPDEST PUSH1 0x20 MUL PUSH1 0x20 ADD ADD MLOAD PUSH2 0xDC4 PUSH1 0xA DUP4 PUSH1 0x1 PUSH1 0x1 PUSH1 0xA0 SHL SUB AND PUSH4 0x18160DDD PUSH1 0x40 MLOAD DUP2 PUSH4 0xFFFFFFFF AND PUSH1 0xE0 SHL DUP2 MSTORE PUSH1 0x4 ADD PUSH1 0x20 PUSH1 0x40 MLOAD DUP1 DUP4 SUB DUP2 DUP7 GAS STATICCALL ISZERO DUP1 ISZERO PUSH2 0xD9A JUMPI RETURNDATASIZE PUSH1 0x0 DUP1 RETURNDATACOPY RETURNDATASIZE PUSH1 0x0 REVERT JUMPDEST POP POP POP POP PUSH1 0x40 MLOAD RETURNDATASIZE PUSH1 0x1F NOT PUSH1 0x1F DUP3 ADD AND DUP3 ADD DUP1 PUSH1 0x40 MSTORE POP DUP2 ADD SWAP1 PUSH2 0xDBE SWAP2 SWAP1 PUSH2 0x2271 JUMP JUMPDEST SWAP1 PUSH2 0x194A JUMP JUMPDEST LT ISZERO PUSH2 0xE04 JUMPI PUSH1 0x40 MLOAD PUSH3 0x461BCD PUSH1 0xE5 SHL DUP2 MSTORE PUSH1 0x20 PUSH1 0x4 DUP3 ADD MSTORE PUSH1 0xF PUSH1 0x24 DUP3 ADD MSTORE PUSH15 0x4D61782076657374696E6720313025 PUSH1 0x88 SHL PUSH1 0x44 DUP3 ADD MSTORE PUSH1 0x64 ADD PUSH2 0x3B3 JUMP JUMPDEST PUSH1 0x40 MLOAD DUP1 PUSH2 0x1E0 ADD PUSH1 0x40 MSTORE DUP1 PUSH1 0x1 ISZERO ISZERO DUP2 MSTORE PUSH1 0x20 ADD DUP9 PUSH1 0x1 PUSH1 0x1 PUSH1 0xA0 SHL SUB AND DUP2 MSTORE PUSH1 0x20 ADD DUP8 PUSH1 0x1 PUSH1 0x1 PUSH1 0xA0 SHL SUB AND DUP2 MSTORE PUSH1 0x20 ADD PUSH1 0x0 ISZERO ISZERO DUP2 MSTORE PUSH1 0x20 ADD DUP3 PUSH1 0x1 PUSH1 0x1 PUSH1 0xA0 SHL SUB AND PUSH4 0x18160DDD PUSH1 0x40 MLOAD DUP2 PUSH4 0xFFFFFFFF AND PUSH1 0xE0 SHL DUP2 MSTORE PUSH1 0x4 ADD PUSH1 0x20 PUSH1 0x40 MLOAD DUP1 DUP4 SUB DUP2 DUP7 GAS STATICCALL ISZERO DUP1 ISZERO PUSH2 0xE7E JUMPI RETURNDATASIZE PUSH1 0x0 DUP1 RETURNDATACOPY RETURNDATASIZE PUSH1 0x0 REVERT JUMPDEST POP POP POP POP PUSH1 0x40 MLOAD RETURNDATASIZE PUSH1 0x1F NOT PUSH1 0x1F DUP3 ADD AND DUP3 ADD DUP1 PUSH1 0x40 MSTORE POP DUP2 ADD SWAP1 PUSH2 0xEA2 SWAP2 SWAP1 PUSH2 0x2271 JUMP JUMPDEST DUP2 MSTORE PUSH1 0x20 ADD DUP3 PUSH1 0x1 PUSH1 0x1 PUSH1 0xA0 SHL SUB AND PUSH4 0x355274EA PUSH1 0x40 MLOAD DUP2 PUSH4 0xFFFFFFFF AND PUSH1 0xE0 SHL DUP2 MSTORE PUSH1 0x4 ADD PUSH1 0x20 PUSH1 0x40 MLOAD DUP1 DUP4 SUB DUP2 DUP7 GAS STATICCALL ISZERO DUP1 ISZERO PUSH2 0xEE5 JUMPI RETURNDATASIZE PUSH1 0x0 DUP1 RETURNDATACOPY RETURNDATASIZE PUSH1 0x0 REVERT JUMPDEST POP POP POP POP PUSH1 0x40 MLOAD RETURNDATASIZE PUSH1 0x1F NOT PUSH1 0x1F DUP3 ADD AND DUP3 ADD DUP1 PUSH1 0x40 MSTORE POP DUP2 ADD SWAP1 PUSH2 0xF09 SWAP2 SWAP1 PUSH2 0x2271 JUMP JUMPDEST DUP2 MSTORE PUSH1 0x20 ADD DUP6 PUSH1 0x4 DUP2 MLOAD DUP2 LT PUSH2 0xF21 JUMPI PUSH2 0xF21 PUSH2 0x2323 JUMP JUMPDEST PUSH1 0x20 MUL PUSH1 0x20 ADD ADD MLOAD DUP2 MSTORE PUSH1 0x20 ADD PUSH1 0x0 DUP2 MSTORE PUSH1 0x20 ADD DUP6 PUSH1 0x0 DUP2 MLOAD DUP2 LT PUSH2 0xF48 JUMPI PUSH2 0xF48 PUSH2 0x2323 JUMP JUMPDEST PUSH1 0x20 MUL PUSH1 0x20 ADD ADD MLOAD DUP2 MSTORE PUSH1 0x20 ADD DUP7 PUSH1 0x1 PUSH1 0x1 PUSH1 0xA0 SHL SUB AND DUP2 MSTORE PUSH1 0x20 ADD NUMBER DUP2 MSTORE PUSH1 0x20 ADD DUP6 PUSH1 0x3 DUP2 MLOAD DUP2 LT PUSH2 0xF7D JUMPI PUSH2 0xF7D PUSH2 0x2323 JUMP JUMPDEST PUSH1 0x20 MUL PUSH1 0x20 ADD ADD MLOAD NUMBER PUSH2 0xF90 SWAP2 SWAP1 PUSH2 0x22B7 JUMP JUMPDEST DUP2 MSTORE PUSH1 0x20 ADD DUP6 PUSH1 0x2 DUP2 MLOAD DUP2 LT PUSH2 0xFA8 JUMPI PUSH2 0xFA8 PUSH2 0x2323 JUMP JUMPDEST PUSH1 0x20 SWAP1 DUP2 MUL SWAP2 SWAP1 SWAP2 ADD DUP2 ADD MLOAD DUP3 MSTORE NUMBER DUP3 DUP3 ADD MSTORE PUSH1 0x0 PUSH1 0x40 SWAP3 DUP4 ADD DUP2 SWAP1 MSTORE PUSH1 0x1 PUSH1 0x1 PUSH1 0xA0 SHL SUB DUP13 DUP2 AND DUP1 DUP4 MSTORE PUSH1 0x2 DUP1 DUP6 MSTORE SWAP3 DUP6 SWAP1 KECCAK256 DUP7 MLOAD DUP2 SLOAD DUP9 DUP8 ADD MLOAD PUSH1 0x1 PUSH1 0x1 PUSH1 0xA8 SHL SUB NOT SWAP2 DUP3 AND SWAP3 ISZERO ISZERO PUSH2 0x100 PUSH1 0x1 PUSH1 0xA8 SHL SUB NOT AND SWAP3 SWAP1 SWAP3 OR PUSH2 0x100 SWAP3 DUP7 AND DUP4 MUL OR DUP4 SSTORE DUP9 DUP9 ADD MLOAD PUSH1 0x1 DUP5 ADD DUP1 SLOAD PUSH1 0x60 DUP13 ADD MLOAD SWAP3 DUP9 AND SWAP4 AND SWAP3 SWAP1 SWAP3 OR PUSH1 0x1 PUSH1 0xA0 SHL SWAP2 ISZERO ISZERO SWAP2 SWAP1 SWAP2 MUL OR SWAP1 SSTORE PUSH1 0x80 DUP9 ADD MLOAD SWAP5 DUP3 ADD SWAP5 SWAP1 SWAP5 SSTORE PUSH1 0xA0 DUP8 ADD MLOAD PUSH1 0x3 DUP3 ADD SSTORE PUSH1 0xC0 DUP8 ADD MLOAD PUSH1 0x4 DUP3 ADD SSTORE PUSH1 0xE0 DUP8 ADD MLOAD PUSH1 0x5 DUP3 ADD SSTORE SWAP3 DUP7 ADD MLOAD PUSH1 0x6 DUP5 ADD SSTORE PUSH2 0x120 DUP7 ADD MLOAD PUSH1 0x7 DUP5 ADD DUP1 SLOAD PUSH1 0x1 PUSH1 0x1 PUSH1 0xA0 SHL SUB NOT AND SWAP2 DUP5 AND SWAP2 SWAP1 SWAP2 OR SWAP1 SSTORE PUSH2 0x140 DUP7 ADD MLOAD PUSH1 0x8 DUP5 ADD SSTORE PUSH2 0x160 DUP7 ADD MLOAD PUSH1 0x9 DUP5 ADD DUP2 SWAP1 SSTORE PUSH2 0x180 DUP8 ADD MLOAD PUSH1 0xA DUP6 ADD DUP2 SWAP1 SSTORE PUSH2 0x1A0 DUP9 ADD MLOAD PUSH1 0xB DUP7 ADD SSTORE PUSH2 0x1C0 SWAP1 SWAP8 ADD MLOAD PUSH1 0xC SWAP1 SWAP5 ADD SWAP4 SWAP1 SWAP4 SSTORE DUP5 MLOAD SWAP3 DUP4 MSTORE SWAP3 DUP3 ADD SWAP5 SWAP1 SWAP5 MSTORE SWAP3 DUP9 AND SWAP3 SWAP1 SWAP2 PUSH32 0x1FA0B22F78385180668C3DAA666FBB365854697BC4033E144ADC37F12AA88DFA SWAP2 ADD PUSH1 0x40 MLOAD DUP1 SWAP2 SUB SWAP1 LOG3 PUSH2 0x1127 DUP9 DUP6 PUSH1 0x1 DUP2 MLOAD DUP2 LT PUSH2 0x111A JUMPI PUSH2 0x111A PUSH2 0x2323 JUMP JUMPDEST PUSH1 0x20 MUL PUSH1 0x20 ADD ADD MLOAD PUSH2 0x195D JUMP JUMPDEST PUSH1 0x1 SWAP3 POP POP POP PUSH1 0x1 PUSH1 0x0 SSTORE SWAP6 SWAP5 POP POP POP POP POP JUMP JUMPDEST PUSH1 0x1 PUSH1 0x1 PUSH1 0xA0 SHL SUB DUP2 AND PUSH1 0x0 SWAP1 DUP2 MSTORE PUSH1 0x2 PUSH1 0x20 MSTORE PUSH1 0x40 DUP2 KECCAK256 SLOAD PUSH1 0xFF AND PUSH2 0x1163 JUMPI POP PUSH1 0x0 SWAP2 SWAP1 POP JUMP JUMPDEST POP PUSH1 0x1 PUSH1 0x1 PUSH1 0xA0 SHL SUB AND PUSH1 0x0 SWAP1 DUP2 MSTORE PUSH1 0x2 PUSH1 0x20 MSTORE PUSH1 0x40 SWAP1 KECCAK256 PUSH1 0xC ADD SLOAD SWAP1 JUMP JUMPDEST PUSH1 0x1 PUSH1 0x1 PUSH1 0xA0 SHL SUB DUP2 AND PUSH1 0x0 SWAP1 DUP2 MSTORE PUSH1 0x2 PUSH1 0x20 MSTORE PUSH1 0x40 DUP2 KECCAK256 SLOAD PUSH1 0xFF AND PUSH2 0x11AA JUMPI POP PUSH1 0x0 SWAP2 SWAP1 POP JUMP JUMPDEST POP PUSH1 0x1 PUSH1 0x1 PUSH1 0xA0 SHL SUB AND PUSH1 0x0 SWAP1 DUP2 MSTORE PUSH1 0x2 PUSH1 0x20 DUP2 SWAP1 MSTORE PUSH1 0x40 SWAP1 SWAP2 KECCAK256 ADD SLOAD SWAP1 JUMP JUMPDEST PUSH1 0x1 PUSH1 0x1 PUSH1 0xA0 SHL SUB DUP2 AND PUSH1 0x0 SWAP1 DUP2 MSTORE PUSH1 0x2 PUSH1 0x20 MSTORE PUSH1 0x40 DUP2 KECCAK256 SLOAD PUSH1 0xFF AND PUSH2 0x11F2 JUMPI POP PUSH1 0x0 SWAP2 SWAP1 POP JUMP JUMPDEST POP PUSH1 0x1 PUSH1 0x1 PUSH1 0xA0 SHL SUB AND PUSH1 0x0 SWAP1 DUP2 MSTORE PUSH1 0x2 PUSH1 0x20 MSTORE PUSH1 0x40 SWAP1 KECCAK256 PUSH1 0x4 ADD SLOAD SWAP1 JUMP JUMPDEST PUSH1 0x2 PUSH1 0x0 SLOAD EQ ISZERO PUSH2 0x1234 JUMPI PUSH1 0x40 MLOAD PUSH3 0x461BCD PUSH1 0xE5 SHL DUP2 MSTORE PUSH1 0x4 ADD PUSH2 0x3B3 SWAP1 PUSH2 0x22CF JUMP JUMPDEST PUSH1 0x2 PUSH1 0x0 DUP2 DUP2 SSTORE PUSH1 0x1 PUSH1 0x1 PUSH1 0xA0 SHL SUB DUP4 AND DUP2 MSTORE PUSH1 0x20 SWAP2 SWAP1 SWAP2 MSTORE PUSH1 0x40 SWAP1 KECCAK256 SLOAD PUSH1 0xFF AND PUSH2 0x1299 JUMPI PUSH1 0x40 MLOAD PUSH3 0x461BCD PUSH1 0xE5 SHL DUP2 MSTORE PUSH1 0x20 PUSH1 0x4 DUP3 ADD MSTORE PUSH1 0x15 PUSH1 0x24 DUP3 ADD MSTORE PUSH21 0x22A9291D24B73B30B634B2103230BA30BA37B5B2B7 PUSH1 0x59 SHL PUSH1 0x44 DUP3 ADD MSTORE PUSH1 0x64 ADD PUSH2 0x3B3 JUMP JUMPDEST PUSH1 0x0 JUMPDEST POP POP PUSH1 0x1 PUSH1 0x0 SSTORE JUMP JUMPDEST PUSH1 0x2 PUSH1 0x0 SLOAD EQ ISZERO PUSH2 0x12C8 JUMPI PUSH1 0x40 MLOAD PUSH3 0x461BCD PUSH1 0xE5 SHL DUP2 MSTORE PUSH1 0x4 ADD PUSH2 0x3B3 SWAP1 PUSH2 0x22CF JUMP JUMPDEST PUSH1 0x2 PUSH1 0x0 DUP2 DUP2 SSTORE PUSH1 0x1 PUSH1 0x1 PUSH1 0xA0 SHL SUB DUP5 AND DUP2 MSTORE PUSH1 0x20 SWAP2 SWAP1 SWAP2 MSTORE PUSH1 0x40 SWAP1 KECCAK256 SLOAD PUSH1 0xFF AND PUSH2 0x12F2 JUMPI PUSH2 0x129C JUMP JUMPDEST PUSH1 0x1 PUSH1 0x1 PUSH1 0xA0 SHL SUB DUP3 DUP2 AND PUSH1 0x0 SWAP1 DUP2 MSTORE PUSH1 0x2 PUSH1 0x20 MSTORE PUSH1 0x40 SWAP1 KECCAK256 PUSH1 0x1 ADD SLOAD AND CALLER EQ PUSH2 0x132E JUMPI PUSH1 0x40 MLOAD PUSH3 0x461BCD PUSH1 0xE5 SHL DUP2 MSTORE PUSH1 0x4 ADD PUSH2 0x3B3 SWAP1 PUSH2 0x223A JUMP JUMPDEST PUSH1 0x0 PUSH2 0x133A DUP4 DUP4 PUSH2 0x4C5 JUMP JUMPDEST SWAP1 POP DUP1 PUSH2 0x1347 JUMPI POP PUSH2 0x129C JUMP JUMPDEST PUSH1 0x1 PUSH1 0x1 PUSH1 0xA0 SHL SUB DUP1 DUP5 AND PUSH1 0x0 DUP2 DUP2 MSTORE PUSH1 0x2 PUSH1 0x20 MSTORE PUSH1 0x40 SWAP1 KECCAK256 PUSH1 0x1 ADD SLOAD DUP6 SWAP3 PUSH2 0x1372 SWAP3 SWAP2 AND DUP6 PUSH2 0x1CBF JUMP JUMPDEST PUSH1 0x1 PUSH1 0x1 PUSH1 0xA0 SHL SUB DUP5 AND PUSH1 0x0 SWAP1 DUP2 MSTORE PUSH1 0x2 PUSH1 0x20 DUP2 SWAP1 MSTORE PUSH1 0x40 DUP3 KECCAK256 ADD DUP1 SLOAD DUP6 SWAP3 SWAP1 PUSH2 0x139D SWAP1 DUP5 SWAP1 PUSH2 0x22A0 JUMP JUMPDEST SWAP1 SWAP2 SSTORE POP POP POP POP POP POP PUSH1 0x1 PUSH1 0x0 SSTORE JUMP JUMPDEST PUSH1 0x1 PUSH1 0x1 PUSH1 0xA0 SHL SUB DUP2 AND PUSH1 0x0 SWAP1 DUP2 MSTORE PUSH1 0x2 PUSH1 0x20 MSTORE PUSH1 0x40 DUP2 KECCAK256 SLOAD PUSH1 0xFF AND PUSH2 0x13D5 JUMPI POP PUSH1 0x0 SWAP2 SWAP1 POP JUMP JUMPDEST POP PUSH1 0x1 PUSH1 0x1 PUSH1 0xA0 SHL SUB AND PUSH1 0x0 SWAP1 DUP2 MSTORE PUSH1 0x2 PUSH1 0x20 MSTORE PUSH1 0x40 SWAP1 KECCAK256 PUSH1 0xB ADD SLOAD SWAP1 JUMP JUMPDEST PUSH1 0x1 PUSH1 0x1 PUSH1 0xA0 SHL SUB DUP2 AND PUSH1 0x0 SWAP1 DUP2 MSTORE PUSH1 0x2 PUSH1 0x20 MSTORE PUSH1 0x40 DUP2 KECCAK256 SLOAD PUSH1 0xFF AND PUSH2 0x141C JUMPI POP PUSH1 0x0 SWAP2 SWAP1 POP JUMP JUMPDEST PUSH1 0x1 PUSH1 0x1 PUSH1 0xA0 SHL SUB DUP3 AND PUSH1 0x0 SWAP1 DUP2 MSTORE PUSH1 0x2 PUSH1 0x20 DUP2 SWAP1 MSTORE PUSH1 0x40 SWAP1 SWAP2 KECCAK256 PUSH1 0xC DUP2 ADD SLOAD SWAP2 DUP2 ADD SLOAD PUSH1 0x3 SWAP1 SWAP2 ADD SLOAD PUSH2 0x1450 SWAP2 SWAP1 PUSH2 0x22A0 JUMP JUMPDEST PUSH2 0x42E SWAP2 SWAP1 PUSH2 0x22A0 JUMP JUMPDEST PUSH1 0x1 PUSH1 0x1 PUSH1 0xA0 SHL SUB DUP2 AND PUSH1 0x0 SWAP1 DUP2 MSTORE PUSH1 0x2 PUSH1 0x20 MSTORE PUSH1 0x40 DUP2 KECCAK256 SLOAD PUSH1 0xFF AND PUSH2 0x1482 JUMPI POP PUSH1 0x0 SWAP2 SWAP1 POP JUMP JUMPDEST POP PUSH1 0x1 PUSH1 0x1 PUSH1 0xA0 SHL SUB SWAP1 DUP2 AND PUSH1 0x0 SWAP1 DUP2 MSTORE PUSH1 0x2 PUSH1 0x20 MSTORE PUSH1 0x40 SWAP1 KECCAK256 SLOAD PUSH2 0x100 SWAP1 DIV AND SWAP1 JUMP JUMPDEST DUP3 PUSH1 0x1 PUSH1 0x1 PUSH1 0xA0 SHL SUB DUP2 AND PUSH2 0x14FD JUMPI PUSH1 0x40 MLOAD PUSH3 0x461BCD PUSH1 0xE5 SHL DUP2 MSTORE PUSH1 0x20 PUSH1 0x4 DUP3 ADD MSTORE PUSH1 0x1E PUSH1 0x24 DUP3 ADD MSTORE PUSH32 0x496E76616C696420746F6B656E20636F6E747261637420616464726573730000 PUSH1 0x44 DUP3 ADD MSTORE PUSH1 0x64 ADD PUSH2 0x3B3 JUMP JUMPDEST PUSH1 0x40 MLOAD PUSH4 0x96FB3EAF PUSH1 0xE0 SHL DUP2 MSTORE CALLER PUSH1 0x4 DUP3 ADD MSTORE DUP2 SWAP1 PUSH1 0x1 PUSH1 0x1 PUSH1 0xA0 SHL SUB DUP3 AND SWAP1 PUSH4 0x96FB3EAF SWAP1 PUSH1 0x24 ADD PUSH1 0x20 PUSH1 0x40 MLOAD DUP1 DUP4 SUB DUP2 DUP7 GAS STATICCALL ISZERO DUP1 ISZERO PUSH2 0x1543 JUMPI RETURNDATASIZE PUSH1 0x0 DUP1 RETURNDATACOPY RETURNDATASIZE PUSH1 0x0 REVERT JUMPDEST POP POP POP POP PUSH1 0x40 MLOAD RETURNDATASIZE PUSH1 0x1F NOT PUSH1 0x1F DUP3 ADD AND DUP3 ADD DUP1 PUSH1 0x40 MSTORE POP DUP2 ADD SWAP1 PUSH2 0x1567 SWAP2 SWAP1 PUSH2 0x23A9 JUMP JUMPDEST DUP1 PUSH2 0x164E JUMPI POP CALLER PUSH1 0x1 PUSH1 0x1 PUSH1 0xA0 SHL SUB AND DUP2 PUSH1 0x1 PUSH1 0x1 PUSH1 0xA0 SHL SUB AND PUSH3 0x7FFB78 PUSH1 0x40 MLOAD DUP2 PUSH4 0xFFFFFFFF AND PUSH1 0xE0 SHL DUP2 MSTORE PUSH1 0x4 ADD PUSH1 0x20 PUSH1 0x40 MLOAD DUP1 DUP4 SUB DUP2 DUP7 GAS STATICCALL ISZERO DUP1 ISZERO PUSH2 0x15B4 JUMPI RETURNDATASIZE PUSH1 0x0 DUP1 RETURNDATACOPY RETURNDATASIZE PUSH1 0x0 REVERT JUMPDEST POP POP POP POP PUSH1 0x40 MLOAD RETURNDATASIZE PUSH1 0x1F NOT PUSH1 0x1F DUP3 ADD AND DUP3 ADD DUP1 PUSH1 0x40 MSTORE POP DUP2 ADD SWAP1 PUSH2 0x15D8 SWAP2 SWAP1 PUSH2 0x2306 JUMP JUMPDEST PUSH1 0x40 MLOAD PUSH4 0x31A9108F PUSH1 0xE1 SHL DUP2 MSTORE PUSH1 0x1 PUSH1 0x4 DUP3 ADD MSTORE PUSH1 0x1 PUSH1 0x1 PUSH1 0xA0 SHL SUB SWAP2 SWAP1 SWAP2 AND SWAP1 PUSH4 0x6352211E SWAP1 PUSH1 0x24 ADD PUSH1 0x20 PUSH1 0x40 MLOAD DUP1 DUP4 SUB DUP2 DUP7 GAS STATICCALL ISZERO DUP1 ISZERO PUSH2 0x161F JUMPI RETURNDATASIZE PUSH1 0x0 DUP1 RETURNDATACOPY RETURNDATASIZE PUSH1 0x0 REVERT JUMPDEST POP POP POP POP PUSH1 0x40 MLOAD RETURNDATASIZE PUSH1 0x1F NOT PUSH1 0x1F DUP3 ADD AND DUP3 ADD DUP1 PUSH1 0x40 MSTORE POP DUP2 ADD SWAP1 PUSH2 0x1643 SWAP2 SWAP1 PUSH2 0x2306 JUMP JUMPDEST PUSH1 0x1 PUSH1 0x1 PUSH1 0xA0 SHL SUB AND EQ JUMPDEST PUSH2 0x168A JUMPI PUSH1 0x40 MLOAD PUSH3 0x461BCD PUSH1 0xE5 SHL DUP2 MSTORE PUSH1 0x20 PUSH1 0x4 DUP3 ADD MSTORE PUSH1 0xD PUSH1 0x24 DUP3 ADD MSTORE PUSH13 0x24B73B30B634B21037BBB732B9 PUSH1 0x99 SHL PUSH1 0x44 DUP3 ADD MSTORE PUSH1 0x64 ADD PUSH2 0x3B3 JUMP JUMPDEST PUSH1 0x2 PUSH1 0x0 SLOAD EQ ISZERO PUSH2 0x16AD JUMPI PUSH1 0x40 MLOAD PUSH3 0x461BCD PUSH1 0xE5 SHL DUP2 MSTORE PUSH1 0x4 ADD PUSH2 0x3B3 SWAP1 PUSH2 0x22CF JUMP JUMPDEST PUSH1 0x2 PUSH1 0x0 DUP2 DUP2 SSTORE PUSH1 0x1 PUSH1 0x1 PUSH1 0xA0 SHL SUB DUP8 AND DUP2 MSTORE PUSH1 0x20 SWAP2 SWAP1 SWAP2 MSTORE PUSH1 0x40 SWAP1 KECCAK256 SLOAD PUSH1 0xFF AND PUSH2 0x170E JUMPI PUSH1 0x40 MLOAD PUSH3 0x461BCD PUSH1 0xE5 SHL DUP2 MSTORE PUSH1 0x20 PUSH1 0x4 DUP3 ADD MSTORE PUSH1 0x11 PUSH1 0x24 DUP3 ADD MSTORE PUSH17 0x24B73B30B634B2103230BA30BA37B5B2B7 PUSH1 0x79 SHL PUSH1 0x44 DUP3 ADD MSTORE PUSH1 0x64 ADD PUSH2 0x3B3 JUMP JUMPDEST PUSH1 0x1 PUSH1 0x1 PUSH1 0xA0 SHL SUB DUP5 AND PUSH2 0x175A JUMPI PUSH1 0x40 MLOAD PUSH3 0x461BCD PUSH1 0xE5 SHL DUP2 MSTORE PUSH1 0x20 PUSH1 0x4 DUP3 ADD MSTORE PUSH1 0x13 PUSH1 0x24 DUP3 ADD MSTORE PUSH19 0x496E76616C696420706F6F6C41646472657373 PUSH1 0x68 SHL PUSH1 0x44 DUP3 ADD MSTORE PUSH1 0x64 ADD PUSH2 0x3B3 JUMP JUMPDEST PUSH1 0x0 DUP5 SWAP1 POP ADDRESS PUSH1 0x1 PUSH1 0x1 PUSH1 0xA0 SHL SUB AND DUP2 PUSH1 0x1 PUSH1 0x1 PUSH1 0xA0 SHL SUB AND PUSH4 0x3018205F PUSH1 0x40 MLOAD DUP2 PUSH4 0xFFFFFFFF AND PUSH1 0xE0 SHL DUP2 MSTORE PUSH1 0x4 ADD PUSH1 0x20 PUSH1 0x40 MLOAD DUP1 DUP4 SUB DUP2 DUP7 GAS STATICCALL ISZERO DUP1 ISZERO PUSH2 0x17A7 JUMPI RETURNDATASIZE PUSH1 0x0 DUP1 RETURNDATACOPY RETURNDATASIZE PUSH1 0x0 REVERT JUMPDEST POP POP POP POP PUSH1 0x40 MLOAD RETURNDATASIZE PUSH1 0x1F NOT PUSH1 0x1F DUP3 ADD AND DUP3 ADD DUP1 PUSH1 0x40 MSTORE POP DUP2 ADD SWAP1 PUSH2 0x17CB SWAP2 SWAP1 PUSH2 0x2306 JUMP JUMPDEST PUSH1 0x1 PUSH1 0x1 PUSH1 0xA0 SHL SUB AND EQ PUSH2 0x1821 JUMPI PUSH1 0x40 MLOAD PUSH3 0x461BCD PUSH1 0xE5 SHL DUP2 MSTORE PUSH1 0x20 PUSH1 0x4 DUP3 ADD MSTORE PUSH1 0x1E PUSH1 0x24 DUP3 ADD MSTORE PUSH32 0x576520617265206E6F742074686520706F6F6C20636F6E74726F6C6C65720000 PUSH1 0x44 DUP3 ADD MSTORE PUSH1 0x64 ADD PUSH2 0x3B3 JUMP JUMPDEST DUP6 PUSH1 0x1 PUSH1 0x1 PUSH1 0xA0 SHL SUB AND DUP2 PUSH1 0x1 PUSH1 0x1 PUSH1 0xA0 SHL SUB AND PUSH4 0x458C3FB5 PUSH1 0x40 MLOAD DUP2 PUSH4 0xFFFFFFFF AND PUSH1 0xE0 SHL DUP2 MSTORE PUSH1 0x4 ADD PUSH1 0x20 PUSH1 0x40 MLOAD DUP1 DUP4 SUB DUP2 DUP7 GAS STATICCALL ISZERO DUP1 ISZERO PUSH2 0x1869 JUMPI RETURNDATASIZE PUSH1 0x0 DUP1 RETURNDATACOPY RETURNDATASIZE PUSH1 0x0 REVERT JUMPDEST POP POP POP POP PUSH1 0x40 MLOAD RETURNDATASIZE PUSH1 0x1F NOT PUSH1 0x1F DUP3 ADD AND DUP3 ADD DUP1 PUSH1 0x40 MSTORE POP DUP2 ADD SWAP1 PUSH2 0x188D SWAP2 SWAP1 PUSH2 0x2306 JUMP JUMPDEST PUSH1 0x1 PUSH1 0x1 PUSH1 0xA0 SHL SUB AND EQ PUSH2 0x18E3 JUMPI PUSH1 0x40 MLOAD PUSH3 0x461BCD PUSH1 0xE5 SHL DUP2 MSTORE PUSH1 0x20 PUSH1 0x4 DUP3 ADD MSTORE PUSH1 0x1B PUSH1 0x24 DUP3 ADD MSTORE PUSH32 0x44617461746F6B656E2061646472657373206D6973736D617463680000000000 PUSH1 0x44 DUP3 ADD MSTORE PUSH1 0x64 ADD PUSH2 0x3B3 JUMP JUMPDEST PUSH1 0x40 MLOAD PUSH4 0x34E19907 PUSH1 0xE0 SHL DUP2 MSTORE PUSH1 0x4 DUP2 ADD DUP6 SWAP1 MSTORE PUSH1 0x1 PUSH1 0x1 PUSH1 0xA0 SHL SUB DUP3 AND SWAP1 PUSH4 0x34E19907 SWAP1 PUSH1 0x24 ADD PUSH1 0x0 PUSH1 0x40 MLOAD DUP1 DUP4 SUB DUP2 PUSH1 0x0 DUP8 DUP1 EXTCODESIZE ISZERO DUP1 ISZERO PUSH2 0x1925 JUMPI PUSH1 0x0 DUP1 REVERT JUMPDEST POP GAS CALL ISZERO DUP1 ISZERO PUSH2 0x1939 JUMPI RETURNDATASIZE PUSH1 0x0 DUP1 RETURNDATACOPY RETURNDATASIZE PUSH1 0x0 REVERT JUMPDEST POP POP PUSH1 0x1 PUSH1 0x0 SSTORE POP POP POP POP POP POP POP POP JUMP JUMPDEST PUSH1 0x0 PUSH2 0x1956 DUP3 DUP5 PUSH2 0x23C4 JUMP JUMPDEST SWAP4 SWAP3 POP POP POP JUMP JUMPDEST PUSH1 0x1 PUSH1 0x1 PUSH1 0xA0 SHL SUB DUP3 AND PUSH1 0x0 SWAP1 DUP2 MSTORE PUSH1 0x2 PUSH1 0x20 MSTORE PUSH1 0x40 SWAP1 KECCAK256 SLOAD PUSH1 0xFF AND PUSH2 0x1981 JUMPI POP POP JUMP JUMPDEST PUSH1 0x1 PUSH1 0x1 PUSH1 0xA0 SHL SUB DUP3 AND PUSH1 0x0 SWAP1 DUP2 MSTORE PUSH1 0x2 PUSH1 0x20 MSTORE PUSH1 0x40 SWAP1 KECCAK256 PUSH1 0x1 ADD SLOAD PUSH1 0x1 PUSH1 0xA0 SHL SWAP1 DIV PUSH1 0xFF AND ISZERO PUSH2 0x19B0 JUMPI POP POP JUMP JUMPDEST PUSH1 0x1 PUSH1 0x1 PUSH1 0xA0 SHL SUB DUP3 AND PUSH1 0x0 SWAP1 DUP2 MSTORE PUSH1 0x2 PUSH1 0x20 MSTORE PUSH1 0x40 DUP2 KECCAK256 PUSH1 0x1 ADD DUP1 SLOAD PUSH1 0xFF PUSH1 0xA0 SHL NOT AND PUSH1 0x1 PUSH1 0xA0 SHL OR SWAP1 SSTORE PUSH2 0x19EF PUSH8 0xDE0B6B3A7640000 PUSH1 0x5 PUSH2 0x23E6 JUMP JUMPDEST SWAP1 POP PUSH1 0x0 PUSH2 0x1A06 PUSH8 0xDE0B6B3A7640000 PUSH1 0x5 PUSH2 0x23E6 JUMP JUMPDEST PUSH1 0x1 PUSH1 0x1 PUSH1 0xA0 SHL SUB DUP6 AND PUSH1 0x0 SWAP1 DUP2 MSTORE PUSH1 0x2 PUSH1 0x20 MSTORE PUSH1 0x40 DUP2 KECCAK256 PUSH1 0x4 DUP2 ADD SLOAD PUSH1 0x6 SWAP1 SWAP2 ADD SLOAD SWAP3 SWAP4 POP SWAP2 PUSH8 0xDE0B6B3A7640000 SWAP1 DUP6 SWAP1 DUP6 SWAP1 DUP6 SWAP1 PUSH2 0x1A48 DUP11 PUSH1 0x12 PUSH2 0x22A0 JUMP JUMPDEST PUSH2 0x1A53 SWAP1 PUSH1 0xA PUSH2 0x24E9 JUMP JUMPDEST PUSH2 0x1A5D SWAP2 SWAP1 PUSH2 0x23E6 JUMP JUMPDEST PUSH2 0x1A67 SWAP2 SWAP1 PUSH2 0x23E6 JUMP JUMPDEST PUSH2 0x1A71 SWAP2 SWAP1 PUSH2 0x23E6 JUMP JUMPDEST PUSH2 0x1A7B SWAP2 SWAP1 PUSH2 0x23C4 JUMP JUMPDEST PUSH2 0x1A85 SWAP2 SWAP1 PUSH2 0x23C4 JUMP JUMPDEST PUSH1 0x1 PUSH1 0x1 PUSH1 0xA0 SHL SUB DUP8 AND PUSH1 0x0 SWAP1 DUP2 MSTORE PUSH1 0x2 PUSH1 0x20 MSTORE PUSH1 0x40 DUP2 KECCAK256 PUSH1 0x4 ADD DUP1 SLOAD SWAP3 SWAP4 POP DUP5 SWAP3 SWAP1 SWAP2 SWAP1 PUSH2 0x1AB5 SWAP1 DUP5 SWAP1 PUSH2 0x22A0 JUMP JUMPDEST SWAP1 SWAP2 SSTORE POP POP PUSH1 0x1 PUSH1 0x1 PUSH1 0xA0 SHL SUB DUP7 AND PUSH1 0x0 SWAP1 DUP2 MSTORE PUSH1 0x2 PUSH1 0x20 DUP2 SWAP1 MSTORE PUSH1 0x40 DUP3 KECCAK256 ADD DUP1 SLOAD DUP4 SWAP3 SWAP1 PUSH2 0x1AE5 SWAP1 DUP5 SWAP1 PUSH2 0x22A0 JUMP JUMPDEST SWAP1 SWAP2 SSTORE POP POP PUSH1 0x1 PUSH1 0x1 PUSH1 0xA0 SHL SUB DUP1 DUP8 AND PUSH1 0x0 DUP2 DUP2 MSTORE PUSH1 0x2 PUSH1 0x20 MSTORE PUSH1 0x40 SWAP1 KECCAK256 PUSH1 0x1 ADD SLOAD DUP9 SWAP3 PUSH2 0x1B15 SWAP3 SWAP2 AND DUP5 PUSH2 0x1CBF JUMP JUMPDEST PUSH1 0x1 PUSH1 0x1 PUSH1 0xA0 SHL SUB DUP1 DUP9 AND PUSH1 0x0 SWAP1 DUP2 MSTORE PUSH1 0x2 PUSH1 0x20 MSTORE PUSH1 0x40 SWAP1 KECCAK256 DUP1 SLOAD PUSH1 0x1 SWAP1 SWAP2 ADD SLOAD PUSH2 0x100 SWAP1 SWAP2 DIV DUP3 AND SWAP2 PUSH2 0x1B4C SWAP2 DUP4 SWAP2 AND DUP7 PUSH2 0x1CBF JUMP JUMPDEST PUSH1 0x1 PUSH1 0x1 PUSH1 0xA0 SHL SUB DUP9 DUP2 AND PUSH1 0x0 DUP2 DUP2 MSTORE PUSH1 0x2 PUSH1 0x20 MSTORE PUSH1 0x40 SWAP1 DUP2 SWAP1 KECCAK256 PUSH1 0x1 DUP2 ADD SLOAD SWAP1 SLOAD SWAP2 MLOAD PUSH4 0x9EF3F5B PUSH1 0xE0 SHL DUP2 MSTORE PUSH1 0x4 DUP2 ADD SWAP4 SWAP1 SWAP4 MSTORE PUSH1 0x24 DUP4 ADD DUP8 SWAP1 MSTORE PUSH1 0x44 DUP4 ADD DUP10 SWAP1 MSTORE PUSH2 0x100 SWAP1 SWAP2 DIV DUP4 AND PUSH1 0x64 DUP4 ADD MSTORE PUSH1 0x84 DUP3 ADD DUP8 SWAP1 MSTORE PUSH1 0xA4 DUP3 ADD DUP10 SWAP1 MSTORE SWAP1 SWAP2 AND SWAP1 DUP2 SWAP1 PUSH4 0x9EF3F5B SWAP1 PUSH1 0xC4 ADD PUSH1 0x0 PUSH1 0x40 MLOAD DUP1 DUP4 SUB DUP2 PUSH1 0x0 DUP8 DUP1 EXTCODESIZE ISZERO DUP1 ISZERO PUSH2 0x1BD4 JUMPI PUSH1 0x0 DUP1 REVERT JUMPDEST POP GAS CALL ISZERO DUP1 ISZERO PUSH2 0x1BE8 JUMPI RETURNDATASIZE PUSH1 0x0 DUP1 RETURNDATACOPY RETURNDATASIZE PUSH1 0x0 REVERT JUMPDEST POP POP POP POP PUSH1 0x1 PUSH1 0x1 PUSH1 0xA0 SHL SUB DUP10 DUP2 AND PUSH1 0x0 SWAP1 DUP2 MSTORE PUSH1 0x2 PUSH1 0x20 MSTORE PUSH1 0x40 DUP1 DUP3 KECCAK256 PUSH1 0x1 ADD SLOAD SWAP1 MLOAD PUSH4 0x70A08231 PUSH1 0xE0 SHL DUP2 MSTORE ADDRESS PUSH1 0x4 DUP3 ADD MSTORE SWAP3 AND SWAP2 DUP3 SWAP1 PUSH4 0x70A08231 SWAP1 PUSH1 0x24 ADD PUSH1 0x20 PUSH1 0x40 MLOAD DUP1 DUP4 SUB DUP2 DUP7 GAS STATICCALL ISZERO DUP1 ISZERO PUSH2 0x1C47 JUMPI RETURNDATASIZE PUSH1 0x0 DUP1 RETURNDATACOPY RETURNDATASIZE PUSH1 0x0 REVERT JUMPDEST POP POP POP POP PUSH1 0x40 MLOAD RETURNDATASIZE PUSH1 0x1F NOT PUSH1 0x1F DUP3 ADD AND DUP3 ADD DUP1 PUSH1 0x40 MSTORE POP DUP2 ADD SWAP1 PUSH2 0x1C6B SWAP2 SWAP1 PUSH2 0x2271 JUMP JUMPDEST PUSH1 0x1 PUSH1 0x1 PUSH1 0xA0 SHL SUB DUP1 DUP14 AND PUSH1 0x0 SWAP1 DUP2 MSTORE PUSH1 0x2 PUSH1 0x20 DUP2 SWAP1 MSTORE PUSH1 0x40 SWAP1 SWAP2 KECCAK256 PUSH1 0x7 ADD SLOAD SWAP3 SWAP4 POP PUSH2 0x1CB2 SWAP3 SWAP1 SWAP2 AND SWAP1 PUSH2 0x1CA1 SWAP1 DUP5 SWAP1 PUSH2 0x194A JUMP JUMPDEST PUSH1 0x1 PUSH1 0x1 PUSH1 0xA0 SHL SUB DUP6 AND SWAP2 SWAP1 PUSH2 0x1DAA JUMP JUMPDEST POP POP POP POP POP POP POP POP POP POP POP JUMP JUMPDEST PUSH1 0x40 MLOAD PUSH4 0x6EB1769F PUSH1 0xE1 SHL DUP2 MSTORE ADDRESS PUSH1 0x4 DUP3 ADD MSTORE PUSH1 0x1 PUSH1 0x1 PUSH1 0xA0 SHL SUB DUP4 DUP2 AND PUSH1 0x24 DUP4 ADD MSTORE PUSH1 0x0 SWAP2 DUP4 SWAP2 DUP7 AND SWAP1 PUSH4 0xDD62ED3E SWAP1 PUSH1 0x44 ADD PUSH1 0x20 PUSH1 0x40 MLOAD DUP1 DUP4 SUB DUP2 DUP7 GAS STATICCALL ISZERO DUP1 ISZERO PUSH2 0x1D10 JUMPI RETURNDATASIZE PUSH1 0x0 DUP1 RETURNDATACOPY RETURNDATASIZE PUSH1 0x0 REVERT JUMPDEST POP POP POP POP PUSH1 0x40 MLOAD RETURNDATASIZE PUSH1 0x1F NOT PUSH1 0x1F DUP3 ADD AND DUP3 ADD DUP1 PUSH1 0x40 MSTORE POP DUP2 ADD SWAP1 PUSH2 0x1D34 SWAP2 SWAP1 PUSH2 0x2271 JUMP JUMPDEST PUSH2 0x1D3E SWAP2 SWAP1 PUSH2 0x22B7 JUMP JUMPDEST PUSH1 0x40 MLOAD PUSH1 0x1 PUSH1 0x1 PUSH1 0xA0 SHL SUB DUP6 AND PUSH1 0x24 DUP3 ADD MSTORE PUSH1 0x44 DUP2 ADD DUP3 SWAP1 MSTORE SWAP1 SWAP2 POP PUSH2 0x1DA4 SWAP1 DUP6 SWAP1 PUSH4 0x95EA7B3 PUSH1 0xE0 SHL SWAP1 PUSH1 0x64 ADD JUMPDEST PUSH1 0x40 DUP1 MLOAD PUSH1 0x1F NOT DUP2 DUP5 SUB ADD DUP2 MSTORE SWAP2 SWAP1 MSTORE PUSH1 0x20 DUP2 ADD DUP1 MLOAD PUSH1 0x1 PUSH1 0x1 PUSH1 0xE0 SHL SUB AND PUSH1 0x1 PUSH1 0x1 PUSH1 0xE0 SHL SUB NOT SWAP1 SWAP4 AND SWAP3 SWAP1 SWAP3 OR SWAP1 SWAP2 MSTORE PUSH2 0x1DDF JUMP JUMPDEST POP POP POP POP JUMP JUMPDEST PUSH1 0x40 MLOAD PUSH1 0x1 PUSH1 0x1 PUSH1 0xA0 SHL SUB DUP4 AND PUSH1 0x24 DUP3 ADD MSTORE PUSH1 0x44 DUP2 ADD DUP3 SWAP1 MSTORE PUSH2 0x1DDA SWAP1 DUP5 SWAP1 PUSH4 0xA9059CBB PUSH1 0xE0 SHL SWAP1 PUSH1 0x64 ADD PUSH2 0x1D6D JUMP JUMPDEST POP POP POP JUMP JUMPDEST PUSH1 0x0 PUSH2 0x1E34 DUP3 PUSH1 0x40 MLOAD DUP1 PUSH1 0x40 ADD PUSH1 0x40 MSTORE DUP1 PUSH1 0x20 DUP2 MSTORE PUSH1 0x20 ADD PUSH32 0x5361666545524332303A206C6F772D6C6576656C2063616C6C206661696C6564 DUP2 MSTORE POP DUP6 PUSH1 0x1 PUSH1 0x1 PUSH1 0xA0 SHL SUB AND PUSH2 0x1EB1 SWAP1 SWAP3 SWAP2 SWAP1 PUSH4 0xFFFFFFFF AND JUMP JUMPDEST DUP1 MLOAD SWAP1 SWAP2 POP ISZERO PUSH2 0x1DDA JUMPI DUP1 DUP1 PUSH1 0x20 ADD SWAP1 MLOAD DUP2 ADD SWAP1 PUSH2 0x1E52 SWAP2 SWAP1 PUSH2 0x23A9 JUMP JUMPDEST PUSH2 0x1DDA JUMPI PUSH1 0x40 MLOAD PUSH3 0x461BCD PUSH1 0xE5 SHL DUP2 MSTORE PUSH1 0x20 PUSH1 0x4 DUP3 ADD MSTORE PUSH1 0x2A PUSH1 0x24 DUP3 ADD MSTORE PUSH32 0x5361666545524332303A204552433230206F7065726174696F6E20646964206E PUSH1 0x44 DUP3 ADD MSTORE PUSH10 0x1BDD081CDD58D8D95959 PUSH1 0xB2 SHL PUSH1 0x64 DUP3 ADD MSTORE PUSH1 0x84 ADD PUSH2 0x3B3 JUMP JUMPDEST PUSH1 0x60 PUSH2 0x1EC0 DUP5 DUP5 PUSH1 0x0 DUP6 PUSH2 0x1EC8 JUMP JUMPDEST SWAP5 SWAP4 POP POP POP POP JUMP JUMPDEST PUSH1 0x60 DUP3 SELFBALANCE LT ISZERO PUSH2 0x1F29 JUMPI PUSH1 0x40 MLOAD PUSH3 0x461BCD PUSH1 0xE5 SHL DUP2 MSTORE PUSH1 0x20 PUSH1 0x4 DUP3 ADD MSTORE PUSH1 0x26 PUSH1 0x24 DUP3 ADD MSTORE PUSH32 0x416464726573733A20696E73756666696369656E742062616C616E636520666F PUSH1 0x44 DUP3 ADD MSTORE PUSH6 0x1C8818D85B1B PUSH1 0xD2 SHL PUSH1 0x64 DUP3 ADD MSTORE PUSH1 0x84 ADD PUSH2 0x3B3 JUMP JUMPDEST DUP5 EXTCODESIZE PUSH2 0x1F77 JUMPI PUSH1 0x40 MLOAD PUSH3 0x461BCD PUSH1 0xE5 SHL DUP2 MSTORE PUSH1 0x20 PUSH1 0x4 DUP3 ADD MSTORE PUSH1 0x1D PUSH1 0x24 DUP3 ADD MSTORE PUSH32 0x416464726573733A2063616C6C20746F206E6F6E2D636F6E7472616374000000 PUSH1 0x44 DUP3 ADD MSTORE PUSH1 0x64 ADD PUSH2 0x3B3 JUMP JUMPDEST PUSH1 0x0 DUP1 DUP7 PUSH1 0x1 PUSH1 0x1 PUSH1 0xA0 SHL SUB AND DUP6 DUP8 PUSH1 0x40 MLOAD PUSH2 0x1F93 SWAP2 SWAP1 PUSH2 0x2521 JUMP JUMPDEST PUSH1 0x0 PUSH1 0x40 MLOAD DUP1 DUP4 SUB DUP2 DUP6 DUP8 GAS CALL SWAP3 POP POP POP RETURNDATASIZE DUP1 PUSH1 0x0 DUP2 EQ PUSH2 0x1FD0 JUMPI PUSH1 0x40 MLOAD SWAP2 POP PUSH1 0x1F NOT PUSH1 0x3F RETURNDATASIZE ADD AND DUP3 ADD PUSH1 0x40 MSTORE RETURNDATASIZE DUP3 MSTORE RETURNDATASIZE PUSH1 0x0 PUSH1 0x20 DUP5 ADD RETURNDATACOPY PUSH2 0x1FD5 JUMP JUMPDEST PUSH1 0x60 SWAP2 POP JUMPDEST POP SWAP2 POP SWAP2 POP PUSH2 0x1FE5 DUP3 DUP3 DUP7 PUSH2 0x1FF0 JUMP JUMPDEST SWAP8 SWAP7 POP POP POP POP POP POP POP JUMP JUMPDEST PUSH1 0x60 DUP4 ISZERO PUSH2 0x1FFF JUMPI POP DUP2 PUSH2 0x1956 JUMP JUMPDEST DUP3 MLOAD ISZERO PUSH2 0x200F JUMPI DUP3 MLOAD DUP1 DUP5 PUSH1 0x20 ADD REVERT JUMPDEST DUP2 PUSH1 0x40 MLOAD PUSH3 0x461BCD PUSH1 0xE5 SHL DUP2 MSTORE PUSH1 0x4 ADD PUSH2 0x3B3 SWAP2 SWAP1 PUSH2 0x253D JUMP JUMPDEST PUSH1 0x1 PUSH1 0x1 PUSH1 0xA0 SHL SUB DUP2 AND DUP2 EQ PUSH2 0x203E JUMPI PUSH1 0x0 DUP1 REVERT JUMPDEST POP JUMP JUMPDEST PUSH1 0x0 PUSH1 0x20 DUP3 DUP5 SUB SLT ISZERO PUSH2 0x2053 JUMPI PUSH1 0x0 DUP1 REVERT JUMPDEST DUP2 CALLDATALOAD PUSH2 0x1956 DUP2 PUSH2 0x2029 JUMP JUMPDEST PUSH1 0x0 DUP1 PUSH1 0x40 DUP4 DUP6 SUB SLT ISZERO PUSH2 0x2071 JUMPI PUSH1 0x0 DUP1 REVERT JUMPDEST DUP3 CALLDATALOAD PUSH2 0x207C DUP2 PUSH2 0x2029 JUMP JUMPDEST SWAP5 PUSH1 0x20 SWAP4 SWAP1 SWAP4 ADD CALLDATALOAD SWAP4 POP POP POP JUMP JUMPDEST PUSH1 0x0 DUP1 PUSH1 0x0 PUSH1 0x60 DUP5 DUP7 SUB SLT ISZERO PUSH2 0x209F JUMPI PUSH1 0x0 DUP1 REVERT JUMPDEST DUP4 CALLDATALOAD PUSH2 0x20AA DUP2 PUSH2 0x2029 JUMP JUMPDEST SWAP6 PUSH1 0x20 DUP6 ADD CALLDATALOAD SWAP6 POP PUSH1 0x40 SWAP1 SWAP5 ADD CALLDATALOAD SWAP4 SWAP3 POP POP POP JUMP JUMPDEST PUSH4 0x4E487B71 PUSH1 0xE0 SHL PUSH1 0x0 MSTORE PUSH1 0x41 PUSH1 0x4 MSTORE PUSH1 0x24 PUSH1 0x0 REVERT JUMPDEST PUSH1 0x40 MLOAD PUSH1 0x1F DUP3 ADD PUSH1 0x1F NOT AND DUP2 ADD PUSH8 0xFFFFFFFFFFFFFFFF DUP2 GT DUP3 DUP3 LT OR ISZERO PUSH2 0x20FE JUMPI PUSH2 0x20FE PUSH2 0x20BF JUMP JUMPDEST PUSH1 0x40 MSTORE SWAP2 SWAP1 POP JUMP JUMPDEST PUSH1 0x0 DUP1 PUSH1 0x0 DUP1 PUSH1 0x0 PUSH1 0xA0 DUP7 DUP9 SUB SLT ISZERO PUSH2 0x211E JUMPI PUSH1 0x0 DUP1 REVERT JUMPDEST DUP6 CALLDATALOAD PUSH2 0x2129 DUP2 PUSH2 0x2029 JUMP JUMPDEST SWAP5 POP PUSH1 0x20 DUP7 DUP2 ADD CALLDATALOAD PUSH2 0x213A DUP2 PUSH2 0x2029 JUMP JUMPDEST SWAP5 POP PUSH1 0x40 DUP8 ADD CALLDATALOAD PUSH2 0x214A DUP2 PUSH2 0x2029 JUMP JUMPDEST SWAP4 POP PUSH1 0x60 DUP8 ADD CALLDATALOAD PUSH2 0x215A DUP2 PUSH2 0x2029 JUMP JUMPDEST SWAP3 POP PUSH1 0x80 DUP8 ADD CALLDATALOAD PUSH8 0xFFFFFFFFFFFFFFFF DUP1 DUP3 GT ISZERO PUSH2 0x2177 JUMPI PUSH1 0x0 DUP1 REVERT JUMPDEST DUP2 DUP10 ADD SWAP2 POP DUP10 PUSH1 0x1F DUP4 ADD SLT PUSH2 0x218B JUMPI PUSH1 0x0 DUP1 REVERT JUMPDEST DUP2 CALLDATALOAD DUP2 DUP2 GT ISZERO PUSH2 0x219D JUMPI PUSH2 0x219D PUSH2 0x20BF JUMP JUMPDEST DUP1 PUSH1 0x5 SHL SWAP2 POP PUSH2 0x21AE DUP5 DUP4 ADD PUSH2 0x20D5 JUMP JUMPDEST DUP2 DUP2 MSTORE SWAP2 DUP4 ADD DUP5 ADD SWAP2 DUP5 DUP2 ADD SWAP1 DUP13 DUP5 GT ISZERO PUSH2 0x21C8 JUMPI PUSH1 0x0 DUP1 REVERT JUMPDEST SWAP4 DUP6 ADD SWAP4 JUMPDEST DUP4 DUP6 LT ISZERO PUSH2 0x21E6 JUMPI DUP5 CALLDATALOAD DUP3 MSTORE SWAP4 DUP6 ADD SWAP4 SWAP1 DUP6 ADD SWAP1 PUSH2 0x21CD JUMP JUMPDEST DUP1 SWAP7 POP POP POP POP POP POP POP SWAP3 SWAP6 POP SWAP3 SWAP6 SWAP1 SWAP4 POP JUMP JUMPDEST PUSH1 0x0 DUP1 PUSH1 0x0 PUSH1 0x60 DUP5 DUP7 SUB SLT ISZERO PUSH2 0x220E JUMPI PUSH1 0x0 DUP1 REVERT JUMPDEST DUP4 CALLDATALOAD PUSH2 0x2219 DUP2 PUSH2 0x2029 JUMP JUMPDEST SWAP3 POP PUSH1 0x20 DUP5 ADD CALLDATALOAD PUSH2 0x2229 DUP2 PUSH2 0x2029 JUMP JUMPDEST SWAP3 SWAP6 SWAP3 SWAP5 POP POP POP PUSH1 0x40 SWAP2 SWAP1 SWAP2 ADD CALLDATALOAD SWAP1 JUMP JUMPDEST PUSH1 0x20 DUP1 DUP3 MSTORE PUSH1 0x1C SWAP1 DUP3 ADD MSTORE PUSH32 0x4552523A204F6E6C7920706F6F6C2063616E2063616C6C207468697300000000 PUSH1 0x40 DUP3 ADD MSTORE PUSH1 0x60 ADD SWAP1 JUMP JUMPDEST PUSH1 0x0 PUSH1 0x20 DUP3 DUP5 SUB SLT ISZERO PUSH2 0x2283 JUMPI PUSH1 0x0 DUP1 REVERT JUMPDEST POP MLOAD SWAP2 SWAP1 POP JUMP JUMPDEST PUSH4 0x4E487B71 PUSH1 0xE0 SHL PUSH1 0x0 MSTORE PUSH1 0x11 PUSH1 0x4 MSTORE PUSH1 0x24 PUSH1 0x0 REVERT JUMPDEST PUSH1 0x0 DUP3 DUP3 LT ISZERO PUSH2 0x22B2 JUMPI PUSH2 0x22B2 PUSH2 0x228A JUMP JUMPDEST POP SUB SWAP1 JUMP JUMPDEST PUSH1 0x0 DUP3 NOT DUP3 GT ISZERO PUSH2 0x22CA JUMPI PUSH2 0x22CA PUSH2 0x228A JUMP JUMPDEST POP ADD SWAP1 JUMP JUMPDEST PUSH1 0x20 DUP1 DUP3 MSTORE PUSH1 0x1F SWAP1 DUP3 ADD MSTORE PUSH32 0x5265656E7472616E637947756172643A207265656E7472616E742063616C6C00 PUSH1 0x40 DUP3 ADD MSTORE PUSH1 0x60 ADD SWAP1 JUMP JUMPDEST PUSH1 0x0 PUSH1 0x20 DUP3 DUP5 SUB SLT ISZERO PUSH2 0x2318 JUMPI PUSH1 0x0 DUP1 REVERT JUMPDEST DUP2 MLOAD PUSH2 0x1956 DUP2 PUSH2 0x2029 JUMP JUMPDEST PUSH4 0x4E487B71 PUSH1 0xE0 SHL PUSH1 0x0 MSTORE PUSH1 0x32 PUSH1 0x4 MSTORE PUSH1 0x24 PUSH1 0x0 REVERT JUMPDEST DUP1 MLOAD DUP1 ISZERO ISZERO DUP2 EQ PUSH2 0x2349 JUMPI PUSH1 0x0 DUP1 REVERT JUMPDEST SWAP2 SWAP1 POP JUMP JUMPDEST PUSH1 0x0 PUSH1 0x40 DUP3 DUP5 SUB SLT ISZERO PUSH2 0x2360 JUMPI PUSH1 0x0 DUP1 REVERT JUMPDEST PUSH1 0x40 MLOAD PUSH1 0x40 DUP2 ADD DUP2 DUP2 LT PUSH8 0xFFFFFFFFFFFFFFFF DUP3 GT OR ISZERO PUSH2 0x2383 JUMPI PUSH2 0x2383 PUSH2 0x20BF JUMP JUMPDEST PUSH1 0x40 MSTORE PUSH2 0x238F DUP4 PUSH2 0x2339 JUMP JUMPDEST DUP2 MSTORE PUSH2 0x239D PUSH1 0x20 DUP5 ADD PUSH2 0x2339 JUMP JUMPDEST PUSH1 0x20 DUP3 ADD MSTORE SWAP4 SWAP3 POP POP POP JUMP JUMPDEST PUSH1 0x0 PUSH1 0x20 DUP3 DUP5 SUB SLT ISZERO PUSH2 0x23BB JUMPI PUSH1 0x0 DUP1 REVERT JUMPDEST PUSH2 0x1956 DUP3 PUSH2 0x2339 JUMP JUMPDEST PUSH1 0x0 DUP3 PUSH2 0x23E1 JUMPI PUSH4 0x4E487B71 PUSH1 0xE0 SHL PUSH1 0x0 MSTORE PUSH1 0x12 PUSH1 0x4 MSTORE PUSH1 0x24 PUSH1 0x0 REVERT JUMPDEST POP DIV SWAP1 JUMP JUMPDEST PUSH1 0x0 DUP2 PUSH1 0x0 NOT DIV DUP4 GT DUP3 ISZERO ISZERO AND ISZERO PUSH2 0x2400 JUMPI PUSH2 0x2400 PUSH2 0x228A JUMP JUMPDEST POP MUL SWAP1 JUMP JUMPDEST PUSH1 0x1 DUP2 DUP2 JUMPDEST DUP1 DUP6 GT ISZERO PUSH2 0x2440 JUMPI DUP2 PUSH1 0x0 NOT DIV DUP3 GT ISZERO PUSH2 0x2426 JUMPI PUSH2 0x2426 PUSH2 0x228A JUMP JUMPDEST DUP1 DUP6 AND ISZERO PUSH2 0x2433 JUMPI SWAP2 DUP2 MUL SWAP2 JUMPDEST SWAP4 DUP5 SHR SWAP4 SWAP1 DUP1 MUL SWAP1 PUSH2 0x240A JUMP JUMPDEST POP SWAP3 POP SWAP3 SWAP1 POP JUMP JUMPDEST PUSH1 0x0 DUP3 PUSH2 0x2457 JUMPI POP PUSH1 0x1 PUSH2 0x42E JUMP JUMPDEST DUP2 PUSH2 0x2464 JUMPI POP PUSH1 0x0 PUSH2 0x42E JUMP JUMPDEST DUP2 PUSH1 0x1 DUP2 EQ PUSH2 0x247A JUMPI PUSH1 0x2 DUP2 EQ PUSH2 0x2484 JUMPI PUSH2 0x24A0 JUMP JUMPDEST PUSH1 0x1 SWAP2 POP POP PUSH2 0x42E JUMP JUMPDEST PUSH1 0xFF DUP5 GT ISZERO PUSH2 0x2495 JUMPI PUSH2 0x2495 PUSH2 0x228A JUMP JUMPDEST POP POP PUSH1 0x1 DUP3 SHL PUSH2 0x42E JUMP JUMPDEST POP PUSH1 0x20 DUP4 LT PUSH2 0x133 DUP4 LT AND PUSH1 0x4E DUP5 LT PUSH1 0xB DUP5 LT AND OR ISZERO PUSH2 0x24C3 JUMPI POP DUP2 DUP2 EXP PUSH2 0x42E JUMP JUMPDEST PUSH2 0x24CD DUP4 DUP4 PUSH2 0x2405 JUMP JUMPDEST DUP1 PUSH1 0x0 NOT DIV DUP3 GT ISZERO PUSH2 0x24E1 JUMPI PUSH2 0x24E1 PUSH2 0x228A JUMP JUMPDEST MUL SWAP4 SWAP3 POP POP POP JUMP JUMPDEST PUSH1 0x0 PUSH2 0x1956 DUP4 DUP4 PUSH2 0x2448 JUMP JUMPDEST PUSH1 0x0 JUMPDEST DUP4 DUP2 LT ISZERO PUSH2 0x2510 JUMPI DUP2 DUP2 ADD MLOAD DUP4 DUP3 ADD MSTORE PUSH1 0x20 ADD PUSH2 0x24F8 JUMP JUMPDEST DUP4 DUP2 GT ISZERO PUSH2 0x1DA4 JUMPI POP POP PUSH1 0x0 SWAP2 ADD MSTORE JUMP JUMPDEST PUSH1 0x0 DUP3 MLOAD PUSH2 0x2533 DUP2 DUP5 PUSH1 0x20 DUP8 ADD PUSH2 0x24F5 JUMP JUMPDEST SWAP2 SWAP1 SWAP2 ADD SWAP3 SWAP2 POP POP JUMP JUMPDEST PUSH1 0x20 DUP2 MSTORE PUSH1 0x0 DUP3 MLOAD DUP1 PUSH1 0x20 DUP5 ADD MSTORE PUSH2 0x255C DUP2 PUSH1 0x40 DUP6 ADD PUSH1 0x20 DUP8 ADD PUSH2 0x24F5 JUMP JUMPDEST PUSH1 0x1F ADD PUSH1 0x1F NOT AND SWAP2 SWAP1 SWAP2 ADD PUSH1 0x40 ADD SWAP3 SWAP2 POP POP JUMP INVALID LOG2 PUSH5 0x6970667358 0x22 SLT KECCAK256 CALLDATASIZE NUMBER 0xBF 0xDE CALLDATACOPY REVERT DUP10 MSTORE SWAP14 0xE6 CALLDATASIZE 0xD7 0x4C INVALID 0xC XOR 0xD9 PUSH13 0x654ABB869B2D44BF0F07D178E7 DUP5 PUSH5 0x736F6C6343 STOP ADDMOD 0xC STOP CALLER ","sha1":"52ba9a49200c650485502b3189b7e47da37e89fa","source":"pragma solidity 0.8.12;\n// Copyright BigchainDB GmbH and Ocean Protocol contributors\n// SPDX-License-Identifier: (Apache-2.0 AND CC-BY-4.0)\n// Code is Apache-2.0 and docs are CC-BY-4.0\n\nimport \"../../interfaces/ISideStaking.sol\";\nimport \"../../interfaces/IERC20.sol\";\nimport \"../../interfaces/IERC20Template.sol\";\nimport \"../../interfaces/IERC721Template.sol\";\nimport \"../../interfaces/IPool.sol\";\nimport \"OpenZeppelin/openzeppelin-contracts@4.2.0/contracts/utils/math/SafeMath.sol\";\nimport \"../../utils/SafeERC20.sol\";\nimport \"OpenZeppelin/openzeppelin-contracts@4.2.0/contracts/security/ReentrancyGuard.sol\";\n\n/**@title SideStaking\n *\n * @dev SideStaking is a contract that monitors stakings in pools, \n        adding or removing dt when only baseToken liquidity is added or removed\n *      Called by the pool contract\n *      Every ss newDatatokenCreated function has a ssParams array, \n        which for this contract has the following structure: \n     *                     [0]  = rate (wei)\n     *                     [1]  = baseToken decimals\n     *                     [2]  = vesting amount (wei)\n     *                     [3]  = vested blocks\n     *                     [4]  = initial liquidity in baseToken for pool creation\n *\n */\ncontract SideStaking is ReentrancyGuard, ISideStaking {\n    using SafeMath for uint256;\n    using SafeERC20 for IERC20;\n    address public router;\n\n    // emitted when a new vesting is created\n    event VestingCreated(\n        address indexed datatokenAddress,\n        address indexed publisherAddress,\n        uint256 vestingEndBlock,\n        uint256 totalVestingAmount\n    );\n    // emited each time when tokens are vested to the publisher\n    event Vesting(\n        address indexed datatokenAddress,\n        address indexed publisherAddress,\n        address indexed caller,\n        uint256 amountVested\n    );\n\n    struct Record {\n        bool bound; //datatoken bounded\n        address baseTokenAddress;\n        address poolAddress;\n        bool poolFinalized; // did we finalized the pool ? We have to do it after burn-in\n        uint256 datatokenBalance; //current dt balance\n        uint256 datatokenCap; //dt cap\n        uint256 baseTokenBalance; //current baseToken balance\n        uint256 lastPrice; //used for creating the pool\n        uint256 rate; // rate to exchange DT<->baseToken\n        address publisherAddress;\n        uint256 blockDeployed; //when this record was created\n        uint256 vestingEndBlock; //see below\n        uint256 vestingAmount; // total amount to be vested to publisher until vestingEndBlock\n        uint256 vestingLastBlock; //last block in which a vesting has been granted\n        uint256 vestingAmountSoFar; //how much was vested so far\n    }\n\n    mapping(address => Record) private _datatokens;\n    uint256 private constant BASE = 1e18;\n\n    modifier onlyRouter() {\n        require(msg.sender == router, \"ONLY ROUTER\");\n        _;\n    }\n\n    modifier onlyOwner(address datatoken) {\n        require(\n            datatoken != address(0),\n            'Invalid token contract address'\n        );\n        // allow only ERC20 Deployers or NFT Owner\n        IERC20Template dt = IERC20Template(datatoken);\n        require(\n            dt.isERC20Deployer(msg.sender) || \n            IERC721Template(dt.getERC721Address()).ownerOf(1) == msg.sender\n            ,\n            \"Invalid owner\"\n        );\n        _;\n    }\n    /**\n     * @dev constructor\n     *      Called on contract deployment.\n     */\n    constructor(address _router) {\n        require(_router != address(0), \"Invalid _router address\");\n        router = _router;\n    }\n\n    /**\n     * @dev getId\n     *      Return template id in case we need different ABIs.\n     *      If you construct your own template, please make sure to change the hardcoded value\n     */\n    function getId() public pure returns (uint8) {\n        return 1;\n    }\n\n    /**\n     * @dev newDatatokenCreated\n     *      Called when new Datatoken is deployed by the DatatokenFactory\n     * @param datatokenAddress - datatokenAddress\n     * @param baseTokenAddress -\n     * @param poolAddress - poolAddress\n     * @param publisherAddress - publisherAddress\n     * @param ssParams  - ss Params, see below\n     */\n\n    function newDatatokenCreated(\n        address datatokenAddress,\n        address baseTokenAddress,\n        address poolAddress,\n        address publisherAddress,\n        uint256[] memory ssParams\n    ) external onlyRouter nonReentrant returns (bool) {\n        //check if we are the controller of the pool\n        require(poolAddress != address(0), \"Invalid poolAddress\");\n        IPool bpool = IPool(poolAddress);\n        require(\n            bpool.getController() == address(this),\n            \"We are not the pool controller\"\n        );\n        //check if the tokens are bound\n        require(\n            bpool.getDatatokenAddress() == datatokenAddress,\n            \"Datatoken address missmatch\"\n        );\n        require(\n            bpool.getBaseTokenAddress() == baseTokenAddress,\n            \"baseToken address missmatch\"\n        );\n        require(ssParams[0]>1e12 , \"Invalid rate\");\n        // check if we are the minter of DT\n        IERC20Template dt = IERC20Template(datatokenAddress);\n        require(\n            (dt.permissions(address(this))).minter,\n            \"baseToken address mismatch\"\n        );\n        // get cap and mint it..\n        dt.mint(address(this), dt.cap());\n\n        require(dt.balanceOf(address(this)) >= dt.totalSupply(), \"Mint failed\");\n\n        //force vesting to 0, see https://github.com/oceanprotocol/contracts/issues/603\n        ssParams[2] = 0;\n        ssParams[3] = 0;\n        require(dt.totalSupply().div(10) >= ssParams[2], \"Max vesting 10%\");\n        //we are rich :)let's setup the records and we are good to go\n        _datatokens[datatokenAddress] = Record({\n            bound: true,\n            baseTokenAddress: baseTokenAddress,\n            poolAddress: poolAddress,\n            poolFinalized: false,\n            datatokenBalance: dt.totalSupply(),\n            datatokenCap: dt.cap(),\n            baseTokenBalance: ssParams[4],\n            lastPrice: 0,\n            rate: ssParams[0],\n            publisherAddress: publisherAddress,\n            blockDeployed: block.number,\n            vestingEndBlock: block.number + ssParams[3],\n            vestingAmount: ssParams[2],\n            vestingLastBlock: block.number,\n            vestingAmountSoFar: 0\n        });\n        emit VestingCreated(\n            datatokenAddress,\n            publisherAddress,\n            _datatokens[datatokenAddress].vestingEndBlock,\n            _datatokens[datatokenAddress].vestingAmount\n        );\n\n        _notifyFinalize(datatokenAddress, ssParams[1]);\n\n        return (true);\n    }\n\n    //public getters\n    /**\n     *  Returns  (total vesting amount + token released from the contract when adding liquidity)\n     * @param datatokenAddress - datatokenAddress\n\n     */\n\n    function getDatatokenCirculatingSupply(address datatokenAddress)\n        external\n        view\n        returns (uint256)\n    {\n        if (!_datatokens[datatokenAddress].bound) return (0);\n        return (_datatokens[datatokenAddress].datatokenCap -\n            _datatokens[datatokenAddress].datatokenBalance);\n    }\n\n    /**\n     *  Returns actual dts in circulation (vested token withdrawn from the contract +\n         token released from the contract when adding liquidity)\n     * @param datatokenAddress - datatokenAddress\n\n     */\n\n    function getDatatokenCurrentCirculatingSupply(address datatokenAddress)\n        external\n        view\n        returns (uint256)\n    {\n        if (!_datatokens[datatokenAddress].bound) return (0);\n        return (_datatokens[datatokenAddress].datatokenCap -\n            _datatokens[datatokenAddress].datatokenBalance -\n            _datatokens[datatokenAddress].vestingAmountSoFar);\n    }\n\n    /**\n     *  Returns publisher address\n     * @param datatokenAddress - datatokenAddress\n\n     */\n\n    function getPublisherAddress(address datatokenAddress)\n        external\n        view\n        returns (address)\n    {\n        if (!_datatokens[datatokenAddress].bound) return (address(0));\n        return (_datatokens[datatokenAddress].publisherAddress);\n    }\n\n    /**\n     *  Returns baseToken address\n     * @param datatokenAddress - datatokenAddress\n\n     */\n\n    function getBaseTokenAddress(address datatokenAddress)\n        external\n        view\n        returns (address)\n    {\n        if (!_datatokens[datatokenAddress].bound) return (address(0));\n        return (_datatokens[datatokenAddress].baseTokenAddress);\n    }\n\n    /**\n     *  Returns pool address\n     * @param datatokenAddress - datatokenAddress\n\n     */\n\n    function getPoolAddress(address datatokenAddress)\n        external\n        view\n        returns (address)\n    {\n        if (!_datatokens[datatokenAddress].bound) return (address(0));\n        return (_datatokens[datatokenAddress].poolAddress);\n    }\n\n    /**\n     *  Returns baseToken balance in the contract\n     * @param datatokenAddress - datatokenAddress\n\n     */\n    function getBaseTokenBalance(address datatokenAddress)\n        external\n        view\n        returns (uint256)\n    {\n        if (!_datatokens[datatokenAddress].bound) return (0);\n        return (_datatokens[datatokenAddress].baseTokenBalance);\n    }\n\n    /**\n     *  Returns datatoken balance in the contract\n     * @param datatokenAddress - datatokenAddress\n\n     */\n\n    function getDatatokenBalance(address datatokenAddress)\n        external\n        view\n        returns (uint256)\n    {\n        if (!_datatokens[datatokenAddress].bound) return (0);\n        return (_datatokens[datatokenAddress].datatokenBalance);\n    }\n\n    /**\n     *  Returns last vesting block\n     * @param datatokenAddress - datatokenAddress\n\n     */\n\n    function getvestingEndBlock(address datatokenAddress)\n        external\n        view\n        returns (uint256)\n    {\n        if (!_datatokens[datatokenAddress].bound) return (0);\n        return (_datatokens[datatokenAddress].vestingEndBlock);\n    }\n\n    /**\n     *  Returns total vesting amount\n     * @param datatokenAddress - datatokenAddress\n\n     */\n\n    function getvestingAmount(address datatokenAddress)\n        public\n        view\n        returns (uint256)\n    {\n        if (!_datatokens[datatokenAddress].bound) return (0);\n        return (_datatokens[datatokenAddress].vestingAmount);\n    }\n\n    /**\n     *  Returns last block when some vesting tokens were collected\n     * @param datatokenAddress - datatokenAddress\n\n     */\n\n    function getvestingLastBlock(address datatokenAddress)\n        external\n        view\n        returns (uint256)\n    {\n        if (!_datatokens[datatokenAddress].bound) return (0);\n        return (_datatokens[datatokenAddress].vestingLastBlock);\n    }\n\n    /**\n     *  Returns amount of vested tokens that have been withdrawn from the contract so far\n     * @param datatokenAddress - datatokenAddress\n\n     */\n\n    function getvestingAmountSoFar(address datatokenAddress)\n        public\n        view\n        returns (uint256)\n    {\n        if (!_datatokens[datatokenAddress].bound) return (0);\n        return (_datatokens[datatokenAddress].vestingAmountSoFar);\n    }\n\n    //called by pool to confirm that we can stake a token (add pool liquidty). If true, pool will call Stake function\n    function canStake(address datatokenAddress, uint256 amount)\n        public\n        view\n        returns (bool)\n    {\n        require(\n            msg.sender == _datatokens[datatokenAddress].poolAddress,\n            \"ERR: Only pool can call this\"\n        );\n        if (!_datatokens[datatokenAddress].bound) return (false);\n\n        //check balances. Make sure that we have enough to vest\n        if (\n            _datatokens[datatokenAddress].datatokenBalance >=\n            (amount +\n                (_datatokens[datatokenAddress].vestingAmount -\n                    _datatokens[datatokenAddress].vestingAmountSoFar))\n        ) return (true);\n        return (false);\n    }\n\n    //called by pool so 1ss will stake a token (add pool liquidty).\n    // Function only needs to approve the amount to be spent by the pool, pool will do the rest\n    function Stake(address datatokenAddress, uint256 amount)\n        external\n        nonReentrant\n    {\n        if (!_datatokens[datatokenAddress].bound) return;\n        require(\n            msg.sender == _datatokens[datatokenAddress].poolAddress,\n            \"ERR: Only pool can call this\"\n        );\n        bool ok = canStake(datatokenAddress, amount);\n        if (!ok) return;\n        IERC20 dt = IERC20(datatokenAddress);\n        dt.safeIncreaseAllowance(\n            _datatokens[datatokenAddress].poolAddress,\n            amount\n        );\n        _datatokens[datatokenAddress].datatokenBalance -= amount;\n    }\n\n    //called by pool to confirm that we can stake a token (add pool liquidty). If true, pool will call Unstake function\n    function canUnStake(address datatokenAddress, uint256 lptIn)\n        public\n        view\n        returns (bool)\n    {\n        //TO DO\n        if (!_datatokens[datatokenAddress].bound) return (false);\n        require(\n            msg.sender == _datatokens[datatokenAddress].poolAddress,\n            \"ERR: Only pool can call this\"\n        );\n\n        // we check LPT balance TODO: review this part\n        if (IERC20(msg.sender).balanceOf(address(this)) >= lptIn) {\n            return true;\n        }\n        return false;\n    }\n\n    //called by pool so 1ss will unstake a token (remove pool liquidty).\n    // In our case the balancer pool will handle all, this is just a notifier so 1ss can handle internal kitchen\n    function UnStake(\n        address datatokenAddress,\n        uint256 dtAmountIn,\n        uint256 poolAmountOut\n    ) external nonReentrant {\n        if (!_datatokens[datatokenAddress].bound) return;\n        require(\n            msg.sender == _datatokens[datatokenAddress].poolAddress,\n            \"ERR: Only pool can call this\"\n        );\n        bool ok = canUnStake(datatokenAddress, poolAmountOut);\n        if (!ok) return;\n        _datatokens[datatokenAddress].datatokenBalance += dtAmountIn;\n    }\n\n    //called by the pool (or by us) when we should finalize the pool\n    function _notifyFinalize(address datatokenAddress, uint256 decimals)\n        internal\n    {\n        if (!_datatokens[datatokenAddress].bound) return;\n        if (_datatokens[datatokenAddress].poolFinalized) return;\n        _datatokens[datatokenAddress].poolFinalized = true;\n        uint256 baseTokenWeight = 5 * BASE; //pool weight: 50-50\n        uint256 datatokenWeight = 5 * BASE; //pool weight: 50-50\n        uint256 baseTokenAmount = _datatokens[datatokenAddress]\n            .baseTokenBalance;\n        //given the price, compute datatokenAmount\n\n        uint256 datatokenAmount = (10**(18 - decimals))*_datatokens[datatokenAddress].rate *\n            baseTokenAmount *\n            datatokenWeight /\n            baseTokenWeight /\n            BASE;\n\n        //substract\n        _datatokens[datatokenAddress].baseTokenBalance -= baseTokenAmount;\n        _datatokens[datatokenAddress].datatokenBalance -= datatokenAmount;\n        //approve the tokens and amounts\n        IERC20 dt = IERC20(datatokenAddress);\n        dt.safeIncreaseAllowance(\n            _datatokens[datatokenAddress].poolAddress,\n            datatokenAmount\n        );\n        IERC20 dtBase = IERC20(_datatokens[datatokenAddress].baseTokenAddress);\n        dtBase.safeIncreaseAllowance(\n            _datatokens[datatokenAddress].poolAddress,\n            baseTokenAmount\n        );\n        \n        \n        // call the pool, bind the tokens, set the price, finalize pool\n        IPool pool = IPool(_datatokens[datatokenAddress].poolAddress);\n        pool.setup(\n            datatokenAddress,\n            datatokenAmount,\n            datatokenWeight,\n            _datatokens[datatokenAddress].baseTokenAddress,\n            baseTokenAmount,\n            baseTokenWeight\n        );\n        // send 50% of the pool shares back to the publisher\n        IERC20 lPTokens = IERC20(_datatokens[datatokenAddress].poolAddress);\n        uint256 lpBalance = lPTokens.balanceOf(address(this));\n        //  uint256 balanceToTransfer = lpBalance.div(2);\n        lPTokens.safeTransfer(\n            _datatokens[datatokenAddress].publisherAddress,\n            lpBalance.div(2)\n        );\n    }\n\n    /**\n     *  Get available vesting now\n     * param datatokenAddress - datatokenAddress\n\n     */\n    function getAvailableVesting(address)\n        public\n        pure\n        returns (uint256)\n    {\n        // see https://github.com/oceanprotocol/contracts/issues/603\n        return 0;\n    }\n\n    /**\n     *  Send available vested tokens to the publisher address, can be called by anyone\n     * @param datatokenAddress - datatokenAddress\n\n     */\n    // called by vester to get datatokens\n    function getVesting(address datatokenAddress) external nonReentrant {\n        require(_datatokens[datatokenAddress].bound, \"ERR:Invalid datatoken\");\n        uint256 amount = getAvailableVesting(datatokenAddress);\n        if (\n            amount > 0 &&\n            _datatokens[datatokenAddress].datatokenBalance >= amount\n        ) {\n            IERC20Template dt = IERC20Template(datatokenAddress);\n            _datatokens[datatokenAddress].vestingLastBlock = block.number;\n            _datatokens[datatokenAddress].datatokenBalance -= amount;\n            _datatokens[datatokenAddress].vestingAmountSoFar += amount;\n            address collector = dt.getPaymentCollector();\n            emit Vesting(\n                datatokenAddress,\n                collector,\n                msg.sender,\n                amount\n            );\n            dt.transfer(\n                collector,\n                amount\n            );\n            \n        }\n    }\n\n    /**\n     *  Change pool fee\n     * @param datatokenAddress - datatokenAddress\n     * @param poolAddress - poolAddress\n     * @param swapFee - new fee\n\n     */\n    // called by ERC20 Deployer of datatoken\n    function setPoolSwapFee(\n        address datatokenAddress,\n        address poolAddress,\n        uint256 swapFee\n    ) external onlyOwner(datatokenAddress) nonReentrant {\n        require(_datatokens[datatokenAddress].bound, \"Invalid datatoken\");\n        require(poolAddress != address(0), \"Invalid poolAddress\");\n        IPool bpool = IPool(poolAddress);\n        require(\n            bpool.getController() == address(this),\n            \"We are not the pool controller\"\n        );\n        //check if the tokens are bound\n        require(\n            bpool.getDatatokenAddress() == datatokenAddress,\n            \"Datatoken address missmatch\"\n        );\n        bpool.setSwapFee(swapFee);\n    }\n}","sourcePath":"contracts/oceanv4/pools/ssContracts/SideStaking.sol","type":"contract","deployment":{"address":"0x98679D582AB3398C03D3308dEB9c7AeC50B52ded","chainid":"5","blockHeight":8974884}}