{"abi":[{"inputs":[{"internalType":"address","name":"_template721","type":"address"},{"internalType":"address","name":"_template","type":"address"},{"internalType":"address","name":"_router","type":"address"}],"stateMutability":"nonpayable","type":"constructor","name":"constructor"},{"anonymous":false,"inputs":[{"indexed":true,"internalType":"address","name":"datatokenAddress","type":"address"},{"indexed":true,"internalType":"address","name":"owner","type":"address"},{"indexed":false,"internalType":"uint256","name":"maxTokens","type":"uint256"},{"indexed":false,"internalType":"uint256","name":"maxBalance","type":"uint256"},{"indexed":false,"internalType":"address","name":"allowedSwapper","type":"address"}],"name":"DispenserCreated","type":"event"},{"anonymous":false,"inputs":[{"indexed":false,"internalType":"address","name":"instance","type":"address"}],"name":"InstanceDeployed","type":"event"},{"anonymous":false,"inputs":[{"indexed":false,"internalType":"address","name":"newTokenAddress","type":"address"},{"indexed":true,"internalType":"address","name":"templateAddress","type":"address"},{"indexed":false,"internalType":"string","name":"tokenName","type":"string"},{"indexed":true,"internalType":"address","name":"admin","type":"address"},{"indexed":false,"internalType":"string","name":"symbol","type":"string"},{"indexed":false,"internalType":"string","name":"tokenURI","type":"string"},{"indexed":false,"internalType":"bool","name":"transferable","type":"bool"},{"indexed":true,"internalType":"address","name":"creator","type":"address"}],"name":"NFTCreated","type":"event"},{"anonymous":false,"inputs":[{"indexed":false,"internalType":"address","name":"dispenserContract","type":"address"}],"name":"NewDispenser","type":"event"},{"anonymous":false,"inputs":[{"indexed":false,"internalType":"bytes32","name":"exchangeId","type":"bytes32"},{"indexed":true,"internalType":"address","name":"owner","type":"address"},{"indexed":false,"internalType":"address","name":"exchangeContract","type":"address"},{"indexed":true,"internalType":"address","name":"baseToken","type":"address"}],"name":"NewFixedRate","type":"event"},{"anonymous":false,"inputs":[{"indexed":false,"internalType":"address","name":"poolAddress","type":"address"},{"indexed":false,"internalType":"address","name":"ssContract","type":"address"},{"indexed":false,"internalType":"address","name":"baseTokenAddress","type":"address"}],"name":"NewPool","type":"event"},{"anonymous":false,"inputs":[{"indexed":true,"internalType":"address","name":"previousOwner","type":"address"},{"indexed":true,"internalType":"address","name":"newOwner","type":"address"}],"name":"OwnershipTransferred","type":"event"},{"anonymous":false,"inputs":[{"indexed":true,"internalType":"address","name":"_templateAddress","type":"address"},{"indexed":true,"internalType":"uint256","name":"nftTemplateCount","type":"uint256"}],"name":"Template20Added","type":"event"},{"anonymous":false,"inputs":[{"indexed":true,"internalType":"address","name":"_templateAddress","type":"address"},{"indexed":true,"internalType":"uint256","name":"nftTemplateCount","type":"uint256"}],"name":"Template721Added","type":"event"},{"anonymous":false,"inputs":[{"indexed":true,"internalType":"address","name":"newTokenAddress","type":"address"},{"indexed":true,"internalType":"address","name":"templateAddress","type":"address"},{"indexed":false,"internalType":"string","name":"name","type":"string"},{"indexed":false,"internalType":"string","name":"symbol","type":"string"},{"indexed":false,"internalType":"uint256","name":"cap","type":"uint256"},{"indexed":false,"internalType":"address","name":"creator","type":"address"}],"name":"TokenCreated","type":"event"},{"anonymous":false,"inputs":[{"indexed":true,"internalType":"address","name":"from","type":"address"},{"indexed":true,"internalType":"address","name":"to","type":"address"},{"indexed":true,"internalType":"uint256","name":"tokenId","type":"uint256"}],"name":"Transfer","type":"event"},{"inputs":[{"internalType":"address","name":"_templateAddress","type":"address"}],"name":"add721TokenTemplate","outputs":[{"internalType":"uint256","name":"","type":"uint256"}],"stateMutability":"nonpayable","type":"function"},{"inputs":[{"internalType":"address","name":"_templateAddress","type":"address"}],"name":"addTokenTemplate","outputs":[{"internalType":"uint256","name":"","type":"uint256"}],"stateMutability":"nonpayable","type":"function"},{"inputs":[{"components":[{"internalType":"string","name":"name","type":"string"},{"internalType":"string","name":"symbol","type":"string"},{"internalType":"uint256","name":"templateIndex","type":"uint256"},{"internalType":"string","name":"tokenURI","type":"string"},{"internalType":"bool","name":"transferable","type":"bool"},{"internalType":"address","name":"owner","type":"address"}],"internalType":"struct IFactory.NftCreateData","name":"_NftCreateData","type":"tuple"},{"components":[{"internalType":"uint256","name":"templateIndex","type":"uint256"},{"internalType":"string[]","name":"strings","type":"string[]"},{"internalType":"address[]","name":"addresses","type":"address[]"},{"internalType":"uint256[]","name":"uints","type":"uint256[]"},{"internalType":"bytes[]","name":"bytess","type":"bytes[]"}],"internalType":"struct IFactory.ErcCreateData","name":"_ErcCreateData","type":"tuple"}],"name":"createNftWithErc20","outputs":[{"internalType":"address","name":"erc721Address","type":"address"},{"internalType":"address","name":"erc20Address","type":"address"}],"stateMutability":"nonpayable","type":"function"},{"inputs":[{"components":[{"internalType":"string","name":"name","type":"string"},{"internalType":"string","name":"symbol","type":"string"},{"internalType":"uint256","name":"templateIndex","type":"uint256"},{"internalType":"string","name":"tokenURI","type":"string"},{"internalType":"bool","name":"transferable","type":"bool"},{"internalType":"address","name":"owner","type":"address"}],"internalType":"struct IFactory.NftCreateData","name":"_NftCreateData","type":"tuple"},{"components":[{"internalType":"uint256","name":"templateIndex","type":"uint256"},{"internalType":"string[]","name":"strings","type":"string[]"},{"internalType":"address[]","name":"addresses","type":"address[]"},{"internalType":"uint256[]","name":"uints","type":"uint256[]"},{"internalType":"bytes[]","name":"bytess","type":"bytes[]"}],"internalType":"struct IFactory.ErcCreateData","name":"_ErcCreateData","type":"tuple"},{"components":[{"internalType":"address","name":"dispenserAddress","type":"address"},{"internalType":"uint256","name":"maxTokens","type":"uint256"},{"internalType":"uint256","name":"maxBalance","type":"uint256"},{"internalType":"bool","name":"withMint","type":"bool"},{"internalType":"address","name":"allowedSwapper","type":"address"}],"internalType":"struct IFactory.DispenserData","name":"_DispenserData","type":"tuple"}],"name":"createNftWithErc20WithDispenser","outputs":[{"internalType":"address","name":"erc721Address","type":"address"},{"internalType":"address","name":"erc20Address","type":"address"}],"stateMutability":"nonpayable","type":"function"},{"inputs":[{"components":[{"internalType":"string","name":"name","type":"string"},{"internalType":"string","name":"symbol","type":"string"},{"internalType":"uint256","name":"templateIndex","type":"uint256"},{"internalType":"string","name":"tokenURI","type":"string"},{"internalType":"bool","name":"transferable","type":"bool"},{"internalType":"address","name":"owner","type":"address"}],"internalType":"struct IFactory.NftCreateData","name":"_NftCreateData","type":"tuple"},{"components":[{"internalType":"uint256","name":"templateIndex","type":"uint256"},{"internalType":"string[]","name":"strings","type":"string[]"},{"internalType":"address[]","name":"addresses","type":"address[]"},{"internalType":"uint256[]","name":"uints","type":"uint256[]"},{"internalType":"bytes[]","name":"bytess","type":"bytes[]"}],"internalType":"struct IFactory.ErcCreateData","name":"_ErcCreateData","type":"tuple"},{"components":[{"internalType":"address","name":"fixedPriceAddress","type":"address"},{"internalType":"address[]","name":"addresses","type":"address[]"},{"internalType":"uint256[]","name":"uints","type":"uint256[]"}],"internalType":"struct IFactory.FixedData","name":"_FixedData","type":"tuple"}],"name":"createNftWithErc20WithFixedRate","outputs":[{"internalType":"address","name":"erc721Address","type":"address"},{"internalType":"address","name":"erc20Address","type":"address"},{"internalType":"bytes32","name":"exchangeId","type":"bytes32"}],"stateMutability":"nonpayable","type":"function"},{"inputs":[{"components":[{"internalType":"string","name":"name","type":"string"},{"internalType":"string","name":"symbol","type":"string"},{"internalType":"uint256","name":"templateIndex","type":"uint256"},{"internalType":"string","name":"tokenURI","type":"string"},{"internalType":"bool","name":"transferable","type":"bool"},{"internalType":"address","name":"owner","type":"address"}],"internalType":"struct IFactory.NftCreateData","name":"_NftCreateData","type":"tuple"},{"components":[{"internalType":"uint256","name":"templateIndex","type":"uint256"},{"internalType":"string[]","name":"strings","type":"string[]"},{"internalType":"address[]","name":"addresses","type":"address[]"},{"internalType":"uint256[]","name":"uints","type":"uint256[]"},{"internalType":"bytes[]","name":"bytess","type":"bytes[]"}],"internalType":"struct IFactory.ErcCreateData","name":"_ErcCreateData","type":"tuple"},{"components":[{"internalType":"uint256[]","name":"ssParams","type":"uint256[]"},{"internalType":"uint256[]","name":"swapFees","type":"uint256[]"},{"internalType":"address[]","name":"addresses","type":"address[]"}],"internalType":"struct IFactory.PoolData","name":"_PoolData","type":"tuple"}],"name":"createNftWithErc20WithPool","outputs":[{"internalType":"address","name":"erc721Address","type":"address"},{"internalType":"address","name":"erc20Address","type":"address"},{"internalType":"address","name":"poolAddress","type":"address"}],"stateMutability":"nonpayable","type":"function"},{"inputs":[{"components":[{"internalType":"string","name":"name","type":"string"},{"internalType":"string","name":"symbol","type":"string"},{"internalType":"uint256","name":"templateIndex","type":"uint256"},{"internalType":"string","name":"tokenURI","type":"string"},{"internalType":"bool","name":"transferable","type":"bool"},{"internalType":"address","name":"owner","type":"address"}],"internalType":"struct IFactory.NftCreateData","name":"_NftCreateData","type":"tuple"},{"components":[{"internalType":"uint8","name":"_metaDataState","type":"uint8"},{"internalType":"string","name":"_metaDataDecryptorUrl","type":"string"},{"internalType":"string","name":"_metaDataDecryptorAddress","type":"string"},{"internalType":"bytes","name":"flags","type":"bytes"},{"internalType":"bytes","name":"data","type":"bytes"},{"internalType":"bytes32","name":"_metaDataHash","type":"bytes32"},{"components":[{"internalType":"address","name":"validatorAddress","type":"address"},{"internalType":"uint8","name":"v","type":"uint8"},{"internalType":"bytes32","name":"r","type":"bytes32"},{"internalType":"bytes32","name":"s","type":"bytes32"}],"internalType":"struct IERC721Template.metaDataProof[]","name":"_metadataProofs","type":"tuple[]"}],"internalType":"struct ERC721Factory.MetaData","name":"_MetaData","type":"tuple"}],"name":"createNftWithMetaData","outputs":[{"internalType":"address","name":"erc721Address","type":"address"}],"stateMutability":"nonpayable","type":"function"},{"inputs":[{"internalType":"uint256","name":"_templateIndex","type":"uint256"},{"internalType":"string[]","name":"strings","type":"string[]"},{"internalType":"address[]","name":"addresses","type":"address[]"},{"internalType":"uint256[]","name":"uints","type":"uint256[]"},{"internalType":"bytes[]","name":"bytess","type":"bytes[]"}],"name":"createToken","outputs":[{"internalType":"address","name":"token","type":"address"}],"stateMutability":"nonpayable","type":"function"},{"inputs":[{"internalType":"string","name":"name","type":"string"},{"internalType":"string","name":"symbol","type":"string"},{"internalType":"uint256","name":"_templateIndex","type":"uint256"},{"internalType":"address","name":"additionalERC20Deployer","type":"address"},{"internalType":"address","name":"additionalMetaDataUpdater","type":"address"},{"internalType":"string","name":"tokenURI","type":"string"},{"internalType":"bool","name":"transferable","type":"bool"},{"internalType":"address","name":"owner","type":"address"}],"name":"deployERC721Contract","outputs":[{"internalType":"address","name":"token","type":"address"}],"stateMutability":"nonpayable","type":"function"},{"inputs":[{"internalType":"uint256","name":"_index","type":"uint256"}],"name":"disable721TokenTemplate","outputs":[],"stateMutability":"nonpayable","type":"function"},{"inputs":[{"internalType":"uint256","name":"_index","type":"uint256"}],"name":"disableTokenTemplate","outputs":[],"stateMutability":"nonpayable","type":"function"},{"inputs":[{"internalType":"address","name":"","type":"address"}],"name":"erc20List","outputs":[{"internalType":"bool","name":"","type":"bool"}],"stateMutability":"view","type":"function"},{"inputs":[{"internalType":"address","name":"","type":"address"}],"name":"erc721List","outputs":[{"internalType":"address","name":"","type":"address"}],"stateMutability":"view","type":"function"},{"inputs":[],"name":"getCurrentNFTCount","outputs":[{"internalType":"uint256","name":"","type":"uint256"}],"stateMutability":"view","type":"function"},{"inputs":[],"name":"getCurrentNFTTemplateCount","outputs":[{"internalType":"uint256","name":"","type":"uint256"}],"stateMutability":"view","type":"function"},{"inputs":[],"name":"getCurrentTemplateCount","outputs":[{"internalType":"uint256","name":"","type":"uint256"}],"stateMutability":"view","type":"function"},{"inputs":[],"name":"getCurrentTokenCount","outputs":[{"internalType":"uint256","name":"","type":"uint256"}],"stateMutability":"view","type":"function"},{"inputs":[{"internalType":"uint256","name":"_index","type":"uint256"}],"name":"getNFTTemplate","outputs":[{"components":[{"internalType":"address","name":"templateAddress","type":"address"},{"internalType":"bool","name":"isActive","type":"bool"}],"internalType":"struct ERC721Factory.Template","name":"","type":"tuple"}],"stateMutability":"view","type":"function"},{"inputs":[{"internalType":"uint256","name":"_index","type":"uint256"}],"name":"getTokenTemplate","outputs":[{"components":[{"internalType":"address","name":"templateAddress","type":"address"},{"internalType":"bool","name":"isActive","type":"bool"}],"internalType":"struct ERC721Factory.Template","name":"","type":"tuple"}],"stateMutability":"view","type":"function"},{"inputs":[{"internalType":"uint256","name":"","type":"uint256"}],"name":"nftTemplateList","outputs":[{"internalType":"address","name":"templateAddress","type":"address"},{"internalType":"bool","name":"isActive","type":"bool"}],"stateMutability":"view","type":"function"},{"inputs":[],"name":"owner","outputs":[{"internalType":"address","name":"","type":"address"}],"stateMutability":"view","type":"function"},{"inputs":[{"internalType":"uint256","name":"_index","type":"uint256"}],"name":"reactivate721TokenTemplate","outputs":[],"stateMutability":"nonpayable","type":"function"},{"inputs":[{"internalType":"uint256","name":"_index","type":"uint256"}],"name":"reactivateTokenTemplate","outputs":[],"stateMutability":"nonpayable","type":"function"},{"inputs":[],"name":"renounceOwnership","outputs":[],"stateMutability":"nonpayable","type":"function"},{"inputs":[{"components":[{"internalType":"address","name":"tokenAddress","type":"address"},{"internalType":"bytes32","name":"orderTxId","type":"bytes32"},{"components":[{"internalType":"address","name":"providerFeeAddress","type":"address"},{"internalType":"address","name":"providerFeeToken","type":"address"},{"internalType":"uint256","name":"providerFeeAmount","type":"uint256"},{"internalType":"uint8","name":"v","type":"uint8"},{"internalType":"bytes32","name":"r","type":"bytes32"},{"internalType":"bytes32","name":"s","type":"bytes32"},{"internalType":"uint256","name":"validUntil","type":"uint256"},{"internalType":"bytes","name":"providerData","type":"bytes"}],"internalType":"struct IERC20Template.providerFee","name":"_providerFee","type":"tuple"}],"internalType":"struct ERC721Factory.reuseTokenOrder[]","name":"orders","type":"tuple[]"}],"name":"reuseMultipleTokenOrder","outputs":[],"stateMutability":"nonpayable","type":"function"},{"inputs":[],"name":"router","outputs":[{"internalType":"address","name":"","type":"address"}],"stateMutability":"view","type":"function"},{"inputs":[{"components":[{"internalType":"address","name":"tokenAddress","type":"address"},{"internalType":"address","name":"consumer","type":"address"},{"internalType":"uint256","name":"serviceIndex","type":"uint256"},{"components":[{"internalType":"address","name":"providerFeeAddress","type":"address"},{"internalType":"address","name":"providerFeeToken","type":"address"},{"internalType":"uint256","name":"providerFeeAmount","type":"uint256"},{"internalType":"uint8","name":"v","type":"uint8"},{"internalType":"bytes32","name":"r","type":"bytes32"},{"internalType":"bytes32","name":"s","type":"bytes32"},{"internalType":"uint256","name":"validUntil","type":"uint256"},{"internalType":"bytes","name":"providerData","type":"bytes"}],"internalType":"struct IERC20Template.providerFee","name":"_providerFee","type":"tuple"},{"components":[{"internalType":"address","name":"consumeMarketFeeAddress","type":"address"},{"internalType":"address","name":"consumeMarketFeeToken","type":"address"},{"internalType":"uint256","name":"consumeMarketFeeAmount","type":"uint256"}],"internalType":"struct IERC20Template.consumeMarketFee","name":"_consumeMarketFee","type":"tuple"}],"internalType":"struct ERC721Factory.tokenOrder[]","name":"orders","type":"tuple[]"}],"name":"startMultipleTokenOrder","outputs":[],"stateMutability":"nonpayable","type":"function"},{"inputs":[],"name":"templateCount","outputs":[{"internalType":"uint256","name":"","type":"uint256"}],"stateMutability":"view","type":"function"},{"inputs":[{"internalType":"uint256","name":"","type":"uint256"}],"name":"templateList","outputs":[{"internalType":"address","name":"templateAddress","type":"address"},{"internalType":"bool","name":"isActive","type":"bool"}],"stateMutability":"view","type":"function"},{"inputs":[{"internalType":"address","name":"newOwner","type":"address"}],"name":"transferOwnership","outputs":[],"stateMutability":"nonpayable","type":"function"}],"bytecode":"608060405260006009553480156200001657600080fd5b506040516200496038038062004960833981016040819052620000399162000517565b62000044336200012a565b600180556001600160a01b038216158015906200006957506001600160a01b03811615155b80156200007e57506001600160a01b03831615155b620000e95760405162461bcd60e51b815260206004820152603060248201527f4552433732314454466163746f72793a20496e76616c69642074656d706c617460448201526f652f726f75746572206164647265737360801b60648201526084015b60405180910390fd5b620000f4836200017a565b5062000100826200033d565b50600b80546001600160a01b0319166001600160a01b039290921691909117905550620005889050565b600080546001600160a01b038381166001600160a01b0319831681178455604051919092169283917f8be0079c531659141344cd1fd0a4f28419497f9722a3daafe3b4186f6b6457e09190a35050565b600080546001600160a01b03163314620001c65760405162461bcd60e51b81526020600482018190526024820152600080516020620049408339815191526044820152606401620000e0565b6001600160a01b038216620002445760405162461bcd60e51b815260206004820152603760248201527f4552433732314454466163746f72793a204552433732312074656d706c61746560448201527f2061646472657373283029204e4f5420414c4c4f5745440000000000000000006064820152608401620000e0565b813b620002945760405162461bcd60e51b815260206004820152601b60248201527f455243373231466163746f72793a204e4f5420434f4e545241435400000000006044820152606401620000e0565b600160046000828254620002a9919062000561565b90915550506040805180820182526001600160a01b038085168083526001602080850191825260048054600090815260059092528682208651815494511515600160a01b026001600160a81b03199095169616959095179290921790935554935192939290917fc0167b92c8eb4a2bad2c05e0134f076fba5d3cd54671a3e8edf13d2e61443bd991a350506004545b919050565b600080546001600160a01b03163314620003895760405162461bcd60e51b81526020600482018190526024820152600080516020620049408339815191526044820152606401620000e0565b6001600160a01b038216620004075760405162461bcd60e51b815260206004820152603460248201527f4552433230466163746f72793a204552433732312074656d706c61746520616460448201527f6472657373283029204e4f5420414c4c4f5745440000000000000000000000006064820152608401620000e0565b813b620004575760405162461bcd60e51b815260206004820152601a60248201527f4552433230466163746f72793a204e4f5420434f4e54524143540000000000006044820152606401620000e0565b6001600a60008282546200046c919062000561565b90915550506040805180820182526001600160a01b0380851680835260016020808501918252600a8054600090815260069092528682208651815494511515600160a01b026001600160a81b03199095169616959095179290921790935554935192939290917fdcd16da87b60cea6dbd55a83f73b8a4bf9a54655db58ae0f35b82a2373fc150d91a35050600a54919050565b80516001600160a01b03811681146200033857600080fd5b6000806000606084860312156200052d57600080fd5b6200053884620004ff565b92506200054860208501620004ff565b91506200055860408501620004ff565b90509250925092565b600082198211156200058357634e487b7160e01b600052601160045260246000fd5b500190565b6143a880620005986000396000f3fe608060405234801561001057600080fd5b50600436106101da5760003560e01c806382c4420411610104578063aa897ddc116100a2578063e5fc01f011610071578063e5fc01f01461053b578063f2fde38b14610543578063f86b2bcf14610556578063f887ea401461056957600080fd5b8063aa897ddc146104b4578063bbf8d71f146104e7578063c6cf868a146104fa578063d282aa861461050257600080fd5b806394051699116100de578063940516991461045157806394be0e881461048657806395c6030514610499578063a33ef2a6146104a157600080fd5b806382c44204146103d95780638da5cb5b1461042d5780638f6051af1461043e57600080fd5b80633315efd11161017c578063715018a61161014b578063715018a61461038257806372f670f01461038a5780637b20bccf146103b3578063809d8105146103c657600080fd5b80633315efd1146102cd57806350447fd51461032a578063557fcfb0146103675780635c7059821461037a57600080fd5b80632515422e116101b85780632515422e1461026557806326705c3c1461027857806326f200661461028f5780633147c798146102ba57600080fd5b8063042ab9b3146101df5780630ffda8871461021d578063226e761514610232575b600080fd5b6101f26101ed366004612f0b565b61057c565b6040805182516001600160a01b03168152602092830151151592810192909252015b60405180910390f35b61023061022b366004612f0b565b610603565b005b610255610240366004612f44565b60086020526000908152604090205460ff1681565b6040519015158152602001610214565b61023061027336600461315a565b610648565b610281600a5481565b604051908152602001610214565b6102a261029d366004613278565b610915565b6040516001600160a01b039091168152602001610214565b6102a26102c83660046132fb565b610b4d565b6101f26102db366004612f0b565b6040805180820190915260008082526020820152506000908152600560209081526040918290208251808401909352546001600160a01b0381168352600160a01b900460ff1615159082015290565b61033d6103383660046133f3565b610ec6565b604080516001600160a01b0394851681529284166020840152921691810191909152606001610214565b6102a26103753660046135c3565b61126d565b600254610281565b61023061130e565b6102a2610398366004612f44565b6007602052600090815260409020546001600160a01b031681565b6102816103c1366004612f44565b611344565b6102306103d4366004612f0b565b6114d7565b61040e6103e7366004612f0b565b6005602052600090815260409020546001600160a01b03811690600160a01b900460ff1682565b604080516001600160a01b039093168352901515602083015201610214565b6000546001600160a01b03166102a2565b61028161044c366004612f44565b611549565b61040e61045f366004612f0b565b6006602052600090815260409020546001600160a01b03811690600160a01b900460ff1682565b6102306104943660046136eb565b6116e4565b600a54610281565b6102306104af366004612f0b565b611c89565b6104c76104c236600461383d565b611d01565b604080516001600160a01b03938416815292909116602083015201610214565b6102306104f5366004612f0b565b611fee565b600954610281565b6105156105103660046133f3565b6120aa565b604080516001600160a01b03948516815293909216602084015290820152606001610214565b600454610281565b610230610551366004612f44565b61222d565b6104c76105643660046138b1565b6122c8565b600b546102a2906001600160a01b031681565b60408051808201909152600080825260208201526000828152600660209081526040918290208251808401909352546001600160a01b0381168352600160a01b900460ff16151590820152600a5483118015906105d857508215155b6105fd5760405162461bcd60e51b81526004016105f490613914565b60405180910390fd5b92915050565b6000546001600160a01b0316331461062d5760405162461bcd60e51b81526004016105f49061395d565b6000908152600660205260409020805460ff60a01b19169055565b6002600154141561066b5760405162461bcd60e51b81526004016105f490613992565b60026001558051603210156106c25760405162461bcd60e51b815260206004820152601e60248201527f455243373231466163746f72793a20546f6f204d616e79204f7264657273000060448201526064016105f4565b60005b815181101561090d5760008282815181106106e2576106e26139c9565b60200260200101516040015160400151118015610733575060006001600160a01b0316828281518110610717576107176139c9565b602002602001015160400151602001516001600160a01b031614155b8015610773575060006001600160a01b0316828281518110610757576107576139c9565b602002602001015160400151600001516001600160a01b031614155b15610843576107c682828151811061078d5761078d6139c9565b6020026020010151604001516020015133308585815181106107b1576107b16139c9565b602002602001015160400151604001516124f7565b6108438282815181106107db576107db6139c9565b6020026020010151600001518383815181106107f9576107f96139c9565b6020026020010151604001516040015184848151811061081b5761081b6139c9565b602002602001015160400151602001516001600160a01b03166126459092919063ffffffff16565b818181518110610855576108556139c9565b6020026020010151600001516001600160a01b031663361fef49838381518110610881576108816139c9565b60200260200101516020015184848151811061089f5761089f6139c9565b6020026020010151604001516040518363ffffffff1660e01b81526004016108c8929190613aab565b600060405180830381600087803b1580156108e257600080fd5b505af11580156108f6573d6000803e3d6000fd5b50505050808061090590613ada565b9150506106c5565b505060018055565b60006002600154141561093a5760405162461bcd60e51b81526004016105f490613992565b6002600155610a2c61094c8480613af5565b8080601f01602080910402602001604051908101604052809392919081815260200183838082843760009201919091525061098e925050506020860186613af5565b8080601f016020809104026020016040519081016040528093929190818152602001838380828437600092018290525060408a0135935091503090506109d760608a018a613af5565b8080601f016020809104026020016040519081016040528093929190818152602001838380828437600092019190915250610a1c9250505060a08b0160808c01613b42565b6102c860c08c0160a08d01612f44565b90506001600160a01b038116631aa3adf9610a4a6020850185613b5f565b610a576020860186613af5565b610a646040880188613af5565b610a7160608a018a613af5565b610a7e60808c018c613af5565b60a08d0135610a9060c08f018f613b7a565b6040518d63ffffffff1660e01b8152600401610ab79c9b9a99989796959493929190613bec565b600060405180830381600087803b158015610ad157600080fd5b505af1158015610ae5573d6000803e3d6000fd5b50506040516310c414eb60e21b81523060048201526001600160a01b038416925063431053ac9150602401600060405180830381600087803b158015610b2a57600080fd5b505af1158015610b3e573d6000803e3d6000fd5b50506001805550909392505050565b60006004548711158015610b6057508615155b610b7c5760405162461bcd60e51b81526004016105f490613cd0565b6000878152600560209081526040918290208251808401909352546001600160a01b0381168352600160a01b900460ff161515908201819052610c185760405162461bcd60e51b815260206004820152602e60248201527f4552433732314454466163746f72793a20455243373231546f6b656e2054656d60448201526d1c1b185d1948191a5cd8589b195960921b60648201526084016105f4565b6001600160a01b038316610c825760405162461bcd60e51b815260206004820152602b60248201527f4552433732314454466163746f72793a20616464726573732830292063616e6e60448201526a37ba1031329037bbb732b960a91b60648201526084016105f4565b8051610c8d90612730565b91506001600160a01b038216610d0d576040805162461bcd60e51b81526020600482015260248101919091527f4552433732314454466163746f72793a204661696c656420746f20706572666f60448201527f726d206d696e696d616c206465706c6f79206f662061206e657720746f6b656e60648201526084016105f4565b8160076000846001600160a01b03166001600160a01b0316815260200190815260200160002060006101000a8154816001600160a01b0302191690836001600160a01b03160217905550336001600160a01b0316836001600160a01b031682600001516001600160a01b03167f8125264ec1d174cb383ea0646ea1e6921ca3b0aba20370c8e18389e7c2d6a571858e8e8b8b604051610db0959493929190613d1c565b60405180910390a4600160026000828254610dcb9190613d7b565b9091555050604051630343aa3d60e31b815282906001600160a01b03821690631a1d51e890610e0c9087908f908f9030908f908f908f908f90600401613d93565b6020604051808303816000875af1158015610e2b573d6000803e3d6000fd5b505050506040513d601f19601f82011682018060405250810190610e4f9190613e11565b610eb85760405162461bcd60e51b815260206004820152603460248201527f4552433732314454466163746f72793a20556e61626c6520746f20696e697469604482015273616c697a6520746f6b656e20696e7374616e636560601b60648201526084016105f4565b505098975050505050505050565b600080600060026001541415610eee5760405162461bcd60e51b81526004016105f490613992565b6002600155610f52610f036040860186613e2e565b6001818110610f1457610f146139c9565b9050602002016020810190610f299190612f44565b3330610f358880613e2e565b6004818110610f4657610f466139c9565b905060200201356124f7565b611042610f5f8780613af5565b8080601f016020809104026020016040519081016040528093929190818152602001838380828437600092019190915250610fa1925050506020890189613af5565b8080601f016020809104026020016040519081016040528093929190818152602001838380828437600092018290525060408d013593503092509050610fea60608d018d613af5565b8080601f01602080910402602001604051908101604052809392919081815260200183838082843760009201919091525061102f9250505060a08e0160808f01613b42565b8d60a00160208101906102c89190612f44565b92506001600160a01b03831663e38d7cad86356110626020890189613e2e565b61106f60408b018b613e2e565b61107c60608d018d613e2e565b61108960808f018f613e2e565b6040518a63ffffffff1660e01b81526004016110ad99989796959493929190613f98565b6020604051808303816000875af11580156110cc573d6000803e3d6000fd5b505050506040513d601f19601f820116820180604052508101906110f09190614049565b600b5490925061116b906001600160a01b031661110d8680613e2e565b600481811061111e5761111e6139c9565b905060200201358680604001906111359190613e2e565b6001818110611146576111466139c9565b905060200201602081019061115b9190612f44565b6001600160a01b03169190612645565b6001600160a01b038216635bfe4da06111848680613e2e565b6111916020890189613e2e565b61119e60408b018b613e2e565b6040518763ffffffff1660e01b81526004016111bf96959493929190614066565b6020604051808303816000875af11580156111de573d6000803e3d6000fd5b505050506040513d601f19601f820116820180604052508101906112029190614049565b6040516301fc3d9160e71b81523060048201529091506001600160a01b0384169063fe1ec88090602401600060405180830381600087803b15801561124657600080fd5b505af115801561125a573d6000803e3d6000fd5b5050600180555092969195509350915050565b3360008181526007602052604081205490916001600160a01b03909116146112f65760405162461bcd60e51b815260206004820152603660248201527f455243373231466163746f72793a204f4e4c592045524337323120494e5354416044820152754e43452046524f4d20455243373231464143544f525960501b60648201526084016105f4565b6113048686868686336127c0565b9695505050505050565b6000546001600160a01b031633146113385760405162461bcd60e51b81526004016105f49061395d565b6113426000612aa5565b565b600080546001600160a01b0316331461136f5760405162461bcd60e51b81526004016105f49061395d565b6001600160a01b0382166113e25760405162461bcd60e51b815260206004820152603460248201527f4552433230466163746f72793a204552433732312074656d706c617465206164604482015273191c995cdcca0c0a481393d50810531313d5d15160621b60648201526084016105f4565b813b6114305760405162461bcd60e51b815260206004820152601a60248201527f4552433230466163746f72793a204e4f5420434f4e545241435400000000000060448201526064016105f4565b6001600a60008282546114439190613d7b565b90915550506040805180820182526001600160a01b0380851680835260016020808501918252600a8054600090815260069092528682208651815494511515600160a01b026001600160a81b03199095169616959095179290921790935554935192939290917fdcd16da87b60cea6dbd55a83f73b8a4bf9a54655db58ae0f35b82a2373fc150d91a35050600a545b919050565b6000546001600160a01b031633146115015760405162461bcd60e51b81526004016105f49061395d565b600454811115801561151257508015155b61152e5760405162461bcd60e51b81526004016105f490613cd0565b6000908152600560205260409020805460ff60a01b19169055565b600080546001600160a01b031633146115745760405162461bcd60e51b81526004016105f49061395d565b6001600160a01b0382166115f05760405162461bcd60e51b815260206004820152603760248201527f4552433732314454466163746f72793a204552433732312074656d706c61746560448201527f2061646472657373283029204e4f5420414c4c4f57454400000000000000000060648201526084016105f4565b813b61163e5760405162461bcd60e51b815260206004820152601b60248201527f455243373231466163746f72793a204e4f5420434f4e5452414354000000000060448201526064016105f4565b6001600460008282546116519190613d7b565b90915550506040805180820182526001600160a01b038085168083526001602080850191825260048054600090815260059092528682208651815494511515600160a01b026001600160a81b03199095169616959095179290921790935554935192939290917fc0167b92c8eb4a2bad2c05e0134f076fba5d3cd54671a3e8edf13d2e61443bd991a35050600454919050565b600260015414156117075760405162461bcd60e51b81526004016105f490613992565b600260015580516032101561175e5760405162461bcd60e51b815260206004820152601e60248201527f455243373231466163746f72793a20546f6f204d616e79204f7264657273000060448201526064016105f4565b60005b815181101561090d576000806000848481518110611781576117816139c9565b6020026020010151600001516001600160a01b031663397b37436040518163ffffffff1660e01b8152600401606060405180830381865afa1580156117ca573d6000803e3d6000fd5b505050506040513d601f19601f820116820180604052508101906117ee91906140af565b92509250925060008111801561180c57506001600160a01b03821615155b801561182057506001600160a01b03831615155b1561186357611831823330846124f7565b611863858581518110611846576118466139c9565b6020908102919091010151516001600160a01b0384169083612645565b6000858581518110611877576118776139c9565b602002602001015160800151604001511180156118c8575060006001600160a01b03168585815181106118ac576118ac6139c9565b602002602001015160800151600001516001600160a01b031614155b8015611908575060006001600160a01b03168585815181106118ec576118ec6139c9565b602002602001015160800151602001516001600160a01b031614155b156119d85761195b858581518110611922576119226139c9565b602002602001015160800151602001513330888881518110611946576119466139c9565b602002602001015160800151604001516124f7565b6119d8858581518110611970576119706139c9565b60200260200101516000015186868151811061198e5761198e6139c9565b602002602001015160800151604001518787815181106119b0576119b06139c9565b602002602001015160800151602001516001600160a01b03166126459092919063ffffffff16565b60008585815181106119ec576119ec6139c9565b60200260200101516060015160400151118015611a3d575060006001600160a01b0316858581518110611a2157611a216139c9565b602002602001015160600151602001516001600160a01b031614155b8015611a7d575060006001600160a01b0316858581518110611a6157611a616139c9565b602002602001015160600151600001516001600160a01b031614155b15611b4d57611ad0858581518110611a9757611a976139c9565b602002602001015160600151602001513330888881518110611abb57611abb6139c9565b602002602001015160600151604001516124f7565b611b4d858581518110611ae557611ae56139c9565b602002602001015160000151868681518110611b0357611b036139c9565b60200260200101516060015160400151878781518110611b2557611b256139c9565b602002602001015160600151602001516001600160a01b03166126459092919063ffffffff16565b611b7e858581518110611b6257611b626139c9565b6020026020010151600001513330670de0b6b3a76400006124f7565b848481518110611b9057611b906139c9565b6020026020010151600001516001600160a01b03166379d9d7f3868681518110611bbc57611bbc6139c9565b602002602001015160200151878781518110611bda57611bda6139c9565b602002602001015160400151888881518110611bf857611bf86139c9565b602002602001015160600151898981518110611c1657611c166139c9565b6020026020010151608001516040518563ffffffff1660e01b8152600401611c4194939291906140f2565b600060405180830381600087803b158015611c5b57600080fd5b505af1158015611c6f573d6000803e3d6000fd5b505050505050508080611c8190613ada565b915050611761565b6000546001600160a01b03163314611cb35760405162461bcd60e51b81526004016105f49061395d565b6004548111158015611cc457508015155b611ce05760405162461bcd60e51b81526004016105f490613cd0565b6000908152600560205260409020805460ff60a01b1916600160a01b179055565b60008060026001541415611d275760405162461bcd60e51b81526004016105f490613992565b6002600155611e19611d398680613af5565b8080601f016020809104026020016040519081016040528093929190818152602001838380828437600092019190915250611d7b925050506020880188613af5565b8080601f016020809104026020016040519081016040528093929190818152602001838380828437600092018290525060408c013593503092509050611dc460608c018c613af5565b8080601f016020809104026020016040519081016040528093929190818152602001838380828437600092019190915250611e099250505060a08d0160808e01613b42565b6102c860c08e0160a08f01612f44565b91506001600160a01b03821663e38d7cad8535611e396020880188613e2e565b611e4660408a018a613e2e565b611e5360608c018c613e2e565b611e6060808e018e613e2e565b6040518a63ffffffff1660e01b8152600401611e8499989796959493929190613f98565b6020604051808303816000875af1158015611ea3573d6000803e3d6000fd5b505050506040513d601f19601f82011682018060405250810190611ec79190614049565b90506001600160a01b03811663191c918a611ee56020860186612f44565b60208601356040870135611eff6080890160608a01613b42565b611f0f60a08a0160808b01612f44565b60405160e087901b6001600160e01b03191681526001600160a01b0395861660048201526024810194909452604484019290925215156064830152909116608482015260a401600060405180830381600087803b158015611f6f57600080fd5b505af1158015611f83573d6000803e3d6000fd5b50506040516301fc3d9160e71b81523060048201526001600160a01b038516925063fe1ec8809150602401600060405180830381600087803b158015611fc857600080fd5b505af1158015611fdc573d6000803e3d6000fd5b50506001805550919590945092505050565b6000546001600160a01b031633146120185760405162461bcd60e51b81526004016105f49061395d565b600a54811115801561202957508015155b6120895760405162461bcd60e51b815260206004820152602b60248201527f45524332304454466163746f72793a2054656d706c61746520696e646578206460448201526a1bd95cdb9d08195e1a5cdd60aa1b60648201526084016105f4565b6000908152600660205260409020805460ff60a01b1916600160a01b179055565b6000806000600260015414156120d25760405162461bcd60e51b81526004016105f490613992565b60026001556120e4610f5f8780613af5565b92506001600160a01b03831663e38d7cad86356121046020890189613e2e565b61211160408b018b613e2e565b61211e60608d018d613e2e565b61212b60808f018f613e2e565b6040518a63ffffffff1660e01b815260040161214f99989796959493929190613f98565b6020604051808303816000875af115801561216e573d6000803e3d6000fd5b505050506040513d601f19601f820116820180604052508101906121929190614049565b91506001600160a01b038216638b96412b6121b06020870187612f44565b6121bd6020880188613e2e565b6121ca60408a018a613e2e565b6040518663ffffffff1660e01b81526004016121ea959493929190614145565b6020604051808303816000875af1158015612209573d6000803e3d6000fd5b505050506040513d601f19601f820116820180604052508101906112029190614189565b6000546001600160a01b031633146122575760405162461bcd60e51b81526004016105f49061395d565b6001600160a01b0381166122bc5760405162461bcd60e51b815260206004820152602660248201527f4f776e61626c653a206e6577206f776e657220697320746865207a65726f206160448201526564647265737360d01b60648201526084016105f4565b6122c581612aa5565b50565b600080600260015414156122ee5760405162461bcd60e51b81526004016105f490613992565b60026001556123e06123008580613af5565b8080601f016020809104026020016040519081016040528093929190818152602001838380828437600092019190915250612342925050506020870187613af5565b8080601f016020809104026020016040519081016040528093929190818152602001838380828437600092018290525060408b01359350309250905061238b60608b018b613af5565b8080601f0160208091040260200160405190810160405280939291908181526020018383808284376000920191909152506123d09250505060a08c0160808d01613b42565b6102c860c08d0160a08e01612f44565b91506001600160a01b03821663e38d7cad84356124006020870187613e2e565b61240d6040890189613e2e565b61241a60608b018b613e2e565b61242760808d018d613e2e565b6040518a63ffffffff1660e01b815260040161244b99989796959493929190613f98565b6020604051808303816000875af115801561246a573d6000803e3d6000fd5b505050506040513d601f19601f8201168201806040525081019061248e9190614049565b6040516301fc3d9160e71b81523060048201529091506001600160a01b0383169063fe1ec88090602401600060405180830381600087803b1580156124d257600080fd5b505af11580156124e6573d6000803e3d6000fd5b505060018055509194909350915050565b6040516370a0823160e01b81526001600160a01b038381166004830152600091908616906370a0823190602401602060405180830381865afa158015612541573d6000803e3d6000fd5b505050506040513d601f19601f820116820180604052508101906125659190614189565b905061257c6001600160a01b038616858585612af5565b6125868183612b2d565b6040516370a0823160e01b81526001600160a01b0385811660048301528716906370a0823190602401602060405180830381865afa1580156125cc573d6000803e3d6000fd5b505050506040513d601f19601f820116820180604052508101906125f09190614189565b101561263e5760405162461bcd60e51b815260206004820152601a60248201527f5472616e7366657220616d6f756e7420697320746f6f206c6f7700000000000060448201526064016105f4565b5050505050565b604051636eb1769f60e11b81523060048201526001600160a01b038381166024830152600091839186169063dd62ed3e90604401602060405180830381865afa158015612696573d6000803e3d6000fd5b505050506040513d601f19601f820116820180604052508101906126ba9190614189565b6126c49190613d7b565b6040516001600160a01b03851660248201526044810182905290915061272a90859063095ea7b360e01b906064015b60408051601f198184030181529190526020810180516001600160e01b03166001600160e01b031990931692909217909152612b40565b50505050565b6000808260601b9050604051733d602d80600a3d3981f3363d3d373d3d3d363d7360601b81528160148201526e5af43d82803e903d91602b57fd5bf360881b60288201526037816000f06040516001600160a01b03821681529093507f117c72e6c25f0a072e36e148df71468ce2f3dbe7defec5b2c257a6e3eb65278c915060200160405180910390a150919050565b6000836000815181106127d5576127d56139c9565b60200260200101516000141561283b5760405162461bcd60e51b815260206004820152602560248201527f4552433230466163746f72793a207a65726f20636170206973206e6f7420616c6044820152641b1bddd95960da1b60648201526084016105f4565b600a54871115801561284c57508615155b6128685760405162461bcd60e51b81526004016105f490613914565b6000878152600660209081526040918290208251808401909352546001600160a01b0381168352600160a01b900460ff1615159082018190526129015760405162461bcd60e51b815260206004820152602b60248201527f4552433230466163746f72793a20455243373231546f6b656e2054656d706c6160448201526a1d1948191a5cd8589b195960aa1b60648201526084016105f4565b805161290c90612730565b6001600160a01b0381166000818152600860205260409020805460ff191660011790559092506129a45760405162461bcd60e51b815260206004820152603e60248201527f455243373231466163746f72793a204661696c656420746f20706572666f726d60448201527f206d696e696d616c206465706c6f79206f662061206e657720746f6b656e000060648201526084016105f4565b80600001516001600160a01b0316826001600160a01b03167f567699dbf7c5f63a51a42fd451f5e065bca0dfc723adf2cc498bbb7cfb780b90896000815181106129f0576129f06139c9565b60200260200101518a600181518110612a0b57612a0b6139c9565b602002602001015189600081518110612a2657612a266139c9565b602002602001015188604051612a3f94939291906141a2565b60405180910390a3600160096000828254612a5a9190613d7b565b90915550506040805160a08101825288815260208101889052908101869052606081018590526001600160a01b0384166080820152612a998382612c17565b50509695505050505050565b600080546001600160a01b038381166001600160a01b0319831681178455604051919092169283917f8be0079c531659141344cd1fd0a4f28419497f9722a3daafe3b4186f6b6457e09190a35050565b6040516001600160a01b038085166024830152831660448201526064810182905261272a9085906323b872dd60e01b906084016126f3565b6000612b398284613d7b565b9392505050565b6000612b95826040518060400160405280602081526020017f5361666545524332303a206c6f772d6c6576656c2063616c6c206661696c6564815250856001600160a01b0316612d939092919063ffffffff16565b805190915015612c125780806020019051810190612bb39190613e11565b612c125760405162461bcd60e51b815260206004820152602a60248201527f5361666545524332303a204552433230206f7065726174696f6e20646964206e6044820152691bdd081cdd58d8d9595960b21b60648201526084016105f4565b505050565b6040805160038082526080820190925283916000919060208201606080368337019050509050826080015181600081518110612c5557612c556139c9565b6001600160a01b039283166020918202929092010152600b54825191169082906001908110612c8657612c866139c9565b60200260200101906001600160a01b031690816001600160a01b031681525050816001600160a01b031663b3998be08460000151856020015184876040015188606001516040518663ffffffff1660e01b8152600401612cea95949392919061429a565b6020604051808303816000875af1158015612d09573d6000803e3d6000fd5b505050506040513d601f19601f82011682018060405250810190612d2d9190613e11565b61272a5760405162461bcd60e51b815260206004820152603160248201527f4552433230466163746f72793a20556e61626c6520746f20696e697469616c696044820152707a6520746f6b656e20696e7374616e636560781b60648201526084016105f4565b6060612da28484600085612daa565b949350505050565b606082471015612e0b5760405162461bcd60e51b815260206004820152602660248201527f416464726573733a20696e73756666696369656e742062616c616e636520666f6044820152651c8818d85b1b60d21b60648201526084016105f4565b843b612e595760405162461bcd60e51b815260206004820152601d60248201527f416464726573733a2063616c6c20746f206e6f6e2d636f6e747261637400000060448201526064016105f4565b600080866001600160a01b03168587604051612e759190614343565b60006040518083038185875af1925050503d8060008114612eb2576040519150601f19603f3d011682016040523d82523d6000602084013e612eb7565b606091505b5091509150612ec7828286612ed2565b979650505050505050565b60608315612ee1575081612b39565b825115612ef15782518084602001fd5b8160405162461bcd60e51b81526004016105f4919061435f565b600060208284031215612f1d57600080fd5b5035919050565b6001600160a01b03811681146122c557600080fd5b80356114d281612f24565b600060208284031215612f5657600080fd5b8135612b3981612f24565b634e487b7160e01b600052604160045260246000fd5b60405161010081016001600160401b0381118282101715612f9a57612f9a612f61565b60405290565b604051606081016001600160401b0381118282101715612f9a57612f9a612f61565b60405160a081016001600160401b0381118282101715612f9a57612f9a612f61565b604051601f8201601f191681016001600160401b038111828210171561300c5761300c612f61565b604052919050565b60006001600160401b0382111561302d5761302d612f61565b5060051b60200190565b803560ff811681146114d257600080fd5b600082601f83011261305957600080fd5b81356001600160401b0381111561307257613072612f61565b613085601f8201601f1916602001612fe4565b81815284602083860101111561309a57600080fd5b816020850160208301376000918101602001919091529392505050565b600061010082840312156130ca57600080fd5b6130d2612f77565b90506130dd82612f39565b81526130eb60208301612f39565b60208201526040820135604082015261310660608301613037565b60608201526080820135608082015260a082013560a082015260c082013560c082015260e08201356001600160401b0381111561314257600080fd5b61314e84828501613048565b60e08301525092915050565b6000602080838503121561316d57600080fd5b82356001600160401b038082111561318457600080fd5b818501915085601f83011261319857600080fd5b81356131ab6131a682613014565b612fe4565b81815260059190911b830184019084810190888311156131ca57600080fd5b8585015b83811015613253578035858111156131e65760008081fd5b86016060818c03601f19018113156131fe5760008081fd5b613206612fa0565b8983013561321381612f24565b81526040838101358b8301529183013591888311156132325760008081fd5b6132408e8c858701016130b7565b90820152855250509186019186016131ce565b5098975050505050505050565b600060c0828403121561327257600080fd5b50919050565b6000806040838503121561328b57600080fd5b82356001600160401b03808211156132a257600080fd5b6132ae86838701613260565b935060208501359150808211156132c457600080fd5b50830160e081860312156132d757600080fd5b809150509250929050565b80151581146122c557600080fd5b80356114d2816132e2565b600080600080600080600080610100898b03121561331857600080fd5b88356001600160401b038082111561332f57600080fd5b61333b8c838d01613048565b995060208b013591508082111561335157600080fd5b61335d8c838d01613048565b985060408b0135975061337260608c01612f39565b965061338060808c01612f39565b955060a08b013591508082111561339657600080fd5b506133a38b828c01613048565b9350506133b260c08a016132f0565b91506133c060e08a01612f39565b90509295985092959890939650565b600060a0828403121561327257600080fd5b60006060828403121561327257600080fd5b60008060006060848603121561340857600080fd5b83356001600160401b038082111561341f57600080fd5b61342b87838801613260565b9450602086013591508082111561344157600080fd5b61344d878388016133cf565b9350604086013591508082111561346357600080fd5b50613470868287016133e1565b9150509250925092565b600082601f83011261348b57600080fd5b8135602061349b6131a683613014565b82815260059290921b840181019181810190868411156134ba57600080fd5b8286015b848110156134de5780356134d181612f24565b83529183019183016134be565b509695505050505050565b600082601f8301126134fa57600080fd5b8135602061350a6131a683613014565b82815260059290921b8401810191818101908684111561352957600080fd5b8286015b848110156134de578035835291830191830161352d565b600082601f83011261355557600080fd5b813560206135656131a683613014565b82815260059290921b8401810191818101908684111561358457600080fd5b8286015b848110156134de5780356001600160401b038111156135a75760008081fd5b6135b58986838b0101613048565b845250918301918301613588565b600080600080600060a086880312156135db57600080fd5b853594506020808701356001600160401b03808211156135fa57600080fd5b818901915089601f83011261360e57600080fd5b813561361c6131a682613014565b81815260059190911b8301840190848101908c83111561363b57600080fd5b8585015b83811015613673578035858111156136575760008081fd5b6136658f89838a0101613048565b84525091860191860161363f565b5098505050604089013592508083111561368c57600080fd5b6136988a848b0161347a565b955060608901359250808311156136ae57600080fd5b6136ba8a848b016134e9565b945060808901359250808311156136d057600080fd5b50506136de88828901613544565b9150509295509295909350565b600060208083850312156136fe57600080fd5b82356001600160401b038082111561371557600080fd5b818501915085601f83011261372957600080fd5b81356137376131a682613014565b81815260059190911b8301840190848101908883111561375657600080fd5b8585015b838110156132535780358581111561377157600080fd5b8601808b0360e0601f198201121561378857600080fd5b613790612fc2565b8983013561379d81612f24565b815260408301356137ad81612f24565b818b015260608381013560408301526080840135898111156137ce57600080fd5b6137dc8f8d838801016130b7565b828401525080609f19840112156137f257600080fd5b506137fb612fa0565b915060a083013561380b81612f24565b825260c083013561381b81612f24565b828b015260e0929092013560408201526080820152835291860191860161375a565b600080600060e0848603121561385257600080fd5b83356001600160401b038082111561386957600080fd5b61387587838801613260565b9450602086013591508082111561388b57600080fd5b50613898868287016133cf565b9250506138a885604086016133cf565b90509250925092565b600080604083850312156138c457600080fd5b82356001600160401b03808211156138db57600080fd5b6138e786838701613260565b935060208501359150808211156138fd57600080fd5b5061390a858286016133cf565b9150509250929050565b60208082526029908201527f4552433230466163746f72793a2054656d706c61746520696e64657820646f656040820152681cdb9d08195e1a5cdd60ba1b606082015260800190565b6020808252818101527f4f776e61626c653a2063616c6c6572206973206e6f7420746865206f776e6572604082015260600190565b6020808252601f908201527f5265656e7472616e637947756172643a207265656e7472616e742063616c6c00604082015260600190565b634e487b7160e01b600052603260045260246000fd5b60005b838110156139fa5781810151838201526020016139e2565b8381111561272a5750506000910152565b60008151808452613a238160208601602086016139df565b601f01601f19169290920160200192915050565b600061010060018060a01b03808451168552806020850151166020860152506040830151604085015260ff60608401511660608501526080830151608085015260a083015160a085015260c083015160c085015260e08301518160e0860152613aa282860182613a0b565b95945050505050565b828152604060208201526000612da26040830184613a37565b634e487b7160e01b600052601160045260246000fd5b6000600019821415613aee57613aee613ac4565b5060010190565b6000808335601e19843603018112613b0c57600080fd5b8301803591506001600160401b03821115613b2657600080fd5b602001915036819003821315613b3b57600080fd5b9250929050565b600060208284031215613b5457600080fd5b8135612b39816132e2565b600060208284031215613b7157600080fd5b612b3982613037565b6000808335601e19843603018112613b9157600080fd5b8301803591506001600160401b03821115613bab57600080fd5b6020019150600781901b3603821315613b3b57600080fd5b81835281816020850137506000828201602090810191909152601f909101601f19169091010190565b60ff8d16815260e060208201526000613c0960e083018d8f613bc3565b604083820381850152613c1d828d8f613bc3565b9150606084830381860152613c33838c8e613bc3565b9250608085840381870152613c49848b8d613bc3565b60a087018a905286810360c088015287815288945060200160005b88811015613cb6578535613c7781612f24565b6001600160a01b0316825260ff613c9060208801613037565b166020830152858501358583015283860135848301529482019490820190600101613c64565b5080955050505050509d9c50505050505050505050505050565b6020808252602c908201527f4552433732314454466163746f72793a2054656d706c61746520696e6465782060408201526b191bd95cdb9d08195e1a5cdd60a21b606082015260800190565b6001600160a01b038616815260a060208201819052600090613d4090830187613a0b565b8281036040840152613d528187613a0b565b90508281036060840152613d668186613a0b565b91505082151560808301529695505050505050565b60008219821115613d8e57613d8e613ac4565b500190565b6001600160a01b03898116825261010060208301819052600091613db98483018c613a0b565b91508382036040850152613dcd828b613a0b565b8982166060860152888216608086015290871660a085015283810360c08501529050613df98186613a0b565b91505082151560e08301529998505050505050505050565b600060208284031215613e2357600080fd5b8151612b39816132e2565b6000808335601e19843603018112613e4557600080fd5b8301803591506001600160401b03821115613e5f57600080fd5b6020019150600581901b3603821315613b3b57600080fd5b6000808335601e19843603018112613e8e57600080fd5b83016020810192503590506001600160401b03811115613ead57600080fd5b803603831315613b3b57600080fd5b8183526000602080850194508260005b85811015613efa578135613edf81612f24565b6001600160a01b031687529582019590820190600101613ecc565b509495945050505050565b81835260006001600160fb1b03831115613f1e57600080fd5b8260051b8083602087013760009401602001938452509192915050565b81835260006020808501808196508560051b810191508460005b87811015613f8b578284038952613f6c8288613e77565b613f77868284613bc3565b9a87019a9550505090840190600101613f55565b5091979650505050505050565b89815260a0602082018190528101889052600060c060058a901b830181019083018b835b8c811015613ff95785840360bf19018352613fd7828f613e77565b613fe2868284613bc3565b955050506020928301929190910190600101613fbc565b505050828103604084015261400f81898b613ebc565b90508281036060840152614024818789613f05565b90508281036080840152614039818587613f3b565b9c9b505050505050505050505050565b60006020828403121561405b57600080fd5b8151612b3981612f24565b60608152600061407a60608301888a613f05565b828103602084015261408d818789613f05565b905082810360408401526140a2818587613ebc565b9998505050505050505050565b6000806000606084860312156140c457600080fd5b83516140cf81612f24565b60208501519093506140e081612f24565b80925050604084015190509250925092565b600060018060a01b03808716835285602084015260c0604084015261411a60c0840186613a37565b915080845116606084015280602085015116608084015250604083015160a083015295945050505050565b6001600160a01b038616815260606020820181905260009061416a9083018688613ebc565b828103604084015261417d818587613f05565b98975050505050505050565b60006020828403121561419b57600080fd5b5051919050565b6080815260006141b56080830187613a0b565b82810360208401526141c78187613a0b565b604084019590955250506001600160a01b039190911660609091015292915050565b600081518084526020808501945080840160005b83811015613efa5781516001600160a01b0316875295820195908201906001016141fd565b600081518084526020808501945080840160005b83811015613efa57815187529582019590820190600101614236565b600081518084526020808501808196508360051b8101915082860160005b85811015613f8b578284038952614288848351613a0b565b98850198935090840190600101614270565b600060a0820160a0835280885180835260c08501915060c08160051b86010192506020808b0160005b838110156142f15760bf198887030185526142df868351613a0b565b955093820193908201906001016142c3565b50508584038187015250505061430781886141e9565b9050828103604084015261431b81876141e9565b9050828103606084015261432f8186614222565b9050828103608084015261417d8185614252565b600082516143558184602087016139df565b9190910192915050565b602081526000612b396020830184613a0b56fea26469706673582212200b0ce1950c17f5db112cb325882c2b1ac03c498d23b6138a19d9c3e6b97217d664736f6c634300080c00334f776e61626c653a2063616c6c6572206973206e6f7420746865206f776e6572","bytecodeSha1":"da39a3ee5e6b4b0d3255bfef95601890afd80709","compiler":{"evm_version":"istanbul","optimizer":{"enabled":true,"runs":200},"version":"0.8.12+commit.f00d7308"},"contractName":"ERC721Factory","language":"Solidity","natspec":{"author":"Ocean Protocol Team","details":"Implementation of Ocean datatokens Factory      DTFactory deploys datatoken proxy contracts.      New datatoken proxy contracts are links to the template contract's bytecode.      Proxy contract functionality is based on Ocean Protocol custom implementation of ERC1167 standard.","kind":"dev","methods":{"add721TokenTemplate(address)":{"details":"add a new NFT Template. Only Factory Owner can call it","params":{"_templateAddress":"new template address"},"returns":{"_0":"the actual template count"}},"addTokenTemplate(address)":{"details":"add a new ERC20Template. Only Factory Owner can call it","params":{"_templateAddress":"new template address"},"returns":{"_0":"the actual template count"}},"constructor":{"details":"constructor      Called on contract deployment. Could not be called with zero address parameters.","params":{"_router":"router contract address","_template":"refers to the address of a deployed datatoken contract.","_template721":"refers to the address of ERC721 template"}},"createNftWithErc20((string,string,uint256,string,bool,address),(uint256,string[],address[],uint256[],bytes[]))":{"details":"createNftWithErc20      Creates a new NFT, then a ERC20,all in one call","params":{"_ErcCreateData":"input data for erc20 creation","_NftCreateData":"input data for nft creation"}},"createNftWithErc20WithDispenser((string,string,uint256,string,bool,address),(uint256,string[],address[],uint256[],bytes[]),(address,uint256,uint256,bool,address))":{"details":"createNftWithErc20WithDispenser      Creates a new NFT, then a ERC20, then a Dispenser, all in one call      Use this carefully","params":{"_DispenserData":"input data for Dispenser Creation","_ErcCreateData":"input data for ERC20 Creation","_NftCreateData":"input data for NFT Creation"}},"createNftWithErc20WithFixedRate((string,string,uint256,string,bool,address),(uint256,string[],address[],uint256[],bytes[]),(address,address[],uint256[]))":{"details":"createNftWithErc20WithFixedRate      Creates a new NFT, then a ERC20, then a FixedRateExchange, all in one call      Use this carefully, because if Fixed Rate creation fails, you are still going to pay a lot of gas","params":{"_ErcCreateData":"input data for ERC20 Creation","_FixedData":"input data for FixedRate Creation","_NftCreateData":"input data for NFT Creation"}},"createNftWithErc20WithPool((string,string,uint256,string,bool,address),(uint256,string[],address[],uint256[],bytes[]),(uint256[],uint256[],address[]))":{"details":"createNftWithErc20WithPool      Creates a new NFT, then a ERC20, then a Pool, all in one call      Use this carefully, because if Pool creation fails, you are still going to pay a lot of gas","params":{"_ErcCreateData":"input data for ERC20 Creation","_NftCreateData":"input data for NFT Creation","_PoolData":"input data for Pool Creation"}},"createNftWithMetaData((string,string,uint256,string,bool,address),(uint8,string,string,bytes,bytes,bytes32,(address,uint8,bytes32,bytes32)[]))":{"details":"createNftWithMetaData      Creates a new NFT, then sets the metadata, all in one call      Use this carefully","params":{"_MetaData":"input metadata","_NftCreateData":"input data for NFT Creation"}},"createToken(uint256,string[],address[],uint256[],bytes[])":{"details":"Deploys new datatoken proxy contract.      This function is not called directly from here. It's called from the NFT contract. An NFT contract can deploy multiple ERC20 tokens.","params":{"_templateIndex":"ERC20Template index ","addresses":"refers to an array of addresses                     [0]  = minter account who can mint datatokens (can have multiple minters)                     [1]  = paymentCollector  initial paymentCollector  for this DT                     [2]  = publishing Market Address                     [3]  = publishing Market Fee Token","bytess":"refers to an array of bytes, not in use now, left for future templates","strings":"refers to an array of strings                      [0] = name                      [1] = symbol","uints":"refers to an array of uints                     [0] = cap_ the total ERC20 cap                     [1] = publishing Market Fee Amount"},"returns":{"token":"address of a new proxy datatoken contract"}},"deployERC721Contract(string,string,uint256,address,address,string,bool,address)":{"details":"deployERC721Contract      ","params":{"_templateIndex":"template index we want to use","additionalERC20Deployer":"if != address(0), we will add it with ERC20Deployer role","additionalMetaDataUpdater":"if != address(0), we will add it with updateMetadata role","name":"NFT name","owner":"owner of the NFT","symbol":"NFT Symbol","transferable":"if NFT is transferable. Cannot be changed afterwards"}},"disable721TokenTemplate(uint256)":{"details":"disable an NFT Template. Only Factory Owner can call it","params":{"_index":"index we want to disable"}},"disableTokenTemplate(uint256)":{"details":"disable an ERC20Template. Only Factory Owner can call it","params":{"_index":"index we want to disable"}},"getCurrentNFTCount()":{"details":"get the current token count.","returns":{"_0":"the current token count"}},"getCurrentTokenCount()":{"details":"get the current ERC20token deployed count.","returns":{"_0":"the current token count"}},"getNFTTemplate(uint256)":{"details":"get the token template Object","params":{"_index":"template Index"},"returns":{"_0":"the template struct"}},"getTokenTemplate(uint256)":{"details":"get the current ERC20token template.","params":{"_index":"template Index"},"returns":{"_0":"the token Template Object"}},"owner()":{"details":"Returns the address of the current owner."},"reactivate721TokenTemplate(uint256)":{"details":"reactivate a disabled NFT Template. Only Factory Owner can call it","params":{"_index":"index we want to reactivate"}},"reactivateTokenTemplate(uint256)":{"details":"reactivate a disabled ERC20Template. Only Factory Owner can call it","params":{"_index":"index we want to reactivate"}},"renounceOwnership()":{"details":"Leaves the contract without owner. It will not be possible to call `onlyOwner` functions anymore. Can only be called by the current owner. NOTE: Renouncing ownership will leave the contract without an owner, thereby removing any functionality that is only available to the owner."},"reuseMultipleTokenOrder((address,bytes32,(address,address,uint256,uint8,bytes32,bytes32,uint256,bytes))[])":{"details":"reuseMultipleTokenOrder      Used as a proxy to order multiple reuses      Users can have inifinite approvals for fees for factory instead of having one approval/ erc20 contract      Requires previous approval of all :          - consumeFeeTokens          - publishMarketFeeTokens          - erc20 datatokens          - providerFees","params":{"orders":"an array of struct tokenOrder"}},"startMultipleTokenOrder((address,address,uint256,(address,address,uint256,uint8,bytes32,bytes32,uint256,bytes),(address,address,uint256))[])":{"details":"startMultipleTokenOrder      Used as a proxy to order multiple services      Users can have inifinite approvals for fees for factory instead of having one approval/ erc20 contract      Requires previous approval of all :          - consumeFeeTokens          - publishMarketFeeTokens          - erc20 datatokens          - providerFees","params":{"orders":"an array of struct tokenOrder"}},"transferOwnership(address)":{"details":"Transfers ownership of the contract to a new account (`newOwner`). Can only be called by the current owner."}},"title":"DTFactory contract","version":1},"opcodes":"PUSH1 0x80 PUSH1 0x40 MSTORE CALLVALUE DUP1 ISZERO PUSH2 0x10 JUMPI PUSH1 0x0 DUP1 REVERT JUMPDEST POP PUSH1 0x4 CALLDATASIZE LT PUSH2 0x1DA JUMPI PUSH1 0x0 CALLDATALOAD PUSH1 0xE0 SHR DUP1 PUSH4 0x82C44204 GT PUSH2 0x104 JUMPI DUP1 PUSH4 0xAA897DDC GT PUSH2 0xA2 JUMPI DUP1 PUSH4 0xE5FC01F0 GT PUSH2 0x71 JUMPI DUP1 PUSH4 0xE5FC01F0 EQ PUSH2 0x53B JUMPI DUP1 PUSH4 0xF2FDE38B EQ PUSH2 0x543 JUMPI DUP1 PUSH4 0xF86B2BCF EQ PUSH2 0x556 JUMPI DUP1 PUSH4 0xF887EA40 EQ PUSH2 0x569 JUMPI PUSH1 0x0 DUP1 REVERT JUMPDEST DUP1 PUSH4 0xAA897DDC EQ PUSH2 0x4B4 JUMPI DUP1 PUSH4 0xBBF8D71F EQ PUSH2 0x4E7 JUMPI DUP1 PUSH4 0xC6CF868A EQ PUSH2 0x4FA JUMPI DUP1 PUSH4 0xD282AA86 EQ PUSH2 0x502 JUMPI PUSH1 0x0 DUP1 REVERT JUMPDEST DUP1 PUSH4 0x94051699 GT PUSH2 0xDE JUMPI DUP1 PUSH4 0x94051699 EQ PUSH2 0x451 JUMPI DUP1 PUSH4 0x94BE0E88 EQ PUSH2 0x486 JUMPI DUP1 PUSH4 0x95C60305 EQ PUSH2 0x499 JUMPI DUP1 PUSH4 0xA33EF2A6 EQ PUSH2 0x4A1 JUMPI PUSH1 0x0 DUP1 REVERT JUMPDEST DUP1 PUSH4 0x82C44204 EQ PUSH2 0x3D9 JUMPI DUP1 PUSH4 0x8DA5CB5B EQ PUSH2 0x42D JUMPI DUP1 PUSH4 0x8F6051AF EQ PUSH2 0x43E JUMPI PUSH1 0x0 DUP1 REVERT JUMPDEST DUP1 PUSH4 0x3315EFD1 GT PUSH2 0x17C JUMPI DUP1 PUSH4 0x715018A6 GT PUSH2 0x14B JUMPI DUP1 PUSH4 0x715018A6 EQ PUSH2 0x382 JUMPI DUP1 PUSH4 0x72F670F0 EQ PUSH2 0x38A JUMPI DUP1 PUSH4 0x7B20BCCF EQ PUSH2 0x3B3 JUMPI DUP1 PUSH4 0x809D8105 EQ PUSH2 0x3C6 JUMPI PUSH1 0x0 DUP1 REVERT JUMPDEST DUP1 PUSH4 0x3315EFD1 EQ PUSH2 0x2CD JUMPI DUP1 PUSH4 0x50447FD5 EQ PUSH2 0x32A JUMPI DUP1 PUSH4 0x557FCFB0 EQ PUSH2 0x367 JUMPI DUP1 PUSH4 0x5C705982 EQ PUSH2 0x37A JUMPI PUSH1 0x0 DUP1 REVERT JUMPDEST DUP1 PUSH4 0x2515422E GT PUSH2 0x1B8 JUMPI DUP1 PUSH4 0x2515422E EQ PUSH2 0x265 JUMPI DUP1 PUSH4 0x26705C3C EQ PUSH2 0x278 JUMPI DUP1 PUSH4 0x26F20066 EQ PUSH2 0x28F JUMPI DUP1 PUSH4 0x3147C798 EQ PUSH2 0x2BA JUMPI PUSH1 0x0 DUP1 REVERT JUMPDEST DUP1 PUSH4 0x42AB9B3 EQ PUSH2 0x1DF JUMPI DUP1 PUSH4 0xFFDA887 EQ PUSH2 0x21D JUMPI DUP1 PUSH4 0x226E7615 EQ PUSH2 0x232 JUMPI JUMPDEST PUSH1 0x0 DUP1 REVERT JUMPDEST PUSH2 0x1F2 PUSH2 0x1ED CALLDATASIZE PUSH1 0x4 PUSH2 0x2F0B JUMP JUMPDEST PUSH2 0x57C JUMP JUMPDEST PUSH1 0x40 DUP1 MLOAD DUP3 MLOAD PUSH1 0x1 PUSH1 0x1 PUSH1 0xA0 SHL SUB AND DUP2 MSTORE PUSH1 0x20 SWAP3 DUP4 ADD MLOAD ISZERO ISZERO SWAP3 DUP2 ADD SWAP3 SWAP1 SWAP3 MSTORE ADD JUMPDEST PUSH1 0x40 MLOAD DUP1 SWAP2 SUB SWAP1 RETURN JUMPDEST PUSH2 0x230 PUSH2 0x22B CALLDATASIZE PUSH1 0x4 PUSH2 0x2F0B JUMP JUMPDEST PUSH2 0x603 JUMP JUMPDEST STOP JUMPDEST PUSH2 0x255 PUSH2 0x240 CALLDATASIZE PUSH1 0x4 PUSH2 0x2F44 JUMP JUMPDEST PUSH1 0x8 PUSH1 0x20 MSTORE PUSH1 0x0 SWAP1 DUP2 MSTORE PUSH1 0x40 SWAP1 KECCAK256 SLOAD PUSH1 0xFF AND DUP2 JUMP JUMPDEST PUSH1 0x40 MLOAD SWAP1 ISZERO ISZERO DUP2 MSTORE PUSH1 0x20 ADD PUSH2 0x214 JUMP JUMPDEST PUSH2 0x230 PUSH2 0x273 CALLDATASIZE PUSH1 0x4 PUSH2 0x315A JUMP JUMPDEST PUSH2 0x648 JUMP JUMPDEST PUSH2 0x281 PUSH1 0xA SLOAD DUP2 JUMP JUMPDEST PUSH1 0x40 MLOAD SWAP1 DUP2 MSTORE PUSH1 0x20 ADD PUSH2 0x214 JUMP JUMPDEST PUSH2 0x2A2 PUSH2 0x29D CALLDATASIZE PUSH1 0x4 PUSH2 0x3278 JUMP JUMPDEST PUSH2 0x915 JUMP JUMPDEST PUSH1 0x40 MLOAD PUSH1 0x1 PUSH1 0x1 PUSH1 0xA0 SHL SUB SWAP1 SWAP2 AND DUP2 MSTORE PUSH1 0x20 ADD PUSH2 0x214 JUMP JUMPDEST PUSH2 0x2A2 PUSH2 0x2C8 CALLDATASIZE PUSH1 0x4 PUSH2 0x32FB JUMP JUMPDEST PUSH2 0xB4D JUMP JUMPDEST PUSH2 0x1F2 PUSH2 0x2DB CALLDATASIZE PUSH1 0x4 PUSH2 0x2F0B JUMP JUMPDEST PUSH1 0x40 DUP1 MLOAD DUP1 DUP3 ADD SWAP1 SWAP2 MSTORE PUSH1 0x0 DUP1 DUP3 MSTORE PUSH1 0x20 DUP3 ADD MSTORE POP PUSH1 0x0 SWAP1 DUP2 MSTORE PUSH1 0x5 PUSH1 0x20 SWAP1 DUP2 MSTORE PUSH1 0x40 SWAP2 DUP3 SWAP1 KECCAK256 DUP3 MLOAD DUP1 DUP5 ADD SWAP1 SWAP4 MSTORE SLOAD PUSH1 0x1 PUSH1 0x1 PUSH1 0xA0 SHL SUB DUP2 AND DUP4 MSTORE PUSH1 0x1 PUSH1 0xA0 SHL SWAP1 DIV PUSH1 0xFF AND ISZERO ISZERO SWAP1 DUP3 ADD MSTORE SWAP1 JUMP JUMPDEST PUSH2 0x33D PUSH2 0x338 CALLDATASIZE PUSH1 0x4 PUSH2 0x33F3 JUMP JUMPDEST PUSH2 0xEC6 JUMP JUMPDEST PUSH1 0x40 DUP1 MLOAD PUSH1 0x1 PUSH1 0x1 PUSH1 0xA0 SHL SUB SWAP5 DUP6 AND DUP2 MSTORE SWAP3 DUP5 AND PUSH1 0x20 DUP5 ADD MSTORE SWAP3 AND SWAP2 DUP2 ADD SWAP2 SWAP1 SWAP2 MSTORE PUSH1 0x60 ADD PUSH2 0x214 JUMP JUMPDEST PUSH2 0x2A2 PUSH2 0x375 CALLDATASIZE PUSH1 0x4 PUSH2 0x35C3 JUMP JUMPDEST PUSH2 0x126D JUMP JUMPDEST PUSH1 0x2 SLOAD PUSH2 0x281 JUMP JUMPDEST PUSH2 0x230 PUSH2 0x130E JUMP JUMPDEST PUSH2 0x2A2 PUSH2 0x398 CALLDATASIZE PUSH1 0x4 PUSH2 0x2F44 JUMP JUMPDEST PUSH1 0x7 PUSH1 0x20 MSTORE PUSH1 0x0 SWAP1 DUP2 MSTORE PUSH1 0x40 SWAP1 KECCAK256 SLOAD PUSH1 0x1 PUSH1 0x1 PUSH1 0xA0 SHL SUB AND DUP2 JUMP JUMPDEST PUSH2 0x281 PUSH2 0x3C1 CALLDATASIZE PUSH1 0x4 PUSH2 0x2F44 JUMP JUMPDEST PUSH2 0x1344 JUMP JUMPDEST PUSH2 0x230 PUSH2 0x3D4 CALLDATASIZE PUSH1 0x4 PUSH2 0x2F0B JUMP JUMPDEST PUSH2 0x14D7 JUMP JUMPDEST PUSH2 0x40E PUSH2 0x3E7 CALLDATASIZE PUSH1 0x4 PUSH2 0x2F0B JUMP JUMPDEST PUSH1 0x5 PUSH1 0x20 MSTORE PUSH1 0x0 SWAP1 DUP2 MSTORE PUSH1 0x40 SWAP1 KECCAK256 SLOAD PUSH1 0x1 PUSH1 0x1 PUSH1 0xA0 SHL SUB DUP2 AND SWAP1 PUSH1 0x1 PUSH1 0xA0 SHL SWAP1 DIV PUSH1 0xFF AND DUP3 JUMP JUMPDEST PUSH1 0x40 DUP1 MLOAD PUSH1 0x1 PUSH1 0x1 PUSH1 0xA0 SHL SUB SWAP1 SWAP4 AND DUP4 MSTORE SWAP1 ISZERO ISZERO PUSH1 0x20 DUP4 ADD MSTORE ADD PUSH2 0x214 JUMP JUMPDEST PUSH1 0x0 SLOAD PUSH1 0x1 PUSH1 0x1 PUSH1 0xA0 SHL SUB AND PUSH2 0x2A2 JUMP JUMPDEST PUSH2 0x281 PUSH2 0x44C CALLDATASIZE PUSH1 0x4 PUSH2 0x2F44 JUMP JUMPDEST PUSH2 0x1549 JUMP JUMPDEST PUSH2 0x40E PUSH2 0x45F CALLDATASIZE PUSH1 0x4 PUSH2 0x2F0B JUMP JUMPDEST PUSH1 0x6 PUSH1 0x20 MSTORE PUSH1 0x0 SWAP1 DUP2 MSTORE PUSH1 0x40 SWAP1 KECCAK256 SLOAD PUSH1 0x1 PUSH1 0x1 PUSH1 0xA0 SHL SUB DUP2 AND SWAP1 PUSH1 0x1 PUSH1 0xA0 SHL SWAP1 DIV PUSH1 0xFF AND DUP3 JUMP JUMPDEST PUSH2 0x230 PUSH2 0x494 CALLDATASIZE PUSH1 0x4 PUSH2 0x36EB JUMP JUMPDEST PUSH2 0x16E4 JUMP JUMPDEST PUSH1 0xA SLOAD PUSH2 0x281 JUMP JUMPDEST PUSH2 0x230 PUSH2 0x4AF CALLDATASIZE PUSH1 0x4 PUSH2 0x2F0B JUMP JUMPDEST PUSH2 0x1C89 JUMP JUMPDEST PUSH2 0x4C7 PUSH2 0x4C2 CALLDATASIZE PUSH1 0x4 PUSH2 0x383D JUMP JUMPDEST PUSH2 0x1D01 JUMP JUMPDEST PUSH1 0x40 DUP1 MLOAD PUSH1 0x1 PUSH1 0x1 PUSH1 0xA0 SHL SUB SWAP4 DUP5 AND DUP2 MSTORE SWAP3 SWAP1 SWAP2 AND PUSH1 0x20 DUP4 ADD MSTORE ADD PUSH2 0x214 JUMP JUMPDEST PUSH2 0x230 PUSH2 0x4F5 CALLDATASIZE PUSH1 0x4 PUSH2 0x2F0B JUMP JUMPDEST PUSH2 0x1FEE JUMP JUMPDEST PUSH1 0x9 SLOAD PUSH2 0x281 JUMP JUMPDEST PUSH2 0x515 PUSH2 0x510 CALLDATASIZE PUSH1 0x4 PUSH2 0x33F3 JUMP JUMPDEST PUSH2 0x20AA JUMP JUMPDEST PUSH1 0x40 DUP1 MLOAD PUSH1 0x1 PUSH1 0x1 PUSH1 0xA0 SHL SUB SWAP5 DUP6 AND DUP2 MSTORE SWAP4 SWAP1 SWAP3 AND PUSH1 0x20 DUP5 ADD MSTORE SWAP1 DUP3 ADD MSTORE PUSH1 0x60 ADD PUSH2 0x214 JUMP JUMPDEST PUSH1 0x4 SLOAD PUSH2 0x281 JUMP JUMPDEST PUSH2 0x230 PUSH2 0x551 CALLDATASIZE PUSH1 0x4 PUSH2 0x2F44 JUMP JUMPDEST PUSH2 0x222D JUMP JUMPDEST PUSH2 0x4C7 PUSH2 0x564 CALLDATASIZE PUSH1 0x4 PUSH2 0x38B1 JUMP JUMPDEST PUSH2 0x22C8 JUMP JUMPDEST PUSH1 0xB SLOAD PUSH2 0x2A2 SWAP1 PUSH1 0x1 PUSH1 0x1 PUSH1 0xA0 SHL SUB AND DUP2 JUMP JUMPDEST PUSH1 0x40 DUP1 MLOAD DUP1 DUP3 ADD SWAP1 SWAP2 MSTORE PUSH1 0x0 DUP1 DUP3 MSTORE PUSH1 0x20 DUP3 ADD MSTORE PUSH1 0x0 DUP3 DUP2 MSTORE PUSH1 0x6 PUSH1 0x20 SWAP1 DUP2 MSTORE PUSH1 0x40 SWAP2 DUP3 SWAP1 KECCAK256 DUP3 MLOAD DUP1 DUP5 ADD SWAP1 SWAP4 MSTORE SLOAD PUSH1 0x1 PUSH1 0x1 PUSH1 0xA0 SHL SUB DUP2 AND DUP4 MSTORE PUSH1 0x1 PUSH1 0xA0 SHL SWAP1 DIV PUSH1 0xFF AND ISZERO ISZERO SWAP1 DUP3 ADD MSTORE PUSH1 0xA SLOAD DUP4 GT DUP1 ISZERO SWAP1 PUSH2 0x5D8 JUMPI POP DUP3 ISZERO ISZERO JUMPDEST PUSH2 0x5FD JUMPI PUSH1 0x40 MLOAD PUSH3 0x461BCD PUSH1 0xE5 SHL DUP2 MSTORE PUSH1 0x4 ADD PUSH2 0x5F4 SWAP1 PUSH2 0x3914 JUMP JUMPDEST PUSH1 0x40 MLOAD DUP1 SWAP2 SUB SWAP1 REVERT JUMPDEST SWAP3 SWAP2 POP POP JUMP JUMPDEST PUSH1 0x0 SLOAD PUSH1 0x1 PUSH1 0x1 PUSH1 0xA0 SHL SUB AND CALLER EQ PUSH2 0x62D JUMPI PUSH1 0x40 MLOAD PUSH3 0x461BCD PUSH1 0xE5 SHL DUP2 MSTORE PUSH1 0x4 ADD PUSH2 0x5F4 SWAP1 PUSH2 0x395D JUMP JUMPDEST PUSH1 0x0 SWAP1 DUP2 MSTORE PUSH1 0x6 PUSH1 0x20 MSTORE PUSH1 0x40 SWAP1 KECCAK256 DUP1 SLOAD PUSH1 0xFF PUSH1 0xA0 SHL NOT AND SWAP1 SSTORE JUMP JUMPDEST PUSH1 0x2 PUSH1 0x1 SLOAD EQ ISZERO PUSH2 0x66B JUMPI PUSH1 0x40 MLOAD PUSH3 0x461BCD PUSH1 0xE5 SHL DUP2 MSTORE PUSH1 0x4 ADD PUSH2 0x5F4 SWAP1 PUSH2 0x3992 JUMP JUMPDEST PUSH1 0x2 PUSH1 0x1 SSTORE DUP1 MLOAD PUSH1 0x32 LT ISZERO PUSH2 0x6C2 JUMPI PUSH1 0x40 MLOAD PUSH3 0x461BCD PUSH1 0xE5 SHL DUP2 MSTORE PUSH1 0x20 PUSH1 0x4 DUP3 ADD MSTORE PUSH1 0x1E PUSH1 0x24 DUP3 ADD MSTORE PUSH32 0x455243373231466163746F72793A20546F6F204D616E79204F72646572730000 PUSH1 0x44 DUP3 ADD MSTORE PUSH1 0x64 ADD PUSH2 0x5F4 JUMP JUMPDEST PUSH1 0x0 JUMPDEST DUP2 MLOAD DUP2 LT ISZERO PUSH2 0x90D JUMPI PUSH1 0x0 DUP3 DUP3 DUP2 MLOAD DUP2 LT PUSH2 0x6E2 JUMPI PUSH2 0x6E2 PUSH2 0x39C9 JUMP JUMPDEST PUSH1 0x20 MUL PUSH1 0x20 ADD ADD MLOAD PUSH1 0x40 ADD MLOAD PUSH1 0x40 ADD MLOAD GT DUP1 ISZERO PUSH2 0x733 JUMPI POP PUSH1 0x0 PUSH1 0x1 PUSH1 0x1 PUSH1 0xA0 SHL SUB AND DUP3 DUP3 DUP2 MLOAD DUP2 LT PUSH2 0x717 JUMPI PUSH2 0x717 PUSH2 0x39C9 JUMP JUMPDEST PUSH1 0x20 MUL PUSH1 0x20 ADD ADD MLOAD PUSH1 0x40 ADD MLOAD PUSH1 0x20 ADD MLOAD PUSH1 0x1 PUSH1 0x1 PUSH1 0xA0 SHL SUB AND EQ ISZERO JUMPDEST DUP1 ISZERO PUSH2 0x773 JUMPI POP PUSH1 0x0 PUSH1 0x1 PUSH1 0x1 PUSH1 0xA0 SHL SUB AND DUP3 DUP3 DUP2 MLOAD DUP2 LT PUSH2 0x757 JUMPI PUSH2 0x757 PUSH2 0x39C9 JUMP JUMPDEST PUSH1 0x20 MUL PUSH1 0x20 ADD ADD MLOAD PUSH1 0x40 ADD MLOAD PUSH1 0x0 ADD MLOAD PUSH1 0x1 PUSH1 0x1 PUSH1 0xA0 SHL SUB AND EQ ISZERO JUMPDEST ISZERO PUSH2 0x843 JUMPI PUSH2 0x7C6 DUP3 DUP3 DUP2 MLOAD DUP2 LT PUSH2 0x78D JUMPI PUSH2 0x78D PUSH2 0x39C9 JUMP JUMPDEST PUSH1 0x20 MUL PUSH1 0x20 ADD ADD MLOAD PUSH1 0x40 ADD MLOAD PUSH1 0x20 ADD MLOAD CALLER ADDRESS DUP6 DUP6 DUP2 MLOAD DUP2 LT PUSH2 0x7B1 JUMPI PUSH2 0x7B1 PUSH2 0x39C9 JUMP JUMPDEST PUSH1 0x20 MUL PUSH1 0x20 ADD ADD MLOAD PUSH1 0x40 ADD MLOAD PUSH1 0x40 ADD MLOAD PUSH2 0x24F7 JUMP JUMPDEST PUSH2 0x843 DUP3 DUP3 DUP2 MLOAD DUP2 LT PUSH2 0x7DB JUMPI PUSH2 0x7DB PUSH2 0x39C9 JUMP JUMPDEST PUSH1 0x20 MUL PUSH1 0x20 ADD ADD MLOAD PUSH1 0x0 ADD MLOAD DUP4 DUP4 DUP2 MLOAD DUP2 LT PUSH2 0x7F9 JUMPI PUSH2 0x7F9 PUSH2 0x39C9 JUMP JUMPDEST PUSH1 0x20 MUL PUSH1 0x20 ADD ADD MLOAD PUSH1 0x40 ADD MLOAD PUSH1 0x40 ADD MLOAD DUP5 DUP5 DUP2 MLOAD DUP2 LT PUSH2 0x81B JUMPI PUSH2 0x81B PUSH2 0x39C9 JUMP JUMPDEST PUSH1 0x20 MUL PUSH1 0x20 ADD ADD MLOAD PUSH1 0x40 ADD MLOAD PUSH1 0x20 ADD MLOAD PUSH1 0x1 PUSH1 0x1 PUSH1 0xA0 SHL SUB AND PUSH2 0x2645 SWAP1 SWAP3 SWAP2 SWAP1 PUSH4 0xFFFFFFFF AND JUMP JUMPDEST DUP2 DUP2 DUP2 MLOAD DUP2 LT PUSH2 0x855 JUMPI PUSH2 0x855 PUSH2 0x39C9 JUMP JUMPDEST PUSH1 0x20 MUL PUSH1 0x20 ADD ADD MLOAD PUSH1 0x0 ADD MLOAD PUSH1 0x1 PUSH1 0x1 PUSH1 0xA0 SHL SUB AND PUSH4 0x361FEF49 DUP4 DUP4 DUP2 MLOAD DUP2 LT PUSH2 0x881 JUMPI PUSH2 0x881 PUSH2 0x39C9 JUMP JUMPDEST PUSH1 0x20 MUL PUSH1 0x20 ADD ADD MLOAD PUSH1 0x20 ADD MLOAD DUP5 DUP5 DUP2 MLOAD DUP2 LT PUSH2 0x89F JUMPI PUSH2 0x89F PUSH2 0x39C9 JUMP JUMPDEST PUSH1 0x20 MUL PUSH1 0x20 ADD ADD MLOAD PUSH1 0x40 ADD MLOAD PUSH1 0x40 MLOAD DUP4 PUSH4 0xFFFFFFFF AND PUSH1 0xE0 SHL DUP2 MSTORE PUSH1 0x4 ADD PUSH2 0x8C8 SWAP3 SWAP2 SWAP1 PUSH2 0x3AAB JUMP JUMPDEST PUSH1 0x0 PUSH1 0x40 MLOAD DUP1 DUP4 SUB DUP2 PUSH1 0x0 DUP8 DUP1 EXTCODESIZE ISZERO DUP1 ISZERO PUSH2 0x8E2 JUMPI PUSH1 0x0 DUP1 REVERT JUMPDEST POP GAS CALL ISZERO DUP1 ISZERO PUSH2 0x8F6 JUMPI RETURNDATASIZE PUSH1 0x0 DUP1 RETURNDATACOPY RETURNDATASIZE PUSH1 0x0 REVERT JUMPDEST POP POP POP POP DUP1 DUP1 PUSH2 0x905 SWAP1 PUSH2 0x3ADA JUMP JUMPDEST SWAP2 POP POP PUSH2 0x6C5 JUMP JUMPDEST POP POP PUSH1 0x1 DUP1 SSTORE JUMP JUMPDEST PUSH1 0x0 PUSH1 0x2 PUSH1 0x1 SLOAD EQ ISZERO PUSH2 0x93A JUMPI PUSH1 0x40 MLOAD PUSH3 0x461BCD PUSH1 0xE5 SHL DUP2 MSTORE PUSH1 0x4 ADD PUSH2 0x5F4 SWAP1 PUSH2 0x3992 JUMP JUMPDEST PUSH1 0x2 PUSH1 0x1 SSTORE PUSH2 0xA2C PUSH2 0x94C DUP5 DUP1 PUSH2 0x3AF5 JUMP JUMPDEST DUP1 DUP1 PUSH1 0x1F ADD PUSH1 0x20 DUP1 SWAP2 DIV MUL PUSH1 0x20 ADD PUSH1 0x40 MLOAD SWAP1 DUP2 ADD PUSH1 0x40 MSTORE DUP1 SWAP4 SWAP3 SWAP2 SWAP1 DUP2 DUP2 MSTORE PUSH1 0x20 ADD DUP4 DUP4 DUP1 DUP3 DUP5 CALLDATACOPY PUSH1 0x0 SWAP3 ADD SWAP2 SWAP1 SWAP2 MSTORE POP PUSH2 0x98E SWAP3 POP POP POP PUSH1 0x20 DUP7 ADD DUP7 PUSH2 0x3AF5 JUMP JUMPDEST DUP1 DUP1 PUSH1 0x1F ADD PUSH1 0x20 DUP1 SWAP2 DIV MUL PUSH1 0x20 ADD PUSH1 0x40 MLOAD SWAP1 DUP2 ADD PUSH1 0x40 MSTORE DUP1 SWAP4 SWAP3 SWAP2 SWAP1 DUP2 DUP2 MSTORE PUSH1 0x20 ADD DUP4 DUP4 DUP1 DUP3 DUP5 CALLDATACOPY PUSH1 0x0 SWAP3 ADD DUP3 SWAP1 MSTORE POP PUSH1 0x40 DUP11 ADD CALLDATALOAD SWAP4 POP SWAP2 POP ADDRESS SWAP1 POP PUSH2 0x9D7 PUSH1 0x60 DUP11 ADD DUP11 PUSH2 0x3AF5 JUMP JUMPDEST DUP1 DUP1 PUSH1 0x1F ADD PUSH1 0x20 DUP1 SWAP2 DIV MUL PUSH1 0x20 ADD PUSH1 0x40 MLOAD SWAP1 DUP2 ADD PUSH1 0x40 MSTORE DUP1 SWAP4 SWAP3 SWAP2 SWAP1 DUP2 DUP2 MSTORE PUSH1 0x20 ADD DUP4 DUP4 DUP1 DUP3 DUP5 CALLDATACOPY PUSH1 0x0 SWAP3 ADD SWAP2 SWAP1 SWAP2 MSTORE POP PUSH2 0xA1C SWAP3 POP POP POP PUSH1 0xA0 DUP12 ADD PUSH1 0x80 DUP13 ADD PUSH2 0x3B42 JUMP JUMPDEST PUSH2 0x2C8 PUSH1 0xC0 DUP13 ADD PUSH1 0xA0 DUP14 ADD PUSH2 0x2F44 JUMP JUMPDEST SWAP1 POP PUSH1 0x1 PUSH1 0x1 PUSH1 0xA0 SHL SUB DUP2 AND PUSH4 0x1AA3ADF9 PUSH2 0xA4A PUSH1 0x20 DUP6 ADD DUP6 PUSH2 0x3B5F JUMP JUMPDEST PUSH2 0xA57 PUSH1 0x20 DUP7 ADD DUP7 PUSH2 0x3AF5 JUMP JUMPDEST PUSH2 0xA64 PUSH1 0x40 DUP9 ADD DUP9 PUSH2 0x3AF5 JUMP JUMPDEST PUSH2 0xA71 PUSH1 0x60 DUP11 ADD DUP11 PUSH2 0x3AF5 JUMP JUMPDEST PUSH2 0xA7E PUSH1 0x80 DUP13 ADD DUP13 PUSH2 0x3AF5 JUMP JUMPDEST PUSH1 0xA0 DUP14 ADD CALLDATALOAD PUSH2 0xA90 PUSH1 0xC0 DUP16 ADD DUP16 PUSH2 0x3B7A JUMP JUMPDEST PUSH1 0x40 MLOAD DUP14 PUSH4 0xFFFFFFFF AND PUSH1 0xE0 SHL DUP2 MSTORE PUSH1 0x4 ADD PUSH2 0xAB7 SWAP13 SWAP12 SWAP11 SWAP10 SWAP9 SWAP8 SWAP7 SWAP6 SWAP5 SWAP4 SWAP3 SWAP2 SWAP1 PUSH2 0x3BEC JUMP JUMPDEST PUSH1 0x0 PUSH1 0x40 MLOAD DUP1 DUP4 SUB DUP2 PUSH1 0x0 DUP8 DUP1 EXTCODESIZE ISZERO DUP1 ISZERO PUSH2 0xAD1 JUMPI PUSH1 0x0 DUP1 REVERT JUMPDEST POP GAS CALL ISZERO DUP1 ISZERO PUSH2 0xAE5 JUMPI RETURNDATASIZE PUSH1 0x0 DUP1 RETURNDATACOPY RETURNDATASIZE PUSH1 0x0 REVERT JUMPDEST POP POP PUSH1 0x40 MLOAD PUSH4 0x10C414EB PUSH1 0xE2 SHL DUP2 MSTORE ADDRESS PUSH1 0x4 DUP3 ADD MSTORE PUSH1 0x1 PUSH1 0x1 PUSH1 0xA0 SHL SUB DUP5 AND SWAP3 POP PUSH4 0x431053AC SWAP2 POP PUSH1 0x24 ADD PUSH1 0x0 PUSH1 0x40 MLOAD DUP1 DUP4 SUB DUP2 PUSH1 0x0 DUP8 DUP1 EXTCODESIZE ISZERO DUP1 ISZERO PUSH2 0xB2A JUMPI PUSH1 0x0 DUP1 REVERT JUMPDEST POP GAS CALL ISZERO DUP1 ISZERO PUSH2 0xB3E JUMPI RETURNDATASIZE PUSH1 0x0 DUP1 RETURNDATACOPY RETURNDATASIZE PUSH1 0x0 REVERT JUMPDEST POP POP PUSH1 0x1 DUP1 SSTORE POP SWAP1 SWAP4 SWAP3 POP POP POP JUMP JUMPDEST PUSH1 0x0 PUSH1 0x4 SLOAD DUP8 GT ISZERO DUP1 ISZERO PUSH2 0xB60 JUMPI POP DUP7 ISZERO ISZERO JUMPDEST PUSH2 0xB7C JUMPI PUSH1 0x40 MLOAD PUSH3 0x461BCD PUSH1 0xE5 SHL DUP2 MSTORE PUSH1 0x4 ADD PUSH2 0x5F4 SWAP1 PUSH2 0x3CD0 JUMP JUMPDEST PUSH1 0x0 DUP8 DUP2 MSTORE PUSH1 0x5 PUSH1 0x20 SWAP1 DUP2 MSTORE PUSH1 0x40 SWAP2 DUP3 SWAP1 KECCAK256 DUP3 MLOAD DUP1 DUP5 ADD SWAP1 SWAP4 MSTORE SLOAD PUSH1 0x1 PUSH1 0x1 PUSH1 0xA0 SHL SUB DUP2 AND DUP4 MSTORE PUSH1 0x1 PUSH1 0xA0 SHL SWAP1 DIV PUSH1 0xFF AND ISZERO ISZERO SWAP1 DUP3 ADD DUP2 SWAP1 MSTORE PUSH2 0xC18 JUMPI PUSH1 0x40 MLOAD PUSH3 0x461BCD PUSH1 0xE5 SHL DUP2 MSTORE PUSH1 0x20 PUSH1 0x4 DUP3 ADD MSTORE PUSH1 0x2E PUSH1 0x24 DUP3 ADD MSTORE PUSH32 0x4552433732314454466163746F72793A20455243373231546F6B656E2054656D PUSH1 0x44 DUP3 ADD MSTORE PUSH14 0x1C1B185D1948191A5CD8589B1959 PUSH1 0x92 SHL PUSH1 0x64 DUP3 ADD MSTORE PUSH1 0x84 ADD PUSH2 0x5F4 JUMP JUMPDEST PUSH1 0x1 PUSH1 0x1 PUSH1 0xA0 SHL SUB DUP4 AND PUSH2 0xC82 JUMPI PUSH1 0x40 MLOAD PUSH3 0x461BCD PUSH1 0xE5 SHL DUP2 MSTORE PUSH1 0x20 PUSH1 0x4 DUP3 ADD MSTORE PUSH1 0x2B PUSH1 0x24 DUP3 ADD MSTORE PUSH32 0x4552433732314454466163746F72793A20616464726573732830292063616E6E PUSH1 0x44 DUP3 ADD MSTORE PUSH11 0x37BA1031329037BBB732B9 PUSH1 0xA9 SHL PUSH1 0x64 DUP3 ADD MSTORE PUSH1 0x84 ADD PUSH2 0x5F4 JUMP JUMPDEST DUP1 MLOAD PUSH2 0xC8D SWAP1 PUSH2 0x2730 JUMP JUMPDEST SWAP2 POP PUSH1 0x1 PUSH1 0x1 PUSH1 0xA0 SHL SUB DUP3 AND PUSH2 0xD0D JUMPI PUSH1 0x40 DUP1 MLOAD PUSH3 0x461BCD PUSH1 0xE5 SHL DUP2 MSTORE PUSH1 0x20 PUSH1 0x4 DUP3 ADD MSTORE PUSH1 0x24 DUP2 ADD SWAP2 SWAP1 SWAP2 MSTORE PUSH32 0x4552433732314454466163746F72793A204661696C656420746F20706572666F PUSH1 0x44 DUP3 ADD MSTORE PUSH32 0x726D206D696E696D616C206465706C6F79206F662061206E657720746F6B656E PUSH1 0x64 DUP3 ADD MSTORE PUSH1 0x84 ADD PUSH2 0x5F4 JUMP JUMPDEST DUP2 PUSH1 0x7 PUSH1 0x0 DUP5 PUSH1 0x1 PUSH1 0x1 PUSH1 0xA0 SHL SUB AND PUSH1 0x1 PUSH1 0x1 PUSH1 0xA0 SHL SUB AND DUP2 MSTORE PUSH1 0x20 ADD SWAP1 DUP2 MSTORE PUSH1 0x20 ADD PUSH1 0x0 KECCAK256 PUSH1 0x0 PUSH2 0x100 EXP DUP2 SLOAD DUP2 PUSH1 0x1 PUSH1 0x1 PUSH1 0xA0 SHL SUB MUL NOT AND SWAP1 DUP4 PUSH1 0x1 PUSH1 0x1 PUSH1 0xA0 SHL SUB AND MUL OR SWAP1 SSTORE POP CALLER PUSH1 0x1 PUSH1 0x1 PUSH1 0xA0 SHL SUB AND DUP4 PUSH1 0x1 PUSH1 0x1 PUSH1 0xA0 SHL SUB AND DUP3 PUSH1 0x0 ADD MLOAD PUSH1 0x1 PUSH1 0x1 PUSH1 0xA0 SHL SUB AND PUSH32 0x8125264EC1D174CB383EA0646EA1E6921CA3B0ABA20370C8E18389E7C2D6A571 DUP6 DUP15 DUP15 DUP12 DUP12 PUSH1 0x40 MLOAD PUSH2 0xDB0 SWAP6 SWAP5 SWAP4 SWAP3 SWAP2 SWAP1 PUSH2 0x3D1C JUMP JUMPDEST PUSH1 0x40 MLOAD DUP1 SWAP2 SUB SWAP1 LOG4 PUSH1 0x1 PUSH1 0x2 PUSH1 0x0 DUP3 DUP3 SLOAD PUSH2 0xDCB SWAP2 SWAP1 PUSH2 0x3D7B JUMP JUMPDEST SWAP1 SWAP2 SSTORE POP POP PUSH1 0x40 MLOAD PUSH4 0x343AA3D PUSH1 0xE3 SHL DUP2 MSTORE DUP3 SWAP1 PUSH1 0x1 PUSH1 0x1 PUSH1 0xA0 SHL SUB DUP3 AND SWAP1 PUSH4 0x1A1D51E8 SWAP1 PUSH2 0xE0C SWAP1 DUP8 SWAP1 DUP16 SWAP1 DUP16 SWAP1 ADDRESS SWAP1 DUP16 SWAP1 DUP16 SWAP1 DUP16 SWAP1 DUP16 SWAP1 PUSH1 0x4 ADD PUSH2 0x3D93 JUMP JUMPDEST PUSH1 0x20 PUSH1 0x40 MLOAD DUP1 DUP4 SUB DUP2 PUSH1 0x0 DUP8 GAS CALL ISZERO DUP1 ISZERO PUSH2 0xE2B JUMPI RETURNDATASIZE PUSH1 0x0 DUP1 RETURNDATACOPY RETURNDATASIZE PUSH1 0x0 REVERT JUMPDEST POP POP POP POP PUSH1 0x40 MLOAD RETURNDATASIZE PUSH1 0x1F NOT PUSH1 0x1F DUP3 ADD AND DUP3 ADD DUP1 PUSH1 0x40 MSTORE POP DUP2 ADD SWAP1 PUSH2 0xE4F SWAP2 SWAP1 PUSH2 0x3E11 JUMP JUMPDEST PUSH2 0xEB8 JUMPI PUSH1 0x40 MLOAD PUSH3 0x461BCD PUSH1 0xE5 SHL DUP2 MSTORE PUSH1 0x20 PUSH1 0x4 DUP3 ADD MSTORE PUSH1 0x34 PUSH1 0x24 DUP3 ADD MSTORE PUSH32 0x4552433732314454466163746F72793A20556E61626C6520746F20696E697469 PUSH1 0x44 DUP3 ADD MSTORE PUSH20 0x616C697A6520746F6B656E20696E7374616E6365 PUSH1 0x60 SHL PUSH1 0x64 DUP3 ADD MSTORE PUSH1 0x84 ADD PUSH2 0x5F4 JUMP JUMPDEST POP POP SWAP9 SWAP8 POP POP POP POP POP POP POP POP JUMP JUMPDEST PUSH1 0x0 DUP1 PUSH1 0x0 PUSH1 0x2 PUSH1 0x1 SLOAD EQ ISZERO PUSH2 0xEEE JUMPI PUSH1 0x40 MLOAD PUSH3 0x461BCD PUSH1 0xE5 SHL DUP2 MSTORE PUSH1 0x4 ADD PUSH2 0x5F4 SWAP1 PUSH2 0x3992 JUMP JUMPDEST PUSH1 0x2 PUSH1 0x1 SSTORE PUSH2 0xF52 PUSH2 0xF03 PUSH1 0x40 DUP7 ADD DUP7 PUSH2 0x3E2E JUMP JUMPDEST PUSH1 0x1 DUP2 DUP2 LT PUSH2 0xF14 JUMPI PUSH2 0xF14 PUSH2 0x39C9 JUMP JUMPDEST SWAP1 POP PUSH1 0x20 MUL ADD PUSH1 0x20 DUP2 ADD SWAP1 PUSH2 0xF29 SWAP2 SWAP1 PUSH2 0x2F44 JUMP JUMPDEST CALLER ADDRESS PUSH2 0xF35 DUP9 DUP1 PUSH2 0x3E2E JUMP JUMPDEST PUSH1 0x4 DUP2 DUP2 LT PUSH2 0xF46 JUMPI PUSH2 0xF46 PUSH2 0x39C9 JUMP JUMPDEST SWAP1 POP PUSH1 0x20 MUL ADD CALLDATALOAD PUSH2 0x24F7 JUMP JUMPDEST PUSH2 0x1042 PUSH2 0xF5F DUP8 DUP1 PUSH2 0x3AF5 JUMP JUMPDEST DUP1 DUP1 PUSH1 0x1F ADD PUSH1 0x20 DUP1 SWAP2 DIV MUL PUSH1 0x20 ADD PUSH1 0x40 MLOAD SWAP1 DUP2 ADD PUSH1 0x40 MSTORE DUP1 SWAP4 SWAP3 SWAP2 SWAP1 DUP2 DUP2 MSTORE PUSH1 0x20 ADD DUP4 DUP4 DUP1 DUP3 DUP5 CALLDATACOPY PUSH1 0x0 SWAP3 ADD SWAP2 SWAP1 SWAP2 MSTORE POP PUSH2 0xFA1 SWAP3 POP POP POP PUSH1 0x20 DUP10 ADD DUP10 PUSH2 0x3AF5 JUMP JUMPDEST DUP1 DUP1 PUSH1 0x1F ADD PUSH1 0x20 DUP1 SWAP2 DIV MUL PUSH1 0x20 ADD PUSH1 0x40 MLOAD SWAP1 DUP2 ADD PUSH1 0x40 MSTORE DUP1 SWAP4 SWAP3 SWAP2 SWAP1 DUP2 DUP2 MSTORE PUSH1 0x20 ADD DUP4 DUP4 DUP1 DUP3 DUP5 CALLDATACOPY PUSH1 0x0 SWAP3 ADD DUP3 SWAP1 MSTORE POP PUSH1 0x40 DUP14 ADD CALLDATALOAD SWAP4 POP ADDRESS SWAP3 POP SWAP1 POP PUSH2 0xFEA PUSH1 0x60 DUP14 ADD DUP14 PUSH2 0x3AF5 JUMP JUMPDEST DUP1 DUP1 PUSH1 0x1F ADD PUSH1 0x20 DUP1 SWAP2 DIV MUL PUSH1 0x20 ADD PUSH1 0x40 MLOAD SWAP1 DUP2 ADD PUSH1 0x40 MSTORE DUP1 SWAP4 SWAP3 SWAP2 SWAP1 DUP2 DUP2 MSTORE PUSH1 0x20 ADD DUP4 DUP4 DUP1 DUP3 DUP5 CALLDATACOPY PUSH1 0x0 SWAP3 ADD SWAP2 SWAP1 SWAP2 MSTORE POP PUSH2 0x102F SWAP3 POP POP POP PUSH1 0xA0 DUP15 ADD PUSH1 0x80 DUP16 ADD PUSH2 0x3B42 JUMP JUMPDEST DUP14 PUSH1 0xA0 ADD PUSH1 0x20 DUP2 ADD SWAP1 PUSH2 0x2C8 SWAP2 SWAP1 PUSH2 0x2F44 JUMP JUMPDEST SWAP3 POP PUSH1 0x1 PUSH1 0x1 PUSH1 0xA0 SHL SUB DUP4 AND PUSH4 0xE38D7CAD DUP7 CALLDATALOAD PUSH2 0x1062 PUSH1 0x20 DUP10 ADD DUP10 PUSH2 0x3E2E JUMP JUMPDEST PUSH2 0x106F PUSH1 0x40 DUP12 ADD DUP12 PUSH2 0x3E2E JUMP JUMPDEST PUSH2 0x107C PUSH1 0x60 DUP14 ADD DUP14 PUSH2 0x3E2E JUMP JUMPDEST PUSH2 0x1089 PUSH1 0x80 DUP16 ADD DUP16 PUSH2 0x3E2E JUMP JUMPDEST PUSH1 0x40 MLOAD DUP11 PUSH4 0xFFFFFFFF AND PUSH1 0xE0 SHL DUP2 MSTORE PUSH1 0x4 ADD PUSH2 0x10AD SWAP10 SWAP9 SWAP8 SWAP7 SWAP6 SWAP5 SWAP4 SWAP3 SWAP2 SWAP1 PUSH2 0x3F98 JUMP JUMPDEST PUSH1 0x20 PUSH1 0x40 MLOAD DUP1 DUP4 SUB DUP2 PUSH1 0x0 DUP8 GAS CALL ISZERO DUP1 ISZERO PUSH2 0x10CC JUMPI RETURNDATASIZE PUSH1 0x0 DUP1 RETURNDATACOPY RETURNDATASIZE PUSH1 0x0 REVERT JUMPDEST POP POP POP POP PUSH1 0x40 MLOAD RETURNDATASIZE PUSH1 0x1F NOT PUSH1 0x1F DUP3 ADD AND DUP3 ADD DUP1 PUSH1 0x40 MSTORE POP DUP2 ADD SWAP1 PUSH2 0x10F0 SWAP2 SWAP1 PUSH2 0x4049 JUMP JUMPDEST PUSH1 0xB SLOAD SWAP1 SWAP3 POP PUSH2 0x116B SWAP1 PUSH1 0x1 PUSH1 0x1 PUSH1 0xA0 SHL SUB AND PUSH2 0x110D DUP7 DUP1 PUSH2 0x3E2E JUMP JUMPDEST PUSH1 0x4 DUP2 DUP2 LT PUSH2 0x111E JUMPI PUSH2 0x111E PUSH2 0x39C9 JUMP JUMPDEST SWAP1 POP PUSH1 0x20 MUL ADD CALLDATALOAD DUP7 DUP1 PUSH1 0x40 ADD SWAP1 PUSH2 0x1135 SWAP2 SWAP1 PUSH2 0x3E2E JUMP JUMPDEST PUSH1 0x1 DUP2 DUP2 LT PUSH2 0x1146 JUMPI PUSH2 0x1146 PUSH2 0x39C9 JUMP JUMPDEST SWAP1 POP PUSH1 0x20 MUL ADD PUSH1 0x20 DUP2 ADD SWAP1 PUSH2 0x115B SWAP2 SWAP1 PUSH2 0x2F44 JUMP JUMPDEST PUSH1 0x1 PUSH1 0x1 PUSH1 0xA0 SHL SUB AND SWAP2 SWAP1 PUSH2 0x2645 JUMP JUMPDEST PUSH1 0x1 PUSH1 0x1 PUSH1 0xA0 SHL SUB DUP3 AND PUSH4 0x5BFE4DA0 PUSH2 0x1184 DUP7 DUP1 PUSH2 0x3E2E JUMP JUMPDEST PUSH2 0x1191 PUSH1 0x20 DUP10 ADD DUP10 PUSH2 0x3E2E JUMP JUMPDEST PUSH2 0x119E PUSH1 0x40 DUP12 ADD DUP12 PUSH2 0x3E2E JUMP JUMPDEST PUSH1 0x40 MLOAD DUP8 PUSH4 0xFFFFFFFF AND PUSH1 0xE0 SHL DUP2 MSTORE PUSH1 0x4 ADD PUSH2 0x11BF SWAP7 SWAP6 SWAP5 SWAP4 SWAP3 SWAP2 SWAP1 PUSH2 0x4066 JUMP JUMPDEST PUSH1 0x20 PUSH1 0x40 MLOAD DUP1 DUP4 SUB DUP2 PUSH1 0x0 DUP8 GAS CALL ISZERO DUP1 ISZERO PUSH2 0x11DE JUMPI RETURNDATASIZE PUSH1 0x0 DUP1 RETURNDATACOPY RETURNDATASIZE PUSH1 0x0 REVERT JUMPDEST POP POP POP POP PUSH1 0x40 MLOAD RETURNDATASIZE PUSH1 0x1F NOT PUSH1 0x1F DUP3 ADD AND DUP3 ADD DUP1 PUSH1 0x40 MSTORE POP DUP2 ADD SWAP1 PUSH2 0x1202 SWAP2 SWAP1 PUSH2 0x4049 JUMP JUMPDEST PUSH1 0x40 MLOAD PUSH4 0x1FC3D91 PUSH1 0xE7 SHL DUP2 MSTORE ADDRESS PUSH1 0x4 DUP3 ADD MSTORE SWAP1 SWAP2 POP PUSH1 0x1 PUSH1 0x1 PUSH1 0xA0 SHL SUB DUP5 AND SWAP1 PUSH4 0xFE1EC880 SWAP1 PUSH1 0x24 ADD PUSH1 0x0 PUSH1 0x40 MLOAD DUP1 DUP4 SUB DUP2 PUSH1 0x0 DUP8 DUP1 EXTCODESIZE ISZERO DUP1 ISZERO PUSH2 0x1246 JUMPI PUSH1 0x0 DUP1 REVERT JUMPDEST POP GAS CALL ISZERO DUP1 ISZERO PUSH2 0x125A JUMPI RETURNDATASIZE PUSH1 0x0 DUP1 RETURNDATACOPY RETURNDATASIZE PUSH1 0x0 REVERT JUMPDEST POP POP PUSH1 0x1 DUP1 SSTORE POP SWAP3 SWAP7 SWAP2 SWAP6 POP SWAP4 POP SWAP2 POP POP JUMP JUMPDEST CALLER PUSH1 0x0 DUP2 DUP2 MSTORE PUSH1 0x7 PUSH1 0x20 MSTORE PUSH1 0x40 DUP2 KECCAK256 SLOAD SWAP1 SWAP2 PUSH1 0x1 PUSH1 0x1 PUSH1 0xA0 SHL SUB SWAP1 SWAP2 AND EQ PUSH2 0x12F6 JUMPI PUSH1 0x40 MLOAD PUSH3 0x461BCD PUSH1 0xE5 SHL DUP2 MSTORE PUSH1 0x20 PUSH1 0x4 DUP3 ADD MSTORE PUSH1 0x36 PUSH1 0x24 DUP3 ADD MSTORE PUSH32 0x455243373231466163746F72793A204F4E4C592045524337323120494E535441 PUSH1 0x44 DUP3 ADD MSTORE PUSH22 0x4E43452046524F4D20455243373231464143544F5259 PUSH1 0x50 SHL PUSH1 0x64 DUP3 ADD MSTORE PUSH1 0x84 ADD PUSH2 0x5F4 JUMP JUMPDEST PUSH2 0x1304 DUP7 DUP7 DUP7 DUP7 DUP7 CALLER PUSH2 0x27C0 JUMP JUMPDEST SWAP7 SWAP6 POP POP POP POP POP POP JUMP JUMPDEST PUSH1 0x0 SLOAD PUSH1 0x1 PUSH1 0x1 PUSH1 0xA0 SHL SUB AND CALLER EQ PUSH2 0x1338 JUMPI PUSH1 0x40 MLOAD PUSH3 0x461BCD PUSH1 0xE5 SHL DUP2 MSTORE PUSH1 0x4 ADD PUSH2 0x5F4 SWAP1 PUSH2 0x395D JUMP JUMPDEST PUSH2 0x1342 PUSH1 0x0 PUSH2 0x2AA5 JUMP JUMPDEST JUMP JUMPDEST PUSH1 0x0 DUP1 SLOAD PUSH1 0x1 PUSH1 0x1 PUSH1 0xA0 SHL SUB AND CALLER EQ PUSH2 0x136F JUMPI PUSH1 0x40 MLOAD PUSH3 0x461BCD PUSH1 0xE5 SHL DUP2 MSTORE PUSH1 0x4 ADD PUSH2 0x5F4 SWAP1 PUSH2 0x395D JUMP JUMPDEST PUSH1 0x1 PUSH1 0x1 PUSH1 0xA0 SHL SUB DUP3 AND PUSH2 0x13E2 JUMPI PUSH1 0x40 MLOAD PUSH3 0x461BCD PUSH1 0xE5 SHL DUP2 MSTORE PUSH1 0x20 PUSH1 0x4 DUP3 ADD MSTORE PUSH1 0x34 PUSH1 0x24 DUP3 ADD MSTORE PUSH32 0x4552433230466163746F72793A204552433732312074656D706C617465206164 PUSH1 0x44 DUP3 ADD MSTORE PUSH20 0x191C995CDCCA0C0A481393D50810531313D5D151 PUSH1 0x62 SHL PUSH1 0x64 DUP3 ADD MSTORE PUSH1 0x84 ADD PUSH2 0x5F4 JUMP JUMPDEST DUP2 EXTCODESIZE PUSH2 0x1430 JUMPI PUSH1 0x40 MLOAD PUSH3 0x461BCD PUSH1 0xE5 SHL DUP2 MSTORE PUSH1 0x20 PUSH1 0x4 DUP3 ADD MSTORE PUSH1 0x1A PUSH1 0x24 DUP3 ADD MSTORE PUSH32 0x4552433230466163746F72793A204E4F5420434F4E5452414354000000000000 PUSH1 0x44 DUP3 ADD MSTORE PUSH1 0x64 ADD PUSH2 0x5F4 JUMP JUMPDEST PUSH1 0x1 PUSH1 0xA PUSH1 0x0 DUP3 DUP3 SLOAD PUSH2 0x1443 SWAP2 SWAP1 PUSH2 0x3D7B JUMP JUMPDEST SWAP1 SWAP2 SSTORE POP POP PUSH1 0x40 DUP1 MLOAD DUP1 DUP3 ADD DUP3 MSTORE PUSH1 0x1 PUSH1 0x1 PUSH1 0xA0 SHL SUB DUP1 DUP6 AND DUP1 DUP4 MSTORE PUSH1 0x1 PUSH1 0x20 DUP1 DUP6 ADD SWAP2 DUP3 MSTORE PUSH1 0xA DUP1 SLOAD PUSH1 0x0 SWAP1 DUP2 MSTORE PUSH1 0x6 SWAP1 SWAP3 MSTORE DUP7 DUP3 KECCAK256 DUP7 MLOAD DUP2 SLOAD SWAP5 MLOAD ISZERO ISZERO PUSH1 0x1 PUSH1 0xA0 SHL MUL PUSH1 0x1 PUSH1 0x1 PUSH1 0xA8 SHL SUB NOT SWAP1 SWAP6 AND SWAP7 AND SWAP6 SWAP1 SWAP6 OR SWAP3 SWAP1 SWAP3 OR SWAP1 SWAP4 SSTORE SLOAD SWAP4 MLOAD SWAP3 SWAP4 SWAP3 SWAP1 SWAP2 PUSH32 0xDCD16DA87B60CEA6DBD55A83F73B8A4BF9A54655DB58AE0F35B82A2373FC150D SWAP2 LOG3 POP POP PUSH1 0xA SLOAD JUMPDEST SWAP2 SWAP1 POP JUMP JUMPDEST PUSH1 0x0 SLOAD PUSH1 0x1 PUSH1 0x1 PUSH1 0xA0 SHL SUB AND CALLER EQ PUSH2 0x1501 JUMPI PUSH1 0x40 MLOAD PUSH3 0x461BCD PUSH1 0xE5 SHL DUP2 MSTORE PUSH1 0x4 ADD PUSH2 0x5F4 SWAP1 PUSH2 0x395D JUMP JUMPDEST PUSH1 0x4 SLOAD DUP2 GT ISZERO DUP1 ISZERO PUSH2 0x1512 JUMPI POP DUP1 ISZERO ISZERO JUMPDEST PUSH2 0x152E JUMPI PUSH1 0x40 MLOAD PUSH3 0x461BCD PUSH1 0xE5 SHL DUP2 MSTORE PUSH1 0x4 ADD PUSH2 0x5F4 SWAP1 PUSH2 0x3CD0 JUMP JUMPDEST PUSH1 0x0 SWAP1 DUP2 MSTORE PUSH1 0x5 PUSH1 0x20 MSTORE PUSH1 0x40 SWAP1 KECCAK256 DUP1 SLOAD PUSH1 0xFF PUSH1 0xA0 SHL NOT AND SWAP1 SSTORE JUMP JUMPDEST PUSH1 0x0 DUP1 SLOAD PUSH1 0x1 PUSH1 0x1 PUSH1 0xA0 SHL SUB AND CALLER EQ PUSH2 0x1574 JUMPI PUSH1 0x40 MLOAD PUSH3 0x461BCD PUSH1 0xE5 SHL DUP2 MSTORE PUSH1 0x4 ADD PUSH2 0x5F4 SWAP1 PUSH2 0x395D JUMP JUMPDEST PUSH1 0x1 PUSH1 0x1 PUSH1 0xA0 SHL SUB DUP3 AND PUSH2 0x15F0 JUMPI PUSH1 0x40 MLOAD PUSH3 0x461BCD PUSH1 0xE5 SHL DUP2 MSTORE PUSH1 0x20 PUSH1 0x4 DUP3 ADD MSTORE PUSH1 0x37 PUSH1 0x24 DUP3 ADD MSTORE PUSH32 0x4552433732314454466163746F72793A204552433732312074656D706C617465 PUSH1 0x44 DUP3 ADD MSTORE PUSH32 0x2061646472657373283029204E4F5420414C4C4F574544000000000000000000 PUSH1 0x64 DUP3 ADD MSTORE PUSH1 0x84 ADD PUSH2 0x5F4 JUMP JUMPDEST DUP2 EXTCODESIZE PUSH2 0x163E JUMPI PUSH1 0x40 MLOAD PUSH3 0x461BCD PUSH1 0xE5 SHL DUP2 MSTORE PUSH1 0x20 PUSH1 0x4 DUP3 ADD MSTORE PUSH1 0x1B PUSH1 0x24 DUP3 ADD MSTORE PUSH32 0x455243373231466163746F72793A204E4F5420434F4E54524143540000000000 PUSH1 0x44 DUP3 ADD MSTORE PUSH1 0x64 ADD PUSH2 0x5F4 JUMP JUMPDEST PUSH1 0x1 PUSH1 0x4 PUSH1 0x0 DUP3 DUP3 SLOAD PUSH2 0x1651 SWAP2 SWAP1 PUSH2 0x3D7B JUMP JUMPDEST SWAP1 SWAP2 SSTORE POP POP PUSH1 0x40 DUP1 MLOAD DUP1 DUP3 ADD DUP3 MSTORE PUSH1 0x1 PUSH1 0x1 PUSH1 0xA0 SHL SUB DUP1 DUP6 AND DUP1 DUP4 MSTORE PUSH1 0x1 PUSH1 0x20 DUP1 DUP6 ADD SWAP2 DUP3 MSTORE PUSH1 0x4 DUP1 SLOAD PUSH1 0x0 SWAP1 DUP2 MSTORE PUSH1 0x5 SWAP1 SWAP3 MSTORE DUP7 DUP3 KECCAK256 DUP7 MLOAD DUP2 SLOAD SWAP5 MLOAD ISZERO ISZERO PUSH1 0x1 PUSH1 0xA0 SHL MUL PUSH1 0x1 PUSH1 0x1 PUSH1 0xA8 SHL SUB NOT SWAP1 SWAP6 AND SWAP7 AND SWAP6 SWAP1 SWAP6 OR SWAP3 SWAP1 SWAP3 OR SWAP1 SWAP4 SSTORE SLOAD SWAP4 MLOAD SWAP3 SWAP4 SWAP3 SWAP1 SWAP2 PUSH32 0xC0167B92C8EB4A2BAD2C05E0134F076FBA5D3CD54671A3E8EDF13D2E61443BD9 SWAP2 LOG3 POP POP PUSH1 0x4 SLOAD SWAP2 SWAP1 POP JUMP JUMPDEST PUSH1 0x2 PUSH1 0x1 SLOAD EQ ISZERO PUSH2 0x1707 JUMPI PUSH1 0x40 MLOAD PUSH3 0x461BCD PUSH1 0xE5 SHL DUP2 MSTORE PUSH1 0x4 ADD PUSH2 0x5F4 SWAP1 PUSH2 0x3992 JUMP JUMPDEST PUSH1 0x2 PUSH1 0x1 SSTORE DUP1 MLOAD PUSH1 0x32 LT ISZERO PUSH2 0x175E JUMPI PUSH1 0x40 MLOAD PUSH3 0x461BCD PUSH1 0xE5 SHL DUP2 MSTORE PUSH1 0x20 PUSH1 0x4 DUP3 ADD MSTORE PUSH1 0x1E PUSH1 0x24 DUP3 ADD MSTORE PUSH32 0x455243373231466163746F72793A20546F6F204D616E79204F72646572730000 PUSH1 0x44 DUP3 ADD MSTORE PUSH1 0x64 ADD PUSH2 0x5F4 JUMP JUMPDEST PUSH1 0x0 JUMPDEST DUP2 MLOAD DUP2 LT ISZERO PUSH2 0x90D JUMPI PUSH1 0x0 DUP1 PUSH1 0x0 DUP5 DUP5 DUP2 MLOAD DUP2 LT PUSH2 0x1781 JUMPI PUSH2 0x1781 PUSH2 0x39C9 JUMP JUMPDEST PUSH1 0x20 MUL PUSH1 0x20 ADD ADD MLOAD PUSH1 0x0 ADD MLOAD PUSH1 0x1 PUSH1 0x1 PUSH1 0xA0 SHL SUB AND PUSH4 0x397B3743 PUSH1 0x40 MLOAD DUP2 PUSH4 0xFFFFFFFF AND PUSH1 0xE0 SHL DUP2 MSTORE PUSH1 0x4 ADD PUSH1 0x60 PUSH1 0x40 MLOAD DUP1 DUP4 SUB DUP2 DUP7 GAS STATICCALL ISZERO DUP1 ISZERO PUSH2 0x17CA JUMPI RETURNDATASIZE PUSH1 0x0 DUP1 RETURNDATACOPY RETURNDATASIZE PUSH1 0x0 REVERT JUMPDEST POP POP POP POP PUSH1 0x40 MLOAD RETURNDATASIZE PUSH1 0x1F NOT PUSH1 0x1F DUP3 ADD AND DUP3 ADD DUP1 PUSH1 0x40 MSTORE POP DUP2 ADD SWAP1 PUSH2 0x17EE SWAP2 SWAP1 PUSH2 0x40AF JUMP JUMPDEST SWAP3 POP SWAP3 POP SWAP3 POP PUSH1 0x0 DUP2 GT DUP1 ISZERO PUSH2 0x180C JUMPI POP PUSH1 0x1 PUSH1 0x1 PUSH1 0xA0 SHL SUB DUP3 AND ISZERO ISZERO JUMPDEST DUP1 ISZERO PUSH2 0x1820 JUMPI POP PUSH1 0x1 PUSH1 0x1 PUSH1 0xA0 SHL SUB DUP4 AND ISZERO ISZERO JUMPDEST ISZERO PUSH2 0x1863 JUMPI PUSH2 0x1831 DUP3 CALLER ADDRESS DUP5 PUSH2 0x24F7 JUMP JUMPDEST PUSH2 0x1863 DUP6 DUP6 DUP2 MLOAD DUP2 LT PUSH2 0x1846 JUMPI PUSH2 0x1846 PUSH2 0x39C9 JUMP JUMPDEST PUSH1 0x20 SWAP1 DUP2 MUL SWAP2 SWAP1 SWAP2 ADD ADD MLOAD MLOAD PUSH1 0x1 PUSH1 0x1 PUSH1 0xA0 SHL SUB DUP5 AND SWAP1 DUP4 PUSH2 0x2645 JUMP JUMPDEST PUSH1 0x0 DUP6 DUP6 DUP2 MLOAD DUP2 LT PUSH2 0x1877 JUMPI PUSH2 0x1877 PUSH2 0x39C9 JUMP JUMPDEST PUSH1 0x20 MUL PUSH1 0x20 ADD ADD MLOAD PUSH1 0x80 ADD MLOAD PUSH1 0x40 ADD MLOAD GT DUP1 ISZERO PUSH2 0x18C8 JUMPI POP PUSH1 0x0 PUSH1 0x1 PUSH1 0x1 PUSH1 0xA0 SHL SUB AND DUP6 DUP6 DUP2 MLOAD DUP2 LT PUSH2 0x18AC JUMPI PUSH2 0x18AC PUSH2 0x39C9 JUMP JUMPDEST PUSH1 0x20 MUL PUSH1 0x20 ADD ADD MLOAD PUSH1 0x80 ADD MLOAD PUSH1 0x0 ADD MLOAD PUSH1 0x1 PUSH1 0x1 PUSH1 0xA0 SHL SUB AND EQ ISZERO JUMPDEST DUP1 ISZERO PUSH2 0x1908 JUMPI POP PUSH1 0x0 PUSH1 0x1 PUSH1 0x1 PUSH1 0xA0 SHL SUB AND DUP6 DUP6 DUP2 MLOAD DUP2 LT PUSH2 0x18EC JUMPI PUSH2 0x18EC PUSH2 0x39C9 JUMP JUMPDEST PUSH1 0x20 MUL PUSH1 0x20 ADD ADD MLOAD PUSH1 0x80 ADD MLOAD PUSH1 0x20 ADD MLOAD PUSH1 0x1 PUSH1 0x1 PUSH1 0xA0 SHL SUB AND EQ ISZERO JUMPDEST ISZERO PUSH2 0x19D8 JUMPI PUSH2 0x195B DUP6 DUP6 DUP2 MLOAD DUP2 LT PUSH2 0x1922 JUMPI PUSH2 0x1922 PUSH2 0x39C9 JUMP JUMPDEST PUSH1 0x20 MUL PUSH1 0x20 ADD ADD MLOAD PUSH1 0x80 ADD MLOAD PUSH1 0x20 ADD MLOAD CALLER ADDRESS DUP9 DUP9 DUP2 MLOAD DUP2 LT PUSH2 0x1946 JUMPI PUSH2 0x1946 PUSH2 0x39C9 JUMP JUMPDEST PUSH1 0x20 MUL PUSH1 0x20 ADD ADD MLOAD PUSH1 0x80 ADD MLOAD PUSH1 0x40 ADD MLOAD PUSH2 0x24F7 JUMP JUMPDEST PUSH2 0x19D8 DUP6 DUP6 DUP2 MLOAD DUP2 LT PUSH2 0x1970 JUMPI PUSH2 0x1970 PUSH2 0x39C9 JUMP JUMPDEST PUSH1 0x20 MUL PUSH1 0x20 ADD ADD MLOAD PUSH1 0x0 ADD MLOAD DUP7 DUP7 DUP2 MLOAD DUP2 LT PUSH2 0x198E JUMPI PUSH2 0x198E PUSH2 0x39C9 JUMP JUMPDEST PUSH1 0x20 MUL PUSH1 0x20 ADD ADD MLOAD PUSH1 0x80 ADD MLOAD PUSH1 0x40 ADD MLOAD DUP8 DUP8 DUP2 MLOAD DUP2 LT PUSH2 0x19B0 JUMPI PUSH2 0x19B0 PUSH2 0x39C9 JUMP JUMPDEST PUSH1 0x20 MUL PUSH1 0x20 ADD ADD MLOAD PUSH1 0x80 ADD MLOAD PUSH1 0x20 ADD MLOAD PUSH1 0x1 PUSH1 0x1 PUSH1 0xA0 SHL SUB AND PUSH2 0x2645 SWAP1 SWAP3 SWAP2 SWAP1 PUSH4 0xFFFFFFFF AND JUMP JUMPDEST PUSH1 0x0 DUP6 DUP6 DUP2 MLOAD DUP2 LT PUSH2 0x19EC JUMPI PUSH2 0x19EC PUSH2 0x39C9 JUMP JUMPDEST PUSH1 0x20 MUL PUSH1 0x20 ADD ADD MLOAD PUSH1 0x60 ADD MLOAD PUSH1 0x40 ADD MLOAD GT DUP1 ISZERO PUSH2 0x1A3D JUMPI POP PUSH1 0x0 PUSH1 0x1 PUSH1 0x1 PUSH1 0xA0 SHL SUB AND DUP6 DUP6 DUP2 MLOAD DUP2 LT PUSH2 0x1A21 JUMPI PUSH2 0x1A21 PUSH2 0x39C9 JUMP JUMPDEST PUSH1 0x20 MUL PUSH1 0x20 ADD ADD MLOAD PUSH1 0x60 ADD MLOAD PUSH1 0x20 ADD MLOAD PUSH1 0x1 PUSH1 0x1 PUSH1 0xA0 SHL SUB AND EQ ISZERO JUMPDEST DUP1 ISZERO PUSH2 0x1A7D JUMPI POP PUSH1 0x0 PUSH1 0x1 PUSH1 0x1 PUSH1 0xA0 SHL SUB AND DUP6 DUP6 DUP2 MLOAD DUP2 LT PUSH2 0x1A61 JUMPI PUSH2 0x1A61 PUSH2 0x39C9 JUMP JUMPDEST PUSH1 0x20 MUL PUSH1 0x20 ADD ADD MLOAD PUSH1 0x60 ADD MLOAD PUSH1 0x0 ADD MLOAD PUSH1 0x1 PUSH1 0x1 PUSH1 0xA0 SHL SUB AND EQ ISZERO JUMPDEST ISZERO PUSH2 0x1B4D JUMPI PUSH2 0x1AD0 DUP6 DUP6 DUP2 MLOAD DUP2 LT PUSH2 0x1A97 JUMPI PUSH2 0x1A97 PUSH2 0x39C9 JUMP JUMPDEST PUSH1 0x20 MUL PUSH1 0x20 ADD ADD MLOAD PUSH1 0x60 ADD MLOAD PUSH1 0x20 ADD MLOAD CALLER ADDRESS DUP9 DUP9 DUP2 MLOAD DUP2 LT PUSH2 0x1ABB JUMPI PUSH2 0x1ABB PUSH2 0x39C9 JUMP JUMPDEST PUSH1 0x20 MUL PUSH1 0x20 ADD ADD MLOAD PUSH1 0x60 ADD MLOAD PUSH1 0x40 ADD MLOAD PUSH2 0x24F7 JUMP JUMPDEST PUSH2 0x1B4D DUP6 DUP6 DUP2 MLOAD DUP2 LT PUSH2 0x1AE5 JUMPI PUSH2 0x1AE5 PUSH2 0x39C9 JUMP JUMPDEST PUSH1 0x20 MUL PUSH1 0x20 ADD ADD MLOAD PUSH1 0x0 ADD MLOAD DUP7 DUP7 DUP2 MLOAD DUP2 LT PUSH2 0x1B03 JUMPI PUSH2 0x1B03 PUSH2 0x39C9 JUMP JUMPDEST PUSH1 0x20 MUL PUSH1 0x20 ADD ADD MLOAD PUSH1 0x60 ADD MLOAD PUSH1 0x40 ADD MLOAD DUP8 DUP8 DUP2 MLOAD DUP2 LT PUSH2 0x1B25 JUMPI PUSH2 0x1B25 PUSH2 0x39C9 JUMP JUMPDEST PUSH1 0x20 MUL PUSH1 0x20 ADD ADD MLOAD PUSH1 0x60 ADD MLOAD PUSH1 0x20 ADD MLOAD PUSH1 0x1 PUSH1 0x1 PUSH1 0xA0 SHL SUB AND PUSH2 0x2645 SWAP1 SWAP3 SWAP2 SWAP1 PUSH4 0xFFFFFFFF AND JUMP JUMPDEST PUSH2 0x1B7E DUP6 DUP6 DUP2 MLOAD DUP2 LT PUSH2 0x1B62 JUMPI PUSH2 0x1B62 PUSH2 0x39C9 JUMP JUMPDEST PUSH1 0x20 MUL PUSH1 0x20 ADD ADD MLOAD PUSH1 0x0 ADD MLOAD CALLER ADDRESS PUSH8 0xDE0B6B3A7640000 PUSH2 0x24F7 JUMP JUMPDEST DUP5 DUP5 DUP2 MLOAD DUP2 LT PUSH2 0x1B90 JUMPI PUSH2 0x1B90 PUSH2 0x39C9 JUMP JUMPDEST PUSH1 0x20 MUL PUSH1 0x20 ADD ADD MLOAD PUSH1 0x0 ADD MLOAD PUSH1 0x1 PUSH1 0x1 PUSH1 0xA0 SHL SUB AND PUSH4 0x79D9D7F3 DUP7 DUP7 DUP2 MLOAD DUP2 LT PUSH2 0x1BBC JUMPI PUSH2 0x1BBC PUSH2 0x39C9 JUMP JUMPDEST PUSH1 0x20 MUL PUSH1 0x20 ADD ADD MLOAD PUSH1 0x20 ADD MLOAD DUP8 DUP8 DUP2 MLOAD DUP2 LT PUSH2 0x1BDA JUMPI PUSH2 0x1BDA PUSH2 0x39C9 JUMP JUMPDEST PUSH1 0x20 MUL PUSH1 0x20 ADD ADD MLOAD PUSH1 0x40 ADD MLOAD DUP9 DUP9 DUP2 MLOAD DUP2 LT PUSH2 0x1BF8 JUMPI PUSH2 0x1BF8 PUSH2 0x39C9 JUMP JUMPDEST PUSH1 0x20 MUL PUSH1 0x20 ADD ADD MLOAD PUSH1 0x60 ADD MLOAD DUP10 DUP10 DUP2 MLOAD DUP2 LT PUSH2 0x1C16 JUMPI PUSH2 0x1C16 PUSH2 0x39C9 JUMP JUMPDEST PUSH1 0x20 MUL PUSH1 0x20 ADD ADD MLOAD PUSH1 0x80 ADD MLOAD PUSH1 0x40 MLOAD DUP6 PUSH4 0xFFFFFFFF AND PUSH1 0xE0 SHL DUP2 MSTORE PUSH1 0x4 ADD PUSH2 0x1C41 SWAP5 SWAP4 SWAP3 SWAP2 SWAP1 PUSH2 0x40F2 JUMP JUMPDEST PUSH1 0x0 PUSH1 0x40 MLOAD DUP1 DUP4 SUB DUP2 PUSH1 0x0 DUP8 DUP1 EXTCODESIZE ISZERO DUP1 ISZERO PUSH2 0x1C5B JUMPI PUSH1 0x0 DUP1 REVERT JUMPDEST POP GAS CALL ISZERO DUP1 ISZERO PUSH2 0x1C6F JUMPI RETURNDATASIZE PUSH1 0x0 DUP1 RETURNDATACOPY RETURNDATASIZE PUSH1 0x0 REVERT JUMPDEST POP POP POP POP POP POP POP DUP1 DUP1 PUSH2 0x1C81 SWAP1 PUSH2 0x3ADA JUMP JUMPDEST SWAP2 POP POP PUSH2 0x1761 JUMP JUMPDEST PUSH1 0x0 SLOAD PUSH1 0x1 PUSH1 0x1 PUSH1 0xA0 SHL SUB AND CALLER EQ PUSH2 0x1CB3 JUMPI PUSH1 0x40 MLOAD PUSH3 0x461BCD PUSH1 0xE5 SHL DUP2 MSTORE PUSH1 0x4 ADD PUSH2 0x5F4 SWAP1 PUSH2 0x395D JUMP JUMPDEST PUSH1 0x4 SLOAD DUP2 GT ISZERO DUP1 ISZERO PUSH2 0x1CC4 JUMPI POP DUP1 ISZERO ISZERO JUMPDEST PUSH2 0x1CE0 JUMPI PUSH1 0x40 MLOAD PUSH3 0x461BCD PUSH1 0xE5 SHL DUP2 MSTORE PUSH1 0x4 ADD PUSH2 0x5F4 SWAP1 PUSH2 0x3CD0 JUMP JUMPDEST PUSH1 0x0 SWAP1 DUP2 MSTORE PUSH1 0x5 PUSH1 0x20 MSTORE PUSH1 0x40 SWAP1 KECCAK256 DUP1 SLOAD PUSH1 0xFF PUSH1 0xA0 SHL NOT AND PUSH1 0x1 PUSH1 0xA0 SHL OR SWAP1 SSTORE JUMP JUMPDEST PUSH1 0x0 DUP1 PUSH1 0x2 PUSH1 0x1 SLOAD EQ ISZERO PUSH2 0x1D27 JUMPI PUSH1 0x40 MLOAD PUSH3 0x461BCD PUSH1 0xE5 SHL DUP2 MSTORE PUSH1 0x4 ADD PUSH2 0x5F4 SWAP1 PUSH2 0x3992 JUMP JUMPDEST PUSH1 0x2 PUSH1 0x1 SSTORE PUSH2 0x1E19 PUSH2 0x1D39 DUP7 DUP1 PUSH2 0x3AF5 JUMP JUMPDEST DUP1 DUP1 PUSH1 0x1F ADD PUSH1 0x20 DUP1 SWAP2 DIV MUL PUSH1 0x20 ADD PUSH1 0x40 MLOAD SWAP1 DUP2 ADD PUSH1 0x40 MSTORE DUP1 SWAP4 SWAP3 SWAP2 SWAP1 DUP2 DUP2 MSTORE PUSH1 0x20 ADD DUP4 DUP4 DUP1 DUP3 DUP5 CALLDATACOPY PUSH1 0x0 SWAP3 ADD SWAP2 SWAP1 SWAP2 MSTORE POP PUSH2 0x1D7B SWAP3 POP POP POP PUSH1 0x20 DUP9 ADD DUP9 PUSH2 0x3AF5 JUMP JUMPDEST DUP1 DUP1 PUSH1 0x1F ADD PUSH1 0x20 DUP1 SWAP2 DIV MUL PUSH1 0x20 ADD PUSH1 0x40 MLOAD SWAP1 DUP2 ADD PUSH1 0x40 MSTORE DUP1 SWAP4 SWAP3 SWAP2 SWAP1 DUP2 DUP2 MSTORE PUSH1 0x20 ADD DUP4 DUP4 DUP1 DUP3 DUP5 CALLDATACOPY PUSH1 0x0 SWAP3 ADD DUP3 SWAP1 MSTORE POP PUSH1 0x40 DUP13 ADD CALLDATALOAD SWAP4 POP ADDRESS SWAP3 POP SWAP1 POP PUSH2 0x1DC4 PUSH1 0x60 DUP13 ADD DUP13 PUSH2 0x3AF5 JUMP JUMPDEST DUP1 DUP1 PUSH1 0x1F ADD PUSH1 0x20 DUP1 SWAP2 DIV MUL PUSH1 0x20 ADD PUSH1 0x40 MLOAD SWAP1 DUP2 ADD PUSH1 0x40 MSTORE DUP1 SWAP4 SWAP3 SWAP2 SWAP1 DUP2 DUP2 MSTORE PUSH1 0x20 ADD DUP4 DUP4 DUP1 DUP3 DUP5 CALLDATACOPY PUSH1 0x0 SWAP3 ADD SWAP2 SWAP1 SWAP2 MSTORE POP PUSH2 0x1E09 SWAP3 POP POP POP PUSH1 0xA0 DUP14 ADD PUSH1 0x80 DUP15 ADD PUSH2 0x3B42 JUMP JUMPDEST PUSH2 0x2C8 PUSH1 0xC0 DUP15 ADD PUSH1 0xA0 DUP16 ADD PUSH2 0x2F44 JUMP JUMPDEST SWAP2 POP PUSH1 0x1 PUSH1 0x1 PUSH1 0xA0 SHL SUB DUP3 AND PUSH4 0xE38D7CAD DUP6 CALLDATALOAD PUSH2 0x1E39 PUSH1 0x20 DUP9 ADD DUP9 PUSH2 0x3E2E JUMP JUMPDEST PUSH2 0x1E46 PUSH1 0x40 DUP11 ADD DUP11 PUSH2 0x3E2E JUMP JUMPDEST PUSH2 0x1E53 PUSH1 0x60 DUP13 ADD DUP13 PUSH2 0x3E2E JUMP JUMPDEST PUSH2 0x1E60 PUSH1 0x80 DUP15 ADD DUP15 PUSH2 0x3E2E JUMP JUMPDEST PUSH1 0x40 MLOAD DUP11 PUSH4 0xFFFFFFFF AND PUSH1 0xE0 SHL DUP2 MSTORE PUSH1 0x4 ADD PUSH2 0x1E84 SWAP10 SWAP9 SWAP8 SWAP7 SWAP6 SWAP5 SWAP4 SWAP3 SWAP2 SWAP1 PUSH2 0x3F98 JUMP JUMPDEST PUSH1 0x20 PUSH1 0x40 MLOAD DUP1 DUP4 SUB DUP2 PUSH1 0x0 DUP8 GAS CALL ISZERO DUP1 ISZERO PUSH2 0x1EA3 JUMPI RETURNDATASIZE PUSH1 0x0 DUP1 RETURNDATACOPY RETURNDATASIZE PUSH1 0x0 REVERT JUMPDEST POP POP POP POP PUSH1 0x40 MLOAD RETURNDATASIZE PUSH1 0x1F NOT PUSH1 0x1F DUP3 ADD AND DUP3 ADD DUP1 PUSH1 0x40 MSTORE POP DUP2 ADD SWAP1 PUSH2 0x1EC7 SWAP2 SWAP1 PUSH2 0x4049 JUMP JUMPDEST SWAP1 POP PUSH1 0x1 PUSH1 0x1 PUSH1 0xA0 SHL SUB DUP2 AND PUSH4 0x191C918A PUSH2 0x1EE5 PUSH1 0x20 DUP7 ADD DUP7 PUSH2 0x2F44 JUMP JUMPDEST PUSH1 0x20 DUP7 ADD CALLDATALOAD PUSH1 0x40 DUP8 ADD CALLDATALOAD PUSH2 0x1EFF PUSH1 0x80 DUP10 ADD PUSH1 0x60 DUP11 ADD PUSH2 0x3B42 JUMP JUMPDEST PUSH2 0x1F0F PUSH1 0xA0 DUP11 ADD PUSH1 0x80 DUP12 ADD PUSH2 0x2F44 JUMP JUMPDEST PUSH1 0x40 MLOAD PUSH1 0xE0 DUP8 SWAP1 SHL PUSH1 0x1 PUSH1 0x1 PUSH1 0xE0 SHL SUB NOT AND DUP2 MSTORE PUSH1 0x1 PUSH1 0x1 PUSH1 0xA0 SHL SUB SWAP6 DUP7 AND PUSH1 0x4 DUP3 ADD MSTORE PUSH1 0x24 DUP2 ADD SWAP5 SWAP1 SWAP5 MSTORE PUSH1 0x44 DUP5 ADD SWAP3 SWAP1 SWAP3 MSTORE ISZERO ISZERO PUSH1 0x64 DUP4 ADD MSTORE SWAP1 SWAP2 AND PUSH1 0x84 DUP3 ADD MSTORE PUSH1 0xA4 ADD PUSH1 0x0 PUSH1 0x40 MLOAD DUP1 DUP4 SUB DUP2 PUSH1 0x0 DUP8 DUP1 EXTCODESIZE ISZERO DUP1 ISZERO PUSH2 0x1F6F JUMPI PUSH1 0x0 DUP1 REVERT JUMPDEST POP GAS CALL ISZERO DUP1 ISZERO PUSH2 0x1F83 JUMPI RETURNDATASIZE PUSH1 0x0 DUP1 RETURNDATACOPY RETURNDATASIZE PUSH1 0x0 REVERT JUMPDEST POP POP PUSH1 0x40 MLOAD PUSH4 0x1FC3D91 PUSH1 0xE7 SHL DUP2 MSTORE ADDRESS PUSH1 0x4 DUP3 ADD MSTORE PUSH1 0x1 PUSH1 0x1 PUSH1 0xA0 SHL SUB DUP6 AND SWAP3 POP PUSH4 0xFE1EC880 SWAP2 POP PUSH1 0x24 ADD PUSH1 0x0 PUSH1 0x40 MLOAD DUP1 DUP4 SUB DUP2 PUSH1 0x0 DUP8 DUP1 EXTCODESIZE ISZERO DUP1 ISZERO PUSH2 0x1FC8 JUMPI PUSH1 0x0 DUP1 REVERT JUMPDEST POP GAS CALL ISZERO DUP1 ISZERO PUSH2 0x1FDC JUMPI RETURNDATASIZE PUSH1 0x0 DUP1 RETURNDATACOPY RETURNDATASIZE PUSH1 0x0 REVERT JUMPDEST POP POP PUSH1 0x1 DUP1 SSTORE POP SWAP2 SWAP6 SWAP1 SWAP5 POP SWAP3 POP POP POP JUMP JUMPDEST PUSH1 0x0 SLOAD PUSH1 0x1 PUSH1 0x1 PUSH1 0xA0 SHL SUB AND CALLER EQ PUSH2 0x2018 JUMPI PUSH1 0x40 MLOAD PUSH3 0x461BCD PUSH1 0xE5 SHL DUP2 MSTORE PUSH1 0x4 ADD PUSH2 0x5F4 SWAP1 PUSH2 0x395D JUMP JUMPDEST PUSH1 0xA SLOAD DUP2 GT ISZERO DUP1 ISZERO PUSH2 0x2029 JUMPI POP DUP1 ISZERO ISZERO JUMPDEST PUSH2 0x2089 JUMPI PUSH1 0x40 MLOAD PUSH3 0x461BCD PUSH1 0xE5 SHL DUP2 MSTORE PUSH1 0x20 PUSH1 0x4 DUP3 ADD MSTORE PUSH1 0x2B PUSH1 0x24 DUP3 ADD MSTORE PUSH32 0x45524332304454466163746F72793A2054656D706C61746520696E6465782064 PUSH1 0x44 DUP3 ADD MSTORE PUSH11 0x1BD95CDB9D08195E1A5CDD PUSH1 0xAA SHL PUSH1 0x64 DUP3 ADD MSTORE PUSH1 0x84 ADD PUSH2 0x5F4 JUMP JUMPDEST PUSH1 0x0 SWAP1 DUP2 MSTORE PUSH1 0x6 PUSH1 0x20 MSTORE PUSH1 0x40 SWAP1 KECCAK256 DUP1 SLOAD PUSH1 0xFF PUSH1 0xA0 SHL NOT AND PUSH1 0x1 PUSH1 0xA0 SHL OR SWAP1 SSTORE JUMP JUMPDEST PUSH1 0x0 DUP1 PUSH1 0x0 PUSH1 0x2 PUSH1 0x1 SLOAD EQ ISZERO PUSH2 0x20D2 JUMPI PUSH1 0x40 MLOAD PUSH3 0x461BCD PUSH1 0xE5 SHL DUP2 MSTORE PUSH1 0x4 ADD PUSH2 0x5F4 SWAP1 PUSH2 0x3992 JUMP JUMPDEST PUSH1 0x2 PUSH1 0x1 SSTORE PUSH2 0x20E4 PUSH2 0xF5F DUP8 DUP1 PUSH2 0x3AF5 JUMP JUMPDEST SWAP3 POP PUSH1 0x1 PUSH1 0x1 PUSH1 0xA0 SHL SUB DUP4 AND PUSH4 0xE38D7CAD DUP7 CALLDATALOAD PUSH2 0x2104 PUSH1 0x20 DUP10 ADD DUP10 PUSH2 0x3E2E JUMP JUMPDEST PUSH2 0x2111 PUSH1 0x40 DUP12 ADD DUP12 PUSH2 0x3E2E JUMP JUMPDEST PUSH2 0x211E PUSH1 0x60 DUP14 ADD DUP14 PUSH2 0x3E2E JUMP JUMPDEST PUSH2 0x212B PUSH1 0x80 DUP16 ADD DUP16 PUSH2 0x3E2E JUMP JUMPDEST PUSH1 0x40 MLOAD DUP11 PUSH4 0xFFFFFFFF AND PUSH1 0xE0 SHL DUP2 MSTORE PUSH1 0x4 ADD PUSH2 0x214F SWAP10 SWAP9 SWAP8 SWAP7 SWAP6 SWAP5 SWAP4 SWAP3 SWAP2 SWAP1 PUSH2 0x3F98 JUMP JUMPDEST PUSH1 0x20 PUSH1 0x40 MLOAD DUP1 DUP4 SUB DUP2 PUSH1 0x0 DUP8 GAS CALL ISZERO DUP1 ISZERO PUSH2 0x216E JUMPI RETURNDATASIZE PUSH1 0x0 DUP1 RETURNDATACOPY RETURNDATASIZE PUSH1 0x0 REVERT JUMPDEST POP POP POP POP PUSH1 0x40 MLOAD RETURNDATASIZE PUSH1 0x1F NOT PUSH1 0x1F DUP3 ADD AND DUP3 ADD DUP1 PUSH1 0x40 MSTORE POP DUP2 ADD SWAP1 PUSH2 0x2192 SWAP2 SWAP1 PUSH2 0x4049 JUMP JUMPDEST SWAP2 POP PUSH1 0x1 PUSH1 0x1 PUSH1 0xA0 SHL SUB DUP3 AND PUSH4 0x8B96412B PUSH2 0x21B0 PUSH1 0x20 DUP8 ADD DUP8 PUSH2 0x2F44 JUMP JUMPDEST PUSH2 0x21BD PUSH1 0x20 DUP9 ADD DUP9 PUSH2 0x3E2E JUMP JUMPDEST PUSH2 0x21CA PUSH1 0x40 DUP11 ADD DUP11 PUSH2 0x3E2E JUMP JUMPDEST PUSH1 0x40 MLOAD DUP7 PUSH4 0xFFFFFFFF AND PUSH1 0xE0 SHL DUP2 MSTORE PUSH1 0x4 ADD PUSH2 0x21EA SWAP6 SWAP5 SWAP4 SWAP3 SWAP2 SWAP1 PUSH2 0x4145 JUMP JUMPDEST PUSH1 0x20 PUSH1 0x40 MLOAD DUP1 DUP4 SUB DUP2 PUSH1 0x0 DUP8 GAS CALL ISZERO DUP1 ISZERO PUSH2 0x2209 JUMPI RETURNDATASIZE PUSH1 0x0 DUP1 RETURNDATACOPY RETURNDATASIZE PUSH1 0x0 REVERT JUMPDEST POP POP POP POP PUSH1 0x40 MLOAD RETURNDATASIZE PUSH1 0x1F NOT PUSH1 0x1F DUP3 ADD AND DUP3 ADD DUP1 PUSH1 0x40 MSTORE POP DUP2 ADD SWAP1 PUSH2 0x1202 SWAP2 SWAP1 PUSH2 0x4189 JUMP JUMPDEST PUSH1 0x0 SLOAD PUSH1 0x1 PUSH1 0x1 PUSH1 0xA0 SHL SUB AND CALLER EQ PUSH2 0x2257 JUMPI PUSH1 0x40 MLOAD PUSH3 0x461BCD PUSH1 0xE5 SHL DUP2 MSTORE PUSH1 0x4 ADD PUSH2 0x5F4 SWAP1 PUSH2 0x395D JUMP JUMPDEST PUSH1 0x1 PUSH1 0x1 PUSH1 0xA0 SHL SUB DUP2 AND PUSH2 0x22BC JUMPI PUSH1 0x40 MLOAD PUSH3 0x461BCD PUSH1 0xE5 SHL DUP2 MSTORE PUSH1 0x20 PUSH1 0x4 DUP3 ADD MSTORE PUSH1 0x26 PUSH1 0x24 DUP3 ADD MSTORE PUSH32 0x4F776E61626C653A206E6577206F776E657220697320746865207A65726F2061 PUSH1 0x44 DUP3 ADD MSTORE PUSH6 0x646472657373 PUSH1 0xD0 SHL PUSH1 0x64 DUP3 ADD MSTORE PUSH1 0x84 ADD PUSH2 0x5F4 JUMP JUMPDEST PUSH2 0x22C5 DUP2 PUSH2 0x2AA5 JUMP JUMPDEST POP JUMP JUMPDEST PUSH1 0x0 DUP1 PUSH1 0x2 PUSH1 0x1 SLOAD EQ ISZERO PUSH2 0x22EE JUMPI PUSH1 0x40 MLOAD PUSH3 0x461BCD PUSH1 0xE5 SHL DUP2 MSTORE PUSH1 0x4 ADD PUSH2 0x5F4 SWAP1 PUSH2 0x3992 JUMP JUMPDEST PUSH1 0x2 PUSH1 0x1 SSTORE PUSH2 0x23E0 PUSH2 0x2300 DUP6 DUP1 PUSH2 0x3AF5 JUMP JUMPDEST DUP1 DUP1 PUSH1 0x1F ADD PUSH1 0x20 DUP1 SWAP2 DIV MUL PUSH1 0x20 ADD PUSH1 0x40 MLOAD SWAP1 DUP2 ADD PUSH1 0x40 MSTORE DUP1 SWAP4 SWAP3 SWAP2 SWAP1 DUP2 DUP2 MSTORE PUSH1 0x20 ADD DUP4 DUP4 DUP1 DUP3 DUP5 CALLDATACOPY PUSH1 0x0 SWAP3 ADD SWAP2 SWAP1 SWAP2 MSTORE POP PUSH2 0x2342 SWAP3 POP POP POP PUSH1 0x20 DUP8 ADD DUP8 PUSH2 0x3AF5 JUMP JUMPDEST DUP1 DUP1 PUSH1 0x1F ADD PUSH1 0x20 DUP1 SWAP2 DIV MUL PUSH1 0x20 ADD PUSH1 0x40 MLOAD SWAP1 DUP2 ADD PUSH1 0x40 MSTORE DUP1 SWAP4 SWAP3 SWAP2 SWAP1 DUP2 DUP2 MSTORE PUSH1 0x20 ADD DUP4 DUP4 DUP1 DUP3 DUP5 CALLDATACOPY PUSH1 0x0 SWAP3 ADD DUP3 SWAP1 MSTORE POP PUSH1 0x40 DUP12 ADD CALLDATALOAD SWAP4 POP ADDRESS SWAP3 POP SWAP1 POP PUSH2 0x238B PUSH1 0x60 DUP12 ADD DUP12 PUSH2 0x3AF5 JUMP JUMPDEST DUP1 DUP1 PUSH1 0x1F ADD PUSH1 0x20 DUP1 SWAP2 DIV MUL PUSH1 0x20 ADD PUSH1 0x40 MLOAD SWAP1 DUP2 ADD PUSH1 0x40 MSTORE DUP1 SWAP4 SWAP3 SWAP2 SWAP1 DUP2 DUP2 MSTORE PUSH1 0x20 ADD DUP4 DUP4 DUP1 DUP3 DUP5 CALLDATACOPY PUSH1 0x0 SWAP3 ADD SWAP2 SWAP1 SWAP2 MSTORE POP PUSH2 0x23D0 SWAP3 POP POP POP PUSH1 0xA0 DUP13 ADD PUSH1 0x80 DUP14 ADD PUSH2 0x3B42 JUMP JUMPDEST PUSH2 0x2C8 PUSH1 0xC0 DUP14 ADD PUSH1 0xA0 DUP15 ADD PUSH2 0x2F44 JUMP JUMPDEST SWAP2 POP PUSH1 0x1 PUSH1 0x1 PUSH1 0xA0 SHL SUB DUP3 AND PUSH4 0xE38D7CAD DUP5 CALLDATALOAD PUSH2 0x2400 PUSH1 0x20 DUP8 ADD DUP8 PUSH2 0x3E2E JUMP JUMPDEST PUSH2 0x240D PUSH1 0x40 DUP10 ADD DUP10 PUSH2 0x3E2E JUMP JUMPDEST PUSH2 0x241A PUSH1 0x60 DUP12 ADD DUP12 PUSH2 0x3E2E JUMP JUMPDEST PUSH2 0x2427 PUSH1 0x80 DUP14 ADD DUP14 PUSH2 0x3E2E JUMP JUMPDEST PUSH1 0x40 MLOAD DUP11 PUSH4 0xFFFFFFFF AND PUSH1 0xE0 SHL DUP2 MSTORE PUSH1 0x4 ADD PUSH2 0x244B SWAP10 SWAP9 SWAP8 SWAP7 SWAP6 SWAP5 SWAP4 SWAP3 SWAP2 SWAP1 PUSH2 0x3F98 JUMP JUMPDEST PUSH1 0x20 PUSH1 0x40 MLOAD DUP1 DUP4 SUB DUP2 PUSH1 0x0 DUP8 GAS CALL ISZERO DUP1 ISZERO PUSH2 0x246A JUMPI RETURNDATASIZE PUSH1 0x0 DUP1 RETURNDATACOPY RETURNDATASIZE PUSH1 0x0 REVERT JUMPDEST POP POP POP POP PUSH1 0x40 MLOAD RETURNDATASIZE PUSH1 0x1F NOT PUSH1 0x1F DUP3 ADD AND DUP3 ADD DUP1 PUSH1 0x40 MSTORE POP DUP2 ADD SWAP1 PUSH2 0x248E SWAP2 SWAP1 PUSH2 0x4049 JUMP JUMPDEST PUSH1 0x40 MLOAD PUSH4 0x1FC3D91 PUSH1 0xE7 SHL DUP2 MSTORE ADDRESS PUSH1 0x4 DUP3 ADD MSTORE SWAP1 SWAP2 POP PUSH1 0x1 PUSH1 0x1 PUSH1 0xA0 SHL SUB DUP4 AND SWAP1 PUSH4 0xFE1EC880 SWAP1 PUSH1 0x24 ADD PUSH1 0x0 PUSH1 0x40 MLOAD DUP1 DUP4 SUB DUP2 PUSH1 0x0 DUP8 DUP1 EXTCODESIZE ISZERO DUP1 ISZERO PUSH2 0x24D2 JUMPI PUSH1 0x0 DUP1 REVERT JUMPDEST POP GAS CALL ISZERO DUP1 ISZERO PUSH2 0x24E6 JUMPI RETURNDATASIZE PUSH1 0x0 DUP1 RETURNDATACOPY RETURNDATASIZE PUSH1 0x0 REVERT JUMPDEST POP POP PUSH1 0x1 DUP1 SSTORE POP SWAP2 SWAP5 SWAP1 SWAP4 POP SWAP2 POP POP JUMP JUMPDEST PUSH1 0x40 MLOAD PUSH4 0x70A08231 PUSH1 0xE0 SHL DUP2 MSTORE PUSH1 0x1 PUSH1 0x1 PUSH1 0xA0 SHL SUB DUP4 DUP2 AND PUSH1 0x4 DUP4 ADD MSTORE PUSH1 0x0 SWAP2 SWAP1 DUP7 AND SWAP1 PUSH4 0x70A08231 SWAP1 PUSH1 0x24 ADD PUSH1 0x20 PUSH1 0x40 MLOAD DUP1 DUP4 SUB DUP2 DUP7 GAS STATICCALL ISZERO DUP1 ISZERO PUSH2 0x2541 JUMPI RETURNDATASIZE PUSH1 0x0 DUP1 RETURNDATACOPY RETURNDATASIZE PUSH1 0x0 REVERT JUMPDEST POP POP POP POP PUSH1 0x40 MLOAD RETURNDATASIZE PUSH1 0x1F NOT PUSH1 0x1F DUP3 ADD AND DUP3 ADD DUP1 PUSH1 0x40 MSTORE POP DUP2 ADD SWAP1 PUSH2 0x2565 SWAP2 SWAP1 PUSH2 0x4189 JUMP JUMPDEST SWAP1 POP PUSH2 0x257C PUSH1 0x1 PUSH1 0x1 PUSH1 0xA0 SHL SUB DUP7 AND DUP6 DUP6 DUP6 PUSH2 0x2AF5 JUMP JUMPDEST PUSH2 0x2586 DUP2 DUP4 PUSH2 0x2B2D JUMP JUMPDEST PUSH1 0x40 MLOAD PUSH4 0x70A08231 PUSH1 0xE0 SHL DUP2 MSTORE PUSH1 0x1 PUSH1 0x1 PUSH1 0xA0 SHL SUB DUP6 DUP2 AND PUSH1 0x4 DUP4 ADD MSTORE DUP8 AND SWAP1 PUSH4 0x70A08231 SWAP1 PUSH1 0x24 ADD PUSH1 0x20 PUSH1 0x40 MLOAD DUP1 DUP4 SUB DUP2 DUP7 GAS STATICCALL ISZERO DUP1 ISZERO PUSH2 0x25CC JUMPI RETURNDATASIZE PUSH1 0x0 DUP1 RETURNDATACOPY RETURNDATASIZE PUSH1 0x0 REVERT JUMPDEST POP POP POP POP PUSH1 0x40 MLOAD RETURNDATASIZE PUSH1 0x1F NOT PUSH1 0x1F DUP3 ADD AND DUP3 ADD DUP1 PUSH1 0x40 MSTORE POP DUP2 ADD SWAP1 PUSH2 0x25F0 SWAP2 SWAP1 PUSH2 0x4189 JUMP JUMPDEST LT ISZERO PUSH2 0x263E JUMPI PUSH1 0x40 MLOAD PUSH3 0x461BCD PUSH1 0xE5 SHL DUP2 MSTORE PUSH1 0x20 PUSH1 0x4 DUP3 ADD MSTORE PUSH1 0x1A PUSH1 0x24 DUP3 ADD MSTORE PUSH32 0x5472616E7366657220616D6F756E7420697320746F6F206C6F77000000000000 PUSH1 0x44 DUP3 ADD MSTORE PUSH1 0x64 ADD PUSH2 0x5F4 JUMP JUMPDEST POP POP POP POP POP JUMP JUMPDEST PUSH1 0x40 MLOAD PUSH4 0x6EB1769F PUSH1 0xE1 SHL DUP2 MSTORE ADDRESS PUSH1 0x4 DUP3 ADD MSTORE PUSH1 0x1 PUSH1 0x1 PUSH1 0xA0 SHL SUB DUP4 DUP2 AND PUSH1 0x24 DUP4 ADD MSTORE PUSH1 0x0 SWAP2 DUP4 SWAP2 DUP7 AND SWAP1 PUSH4 0xDD62ED3E SWAP1 PUSH1 0x44 ADD PUSH1 0x20 PUSH1 0x40 MLOAD DUP1 DUP4 SUB DUP2 DUP7 GAS STATICCALL ISZERO DUP1 ISZERO PUSH2 0x2696 JUMPI RETURNDATASIZE PUSH1 0x0 DUP1 RETURNDATACOPY RETURNDATASIZE PUSH1 0x0 REVERT JUMPDEST POP POP POP POP PUSH1 0x40 MLOAD RETURNDATASIZE PUSH1 0x1F NOT PUSH1 0x1F DUP3 ADD AND DUP3 ADD DUP1 PUSH1 0x40 MSTORE POP DUP2 ADD SWAP1 PUSH2 0x26BA SWAP2 SWAP1 PUSH2 0x4189 JUMP JUMPDEST PUSH2 0x26C4 SWAP2 SWAP1 PUSH2 0x3D7B JUMP JUMPDEST PUSH1 0x40 MLOAD PUSH1 0x1 PUSH1 0x1 PUSH1 0xA0 SHL SUB DUP6 AND PUSH1 0x24 DUP3 ADD MSTORE PUSH1 0x44 DUP2 ADD DUP3 SWAP1 MSTORE SWAP1 SWAP2 POP PUSH2 0x272A SWAP1 DUP6 SWAP1 PUSH4 0x95EA7B3 PUSH1 0xE0 SHL SWAP1 PUSH1 0x64 ADD JUMPDEST PUSH1 0x40 DUP1 MLOAD PUSH1 0x1F NOT DUP2 DUP5 SUB ADD DUP2 MSTORE SWAP2 SWAP1 MSTORE PUSH1 0x20 DUP2 ADD DUP1 MLOAD PUSH1 0x1 PUSH1 0x1 PUSH1 0xE0 SHL SUB AND PUSH1 0x1 PUSH1 0x1 PUSH1 0xE0 SHL SUB NOT SWAP1 SWAP4 AND SWAP3 SWAP1 SWAP3 OR SWAP1 SWAP2 MSTORE PUSH2 0x2B40 JUMP JUMPDEST POP POP POP POP JUMP JUMPDEST PUSH1 0x0 DUP1 DUP3 PUSH1 0x60 SHL SWAP1 POP PUSH1 0x40 MLOAD PUSH20 0x3D602D80600A3D3981F3363D3D373D3D3D363D73 PUSH1 0x60 SHL DUP2 MSTORE DUP2 PUSH1 0x14 DUP3 ADD MSTORE PUSH15 0x5AF43D82803E903D91602B57FD5BF3 PUSH1 0x88 SHL PUSH1 0x28 DUP3 ADD MSTORE PUSH1 0x37 DUP2 PUSH1 0x0 CREATE PUSH1 0x40 MLOAD PUSH1 0x1 PUSH1 0x1 PUSH1 0xA0 SHL SUB DUP3 AND DUP2 MSTORE SWAP1 SWAP4 POP PUSH32 0x117C72E6C25F0A072E36E148DF71468CE2F3DBE7DEFEC5B2C257A6E3EB65278C SWAP2 POP PUSH1 0x20 ADD PUSH1 0x40 MLOAD DUP1 SWAP2 SUB SWAP1 LOG1 POP SWAP2 SWAP1 POP JUMP JUMPDEST PUSH1 0x0 DUP4 PUSH1 0x0 DUP2 MLOAD DUP2 LT PUSH2 0x27D5 JUMPI PUSH2 0x27D5 PUSH2 0x39C9 JUMP JUMPDEST PUSH1 0x20 MUL PUSH1 0x20 ADD ADD MLOAD PUSH1 0x0 EQ ISZERO PUSH2 0x283B JUMPI PUSH1 0x40 MLOAD PUSH3 0x461BCD PUSH1 0xE5 SHL DUP2 MSTORE PUSH1 0x20 PUSH1 0x4 DUP3 ADD MSTORE PUSH1 0x25 PUSH1 0x24 DUP3 ADD MSTORE PUSH32 0x4552433230466163746F72793A207A65726F20636170206973206E6F7420616C PUSH1 0x44 DUP3 ADD MSTORE PUSH5 0x1B1BDDD959 PUSH1 0xDA SHL PUSH1 0x64 DUP3 ADD MSTORE PUSH1 0x84 ADD PUSH2 0x5F4 JUMP JUMPDEST PUSH1 0xA SLOAD DUP8 GT ISZERO DUP1 ISZERO PUSH2 0x284C JUMPI POP DUP7 ISZERO ISZERO JUMPDEST PUSH2 0x2868 JUMPI PUSH1 0x40 MLOAD PUSH3 0x461BCD PUSH1 0xE5 SHL DUP2 MSTORE PUSH1 0x4 ADD PUSH2 0x5F4 SWAP1 PUSH2 0x3914 JUMP JUMPDEST PUSH1 0x0 DUP8 DUP2 MSTORE PUSH1 0x6 PUSH1 0x20 SWAP1 DUP2 MSTORE PUSH1 0x40 SWAP2 DUP3 SWAP1 KECCAK256 DUP3 MLOAD DUP1 DUP5 ADD SWAP1 SWAP4 MSTORE SLOAD PUSH1 0x1 PUSH1 0x1 PUSH1 0xA0 SHL SUB DUP2 AND DUP4 MSTORE PUSH1 0x1 PUSH1 0xA0 SHL SWAP1 DIV PUSH1 0xFF AND ISZERO ISZERO SWAP1 DUP3 ADD DUP2 SWAP1 MSTORE PUSH2 0x2901 JUMPI PUSH1 0x40 MLOAD PUSH3 0x461BCD PUSH1 0xE5 SHL DUP2 MSTORE PUSH1 0x20 PUSH1 0x4 DUP3 ADD MSTORE PUSH1 0x2B PUSH1 0x24 DUP3 ADD MSTORE PUSH32 0x4552433230466163746F72793A20455243373231546F6B656E2054656D706C61 PUSH1 0x44 DUP3 ADD MSTORE PUSH11 0x1D1948191A5CD8589B1959 PUSH1 0xAA SHL PUSH1 0x64 DUP3 ADD MSTORE PUSH1 0x84 ADD PUSH2 0x5F4 JUMP JUMPDEST DUP1 MLOAD PUSH2 0x290C SWAP1 PUSH2 0x2730 JUMP JUMPDEST PUSH1 0x1 PUSH1 0x1 PUSH1 0xA0 SHL SUB DUP2 AND PUSH1 0x0 DUP2 DUP2 MSTORE PUSH1 0x8 PUSH1 0x20 MSTORE PUSH1 0x40 SWAP1 KECCAK256 DUP1 SLOAD PUSH1 0xFF NOT AND PUSH1 0x1 OR SWAP1 SSTORE SWAP1 SWAP3 POP PUSH2 0x29A4 JUMPI PUSH1 0x40 MLOAD PUSH3 0x461BCD PUSH1 0xE5 SHL DUP2 MSTORE PUSH1 0x20 PUSH1 0x4 DUP3 ADD MSTORE PUSH1 0x3E PUSH1 0x24 DUP3 ADD MSTORE PUSH32 0x455243373231466163746F72793A204661696C656420746F20706572666F726D PUSH1 0x44 DUP3 ADD MSTORE PUSH32 0x206D696E696D616C206465706C6F79206F662061206E657720746F6B656E0000 PUSH1 0x64 DUP3 ADD MSTORE PUSH1 0x84 ADD PUSH2 0x5F4 JUMP JUMPDEST DUP1 PUSH1 0x0 ADD MLOAD PUSH1 0x1 PUSH1 0x1 PUSH1 0xA0 SHL SUB AND DUP3 PUSH1 0x1 PUSH1 0x1 PUSH1 0xA0 SHL SUB AND PUSH32 0x567699DBF7C5F63A51A42FD451F5E065BCA0DFC723ADF2CC498BBB7CFB780B90 DUP10 PUSH1 0x0 DUP2 MLOAD DUP2 LT PUSH2 0x29F0 JUMPI PUSH2 0x29F0 PUSH2 0x39C9 JUMP JUMPDEST PUSH1 0x20 MUL PUSH1 0x20 ADD ADD MLOAD DUP11 PUSH1 0x1 DUP2 MLOAD DUP2 LT PUSH2 0x2A0B JUMPI PUSH2 0x2A0B PUSH2 0x39C9 JUMP JUMPDEST PUSH1 0x20 MUL PUSH1 0x20 ADD ADD MLOAD DUP10 PUSH1 0x0 DUP2 MLOAD DUP2 LT PUSH2 0x2A26 JUMPI PUSH2 0x2A26 PUSH2 0x39C9 JUMP JUMPDEST PUSH1 0x20 MUL PUSH1 0x20 ADD ADD MLOAD DUP9 PUSH1 0x40 MLOAD PUSH2 0x2A3F SWAP5 SWAP4 SWAP3 SWAP2 SWAP1 PUSH2 0x41A2 JUMP JUMPDEST PUSH1 0x40 MLOAD DUP1 SWAP2 SUB SWAP1 LOG3 PUSH1 0x1 PUSH1 0x9 PUSH1 0x0 DUP3 DUP3 SLOAD PUSH2 0x2A5A SWAP2 SWAP1 PUSH2 0x3D7B JUMP JUMPDEST SWAP1 SWAP2 SSTORE POP POP PUSH1 0x40 DUP1 MLOAD PUSH1 0xA0 DUP2 ADD DUP3 MSTORE DUP9 DUP2 MSTORE PUSH1 0x20 DUP2 ADD DUP9 SWAP1 MSTORE SWAP1 DUP2 ADD DUP7 SWAP1 MSTORE PUSH1 0x60 DUP2 ADD DUP6 SWAP1 MSTORE PUSH1 0x1 PUSH1 0x1 PUSH1 0xA0 SHL SUB DUP5 AND PUSH1 0x80 DUP3 ADD MSTORE PUSH2 0x2A99 DUP4 DUP3 PUSH2 0x2C17 JUMP JUMPDEST POP POP SWAP7 SWAP6 POP POP POP POP POP POP JUMP JUMPDEST PUSH1 0x0 DUP1 SLOAD PUSH1 0x1 PUSH1 0x1 PUSH1 0xA0 SHL SUB DUP4 DUP2 AND PUSH1 0x1 PUSH1 0x1 PUSH1 0xA0 SHL SUB NOT DUP4 AND DUP2 OR DUP5 SSTORE PUSH1 0x40 MLOAD SWAP2 SWAP1 SWAP3 AND SWAP3 DUP4 SWAP2 PUSH32 0x8BE0079C531659141344CD1FD0A4F28419497F9722A3DAAFE3B4186F6B6457E0 SWAP2 SWAP1 LOG3 POP POP JUMP JUMPDEST PUSH1 0x40 MLOAD PUSH1 0x1 PUSH1 0x1 PUSH1 0xA0 SHL SUB DUP1 DUP6 AND PUSH1 0x24 DUP4 ADD MSTORE DUP4 AND PUSH1 0x44 DUP3 ADD MSTORE PUSH1 0x64 DUP2 ADD DUP3 SWAP1 MSTORE PUSH2 0x272A SWAP1 DUP6 SWAP1 PUSH4 0x23B872DD PUSH1 0xE0 SHL SWAP1 PUSH1 0x84 ADD PUSH2 0x26F3 JUMP JUMPDEST PUSH1 0x0 PUSH2 0x2B39 DUP3 DUP5 PUSH2 0x3D7B JUMP JUMPDEST SWAP4 SWAP3 POP POP POP JUMP JUMPDEST PUSH1 0x0 PUSH2 0x2B95 DUP3 PUSH1 0x40 MLOAD DUP1 PUSH1 0x40 ADD PUSH1 0x40 MSTORE DUP1 PUSH1 0x20 DUP2 MSTORE PUSH1 0x20 ADD PUSH32 0x5361666545524332303A206C6F772D6C6576656C2063616C6C206661696C6564 DUP2 MSTORE POP DUP6 PUSH1 0x1 PUSH1 0x1 PUSH1 0xA0 SHL SUB AND PUSH2 0x2D93 SWAP1 SWAP3 SWAP2 SWAP1 PUSH4 0xFFFFFFFF AND JUMP JUMPDEST DUP1 MLOAD SWAP1 SWAP2 POP ISZERO PUSH2 0x2C12 JUMPI DUP1 DUP1 PUSH1 0x20 ADD SWAP1 MLOAD DUP2 ADD SWAP1 PUSH2 0x2BB3 SWAP2 SWAP1 PUSH2 0x3E11 JUMP JUMPDEST PUSH2 0x2C12 JUMPI PUSH1 0x40 MLOAD PUSH3 0x461BCD PUSH1 0xE5 SHL DUP2 MSTORE PUSH1 0x20 PUSH1 0x4 DUP3 ADD MSTORE PUSH1 0x2A PUSH1 0x24 DUP3 ADD MSTORE PUSH32 0x5361666545524332303A204552433230206F7065726174696F6E20646964206E PUSH1 0x44 DUP3 ADD MSTORE PUSH10 0x1BDD081CDD58D8D95959 PUSH1 0xB2 SHL PUSH1 0x64 DUP3 ADD MSTORE PUSH1 0x84 ADD PUSH2 0x5F4 JUMP JUMPDEST POP POP POP JUMP JUMPDEST PUSH1 0x40 DUP1 MLOAD PUSH1 0x3 DUP1 DUP3 MSTORE PUSH1 0x80 DUP3 ADD SWAP1 SWAP3 MSTORE DUP4 SWAP2 PUSH1 0x0 SWAP2 SWAP1 PUSH1 0x20 DUP3 ADD PUSH1 0x60 DUP1 CALLDATASIZE DUP4 CALLDATACOPY ADD SWAP1 POP POP SWAP1 POP DUP3 PUSH1 0x80 ADD MLOAD DUP2 PUSH1 0x0 DUP2 MLOAD DUP2 LT PUSH2 0x2C55 JUMPI PUSH2 0x2C55 PUSH2 0x39C9 JUMP JUMPDEST PUSH1 0x1 PUSH1 0x1 PUSH1 0xA0 SHL SUB SWAP3 DUP4 AND PUSH1 0x20 SWAP2 DUP3 MUL SWAP3 SWAP1 SWAP3 ADD ADD MSTORE PUSH1 0xB SLOAD DUP3 MLOAD SWAP2 AND SWAP1 DUP3 SWAP1 PUSH1 0x1 SWAP1 DUP2 LT PUSH2 0x2C86 JUMPI PUSH2 0x2C86 PUSH2 0x39C9 JUMP JUMPDEST PUSH1 0x20 MUL PUSH1 0x20 ADD ADD SWAP1 PUSH1 0x1 PUSH1 0x1 PUSH1 0xA0 SHL SUB AND SWAP1 DUP2 PUSH1 0x1 PUSH1 0x1 PUSH1 0xA0 SHL SUB AND DUP2 MSTORE POP POP DUP2 PUSH1 0x1 PUSH1 0x1 PUSH1 0xA0 SHL SUB AND PUSH4 0xB3998BE0 DUP5 PUSH1 0x0 ADD MLOAD DUP6 PUSH1 0x20 ADD MLOAD DUP5 DUP8 PUSH1 0x40 ADD MLOAD DUP9 PUSH1 0x60 ADD MLOAD PUSH1 0x40 MLOAD DUP7 PUSH4 0xFFFFFFFF AND PUSH1 0xE0 SHL DUP2 MSTORE PUSH1 0x4 ADD PUSH2 0x2CEA SWAP6 SWAP5 SWAP4 SWAP3 SWAP2 SWAP1 PUSH2 0x429A JUMP JUMPDEST PUSH1 0x20 PUSH1 0x40 MLOAD DUP1 DUP4 SUB DUP2 PUSH1 0x0 DUP8 GAS CALL ISZERO DUP1 ISZERO PUSH2 0x2D09 JUMPI RETURNDATASIZE PUSH1 0x0 DUP1 RETURNDATACOPY RETURNDATASIZE PUSH1 0x0 REVERT JUMPDEST POP POP POP POP PUSH1 0x40 MLOAD RETURNDATASIZE PUSH1 0x1F NOT PUSH1 0x1F DUP3 ADD AND DUP3 ADD DUP1 PUSH1 0x40 MSTORE POP DUP2 ADD SWAP1 PUSH2 0x2D2D SWAP2 SWAP1 PUSH2 0x3E11 JUMP JUMPDEST PUSH2 0x272A JUMPI PUSH1 0x40 MLOAD PUSH3 0x461BCD PUSH1 0xE5 SHL DUP2 MSTORE PUSH1 0x20 PUSH1 0x4 DUP3 ADD MSTORE PUSH1 0x31 PUSH1 0x24 DUP3 ADD MSTORE PUSH32 0x4552433230466163746F72793A20556E61626C6520746F20696E697469616C69 PUSH1 0x44 DUP3 ADD MSTORE PUSH17 0x7A6520746F6B656E20696E7374616E6365 PUSH1 0x78 SHL PUSH1 0x64 DUP3 ADD MSTORE PUSH1 0x84 ADD PUSH2 0x5F4 JUMP JUMPDEST PUSH1 0x60 PUSH2 0x2DA2 DUP5 DUP5 PUSH1 0x0 DUP6 PUSH2 0x2DAA JUMP JUMPDEST SWAP5 SWAP4 POP POP POP POP JUMP JUMPDEST PUSH1 0x60 DUP3 SELFBALANCE LT ISZERO PUSH2 0x2E0B JUMPI PUSH1 0x40 MLOAD PUSH3 0x461BCD PUSH1 0xE5 SHL DUP2 MSTORE PUSH1 0x20 PUSH1 0x4 DUP3 ADD MSTORE PUSH1 0x26 PUSH1 0x24 DUP3 ADD MSTORE PUSH32 0x416464726573733A20696E73756666696369656E742062616C616E636520666F PUSH1 0x44 DUP3 ADD MSTORE PUSH6 0x1C8818D85B1B PUSH1 0xD2 SHL PUSH1 0x64 DUP3 ADD MSTORE PUSH1 0x84 ADD PUSH2 0x5F4 JUMP JUMPDEST DUP5 EXTCODESIZE PUSH2 0x2E59 JUMPI PUSH1 0x40 MLOAD PUSH3 0x461BCD PUSH1 0xE5 SHL DUP2 MSTORE PUSH1 0x20 PUSH1 0x4 DUP3 ADD MSTORE PUSH1 0x1D PUSH1 0x24 DUP3 ADD MSTORE PUSH32 0x416464726573733A2063616C6C20746F206E6F6E2D636F6E7472616374000000 PUSH1 0x44 DUP3 ADD MSTORE PUSH1 0x64 ADD PUSH2 0x5F4 JUMP JUMPDEST PUSH1 0x0 DUP1 DUP7 PUSH1 0x1 PUSH1 0x1 PUSH1 0xA0 SHL SUB AND DUP6 DUP8 PUSH1 0x40 MLOAD PUSH2 0x2E75 SWAP2 SWAP1 PUSH2 0x4343 JUMP JUMPDEST PUSH1 0x0 PUSH1 0x40 MLOAD DUP1 DUP4 SUB DUP2 DUP6 DUP8 GAS CALL SWAP3 POP POP POP RETURNDATASIZE DUP1 PUSH1 0x0 DUP2 EQ PUSH2 0x2EB2 JUMPI PUSH1 0x40 MLOAD SWAP2 POP PUSH1 0x1F NOT PUSH1 0x3F RETURNDATASIZE ADD AND DUP3 ADD PUSH1 0x40 MSTORE RETURNDATASIZE DUP3 MSTORE RETURNDATASIZE PUSH1 0x0 PUSH1 0x20 DUP5 ADD RETURNDATACOPY PUSH2 0x2EB7 JUMP JUMPDEST PUSH1 0x60 SWAP2 POP JUMPDEST POP SWAP2 POP SWAP2 POP PUSH2 0x2EC7 DUP3 DUP3 DUP7 PUSH2 0x2ED2 JUMP JUMPDEST SWAP8 SWAP7 POP POP POP POP POP POP POP JUMP JUMPDEST PUSH1 0x60 DUP4 ISZERO PUSH2 0x2EE1 JUMPI POP DUP2 PUSH2 0x2B39 JUMP JUMPDEST DUP3 MLOAD ISZERO PUSH2 0x2EF1 JUMPI DUP3 MLOAD DUP1 DUP5 PUSH1 0x20 ADD REVERT JUMPDEST DUP2 PUSH1 0x40 MLOAD PUSH3 0x461BCD PUSH1 0xE5 SHL DUP2 MSTORE PUSH1 0x4 ADD PUSH2 0x5F4 SWAP2 SWAP1 PUSH2 0x435F JUMP JUMPDEST PUSH1 0x0 PUSH1 0x20 DUP3 DUP5 SUB SLT ISZERO PUSH2 0x2F1D JUMPI PUSH1 0x0 DUP1 REVERT JUMPDEST POP CALLDATALOAD SWAP2 SWAP1 POP JUMP JUMPDEST PUSH1 0x1 PUSH1 0x1 PUSH1 0xA0 SHL SUB DUP2 AND DUP2 EQ PUSH2 0x22C5 JUMPI PUSH1 0x0 DUP1 REVERT JUMPDEST DUP1 CALLDATALOAD PUSH2 0x14D2 DUP2 PUSH2 0x2F24 JUMP JUMPDEST PUSH1 0x0 PUSH1 0x20 DUP3 DUP5 SUB SLT ISZERO PUSH2 0x2F56 JUMPI PUSH1 0x0 DUP1 REVERT JUMPDEST DUP2 CALLDATALOAD PUSH2 0x2B39 DUP2 PUSH2 0x2F24 JUMP JUMPDEST PUSH4 0x4E487B71 PUSH1 0xE0 SHL PUSH1 0x0 MSTORE PUSH1 0x41 PUSH1 0x4 MSTORE PUSH1 0x24 PUSH1 0x0 REVERT JUMPDEST PUSH1 0x40 MLOAD PUSH2 0x100 DUP2 ADD PUSH1 0x1 PUSH1 0x1 PUSH1 0x40 SHL SUB DUP2 GT DUP3 DUP3 LT OR ISZERO PUSH2 0x2F9A JUMPI PUSH2 0x2F9A PUSH2 0x2F61 JUMP JUMPDEST PUSH1 0x40 MSTORE SWAP1 JUMP JUMPDEST PUSH1 0x40 MLOAD PUSH1 0x60 DUP2 ADD PUSH1 0x1 PUSH1 0x1 PUSH1 0x40 SHL SUB DUP2 GT DUP3 DUP3 LT OR ISZERO PUSH2 0x2F9A JUMPI PUSH2 0x2F9A PUSH2 0x2F61 JUMP JUMPDEST PUSH1 0x40 MLOAD PUSH1 0xA0 DUP2 ADD PUSH1 0x1 PUSH1 0x1 PUSH1 0x40 SHL SUB DUP2 GT DUP3 DUP3 LT OR ISZERO PUSH2 0x2F9A JUMPI PUSH2 0x2F9A PUSH2 0x2F61 JUMP JUMPDEST PUSH1 0x40 MLOAD PUSH1 0x1F DUP3 ADD PUSH1 0x1F NOT AND DUP2 ADD PUSH1 0x1 PUSH1 0x1 PUSH1 0x40 SHL SUB DUP2 GT DUP3 DUP3 LT OR ISZERO PUSH2 0x300C JUMPI PUSH2 0x300C PUSH2 0x2F61 JUMP JUMPDEST PUSH1 0x40 MSTORE SWAP2 SWAP1 POP JUMP JUMPDEST PUSH1 0x0 PUSH1 0x1 PUSH1 0x1 PUSH1 0x40 SHL SUB DUP3 GT ISZERO PUSH2 0x302D JUMPI PUSH2 0x302D PUSH2 0x2F61 JUMP JUMPDEST POP PUSH1 0x5 SHL PUSH1 0x20 ADD SWAP1 JUMP JUMPDEST DUP1 CALLDATALOAD PUSH1 0xFF DUP2 AND DUP2 EQ PUSH2 0x14D2 JUMPI PUSH1 0x0 DUP1 REVERT JUMPDEST PUSH1 0x0 DUP3 PUSH1 0x1F DUP4 ADD SLT PUSH2 0x3059 JUMPI PUSH1 0x0 DUP1 REVERT JUMPDEST DUP2 CALLDATALOAD PUSH1 0x1 PUSH1 0x1 PUSH1 0x40 SHL SUB DUP2 GT ISZERO PUSH2 0x3072 JUMPI PUSH2 0x3072 PUSH2 0x2F61 JUMP JUMPDEST PUSH2 0x3085 PUSH1 0x1F DUP3 ADD PUSH1 0x1F NOT AND PUSH1 0x20 ADD PUSH2 0x2FE4 JUMP JUMPDEST DUP2 DUP2 MSTORE DUP5 PUSH1 0x20 DUP4 DUP7 ADD ADD GT ISZERO PUSH2 0x309A JUMPI PUSH1 0x0 DUP1 REVERT JUMPDEST DUP2 PUSH1 0x20 DUP6 ADD PUSH1 0x20 DUP4 ADD CALLDATACOPY PUSH1 0x0 SWAP2 DUP2 ADD PUSH1 0x20 ADD SWAP2 SWAP1 SWAP2 MSTORE SWAP4 SWAP3 POP POP POP JUMP JUMPDEST PUSH1 0x0 PUSH2 0x100 DUP3 DUP5 SUB SLT ISZERO PUSH2 0x30CA JUMPI PUSH1 0x0 DUP1 REVERT JUMPDEST PUSH2 0x30D2 PUSH2 0x2F77 JUMP JUMPDEST SWAP1 POP PUSH2 0x30DD DUP3 PUSH2 0x2F39 JUMP JUMPDEST DUP2 MSTORE PUSH2 0x30EB PUSH1 0x20 DUP4 ADD PUSH2 0x2F39 JUMP JUMPDEST PUSH1 0x20 DUP3 ADD MSTORE PUSH1 0x40 DUP3 ADD CALLDATALOAD PUSH1 0x40 DUP3 ADD MSTORE PUSH2 0x3106 PUSH1 0x60 DUP4 ADD PUSH2 0x3037 JUMP JUMPDEST PUSH1 0x60 DUP3 ADD MSTORE PUSH1 0x80 DUP3 ADD CALLDATALOAD PUSH1 0x80 DUP3 ADD MSTORE PUSH1 0xA0 DUP3 ADD CALLDATALOAD PUSH1 0xA0 DUP3 ADD MSTORE PUSH1 0xC0 DUP3 ADD CALLDATALOAD PUSH1 0xC0 DUP3 ADD MSTORE PUSH1 0xE0 DUP3 ADD CALLDATALOAD PUSH1 0x1 PUSH1 0x1 PUSH1 0x40 SHL SUB DUP2 GT ISZERO PUSH2 0x3142 JUMPI PUSH1 0x0 DUP1 REVERT JUMPDEST PUSH2 0x314E DUP5 DUP3 DUP6 ADD PUSH2 0x3048 JUMP JUMPDEST PUSH1 0xE0 DUP4 ADD MSTORE POP SWAP3 SWAP2 POP POP JUMP JUMPDEST PUSH1 0x0 PUSH1 0x20 DUP1 DUP4 DUP6 SUB SLT ISZERO PUSH2 0x316D JUMPI PUSH1 0x0 DUP1 REVERT JUMPDEST DUP3 CALLDATALOAD PUSH1 0x1 PUSH1 0x1 PUSH1 0x40 SHL SUB DUP1 DUP3 GT ISZERO PUSH2 0x3184 JUMPI PUSH1 0x0 DUP1 REVERT JUMPDEST DUP2 DUP6 ADD SWAP2 POP DUP6 PUSH1 0x1F DUP4 ADD SLT PUSH2 0x3198 JUMPI PUSH1 0x0 DUP1 REVERT JUMPDEST DUP2 CALLDATALOAD PUSH2 0x31AB PUSH2 0x31A6 DUP3 PUSH2 0x3014 JUMP JUMPDEST PUSH2 0x2FE4 JUMP JUMPDEST DUP2 DUP2 MSTORE PUSH1 0x5 SWAP2 SWAP1 SWAP2 SHL DUP4 ADD DUP5 ADD SWAP1 DUP5 DUP2 ADD SWAP1 DUP9 DUP4 GT ISZERO PUSH2 0x31CA JUMPI PUSH1 0x0 DUP1 REVERT JUMPDEST DUP6 DUP6 ADD JUMPDEST DUP4 DUP2 LT ISZERO PUSH2 0x3253 JUMPI DUP1 CALLDATALOAD DUP6 DUP2 GT ISZERO PUSH2 0x31E6 JUMPI PUSH1 0x0 DUP1 DUP2 REVERT JUMPDEST DUP7 ADD PUSH1 0x60 DUP2 DUP13 SUB PUSH1 0x1F NOT ADD DUP2 SGT ISZERO PUSH2 0x31FE JUMPI PUSH1 0x0 DUP1 DUP2 REVERT JUMPDEST PUSH2 0x3206 PUSH2 0x2FA0 JUMP JUMPDEST DUP10 DUP4 ADD CALLDATALOAD PUSH2 0x3213 DUP2 PUSH2 0x2F24 JUMP JUMPDEST DUP2 MSTORE PUSH1 0x40 DUP4 DUP2 ADD CALLDATALOAD DUP12 DUP4 ADD MSTORE SWAP2 DUP4 ADD CALLDATALOAD SWAP2 DUP9 DUP4 GT ISZERO PUSH2 0x3232 JUMPI PUSH1 0x0 DUP1 DUP2 REVERT JUMPDEST PUSH2 0x3240 DUP15 DUP13 DUP6 DUP8 ADD ADD PUSH2 0x30B7 JUMP JUMPDEST SWAP1 DUP3 ADD MSTORE DUP6 MSTORE POP POP SWAP2 DUP7 ADD SWAP2 DUP7 ADD PUSH2 0x31CE JUMP JUMPDEST POP SWAP9 SWAP8 POP POP POP POP POP POP POP POP JUMP JUMPDEST PUSH1 0x0 PUSH1 0xC0 DUP3 DUP5 SUB SLT ISZERO PUSH2 0x3272 JUMPI PUSH1 0x0 DUP1 REVERT JUMPDEST POP SWAP2 SWAP1 POP JUMP JUMPDEST PUSH1 0x0 DUP1 PUSH1 0x40 DUP4 DUP6 SUB SLT ISZERO PUSH2 0x328B JUMPI PUSH1 0x0 DUP1 REVERT JUMPDEST DUP3 CALLDATALOAD PUSH1 0x1 PUSH1 0x1 PUSH1 0x40 SHL SUB DUP1 DUP3 GT ISZERO PUSH2 0x32A2 JUMPI PUSH1 0x0 DUP1 REVERT JUMPDEST PUSH2 0x32AE DUP7 DUP4 DUP8 ADD PUSH2 0x3260 JUMP JUMPDEST SWAP4 POP PUSH1 0x20 DUP6 ADD CALLDATALOAD SWAP2 POP DUP1 DUP3 GT ISZERO PUSH2 0x32C4 JUMPI PUSH1 0x0 DUP1 REVERT JUMPDEST POP DUP4 ADD PUSH1 0xE0 DUP2 DUP7 SUB SLT ISZERO PUSH2 0x32D7 JUMPI PUSH1 0x0 DUP1 REVERT JUMPDEST DUP1 SWAP2 POP POP SWAP3 POP SWAP3 SWAP1 POP JUMP JUMPDEST DUP1 ISZERO ISZERO DUP2 EQ PUSH2 0x22C5 JUMPI PUSH1 0x0 DUP1 REVERT JUMPDEST DUP1 CALLDATALOAD PUSH2 0x14D2 DUP2 PUSH2 0x32E2 JUMP JUMPDEST PUSH1 0x0 DUP1 PUSH1 0x0 DUP1 PUSH1 0x0 DUP1 PUSH1 0x0 DUP1 PUSH2 0x100 DUP10 DUP12 SUB SLT ISZERO PUSH2 0x3318 JUMPI PUSH1 0x0 DUP1 REVERT JUMPDEST DUP9 CALLDATALOAD PUSH1 0x1 PUSH1 0x1 PUSH1 0x40 SHL SUB DUP1 DUP3 GT ISZERO PUSH2 0x332F JUMPI PUSH1 0x0 DUP1 REVERT JUMPDEST PUSH2 0x333B DUP13 DUP4 DUP14 ADD PUSH2 0x3048 JUMP JUMPDEST SWAP10 POP PUSH1 0x20 DUP12 ADD CALLDATALOAD SWAP2 POP DUP1 DUP3 GT ISZERO PUSH2 0x3351 JUMPI PUSH1 0x0 DUP1 REVERT JUMPDEST PUSH2 0x335D DUP13 DUP4 DUP14 ADD PUSH2 0x3048 JUMP JUMPDEST SWAP9 POP PUSH1 0x40 DUP12 ADD CALLDATALOAD SWAP8 POP PUSH2 0x3372 PUSH1 0x60 DUP13 ADD PUSH2 0x2F39 JUMP JUMPDEST SWAP7 POP PUSH2 0x3380 PUSH1 0x80 DUP13 ADD PUSH2 0x2F39 JUMP JUMPDEST SWAP6 POP PUSH1 0xA0 DUP12 ADD CALLDATALOAD SWAP2 POP DUP1 DUP3 GT ISZERO PUSH2 0x3396 JUMPI PUSH1 0x0 DUP1 REVERT JUMPDEST POP PUSH2 0x33A3 DUP12 DUP3 DUP13 ADD PUSH2 0x3048 JUMP JUMPDEST SWAP4 POP POP PUSH2 0x33B2 PUSH1 0xC0 DUP11 ADD PUSH2 0x32F0 JUMP JUMPDEST SWAP2 POP PUSH2 0x33C0 PUSH1 0xE0 DUP11 ADD PUSH2 0x2F39 JUMP JUMPDEST SWAP1 POP SWAP3 SWAP6 SWAP9 POP SWAP3 SWAP6 SWAP9 SWAP1 SWAP4 SWAP7 POP JUMP JUMPDEST PUSH1 0x0 PUSH1 0xA0 DUP3 DUP5 SUB SLT ISZERO PUSH2 0x3272 JUMPI PUSH1 0x0 DUP1 REVERT JUMPDEST PUSH1 0x0 PUSH1 0x60 DUP3 DUP5 SUB SLT ISZERO PUSH2 0x3272 JUMPI PUSH1 0x0 DUP1 REVERT JUMPDEST PUSH1 0x0 DUP1 PUSH1 0x0 PUSH1 0x60 DUP5 DUP7 SUB SLT ISZERO PUSH2 0x3408 JUMPI PUSH1 0x0 DUP1 REVERT JUMPDEST DUP4 CALLDATALOAD PUSH1 0x1 PUSH1 0x1 PUSH1 0x40 SHL SUB DUP1 DUP3 GT ISZERO PUSH2 0x341F JUMPI PUSH1 0x0 DUP1 REVERT JUMPDEST PUSH2 0x342B DUP8 DUP4 DUP9 ADD PUSH2 0x3260 JUMP JUMPDEST SWAP5 POP PUSH1 0x20 DUP7 ADD CALLDATALOAD SWAP2 POP DUP1 DUP3 GT ISZERO PUSH2 0x3441 JUMPI PUSH1 0x0 DUP1 REVERT JUMPDEST PUSH2 0x344D DUP8 DUP4 DUP9 ADD PUSH2 0x33CF JUMP JUMPDEST SWAP4 POP PUSH1 0x40 DUP7 ADD CALLDATALOAD SWAP2 POP DUP1 DUP3 GT ISZERO PUSH2 0x3463 JUMPI PUSH1 0x0 DUP1 REVERT JUMPDEST POP PUSH2 0x3470 DUP7 DUP3 DUP8 ADD PUSH2 0x33E1 JUMP JUMPDEST SWAP2 POP POP SWAP3 POP SWAP3 POP SWAP3 JUMP JUMPDEST PUSH1 0x0 DUP3 PUSH1 0x1F DUP4 ADD SLT PUSH2 0x348B JUMPI PUSH1 0x0 DUP1 REVERT JUMPDEST DUP2 CALLDATALOAD PUSH1 0x20 PUSH2 0x349B PUSH2 0x31A6 DUP4 PUSH2 0x3014 JUMP JUMPDEST DUP3 DUP2 MSTORE PUSH1 0x5 SWAP3 SWAP1 SWAP3 SHL DUP5 ADD DUP2 ADD SWAP2 DUP2 DUP2 ADD SWAP1 DUP7 DUP5 GT ISZERO PUSH2 0x34BA JUMPI PUSH1 0x0 DUP1 REVERT JUMPDEST DUP3 DUP7 ADD JUMPDEST DUP5 DUP2 LT ISZERO PUSH2 0x34DE JUMPI DUP1 CALLDATALOAD PUSH2 0x34D1 DUP2 PUSH2 0x2F24 JUMP JUMPDEST DUP4 MSTORE SWAP2 DUP4 ADD SWAP2 DUP4 ADD PUSH2 0x34BE JUMP JUMPDEST POP SWAP7 SWAP6 POP POP POP POP POP POP JUMP JUMPDEST PUSH1 0x0 DUP3 PUSH1 0x1F DUP4 ADD SLT PUSH2 0x34FA JUMPI PUSH1 0x0 DUP1 REVERT JUMPDEST DUP2 CALLDATALOAD PUSH1 0x20 PUSH2 0x350A PUSH2 0x31A6 DUP4 PUSH2 0x3014 JUMP JUMPDEST DUP3 DUP2 MSTORE PUSH1 0x5 SWAP3 SWAP1 SWAP3 SHL DUP5 ADD DUP2 ADD SWAP2 DUP2 DUP2 ADD SWAP1 DUP7 DUP5 GT ISZERO PUSH2 0x3529 JUMPI PUSH1 0x0 DUP1 REVERT JUMPDEST DUP3 DUP7 ADD JUMPDEST DUP5 DUP2 LT ISZERO PUSH2 0x34DE JUMPI DUP1 CALLDATALOAD DUP4 MSTORE SWAP2 DUP4 ADD SWAP2 DUP4 ADD PUSH2 0x352D JUMP JUMPDEST PUSH1 0x0 DUP3 PUSH1 0x1F DUP4 ADD SLT PUSH2 0x3555 JUMPI PUSH1 0x0 DUP1 REVERT JUMPDEST DUP2 CALLDATALOAD PUSH1 0x20 PUSH2 0x3565 PUSH2 0x31A6 DUP4 PUSH2 0x3014 JUMP JUMPDEST DUP3 DUP2 MSTORE PUSH1 0x5 SWAP3 SWAP1 SWAP3 SHL DUP5 ADD DUP2 ADD SWAP2 DUP2 DUP2 ADD SWAP1 DUP7 DUP5 GT ISZERO PUSH2 0x3584 JUMPI PUSH1 0x0 DUP1 REVERT JUMPDEST DUP3 DUP7 ADD JUMPDEST DUP5 DUP2 LT ISZERO PUSH2 0x34DE JUMPI DUP1 CALLDATALOAD PUSH1 0x1 PUSH1 0x1 PUSH1 0x40 SHL SUB DUP2 GT ISZERO PUSH2 0x35A7 JUMPI PUSH1 0x0 DUP1 DUP2 REVERT JUMPDEST PUSH2 0x35B5 DUP10 DUP7 DUP4 DUP12 ADD ADD PUSH2 0x3048 JUMP JUMPDEST DUP5 MSTORE POP SWAP2 DUP4 ADD SWAP2 DUP4 ADD PUSH2 0x3588 JUMP JUMPDEST PUSH1 0x0 DUP1 PUSH1 0x0 DUP1 PUSH1 0x0 PUSH1 0xA0 DUP7 DUP9 SUB SLT ISZERO PUSH2 0x35DB JUMPI PUSH1 0x0 DUP1 REVERT JUMPDEST DUP6 CALLDATALOAD SWAP5 POP PUSH1 0x20 DUP1 DUP8 ADD CALLDATALOAD PUSH1 0x1 PUSH1 0x1 PUSH1 0x40 SHL SUB DUP1 DUP3 GT ISZERO PUSH2 0x35FA JUMPI PUSH1 0x0 DUP1 REVERT JUMPDEST DUP2 DUP10 ADD SWAP2 POP DUP10 PUSH1 0x1F DUP4 ADD SLT PUSH2 0x360E JUMPI PUSH1 0x0 DUP1 REVERT JUMPDEST DUP2 CALLDATALOAD PUSH2 0x361C PUSH2 0x31A6 DUP3 PUSH2 0x3014 JUMP JUMPDEST DUP2 DUP2 MSTORE PUSH1 0x5 SWAP2 SWAP1 SWAP2 SHL DUP4 ADD DUP5 ADD SWAP1 DUP5 DUP2 ADD SWAP1 DUP13 DUP4 GT ISZERO PUSH2 0x363B JUMPI PUSH1 0x0 DUP1 REVERT JUMPDEST DUP6 DUP6 ADD JUMPDEST DUP4 DUP2 LT ISZERO PUSH2 0x3673 JUMPI DUP1 CALLDATALOAD DUP6 DUP2 GT ISZERO PUSH2 0x3657 JUMPI PUSH1 0x0 DUP1 DUP2 REVERT JUMPDEST PUSH2 0x3665 DUP16 DUP10 DUP4 DUP11 ADD ADD PUSH2 0x3048 JUMP JUMPDEST DUP5 MSTORE POP SWAP2 DUP7 ADD SWAP2 DUP7 ADD PUSH2 0x363F JUMP JUMPDEST POP SWAP9 POP POP POP PUSH1 0x40 DUP10 ADD CALLDATALOAD SWAP3 POP DUP1 DUP4 GT ISZERO PUSH2 0x368C JUMPI PUSH1 0x0 DUP1 REVERT JUMPDEST PUSH2 0x3698 DUP11 DUP5 DUP12 ADD PUSH2 0x347A JUMP JUMPDEST SWAP6 POP PUSH1 0x60 DUP10 ADD CALLDATALOAD SWAP3 POP DUP1 DUP4 GT ISZERO PUSH2 0x36AE JUMPI PUSH1 0x0 DUP1 REVERT JUMPDEST PUSH2 0x36BA DUP11 DUP5 DUP12 ADD PUSH2 0x34E9 JUMP JUMPDEST SWAP5 POP PUSH1 0x80 DUP10 ADD CALLDATALOAD SWAP3 POP DUP1 DUP4 GT ISZERO PUSH2 0x36D0 JUMPI PUSH1 0x0 DUP1 REVERT JUMPDEST POP POP PUSH2 0x36DE DUP9 DUP3 DUP10 ADD PUSH2 0x3544 JUMP JUMPDEST SWAP2 POP POP SWAP3 SWAP6 POP SWAP3 SWAP6 SWAP1 SWAP4 POP JUMP JUMPDEST PUSH1 0x0 PUSH1 0x20 DUP1 DUP4 DUP6 SUB SLT ISZERO PUSH2 0x36FE JUMPI PUSH1 0x0 DUP1 REVERT JUMPDEST DUP3 CALLDATALOAD PUSH1 0x1 PUSH1 0x1 PUSH1 0x40 SHL SUB DUP1 DUP3 GT ISZERO PUSH2 0x3715 JUMPI PUSH1 0x0 DUP1 REVERT JUMPDEST DUP2 DUP6 ADD SWAP2 POP DUP6 PUSH1 0x1F DUP4 ADD SLT PUSH2 0x3729 JUMPI PUSH1 0x0 DUP1 REVERT JUMPDEST DUP2 CALLDATALOAD PUSH2 0x3737 PUSH2 0x31A6 DUP3 PUSH2 0x3014 JUMP JUMPDEST DUP2 DUP2 MSTORE PUSH1 0x5 SWAP2 SWAP1 SWAP2 SHL DUP4 ADD DUP5 ADD SWAP1 DUP5 DUP2 ADD SWAP1 DUP9 DUP4 GT ISZERO PUSH2 0x3756 JUMPI PUSH1 0x0 DUP1 REVERT JUMPDEST DUP6 DUP6 ADD JUMPDEST DUP4 DUP2 LT ISZERO PUSH2 0x3253 JUMPI DUP1 CALLDATALOAD DUP6 DUP2 GT ISZERO PUSH2 0x3771 JUMPI PUSH1 0x0 DUP1 REVERT JUMPDEST DUP7 ADD DUP1 DUP12 SUB PUSH1 0xE0 PUSH1 0x1F NOT DUP3 ADD SLT ISZERO PUSH2 0x3788 JUMPI PUSH1 0x0 DUP1 REVERT JUMPDEST PUSH2 0x3790 PUSH2 0x2FC2 JUMP JUMPDEST DUP10 DUP4 ADD CALLDATALOAD PUSH2 0x379D DUP2 PUSH2 0x2F24 JUMP JUMPDEST DUP2 MSTORE PUSH1 0x40 DUP4 ADD CALLDATALOAD PUSH2 0x37AD DUP2 PUSH2 0x2F24 JUMP JUMPDEST DUP2 DUP12 ADD MSTORE PUSH1 0x60 DUP4 DUP2 ADD CALLDATALOAD PUSH1 0x40 DUP4 ADD MSTORE PUSH1 0x80 DUP5 ADD CALLDATALOAD DUP10 DUP2 GT ISZERO PUSH2 0x37CE JUMPI PUSH1 0x0 DUP1 REVERT JUMPDEST PUSH2 0x37DC DUP16 DUP14 DUP4 DUP9 ADD ADD PUSH2 0x30B7 JUMP JUMPDEST DUP3 DUP5 ADD MSTORE POP DUP1 PUSH1 0x9F NOT DUP5 ADD SLT ISZERO PUSH2 0x37F2 JUMPI PUSH1 0x0 DUP1 REVERT JUMPDEST POP PUSH2 0x37FB PUSH2 0x2FA0 JUMP JUMPDEST SWAP2 POP PUSH1 0xA0 DUP4 ADD CALLDATALOAD PUSH2 0x380B DUP2 PUSH2 0x2F24 JUMP JUMPDEST DUP3 MSTORE PUSH1 0xC0 DUP4 ADD CALLDATALOAD PUSH2 0x381B DUP2 PUSH2 0x2F24 JUMP JUMPDEST DUP3 DUP12 ADD MSTORE PUSH1 0xE0 SWAP3 SWAP1 SWAP3 ADD CALLDATALOAD PUSH1 0x40 DUP3 ADD MSTORE PUSH1 0x80 DUP3 ADD MSTORE DUP4 MSTORE SWAP2 DUP7 ADD SWAP2 DUP7 ADD PUSH2 0x375A JUMP JUMPDEST PUSH1 0x0 DUP1 PUSH1 0x0 PUSH1 0xE0 DUP5 DUP7 SUB SLT ISZERO PUSH2 0x3852 JUMPI PUSH1 0x0 DUP1 REVERT JUMPDEST DUP4 CALLDATALOAD PUSH1 0x1 PUSH1 0x1 PUSH1 0x40 SHL SUB DUP1 DUP3 GT ISZERO PUSH2 0x3869 JUMPI PUSH1 0x0 DUP1 REVERT JUMPDEST PUSH2 0x3875 DUP8 DUP4 DUP9 ADD PUSH2 0x3260 JUMP JUMPDEST SWAP5 POP PUSH1 0x20 DUP7 ADD CALLDATALOAD SWAP2 POP DUP1 DUP3 GT ISZERO PUSH2 0x388B JUMPI PUSH1 0x0 DUP1 REVERT JUMPDEST POP PUSH2 0x3898 DUP7 DUP3 DUP8 ADD PUSH2 0x33CF JUMP JUMPDEST SWAP3 POP POP PUSH2 0x38A8 DUP6 PUSH1 0x40 DUP7 ADD PUSH2 0x33CF JUMP JUMPDEST SWAP1 POP SWAP3 POP SWAP3 POP SWAP3 JUMP JUMPDEST PUSH1 0x0 DUP1 PUSH1 0x40 DUP4 DUP6 SUB SLT ISZERO PUSH2 0x38C4 JUMPI PUSH1 0x0 DUP1 REVERT JUMPDEST DUP3 CALLDATALOAD PUSH1 0x1 PUSH1 0x1 PUSH1 0x40 SHL SUB DUP1 DUP3 GT ISZERO PUSH2 0x38DB JUMPI PUSH1 0x0 DUP1 REVERT JUMPDEST PUSH2 0x38E7 DUP7 DUP4 DUP8 ADD PUSH2 0x3260 JUMP JUMPDEST SWAP4 POP PUSH1 0x20 DUP6 ADD CALLDATALOAD SWAP2 POP DUP1 DUP3 GT ISZERO PUSH2 0x38FD JUMPI PUSH1 0x0 DUP1 REVERT JUMPDEST POP PUSH2 0x390A DUP6 DUP3 DUP7 ADD PUSH2 0x33CF JUMP JUMPDEST SWAP2 POP POP SWAP3 POP SWAP3 SWAP1 POP JUMP JUMPDEST PUSH1 0x20 DUP1 DUP3 MSTORE PUSH1 0x29 SWAP1 DUP3 ADD MSTORE PUSH32 0x4552433230466163746F72793A2054656D706C61746520696E64657820646F65 PUSH1 0x40 DUP3 ADD MSTORE PUSH9 0x1CDB9D08195E1A5CDD PUSH1 0xBA SHL PUSH1 0x60 DUP3 ADD MSTORE PUSH1 0x80 ADD SWAP1 JUMP JUMPDEST PUSH1 0x20 DUP1 DUP3 MSTORE DUP2 DUP2 ADD MSTORE PUSH32 0x4F776E61626C653A2063616C6C6572206973206E6F7420746865206F776E6572 PUSH1 0x40 DUP3 ADD MSTORE PUSH1 0x60 ADD SWAP1 JUMP JUMPDEST PUSH1 0x20 DUP1 DUP3 MSTORE PUSH1 0x1F SWAP1 DUP3 ADD MSTORE PUSH32 0x5265656E7472616E637947756172643A207265656E7472616E742063616C6C00 PUSH1 0x40 DUP3 ADD MSTORE PUSH1 0x60 ADD SWAP1 JUMP JUMPDEST PUSH4 0x4E487B71 PUSH1 0xE0 SHL PUSH1 0x0 MSTORE PUSH1 0x32 PUSH1 0x4 MSTORE PUSH1 0x24 PUSH1 0x0 REVERT JUMPDEST PUSH1 0x0 JUMPDEST DUP4 DUP2 LT ISZERO PUSH2 0x39FA JUMPI DUP2 DUP2 ADD MLOAD DUP4 DUP3 ADD MSTORE PUSH1 0x20 ADD PUSH2 0x39E2 JUMP JUMPDEST DUP4 DUP2 GT ISZERO PUSH2 0x272A JUMPI POP POP PUSH1 0x0 SWAP2 ADD MSTORE JUMP JUMPDEST PUSH1 0x0 DUP2 MLOAD DUP1 DUP5 MSTORE PUSH2 0x3A23 DUP2 PUSH1 0x20 DUP7 ADD PUSH1 0x20 DUP7 ADD PUSH2 0x39DF JUMP JUMPDEST PUSH1 0x1F ADD PUSH1 0x1F NOT AND SWAP3 SWAP1 SWAP3 ADD PUSH1 0x20 ADD SWAP3 SWAP2 POP POP JUMP JUMPDEST PUSH1 0x0 PUSH2 0x100 PUSH1 0x1 DUP1 PUSH1 0xA0 SHL SUB DUP1 DUP5 MLOAD AND DUP6 MSTORE DUP1 PUSH1 0x20 DUP6 ADD MLOAD AND PUSH1 0x20 DUP7 ADD MSTORE POP PUSH1 0x40 DUP4 ADD MLOAD PUSH1 0x40 DUP6 ADD MSTORE PUSH1 0xFF PUSH1 0x60 DUP5 ADD MLOAD AND PUSH1 0x60 DUP6 ADD MSTORE PUSH1 0x80 DUP4 ADD MLOAD PUSH1 0x80 DUP6 ADD MSTORE PUSH1 0xA0 DUP4 ADD MLOAD PUSH1 0xA0 DUP6 ADD MSTORE PUSH1 0xC0 DUP4 ADD MLOAD PUSH1 0xC0 DUP6 ADD MSTORE PUSH1 0xE0 DUP4 ADD MLOAD DUP2 PUSH1 0xE0 DUP7 ADD MSTORE PUSH2 0x3AA2 DUP3 DUP7 ADD DUP3 PUSH2 0x3A0B JUMP JUMPDEST SWAP6 SWAP5 POP POP POP POP POP JUMP JUMPDEST DUP3 DUP2 MSTORE PUSH1 0x40 PUSH1 0x20 DUP3 ADD MSTORE PUSH1 0x0 PUSH2 0x2DA2 PUSH1 0x40 DUP4 ADD DUP5 PUSH2 0x3A37 JUMP JUMPDEST PUSH4 0x4E487B71 PUSH1 0xE0 SHL PUSH1 0x0 MSTORE PUSH1 0x11 PUSH1 0x4 MSTORE PUSH1 0x24 PUSH1 0x0 REVERT JUMPDEST PUSH1 0x0 PUSH1 0x0 NOT DUP3 EQ ISZERO PUSH2 0x3AEE JUMPI PUSH2 0x3AEE PUSH2 0x3AC4 JUMP JUMPDEST POP PUSH1 0x1 ADD SWAP1 JUMP JUMPDEST PUSH1 0x0 DUP1 DUP4 CALLDATALOAD PUSH1 0x1E NOT DUP5 CALLDATASIZE SUB ADD DUP2 SLT PUSH2 0x3B0C JUMPI PUSH1 0x0 DUP1 REVERT JUMPDEST DUP4 ADD DUP1 CALLDATALOAD SWAP2 POP PUSH1 0x1 PUSH1 0x1 PUSH1 0x40 SHL SUB DUP3 GT ISZERO PUSH2 0x3B26 JUMPI PUSH1 0x0 DUP1 REVERT JUMPDEST PUSH1 0x20 ADD SWAP2 POP CALLDATASIZE DUP2 SWAP1 SUB DUP3 SGT ISZERO PUSH2 0x3B3B JUMPI PUSH1 0x0 DUP1 REVERT JUMPDEST SWAP3 POP SWAP3 SWAP1 POP JUMP JUMPDEST PUSH1 0x0 PUSH1 0x20 DUP3 DUP5 SUB SLT ISZERO PUSH2 0x3B54 JUMPI PUSH1 0x0 DUP1 REVERT JUMPDEST DUP2 CALLDATALOAD PUSH2 0x2B39 DUP2 PUSH2 0x32E2 JUMP JUMPDEST PUSH1 0x0 PUSH1 0x20 DUP3 DUP5 SUB SLT ISZERO PUSH2 0x3B71 JUMPI PUSH1 0x0 DUP1 REVERT JUMPDEST PUSH2 0x2B39 DUP3 PUSH2 0x3037 JUMP JUMPDEST PUSH1 0x0 DUP1 DUP4 CALLDATALOAD PUSH1 0x1E NOT DUP5 CALLDATASIZE SUB ADD DUP2 SLT PUSH2 0x3B91 JUMPI PUSH1 0x0 DUP1 REVERT JUMPDEST DUP4 ADD DUP1 CALLDATALOAD SWAP2 POP PUSH1 0x1 PUSH1 0x1 PUSH1 0x40 SHL SUB DUP3 GT ISZERO PUSH2 0x3BAB JUMPI PUSH1 0x0 DUP1 REVERT JUMPDEST PUSH1 0x20 ADD SWAP2 POP PUSH1 0x7 DUP2 SWAP1 SHL CALLDATASIZE SUB DUP3 SGT ISZERO PUSH2 0x3B3B JUMPI PUSH1 0x0 DUP1 REVERT JUMPDEST DUP2 DUP4 MSTORE DUP2 DUP2 PUSH1 0x20 DUP6 ADD CALLDATACOPY POP PUSH1 0x0 DUP3 DUP3 ADD PUSH1 0x20 SWAP1 DUP2 ADD SWAP2 SWAP1 SWAP2 MSTORE PUSH1 0x1F SWAP1 SWAP2 ADD PUSH1 0x1F NOT AND SWAP1 SWAP2 ADD ADD SWAP1 JUMP JUMPDEST PUSH1 0xFF DUP14 AND DUP2 MSTORE PUSH1 0xE0 PUSH1 0x20 DUP3 ADD MSTORE PUSH1 0x0 PUSH2 0x3C09 PUSH1 0xE0 DUP4 ADD DUP14 DUP16 PUSH2 0x3BC3 JUMP JUMPDEST PUSH1 0x40 DUP4 DUP3 SUB DUP2 DUP6 ADD MSTORE PUSH2 0x3C1D DUP3 DUP14 DUP16 PUSH2 0x3BC3 JUMP JUMPDEST SWAP2 POP PUSH1 0x60 DUP5 DUP4 SUB DUP2 DUP7 ADD MSTORE PUSH2 0x3C33 DUP4 DUP13 DUP15 PUSH2 0x3BC3 JUMP JUMPDEST SWAP3 POP PUSH1 0x80 DUP6 DUP5 SUB DUP2 DUP8 ADD MSTORE PUSH2 0x3C49 DUP5 DUP12 DUP14 PUSH2 0x3BC3 JUMP JUMPDEST PUSH1 0xA0 DUP8 ADD DUP11 SWAP1 MSTORE DUP7 DUP2 SUB PUSH1 0xC0 DUP9 ADD MSTORE DUP8 DUP2 MSTORE DUP9 SWAP5 POP PUSH1 0x20 ADD PUSH1 0x0 JUMPDEST DUP9 DUP2 LT ISZERO PUSH2 0x3CB6 JUMPI DUP6 CALLDATALOAD PUSH2 0x3C77 DUP2 PUSH2 0x2F24 JUMP JUMPDEST PUSH1 0x1 PUSH1 0x1 PUSH1 0xA0 SHL SUB AND DUP3 MSTORE PUSH1 0xFF PUSH2 0x3C90 PUSH1 0x20 DUP9 ADD PUSH2 0x3037 JUMP JUMPDEST AND PUSH1 0x20 DUP4 ADD MSTORE DUP6 DUP6 ADD CALLDATALOAD DUP6 DUP4 ADD MSTORE DUP4 DUP7 ADD CALLDATALOAD DUP5 DUP4 ADD MSTORE SWAP5 DUP3 ADD SWAP5 SWAP1 DUP3 ADD SWAP1 PUSH1 0x1 ADD PUSH2 0x3C64 JUMP JUMPDEST POP DUP1 SWAP6 POP POP POP POP POP POP SWAP14 SWAP13 POP POP POP POP POP POP POP POP POP POP POP POP POP JUMP JUMPDEST PUSH1 0x20 DUP1 DUP3 MSTORE PUSH1 0x2C SWAP1 DUP3 ADD MSTORE PUSH32 0x4552433732314454466163746F72793A2054656D706C61746520696E64657820 PUSH1 0x40 DUP3 ADD MSTORE PUSH12 0x191BD95CDB9D08195E1A5CDD PUSH1 0xA2 SHL PUSH1 0x60 DUP3 ADD MSTORE PUSH1 0x80 ADD SWAP1 JUMP JUMPDEST PUSH1 0x1 PUSH1 0x1 PUSH1 0xA0 SHL SUB DUP7 AND DUP2 MSTORE PUSH1 0xA0 PUSH1 0x20 DUP3 ADD DUP2 SWAP1 MSTORE PUSH1 0x0 SWAP1 PUSH2 0x3D40 SWAP1 DUP4 ADD DUP8 PUSH2 0x3A0B JUMP JUMPDEST DUP3 DUP2 SUB PUSH1 0x40 DUP5 ADD MSTORE PUSH2 0x3D52 DUP2 DUP8 PUSH2 0x3A0B JUMP JUMPDEST SWAP1 POP DUP3 DUP2 SUB PUSH1 0x60 DUP5 ADD MSTORE PUSH2 0x3D66 DUP2 DUP7 PUSH2 0x3A0B JUMP JUMPDEST SWAP2 POP POP DUP3 ISZERO ISZERO PUSH1 0x80 DUP4 ADD MSTORE SWAP7 SWAP6 POP POP POP POP POP POP JUMP JUMPDEST PUSH1 0x0 DUP3 NOT DUP3 GT ISZERO PUSH2 0x3D8E JUMPI PUSH2 0x3D8E PUSH2 0x3AC4 JUMP JUMPDEST POP ADD SWAP1 JUMP JUMPDEST PUSH1 0x1 PUSH1 0x1 PUSH1 0xA0 SHL SUB DUP10 DUP2 AND DUP3 MSTORE PUSH2 0x100 PUSH1 0x20 DUP4 ADD DUP2 SWAP1 MSTORE PUSH1 0x0 SWAP2 PUSH2 0x3DB9 DUP5 DUP4 ADD DUP13 PUSH2 0x3A0B JUMP JUMPDEST SWAP2 POP DUP4 DUP3 SUB PUSH1 0x40 DUP6 ADD MSTORE PUSH2 0x3DCD DUP3 DUP12 PUSH2 0x3A0B JUMP JUMPDEST DUP10 DUP3 AND PUSH1 0x60 DUP7 ADD MSTORE DUP9 DUP3 AND PUSH1 0x80 DUP7 ADD MSTORE SWAP1 DUP8 AND PUSH1 0xA0 DUP6 ADD MSTORE DUP4 DUP2 SUB PUSH1 0xC0 DUP6 ADD MSTORE SWAP1 POP PUSH2 0x3DF9 DUP2 DUP7 PUSH2 0x3A0B JUMP JUMPDEST SWAP2 POP POP DUP3 ISZERO ISZERO PUSH1 0xE0 DUP4 ADD MSTORE SWAP10 SWAP9 POP POP POP POP POP POP POP POP POP JUMP JUMPDEST PUSH1 0x0 PUSH1 0x20 DUP3 DUP5 SUB SLT ISZERO PUSH2 0x3E23 JUMPI PUSH1 0x0 DUP1 REVERT JUMPDEST DUP2 MLOAD PUSH2 0x2B39 DUP2 PUSH2 0x32E2 JUMP JUMPDEST PUSH1 0x0 DUP1 DUP4 CALLDATALOAD PUSH1 0x1E NOT DUP5 CALLDATASIZE SUB ADD DUP2 SLT PUSH2 0x3E45 JUMPI PUSH1 0x0 DUP1 REVERT JUMPDEST DUP4 ADD DUP1 CALLDATALOAD SWAP2 POP PUSH1 0x1 PUSH1 0x1 PUSH1 0x40 SHL SUB DUP3 GT ISZERO PUSH2 0x3E5F JUMPI PUSH1 0x0 DUP1 REVERT JUMPDEST PUSH1 0x20 ADD SWAP2 POP PUSH1 0x5 DUP2 SWAP1 SHL CALLDATASIZE SUB DUP3 SGT ISZERO PUSH2 0x3B3B JUMPI PUSH1 0x0 DUP1 REVERT JUMPDEST PUSH1 0x0 DUP1 DUP4 CALLDATALOAD PUSH1 0x1E NOT DUP5 CALLDATASIZE SUB ADD DUP2 SLT PUSH2 0x3E8E JUMPI PUSH1 0x0 DUP1 REVERT JUMPDEST DUP4 ADD PUSH1 0x20 DUP2 ADD SWAP3 POP CALLDATALOAD SWAP1 POP PUSH1 0x1 PUSH1 0x1 PUSH1 0x40 SHL SUB DUP2 GT ISZERO PUSH2 0x3EAD JUMPI PUSH1 0x0 DUP1 REVERT JUMPDEST DUP1 CALLDATASIZE SUB DUP4 SGT ISZERO PUSH2 0x3B3B JUMPI PUSH1 0x0 DUP1 REVERT JUMPDEST DUP2 DUP4 MSTORE PUSH1 0x0 PUSH1 0x20 DUP1 DUP6 ADD SWAP5 POP DUP3 PUSH1 0x0 JUMPDEST DUP6 DUP2 LT ISZERO PUSH2 0x3EFA JUMPI DUP2 CALLDATALOAD PUSH2 0x3EDF DUP2 PUSH2 0x2F24 JUMP JUMPDEST PUSH1 0x1 PUSH1 0x1 PUSH1 0xA0 SHL SUB AND DUP8 MSTORE SWAP6 DUP3 ADD SWAP6 SWAP1 DUP3 ADD SWAP1 PUSH1 0x1 ADD PUSH2 0x3ECC JUMP JUMPDEST POP SWAP5 SWAP6 SWAP5 POP POP POP POP POP JUMP JUMPDEST DUP2 DUP4 MSTORE PUSH1 0x0 PUSH1 0x1 PUSH1 0x1 PUSH1 0xFB SHL SUB DUP4 GT ISZERO PUSH2 0x3F1E JUMPI PUSH1 0x0 DUP1 REVERT JUMPDEST DUP3 PUSH1 0x5 SHL DUP1 DUP4 PUSH1 0x20 DUP8 ADD CALLDATACOPY PUSH1 0x0 SWAP5 ADD PUSH1 0x20 ADD SWAP4 DUP5 MSTORE POP SWAP2 SWAP3 SWAP2 POP POP JUMP JUMPDEST DUP2 DUP4 MSTORE PUSH1 0x0 PUSH1 0x20 DUP1 DUP6 ADD DUP1 DUP2 SWAP7 POP DUP6 PUSH1 0x5 SHL DUP2 ADD SWAP2 POP DUP5 PUSH1 0x0 JUMPDEST DUP8 DUP2 LT ISZERO PUSH2 0x3F8B JUMPI DUP3 DUP5 SUB DUP10 MSTORE PUSH2 0x3F6C DUP3 DUP9 PUSH2 0x3E77 JUMP JUMPDEST PUSH2 0x3F77 DUP7 DUP3 DUP5 PUSH2 0x3BC3 JUMP JUMPDEST SWAP11 DUP8 ADD SWAP11 SWAP6 POP POP POP SWAP1 DUP5 ADD SWAP1 PUSH1 0x1 ADD PUSH2 0x3F55 JUMP JUMPDEST POP SWAP2 SWAP8 SWAP7 POP POP POP POP POP POP POP JUMP JUMPDEST DUP10 DUP2 MSTORE PUSH1 0xA0 PUSH1 0x20 DUP3 ADD DUP2 SWAP1 MSTORE DUP2 ADD DUP9 SWAP1 MSTORE PUSH1 0x0 PUSH1 0xC0 PUSH1 0x5 DUP11 SWAP1 SHL DUP4 ADD DUP2 ADD SWAP1 DUP4 ADD DUP12 DUP4 JUMPDEST DUP13 DUP2 LT ISZERO PUSH2 0x3FF9 JUMPI DUP6 DUP5 SUB PUSH1 0xBF NOT ADD DUP4 MSTORE PUSH2 0x3FD7 DUP3 DUP16 PUSH2 0x3E77 JUMP JUMPDEST PUSH2 0x3FE2 DUP7 DUP3 DUP5 PUSH2 0x3BC3 JUMP JUMPDEST SWAP6 POP POP POP PUSH1 0x20 SWAP3 DUP4 ADD SWAP3 SWAP2 SWAP1 SWAP2 ADD SWAP1 PUSH1 0x1 ADD PUSH2 0x3FBC JUMP JUMPDEST POP POP POP DUP3 DUP2 SUB PUSH1 0x40 DUP5 ADD MSTORE PUSH2 0x400F DUP2 DUP10 DUP12 PUSH2 0x3EBC JUMP JUMPDEST SWAP1 POP DUP3 DUP2 SUB PUSH1 0x60 DUP5 ADD MSTORE PUSH2 0x4024 DUP2 DUP8 DUP10 PUSH2 0x3F05 JUMP JUMPDEST SWAP1 POP DUP3 DUP2 SUB PUSH1 0x80 DUP5 ADD MSTORE PUSH2 0x4039 DUP2 DUP6 DUP8 PUSH2 0x3F3B JUMP JUMPDEST SWAP13 SWAP12 POP POP POP POP POP POP POP POP POP POP POP POP JUMP JUMPDEST PUSH1 0x0 PUSH1 0x20 DUP3 DUP5 SUB SLT ISZERO PUSH2 0x405B JUMPI PUSH1 0x0 DUP1 REVERT JUMPDEST DUP2 MLOAD PUSH2 0x2B39 DUP2 PUSH2 0x2F24 JUMP JUMPDEST PUSH1 0x60 DUP2 MSTORE PUSH1 0x0 PUSH2 0x407A PUSH1 0x60 DUP4 ADD DUP9 DUP11 PUSH2 0x3F05 JUMP JUMPDEST DUP3 DUP2 SUB PUSH1 0x20 DUP5 ADD MSTORE PUSH2 0x408D DUP2 DUP8 DUP10 PUSH2 0x3F05 JUMP JUMPDEST SWAP1 POP DUP3 DUP2 SUB PUSH1 0x40 DUP5 ADD MSTORE PUSH2 0x40A2 DUP2 DUP6 DUP8 PUSH2 0x3EBC JUMP JUMPDEST SWAP10 SWAP9 POP POP POP POP POP POP POP POP POP JUMP JUMPDEST PUSH1 0x0 DUP1 PUSH1 0x0 PUSH1 0x60 DUP5 DUP7 SUB SLT ISZERO PUSH2 0x40C4 JUMPI PUSH1 0x0 DUP1 REVERT JUMPDEST DUP4 MLOAD PUSH2 0x40CF DUP2 PUSH2 0x2F24 JUMP JUMPDEST PUSH1 0x20 DUP6 ADD MLOAD SWAP1 SWAP4 POP PUSH2 0x40E0 DUP2 PUSH2 0x2F24 JUMP JUMPDEST DUP1 SWAP3 POP POP PUSH1 0x40 DUP5 ADD MLOAD SWAP1 POP SWAP3 POP SWAP3 POP SWAP3 JUMP JUMPDEST PUSH1 0x0 PUSH1 0x1 DUP1 PUSH1 0xA0 SHL SUB DUP1 DUP8 AND DUP4 MSTORE DUP6 PUSH1 0x20 DUP5 ADD MSTORE PUSH1 0xC0 PUSH1 0x40 DUP5 ADD MSTORE PUSH2 0x411A PUSH1 0xC0 DUP5 ADD DUP7 PUSH2 0x3A37 JUMP JUMPDEST SWAP2 POP DUP1 DUP5 MLOAD AND PUSH1 0x60 DUP5 ADD MSTORE DUP1 PUSH1 0x20 DUP6 ADD MLOAD AND PUSH1 0x80 DUP5 ADD MSTORE POP PUSH1 0x40 DUP4 ADD MLOAD PUSH1 0xA0 DUP4 ADD MSTORE SWAP6 SWAP5 POP POP POP POP POP JUMP JUMPDEST PUSH1 0x1 PUSH1 0x1 PUSH1 0xA0 SHL SUB DUP7 AND DUP2 MSTORE PUSH1 0x60 PUSH1 0x20 DUP3 ADD DUP2 SWAP1 MSTORE PUSH1 0x0 SWAP1 PUSH2 0x416A SWAP1 DUP4 ADD DUP7 DUP9 PUSH2 0x3EBC JUMP JUMPDEST DUP3 DUP2 SUB PUSH1 0x40 DUP5 ADD MSTORE PUSH2 0x417D DUP2 DUP6 DUP8 PUSH2 0x3F05 JUMP JUMPDEST SWAP9 SWAP8 POP POP POP POP POP POP POP POP JUMP JUMPDEST PUSH1 0x0 PUSH1 0x20 DUP3 DUP5 SUB SLT ISZERO PUSH2 0x419B JUMPI PUSH1 0x0 DUP1 REVERT JUMPDEST POP MLOAD SWAP2 SWAP1 POP JUMP JUMPDEST PUSH1 0x80 DUP2 MSTORE PUSH1 0x0 PUSH2 0x41B5 PUSH1 0x80 DUP4 ADD DUP8 PUSH2 0x3A0B JUMP JUMPDEST DUP3 DUP2 SUB PUSH1 0x20 DUP5 ADD MSTORE PUSH2 0x41C7 DUP2 DUP8 PUSH2 0x3A0B JUMP JUMPDEST PUSH1 0x40 DUP5 ADD SWAP6 SWAP1 SWAP6 MSTORE POP POP PUSH1 0x1 PUSH1 0x1 PUSH1 0xA0 SHL SUB SWAP2 SWAP1 SWAP2 AND PUSH1 0x60 SWAP1 SWAP2 ADD MSTORE SWAP3 SWAP2 POP POP JUMP JUMPDEST PUSH1 0x0 DUP2 MLOAD DUP1 DUP5 MSTORE PUSH1 0x20 DUP1 DUP6 ADD SWAP5 POP DUP1 DUP5 ADD PUSH1 0x0 JUMPDEST DUP4 DUP2 LT ISZERO PUSH2 0x3EFA JUMPI DUP2 MLOAD PUSH1 0x1 PUSH1 0x1 PUSH1 0xA0 SHL SUB AND DUP8 MSTORE SWAP6 DUP3 ADD SWAP6 SWAP1 DUP3 ADD SWAP1 PUSH1 0x1 ADD PUSH2 0x41FD JUMP JUMPDEST PUSH1 0x0 DUP2 MLOAD DUP1 DUP5 MSTORE PUSH1 0x20 DUP1 DUP6 ADD SWAP5 POP DUP1 DUP5 ADD PUSH1 0x0 JUMPDEST DUP4 DUP2 LT ISZERO PUSH2 0x3EFA JUMPI DUP2 MLOAD DUP8 MSTORE SWAP6 DUP3 ADD SWAP6 SWAP1 DUP3 ADD SWAP1 PUSH1 0x1 ADD PUSH2 0x4236 JUMP JUMPDEST PUSH1 0x0 DUP2 MLOAD DUP1 DUP5 MSTORE PUSH1 0x20 DUP1 DUP6 ADD DUP1 DUP2 SWAP7 POP DUP4 PUSH1 0x5 SHL DUP2 ADD SWAP2 POP DUP3 DUP7 ADD PUSH1 0x0 JUMPDEST DUP6 DUP2 LT ISZERO PUSH2 0x3F8B JUMPI DUP3 DUP5 SUB DUP10 MSTORE PUSH2 0x4288 DUP5 DUP4 MLOAD PUSH2 0x3A0B JUMP JUMPDEST SWAP9 DUP6 ADD SWAP9 SWAP4 POP SWAP1 DUP5 ADD SWAP1 PUSH1 0x1 ADD PUSH2 0x4270 JUMP JUMPDEST PUSH1 0x0 PUSH1 0xA0 DUP3 ADD PUSH1 0xA0 DUP4 MSTORE DUP1 DUP9 MLOAD DUP1 DUP4 MSTORE PUSH1 0xC0 DUP6 ADD SWAP2 POP PUSH1 0xC0 DUP2 PUSH1 0x5 SHL DUP7 ADD ADD SWAP3 POP PUSH1 0x20 DUP1 DUP12 ADD PUSH1 0x0 JUMPDEST DUP4 DUP2 LT ISZERO PUSH2 0x42F1 JUMPI PUSH1 0xBF NOT DUP9 DUP8 SUB ADD DUP6 MSTORE PUSH2 0x42DF DUP7 DUP4 MLOAD PUSH2 0x3A0B JUMP JUMPDEST SWAP6 POP SWAP4 DUP3 ADD SWAP4 SWAP1 DUP3 ADD SWAP1 PUSH1 0x1 ADD PUSH2 0x42C3 JUMP JUMPDEST POP POP DUP6 DUP5 SUB DUP2 DUP8 ADD MSTORE POP POP POP PUSH2 0x4307 DUP2 DUP9 PUSH2 0x41E9 JUMP JUMPDEST SWAP1 POP DUP3 DUP2 SUB PUSH1 0x40 DUP5 ADD MSTORE PUSH2 0x431B DUP2 DUP8 PUSH2 0x41E9 JUMP JUMPDEST SWAP1 POP DUP3 DUP2 SUB PUSH1 0x60 DUP5 ADD MSTORE PUSH2 0x432F DUP2 DUP7 PUSH2 0x4222 JUMP JUMPDEST SWAP1 POP DUP3 DUP2 SUB PUSH1 0x80 DUP5 ADD MSTORE PUSH2 0x417D DUP2 DUP6 PUSH2 0x4252 JUMP JUMPDEST PUSH1 0x0 DUP3 MLOAD PUSH2 0x4355 DUP2 DUP5 PUSH1 0x20 DUP8 ADD PUSH2 0x39DF JUMP JUMPDEST SWAP2 SWAP1 SWAP2 ADD SWAP3 SWAP2 POP POP JUMP JUMPDEST PUSH1 0x20 DUP2 MSTORE PUSH1 0x0 PUSH2 0x2B39 PUSH1 0x20 DUP4 ADD DUP5 PUSH2 0x3A0B JUMP INVALID LOG2 PUSH5 0x6970667358 0x22 SLT KECCAK256 SIGNEXTEND 0xC 0xE1 SWAP6 0xC OR CREATE2 0xDB GT 0x2C 0xB3 0x25 DUP9 0x2C 0x2B BYTE 0xC0 EXTCODECOPY 0x49 DUP14 0x23 0xB6 SGT DUP11 NOT 0xD9 0xC3 0xE6 0xB9 PUSH19 0x17D664736F6C634300080C0033000000000000 ","sha1":"3a743bbc3b1cec61b7c5248f5801af2bfa548d06","source":"pragma solidity 0.8.12;\n// Copyright BigchainDB GmbH and Ocean Protocol contributors\n// SPDX-License-Identifier: (Apache-2.0 AND CC-BY-4.0)\n// Code is Apache-2.0 and docs are CC-BY-4.0\n\nimport \"./utils/Deployer.sol\";\nimport \"./interfaces/IFactory.sol\";\nimport \"./interfaces/IERC721Template.sol\";\nimport \"OpenZeppelin/openzeppelin-contracts@4.2.0/contracts/access/Ownable.sol\";\nimport \"./interfaces/IERC20Template.sol\";\nimport \"./interfaces/IERC20.sol\";\nimport \"./utils/SafeERC20.sol\";\nimport \"OpenZeppelin/openzeppelin-contracts@4.2.0/contracts/utils/math/SafeMath.sol\";\nimport \"OpenZeppelin/openzeppelin-contracts@4.2.0/contracts/security/ReentrancyGuard.sol\";\n/**\n * @title DTFactory contract\n * @author Ocean Protocol Team\n *\n * @dev Implementation of Ocean datatokens Factory\n *\n *      DTFactory deploys datatoken proxy contracts.\n *      New datatoken proxy contracts are links to the template contract's bytecode.\n *      Proxy contract functionality is based on Ocean Protocol custom implementation of ERC1167 standard.\n */\ncontract ERC721Factory is Deployer, Ownable, ReentrancyGuard, IFactory {\n    using SafeERC20 for IERC20;\n    using SafeMath for uint256;\n    uint256 private currentNFTCount;\n    address private erc20Factory;\n    uint256 private nftTemplateCount;\n\n    struct Template {\n        address templateAddress;\n        bool isActive;\n    }\n\n    mapping(uint256 => Template) public nftTemplateList;\n\n    mapping(uint256 => Template) public templateList;\n\n    mapping(address => address) public erc721List;\n\n    mapping(address => bool) public erc20List;\n\n    event NFTCreated(\n        address newTokenAddress,\n        address indexed templateAddress,\n        string tokenName,\n        address indexed admin,\n        string symbol,\n        string tokenURI,\n        bool transferable,\n        address indexed creator\n    );\n\n       uint256 private currentTokenCount = 0;\n    uint256 public templateCount;\n    address public router;\n\n    event Template721Added(address indexed _templateAddress, uint256 indexed nftTemplateCount);\n    event Template20Added(address indexed _templateAddress, uint256 indexed nftTemplateCount);\n  //stored here only for ABI reasons\n    event TokenCreated(\n        address indexed newTokenAddress,\n        address indexed templateAddress,\n        string name,\n        string symbol,\n        uint256 cap,\n        address creator\n    );  \n    \n    event NewPool(\n        address poolAddress,\n        address ssContract,\n        address baseTokenAddress\n    );\n\n\n    event NewFixedRate(bytes32 exchangeId, address indexed owner, address exchangeContract, address indexed baseToken);\n    event NewDispenser(address dispenserContract);\n\n    event DispenserCreated(  // emited when a dispenser is created\n        address indexed datatokenAddress,\n        address indexed owner,\n        uint256 maxTokens,\n        uint256 maxBalance,\n        address allowedSwapper\n    );\n    \n    // erc721 transfer event, stored here just for readability\n    event Transfer(address indexed from, address indexed to, uint256 indexed tokenId);\n\n    /**\n     * @dev constructor\n     *      Called on contract deployment. Could not be called with zero address parameters.\n     * @param _template721 refers to the address of ERC721 template\n     * @param _template refers to the address of a deployed datatoken contract.\n     * @param _router router contract address\n     */\n    constructor(\n        address _template721,\n        address _template,\n        address _router\n    ) {\n        require(\n            _template != address(0) &&\n                _router != address(0) &&\n                _template721 != address(0),\n            \"ERC721DTFactory: Invalid template/router address\"\n        );\n        add721TokenTemplate(_template721);\n        addTokenTemplate(_template);\n        router = _router;\n    }\n\n\n    /**\n     * @dev deployERC721Contract\n     *      \n     * @param name NFT name\n     * @param symbol NFT Symbol\n     * @param _templateIndex template index we want to use\n     * @param additionalERC20Deployer if != address(0), we will add it with ERC20Deployer role\n     * @param additionalMetaDataUpdater if != address(0), we will add it with updateMetadata role\n     * @param transferable if NFT is transferable. Cannot be changed afterwards\n     * @param owner owner of the NFT\n     */\n\n    function deployERC721Contract(\n        string memory name,\n        string memory symbol,\n        uint256 _templateIndex,\n        address additionalERC20Deployer,\n        address additionalMetaDataUpdater,\n        string memory tokenURI,\n        bool transferable,\n        address owner\n    ) public returns (address token) {\n        require(\n            _templateIndex <= nftTemplateCount && _templateIndex != 0,\n            \"ERC721DTFactory: Template index doesnt exist\"\n        );\n        Template memory tokenTemplate = nftTemplateList[_templateIndex];\n\n        require(\n            tokenTemplate.isActive,\n            \"ERC721DTFactory: ERC721Token Template disabled\"\n        );\n        require(\n            owner!=address(0),\n            \"ERC721DTFactory: address(0) cannot be owner\"\n        );\n        token = deploy(tokenTemplate.templateAddress);\n\n        require(\n            token != address(0),\n            \"ERC721DTFactory: Failed to perform minimal deploy of a new token\"\n        );\n       \n        erc721List[token] = token;\n        emit NFTCreated(token, tokenTemplate.templateAddress, name, owner, symbol, tokenURI, transferable, msg.sender);\n        currentNFTCount += 1;\n        IERC721Template tokenInstance = IERC721Template(token);\n        require(\n            tokenInstance.initialize(\n                owner,\n                name,\n                symbol,\n                address(this),\n                additionalERC20Deployer,\n                additionalMetaDataUpdater,\n                tokenURI,\n                transferable\n            ),\n            \"ERC721DTFactory: Unable to initialize token instance\"\n        );\n\n        \n    }\n    \n    /**\n     * @dev get the current token count.\n     * @return the current token count\n     */\n    function getCurrentNFTCount() external view returns (uint256) {\n        return currentNFTCount;\n    }\n\n    /**\n     * @dev get the token template Object\n     * @param _index template Index\n     * @return the template struct\n     */\n    function getNFTTemplate(uint256 _index)\n        external\n        view\n        returns (Template memory)\n    {\n        Template memory template = nftTemplateList[_index];\n        return template;\n    }\n\n      /**\n     * @dev add a new NFT Template.\n      Only Factory Owner can call it\n     * @param _templateAddress new template address\n     * @return the actual template count\n     */\n    \n    function add721TokenTemplate(address _templateAddress)\n        public\n        onlyOwner\n        returns (uint256)\n    {\n        require(\n            _templateAddress != address(0),\n            \"ERC721DTFactory: ERC721 template address(0) NOT ALLOWED\"\n        );\n        require(_isContract(_templateAddress), \"ERC721Factory: NOT CONTRACT\");\n        nftTemplateCount += 1;\n        Template memory template = Template(_templateAddress, true);\n        nftTemplateList[nftTemplateCount] = template;\n        emit Template721Added(_templateAddress,nftTemplateCount);\n        return nftTemplateCount;\n    }\n      /**\n     * @dev reactivate a disabled NFT Template.\n            Only Factory Owner can call it\n     * @param _index index we want to reactivate\n     */\n    \n    // function to activate a disabled token.\n    function reactivate721TokenTemplate(uint256 _index) external onlyOwner {\n        require(\n            _index <= nftTemplateCount && _index != 0,\n            \"ERC721DTFactory: Template index doesnt exist\"\n        );\n        Template storage template = nftTemplateList[_index];\n        template.isActive = true;\n    }\n\n      /**\n     * @dev disable an NFT Template.\n      Only Factory Owner can call it\n     * @param _index index we want to disable\n     */\n    function disable721TokenTemplate(uint256 _index) external onlyOwner {\n        require(\n            _index <= nftTemplateCount && _index != 0,\n            \"ERC721DTFactory: Template index doesnt exist\"\n        );\n        Template storage template = nftTemplateList[_index];\n        template.isActive = false;\n    }\n\n    function getCurrentNFTTemplateCount() external view returns (uint256) {\n        return nftTemplateCount;\n    }\n\n    /**\n     * @dev Returns true if `account` is a contract.\n     *\n     * [IMPORTANT]\n     * ====\n     * It is unsafe to assume that an address for which this function returns\n     * false is an externally-owned account (EOA) and not a contract.\n     *\n     * Among others, `isContract` will return false for the following\n     * types of addresses:\n     *\n     *  - an externally-owned account\n     *  - a contract in construction\n     *  - an address where a contract will be created\n     *  - an address where a contract lived, but was destroyed\n     * ====\n     */\n    function _isContract(address account) internal view returns (bool) {\n        // This method relies on extcodesize, which returns 0 for contracts in\n        // construction, since the code is only stored at the end of the\n        // constructor execution.\n\n        uint256 size;\n        // solhint-disable-next-line no-inline-assembly\n        assembly {\n            size := extcodesize(account)\n        }\n        return size > 0;\n    }\n\n \n    struct tokenStruct{\n        string[] strings;\n        address[] addresses;\n        uint256[] uints;\n        bytes[] bytess;\n        address owner;\n    }\n    /**\n     * @dev Deploys new datatoken proxy contract.\n     *      This function is not called directly from here. It's called from the NFT contract.\n            An NFT contract can deploy multiple ERC20 tokens.\n     * @param _templateIndex ERC20Template index \n     * @param strings refers to an array of strings\n     *                      [0] = name\n     *                      [1] = symbol\n     * @param addresses refers to an array of addresses\n     *                     [0]  = minter account who can mint datatokens (can have multiple minters)\n     *                     [1]  = paymentCollector  initial paymentCollector  for this DT\n     *                     [2]  = publishing Market Address\n     *                     [3]  = publishing Market Fee Token\n     * @param uints  refers to an array of uints\n     *                     [0] = cap_ the total ERC20 cap\n     *                     [1] = publishing Market Fee Amount\n     * @param bytess  refers to an array of bytes, not in use now, left for future templates\n     * @return token address of a new proxy datatoken contract\n     */\n    function createToken(\n        uint256 _templateIndex,\n        string[] memory strings,\n        address[] memory addresses,\n        uint256[] memory uints,\n        bytes[] memory bytess\n    ) external returns (address token) {\n        require(\n            erc721List[msg.sender] == msg.sender,\n            \"ERC721Factory: ONLY ERC721 INSTANCE FROM ERC721FACTORY\"\n        );\n        token = _createToken(_templateIndex, strings, addresses, uints, bytess, msg.sender);\n        \n    }\n    function _createToken(\n        uint256 _templateIndex,\n        string[] memory strings,\n        address[] memory addresses,\n        uint256[] memory uints,\n        bytes[] memory bytess,\n        address owner\n    ) internal returns (address token) {\n        require(uints[0] != 0, \"ERC20Factory: zero cap is not allowed\");\n        require(\n            _templateIndex <= templateCount && _templateIndex != 0,\n            \"ERC20Factory: Template index doesnt exist\"\n        );\n        Template memory tokenTemplate = templateList[_templateIndex];\n\n        require(\n            tokenTemplate.isActive,\n            \"ERC20Factory: ERC721Token Template disabled\"\n        );\n        token = deploy(tokenTemplate.templateAddress);\n        erc20List[token] = true;\n\n        require(\n            token != address(0),\n            \"ERC721Factory: Failed to perform minimal deploy of a new token\"\n        );\n        emit TokenCreated(token, tokenTemplate.templateAddress, strings[0], strings[1], uints[0], owner);\n        currentTokenCount += 1;\n        tokenStruct memory tokenData = tokenStruct(strings,addresses,uints,bytess,owner); \n        // tokenData.strings = strings;\n        // tokenData.addresses = addresses;\n        // tokenData.uints = uints;\n        // tokenData.owner = owner;\n        // tokenData.bytess = bytess;\n        _createTokenStep2(token, tokenData);\n    }\n\n    function _createTokenStep2(address token, tokenStruct memory tokenData) internal {\n        \n        IERC20Template tokenInstance = IERC20Template(token);\n        address[] memory factoryAddresses = new address[](3);\n        factoryAddresses[0] = tokenData.owner;\n        \n        factoryAddresses[1] = router;\n        \n        require(\n            tokenInstance.initialize(\n                tokenData.strings,\n                tokenData.addresses,\n                factoryAddresses,\n                tokenData.uints,\n                tokenData.bytess\n            ),\n            \"ERC20Factory: Unable to initialize token instance\"\n        );\n        \n    }\n\n    /**\n     * @dev get the current ERC20token deployed count.\n     * @return the current token count\n     */\n    function getCurrentTokenCount() external view returns (uint256) {\n        return currentTokenCount;\n    }\n\n    /**\n     * @dev get the current ERC20token template.\n      @param _index template Index\n     * @return the token Template Object\n     */\n\n    function getTokenTemplate(uint256 _index)\n        external\n        view\n        returns (Template memory)\n    {\n        Template memory template = templateList[_index];\n        require(\n            _index <= templateCount && _index != 0,\n            \"ERC20Factory: Template index doesnt exist\"\n        );\n        return template;\n    }\n\n    /**\n     * @dev add a new ERC20Template.\n      Only Factory Owner can call it\n     * @param _templateAddress new template address\n     * @return the actual template count\n     */\n\n    \n    function addTokenTemplate(address _templateAddress)\n        public\n        onlyOwner\n        returns (uint256)\n    {\n        require(\n            _templateAddress != address(0),\n            \"ERC20Factory: ERC721 template address(0) NOT ALLOWED\"\n        );\n        require(_isContract(_templateAddress), \"ERC20Factory: NOT CONTRACT\");\n        templateCount += 1;\n        Template memory template = Template(_templateAddress, true);\n        templateList[templateCount] = template;\n        emit Template20Added(_templateAddress, templateCount);\n        return templateCount;\n    }\n\n     /**\n     * @dev disable an ERC20Template.\n      Only Factory Owner can call it\n     * @param _index index we want to disable\n     */\n\n    function disableTokenTemplate(uint256 _index) external onlyOwner {\n        Template storage template = templateList[_index];\n        template.isActive = false;\n    }\n\n\n     /**\n     * @dev reactivate a disabled ERC20Template.\n      Only Factory Owner can call it\n     * @param _index index we want to reactivate\n     */\n\n    // function to activate a disabled token.\n    function reactivateTokenTemplate(uint256 _index) external onlyOwner {\n        require(\n            _index <= templateCount && _index != 0,\n            \"ERC20DTFactory: Template index doesnt exist\"\n        );\n        Template storage template = templateList[_index];\n        template.isActive = true;\n    }\n\n    // if templateCount is public we could remove it, or set templateCount to private\n    function getCurrentTemplateCount() external view returns (uint256) {\n        return templateCount;\n    }\n\n    struct tokenOrder {\n        address tokenAddress;\n        address consumer;\n        uint256 serviceIndex;\n        IERC20Template.providerFee _providerFee;\n        IERC20Template.consumeMarketFee _consumeMarketFee;\n    }\n\n    /**\n     * @dev startMultipleTokenOrder\n     *      Used as a proxy to order multiple services\n     *      Users can have inifinite approvals for fees for factory instead of having one approval/ erc20 contract\n     *      Requires previous approval of all :\n     *          - consumeFeeTokens\n     *          - publishMarketFeeTokens\n     *          - erc20 datatokens\n     *          - providerFees\n     * @param orders an array of struct tokenOrder\n     */\n    function startMultipleTokenOrder(\n        tokenOrder[] memory orders\n    ) external nonReentrant {\n        // TODO: to avoid DOS attack, we set a limit to maximum order (50 ?)\n        require(orders.length <= 50, 'ERC721Factory: Too Many Orders');\n        // TO DO.  We can do better here , by groupping publishMarketFeeTokens and consumeFeeTokens and have a single \n        // transfer for each one, instead of doing it per dt..\n        for (uint256 i = 0; i < orders.length; i++) {\n            (address publishMarketFeeAddress, address publishMarketFeeToken, uint256 publishMarketFeeAmount) \n                = IERC20Template(orders[i].tokenAddress).getPublishingMarketFee();\n            \n            // check if we have publishFees, if so transfer them to us and approve dttemplate to take them\n            if (publishMarketFeeAmount > 0 && publishMarketFeeToken!=address(0) \n            && publishMarketFeeAddress!=address(0)) {\n                _pullUnderlying(publishMarketFeeToken,msg.sender,\n                    address(this),\n                    publishMarketFeeAmount);\n                IERC20(publishMarketFeeToken).safeIncreaseAllowance(orders[i].tokenAddress, publishMarketFeeAmount);\n            }\n            // check if we have consumeMarketFee, if so transfer them to us and approve dttemplate to take them\n            if (orders[i]._consumeMarketFee.consumeMarketFeeAmount > 0\n            && orders[i]._consumeMarketFee.consumeMarketFeeAddress!=address(0) \n            && orders[i]._consumeMarketFee.consumeMarketFeeToken!=address(0)) {\n                _pullUnderlying(orders[i]._consumeMarketFee.consumeMarketFeeToken,msg.sender,\n                    address(this),\n                    orders[i]._consumeMarketFee.consumeMarketFeeAmount);\n                IERC20(orders[i]._consumeMarketFee.consumeMarketFeeToken)\n                .safeIncreaseAllowance(orders[i].tokenAddress, orders[i]._consumeMarketFee.consumeMarketFeeAmount);\n            }\n            // handle provider fees\n            if (orders[i]._providerFee.providerFeeAmount > 0 && orders[i]._providerFee.providerFeeToken!=address(0) \n            && orders[i]._providerFee.providerFeeAddress!=address(0)) {\n                _pullUnderlying(orders[i]._providerFee.providerFeeToken,msg.sender,\n                    address(this),\n                    orders[i]._providerFee.providerFeeAmount);\n                IERC20(orders[i]._providerFee.providerFeeToken)\n                .safeIncreaseAllowance(orders[i].tokenAddress, orders[i]._providerFee.providerFeeAmount);\n            }\n            // transfer erc20 datatoken from consumer to us\n            _pullUnderlying(orders[i].tokenAddress,msg.sender,\n                    address(this),\n                    1e18);\n            IERC20Template(orders[i].tokenAddress).startOrder(\n                orders[i].consumer,\n                orders[i].serviceIndex,\n                orders[i]._providerFee,\n                orders[i]._consumeMarketFee\n            );\n        }\n    }\n\n    struct reuseTokenOrder {\n        address tokenAddress;\n        bytes32 orderTxId;\n        IERC20Template.providerFee _providerFee;\n    }\n    /**\n     * @dev reuseMultipleTokenOrder\n     *      Used as a proxy to order multiple reuses\n     *      Users can have inifinite approvals for fees for factory instead of having one approval/ erc20 contract\n     *      Requires previous approval of all :\n     *          - consumeFeeTokens\n     *          - publishMarketFeeTokens\n     *          - erc20 datatokens\n     *          - providerFees\n     * @param orders an array of struct tokenOrder\n     */\n    function reuseMultipleTokenOrder(\n        reuseTokenOrder[] memory orders\n    ) external nonReentrant {\n        // TODO: to avoid DOS attack, we set a limit to maximum order (50 ?)\n        require(orders.length <= 50, 'ERC721Factory: Too Many Orders');\n        // TO DO.  We can do better here , by groupping publishMarketFeeTokens and consumeFeeTokens and have a single \n        // transfer for each one, instead of doing it per dt..\n        for (uint256 i = 0; i < orders.length; i++) {\n            // handle provider fees\n            if (orders[i]._providerFee.providerFeeAmount > 0 && orders[i]._providerFee.providerFeeToken!=address(0) \n            && orders[i]._providerFee.providerFeeAddress!=address(0)) {\n                _pullUnderlying(orders[i]._providerFee.providerFeeToken,msg.sender,\n                    address(this),\n                    orders[i]._providerFee.providerFeeAmount);\n                IERC20(orders[i]._providerFee.providerFeeToken)\n                .safeIncreaseAllowance(orders[i].tokenAddress, orders[i]._providerFee.providerFeeAmount);\n            }\n        \n            IERC20Template(orders[i].tokenAddress).reuseOrder(\n                orders[i].orderTxId,\n                orders[i]._providerFee\n            );\n        }\n    }\n\n    // helper functions to save number of transactions\n\n    /**\n     * @dev createNftWithErc20\n     *      Creates a new NFT, then a ERC20,all in one call\n     * @param _NftCreateData input data for nft creation\n     * @param _ErcCreateData input data for erc20 creation\n     \n     */\n    function createNftWithErc20(\n        NftCreateData calldata _NftCreateData,\n        ErcCreateData calldata _ErcCreateData\n    ) external nonReentrant returns (address erc721Address, address erc20Address){\n        //we are adding ourselfs as a ERC20 Deployer, because we need it in order to deploy the pool\n        erc721Address = deployERC721Contract(\n            _NftCreateData.name,\n            _NftCreateData.symbol,\n            _NftCreateData.templateIndex,\n            address(this),\n            address(0),\n            _NftCreateData.tokenURI,\n            _NftCreateData.transferable,\n            _NftCreateData.owner\n            );\n        erc20Address = IERC721Template(erc721Address).createERC20(\n            _ErcCreateData.templateIndex,\n            _ErcCreateData.strings,\n            _ErcCreateData.addresses,\n            _ErcCreateData.uints,\n            _ErcCreateData.bytess\n        );\n        // remove our selfs from the erc20DeployerRole\n        IERC721Template(erc721Address).removeFromCreateERC20List(address(this));\n    }\n\n    /**\n     * @dev createNftWithErc20WithPool\n     *      Creates a new NFT, then a ERC20, then a Pool, all in one call\n     *      Use this carefully, because if Pool creation fails, you are still going to pay a lot of gas\n     * @param _NftCreateData input data for NFT Creation\n     * @param _ErcCreateData input data for ERC20 Creation\n     * @param _PoolData input data for Pool Creation\n     */\n    function createNftWithErc20WithPool(\n        NftCreateData calldata _NftCreateData,\n        ErcCreateData calldata _ErcCreateData,\n        PoolData calldata _PoolData\n    ) external nonReentrant returns (address erc721Address, address erc20Address, address poolAddress){\n        _pullUnderlying(_PoolData.addresses[1],msg.sender,\n                    address(this),\n                    _PoolData.ssParams[4]);\n        //we are adding ourselfs as a ERC20 Deployer, because we need it in order to deploy the pool\n        erc721Address = deployERC721Contract(\n            _NftCreateData.name,\n            _NftCreateData.symbol,\n            _NftCreateData.templateIndex,\n            address(this),\n            address(0),\n            _NftCreateData.tokenURI,\n            _NftCreateData.transferable,\n            _NftCreateData.owner);\n        erc20Address = IERC721Template(erc721Address).createERC20(\n            _ErcCreateData.templateIndex,\n            _ErcCreateData.strings,\n            _ErcCreateData.addresses,\n            _ErcCreateData.uints,\n            _ErcCreateData.bytess\n        );\n        // allow router to take the liquidity\n        IERC20(_PoolData.addresses[1]).safeIncreaseAllowance(router,_PoolData.ssParams[4]);\n      \n        poolAddress = IERC20Template(erc20Address).deployPool(\n            _PoolData.ssParams,\n            _PoolData.swapFees,\n           _PoolData.addresses\n        );\n        // remove our selfs from the erc20DeployerRole\n        IERC721Template(erc721Address).removeFromCreateERC20List(address(this));\n    \n   }\n\n    /**\n     * @dev createNftWithErc20WithFixedRate\n     *      Creates a new NFT, then a ERC20, then a FixedRateExchange, all in one call\n     *      Use this carefully, because if Fixed Rate creation fails, you are still going to pay a lot of gas\n     * @param _NftCreateData input data for NFT Creation\n     * @param _ErcCreateData input data for ERC20 Creation\n     * @param _FixedData input data for FixedRate Creation\n     */\n    function createNftWithErc20WithFixedRate(\n        NftCreateData calldata _NftCreateData,\n        ErcCreateData calldata _ErcCreateData,\n        FixedData calldata _FixedData\n    ) external nonReentrant returns (address erc721Address, address erc20Address, bytes32 exchangeId){\n        //we are adding ourselfs as a ERC20 Deployer, because we need it in order to deploy the fixedrate\n        erc721Address = deployERC721Contract(\n            _NftCreateData.name,\n            _NftCreateData.symbol,\n            _NftCreateData.templateIndex,\n            address(this),\n            address(0),\n            _NftCreateData.tokenURI,\n            _NftCreateData.transferable,\n            _NftCreateData.owner);\n        erc20Address = IERC721Template(erc721Address).createERC20(\n            _ErcCreateData.templateIndex,\n            _ErcCreateData.strings,\n            _ErcCreateData.addresses,\n            _ErcCreateData.uints,\n            _ErcCreateData.bytess\n        );\n        exchangeId = IERC20Template(erc20Address).createFixedRate(\n            _FixedData.fixedPriceAddress,\n            _FixedData.addresses,\n            _FixedData.uints\n            );\n        // remove our selfs from the erc20DeployerRole\n        IERC721Template(erc721Address).removeFromCreateERC20List(address(this));\n    }\n\n    /**\n     * @dev createNftWithErc20WithDispenser\n     *      Creates a new NFT, then a ERC20, then a Dispenser, all in one call\n     *      Use this carefully\n     * @param _NftCreateData input data for NFT Creation\n     * @param _ErcCreateData input data for ERC20 Creation\n     * @param _DispenserData input data for Dispenser Creation\n     */\n    function createNftWithErc20WithDispenser(\n        NftCreateData calldata _NftCreateData,\n        ErcCreateData calldata _ErcCreateData,\n        DispenserData calldata _DispenserData\n    ) external nonReentrant returns (address erc721Address, address erc20Address){\n        //we are adding ourselfs as a ERC20 Deployer, because we need it in order to deploy the fixedrate\n        erc721Address = deployERC721Contract(\n            _NftCreateData.name,\n            _NftCreateData.symbol,\n            _NftCreateData.templateIndex,\n            address(this),\n            address(0),\n            _NftCreateData.tokenURI,\n            _NftCreateData.transferable,\n            _NftCreateData.owner);\n        erc20Address = IERC721Template(erc721Address).createERC20(\n            _ErcCreateData.templateIndex,\n            _ErcCreateData.strings,\n            _ErcCreateData.addresses,\n            _ErcCreateData.uints,\n            _ErcCreateData.bytess\n        );\n        IERC20Template(erc20Address).createDispenser(\n            _DispenserData.dispenserAddress,\n            _DispenserData.maxTokens,\n            _DispenserData.maxBalance,\n            _DispenserData.withMint,\n            _DispenserData.allowedSwapper\n            );\n        // remove our selfs from the erc20DeployerRole\n        IERC721Template(erc721Address).removeFromCreateERC20List(address(this));\n    }\n\n\n    \n    struct MetaData {\n        uint8 _metaDataState;\n        string _metaDataDecryptorUrl;\n        string _metaDataDecryptorAddress;\n        bytes flags;\n        bytes data;\n        bytes32 _metaDataHash;\n        IERC721Template.metaDataProof[] _metadataProofs;\n    }\n\n    /**\n     * @dev createNftWithMetaData\n     *      Creates a new NFT, then sets the metadata, all in one call\n     *      Use this carefully\n     * @param _NftCreateData input data for NFT Creation\n     * @param _MetaData input metadata\n     */\n    function createNftWithMetaData(\n        NftCreateData calldata _NftCreateData,\n        MetaData calldata _MetaData\n    ) external nonReentrant returns (address erc721Address){\n        //we are adding ourselfs as metadataDeployer , because we need it in order to set metadata\n        erc721Address = deployERC721Contract(\n            _NftCreateData.name,\n            _NftCreateData.symbol,\n            _NftCreateData.templateIndex,\n            address(0),\n            address(this),\n            _NftCreateData.tokenURI,\n            _NftCreateData.transferable,\n            _NftCreateData.owner);\n        // set metadata\n        IERC721Template(erc721Address).setMetaData(_MetaData._metaDataState, _MetaData._metaDataDecryptorUrl\n        , _MetaData._metaDataDecryptorAddress, _MetaData.flags, \n        _MetaData.data,_MetaData._metaDataHash, _MetaData._metadataProofs);\n        // remove our selfs from the metadataDeployer role\n        IERC721Template(erc721Address).removeFromMetadataList(address(this));\n    }\n\n\n    function _pullUnderlying(\n        address erc20,\n        address from,\n        address to,\n        uint256 amount\n    ) internal {\n        uint256 balanceBefore = IERC20(erc20).balanceOf(to);\n        IERC20(erc20).safeTransferFrom(from, to, amount);\n        require(IERC20(erc20).balanceOf(to) >= balanceBefore.add(amount),\n                    \"Transfer amount is too low\");\n    }\n\n}","sourcePath":"contracts/oceanv4/ERC721Factory.sol","type":"contract","deployment":{"address":"0xe8c6Dc39602031A152440311e364818ba25C2Bc1","chainid":"5","blockHeight":8974884}}