{
  "abi": [
    {
      "inputs": [
        {
          "internalType": "address",
          "name": "_bpoolTemplate",
          "type": "address"
        },
        {
          "internalType": "address",
          "name": "_opcCollector",
          "type": "address"
        },
        {
          "internalType": "address[]",
          "name": "_preCreatedPools",
          "type": "address[]"
        }
      ],
      "stateMutability": "nonpayable",
      "type": "constructor"
    },
    {
      "anonymous": false,
      "inputs": [
        {
          "indexed": true,
          "internalType": "address",
          "name": "newBPoolAddress",
          "type": "address"
        },
        {
          "indexed": true,
          "internalType": "address",
          "name": "registeredBy",
          "type": "address"
        },
        {
          "indexed": true,
          "internalType": "address",
          "name": "datatokenAddress",
          "type": "address"
        },
        {
          "indexed": false,
          "internalType": "address",
          "name": "baseTokenAddress",
          "type": "address"
        },
        {
          "indexed": false,
          "internalType": "address",
          "name": "bpoolTemplateAddress",
          "type": "address"
        },
        {
          "indexed": false,
          "internalType": "address",
          "name": "ssAddress",
          "type": "address"
        }
      ],
      "name": "BPoolCreated",
      "type": "event"
    },
    {
      "anonymous": false,
      "inputs": [
        {
          "indexed": false,
          "internalType": "address",
          "name": "instance",
          "type": "address"
        }
      ],
      "name": "InstanceDeployed",
      "type": "event"
    },
    {
      "anonymous": false,
      "inputs": [
        {
          "indexed": true,
          "internalType": "address",
          "name": "caller",
          "type": "address"
        },
        {
          "indexed": true,
          "internalType": "address",
          "name": "contractAddress",
          "type": "address"
        }
      ],
      "name": "PoolTemplateAdded",
      "type": "event"
    },
    {
      "anonymous": false,
      "inputs": [
        {
          "indexed": true,
          "internalType": "address",
          "name": "caller",
          "type": "address"
        },
        {
          "indexed": true,
          "internalType": "address",
          "name": "contractAddress",
          "type": "address"
        }
      ],
      "name": "PoolTemplateRemoved",
      "type": "event"
    },
    {
      "inputs": [],
      "name": "BONE",
      "outputs": [
        {
          "internalType": "uint256",
          "name": "",
          "type": "uint256"
        }
      ],
      "stateMutability": "view",
      "type": "function"
    },
    {
      "inputs": [],
      "name": "BPOW_PRECISION",
      "outputs": [
        {
          "internalType": "uint256",
          "name": "",
          "type": "uint256"
        }
      ],
      "stateMutability": "view",
      "type": "function"
    },
    {
      "inputs": [],
      "name": "EXIT_FEE",
      "outputs": [
        {
          "internalType": "uint256",
          "name": "",
          "type": "uint256"
        }
      ],
      "stateMutability": "view",
      "type": "function"
    },
    {
      "inputs": [],
      "name": "INIT_POOL_SUPPLY",
      "outputs": [
        {
          "internalType": "uint256",
          "name": "",
          "type": "uint256"
        }
      ],
      "stateMutability": "view",
      "type": "function"
    },
    {
      "inputs": [],
      "name": "MAX_BOUND_TOKENS",
      "outputs": [
        {
          "internalType": "uint256",
          "name": "",
          "type": "uint256"
        }
      ],
      "stateMutability": "view",
      "type": "function"
    },
    {
      "inputs": [],
      "name": "MAX_BPOW_BASE",
      "outputs": [
        {
          "internalType": "uint256",
          "name": "",
          "type": "uint256"
        }
      ],
      "stateMutability": "view",
      "type": "function"
    },
    {
      "inputs": [],
      "name": "MAX_FEE",
      "outputs": [
        {
          "internalType": "uint256",
          "name": "",
          "type": "uint256"
        }
      ],
      "stateMutability": "view",
      "type": "function"
    },
    {
      "inputs": [],
      "name": "MAX_IN_RATIO",
      "outputs": [
        {
          "internalType": "uint256",
          "name": "",
          "type": "uint256"
        }
      ],
      "stateMutability": "view",
      "type": "function"
    },
    {
      "inputs": [],
      "name": "MAX_OUT_RATIO",
      "outputs": [
        {
          "internalType": "uint256",
          "name": "",
          "type": "uint256"
        }
      ],
      "stateMutability": "view",
      "type": "function"
    },
    {
      "inputs": [],
      "name": "MAX_TOTAL_WEIGHT",
      "outputs": [
        {
          "internalType": "uint256",
          "name": "",
          "type": "uint256"
        }
      ],
      "stateMutability": "view",
      "type": "function"
    },
    {
      "inputs": [],
      "name": "MAX_WEIGHT",
      "outputs": [
        {
          "internalType": "uint256",
          "name": "",
          "type": "uint256"
        }
      ],
      "stateMutability": "view",
      "type": "function"
    },
    {
      "inputs": [],
      "name": "MIN_BALANCE",
      "outputs": [
        {
          "internalType": "uint256",
          "name": "",
          "type": "uint256"
        }
      ],
      "stateMutability": "view",
      "type": "function"
    },
    {
      "inputs": [],
      "name": "MIN_BOUND_TOKENS",
      "outputs": [
        {
          "internalType": "uint256",
          "name": "",
          "type": "uint256"
        }
      ],
      "stateMutability": "view",
      "type": "function"
    },
    {
      "inputs": [],
      "name": "MIN_BPOW_BASE",
      "outputs": [
        {
          "internalType": "uint256",
          "name": "",
          "type": "uint256"
        }
      ],
      "stateMutability": "view",
      "type": "function"
    },
    {
      "inputs": [],
      "name": "MIN_FEE",
      "outputs": [
        {
          "internalType": "uint256",
          "name": "",
          "type": "uint256"
        }
      ],
      "stateMutability": "view",
      "type": "function"
    },
    {
      "inputs": [],
      "name": "MIN_WEIGHT",
      "outputs": [
        {
          "internalType": "uint256",
          "name": "",
          "type": "uint256"
        }
      ],
      "stateMutability": "view",
      "type": "function"
    },
    {
      "inputs": [],
      "name": "getPoolTemplates",
      "outputs": [
        {
          "internalType": "address[]",
          "name": "",
          "type": "address[]"
        }
      ],
      "stateMutability": "view",
      "type": "function"
    },
    {
      "inputs": [
        {
          "internalType": "address",
          "name": "poolTemplate",
          "type": "address"
        }
      ],
      "name": "isPoolTemplate",
      "outputs": [
        {
          "internalType": "bool",
          "name": "",
          "type": "bool"
        }
      ],
      "stateMutability": "view",
      "type": "function"
    },
    {
      "inputs": [],
      "name": "opcCollector",
      "outputs": [
        {
          "internalType": "address",
          "name": "",
          "type": "address"
        }
      ],
      "stateMutability": "view",
      "type": "function"
    },
    {
      "inputs": [
        {
          "internalType": "uint256",
          "name": "",
          "type": "uint256"
        }
      ],
      "name": "poolTemplates",
      "outputs": [
        {
          "internalType": "address",
          "name": "",
          "type": "address"
        }
      ],
      "stateMutability": "view",
      "type": "function"
    }
  ],
  "bytecode": "60806040523480156200001157600080fd5b5060405162000a3238038062000a32833981016040819052620000349162000378565b6001600160a01b038316620000a65760405162461bcd60e51b815260206004820152602d60248201527f42466163746f72793a20696e76616c69642062706f6f6c2074656d706c61746560448201526c207a65726f206164647265737360981b60648201526084015b60405180910390fd5b6001600160a01b038216620000fe5760405162461bcd60e51b815260206004820152601660248201527f42466163746f72793a207a65726f20616464726573730000000000000000000060448201526064016200009d565b600080546001600160a01b0319166001600160a01b0384161790556200012483620001dc565b805115620001d35760005b8151811015620001d15760006001600160a01b0316336001600160a01b031683838151811062000163576200016362000472565b602090810291909101810151604080516000808252938101849052908101929092526001600160a01b0316907fbb6121447d29a04cc37bfd93cdf6a9dd08229f2d941116c1528f04698c4e790e9060600160405180910390a480620001c88162000488565b9150506200012f565b505b505050620004b2565b6001600160a01b038116620002485760405162461bcd60e51b815260206004820152602b60248201527f466163746f7279526f757465723a20496e76616c696420706f6f6c54656d706c60448201526a617465206164647265737360a81b60648201526084016200009d565b6200025381620002d3565b620002d05760018054808201825560009182527fb10e2d527612073b26eecdfd717e6a320cf44b4afac2b0732d9fcbe2b7fa0cf60180546001600160a01b0319166001600160a01b038416908117909155604051909133917fc3674c32cbec94fe266aab7ef71f65b9bf77e1ed501d4f2bece8752f5352e9ac9190a35b50565b6000805b6001548110156200033c57826001600160a01b03166001828154811062000302576200030262000472565b6000918252602090912001546001600160a01b03161415620003275750600192915050565b80620003338162000488565b915050620002d7565b50600092915050565b80516001600160a01b03811681146200035d57600080fd5b919050565b634e487b7160e01b600052604160045260246000fd5b6000806000606084860312156200038e57600080fd5b620003998462000345565b92506020620003aa81860162000345565b60408601519093506001600160401b0380821115620003c857600080fd5b818701915087601f830112620003dd57600080fd5b815181811115620003f257620003f262000362565b8060051b604051601f19603f830116810181811085821117156200041a576200041a62000362565b60405291825284820192508381018501918a8311156200043957600080fd5b938501935b828510156200046257620004528562000345565b845293850193928501926200043e565b8096505050505050509250925092565b634e487b7160e01b600052603260045260246000fd5b6000600019821415620004ab57634e487b7160e01b600052601160045260246000fd5b5060010190565b61057080620004c26000396000f3fe608060405234801561001057600080fd5b506004361061012c5760003560e01c8063b0e0d136116100ad578063c07c00fe11610071578063c07c00fe146101f6578063c36596a61461017f578063c6580d1214610219578063e4a28a5214610161578063ec0930211461022157600080fd5b8063b0e0d136146101d6578063b7b800a4146101d6578063ba019dab146101de578063bc063e1a146101e6578063bc694ea2146101ee57600080fd5b806350cbbe76116100f457806350cbbe76146101a357806376c7a3c7146101b6578063867378c5146101be5780639381cd2b146101c6578063992e2a92146101ce57600080fd5b8063038142381461013157806309a3bbe414610161578063189d00ca14610177578063218b53821461017f578063241c7a6d1461018e575b600080fd5b600054610144906001600160a01b031681565b6040516001600160a01b0390911681526020015b60405180910390f35b610169610229565b604051908152602001610158565b61016961023f565b610169670de0b6b3a764000081565b610196610256565b60405161015891906103ed565b6101446101b136600461043a565b6102b8565b6101696102e2565b6101696102f6565b61016961030d565b610169610320565b610169600281565b610169600181565b61016961033e565b610169610351565b610209610204366004610453565b610370565b6040519015158152602001610158565b610169600081565b6101696103da565b61023c670de0b6b3a76400006032610499565b81565b61023c6402540be400670de0b6b3a76400006104b8565b606060018054806020026020016040519081016040528092919081815260200182805480156102ae57602002820191906000526020600020905b81546001600160a01b03168152600190910190602001808311610290575b5050505050905090565b600181815481106102c857600080fd5b6000918252602090912001546001600160a01b0316905081565b61023c612710670de0b6b3a76400006104b8565b61023c64e8d4a51000670de0b6b3a76400006104b8565b61023c670de0b6b3a76400006064610499565b6103336002670de0b6b3a76400006104b8565b61023c9060016104da565b61023c600a670de0b6b3a76400006104b8565b6001610366670de0b6b3a76400006002610499565b61023c91906104f2565b6000805b6001548110156103d157826001600160a01b03166001828154811061039b5761039b610509565b6000918252602090912001546001600160a01b031614156103bf5750600192915050565b806103c98161051f565b915050610374565b50600092915050565b61023c6002670de0b6b3a76400006104b8565b6020808252825182820181905260009190848201906040850190845b8181101561042e5783516001600160a01b031683529284019291840191600101610409565b50909695505050505050565b60006020828403121561044c57600080fd5b5035919050565b60006020828403121561046557600080fd5b81356001600160a01b038116811461047c57600080fd5b9392505050565b634e487b7160e01b600052601160045260246000fd5b60008160001904831182151516156104b3576104b3610483565b500290565b6000826104d557634e487b7160e01b600052601260045260246000fd5b500490565b600082198211156104ed576104ed610483565b500190565b60008282101561050457610504610483565b500390565b634e487b7160e01b600052603260045260246000fd5b600060001982141561053357610533610483565b506001019056fea2646970667358221220b91b55f3047df8d77e7eabedfa62b189113ffb1f59dc38e784ff0d8e618f5e1d64736f6c634300080c0033",
  "bytecodeSha1": "f8f126e7ed2d9ee8274ed19a126c7d2c7688628b",
  "compiler": {
    "evm_version": "istanbul",
    "optimizer": {
      "enabled": true,
      "runs": 200
    },
    "version": "0.8.12+commit.f00d7308"
  },
  "contractName": "BFactory",
  "language": "Solidity",
  "natspec": {
    "kind": "dev",
    "methods": {
      "getPoolTemplates()": {
        "details": "getPoolTemplates      Returns the list of pool templates"
      },
      "isPoolTemplate(address)": {
        "details": "isPoolTemplate      Removes true if address exists in the list of templates",
        "params": {
          "poolTemplate": "address Contract to be checked"
        }
      }
    },
    "version": 1
  },
  "opcodes": "PUSH1 0x80 PUSH1 0x40 MSTORE CALLVALUE DUP1 ISZERO PUSH2 0x10 JUMPI PUSH1 0x0 DUP1 REVERT JUMPDEST POP PUSH1 0x4 CALLDATASIZE LT PUSH2 0x12C JUMPI PUSH1 0x0 CALLDATALOAD PUSH1 0xE0 SHR DUP1 PUSH4 0xB0E0D136 GT PUSH2 0xAD JUMPI DUP1 PUSH4 0xC07C00FE GT PUSH2 0x71 JUMPI DUP1 PUSH4 0xC07C00FE EQ PUSH2 0x1F6 JUMPI DUP1 PUSH4 0xC36596A6 EQ PUSH2 0x17F JUMPI DUP1 PUSH4 0xC6580D12 EQ PUSH2 0x219 JUMPI DUP1 PUSH4 0xE4A28A52 EQ PUSH2 0x161 JUMPI DUP1 PUSH4 0xEC093021 EQ PUSH2 0x221 JUMPI PUSH1 0x0 DUP1 REVERT JUMPDEST DUP1 PUSH4 0xB0E0D136 EQ PUSH2 0x1D6 JUMPI DUP1 PUSH4 0xB7B800A4 EQ PUSH2 0x1D6 JUMPI DUP1 PUSH4 0xBA019DAB EQ PUSH2 0x1DE JUMPI DUP1 PUSH4 0xBC063E1A EQ PUSH2 0x1E6 JUMPI DUP1 PUSH4 0xBC694EA2 EQ PUSH2 0x1EE JUMPI PUSH1 0x0 DUP1 REVERT JUMPDEST DUP1 PUSH4 0x50CBBE76 GT PUSH2 0xF4 JUMPI DUP1 PUSH4 0x50CBBE76 EQ PUSH2 0x1A3 JUMPI DUP1 PUSH4 0x76C7A3C7 EQ PUSH2 0x1B6 JUMPI DUP1 PUSH4 0x867378C5 EQ PUSH2 0x1BE JUMPI DUP1 PUSH4 0x9381CD2B EQ PUSH2 0x1C6 JUMPI DUP1 PUSH4 0x992E2A92 EQ PUSH2 0x1CE JUMPI PUSH1 0x0 DUP1 REVERT JUMPDEST DUP1 PUSH4 0x3814238 EQ PUSH2 0x131 JUMPI DUP1 PUSH4 0x9A3BBE4 EQ PUSH2 0x161 JUMPI DUP1 PUSH4 0x189D00CA EQ PUSH2 0x177 JUMPI DUP1 PUSH4 0x218B5382 EQ PUSH2 0x17F JUMPI DUP1 PUSH4 0x241C7A6D EQ PUSH2 0x18E JUMPI JUMPDEST PUSH1 0x0 DUP1 REVERT JUMPDEST PUSH1 0x0 SLOAD PUSH2 0x144 SWAP1 PUSH1 0x1 PUSH1 0x1 PUSH1 0xA0 SHL SUB AND DUP2 JUMP JUMPDEST PUSH1 0x40 MLOAD PUSH1 0x1 PUSH1 0x1 PUSH1 0xA0 SHL SUB SWAP1 SWAP2 AND DUP2 MSTORE PUSH1 0x20 ADD JUMPDEST PUSH1 0x40 MLOAD DUP1 SWAP2 SUB SWAP1 RETURN JUMPDEST PUSH2 0x169 PUSH2 0x229 JUMP JUMPDEST PUSH1 0x40 MLOAD SWAP1 DUP2 MSTORE PUSH1 0x20 ADD PUSH2 0x158 JUMP JUMPDEST PUSH2 0x169 PUSH2 0x23F JUMP JUMPDEST PUSH2 0x169 PUSH8 0xDE0B6B3A7640000 DUP2 JUMP JUMPDEST PUSH2 0x196 PUSH2 0x256 JUMP JUMPDEST PUSH1 0x40 MLOAD PUSH2 0x158 SWAP2 SWAP1 PUSH2 0x3ED JUMP JUMPDEST PUSH2 0x144 PUSH2 0x1B1 CALLDATASIZE PUSH1 0x4 PUSH2 0x43A JUMP JUMPDEST PUSH2 0x2B8 JUMP JUMPDEST PUSH2 0x169 PUSH2 0x2E2 JUMP JUMPDEST PUSH2 0x169 PUSH2 0x2F6 JUMP JUMPDEST PUSH2 0x169 PUSH2 0x30D JUMP JUMPDEST PUSH2 0x169 PUSH2 0x320 JUMP JUMPDEST PUSH2 0x169 PUSH1 0x2 DUP2 JUMP JUMPDEST PUSH2 0x169 PUSH1 0x1 DUP2 JUMP JUMPDEST PUSH2 0x169 PUSH2 0x33E JUMP JUMPDEST PUSH2 0x169 PUSH2 0x351 JUMP JUMPDEST PUSH2 0x209 PUSH2 0x204 CALLDATASIZE PUSH1 0x4 PUSH2 0x453 JUMP JUMPDEST PUSH2 0x370 JUMP JUMPDEST PUSH1 0x40 MLOAD SWAP1 ISZERO ISZERO DUP2 MSTORE PUSH1 0x20 ADD PUSH2 0x158 JUMP JUMPDEST PUSH2 0x169 PUSH1 0x0 DUP2 JUMP JUMPDEST PUSH2 0x169 PUSH2 0x3DA JUMP JUMPDEST PUSH2 0x23C PUSH8 0xDE0B6B3A7640000 PUSH1 0x32 PUSH2 0x499 JUMP JUMPDEST DUP2 JUMP JUMPDEST PUSH2 0x23C PUSH5 0x2540BE400 PUSH8 0xDE0B6B3A7640000 PUSH2 0x4B8 JUMP JUMPDEST PUSH1 0x60 PUSH1 0x1 DUP1 SLOAD DUP1 PUSH1 0x20 MUL PUSH1 0x20 ADD PUSH1 0x40 MLOAD SWAP1 DUP2 ADD PUSH1 0x40 MSTORE DUP1 SWAP3 SWAP2 SWAP1 DUP2 DUP2 MSTORE PUSH1 0x20 ADD DUP3 DUP1 SLOAD DUP1 ISZERO PUSH2 0x2AE JUMPI PUSH1 0x20 MUL DUP3 ADD SWAP2 SWAP1 PUSH1 0x0 MSTORE PUSH1 0x20 PUSH1 0x0 KECCAK256 SWAP1 JUMPDEST DUP2 SLOAD PUSH1 0x1 PUSH1 0x1 PUSH1 0xA0 SHL SUB AND DUP2 MSTORE PUSH1 0x1 SWAP1 SWAP2 ADD SWAP1 PUSH1 0x20 ADD DUP1 DUP4 GT PUSH2 0x290 JUMPI JUMPDEST POP POP POP POP POP SWAP1 POP SWAP1 JUMP JUMPDEST PUSH1 0x1 DUP2 DUP2 SLOAD DUP2 LT PUSH2 0x2C8 JUMPI PUSH1 0x0 DUP1 REVERT JUMPDEST PUSH1 0x0 SWAP2 DUP3 MSTORE PUSH1 0x20 SWAP1 SWAP2 KECCAK256 ADD SLOAD PUSH1 0x1 PUSH1 0x1 PUSH1 0xA0 SHL SUB AND SWAP1 POP DUP2 JUMP JUMPDEST PUSH2 0x23C PUSH2 0x2710 PUSH8 0xDE0B6B3A7640000 PUSH2 0x4B8 JUMP JUMPDEST PUSH2 0x23C PUSH5 0xE8D4A51000 PUSH8 0xDE0B6B3A7640000 PUSH2 0x4B8 JUMP JUMPDEST PUSH2 0x23C PUSH8 0xDE0B6B3A7640000 PUSH1 0x64 PUSH2 0x499 JUMP JUMPDEST PUSH2 0x333 PUSH1 0x2 PUSH8 0xDE0B6B3A7640000 PUSH2 0x4B8 JUMP JUMPDEST PUSH2 0x23C SWAP1 PUSH1 0x1 PUSH2 0x4DA JUMP JUMPDEST PUSH2 0x23C PUSH1 0xA PUSH8 0xDE0B6B3A7640000 PUSH2 0x4B8 JUMP JUMPDEST PUSH1 0x1 PUSH2 0x366 PUSH8 0xDE0B6B3A7640000 PUSH1 0x2 PUSH2 0x499 JUMP JUMPDEST PUSH2 0x23C SWAP2 SWAP1 PUSH2 0x4F2 JUMP JUMPDEST PUSH1 0x0 DUP1 JUMPDEST PUSH1 0x1 SLOAD DUP2 LT ISZERO PUSH2 0x3D1 JUMPI DUP3 PUSH1 0x1 PUSH1 0x1 PUSH1 0xA0 SHL SUB AND PUSH1 0x1 DUP3 DUP2 SLOAD DUP2 LT PUSH2 0x39B JUMPI PUSH2 0x39B PUSH2 0x509 JUMP JUMPDEST PUSH1 0x0 SWAP2 DUP3 MSTORE PUSH1 0x20 SWAP1 SWAP2 KECCAK256 ADD SLOAD PUSH1 0x1 PUSH1 0x1 PUSH1 0xA0 SHL SUB AND EQ ISZERO PUSH2 0x3BF JUMPI POP PUSH1 0x1 SWAP3 SWAP2 POP POP JUMP JUMPDEST DUP1 PUSH2 0x3C9 DUP2 PUSH2 0x51F JUMP JUMPDEST SWAP2 POP POP PUSH2 0x374 JUMP JUMPDEST POP PUSH1 0x0 SWAP3 SWAP2 POP POP JUMP JUMPDEST PUSH2 0x23C PUSH1 0x2 PUSH8 0xDE0B6B3A7640000 PUSH2 0x4B8 JUMP JUMPDEST PUSH1 0x20 DUP1 DUP3 MSTORE DUP3 MLOAD DUP3 DUP3 ADD DUP2 SWAP1 MSTORE PUSH1 0x0 SWAP2 SWAP1 DUP5 DUP3 ADD SWAP1 PUSH1 0x40 DUP6 ADD SWAP1 DUP5 JUMPDEST DUP2 DUP2 LT ISZERO PUSH2 0x42E JUMPI DUP4 MLOAD PUSH1 0x1 PUSH1 0x1 PUSH1 0xA0 SHL SUB AND DUP4 MSTORE SWAP3 DUP5 ADD SWAP3 SWAP2 DUP5 ADD SWAP2 PUSH1 0x1 ADD PUSH2 0x409 JUMP JUMPDEST POP SWAP1 SWAP7 SWAP6 POP POP POP POP POP POP JUMP JUMPDEST PUSH1 0x0 PUSH1 0x20 DUP3 DUP5 SUB SLT ISZERO PUSH2 0x44C JUMPI PUSH1 0x0 DUP1 REVERT JUMPDEST POP CALLDATALOAD SWAP2 SWAP1 POP JUMP JUMPDEST PUSH1 0x0 PUSH1 0x20 DUP3 DUP5 SUB SLT ISZERO PUSH2 0x465 JUMPI PUSH1 0x0 DUP1 REVERT JUMPDEST DUP2 CALLDATALOAD PUSH1 0x1 PUSH1 0x1 PUSH1 0xA0 SHL SUB DUP2 AND DUP2 EQ PUSH2 0x47C JUMPI PUSH1 0x0 DUP1 REVERT JUMPDEST SWAP4 SWAP3 POP POP POP JUMP JUMPDEST PUSH4 0x4E487B71 PUSH1 0xE0 SHL PUSH1 0x0 MSTORE PUSH1 0x11 PUSH1 0x4 MSTORE PUSH1 0x24 PUSH1 0x0 REVERT JUMPDEST PUSH1 0x0 DUP2 PUSH1 0x0 NOT DIV DUP4 GT DUP3 ISZERO ISZERO AND ISZERO PUSH2 0x4B3 JUMPI PUSH2 0x4B3 PUSH2 0x483 JUMP JUMPDEST POP MUL SWAP1 JUMP JUMPDEST PUSH1 0x0 DUP3 PUSH2 0x4D5 JUMPI PUSH4 0x4E487B71 PUSH1 0xE0 SHL PUSH1 0x0 MSTORE PUSH1 0x12 PUSH1 0x4 MSTORE PUSH1 0x24 PUSH1 0x0 REVERT JUMPDEST POP DIV SWAP1 JUMP JUMPDEST PUSH1 0x0 DUP3 NOT DUP3 GT ISZERO PUSH2 0x4ED JUMPI PUSH2 0x4ED PUSH2 0x483 JUMP JUMPDEST POP ADD SWAP1 JUMP JUMPDEST PUSH1 0x0 DUP3 DUP3 LT ISZERO PUSH2 0x504 JUMPI PUSH2 0x504 PUSH2 0x483 JUMP JUMPDEST POP SUB SWAP1 JUMP JUMPDEST PUSH4 0x4E487B71 PUSH1 0xE0 SHL PUSH1 0x0 MSTORE PUSH1 0x32 PUSH1 0x4 MSTORE PUSH1 0x24 PUSH1 0x0 REVERT JUMPDEST PUSH1 0x0 PUSH1 0x0 NOT DUP3 EQ ISZERO PUSH2 0x533 JUMPI PUSH2 0x533 PUSH2 0x483 JUMP JUMPDEST POP PUSH1 0x1 ADD SWAP1 JUMP INVALID LOG2 PUSH5 0x6970667358 0x22 SLT KECCAK256 0xB9 SHL SSTORE RETURN DIV PUSH30 0xF8D77E7EABEDFA62B189113FFB1F59DC38E784FF0D8E618F5E1D64736F6C PUSH4 0x4300080C STOP CALLER ",
  "sha1": "7afb4b7d0f5edd30c6f366da014d283f7f44ad63",
  "source": "pragma solidity 0.8.12;\n// Copyright Balancer, BigchainDB GmbH and Ocean Protocol contributors\n// SPDX-License-Identifier: (Apache-2.0 AND CC-BY-4.0)\n// Code is Apache-2.0 and docs are CC-BY-4.0\n\nimport \"./BPool.sol\";\nimport \"./BConst.sol\";\nimport \"../../utils/Deployer.sol\";\nimport \"../../interfaces/ISideStaking.sol\";\nimport \"../../interfaces/IERC20.sol\";\n\n/*\n * @title BFactory contract\n * @author Ocean Protocol (with code from Balancer Labs)\n *\n * @dev Ocean implementation of Balancer BPool Factory\n *      BFactory deploys BPool proxy contracts.\n *      New BPool proxy contracts are links to the template contract's bytecode.\n *      Proxy contract functionality is based on Ocean Protocol custom\n *        implementation of ERC1167 standard.\n */\ncontract BFactory is BConst, Deployer {\n    address public opcCollector;\n\n    // mapping(address => bool) internal poolTemplates;\n    address[] public poolTemplates;\n\n    event BPoolCreated(\n        address indexed newBPoolAddress,\n        address indexed registeredBy,\n        address indexed datatokenAddress,\n        address baseTokenAddress,\n        address bpoolTemplateAddress,\n        address ssAddress\n    );\n\n    event PoolTemplateAdded(\n        address indexed caller,\n        address indexed contractAddress\n    );\n    event PoolTemplateRemoved(\n        address indexed caller,\n        address indexed contractAddress\n    );\n\n    /* @dev Called on contract deployment. Cannot be called with zero address.\n       @param _bpoolTemplate -- address of a deployed BPool contract. \n       @param _preCreatedPools list of pre-created pools. \n                          It can be only used in case of migration from an old factory contract.\n    */\n    constructor(\n        address _bpoolTemplate,\n        address _opcCollector,\n        address[] memory _preCreatedPools\n    ) {\n        require(\n            _bpoolTemplate != address(0),\n            \"BFactory: invalid bpool template zero address\"\n        );\n        require(_opcCollector != address(0), \"BFactory: zero address\");\n\n        opcCollector = _opcCollector;\n        _addPoolTemplate(_bpoolTemplate);\n\n        if (_preCreatedPools.length > 0) {\n            for (uint256 i = 0; i < _preCreatedPools.length; i++) {\n                emit BPoolCreated(\n                    _preCreatedPools[i],\n                    msg.sender,\n                    address(0),\n                    address(0),\n                    address(0),\n                    address(0)\n                );\n            }\n        }\n    }\n\n    /** \n     * @dev Deploys new BPool proxy contract. \n       Template contract address could not be a zero address. \n\n     * @param tokens [datatokenAddress, baseTokenAddress]\n     * publisherAddress user which will be assigned the vested amount.\n     * @param ssParams params for the ssContract. \n     * @param swapFees swapFees (swapFee, swapMarketFee), swapOceanFee will be set automatically later\n       marketFeeCollector marketFeeCollector address\n       @param addresses // array of addresses passed by the user\n       [controller,baseTokenAddress,baseTokenSender,publisherAddress, marketFeeCollector,poolTemplate address]\n      @return bpool address of a new proxy BPool contract \n     */\n\n    function newBPool(\n        address[2] memory tokens,\n        uint256[] memory ssParams,\n        uint256[] memory swapFees,\n        address[] memory addresses\n    ) internal returns (address bpool) {\n        require(isPoolTemplate(addresses[5]), \"BFactory: Wrong Pool Template\");\n        address[1] memory feeCollectors = [addresses[4]];\n\n        bpool = deploy(addresses[5]);\n\n        require(bpool != address(0), \"BFactory: invalid bpool zero address\");\n        BPool bpoolInstance = BPool(bpool);\n\n        require(\n            bpoolInstance.initialize(\n                addresses[0], // ss is the pool controller\n                address(this),\n                swapFees,\n                false,\n                false,\n                tokens,\n                feeCollectors\n            ),\n            \"ERR_INITIALIZE_BPOOL\"\n        );\n\n        //  emit BPoolCreated(bpool, msg.sender,datatokenAddress,baseTokenAddress,bpoolTemplate,controller);\n\n        // requires approval first from baseTokenSender\n        require(\n            ISideStaking(addresses[0]).newDatatokenCreated(\n                tokens[0],\n                tokens[1],\n                bpool,\n                addresses[3], //publisherAddress\n                ssParams\n            ),\n            \"ERR_INITIALIZE_SIDESTAKING\"\n        );\n\n        return bpool;\n    }\n\n    /**\n     * @dev _addPoolTemplate\n     *      Adds an address to the list of pools templates\n     *  @param poolTemplate address Contract to be added\n     */\n    function _addPoolTemplate(address poolTemplate) internal {\n        require(\n            poolTemplate != address(0),\n            \"FactoryRouter: Invalid poolTemplate address\"\n        );\n        if (!isPoolTemplate(poolTemplate)) {\n            poolTemplates.push(poolTemplate);\n            emit PoolTemplateAdded(msg.sender, poolTemplate);\n        }\n    }\n\n    /**\n     * @dev _removeFixedRateContract\n     *      Removes an address from the list of pool templates\n     *  @param poolTemplate address Contract to be removed\n     */\n    function _removePoolTemplate(address poolTemplate) internal {\n        uint256 i;\n        for (i = 0; i < poolTemplates.length; i++) {\n            if (poolTemplates[i] == poolTemplate) break;\n        }\n        if (i < poolTemplates.length) {\n            // it's in the array\n            for (uint256 c = i; c < poolTemplates.length - 1; c++) {\n                poolTemplates[c] = poolTemplates[c + 1];\n            }\n            poolTemplates.pop();\n            emit PoolTemplateRemoved(msg.sender, poolTemplate);\n        }\n    }\n\n    /**\n     * @dev isPoolTemplate\n     *      Removes true if address exists in the list of templates\n     *  @param poolTemplate address Contract to be checked\n     */\n    function isPoolTemplate(address poolTemplate) public view virtual returns (bool) {\n        for (uint256 i = 0; i < poolTemplates.length; i++) {\n            if (poolTemplates[i] == poolTemplate) return true;\n        }\n        return false;\n    }\n\n    /**\n     * @dev getPoolTemplates\n     *      Returns the list of pool templates\n     */\n    function getPoolTemplates() public view virtual returns (address[] memory) {\n        return (poolTemplates);\n    }\n}",
  "sourcePath": "contracts/oceanv4/pools/balancer/BFactory.sol",
  "type": "contract"
}