{
  "abi": [
    {
      "inputs": [],
      "name": "BONE",
      "outputs": [
        {
          "internalType": "uint256",
          "name": "",
          "type": "uint256"
        }
      ],
      "stateMutability": "view",
      "type": "function"
    },
    {
      "inputs": [],
      "name": "BPOW_PRECISION",
      "outputs": [
        {
          "internalType": "uint256",
          "name": "",
          "type": "uint256"
        }
      ],
      "stateMutability": "view",
      "type": "function"
    },
    {
      "inputs": [],
      "name": "EXIT_FEE",
      "outputs": [
        {
          "internalType": "uint256",
          "name": "",
          "type": "uint256"
        }
      ],
      "stateMutability": "view",
      "type": "function"
    },
    {
      "inputs": [],
      "name": "INIT_POOL_SUPPLY",
      "outputs": [
        {
          "internalType": "uint256",
          "name": "",
          "type": "uint256"
        }
      ],
      "stateMutability": "view",
      "type": "function"
    },
    {
      "inputs": [],
      "name": "MAX_BOUND_TOKENS",
      "outputs": [
        {
          "internalType": "uint256",
          "name": "",
          "type": "uint256"
        }
      ],
      "stateMutability": "view",
      "type": "function"
    },
    {
      "inputs": [],
      "name": "MAX_BPOW_BASE",
      "outputs": [
        {
          "internalType": "uint256",
          "name": "",
          "type": "uint256"
        }
      ],
      "stateMutability": "view",
      "type": "function"
    },
    {
      "inputs": [],
      "name": "MAX_FEE",
      "outputs": [
        {
          "internalType": "uint256",
          "name": "",
          "type": "uint256"
        }
      ],
      "stateMutability": "view",
      "type": "function"
    },
    {
      "inputs": [],
      "name": "MAX_IN_RATIO",
      "outputs": [
        {
          "internalType": "uint256",
          "name": "",
          "type": "uint256"
        }
      ],
      "stateMutability": "view",
      "type": "function"
    },
    {
      "inputs": [],
      "name": "MAX_OUT_RATIO",
      "outputs": [
        {
          "internalType": "uint256",
          "name": "",
          "type": "uint256"
        }
      ],
      "stateMutability": "view",
      "type": "function"
    },
    {
      "inputs": [],
      "name": "MAX_TOTAL_WEIGHT",
      "outputs": [
        {
          "internalType": "uint256",
          "name": "",
          "type": "uint256"
        }
      ],
      "stateMutability": "view",
      "type": "function"
    },
    {
      "inputs": [],
      "name": "MAX_WEIGHT",
      "outputs": [
        {
          "internalType": "uint256",
          "name": "",
          "type": "uint256"
        }
      ],
      "stateMutability": "view",
      "type": "function"
    },
    {
      "inputs": [],
      "name": "MIN_BALANCE",
      "outputs": [
        {
          "internalType": "uint256",
          "name": "",
          "type": "uint256"
        }
      ],
      "stateMutability": "view",
      "type": "function"
    },
    {
      "inputs": [],
      "name": "MIN_BOUND_TOKENS",
      "outputs": [
        {
          "internalType": "uint256",
          "name": "",
          "type": "uint256"
        }
      ],
      "stateMutability": "view",
      "type": "function"
    },
    {
      "inputs": [],
      "name": "MIN_BPOW_BASE",
      "outputs": [
        {
          "internalType": "uint256",
          "name": "",
          "type": "uint256"
        }
      ],
      "stateMutability": "view",
      "type": "function"
    },
    {
      "inputs": [],
      "name": "MIN_FEE",
      "outputs": [
        {
          "internalType": "uint256",
          "name": "",
          "type": "uint256"
        }
      ],
      "stateMutability": "view",
      "type": "function"
    },
    {
      "inputs": [],
      "name": "MIN_WEIGHT",
      "outputs": [
        {
          "internalType": "uint256",
          "name": "",
          "type": "uint256"
        }
      ],
      "stateMutability": "view",
      "type": "function"
    },
    {
      "inputs": [],
      "name": "_swapPublishMarketFee",
      "outputs": [
        {
          "internalType": "uint256",
          "name": "",
          "type": "uint256"
        }
      ],
      "stateMutability": "view",
      "type": "function"
    },
    {
      "inputs": [
        {
          "internalType": "uint256[4]",
          "name": "data",
          "type": "uint256[4]"
        },
        {
          "internalType": "uint256",
          "name": "tokenAmountOut",
          "type": "uint256"
        },
        {
          "internalType": "uint256",
          "name": "_consumeMarketSwapFee",
          "type": "uint256"
        }
      ],
      "name": "calcInGivenOut",
      "outputs": [
        {
          "internalType": "uint256",
          "name": "tokenAmountIn",
          "type": "uint256"
        },
        {
          "internalType": "uint256",
          "name": "tokenAmountInBalance",
          "type": "uint256"
        },
        {
          "components": [
            {
              "internalType": "uint256",
              "name": "LPFee",
              "type": "uint256"
            },
            {
              "internalType": "uint256",
              "name": "oceanFeeAmount",
              "type": "uint256"
            },
            {
              "internalType": "uint256",
              "name": "publishMarketFeeAmount",
              "type": "uint256"
            },
            {
              "internalType": "uint256",
              "name": "consumeMarketFee",
              "type": "uint256"
            }
          ],
          "internalType": "struct BMath.swapfees",
          "name": "_swapfees",
          "type": "tuple"
        }
      ],
      "stateMutability": "view",
      "type": "function"
    },
    {
      "inputs": [
        {
          "internalType": "uint256[4]",
          "name": "data",
          "type": "uint256[4]"
        },
        {
          "internalType": "uint256",
          "name": "tokenAmountIn",
          "type": "uint256"
        },
        {
          "internalType": "uint256",
          "name": "_consumeMarketSwapFee",
          "type": "uint256"
        }
      ],
      "name": "calcOutGivenIn",
      "outputs": [
        {
          "internalType": "uint256",
          "name": "tokenAmountOut",
          "type": "uint256"
        },
        {
          "internalType": "uint256",
          "name": "balanceInToAdd",
          "type": "uint256"
        },
        {
          "components": [
            {
              "internalType": "uint256",
              "name": "LPFee",
              "type": "uint256"
            },
            {
              "internalType": "uint256",
              "name": "oceanFeeAmount",
              "type": "uint256"
            },
            {
              "internalType": "uint256",
              "name": "publishMarketFeeAmount",
              "type": "uint256"
            },
            {
              "internalType": "uint256",
              "name": "consumeMarketFee",
              "type": "uint256"
            }
          ],
          "internalType": "struct BMath.swapfees",
          "name": "_swapfees",
          "type": "tuple"
        }
      ],
      "stateMutability": "view",
      "type": "function"
    },
    {
      "inputs": [
        {
          "internalType": "address",
          "name": "",
          "type": "address"
        }
      ],
      "name": "communityFees",
      "outputs": [
        {
          "internalType": "uint256",
          "name": "",
          "type": "uint256"
        }
      ],
      "stateMutability": "view",
      "type": "function"
    },
    {
      "inputs": [],
      "name": "getOPCFee",
      "outputs": [
        {
          "internalType": "uint256",
          "name": "",
          "type": "uint256"
        }
      ],
      "stateMutability": "view",
      "type": "function"
    },
    {
      "inputs": [
        {
          "internalType": "address",
          "name": "",
          "type": "address"
        }
      ],
      "name": "publishMarketFees",
      "outputs": [
        {
          "internalType": "uint256",
          "name": "",
          "type": "uint256"
        }
      ],
      "stateMutability": "view",
      "type": "function"
    }
  ],
  "bytecode": "608060405234801561001057600080fd5b50610ea5806100206000396000f3fe608060405234801561001057600080fd5b50600436106101425760003560e01c80639381cd2b116100b8578063bc063e1a1161007c578063bc063e1a1461025b578063bc694ea214610263578063c36596a61461016a578063c6580d121461026b578063e4a28a5214610147578063ec0930211461027357600080fd5b80639381cd2b1461023b578063992e2a9214610243578063b0e0d1361461024b578063b7b800a41461024b578063ba019dab1461025357600080fd5b806351705cd01161010a57806351705cd0146101a157806376c7a3c7146101ef5780637a284be4146101f75780637c5918b314610200578063867378c514610220578063892cdf9e1461022857600080fd5b806309a3bbe414610147578063189d00ca14610162578063218b53821461016a57806329b88a6a146101795780633006219214610181575b600080fd5b61014f61027b565b6040519081526020015b60405180910390f35b61014f610291565b61014f670de0b6b3a764000081565b61014f6102a8565b61014f61018f366004610cce565b60056020526000908152604090205481565b6101b46101af366004610d0d565b610322565b6040805193845260208085019390935281518482015291810151606080850191909152918101516080840152015160a082015260c001610159565b61014f6104da565b61014f60005481565b61014f61020e366004610cce565b60066020526000908152604090205481565b61014f6104ee565b6101b4610236366004610d0d565b610505565b61014f61069d565b61014f6106b0565b61014f600281565b61014f600181565b61014f6106ce565b61014f6106e1565b61014f600081565b61014f610700565b61028e670de0b6b3a76400006032610daf565b81565b61028e6402540be400670de0b6b3a7640000610de4565b6002546004805460405163b8421e2b60e01b81526001600160a01b0391821692810192909252600092169063b8421e2b90602401602060405180830381865afa1580156102f9573d6000803e3d6000fd5b505050506040513d601f19601f8201168201806040525081019061031d9190610df8565b905090565b6000806103506040518060800160405280600081526020016000815260200160008152602001600081525090565b600061036b87600360200201518860015b6020020151610713565b9050600061038088600260200201518861083c565b90506000610395896002602002015183610713565b905060006103a38285610899565b90506103b781670de0b6b3a764000061083c565b905060008054896103c66102a8565b6001546103d39190610e11565b6103dd9190610e11565b6103e79190610e11565b90506104156103fe8c60005b6020020151846109c5565b610410670de0b6b3a76400008461083c565b610713565b975061043d886104338a610438670de0b6b3a76400006104336102a8565b61083c565b6109c5565b866020018181525050610462886104338a610438670de0b6b3a764000060005461083c565b866040018181525050610487886104338a610438670de0b6b3a764000060015461083c565b86526104a38861043381610438670de0b6b3a76400008e61083c565b60608701526104ca6104b68c60006103f3565b610410670de0b6b3a764000060015461083c565b9650505050505093509350939050565b61028e612710670de0b6b3a7640000610de4565b61028e64e8d4a51000670de0b6b3a7640000610de4565b6000806105336040518060800160405280600081526020016000815260200160008152602001600081525090565b60006105488760016020020151886003610361565b90506105668661043388610438670de0b6b3a76400006104336102a8565b82602001818152505061058b8661043388610438670de0b6b3a764000060005461083c565b8260400181815250506105b08661043388610438670de0b6b3a764000060015461083c565b82526105cc8661043381610438670de0b6b3a76400008a61083c565b60608301526000805486906105df6102a8565b6001546105ec9190610e11565b6105f69190610e11565b6106009190610e11565b90506000610616670de0b6b3a76400008361083c565b905061062288826109c5565b8951909150600090610638906104108185610aa0565b905060006106468286610899565b9050600061065c670de0b6b3a76400008361083c565b905061066f8c60026020020151826109c5565b98508861068a8c89604001518a602001516104339190610e11565b9850985050505050505093509350939050565b61028e670de0b6b3a76400006064610daf565b6106c36002670de0b6b3a7640000610de4565b61028e906001610e11565b61028e600a670de0b6b3a7640000610de4565b60016106f6670de0b6b3a76400006002610daf565b61028e9190610e29565b61028e6002670de0b6b3a7640000610de4565b6000816107565760405162461bcd60e51b815260206004820152600c60248201526b4552525f4449565f5a45524f60a01b60448201526064015b60405180910390fd5b600061076a670de0b6b3a764000085610daf565b90508315806107895750670de0b6b3a76400006107878583610de4565b145b6107c85760405162461bcd60e51b815260206004820152601060248201526f11549497d1125597d25395115493905360821b604482015260640161074d565b60006107d5600285610de4565b6107df9083610e11565b9050818110156108245760405162461bcd60e51b815260206004820152601060248201526f11549497d1125597d25395115493905360821b604482015260640161074d565b60006108308583610de4565b93505050505b92915050565b600080600061084b8585610af9565b9150915080156108915760405162461bcd60e51b81526020600482015260116024820152704552525f5355425f554e444552464c4f5760781b604482015260640161074d565b509392505050565b600060018310156108e45760405162461bcd60e51b81526020600482015260156024820152744552525f42504f575f424153455f544f4f5f4c4f5760581b604482015260640161074d565b60016108f9670de0b6b3a76400006002610daf565b6109039190610e29565b83111561094b5760405162461bcd60e51b815260206004820152601660248201527508aa4a4be84a09eaebe8482a68abea89e9ebe90928e960531b604482015260640161074d565b600061095683610b30565b90506000610964848361083c565b9050600061097a8661097585610b4e565b610b62565b90508161098b579250610836915050565b60006109ae87846109a96402540be400670de0b6b3a7640000610de4565b610bde565b90506109ba82826109c5565b979650505050505050565b6000806109d28385610daf565b90508315806109e95750826109e78583610de4565b145b610a285760405162461bcd60e51b815260206004820152601060248201526f4552525f4d554c5f4f564552464c4f5760801b604482015260640161074d565b6000610a3d6002670de0b6b3a7640000610de4565b610a479083610e11565b905081811015610a8c5760405162461bcd60e51b815260206004820152601060248201526f4552525f4d554c5f4f564552464c4f5760801b604482015260640161074d565b6000610830670de0b6b3a764000083610de4565b600080610aad8385610e11565b905083811015610af25760405162461bcd60e51b815260206004820152601060248201526f4552525f4144445f4f564552464c4f5760801b604482015260640161074d565b9392505050565b600080828410610b1857610b0d8385610e29565b600091509150610b29565b610b228484610e29565b6001915091505b9250929050565b6000670de0b6b3a7640000610b4483610b4e565b6108369190610daf565b6000610836670de0b6b3a764000083610de4565b60008281610b71600285610e40565b610b8357670de0b6b3a7640000610b85565b815b9050610b92600285610de4565b93505b8315610bd657610ba582836109c5565b9150610bb2600285610e40565b15610bc457610bc181836109c5565b90505b610bcf600285610de4565b9350610b95565b949350505050565b6000828180610bf587670de0b6b3a7640000610af9565b9092509050670de0b6b3a764000080600060015b888410610cbf576000610c24670de0b6b3a764000083610daf565b9050600080610c448a610c3f85670de0b6b3a764000061083c565b610af9565b91509150610c5687610438848c6109c5565b9650610c628784610713565b965086610c7157505050610cbf565b8715610c7b579315935b8015610c85579315935b8415610c9c57610c95868861083c565b9550610ca9565b610ca68688610aa0565b95505b5050508080610cb790610e54565b915050610c09565b50909998505050505050505050565b600060208284031215610ce057600080fd5b81356001600160a01b0381168114610af257600080fd5b634e487b7160e01b600052604160045260246000fd5b600080600060c08486031215610d2257600080fd5b84601f850112610d3157600080fd5b6040516080810181811067ffffffffffffffff82111715610d5457610d54610cf7565b604052806080860187811115610d6957600080fd5b865b81811015610d83578035835260209283019201610d6b565b509197913596505060a094909401359392505050565b634e487b7160e01b600052601160045260246000fd5b6000816000190483118215151615610dc957610dc9610d99565b500290565b634e487b7160e01b600052601260045260246000fd5b600082610df357610df3610dce565b500490565b600060208284031215610e0a57600080fd5b5051919050565b60008219821115610e2457610e24610d99565b500190565b600082821015610e3b57610e3b610d99565b500390565b600082610e4f57610e4f610dce565b500690565b6000600019821415610e6857610e68610d99565b506001019056fea2646970667358221220a66d6793493cbd556e2f1d26c2093240a910f639ef0c88c24de81607b47b061364736f6c634300080c0033",
  "bytecodeSha1": "847e2936a90d375d7f6adfc763ef0e03b950c3fe",
  "compiler": {
    "evm_version": "istanbul",
    "optimizer": {
      "enabled": true,
      "runs": 200
    },
    "version": "0.8.12+commit.f00d7308"
  },
  "contractName": "BMath",
  "language": "Solidity",
  "natspec": {
    "kind": "dev",
    "methods": {},
    "version": 1
  },
  "opcodes": "PUSH1 0x80 PUSH1 0x40 MSTORE CALLVALUE DUP1 ISZERO PUSH2 0x10 JUMPI PUSH1 0x0 DUP1 REVERT JUMPDEST POP PUSH1 0x4 CALLDATASIZE LT PUSH2 0x142 JUMPI PUSH1 0x0 CALLDATALOAD PUSH1 0xE0 SHR DUP1 PUSH4 0x9381CD2B GT PUSH2 0xB8 JUMPI DUP1 PUSH4 0xBC063E1A GT PUSH2 0x7C JUMPI DUP1 PUSH4 0xBC063E1A EQ PUSH2 0x25B JUMPI DUP1 PUSH4 0xBC694EA2 EQ PUSH2 0x263 JUMPI DUP1 PUSH4 0xC36596A6 EQ PUSH2 0x16A JUMPI DUP1 PUSH4 0xC6580D12 EQ PUSH2 0x26B JUMPI DUP1 PUSH4 0xE4A28A52 EQ PUSH2 0x147 JUMPI DUP1 PUSH4 0xEC093021 EQ PUSH2 0x273 JUMPI PUSH1 0x0 DUP1 REVERT JUMPDEST DUP1 PUSH4 0x9381CD2B EQ PUSH2 0x23B JUMPI DUP1 PUSH4 0x992E2A92 EQ PUSH2 0x243 JUMPI DUP1 PUSH4 0xB0E0D136 EQ PUSH2 0x24B JUMPI DUP1 PUSH4 0xB7B800A4 EQ PUSH2 0x24B JUMPI DUP1 PUSH4 0xBA019DAB EQ PUSH2 0x253 JUMPI PUSH1 0x0 DUP1 REVERT JUMPDEST DUP1 PUSH4 0x51705CD0 GT PUSH2 0x10A JUMPI DUP1 PUSH4 0x51705CD0 EQ PUSH2 0x1A1 JUMPI DUP1 PUSH4 0x76C7A3C7 EQ PUSH2 0x1EF JUMPI DUP1 PUSH4 0x7A284BE4 EQ PUSH2 0x1F7 JUMPI DUP1 PUSH4 0x7C5918B3 EQ PUSH2 0x200 JUMPI DUP1 PUSH4 0x867378C5 EQ PUSH2 0x220 JUMPI DUP1 PUSH4 0x892CDF9E EQ PUSH2 0x228 JUMPI PUSH1 0x0 DUP1 REVERT JUMPDEST DUP1 PUSH4 0x9A3BBE4 EQ PUSH2 0x147 JUMPI DUP1 PUSH4 0x189D00CA EQ PUSH2 0x162 JUMPI DUP1 PUSH4 0x218B5382 EQ PUSH2 0x16A JUMPI DUP1 PUSH4 0x29B88A6A EQ PUSH2 0x179 JUMPI DUP1 PUSH4 0x30062192 EQ PUSH2 0x181 JUMPI JUMPDEST PUSH1 0x0 DUP1 REVERT JUMPDEST PUSH2 0x14F PUSH2 0x27B JUMP JUMPDEST PUSH1 0x40 MLOAD SWAP1 DUP2 MSTORE PUSH1 0x20 ADD JUMPDEST PUSH1 0x40 MLOAD DUP1 SWAP2 SUB SWAP1 RETURN JUMPDEST PUSH2 0x14F PUSH2 0x291 JUMP JUMPDEST PUSH2 0x14F PUSH8 0xDE0B6B3A7640000 DUP2 JUMP JUMPDEST PUSH2 0x14F PUSH2 0x2A8 JUMP JUMPDEST PUSH2 0x14F PUSH2 0x18F CALLDATASIZE PUSH1 0x4 PUSH2 0xCCE JUMP JUMPDEST PUSH1 0x5 PUSH1 0x20 MSTORE PUSH1 0x0 SWAP1 DUP2 MSTORE PUSH1 0x40 SWAP1 KECCAK256 SLOAD DUP2 JUMP JUMPDEST PUSH2 0x1B4 PUSH2 0x1AF CALLDATASIZE PUSH1 0x4 PUSH2 0xD0D JUMP JUMPDEST PUSH2 0x322 JUMP JUMPDEST PUSH1 0x40 DUP1 MLOAD SWAP4 DUP5 MSTORE PUSH1 0x20 DUP1 DUP6 ADD SWAP4 SWAP1 SWAP4 MSTORE DUP2 MLOAD DUP5 DUP3 ADD MSTORE SWAP2 DUP2 ADD MLOAD PUSH1 0x60 DUP1 DUP6 ADD SWAP2 SWAP1 SWAP2 MSTORE SWAP2 DUP2 ADD MLOAD PUSH1 0x80 DUP5 ADD MSTORE ADD MLOAD PUSH1 0xA0 DUP3 ADD MSTORE PUSH1 0xC0 ADD PUSH2 0x159 JUMP JUMPDEST PUSH2 0x14F PUSH2 0x4DA JUMP JUMPDEST PUSH2 0x14F PUSH1 0x0 SLOAD DUP2 JUMP JUMPDEST PUSH2 0x14F PUSH2 0x20E CALLDATASIZE PUSH1 0x4 PUSH2 0xCCE JUMP JUMPDEST PUSH1 0x6 PUSH1 0x20 MSTORE PUSH1 0x0 SWAP1 DUP2 MSTORE PUSH1 0x40 SWAP1 KECCAK256 SLOAD DUP2 JUMP JUMPDEST PUSH2 0x14F PUSH2 0x4EE JUMP JUMPDEST PUSH2 0x1B4 PUSH2 0x236 CALLDATASIZE PUSH1 0x4 PUSH2 0xD0D JUMP JUMPDEST PUSH2 0x505 JUMP JUMPDEST PUSH2 0x14F PUSH2 0x69D JUMP JUMPDEST PUSH2 0x14F PUSH2 0x6B0 JUMP JUMPDEST PUSH2 0x14F PUSH1 0x2 DUP2 JUMP JUMPDEST PUSH2 0x14F PUSH1 0x1 DUP2 JUMP JUMPDEST PUSH2 0x14F PUSH2 0x6CE JUMP JUMPDEST PUSH2 0x14F PUSH2 0x6E1 JUMP JUMPDEST PUSH2 0x14F PUSH1 0x0 DUP2 JUMP JUMPDEST PUSH2 0x14F PUSH2 0x700 JUMP JUMPDEST PUSH2 0x28E PUSH8 0xDE0B6B3A7640000 PUSH1 0x32 PUSH2 0xDAF JUMP JUMPDEST DUP2 JUMP JUMPDEST PUSH2 0x28E PUSH5 0x2540BE400 PUSH8 0xDE0B6B3A7640000 PUSH2 0xDE4 JUMP JUMPDEST PUSH1 0x2 SLOAD PUSH1 0x4 DUP1 SLOAD PUSH1 0x40 MLOAD PUSH4 0xB8421E2B PUSH1 0xE0 SHL DUP2 MSTORE PUSH1 0x1 PUSH1 0x1 PUSH1 0xA0 SHL SUB SWAP2 DUP3 AND SWAP3 DUP2 ADD SWAP3 SWAP1 SWAP3 MSTORE PUSH1 0x0 SWAP3 AND SWAP1 PUSH4 0xB8421E2B SWAP1 PUSH1 0x24 ADD PUSH1 0x20 PUSH1 0x40 MLOAD DUP1 DUP4 SUB DUP2 DUP7 GAS STATICCALL ISZERO DUP1 ISZERO PUSH2 0x2F9 JUMPI RETURNDATASIZE PUSH1 0x0 DUP1 RETURNDATACOPY RETURNDATASIZE PUSH1 0x0 REVERT JUMPDEST POP POP POP POP PUSH1 0x40 MLOAD RETURNDATASIZE PUSH1 0x1F NOT PUSH1 0x1F DUP3 ADD AND DUP3 ADD DUP1 PUSH1 0x40 MSTORE POP DUP2 ADD SWAP1 PUSH2 0x31D SWAP2 SWAP1 PUSH2 0xDF8 JUMP JUMPDEST SWAP1 POP SWAP1 JUMP JUMPDEST PUSH1 0x0 DUP1 PUSH2 0x350 PUSH1 0x40 MLOAD DUP1 PUSH1 0x80 ADD PUSH1 0x40 MSTORE DUP1 PUSH1 0x0 DUP2 MSTORE PUSH1 0x20 ADD PUSH1 0x0 DUP2 MSTORE PUSH1 0x20 ADD PUSH1 0x0 DUP2 MSTORE PUSH1 0x20 ADD PUSH1 0x0 DUP2 MSTORE POP SWAP1 JUMP JUMPDEST PUSH1 0x0 PUSH2 0x36B DUP8 PUSH1 0x3 PUSH1 0x20 MUL ADD MLOAD DUP9 PUSH1 0x1 JUMPDEST PUSH1 0x20 MUL ADD MLOAD PUSH2 0x713 JUMP JUMPDEST SWAP1 POP PUSH1 0x0 PUSH2 0x380 DUP9 PUSH1 0x2 PUSH1 0x20 MUL ADD MLOAD DUP9 PUSH2 0x83C JUMP JUMPDEST SWAP1 POP PUSH1 0x0 PUSH2 0x395 DUP10 PUSH1 0x2 PUSH1 0x20 MUL ADD MLOAD DUP4 PUSH2 0x713 JUMP JUMPDEST SWAP1 POP PUSH1 0x0 PUSH2 0x3A3 DUP3 DUP6 PUSH2 0x899 JUMP JUMPDEST SWAP1 POP PUSH2 0x3B7 DUP2 PUSH8 0xDE0B6B3A7640000 PUSH2 0x83C JUMP JUMPDEST SWAP1 POP PUSH1 0x0 DUP1 SLOAD DUP10 PUSH2 0x3C6 PUSH2 0x2A8 JUMP JUMPDEST PUSH1 0x1 SLOAD PUSH2 0x3D3 SWAP2 SWAP1 PUSH2 0xE11 JUMP JUMPDEST PUSH2 0x3DD SWAP2 SWAP1 PUSH2 0xE11 JUMP JUMPDEST PUSH2 0x3E7 SWAP2 SWAP1 PUSH2 0xE11 JUMP JUMPDEST SWAP1 POP PUSH2 0x415 PUSH2 0x3FE DUP13 PUSH1 0x0 JUMPDEST PUSH1 0x20 MUL ADD MLOAD DUP5 PUSH2 0x9C5 JUMP JUMPDEST PUSH2 0x410 PUSH8 0xDE0B6B3A7640000 DUP5 PUSH2 0x83C JUMP JUMPDEST PUSH2 0x713 JUMP JUMPDEST SWAP8 POP PUSH2 0x43D DUP9 PUSH2 0x433 DUP11 PUSH2 0x438 PUSH8 0xDE0B6B3A7640000 PUSH2 0x433 PUSH2 0x2A8 JUMP JUMPDEST PUSH2 0x83C JUMP JUMPDEST PUSH2 0x9C5 JUMP JUMPDEST DUP7 PUSH1 0x20 ADD DUP2 DUP2 MSTORE POP POP PUSH2 0x462 DUP9 PUSH2 0x433 DUP11 PUSH2 0x438 PUSH8 0xDE0B6B3A7640000 PUSH1 0x0 SLOAD PUSH2 0x83C JUMP JUMPDEST DUP7 PUSH1 0x40 ADD DUP2 DUP2 MSTORE POP POP PUSH2 0x487 DUP9 PUSH2 0x433 DUP11 PUSH2 0x438 PUSH8 0xDE0B6B3A7640000 PUSH1 0x1 SLOAD PUSH2 0x83C JUMP JUMPDEST DUP7 MSTORE PUSH2 0x4A3 DUP9 PUSH2 0x433 DUP2 PUSH2 0x438 PUSH8 0xDE0B6B3A7640000 DUP15 PUSH2 0x83C JUMP JUMPDEST PUSH1 0x60 DUP8 ADD MSTORE PUSH2 0x4CA PUSH2 0x4B6 DUP13 PUSH1 0x0 PUSH2 0x3F3 JUMP JUMPDEST PUSH2 0x410 PUSH8 0xDE0B6B3A7640000 PUSH1 0x1 SLOAD PUSH2 0x83C JUMP JUMPDEST SWAP7 POP POP POP POP POP POP SWAP4 POP SWAP4 POP SWAP4 SWAP1 POP JUMP JUMPDEST PUSH2 0x28E PUSH2 0x2710 PUSH8 0xDE0B6B3A7640000 PUSH2 0xDE4 JUMP JUMPDEST PUSH2 0x28E PUSH5 0xE8D4A51000 PUSH8 0xDE0B6B3A7640000 PUSH2 0xDE4 JUMP JUMPDEST PUSH1 0x0 DUP1 PUSH2 0x533 PUSH1 0x40 MLOAD DUP1 PUSH1 0x80 ADD PUSH1 0x40 MSTORE DUP1 PUSH1 0x0 DUP2 MSTORE PUSH1 0x20 ADD PUSH1 0x0 DUP2 MSTORE PUSH1 0x20 ADD PUSH1 0x0 DUP2 MSTORE PUSH1 0x20 ADD PUSH1 0x0 DUP2 MSTORE POP SWAP1 JUMP JUMPDEST PUSH1 0x0 PUSH2 0x548 DUP8 PUSH1 0x1 PUSH1 0x20 MUL ADD MLOAD DUP9 PUSH1 0x3 PUSH2 0x361 JUMP JUMPDEST SWAP1 POP PUSH2 0x566 DUP7 PUSH2 0x433 DUP9 PUSH2 0x438 PUSH8 0xDE0B6B3A7640000 PUSH2 0x433 PUSH2 0x2A8 JUMP JUMPDEST DUP3 PUSH1 0x20 ADD DUP2 DUP2 MSTORE POP POP PUSH2 0x58B DUP7 PUSH2 0x433 DUP9 PUSH2 0x438 PUSH8 0xDE0B6B3A7640000 PUSH1 0x0 SLOAD PUSH2 0x83C JUMP JUMPDEST DUP3 PUSH1 0x40 ADD DUP2 DUP2 MSTORE POP POP PUSH2 0x5B0 DUP7 PUSH2 0x433 DUP9 PUSH2 0x438 PUSH8 0xDE0B6B3A7640000 PUSH1 0x1 SLOAD PUSH2 0x83C JUMP JUMPDEST DUP3 MSTORE PUSH2 0x5CC DUP7 PUSH2 0x433 DUP2 PUSH2 0x438 PUSH8 0xDE0B6B3A7640000 DUP11 PUSH2 0x83C JUMP JUMPDEST PUSH1 0x60 DUP4 ADD MSTORE PUSH1 0x0 DUP1 SLOAD DUP7 SWAP1 PUSH2 0x5DF PUSH2 0x2A8 JUMP JUMPDEST PUSH1 0x1 SLOAD PUSH2 0x5EC SWAP2 SWAP1 PUSH2 0xE11 JUMP JUMPDEST PUSH2 0x5F6 SWAP2 SWAP1 PUSH2 0xE11 JUMP JUMPDEST PUSH2 0x600 SWAP2 SWAP1 PUSH2 0xE11 JUMP JUMPDEST SWAP1 POP PUSH1 0x0 PUSH2 0x616 PUSH8 0xDE0B6B3A7640000 DUP4 PUSH2 0x83C JUMP JUMPDEST SWAP1 POP PUSH2 0x622 DUP9 DUP3 PUSH2 0x9C5 JUMP JUMPDEST DUP10 MLOAD SWAP1 SWAP2 POP PUSH1 0x0 SWAP1 PUSH2 0x638 SWAP1 PUSH2 0x410 DUP2 DUP6 PUSH2 0xAA0 JUMP JUMPDEST SWAP1 POP PUSH1 0x0 PUSH2 0x646 DUP3 DUP7 PUSH2 0x899 JUMP JUMPDEST SWAP1 POP PUSH1 0x0 PUSH2 0x65C PUSH8 0xDE0B6B3A7640000 DUP4 PUSH2 0x83C JUMP JUMPDEST SWAP1 POP PUSH2 0x66F DUP13 PUSH1 0x2 PUSH1 0x20 MUL ADD MLOAD DUP3 PUSH2 0x9C5 JUMP JUMPDEST SWAP9 POP DUP9 PUSH2 0x68A DUP13 DUP10 PUSH1 0x40 ADD MLOAD DUP11 PUSH1 0x20 ADD MLOAD PUSH2 0x433 SWAP2 SWAP1 PUSH2 0xE11 JUMP JUMPDEST SWAP9 POP SWAP9 POP POP POP POP POP POP POP SWAP4 POP SWAP4 POP SWAP4 SWAP1 POP JUMP JUMPDEST PUSH2 0x28E PUSH8 0xDE0B6B3A7640000 PUSH1 0x64 PUSH2 0xDAF JUMP JUMPDEST PUSH2 0x6C3 PUSH1 0x2 PUSH8 0xDE0B6B3A7640000 PUSH2 0xDE4 JUMP JUMPDEST PUSH2 0x28E SWAP1 PUSH1 0x1 PUSH2 0xE11 JUMP JUMPDEST PUSH2 0x28E PUSH1 0xA PUSH8 0xDE0B6B3A7640000 PUSH2 0xDE4 JUMP JUMPDEST PUSH1 0x1 PUSH2 0x6F6 PUSH8 0xDE0B6B3A7640000 PUSH1 0x2 PUSH2 0xDAF JUMP JUMPDEST PUSH2 0x28E SWAP2 SWAP1 PUSH2 0xE29 JUMP JUMPDEST PUSH2 0x28E PUSH1 0x2 PUSH8 0xDE0B6B3A7640000 PUSH2 0xDE4 JUMP JUMPDEST PUSH1 0x0 DUP2 PUSH2 0x756 JUMPI PUSH1 0x40 MLOAD PUSH3 0x461BCD PUSH1 0xE5 SHL DUP2 MSTORE PUSH1 0x20 PUSH1 0x4 DUP3 ADD MSTORE PUSH1 0xC PUSH1 0x24 DUP3 ADD MSTORE PUSH12 0x4552525F4449565F5A45524F PUSH1 0xA0 SHL PUSH1 0x44 DUP3 ADD MSTORE PUSH1 0x64 ADD JUMPDEST PUSH1 0x40 MLOAD DUP1 SWAP2 SUB SWAP1 REVERT JUMPDEST PUSH1 0x0 PUSH2 0x76A PUSH8 0xDE0B6B3A7640000 DUP6 PUSH2 0xDAF JUMP JUMPDEST SWAP1 POP DUP4 ISZERO DUP1 PUSH2 0x789 JUMPI POP PUSH8 0xDE0B6B3A7640000 PUSH2 0x787 DUP6 DUP4 PUSH2 0xDE4 JUMP JUMPDEST EQ JUMPDEST PUSH2 0x7C8 JUMPI PUSH1 0x40 MLOAD PUSH3 0x461BCD PUSH1 0xE5 SHL DUP2 MSTORE PUSH1 0x20 PUSH1 0x4 DUP3 ADD MSTORE PUSH1 0x10 PUSH1 0x24 DUP3 ADD MSTORE PUSH16 0x11549497D1125597D253951154939053 PUSH1 0x82 SHL PUSH1 0x44 DUP3 ADD MSTORE PUSH1 0x64 ADD PUSH2 0x74D JUMP JUMPDEST PUSH1 0x0 PUSH2 0x7D5 PUSH1 0x2 DUP6 PUSH2 0xDE4 JUMP JUMPDEST PUSH2 0x7DF SWAP1 DUP4 PUSH2 0xE11 JUMP JUMPDEST SWAP1 POP DUP2 DUP2 LT ISZERO PUSH2 0x824 JUMPI PUSH1 0x40 MLOAD PUSH3 0x461BCD PUSH1 0xE5 SHL DUP2 MSTORE PUSH1 0x20 PUSH1 0x4 DUP3 ADD MSTORE PUSH1 0x10 PUSH1 0x24 DUP3 ADD MSTORE PUSH16 0x11549497D1125597D253951154939053 PUSH1 0x82 SHL PUSH1 0x44 DUP3 ADD MSTORE PUSH1 0x64 ADD PUSH2 0x74D JUMP JUMPDEST PUSH1 0x0 PUSH2 0x830 DUP6 DUP4 PUSH2 0xDE4 JUMP JUMPDEST SWAP4 POP POP POP POP JUMPDEST SWAP3 SWAP2 POP POP JUMP JUMPDEST PUSH1 0x0 DUP1 PUSH1 0x0 PUSH2 0x84B DUP6 DUP6 PUSH2 0xAF9 JUMP JUMPDEST SWAP2 POP SWAP2 POP DUP1 ISZERO PUSH2 0x891 JUMPI PUSH1 0x40 MLOAD PUSH3 0x461BCD PUSH1 0xE5 SHL DUP2 MSTORE PUSH1 0x20 PUSH1 0x4 DUP3 ADD MSTORE PUSH1 0x11 PUSH1 0x24 DUP3 ADD MSTORE PUSH17 0x4552525F5355425F554E444552464C4F57 PUSH1 0x78 SHL PUSH1 0x44 DUP3 ADD MSTORE PUSH1 0x64 ADD PUSH2 0x74D JUMP JUMPDEST POP SWAP4 SWAP3 POP POP POP JUMP JUMPDEST PUSH1 0x0 PUSH1 0x1 DUP4 LT ISZERO PUSH2 0x8E4 JUMPI PUSH1 0x40 MLOAD PUSH3 0x461BCD PUSH1 0xE5 SHL DUP2 MSTORE PUSH1 0x20 PUSH1 0x4 DUP3 ADD MSTORE PUSH1 0x15 PUSH1 0x24 DUP3 ADD MSTORE PUSH21 0x4552525F42504F575F424153455F544F4F5F4C4F57 PUSH1 0x58 SHL PUSH1 0x44 DUP3 ADD MSTORE PUSH1 0x64 ADD PUSH2 0x74D JUMP JUMPDEST PUSH1 0x1 PUSH2 0x8F9 PUSH8 0xDE0B6B3A7640000 PUSH1 0x2 PUSH2 0xDAF JUMP JUMPDEST PUSH2 0x903 SWAP2 SWAP1 PUSH2 0xE29 JUMP JUMPDEST DUP4 GT ISZERO PUSH2 0x94B JUMPI PUSH1 0x40 MLOAD PUSH3 0x461BCD PUSH1 0xE5 SHL DUP2 MSTORE PUSH1 0x20 PUSH1 0x4 DUP3 ADD MSTORE PUSH1 0x16 PUSH1 0x24 DUP3 ADD MSTORE PUSH22 0x8AA4A4BE84A09EAEBE8482A68ABEA89E9EBE90928E9 PUSH1 0x53 SHL PUSH1 0x44 DUP3 ADD MSTORE PUSH1 0x64 ADD PUSH2 0x74D JUMP JUMPDEST PUSH1 0x0 PUSH2 0x956 DUP4 PUSH2 0xB30 JUMP JUMPDEST SWAP1 POP PUSH1 0x0 PUSH2 0x964 DUP5 DUP4 PUSH2 0x83C JUMP JUMPDEST SWAP1 POP PUSH1 0x0 PUSH2 0x97A DUP7 PUSH2 0x975 DUP6 PUSH2 0xB4E JUMP JUMPDEST PUSH2 0xB62 JUMP JUMPDEST SWAP1 POP DUP2 PUSH2 0x98B JUMPI SWAP3 POP PUSH2 0x836 SWAP2 POP POP JUMP JUMPDEST PUSH1 0x0 PUSH2 0x9AE DUP8 DUP5 PUSH2 0x9A9 PUSH5 0x2540BE400 PUSH8 0xDE0B6B3A7640000 PUSH2 0xDE4 JUMP JUMPDEST PUSH2 0xBDE JUMP JUMPDEST SWAP1 POP PUSH2 0x9BA DUP3 DUP3 PUSH2 0x9C5 JUMP JUMPDEST SWAP8 SWAP7 POP POP POP POP POP POP POP JUMP JUMPDEST PUSH1 0x0 DUP1 PUSH2 0x9D2 DUP4 DUP6 PUSH2 0xDAF JUMP JUMPDEST SWAP1 POP DUP4 ISZERO DUP1 PUSH2 0x9E9 JUMPI POP DUP3 PUSH2 0x9E7 DUP6 DUP4 PUSH2 0xDE4 JUMP JUMPDEST EQ JUMPDEST PUSH2 0xA28 JUMPI PUSH1 0x40 MLOAD PUSH3 0x461BCD PUSH1 0xE5 SHL DUP2 MSTORE PUSH1 0x20 PUSH1 0x4 DUP3 ADD MSTORE PUSH1 0x10 PUSH1 0x24 DUP3 ADD MSTORE PUSH16 0x4552525F4D554C5F4F564552464C4F57 PUSH1 0x80 SHL PUSH1 0x44 DUP3 ADD MSTORE PUSH1 0x64 ADD PUSH2 0x74D JUMP JUMPDEST PUSH1 0x0 PUSH2 0xA3D PUSH1 0x2 PUSH8 0xDE0B6B3A7640000 PUSH2 0xDE4 JUMP JUMPDEST PUSH2 0xA47 SWAP1 DUP4 PUSH2 0xE11 JUMP JUMPDEST SWAP1 POP DUP2 DUP2 LT ISZERO PUSH2 0xA8C JUMPI PUSH1 0x40 MLOAD PUSH3 0x461BCD PUSH1 0xE5 SHL DUP2 MSTORE PUSH1 0x20 PUSH1 0x4 DUP3 ADD MSTORE PUSH1 0x10 PUSH1 0x24 DUP3 ADD MSTORE PUSH16 0x4552525F4D554C5F4F564552464C4F57 PUSH1 0x80 SHL PUSH1 0x44 DUP3 ADD MSTORE PUSH1 0x64 ADD PUSH2 0x74D JUMP JUMPDEST PUSH1 0x0 PUSH2 0x830 PUSH8 0xDE0B6B3A7640000 DUP4 PUSH2 0xDE4 JUMP JUMPDEST PUSH1 0x0 DUP1 PUSH2 0xAAD DUP4 DUP6 PUSH2 0xE11 JUMP JUMPDEST SWAP1 POP DUP4 DUP2 LT ISZERO PUSH2 0xAF2 JUMPI PUSH1 0x40 MLOAD PUSH3 0x461BCD PUSH1 0xE5 SHL DUP2 MSTORE PUSH1 0x20 PUSH1 0x4 DUP3 ADD MSTORE PUSH1 0x10 PUSH1 0x24 DUP3 ADD MSTORE PUSH16 0x4552525F4144445F4F564552464C4F57 PUSH1 0x80 SHL PUSH1 0x44 DUP3 ADD MSTORE PUSH1 0x64 ADD PUSH2 0x74D JUMP JUMPDEST SWAP4 SWAP3 POP POP POP JUMP JUMPDEST PUSH1 0x0 DUP1 DUP3 DUP5 LT PUSH2 0xB18 JUMPI PUSH2 0xB0D DUP4 DUP6 PUSH2 0xE29 JUMP JUMPDEST PUSH1 0x0 SWAP2 POP SWAP2 POP PUSH2 0xB29 JUMP JUMPDEST PUSH2 0xB22 DUP5 DUP5 PUSH2 0xE29 JUMP JUMPDEST PUSH1 0x1 SWAP2 POP SWAP2 POP JUMPDEST SWAP3 POP SWAP3 SWAP1 POP JUMP JUMPDEST PUSH1 0x0 PUSH8 0xDE0B6B3A7640000 PUSH2 0xB44 DUP4 PUSH2 0xB4E JUMP JUMPDEST PUSH2 0x836 SWAP2 SWAP1 PUSH2 0xDAF JUMP JUMPDEST PUSH1 0x0 PUSH2 0x836 PUSH8 0xDE0B6B3A7640000 DUP4 PUSH2 0xDE4 JUMP JUMPDEST PUSH1 0x0 DUP3 DUP2 PUSH2 0xB71 PUSH1 0x2 DUP6 PUSH2 0xE40 JUMP JUMPDEST PUSH2 0xB83 JUMPI PUSH8 0xDE0B6B3A7640000 PUSH2 0xB85 JUMP JUMPDEST DUP2 JUMPDEST SWAP1 POP PUSH2 0xB92 PUSH1 0x2 DUP6 PUSH2 0xDE4 JUMP JUMPDEST SWAP4 POP JUMPDEST DUP4 ISZERO PUSH2 0xBD6 JUMPI PUSH2 0xBA5 DUP3 DUP4 PUSH2 0x9C5 JUMP JUMPDEST SWAP2 POP PUSH2 0xBB2 PUSH1 0x2 DUP6 PUSH2 0xE40 JUMP JUMPDEST ISZERO PUSH2 0xBC4 JUMPI PUSH2 0xBC1 DUP2 DUP4 PUSH2 0x9C5 JUMP JUMPDEST SWAP1 POP JUMPDEST PUSH2 0xBCF PUSH1 0x2 DUP6 PUSH2 0xDE4 JUMP JUMPDEST SWAP4 POP PUSH2 0xB95 JUMP JUMPDEST SWAP5 SWAP4 POP POP POP POP JUMP JUMPDEST PUSH1 0x0 DUP3 DUP2 DUP1 PUSH2 0xBF5 DUP8 PUSH8 0xDE0B6B3A7640000 PUSH2 0xAF9 JUMP JUMPDEST SWAP1 SWAP3 POP SWAP1 POP PUSH8 0xDE0B6B3A7640000 DUP1 PUSH1 0x0 PUSH1 0x1 JUMPDEST DUP9 DUP5 LT PUSH2 0xCBF JUMPI PUSH1 0x0 PUSH2 0xC24 PUSH8 0xDE0B6B3A7640000 DUP4 PUSH2 0xDAF JUMP JUMPDEST SWAP1 POP PUSH1 0x0 DUP1 PUSH2 0xC44 DUP11 PUSH2 0xC3F DUP6 PUSH8 0xDE0B6B3A7640000 PUSH2 0x83C JUMP JUMPDEST PUSH2 0xAF9 JUMP JUMPDEST SWAP2 POP SWAP2 POP PUSH2 0xC56 DUP8 PUSH2 0x438 DUP5 DUP13 PUSH2 0x9C5 JUMP JUMPDEST SWAP7 POP PUSH2 0xC62 DUP8 DUP5 PUSH2 0x713 JUMP JUMPDEST SWAP7 POP DUP7 PUSH2 0xC71 JUMPI POP POP POP PUSH2 0xCBF JUMP JUMPDEST DUP8 ISZERO PUSH2 0xC7B JUMPI SWAP4 ISZERO SWAP4 JUMPDEST DUP1 ISZERO PUSH2 0xC85 JUMPI SWAP4 ISZERO SWAP4 JUMPDEST DUP5 ISZERO PUSH2 0xC9C JUMPI PUSH2 0xC95 DUP7 DUP9 PUSH2 0x83C JUMP JUMPDEST SWAP6 POP PUSH2 0xCA9 JUMP JUMPDEST PUSH2 0xCA6 DUP7 DUP9 PUSH2 0xAA0 JUMP JUMPDEST SWAP6 POP JUMPDEST POP POP POP DUP1 DUP1 PUSH2 0xCB7 SWAP1 PUSH2 0xE54 JUMP JUMPDEST SWAP2 POP POP PUSH2 0xC09 JUMP JUMPDEST POP SWAP1 SWAP10 SWAP9 POP POP POP POP POP POP POP POP POP JUMP JUMPDEST PUSH1 0x0 PUSH1 0x20 DUP3 DUP5 SUB SLT ISZERO PUSH2 0xCE0 JUMPI PUSH1 0x0 DUP1 REVERT JUMPDEST DUP2 CALLDATALOAD PUSH1 0x1 PUSH1 0x1 PUSH1 0xA0 SHL SUB DUP2 AND DUP2 EQ PUSH2 0xAF2 JUMPI PUSH1 0x0 DUP1 REVERT JUMPDEST PUSH4 0x4E487B71 PUSH1 0xE0 SHL PUSH1 0x0 MSTORE PUSH1 0x41 PUSH1 0x4 MSTORE PUSH1 0x24 PUSH1 0x0 REVERT JUMPDEST PUSH1 0x0 DUP1 PUSH1 0x0 PUSH1 0xC0 DUP5 DUP7 SUB SLT ISZERO PUSH2 0xD22 JUMPI PUSH1 0x0 DUP1 REVERT JUMPDEST DUP5 PUSH1 0x1F DUP6 ADD SLT PUSH2 0xD31 JUMPI PUSH1 0x0 DUP1 REVERT JUMPDEST PUSH1 0x40 MLOAD PUSH1 0x80 DUP2 ADD DUP2 DUP2 LT PUSH8 0xFFFFFFFFFFFFFFFF DUP3 GT OR ISZERO PUSH2 0xD54 JUMPI PUSH2 0xD54 PUSH2 0xCF7 JUMP JUMPDEST PUSH1 0x40 MSTORE DUP1 PUSH1 0x80 DUP7 ADD DUP8 DUP2 GT ISZERO PUSH2 0xD69 JUMPI PUSH1 0x0 DUP1 REVERT JUMPDEST DUP7 JUMPDEST DUP2 DUP2 LT ISZERO PUSH2 0xD83 JUMPI DUP1 CALLDATALOAD DUP4 MSTORE PUSH1 0x20 SWAP3 DUP4 ADD SWAP3 ADD PUSH2 0xD6B JUMP JUMPDEST POP SWAP2 SWAP8 SWAP2 CALLDATALOAD SWAP7 POP POP PUSH1 0xA0 SWAP5 SWAP1 SWAP5 ADD CALLDATALOAD SWAP4 SWAP3 POP POP POP JUMP JUMPDEST PUSH4 0x4E487B71 PUSH1 0xE0 SHL PUSH1 0x0 MSTORE PUSH1 0x11 PUSH1 0x4 MSTORE PUSH1 0x24 PUSH1 0x0 REVERT JUMPDEST PUSH1 0x0 DUP2 PUSH1 0x0 NOT DIV DUP4 GT DUP3 ISZERO ISZERO AND ISZERO PUSH2 0xDC9 JUMPI PUSH2 0xDC9 PUSH2 0xD99 JUMP JUMPDEST POP MUL SWAP1 JUMP JUMPDEST PUSH4 0x4E487B71 PUSH1 0xE0 SHL PUSH1 0x0 MSTORE PUSH1 0x12 PUSH1 0x4 MSTORE PUSH1 0x24 PUSH1 0x0 REVERT JUMPDEST PUSH1 0x0 DUP3 PUSH2 0xDF3 JUMPI PUSH2 0xDF3 PUSH2 0xDCE JUMP JUMPDEST POP DIV SWAP1 JUMP JUMPDEST PUSH1 0x0 PUSH1 0x20 DUP3 DUP5 SUB SLT ISZERO PUSH2 0xE0A JUMPI PUSH1 0x0 DUP1 REVERT JUMPDEST POP MLOAD SWAP2 SWAP1 POP JUMP JUMPDEST PUSH1 0x0 DUP3 NOT DUP3 GT ISZERO PUSH2 0xE24 JUMPI PUSH2 0xE24 PUSH2 0xD99 JUMP JUMPDEST POP ADD SWAP1 JUMP JUMPDEST PUSH1 0x0 DUP3 DUP3 LT ISZERO PUSH2 0xE3B JUMPI PUSH2 0xE3B PUSH2 0xD99 JUMP JUMPDEST POP SUB SWAP1 JUMP JUMPDEST PUSH1 0x0 DUP3 PUSH2 0xE4F JUMPI PUSH2 0xE4F PUSH2 0xDCE JUMP JUMPDEST POP MOD SWAP1 JUMP JUMPDEST PUSH1 0x0 PUSH1 0x0 NOT DUP3 EQ ISZERO PUSH2 0xE68 JUMPI PUSH2 0xE68 PUSH2 0xD99 JUMP JUMPDEST POP PUSH1 0x1 ADD SWAP1 JUMP INVALID LOG2 PUSH5 0x6970667358 0x22 SLT KECCAK256 0xA6 PUSH14 0x6793493CBD556E2F1D26C2093240 0xA9 LT 0xF6 CODECOPY 0xEF 0xC DUP9 0xC2 0x4D 0xE8 AND SMOD 0xB4 PUSH28 0x61364736F6C634300080C0033000000000000000000000000000000 ",
  "sha1": "64e4f0a8b9a6f4b1603a17ac65635763a9620ee0",
  "source": "// This program is free software: you can redistribute it and/or modify\n// it under the terms of the GNU General Public License as published by\n// the Free Software Foundation, either version 3 of the License, or\n// (at your option) any later version.\n\n// This program is distributed in the hope that it will be useful,\n// but WITHOUT ANY WARRANTY; without even the implied warranty of\n// MERCHANTABILITY or FITNESS FOR A PARTICULAR PURPOSE.  See the\n// GNU General Public License for more details.\n\n// You should have received a copy of the GNU General Public License\n// along with this program.  If not, see <http://www.gnu.org/licenses/>.\n\npragma solidity 0.8.12;\n// Copyright Balancer, BigchainDB GmbH and Ocean Protocol contributors\n// SPDX-License-Identifier: (Apache-2.0 AND CC-BY-4.0)\n// Code is Apache-2.0 and docs are CC-BY-4.0\n\nimport './BNum.sol';\n\n\nimport \"../../interfaces/IFactoryRouter.sol\";\n\ncontract BMath is BConst, BNum {\n\n   // uint public _swapMarketFee;\n    uint public _swapPublishMarketFee;\n    uint internal _swapFee;\n  \n    address internal _factory; // BFactory address to push token exitFee to\n\n    address internal _datatokenAddress; //datatoken address\n    address internal _baseTokenAddress; //base token address\n    mapping(address => uint) public communityFees;\n\n     mapping(address => uint) public publishMarketFees;\n   // mapping(address => uint) public marketFees;\n\n\n    function getOPCFee() public view returns (uint) {\n        return IFactoryRouter(_factory).getOPCFee(_baseTokenAddress);\n    }\n    \n    struct swapfees{\n        uint256 LPFee;\n        uint256 oceanFeeAmount;\n        uint256 publishMarketFeeAmount;\n        uint256 consumeMarketFee;\n    }\n    /**********************************************************************************************\n    // calcSpotPrice                                                                             //\n    // sP = spotPrice                                                                            //\n    // bI = tokenBalanceIn                ( bI / wI )         1                                  //\n    // bO = tokenBalanceOut         sP =  -----------  *  ----------                             //\n    // wI = tokenWeightIn                 ( bO / wO )     ( 1 - sF )                             //\n    // wO = tokenWeightOut                                                                       //\n    // sF = swapFee                                                                              //\n    **********************************************************************************************/\n    function calcSpotPrice(\n        uint tokenBalanceIn,\n        uint tokenWeightIn,\n        uint tokenBalanceOut,\n        uint tokenWeightOut,\n        uint _swapMarketFee\n    )\n        internal view\n        returns (uint spotPrice)\n        \n    {   \n       \n\n        uint numer = bdiv(tokenBalanceIn, tokenWeightIn);\n        uint denom = bdiv(tokenBalanceOut, tokenWeightOut);\n        uint ratio = bdiv(numer, denom);\n        uint scale = bdiv(BONE, bsub(BONE, _swapFee+getOPCFee()+_swapPublishMarketFee+_swapMarketFee));\n      \n        return  (spotPrice = bmul(ratio, scale));\n    }\n\n    \n    //    data = [\n    //         inRecord.balance,\n    //         inRecord.denorm,\n    //         outRecord.balance,\n    //         outRecord.denorm\n    //     ];\n    function calcOutGivenIn(\n        uint[4] memory data,\n        uint tokenAmountIn,\n        //address tokenInAddress,\n        uint256 _consumeMarketSwapFee\n\n    )\n        public view\n        returns (uint tokenAmountOut, uint balanceInToAdd, swapfees memory _swapfees)\n    {\n        uint weightRatio = bdiv(data[1], data[3]);\n\n        _swapfees.oceanFeeAmount =  bsub(tokenAmountIn, bmul(tokenAmountIn, bsub(BONE, getOPCFee())));\n\n        \n        _swapfees.publishMarketFeeAmount =  bsub(tokenAmountIn, bmul(tokenAmountIn, bsub(BONE, _swapPublishMarketFee)));\n        \n\n        _swapfees.LPFee = bsub(tokenAmountIn, bmul(tokenAmountIn, bsub(BONE, _swapFee)));\n        _swapfees.consumeMarketFee = bsub(tokenAmountIn, bmul(tokenAmountIn, bsub(BONE, _consumeMarketSwapFee)));\n        uint totalFee =_swapFee+getOPCFee()+_swapPublishMarketFee+_consumeMarketSwapFee;\n\n        uint adjustedIn = bsub(BONE, totalFee);\n        \n        adjustedIn = bmul(tokenAmountIn, adjustedIn);\n         \n        uint y = bdiv(data[0], badd(data[0], adjustedIn));\n        uint foo = bpow(y, weightRatio);\n        uint bar = bsub(BONE, foo);\n        \n\n        tokenAmountOut = bmul(data[2], bar);\n       \n        return (tokenAmountOut, bsub(tokenAmountIn,(_swapfees.oceanFeeAmount+_swapfees.publishMarketFeeAmount)), _swapfees);\n        \n    }\n\n     \n    function calcInGivenOut(\n        uint[4] memory data,\n        uint tokenAmountOut,\n        uint _consumeMarketSwapFee\n    )\n        public view \n        returns (uint tokenAmountIn, uint tokenAmountInBalance, swapfees memory _swapfees)\n    {\n        uint weightRatio = bdiv(data[3], data[1]);\n        uint diff = bsub(data[2], tokenAmountOut);\n        uint y = bdiv(data[2], diff);\n        uint foo = bpow(y, weightRatio);\n        foo = bsub(foo, BONE);\n        uint totalFee =_swapFee+getOPCFee()+_consumeMarketSwapFee+_swapPublishMarketFee;\n        \n        \n        tokenAmountIn = bdiv(bmul(data[0], foo), bsub(BONE, totalFee));\n        _swapfees.oceanFeeAmount =  bsub(tokenAmountIn, bmul(tokenAmountIn, bsub(BONE, getOPCFee())));\n        \n     \n        _swapfees.publishMarketFeeAmount =  bsub(tokenAmountIn, bmul(tokenAmountIn, bsub(BONE, _swapPublishMarketFee)));\n\n     \n        _swapfees.LPFee = bsub(tokenAmountIn, bmul(tokenAmountIn, bsub(BONE, _swapFee)));\n        _swapfees.consumeMarketFee = bsub(tokenAmountIn, bmul(tokenAmountIn, bsub(BONE, _consumeMarketSwapFee)));\n        \n      \n        tokenAmountInBalance = bdiv(bmul(data[0], foo), bsub(BONE, _swapFee));\n      \n        \n        return (tokenAmountIn, tokenAmountInBalance,_swapfees);\n    }\n\n    function calcPoolOutGivenSingleIn(\n        uint tokenBalanceIn,\n        uint poolSupply,\n        uint tokenAmountIn\n       \n    )\n        internal pure\n        returns (uint poolAmountOut)\n    {\n        uint tokenAmountInAfterFee = bmul(tokenAmountIn, BONE);\n        uint newTokenBalanceIn = badd(tokenBalanceIn, tokenAmountInAfterFee);\n        uint tokenInRatio = bdiv(newTokenBalanceIn, tokenBalanceIn);\n        uint poolRatio = bsub(tokenInRatio,BONE);\n        uint newPoolSupply = bmul(poolRatio, poolSupply);\n        require(newPoolSupply >= 2, 'ERR_TOKEN_AMOUNT_IN_TOO_LOW'); \n        newPoolSupply = newPoolSupply/2;\n        return newPoolSupply;\n    }\n\n    function calcSingleInGivenPoolOut(\n        uint tokenBalanceIn,\n        uint poolSupply,\n        uint poolAmountOut\n    )\n        internal pure\n        returns (uint tokenAmountIn)\n    {\n        uint newPoolSupply = badd(poolSupply, poolAmountOut);\n        uint poolRatio = bdiv(newPoolSupply, poolSupply);\n        uint tokenInRatio = bsub(poolRatio, BONE);\n        uint newTokenBalanceIn = bmul(tokenInRatio, tokenBalanceIn);\n        require(newTokenBalanceIn >= 1, 'ERR_POOL_AMOUNT_OUT_TOO_LOW'); \n        newTokenBalanceIn = newTokenBalanceIn * 2;\n        return newTokenBalanceIn;\n    }\n\n    function calcSingleOutGivenPoolIn(\n        uint tokenSupply,\n        uint poolSupply,\n        uint poolAmountIn\n    )\n        internal pure\n        returns (uint tokenAmountOut)\n    {\n        require(poolAmountIn >= 1, 'ERR_POOL_AMOUNT_IN_TOO_LOW'); \n        poolAmountIn = poolAmountIn * 2;\n        uint newPoolSupply = bsub(poolSupply, poolAmountIn);\n        uint poolRatio = bdiv(newPoolSupply, poolSupply);\n        uint tokenOutRatio = bsub(BONE,poolRatio);\n        uint newTokenBalanceOut = bmul(tokenOutRatio, tokenSupply);\n        return newTokenBalanceOut;\n    }\n\n    function calcPoolInGivenSingleOut(\n        uint tokenBalanceOut,\n        uint poolSupply,\n        uint tokenAmountOut\n    )\n        internal pure\n        returns (uint poolAmountIn)\n    {\n        uint newTokenBalanceOut = bsub(\n            tokenBalanceOut, \n            tokenAmountOut\n        );\n        uint tokenOutRatio = bdiv(newTokenBalanceOut, tokenBalanceOut);\n        uint poolRatio = bsub(BONE,tokenOutRatio);\n        uint newPoolSupply = bmul(poolRatio, poolSupply);\n        require(newPoolSupply >= 2, 'ERR_TOKEN_AMOUNT_OUT_TOO_LOW'); \n        newPoolSupply = newPoolSupply/2;\n        return newPoolSupply;\n    }\n\n\n    \n\n}\n",
  "sourcePath": "contracts/oceanv4/pools/balancer/BMath.sol",
  "type": "contract"
}