{
  "abi": [
    {
      "inputs": [],
      "name": "BONE",
      "outputs": [
        {
          "internalType": "uint256",
          "name": "",
          "type": "uint256"
        }
      ],
      "stateMutability": "view",
      "type": "function"
    },
    {
      "inputs": [],
      "name": "BPOW_PRECISION",
      "outputs": [
        {
          "internalType": "uint256",
          "name": "",
          "type": "uint256"
        }
      ],
      "stateMutability": "view",
      "type": "function"
    },
    {
      "inputs": [],
      "name": "EXIT_FEE",
      "outputs": [
        {
          "internalType": "uint256",
          "name": "",
          "type": "uint256"
        }
      ],
      "stateMutability": "view",
      "type": "function"
    },
    {
      "inputs": [],
      "name": "INIT_POOL_SUPPLY",
      "outputs": [
        {
          "internalType": "uint256",
          "name": "",
          "type": "uint256"
        }
      ],
      "stateMutability": "view",
      "type": "function"
    },
    {
      "inputs": [],
      "name": "MAX_BOUND_TOKENS",
      "outputs": [
        {
          "internalType": "uint256",
          "name": "",
          "type": "uint256"
        }
      ],
      "stateMutability": "view",
      "type": "function"
    },
    {
      "inputs": [],
      "name": "MAX_BPOW_BASE",
      "outputs": [
        {
          "internalType": "uint256",
          "name": "",
          "type": "uint256"
        }
      ],
      "stateMutability": "view",
      "type": "function"
    },
    {
      "inputs": [],
      "name": "MAX_FEE",
      "outputs": [
        {
          "internalType": "uint256",
          "name": "",
          "type": "uint256"
        }
      ],
      "stateMutability": "view",
      "type": "function"
    },
    {
      "inputs": [],
      "name": "MAX_IN_RATIO",
      "outputs": [
        {
          "internalType": "uint256",
          "name": "",
          "type": "uint256"
        }
      ],
      "stateMutability": "view",
      "type": "function"
    },
    {
      "inputs": [],
      "name": "MAX_OUT_RATIO",
      "outputs": [
        {
          "internalType": "uint256",
          "name": "",
          "type": "uint256"
        }
      ],
      "stateMutability": "view",
      "type": "function"
    },
    {
      "inputs": [],
      "name": "MAX_TOTAL_WEIGHT",
      "outputs": [
        {
          "internalType": "uint256",
          "name": "",
          "type": "uint256"
        }
      ],
      "stateMutability": "view",
      "type": "function"
    },
    {
      "inputs": [],
      "name": "MAX_WEIGHT",
      "outputs": [
        {
          "internalType": "uint256",
          "name": "",
          "type": "uint256"
        }
      ],
      "stateMutability": "view",
      "type": "function"
    },
    {
      "inputs": [],
      "name": "MIN_BALANCE",
      "outputs": [
        {
          "internalType": "uint256",
          "name": "",
          "type": "uint256"
        }
      ],
      "stateMutability": "view",
      "type": "function"
    },
    {
      "inputs": [],
      "name": "MIN_BOUND_TOKENS",
      "outputs": [
        {
          "internalType": "uint256",
          "name": "",
          "type": "uint256"
        }
      ],
      "stateMutability": "view",
      "type": "function"
    },
    {
      "inputs": [],
      "name": "MIN_BPOW_BASE",
      "outputs": [
        {
          "internalType": "uint256",
          "name": "",
          "type": "uint256"
        }
      ],
      "stateMutability": "view",
      "type": "function"
    },
    {
      "inputs": [],
      "name": "MIN_FEE",
      "outputs": [
        {
          "internalType": "uint256",
          "name": "",
          "type": "uint256"
        }
      ],
      "stateMutability": "view",
      "type": "function"
    },
    {
      "inputs": [],
      "name": "MIN_WEIGHT",
      "outputs": [
        {
          "internalType": "uint256",
          "name": "",
          "type": "uint256"
        }
      ],
      "stateMutability": "view",
      "type": "function"
    }
  ],
  "bytecode": "608060405234801561001057600080fd5b50610310806100206000396000f3fe608060405234801561001057600080fd5b50600436106101005760003560e01c8063b7b800a411610097578063c36596a611610066578063c36596a614610127578063c6580d1214610176578063e4a28a5214610105578063ec0930211461017e57600080fd5b8063b7b800a414610156578063ba019dab1461015e578063bc063e1a14610166578063bc694ea21461016e57600080fd5b8063867378c5116100d3578063867378c51461013e5780639381cd2b14610146578063992e2a921461014e578063b0e0d1361461015657600080fd5b806309a3bbe414610105578063189d00ca1461011f578063218b53821461012757806376c7a3c714610136575b600080fd5b61010d610186565b60405190815260200160405180910390f35b61010d61019c565b61010d670de0b6b3a764000081565b61010d6101b3565b61010d6101c7565b61010d6101de565b61010d6101f1565b61010d600281565b61010d600181565b61010d61020f565b61010d610222565b61010d600081565b61010d610241565b610199670de0b6b3a7640000603261026a565b81565b6101996402540be400670de0b6b3a7640000610289565b610199612710670de0b6b3a7640000610289565b61019964e8d4a51000670de0b6b3a7640000610289565b610199670de0b6b3a7640000606461026a565b6102046002670de0b6b3a7640000610289565b6101999060016102ab565b610199600a670de0b6b3a7640000610289565b6001610237670de0b6b3a7640000600261026a565b61019991906102c3565b6101996002670de0b6b3a7640000610289565b634e487b7160e01b600052601160045260246000fd5b600081600019048311821515161561028457610284610254565b500290565b6000826102a657634e487b7160e01b600052601260045260246000fd5b500490565b600082198211156102be576102be610254565b500190565b6000828210156102d5576102d5610254565b50039056fea264697066735822122084d642c890366573f9ea493096c650b5965335dcdf8fecb00e88dc2b9ac5728864736f6c634300080c0033",
  "bytecodeSha1": "b09555bd5c2d8301a0c153b45b845e238c415f4f",
  "compiler": {
    "evm_version": "istanbul",
    "optimizer": {
      "enabled": true,
      "runs": 200
    },
    "version": "0.8.12+commit.f00d7308"
  },
  "contractName": "BNum",
  "language": "Solidity",
  "natspec": {
    "kind": "dev",
    "methods": {},
    "version": 1
  },
  "opcodes": "PUSH1 0x80 PUSH1 0x40 MSTORE CALLVALUE DUP1 ISZERO PUSH2 0x10 JUMPI PUSH1 0x0 DUP1 REVERT JUMPDEST POP PUSH1 0x4 CALLDATASIZE LT PUSH2 0x100 JUMPI PUSH1 0x0 CALLDATALOAD PUSH1 0xE0 SHR DUP1 PUSH4 0xB7B800A4 GT PUSH2 0x97 JUMPI DUP1 PUSH4 0xC36596A6 GT PUSH2 0x66 JUMPI DUP1 PUSH4 0xC36596A6 EQ PUSH2 0x127 JUMPI DUP1 PUSH4 0xC6580D12 EQ PUSH2 0x176 JUMPI DUP1 PUSH4 0xE4A28A52 EQ PUSH2 0x105 JUMPI DUP1 PUSH4 0xEC093021 EQ PUSH2 0x17E JUMPI PUSH1 0x0 DUP1 REVERT JUMPDEST DUP1 PUSH4 0xB7B800A4 EQ PUSH2 0x156 JUMPI DUP1 PUSH4 0xBA019DAB EQ PUSH2 0x15E JUMPI DUP1 PUSH4 0xBC063E1A EQ PUSH2 0x166 JUMPI DUP1 PUSH4 0xBC694EA2 EQ PUSH2 0x16E JUMPI PUSH1 0x0 DUP1 REVERT JUMPDEST DUP1 PUSH4 0x867378C5 GT PUSH2 0xD3 JUMPI DUP1 PUSH4 0x867378C5 EQ PUSH2 0x13E JUMPI DUP1 PUSH4 0x9381CD2B EQ PUSH2 0x146 JUMPI DUP1 PUSH4 0x992E2A92 EQ PUSH2 0x14E JUMPI DUP1 PUSH4 0xB0E0D136 EQ PUSH2 0x156 JUMPI PUSH1 0x0 DUP1 REVERT JUMPDEST DUP1 PUSH4 0x9A3BBE4 EQ PUSH2 0x105 JUMPI DUP1 PUSH4 0x189D00CA EQ PUSH2 0x11F JUMPI DUP1 PUSH4 0x218B5382 EQ PUSH2 0x127 JUMPI DUP1 PUSH4 0x76C7A3C7 EQ PUSH2 0x136 JUMPI JUMPDEST PUSH1 0x0 DUP1 REVERT JUMPDEST PUSH2 0x10D PUSH2 0x186 JUMP JUMPDEST PUSH1 0x40 MLOAD SWAP1 DUP2 MSTORE PUSH1 0x20 ADD PUSH1 0x40 MLOAD DUP1 SWAP2 SUB SWAP1 RETURN JUMPDEST PUSH2 0x10D PUSH2 0x19C JUMP JUMPDEST PUSH2 0x10D PUSH8 0xDE0B6B3A7640000 DUP2 JUMP JUMPDEST PUSH2 0x10D PUSH2 0x1B3 JUMP JUMPDEST PUSH2 0x10D PUSH2 0x1C7 JUMP JUMPDEST PUSH2 0x10D PUSH2 0x1DE JUMP JUMPDEST PUSH2 0x10D PUSH2 0x1F1 JUMP JUMPDEST PUSH2 0x10D PUSH1 0x2 DUP2 JUMP JUMPDEST PUSH2 0x10D PUSH1 0x1 DUP2 JUMP JUMPDEST PUSH2 0x10D PUSH2 0x20F JUMP JUMPDEST PUSH2 0x10D PUSH2 0x222 JUMP JUMPDEST PUSH2 0x10D PUSH1 0x0 DUP2 JUMP JUMPDEST PUSH2 0x10D PUSH2 0x241 JUMP JUMPDEST PUSH2 0x199 PUSH8 0xDE0B6B3A7640000 PUSH1 0x32 PUSH2 0x26A JUMP JUMPDEST DUP2 JUMP JUMPDEST PUSH2 0x199 PUSH5 0x2540BE400 PUSH8 0xDE0B6B3A7640000 PUSH2 0x289 JUMP JUMPDEST PUSH2 0x199 PUSH2 0x2710 PUSH8 0xDE0B6B3A7640000 PUSH2 0x289 JUMP JUMPDEST PUSH2 0x199 PUSH5 0xE8D4A51000 PUSH8 0xDE0B6B3A7640000 PUSH2 0x289 JUMP JUMPDEST PUSH2 0x199 PUSH8 0xDE0B6B3A7640000 PUSH1 0x64 PUSH2 0x26A JUMP JUMPDEST PUSH2 0x204 PUSH1 0x2 PUSH8 0xDE0B6B3A7640000 PUSH2 0x289 JUMP JUMPDEST PUSH2 0x199 SWAP1 PUSH1 0x1 PUSH2 0x2AB JUMP JUMPDEST PUSH2 0x199 PUSH1 0xA PUSH8 0xDE0B6B3A7640000 PUSH2 0x289 JUMP JUMPDEST PUSH1 0x1 PUSH2 0x237 PUSH8 0xDE0B6B3A7640000 PUSH1 0x2 PUSH2 0x26A JUMP JUMPDEST PUSH2 0x199 SWAP2 SWAP1 PUSH2 0x2C3 JUMP JUMPDEST PUSH2 0x199 PUSH1 0x2 PUSH8 0xDE0B6B3A7640000 PUSH2 0x289 JUMP JUMPDEST PUSH4 0x4E487B71 PUSH1 0xE0 SHL PUSH1 0x0 MSTORE PUSH1 0x11 PUSH1 0x4 MSTORE PUSH1 0x24 PUSH1 0x0 REVERT JUMPDEST PUSH1 0x0 DUP2 PUSH1 0x0 NOT DIV DUP4 GT DUP3 ISZERO ISZERO AND ISZERO PUSH2 0x284 JUMPI PUSH2 0x284 PUSH2 0x254 JUMP JUMPDEST POP MUL SWAP1 JUMP JUMPDEST PUSH1 0x0 DUP3 PUSH2 0x2A6 JUMPI PUSH4 0x4E487B71 PUSH1 0xE0 SHL PUSH1 0x0 MSTORE PUSH1 0x12 PUSH1 0x4 MSTORE PUSH1 0x24 PUSH1 0x0 REVERT JUMPDEST POP DIV SWAP1 JUMP JUMPDEST PUSH1 0x0 DUP3 NOT DUP3 GT ISZERO PUSH2 0x2BE JUMPI PUSH2 0x2BE PUSH2 0x254 JUMP JUMPDEST POP ADD SWAP1 JUMP JUMPDEST PUSH1 0x0 DUP3 DUP3 LT ISZERO PUSH2 0x2D5 JUMPI PUSH2 0x2D5 PUSH2 0x254 JUMP JUMPDEST POP SUB SWAP1 JUMP INVALID LOG2 PUSH5 0x6970667358 0x22 SLT KECCAK256 DUP5 0xD6 TIMESTAMP 0xC8 SWAP1 CALLDATASIZE PUSH6 0x73F9EA493096 0xC6 POP 0xB5 SWAP7 MSTORE8 CALLDATALOAD 0xDC 0xDF DUP16 0xEC 0xB0 0xE DUP9 0xDC 0x2B SWAP11 0xC5 PUSH19 0x8864736F6C634300080C003300000000000000 ",
  "sha1": "a0633cd35a87578bff83f75514773238571a7bcd",
  "source": "// This program is free software: you can redistribute it and/or modify\n// it under the terms of the GNU General Public License as published by\n// the Free Software Foundation, either version 3 of the License, or\n// (at your option) any later version.\n\n// This program is distributed in the hope that it will be useful,\n// but WITHOUT ANY WARRANTY; without even the implied warranty of\n// MERCHANTABILITY or FITNESS FOR A PARTICULAR PURPOSE.  See the\n// GNU General Public License for more details.\n\n// You should have received a copy of the GNU General Public License\n// along with this program.  If not, see <http://www.gnu.org/licenses/>.\n\npragma solidity 0.8.12;\n// Copyright Balancer, BigchainDB GmbH and Ocean Protocol contributors\n// SPDX-License-Identifier: (Apache-2.0 AND CC-BY-4.0)\n// Code is Apache-2.0 and docs are CC-BY-4.0\n\nimport './BConst.sol';\n\ncontract BNum is BConst {\n\n    function btoi(uint a)\n        internal pure \n        returns (uint)\n    {\n        return a / BONE;\n    }\n\n    function bfloor(uint a)\n        internal pure\n        returns (uint)\n    {\n        return btoi(a) * BONE;\n    }\n\n    function badd(uint a, uint b)\n        internal pure\n        returns (uint)\n    {\n        uint c = a + b;\n        require(c >= a, 'ERR_ADD_OVERFLOW');\n        return c;\n    }\n\n    function bsub(uint a, uint b)\n        internal pure\n        returns (uint)\n    {\n        (uint c, bool flag) = bsubSign(a, b);\n        require(!flag, 'ERR_SUB_UNDERFLOW');\n        return c;\n    }\n\n    function bsubSign(uint a, uint b)\n        internal pure\n        returns (uint, bool)\n    {\n        if (a >= b) {\n            return (a - b, false);\n        } else {\n            return (b - a, true);\n        }\n    }\n\n    function bmul(uint a, uint b)\n        internal pure\n        returns (uint)\n    {\n        uint c0 = a * b;\n        require(a == 0 || c0 / a == b, 'ERR_MUL_OVERFLOW');\n        uint c1 = c0 + (BONE / 2);\n        require(c1 >= c0, 'ERR_MUL_OVERFLOW');\n        uint c2 = c1 / BONE;\n        return c2;\n    }\n\n    function bdiv(uint a, uint b)\n        internal pure\n        returns (uint)\n    {\n        require(b != 0, 'ERR_DIV_ZERO');\n        uint c0 = a * BONE;\n        require(a == 0 || c0 / a == BONE, 'ERR_DIV_INTERNAL'); // bmul overflow\n        uint c1 = c0 + (b / 2);\n        require(c1 >= c0, 'ERR_DIV_INTERNAL'); //  badd require\n        uint c2 = c1 / b;\n        return c2;\n    }\n\n    // DSMath.wpow\n    function bpowi(uint a, uint n)\n        internal pure\n        returns (uint)\n    {\n        uint b = a;\n        uint z = n % 2 != 0 ? b : BONE;\n\n        for (n /= 2; n != 0; n /= 2) {\n            b = bmul(b, b);\n\n            if (n % 2 != 0) {\n                z = bmul(z, b);\n            }\n        }\n        return z;\n    }\n\n    // Compute b^(e.w) by splitting it into (b^e)*(b^0.w).\n    // Use `bpowi` for `b^e` and `bpowK` for k iterations\n    // of approximation of b^0.w\n    function bpow(uint base, uint exp)\n        internal pure\n        returns (uint)\n    {\n        require(base >= MIN_BPOW_BASE, 'ERR_BPOW_BASE_TOO_LOW');\n        require(base <= MAX_BPOW_BASE, 'ERR_BPOW_BASE_TOO_HIGH');\n\n        uint whole = bfloor(exp);\n        uint remain = bsub(exp, whole);\n\n        uint wholePow = bpowi(base, btoi(whole));\n\n        if (remain == 0) {\n            return wholePow;\n        }\n\n        uint partialResult = bpowApprox(base, remain, BPOW_PRECISION);\n        return bmul(wholePow, partialResult);\n    }\n\n    function bpowApprox(uint base, uint exp, uint precision)\n        internal pure\n        returns (uint)\n    {\n        // term 0:\n        uint a = exp;\n        (uint x, bool xneg) = bsubSign(base, BONE);\n        uint term = BONE;\n        uint sum = term;\n        bool negative = false;\n\n\n        // term(k) = numer / denom \n        //         = (product(a - i - 1, i=1-->k) * x^k) / (k!)\n        // each iteration, multiply previous term by (a-(k-1)) * x / k\n        // continue until term is less than precision\n        for (uint i = 1; term >= precision; i++) {\n            uint bigK = i * BONE;\n            (uint c, bool cneg) = bsubSign(a, bsub(bigK, BONE));\n            term = bmul(term, bmul(c, x));\n            term = bdiv(term, bigK);\n            if (term == 0) break;\n\n            if (xneg) negative = !negative;\n            if (cneg) negative = !negative;\n            if (negative) {\n                sum = bsub(sum, term);\n            } else {\n                sum = badd(sum, term);\n            }\n        }\n\n        return sum;\n    }\n\n}\n",
  "sourcePath": "contracts/oceanv4/pools/balancer/BNum.sol",
  "type": "contract"
}