{
  "abi": [
    {
      "anonymous": false,
      "inputs": [
        {
          "indexed": true,
          "internalType": "address",
          "name": "src",
          "type": "address"
        },
        {
          "indexed": true,
          "internalType": "address",
          "name": "dst",
          "type": "address"
        },
        {
          "indexed": false,
          "internalType": "uint256",
          "name": "amt",
          "type": "uint256"
        }
      ],
      "name": "Approval",
      "type": "event"
    },
    {
      "anonymous": false,
      "inputs": [
        {
          "indexed": false,
          "internalType": "address",
          "name": "to",
          "type": "address"
        },
        {
          "indexed": false,
          "internalType": "address",
          "name": "token",
          "type": "address"
        },
        {
          "indexed": false,
          "internalType": "uint256",
          "name": "amount",
          "type": "uint256"
        }
      ],
      "name": "ConsumeMarketFee",
      "type": "event"
    },
    {
      "anonymous": false,
      "inputs": [
        {
          "indexed": false,
          "internalType": "address",
          "name": "token",
          "type": "address"
        },
        {
          "indexed": false,
          "internalType": "uint256",
          "name": "oldBalance",
          "type": "uint256"
        },
        {
          "indexed": false,
          "internalType": "uint256",
          "name": "newBalance",
          "type": "uint256"
        }
      ],
      "name": "Gulped",
      "type": "event"
    },
    {
      "anonymous": false,
      "inputs": [
        {
          "indexed": false,
          "internalType": "uint256",
          "name": "bptAmount",
          "type": "uint256"
        }
      ],
      "name": "LOG_BPT",
      "type": "event"
    },
    {
      "anonymous": false,
      "inputs": [
        {
          "indexed": false,
          "internalType": "uint256",
          "name": "bptAmount",
          "type": "uint256"
        }
      ],
      "name": "LOG_BPT_SS",
      "type": "event"
    },
    {
      "anonymous": false,
      "inputs": [
        {
          "indexed": true,
          "internalType": "bytes4",
          "name": "sig",
          "type": "bytes4"
        },
        {
          "indexed": true,
          "internalType": "address",
          "name": "caller",
          "type": "address"
        },
        {
          "indexed": false,
          "internalType": "uint256",
          "name": "timestamp",
          "type": "uint256"
        },
        {
          "indexed": false,
          "internalType": "bytes",
          "name": "data",
          "type": "bytes"
        }
      ],
      "name": "LOG_CALL",
      "type": "event"
    },
    {
      "anonymous": false,
      "inputs": [
        {
          "indexed": true,
          "internalType": "address",
          "name": "caller",
          "type": "address"
        },
        {
          "indexed": true,
          "internalType": "address",
          "name": "tokenOut",
          "type": "address"
        },
        {
          "indexed": false,
          "internalType": "uint256",
          "name": "tokenAmountOut",
          "type": "uint256"
        },
        {
          "indexed": false,
          "internalType": "uint256",
          "name": "timestamp",
          "type": "uint256"
        }
      ],
      "name": "LOG_EXIT",
      "type": "event"
    },
    {
      "anonymous": false,
      "inputs": [
        {
          "indexed": true,
          "internalType": "address",
          "name": "caller",
          "type": "address"
        },
        {
          "indexed": true,
          "internalType": "address",
          "name": "tokenIn",
          "type": "address"
        },
        {
          "indexed": false,
          "internalType": "uint256",
          "name": "tokenAmountIn",
          "type": "uint256"
        },
        {
          "indexed": false,
          "internalType": "uint256",
          "name": "timestamp",
          "type": "uint256"
        }
      ],
      "name": "LOG_JOIN",
      "type": "event"
    },
    {
      "anonymous": false,
      "inputs": [
        {
          "indexed": true,
          "internalType": "address",
          "name": "caller",
          "type": "address"
        },
        {
          "indexed": true,
          "internalType": "address",
          "name": "baseToken",
          "type": "address"
        },
        {
          "indexed": false,
          "internalType": "uint256",
          "name": "baseTokenAmountIn",
          "type": "uint256"
        },
        {
          "indexed": false,
          "internalType": "uint256",
          "name": "baseTokenWeight",
          "type": "uint256"
        },
        {
          "indexed": true,
          "internalType": "address",
          "name": "datatoken",
          "type": "address"
        },
        {
          "indexed": false,
          "internalType": "uint256",
          "name": "datatokenAmountIn",
          "type": "uint256"
        },
        {
          "indexed": false,
          "internalType": "uint256",
          "name": "datatokenWeight",
          "type": "uint256"
        }
      ],
      "name": "LOG_SETUP",
      "type": "event"
    },
    {
      "anonymous": false,
      "inputs": [
        {
          "indexed": true,
          "internalType": "address",
          "name": "caller",
          "type": "address"
        },
        {
          "indexed": true,
          "internalType": "address",
          "name": "tokenIn",
          "type": "address"
        },
        {
          "indexed": true,
          "internalType": "address",
          "name": "tokenOut",
          "type": "address"
        },
        {
          "indexed": false,
          "internalType": "uint256",
          "name": "tokenAmountIn",
          "type": "uint256"
        },
        {
          "indexed": false,
          "internalType": "uint256",
          "name": "tokenAmountOut",
          "type": "uint256"
        },
        {
          "indexed": false,
          "internalType": "uint256",
          "name": "timestamp",
          "type": "uint256"
        },
        {
          "indexed": false,
          "internalType": "uint256",
          "name": "inBalance",
          "type": "uint256"
        },
        {
          "indexed": false,
          "internalType": "uint256",
          "name": "outBalance",
          "type": "uint256"
        },
        {
          "indexed": false,
          "internalType": "uint256",
          "name": "newSpotPrice",
          "type": "uint256"
        }
      ],
      "name": "LOG_SWAP",
      "type": "event"
    },
    {
      "anonymous": false,
      "inputs": [
        {
          "indexed": false,
          "internalType": "address",
          "name": "caller",
          "type": "address"
        },
        {
          "indexed": false,
          "internalType": "address",
          "name": "OPCWallet",
          "type": "address"
        },
        {
          "indexed": false,
          "internalType": "address",
          "name": "token",
          "type": "address"
        },
        {
          "indexed": false,
          "internalType": "uint256",
          "name": "amount",
          "type": "uint256"
        }
      ],
      "name": "OPCFee",
      "type": "event"
    },
    {
      "anonymous": false,
      "inputs": [
        {
          "indexed": false,
          "internalType": "address",
          "name": "caller",
          "type": "address"
        },
        {
          "indexed": false,
          "internalType": "address",
          "name": "marketAddress",
          "type": "address"
        },
        {
          "indexed": false,
          "internalType": "address",
          "name": "token",
          "type": "address"
        },
        {
          "indexed": false,
          "internalType": "uint256",
          "name": "amount",
          "type": "uint256"
        }
      ],
      "name": "PublishMarketFee",
      "type": "event"
    },
    {
      "anonymous": false,
      "inputs": [
        {
          "indexed": false,
          "internalType": "address",
          "name": "caller",
          "type": "address"
        },
        {
          "indexed": false,
          "internalType": "address",
          "name": "newMarketCollector",
          "type": "address"
        },
        {
          "indexed": false,
          "internalType": "uint256",
          "name": "swapFee",
          "type": "uint256"
        }
      ],
      "name": "PublishMarketFeeChanged",
      "type": "event"
    },
    {
      "anonymous": false,
      "inputs": [
        {
          "indexed": false,
          "internalType": "uint256",
          "name": "LPFeeAmount",
          "type": "uint256"
        },
        {
          "indexed": false,
          "internalType": "uint256",
          "name": "oceanFeeAmount",
          "type": "uint256"
        },
        {
          "indexed": false,
          "internalType": "uint256",
          "name": "marketFeeAmount",
          "type": "uint256"
        },
        {
          "indexed": false,
          "internalType": "uint256",
          "name": "consumeMarketFeeAmount",
          "type": "uint256"
        },
        {
          "indexed": false,
          "internalType": "address",
          "name": "tokenFeeAddress",
          "type": "address"
        }
      ],
      "name": "SWAP_FEES",
      "type": "event"
    },
    {
      "anonymous": false,
      "inputs": [
        {
          "indexed": false,
          "internalType": "address",
          "name": "caller",
          "type": "address"
        },
        {
          "indexed": false,
          "internalType": "uint256",
          "name": "amount",
          "type": "uint256"
        }
      ],
      "name": "SwapFeeChanged",
      "type": "event"
    },
    {
      "anonymous": false,
      "inputs": [
        {
          "indexed": true,
          "internalType": "address",
          "name": "src",
          "type": "address"
        },
        {
          "indexed": true,
          "internalType": "address",
          "name": "dst",
          "type": "address"
        },
        {
          "indexed": false,
          "internalType": "uint256",
          "name": "amt",
          "type": "uint256"
        }
      ],
      "name": "Transfer",
      "type": "event"
    },
    {
      "inputs": [],
      "name": "BONE",
      "outputs": [
        {
          "internalType": "uint256",
          "name": "",
          "type": "uint256"
        }
      ],
      "stateMutability": "view",
      "type": "function"
    },
    {
      "inputs": [],
      "name": "BPOW_PRECISION",
      "outputs": [
        {
          "internalType": "uint256",
          "name": "",
          "type": "uint256"
        }
      ],
      "stateMutability": "view",
      "type": "function"
    },
    {
      "inputs": [],
      "name": "EXIT_FEE",
      "outputs": [
        {
          "internalType": "uint256",
          "name": "",
          "type": "uint256"
        }
      ],
      "stateMutability": "view",
      "type": "function"
    },
    {
      "inputs": [],
      "name": "INIT_POOL_SUPPLY",
      "outputs": [
        {
          "internalType": "uint256",
          "name": "",
          "type": "uint256"
        }
      ],
      "stateMutability": "view",
      "type": "function"
    },
    {
      "inputs": [],
      "name": "MAX_BOUND_TOKENS",
      "outputs": [
        {
          "internalType": "uint256",
          "name": "",
          "type": "uint256"
        }
      ],
      "stateMutability": "view",
      "type": "function"
    },
    {
      "inputs": [],
      "name": "MAX_BPOW_BASE",
      "outputs": [
        {
          "internalType": "uint256",
          "name": "",
          "type": "uint256"
        }
      ],
      "stateMutability": "view",
      "type": "function"
    },
    {
      "inputs": [],
      "name": "MAX_FEE",
      "outputs": [
        {
          "internalType": "uint256",
          "name": "",
          "type": "uint256"
        }
      ],
      "stateMutability": "view",
      "type": "function"
    },
    {
      "inputs": [],
      "name": "MAX_IN_RATIO",
      "outputs": [
        {
          "internalType": "uint256",
          "name": "",
          "type": "uint256"
        }
      ],
      "stateMutability": "view",
      "type": "function"
    },
    {
      "inputs": [],
      "name": "MAX_OUT_RATIO",
      "outputs": [
        {
          "internalType": "uint256",
          "name": "",
          "type": "uint256"
        }
      ],
      "stateMutability": "view",
      "type": "function"
    },
    {
      "inputs": [],
      "name": "MAX_TOTAL_WEIGHT",
      "outputs": [
        {
          "internalType": "uint256",
          "name": "",
          "type": "uint256"
        }
      ],
      "stateMutability": "view",
      "type": "function"
    },
    {
      "inputs": [],
      "name": "MAX_WEIGHT",
      "outputs": [
        {
          "internalType": "uint256",
          "name": "",
          "type": "uint256"
        }
      ],
      "stateMutability": "view",
      "type": "function"
    },
    {
      "inputs": [],
      "name": "MIN_BALANCE",
      "outputs": [
        {
          "internalType": "uint256",
          "name": "",
          "type": "uint256"
        }
      ],
      "stateMutability": "view",
      "type": "function"
    },
    {
      "inputs": [],
      "name": "MIN_BOUND_TOKENS",
      "outputs": [
        {
          "internalType": "uint256",
          "name": "",
          "type": "uint256"
        }
      ],
      "stateMutability": "view",
      "type": "function"
    },
    {
      "inputs": [],
      "name": "MIN_BPOW_BASE",
      "outputs": [
        {
          "internalType": "uint256",
          "name": "",
          "type": "uint256"
        }
      ],
      "stateMutability": "view",
      "type": "function"
    },
    {
      "inputs": [],
      "name": "MIN_FEE",
      "outputs": [
        {
          "internalType": "uint256",
          "name": "",
          "type": "uint256"
        }
      ],
      "stateMutability": "view",
      "type": "function"
    },
    {
      "inputs": [],
      "name": "MIN_WEIGHT",
      "outputs": [
        {
          "internalType": "uint256",
          "name": "",
          "type": "uint256"
        }
      ],
      "stateMutability": "view",
      "type": "function"
    },
    {
      "inputs": [],
      "name": "_publishMarketCollector",
      "outputs": [
        {
          "internalType": "address",
          "name": "",
          "type": "address"
        }
      ],
      "stateMutability": "view",
      "type": "function"
    },
    {
      "inputs": [],
      "name": "_swapPublishMarketFee",
      "outputs": [
        {
          "internalType": "uint256",
          "name": "",
          "type": "uint256"
        }
      ],
      "stateMutability": "view",
      "type": "function"
    },
    {
      "inputs": [
        {
          "internalType": "address",
          "name": "src",
          "type": "address"
        },
        {
          "internalType": "address",
          "name": "dst",
          "type": "address"
        }
      ],
      "name": "allowance",
      "outputs": [
        {
          "internalType": "uint256",
          "name": "",
          "type": "uint256"
        }
      ],
      "stateMutability": "view",
      "type": "function"
    },
    {
      "inputs": [
        {
          "internalType": "address",
          "name": "dst",
          "type": "address"
        },
        {
          "internalType": "uint256",
          "name": "amt",
          "type": "uint256"
        }
      ],
      "name": "approve",
      "outputs": [
        {
          "internalType": "bool",
          "name": "",
          "type": "bool"
        }
      ],
      "stateMutability": "nonpayable",
      "type": "function"
    },
    {
      "inputs": [
        {
          "internalType": "address",
          "name": "whom",
          "type": "address"
        }
      ],
      "name": "balanceOf",
      "outputs": [
        {
          "internalType": "uint256",
          "name": "",
          "type": "uint256"
        }
      ],
      "stateMutability": "view",
      "type": "function"
    },
    {
      "inputs": [
        {
          "internalType": "uint256[4]",
          "name": "data",
          "type": "uint256[4]"
        },
        {
          "internalType": "uint256",
          "name": "tokenAmountOut",
          "type": "uint256"
        },
        {
          "internalType": "uint256",
          "name": "_consumeMarketSwapFee",
          "type": "uint256"
        }
      ],
      "name": "calcInGivenOut",
      "outputs": [
        {
          "internalType": "uint256",
          "name": "tokenAmountIn",
          "type": "uint256"
        },
        {
          "internalType": "uint256",
          "name": "tokenAmountInBalance",
          "type": "uint256"
        },
        {
          "components": [
            {
              "internalType": "uint256",
              "name": "LPFee",
              "type": "uint256"
            },
            {
              "internalType": "uint256",
              "name": "oceanFeeAmount",
              "type": "uint256"
            },
            {
              "internalType": "uint256",
              "name": "publishMarketFeeAmount",
              "type": "uint256"
            },
            {
              "internalType": "uint256",
              "name": "consumeMarketFee",
              "type": "uint256"
            }
          ],
          "internalType": "struct BMath.swapfees",
          "name": "_swapfees",
          "type": "tuple"
        }
      ],
      "stateMutability": "view",
      "type": "function"
    },
    {
      "inputs": [
        {
          "internalType": "uint256[4]",
          "name": "data",
          "type": "uint256[4]"
        },
        {
          "internalType": "uint256",
          "name": "tokenAmountIn",
          "type": "uint256"
        },
        {
          "internalType": "uint256",
          "name": "_consumeMarketSwapFee",
          "type": "uint256"
        }
      ],
      "name": "calcOutGivenIn",
      "outputs": [
        {
          "internalType": "uint256",
          "name": "tokenAmountOut",
          "type": "uint256"
        },
        {
          "internalType": "uint256",
          "name": "balanceInToAdd",
          "type": "uint256"
        },
        {
          "components": [
            {
              "internalType": "uint256",
              "name": "LPFee",
              "type": "uint256"
            },
            {
              "internalType": "uint256",
              "name": "oceanFeeAmount",
              "type": "uint256"
            },
            {
              "internalType": "uint256",
              "name": "publishMarketFeeAmount",
              "type": "uint256"
            },
            {
              "internalType": "uint256",
              "name": "consumeMarketFee",
              "type": "uint256"
            }
          ],
          "internalType": "struct BMath.swapfees",
          "name": "_swapfees",
          "type": "tuple"
        }
      ],
      "stateMutability": "view",
      "type": "function"
    },
    {
      "inputs": [
        {
          "internalType": "address",
          "name": "tokenOut",
          "type": "address"
        },
        {
          "internalType": "uint256",
          "name": "tokenAmountOut",
          "type": "uint256"
        }
      ],
      "name": "calcPoolInSingleOut",
      "outputs": [
        {
          "internalType": "uint256",
          "name": "poolAmountIn",
          "type": "uint256"
        }
      ],
      "stateMutability": "view",
      "type": "function"
    },
    {
      "inputs": [
        {
          "internalType": "address",
          "name": "tokenIn",
          "type": "address"
        },
        {
          "internalType": "uint256",
          "name": "tokenAmountIn",
          "type": "uint256"
        }
      ],
      "name": "calcPoolOutSingleIn",
      "outputs": [
        {
          "internalType": "uint256",
          "name": "poolAmountOut",
          "type": "uint256"
        }
      ],
      "stateMutability": "view",
      "type": "function"
    },
    {
      "inputs": [
        {
          "internalType": "address",
          "name": "tokenIn",
          "type": "address"
        },
        {
          "internalType": "uint256",
          "name": "poolAmountOut",
          "type": "uint256"
        }
      ],
      "name": "calcSingleInPoolOut",
      "outputs": [
        {
          "internalType": "uint256",
          "name": "tokenAmountIn",
          "type": "uint256"
        }
      ],
      "stateMutability": "view",
      "type": "function"
    },
    {
      "inputs": [
        {
          "internalType": "address",
          "name": "tokenOut",
          "type": "address"
        },
        {
          "internalType": "uint256",
          "name": "poolAmountIn",
          "type": "uint256"
        }
      ],
      "name": "calcSingleOutPoolIn",
      "outputs": [
        {
          "internalType": "uint256",
          "name": "tokenAmountOut",
          "type": "uint256"
        }
      ],
      "stateMutability": "view",
      "type": "function"
    },
    {
      "inputs": [],
      "name": "collectMarketFee",
      "outputs": [],
      "stateMutability": "nonpayable",
      "type": "function"
    },
    {
      "inputs": [],
      "name": "collectOPC",
      "outputs": [],
      "stateMutability": "nonpayable",
      "type": "function"
    },
    {
      "inputs": [
        {
          "internalType": "address",
          "name": "",
          "type": "address"
        }
      ],
      "name": "communityFees",
      "outputs": [
        {
          "internalType": "uint256",
          "name": "",
          "type": "uint256"
        }
      ],
      "stateMutability": "view",
      "type": "function"
    },
    {
      "inputs": [],
      "name": "decimals",
      "outputs": [
        {
          "internalType": "uint8",
          "name": "",
          "type": "uint8"
        }
      ],
      "stateMutability": "view",
      "type": "function"
    },
    {
      "inputs": [
        {
          "internalType": "address",
          "name": "dst",
          "type": "address"
        },
        {
          "internalType": "uint256",
          "name": "amt",
          "type": "uint256"
        }
      ],
      "name": "decreaseApproval",
      "outputs": [
        {
          "internalType": "bool",
          "name": "",
          "type": "bool"
        }
      ],
      "stateMutability": "nonpayable",
      "type": "function"
    },
    {
      "inputs": [
        {
          "internalType": "uint256",
          "name": "poolAmountIn",
          "type": "uint256"
        },
        {
          "internalType": "uint256",
          "name": "minAmountOut",
          "type": "uint256"
        }
      ],
      "name": "exitswapPoolAmountIn",
      "outputs": [
        {
          "internalType": "uint256",
          "name": "tokenAmountOut",
          "type": "uint256"
        }
      ],
      "stateMutability": "nonpayable",
      "type": "function"
    },
    {
      "inputs": [
        {
          "internalType": "address",
          "name": "tokenIn",
          "type": "address"
        },
        {
          "internalType": "address",
          "name": "tokenOut",
          "type": "address"
        },
        {
          "internalType": "uint256",
          "name": "tokenAmountOut",
          "type": "uint256"
        },
        {
          "internalType": "uint256",
          "name": "_consumeMarketSwapFee",
          "type": "uint256"
        }
      ],
      "name": "getAmountInExactOut",
      "outputs": [
        {
          "internalType": "uint256",
          "name": "tokenAmountIn",
          "type": "uint256"
        },
        {
          "internalType": "uint256",
          "name": "lpFeeAmount",
          "type": "uint256"
        },
        {
          "internalType": "uint256",
          "name": "oceanFeeAmount",
          "type": "uint256"
        },
        {
          "internalType": "uint256",
          "name": "publishMarketSwapFeeAmount",
          "type": "uint256"
        },
        {
          "internalType": "uint256",
          "name": "consumeMarketSwapFeeAmount",
          "type": "uint256"
        }
      ],
      "stateMutability": "view",
      "type": "function"
    },
    {
      "inputs": [
        {
          "internalType": "address",
          "name": "tokenIn",
          "type": "address"
        },
        {
          "internalType": "address",
          "name": "tokenOut",
          "type": "address"
        },
        {
          "internalType": "uint256",
          "name": "tokenAmountIn",
          "type": "uint256"
        },
        {
          "internalType": "uint256",
          "name": "_consumeMarketSwapFee",
          "type": "uint256"
        }
      ],
      "name": "getAmountOutExactIn",
      "outputs": [
        {
          "internalType": "uint256",
          "name": "tokenAmountOut",
          "type": "uint256"
        },
        {
          "internalType": "uint256",
          "name": "lpFeeAmount",
          "type": "uint256"
        },
        {
          "internalType": "uint256",
          "name": "oceanFeeAmount",
          "type": "uint256"
        },
        {
          "internalType": "uint256",
          "name": "publishMarketSwapFeeAmount",
          "type": "uint256"
        },
        {
          "internalType": "uint256",
          "name": "consumeMarketSwapFeeAmount",
          "type": "uint256"
        }
      ],
      "stateMutability": "view",
      "type": "function"
    },
    {
      "inputs": [
        {
          "internalType": "address",
          "name": "token",
          "type": "address"
        }
      ],
      "name": "getBalance",
      "outputs": [
        {
          "internalType": "uint256",
          "name": "",
          "type": "uint256"
        }
      ],
      "stateMutability": "view",
      "type": "function"
    },
    {
      "inputs": [],
      "name": "getBaseTokenAddress",
      "outputs": [
        {
          "internalType": "address",
          "name": "",
          "type": "address"
        }
      ],
      "stateMutability": "view",
      "type": "function"
    },
    {
      "inputs": [],
      "name": "getController",
      "outputs": [
        {
          "internalType": "address",
          "name": "",
          "type": "address"
        }
      ],
      "stateMutability": "view",
      "type": "function"
    },
    {
      "inputs": [],
      "name": "getCurrentMarketFees",
      "outputs": [
        {
          "internalType": "address[]",
          "name": "",
          "type": "address[]"
        },
        {
          "internalType": "uint256[]",
          "name": "",
          "type": "uint256[]"
        }
      ],
      "stateMutability": "view",
      "type": "function"
    },
    {
      "inputs": [],
      "name": "getCurrentOPCFees",
      "outputs": [
        {
          "internalType": "address[]",
          "name": "",
          "type": "address[]"
        },
        {
          "internalType": "uint256[]",
          "name": "",
          "type": "uint256[]"
        }
      ],
      "stateMutability": "view",
      "type": "function"
    },
    {
      "inputs": [],
      "name": "getCurrentTokens",
      "outputs": [
        {
          "internalType": "address[]",
          "name": "tokens",
          "type": "address[]"
        }
      ],
      "stateMutability": "view",
      "type": "function"
    },
    {
      "inputs": [],
      "name": "getDatatokenAddress",
      "outputs": [
        {
          "internalType": "address",
          "name": "",
          "type": "address"
        }
      ],
      "stateMutability": "view",
      "type": "function"
    },
    {
      "inputs": [
        {
          "internalType": "address",
          "name": "token",
          "type": "address"
        }
      ],
      "name": "getDenormalizedWeight",
      "outputs": [
        {
          "internalType": "uint256",
          "name": "",
          "type": "uint256"
        }
      ],
      "stateMutability": "view",
      "type": "function"
    },
    {
      "inputs": [],
      "name": "getFinalTokens",
      "outputs": [
        {
          "internalType": "address[]",
          "name": "tokens",
          "type": "address[]"
        }
      ],
      "stateMutability": "view",
      "type": "function"
    },
    {
      "inputs": [],
      "name": "getId",
      "outputs": [
        {
          "internalType": "uint8",
          "name": "",
          "type": "uint8"
        }
      ],
      "stateMutability": "pure",
      "type": "function"
    },
    {
      "inputs": [],
      "name": "getMarketFee",
      "outputs": [
        {
          "internalType": "uint256",
          "name": "",
          "type": "uint256"
        }
      ],
      "stateMutability": "view",
      "type": "function"
    },
    {
      "inputs": [
        {
          "internalType": "address",
          "name": "token",
          "type": "address"
        }
      ],
      "name": "getNormalizedWeight",
      "outputs": [
        {
          "internalType": "uint256",
          "name": "",
          "type": "uint256"
        }
      ],
      "stateMutability": "view",
      "type": "function"
    },
    {
      "inputs": [],
      "name": "getNumTokens",
      "outputs": [
        {
          "internalType": "uint256",
          "name": "",
          "type": "uint256"
        }
      ],
      "stateMutability": "view",
      "type": "function"
    },
    {
      "inputs": [],
      "name": "getOPCFee",
      "outputs": [
        {
          "internalType": "uint256",
          "name": "",
          "type": "uint256"
        }
      ],
      "stateMutability": "view",
      "type": "function"
    },
    {
      "inputs": [
        {
          "internalType": "address",
          "name": "tokenIn",
          "type": "address"
        },
        {
          "internalType": "address",
          "name": "tokenOut",
          "type": "address"
        },
        {
          "internalType": "uint256",
          "name": "_consumeMarketSwapFee",
          "type": "uint256"
        }
      ],
      "name": "getSpotPrice",
      "outputs": [
        {
          "internalType": "uint256",
          "name": "spotPrice",
          "type": "uint256"
        }
      ],
      "stateMutability": "view",
      "type": "function"
    },
    {
      "inputs": [],
      "name": "getSwapFee",
      "outputs": [
        {
          "internalType": "uint256",
          "name": "",
          "type": "uint256"
        }
      ],
      "stateMutability": "view",
      "type": "function"
    },
    {
      "inputs": [],
      "name": "getTotalDenormalizedWeight",
      "outputs": [
        {
          "internalType": "uint256",
          "name": "",
          "type": "uint256"
        }
      ],
      "stateMutability": "view",
      "type": "function"
    },
    {
      "inputs": [
        {
          "internalType": "address",
          "name": "token",
          "type": "address"
        }
      ],
      "name": "gulp",
      "outputs": [],
      "stateMutability": "nonpayable",
      "type": "function"
    },
    {
      "inputs": [
        {
          "internalType": "address",
          "name": "dst",
          "type": "address"
        },
        {
          "internalType": "uint256",
          "name": "amt",
          "type": "uint256"
        }
      ],
      "name": "increaseApproval",
      "outputs": [
        {
          "internalType": "bool",
          "name": "",
          "type": "bool"
        }
      ],
      "stateMutability": "nonpayable",
      "type": "function"
    },
    {
      "inputs": [
        {
          "internalType": "address",
          "name": "controller",
          "type": "address"
        },
        {
          "internalType": "address",
          "name": "factory",
          "type": "address"
        },
        {
          "internalType": "uint256[]",
          "name": "swapFees",
          "type": "uint256[]"
        },
        {
          "internalType": "bool",
          "name": "publicSwap",
          "type": "bool"
        },
        {
          "internalType": "bool",
          "name": "finalized",
          "type": "bool"
        },
        {
          "internalType": "address[2]",
          "name": "tokens",
          "type": "address[2]"
        },
        {
          "internalType": "address[1]",
          "name": "feeCollectors",
          "type": "address[1]"
        }
      ],
      "name": "initialize",
      "outputs": [
        {
          "internalType": "bool",
          "name": "",
          "type": "bool"
        }
      ],
      "stateMutability": "nonpayable",
      "type": "function"
    },
    {
      "inputs": [
        {
          "internalType": "address",
          "name": "t",
          "type": "address"
        }
      ],
      "name": "isBound",
      "outputs": [
        {
          "internalType": "bool",
          "name": "",
          "type": "bool"
        }
      ],
      "stateMutability": "view",
      "type": "function"
    },
    {
      "inputs": [],
      "name": "isFinalized",
      "outputs": [
        {
          "internalType": "bool",
          "name": "",
          "type": "bool"
        }
      ],
      "stateMutability": "view",
      "type": "function"
    },
    {
      "inputs": [],
      "name": "isInitialized",
      "outputs": [
        {
          "internalType": "bool",
          "name": "",
          "type": "bool"
        }
      ],
      "stateMutability": "view",
      "type": "function"
    },
    {
      "inputs": [],
      "name": "isPublicSwap",
      "outputs": [
        {
          "internalType": "bool",
          "name": "",
          "type": "bool"
        }
      ],
      "stateMutability": "view",
      "type": "function"
    },
    {
      "inputs": [
        {
          "internalType": "uint256",
          "name": "tokenAmountIn",
          "type": "uint256"
        },
        {
          "internalType": "uint256",
          "name": "minPoolAmountOut",
          "type": "uint256"
        }
      ],
      "name": "joinswapExternAmountIn",
      "outputs": [
        {
          "internalType": "uint256",
          "name": "poolAmountOut",
          "type": "uint256"
        }
      ],
      "stateMutability": "nonpayable",
      "type": "function"
    },
    {
      "inputs": [],
      "name": "name",
      "outputs": [
        {
          "internalType": "string",
          "name": "",
          "type": "string"
        }
      ],
      "stateMutability": "view",
      "type": "function"
    },
    {
      "inputs": [
        {
          "internalType": "address",
          "name": "",
          "type": "address"
        }
      ],
      "name": "publishMarketFees",
      "outputs": [
        {
          "internalType": "uint256",
          "name": "",
          "type": "uint256"
        }
      ],
      "stateMutability": "view",
      "type": "function"
    },
    {
      "inputs": [
        {
          "internalType": "uint256",
          "name": "swapFee",
          "type": "uint256"
        }
      ],
      "name": "setSwapFee",
      "outputs": [],
      "stateMutability": "nonpayable",
      "type": "function"
    },
    {
      "inputs": [
        {
          "internalType": "address",
          "name": "datatokenAddress",
          "type": "address"
        },
        {
          "internalType": "uint256",
          "name": "datatokenAmount",
          "type": "uint256"
        },
        {
          "internalType": "uint256",
          "name": "datatokenWeight",
          "type": "uint256"
        },
        {
          "internalType": "address",
          "name": "baseTokenAddress",
          "type": "address"
        },
        {
          "internalType": "uint256",
          "name": "baseTokenAmount",
          "type": "uint256"
        },
        {
          "internalType": "uint256",
          "name": "baseTokenWeight",
          "type": "uint256"
        }
      ],
      "name": "setup",
      "outputs": [],
      "stateMutability": "nonpayable",
      "type": "function"
    },
    {
      "inputs": [
        {
          "internalType": "address[3]",
          "name": "tokenInOutMarket",
          "type": "address[3]"
        },
        {
          "internalType": "uint256[4]",
          "name": "amountsInOutMaxFee",
          "type": "uint256[4]"
        }
      ],
      "name": "swapExactAmountIn",
      "outputs": [
        {
          "internalType": "uint256",
          "name": "tokenAmountOut",
          "type": "uint256"
        },
        {
          "internalType": "uint256",
          "name": "spotPriceAfter",
          "type": "uint256"
        }
      ],
      "stateMutability": "nonpayable",
      "type": "function"
    },
    {
      "inputs": [
        {
          "internalType": "address[3]",
          "name": "tokenInOutMarket",
          "type": "address[3]"
        },
        {
          "internalType": "uint256[4]",
          "name": "amountsInOutMaxFee",
          "type": "uint256[4]"
        }
      ],
      "name": "swapExactAmountOut",
      "outputs": [
        {
          "internalType": "uint256",
          "name": "tokenAmountIn",
          "type": "uint256"
        },
        {
          "internalType": "uint256",
          "name": "spotPriceAfter",
          "type": "uint256"
        }
      ],
      "stateMutability": "nonpayable",
      "type": "function"
    },
    {
      "inputs": [],
      "name": "symbol",
      "outputs": [
        {
          "internalType": "string",
          "name": "",
          "type": "string"
        }
      ],
      "stateMutability": "view",
      "type": "function"
    },
    {
      "inputs": [],
      "name": "totalSupply",
      "outputs": [
        {
          "internalType": "uint256",
          "name": "",
          "type": "uint256"
        }
      ],
      "stateMutability": "view",
      "type": "function"
    },
    {
      "inputs": [
        {
          "internalType": "address",
          "name": "dst",
          "type": "address"
        },
        {
          "internalType": "uint256",
          "name": "amt",
          "type": "uint256"
        }
      ],
      "name": "transfer",
      "outputs": [
        {
          "internalType": "bool",
          "name": "",
          "type": "bool"
        }
      ],
      "stateMutability": "nonpayable",
      "type": "function"
    },
    {
      "inputs": [
        {
          "internalType": "address",
          "name": "src",
          "type": "address"
        },
        {
          "internalType": "address",
          "name": "dst",
          "type": "address"
        },
        {
          "internalType": "uint256",
          "name": "amt",
          "type": "uint256"
        }
      ],
      "name": "transferFrom",
      "outputs": [
        {
          "internalType": "bool",
          "name": "",
          "type": "bool"
        }
      ],
      "stateMutability": "nonpayable",
      "type": "function"
    },
    {
      "inputs": [
        {
          "internalType": "address",
          "name": "_newCollector",
          "type": "address"
        },
        {
          "internalType": "uint256",
          "name": "_newSwapFee",
          "type": "uint256"
        }
      ],
      "name": "updatePublishMarketFee",
      "outputs": [],
      "stateMutability": "nonpayable",
      "type": "function"
    }
  ],
  "bytecode": "608060405234801561001057600080fd5b5061599980620000216000396000f3fe608060405234801561001057600080fd5b506004361061041d5760003560e01c8063867378c51161022b578063bf7db23611610130578063d4cadf68116100b8578063ec09302111610087578063ec09302114610924578063f1b8a9b71461092c578063f8b2cb4f1461093f578063fde924f714610952578063ff9b18501461096457600080fd5b8063d4cadf68146108d0578063d73dd623146108d8578063dd62ed3e146108eb578063e4a28a52146104a457600080fd5b8063c6580d12116100ff578063c6580d1214610892578063c98a59cf1461089a578063caa01148146108ad578063cc77828d146108c0578063cd2ed8fb146108c857600080fd5b8063bf7db2361461084c578063c36596a6146104f7578063c421a3fc14610862578063c44a42831461088a57600080fd5b8063a3b3a16d116101b3578063b7b800a411610182578063b7b800a414610817578063ba019dab1461081f578063bc063e1a14610827578063bc694ea21461082f578063be3bbd2e1461083757600080fd5b8063a3b3a16d146107e9578063a9059cbb146107fc578063ab77a2de1461080f578063b0e0d1361461081757600080fd5b8063936c3477116101fa578063936c34771461079f5780639381cd2b146107a7578063948d8ce6146107af57806395d89b41146107c2578063992e2a92146107e157600080fd5b8063867378c51461075f578063892cdf9e146107675780638c28cbe81461077a5780638d4e40831461078d57600080fd5b8063313ce567116103315780635e123add116102b957806376c7a3c71161028857806376c7a3c7146107135780637a284be41461071b5780637c5918b31461072457806380ca7308146107445780638329ab331461074c57600080fd5b80635e123add146106bc578063638c9e95146106c457806366188463146106d757806370a08231146106ea57600080fd5b8063430ed5d011610300578063430ed5d014610632578063458c3fb5146106455780634df947d01461065657806351705cd0146106675780635d1ca631146106b557600080fd5b8063313ce567146105e557806334e19907146105fa578063392e53cd1461060d5780633950b3fd1461061f57600080fd5b806318f9722a116103b457806329b88a6a1161038357806329b88a6a1461052c5780632eebd6ae146105345780632f37b6241461056f578063300621921461059b5780633018205f146105bb57600080fd5b806318f9722a146104e4578063218b5382146104f757806323b872dd14610506578063284e97a91461051957600080fd5b806309ef3f5b116103f057806309ef3f5b146104ac57806312989260146104c157806318160ddd146104d4578063189d00ca146104dc57600080fd5b806306fdde0314610422578063079492d414610460578063095ea7b31461048157806309a3bbe4146104a4575b600080fd5b60408051808201909152601081526f27b1b2b0b7102837b7b6102a37b5b2b760811b60208201525b6040516104579190615249565b60405180910390f35b61047361046e366004615291565b610977565b604051908152602001610457565b61049461048f3660046152d2565b610a05565b6040519015158152602001610457565b610473610a60565b6104bf6104ba3660046152fe565b610a76565b005b6104736104cf36600461535a565b610ca9565b600954610473565b6104736110c0565b6104bf6104f23660046152d2565b6110d7565b610473670de0b6b3a764000081565b610494610514366004615291565b61124f565b6104946105273660046153b7565b61139e565b61047361168f565b610547610542366004615497565b611709565b604080519586526020860194909452928401919091526060830152608082015260a001610457565b61049461057d3660046154dd565b6001600160a01b03166000908152600d602052604090205460ff1690565b6104736105a93660046154dd565b60056020526000908152604090205481565b600a5461010090046001600160a01b03165b6040516001600160a01b039091168152602001610457565b60125b60405160ff9091168152602001610457565b6104bf6106083660046154fa565b6117e1565b600f54600160a01b900460ff16610494565b61047361062d3660046152d2565b6118db565b6104736106403660046152d2565b611940565b6003546001600160a01b03166105cd565b6004546001600160a01b03166105cd565b61067a610675366004615529565b61199d565b6040805193845260208085019390935281518482015291810151606080850191909152918101516080840152015160a082015260c001610457565b60016105e8565b600054610473565b600b546105cd906001600160a01b031681565b6104946106e53660046152d2565b611b50565b6104736106f83660046154dd565b6001600160a01b031660009081526007602052604090205490565b610473611c26565b61047360005481565b6104736107323660046154dd565b60066020526000908152604090205481565b6104bf611c3a565b61047361075a36600461535a565b611dc7565b61047361219b565b61067a610775366004615529565b6121b2565b6104bf6107883660046154dd565b61234a565b600b54600160a01b900460ff16610494565b6104736124bc565b6104736124e9565b6104736107bd3660046154dd565b6124fc565b60408051808201909152600381526213d41560ea1b602082015261044a565b61047361254e565b6104736107f73660046152d2565b61256c565b61049461080a3660046152d2565b6125c9565b6104bf6125df565b610473600281565b610473600181565b6104736127a0565b6104736127b3565b61083f6127d2565b60405161045791906155f9565b610854612881565b60405161045792919061560c565b610875610870366004615663565b6129f1565b60408051928352602083019190915201610457565b6108546131c0565b610473600081565b6108756108a8366004615663565b613325565b6105476108bb366004615497565b613a4f565b61083f613af9565b600c54610473565b600154610473565b6104946108e63660046152d2565b613b1f565b6104736108f93660046156a5565b6001600160a01b03918216600090815260086020908152604080832093909416825291909152205490565b610473613b92565b61047361093a3660046154dd565b613ba5565b61047361094d3660046154dd565b613bfe565b600a54600160a81b900460ff16610494565b6104736109723660046152d2565b613c4c565b600a5460009060ff16156109a65760405162461bcd60e51b815260040161099d906156d3565b60405180910390fd5b6109af84613ca9565b6109b883613ca9565b6001600160a01b038085166000908152600d60205260408082209286168252902060038083015460028085015492840154908401546109f993919088613d04565b925050505b9392505050565b3360008181526008602090815260408083206001600160a01b0387168085529252808320859055519192909160008051602061594483398151915290610a4e9086815260200190565b60405180910390a35060015b92915050565b610a73670de0b6b3a7640000603261570e565b81565b600a5460ff1615610a995760405162461bcd60e51b815260040161099d906156d3565b600a8054600160ff19909116179081905561010090046001600160a01b03163314610aff5760405162461bcd60e51b815260206004820152601660248201527522a9292fa4a72b20a624a22fa1a7a72a2927a62622a960511b604482015260640161099d565b6003546001600160a01b03878116911614610b5c5760405162461bcd60e51b815260206004820152601d60248201527f4552525f494e56414c49445f44415441544f4b454e5f41444452455353000000604482015260640161099d565b6004546001600160a01b03848116911614610bb95760405162461bcd60e51b815260206004820152601d60248201527f4552525f494e56414c49445f62617365546f6b656e5f41444452455353000000604482015260640161099d565b610bc4868686613d90565b604080518681524260208201526001600160a01b038816913391600080516020615924833981519152910160405180910390a3610c02838383613d90565b604080518381524260208201526001600160a01b038516913391600080516020615924833981519152910160405180910390a3610c3d613f7e565b6040805183815260208101839052908101869052606081018590526001600160a01b03808816919085169033907fbece8b4dcdbe446dd65a9288154698e067e3e91de17a1a408c2f531b9f845d739060800160405180910390a45050600a805460ff1916905550505050565b600a5460009060ff1615610ccf5760405162461bcd60e51b815260040161099d906156d3565b600a805460ff19166001179055600b54600160a01b900460ff16610d055760405162461bcd60e51b815260040161099d9061572d565b600454610d1a906001600160a01b0316613ca9565b6004546001600160a01b03166000908152600d602052604090206003810154600954610d47919086613fdd565b915082821015610d695760405162461bcd60e51b815260040161099d90615758565b6004546001600160a01b03166000908152600d6020526040902060030154610dae90610d9e6002670de0b6b3a7640000615795565b610da99060016157a9565b614087565b821115610df15760405162461bcd60e51b81526020600482015260116024820152704552525f4d41585f4f55545f524154494f60781b604482015260640161099d565b610dff81600301548361416c565b6003820155600454604080518481524260208201526001600160a01b039092169133917f9d9058fd2f25ccc389fec7720abef0ca83472f5abfafd5f10d37f51e6a0493f3910160405180910390a36040518481527ffcda32798d5a9d032f49b37fea876d422f18f6e386e0f07db6029b693624b2c29060200160405180910390a1600f54600354604051630d098ab360e11b81526001600160a01b03918216600482015260248101879052911690631a13156690604401602060405180830381865afa158015610ed3573d6000803e3d6000fd5b505050506040513d601f19601f82011682018060405250810190610ef791906157c1565b1561108557600380546001600160a01b03166000908152600d6020526040812091820154600954610f29919088613fdd565b9050610f3982600301548261416c565b60038381019190915554600a54604080518481524260208201526001600160a01b0393841693610100909304909216917f9d9058fd2f25ccc389fec7720abef0ca83472f5abfafd5f10d37f51e6a0493f3910160405180910390a3600a54610faf9061010090046001600160a01b0316876141c9565b610fb8866141d3565b600354600a54610fda916001600160a01b0390811691610100900416836141dc565b600f5460035460405163054a976360e41b81526001600160a01b03918216600482015260248101849052604481018990529116906354a9763090606401600060405180830381600087803b15801561103157600080fd5b505af1158015611045573d6000803e3d6000fd5b505050507f87b3975661762d852ddf2eeaad6a43b2d93777de7b3b7bdb634283df324561188660405161107a91815260200190565b60405180910390a150505b61108f33856141c9565b611098846141d3565b6004546110af906001600160a01b031633846141dc565b50600a805460ff1916905592915050565b610a736402540be400670de0b6b3a7640000615795565b600b546001600160a01b031633146111295760405162461bcd60e51b815260206004820152601560248201527427a7262c9026a0a925a2aa1021a7a62622a1aa27a960591b604482015260640161099d565b6001600160a01b03821661117f5760405162461bcd60e51b815260206004820152601d60248201527f496e76616c6964205f6e6577436f6c6c6563746f722061646472657373000000604482015260640161099d565b80158061119f575061119b612710670de0b6b3a7640000615795565b8110155b6111bb5760405162461bcd60e51b815260040161099d906157de565b6111ce600a670de0b6b3a7640000615795565b8111156111ed5760405162461bcd60e51b815260040161099d90615803565b600b80546001600160a01b0319166001600160a01b03841690811790915560008290556040517f5e3e722dbd3b6b8071b78568ac80cd0e8ff92e4fb3024e755d504d8f7c2f6f0991611243913391908590615828565b60405180910390a15050565b6000336001600160a01b038516148061128b57506001600160a01b03841660009081526008602090815260408083203384529091529020548211155b6112cf5760405162461bcd60e51b815260206004820152601560248201527422a9292fa12a27a5a2a72fa120a22fa1a0a62622a960591b604482015260640161099d565b6112da8484846141f0565b336001600160a01b0385161480159061131857506001600160a01b038416600090815260086020908152604080832033845290915290205460001914155b15611394576001600160a01b038416600090815260086020908152604080832033845290915290205461134b908361416c565b6001600160a01b03851660008181526008602090815260408083203380855290835292819020859055519384529092600080516020615944833981519152910160405180910390a35b5060019392505050565b600f54600090600160a01b900460ff16156113fb5760405162461bcd60e51b815260206004820152601760248201527f4552525f414c52454144595f494e495449414c495a4544000000000000000000604482015260640161099d565b6001600160a01b0389166114515760405162461bcd60e51b815260206004820152601e60248201527f4552525f494e56414c49445f434f4e54524f4c4c45525f414444524553530000604482015260640161099d565b6001600160a01b0388166114a75760405162461bcd60e51b815260206004820152601b60248201527f4552525f494e56414c49445f464143544f52595f414444524553530000000000604482015260640161099d565b6114bb612710670de0b6b3a7640000615795565b878760008181106114ce576114ce61584c565b9050602002013510156114f35760405162461bcd60e51b815260040161099d906157de565b611506600a670de0b6b3a7640000615795565b878760008181106115195761151961584c565b90506020020135111561153e5760405162461bcd60e51b815260040161099d90615803565b868660018181106115515761155161584c565b90506020020135600014806115925750611575612710670de0b6b3a7640000615795565b878760018181106115885761158861584c565b9050602002013510155b6115ae5760405162461bcd60e51b815260040161099d906157de565b6115c1600a670de0b6b3a7640000615795565b878760018181106115d4576115d461584c565b9050602002013511156115f95760405162461bcd60e51b815260040161099d90615803565b6116828989898980806020026020016040519081016040528093929190818152602001838360200280828437600092019190915250506040805180820182528c93508b9250908a9060029083908390808284376000920191909152505060408051602081810190925291508a906001908390839080828437600092019190915250614302915050565b9998505050505050505050565b6002546004805460405163b8421e2b60e01b81526001600160a01b0391821692810192909252600092169063b8421e2b90602401602060405180830381865afa1580156116e0573d6000803e3d6000fd5b505050506040513d601f19601f820116820180604052508101906117049190615862565b905090565b600080600080600061171a89613ca9565b61172388613ca9565b604080516080810182526001600160a01b03808c166000908152600d6020818152858320600380820154875260029182015483880152948f168085528383528785209586015497870197909752958352529201546060820152906117a86040518060800160405280600081526020016000815260200160008152602001600081525090565b6117b3838b8b6121b2565b805160208201516040830151606090930151949c50909a509850965090945050505050945094509450945094565b600a5461010090046001600160a01b031633146118355760405162461bcd60e51b815260206004820152601260248201527122a9292fa727aa2fa1a7a72a2927a62622a960711b604482015260640161099d565b611849612710670de0b6b3a7640000615795565b8110156118685760405162461bcd60e51b815260040161099d906157de565b61187b600a670de0b6b3a7640000615795565b81111561189a5760405162461bcd60e51b815260040161099d90615803565b600181905560408051338152602081018390527fbca0d601c32979eebac4e8cd06375b6e45d39af80fc06a33f366425b450dfb69910160405180910390a150565b6001600160a01b0382166000908152600d602090815260408083208151608081018352815460ff161515815260018201549381019390935260028101549183019190915260030154606082018190526009546119389190856144b1565b949350505050565b6001600160a01b0382166000908152600d602090815260408083208151608081018352815460ff16151581526001820154938101939093526002810154918301919091526003015460608201819052600954611938919085613fdd565b6000806119cb6040518060800160405280600081526020016000815260200160008152602001600081525090565b60006119e687600360200201518860015b6020020151614564565b905060006119fb88600260200201518861416c565b90506000611a10896002602002015183614564565b90506000611a1e828561467c565b9050611a3281670de0b6b3a764000061416c565b90506000805489611a4161168f565b600154611a4e91906157a9565b611a5891906157a9565b611a6291906157a9565b9050611a90611a798c60005b602002015184614087565b611a8b670de0b6b3a76400008461416c565b614564565b9750611ab388611aae8a610da9670de0b6b3a7640000611aae61168f565b61416c565b866020018181525050611ad888611aae8a610da9670de0b6b3a764000060005461416c565b866040018181525050611afd88611aae8a610da9670de0b6b3a764000060015461416c565b8652611b1988611aae81610da9670de0b6b3a76400008e61416c565b6060870152611b40611b2c8c6000611a6e565b611a8b670de0b6b3a764000060015461416c565b9650505050505093509350939050565b3360009081526008602090815260408083206001600160a01b038616845290915281205480831115611ba5573360009081526008602090815260408083206001600160a01b0388168452909152812055611bd4565b611baf818461416c565b3360009081526008602090815260408083206001600160a01b03891684529091529020555b3360008181526008602090815260408083206001600160a01b03891680855290835292819020549051908152919291600080516020615944833981519152910160405180910390a35060019392505050565b610a73612710670de0b6b3a7640000615795565b6000611c446127d2565b905060005b8151811015611dc357600060066000848481518110611c6a57611c6a61584c565b60200260200101516001600160a01b03166001600160a01b03168152602001908152602001600020549050600060066000858581518110611cad57611cad61584c565b60200260200101516001600160a01b03166001600160a01b03168152602001908152602001600020819055507fbaf1ab77be65c7abf8fcd922bfcf0a749f556ac1a4cdf39c126ffaa1851edb5633600b60009054906101000a90046001600160a01b0316858581518110611d2357611d2361584c565b602002602001015184604051611d6194939291906001600160a01b039485168152928416602084015292166040820152606081019190915260800190565b60405180910390a1600b548351611db0916001600160a01b0316908390869086908110611d9057611d9061584c565b60200260200101516001600160a01b03166147a89092919063ffffffff16565b5080611dbb8161587b565b915050611c49565b5050565b600a5460009060ff1615611ded5760405162461bcd60e51b815260040161099d906156d3565b600a805460ff19166001179055600b54600160a01b900460ff16611e235760405162461bcd60e51b815260040161099d9061572d565b600454611e38906001600160a01b0316613ca9565b6004546001600160a01b03166000908152600d6020526040902060030154611e6d90610da96002670de0b6b3a7640000615795565b831115611eaf5760405162461bcd60e51b815260206004820152601060248201526f4552525f4d41585f494e5f524154494f60801b604482015260640161099d565b6004546001600160a01b03166000908152600d602052604090206003810154600954611edc9190866144b1565b915082821015611efe5760405162461bcd60e51b815260040161099d90615758565b611f0c81600301548561480b565b6003820155600454604080518681524260208201526001600160a01b03909216913391600080516020615924833981519152910160405180910390a36040518281527ffcda32798d5a9d032f49b37fea876d422f18f6e386e0f07db6029b693624b2c29060200160405180910390a1600380546001600160a01b03166000908152600d6020526040812091820154600954611fa891908661485d565b600f54600354604051632afbbacb60e01b81526001600160a01b039182166004820152602481018490529293501690632afbbacb90604401602060405180830381865afa158015611ffd573d6000803e3d6000fd5b505050506040513d601f19601f8201168201806040525081019061202191906157c1565b1561215e57600f5460035460405163ebedb8b360e01b81526001600160a01b0391821660048201526024810184905291169063ebedb8b390604401600060405180830381600087803b15801561207657600080fd5b505af115801561208a573d6000803e3d6000fd5b5050505061209c82600301548261480b565b60038381019190915554600a54604080518481524260208201526001600160a01b039384169361010090930490921691600080516020615924833981519152910160405180910390a36040518481527f87b3975661762d852ddf2eeaad6a43b2d93777de7b3b7bdb634283df324561189060200160405180910390a1612121846148fa565b600a5461213c9061010090046001600160a01b031685614903565b600354600a5461215e916001600160a01b03908116916101009004168361490d565b612167846148fa565b6121713385614903565b600454612188906001600160a01b0316338861490d565b505050600a805460ff1916905592915050565b610a7364e8d4a51000670de0b6b3a7640000615795565b6000806121e06040518060800160405280600081526020016000815260200160008152602001600081525090565b60006121f587600160200201518860036119dc565b905061221386611aae88610da9670de0b6b3a7640000611aae61168f565b82602001818152505061223886611aae88610da9670de0b6b3a764000060005461416c565b82604001818152505061225d86611aae88610da9670de0b6b3a764000060015461416c565b825261227986611aae81610da9670de0b6b3a76400008a61416c565b606083015260008054869061228c61168f565b60015461229991906157a9565b6122a391906157a9565b6122ad91906157a9565b905060006122c3670de0b6b3a76400008361416c565b90506122cf8882614087565b89519091506000906122e590611a8b818561480b565b905060006122f3828661467c565b90506000612309670de0b6b3a76400008361416c565b905061231c8c6002602002015182614087565b9850886123378c89604001518a60200151611aae91906157a9565b9850985050505050505093509350939050565b600a5460ff161561236d5760405162461bcd60e51b815260040161099d906156d3565b600a805460ff191660011790556001600160a01b0381166000908152600d602052604090205460ff166123d25760405162461bcd60e51b815260206004820152600d60248201526c11549497d393d517d093d55391609a1b604482015260640161099d565b6001600160a01b0381166000818152600d6020526040908190206003015490516370a0823160e01b81523060048201529091906370a0823190602401602060405180830381865afa15801561242b573d6000803e3d6000fd5b505050506040513d601f19601f8201168201806040525081019061244f9190615862565b6001600160a01b0383166000818152600d6020908152604091829020600301849055815192835282018490528101919091527f9facca02b471d2776031537a8c9e281dfe5120035ede107bd328b165ffd973389060600160405180910390a15050600a805460ff19169055565b600a5460009060ff16156124e25760405162461bcd60e51b815260040161099d906156d3565b50600e5490565b610a73670de0b6b3a7640000606461570e565b600a5460009060ff16156125225760405162461bcd60e51b815260040161099d906156d3565b61252b82613ca9565b506001600160a01b0381166000908152600d60205260409020600201545b919050565b6125616002670de0b6b3a7640000615795565b610a739060016157a9565b6001600160a01b0382166000908152600d602090815260408083208151608081018352815460ff16151581526001820154938101939093526002810154918301919091526003015460608201819052600954611938919085614a55565b60006125d63384846141f0565b50600192915050565b60006125e96127d2565b905060005b8151811015611dc35760006005600084848151811061260f5761260f61584c565b60200260200101516001600160a01b03166001600160a01b031681526020019081526020016000205490506000600560008585815181106126525761265261584c565b60200260200101516001600160a01b03166001600160a01b03168152602001908152602001600020819055506000600260009054906101000a90046001600160a01b03166001600160a01b0316631a81876d6040518163ffffffff1660e01b8152600401602060405180830381865afa1580156126d3573d6000803e3d6000fd5b505050506040513d601f19601f820116820180604052508101906126f79190615896565b90507fed2b0288692cfc6d01c94a67a53721792f59c3d1388221f8aa4f66c8d2808dde338286868151811061272e5761272e61584c565b60200260200101518560405161276c94939291906001600160a01b039485168152928416602084015292166040820152606081019190915260800190565b60405180910390a161278b8183868681518110611d9057611d9061584c565b505080806127989061587b565b9150506125ee565b610a73600a670de0b6b3a7640000615795565b60016127c8670de0b6b3a7640000600261570e565b610a7391906158b3565b600a5460609060ff16156127f85760405162461bcd60e51b815260040161099d906156d3565b600b54600160a01b900460ff166128215760405162461bcd60e51b815260040161099d9061572d565b600c80548060200260200160405190810160405280929190818152602001828054801561287757602002820191906000526020600020905b81546001600160a01b03168152600190910190602001808311612859575b5050505050905090565b606080600061288e6127d2565b90506000815167ffffffffffffffff8111156128ac576128ac615513565b6040519080825280602002602001820160405280156128d5578160200160208202803683370190505b5090506000825167ffffffffffffffff8111156128f4576128f4615513565b60405190808252806020026020018201604052801561291d578160200160208202803683370190505b50905060005b83518110156129e65783818151811061293e5761293e61584c565b60200260200101518382815181106129585761295861584c565b60200260200101906001600160a01b031690816001600160a01b0316815250506005600085838151811061298e5761298e61584c565b60200260200101516001600160a01b03166001600160a01b03168152602001908152602001600020548282815181106129c9576129c961584c565b6020908102919091010152806129de8161587b565b915050612923565b509094909350915050565b600a54600090819060ff1615612a195760405162461bcd60e51b815260040161099d906156d3565b600a805460ff19166001179055600b54600160a01b900460ff16612a4f5760405162461bcd60e51b815260040161099d9061572d565b612a5f60408501602086016154dd565b6001600160a01b0316612a7560208601866154dd565b6001600160a01b03161415612ac55760405162461bcd60e51b815260206004820152601660248201527521b0b73737ba1039bbb0b81039b0b6b2903a37b5b2b760511b604482015260640161099d565b612ae48460005b602002016020810190612adf91906154dd565b613ca9565b612aef846001612acc565b6000600d81612b0160208801886154dd565b6001600160a01b03168152602081019190915260400160009081209150600d81876001602002016020810190612b3791906154dd565b6001600160a01b031681526020810191909152604001600020905060608501351580612b7a5750612b72612710670de0b6b3a7640000615795565b606086013510155b612bbf5760405162461bcd60e51b8152602060048201526016602482015275436f6e73756d655377617046656520746f6f206c6f7760501b604482015260640161099d565b612bd2600a670de0b6b3a7640000615795565b60608601351115612c1f5760405162461bcd60e51b8152602060048201526017602482015276086dedce6eadacaa6eec2e08ccaca40e8dede40d0d2ced604b1b604482015260640161099d565b6003820154612c3b90610da96002670de0b6b3a7640000615795565b85351115612c7e5760405162461bcd60e51b815260206004820152601060248201526f4552525f4d41585f494e5f524154494f60801b604482015260640161099d565b6000612cb483600301548460020154846003015485600201548a600360048110612caa57612caa61584c565b6020020135613d04565b90506040860135811115612d005760405162461bcd60e51b81526020600482015260136024820152724552525f4241445f4c494d49545f505249434560681b604482015260640161099d565b600080604051806080016040528086600301548152602001866002015481526020018560030154815260200185600201548152509050612d616040518060800160405280600081526020016000815260200160008152602001600081525090565b612d71828a3560608c01356121b2565b91995093509050612dc0600560008c815b602002016020810190612d9591906154dd565b6001600160a01b03166001600160a01b0316815260200190815260200160002054826020015161480b565b60056000612dd160208e018e6154dd565b6001600160a01b03166001600160a01b0316815260200190815260200160002081905550612e4d600660008c600060038110612e0f57612e0f61584c565b602002016020810190612e2291906154dd565b6001600160a01b03166001600160a01b0316815260200190815260200160002054826040015161480b565b60066000612e5e60208e018e6154dd565b6001600160a01b03166001600160a01b03168152602001908152602001600020819055507f53a9dc73d01196a9c660d761bc5ec77b945340a34b5b52e510760af2dab1c0f181600001518260200151836040015184606001518e600060038110612eca57612eca61584c565b602002016020810190612edd91906154dd565b6040805195865260208601949094529284019190915260608301526001600160a01b0316608082015260a00160405180910390a16020890135881015612f355760405162461bcd60e51b815260040161099d90615758565b612f4386600301548461480b565b8660030181905550612f5985600301548961416c565b8560030181905550612f8b86600301548760020154876003015488600201548d600360048110612caa57612caa61584c565b965083871015612fad5760405162461bcd60e51b815260040161099d906158ca565b6040890135871115612ff35760405162461bcd60e51b815260206004820152600f60248201526e4552525f4c494d49545f505249434560881b604482015260640161099d565b612ffe893589614564565b84111561301d5760405162461bcd60e51b815260040161099d906158ca565b61302d60408b0160208c016154dd565b6001600160a01b031661304360208c018c6154dd565b60038089015490880154604080518e358152602081018e905242918101919091526060810192909252608082015260a081018a90526001600160a01b03919091169033907fbdafe88494b31fc7436fe7992b0f377e874287e841e62eed1ad77e84f3c5b1719060c00160405180910390a46130cc6130c460208c018c6154dd565b338b3561490d565b60006130f18a35611aae81610da9670de0b6b3a76400008f60035b602002013561416c565b905060608a01351561318c576131358b60025b60200201602081019061311791906154dd565b8261312560208f018f6154dd565b6001600160a01b031691906147a8565b7f6d11837f46cc09b011cf4aae09fcade046c020aac088090ae4f77ff67b70797261316660608d0160408e016154dd565b61317360208e018e6154dd565b8360405161318393929190615828565b60405180910390a15b6131a661319f60408d0160208e016154dd565b338b6141dc565b50505050505050600a805460ff1916905590939092509050565b60608060006131cd6127d2565b90506000815167ffffffffffffffff8111156131eb576131eb615513565b604051908082528060200260200182016040528015613214578160200160208202803683370190505b5090506000825167ffffffffffffffff81111561323357613233615513565b60405190808252806020026020018201604052801561325c578160200160208202803683370190505b50905060005b83518110156129e65783818151811061327d5761327d61584c565b60200260200101518382815181106132975761329761584c565b60200260200101906001600160a01b031690816001600160a01b031681525050600660008583815181106132cd576132cd61584c565b60200260200101516001600160a01b03166001600160a01b03168152602001908152602001600020548282815181106133085761330861584c565b60209081029190910101528061331d8161587b565b915050613262565b600a54600090819060ff161561334d5760405162461bcd60e51b815260040161099d906156d3565b600a805460ff19166001179055600b54600160a01b900460ff166133835760405162461bcd60e51b815260040161099d9061572d565b61339360408501602086016154dd565b6001600160a01b03166133a960208601866154dd565b6001600160a01b031614156133f95760405162461bcd60e51b815260206004820152601660248201527521b0b73737ba1039bbb0b81039b0b6b2903a37b5b2b760511b604482015260640161099d565b606083013515806134215750613419612710670de0b6b3a7640000615795565b606084013510155b6134665760405162461bcd60e51b8152602060048201526016602482015275436f6e73756d655377617046656520746f6f206c6f7760501b604482015260640161099d565b613479600a670de0b6b3a7640000615795565b606084013511156134c65760405162461bcd60e51b8152602060048201526017602482015276086dedce6eadacaa6eec2e08ccaca40e8dede40d0d2ced604b1b604482015260640161099d565b6134d1846000612acc565b6134dc846001612acc565b6000600d816134ee60208801886154dd565b6001600160a01b03168152602081019190915260400160009081209150600d8187600160200201602081019061352491906154dd565b6001600160a01b03166001600160a01b03168152602001908152602001600020905061356381600301546002670de0b6b3a7640000610d9e9190615795565b602086013511156135aa5760405162461bcd60e51b81526020600482015260116024820152704552525f4d41585f4f55545f524154494f60781b604482015260640161099d565b60006135d683600301548460020154846003015485600201548a600360048110612caa57612caa61584c565b905060408601358111156136225760405162461bcd60e51b81526020600482015260136024820152724552525f4241445f4c494d49545f505249434560681b604482015260640161099d565b6000806040518060800160405280866003015481526020018660020154815260200185600301548152602001856002015481525090506136836040518060800160405280600081526020016000815260200160008152602001600081525090565b6136968260208b013560608c013561199d565b919950935090506136ab600560008c81612d82565b600560006136bc60208e018e6154dd565b6001600160a01b03166001600160a01b03168152602001908152602001600020819055506136fa600660008c600060038110612e0f57612e0f61584c565b6006600061370b60208e018e6154dd565b6001600160a01b03166001600160a01b03168152602001908152602001600020819055507f53a9dc73d01196a9c660d761bc5ec77b945340a34b5b52e510760af2dab1c0f181600001518260200151836040015184606001518e6000600381106137775761377761584c565b60200201602081019061378a91906154dd565b6040805195865260208601949094529284019190915260608301526001600160a01b0316608082015260a00160405180910390a188358811156137fe5760405162461bcd60e51b815260206004820152600c60248201526b22a9292fa624a6a4aa2fa4a760a11b604482015260640161099d565b61380c86600301548461480b565b600380880191909155850154613824908a60016130e7565b856003018190555061385686600301548760020154876003015488600201548d600360048110612caa57612caa61584c565b9650838710156138785760405162461bcd60e51b815260040161099d906158ca565b60408901358711156138be5760405162461bcd60e51b815260206004820152600f60248201526e4552525f4c494d49545f505249434560881b604482015260640161099d565b6138cc8860208b0135614564565b8411156138eb5760405162461bcd60e51b815260040161099d906158ca565b6138fb60408b0160208c016154dd565b6001600160a01b031661391160208c018c6154dd565b6001600160a01b0316337fbdafe88494b31fc7436fe7992b0f377e874287e841e62eed1ad77e84f3c5b1718b8d60016020020135428c600301548c600301548f60405161398696959493929190958652602086019490945260408501929092526060840152608083015260a082015260c00190565b60405180910390a46139a561399e60208c018c6154dd565b338a61490d565b60006139c389611aae81610da9670de0b6b3a76400008f60036130e7565b905060608a013515613a31576139da8b6002613104565b7f6d11837f46cc09b011cf4aae09fcade046c020aac088090ae4f77ff67b707972613a0b60608d0160408e016154dd565b613a1860208e018e6154dd565b83604051613a2893929190615828565b60405180910390a15b6131a6613a4460408d0160208e016154dd565b3360208d01356141dc565b6000806000806000613a6089613ca9565b613a6988613ca9565b604080516080810182526001600160a01b03808c166000908152600d6020818152858320600380820154875260029182015483880152948f16808552838352878520958601549787019790975295835252920154606082015290613aee6040518060800160405280600081526020016000815260200160008152602001600081525090565b6117b3838b8b61199d565b600a5460609060ff16156128215760405162461bcd60e51b815260040161099d906156d3565b3360009081526008602090815260408083206001600160a01b0386168452909152812054613b4d908361480b565b3360008181526008602090815260408083206001600160a01b038916808552908352928190208590555193845290926000805160206159448339815191529101610a4e565b610a736002670de0b6b3a7640000615795565b600a5460009060ff1615613bcb5760405162461bcd60e51b815260040161099d906156d3565b613bd482613ca9565b6001600160a01b0382166000908152600d6020526040902060020154600e546109fe908290614564565b600a5460009060ff1615613c245760405162461bcd60e51b815260040161099d906156d3565b613c2d82613ca9565b506001600160a01b03166000908152600d602052604090206003015490565b6001600160a01b0382166000908152600d602090815260408083208151608081018352815460ff1615158152600182015493810193909352600281015491830191909152600301546060820181905260095461193891908561485d565b6001600160a01b0381166000908152600d602052604090205460ff16613d015760405162461bcd60e51b815260206004820152600d60248201526c11549497d393d517d093d55391609a1b604482015260640161099d565b50565b600080613d118787614564565b90506000613d1f8686614564565b90506000613d2d8383614564565b90506000613d76670de0b6b3a7640000611a8b670de0b6b3a764000089600054613d5561168f565b600154613d6291906157a9565b613d6c91906157a9565b611aae91906157a9565b9050613d828282614087565b9a9950505050505050505050565b600a5461010090046001600160a01b03163314613de45760405162461bcd60e51b815260206004820152601260248201527122a9292fa727aa2fa1a7a72a2927a62622a960711b604482015260640161099d565b6001600160a01b0383166000908152600d602052604090205460ff1615613e3c5760405162461bcd60e51b815260206004820152600c60248201526b11549497d254d7d093d5539160a21b604482015260640161099d565b600b54600160a01b900460ff1615613e895760405162461bcd60e51b815260206004820152601060248201526f11549497d254d7d1925390531256915160821b604482015260640161099d565b600c54600211613ecc5760405162461bcd60e51b815260206004820152600e60248201526d4552525f4d41585f544f4b454e5360901b604482015260640161099d565b604080516080810182526001808252600c805460208085019182526000858701818152606087018281526001600160a01b038c16808452600d9094529782209651875460ff1916901515178755925186860155915160028601559451600390940193909355805491820181559091527fdf6966c971051c3d54ec59162606531493a51404a002842f56009d7e5cf4a8c70180546001600160a01b0319169091179055613f79838383614af2565b505050565b600b805460ff60a01b1916600160a01b179055600a805460ff60a81b1916600160a81b179055613fbf613fba670de0b6b3a7640000606461570e565b6148fa565b613fdb33613fd6670de0b6b3a7640000606461570e565b614903565b565b600060018210156140305760405162461bcd60e51b815260206004820152601a60248201527f4552525f504f4f4c5f414d4f554e545f494e5f544f4f5f4c4f57000000000000604482015260640161099d565b61403b82600261570e565b91506000614049848461416c565b905060006140578286614564565b9050600061406d670de0b6b3a76400008361416c565b9050600061407b8289614087565b98975050505050505050565b600080614094838561570e565b90508315806140ab5750826140a98583615795565b145b6140ea5760405162461bcd60e51b815260206004820152601060248201526f4552525f4d554c5f4f564552464c4f5760801b604482015260640161099d565b60006140ff6002670de0b6b3a7640000615795565b61410990836157a9565b90508181101561414e5760405162461bcd60e51b815260206004820152601060248201526f4552525f4d554c5f4f564552464c4f5760801b604482015260640161099d565b6000614162670de0b6b3a764000083615795565b9695505050505050565b600080600061417b8585614d11565b9150915080156141c15760405162461bcd60e51b81526020600482015260116024820152704552525f5355425f554e444552464c4f5760781b604482015260640161099d565b509392505050565b611dc38282614d48565b613d0181614d53565b613f796001600160a01b03841683836147a8565b6001600160a01b03831660009081526007602052604090205481111561424f5760405162461bcd60e51b815260206004820152601460248201527311549497d25394d551919250d251539517d0905360621b604482015260640161099d565b6001600160a01b038316600090815260076020526040902054614272908261416c565b6001600160a01b0380851660009081526007602052604080822093909355908416815220546142a1908261480b565b6001600160a01b0380841660008181526007602052604090819020939093559151908516907fddf252ad1be2c89b69c2b068fc378daa952ba7f163c4a11628f55a4df523b3ef906142f59085815260200190565b60405180910390a3505050565b600a8054610100600160a81b0319166101006001600160a01b038a81169190910291909117909155600280546001600160a01b0319169188169190911790558451600090869082906143565761435661584c565b602090810291909101810151600181905560408051338152928301919091527fbca0d601c32979eebac4e8cd06375b6e45d39af80fc06a33f366425b450dfb69910160405180910390a1856001815181106143b3576143b361584c565b6020908102919091018101516000819055600a8054881515600160a81b0260ff60a81b19909116179055600b80548651600380546001600160a01b039283166001600160a01b0319918216179091559488015160048054918316918716919091179055865116881515600160a01b02949094166001600160a81b031990911617831790556040517f5e3e722dbd3b6b8071b78568ac80cd0e8ff92e4fb3024e755d504d8f7c2f6f0992614467923392615828565b60405180910390a15050600f8054600a54600160a01b6101009091046001600160a01b03166001600160a81b03199092169190911781179182905560ff9104169695505050505050565b6000806144c683670de0b6b3a7640000614087565b905060006144d4868361480b565b905060006144e28288614564565b905060006144f882670de0b6b3a764000061416c565b905060006145068289614087565b905060028110156145595760405162461bcd60e51b815260206004820152601b60248201527f4552525f544f4b454e5f414d4f554e545f494e5f544f4f5f4c4f570000000000604482015260640161099d565b611682600282615795565b6000816145a25760405162461bcd60e51b815260206004820152600c60248201526b4552525f4449565f5a45524f60a01b604482015260640161099d565b60006145b6670de0b6b3a76400008561570e565b90508315806145d55750670de0b6b3a76400006145d38583615795565b145b6146145760405162461bcd60e51b815260206004820152601060248201526f11549497d1125597d25395115493905360821b604482015260640161099d565b6000614621600285615795565b61462b90836157a9565b9050818110156146705760405162461bcd60e51b815260206004820152601060248201526f11549497d1125597d25395115493905360821b604482015260640161099d565b60006141628583615795565b600060018310156146c75760405162461bcd60e51b81526020600482015260156024820152744552525f42504f575f424153455f544f4f5f4c4f5760581b604482015260640161099d565b60016146dc670de0b6b3a7640000600261570e565b6146e691906158b3565b83111561472e5760405162461bcd60e51b815260206004820152601660248201527508aa4a4be84a09eaebe8482a68abea89e9ebe90928e960531b604482015260640161099d565b600061473983614e1f565b90506000614747848361416c565b9050600061475d8661475885614e3d565b614e51565b90508161476e579250610a5a915050565b6000614791878461478c6402540be400670de0b6b3a7640000615795565b614ec5565b905061479d8282614087565b979650505050505050565b6040516001600160a01b038316602482015260448101829052613f7990849063a9059cbb60e01b906064015b60408051601f198184030181529190526020810180516001600160e01b03166001600160e01b031990931692909217909152614fb5565b60008061481883856157a9565b9050838110156109fe5760405162461bcd60e51b815260206004820152601060248201526f4552525f4144445f4f564552464c4f5760801b604482015260640161099d565b60008061486a848461480b565b905060006148788286614564565b9050600061488e82670de0b6b3a764000061416c565b9050600061489c8289614087565b905060018110156148ef5760405162461bcd60e51b815260206004820152601b60248201527f4552525f504f4f4c5f414d4f554e545f4f55545f544f4f5f4c4f570000000000604482015260640161099d565b61407b81600261570e565b613d0181615087565b611dc382826150f6565b6040516370a0823160e01b81523060048201526000906001600160a01b038516906370a0823190602401602060405180830381865afa158015614954573d6000803e3d6000fd5b505050506040513d601f19601f820116820180604052508101906149789190615862565b905061498f6001600160a01b038516843085615101565b61499982826157a9565b6040516370a0823160e01b81523060048201526001600160a01b038616906370a0823190602401602060405180830381865afa1580156149dd573d6000803e3d6000fd5b505050506040513d601f19601f82011682018060405250810190614a019190615862565b1015614a4f5760405162461bcd60e51b815260206004820152601a60248201527f5472616e7366657220616d6f756e7420697320746f6f206c6f77000000000000604482015260640161099d565b50505050565b600080614a62858461416c565b90506000614a708287614564565b90506000614a86670de0b6b3a76400008361416c565b90506000614a948288614087565b90506002811015614ae75760405162461bcd60e51b815260206004820152601c60248201527f4552525f544f4b454e5f414d4f554e545f4f55545f544f4f5f4c4f5700000000604482015260640161099d565b61407b600282615795565b670de0b6b3a7640000811015614b3b5760405162461bcd60e51b815260206004820152600e60248201526d11549497d3525397d5d15251d21560921b604482015260640161099d565b614b4e670de0b6b3a7640000603261570e565b811115614b8e5760405162461bcd60e51b815260206004820152600e60248201526d11549497d3505617d5d15251d21560921b604482015260640161099d565b614ba564e8d4a51000670de0b6b3a7640000615795565b821015614be65760405162461bcd60e51b815260206004820152600f60248201526e4552525f4d494e5f42414c414e434560881b604482015260640161099d565b6001600160a01b0383166000908152600d602052604090206002015480821115614c8257614c1f600e54614c1a848461416c565b61480b565b600e55614c35670de0b6b3a7640000603261570e565b600e541115614c7d5760405162461bcd60e51b815260206004820152601460248201527311549497d3505617d513d5105317d5d15251d21560621b604482015260640161099d565b614c9e565b80821015614c9e57614c9a600e54611aae838561416c565b600e555b6001600160a01b0384166000908152600d602052604090206002810183905560030180549084905580841115614ce757614ce28533614cdd878561416c565b61490d565b614d0a565b80841015614d0a576000614cfb828661416c565b9050614d088633836141dc565b505b5050505050565b600080828410614d3057614d2583856158b3565b600091509150614d41565b614d3a84846158b3565b6001915091505b9250929050565b611dc38230836141f0565b30600090815260076020526040902054811115614da95760405162461bcd60e51b815260206004820152601460248201527311549497d25394d551919250d251539517d0905360621b604482015260640161099d565b30600090815260076020526040902054614dc3908261416c565b30600090815260076020526040902055600954614de0908261416c565b60095560405181815260009030907fddf252ad1be2c89b69c2b068fc378daa952ba7f163c4a11628f55a4df523b3ef906020015b60405180910390a350565b6000670de0b6b3a7640000614e3383614e3d565b610a5a919061570e565b6000610a5a670de0b6b3a764000083615795565b60008281614e606002856158f3565b614e7257670de0b6b3a7640000614e74565b815b9050614e81600285615795565b93505b831561193857614e948283614087565b9150614ea16002856158f3565b15614eb357614eb08183614087565b90505b614ebe600285615795565b9350614e84565b6000828180614edc87670de0b6b3a7640000614d11565b9092509050670de0b6b3a764000080600060015b888410614fa6576000614f0b670de0b6b3a76400008361570e565b9050600080614f2b8a614f2685670de0b6b3a764000061416c565b614d11565b91509150614f3d87610da9848c614087565b9650614f498784614564565b965086614f5857505050614fa6565b8715614f62579315935b8015614f6c579315935b8415614f8357614f7c868861416c565b9550614f90565b614f8d868861480b565b95505b5050508080614f9e9061587b565b915050614ef0565b50909998505050505050505050565b600061500a826040518060400160405280602081526020017f5361666545524332303a206c6f772d6c6576656c2063616c6c206661696c6564815250856001600160a01b03166151229092919063ffffffff16565b805190915015613f79578080602001905181019061502891906157c1565b613f795760405162461bcd60e51b815260206004820152602a60248201527f5361666545524332303a204552433230206f7065726174696f6e20646964206e6044820152691bdd081cdd58d8d9595960b21b606482015260840161099d565b306000908152600760205260409020546150a1908261480b565b306000908152600760205260409020556009546150be908261480b565b60095560405181815230906000907fddf252ad1be2c89b69c2b068fc378daa952ba7f163c4a11628f55a4df523b3ef90602001614e14565b611dc33083836141f0565b614a4f846323b872dd60e01b8585856040516024016147d493929190615828565b6060611938848460008585843b61517b5760405162461bcd60e51b815260206004820152601d60248201527f416464726573733a2063616c6c20746f206e6f6e2d636f6e7472616374000000604482015260640161099d565b600080866001600160a01b031685876040516151979190615907565b60006040518083038185875af1925050503d80600081146151d4576040519150601f19603f3d011682016040523d82523d6000602084013e6151d9565b606091505b509150915061479d828286606083156151f35750816109fe565b8251156152035782518084602001fd5b8160405162461bcd60e51b815260040161099d9190615249565b60005b83811015615238578181015183820152602001615220565b83811115614a4f5750506000910152565b602081526000825180602084015261526881604085016020870161521d565b601f01601f19169190910160400192915050565b6001600160a01b0381168114613d0157600080fd5b6000806000606084860312156152a657600080fd5b83356152b18161527c565b925060208401356152c18161527c565b929592945050506040919091013590565b600080604083850312156152e557600080fd5b82356152f08161527c565b946020939093013593505050565b60008060008060008060c0878903121561531757600080fd5b86356153228161527c565b9550602087013594506040870135935060608701356153408161527c565b9598949750929560808101359460a0909101359350915050565b6000806040838503121561536d57600080fd5b50508035926020909101359150565b8015158114613d0157600080fd5b80356125498161537c565b8060408101831015610a5a57600080fd5b8060208101831015610a5a57600080fd5b600080600080600080600080610100898b0312156153d457600080fd5b88356153df8161527c565b975060208901356153ef8161527c565b9650604089013567ffffffffffffffff8082111561540c57600080fd5b818b0191508b601f83011261542057600080fd5b81358181111561542f57600080fd5b8c60208260051b850101111561544457600080fd5b60208301985080975050505061545c60608a0161538a565b935061546a60808a0161538a565b92506154798a60a08b01615395565b91506154888a60e08b016153a6565b90509295985092959890939650565b600080600080608085870312156154ad57600080fd5b84356154b88161527c565b935060208501356154c88161527c565b93969395505050506040820135916060013590565b6000602082840312156154ef57600080fd5b81356109fe8161527c565b60006020828403121561550c57600080fd5b5035919050565b634e487b7160e01b600052604160045260246000fd5b600080600060c0848603121561553e57600080fd5b84601f85011261554d57600080fd5b6040516080810181811067ffffffffffffffff8211171561557057615570615513565b60405280608086018781111561558557600080fd5b865b8181101561559f578035835260209283019201615587565b509197913596505060a094909401359392505050565b600081518084526020808501945080840160005b838110156155ee5781516001600160a01b0316875295820195908201906001016155c9565b509495945050505050565b6020815260006109fe60208301846155b5565b60408152600061561f60408301856155b5565b82810360208481019190915284518083528582019282019060005b818110156156565784518352938301939183019160010161563a565b5090979650505050505050565b60008060e0838503121561567657600080fd5b606083018481111561568757600080fd5b8392508460e08501111561569a57600080fd5b809150509250929050565b600080604083850312156156b857600080fd5b82356156c38161527c565b9150602083013561569a8161527c565b6020808252600b908201526a4552525f5245454e54525960a81b604082015260600190565b634e487b7160e01b600052601160045260246000fd5b6000816000190483118215151615615728576157286156f8565b500290565b60208082526011908201527011549497d393d517d19253905312569151607a1b604082015260600190565b6020808252600d908201526c11549497d31253525517d3d555609a1b604082015260600190565b634e487b7160e01b600052601260045260246000fd5b6000826157a4576157a461577f565b500490565b600082198211156157bc576157bc6156f8565b500190565b6000602082840312156157d357600080fd5b81516109fe8161537c565b6020808252600b908201526a4552525f4d494e5f46454560a81b604082015260600190565b6020808252600b908201526a4552525f4d41585f46454560a81b604082015260600190565b6001600160a01b039384168152919092166020820152604081019190915260600190565b634e487b7160e01b600052603260045260246000fd5b60006020828403121561587457600080fd5b5051919050565b600060001982141561588f5761588f6156f8565b5060010190565b6000602082840312156158a857600080fd5b81516109fe8161527c565b6000828210156158c5576158c56156f8565b500390565b6020808252600f908201526e08aa4a4be9a82a890be82a0a0a49eb608b1b604082015260600190565b6000826159025761590261577f565b500690565b6000825161591981846020870161521d565b919091019291505056fe15a8ca63e37b2cff1677df2b6b82d36fcf8a524228bd7a4b4d02d107c28c1e8a8c5be1e5ebec7d5bd14f71427d1e84f3dd0314c0f7b2291e5b200ac8c7c3b925a264697066735822122049cf762b073c842e87b02787ca6ec527fa518bec27bf5181236c5993f2b3ff8464736f6c634300080c0033",
  "bytecodeSha1": "34c53e17aa2af6c34e80f96078ac5002172d2d4c",
  "compiler": {
    "evm_version": "istanbul",
    "optimizer": {
      "enabled": true,
      "runs": 200
    },
    "version": "0.8.12+commit.f00d7308"
  },
  "contractName": "BPool",
  "language": "Solidity",
  "natspec": {
    "details": "Used by the (Ocean version) BFactory contract as a bytecode reference to      deploy new BPools. This contract is a friendly fork of Balancer [1]  [1] https://github.com/balancer-labs/balancer-core/contracts/. All fees are expressed in wei.  Examples:  (1e17 = 10 % , 1e16 = 1% , 1e15 = 0.1%, 1e14 = 0.01%)",
    "kind": "dev",
    "methods": {
      "calcPoolInSingleOut(address,uint256)": {
        "details": "calcPoolInSingleOut      Returns number of poolshares needed to withdraw exact tokenAmountOut tokens",
        "params": {
          "tokenAmountOut": "expected amount of tokensOut",
          "tokenOut": "tokenOut"
        }
      },
      "calcPoolOutSingleIn(address,uint256)": {
        "details": "calcPoolOutSingleIn      Returns number of poolshares obtain by staking exact tokenAmountIn tokens",
        "params": {
          "tokenAmountIn": "exact number of tokens staked",
          "tokenIn": "tokenIn"
        }
      },
      "calcSingleInPoolOut(address,uint256)": {
        "details": "calcSingleInPoolOut      Returns number of tokens to be staked to the pool in order to get an exact number of poolshares",
        "params": {
          "poolAmountOut": "expected amount of pool shares",
          "tokenIn": "tokenIn"
        }
      },
      "calcSingleOutPoolIn(address,uint256)": {
        "details": "calcSingleOutPoolIn      Returns expected amount of tokenOut for removing exact poolAmountIn pool shares from the pool",
        "params": {
          "poolAmountIn": "amount of shares spent",
          "tokenOut": "tokenOut"
        }
      },
      "collectMarketFee()": {
        "details": "collectMarketFee      Collects and send all Market Fees to _publishMarketCollector.      This function can be called by anyone, because fees are being sent to _publishMarketCollector"
      },
      "collectOPC()": {
        "details": "collectOPC      Collects and send all OPC Fees to _opcCollector.      This funtion can be called by anyone, because fees are being sent to _opcCollector"
      },
      "exitswapPoolAmountIn(uint256,uint256)": {
        "details": "exitswapPoolAmountIn      Single side remove liquidity from the pool,      expecting a minAmountOut of basetokens for spending poolAmountIn pool shares",
        "params": {
          "minAmountOut": "minimum amount of basetokens expected",
          "poolAmountIn": "exact number of pool shares to spend"
        }
      },
      "getAmountInExactOut(address,address,uint256,uint256)": {
        "details": "getAmountInExactOut      How many tokensIn do you need in order to get exact tokenAmountOut. Returns: tokenAmountIn, LPFee, opcFee , publishMarketSwapFee, consumeMarketSwapFee",
        "params": {
          "_consumeMarketSwapFee": "consume market swap fee",
          "tokenAmountOut": "exact amount of tokenOut",
          "tokenIn": "token to be swaped",
          "tokenOut": "token to get"
        }
      },
      "getAmountOutExactIn(address,address,uint256,uint256)": {
        "details": "getAmountOutExactIn      How many tokensOut you will get for a exact tokenAmountIn Returns: tokenAmountOut, LPFee, opcFee ,  publishMarketSwapFee, consumeMarketSwapFee",
        "params": {
          "_consumeMarketSwapFee": "consume market swap fee",
          "tokenAmountOut": "exact amount of tokenOut",
          "tokenIn": "token to be swaped",
          "tokenOut": "token to get"
        }
      },
      "getBalance(address)": {
        "details": "getBalance      Returns the current token reserve amount",
        "params": {
          "token": "token to be checked"
        }
      },
      "getBaseTokenAddress()": {
        "details": "getBaseTokenAddress      Returns the current baseToken address"
      },
      "getController()": {
        "details": "getController      Returns the current controller address (ssBot)"
      },
      "getCurrentMarketFees()": {
        "details": "getCurrentMarketFees      Get the current amount of fees which can be withdrawned by _publishMarketCollector",
        "returns": {
          "_0": "address[] - array of tokens addresses         uint256[] - array of amounts"
        }
      },
      "getCurrentOPCFees()": {
        "details": "getCurrentOPCFees      Get the current amount of fees which can be withdrawned by OPC",
        "returns": {
          "_0": "address[] - array of tokens addresses         uint256[] - array of amounts"
        }
      },
      "getCurrentTokens()": {
        "details": "getCurrentTokens      Returns tokens bounded to pool, before the pool is finalized"
      },
      "getDatatokenAddress()": {
        "details": "getDatatokenAddress      Returns the current datatoken address"
      },
      "getDenormalizedWeight(address)": {
        "details": "getDenormalizedWeight      Returns denormalized weight of a token",
        "params": {
          "token": "token to be checked"
        }
      },
      "getFinalTokens()": {
        "details": "getFinalTokens      Returns tokens bounded to pool, after the pool was finalized"
      },
      "getId()": {
        "details": "getId      Return template id in case we need different ABIs.       If you construct your own template, please make sure to change the hardcoded value"
      },
      "getMarketFee()": {
        "details": "getMarketFee      Returns the current fee of publishingMarket"
      },
      "getNormalizedWeight(address)": {
        "details": "getNormalizedWeight      Returns normalized weight of a token",
        "params": {
          "token": "token to be checked"
        }
      },
      "getNumTokens()": {
        "details": "getNumTokens      Returns number of tokens bounded to pool"
      },
      "getSpotPrice(address,address,uint256)": {
        "details": "getSpotPrice      Return the spot price of swapping tokenIn to tokenOut",
        "params": {
          "_consumeMarketSwapFee": "consume market swap fee ",
          "tokenIn": "in token",
          "tokenOut": "out token"
        }
      },
      "getSwapFee()": {
        "details": "getSwapFee      Returns the current Liquidity Providers swap fee"
      },
      "getTotalDenormalizedWeight()": {
        "details": "getTotalDenormalizedWeight      Returns total denormalized weught of the pool"
      },
      "isBound(address)": {
        "details": "isBound      Returns true if token is bound",
        "params": {
          "t": "token to be checked"
        }
      },
      "isFinalized()": {
        "details": "isFinalized      Returns true if pool is finalized"
      },
      "isPublicSwap()": {
        "details": "isPublicSwap      Returns true if swapping is allowed"
      },
      "joinswapExternAmountIn(uint256,uint256)": {
        "details": "joinswapExternAmountIn      Single side add liquidity to the pool,      expecting a minPoolAmountOut of shares for spending tokenAmountIn basetokens",
        "params": {
          "minPoolAmountOut": "minimum of pool shares expectex",
          "tokenAmountIn": "exact number of base tokens to spend"
        }
      },
      "setSwapFee(uint256)": {
        "details": "setSwapFee      Allows controller to change the swapFee",
        "params": {
          "swapFee": "new swap fee (max 1e17 = 10 % , 1e16 = 1% , 1e15 = 0.1%, 1e14 = 0.01%)"
        }
      },
      "setup(address,uint256,uint256,address,uint256,uint256)": {
        "details": "setup      Initial setup of the pool      Can be called only by the controller",
        "params": {
          "baseTokenAddress": "base token",
          "baseTokenAmount": "how many basetokens in the initial reserve",
          "baseTokenWeight": "base weight (hardcoded in deployer at 50%)",
          "datatokenAddress": "datatokenAddress",
          "datatokenAmount": "how many datatokens in the initial reserve",
          "datatokenWeight": "datatoken weight (hardcoded in deployer at 50%)"
        }
      },
      "swapExactAmountIn(address[3],uint256[4])": {
        "details": "swapExactAmountIn      Swaps an exact amount of tokensIn to get a mimum amount of tokenOut",
        "params": {
          "amountsInOutMaxFee": "array of ints: [tokenAmountIn, minAmountOut, maxPrice, consumeMarketSwapFee]",
          "tokenInOutMarket": "array of addreses: [tokenIn, tokenOut, consumeMarketFeeAddress]"
        }
      },
      "swapExactAmountOut(address[3],uint256[4])": {
        "details": "swapExactAmountOut      Swaps a maximum  maxAmountIn of tokensIn to get an exact amount of tokenOut",
        "params": {
          "amountsInOutMaxFee": "array of ints: [maxAmountIn,tokenAmountOut,maxPrice, consumeMarketSwapFee]",
          "tokenInOutMarket": "array of addreses: [tokenIn, tokenOut, consumeMarketFeeAddress]"
        }
      },
      "updatePublishMarketFee(address,uint256)": {
        "details": "updatePublishMarketFee      Set _newCollector as _publishMarketCollector",
        "params": {
          "_newCollector": "new _publishMarketCollector",
          "_newSwapFee": "new swapFee"
        }
      }
    },
    "title": "BPool",
    "version": 1
  },
  "opcodes": "PUSH1 0x80 PUSH1 0x40 MSTORE CALLVALUE DUP1 ISZERO PUSH2 0x10 JUMPI PUSH1 0x0 DUP1 REVERT JUMPDEST POP PUSH1 0x4 CALLDATASIZE LT PUSH2 0x41D JUMPI PUSH1 0x0 CALLDATALOAD PUSH1 0xE0 SHR DUP1 PUSH4 0x867378C5 GT PUSH2 0x22B JUMPI DUP1 PUSH4 0xBF7DB236 GT PUSH2 0x130 JUMPI DUP1 PUSH4 0xD4CADF68 GT PUSH2 0xB8 JUMPI DUP1 PUSH4 0xEC093021 GT PUSH2 0x87 JUMPI DUP1 PUSH4 0xEC093021 EQ PUSH2 0x924 JUMPI DUP1 PUSH4 0xF1B8A9B7 EQ PUSH2 0x92C JUMPI DUP1 PUSH4 0xF8B2CB4F EQ PUSH2 0x93F JUMPI DUP1 PUSH4 0xFDE924F7 EQ PUSH2 0x952 JUMPI DUP1 PUSH4 0xFF9B1850 EQ PUSH2 0x964 JUMPI PUSH1 0x0 DUP1 REVERT JUMPDEST DUP1 PUSH4 0xD4CADF68 EQ PUSH2 0x8D0 JUMPI DUP1 PUSH4 0xD73DD623 EQ PUSH2 0x8D8 JUMPI DUP1 PUSH4 0xDD62ED3E EQ PUSH2 0x8EB JUMPI DUP1 PUSH4 0xE4A28A52 EQ PUSH2 0x4A4 JUMPI PUSH1 0x0 DUP1 REVERT JUMPDEST DUP1 PUSH4 0xC6580D12 GT PUSH2 0xFF JUMPI DUP1 PUSH4 0xC6580D12 EQ PUSH2 0x892 JUMPI DUP1 PUSH4 0xC98A59CF EQ PUSH2 0x89A JUMPI DUP1 PUSH4 0xCAA01148 EQ PUSH2 0x8AD JUMPI DUP1 PUSH4 0xCC77828D EQ PUSH2 0x8C0 JUMPI DUP1 PUSH4 0xCD2ED8FB EQ PUSH2 0x8C8 JUMPI PUSH1 0x0 DUP1 REVERT JUMPDEST DUP1 PUSH4 0xBF7DB236 EQ PUSH2 0x84C JUMPI DUP1 PUSH4 0xC36596A6 EQ PUSH2 0x4F7 JUMPI DUP1 PUSH4 0xC421A3FC EQ PUSH2 0x862 JUMPI DUP1 PUSH4 0xC44A4283 EQ PUSH2 0x88A JUMPI PUSH1 0x0 DUP1 REVERT JUMPDEST DUP1 PUSH4 0xA3B3A16D GT PUSH2 0x1B3 JUMPI DUP1 PUSH4 0xB7B800A4 GT PUSH2 0x182 JUMPI DUP1 PUSH4 0xB7B800A4 EQ PUSH2 0x817 JUMPI DUP1 PUSH4 0xBA019DAB EQ PUSH2 0x81F JUMPI DUP1 PUSH4 0xBC063E1A EQ PUSH2 0x827 JUMPI DUP1 PUSH4 0xBC694EA2 EQ PUSH2 0x82F JUMPI DUP1 PUSH4 0xBE3BBD2E EQ PUSH2 0x837 JUMPI PUSH1 0x0 DUP1 REVERT JUMPDEST DUP1 PUSH4 0xA3B3A16D EQ PUSH2 0x7E9 JUMPI DUP1 PUSH4 0xA9059CBB EQ PUSH2 0x7FC JUMPI DUP1 PUSH4 0xAB77A2DE EQ PUSH2 0x80F JUMPI DUP1 PUSH4 0xB0E0D136 EQ PUSH2 0x817 JUMPI PUSH1 0x0 DUP1 REVERT JUMPDEST DUP1 PUSH4 0x936C3477 GT PUSH2 0x1FA JUMPI DUP1 PUSH4 0x936C3477 EQ PUSH2 0x79F JUMPI DUP1 PUSH4 0x9381CD2B EQ PUSH2 0x7A7 JUMPI DUP1 PUSH4 0x948D8CE6 EQ PUSH2 0x7AF JUMPI DUP1 PUSH4 0x95D89B41 EQ PUSH2 0x7C2 JUMPI DUP1 PUSH4 0x992E2A92 EQ PUSH2 0x7E1 JUMPI PUSH1 0x0 DUP1 REVERT JUMPDEST DUP1 PUSH4 0x867378C5 EQ PUSH2 0x75F JUMPI DUP1 PUSH4 0x892CDF9E EQ PUSH2 0x767 JUMPI DUP1 PUSH4 0x8C28CBE8 EQ PUSH2 0x77A JUMPI DUP1 PUSH4 0x8D4E4083 EQ PUSH2 0x78D JUMPI PUSH1 0x0 DUP1 REVERT JUMPDEST DUP1 PUSH4 0x313CE567 GT PUSH2 0x331 JUMPI DUP1 PUSH4 0x5E123ADD GT PUSH2 0x2B9 JUMPI DUP1 PUSH4 0x76C7A3C7 GT PUSH2 0x288 JUMPI DUP1 PUSH4 0x76C7A3C7 EQ PUSH2 0x713 JUMPI DUP1 PUSH4 0x7A284BE4 EQ PUSH2 0x71B JUMPI DUP1 PUSH4 0x7C5918B3 EQ PUSH2 0x724 JUMPI DUP1 PUSH4 0x80CA7308 EQ PUSH2 0x744 JUMPI DUP1 PUSH4 0x8329AB33 EQ PUSH2 0x74C JUMPI PUSH1 0x0 DUP1 REVERT JUMPDEST DUP1 PUSH4 0x5E123ADD EQ PUSH2 0x6BC JUMPI DUP1 PUSH4 0x638C9E95 EQ PUSH2 0x6C4 JUMPI DUP1 PUSH4 0x66188463 EQ PUSH2 0x6D7 JUMPI DUP1 PUSH4 0x70A08231 EQ PUSH2 0x6EA JUMPI PUSH1 0x0 DUP1 REVERT JUMPDEST DUP1 PUSH4 0x430ED5D0 GT PUSH2 0x300 JUMPI DUP1 PUSH4 0x430ED5D0 EQ PUSH2 0x632 JUMPI DUP1 PUSH4 0x458C3FB5 EQ PUSH2 0x645 JUMPI DUP1 PUSH4 0x4DF947D0 EQ PUSH2 0x656 JUMPI DUP1 PUSH4 0x51705CD0 EQ PUSH2 0x667 JUMPI DUP1 PUSH4 0x5D1CA631 EQ PUSH2 0x6B5 JUMPI PUSH1 0x0 DUP1 REVERT JUMPDEST DUP1 PUSH4 0x313CE567 EQ PUSH2 0x5E5 JUMPI DUP1 PUSH4 0x34E19907 EQ PUSH2 0x5FA JUMPI DUP1 PUSH4 0x392E53CD EQ PUSH2 0x60D JUMPI DUP1 PUSH4 0x3950B3FD EQ PUSH2 0x61F JUMPI PUSH1 0x0 DUP1 REVERT JUMPDEST DUP1 PUSH4 0x18F9722A GT PUSH2 0x3B4 JUMPI DUP1 PUSH4 0x29B88A6A GT PUSH2 0x383 JUMPI DUP1 PUSH4 0x29B88A6A EQ PUSH2 0x52C JUMPI DUP1 PUSH4 0x2EEBD6AE EQ PUSH2 0x534 JUMPI DUP1 PUSH4 0x2F37B624 EQ PUSH2 0x56F JUMPI DUP1 PUSH4 0x30062192 EQ PUSH2 0x59B JUMPI DUP1 PUSH4 0x3018205F EQ PUSH2 0x5BB JUMPI PUSH1 0x0 DUP1 REVERT JUMPDEST DUP1 PUSH4 0x18F9722A EQ PUSH2 0x4E4 JUMPI DUP1 PUSH4 0x218B5382 EQ PUSH2 0x4F7 JUMPI DUP1 PUSH4 0x23B872DD EQ PUSH2 0x506 JUMPI DUP1 PUSH4 0x284E97A9 EQ PUSH2 0x519 JUMPI PUSH1 0x0 DUP1 REVERT JUMPDEST DUP1 PUSH4 0x9EF3F5B GT PUSH2 0x3F0 JUMPI DUP1 PUSH4 0x9EF3F5B EQ PUSH2 0x4AC JUMPI DUP1 PUSH4 0x12989260 EQ PUSH2 0x4C1 JUMPI DUP1 PUSH4 0x18160DDD EQ PUSH2 0x4D4 JUMPI DUP1 PUSH4 0x189D00CA EQ PUSH2 0x4DC JUMPI PUSH1 0x0 DUP1 REVERT JUMPDEST DUP1 PUSH4 0x6FDDE03 EQ PUSH2 0x422 JUMPI DUP1 PUSH4 0x79492D4 EQ PUSH2 0x460 JUMPI DUP1 PUSH4 0x95EA7B3 EQ PUSH2 0x481 JUMPI DUP1 PUSH4 0x9A3BBE4 EQ PUSH2 0x4A4 JUMPI JUMPDEST PUSH1 0x0 DUP1 REVERT JUMPDEST PUSH1 0x40 DUP1 MLOAD DUP1 DUP3 ADD SWAP1 SWAP2 MSTORE PUSH1 0x10 DUP2 MSTORE PUSH16 0x27B1B2B0B7102837B7B6102A37B5B2B7 PUSH1 0x81 SHL PUSH1 0x20 DUP3 ADD MSTORE JUMPDEST PUSH1 0x40 MLOAD PUSH2 0x457 SWAP2 SWAP1 PUSH2 0x5249 JUMP JUMPDEST PUSH1 0x40 MLOAD DUP1 SWAP2 SUB SWAP1 RETURN JUMPDEST PUSH2 0x473 PUSH2 0x46E CALLDATASIZE PUSH1 0x4 PUSH2 0x5291 JUMP JUMPDEST PUSH2 0x977 JUMP JUMPDEST PUSH1 0x40 MLOAD SWAP1 DUP2 MSTORE PUSH1 0x20 ADD PUSH2 0x457 JUMP JUMPDEST PUSH2 0x494 PUSH2 0x48F CALLDATASIZE PUSH1 0x4 PUSH2 0x52D2 JUMP JUMPDEST PUSH2 0xA05 JUMP JUMPDEST PUSH1 0x40 MLOAD SWAP1 ISZERO ISZERO DUP2 MSTORE PUSH1 0x20 ADD PUSH2 0x457 JUMP JUMPDEST PUSH2 0x473 PUSH2 0xA60 JUMP JUMPDEST PUSH2 0x4BF PUSH2 0x4BA CALLDATASIZE PUSH1 0x4 PUSH2 0x52FE JUMP JUMPDEST PUSH2 0xA76 JUMP JUMPDEST STOP JUMPDEST PUSH2 0x473 PUSH2 0x4CF CALLDATASIZE PUSH1 0x4 PUSH2 0x535A JUMP JUMPDEST PUSH2 0xCA9 JUMP JUMPDEST PUSH1 0x9 SLOAD PUSH2 0x473 JUMP JUMPDEST PUSH2 0x473 PUSH2 0x10C0 JUMP JUMPDEST PUSH2 0x4BF PUSH2 0x4F2 CALLDATASIZE PUSH1 0x4 PUSH2 0x52D2 JUMP JUMPDEST PUSH2 0x10D7 JUMP JUMPDEST PUSH2 0x473 PUSH8 0xDE0B6B3A7640000 DUP2 JUMP JUMPDEST PUSH2 0x494 PUSH2 0x514 CALLDATASIZE PUSH1 0x4 PUSH2 0x5291 JUMP JUMPDEST PUSH2 0x124F JUMP JUMPDEST PUSH2 0x494 PUSH2 0x527 CALLDATASIZE PUSH1 0x4 PUSH2 0x53B7 JUMP JUMPDEST PUSH2 0x139E JUMP JUMPDEST PUSH2 0x473 PUSH2 0x168F JUMP JUMPDEST PUSH2 0x547 PUSH2 0x542 CALLDATASIZE PUSH1 0x4 PUSH2 0x5497 JUMP JUMPDEST PUSH2 0x1709 JUMP JUMPDEST PUSH1 0x40 DUP1 MLOAD SWAP6 DUP7 MSTORE PUSH1 0x20 DUP7 ADD SWAP5 SWAP1 SWAP5 MSTORE SWAP3 DUP5 ADD SWAP2 SWAP1 SWAP2 MSTORE PUSH1 0x60 DUP4 ADD MSTORE PUSH1 0x80 DUP3 ADD MSTORE PUSH1 0xA0 ADD PUSH2 0x457 JUMP JUMPDEST PUSH2 0x494 PUSH2 0x57D CALLDATASIZE PUSH1 0x4 PUSH2 0x54DD JUMP JUMPDEST PUSH1 0x1 PUSH1 0x1 PUSH1 0xA0 SHL SUB AND PUSH1 0x0 SWAP1 DUP2 MSTORE PUSH1 0xD PUSH1 0x20 MSTORE PUSH1 0x40 SWAP1 KECCAK256 SLOAD PUSH1 0xFF AND SWAP1 JUMP JUMPDEST PUSH2 0x473 PUSH2 0x5A9 CALLDATASIZE PUSH1 0x4 PUSH2 0x54DD JUMP JUMPDEST PUSH1 0x5 PUSH1 0x20 MSTORE PUSH1 0x0 SWAP1 DUP2 MSTORE PUSH1 0x40 SWAP1 KECCAK256 SLOAD DUP2 JUMP JUMPDEST PUSH1 0xA SLOAD PUSH2 0x100 SWAP1 DIV PUSH1 0x1 PUSH1 0x1 PUSH1 0xA0 SHL SUB AND JUMPDEST PUSH1 0x40 MLOAD PUSH1 0x1 PUSH1 0x1 PUSH1 0xA0 SHL SUB SWAP1 SWAP2 AND DUP2 MSTORE PUSH1 0x20 ADD PUSH2 0x457 JUMP JUMPDEST PUSH1 0x12 JUMPDEST PUSH1 0x40 MLOAD PUSH1 0xFF SWAP1 SWAP2 AND DUP2 MSTORE PUSH1 0x20 ADD PUSH2 0x457 JUMP JUMPDEST PUSH2 0x4BF PUSH2 0x608 CALLDATASIZE PUSH1 0x4 PUSH2 0x54FA JUMP JUMPDEST PUSH2 0x17E1 JUMP JUMPDEST PUSH1 0xF SLOAD PUSH1 0x1 PUSH1 0xA0 SHL SWAP1 DIV PUSH1 0xFF AND PUSH2 0x494 JUMP JUMPDEST PUSH2 0x473 PUSH2 0x62D CALLDATASIZE PUSH1 0x4 PUSH2 0x52D2 JUMP JUMPDEST PUSH2 0x18DB JUMP JUMPDEST PUSH2 0x473 PUSH2 0x640 CALLDATASIZE PUSH1 0x4 PUSH2 0x52D2 JUMP JUMPDEST PUSH2 0x1940 JUMP JUMPDEST PUSH1 0x3 SLOAD PUSH1 0x1 PUSH1 0x1 PUSH1 0xA0 SHL SUB AND PUSH2 0x5CD JUMP JUMPDEST PUSH1 0x4 SLOAD PUSH1 0x1 PUSH1 0x1 PUSH1 0xA0 SHL SUB AND PUSH2 0x5CD JUMP JUMPDEST PUSH2 0x67A PUSH2 0x675 CALLDATASIZE PUSH1 0x4 PUSH2 0x5529 JUMP JUMPDEST PUSH2 0x199D JUMP JUMPDEST PUSH1 0x40 DUP1 MLOAD SWAP4 DUP5 MSTORE PUSH1 0x20 DUP1 DUP6 ADD SWAP4 SWAP1 SWAP4 MSTORE DUP2 MLOAD DUP5 DUP3 ADD MSTORE SWAP2 DUP2 ADD MLOAD PUSH1 0x60 DUP1 DUP6 ADD SWAP2 SWAP1 SWAP2 MSTORE SWAP2 DUP2 ADD MLOAD PUSH1 0x80 DUP5 ADD MSTORE ADD MLOAD PUSH1 0xA0 DUP3 ADD MSTORE PUSH1 0xC0 ADD PUSH2 0x457 JUMP JUMPDEST PUSH1 0x1 PUSH2 0x5E8 JUMP JUMPDEST PUSH1 0x0 SLOAD PUSH2 0x473 JUMP JUMPDEST PUSH1 0xB SLOAD PUSH2 0x5CD SWAP1 PUSH1 0x1 PUSH1 0x1 PUSH1 0xA0 SHL SUB AND DUP2 JUMP JUMPDEST PUSH2 0x494 PUSH2 0x6E5 CALLDATASIZE PUSH1 0x4 PUSH2 0x52D2 JUMP JUMPDEST PUSH2 0x1B50 JUMP JUMPDEST PUSH2 0x473 PUSH2 0x6F8 CALLDATASIZE PUSH1 0x4 PUSH2 0x54DD JUMP JUMPDEST PUSH1 0x1 PUSH1 0x1 PUSH1 0xA0 SHL SUB AND PUSH1 0x0 SWAP1 DUP2 MSTORE PUSH1 0x7 PUSH1 0x20 MSTORE PUSH1 0x40 SWAP1 KECCAK256 SLOAD SWAP1 JUMP JUMPDEST PUSH2 0x473 PUSH2 0x1C26 JUMP JUMPDEST PUSH2 0x473 PUSH1 0x0 SLOAD DUP2 JUMP JUMPDEST PUSH2 0x473 PUSH2 0x732 CALLDATASIZE PUSH1 0x4 PUSH2 0x54DD JUMP JUMPDEST PUSH1 0x6 PUSH1 0x20 MSTORE PUSH1 0x0 SWAP1 DUP2 MSTORE PUSH1 0x40 SWAP1 KECCAK256 SLOAD DUP2 JUMP JUMPDEST PUSH2 0x4BF PUSH2 0x1C3A JUMP JUMPDEST PUSH2 0x473 PUSH2 0x75A CALLDATASIZE PUSH1 0x4 PUSH2 0x535A JUMP JUMPDEST PUSH2 0x1DC7 JUMP JUMPDEST PUSH2 0x473 PUSH2 0x219B JUMP JUMPDEST PUSH2 0x67A PUSH2 0x775 CALLDATASIZE PUSH1 0x4 PUSH2 0x5529 JUMP JUMPDEST PUSH2 0x21B2 JUMP JUMPDEST PUSH2 0x4BF PUSH2 0x788 CALLDATASIZE PUSH1 0x4 PUSH2 0x54DD JUMP JUMPDEST PUSH2 0x234A JUMP JUMPDEST PUSH1 0xB SLOAD PUSH1 0x1 PUSH1 0xA0 SHL SWAP1 DIV PUSH1 0xFF AND PUSH2 0x494 JUMP JUMPDEST PUSH2 0x473 PUSH2 0x24BC JUMP JUMPDEST PUSH2 0x473 PUSH2 0x24E9 JUMP JUMPDEST PUSH2 0x473 PUSH2 0x7BD CALLDATASIZE PUSH1 0x4 PUSH2 0x54DD JUMP JUMPDEST PUSH2 0x24FC JUMP JUMPDEST PUSH1 0x40 DUP1 MLOAD DUP1 DUP3 ADD SWAP1 SWAP2 MSTORE PUSH1 0x3 DUP2 MSTORE PUSH3 0x13D415 PUSH1 0xEA SHL PUSH1 0x20 DUP3 ADD MSTORE PUSH2 0x44A JUMP JUMPDEST PUSH2 0x473 PUSH2 0x254E JUMP JUMPDEST PUSH2 0x473 PUSH2 0x7F7 CALLDATASIZE PUSH1 0x4 PUSH2 0x52D2 JUMP JUMPDEST PUSH2 0x256C JUMP JUMPDEST PUSH2 0x494 PUSH2 0x80A CALLDATASIZE PUSH1 0x4 PUSH2 0x52D2 JUMP JUMPDEST PUSH2 0x25C9 JUMP JUMPDEST PUSH2 0x4BF PUSH2 0x25DF JUMP JUMPDEST PUSH2 0x473 PUSH1 0x2 DUP2 JUMP JUMPDEST PUSH2 0x473 PUSH1 0x1 DUP2 JUMP JUMPDEST PUSH2 0x473 PUSH2 0x27A0 JUMP JUMPDEST PUSH2 0x473 PUSH2 0x27B3 JUMP JUMPDEST PUSH2 0x83F PUSH2 0x27D2 JUMP JUMPDEST PUSH1 0x40 MLOAD PUSH2 0x457 SWAP2 SWAP1 PUSH2 0x55F9 JUMP JUMPDEST PUSH2 0x854 PUSH2 0x2881 JUMP JUMPDEST PUSH1 0x40 MLOAD PUSH2 0x457 SWAP3 SWAP2 SWAP1 PUSH2 0x560C JUMP JUMPDEST PUSH2 0x875 PUSH2 0x870 CALLDATASIZE PUSH1 0x4 PUSH2 0x5663 JUMP JUMPDEST PUSH2 0x29F1 JUMP JUMPDEST PUSH1 0x40 DUP1 MLOAD SWAP3 DUP4 MSTORE PUSH1 0x20 DUP4 ADD SWAP2 SWAP1 SWAP2 MSTORE ADD PUSH2 0x457 JUMP JUMPDEST PUSH2 0x854 PUSH2 0x31C0 JUMP JUMPDEST PUSH2 0x473 PUSH1 0x0 DUP2 JUMP JUMPDEST PUSH2 0x875 PUSH2 0x8A8 CALLDATASIZE PUSH1 0x4 PUSH2 0x5663 JUMP JUMPDEST PUSH2 0x3325 JUMP JUMPDEST PUSH2 0x547 PUSH2 0x8BB CALLDATASIZE PUSH1 0x4 PUSH2 0x5497 JUMP JUMPDEST PUSH2 0x3A4F JUMP JUMPDEST PUSH2 0x83F PUSH2 0x3AF9 JUMP JUMPDEST PUSH1 0xC SLOAD PUSH2 0x473 JUMP JUMPDEST PUSH1 0x1 SLOAD PUSH2 0x473 JUMP JUMPDEST PUSH2 0x494 PUSH2 0x8E6 CALLDATASIZE PUSH1 0x4 PUSH2 0x52D2 JUMP JUMPDEST PUSH2 0x3B1F JUMP JUMPDEST PUSH2 0x473 PUSH2 0x8F9 CALLDATASIZE PUSH1 0x4 PUSH2 0x56A5 JUMP JUMPDEST PUSH1 0x1 PUSH1 0x1 PUSH1 0xA0 SHL SUB SWAP2 DUP3 AND PUSH1 0x0 SWAP1 DUP2 MSTORE PUSH1 0x8 PUSH1 0x20 SWAP1 DUP2 MSTORE PUSH1 0x40 DUP1 DUP4 KECCAK256 SWAP4 SWAP1 SWAP5 AND DUP3 MSTORE SWAP2 SWAP1 SWAP2 MSTORE KECCAK256 SLOAD SWAP1 JUMP JUMPDEST PUSH2 0x473 PUSH2 0x3B92 JUMP JUMPDEST PUSH2 0x473 PUSH2 0x93A CALLDATASIZE PUSH1 0x4 PUSH2 0x54DD JUMP JUMPDEST PUSH2 0x3BA5 JUMP JUMPDEST PUSH2 0x473 PUSH2 0x94D CALLDATASIZE PUSH1 0x4 PUSH2 0x54DD JUMP JUMPDEST PUSH2 0x3BFE JUMP JUMPDEST PUSH1 0xA SLOAD PUSH1 0x1 PUSH1 0xA8 SHL SWAP1 DIV PUSH1 0xFF AND PUSH2 0x494 JUMP JUMPDEST PUSH2 0x473 PUSH2 0x972 CALLDATASIZE PUSH1 0x4 PUSH2 0x52D2 JUMP JUMPDEST PUSH2 0x3C4C JUMP JUMPDEST PUSH1 0xA SLOAD PUSH1 0x0 SWAP1 PUSH1 0xFF AND ISZERO PUSH2 0x9A6 JUMPI PUSH1 0x40 MLOAD PUSH3 0x461BCD PUSH1 0xE5 SHL DUP2 MSTORE PUSH1 0x4 ADD PUSH2 0x99D SWAP1 PUSH2 0x56D3 JUMP JUMPDEST PUSH1 0x40 MLOAD DUP1 SWAP2 SUB SWAP1 REVERT JUMPDEST PUSH2 0x9AF DUP5 PUSH2 0x3CA9 JUMP JUMPDEST PUSH2 0x9B8 DUP4 PUSH2 0x3CA9 JUMP JUMPDEST PUSH1 0x1 PUSH1 0x1 PUSH1 0xA0 SHL SUB DUP1 DUP6 AND PUSH1 0x0 SWAP1 DUP2 MSTORE PUSH1 0xD PUSH1 0x20 MSTORE PUSH1 0x40 DUP1 DUP3 KECCAK256 SWAP3 DUP7 AND DUP3 MSTORE SWAP1 KECCAK256 PUSH1 0x3 DUP1 DUP4 ADD SLOAD PUSH1 0x2 DUP1 DUP6 ADD SLOAD SWAP3 DUP5 ADD SLOAD SWAP1 DUP5 ADD SLOAD PUSH2 0x9F9 SWAP4 SWAP2 SWAP1 DUP9 PUSH2 0x3D04 JUMP JUMPDEST SWAP3 POP POP POP JUMPDEST SWAP4 SWAP3 POP POP POP JUMP JUMPDEST CALLER PUSH1 0x0 DUP2 DUP2 MSTORE PUSH1 0x8 PUSH1 0x20 SWAP1 DUP2 MSTORE PUSH1 0x40 DUP1 DUP4 KECCAK256 PUSH1 0x1 PUSH1 0x1 PUSH1 0xA0 SHL SUB DUP8 AND DUP1 DUP6 MSTORE SWAP3 MSTORE DUP1 DUP4 KECCAK256 DUP6 SWAP1 SSTORE MLOAD SWAP2 SWAP3 SWAP1 SWAP2 PUSH1 0x0 DUP1 MLOAD PUSH1 0x20 PUSH2 0x5944 DUP4 CODECOPY DUP2 MLOAD SWAP2 MSTORE SWAP1 PUSH2 0xA4E SWAP1 DUP7 DUP2 MSTORE PUSH1 0x20 ADD SWAP1 JUMP JUMPDEST PUSH1 0x40 MLOAD DUP1 SWAP2 SUB SWAP1 LOG3 POP PUSH1 0x1 JUMPDEST SWAP3 SWAP2 POP POP JUMP JUMPDEST PUSH2 0xA73 PUSH8 0xDE0B6B3A7640000 PUSH1 0x32 PUSH2 0x570E JUMP JUMPDEST DUP2 JUMP JUMPDEST PUSH1 0xA SLOAD PUSH1 0xFF AND ISZERO PUSH2 0xA99 JUMPI PUSH1 0x40 MLOAD PUSH3 0x461BCD PUSH1 0xE5 SHL DUP2 MSTORE PUSH1 0x4 ADD PUSH2 0x99D SWAP1 PUSH2 0x56D3 JUMP JUMPDEST PUSH1 0xA DUP1 SLOAD PUSH1 0x1 PUSH1 0xFF NOT SWAP1 SWAP2 AND OR SWAP1 DUP2 SWAP1 SSTORE PUSH2 0x100 SWAP1 DIV PUSH1 0x1 PUSH1 0x1 PUSH1 0xA0 SHL SUB AND CALLER EQ PUSH2 0xAFF JUMPI PUSH1 0x40 MLOAD PUSH3 0x461BCD PUSH1 0xE5 SHL DUP2 MSTORE PUSH1 0x20 PUSH1 0x4 DUP3 ADD MSTORE PUSH1 0x16 PUSH1 0x24 DUP3 ADD MSTORE PUSH22 0x22A9292FA4A72B20A624A22FA1A7A72A2927A62622A9 PUSH1 0x51 SHL PUSH1 0x44 DUP3 ADD MSTORE PUSH1 0x64 ADD PUSH2 0x99D JUMP JUMPDEST PUSH1 0x3 SLOAD PUSH1 0x1 PUSH1 0x1 PUSH1 0xA0 SHL SUB DUP8 DUP2 AND SWAP2 AND EQ PUSH2 0xB5C JUMPI PUSH1 0x40 MLOAD PUSH3 0x461BCD PUSH1 0xE5 SHL DUP2 MSTORE PUSH1 0x20 PUSH1 0x4 DUP3 ADD MSTORE PUSH1 0x1D PUSH1 0x24 DUP3 ADD MSTORE PUSH32 0x4552525F494E56414C49445F44415441544F4B454E5F41444452455353000000 PUSH1 0x44 DUP3 ADD MSTORE PUSH1 0x64 ADD PUSH2 0x99D JUMP JUMPDEST PUSH1 0x4 SLOAD PUSH1 0x1 PUSH1 0x1 PUSH1 0xA0 SHL SUB DUP5 DUP2 AND SWAP2 AND EQ PUSH2 0xBB9 JUMPI PUSH1 0x40 MLOAD PUSH3 0x461BCD PUSH1 0xE5 SHL DUP2 MSTORE PUSH1 0x20 PUSH1 0x4 DUP3 ADD MSTORE PUSH1 0x1D PUSH1 0x24 DUP3 ADD MSTORE PUSH32 0x4552525F494E56414C49445F62617365546F6B656E5F41444452455353000000 PUSH1 0x44 DUP3 ADD MSTORE PUSH1 0x64 ADD PUSH2 0x99D JUMP JUMPDEST PUSH2 0xBC4 DUP7 DUP7 DUP7 PUSH2 0x3D90 JUMP JUMPDEST PUSH1 0x40 DUP1 MLOAD DUP7 DUP2 MSTORE TIMESTAMP PUSH1 0x20 DUP3 ADD MSTORE PUSH1 0x1 PUSH1 0x1 PUSH1 0xA0 SHL SUB DUP9 AND SWAP2 CALLER SWAP2 PUSH1 0x0 DUP1 MLOAD PUSH1 0x20 PUSH2 0x5924 DUP4 CODECOPY DUP2 MLOAD SWAP2 MSTORE SWAP2 ADD PUSH1 0x40 MLOAD DUP1 SWAP2 SUB SWAP1 LOG3 PUSH2 0xC02 DUP4 DUP4 DUP4 PUSH2 0x3D90 JUMP JUMPDEST PUSH1 0x40 DUP1 MLOAD DUP4 DUP2 MSTORE TIMESTAMP PUSH1 0x20 DUP3 ADD MSTORE PUSH1 0x1 PUSH1 0x1 PUSH1 0xA0 SHL SUB DUP6 AND SWAP2 CALLER SWAP2 PUSH1 0x0 DUP1 MLOAD PUSH1 0x20 PUSH2 0x5924 DUP4 CODECOPY DUP2 MLOAD SWAP2 MSTORE SWAP2 ADD PUSH1 0x40 MLOAD DUP1 SWAP2 SUB SWAP1 LOG3 PUSH2 0xC3D PUSH2 0x3F7E JUMP JUMPDEST PUSH1 0x40 DUP1 MLOAD DUP4 DUP2 MSTORE PUSH1 0x20 DUP2 ADD DUP4 SWAP1 MSTORE SWAP1 DUP2 ADD DUP7 SWAP1 MSTORE PUSH1 0x60 DUP2 ADD DUP6 SWAP1 MSTORE PUSH1 0x1 PUSH1 0x1 PUSH1 0xA0 SHL SUB DUP1 DUP9 AND SWAP2 SWAP1 DUP6 AND SWAP1 CALLER SWAP1 PUSH32 0xBECE8B4DCDBE446DD65A9288154698E067E3E91DE17A1A408C2F531B9F845D73 SWAP1 PUSH1 0x80 ADD PUSH1 0x40 MLOAD DUP1 SWAP2 SUB SWAP1 LOG4 POP POP PUSH1 0xA DUP1 SLOAD PUSH1 0xFF NOT AND SWAP1 SSTORE POP POP POP POP JUMP JUMPDEST PUSH1 0xA SLOAD PUSH1 0x0 SWAP1 PUSH1 0xFF AND ISZERO PUSH2 0xCCF JUMPI PUSH1 0x40 MLOAD PUSH3 0x461BCD PUSH1 0xE5 SHL DUP2 MSTORE PUSH1 0x4 ADD PUSH2 0x99D SWAP1 PUSH2 0x56D3 JUMP JUMPDEST PUSH1 0xA DUP1 SLOAD PUSH1 0xFF NOT AND PUSH1 0x1 OR SWAP1 SSTORE PUSH1 0xB SLOAD PUSH1 0x1 PUSH1 0xA0 SHL SWAP1 DIV PUSH1 0xFF AND PUSH2 0xD05 JUMPI PUSH1 0x40 MLOAD PUSH3 0x461BCD PUSH1 0xE5 SHL DUP2 MSTORE PUSH1 0x4 ADD PUSH2 0x99D SWAP1 PUSH2 0x572D JUMP JUMPDEST PUSH1 0x4 SLOAD PUSH2 0xD1A SWAP1 PUSH1 0x1 PUSH1 0x1 PUSH1 0xA0 SHL SUB AND PUSH2 0x3CA9 JUMP JUMPDEST PUSH1 0x4 SLOAD PUSH1 0x1 PUSH1 0x1 PUSH1 0xA0 SHL SUB AND PUSH1 0x0 SWAP1 DUP2 MSTORE PUSH1 0xD PUSH1 0x20 MSTORE PUSH1 0x40 SWAP1 KECCAK256 PUSH1 0x3 DUP2 ADD SLOAD PUSH1 0x9 SLOAD PUSH2 0xD47 SWAP2 SWAP1 DUP7 PUSH2 0x3FDD JUMP JUMPDEST SWAP2 POP DUP3 DUP3 LT ISZERO PUSH2 0xD69 JUMPI PUSH1 0x40 MLOAD PUSH3 0x461BCD PUSH1 0xE5 SHL DUP2 MSTORE PUSH1 0x4 ADD PUSH2 0x99D SWAP1 PUSH2 0x5758 JUMP JUMPDEST PUSH1 0x4 SLOAD PUSH1 0x1 PUSH1 0x1 PUSH1 0xA0 SHL SUB AND PUSH1 0x0 SWAP1 DUP2 MSTORE PUSH1 0xD PUSH1 0x20 MSTORE PUSH1 0x40 SWAP1 KECCAK256 PUSH1 0x3 ADD SLOAD PUSH2 0xDAE SWAP1 PUSH2 0xD9E PUSH1 0x2 PUSH8 0xDE0B6B3A7640000 PUSH2 0x5795 JUMP JUMPDEST PUSH2 0xDA9 SWAP1 PUSH1 0x1 PUSH2 0x57A9 JUMP JUMPDEST PUSH2 0x4087 JUMP JUMPDEST DUP3 GT ISZERO PUSH2 0xDF1 JUMPI PUSH1 0x40 MLOAD PUSH3 0x461BCD PUSH1 0xE5 SHL DUP2 MSTORE PUSH1 0x20 PUSH1 0x4 DUP3 ADD MSTORE PUSH1 0x11 PUSH1 0x24 DUP3 ADD MSTORE PUSH17 0x4552525F4D41585F4F55545F524154494F PUSH1 0x78 SHL PUSH1 0x44 DUP3 ADD MSTORE PUSH1 0x64 ADD PUSH2 0x99D JUMP JUMPDEST PUSH2 0xDFF DUP2 PUSH1 0x3 ADD SLOAD DUP4 PUSH2 0x416C JUMP JUMPDEST PUSH1 0x3 DUP3 ADD SSTORE PUSH1 0x4 SLOAD PUSH1 0x40 DUP1 MLOAD DUP5 DUP2 MSTORE TIMESTAMP PUSH1 0x20 DUP3 ADD MSTORE PUSH1 0x1 PUSH1 0x1 PUSH1 0xA0 SHL SUB SWAP1 SWAP3 AND SWAP2 CALLER SWAP2 PUSH32 0x9D9058FD2F25CCC389FEC7720ABEF0CA83472F5ABFAFD5F10D37F51E6A0493F3 SWAP2 ADD PUSH1 0x40 MLOAD DUP1 SWAP2 SUB SWAP1 LOG3 PUSH1 0x40 MLOAD DUP5 DUP2 MSTORE PUSH32 0xFCDA32798D5A9D032F49B37FEA876D422F18F6E386E0F07DB6029B693624B2C2 SWAP1 PUSH1 0x20 ADD PUSH1 0x40 MLOAD DUP1 SWAP2 SUB SWAP1 LOG1 PUSH1 0xF SLOAD PUSH1 0x3 SLOAD PUSH1 0x40 MLOAD PUSH4 0xD098AB3 PUSH1 0xE1 SHL DUP2 MSTORE PUSH1 0x1 PUSH1 0x1 PUSH1 0xA0 SHL SUB SWAP2 DUP3 AND PUSH1 0x4 DUP3 ADD MSTORE PUSH1 0x24 DUP2 ADD DUP8 SWAP1 MSTORE SWAP2 AND SWAP1 PUSH4 0x1A131566 SWAP1 PUSH1 0x44 ADD PUSH1 0x20 PUSH1 0x40 MLOAD DUP1 DUP4 SUB DUP2 DUP7 GAS STATICCALL ISZERO DUP1 ISZERO PUSH2 0xED3 JUMPI RETURNDATASIZE PUSH1 0x0 DUP1 RETURNDATACOPY RETURNDATASIZE PUSH1 0x0 REVERT JUMPDEST POP POP POP POP PUSH1 0x40 MLOAD RETURNDATASIZE PUSH1 0x1F NOT PUSH1 0x1F DUP3 ADD AND DUP3 ADD DUP1 PUSH1 0x40 MSTORE POP DUP2 ADD SWAP1 PUSH2 0xEF7 SWAP2 SWAP1 PUSH2 0x57C1 JUMP JUMPDEST ISZERO PUSH2 0x1085 JUMPI PUSH1 0x3 DUP1 SLOAD PUSH1 0x1 PUSH1 0x1 PUSH1 0xA0 SHL SUB AND PUSH1 0x0 SWAP1 DUP2 MSTORE PUSH1 0xD PUSH1 0x20 MSTORE PUSH1 0x40 DUP2 KECCAK256 SWAP2 DUP3 ADD SLOAD PUSH1 0x9 SLOAD PUSH2 0xF29 SWAP2 SWAP1 DUP9 PUSH2 0x3FDD JUMP JUMPDEST SWAP1 POP PUSH2 0xF39 DUP3 PUSH1 0x3 ADD SLOAD DUP3 PUSH2 0x416C JUMP JUMPDEST PUSH1 0x3 DUP4 DUP2 ADD SWAP2 SWAP1 SWAP2 SSTORE SLOAD PUSH1 0xA SLOAD PUSH1 0x40 DUP1 MLOAD DUP5 DUP2 MSTORE TIMESTAMP PUSH1 0x20 DUP3 ADD MSTORE PUSH1 0x1 PUSH1 0x1 PUSH1 0xA0 SHL SUB SWAP4 DUP5 AND SWAP4 PUSH2 0x100 SWAP1 SWAP4 DIV SWAP1 SWAP3 AND SWAP2 PUSH32 0x9D9058FD2F25CCC389FEC7720ABEF0CA83472F5ABFAFD5F10D37F51E6A0493F3 SWAP2 ADD PUSH1 0x40 MLOAD DUP1 SWAP2 SUB SWAP1 LOG3 PUSH1 0xA SLOAD PUSH2 0xFAF SWAP1 PUSH2 0x100 SWAP1 DIV PUSH1 0x1 PUSH1 0x1 PUSH1 0xA0 SHL SUB AND DUP8 PUSH2 0x41C9 JUMP JUMPDEST PUSH2 0xFB8 DUP7 PUSH2 0x41D3 JUMP JUMPDEST PUSH1 0x3 SLOAD PUSH1 0xA SLOAD PUSH2 0xFDA SWAP2 PUSH1 0x1 PUSH1 0x1 PUSH1 0xA0 SHL SUB SWAP1 DUP2 AND SWAP2 PUSH2 0x100 SWAP1 DIV AND DUP4 PUSH2 0x41DC JUMP JUMPDEST PUSH1 0xF SLOAD PUSH1 0x3 SLOAD PUSH1 0x40 MLOAD PUSH4 0x54A9763 PUSH1 0xE4 SHL DUP2 MSTORE PUSH1 0x1 PUSH1 0x1 PUSH1 0xA0 SHL SUB SWAP2 DUP3 AND PUSH1 0x4 DUP3 ADD MSTORE PUSH1 0x24 DUP2 ADD DUP5 SWAP1 MSTORE PUSH1 0x44 DUP2 ADD DUP10 SWAP1 MSTORE SWAP2 AND SWAP1 PUSH4 0x54A97630 SWAP1 PUSH1 0x64 ADD PUSH1 0x0 PUSH1 0x40 MLOAD DUP1 DUP4 SUB DUP2 PUSH1 0x0 DUP8 DUP1 EXTCODESIZE ISZERO DUP1 ISZERO PUSH2 0x1031 JUMPI PUSH1 0x0 DUP1 REVERT JUMPDEST POP GAS CALL ISZERO DUP1 ISZERO PUSH2 0x1045 JUMPI RETURNDATASIZE PUSH1 0x0 DUP1 RETURNDATACOPY RETURNDATASIZE PUSH1 0x0 REVERT JUMPDEST POP POP POP POP PUSH32 0x87B3975661762D852DDF2EEAAD6A43B2D93777DE7B3B7BDB634283DF32456118 DUP7 PUSH1 0x40 MLOAD PUSH2 0x107A SWAP2 DUP2 MSTORE PUSH1 0x20 ADD SWAP1 JUMP JUMPDEST PUSH1 0x40 MLOAD DUP1 SWAP2 SUB SWAP1 LOG1 POP POP JUMPDEST PUSH2 0x108F CALLER DUP6 PUSH2 0x41C9 JUMP JUMPDEST PUSH2 0x1098 DUP5 PUSH2 0x41D3 JUMP JUMPDEST PUSH1 0x4 SLOAD PUSH2 0x10AF SWAP1 PUSH1 0x1 PUSH1 0x1 PUSH1 0xA0 SHL SUB AND CALLER DUP5 PUSH2 0x41DC JUMP JUMPDEST POP PUSH1 0xA DUP1 SLOAD PUSH1 0xFF NOT AND SWAP1 SSTORE SWAP3 SWAP2 POP POP JUMP JUMPDEST PUSH2 0xA73 PUSH5 0x2540BE400 PUSH8 0xDE0B6B3A7640000 PUSH2 0x5795 JUMP JUMPDEST PUSH1 0xB SLOAD PUSH1 0x1 PUSH1 0x1 PUSH1 0xA0 SHL SUB AND CALLER EQ PUSH2 0x1129 JUMPI PUSH1 0x40 MLOAD PUSH3 0x461BCD PUSH1 0xE5 SHL DUP2 MSTORE PUSH1 0x20 PUSH1 0x4 DUP3 ADD MSTORE PUSH1 0x15 PUSH1 0x24 DUP3 ADD MSTORE PUSH21 0x27A7262C9026A0A925A2AA1021A7A62622A1AA27A9 PUSH1 0x59 SHL PUSH1 0x44 DUP3 ADD MSTORE PUSH1 0x64 ADD PUSH2 0x99D JUMP JUMPDEST PUSH1 0x1 PUSH1 0x1 PUSH1 0xA0 SHL SUB DUP3 AND PUSH2 0x117F JUMPI PUSH1 0x40 MLOAD PUSH3 0x461BCD PUSH1 0xE5 SHL DUP2 MSTORE PUSH1 0x20 PUSH1 0x4 DUP3 ADD MSTORE PUSH1 0x1D PUSH1 0x24 DUP3 ADD MSTORE PUSH32 0x496E76616C6964205F6E6577436F6C6C6563746F722061646472657373000000 PUSH1 0x44 DUP3 ADD MSTORE PUSH1 0x64 ADD PUSH2 0x99D JUMP JUMPDEST DUP1 ISZERO DUP1 PUSH2 0x119F JUMPI POP PUSH2 0x119B PUSH2 0x2710 PUSH8 0xDE0B6B3A7640000 PUSH2 0x5795 JUMP JUMPDEST DUP2 LT ISZERO JUMPDEST PUSH2 0x11BB JUMPI PUSH1 0x40 MLOAD PUSH3 0x461BCD PUSH1 0xE5 SHL DUP2 MSTORE PUSH1 0x4 ADD PUSH2 0x99D SWAP1 PUSH2 0x57DE JUMP JUMPDEST PUSH2 0x11CE PUSH1 0xA PUSH8 0xDE0B6B3A7640000 PUSH2 0x5795 JUMP JUMPDEST DUP2 GT ISZERO PUSH2 0x11ED JUMPI PUSH1 0x40 MLOAD PUSH3 0x461BCD PUSH1 0xE5 SHL DUP2 MSTORE PUSH1 0x4 ADD PUSH2 0x99D SWAP1 PUSH2 0x5803 JUMP JUMPDEST PUSH1 0xB DUP1 SLOAD PUSH1 0x1 PUSH1 0x1 PUSH1 0xA0 SHL SUB NOT AND PUSH1 0x1 PUSH1 0x1 PUSH1 0xA0 SHL SUB DUP5 AND SWAP1 DUP2 OR SWAP1 SWAP2 SSTORE PUSH1 0x0 DUP3 SWAP1 SSTORE PUSH1 0x40 MLOAD PUSH32 0x5E3E722DBD3B6B8071B78568AC80CD0E8FF92E4FB3024E755D504D8F7C2F6F09 SWAP2 PUSH2 0x1243 SWAP2 CALLER SWAP2 SWAP1 DUP6 SWAP1 PUSH2 0x5828 JUMP JUMPDEST PUSH1 0x40 MLOAD DUP1 SWAP2 SUB SWAP1 LOG1 POP POP JUMP JUMPDEST PUSH1 0x0 CALLER PUSH1 0x1 PUSH1 0x1 PUSH1 0xA0 SHL SUB DUP6 AND EQ DUP1 PUSH2 0x128B JUMPI POP PUSH1 0x1 PUSH1 0x1 PUSH1 0xA0 SHL SUB DUP5 AND PUSH1 0x0 SWAP1 DUP2 MSTORE PUSH1 0x8 PUSH1 0x20 SWAP1 DUP2 MSTORE PUSH1 0x40 DUP1 DUP4 KECCAK256 CALLER DUP5 MSTORE SWAP1 SWAP2 MSTORE SWAP1 KECCAK256 SLOAD DUP3 GT ISZERO JUMPDEST PUSH2 0x12CF JUMPI PUSH1 0x40 MLOAD PUSH3 0x461BCD PUSH1 0xE5 SHL DUP2 MSTORE PUSH1 0x20 PUSH1 0x4 DUP3 ADD MSTORE PUSH1 0x15 PUSH1 0x24 DUP3 ADD MSTORE PUSH21 0x22A9292FA12A27A5A2A72FA120A22FA1A0A62622A9 PUSH1 0x59 SHL PUSH1 0x44 DUP3 ADD MSTORE PUSH1 0x64 ADD PUSH2 0x99D JUMP JUMPDEST PUSH2 0x12DA DUP5 DUP5 DUP5 PUSH2 0x41F0 JUMP JUMPDEST CALLER PUSH1 0x1 PUSH1 0x1 PUSH1 0xA0 SHL SUB DUP6 AND EQ DUP1 ISZERO SWAP1 PUSH2 0x1318 JUMPI POP PUSH1 0x1 PUSH1 0x1 PUSH1 0xA0 SHL SUB DUP5 AND PUSH1 0x0 SWAP1 DUP2 MSTORE PUSH1 0x8 PUSH1 0x20 SWAP1 DUP2 MSTORE PUSH1 0x40 DUP1 DUP4 KECCAK256 CALLER DUP5 MSTORE SWAP1 SWAP2 MSTORE SWAP1 KECCAK256 SLOAD PUSH1 0x0 NOT EQ ISZERO JUMPDEST ISZERO PUSH2 0x1394 JUMPI PUSH1 0x1 PUSH1 0x1 PUSH1 0xA0 SHL SUB DUP5 AND PUSH1 0x0 SWAP1 DUP2 MSTORE PUSH1 0x8 PUSH1 0x20 SWAP1 DUP2 MSTORE PUSH1 0x40 DUP1 DUP4 KECCAK256 CALLER DUP5 MSTORE SWAP1 SWAP2 MSTORE SWAP1 KECCAK256 SLOAD PUSH2 0x134B SWAP1 DUP4 PUSH2 0x416C JUMP JUMPDEST PUSH1 0x1 PUSH1 0x1 PUSH1 0xA0 SHL SUB DUP6 AND PUSH1 0x0 DUP2 DUP2 MSTORE PUSH1 0x8 PUSH1 0x20 SWAP1 DUP2 MSTORE PUSH1 0x40 DUP1 DUP4 KECCAK256 CALLER DUP1 DUP6 MSTORE SWAP1 DUP4 MSTORE SWAP3 DUP2 SWAP1 KECCAK256 DUP6 SWAP1 SSTORE MLOAD SWAP4 DUP5 MSTORE SWAP1 SWAP3 PUSH1 0x0 DUP1 MLOAD PUSH1 0x20 PUSH2 0x5944 DUP4 CODECOPY DUP2 MLOAD SWAP2 MSTORE SWAP2 ADD PUSH1 0x40 MLOAD DUP1 SWAP2 SUB SWAP1 LOG3 JUMPDEST POP PUSH1 0x1 SWAP4 SWAP3 POP POP POP JUMP JUMPDEST PUSH1 0xF SLOAD PUSH1 0x0 SWAP1 PUSH1 0x1 PUSH1 0xA0 SHL SWAP1 DIV PUSH1 0xFF AND ISZERO PUSH2 0x13FB JUMPI PUSH1 0x40 MLOAD PUSH3 0x461BCD PUSH1 0xE5 SHL DUP2 MSTORE PUSH1 0x20 PUSH1 0x4 DUP3 ADD MSTORE PUSH1 0x17 PUSH1 0x24 DUP3 ADD MSTORE PUSH32 0x4552525F414C52454144595F494E495449414C495A4544000000000000000000 PUSH1 0x44 DUP3 ADD MSTORE PUSH1 0x64 ADD PUSH2 0x99D JUMP JUMPDEST PUSH1 0x1 PUSH1 0x1 PUSH1 0xA0 SHL SUB DUP10 AND PUSH2 0x1451 JUMPI PUSH1 0x40 MLOAD PUSH3 0x461BCD PUSH1 0xE5 SHL DUP2 MSTORE PUSH1 0x20 PUSH1 0x4 DUP3 ADD MSTORE PUSH1 0x1E PUSH1 0x24 DUP3 ADD MSTORE PUSH32 0x4552525F494E56414C49445F434F4E54524F4C4C45525F414444524553530000 PUSH1 0x44 DUP3 ADD MSTORE PUSH1 0x64 ADD PUSH2 0x99D JUMP JUMPDEST PUSH1 0x1 PUSH1 0x1 PUSH1 0xA0 SHL SUB DUP9 AND PUSH2 0x14A7 JUMPI PUSH1 0x40 MLOAD PUSH3 0x461BCD PUSH1 0xE5 SHL DUP2 MSTORE PUSH1 0x20 PUSH1 0x4 DUP3 ADD MSTORE PUSH1 0x1B PUSH1 0x24 DUP3 ADD MSTORE PUSH32 0x4552525F494E56414C49445F464143544F52595F414444524553530000000000 PUSH1 0x44 DUP3 ADD MSTORE PUSH1 0x64 ADD PUSH2 0x99D JUMP JUMPDEST PUSH2 0x14BB PUSH2 0x2710 PUSH8 0xDE0B6B3A7640000 PUSH2 0x5795 JUMP JUMPDEST DUP8 DUP8 PUSH1 0x0 DUP2 DUP2 LT PUSH2 0x14CE JUMPI PUSH2 0x14CE PUSH2 0x584C JUMP JUMPDEST SWAP1 POP PUSH1 0x20 MUL ADD CALLDATALOAD LT ISZERO PUSH2 0x14F3 JUMPI PUSH1 0x40 MLOAD PUSH3 0x461BCD PUSH1 0xE5 SHL DUP2 MSTORE PUSH1 0x4 ADD PUSH2 0x99D SWAP1 PUSH2 0x57DE JUMP JUMPDEST PUSH2 0x1506 PUSH1 0xA PUSH8 0xDE0B6B3A7640000 PUSH2 0x5795 JUMP JUMPDEST DUP8 DUP8 PUSH1 0x0 DUP2 DUP2 LT PUSH2 0x1519 JUMPI PUSH2 0x1519 PUSH2 0x584C JUMP JUMPDEST SWAP1 POP PUSH1 0x20 MUL ADD CALLDATALOAD GT ISZERO PUSH2 0x153E JUMPI PUSH1 0x40 MLOAD PUSH3 0x461BCD PUSH1 0xE5 SHL DUP2 MSTORE PUSH1 0x4 ADD PUSH2 0x99D SWAP1 PUSH2 0x5803 JUMP JUMPDEST DUP7 DUP7 PUSH1 0x1 DUP2 DUP2 LT PUSH2 0x1551 JUMPI PUSH2 0x1551 PUSH2 0x584C JUMP JUMPDEST SWAP1 POP PUSH1 0x20 MUL ADD CALLDATALOAD PUSH1 0x0 EQ DUP1 PUSH2 0x1592 JUMPI POP PUSH2 0x1575 PUSH2 0x2710 PUSH8 0xDE0B6B3A7640000 PUSH2 0x5795 JUMP JUMPDEST DUP8 DUP8 PUSH1 0x1 DUP2 DUP2 LT PUSH2 0x1588 JUMPI PUSH2 0x1588 PUSH2 0x584C JUMP JUMPDEST SWAP1 POP PUSH1 0x20 MUL ADD CALLDATALOAD LT ISZERO JUMPDEST PUSH2 0x15AE JUMPI PUSH1 0x40 MLOAD PUSH3 0x461BCD PUSH1 0xE5 SHL DUP2 MSTORE PUSH1 0x4 ADD PUSH2 0x99D SWAP1 PUSH2 0x57DE JUMP JUMPDEST PUSH2 0x15C1 PUSH1 0xA PUSH8 0xDE0B6B3A7640000 PUSH2 0x5795 JUMP JUMPDEST DUP8 DUP8 PUSH1 0x1 DUP2 DUP2 LT PUSH2 0x15D4 JUMPI PUSH2 0x15D4 PUSH2 0x584C JUMP JUMPDEST SWAP1 POP PUSH1 0x20 MUL ADD CALLDATALOAD GT ISZERO PUSH2 0x15F9 JUMPI PUSH1 0x40 MLOAD PUSH3 0x461BCD PUSH1 0xE5 SHL DUP2 MSTORE PUSH1 0x4 ADD PUSH2 0x99D SWAP1 PUSH2 0x5803 JUMP JUMPDEST PUSH2 0x1682 DUP10 DUP10 DUP10 DUP10 DUP1 DUP1 PUSH1 0x20 MUL PUSH1 0x20 ADD PUSH1 0x40 MLOAD SWAP1 DUP2 ADD PUSH1 0x40 MSTORE DUP1 SWAP4 SWAP3 SWAP2 SWAP1 DUP2 DUP2 MSTORE PUSH1 0x20 ADD DUP4 DUP4 PUSH1 0x20 MUL DUP1 DUP3 DUP5 CALLDATACOPY PUSH1 0x0 SWAP3 ADD SWAP2 SWAP1 SWAP2 MSTORE POP POP PUSH1 0x40 DUP1 MLOAD DUP1 DUP3 ADD DUP3 MSTORE DUP13 SWAP4 POP DUP12 SWAP3 POP SWAP1 DUP11 SWAP1 PUSH1 0x2 SWAP1 DUP4 SWAP1 DUP4 SWAP1 DUP1 DUP3 DUP5 CALLDATACOPY PUSH1 0x0 SWAP3 ADD SWAP2 SWAP1 SWAP2 MSTORE POP POP PUSH1 0x40 DUP1 MLOAD PUSH1 0x20 DUP2 DUP2 ADD SWAP1 SWAP3 MSTORE SWAP2 POP DUP11 SWAP1 PUSH1 0x1 SWAP1 DUP4 SWAP1 DUP4 SWAP1 DUP1 DUP3 DUP5 CALLDATACOPY PUSH1 0x0 SWAP3 ADD SWAP2 SWAP1 SWAP2 MSTORE POP PUSH2 0x4302 SWAP2 POP POP JUMP JUMPDEST SWAP10 SWAP9 POP POP POP POP POP POP POP POP POP JUMP JUMPDEST PUSH1 0x2 SLOAD PUSH1 0x4 DUP1 SLOAD PUSH1 0x40 MLOAD PUSH4 0xB8421E2B PUSH1 0xE0 SHL DUP2 MSTORE PUSH1 0x1 PUSH1 0x1 PUSH1 0xA0 SHL SUB SWAP2 DUP3 AND SWAP3 DUP2 ADD SWAP3 SWAP1 SWAP3 MSTORE PUSH1 0x0 SWAP3 AND SWAP1 PUSH4 0xB8421E2B SWAP1 PUSH1 0x24 ADD PUSH1 0x20 PUSH1 0x40 MLOAD DUP1 DUP4 SUB DUP2 DUP7 GAS STATICCALL ISZERO DUP1 ISZERO PUSH2 0x16E0 JUMPI RETURNDATASIZE PUSH1 0x0 DUP1 RETURNDATACOPY RETURNDATASIZE PUSH1 0x0 REVERT JUMPDEST POP POP POP POP PUSH1 0x40 MLOAD RETURNDATASIZE PUSH1 0x1F NOT PUSH1 0x1F DUP3 ADD AND DUP3 ADD DUP1 PUSH1 0x40 MSTORE POP DUP2 ADD SWAP1 PUSH2 0x1704 SWAP2 SWAP1 PUSH2 0x5862 JUMP JUMPDEST SWAP1 POP SWAP1 JUMP JUMPDEST PUSH1 0x0 DUP1 PUSH1 0x0 DUP1 PUSH1 0x0 PUSH2 0x171A DUP10 PUSH2 0x3CA9 JUMP JUMPDEST PUSH2 0x1723 DUP9 PUSH2 0x3CA9 JUMP JUMPDEST PUSH1 0x40 DUP1 MLOAD PUSH1 0x80 DUP2 ADD DUP3 MSTORE PUSH1 0x1 PUSH1 0x1 PUSH1 0xA0 SHL SUB DUP1 DUP13 AND PUSH1 0x0 SWAP1 DUP2 MSTORE PUSH1 0xD PUSH1 0x20 DUP2 DUP2 MSTORE DUP6 DUP4 KECCAK256 PUSH1 0x3 DUP1 DUP3 ADD SLOAD DUP8 MSTORE PUSH1 0x2 SWAP2 DUP3 ADD SLOAD DUP4 DUP9 ADD MSTORE SWAP5 DUP16 AND DUP1 DUP6 MSTORE DUP4 DUP4 MSTORE DUP8 DUP6 KECCAK256 SWAP6 DUP7 ADD SLOAD SWAP8 DUP8 ADD SWAP8 SWAP1 SWAP8 MSTORE SWAP6 DUP4 MSTORE MSTORE SWAP3 ADD SLOAD PUSH1 0x60 DUP3 ADD MSTORE SWAP1 PUSH2 0x17A8 PUSH1 0x40 MLOAD DUP1 PUSH1 0x80 ADD PUSH1 0x40 MSTORE DUP1 PUSH1 0x0 DUP2 MSTORE PUSH1 0x20 ADD PUSH1 0x0 DUP2 MSTORE PUSH1 0x20 ADD PUSH1 0x0 DUP2 MSTORE PUSH1 0x20 ADD PUSH1 0x0 DUP2 MSTORE POP SWAP1 JUMP JUMPDEST PUSH2 0x17B3 DUP4 DUP12 DUP12 PUSH2 0x21B2 JUMP JUMPDEST DUP1 MLOAD PUSH1 0x20 DUP3 ADD MLOAD PUSH1 0x40 DUP4 ADD MLOAD PUSH1 0x60 SWAP1 SWAP4 ADD MLOAD SWAP5 SWAP13 POP SWAP1 SWAP11 POP SWAP9 POP SWAP7 POP SWAP1 SWAP5 POP POP POP POP POP SWAP5 POP SWAP5 POP SWAP5 POP SWAP5 POP SWAP5 JUMP JUMPDEST PUSH1 0xA SLOAD PUSH2 0x100 SWAP1 DIV PUSH1 0x1 PUSH1 0x1 PUSH1 0xA0 SHL SUB AND CALLER EQ PUSH2 0x1835 JUMPI PUSH1 0x40 MLOAD PUSH3 0x461BCD PUSH1 0xE5 SHL DUP2 MSTORE PUSH1 0x20 PUSH1 0x4 DUP3 ADD MSTORE PUSH1 0x12 PUSH1 0x24 DUP3 ADD MSTORE PUSH18 0x22A9292FA727AA2FA1A7A72A2927A62622A9 PUSH1 0x71 SHL PUSH1 0x44 DUP3 ADD MSTORE PUSH1 0x64 ADD PUSH2 0x99D JUMP JUMPDEST PUSH2 0x1849 PUSH2 0x2710 PUSH8 0xDE0B6B3A7640000 PUSH2 0x5795 JUMP JUMPDEST DUP2 LT ISZERO PUSH2 0x1868 JUMPI PUSH1 0x40 MLOAD PUSH3 0x461BCD PUSH1 0xE5 SHL DUP2 MSTORE PUSH1 0x4 ADD PUSH2 0x99D SWAP1 PUSH2 0x57DE JUMP JUMPDEST PUSH2 0x187B PUSH1 0xA PUSH8 0xDE0B6B3A7640000 PUSH2 0x5795 JUMP JUMPDEST DUP2 GT ISZERO PUSH2 0x189A JUMPI PUSH1 0x40 MLOAD PUSH3 0x461BCD PUSH1 0xE5 SHL DUP2 MSTORE PUSH1 0x4 ADD PUSH2 0x99D SWAP1 PUSH2 0x5803 JUMP JUMPDEST PUSH1 0x1 DUP2 SWAP1 SSTORE PUSH1 0x40 DUP1 MLOAD CALLER DUP2 MSTORE PUSH1 0x20 DUP2 ADD DUP4 SWAP1 MSTORE PUSH32 0xBCA0D601C32979EEBAC4E8CD06375B6E45D39AF80FC06A33F366425B450DFB69 SWAP2 ADD PUSH1 0x40 MLOAD DUP1 SWAP2 SUB SWAP1 LOG1 POP JUMP JUMPDEST PUSH1 0x1 PUSH1 0x1 PUSH1 0xA0 SHL SUB DUP3 AND PUSH1 0x0 SWAP1 DUP2 MSTORE PUSH1 0xD PUSH1 0x20 SWAP1 DUP2 MSTORE PUSH1 0x40 DUP1 DUP4 KECCAK256 DUP2 MLOAD PUSH1 0x80 DUP2 ADD DUP4 MSTORE DUP2 SLOAD PUSH1 0xFF AND ISZERO ISZERO DUP2 MSTORE PUSH1 0x1 DUP3 ADD SLOAD SWAP4 DUP2 ADD SWAP4 SWAP1 SWAP4 MSTORE PUSH1 0x2 DUP2 ADD SLOAD SWAP2 DUP4 ADD SWAP2 SWAP1 SWAP2 MSTORE PUSH1 0x3 ADD SLOAD PUSH1 0x60 DUP3 ADD DUP2 SWAP1 MSTORE PUSH1 0x9 SLOAD PUSH2 0x1938 SWAP2 SWAP1 DUP6 PUSH2 0x44B1 JUMP JUMPDEST SWAP5 SWAP4 POP POP POP POP JUMP JUMPDEST PUSH1 0x1 PUSH1 0x1 PUSH1 0xA0 SHL SUB DUP3 AND PUSH1 0x0 SWAP1 DUP2 MSTORE PUSH1 0xD PUSH1 0x20 SWAP1 DUP2 MSTORE PUSH1 0x40 DUP1 DUP4 KECCAK256 DUP2 MLOAD PUSH1 0x80 DUP2 ADD DUP4 MSTORE DUP2 SLOAD PUSH1 0xFF AND ISZERO ISZERO DUP2 MSTORE PUSH1 0x1 DUP3 ADD SLOAD SWAP4 DUP2 ADD SWAP4 SWAP1 SWAP4 MSTORE PUSH1 0x2 DUP2 ADD SLOAD SWAP2 DUP4 ADD SWAP2 SWAP1 SWAP2 MSTORE PUSH1 0x3 ADD SLOAD PUSH1 0x60 DUP3 ADD DUP2 SWAP1 MSTORE PUSH1 0x9 SLOAD PUSH2 0x1938 SWAP2 SWAP1 DUP6 PUSH2 0x3FDD JUMP JUMPDEST PUSH1 0x0 DUP1 PUSH2 0x19CB PUSH1 0x40 MLOAD DUP1 PUSH1 0x80 ADD PUSH1 0x40 MSTORE DUP1 PUSH1 0x0 DUP2 MSTORE PUSH1 0x20 ADD PUSH1 0x0 DUP2 MSTORE PUSH1 0x20 ADD PUSH1 0x0 DUP2 MSTORE PUSH1 0x20 ADD PUSH1 0x0 DUP2 MSTORE POP SWAP1 JUMP JUMPDEST PUSH1 0x0 PUSH2 0x19E6 DUP8 PUSH1 0x3 PUSH1 0x20 MUL ADD MLOAD DUP9 PUSH1 0x1 JUMPDEST PUSH1 0x20 MUL ADD MLOAD PUSH2 0x4564 JUMP JUMPDEST SWAP1 POP PUSH1 0x0 PUSH2 0x19FB DUP9 PUSH1 0x2 PUSH1 0x20 MUL ADD MLOAD DUP9 PUSH2 0x416C JUMP JUMPDEST SWAP1 POP PUSH1 0x0 PUSH2 0x1A10 DUP10 PUSH1 0x2 PUSH1 0x20 MUL ADD MLOAD DUP4 PUSH2 0x4564 JUMP JUMPDEST SWAP1 POP PUSH1 0x0 PUSH2 0x1A1E DUP3 DUP6 PUSH2 0x467C JUMP JUMPDEST SWAP1 POP PUSH2 0x1A32 DUP2 PUSH8 0xDE0B6B3A7640000 PUSH2 0x416C JUMP JUMPDEST SWAP1 POP PUSH1 0x0 DUP1 SLOAD DUP10 PUSH2 0x1A41 PUSH2 0x168F JUMP JUMPDEST PUSH1 0x1 SLOAD PUSH2 0x1A4E SWAP2 SWAP1 PUSH2 0x57A9 JUMP JUMPDEST PUSH2 0x1A58 SWAP2 SWAP1 PUSH2 0x57A9 JUMP JUMPDEST PUSH2 0x1A62 SWAP2 SWAP1 PUSH2 0x57A9 JUMP JUMPDEST SWAP1 POP PUSH2 0x1A90 PUSH2 0x1A79 DUP13 PUSH1 0x0 JUMPDEST PUSH1 0x20 MUL ADD MLOAD DUP5 PUSH2 0x4087 JUMP JUMPDEST PUSH2 0x1A8B PUSH8 0xDE0B6B3A7640000 DUP5 PUSH2 0x416C JUMP JUMPDEST PUSH2 0x4564 JUMP JUMPDEST SWAP8 POP PUSH2 0x1AB3 DUP9 PUSH2 0x1AAE DUP11 PUSH2 0xDA9 PUSH8 0xDE0B6B3A7640000 PUSH2 0x1AAE PUSH2 0x168F JUMP JUMPDEST PUSH2 0x416C JUMP JUMPDEST DUP7 PUSH1 0x20 ADD DUP2 DUP2 MSTORE POP POP PUSH2 0x1AD8 DUP9 PUSH2 0x1AAE DUP11 PUSH2 0xDA9 PUSH8 0xDE0B6B3A7640000 PUSH1 0x0 SLOAD PUSH2 0x416C JUMP JUMPDEST DUP7 PUSH1 0x40 ADD DUP2 DUP2 MSTORE POP POP PUSH2 0x1AFD DUP9 PUSH2 0x1AAE DUP11 PUSH2 0xDA9 PUSH8 0xDE0B6B3A7640000 PUSH1 0x1 SLOAD PUSH2 0x416C JUMP JUMPDEST DUP7 MSTORE PUSH2 0x1B19 DUP9 PUSH2 0x1AAE DUP2 PUSH2 0xDA9 PUSH8 0xDE0B6B3A7640000 DUP15 PUSH2 0x416C JUMP JUMPDEST PUSH1 0x60 DUP8 ADD MSTORE PUSH2 0x1B40 PUSH2 0x1B2C DUP13 PUSH1 0x0 PUSH2 0x1A6E JUMP JUMPDEST PUSH2 0x1A8B PUSH8 0xDE0B6B3A7640000 PUSH1 0x1 SLOAD PUSH2 0x416C JUMP JUMPDEST SWAP7 POP POP POP POP POP POP SWAP4 POP SWAP4 POP SWAP4 SWAP1 POP JUMP JUMPDEST CALLER PUSH1 0x0 SWAP1 DUP2 MSTORE PUSH1 0x8 PUSH1 0x20 SWAP1 DUP2 MSTORE PUSH1 0x40 DUP1 DUP4 KECCAK256 PUSH1 0x1 PUSH1 0x1 PUSH1 0xA0 SHL SUB DUP7 AND DUP5 MSTORE SWAP1 SWAP2 MSTORE DUP2 KECCAK256 SLOAD DUP1 DUP4 GT ISZERO PUSH2 0x1BA5 JUMPI CALLER PUSH1 0x0 SWAP1 DUP2 MSTORE PUSH1 0x8 PUSH1 0x20 SWAP1 DUP2 MSTORE PUSH1 0x40 DUP1 DUP4 KECCAK256 PUSH1 0x1 PUSH1 0x1 PUSH1 0xA0 SHL SUB DUP9 AND DUP5 MSTORE SWAP1 SWAP2 MSTORE DUP2 KECCAK256 SSTORE PUSH2 0x1BD4 JUMP JUMPDEST PUSH2 0x1BAF DUP2 DUP5 PUSH2 0x416C JUMP JUMPDEST CALLER PUSH1 0x0 SWAP1 DUP2 MSTORE PUSH1 0x8 PUSH1 0x20 SWAP1 DUP2 MSTORE PUSH1 0x40 DUP1 DUP4 KECCAK256 PUSH1 0x1 PUSH1 0x1 PUSH1 0xA0 SHL SUB DUP10 AND DUP5 MSTORE SWAP1 SWAP2 MSTORE SWAP1 KECCAK256 SSTORE JUMPDEST CALLER PUSH1 0x0 DUP2 DUP2 MSTORE PUSH1 0x8 PUSH1 0x20 SWAP1 DUP2 MSTORE PUSH1 0x40 DUP1 DUP4 KECCAK256 PUSH1 0x1 PUSH1 0x1 PUSH1 0xA0 SHL SUB DUP10 AND DUP1 DUP6 MSTORE SWAP1 DUP4 MSTORE SWAP3 DUP2 SWAP1 KECCAK256 SLOAD SWAP1 MLOAD SWAP1 DUP2 MSTORE SWAP2 SWAP3 SWAP2 PUSH1 0x0 DUP1 MLOAD PUSH1 0x20 PUSH2 0x5944 DUP4 CODECOPY DUP2 MLOAD SWAP2 MSTORE SWAP2 ADD PUSH1 0x40 MLOAD DUP1 SWAP2 SUB SWAP1 LOG3 POP PUSH1 0x1 SWAP4 SWAP3 POP POP POP JUMP JUMPDEST PUSH2 0xA73 PUSH2 0x2710 PUSH8 0xDE0B6B3A7640000 PUSH2 0x5795 JUMP JUMPDEST PUSH1 0x0 PUSH2 0x1C44 PUSH2 0x27D2 JUMP JUMPDEST SWAP1 POP PUSH1 0x0 JUMPDEST DUP2 MLOAD DUP2 LT ISZERO PUSH2 0x1DC3 JUMPI PUSH1 0x0 PUSH1 0x6 PUSH1 0x0 DUP5 DUP5 DUP2 MLOAD DUP2 LT PUSH2 0x1C6A JUMPI PUSH2 0x1C6A PUSH2 0x584C JUMP JUMPDEST PUSH1 0x20 MUL PUSH1 0x20 ADD ADD MLOAD PUSH1 0x1 PUSH1 0x1 PUSH1 0xA0 SHL SUB AND PUSH1 0x1 PUSH1 0x1 PUSH1 0xA0 SHL SUB AND DUP2 MSTORE PUSH1 0x20 ADD SWAP1 DUP2 MSTORE PUSH1 0x20 ADD PUSH1 0x0 KECCAK256 SLOAD SWAP1 POP PUSH1 0x0 PUSH1 0x6 PUSH1 0x0 DUP6 DUP6 DUP2 MLOAD DUP2 LT PUSH2 0x1CAD JUMPI PUSH2 0x1CAD PUSH2 0x584C JUMP JUMPDEST PUSH1 0x20 MUL PUSH1 0x20 ADD ADD MLOAD PUSH1 0x1 PUSH1 0x1 PUSH1 0xA0 SHL SUB AND PUSH1 0x1 PUSH1 0x1 PUSH1 0xA0 SHL SUB AND DUP2 MSTORE PUSH1 0x20 ADD SWAP1 DUP2 MSTORE PUSH1 0x20 ADD PUSH1 0x0 KECCAK256 DUP2 SWAP1 SSTORE POP PUSH32 0xBAF1AB77BE65C7ABF8FCD922BFCF0A749F556AC1A4CDF39C126FFAA1851EDB56 CALLER PUSH1 0xB PUSH1 0x0 SWAP1 SLOAD SWAP1 PUSH2 0x100 EXP SWAP1 DIV PUSH1 0x1 PUSH1 0x1 PUSH1 0xA0 SHL SUB AND DUP6 DUP6 DUP2 MLOAD DUP2 LT PUSH2 0x1D23 JUMPI PUSH2 0x1D23 PUSH2 0x584C JUMP JUMPDEST PUSH1 0x20 MUL PUSH1 0x20 ADD ADD MLOAD DUP5 PUSH1 0x40 MLOAD PUSH2 0x1D61 SWAP5 SWAP4 SWAP3 SWAP2 SWAP1 PUSH1 0x1 PUSH1 0x1 PUSH1 0xA0 SHL SUB SWAP5 DUP6 AND DUP2 MSTORE SWAP3 DUP5 AND PUSH1 0x20 DUP5 ADD MSTORE SWAP3 AND PUSH1 0x40 DUP3 ADD MSTORE PUSH1 0x60 DUP2 ADD SWAP2 SWAP1 SWAP2 MSTORE PUSH1 0x80 ADD SWAP1 JUMP JUMPDEST PUSH1 0x40 MLOAD DUP1 SWAP2 SUB SWAP1 LOG1 PUSH1 0xB SLOAD DUP4 MLOAD PUSH2 0x1DB0 SWAP2 PUSH1 0x1 PUSH1 0x1 PUSH1 0xA0 SHL SUB AND SWAP1 DUP4 SWAP1 DUP7 SWAP1 DUP7 SWAP1 DUP2 LT PUSH2 0x1D90 JUMPI PUSH2 0x1D90 PUSH2 0x584C JUMP JUMPDEST PUSH1 0x20 MUL PUSH1 0x20 ADD ADD MLOAD PUSH1 0x1 PUSH1 0x1 PUSH1 0xA0 SHL SUB AND PUSH2 0x47A8 SWAP1 SWAP3 SWAP2 SWAP1 PUSH4 0xFFFFFFFF AND JUMP JUMPDEST POP DUP1 PUSH2 0x1DBB DUP2 PUSH2 0x587B JUMP JUMPDEST SWAP2 POP POP PUSH2 0x1C49 JUMP JUMPDEST POP POP JUMP JUMPDEST PUSH1 0xA SLOAD PUSH1 0x0 SWAP1 PUSH1 0xFF AND ISZERO PUSH2 0x1DED JUMPI PUSH1 0x40 MLOAD PUSH3 0x461BCD PUSH1 0xE5 SHL DUP2 MSTORE PUSH1 0x4 ADD PUSH2 0x99D SWAP1 PUSH2 0x56D3 JUMP JUMPDEST PUSH1 0xA DUP1 SLOAD PUSH1 0xFF NOT AND PUSH1 0x1 OR SWAP1 SSTORE PUSH1 0xB SLOAD PUSH1 0x1 PUSH1 0xA0 SHL SWAP1 DIV PUSH1 0xFF AND PUSH2 0x1E23 JUMPI PUSH1 0x40 MLOAD PUSH3 0x461BCD PUSH1 0xE5 SHL DUP2 MSTORE PUSH1 0x4 ADD PUSH2 0x99D SWAP1 PUSH2 0x572D JUMP JUMPDEST PUSH1 0x4 SLOAD PUSH2 0x1E38 SWAP1 PUSH1 0x1 PUSH1 0x1 PUSH1 0xA0 SHL SUB AND PUSH2 0x3CA9 JUMP JUMPDEST PUSH1 0x4 SLOAD PUSH1 0x1 PUSH1 0x1 PUSH1 0xA0 SHL SUB AND PUSH1 0x0 SWAP1 DUP2 MSTORE PUSH1 0xD PUSH1 0x20 MSTORE PUSH1 0x40 SWAP1 KECCAK256 PUSH1 0x3 ADD SLOAD PUSH2 0x1E6D SWAP1 PUSH2 0xDA9 PUSH1 0x2 PUSH8 0xDE0B6B3A7640000 PUSH2 0x5795 JUMP JUMPDEST DUP4 GT ISZERO PUSH2 0x1EAF JUMPI PUSH1 0x40 MLOAD PUSH3 0x461BCD PUSH1 0xE5 SHL DUP2 MSTORE PUSH1 0x20 PUSH1 0x4 DUP3 ADD MSTORE PUSH1 0x10 PUSH1 0x24 DUP3 ADD MSTORE PUSH16 0x4552525F4D41585F494E5F524154494F PUSH1 0x80 SHL PUSH1 0x44 DUP3 ADD MSTORE PUSH1 0x64 ADD PUSH2 0x99D JUMP JUMPDEST PUSH1 0x4 SLOAD PUSH1 0x1 PUSH1 0x1 PUSH1 0xA0 SHL SUB AND PUSH1 0x0 SWAP1 DUP2 MSTORE PUSH1 0xD PUSH1 0x20 MSTORE PUSH1 0x40 SWAP1 KECCAK256 PUSH1 0x3 DUP2 ADD SLOAD PUSH1 0x9 SLOAD PUSH2 0x1EDC SWAP2 SWAP1 DUP7 PUSH2 0x44B1 JUMP JUMPDEST SWAP2 POP DUP3 DUP3 LT ISZERO PUSH2 0x1EFE JUMPI PUSH1 0x40 MLOAD PUSH3 0x461BCD PUSH1 0xE5 SHL DUP2 MSTORE PUSH1 0x4 ADD PUSH2 0x99D SWAP1 PUSH2 0x5758 JUMP JUMPDEST PUSH2 0x1F0C DUP2 PUSH1 0x3 ADD SLOAD DUP6 PUSH2 0x480B JUMP JUMPDEST PUSH1 0x3 DUP3 ADD SSTORE PUSH1 0x4 SLOAD PUSH1 0x40 DUP1 MLOAD DUP7 DUP2 MSTORE TIMESTAMP PUSH1 0x20 DUP3 ADD MSTORE PUSH1 0x1 PUSH1 0x1 PUSH1 0xA0 SHL SUB SWAP1 SWAP3 AND SWAP2 CALLER SWAP2 PUSH1 0x0 DUP1 MLOAD PUSH1 0x20 PUSH2 0x5924 DUP4 CODECOPY DUP2 MLOAD SWAP2 MSTORE SWAP2 ADD PUSH1 0x40 MLOAD DUP1 SWAP2 SUB SWAP1 LOG3 PUSH1 0x40 MLOAD DUP3 DUP2 MSTORE PUSH32 0xFCDA32798D5A9D032F49B37FEA876D422F18F6E386E0F07DB6029B693624B2C2 SWAP1 PUSH1 0x20 ADD PUSH1 0x40 MLOAD DUP1 SWAP2 SUB SWAP1 LOG1 PUSH1 0x3 DUP1 SLOAD PUSH1 0x1 PUSH1 0x1 PUSH1 0xA0 SHL SUB AND PUSH1 0x0 SWAP1 DUP2 MSTORE PUSH1 0xD PUSH1 0x20 MSTORE PUSH1 0x40 DUP2 KECCAK256 SWAP2 DUP3 ADD SLOAD PUSH1 0x9 SLOAD PUSH2 0x1FA8 SWAP2 SWAP1 DUP7 PUSH2 0x485D JUMP JUMPDEST PUSH1 0xF SLOAD PUSH1 0x3 SLOAD PUSH1 0x40 MLOAD PUSH4 0x2AFBBACB PUSH1 0xE0 SHL DUP2 MSTORE PUSH1 0x1 PUSH1 0x1 PUSH1 0xA0 SHL SUB SWAP2 DUP3 AND PUSH1 0x4 DUP3 ADD MSTORE PUSH1 0x24 DUP2 ADD DUP5 SWAP1 MSTORE SWAP3 SWAP4 POP AND SWAP1 PUSH4 0x2AFBBACB SWAP1 PUSH1 0x44 ADD PUSH1 0x20 PUSH1 0x40 MLOAD DUP1 DUP4 SUB DUP2 DUP7 GAS STATICCALL ISZERO DUP1 ISZERO PUSH2 0x1FFD JUMPI RETURNDATASIZE PUSH1 0x0 DUP1 RETURNDATACOPY RETURNDATASIZE PUSH1 0x0 REVERT JUMPDEST POP POP POP POP PUSH1 0x40 MLOAD RETURNDATASIZE PUSH1 0x1F NOT PUSH1 0x1F DUP3 ADD AND DUP3 ADD DUP1 PUSH1 0x40 MSTORE POP DUP2 ADD SWAP1 PUSH2 0x2021 SWAP2 SWAP1 PUSH2 0x57C1 JUMP JUMPDEST ISZERO PUSH2 0x215E JUMPI PUSH1 0xF SLOAD PUSH1 0x3 SLOAD PUSH1 0x40 MLOAD PUSH4 0xEBEDB8B3 PUSH1 0xE0 SHL DUP2 MSTORE PUSH1 0x1 PUSH1 0x1 PUSH1 0xA0 SHL SUB SWAP2 DUP3 AND PUSH1 0x4 DUP3 ADD MSTORE PUSH1 0x24 DUP2 ADD DUP5 SWAP1 MSTORE SWAP2 AND SWAP1 PUSH4 0xEBEDB8B3 SWAP1 PUSH1 0x44 ADD PUSH1 0x0 PUSH1 0x40 MLOAD DUP1 DUP4 SUB DUP2 PUSH1 0x0 DUP8 DUP1 EXTCODESIZE ISZERO DUP1 ISZERO PUSH2 0x2076 JUMPI PUSH1 0x0 DUP1 REVERT JUMPDEST POP GAS CALL ISZERO DUP1 ISZERO PUSH2 0x208A JUMPI RETURNDATASIZE PUSH1 0x0 DUP1 RETURNDATACOPY RETURNDATASIZE PUSH1 0x0 REVERT JUMPDEST POP POP POP POP PUSH2 0x209C DUP3 PUSH1 0x3 ADD SLOAD DUP3 PUSH2 0x480B JUMP JUMPDEST PUSH1 0x3 DUP4 DUP2 ADD SWAP2 SWAP1 SWAP2 SSTORE SLOAD PUSH1 0xA SLOAD PUSH1 0x40 DUP1 MLOAD DUP5 DUP2 MSTORE TIMESTAMP PUSH1 0x20 DUP3 ADD MSTORE PUSH1 0x1 PUSH1 0x1 PUSH1 0xA0 SHL SUB SWAP4 DUP5 AND SWAP4 PUSH2 0x100 SWAP1 SWAP4 DIV SWAP1 SWAP3 AND SWAP2 PUSH1 0x0 DUP1 MLOAD PUSH1 0x20 PUSH2 0x5924 DUP4 CODECOPY DUP2 MLOAD SWAP2 MSTORE SWAP2 ADD PUSH1 0x40 MLOAD DUP1 SWAP2 SUB SWAP1 LOG3 PUSH1 0x40 MLOAD DUP5 DUP2 MSTORE PUSH32 0x87B3975661762D852DDF2EEAAD6A43B2D93777DE7B3B7BDB634283DF32456118 SWAP1 PUSH1 0x20 ADD PUSH1 0x40 MLOAD DUP1 SWAP2 SUB SWAP1 LOG1 PUSH2 0x2121 DUP5 PUSH2 0x48FA JUMP JUMPDEST PUSH1 0xA SLOAD PUSH2 0x213C SWAP1 PUSH2 0x100 SWAP1 DIV PUSH1 0x1 PUSH1 0x1 PUSH1 0xA0 SHL SUB AND DUP6 PUSH2 0x4903 JUMP JUMPDEST PUSH1 0x3 SLOAD PUSH1 0xA SLOAD PUSH2 0x215E SWAP2 PUSH1 0x1 PUSH1 0x1 PUSH1 0xA0 SHL SUB SWAP1 DUP2 AND SWAP2 PUSH2 0x100 SWAP1 DIV AND DUP4 PUSH2 0x490D JUMP JUMPDEST PUSH2 0x2167 DUP5 PUSH2 0x48FA JUMP JUMPDEST PUSH2 0x2171 CALLER DUP6 PUSH2 0x4903 JUMP JUMPDEST PUSH1 0x4 SLOAD PUSH2 0x2188 SWAP1 PUSH1 0x1 PUSH1 0x1 PUSH1 0xA0 SHL SUB AND CALLER DUP9 PUSH2 0x490D JUMP JUMPDEST POP POP POP PUSH1 0xA DUP1 SLOAD PUSH1 0xFF NOT AND SWAP1 SSTORE SWAP3 SWAP2 POP POP JUMP JUMPDEST PUSH2 0xA73 PUSH5 0xE8D4A51000 PUSH8 0xDE0B6B3A7640000 PUSH2 0x5795 JUMP JUMPDEST PUSH1 0x0 DUP1 PUSH2 0x21E0 PUSH1 0x40 MLOAD DUP1 PUSH1 0x80 ADD PUSH1 0x40 MSTORE DUP1 PUSH1 0x0 DUP2 MSTORE PUSH1 0x20 ADD PUSH1 0x0 DUP2 MSTORE PUSH1 0x20 ADD PUSH1 0x0 DUP2 MSTORE PUSH1 0x20 ADD PUSH1 0x0 DUP2 MSTORE POP SWAP1 JUMP JUMPDEST PUSH1 0x0 PUSH2 0x21F5 DUP8 PUSH1 0x1 PUSH1 0x20 MUL ADD MLOAD DUP9 PUSH1 0x3 PUSH2 0x19DC JUMP JUMPDEST SWAP1 POP PUSH2 0x2213 DUP7 PUSH2 0x1AAE DUP9 PUSH2 0xDA9 PUSH8 0xDE0B6B3A7640000 PUSH2 0x1AAE PUSH2 0x168F JUMP JUMPDEST DUP3 PUSH1 0x20 ADD DUP2 DUP2 MSTORE POP POP PUSH2 0x2238 DUP7 PUSH2 0x1AAE DUP9 PUSH2 0xDA9 PUSH8 0xDE0B6B3A7640000 PUSH1 0x0 SLOAD PUSH2 0x416C JUMP JUMPDEST DUP3 PUSH1 0x40 ADD DUP2 DUP2 MSTORE POP POP PUSH2 0x225D DUP7 PUSH2 0x1AAE DUP9 PUSH2 0xDA9 PUSH8 0xDE0B6B3A7640000 PUSH1 0x1 SLOAD PUSH2 0x416C JUMP JUMPDEST DUP3 MSTORE PUSH2 0x2279 DUP7 PUSH2 0x1AAE DUP2 PUSH2 0xDA9 PUSH8 0xDE0B6B3A7640000 DUP11 PUSH2 0x416C JUMP JUMPDEST PUSH1 0x60 DUP4 ADD MSTORE PUSH1 0x0 DUP1 SLOAD DUP7 SWAP1 PUSH2 0x228C PUSH2 0x168F JUMP JUMPDEST PUSH1 0x1 SLOAD PUSH2 0x2299 SWAP2 SWAP1 PUSH2 0x57A9 JUMP JUMPDEST PUSH2 0x22A3 SWAP2 SWAP1 PUSH2 0x57A9 JUMP JUMPDEST PUSH2 0x22AD SWAP2 SWAP1 PUSH2 0x57A9 JUMP JUMPDEST SWAP1 POP PUSH1 0x0 PUSH2 0x22C3 PUSH8 0xDE0B6B3A7640000 DUP4 PUSH2 0x416C JUMP JUMPDEST SWAP1 POP PUSH2 0x22CF DUP9 DUP3 PUSH2 0x4087 JUMP JUMPDEST DUP10 MLOAD SWAP1 SWAP2 POP PUSH1 0x0 SWAP1 PUSH2 0x22E5 SWAP1 PUSH2 0x1A8B DUP2 DUP6 PUSH2 0x480B JUMP JUMPDEST SWAP1 POP PUSH1 0x0 PUSH2 0x22F3 DUP3 DUP7 PUSH2 0x467C JUMP JUMPDEST SWAP1 POP PUSH1 0x0 PUSH2 0x2309 PUSH8 0xDE0B6B3A7640000 DUP4 PUSH2 0x416C JUMP JUMPDEST SWAP1 POP PUSH2 0x231C DUP13 PUSH1 0x2 PUSH1 0x20 MUL ADD MLOAD DUP3 PUSH2 0x4087 JUMP JUMPDEST SWAP9 POP DUP9 PUSH2 0x2337 DUP13 DUP10 PUSH1 0x40 ADD MLOAD DUP11 PUSH1 0x20 ADD MLOAD PUSH2 0x1AAE SWAP2 SWAP1 PUSH2 0x57A9 JUMP JUMPDEST SWAP9 POP SWAP9 POP POP POP POP POP POP POP SWAP4 POP SWAP4 POP SWAP4 SWAP1 POP JUMP JUMPDEST PUSH1 0xA SLOAD PUSH1 0xFF AND ISZERO PUSH2 0x236D JUMPI PUSH1 0x40 MLOAD PUSH3 0x461BCD PUSH1 0xE5 SHL DUP2 MSTORE PUSH1 0x4 ADD PUSH2 0x99D SWAP1 PUSH2 0x56D3 JUMP JUMPDEST PUSH1 0xA DUP1 SLOAD PUSH1 0xFF NOT AND PUSH1 0x1 OR SWAP1 SSTORE PUSH1 0x1 PUSH1 0x1 PUSH1 0xA0 SHL SUB DUP2 AND PUSH1 0x0 SWAP1 DUP2 MSTORE PUSH1 0xD PUSH1 0x20 MSTORE PUSH1 0x40 SWAP1 KECCAK256 SLOAD PUSH1 0xFF AND PUSH2 0x23D2 JUMPI PUSH1 0x40 MLOAD PUSH3 0x461BCD PUSH1 0xE5 SHL DUP2 MSTORE PUSH1 0x20 PUSH1 0x4 DUP3 ADD MSTORE PUSH1 0xD PUSH1 0x24 DUP3 ADD MSTORE PUSH13 0x11549497D393D517D093D55391 PUSH1 0x9A SHL PUSH1 0x44 DUP3 ADD MSTORE PUSH1 0x64 ADD PUSH2 0x99D JUMP JUMPDEST PUSH1 0x1 PUSH1 0x1 PUSH1 0xA0 SHL SUB DUP2 AND PUSH1 0x0 DUP2 DUP2 MSTORE PUSH1 0xD PUSH1 0x20 MSTORE PUSH1 0x40 SWAP1 DUP2 SWAP1 KECCAK256 PUSH1 0x3 ADD SLOAD SWAP1 MLOAD PUSH4 0x70A08231 PUSH1 0xE0 SHL DUP2 MSTORE ADDRESS PUSH1 0x4 DUP3 ADD MSTORE SWAP1 SWAP2 SWAP1 PUSH4 0x70A08231 SWAP1 PUSH1 0x24 ADD PUSH1 0x20 PUSH1 0x40 MLOAD DUP1 DUP4 SUB DUP2 DUP7 GAS STATICCALL ISZERO DUP1 ISZERO PUSH2 0x242B JUMPI RETURNDATASIZE PUSH1 0x0 DUP1 RETURNDATACOPY RETURNDATASIZE PUSH1 0x0 REVERT JUMPDEST POP POP POP POP PUSH1 0x40 MLOAD RETURNDATASIZE PUSH1 0x1F NOT PUSH1 0x1F DUP3 ADD AND DUP3 ADD DUP1 PUSH1 0x40 MSTORE POP DUP2 ADD SWAP1 PUSH2 0x244F SWAP2 SWAP1 PUSH2 0x5862 JUMP JUMPDEST PUSH1 0x1 PUSH1 0x1 PUSH1 0xA0 SHL SUB DUP4 AND PUSH1 0x0 DUP2 DUP2 MSTORE PUSH1 0xD PUSH1 0x20 SWAP1 DUP2 MSTORE PUSH1 0x40 SWAP2 DUP3 SWAP1 KECCAK256 PUSH1 0x3 ADD DUP5 SWAP1 SSTORE DUP2 MLOAD SWAP3 DUP4 MSTORE DUP3 ADD DUP5 SWAP1 MSTORE DUP2 ADD SWAP2 SWAP1 SWAP2 MSTORE PUSH32 0x9FACCA02B471D2776031537A8C9E281DFE5120035EDE107BD328B165FFD97338 SWAP1 PUSH1 0x60 ADD PUSH1 0x40 MLOAD DUP1 SWAP2 SUB SWAP1 LOG1 POP POP PUSH1 0xA DUP1 SLOAD PUSH1 0xFF NOT AND SWAP1 SSTORE JUMP JUMPDEST PUSH1 0xA SLOAD PUSH1 0x0 SWAP1 PUSH1 0xFF AND ISZERO PUSH2 0x24E2 JUMPI PUSH1 0x40 MLOAD PUSH3 0x461BCD PUSH1 0xE5 SHL DUP2 MSTORE PUSH1 0x4 ADD PUSH2 0x99D SWAP1 PUSH2 0x56D3 JUMP JUMPDEST POP PUSH1 0xE SLOAD SWAP1 JUMP JUMPDEST PUSH2 0xA73 PUSH8 0xDE0B6B3A7640000 PUSH1 0x64 PUSH2 0x570E JUMP JUMPDEST PUSH1 0xA SLOAD PUSH1 0x0 SWAP1 PUSH1 0xFF AND ISZERO PUSH2 0x2522 JUMPI PUSH1 0x40 MLOAD PUSH3 0x461BCD PUSH1 0xE5 SHL DUP2 MSTORE PUSH1 0x4 ADD PUSH2 0x99D SWAP1 PUSH2 0x56D3 JUMP JUMPDEST PUSH2 0x252B DUP3 PUSH2 0x3CA9 JUMP JUMPDEST POP PUSH1 0x1 PUSH1 0x1 PUSH1 0xA0 SHL SUB DUP2 AND PUSH1 0x0 SWAP1 DUP2 MSTORE PUSH1 0xD PUSH1 0x20 MSTORE PUSH1 0x40 SWAP1 KECCAK256 PUSH1 0x2 ADD SLOAD JUMPDEST SWAP2 SWAP1 POP JUMP JUMPDEST PUSH2 0x2561 PUSH1 0x2 PUSH8 0xDE0B6B3A7640000 PUSH2 0x5795 JUMP JUMPDEST PUSH2 0xA73 SWAP1 PUSH1 0x1 PUSH2 0x57A9 JUMP JUMPDEST PUSH1 0x1 PUSH1 0x1 PUSH1 0xA0 SHL SUB DUP3 AND PUSH1 0x0 SWAP1 DUP2 MSTORE PUSH1 0xD PUSH1 0x20 SWAP1 DUP2 MSTORE PUSH1 0x40 DUP1 DUP4 KECCAK256 DUP2 MLOAD PUSH1 0x80 DUP2 ADD DUP4 MSTORE DUP2 SLOAD PUSH1 0xFF AND ISZERO ISZERO DUP2 MSTORE PUSH1 0x1 DUP3 ADD SLOAD SWAP4 DUP2 ADD SWAP4 SWAP1 SWAP4 MSTORE PUSH1 0x2 DUP2 ADD SLOAD SWAP2 DUP4 ADD SWAP2 SWAP1 SWAP2 MSTORE PUSH1 0x3 ADD SLOAD PUSH1 0x60 DUP3 ADD DUP2 SWAP1 MSTORE PUSH1 0x9 SLOAD PUSH2 0x1938 SWAP2 SWAP1 DUP6 PUSH2 0x4A55 JUMP JUMPDEST PUSH1 0x0 PUSH2 0x25D6 CALLER DUP5 DUP5 PUSH2 0x41F0 JUMP JUMPDEST POP PUSH1 0x1 SWAP3 SWAP2 POP POP JUMP JUMPDEST PUSH1 0x0 PUSH2 0x25E9 PUSH2 0x27D2 JUMP JUMPDEST SWAP1 POP PUSH1 0x0 JUMPDEST DUP2 MLOAD DUP2 LT ISZERO PUSH2 0x1DC3 JUMPI PUSH1 0x0 PUSH1 0x5 PUSH1 0x0 DUP5 DUP5 DUP2 MLOAD DUP2 LT PUSH2 0x260F JUMPI PUSH2 0x260F PUSH2 0x584C JUMP JUMPDEST PUSH1 0x20 MUL PUSH1 0x20 ADD ADD MLOAD PUSH1 0x1 PUSH1 0x1 PUSH1 0xA0 SHL SUB AND PUSH1 0x1 PUSH1 0x1 PUSH1 0xA0 SHL SUB AND DUP2 MSTORE PUSH1 0x20 ADD SWAP1 DUP2 MSTORE PUSH1 0x20 ADD PUSH1 0x0 KECCAK256 SLOAD SWAP1 POP PUSH1 0x0 PUSH1 0x5 PUSH1 0x0 DUP6 DUP6 DUP2 MLOAD DUP2 LT PUSH2 0x2652 JUMPI PUSH2 0x2652 PUSH2 0x584C JUMP JUMPDEST PUSH1 0x20 MUL PUSH1 0x20 ADD ADD MLOAD PUSH1 0x1 PUSH1 0x1 PUSH1 0xA0 SHL SUB AND PUSH1 0x1 PUSH1 0x1 PUSH1 0xA0 SHL SUB AND DUP2 MSTORE PUSH1 0x20 ADD SWAP1 DUP2 MSTORE PUSH1 0x20 ADD PUSH1 0x0 KECCAK256 DUP2 SWAP1 SSTORE POP PUSH1 0x0 PUSH1 0x2 PUSH1 0x0 SWAP1 SLOAD SWAP1 PUSH2 0x100 EXP SWAP1 DIV PUSH1 0x1 PUSH1 0x1 PUSH1 0xA0 SHL SUB AND PUSH1 0x1 PUSH1 0x1 PUSH1 0xA0 SHL SUB AND PUSH4 0x1A81876D PUSH1 0x40 MLOAD DUP2 PUSH4 0xFFFFFFFF AND PUSH1 0xE0 SHL DUP2 MSTORE PUSH1 0x4 ADD PUSH1 0x20 PUSH1 0x40 MLOAD DUP1 DUP4 SUB DUP2 DUP7 GAS STATICCALL ISZERO DUP1 ISZERO PUSH2 0x26D3 JUMPI RETURNDATASIZE PUSH1 0x0 DUP1 RETURNDATACOPY RETURNDATASIZE PUSH1 0x0 REVERT JUMPDEST POP POP POP POP PUSH1 0x40 MLOAD RETURNDATASIZE PUSH1 0x1F NOT PUSH1 0x1F DUP3 ADD AND DUP3 ADD DUP1 PUSH1 0x40 MSTORE POP DUP2 ADD SWAP1 PUSH2 0x26F7 SWAP2 SWAP1 PUSH2 0x5896 JUMP JUMPDEST SWAP1 POP PUSH32 0xED2B0288692CFC6D01C94A67A53721792F59C3D1388221F8AA4F66C8D2808DDE CALLER DUP3 DUP7 DUP7 DUP2 MLOAD DUP2 LT PUSH2 0x272E JUMPI PUSH2 0x272E PUSH2 0x584C JUMP JUMPDEST PUSH1 0x20 MUL PUSH1 0x20 ADD ADD MLOAD DUP6 PUSH1 0x40 MLOAD PUSH2 0x276C SWAP5 SWAP4 SWAP3 SWAP2 SWAP1 PUSH1 0x1 PUSH1 0x1 PUSH1 0xA0 SHL SUB SWAP5 DUP6 AND DUP2 MSTORE SWAP3 DUP5 AND PUSH1 0x20 DUP5 ADD MSTORE SWAP3 AND PUSH1 0x40 DUP3 ADD MSTORE PUSH1 0x60 DUP2 ADD SWAP2 SWAP1 SWAP2 MSTORE PUSH1 0x80 ADD SWAP1 JUMP JUMPDEST PUSH1 0x40 MLOAD DUP1 SWAP2 SUB SWAP1 LOG1 PUSH2 0x278B DUP2 DUP4 DUP7 DUP7 DUP2 MLOAD DUP2 LT PUSH2 0x1D90 JUMPI PUSH2 0x1D90 PUSH2 0x584C JUMP JUMPDEST POP POP DUP1 DUP1 PUSH2 0x2798 SWAP1 PUSH2 0x587B JUMP JUMPDEST SWAP2 POP POP PUSH2 0x25EE JUMP JUMPDEST PUSH2 0xA73 PUSH1 0xA PUSH8 0xDE0B6B3A7640000 PUSH2 0x5795 JUMP JUMPDEST PUSH1 0x1 PUSH2 0x27C8 PUSH8 0xDE0B6B3A7640000 PUSH1 0x2 PUSH2 0x570E JUMP JUMPDEST PUSH2 0xA73 SWAP2 SWAP1 PUSH2 0x58B3 JUMP JUMPDEST PUSH1 0xA SLOAD PUSH1 0x60 SWAP1 PUSH1 0xFF AND ISZERO PUSH2 0x27F8 JUMPI PUSH1 0x40 MLOAD PUSH3 0x461BCD PUSH1 0xE5 SHL DUP2 MSTORE PUSH1 0x4 ADD PUSH2 0x99D SWAP1 PUSH2 0x56D3 JUMP JUMPDEST PUSH1 0xB SLOAD PUSH1 0x1 PUSH1 0xA0 SHL SWAP1 DIV PUSH1 0xFF AND PUSH2 0x2821 JUMPI PUSH1 0x40 MLOAD PUSH3 0x461BCD PUSH1 0xE5 SHL DUP2 MSTORE PUSH1 0x4 ADD PUSH2 0x99D SWAP1 PUSH2 0x572D JUMP JUMPDEST PUSH1 0xC DUP1 SLOAD DUP1 PUSH1 0x20 MUL PUSH1 0x20 ADD PUSH1 0x40 MLOAD SWAP1 DUP2 ADD PUSH1 0x40 MSTORE DUP1 SWAP3 SWAP2 SWAP1 DUP2 DUP2 MSTORE PUSH1 0x20 ADD DUP3 DUP1 SLOAD DUP1 ISZERO PUSH2 0x2877 JUMPI PUSH1 0x20 MUL DUP3 ADD SWAP2 SWAP1 PUSH1 0x0 MSTORE PUSH1 0x20 PUSH1 0x0 KECCAK256 SWAP1 JUMPDEST DUP2 SLOAD PUSH1 0x1 PUSH1 0x1 PUSH1 0xA0 SHL SUB AND DUP2 MSTORE PUSH1 0x1 SWAP1 SWAP2 ADD SWAP1 PUSH1 0x20 ADD DUP1 DUP4 GT PUSH2 0x2859 JUMPI JUMPDEST POP POP POP POP POP SWAP1 POP SWAP1 JUMP JUMPDEST PUSH1 0x60 DUP1 PUSH1 0x0 PUSH2 0x288E PUSH2 0x27D2 JUMP JUMPDEST SWAP1 POP PUSH1 0x0 DUP2 MLOAD PUSH8 0xFFFFFFFFFFFFFFFF DUP2 GT ISZERO PUSH2 0x28AC JUMPI PUSH2 0x28AC PUSH2 0x5513 JUMP JUMPDEST PUSH1 0x40 MLOAD SWAP1 DUP1 DUP3 MSTORE DUP1 PUSH1 0x20 MUL PUSH1 0x20 ADD DUP3 ADD PUSH1 0x40 MSTORE DUP1 ISZERO PUSH2 0x28D5 JUMPI DUP2 PUSH1 0x20 ADD PUSH1 0x20 DUP3 MUL DUP1 CALLDATASIZE DUP4 CALLDATACOPY ADD SWAP1 POP JUMPDEST POP SWAP1 POP PUSH1 0x0 DUP3 MLOAD PUSH8 0xFFFFFFFFFFFFFFFF DUP2 GT ISZERO PUSH2 0x28F4 JUMPI PUSH2 0x28F4 PUSH2 0x5513 JUMP JUMPDEST PUSH1 0x40 MLOAD SWAP1 DUP1 DUP3 MSTORE DUP1 PUSH1 0x20 MUL PUSH1 0x20 ADD DUP3 ADD PUSH1 0x40 MSTORE DUP1 ISZERO PUSH2 0x291D JUMPI DUP2 PUSH1 0x20 ADD PUSH1 0x20 DUP3 MUL DUP1 CALLDATASIZE DUP4 CALLDATACOPY ADD SWAP1 POP JUMPDEST POP SWAP1 POP PUSH1 0x0 JUMPDEST DUP4 MLOAD DUP2 LT ISZERO PUSH2 0x29E6 JUMPI DUP4 DUP2 DUP2 MLOAD DUP2 LT PUSH2 0x293E JUMPI PUSH2 0x293E PUSH2 0x584C JUMP JUMPDEST PUSH1 0x20 MUL PUSH1 0x20 ADD ADD MLOAD DUP4 DUP3 DUP2 MLOAD DUP2 LT PUSH2 0x2958 JUMPI PUSH2 0x2958 PUSH2 0x584C JUMP JUMPDEST PUSH1 0x20 MUL PUSH1 0x20 ADD ADD SWAP1 PUSH1 0x1 PUSH1 0x1 PUSH1 0xA0 SHL SUB AND SWAP1 DUP2 PUSH1 0x1 PUSH1 0x1 PUSH1 0xA0 SHL SUB AND DUP2 MSTORE POP POP PUSH1 0x5 PUSH1 0x0 DUP6 DUP4 DUP2 MLOAD DUP2 LT PUSH2 0x298E JUMPI PUSH2 0x298E PUSH2 0x584C JUMP JUMPDEST PUSH1 0x20 MUL PUSH1 0x20 ADD ADD MLOAD PUSH1 0x1 PUSH1 0x1 PUSH1 0xA0 SHL SUB AND PUSH1 0x1 PUSH1 0x1 PUSH1 0xA0 SHL SUB AND DUP2 MSTORE PUSH1 0x20 ADD SWAP1 DUP2 MSTORE PUSH1 0x20 ADD PUSH1 0x0 KECCAK256 SLOAD DUP3 DUP3 DUP2 MLOAD DUP2 LT PUSH2 0x29C9 JUMPI PUSH2 0x29C9 PUSH2 0x584C JUMP JUMPDEST PUSH1 0x20 SWAP1 DUP2 MUL SWAP2 SWAP1 SWAP2 ADD ADD MSTORE DUP1 PUSH2 0x29DE DUP2 PUSH2 0x587B JUMP JUMPDEST SWAP2 POP POP PUSH2 0x2923 JUMP JUMPDEST POP SWAP1 SWAP5 SWAP1 SWAP4 POP SWAP2 POP POP JUMP JUMPDEST PUSH1 0xA SLOAD PUSH1 0x0 SWAP1 DUP2 SWAP1 PUSH1 0xFF AND ISZERO PUSH2 0x2A19 JUMPI PUSH1 0x40 MLOAD PUSH3 0x461BCD PUSH1 0xE5 SHL DUP2 MSTORE PUSH1 0x4 ADD PUSH2 0x99D SWAP1 PUSH2 0x56D3 JUMP JUMPDEST PUSH1 0xA DUP1 SLOAD PUSH1 0xFF NOT AND PUSH1 0x1 OR SWAP1 SSTORE PUSH1 0xB SLOAD PUSH1 0x1 PUSH1 0xA0 SHL SWAP1 DIV PUSH1 0xFF AND PUSH2 0x2A4F JUMPI PUSH1 0x40 MLOAD PUSH3 0x461BCD PUSH1 0xE5 SHL DUP2 MSTORE PUSH1 0x4 ADD PUSH2 0x99D SWAP1 PUSH2 0x572D JUMP JUMPDEST PUSH2 0x2A5F PUSH1 0x40 DUP6 ADD PUSH1 0x20 DUP7 ADD PUSH2 0x54DD JUMP JUMPDEST PUSH1 0x1 PUSH1 0x1 PUSH1 0xA0 SHL SUB AND PUSH2 0x2A75 PUSH1 0x20 DUP7 ADD DUP7 PUSH2 0x54DD JUMP JUMPDEST PUSH1 0x1 PUSH1 0x1 PUSH1 0xA0 SHL SUB AND EQ ISZERO PUSH2 0x2AC5 JUMPI PUSH1 0x40 MLOAD PUSH3 0x461BCD PUSH1 0xE5 SHL DUP2 MSTORE PUSH1 0x20 PUSH1 0x4 DUP3 ADD MSTORE PUSH1 0x16 PUSH1 0x24 DUP3 ADD MSTORE PUSH22 0x21B0B73737BA1039BBB0B81039B0B6B2903A37B5B2B7 PUSH1 0x51 SHL PUSH1 0x44 DUP3 ADD MSTORE PUSH1 0x64 ADD PUSH2 0x99D JUMP JUMPDEST PUSH2 0x2AE4 DUP5 PUSH1 0x0 JUMPDEST PUSH1 0x20 MUL ADD PUSH1 0x20 DUP2 ADD SWAP1 PUSH2 0x2ADF SWAP2 SWAP1 PUSH2 0x54DD JUMP JUMPDEST PUSH2 0x3CA9 JUMP JUMPDEST PUSH2 0x2AEF DUP5 PUSH1 0x1 PUSH2 0x2ACC JUMP JUMPDEST PUSH1 0x0 PUSH1 0xD DUP2 PUSH2 0x2B01 PUSH1 0x20 DUP9 ADD DUP9 PUSH2 0x54DD JUMP JUMPDEST PUSH1 0x1 PUSH1 0x1 PUSH1 0xA0 SHL SUB AND DUP2 MSTORE PUSH1 0x20 DUP2 ADD SWAP2 SWAP1 SWAP2 MSTORE PUSH1 0x40 ADD PUSH1 0x0 SWAP1 DUP2 KECCAK256 SWAP2 POP PUSH1 0xD DUP2 DUP8 PUSH1 0x1 PUSH1 0x20 MUL ADD PUSH1 0x20 DUP2 ADD SWAP1 PUSH2 0x2B37 SWAP2 SWAP1 PUSH2 0x54DD JUMP JUMPDEST PUSH1 0x1 PUSH1 0x1 PUSH1 0xA0 SHL SUB AND DUP2 MSTORE PUSH1 0x20 DUP2 ADD SWAP2 SWAP1 SWAP2 MSTORE PUSH1 0x40 ADD PUSH1 0x0 KECCAK256 SWAP1 POP PUSH1 0x60 DUP6 ADD CALLDATALOAD ISZERO DUP1 PUSH2 0x2B7A JUMPI POP PUSH2 0x2B72 PUSH2 0x2710 PUSH8 0xDE0B6B3A7640000 PUSH2 0x5795 JUMP JUMPDEST PUSH1 0x60 DUP7 ADD CALLDATALOAD LT ISZERO JUMPDEST PUSH2 0x2BBF JUMPI PUSH1 0x40 MLOAD PUSH3 0x461BCD PUSH1 0xE5 SHL DUP2 MSTORE PUSH1 0x20 PUSH1 0x4 DUP3 ADD MSTORE PUSH1 0x16 PUSH1 0x24 DUP3 ADD MSTORE PUSH22 0x436F6E73756D655377617046656520746F6F206C6F77 PUSH1 0x50 SHL PUSH1 0x44 DUP3 ADD MSTORE PUSH1 0x64 ADD PUSH2 0x99D JUMP JUMPDEST PUSH2 0x2BD2 PUSH1 0xA PUSH8 0xDE0B6B3A7640000 PUSH2 0x5795 JUMP JUMPDEST PUSH1 0x60 DUP7 ADD CALLDATALOAD GT ISZERO PUSH2 0x2C1F JUMPI PUSH1 0x40 MLOAD PUSH3 0x461BCD PUSH1 0xE5 SHL DUP2 MSTORE PUSH1 0x20 PUSH1 0x4 DUP3 ADD MSTORE PUSH1 0x17 PUSH1 0x24 DUP3 ADD MSTORE PUSH23 0x86DEDCE6EADACAA6EEC2E08CCACA40E8DEDE40D0D2CED PUSH1 0x4B SHL PUSH1 0x44 DUP3 ADD MSTORE PUSH1 0x64 ADD PUSH2 0x99D JUMP JUMPDEST PUSH1 0x3 DUP3 ADD SLOAD PUSH2 0x2C3B SWAP1 PUSH2 0xDA9 PUSH1 0x2 PUSH8 0xDE0B6B3A7640000 PUSH2 0x5795 JUMP JUMPDEST DUP6 CALLDATALOAD GT ISZERO PUSH2 0x2C7E JUMPI PUSH1 0x40 MLOAD PUSH3 0x461BCD PUSH1 0xE5 SHL DUP2 MSTORE PUSH1 0x20 PUSH1 0x4 DUP3 ADD MSTORE PUSH1 0x10 PUSH1 0x24 DUP3 ADD MSTORE PUSH16 0x4552525F4D41585F494E5F524154494F PUSH1 0x80 SHL PUSH1 0x44 DUP3 ADD MSTORE PUSH1 0x64 ADD PUSH2 0x99D JUMP JUMPDEST PUSH1 0x0 PUSH2 0x2CB4 DUP4 PUSH1 0x3 ADD SLOAD DUP5 PUSH1 0x2 ADD SLOAD DUP5 PUSH1 0x3 ADD SLOAD DUP6 PUSH1 0x2 ADD SLOAD DUP11 PUSH1 0x3 PUSH1 0x4 DUP2 LT PUSH2 0x2CAA JUMPI PUSH2 0x2CAA PUSH2 0x584C JUMP JUMPDEST PUSH1 0x20 MUL ADD CALLDATALOAD PUSH2 0x3D04 JUMP JUMPDEST SWAP1 POP PUSH1 0x40 DUP7 ADD CALLDATALOAD DUP2 GT ISZERO PUSH2 0x2D00 JUMPI PUSH1 0x40 MLOAD PUSH3 0x461BCD PUSH1 0xE5 SHL DUP2 MSTORE PUSH1 0x20 PUSH1 0x4 DUP3 ADD MSTORE PUSH1 0x13 PUSH1 0x24 DUP3 ADD MSTORE PUSH19 0x4552525F4241445F4C494D49545F5052494345 PUSH1 0x68 SHL PUSH1 0x44 DUP3 ADD MSTORE PUSH1 0x64 ADD PUSH2 0x99D JUMP JUMPDEST PUSH1 0x0 DUP1 PUSH1 0x40 MLOAD DUP1 PUSH1 0x80 ADD PUSH1 0x40 MSTORE DUP1 DUP7 PUSH1 0x3 ADD SLOAD DUP2 MSTORE PUSH1 0x20 ADD DUP7 PUSH1 0x2 ADD SLOAD DUP2 MSTORE PUSH1 0x20 ADD DUP6 PUSH1 0x3 ADD SLOAD DUP2 MSTORE PUSH1 0x20 ADD DUP6 PUSH1 0x2 ADD SLOAD DUP2 MSTORE POP SWAP1 POP PUSH2 0x2D61 PUSH1 0x40 MLOAD DUP1 PUSH1 0x80 ADD PUSH1 0x40 MSTORE DUP1 PUSH1 0x0 DUP2 MSTORE PUSH1 0x20 ADD PUSH1 0x0 DUP2 MSTORE PUSH1 0x20 ADD PUSH1 0x0 DUP2 MSTORE PUSH1 0x20 ADD PUSH1 0x0 DUP2 MSTORE POP SWAP1 JUMP JUMPDEST PUSH2 0x2D71 DUP3 DUP11 CALLDATALOAD PUSH1 0x60 DUP13 ADD CALLDATALOAD PUSH2 0x21B2 JUMP JUMPDEST SWAP2 SWAP10 POP SWAP4 POP SWAP1 POP PUSH2 0x2DC0 PUSH1 0x5 PUSH1 0x0 DUP13 DUP2 JUMPDEST PUSH1 0x20 MUL ADD PUSH1 0x20 DUP2 ADD SWAP1 PUSH2 0x2D95 SWAP2 SWAP1 PUSH2 0x54DD JUMP JUMPDEST PUSH1 0x1 PUSH1 0x1 PUSH1 0xA0 SHL SUB AND PUSH1 0x1 PUSH1 0x1 PUSH1 0xA0 SHL SUB AND DUP2 MSTORE PUSH1 0x20 ADD SWAP1 DUP2 MSTORE PUSH1 0x20 ADD PUSH1 0x0 KECCAK256 SLOAD DUP3 PUSH1 0x20 ADD MLOAD PUSH2 0x480B JUMP JUMPDEST PUSH1 0x5 PUSH1 0x0 PUSH2 0x2DD1 PUSH1 0x20 DUP15 ADD DUP15 PUSH2 0x54DD JUMP JUMPDEST PUSH1 0x1 PUSH1 0x1 PUSH1 0xA0 SHL SUB AND PUSH1 0x1 PUSH1 0x1 PUSH1 0xA0 SHL SUB AND DUP2 MSTORE PUSH1 0x20 ADD SWAP1 DUP2 MSTORE PUSH1 0x20 ADD PUSH1 0x0 KECCAK256 DUP2 SWAP1 SSTORE POP PUSH2 0x2E4D PUSH1 0x6 PUSH1 0x0 DUP13 PUSH1 0x0 PUSH1 0x3 DUP2 LT PUSH2 0x2E0F JUMPI PUSH2 0x2E0F PUSH2 0x584C JUMP JUMPDEST PUSH1 0x20 MUL ADD PUSH1 0x20 DUP2 ADD SWAP1 PUSH2 0x2E22 SWAP2 SWAP1 PUSH2 0x54DD JUMP JUMPDEST PUSH1 0x1 PUSH1 0x1 PUSH1 0xA0 SHL SUB AND PUSH1 0x1 PUSH1 0x1 PUSH1 0xA0 SHL SUB AND DUP2 MSTORE PUSH1 0x20 ADD SWAP1 DUP2 MSTORE PUSH1 0x20 ADD PUSH1 0x0 KECCAK256 SLOAD DUP3 PUSH1 0x40 ADD MLOAD PUSH2 0x480B JUMP JUMPDEST PUSH1 0x6 PUSH1 0x0 PUSH2 0x2E5E PUSH1 0x20 DUP15 ADD DUP15 PUSH2 0x54DD JUMP JUMPDEST PUSH1 0x1 PUSH1 0x1 PUSH1 0xA0 SHL SUB AND PUSH1 0x1 PUSH1 0x1 PUSH1 0xA0 SHL SUB AND DUP2 MSTORE PUSH1 0x20 ADD SWAP1 DUP2 MSTORE PUSH1 0x20 ADD PUSH1 0x0 KECCAK256 DUP2 SWAP1 SSTORE POP PUSH32 0x53A9DC73D01196A9C660D761BC5EC77B945340A34B5B52E510760AF2DAB1C0F1 DUP2 PUSH1 0x0 ADD MLOAD DUP3 PUSH1 0x20 ADD MLOAD DUP4 PUSH1 0x40 ADD MLOAD DUP5 PUSH1 0x60 ADD MLOAD DUP15 PUSH1 0x0 PUSH1 0x3 DUP2 LT PUSH2 0x2ECA JUMPI PUSH2 0x2ECA PUSH2 0x584C JUMP JUMPDEST PUSH1 0x20 MUL ADD PUSH1 0x20 DUP2 ADD SWAP1 PUSH2 0x2EDD SWAP2 SWAP1 PUSH2 0x54DD JUMP JUMPDEST PUSH1 0x40 DUP1 MLOAD SWAP6 DUP7 MSTORE PUSH1 0x20 DUP7 ADD SWAP5 SWAP1 SWAP5 MSTORE SWAP3 DUP5 ADD SWAP2 SWAP1 SWAP2 MSTORE PUSH1 0x60 DUP4 ADD MSTORE PUSH1 0x1 PUSH1 0x1 PUSH1 0xA0 SHL SUB AND PUSH1 0x80 DUP3 ADD MSTORE PUSH1 0xA0 ADD PUSH1 0x40 MLOAD DUP1 SWAP2 SUB SWAP1 LOG1 PUSH1 0x20 DUP10 ADD CALLDATALOAD DUP9 LT ISZERO PUSH2 0x2F35 JUMPI PUSH1 0x40 MLOAD PUSH3 0x461BCD PUSH1 0xE5 SHL DUP2 MSTORE PUSH1 0x4 ADD PUSH2 0x99D SWAP1 PUSH2 0x5758 JUMP JUMPDEST PUSH2 0x2F43 DUP7 PUSH1 0x3 ADD SLOAD DUP5 PUSH2 0x480B JUMP JUMPDEST DUP7 PUSH1 0x3 ADD DUP2 SWAP1 SSTORE POP PUSH2 0x2F59 DUP6 PUSH1 0x3 ADD SLOAD DUP10 PUSH2 0x416C JUMP JUMPDEST DUP6 PUSH1 0x3 ADD DUP2 SWAP1 SSTORE POP PUSH2 0x2F8B DUP7 PUSH1 0x3 ADD SLOAD DUP8 PUSH1 0x2 ADD SLOAD DUP8 PUSH1 0x3 ADD SLOAD DUP9 PUSH1 0x2 ADD SLOAD DUP14 PUSH1 0x3 PUSH1 0x4 DUP2 LT PUSH2 0x2CAA JUMPI PUSH2 0x2CAA PUSH2 0x584C JUMP JUMPDEST SWAP7 POP DUP4 DUP8 LT ISZERO PUSH2 0x2FAD JUMPI PUSH1 0x40 MLOAD PUSH3 0x461BCD PUSH1 0xE5 SHL DUP2 MSTORE PUSH1 0x4 ADD PUSH2 0x99D SWAP1 PUSH2 0x58CA JUMP JUMPDEST PUSH1 0x40 DUP10 ADD CALLDATALOAD DUP8 GT ISZERO PUSH2 0x2FF3 JUMPI PUSH1 0x40 MLOAD PUSH3 0x461BCD PUSH1 0xE5 SHL DUP2 MSTORE PUSH1 0x20 PUSH1 0x4 DUP3 ADD MSTORE PUSH1 0xF PUSH1 0x24 DUP3 ADD MSTORE PUSH15 0x4552525F4C494D49545F5052494345 PUSH1 0x88 SHL PUSH1 0x44 DUP3 ADD MSTORE PUSH1 0x64 ADD PUSH2 0x99D JUMP JUMPDEST PUSH2 0x2FFE DUP10 CALLDATALOAD DUP10 PUSH2 0x4564 JUMP JUMPDEST DUP5 GT ISZERO PUSH2 0x301D JUMPI PUSH1 0x40 MLOAD PUSH3 0x461BCD PUSH1 0xE5 SHL DUP2 MSTORE PUSH1 0x4 ADD PUSH2 0x99D SWAP1 PUSH2 0x58CA JUMP JUMPDEST PUSH2 0x302D PUSH1 0x40 DUP12 ADD PUSH1 0x20 DUP13 ADD PUSH2 0x54DD JUMP JUMPDEST PUSH1 0x1 PUSH1 0x1 PUSH1 0xA0 SHL SUB AND PUSH2 0x3043 PUSH1 0x20 DUP13 ADD DUP13 PUSH2 0x54DD JUMP JUMPDEST PUSH1 0x3 DUP1 DUP10 ADD SLOAD SWAP1 DUP9 ADD SLOAD PUSH1 0x40 DUP1 MLOAD DUP15 CALLDATALOAD DUP2 MSTORE PUSH1 0x20 DUP2 ADD DUP15 SWAP1 MSTORE TIMESTAMP SWAP2 DUP2 ADD SWAP2 SWAP1 SWAP2 MSTORE PUSH1 0x60 DUP2 ADD SWAP3 SWAP1 SWAP3 MSTORE PUSH1 0x80 DUP3 ADD MSTORE PUSH1 0xA0 DUP2 ADD DUP11 SWAP1 MSTORE PUSH1 0x1 PUSH1 0x1 PUSH1 0xA0 SHL SUB SWAP2 SWAP1 SWAP2 AND SWAP1 CALLER SWAP1 PUSH32 0xBDAFE88494B31FC7436FE7992B0F377E874287E841E62EED1AD77E84F3C5B171 SWAP1 PUSH1 0xC0 ADD PUSH1 0x40 MLOAD DUP1 SWAP2 SUB SWAP1 LOG4 PUSH2 0x30CC PUSH2 0x30C4 PUSH1 0x20 DUP13 ADD DUP13 PUSH2 0x54DD JUMP JUMPDEST CALLER DUP12 CALLDATALOAD PUSH2 0x490D JUMP JUMPDEST PUSH1 0x0 PUSH2 0x30F1 DUP11 CALLDATALOAD PUSH2 0x1AAE DUP2 PUSH2 0xDA9 PUSH8 0xDE0B6B3A7640000 DUP16 PUSH1 0x3 JUMPDEST PUSH1 0x20 MUL ADD CALLDATALOAD PUSH2 0x416C JUMP JUMPDEST SWAP1 POP PUSH1 0x60 DUP11 ADD CALLDATALOAD ISZERO PUSH2 0x318C JUMPI PUSH2 0x3135 DUP12 PUSH1 0x2 JUMPDEST PUSH1 0x20 MUL ADD PUSH1 0x20 DUP2 ADD SWAP1 PUSH2 0x3117 SWAP2 SWAP1 PUSH2 0x54DD JUMP JUMPDEST DUP3 PUSH2 0x3125 PUSH1 0x20 DUP16 ADD DUP16 PUSH2 0x54DD JUMP JUMPDEST PUSH1 0x1 PUSH1 0x1 PUSH1 0xA0 SHL SUB AND SWAP2 SWAP1 PUSH2 0x47A8 JUMP JUMPDEST PUSH32 0x6D11837F46CC09B011CF4AAE09FCADE046C020AAC088090AE4F77FF67B707972 PUSH2 0x3166 PUSH1 0x60 DUP14 ADD PUSH1 0x40 DUP15 ADD PUSH2 0x54DD JUMP JUMPDEST PUSH2 0x3173 PUSH1 0x20 DUP15 ADD DUP15 PUSH2 0x54DD JUMP JUMPDEST DUP4 PUSH1 0x40 MLOAD PUSH2 0x3183 SWAP4 SWAP3 SWAP2 SWAP1 PUSH2 0x5828 JUMP JUMPDEST PUSH1 0x40 MLOAD DUP1 SWAP2 SUB SWAP1 LOG1 JUMPDEST PUSH2 0x31A6 PUSH2 0x319F PUSH1 0x40 DUP14 ADD PUSH1 0x20 DUP15 ADD PUSH2 0x54DD JUMP JUMPDEST CALLER DUP12 PUSH2 0x41DC JUMP JUMPDEST POP POP POP POP POP POP POP PUSH1 0xA DUP1 SLOAD PUSH1 0xFF NOT AND SWAP1 SSTORE SWAP1 SWAP4 SWAP1 SWAP3 POP SWAP1 POP JUMP JUMPDEST PUSH1 0x60 DUP1 PUSH1 0x0 PUSH2 0x31CD PUSH2 0x27D2 JUMP JUMPDEST SWAP1 POP PUSH1 0x0 DUP2 MLOAD PUSH8 0xFFFFFFFFFFFFFFFF DUP2 GT ISZERO PUSH2 0x31EB JUMPI PUSH2 0x31EB PUSH2 0x5513 JUMP JUMPDEST PUSH1 0x40 MLOAD SWAP1 DUP1 DUP3 MSTORE DUP1 PUSH1 0x20 MUL PUSH1 0x20 ADD DUP3 ADD PUSH1 0x40 MSTORE DUP1 ISZERO PUSH2 0x3214 JUMPI DUP2 PUSH1 0x20 ADD PUSH1 0x20 DUP3 MUL DUP1 CALLDATASIZE DUP4 CALLDATACOPY ADD SWAP1 POP JUMPDEST POP SWAP1 POP PUSH1 0x0 DUP3 MLOAD PUSH8 0xFFFFFFFFFFFFFFFF DUP2 GT ISZERO PUSH2 0x3233 JUMPI PUSH2 0x3233 PUSH2 0x5513 JUMP JUMPDEST PUSH1 0x40 MLOAD SWAP1 DUP1 DUP3 MSTORE DUP1 PUSH1 0x20 MUL PUSH1 0x20 ADD DUP3 ADD PUSH1 0x40 MSTORE DUP1 ISZERO PUSH2 0x325C JUMPI DUP2 PUSH1 0x20 ADD PUSH1 0x20 DUP3 MUL DUP1 CALLDATASIZE DUP4 CALLDATACOPY ADD SWAP1 POP JUMPDEST POP SWAP1 POP PUSH1 0x0 JUMPDEST DUP4 MLOAD DUP2 LT ISZERO PUSH2 0x29E6 JUMPI DUP4 DUP2 DUP2 MLOAD DUP2 LT PUSH2 0x327D JUMPI PUSH2 0x327D PUSH2 0x584C JUMP JUMPDEST PUSH1 0x20 MUL PUSH1 0x20 ADD ADD MLOAD DUP4 DUP3 DUP2 MLOAD DUP2 LT PUSH2 0x3297 JUMPI PUSH2 0x3297 PUSH2 0x584C JUMP JUMPDEST PUSH1 0x20 MUL PUSH1 0x20 ADD ADD SWAP1 PUSH1 0x1 PUSH1 0x1 PUSH1 0xA0 SHL SUB AND SWAP1 DUP2 PUSH1 0x1 PUSH1 0x1 PUSH1 0xA0 SHL SUB AND DUP2 MSTORE POP POP PUSH1 0x6 PUSH1 0x0 DUP6 DUP4 DUP2 MLOAD DUP2 LT PUSH2 0x32CD JUMPI PUSH2 0x32CD PUSH2 0x584C JUMP JUMPDEST PUSH1 0x20 MUL PUSH1 0x20 ADD ADD MLOAD PUSH1 0x1 PUSH1 0x1 PUSH1 0xA0 SHL SUB AND PUSH1 0x1 PUSH1 0x1 PUSH1 0xA0 SHL SUB AND DUP2 MSTORE PUSH1 0x20 ADD SWAP1 DUP2 MSTORE PUSH1 0x20 ADD PUSH1 0x0 KECCAK256 SLOAD DUP3 DUP3 DUP2 MLOAD DUP2 LT PUSH2 0x3308 JUMPI PUSH2 0x3308 PUSH2 0x584C JUMP JUMPDEST PUSH1 0x20 SWAP1 DUP2 MUL SWAP2 SWAP1 SWAP2 ADD ADD MSTORE DUP1 PUSH2 0x331D DUP2 PUSH2 0x587B JUMP JUMPDEST SWAP2 POP POP PUSH2 0x3262 JUMP JUMPDEST PUSH1 0xA SLOAD PUSH1 0x0 SWAP1 DUP2 SWAP1 PUSH1 0xFF AND ISZERO PUSH2 0x334D JUMPI PUSH1 0x40 MLOAD PUSH3 0x461BCD PUSH1 0xE5 SHL DUP2 MSTORE PUSH1 0x4 ADD PUSH2 0x99D SWAP1 PUSH2 0x56D3 JUMP JUMPDEST PUSH1 0xA DUP1 SLOAD PUSH1 0xFF NOT AND PUSH1 0x1 OR SWAP1 SSTORE PUSH1 0xB SLOAD PUSH1 0x1 PUSH1 0xA0 SHL SWAP1 DIV PUSH1 0xFF AND PUSH2 0x3383 JUMPI PUSH1 0x40 MLOAD PUSH3 0x461BCD PUSH1 0xE5 SHL DUP2 MSTORE PUSH1 0x4 ADD PUSH2 0x99D SWAP1 PUSH2 0x572D JUMP JUMPDEST PUSH2 0x3393 PUSH1 0x40 DUP6 ADD PUSH1 0x20 DUP7 ADD PUSH2 0x54DD JUMP JUMPDEST PUSH1 0x1 PUSH1 0x1 PUSH1 0xA0 SHL SUB AND PUSH2 0x33A9 PUSH1 0x20 DUP7 ADD DUP7 PUSH2 0x54DD JUMP JUMPDEST PUSH1 0x1 PUSH1 0x1 PUSH1 0xA0 SHL SUB AND EQ ISZERO PUSH2 0x33F9 JUMPI PUSH1 0x40 MLOAD PUSH3 0x461BCD PUSH1 0xE5 SHL DUP2 MSTORE PUSH1 0x20 PUSH1 0x4 DUP3 ADD MSTORE PUSH1 0x16 PUSH1 0x24 DUP3 ADD MSTORE PUSH22 0x21B0B73737BA1039BBB0B81039B0B6B2903A37B5B2B7 PUSH1 0x51 SHL PUSH1 0x44 DUP3 ADD MSTORE PUSH1 0x64 ADD PUSH2 0x99D JUMP JUMPDEST PUSH1 0x60 DUP4 ADD CALLDATALOAD ISZERO DUP1 PUSH2 0x3421 JUMPI POP PUSH2 0x3419 PUSH2 0x2710 PUSH8 0xDE0B6B3A7640000 PUSH2 0x5795 JUMP JUMPDEST PUSH1 0x60 DUP5 ADD CALLDATALOAD LT ISZERO JUMPDEST PUSH2 0x3466 JUMPI PUSH1 0x40 MLOAD PUSH3 0x461BCD PUSH1 0xE5 SHL DUP2 MSTORE PUSH1 0x20 PUSH1 0x4 DUP3 ADD MSTORE PUSH1 0x16 PUSH1 0x24 DUP3 ADD MSTORE PUSH22 0x436F6E73756D655377617046656520746F6F206C6F77 PUSH1 0x50 SHL PUSH1 0x44 DUP3 ADD MSTORE PUSH1 0x64 ADD PUSH2 0x99D JUMP JUMPDEST PUSH2 0x3479 PUSH1 0xA PUSH8 0xDE0B6B3A7640000 PUSH2 0x5795 JUMP JUMPDEST PUSH1 0x60 DUP5 ADD CALLDATALOAD GT ISZERO PUSH2 0x34C6 JUMPI PUSH1 0x40 MLOAD PUSH3 0x461BCD PUSH1 0xE5 SHL DUP2 MSTORE PUSH1 0x20 PUSH1 0x4 DUP3 ADD MSTORE PUSH1 0x17 PUSH1 0x24 DUP3 ADD MSTORE PUSH23 0x86DEDCE6EADACAA6EEC2E08CCACA40E8DEDE40D0D2CED PUSH1 0x4B SHL PUSH1 0x44 DUP3 ADD MSTORE PUSH1 0x64 ADD PUSH2 0x99D JUMP JUMPDEST PUSH2 0x34D1 DUP5 PUSH1 0x0 PUSH2 0x2ACC JUMP JUMPDEST PUSH2 0x34DC DUP5 PUSH1 0x1 PUSH2 0x2ACC JUMP JUMPDEST PUSH1 0x0 PUSH1 0xD DUP2 PUSH2 0x34EE PUSH1 0x20 DUP9 ADD DUP9 PUSH2 0x54DD JUMP JUMPDEST PUSH1 0x1 PUSH1 0x1 PUSH1 0xA0 SHL SUB AND DUP2 MSTORE PUSH1 0x20 DUP2 ADD SWAP2 SWAP1 SWAP2 MSTORE PUSH1 0x40 ADD PUSH1 0x0 SWAP1 DUP2 KECCAK256 SWAP2 POP PUSH1 0xD DUP2 DUP8 PUSH1 0x1 PUSH1 0x20 MUL ADD PUSH1 0x20 DUP2 ADD SWAP1 PUSH2 0x3524 SWAP2 SWAP1 PUSH2 0x54DD JUMP JUMPDEST PUSH1 0x1 PUSH1 0x1 PUSH1 0xA0 SHL SUB AND PUSH1 0x1 PUSH1 0x1 PUSH1 0xA0 SHL SUB AND DUP2 MSTORE PUSH1 0x20 ADD SWAP1 DUP2 MSTORE PUSH1 0x20 ADD PUSH1 0x0 KECCAK256 SWAP1 POP PUSH2 0x3563 DUP2 PUSH1 0x3 ADD SLOAD PUSH1 0x2 PUSH8 0xDE0B6B3A7640000 PUSH2 0xD9E SWAP2 SWAP1 PUSH2 0x5795 JUMP JUMPDEST PUSH1 0x20 DUP7 ADD CALLDATALOAD GT ISZERO PUSH2 0x35AA JUMPI PUSH1 0x40 MLOAD PUSH3 0x461BCD PUSH1 0xE5 SHL DUP2 MSTORE PUSH1 0x20 PUSH1 0x4 DUP3 ADD MSTORE PUSH1 0x11 PUSH1 0x24 DUP3 ADD MSTORE PUSH17 0x4552525F4D41585F4F55545F524154494F PUSH1 0x78 SHL PUSH1 0x44 DUP3 ADD MSTORE PUSH1 0x64 ADD PUSH2 0x99D JUMP JUMPDEST PUSH1 0x0 PUSH2 0x35D6 DUP4 PUSH1 0x3 ADD SLOAD DUP5 PUSH1 0x2 ADD SLOAD DUP5 PUSH1 0x3 ADD SLOAD DUP6 PUSH1 0x2 ADD SLOAD DUP11 PUSH1 0x3 PUSH1 0x4 DUP2 LT PUSH2 0x2CAA JUMPI PUSH2 0x2CAA PUSH2 0x584C JUMP JUMPDEST SWAP1 POP PUSH1 0x40 DUP7 ADD CALLDATALOAD DUP2 GT ISZERO PUSH2 0x3622 JUMPI PUSH1 0x40 MLOAD PUSH3 0x461BCD PUSH1 0xE5 SHL DUP2 MSTORE PUSH1 0x20 PUSH1 0x4 DUP3 ADD MSTORE PUSH1 0x13 PUSH1 0x24 DUP3 ADD MSTORE PUSH19 0x4552525F4241445F4C494D49545F5052494345 PUSH1 0x68 SHL PUSH1 0x44 DUP3 ADD MSTORE PUSH1 0x64 ADD PUSH2 0x99D JUMP JUMPDEST PUSH1 0x0 DUP1 PUSH1 0x40 MLOAD DUP1 PUSH1 0x80 ADD PUSH1 0x40 MSTORE DUP1 DUP7 PUSH1 0x3 ADD SLOAD DUP2 MSTORE PUSH1 0x20 ADD DUP7 PUSH1 0x2 ADD SLOAD DUP2 MSTORE PUSH1 0x20 ADD DUP6 PUSH1 0x3 ADD SLOAD DUP2 MSTORE PUSH1 0x20 ADD DUP6 PUSH1 0x2 ADD SLOAD DUP2 MSTORE POP SWAP1 POP PUSH2 0x3683 PUSH1 0x40 MLOAD DUP1 PUSH1 0x80 ADD PUSH1 0x40 MSTORE DUP1 PUSH1 0x0 DUP2 MSTORE PUSH1 0x20 ADD PUSH1 0x0 DUP2 MSTORE PUSH1 0x20 ADD PUSH1 0x0 DUP2 MSTORE PUSH1 0x20 ADD PUSH1 0x0 DUP2 MSTORE POP SWAP1 JUMP JUMPDEST PUSH2 0x3696 DUP3 PUSH1 0x20 DUP12 ADD CALLDATALOAD PUSH1 0x60 DUP13 ADD CALLDATALOAD PUSH2 0x199D JUMP JUMPDEST SWAP2 SWAP10 POP SWAP4 POP SWAP1 POP PUSH2 0x36AB PUSH1 0x5 PUSH1 0x0 DUP13 DUP2 PUSH2 0x2D82 JUMP JUMPDEST PUSH1 0x5 PUSH1 0x0 PUSH2 0x36BC PUSH1 0x20 DUP15 ADD DUP15 PUSH2 0x54DD JUMP JUMPDEST PUSH1 0x1 PUSH1 0x1 PUSH1 0xA0 SHL SUB AND PUSH1 0x1 PUSH1 0x1 PUSH1 0xA0 SHL SUB AND DUP2 MSTORE PUSH1 0x20 ADD SWAP1 DUP2 MSTORE PUSH1 0x20 ADD PUSH1 0x0 KECCAK256 DUP2 SWAP1 SSTORE POP PUSH2 0x36FA PUSH1 0x6 PUSH1 0x0 DUP13 PUSH1 0x0 PUSH1 0x3 DUP2 LT PUSH2 0x2E0F JUMPI PUSH2 0x2E0F PUSH2 0x584C JUMP JUMPDEST PUSH1 0x6 PUSH1 0x0 PUSH2 0x370B PUSH1 0x20 DUP15 ADD DUP15 PUSH2 0x54DD JUMP JUMPDEST PUSH1 0x1 PUSH1 0x1 PUSH1 0xA0 SHL SUB AND PUSH1 0x1 PUSH1 0x1 PUSH1 0xA0 SHL SUB AND DUP2 MSTORE PUSH1 0x20 ADD SWAP1 DUP2 MSTORE PUSH1 0x20 ADD PUSH1 0x0 KECCAK256 DUP2 SWAP1 SSTORE POP PUSH32 0x53A9DC73D01196A9C660D761BC5EC77B945340A34B5B52E510760AF2DAB1C0F1 DUP2 PUSH1 0x0 ADD MLOAD DUP3 PUSH1 0x20 ADD MLOAD DUP4 PUSH1 0x40 ADD MLOAD DUP5 PUSH1 0x60 ADD MLOAD DUP15 PUSH1 0x0 PUSH1 0x3 DUP2 LT PUSH2 0x3777 JUMPI PUSH2 0x3777 PUSH2 0x584C JUMP JUMPDEST PUSH1 0x20 MUL ADD PUSH1 0x20 DUP2 ADD SWAP1 PUSH2 0x378A SWAP2 SWAP1 PUSH2 0x54DD JUMP JUMPDEST PUSH1 0x40 DUP1 MLOAD SWAP6 DUP7 MSTORE PUSH1 0x20 DUP7 ADD SWAP5 SWAP1 SWAP5 MSTORE SWAP3 DUP5 ADD SWAP2 SWAP1 SWAP2 MSTORE PUSH1 0x60 DUP4 ADD MSTORE PUSH1 0x1 PUSH1 0x1 PUSH1 0xA0 SHL SUB AND PUSH1 0x80 DUP3 ADD MSTORE PUSH1 0xA0 ADD PUSH1 0x40 MLOAD DUP1 SWAP2 SUB SWAP1 LOG1 DUP9 CALLDATALOAD DUP9 GT ISZERO PUSH2 0x37FE JUMPI PUSH1 0x40 MLOAD PUSH3 0x461BCD PUSH1 0xE5 SHL DUP2 MSTORE PUSH1 0x20 PUSH1 0x4 DUP3 ADD MSTORE PUSH1 0xC PUSH1 0x24 DUP3 ADD MSTORE PUSH12 0x22A9292FA624A6A4AA2FA4A7 PUSH1 0xA1 SHL PUSH1 0x44 DUP3 ADD MSTORE PUSH1 0x64 ADD PUSH2 0x99D JUMP JUMPDEST PUSH2 0x380C DUP7 PUSH1 0x3 ADD SLOAD DUP5 PUSH2 0x480B JUMP JUMPDEST PUSH1 0x3 DUP1 DUP9 ADD SWAP2 SWAP1 SWAP2 SSTORE DUP6 ADD SLOAD PUSH2 0x3824 SWAP1 DUP11 PUSH1 0x1 PUSH2 0x30E7 JUMP JUMPDEST DUP6 PUSH1 0x3 ADD DUP2 SWAP1 SSTORE POP PUSH2 0x3856 DUP7 PUSH1 0x3 ADD SLOAD DUP8 PUSH1 0x2 ADD SLOAD DUP8 PUSH1 0x3 ADD SLOAD DUP9 PUSH1 0x2 ADD SLOAD DUP14 PUSH1 0x3 PUSH1 0x4 DUP2 LT PUSH2 0x2CAA JUMPI PUSH2 0x2CAA PUSH2 0x584C JUMP JUMPDEST SWAP7 POP DUP4 DUP8 LT ISZERO PUSH2 0x3878 JUMPI PUSH1 0x40 MLOAD PUSH3 0x461BCD PUSH1 0xE5 SHL DUP2 MSTORE PUSH1 0x4 ADD PUSH2 0x99D SWAP1 PUSH2 0x58CA JUMP JUMPDEST PUSH1 0x40 DUP10 ADD CALLDATALOAD DUP8 GT ISZERO PUSH2 0x38BE JUMPI PUSH1 0x40 MLOAD PUSH3 0x461BCD PUSH1 0xE5 SHL DUP2 MSTORE PUSH1 0x20 PUSH1 0x4 DUP3 ADD MSTORE PUSH1 0xF PUSH1 0x24 DUP3 ADD MSTORE PUSH15 0x4552525F4C494D49545F5052494345 PUSH1 0x88 SHL PUSH1 0x44 DUP3 ADD MSTORE PUSH1 0x64 ADD PUSH2 0x99D JUMP JUMPDEST PUSH2 0x38CC DUP9 PUSH1 0x20 DUP12 ADD CALLDATALOAD PUSH2 0x4564 JUMP JUMPDEST DUP5 GT ISZERO PUSH2 0x38EB JUMPI PUSH1 0x40 MLOAD PUSH3 0x461BCD PUSH1 0xE5 SHL DUP2 MSTORE PUSH1 0x4 ADD PUSH2 0x99D SWAP1 PUSH2 0x58CA JUMP JUMPDEST PUSH2 0x38FB PUSH1 0x40 DUP12 ADD PUSH1 0x20 DUP13 ADD PUSH2 0x54DD JUMP JUMPDEST PUSH1 0x1 PUSH1 0x1 PUSH1 0xA0 SHL SUB AND PUSH2 0x3911 PUSH1 0x20 DUP13 ADD DUP13 PUSH2 0x54DD JUMP JUMPDEST PUSH1 0x1 PUSH1 0x1 PUSH1 0xA0 SHL SUB AND CALLER PUSH32 0xBDAFE88494B31FC7436FE7992B0F377E874287E841E62EED1AD77E84F3C5B171 DUP12 DUP14 PUSH1 0x1 PUSH1 0x20 MUL ADD CALLDATALOAD TIMESTAMP DUP13 PUSH1 0x3 ADD SLOAD DUP13 PUSH1 0x3 ADD SLOAD DUP16 PUSH1 0x40 MLOAD PUSH2 0x3986 SWAP7 SWAP6 SWAP5 SWAP4 SWAP3 SWAP2 SWAP1 SWAP6 DUP7 MSTORE PUSH1 0x20 DUP7 ADD SWAP5 SWAP1 SWAP5 MSTORE PUSH1 0x40 DUP6 ADD SWAP3 SWAP1 SWAP3 MSTORE PUSH1 0x60 DUP5 ADD MSTORE PUSH1 0x80 DUP4 ADD MSTORE PUSH1 0xA0 DUP3 ADD MSTORE PUSH1 0xC0 ADD SWAP1 JUMP JUMPDEST PUSH1 0x40 MLOAD DUP1 SWAP2 SUB SWAP1 LOG4 PUSH2 0x39A5 PUSH2 0x399E PUSH1 0x20 DUP13 ADD DUP13 PUSH2 0x54DD JUMP JUMPDEST CALLER DUP11 PUSH2 0x490D JUMP JUMPDEST PUSH1 0x0 PUSH2 0x39C3 DUP10 PUSH2 0x1AAE DUP2 PUSH2 0xDA9 PUSH8 0xDE0B6B3A7640000 DUP16 PUSH1 0x3 PUSH2 0x30E7 JUMP JUMPDEST SWAP1 POP PUSH1 0x60 DUP11 ADD CALLDATALOAD ISZERO PUSH2 0x3A31 JUMPI PUSH2 0x39DA DUP12 PUSH1 0x2 PUSH2 0x3104 JUMP JUMPDEST PUSH32 0x6D11837F46CC09B011CF4AAE09FCADE046C020AAC088090AE4F77FF67B707972 PUSH2 0x3A0B PUSH1 0x60 DUP14 ADD PUSH1 0x40 DUP15 ADD PUSH2 0x54DD JUMP JUMPDEST PUSH2 0x3A18 PUSH1 0x20 DUP15 ADD DUP15 PUSH2 0x54DD JUMP JUMPDEST DUP4 PUSH1 0x40 MLOAD PUSH2 0x3A28 SWAP4 SWAP3 SWAP2 SWAP1 PUSH2 0x5828 JUMP JUMPDEST PUSH1 0x40 MLOAD DUP1 SWAP2 SUB SWAP1 LOG1 JUMPDEST PUSH2 0x31A6 PUSH2 0x3A44 PUSH1 0x40 DUP14 ADD PUSH1 0x20 DUP15 ADD PUSH2 0x54DD JUMP JUMPDEST CALLER PUSH1 0x20 DUP14 ADD CALLDATALOAD PUSH2 0x41DC JUMP JUMPDEST PUSH1 0x0 DUP1 PUSH1 0x0 DUP1 PUSH1 0x0 PUSH2 0x3A60 DUP10 PUSH2 0x3CA9 JUMP JUMPDEST PUSH2 0x3A69 DUP9 PUSH2 0x3CA9 JUMP JUMPDEST PUSH1 0x40 DUP1 MLOAD PUSH1 0x80 DUP2 ADD DUP3 MSTORE PUSH1 0x1 PUSH1 0x1 PUSH1 0xA0 SHL SUB DUP1 DUP13 AND PUSH1 0x0 SWAP1 DUP2 MSTORE PUSH1 0xD PUSH1 0x20 DUP2 DUP2 MSTORE DUP6 DUP4 KECCAK256 PUSH1 0x3 DUP1 DUP3 ADD SLOAD DUP8 MSTORE PUSH1 0x2 SWAP2 DUP3 ADD SLOAD DUP4 DUP9 ADD MSTORE SWAP5 DUP16 AND DUP1 DUP6 MSTORE DUP4 DUP4 MSTORE DUP8 DUP6 KECCAK256 SWAP6 DUP7 ADD SLOAD SWAP8 DUP8 ADD SWAP8 SWAP1 SWAP8 MSTORE SWAP6 DUP4 MSTORE MSTORE SWAP3 ADD SLOAD PUSH1 0x60 DUP3 ADD MSTORE SWAP1 PUSH2 0x3AEE PUSH1 0x40 MLOAD DUP1 PUSH1 0x80 ADD PUSH1 0x40 MSTORE DUP1 PUSH1 0x0 DUP2 MSTORE PUSH1 0x20 ADD PUSH1 0x0 DUP2 MSTORE PUSH1 0x20 ADD PUSH1 0x0 DUP2 MSTORE PUSH1 0x20 ADD PUSH1 0x0 DUP2 MSTORE POP SWAP1 JUMP JUMPDEST PUSH2 0x17B3 DUP4 DUP12 DUP12 PUSH2 0x199D JUMP JUMPDEST PUSH1 0xA SLOAD PUSH1 0x60 SWAP1 PUSH1 0xFF AND ISZERO PUSH2 0x2821 JUMPI PUSH1 0x40 MLOAD PUSH3 0x461BCD PUSH1 0xE5 SHL DUP2 MSTORE PUSH1 0x4 ADD PUSH2 0x99D SWAP1 PUSH2 0x56D3 JUMP JUMPDEST CALLER PUSH1 0x0 SWAP1 DUP2 MSTORE PUSH1 0x8 PUSH1 0x20 SWAP1 DUP2 MSTORE PUSH1 0x40 DUP1 DUP4 KECCAK256 PUSH1 0x1 PUSH1 0x1 PUSH1 0xA0 SHL SUB DUP7 AND DUP5 MSTORE SWAP1 SWAP2 MSTORE DUP2 KECCAK256 SLOAD PUSH2 0x3B4D SWAP1 DUP4 PUSH2 0x480B JUMP JUMPDEST CALLER PUSH1 0x0 DUP2 DUP2 MSTORE PUSH1 0x8 PUSH1 0x20 SWAP1 DUP2 MSTORE PUSH1 0x40 DUP1 DUP4 KECCAK256 PUSH1 0x1 PUSH1 0x1 PUSH1 0xA0 SHL SUB DUP10 AND DUP1 DUP6 MSTORE SWAP1 DUP4 MSTORE SWAP3 DUP2 SWAP1 KECCAK256 DUP6 SWAP1 SSTORE MLOAD SWAP4 DUP5 MSTORE SWAP1 SWAP3 PUSH1 0x0 DUP1 MLOAD PUSH1 0x20 PUSH2 0x5944 DUP4 CODECOPY DUP2 MLOAD SWAP2 MSTORE SWAP2 ADD PUSH2 0xA4E JUMP JUMPDEST PUSH2 0xA73 PUSH1 0x2 PUSH8 0xDE0B6B3A7640000 PUSH2 0x5795 JUMP JUMPDEST PUSH1 0xA SLOAD PUSH1 0x0 SWAP1 PUSH1 0xFF AND ISZERO PUSH2 0x3BCB JUMPI PUSH1 0x40 MLOAD PUSH3 0x461BCD PUSH1 0xE5 SHL DUP2 MSTORE PUSH1 0x4 ADD PUSH2 0x99D SWAP1 PUSH2 0x56D3 JUMP JUMPDEST PUSH2 0x3BD4 DUP3 PUSH2 0x3CA9 JUMP JUMPDEST PUSH1 0x1 PUSH1 0x1 PUSH1 0xA0 SHL SUB DUP3 AND PUSH1 0x0 SWAP1 DUP2 MSTORE PUSH1 0xD PUSH1 0x20 MSTORE PUSH1 0x40 SWAP1 KECCAK256 PUSH1 0x2 ADD SLOAD PUSH1 0xE SLOAD PUSH2 0x9FE SWAP1 DUP3 SWAP1 PUSH2 0x4564 JUMP JUMPDEST PUSH1 0xA SLOAD PUSH1 0x0 SWAP1 PUSH1 0xFF AND ISZERO PUSH2 0x3C24 JUMPI PUSH1 0x40 MLOAD PUSH3 0x461BCD PUSH1 0xE5 SHL DUP2 MSTORE PUSH1 0x4 ADD PUSH2 0x99D SWAP1 PUSH2 0x56D3 JUMP JUMPDEST PUSH2 0x3C2D DUP3 PUSH2 0x3CA9 JUMP JUMPDEST POP PUSH1 0x1 PUSH1 0x1 PUSH1 0xA0 SHL SUB AND PUSH1 0x0 SWAP1 DUP2 MSTORE PUSH1 0xD PUSH1 0x20 MSTORE PUSH1 0x40 SWAP1 KECCAK256 PUSH1 0x3 ADD SLOAD SWAP1 JUMP JUMPDEST PUSH1 0x1 PUSH1 0x1 PUSH1 0xA0 SHL SUB DUP3 AND PUSH1 0x0 SWAP1 DUP2 MSTORE PUSH1 0xD PUSH1 0x20 SWAP1 DUP2 MSTORE PUSH1 0x40 DUP1 DUP4 KECCAK256 DUP2 MLOAD PUSH1 0x80 DUP2 ADD DUP4 MSTORE DUP2 SLOAD PUSH1 0xFF AND ISZERO ISZERO DUP2 MSTORE PUSH1 0x1 DUP3 ADD SLOAD SWAP4 DUP2 ADD SWAP4 SWAP1 SWAP4 MSTORE PUSH1 0x2 DUP2 ADD SLOAD SWAP2 DUP4 ADD SWAP2 SWAP1 SWAP2 MSTORE PUSH1 0x3 ADD SLOAD PUSH1 0x60 DUP3 ADD DUP2 SWAP1 MSTORE PUSH1 0x9 SLOAD PUSH2 0x1938 SWAP2 SWAP1 DUP6 PUSH2 0x485D JUMP JUMPDEST PUSH1 0x1 PUSH1 0x1 PUSH1 0xA0 SHL SUB DUP2 AND PUSH1 0x0 SWAP1 DUP2 MSTORE PUSH1 0xD PUSH1 0x20 MSTORE PUSH1 0x40 SWAP1 KECCAK256 SLOAD PUSH1 0xFF AND PUSH2 0x3D01 JUMPI PUSH1 0x40 MLOAD PUSH3 0x461BCD PUSH1 0xE5 SHL DUP2 MSTORE PUSH1 0x20 PUSH1 0x4 DUP3 ADD MSTORE PUSH1 0xD PUSH1 0x24 DUP3 ADD MSTORE PUSH13 0x11549497D393D517D093D55391 PUSH1 0x9A SHL PUSH1 0x44 DUP3 ADD MSTORE PUSH1 0x64 ADD PUSH2 0x99D JUMP JUMPDEST POP JUMP JUMPDEST PUSH1 0x0 DUP1 PUSH2 0x3D11 DUP8 DUP8 PUSH2 0x4564 JUMP JUMPDEST SWAP1 POP PUSH1 0x0 PUSH2 0x3D1F DUP7 DUP7 PUSH2 0x4564 JUMP JUMPDEST SWAP1 POP PUSH1 0x0 PUSH2 0x3D2D DUP4 DUP4 PUSH2 0x4564 JUMP JUMPDEST SWAP1 POP PUSH1 0x0 PUSH2 0x3D76 PUSH8 0xDE0B6B3A7640000 PUSH2 0x1A8B PUSH8 0xDE0B6B3A7640000 DUP10 PUSH1 0x0 SLOAD PUSH2 0x3D55 PUSH2 0x168F JUMP JUMPDEST PUSH1 0x1 SLOAD PUSH2 0x3D62 SWAP2 SWAP1 PUSH2 0x57A9 JUMP JUMPDEST PUSH2 0x3D6C SWAP2 SWAP1 PUSH2 0x57A9 JUMP JUMPDEST PUSH2 0x1AAE SWAP2 SWAP1 PUSH2 0x57A9 JUMP JUMPDEST SWAP1 POP PUSH2 0x3D82 DUP3 DUP3 PUSH2 0x4087 JUMP JUMPDEST SWAP11 SWAP10 POP POP POP POP POP POP POP POP POP POP JUMP JUMPDEST PUSH1 0xA SLOAD PUSH2 0x100 SWAP1 DIV PUSH1 0x1 PUSH1 0x1 PUSH1 0xA0 SHL SUB AND CALLER EQ PUSH2 0x3DE4 JUMPI PUSH1 0x40 MLOAD PUSH3 0x461BCD PUSH1 0xE5 SHL DUP2 MSTORE PUSH1 0x20 PUSH1 0x4 DUP3 ADD MSTORE PUSH1 0x12 PUSH1 0x24 DUP3 ADD MSTORE PUSH18 0x22A9292FA727AA2FA1A7A72A2927A62622A9 PUSH1 0x71 SHL PUSH1 0x44 DUP3 ADD MSTORE PUSH1 0x64 ADD PUSH2 0x99D JUMP JUMPDEST PUSH1 0x1 PUSH1 0x1 PUSH1 0xA0 SHL SUB DUP4 AND PUSH1 0x0 SWAP1 DUP2 MSTORE PUSH1 0xD PUSH1 0x20 MSTORE PUSH1 0x40 SWAP1 KECCAK256 SLOAD PUSH1 0xFF AND ISZERO PUSH2 0x3E3C JUMPI PUSH1 0x40 MLOAD PUSH3 0x461BCD PUSH1 0xE5 SHL DUP2 MSTORE PUSH1 0x20 PUSH1 0x4 DUP3 ADD MSTORE PUSH1 0xC PUSH1 0x24 DUP3 ADD MSTORE PUSH12 0x11549497D254D7D093D55391 PUSH1 0xA2 SHL PUSH1 0x44 DUP3 ADD MSTORE PUSH1 0x64 ADD PUSH2 0x99D JUMP JUMPDEST PUSH1 0xB SLOAD PUSH1 0x1 PUSH1 0xA0 SHL SWAP1 DIV PUSH1 0xFF AND ISZERO PUSH2 0x3E89 JUMPI PUSH1 0x40 MLOAD PUSH3 0x461BCD PUSH1 0xE5 SHL DUP2 MSTORE PUSH1 0x20 PUSH1 0x4 DUP3 ADD MSTORE PUSH1 0x10 PUSH1 0x24 DUP3 ADD MSTORE PUSH16 0x11549497D254D7D19253905312569151 PUSH1 0x82 SHL PUSH1 0x44 DUP3 ADD MSTORE PUSH1 0x64 ADD PUSH2 0x99D JUMP JUMPDEST PUSH1 0xC SLOAD PUSH1 0x2 GT PUSH2 0x3ECC JUMPI PUSH1 0x40 MLOAD PUSH3 0x461BCD PUSH1 0xE5 SHL DUP2 MSTORE PUSH1 0x20 PUSH1 0x4 DUP3 ADD MSTORE PUSH1 0xE PUSH1 0x24 DUP3 ADD MSTORE PUSH14 0x4552525F4D41585F544F4B454E53 PUSH1 0x90 SHL PUSH1 0x44 DUP3 ADD MSTORE PUSH1 0x64 ADD PUSH2 0x99D JUMP JUMPDEST PUSH1 0x40 DUP1 MLOAD PUSH1 0x80 DUP2 ADD DUP3 MSTORE PUSH1 0x1 DUP1 DUP3 MSTORE PUSH1 0xC DUP1 SLOAD PUSH1 0x20 DUP1 DUP6 ADD SWAP2 DUP3 MSTORE PUSH1 0x0 DUP6 DUP8 ADD DUP2 DUP2 MSTORE PUSH1 0x60 DUP8 ADD DUP3 DUP2 MSTORE PUSH1 0x1 PUSH1 0x1 PUSH1 0xA0 SHL SUB DUP13 AND DUP1 DUP5 MSTORE PUSH1 0xD SWAP1 SWAP5 MSTORE SWAP8 DUP3 KECCAK256 SWAP7 MLOAD DUP8 SLOAD PUSH1 0xFF NOT AND SWAP1 ISZERO ISZERO OR DUP8 SSTORE SWAP3 MLOAD DUP7 DUP7 ADD SSTORE SWAP2 MLOAD PUSH1 0x2 DUP7 ADD SSTORE SWAP5 MLOAD PUSH1 0x3 SWAP1 SWAP5 ADD SWAP4 SWAP1 SWAP4 SSTORE DUP1 SLOAD SWAP2 DUP3 ADD DUP2 SSTORE SWAP1 SWAP2 MSTORE PUSH32 0xDF6966C971051C3D54EC59162606531493A51404A002842F56009D7E5CF4A8C7 ADD DUP1 SLOAD PUSH1 0x1 PUSH1 0x1 PUSH1 0xA0 SHL SUB NOT AND SWAP1 SWAP2 OR SWAP1 SSTORE PUSH2 0x3F79 DUP4 DUP4 DUP4 PUSH2 0x4AF2 JUMP JUMPDEST POP POP POP JUMP JUMPDEST PUSH1 0xB DUP1 SLOAD PUSH1 0xFF PUSH1 0xA0 SHL NOT AND PUSH1 0x1 PUSH1 0xA0 SHL OR SWAP1 SSTORE PUSH1 0xA DUP1 SLOAD PUSH1 0xFF PUSH1 0xA8 SHL NOT AND PUSH1 0x1 PUSH1 0xA8 SHL OR SWAP1 SSTORE PUSH2 0x3FBF PUSH2 0x3FBA PUSH8 0xDE0B6B3A7640000 PUSH1 0x64 PUSH2 0x570E JUMP JUMPDEST PUSH2 0x48FA JUMP JUMPDEST PUSH2 0x3FDB CALLER PUSH2 0x3FD6 PUSH8 0xDE0B6B3A7640000 PUSH1 0x64 PUSH2 0x570E JUMP JUMPDEST PUSH2 0x4903 JUMP JUMPDEST JUMP JUMPDEST PUSH1 0x0 PUSH1 0x1 DUP3 LT ISZERO PUSH2 0x4030 JUMPI PUSH1 0x40 MLOAD PUSH3 0x461BCD PUSH1 0xE5 SHL DUP2 MSTORE PUSH1 0x20 PUSH1 0x4 DUP3 ADD MSTORE PUSH1 0x1A PUSH1 0x24 DUP3 ADD MSTORE PUSH32 0x4552525F504F4F4C5F414D4F554E545F494E5F544F4F5F4C4F57000000000000 PUSH1 0x44 DUP3 ADD MSTORE PUSH1 0x64 ADD PUSH2 0x99D JUMP JUMPDEST PUSH2 0x403B DUP3 PUSH1 0x2 PUSH2 0x570E JUMP JUMPDEST SWAP2 POP PUSH1 0x0 PUSH2 0x4049 DUP5 DUP5 PUSH2 0x416C JUMP JUMPDEST SWAP1 POP PUSH1 0x0 PUSH2 0x4057 DUP3 DUP7 PUSH2 0x4564 JUMP JUMPDEST SWAP1 POP PUSH1 0x0 PUSH2 0x406D PUSH8 0xDE0B6B3A7640000 DUP4 PUSH2 0x416C JUMP JUMPDEST SWAP1 POP PUSH1 0x0 PUSH2 0x407B DUP3 DUP10 PUSH2 0x4087 JUMP JUMPDEST SWAP9 SWAP8 POP POP POP POP POP POP POP POP JUMP JUMPDEST PUSH1 0x0 DUP1 PUSH2 0x4094 DUP4 DUP6 PUSH2 0x570E JUMP JUMPDEST SWAP1 POP DUP4 ISZERO DUP1 PUSH2 0x40AB JUMPI POP DUP3 PUSH2 0x40A9 DUP6 DUP4 PUSH2 0x5795 JUMP JUMPDEST EQ JUMPDEST PUSH2 0x40EA JUMPI PUSH1 0x40 MLOAD PUSH3 0x461BCD PUSH1 0xE5 SHL DUP2 MSTORE PUSH1 0x20 PUSH1 0x4 DUP3 ADD MSTORE PUSH1 0x10 PUSH1 0x24 DUP3 ADD MSTORE PUSH16 0x4552525F4D554C5F4F564552464C4F57 PUSH1 0x80 SHL PUSH1 0x44 DUP3 ADD MSTORE PUSH1 0x64 ADD PUSH2 0x99D JUMP JUMPDEST PUSH1 0x0 PUSH2 0x40FF PUSH1 0x2 PUSH8 0xDE0B6B3A7640000 PUSH2 0x5795 JUMP JUMPDEST PUSH2 0x4109 SWAP1 DUP4 PUSH2 0x57A9 JUMP JUMPDEST SWAP1 POP DUP2 DUP2 LT ISZERO PUSH2 0x414E JUMPI PUSH1 0x40 MLOAD PUSH3 0x461BCD PUSH1 0xE5 SHL DUP2 MSTORE PUSH1 0x20 PUSH1 0x4 DUP3 ADD MSTORE PUSH1 0x10 PUSH1 0x24 DUP3 ADD MSTORE PUSH16 0x4552525F4D554C5F4F564552464C4F57 PUSH1 0x80 SHL PUSH1 0x44 DUP3 ADD MSTORE PUSH1 0x64 ADD PUSH2 0x99D JUMP JUMPDEST PUSH1 0x0 PUSH2 0x4162 PUSH8 0xDE0B6B3A7640000 DUP4 PUSH2 0x5795 JUMP JUMPDEST SWAP7 SWAP6 POP POP POP POP POP POP JUMP JUMPDEST PUSH1 0x0 DUP1 PUSH1 0x0 PUSH2 0x417B DUP6 DUP6 PUSH2 0x4D11 JUMP JUMPDEST SWAP2 POP SWAP2 POP DUP1 ISZERO PUSH2 0x41C1 JUMPI PUSH1 0x40 MLOAD PUSH3 0x461BCD PUSH1 0xE5 SHL DUP2 MSTORE PUSH1 0x20 PUSH1 0x4 DUP3 ADD MSTORE PUSH1 0x11 PUSH1 0x24 DUP3 ADD MSTORE PUSH17 0x4552525F5355425F554E444552464C4F57 PUSH1 0x78 SHL PUSH1 0x44 DUP3 ADD MSTORE PUSH1 0x64 ADD PUSH2 0x99D JUMP JUMPDEST POP SWAP4 SWAP3 POP POP POP JUMP JUMPDEST PUSH2 0x1DC3 DUP3 DUP3 PUSH2 0x4D48 JUMP JUMPDEST PUSH2 0x3D01 DUP2 PUSH2 0x4D53 JUMP JUMPDEST PUSH2 0x3F79 PUSH1 0x1 PUSH1 0x1 PUSH1 0xA0 SHL SUB DUP5 AND DUP4 DUP4 PUSH2 0x47A8 JUMP JUMPDEST PUSH1 0x1 PUSH1 0x1 PUSH1 0xA0 SHL SUB DUP4 AND PUSH1 0x0 SWAP1 DUP2 MSTORE PUSH1 0x7 PUSH1 0x20 MSTORE PUSH1 0x40 SWAP1 KECCAK256 SLOAD DUP2 GT ISZERO PUSH2 0x424F JUMPI PUSH1 0x40 MLOAD PUSH3 0x461BCD PUSH1 0xE5 SHL DUP2 MSTORE PUSH1 0x20 PUSH1 0x4 DUP3 ADD MSTORE PUSH1 0x14 PUSH1 0x24 DUP3 ADD MSTORE PUSH20 0x11549497D25394D551919250D251539517D09053 PUSH1 0x62 SHL PUSH1 0x44 DUP3 ADD MSTORE PUSH1 0x64 ADD PUSH2 0x99D JUMP JUMPDEST PUSH1 0x1 PUSH1 0x1 PUSH1 0xA0 SHL SUB DUP4 AND PUSH1 0x0 SWAP1 DUP2 MSTORE PUSH1 0x7 PUSH1 0x20 MSTORE PUSH1 0x40 SWAP1 KECCAK256 SLOAD PUSH2 0x4272 SWAP1 DUP3 PUSH2 0x416C JUMP JUMPDEST PUSH1 0x1 PUSH1 0x1 PUSH1 0xA0 SHL SUB DUP1 DUP6 AND PUSH1 0x0 SWAP1 DUP2 MSTORE PUSH1 0x7 PUSH1 0x20 MSTORE PUSH1 0x40 DUP1 DUP3 KECCAK256 SWAP4 SWAP1 SWAP4 SSTORE SWAP1 DUP5 AND DUP2 MSTORE KECCAK256 SLOAD PUSH2 0x42A1 SWAP1 DUP3 PUSH2 0x480B JUMP JUMPDEST PUSH1 0x1 PUSH1 0x1 PUSH1 0xA0 SHL SUB DUP1 DUP5 AND PUSH1 0x0 DUP2 DUP2 MSTORE PUSH1 0x7 PUSH1 0x20 MSTORE PUSH1 0x40 SWAP1 DUP2 SWAP1 KECCAK256 SWAP4 SWAP1 SWAP4 SSTORE SWAP2 MLOAD SWAP1 DUP6 AND SWAP1 PUSH32 0xDDF252AD1BE2C89B69C2B068FC378DAA952BA7F163C4A11628F55A4DF523B3EF SWAP1 PUSH2 0x42F5 SWAP1 DUP6 DUP2 MSTORE PUSH1 0x20 ADD SWAP1 JUMP JUMPDEST PUSH1 0x40 MLOAD DUP1 SWAP2 SUB SWAP1 LOG3 POP POP POP JUMP JUMPDEST PUSH1 0xA DUP1 SLOAD PUSH2 0x100 PUSH1 0x1 PUSH1 0xA8 SHL SUB NOT AND PUSH2 0x100 PUSH1 0x1 PUSH1 0x1 PUSH1 0xA0 SHL SUB DUP11 DUP2 AND SWAP2 SWAP1 SWAP2 MUL SWAP2 SWAP1 SWAP2 OR SWAP1 SWAP2 SSTORE PUSH1 0x2 DUP1 SLOAD PUSH1 0x1 PUSH1 0x1 PUSH1 0xA0 SHL SUB NOT AND SWAP2 DUP9 AND SWAP2 SWAP1 SWAP2 OR SWAP1 SSTORE DUP5 MLOAD PUSH1 0x0 SWAP1 DUP7 SWAP1 DUP3 SWAP1 PUSH2 0x4356 JUMPI PUSH2 0x4356 PUSH2 0x584C JUMP JUMPDEST PUSH1 0x20 SWAP1 DUP2 MUL SWAP2 SWAP1 SWAP2 ADD DUP2 ADD MLOAD PUSH1 0x1 DUP2 SWAP1 SSTORE PUSH1 0x40 DUP1 MLOAD CALLER DUP2 MSTORE SWAP3 DUP4 ADD SWAP2 SWAP1 SWAP2 MSTORE PUSH32 0xBCA0D601C32979EEBAC4E8CD06375B6E45D39AF80FC06A33F366425B450DFB69 SWAP2 ADD PUSH1 0x40 MLOAD DUP1 SWAP2 SUB SWAP1 LOG1 DUP6 PUSH1 0x1 DUP2 MLOAD DUP2 LT PUSH2 0x43B3 JUMPI PUSH2 0x43B3 PUSH2 0x584C JUMP JUMPDEST PUSH1 0x20 SWAP1 DUP2 MUL SWAP2 SWAP1 SWAP2 ADD DUP2 ADD MLOAD PUSH1 0x0 DUP2 SWAP1 SSTORE PUSH1 0xA DUP1 SLOAD DUP9 ISZERO ISZERO PUSH1 0x1 PUSH1 0xA8 SHL MUL PUSH1 0xFF PUSH1 0xA8 SHL NOT SWAP1 SWAP2 AND OR SWAP1 SSTORE PUSH1 0xB DUP1 SLOAD DUP7 MLOAD PUSH1 0x3 DUP1 SLOAD PUSH1 0x1 PUSH1 0x1 PUSH1 0xA0 SHL SUB SWAP3 DUP4 AND PUSH1 0x1 PUSH1 0x1 PUSH1 0xA0 SHL SUB NOT SWAP2 DUP3 AND OR SWAP1 SWAP2 SSTORE SWAP5 DUP9 ADD MLOAD PUSH1 0x4 DUP1 SLOAD SWAP2 DUP4 AND SWAP2 DUP8 AND SWAP2 SWAP1 SWAP2 OR SWAP1 SSTORE DUP7 MLOAD AND DUP9 ISZERO ISZERO PUSH1 0x1 PUSH1 0xA0 SHL MUL SWAP5 SWAP1 SWAP5 AND PUSH1 0x1 PUSH1 0x1 PUSH1 0xA8 SHL SUB NOT SWAP1 SWAP2 AND OR DUP4 OR SWAP1 SSTORE PUSH1 0x40 MLOAD PUSH32 0x5E3E722DBD3B6B8071B78568AC80CD0E8FF92E4FB3024E755D504D8F7C2F6F09 SWAP3 PUSH2 0x4467 SWAP3 CALLER SWAP3 PUSH2 0x5828 JUMP JUMPDEST PUSH1 0x40 MLOAD DUP1 SWAP2 SUB SWAP1 LOG1 POP POP PUSH1 0xF DUP1 SLOAD PUSH1 0xA SLOAD PUSH1 0x1 PUSH1 0xA0 SHL PUSH2 0x100 SWAP1 SWAP2 DIV PUSH1 0x1 PUSH1 0x1 PUSH1 0xA0 SHL SUB AND PUSH1 0x1 PUSH1 0x1 PUSH1 0xA8 SHL SUB NOT SWAP1 SWAP3 AND SWAP2 SWAP1 SWAP2 OR DUP2 OR SWAP2 DUP3 SWAP1 SSTORE PUSH1 0xFF SWAP2 DIV AND SWAP7 SWAP6 POP POP POP POP POP POP JUMP JUMPDEST PUSH1 0x0 DUP1 PUSH2 0x44C6 DUP4 PUSH8 0xDE0B6B3A7640000 PUSH2 0x4087 JUMP JUMPDEST SWAP1 POP PUSH1 0x0 PUSH2 0x44D4 DUP7 DUP4 PUSH2 0x480B JUMP JUMPDEST SWAP1 POP PUSH1 0x0 PUSH2 0x44E2 DUP3 DUP9 PUSH2 0x4564 JUMP JUMPDEST SWAP1 POP PUSH1 0x0 PUSH2 0x44F8 DUP3 PUSH8 0xDE0B6B3A7640000 PUSH2 0x416C JUMP JUMPDEST SWAP1 POP PUSH1 0x0 PUSH2 0x4506 DUP3 DUP10 PUSH2 0x4087 JUMP JUMPDEST SWAP1 POP PUSH1 0x2 DUP2 LT ISZERO PUSH2 0x4559 JUMPI PUSH1 0x40 MLOAD PUSH3 0x461BCD PUSH1 0xE5 SHL DUP2 MSTORE PUSH1 0x20 PUSH1 0x4 DUP3 ADD MSTORE PUSH1 0x1B PUSH1 0x24 DUP3 ADD MSTORE PUSH32 0x4552525F544F4B454E5F414D4F554E545F494E5F544F4F5F4C4F570000000000 PUSH1 0x44 DUP3 ADD MSTORE PUSH1 0x64 ADD PUSH2 0x99D JUMP JUMPDEST PUSH2 0x1682 PUSH1 0x2 DUP3 PUSH2 0x5795 JUMP JUMPDEST PUSH1 0x0 DUP2 PUSH2 0x45A2 JUMPI PUSH1 0x40 MLOAD PUSH3 0x461BCD PUSH1 0xE5 SHL DUP2 MSTORE PUSH1 0x20 PUSH1 0x4 DUP3 ADD MSTORE PUSH1 0xC PUSH1 0x24 DUP3 ADD MSTORE PUSH12 0x4552525F4449565F5A45524F PUSH1 0xA0 SHL PUSH1 0x44 DUP3 ADD MSTORE PUSH1 0x64 ADD PUSH2 0x99D JUMP JUMPDEST PUSH1 0x0 PUSH2 0x45B6 PUSH8 0xDE0B6B3A7640000 DUP6 PUSH2 0x570E JUMP JUMPDEST SWAP1 POP DUP4 ISZERO DUP1 PUSH2 0x45D5 JUMPI POP PUSH8 0xDE0B6B3A7640000 PUSH2 0x45D3 DUP6 DUP4 PUSH2 0x5795 JUMP JUMPDEST EQ JUMPDEST PUSH2 0x4614 JUMPI PUSH1 0x40 MLOAD PUSH3 0x461BCD PUSH1 0xE5 SHL DUP2 MSTORE PUSH1 0x20 PUSH1 0x4 DUP3 ADD MSTORE PUSH1 0x10 PUSH1 0x24 DUP3 ADD MSTORE PUSH16 0x11549497D1125597D253951154939053 PUSH1 0x82 SHL PUSH1 0x44 DUP3 ADD MSTORE PUSH1 0x64 ADD PUSH2 0x99D JUMP JUMPDEST PUSH1 0x0 PUSH2 0x4621 PUSH1 0x2 DUP6 PUSH2 0x5795 JUMP JUMPDEST PUSH2 0x462B SWAP1 DUP4 PUSH2 0x57A9 JUMP JUMPDEST SWAP1 POP DUP2 DUP2 LT ISZERO PUSH2 0x4670 JUMPI PUSH1 0x40 MLOAD PUSH3 0x461BCD PUSH1 0xE5 SHL DUP2 MSTORE PUSH1 0x20 PUSH1 0x4 DUP3 ADD MSTORE PUSH1 0x10 PUSH1 0x24 DUP3 ADD MSTORE PUSH16 0x11549497D1125597D253951154939053 PUSH1 0x82 SHL PUSH1 0x44 DUP3 ADD MSTORE PUSH1 0x64 ADD PUSH2 0x99D JUMP JUMPDEST PUSH1 0x0 PUSH2 0x4162 DUP6 DUP4 PUSH2 0x5795 JUMP JUMPDEST PUSH1 0x0 PUSH1 0x1 DUP4 LT ISZERO PUSH2 0x46C7 JUMPI PUSH1 0x40 MLOAD PUSH3 0x461BCD PUSH1 0xE5 SHL DUP2 MSTORE PUSH1 0x20 PUSH1 0x4 DUP3 ADD MSTORE PUSH1 0x15 PUSH1 0x24 DUP3 ADD MSTORE PUSH21 0x4552525F42504F575F424153455F544F4F5F4C4F57 PUSH1 0x58 SHL PUSH1 0x44 DUP3 ADD MSTORE PUSH1 0x64 ADD PUSH2 0x99D JUMP JUMPDEST PUSH1 0x1 PUSH2 0x46DC PUSH8 0xDE0B6B3A7640000 PUSH1 0x2 PUSH2 0x570E JUMP JUMPDEST PUSH2 0x46E6 SWAP2 SWAP1 PUSH2 0x58B3 JUMP JUMPDEST DUP4 GT ISZERO PUSH2 0x472E JUMPI PUSH1 0x40 MLOAD PUSH3 0x461BCD PUSH1 0xE5 SHL DUP2 MSTORE PUSH1 0x20 PUSH1 0x4 DUP3 ADD MSTORE PUSH1 0x16 PUSH1 0x24 DUP3 ADD MSTORE PUSH22 0x8AA4A4BE84A09EAEBE8482A68ABEA89E9EBE90928E9 PUSH1 0x53 SHL PUSH1 0x44 DUP3 ADD MSTORE PUSH1 0x64 ADD PUSH2 0x99D JUMP JUMPDEST PUSH1 0x0 PUSH2 0x4739 DUP4 PUSH2 0x4E1F JUMP JUMPDEST SWAP1 POP PUSH1 0x0 PUSH2 0x4747 DUP5 DUP4 PUSH2 0x416C JUMP JUMPDEST SWAP1 POP PUSH1 0x0 PUSH2 0x475D DUP7 PUSH2 0x4758 DUP6 PUSH2 0x4E3D JUMP JUMPDEST PUSH2 0x4E51 JUMP JUMPDEST SWAP1 POP DUP2 PUSH2 0x476E JUMPI SWAP3 POP PUSH2 0xA5A SWAP2 POP POP JUMP JUMPDEST PUSH1 0x0 PUSH2 0x4791 DUP8 DUP5 PUSH2 0x478C PUSH5 0x2540BE400 PUSH8 0xDE0B6B3A7640000 PUSH2 0x5795 JUMP JUMPDEST PUSH2 0x4EC5 JUMP JUMPDEST SWAP1 POP PUSH2 0x479D DUP3 DUP3 PUSH2 0x4087 JUMP JUMPDEST SWAP8 SWAP7 POP POP POP POP POP POP POP JUMP JUMPDEST PUSH1 0x40 MLOAD PUSH1 0x1 PUSH1 0x1 PUSH1 0xA0 SHL SUB DUP4 AND PUSH1 0x24 DUP3 ADD MSTORE PUSH1 0x44 DUP2 ADD DUP3 SWAP1 MSTORE PUSH2 0x3F79 SWAP1 DUP5 SWAP1 PUSH4 0xA9059CBB PUSH1 0xE0 SHL SWAP1 PUSH1 0x64 ADD JUMPDEST PUSH1 0x40 DUP1 MLOAD PUSH1 0x1F NOT DUP2 DUP5 SUB ADD DUP2 MSTORE SWAP2 SWAP1 MSTORE PUSH1 0x20 DUP2 ADD DUP1 MLOAD PUSH1 0x1 PUSH1 0x1 PUSH1 0xE0 SHL SUB AND PUSH1 0x1 PUSH1 0x1 PUSH1 0xE0 SHL SUB NOT SWAP1 SWAP4 AND SWAP3 SWAP1 SWAP3 OR SWAP1 SWAP2 MSTORE PUSH2 0x4FB5 JUMP JUMPDEST PUSH1 0x0 DUP1 PUSH2 0x4818 DUP4 DUP6 PUSH2 0x57A9 JUMP JUMPDEST SWAP1 POP DUP4 DUP2 LT ISZERO PUSH2 0x9FE JUMPI PUSH1 0x40 MLOAD PUSH3 0x461BCD PUSH1 0xE5 SHL DUP2 MSTORE PUSH1 0x20 PUSH1 0x4 DUP3 ADD MSTORE PUSH1 0x10 PUSH1 0x24 DUP3 ADD MSTORE PUSH16 0x4552525F4144445F4F564552464C4F57 PUSH1 0x80 SHL PUSH1 0x44 DUP3 ADD MSTORE PUSH1 0x64 ADD PUSH2 0x99D JUMP JUMPDEST PUSH1 0x0 DUP1 PUSH2 0x486A DUP5 DUP5 PUSH2 0x480B JUMP JUMPDEST SWAP1 POP PUSH1 0x0 PUSH2 0x4878 DUP3 DUP7 PUSH2 0x4564 JUMP JUMPDEST SWAP1 POP PUSH1 0x0 PUSH2 0x488E DUP3 PUSH8 0xDE0B6B3A7640000 PUSH2 0x416C JUMP JUMPDEST SWAP1 POP PUSH1 0x0 PUSH2 0x489C DUP3 DUP10 PUSH2 0x4087 JUMP JUMPDEST SWAP1 POP PUSH1 0x1 DUP2 LT ISZERO PUSH2 0x48EF JUMPI PUSH1 0x40 MLOAD PUSH3 0x461BCD PUSH1 0xE5 SHL DUP2 MSTORE PUSH1 0x20 PUSH1 0x4 DUP3 ADD MSTORE PUSH1 0x1B PUSH1 0x24 DUP3 ADD MSTORE PUSH32 0x4552525F504F4F4C5F414D4F554E545F4F55545F544F4F5F4C4F570000000000 PUSH1 0x44 DUP3 ADD MSTORE PUSH1 0x64 ADD PUSH2 0x99D JUMP JUMPDEST PUSH2 0x407B DUP2 PUSH1 0x2 PUSH2 0x570E JUMP JUMPDEST PUSH2 0x3D01 DUP2 PUSH2 0x5087 JUMP JUMPDEST PUSH2 0x1DC3 DUP3 DUP3 PUSH2 0x50F6 JUMP JUMPDEST PUSH1 0x40 MLOAD PUSH4 0x70A08231 PUSH1 0xE0 SHL DUP2 MSTORE ADDRESS PUSH1 0x4 DUP3 ADD MSTORE PUSH1 0x0 SWAP1 PUSH1 0x1 PUSH1 0x1 PUSH1 0xA0 SHL SUB DUP6 AND SWAP1 PUSH4 0x70A08231 SWAP1 PUSH1 0x24 ADD PUSH1 0x20 PUSH1 0x40 MLOAD DUP1 DUP4 SUB DUP2 DUP7 GAS STATICCALL ISZERO DUP1 ISZERO PUSH2 0x4954 JUMPI RETURNDATASIZE PUSH1 0x0 DUP1 RETURNDATACOPY RETURNDATASIZE PUSH1 0x0 REVERT JUMPDEST POP POP POP POP PUSH1 0x40 MLOAD RETURNDATASIZE PUSH1 0x1F NOT PUSH1 0x1F DUP3 ADD AND DUP3 ADD DUP1 PUSH1 0x40 MSTORE POP DUP2 ADD SWAP1 PUSH2 0x4978 SWAP2 SWAP1 PUSH2 0x5862 JUMP JUMPDEST SWAP1 POP PUSH2 0x498F PUSH1 0x1 PUSH1 0x1 PUSH1 0xA0 SHL SUB DUP6 AND DUP5 ADDRESS DUP6 PUSH2 0x5101 JUMP JUMPDEST PUSH2 0x4999 DUP3 DUP3 PUSH2 0x57A9 JUMP JUMPDEST PUSH1 0x40 MLOAD PUSH4 0x70A08231 PUSH1 0xE0 SHL DUP2 MSTORE ADDRESS PUSH1 0x4 DUP3 ADD MSTORE PUSH1 0x1 PUSH1 0x1 PUSH1 0xA0 SHL SUB DUP7 AND SWAP1 PUSH4 0x70A08231 SWAP1 PUSH1 0x24 ADD PUSH1 0x20 PUSH1 0x40 MLOAD DUP1 DUP4 SUB DUP2 DUP7 GAS STATICCALL ISZERO DUP1 ISZERO PUSH2 0x49DD JUMPI RETURNDATASIZE PUSH1 0x0 DUP1 RETURNDATACOPY RETURNDATASIZE PUSH1 0x0 REVERT JUMPDEST POP POP POP POP PUSH1 0x40 MLOAD RETURNDATASIZE PUSH1 0x1F NOT PUSH1 0x1F DUP3 ADD AND DUP3 ADD DUP1 PUSH1 0x40 MSTORE POP DUP2 ADD SWAP1 PUSH2 0x4A01 SWAP2 SWAP1 PUSH2 0x5862 JUMP JUMPDEST LT ISZERO PUSH2 0x4A4F JUMPI PUSH1 0x40 MLOAD PUSH3 0x461BCD PUSH1 0xE5 SHL DUP2 MSTORE PUSH1 0x20 PUSH1 0x4 DUP3 ADD MSTORE PUSH1 0x1A PUSH1 0x24 DUP3 ADD MSTORE PUSH32 0x5472616E7366657220616D6F756E7420697320746F6F206C6F77000000000000 PUSH1 0x44 DUP3 ADD MSTORE PUSH1 0x64 ADD PUSH2 0x99D JUMP JUMPDEST POP POP POP POP JUMP JUMPDEST PUSH1 0x0 DUP1 PUSH2 0x4A62 DUP6 DUP5 PUSH2 0x416C JUMP JUMPDEST SWAP1 POP PUSH1 0x0 PUSH2 0x4A70 DUP3 DUP8 PUSH2 0x4564 JUMP JUMPDEST SWAP1 POP PUSH1 0x0 PUSH2 0x4A86 PUSH8 0xDE0B6B3A7640000 DUP4 PUSH2 0x416C JUMP JUMPDEST SWAP1 POP PUSH1 0x0 PUSH2 0x4A94 DUP3 DUP9 PUSH2 0x4087 JUMP JUMPDEST SWAP1 POP PUSH1 0x2 DUP2 LT ISZERO PUSH2 0x4AE7 JUMPI PUSH1 0x40 MLOAD PUSH3 0x461BCD PUSH1 0xE5 SHL DUP2 MSTORE PUSH1 0x20 PUSH1 0x4 DUP3 ADD MSTORE PUSH1 0x1C PUSH1 0x24 DUP3 ADD MSTORE PUSH32 0x4552525F544F4B454E5F414D4F554E545F4F55545F544F4F5F4C4F5700000000 PUSH1 0x44 DUP3 ADD MSTORE PUSH1 0x64 ADD PUSH2 0x99D JUMP JUMPDEST PUSH2 0x407B PUSH1 0x2 DUP3 PUSH2 0x5795 JUMP JUMPDEST PUSH8 0xDE0B6B3A7640000 DUP2 LT ISZERO PUSH2 0x4B3B JUMPI PUSH1 0x40 MLOAD PUSH3 0x461BCD PUSH1 0xE5 SHL DUP2 MSTORE PUSH1 0x20 PUSH1 0x4 DUP3 ADD MSTORE PUSH1 0xE PUSH1 0x24 DUP3 ADD MSTORE PUSH14 0x11549497D3525397D5D15251D215 PUSH1 0x92 SHL PUSH1 0x44 DUP3 ADD MSTORE PUSH1 0x64 ADD PUSH2 0x99D JUMP JUMPDEST PUSH2 0x4B4E PUSH8 0xDE0B6B3A7640000 PUSH1 0x32 PUSH2 0x570E JUMP JUMPDEST DUP2 GT ISZERO PUSH2 0x4B8E JUMPI PUSH1 0x40 MLOAD PUSH3 0x461BCD PUSH1 0xE5 SHL DUP2 MSTORE PUSH1 0x20 PUSH1 0x4 DUP3 ADD MSTORE PUSH1 0xE PUSH1 0x24 DUP3 ADD MSTORE PUSH14 0x11549497D3505617D5D15251D215 PUSH1 0x92 SHL PUSH1 0x44 DUP3 ADD MSTORE PUSH1 0x64 ADD PUSH2 0x99D JUMP JUMPDEST PUSH2 0x4BA5 PUSH5 0xE8D4A51000 PUSH8 0xDE0B6B3A7640000 PUSH2 0x5795 JUMP JUMPDEST DUP3 LT ISZERO PUSH2 0x4BE6 JUMPI PUSH1 0x40 MLOAD PUSH3 0x461BCD PUSH1 0xE5 SHL DUP2 MSTORE PUSH1 0x20 PUSH1 0x4 DUP3 ADD MSTORE PUSH1 0xF PUSH1 0x24 DUP3 ADD MSTORE PUSH15 0x4552525F4D494E5F42414C414E4345 PUSH1 0x88 SHL PUSH1 0x44 DUP3 ADD MSTORE PUSH1 0x64 ADD PUSH2 0x99D JUMP JUMPDEST PUSH1 0x1 PUSH1 0x1 PUSH1 0xA0 SHL SUB DUP4 AND PUSH1 0x0 SWAP1 DUP2 MSTORE PUSH1 0xD PUSH1 0x20 MSTORE PUSH1 0x40 SWAP1 KECCAK256 PUSH1 0x2 ADD SLOAD DUP1 DUP3 GT ISZERO PUSH2 0x4C82 JUMPI PUSH2 0x4C1F PUSH1 0xE SLOAD PUSH2 0x4C1A DUP5 DUP5 PUSH2 0x416C JUMP JUMPDEST PUSH2 0x480B JUMP JUMPDEST PUSH1 0xE SSTORE PUSH2 0x4C35 PUSH8 0xDE0B6B3A7640000 PUSH1 0x32 PUSH2 0x570E JUMP JUMPDEST PUSH1 0xE SLOAD GT ISZERO PUSH2 0x4C7D JUMPI PUSH1 0x40 MLOAD PUSH3 0x461BCD PUSH1 0xE5 SHL DUP2 MSTORE PUSH1 0x20 PUSH1 0x4 DUP3 ADD MSTORE PUSH1 0x14 PUSH1 0x24 DUP3 ADD MSTORE PUSH20 0x11549497D3505617D513D5105317D5D15251D215 PUSH1 0x62 SHL PUSH1 0x44 DUP3 ADD MSTORE PUSH1 0x64 ADD PUSH2 0x99D JUMP JUMPDEST PUSH2 0x4C9E JUMP JUMPDEST DUP1 DUP3 LT ISZERO PUSH2 0x4C9E JUMPI PUSH2 0x4C9A PUSH1 0xE SLOAD PUSH2 0x1AAE DUP4 DUP6 PUSH2 0x416C JUMP JUMPDEST PUSH1 0xE SSTORE JUMPDEST PUSH1 0x1 PUSH1 0x1 PUSH1 0xA0 SHL SUB DUP5 AND PUSH1 0x0 SWAP1 DUP2 MSTORE PUSH1 0xD PUSH1 0x20 MSTORE PUSH1 0x40 SWAP1 KECCAK256 PUSH1 0x2 DUP2 ADD DUP4 SWAP1 SSTORE PUSH1 0x3 ADD DUP1 SLOAD SWAP1 DUP5 SWAP1 SSTORE DUP1 DUP5 GT ISZERO PUSH2 0x4CE7 JUMPI PUSH2 0x4CE2 DUP6 CALLER PUSH2 0x4CDD DUP8 DUP6 PUSH2 0x416C JUMP JUMPDEST PUSH2 0x490D JUMP JUMPDEST PUSH2 0x4D0A JUMP JUMPDEST DUP1 DUP5 LT ISZERO PUSH2 0x4D0A JUMPI PUSH1 0x0 PUSH2 0x4CFB DUP3 DUP7 PUSH2 0x416C JUMP JUMPDEST SWAP1 POP PUSH2 0x4D08 DUP7 CALLER DUP4 PUSH2 0x41DC JUMP JUMPDEST POP JUMPDEST POP POP POP POP POP JUMP JUMPDEST PUSH1 0x0 DUP1 DUP3 DUP5 LT PUSH2 0x4D30 JUMPI PUSH2 0x4D25 DUP4 DUP6 PUSH2 0x58B3 JUMP JUMPDEST PUSH1 0x0 SWAP2 POP SWAP2 POP PUSH2 0x4D41 JUMP JUMPDEST PUSH2 0x4D3A DUP5 DUP5 PUSH2 0x58B3 JUMP JUMPDEST PUSH1 0x1 SWAP2 POP SWAP2 POP JUMPDEST SWAP3 POP SWAP3 SWAP1 POP JUMP JUMPDEST PUSH2 0x1DC3 DUP3 ADDRESS DUP4 PUSH2 0x41F0 JUMP JUMPDEST ADDRESS PUSH1 0x0 SWAP1 DUP2 MSTORE PUSH1 0x7 PUSH1 0x20 MSTORE PUSH1 0x40 SWAP1 KECCAK256 SLOAD DUP2 GT ISZERO PUSH2 0x4DA9 JUMPI PUSH1 0x40 MLOAD PUSH3 0x461BCD PUSH1 0xE5 SHL DUP2 MSTORE PUSH1 0x20 PUSH1 0x4 DUP3 ADD MSTORE PUSH1 0x14 PUSH1 0x24 DUP3 ADD MSTORE PUSH20 0x11549497D25394D551919250D251539517D09053 PUSH1 0x62 SHL PUSH1 0x44 DUP3 ADD MSTORE PUSH1 0x64 ADD PUSH2 0x99D JUMP JUMPDEST ADDRESS PUSH1 0x0 SWAP1 DUP2 MSTORE PUSH1 0x7 PUSH1 0x20 MSTORE PUSH1 0x40 SWAP1 KECCAK256 SLOAD PUSH2 0x4DC3 SWAP1 DUP3 PUSH2 0x416C JUMP JUMPDEST ADDRESS PUSH1 0x0 SWAP1 DUP2 MSTORE PUSH1 0x7 PUSH1 0x20 MSTORE PUSH1 0x40 SWAP1 KECCAK256 SSTORE PUSH1 0x9 SLOAD PUSH2 0x4DE0 SWAP1 DUP3 PUSH2 0x416C JUMP JUMPDEST PUSH1 0x9 SSTORE PUSH1 0x40 MLOAD DUP2 DUP2 MSTORE PUSH1 0x0 SWAP1 ADDRESS SWAP1 PUSH32 0xDDF252AD1BE2C89B69C2B068FC378DAA952BA7F163C4A11628F55A4DF523B3EF SWAP1 PUSH1 0x20 ADD JUMPDEST PUSH1 0x40 MLOAD DUP1 SWAP2 SUB SWAP1 LOG3 POP JUMP JUMPDEST PUSH1 0x0 PUSH8 0xDE0B6B3A7640000 PUSH2 0x4E33 DUP4 PUSH2 0x4E3D JUMP JUMPDEST PUSH2 0xA5A SWAP2 SWAP1 PUSH2 0x570E JUMP JUMPDEST PUSH1 0x0 PUSH2 0xA5A PUSH8 0xDE0B6B3A7640000 DUP4 PUSH2 0x5795 JUMP JUMPDEST PUSH1 0x0 DUP3 DUP2 PUSH2 0x4E60 PUSH1 0x2 DUP6 PUSH2 0x58F3 JUMP JUMPDEST PUSH2 0x4E72 JUMPI PUSH8 0xDE0B6B3A7640000 PUSH2 0x4E74 JUMP JUMPDEST DUP2 JUMPDEST SWAP1 POP PUSH2 0x4E81 PUSH1 0x2 DUP6 PUSH2 0x5795 JUMP JUMPDEST SWAP4 POP JUMPDEST DUP4 ISZERO PUSH2 0x1938 JUMPI PUSH2 0x4E94 DUP3 DUP4 PUSH2 0x4087 JUMP JUMPDEST SWAP2 POP PUSH2 0x4EA1 PUSH1 0x2 DUP6 PUSH2 0x58F3 JUMP JUMPDEST ISZERO PUSH2 0x4EB3 JUMPI PUSH2 0x4EB0 DUP2 DUP4 PUSH2 0x4087 JUMP JUMPDEST SWAP1 POP JUMPDEST PUSH2 0x4EBE PUSH1 0x2 DUP6 PUSH2 0x5795 JUMP JUMPDEST SWAP4 POP PUSH2 0x4E84 JUMP JUMPDEST PUSH1 0x0 DUP3 DUP2 DUP1 PUSH2 0x4EDC DUP8 PUSH8 0xDE0B6B3A7640000 PUSH2 0x4D11 JUMP JUMPDEST SWAP1 SWAP3 POP SWAP1 POP PUSH8 0xDE0B6B3A7640000 DUP1 PUSH1 0x0 PUSH1 0x1 JUMPDEST DUP9 DUP5 LT PUSH2 0x4FA6 JUMPI PUSH1 0x0 PUSH2 0x4F0B PUSH8 0xDE0B6B3A7640000 DUP4 PUSH2 0x570E JUMP JUMPDEST SWAP1 POP PUSH1 0x0 DUP1 PUSH2 0x4F2B DUP11 PUSH2 0x4F26 DUP6 PUSH8 0xDE0B6B3A7640000 PUSH2 0x416C JUMP JUMPDEST PUSH2 0x4D11 JUMP JUMPDEST SWAP2 POP SWAP2 POP PUSH2 0x4F3D DUP8 PUSH2 0xDA9 DUP5 DUP13 PUSH2 0x4087 JUMP JUMPDEST SWAP7 POP PUSH2 0x4F49 DUP8 DUP5 PUSH2 0x4564 JUMP JUMPDEST SWAP7 POP DUP7 PUSH2 0x4F58 JUMPI POP POP POP PUSH2 0x4FA6 JUMP JUMPDEST DUP8 ISZERO PUSH2 0x4F62 JUMPI SWAP4 ISZERO SWAP4 JUMPDEST DUP1 ISZERO PUSH2 0x4F6C JUMPI SWAP4 ISZERO SWAP4 JUMPDEST DUP5 ISZERO PUSH2 0x4F83 JUMPI PUSH2 0x4F7C DUP7 DUP9 PUSH2 0x416C JUMP JUMPDEST SWAP6 POP PUSH2 0x4F90 JUMP JUMPDEST PUSH2 0x4F8D DUP7 DUP9 PUSH2 0x480B JUMP JUMPDEST SWAP6 POP JUMPDEST POP POP POP DUP1 DUP1 PUSH2 0x4F9E SWAP1 PUSH2 0x587B JUMP JUMPDEST SWAP2 POP POP PUSH2 0x4EF0 JUMP JUMPDEST POP SWAP1 SWAP10 SWAP9 POP POP POP POP POP POP POP POP POP JUMP JUMPDEST PUSH1 0x0 PUSH2 0x500A DUP3 PUSH1 0x40 MLOAD DUP1 PUSH1 0x40 ADD PUSH1 0x40 MSTORE DUP1 PUSH1 0x20 DUP2 MSTORE PUSH1 0x20 ADD PUSH32 0x5361666545524332303A206C6F772D6C6576656C2063616C6C206661696C6564 DUP2 MSTORE POP DUP6 PUSH1 0x1 PUSH1 0x1 PUSH1 0xA0 SHL SUB AND PUSH2 0x5122 SWAP1 SWAP3 SWAP2 SWAP1 PUSH4 0xFFFFFFFF AND JUMP JUMPDEST DUP1 MLOAD SWAP1 SWAP2 POP ISZERO PUSH2 0x3F79 JUMPI DUP1 DUP1 PUSH1 0x20 ADD SWAP1 MLOAD DUP2 ADD SWAP1 PUSH2 0x5028 SWAP2 SWAP1 PUSH2 0x57C1 JUMP JUMPDEST PUSH2 0x3F79 JUMPI PUSH1 0x40 MLOAD PUSH3 0x461BCD PUSH1 0xE5 SHL DUP2 MSTORE PUSH1 0x20 PUSH1 0x4 DUP3 ADD MSTORE PUSH1 0x2A PUSH1 0x24 DUP3 ADD MSTORE PUSH32 0x5361666545524332303A204552433230206F7065726174696F6E20646964206E PUSH1 0x44 DUP3 ADD MSTORE PUSH10 0x1BDD081CDD58D8D95959 PUSH1 0xB2 SHL PUSH1 0x64 DUP3 ADD MSTORE PUSH1 0x84 ADD PUSH2 0x99D JUMP JUMPDEST ADDRESS PUSH1 0x0 SWAP1 DUP2 MSTORE PUSH1 0x7 PUSH1 0x20 MSTORE PUSH1 0x40 SWAP1 KECCAK256 SLOAD PUSH2 0x50A1 SWAP1 DUP3 PUSH2 0x480B JUMP JUMPDEST ADDRESS PUSH1 0x0 SWAP1 DUP2 MSTORE PUSH1 0x7 PUSH1 0x20 MSTORE PUSH1 0x40 SWAP1 KECCAK256 SSTORE PUSH1 0x9 SLOAD PUSH2 0x50BE SWAP1 DUP3 PUSH2 0x480B JUMP JUMPDEST PUSH1 0x9 SSTORE PUSH1 0x40 MLOAD DUP2 DUP2 MSTORE ADDRESS SWAP1 PUSH1 0x0 SWAP1 PUSH32 0xDDF252AD1BE2C89B69C2B068FC378DAA952BA7F163C4A11628F55A4DF523B3EF SWAP1 PUSH1 0x20 ADD PUSH2 0x4E14 JUMP JUMPDEST PUSH2 0x1DC3 ADDRESS DUP4 DUP4 PUSH2 0x41F0 JUMP JUMPDEST PUSH2 0x4A4F DUP5 PUSH4 0x23B872DD PUSH1 0xE0 SHL DUP6 DUP6 DUP6 PUSH1 0x40 MLOAD PUSH1 0x24 ADD PUSH2 0x47D4 SWAP4 SWAP3 SWAP2 SWAP1 PUSH2 0x5828 JUMP JUMPDEST PUSH1 0x60 PUSH2 0x1938 DUP5 DUP5 PUSH1 0x0 DUP6 DUP6 DUP5 EXTCODESIZE PUSH2 0x517B JUMPI PUSH1 0x40 MLOAD PUSH3 0x461BCD PUSH1 0xE5 SHL DUP2 MSTORE PUSH1 0x20 PUSH1 0x4 DUP3 ADD MSTORE PUSH1 0x1D PUSH1 0x24 DUP3 ADD MSTORE PUSH32 0x416464726573733A2063616C6C20746F206E6F6E2D636F6E7472616374000000 PUSH1 0x44 DUP3 ADD MSTORE PUSH1 0x64 ADD PUSH2 0x99D JUMP JUMPDEST PUSH1 0x0 DUP1 DUP7 PUSH1 0x1 PUSH1 0x1 PUSH1 0xA0 SHL SUB AND DUP6 DUP8 PUSH1 0x40 MLOAD PUSH2 0x5197 SWAP2 SWAP1 PUSH2 0x5907 JUMP JUMPDEST PUSH1 0x0 PUSH1 0x40 MLOAD DUP1 DUP4 SUB DUP2 DUP6 DUP8 GAS CALL SWAP3 POP POP POP RETURNDATASIZE DUP1 PUSH1 0x0 DUP2 EQ PUSH2 0x51D4 JUMPI PUSH1 0x40 MLOAD SWAP2 POP PUSH1 0x1F NOT PUSH1 0x3F RETURNDATASIZE ADD AND DUP3 ADD PUSH1 0x40 MSTORE RETURNDATASIZE DUP3 MSTORE RETURNDATASIZE PUSH1 0x0 PUSH1 0x20 DUP5 ADD RETURNDATACOPY PUSH2 0x51D9 JUMP JUMPDEST PUSH1 0x60 SWAP2 POP JUMPDEST POP SWAP2 POP SWAP2 POP PUSH2 0x479D DUP3 DUP3 DUP7 PUSH1 0x60 DUP4 ISZERO PUSH2 0x51F3 JUMPI POP DUP2 PUSH2 0x9FE JUMP JUMPDEST DUP3 MLOAD ISZERO PUSH2 0x5203 JUMPI DUP3 MLOAD DUP1 DUP5 PUSH1 0x20 ADD REVERT JUMPDEST DUP2 PUSH1 0x40 MLOAD PUSH3 0x461BCD PUSH1 0xE5 SHL DUP2 MSTORE PUSH1 0x4 ADD PUSH2 0x99D SWAP2 SWAP1 PUSH2 0x5249 JUMP JUMPDEST PUSH1 0x0 JUMPDEST DUP4 DUP2 LT ISZERO PUSH2 0x5238 JUMPI DUP2 DUP2 ADD MLOAD DUP4 DUP3 ADD MSTORE PUSH1 0x20 ADD PUSH2 0x5220 JUMP JUMPDEST DUP4 DUP2 GT ISZERO PUSH2 0x4A4F JUMPI POP POP PUSH1 0x0 SWAP2 ADD MSTORE JUMP JUMPDEST PUSH1 0x20 DUP2 MSTORE PUSH1 0x0 DUP3 MLOAD DUP1 PUSH1 0x20 DUP5 ADD MSTORE PUSH2 0x5268 DUP2 PUSH1 0x40 DUP6 ADD PUSH1 0x20 DUP8 ADD PUSH2 0x521D JUMP JUMPDEST PUSH1 0x1F ADD PUSH1 0x1F NOT AND SWAP2 SWAP1 SWAP2 ADD PUSH1 0x40 ADD SWAP3 SWAP2 POP POP JUMP JUMPDEST PUSH1 0x1 PUSH1 0x1 PUSH1 0xA0 SHL SUB DUP2 AND DUP2 EQ PUSH2 0x3D01 JUMPI PUSH1 0x0 DUP1 REVERT JUMPDEST PUSH1 0x0 DUP1 PUSH1 0x0 PUSH1 0x60 DUP5 DUP7 SUB SLT ISZERO PUSH2 0x52A6 JUMPI PUSH1 0x0 DUP1 REVERT JUMPDEST DUP4 CALLDATALOAD PUSH2 0x52B1 DUP2 PUSH2 0x527C JUMP JUMPDEST SWAP3 POP PUSH1 0x20 DUP5 ADD CALLDATALOAD PUSH2 0x52C1 DUP2 PUSH2 0x527C JUMP JUMPDEST SWAP3 SWAP6 SWAP3 SWAP5 POP POP POP PUSH1 0x40 SWAP2 SWAP1 SWAP2 ADD CALLDATALOAD SWAP1 JUMP JUMPDEST PUSH1 0x0 DUP1 PUSH1 0x40 DUP4 DUP6 SUB SLT ISZERO PUSH2 0x52E5 JUMPI PUSH1 0x0 DUP1 REVERT JUMPDEST DUP3 CALLDATALOAD PUSH2 0x52F0 DUP2 PUSH2 0x527C JUMP JUMPDEST SWAP5 PUSH1 0x20 SWAP4 SWAP1 SWAP4 ADD CALLDATALOAD SWAP4 POP POP POP JUMP JUMPDEST PUSH1 0x0 DUP1 PUSH1 0x0 DUP1 PUSH1 0x0 DUP1 PUSH1 0xC0 DUP8 DUP10 SUB SLT ISZERO PUSH2 0x5317 JUMPI PUSH1 0x0 DUP1 REVERT JUMPDEST DUP7 CALLDATALOAD PUSH2 0x5322 DUP2 PUSH2 0x527C JUMP JUMPDEST SWAP6 POP PUSH1 0x20 DUP8 ADD CALLDATALOAD SWAP5 POP PUSH1 0x40 DUP8 ADD CALLDATALOAD SWAP4 POP PUSH1 0x60 DUP8 ADD CALLDATALOAD PUSH2 0x5340 DUP2 PUSH2 0x527C JUMP JUMPDEST SWAP6 SWAP9 SWAP5 SWAP8 POP SWAP3 SWAP6 PUSH1 0x80 DUP2 ADD CALLDATALOAD SWAP5 PUSH1 0xA0 SWAP1 SWAP2 ADD CALLDATALOAD SWAP4 POP SWAP2 POP POP JUMP JUMPDEST PUSH1 0x0 DUP1 PUSH1 0x40 DUP4 DUP6 SUB SLT ISZERO PUSH2 0x536D JUMPI PUSH1 0x0 DUP1 REVERT JUMPDEST POP POP DUP1 CALLDATALOAD SWAP3 PUSH1 0x20 SWAP1 SWAP2 ADD CALLDATALOAD SWAP2 POP JUMP JUMPDEST DUP1 ISZERO ISZERO DUP2 EQ PUSH2 0x3D01 JUMPI PUSH1 0x0 DUP1 REVERT JUMPDEST DUP1 CALLDATALOAD PUSH2 0x2549 DUP2 PUSH2 0x537C JUMP JUMPDEST DUP1 PUSH1 0x40 DUP2 ADD DUP4 LT ISZERO PUSH2 0xA5A JUMPI PUSH1 0x0 DUP1 REVERT JUMPDEST DUP1 PUSH1 0x20 DUP2 ADD DUP4 LT ISZERO PUSH2 0xA5A JUMPI PUSH1 0x0 DUP1 REVERT JUMPDEST PUSH1 0x0 DUP1 PUSH1 0x0 DUP1 PUSH1 0x0 DUP1 PUSH1 0x0 DUP1 PUSH2 0x100 DUP10 DUP12 SUB SLT ISZERO PUSH2 0x53D4 JUMPI PUSH1 0x0 DUP1 REVERT JUMPDEST DUP9 CALLDATALOAD PUSH2 0x53DF DUP2 PUSH2 0x527C JUMP JUMPDEST SWAP8 POP PUSH1 0x20 DUP10 ADD CALLDATALOAD PUSH2 0x53EF DUP2 PUSH2 0x527C JUMP JUMPDEST SWAP7 POP PUSH1 0x40 DUP10 ADD CALLDATALOAD PUSH8 0xFFFFFFFFFFFFFFFF DUP1 DUP3 GT ISZERO PUSH2 0x540C JUMPI PUSH1 0x0 DUP1 REVERT JUMPDEST DUP2 DUP12 ADD SWAP2 POP DUP12 PUSH1 0x1F DUP4 ADD SLT PUSH2 0x5420 JUMPI PUSH1 0x0 DUP1 REVERT JUMPDEST DUP2 CALLDATALOAD DUP2 DUP2 GT ISZERO PUSH2 0x542F JUMPI PUSH1 0x0 DUP1 REVERT JUMPDEST DUP13 PUSH1 0x20 DUP3 PUSH1 0x5 SHL DUP6 ADD ADD GT ISZERO PUSH2 0x5444 JUMPI PUSH1 0x0 DUP1 REVERT JUMPDEST PUSH1 0x20 DUP4 ADD SWAP9 POP DUP1 SWAP8 POP POP POP POP PUSH2 0x545C PUSH1 0x60 DUP11 ADD PUSH2 0x538A JUMP JUMPDEST SWAP4 POP PUSH2 0x546A PUSH1 0x80 DUP11 ADD PUSH2 0x538A JUMP JUMPDEST SWAP3 POP PUSH2 0x5479 DUP11 PUSH1 0xA0 DUP12 ADD PUSH2 0x5395 JUMP JUMPDEST SWAP2 POP PUSH2 0x5488 DUP11 PUSH1 0xE0 DUP12 ADD PUSH2 0x53A6 JUMP JUMPDEST SWAP1 POP SWAP3 SWAP6 SWAP9 POP SWAP3 SWAP6 SWAP9 SWAP1 SWAP4 SWAP7 POP JUMP JUMPDEST PUSH1 0x0 DUP1 PUSH1 0x0 DUP1 PUSH1 0x80 DUP6 DUP8 SUB SLT ISZERO PUSH2 0x54AD JUMPI PUSH1 0x0 DUP1 REVERT JUMPDEST DUP5 CALLDATALOAD PUSH2 0x54B8 DUP2 PUSH2 0x527C JUMP JUMPDEST SWAP4 POP PUSH1 0x20 DUP6 ADD CALLDATALOAD PUSH2 0x54C8 DUP2 PUSH2 0x527C JUMP JUMPDEST SWAP4 SWAP7 SWAP4 SWAP6 POP POP POP POP PUSH1 0x40 DUP3 ADD CALLDATALOAD SWAP2 PUSH1 0x60 ADD CALLDATALOAD SWAP1 JUMP JUMPDEST PUSH1 0x0 PUSH1 0x20 DUP3 DUP5 SUB SLT ISZERO PUSH2 0x54EF JUMPI PUSH1 0x0 DUP1 REVERT JUMPDEST DUP2 CALLDATALOAD PUSH2 0x9FE DUP2 PUSH2 0x527C JUMP JUMPDEST PUSH1 0x0 PUSH1 0x20 DUP3 DUP5 SUB SLT ISZERO PUSH2 0x550C JUMPI PUSH1 0x0 DUP1 REVERT JUMPDEST POP CALLDATALOAD SWAP2 SWAP1 POP JUMP JUMPDEST PUSH4 0x4E487B71 PUSH1 0xE0 SHL PUSH1 0x0 MSTORE PUSH1 0x41 PUSH1 0x4 MSTORE PUSH1 0x24 PUSH1 0x0 REVERT JUMPDEST PUSH1 0x0 DUP1 PUSH1 0x0 PUSH1 0xC0 DUP5 DUP7 SUB SLT ISZERO PUSH2 0x553E JUMPI PUSH1 0x0 DUP1 REVERT JUMPDEST DUP5 PUSH1 0x1F DUP6 ADD SLT PUSH2 0x554D JUMPI PUSH1 0x0 DUP1 REVERT JUMPDEST PUSH1 0x40 MLOAD PUSH1 0x80 DUP2 ADD DUP2 DUP2 LT PUSH8 0xFFFFFFFFFFFFFFFF DUP3 GT OR ISZERO PUSH2 0x5570 JUMPI PUSH2 0x5570 PUSH2 0x5513 JUMP JUMPDEST PUSH1 0x40 MSTORE DUP1 PUSH1 0x80 DUP7 ADD DUP8 DUP2 GT ISZERO PUSH2 0x5585 JUMPI PUSH1 0x0 DUP1 REVERT JUMPDEST DUP7 JUMPDEST DUP2 DUP2 LT ISZERO PUSH2 0x559F JUMPI DUP1 CALLDATALOAD DUP4 MSTORE PUSH1 0x20 SWAP3 DUP4 ADD SWAP3 ADD PUSH2 0x5587 JUMP JUMPDEST POP SWAP2 SWAP8 SWAP2 CALLDATALOAD SWAP7 POP POP PUSH1 0xA0 SWAP5 SWAP1 SWAP5 ADD CALLDATALOAD SWAP4 SWAP3 POP POP POP JUMP JUMPDEST PUSH1 0x0 DUP2 MLOAD DUP1 DUP5 MSTORE PUSH1 0x20 DUP1 DUP6 ADD SWAP5 POP DUP1 DUP5 ADD PUSH1 0x0 JUMPDEST DUP4 DUP2 LT ISZERO PUSH2 0x55EE JUMPI DUP2 MLOAD PUSH1 0x1 PUSH1 0x1 PUSH1 0xA0 SHL SUB AND DUP8 MSTORE SWAP6 DUP3 ADD SWAP6 SWAP1 DUP3 ADD SWAP1 PUSH1 0x1 ADD PUSH2 0x55C9 JUMP JUMPDEST POP SWAP5 SWAP6 SWAP5 POP POP POP POP POP JUMP JUMPDEST PUSH1 0x20 DUP2 MSTORE PUSH1 0x0 PUSH2 0x9FE PUSH1 0x20 DUP4 ADD DUP5 PUSH2 0x55B5 JUMP JUMPDEST PUSH1 0x40 DUP2 MSTORE PUSH1 0x0 PUSH2 0x561F PUSH1 0x40 DUP4 ADD DUP6 PUSH2 0x55B5 JUMP JUMPDEST DUP3 DUP2 SUB PUSH1 0x20 DUP5 DUP2 ADD SWAP2 SWAP1 SWAP2 MSTORE DUP5 MLOAD DUP1 DUP4 MSTORE DUP6 DUP3 ADD SWAP3 DUP3 ADD SWAP1 PUSH1 0x0 JUMPDEST DUP2 DUP2 LT ISZERO PUSH2 0x5656 JUMPI DUP5 MLOAD DUP4 MSTORE SWAP4 DUP4 ADD SWAP4 SWAP2 DUP4 ADD SWAP2 PUSH1 0x1 ADD PUSH2 0x563A JUMP JUMPDEST POP SWAP1 SWAP8 SWAP7 POP POP POP POP POP POP POP JUMP JUMPDEST PUSH1 0x0 DUP1 PUSH1 0xE0 DUP4 DUP6 SUB SLT ISZERO PUSH2 0x5676 JUMPI PUSH1 0x0 DUP1 REVERT JUMPDEST PUSH1 0x60 DUP4 ADD DUP5 DUP2 GT ISZERO PUSH2 0x5687 JUMPI PUSH1 0x0 DUP1 REVERT JUMPDEST DUP4 SWAP3 POP DUP5 PUSH1 0xE0 DUP6 ADD GT ISZERO PUSH2 0x569A JUMPI PUSH1 0x0 DUP1 REVERT JUMPDEST DUP1 SWAP2 POP POP SWAP3 POP SWAP3 SWAP1 POP JUMP JUMPDEST PUSH1 0x0 DUP1 PUSH1 0x40 DUP4 DUP6 SUB SLT ISZERO PUSH2 0x56B8 JUMPI PUSH1 0x0 DUP1 REVERT JUMPDEST DUP3 CALLDATALOAD PUSH2 0x56C3 DUP2 PUSH2 0x527C JUMP JUMPDEST SWAP2 POP PUSH1 0x20 DUP4 ADD CALLDATALOAD PUSH2 0x569A DUP2 PUSH2 0x527C JUMP JUMPDEST PUSH1 0x20 DUP1 DUP3 MSTORE PUSH1 0xB SWAP1 DUP3 ADD MSTORE PUSH11 0x4552525F5245454E545259 PUSH1 0xA8 SHL PUSH1 0x40 DUP3 ADD MSTORE PUSH1 0x60 ADD SWAP1 JUMP JUMPDEST PUSH4 0x4E487B71 PUSH1 0xE0 SHL PUSH1 0x0 MSTORE PUSH1 0x11 PUSH1 0x4 MSTORE PUSH1 0x24 PUSH1 0x0 REVERT JUMPDEST PUSH1 0x0 DUP2 PUSH1 0x0 NOT DIV DUP4 GT DUP3 ISZERO ISZERO AND ISZERO PUSH2 0x5728 JUMPI PUSH2 0x5728 PUSH2 0x56F8 JUMP JUMPDEST POP MUL SWAP1 JUMP JUMPDEST PUSH1 0x20 DUP1 DUP3 MSTORE PUSH1 0x11 SWAP1 DUP3 ADD MSTORE PUSH17 0x11549497D393D517D19253905312569151 PUSH1 0x7A SHL PUSH1 0x40 DUP3 ADD MSTORE PUSH1 0x60 ADD SWAP1 JUMP JUMPDEST PUSH1 0x20 DUP1 DUP3 MSTORE PUSH1 0xD SWAP1 DUP3 ADD MSTORE PUSH13 0x11549497D31253525517D3D555 PUSH1 0x9A SHL PUSH1 0x40 DUP3 ADD MSTORE PUSH1 0x60 ADD SWAP1 JUMP JUMPDEST PUSH4 0x4E487B71 PUSH1 0xE0 SHL PUSH1 0x0 MSTORE PUSH1 0x12 PUSH1 0x4 MSTORE PUSH1 0x24 PUSH1 0x0 REVERT JUMPDEST PUSH1 0x0 DUP3 PUSH2 0x57A4 JUMPI PUSH2 0x57A4 PUSH2 0x577F JUMP JUMPDEST POP DIV SWAP1 JUMP JUMPDEST PUSH1 0x0 DUP3 NOT DUP3 GT ISZERO PUSH2 0x57BC JUMPI PUSH2 0x57BC PUSH2 0x56F8 JUMP JUMPDEST POP ADD SWAP1 JUMP JUMPDEST PUSH1 0x0 PUSH1 0x20 DUP3 DUP5 SUB SLT ISZERO PUSH2 0x57D3 JUMPI PUSH1 0x0 DUP1 REVERT JUMPDEST DUP2 MLOAD PUSH2 0x9FE DUP2 PUSH2 0x537C JUMP JUMPDEST PUSH1 0x20 DUP1 DUP3 MSTORE PUSH1 0xB SWAP1 DUP3 ADD MSTORE PUSH11 0x4552525F4D494E5F464545 PUSH1 0xA8 SHL PUSH1 0x40 DUP3 ADD MSTORE PUSH1 0x60 ADD SWAP1 JUMP JUMPDEST PUSH1 0x20 DUP1 DUP3 MSTORE PUSH1 0xB SWAP1 DUP3 ADD MSTORE PUSH11 0x4552525F4D41585F464545 PUSH1 0xA8 SHL PUSH1 0x40 DUP3 ADD MSTORE PUSH1 0x60 ADD SWAP1 JUMP JUMPDEST PUSH1 0x1 PUSH1 0x1 PUSH1 0xA0 SHL SUB SWAP4 DUP5 AND DUP2 MSTORE SWAP2 SWAP1 SWAP3 AND PUSH1 0x20 DUP3 ADD MSTORE PUSH1 0x40 DUP2 ADD SWAP2 SWAP1 SWAP2 MSTORE PUSH1 0x60 ADD SWAP1 JUMP JUMPDEST PUSH4 0x4E487B71 PUSH1 0xE0 SHL PUSH1 0x0 MSTORE PUSH1 0x32 PUSH1 0x4 MSTORE PUSH1 0x24 PUSH1 0x0 REVERT JUMPDEST PUSH1 0x0 PUSH1 0x20 DUP3 DUP5 SUB SLT ISZERO PUSH2 0x5874 JUMPI PUSH1 0x0 DUP1 REVERT JUMPDEST POP MLOAD SWAP2 SWAP1 POP JUMP JUMPDEST PUSH1 0x0 PUSH1 0x0 NOT DUP3 EQ ISZERO PUSH2 0x588F JUMPI PUSH2 0x588F PUSH2 0x56F8 JUMP JUMPDEST POP PUSH1 0x1 ADD SWAP1 JUMP JUMPDEST PUSH1 0x0 PUSH1 0x20 DUP3 DUP5 SUB SLT ISZERO PUSH2 0x58A8 JUMPI PUSH1 0x0 DUP1 REVERT JUMPDEST DUP2 MLOAD PUSH2 0x9FE DUP2 PUSH2 0x527C JUMP JUMPDEST PUSH1 0x0 DUP3 DUP3 LT ISZERO PUSH2 0x58C5 JUMPI PUSH2 0x58C5 PUSH2 0x56F8 JUMP JUMPDEST POP SUB SWAP1 JUMP JUMPDEST PUSH1 0x20 DUP1 DUP3 MSTORE PUSH1 0xF SWAP1 DUP3 ADD MSTORE PUSH15 0x8AA4A4BE9A82A890BE82A0A0A49EB PUSH1 0x8B SHL PUSH1 0x40 DUP3 ADD MSTORE PUSH1 0x60 ADD SWAP1 JUMP JUMPDEST PUSH1 0x0 DUP3 PUSH2 0x5902 JUMPI PUSH2 0x5902 PUSH2 0x577F JUMP JUMPDEST POP MOD SWAP1 JUMP JUMPDEST PUSH1 0x0 DUP3 MLOAD PUSH2 0x5919 DUP2 DUP5 PUSH1 0x20 DUP8 ADD PUSH2 0x521D JUMP JUMPDEST SWAP2 SWAP1 SWAP2 ADD SWAP3 SWAP2 POP POP JUMP INVALID ISZERO 0xA8 0xCA PUSH4 0xE37B2CFF AND PUSH24 0xDF2B6B82D36FCF8A524228BD7A4B4D02D107C28C1E8A8C5B 0xE1 0xE5 0xEB 0xEC PUSH30 0x5BD14F71427D1E84F3DD0314C0F7B2291E5B200AC8C7C3B925A264697066 PUSH20 0x5822122049CF762B073C842E87B02787CA6EC527 STATICCALL MLOAD DUP12 0xEC 0x27 0xBF MLOAD DUP2 0x23 PUSH13 0x5993F2B3FF8464736F6C634300 ADDMOD 0xC STOP CALLER ",
  "sha1": "1fe2073e7c4cbbb33081161f5b2e7f048462f858",
  "source": "pragma solidity 0.8.12;\n// Copyright Balancer, BigchainDB GmbH and Ocean Protocol contributors\n// SPDX-License-Identifier: (Apache-2.0 AND CC-BY-4.0)\n// Code is Apache-2.0 and docs are CC-BY-4.0\n\nimport \"./BToken.sol\";\nimport \"./BMath.sol\";\nimport \"../../interfaces/IPool.sol\";\nimport \"../../interfaces/ISideStaking.sol\";\nimport \"../../utils/SafeERC20.sol\";\n\n\n/**\n * @title BPool\n *\n * @dev Used by the (Ocean version) BFactory contract as a bytecode reference to\n *      deploy new BPools.\n *\n * This contract is a friendly fork of Balancer [1]\n *  [1] https://github.com/balancer-labs/balancer-core/contracts/.\n\n * All fees are expressed in wei.  Examples:\n *  (1e17 = 10 % , 1e16 = 1% , 1e15 = 0.1%, 1e14 = 0.01%)\n */\ncontract BPool is BMath, BToken, IPool {\n    using SafeERC20 for IERC20;\n    struct Record {\n        bool bound; // is token bound to pool\n        uint256 index; // private\n        uint256 denorm; // denormalized weight\n        uint256 balance;\n    }\n\n    event LOG_SWAP(\n        address indexed caller,\n        address indexed tokenIn,\n        address indexed tokenOut,\n        uint256 tokenAmountIn,\n        uint256 tokenAmountOut,\n        uint256 timestamp,\n        uint256 inBalance,\n        uint256 outBalance,\n        uint256 newSpotPrice\n    );\n\n    event LOG_JOIN(\n        address indexed caller,\n        address indexed tokenIn,\n        uint256 tokenAmountIn,\n        uint256 timestamp\n    );\n    event LOG_SETUP(\n        address indexed caller,\n        address indexed baseToken,\n        uint256 baseTokenAmountIn,\n        uint256 baseTokenWeight,\n        address indexed datatoken,\n        uint256 datatokenAmountIn,\n        uint256 datatokenWeight\n    );\n\n    event LOG_EXIT(\n        address indexed caller,\n        address indexed tokenOut,\n        uint256 tokenAmountOut,\n        uint256 timestamp\n    );\n\n    event LOG_CALL(\n        bytes4 indexed sig,\n        address indexed caller,\n        uint256 timestamp,\n        bytes data\n    );\n\n    event LOG_BPT(uint256 bptAmount);\n    event LOG_BPT_SS(uint256 bptAmount); //emitted for SS contract\n\n    event OPCFee(\n        address caller,\n        address OPCWallet,\n        address token,\n        uint256 amount\n    );\n    event SwapFeeChanged(address caller, uint256 amount);\n    event PublishMarketFee(\n        address caller,\n        address marketAddress,\n        address token,\n        uint256 amount\n    );\n    // emited for fees sent to consumeMarket\n    event ConsumeMarketFee(address to, address token, uint256 amount);\n    event SWAP_FEES(uint LPFeeAmount, uint oceanFeeAmount, uint marketFeeAmount,\n        uint consumeMarketFeeAmount, address tokenFeeAddress);\n    //emitted for every change done by publisherMarket\n    event PublishMarketFeeChanged(address caller, address newMarketCollector, uint256 swapFee);\n    event Gulped(address token, uint256 oldBalance, uint256 newBalance);\n    modifier _lock_() {\n        require(!_mutex, \"ERR_REENTRY\");\n        _mutex = true;\n        _;\n        _mutex = false;\n    }\n\n    modifier _viewlock_() {\n        require(!_mutex, \"ERR_REENTRY\");\n        _;\n    }\n\n    bool private _mutex;\n\n    address private _controller; // has CONTROL role\n    bool private _publicSwap; // true if PUBLIC can call SWAP functions\n\n    //address public _publishMarketCollector;\n    address public _publishMarketCollector;\n    // `setSwapFee` and `finalize` require CONTROL\n    // `finalize` sets `PUBLIC can SWAP`, `PUBLIC can JOIN`\n    bool private _finalized;\n\n    address[] private _tokens;\n    mapping(address => Record) private _records;\n    uint256 private _totalWeight;\n    ISideStaking ssContract;\n\n    //-----------------------------------------------------------------------\n    //Proxy contract functionality: begin\n    bool private initialized;\n\n    /**\n     * @dev getId\n     *      Return template id in case we need different ABIs. \n     *      If you construct your own template, please make sure to change the hardcoded value\n     */\n    function getId() pure public returns (uint8) {\n        return 1;\n    }\n\n    function isInitialized() external view returns (bool) {\n        return initialized;\n    }\n\n    // Called prior to contract initialization (e.g creating new BPool instance)\n    // Calls private _initialize function. Only if contract is not initialized.\n    function initialize(\n        address controller,\n        address factory,\n        uint256[] calldata swapFees,\n        bool publicSwap,\n        bool finalized,\n        address[2] calldata tokens,\n        address[1] calldata feeCollectors\n    ) external returns (bool) {\n        require(!initialized, \"ERR_ALREADY_INITIALIZED\");\n        require(controller != address(0), \"ERR_INVALID_CONTROLLER_ADDRESS\");\n        require(factory != address(0), \"ERR_INVALID_FACTORY_ADDRESS\");\n        require(swapFees[0] >= MIN_FEE, \"ERR_MIN_FEE\");\n        require(swapFees[0] <= MAX_FEE, \"ERR_MAX_FEE\");\n        require(swapFees[1] == 0 || swapFees[1]>= MIN_FEE, \"ERR_MIN_FEE\");\n        require(swapFees[1] <= MAX_FEE, \"ERR_MAX_FEE\");\n        return\n            _initialize(\n                controller,\n                factory,\n                swapFees,\n                publicSwap,\n                finalized,\n                tokens,\n                feeCollectors\n            );\n    }\n\n    // Private function called on contract initialization.\n    function _initialize(\n        address controller,\n        address factory,\n        uint256[] memory swapFees,\n        bool publicSwap,\n        bool finalized,\n        address[2] memory tokens,\n        address[1] memory feeCollectors\n    ) private returns (bool) {\n        _controller = controller;\n        _factory = factory;\n        _swapFee = swapFees[0];\n        emit SwapFeeChanged(msg.sender, _swapFee);\n        _swapPublishMarketFee = swapFees[1];\n        _publicSwap = publicSwap;\n        _finalized = finalized;\n        _datatokenAddress = tokens[0];\n        _baseTokenAddress = tokens[1];\n        _publishMarketCollector = feeCollectors[0];\n        emit PublishMarketFeeChanged(msg.sender, _publishMarketCollector, _swapPublishMarketFee);\n        initialized = true;\n        ssContract = ISideStaking(_controller);\n        return initialized;\n    }\n\n    \n    /**\n     * @dev setup\n     *      Initial setup of the pool\n     *      Can be called only by the controller\n     * @param datatokenAddress datatokenAddress\n     * @param datatokenAmount how many datatokens in the initial reserve\n     * @param datatokenWeight datatoken weight (hardcoded in deployer at 50%)\n     * @param baseTokenAddress base token\n     * @param baseTokenAmount how many basetokens in the initial reserve\n     * @param baseTokenWeight base weight (hardcoded in deployer at 50%)\n     */\n    function setup(\n        address datatokenAddress,\n        uint256 datatokenAmount,\n        uint256 datatokenWeight,\n        address baseTokenAddress,\n        uint256 baseTokenAmount,\n        uint256 baseTokenWeight\n    ) external _lock_ {\n        require(msg.sender == _controller, \"ERR_INVALID_CONTROLLER\");\n        require(\n            datatokenAddress == _datatokenAddress,\n            \"ERR_INVALID_DATATOKEN_ADDRESS\"\n        );\n        require(\n            baseTokenAddress == _baseTokenAddress,\n            \"ERR_INVALID_baseToken_ADDRESS\"\n        );\n        // other inputs will be validated prior\n        // calling the below functions\n        // bind datatoken\n        bind(datatokenAddress, datatokenAmount, datatokenWeight);\n        emit LOG_JOIN(\n            msg.sender,\n            datatokenAddress,\n            datatokenAmount,\n            block.timestamp\n        );\n\n        // bind baseToken\n        bind(baseTokenAddress, baseTokenAmount, baseTokenWeight);\n        emit LOG_JOIN(\n            msg.sender,\n            baseTokenAddress,\n            baseTokenAmount,\n            block.timestamp\n        );\n        // finalize\n        finalize();\n        emit LOG_SETUP(\n            msg.sender,\n            baseTokenAddress,\n            baseTokenAmount,\n            baseTokenWeight,\n            datatokenAddress,\n            datatokenAmount,\n            datatokenWeight\n        );\n    }\n\n    //Proxy contract functionality: end\n    //-----------------------------------------------------------------------\n    /**\n     * @dev isPublicSwap\n     *      Returns true if swapping is allowed\n     */\n    function isPublicSwap() external view returns (bool) {\n        return _publicSwap;\n    }\n    /**\n     * @dev isFinalized\n     *      Returns true if pool is finalized\n     */\n    function isFinalized() external view returns (bool) {\n        return _finalized;\n    }\n\n    /**\n     * @dev isBound\n     *      Returns true if token is bound\n     * @param t token to be checked\n     */\n    function isBound(address t) external view returns (bool) {\n        return _records[t].bound;\n    }\n\n    function _checkBound(address token) internal view {\n        require(_records[token].bound, \"ERR_NOT_BOUND\");\n    }\n\n    /**\n     * @dev getNumTokens\n     *      Returns number of tokens bounded to pool\n     */\n    function getNumTokens() external view returns (uint256) {\n        return _tokens.length;\n    }\n\n    /**\n     * @dev getCurrentTokens\n     *      Returns tokens bounded to pool, before the pool is finalized\n     */\n    function getCurrentTokens()\n        external\n        view\n        _viewlock_\n        returns (address[] memory tokens)\n    {\n        return _tokens;\n    }\n\n    /**\n     * @dev getFinalTokens\n     *      Returns tokens bounded to pool, after the pool was finalized\n     */\n    function getFinalTokens()\n        public\n        view\n        _viewlock_\n        returns (address[] memory tokens)\n    {\n        require(_finalized, \"ERR_NOT_FINALIZED\");\n        return _tokens;\n    }\n\n    /**\n     * @dev collectOPC\n     *      Collects and send all OPC Fees to _opcCollector.\n     *      This funtion can be called by anyone, because fees are being sent to _opcCollector\n     */\n    function collectOPC() external {\n        address[] memory tokens = getFinalTokens();\n        for (uint256 i = 0; i < tokens.length; i++) {\n            uint256 amount = communityFees[tokens[i]];\n            communityFees[tokens[i]] = 0;\n            address _opcCollector = IFactoryRouter(_factory).getOPCCollector();\n            emit OPCFee(msg.sender, _opcCollector, tokens[i], amount);\n            IERC20(tokens[i]).safeTransfer(_opcCollector, amount);\n        }\n    }\n\n    /**\n     * @dev getCurrentOPCFees\n     *      Get the current amount of fees which can be withdrawned by OPC\n     * @return address[] - array of tokens addresses\n     *         uint256[] - array of amounts\n     */\n    function getCurrentOPCFees()\n        public\n        view\n        returns (address[] memory, uint256[] memory)\n    {\n        address[] memory poolTokens = getFinalTokens();\n        address[] memory tokens = new address[](poolTokens.length);\n        uint256[] memory amounts = new uint256[](poolTokens.length);\n        for (uint256 i = 0; i < poolTokens.length; i++) {\n            tokens[i] = poolTokens[i];\n            amounts[i] = communityFees[poolTokens[i]];\n        }\n        return (tokens, amounts);\n    }\n\n    /**\n     * @dev getCurrentMarketFees\n     *      Get the current amount of fees which can be withdrawned by _publishMarketCollector\n     * @return address[] - array of tokens addresses\n     *         uint256[] - array of amounts\n     */\n    function getCurrentMarketFees()\n        public\n        view\n        returns (address[] memory, uint256[] memory)\n    {\n        address[] memory poolTokens = getFinalTokens();\n        address[] memory tokens = new address[](poolTokens.length);\n        uint256[] memory amounts = new uint256[](poolTokens.length);\n        for (uint256 i = 0; i < poolTokens.length; i++) {\n            tokens[i] = poolTokens[i];\n            amounts[i] = publishMarketFees[poolTokens[i]];\n        }\n        return (tokens, amounts);\n    }\n\n    /**\n     * @dev collectMarketFee\n     *      Collects and send all Market Fees to _publishMarketCollector.\n     *      This function can be called by anyone, because fees are being sent to _publishMarketCollector\n     */\n    function collectMarketFee() external {\n        address[] memory tokens = getFinalTokens();\n        for (uint256 i = 0; i < tokens.length; i++) {\n            uint256 amount = publishMarketFees[tokens[i]];\n            publishMarketFees[tokens[i]] = 0;\n            emit PublishMarketFee(\n                msg.sender,\n                _publishMarketCollector,\n                tokens[i],\n                amount\n            );\n            IERC20(tokens[i]).safeTransfer(_publishMarketCollector, amount);\n        }\n    }\n\n    /**\n     * @dev updatePublishMarketFee\n     *      Set _newCollector as _publishMarketCollector\n     * @param _newCollector new _publishMarketCollector\n     * @param _newSwapFee new swapFee\n     */\n    function updatePublishMarketFee(address _newCollector, uint256 _newSwapFee) external {\n        require(_publishMarketCollector == msg.sender, \"ONLY MARKET COLLECTOR\");\n        require(_newCollector != address(0), \"Invalid _newCollector address\");\n        require(_newSwapFee ==0 || _newSwapFee >= MIN_FEE, \"ERR_MIN_FEE\");\n        require(_newSwapFee <= MAX_FEE, \"ERR_MAX_FEE\");\n        _publishMarketCollector = _newCollector;\n        _swapPublishMarketFee = _newSwapFee;\n        emit PublishMarketFeeChanged(msg.sender, _publishMarketCollector, _swapPublishMarketFee);\n    }\n\n    /**\n     * @dev getDenormalizedWeight\n     *      Returns denormalized weight of a token\n     * @param token token to be checked\n     */\n    function getDenormalizedWeight(address token)\n        external\n        view\n        _viewlock_\n        returns (uint256)\n    {\n        _checkBound(token);\n        return _records[token].denorm;\n    }\n\n     /**\n     * @dev getTotalDenormalizedWeight\n     *      Returns total denormalized weught of the pool\n     */\n    function getTotalDenormalizedWeight()\n        external\n        view\n        _viewlock_\n        returns (uint256)\n    {\n        return _totalWeight;\n    }\n\n    /**\n     * @dev getNormalizedWeight\n     *      Returns normalized weight of a token\n     * @param token token to be checked\n     */\n    \n    function getNormalizedWeight(address token)\n        external\n        view\n        _viewlock_\n        returns (uint256)\n    {\n        _checkBound(token);\n        uint256 denorm = _records[token].denorm;\n        return bdiv(denorm, _totalWeight);\n    }\n\n\n    /**\n     * @dev getBalance\n     *      Returns the current token reserve amount\n     * @param token token to be checked\n     */\n    function getBalance(address token)\n        external\n        view\n        _viewlock_\n        returns (uint256)\n    {\n        _checkBound(token);\n        return _records[token].balance;\n    }\n\n    /**\n     * @dev getSwapFee\n     *      Returns the current Liquidity Providers swap fee\n     */\n    function getSwapFee() external view returns (uint256) {\n        return _swapFee;\n    }\n\n    /**\n     * @dev getMarketFee\n     *      Returns the current fee of publishingMarket\n     */\n    function getMarketFee() external view returns (uint256) {\n        return _swapPublishMarketFee;\n    }\n\n    /**\n     * @dev getController\n     *      Returns the current controller address (ssBot)\n     */\n    function getController() external view returns (address) {\n        return _controller;\n    }\n\n    /**\n     * @dev getDatatokenAddress\n     *      Returns the current datatoken address\n     */\n    function getDatatokenAddress() external view returns (address) {\n        return _datatokenAddress;\n    }\n\n    /**\n     * @dev getBaseTokenAddress\n     *      Returns the current baseToken address\n     */\n    function getBaseTokenAddress() external view returns (address) {\n        return _baseTokenAddress;\n    }\n\n\n    /**\n     * @dev setSwapFee\n     *      Allows controller to change the swapFee\n     * @param swapFee new swap fee (max 1e17 = 10 % , 1e16 = 1% , 1e15 = 0.1%, 1e14 = 0.01%)\n     */\n    function setSwapFee(uint256 swapFee) public {\n        require(msg.sender == _controller, \"ERR_NOT_CONTROLLER\");\n        require(swapFee >= MIN_FEE, \"ERR_MIN_FEE\");\n        require(swapFee <= MAX_FEE, \"ERR_MAX_FEE\");\n        _swapFee = swapFee;\n        emit SwapFeeChanged(msg.sender, swapFee);\n    }\n\n    /**\n     * @dev finalize\n     *      Finalize pool. After this,new tokens cannot be bound\n     */\n    function finalize() internal {\n        _finalized = true;\n        _publicSwap = true;\n\n        _mintPoolShare(INIT_POOL_SUPPLY);\n        _pushPoolShare(msg.sender, INIT_POOL_SUPPLY);\n    }\n\n    /**\n     * @dev bind\n     *      Bind a new token to the pool.\n     * @param token token address\n     * @param balance initial reserve\n     * @param denorm denormalized weight\n     */\n    function bind(\n        address token,\n        uint256 balance,\n        uint256 denorm\n    ) internal {\n        require(msg.sender == _controller, \"ERR_NOT_CONTROLLER\");\n        require(!_records[token].bound, \"ERR_IS_BOUND\");\n        require(!_finalized, \"ERR_IS_FINALIZED\");\n\n        require(_tokens.length < MAX_BOUND_TOKENS, \"ERR_MAX_TOKENS\");\n\n        _records[token] = Record({\n            bound: true,\n            index: _tokens.length,\n            denorm: 0, // balance and denorm will be validated\n            balance: 0 // and set by `rebind`\n        });\n        _tokens.push(token);\n        rebind(token, balance, denorm);\n    }\n\n    /**\n     * @dev rebind\n     *      Update pool reserves & weight after a token bind\n     * @param token token address\n     * @param balance initial reserve\n     * @param denorm denormalized weight\n     */\n    function rebind(\n        address token,\n        uint256 balance,\n        uint256 denorm\n    ) internal {\n        require(denorm >= MIN_WEIGHT, \"ERR_MIN_WEIGHT\");\n        require(denorm <= MAX_WEIGHT, \"ERR_MAX_WEIGHT\");\n        require(balance >= MIN_BALANCE, \"ERR_MIN_BALANCE\");\n\n        // Adjust the denorm and totalWeight\n        uint256 oldWeight = _records[token].denorm;\n        if (denorm > oldWeight) {\n            _totalWeight = badd(_totalWeight, bsub(denorm, oldWeight));\n            require(_totalWeight <= MAX_TOTAL_WEIGHT, \"ERR_MAX_TOTAL_WEIGHT\");\n        } else if (denorm < oldWeight) {\n            _totalWeight = bsub(_totalWeight, bsub(oldWeight, denorm));\n        }\n        _records[token].denorm = denorm;\n\n        // Adjust the balance record and actual token balance\n        uint256 oldBalance = _records[token].balance;\n        _records[token].balance = balance;\n        if (balance > oldBalance) {\n            _pullUnderlying(token, msg.sender, bsub(balance, oldBalance));\n        } else if (balance < oldBalance) {\n            // In this case liquidity is being withdrawn, we don't have EXIT_FEES\n            uint256 tokenBalanceWithdrawn = bsub(oldBalance, balance);\n            _pushUnderlying(\n                token,\n                msg.sender,\n                tokenBalanceWithdrawn\n            );\n        }\n    }\n\n    /**\n     * @dev getSpotPrice\n     *      Return the spot price of swapping tokenIn to tokenOut\n     * @param tokenIn in token\n     * @param tokenOut out token\n     * @param _consumeMarketSwapFee consume market swap fee \n     */\n    function getSpotPrice(\n        address tokenIn,\n        address tokenOut,\n        uint256 _consumeMarketSwapFee\n    ) external view _viewlock_ returns (uint256 spotPrice) {\n        _checkBound(tokenIn);\n        _checkBound(tokenOut);\n        Record storage inRecord = _records[tokenIn];\n        Record storage outRecord = _records[tokenOut];\n        return\n            calcSpotPrice(\n                inRecord.balance,\n                inRecord.denorm,\n                outRecord.balance,\n                outRecord.denorm,\n                _consumeMarketSwapFee\n            );\n    }\n\n    // view function used for batch buy. useful for frontend\n     /**\n     * @dev getAmountInExactOut\n     *      How many tokensIn do you need in order to get exact tokenAmountOut.\n            Returns: tokenAmountIn, LPFee, opcFee , publishMarketSwapFee, consumeMarketSwapFee\n     * @param tokenIn token to be swaped\n     * @param tokenOut token to get\n     * @param tokenAmountOut exact amount of tokenOut\n     * @param _consumeMarketSwapFee consume market swap fee\n     */\n\n    function getAmountInExactOut(\n        address tokenIn,\n        address tokenOut,\n        uint256 tokenAmountOut,\n        uint256 _consumeMarketSwapFee\n    )\n        external\n        view\n        returns (\n            // _viewlock_\n            uint256 tokenAmountIn, uint lpFeeAmount, \n            uint oceanFeeAmount, \n            uint publishMarketSwapFeeAmount,\n            uint consumeMarketSwapFeeAmount\n        )\n    {\n        _checkBound(tokenIn);\n        _checkBound(tokenOut);\n        uint256[4] memory data = [\n            _records[tokenIn].balance,\n            _records[tokenIn].denorm,\n            _records[tokenOut].balance,\n            _records[tokenOut].denorm\n        ];\n        uint tokenAmountInBalance;\n        swapfees memory _swapfees;\n        (tokenAmountIn, tokenAmountInBalance, _swapfees) =        \n            calcInGivenOut(\n                data,\n                tokenAmountOut,\n                // tokenIn,\n                _consumeMarketSwapFee\n            );\n        return(tokenAmountIn, _swapfees.LPFee, _swapfees.oceanFeeAmount, \n        _swapfees.publishMarketFeeAmount, _swapfees.consumeMarketFee);\n\n    }\n\n    // view function useful for frontend\n    /**\n     * @dev getAmountOutExactIn\n     *      How many tokensOut you will get for a exact tokenAmountIn\n            Returns: tokenAmountOut, LPFee, opcFee ,  publishMarketSwapFee, consumeMarketSwapFee\n     * @param tokenIn token to be swaped\n     * @param tokenOut token to get\n     * @param tokenAmountOut exact amount of tokenOut\n     * @param _consumeMarketSwapFee consume market swap fee\n     */\n    function getAmountOutExactIn(\n        address tokenIn,\n        address tokenOut,\n        uint256 tokenAmountIn,\n        uint256 _consumeMarketSwapFee\n    )\n        external\n        view\n        returns (\n            //  _viewlock_\n            uint256 tokenAmountOut,\n            uint lpFeeAmount, \n            uint oceanFeeAmount, \n            uint publishMarketSwapFeeAmount,\n            uint consumeMarketSwapFeeAmount\n        )\n    {\n        _checkBound(tokenIn);\n        _checkBound(tokenOut);\n        uint256[4] memory data = [\n            _records[tokenIn].balance,\n            _records[tokenIn].denorm,\n            _records[tokenOut].balance,\n            _records[tokenOut].denorm\n        ];\n        uint balanceInToAdd;\n        swapfees memory _swapfees;\n         (tokenAmountOut, balanceInToAdd, _swapfees) =        \n            calcOutGivenIn(\n                data,\n                tokenAmountIn,\n               // tokenIn,\n                _consumeMarketSwapFee\n            );\n        return(tokenAmountOut, _swapfees.LPFee, \n        _swapfees.oceanFeeAmount, _swapfees.publishMarketFeeAmount, _swapfees.consumeMarketFee);\n    }\n\n\n    /**\n     * @dev swapExactAmountIn\n     *      Swaps an exact amount of tokensIn to get a mimum amount of tokenOut\n     * @param tokenInOutMarket array of addreses: [tokenIn, tokenOut, consumeMarketFeeAddress]\n     * @param amountsInOutMaxFee array of ints: [tokenAmountIn, minAmountOut, maxPrice, consumeMarketSwapFee]\n     */\n    function swapExactAmountIn(\n        address[3] calldata tokenInOutMarket, \n        uint256[4] calldata amountsInOutMaxFee\n    ) external _lock_ returns (uint256 tokenAmountOut, uint256 spotPriceAfter) {\n        require(_finalized, \"ERR_NOT_FINALIZED\");\n        require(tokenInOutMarket[0] != tokenInOutMarket[1], 'Cannot swap same token');\n        _checkBound(tokenInOutMarket[0]);\n        _checkBound(tokenInOutMarket[1]);\n        Record storage inRecord = _records[address(tokenInOutMarket[0])];\n        Record storage outRecord = _records[address(tokenInOutMarket[1])];\n        require(amountsInOutMaxFee[3] ==0 || amountsInOutMaxFee[3] >= MIN_FEE,'ConsumeSwapFee too low');\n        require(amountsInOutMaxFee[3] <= MAX_FEE,'ConsumeSwapFee too high');\n        require(\n            amountsInOutMaxFee[0] <= bmul(inRecord.balance, MAX_IN_RATIO),\n            \"ERR_MAX_IN_RATIO\"\n        );\n\n        uint256 spotPriceBefore = calcSpotPrice(\n            inRecord.balance,\n            inRecord.denorm,\n            outRecord.balance,\n            outRecord.denorm,\n            amountsInOutMaxFee[3]\n        );\n\n        require(\n            spotPriceBefore <= amountsInOutMaxFee[2],\n            \"ERR_BAD_LIMIT_PRICE\"\n        );\n        uint256 balanceInToAdd;\n        uint256[4] memory data = [\n            inRecord.balance,\n            inRecord.denorm,\n            outRecord.balance,\n            outRecord.denorm\n        ];\n        swapfees memory _swapfees;\n        (tokenAmountOut, balanceInToAdd, _swapfees) = calcOutGivenIn(\n            data,\n            amountsInOutMaxFee[0],\n           // tokenInOutMarket[0],\n            amountsInOutMaxFee[3]\n        );\n        // update balances\n        communityFees[tokenInOutMarket[0]] = badd(communityFees[tokenInOutMarket[0]],_swapfees.oceanFeeAmount);\n        publishMarketFees[tokenInOutMarket[0]] = \n        badd(publishMarketFees[tokenInOutMarket[0]],_swapfees.publishMarketFeeAmount);\n        emit SWAP_FEES(_swapfees.LPFee, _swapfees.oceanFeeAmount,\n        _swapfees.publishMarketFeeAmount,_swapfees.consumeMarketFee, tokenInOutMarket[0]);\n        require(tokenAmountOut >= amountsInOutMaxFee[1], \"ERR_LIMIT_OUT\");\n\n        inRecord.balance = badd(inRecord.balance, balanceInToAdd);\n        outRecord.balance = bsub(outRecord.balance, tokenAmountOut);\n\n        spotPriceAfter = calcSpotPrice(\n            inRecord.balance,\n            inRecord.denorm,\n            outRecord.balance,\n            outRecord.denorm,\n            amountsInOutMaxFee[3]\n        );\n\n        require(spotPriceAfter >= spotPriceBefore, \"ERR_MATH_APPROX\");\n        require(spotPriceAfter <= amountsInOutMaxFee[2], \"ERR_LIMIT_PRICE\");\n\n        require(\n            spotPriceBefore <= bdiv(amountsInOutMaxFee[0], tokenAmountOut),\n            \"ERR_MATH_APPROX\"\n        );\n\n        emit LOG_SWAP(\n            msg.sender,\n            tokenInOutMarket[0],\n            tokenInOutMarket[1],\n            amountsInOutMaxFee[0],\n            tokenAmountOut,\n            block.timestamp,\n            inRecord.balance,\n            outRecord.balance,\n            spotPriceAfter\n\n        );\n\n        _pullUnderlying(tokenInOutMarket[0], msg.sender, amountsInOutMaxFee[0]);\n        uint256 consumeMarketFeeAmount = bsub(\n            amountsInOutMaxFee[0],\n            bmul(amountsInOutMaxFee[0], bsub(BONE, amountsInOutMaxFee[3]))\n        );\n        if (amountsInOutMaxFee[3] > 0) {\n            IERC20(tokenInOutMarket[0]).safeTransfer(\n                tokenInOutMarket[2],\n                consumeMarketFeeAmount\n            );\n            emit ConsumeMarketFee(\n                tokenInOutMarket[2],\n                tokenInOutMarket[0],\n                consumeMarketFeeAmount\n            );\n        }\n        _pushUnderlying(tokenInOutMarket[1], msg.sender, tokenAmountOut);\n\n        return (tokenAmountOut, spotPriceAfter); //returning spot price 0 because there is no public spotPrice\n    }\n\n\n    /**\n     * @dev swapExactAmountOut\n     *      Swaps a maximum  maxAmountIn of tokensIn to get an exact amount of tokenOut\n     * @param tokenInOutMarket array of addreses: [tokenIn, tokenOut, consumeMarketFeeAddress]\n     * @param amountsInOutMaxFee array of ints: [maxAmountIn,tokenAmountOut,maxPrice, consumeMarketSwapFee]\n     */\n    function swapExactAmountOut(\n        address[3] calldata tokenInOutMarket,\n        uint256[4] calldata amountsInOutMaxFee\n    ) external _lock_ returns (uint256 tokenAmountIn, uint256 spotPriceAfter) {\n        require(_finalized, \"ERR_NOT_FINALIZED\");\n        require(tokenInOutMarket[0] != tokenInOutMarket[1], 'Cannot swap same token');\n        require(amountsInOutMaxFee[3] ==0 || amountsInOutMaxFee[3] >= MIN_FEE,'ConsumeSwapFee too low');\n        require(amountsInOutMaxFee[3] <= MAX_FEE,'ConsumeSwapFee too high');\n        _checkBound(tokenInOutMarket[0]);\n        _checkBound(tokenInOutMarket[1]);\n        Record storage inRecord = _records[address(tokenInOutMarket[0])];\n        Record storage outRecord = _records[address(tokenInOutMarket[1])];\n\n        require(\n            amountsInOutMaxFee[1] <= bmul(outRecord.balance, MAX_OUT_RATIO),\n            \"ERR_MAX_OUT_RATIO\"\n        );\n\n        uint256 spotPriceBefore = calcSpotPrice(\n            inRecord.balance,\n            inRecord.denorm,\n            outRecord.balance,\n            outRecord.denorm,\n            amountsInOutMaxFee[3]\n        );\n\n        require(\n            spotPriceBefore <= amountsInOutMaxFee[2],\n            \"ERR_BAD_LIMIT_PRICE\"\n        );\n        // this is the amount we are going to register in balances\n        // (only takes account of swapFee, not OPC and market fee,\n        //in order to not affect price during following swaps, fee wtihdrawl etc)\n        uint256 balanceToAdd;\n        uint256[4] memory data = [\n            inRecord.balance,\n            inRecord.denorm,\n            outRecord.balance,\n            outRecord.denorm\n        ];\n        swapfees memory _swapfees;\n        (tokenAmountIn, balanceToAdd,\n        _swapfees) = calcInGivenOut(\n            data,\n            amountsInOutMaxFee[1],\n            //tokenInOutMarket[0],\n            amountsInOutMaxFee[3]\n        );\n        communityFees[tokenInOutMarket[0]] = badd(communityFees[tokenInOutMarket[0]],_swapfees.oceanFeeAmount);\n        publishMarketFees[tokenInOutMarket[0]] \n        = badd(publishMarketFees[tokenInOutMarket[0]],_swapfees.publishMarketFeeAmount);\n        emit SWAP_FEES(_swapfees.LPFee, _swapfees.oceanFeeAmount,\n        _swapfees.publishMarketFeeAmount,_swapfees.consumeMarketFee, tokenInOutMarket[0]);\n        require(tokenAmountIn <= amountsInOutMaxFee[0], \"ERR_LIMIT_IN\");\n\n        inRecord.balance = badd(inRecord.balance, balanceToAdd);\n        outRecord.balance = bsub(outRecord.balance, amountsInOutMaxFee[1]);\n\n        spotPriceAfter = calcSpotPrice(\n            inRecord.balance,\n            inRecord.denorm,\n            outRecord.balance,\n            outRecord.denorm,\n            amountsInOutMaxFee[3]\n        );\n\n        require(spotPriceAfter >= spotPriceBefore, \"ERR_MATH_APPROX\");\n        require(spotPriceAfter <= amountsInOutMaxFee[2], \"ERR_LIMIT_PRICE\");\n        require(\n            spotPriceBefore <= bdiv(tokenAmountIn, amountsInOutMaxFee[1]),\n            \"ERR_MATH_APPROX\"\n        );\n\n        emit LOG_SWAP(\n            msg.sender,\n            tokenInOutMarket[0],\n            tokenInOutMarket[1],\n            tokenAmountIn,\n            amountsInOutMaxFee[1],\n            block.timestamp,\n            inRecord.balance,\n            outRecord.balance,\n            spotPriceAfter\n        );\n        _pullUnderlying(tokenInOutMarket[0], msg.sender, tokenAmountIn);\n        uint256 consumeMarketFeeAmount = bsub(\n            tokenAmountIn,\n            bmul(tokenAmountIn, bsub(BONE, amountsInOutMaxFee[3]))\n        );\n        if (amountsInOutMaxFee[3] > 0) {\n            IERC20(tokenInOutMarket[0]).safeTransfer(\n                tokenInOutMarket[2],// market address\n                consumeMarketFeeAmount\n            );\n            emit ConsumeMarketFee(\n                tokenInOutMarket[2], // to (market address)\n                tokenInOutMarket[0], // token\n                consumeMarketFeeAmount\n            );\n        }\n        _pushUnderlying(tokenInOutMarket[1], msg.sender, amountsInOutMaxFee[1]);\n        return (tokenAmountIn, spotPriceAfter);\n    }\n\n    /**\n     * @dev joinswapExternAmountIn\n     *      Single side add liquidity to the pool,\n     *      expecting a minPoolAmountOut of shares for spending tokenAmountIn basetokens\n     * @param tokenAmountIn exact number of base tokens to spend\n     * @param minPoolAmountOut minimum of pool shares expectex\n     */\n    function joinswapExternAmountIn(\n        uint256 tokenAmountIn,\n        uint256 minPoolAmountOut\n    ) external _lock_ returns (uint256 poolAmountOut) {\n        //tokenIn = _baseTokenAddress;\n        require(_finalized, \"ERR_NOT_FINALIZED\");\n        _checkBound(_baseTokenAddress);\n        require(\n            tokenAmountIn <= bmul(_records[_baseTokenAddress].balance, MAX_IN_RATIO),\n            \"ERR_MAX_IN_RATIO\"\n        );\n        //ask ssContract\n        Record storage inRecord = _records[_baseTokenAddress];\n\n        poolAmountOut = calcPoolOutGivenSingleIn(\n            inRecord.balance,\n            _totalSupply,\n            tokenAmountIn\n        );\n\n        require(poolAmountOut >= minPoolAmountOut, \"ERR_LIMIT_OUT\");\n\n        inRecord.balance = badd(inRecord.balance, tokenAmountIn);\n        emit LOG_JOIN(msg.sender, _baseTokenAddress, tokenAmountIn, block.timestamp);\n        emit LOG_BPT(poolAmountOut);\n\n        \n\n        //ask the ssContract to stake as well\n        //calculate how much should the 1ss stake\n        Record storage ssInRecord = _records[_datatokenAddress];\n        uint256 ssAmountIn = calcSingleInGivenPoolOut(\n            ssInRecord.balance,\n            _totalSupply,\n            poolAmountOut\n        );\n        if (ssContract.canStake(_datatokenAddress, ssAmountIn)) {\n            \n            //call 1ss to approve\n            ssContract.Stake(_datatokenAddress, ssAmountIn);\n            // follow the same path\n            ssInRecord.balance = badd(ssInRecord.balance, ssAmountIn);\n            emit LOG_JOIN(\n                _controller,\n                _datatokenAddress,\n                ssAmountIn,\n                block.timestamp\n            );\n            emit LOG_BPT_SS(poolAmountOut);\n            _mintPoolShare(poolAmountOut);\n            _pushPoolShare(_controller, poolAmountOut);\n            _pullUnderlying(_datatokenAddress, _controller, ssAmountIn);\n            \n        }\n        _mintPoolShare(poolAmountOut);\n        _pushPoolShare(msg.sender, poolAmountOut);\n        _pullUnderlying(_baseTokenAddress, msg.sender, tokenAmountIn);\n        return poolAmountOut;\n    }\n\n    \n    /**\n     * @dev exitswapPoolAmountIn\n     *      Single side remove liquidity from the pool,\n     *      expecting a minAmountOut of basetokens for spending poolAmountIn pool shares\n     * @param poolAmountIn exact number of pool shares to spend\n     * @param minAmountOut minimum amount of basetokens expected\n     */\n    function exitswapPoolAmountIn(\n        uint256 poolAmountIn,\n        uint256 minAmountOut\n    ) external _lock_ returns (uint256 tokenAmountOut) {\n        //tokenOut = _baseTokenAddress;\n        require(_finalized, \"ERR_NOT_FINALIZED\");\n        _checkBound(_baseTokenAddress);\n\n        Record storage outRecord = _records[_baseTokenAddress];\n\n        tokenAmountOut = calcSingleOutGivenPoolIn(\n            outRecord.balance,\n            _totalSupply,\n            poolAmountIn\n        );\n        require(tokenAmountOut >= minAmountOut, \"ERR_LIMIT_OUT\");\n\n        require(\n            tokenAmountOut <= bmul(_records[_baseTokenAddress].balance, MAX_OUT_RATIO),\n            \"ERR_MAX_OUT_RATIO\"\n        );\n\n        outRecord.balance = bsub(outRecord.balance, tokenAmountOut);\n\n        //uint256 exitFee = bmul(poolAmountIn, EXIT_FEE);\n        emit LOG_EXIT(msg.sender, _baseTokenAddress, tokenAmountOut, block.timestamp);\n        emit LOG_BPT(poolAmountIn);\n\n        //ask the ssContract to unstake as well\n        //calculate how much should the 1ss unstake\n        \n        if (\n            ssContract.canUnStake(_datatokenAddress, poolAmountIn)\n        ) {\n            Record storage ssOutRecord = _records[_datatokenAddress];\n            uint256 ssAmountOut = calcSingleOutGivenPoolIn(\n                ssOutRecord.balance,\n                _totalSupply,\n                poolAmountIn\n            );\n\n            ssOutRecord.balance = bsub(ssOutRecord.balance, ssAmountOut);\n            //exitFee = bmul(poolAmountIn, EXIT_FEE);\n            emit LOG_EXIT(\n                _controller,\n                _datatokenAddress,\n                ssAmountOut,\n                block.timestamp\n            );\n            _pullPoolShare(_controller, poolAmountIn);\n            //_burnPoolShare(bsub(poolAmountIn, exitFee));\n            _burnPoolShare(poolAmountIn);\n            //_pushPoolShare(_factory, exitFee);\n            _pushUnderlying(_datatokenAddress, _controller, ssAmountOut);\n            //call unstake on 1ss to do cleanup on their side\n            ssContract.UnStake(\n                _datatokenAddress,\n                ssAmountOut,\n                poolAmountIn\n            );\n            emit LOG_BPT_SS(poolAmountIn);\n        }\n        \n        _pullPoolShare(msg.sender, poolAmountIn);\n        //_burnPoolShare(bsub(poolAmountIn, exitFee));\n        _burnPoolShare(poolAmountIn);\n        //_pushPoolShare(_factory, exitFee);\n        _pushUnderlying(_baseTokenAddress, msg.sender, tokenAmountOut);\n        return tokenAmountOut;\n    }\n\n    \n\n    /**\n     * @dev calcSingleOutPoolIn\n     *      Returns expected amount of tokenOut for removing exact poolAmountIn pool shares from the pool\n     * @param tokenOut tokenOut\n     * @param poolAmountIn amount of shares spent\n     */\n    function calcSingleOutPoolIn(address tokenOut, uint256 poolAmountIn)\n        external\n        view\n        returns (uint256 tokenAmountOut)\n    {\n        Record memory outRecord = _records[tokenOut];\n\n        tokenAmountOut = calcSingleOutGivenPoolIn(\n            outRecord.balance,\n            _totalSupply,\n            poolAmountIn\n        );\n\n        return tokenAmountOut;\n    }\n\n    /**\n     * @dev calcPoolInSingleOut\n     *      Returns number of poolshares needed to withdraw exact tokenAmountOut tokens\n     * @param tokenOut tokenOut\n     * @param tokenAmountOut expected amount of tokensOut\n     */\n    function calcPoolInSingleOut(address tokenOut, uint256 tokenAmountOut)\n        external\n        view\n        returns (uint256 poolAmountIn)\n    {\n        Record memory outRecord = _records[tokenOut];\n\n        poolAmountIn = calcPoolInGivenSingleOut(\n            outRecord.balance,\n            _totalSupply,\n            tokenAmountOut\n        );\n        return poolAmountIn;\n    }\n\n    /**\n     * @dev calcSingleInPoolOut\n     *      Returns number of tokens to be staked to the pool in order to get an exact number of poolshares\n     * @param tokenIn tokenIn\n     * @param poolAmountOut expected amount of pool shares\n     */\n    function calcSingleInPoolOut(address tokenIn, uint256 poolAmountOut)\n        external\n        view\n        returns (uint256 tokenAmountIn)\n    {\n        Record memory inRecord = _records[tokenIn];\n\n        tokenAmountIn = calcSingleInGivenPoolOut(\n            inRecord.balance,\n            _totalSupply,\n            poolAmountOut\n        );\n\n        return tokenAmountIn;\n    }\n\n    /**\n     * @dev calcPoolOutSingleIn\n     *      Returns number of poolshares obtain by staking exact tokenAmountIn tokens\n     * @param tokenIn tokenIn\n     * @param tokenAmountIn exact number of tokens staked\n     */\n    function calcPoolOutSingleIn(address tokenIn, uint256 tokenAmountIn)\n        external\n        view\n        returns (uint256 poolAmountOut)\n    {\n        Record memory inRecord = _records[tokenIn];\n\n        poolAmountOut = calcPoolOutGivenSingleIn(\n            inRecord.balance,\n            _totalSupply,\n            tokenAmountIn\n        );\n\n        return poolAmountOut;\n    }\n\n\n    // Internal functions below\n\n    // ==\n    // 'Underlying' token-manipulation functions make external calls but are NOT locked\n    // You must `_lock_` or otherwise ensure reentry-safety\n    function _pullUnderlying(\n        address erc20,\n        address from,\n        uint256 amount\n    ) internal {\n        uint256 balanceBefore = IERC20(erc20).balanceOf(address(this));\n        IERC20(erc20).safeTransferFrom(from, address(this), amount);\n        require(IERC20(erc20).balanceOf(address(this)) >= balanceBefore + amount,\n                    \"Transfer amount is too low\");\n        //require(xfer, \"ERR_ERC20_FALSE\");\n    }\n\n    function _pushUnderlying(\n        address erc20,\n        address to,\n        uint256 amount\n    ) internal {\n        IERC20(erc20).safeTransfer(to, amount);\n        //require(xfer, \"ERR_ERC20_FALSE\");\n    }\n\n    function _pullPoolShare(address from, uint256 amount) internal {\n        _pull(from, amount);\n    }\n\n    function _pushPoolShare(address to, uint256 amount) internal {\n        _push(to, amount);\n    }\n\n    function _mintPoolShare(uint256 amount) internal {\n        _mint(amount);\n    }\n\n    function _burnPoolShare(uint256 amount) internal {\n        _burn(amount);\n    }\n\n    // Absorb any tokens that have been sent to this contract into the pool\n    function gulp(address token)\n        external\n        _lock_\n    {\n        require(_records[token].bound, \"ERR_NOT_BOUND\");\n        uint256 oldBalance = _records[token].balance;\n        _records[token].balance = IERC20(token).balanceOf(address(this));\n        emit Gulped(token,oldBalance, _records[token].balance);\n    }\n}",
  "sourcePath": "contracts/oceanv4/pools/balancer/BPool.sol",
  "type": "contract"
}