{
  "abi": [
    {
      "anonymous": false,
      "inputs": [
        {
          "indexed": true,
          "internalType": "address",
          "name": "src",
          "type": "address"
        },
        {
          "indexed": true,
          "internalType": "address",
          "name": "dst",
          "type": "address"
        },
        {
          "indexed": false,
          "internalType": "uint256",
          "name": "amt",
          "type": "uint256"
        }
      ],
      "name": "Approval",
      "type": "event"
    },
    {
      "anonymous": false,
      "inputs": [
        {
          "indexed": true,
          "internalType": "address",
          "name": "src",
          "type": "address"
        },
        {
          "indexed": true,
          "internalType": "address",
          "name": "dst",
          "type": "address"
        },
        {
          "indexed": false,
          "internalType": "uint256",
          "name": "amt",
          "type": "uint256"
        }
      ],
      "name": "Transfer",
      "type": "event"
    },
    {
      "inputs": [],
      "name": "BONE",
      "outputs": [
        {
          "internalType": "uint256",
          "name": "",
          "type": "uint256"
        }
      ],
      "stateMutability": "view",
      "type": "function"
    },
    {
      "inputs": [],
      "name": "BPOW_PRECISION",
      "outputs": [
        {
          "internalType": "uint256",
          "name": "",
          "type": "uint256"
        }
      ],
      "stateMutability": "view",
      "type": "function"
    },
    {
      "inputs": [],
      "name": "EXIT_FEE",
      "outputs": [
        {
          "internalType": "uint256",
          "name": "",
          "type": "uint256"
        }
      ],
      "stateMutability": "view",
      "type": "function"
    },
    {
      "inputs": [],
      "name": "INIT_POOL_SUPPLY",
      "outputs": [
        {
          "internalType": "uint256",
          "name": "",
          "type": "uint256"
        }
      ],
      "stateMutability": "view",
      "type": "function"
    },
    {
      "inputs": [],
      "name": "MAX_BOUND_TOKENS",
      "outputs": [
        {
          "internalType": "uint256",
          "name": "",
          "type": "uint256"
        }
      ],
      "stateMutability": "view",
      "type": "function"
    },
    {
      "inputs": [],
      "name": "MAX_BPOW_BASE",
      "outputs": [
        {
          "internalType": "uint256",
          "name": "",
          "type": "uint256"
        }
      ],
      "stateMutability": "view",
      "type": "function"
    },
    {
      "inputs": [],
      "name": "MAX_FEE",
      "outputs": [
        {
          "internalType": "uint256",
          "name": "",
          "type": "uint256"
        }
      ],
      "stateMutability": "view",
      "type": "function"
    },
    {
      "inputs": [],
      "name": "MAX_IN_RATIO",
      "outputs": [
        {
          "internalType": "uint256",
          "name": "",
          "type": "uint256"
        }
      ],
      "stateMutability": "view",
      "type": "function"
    },
    {
      "inputs": [],
      "name": "MAX_OUT_RATIO",
      "outputs": [
        {
          "internalType": "uint256",
          "name": "",
          "type": "uint256"
        }
      ],
      "stateMutability": "view",
      "type": "function"
    },
    {
      "inputs": [],
      "name": "MAX_TOTAL_WEIGHT",
      "outputs": [
        {
          "internalType": "uint256",
          "name": "",
          "type": "uint256"
        }
      ],
      "stateMutability": "view",
      "type": "function"
    },
    {
      "inputs": [],
      "name": "MAX_WEIGHT",
      "outputs": [
        {
          "internalType": "uint256",
          "name": "",
          "type": "uint256"
        }
      ],
      "stateMutability": "view",
      "type": "function"
    },
    {
      "inputs": [],
      "name": "MIN_BALANCE",
      "outputs": [
        {
          "internalType": "uint256",
          "name": "",
          "type": "uint256"
        }
      ],
      "stateMutability": "view",
      "type": "function"
    },
    {
      "inputs": [],
      "name": "MIN_BOUND_TOKENS",
      "outputs": [
        {
          "internalType": "uint256",
          "name": "",
          "type": "uint256"
        }
      ],
      "stateMutability": "view",
      "type": "function"
    },
    {
      "inputs": [],
      "name": "MIN_BPOW_BASE",
      "outputs": [
        {
          "internalType": "uint256",
          "name": "",
          "type": "uint256"
        }
      ],
      "stateMutability": "view",
      "type": "function"
    },
    {
      "inputs": [],
      "name": "MIN_FEE",
      "outputs": [
        {
          "internalType": "uint256",
          "name": "",
          "type": "uint256"
        }
      ],
      "stateMutability": "view",
      "type": "function"
    },
    {
      "inputs": [],
      "name": "MIN_WEIGHT",
      "outputs": [
        {
          "internalType": "uint256",
          "name": "",
          "type": "uint256"
        }
      ],
      "stateMutability": "view",
      "type": "function"
    }
  ],
  "bytecode": "608060405234801561001057600080fd5b50610310806100206000396000f3fe608060405234801561001057600080fd5b50600436106101005760003560e01c8063b7b800a411610097578063c36596a611610066578063c36596a614610127578063c6580d1214610176578063e4a28a5214610105578063ec0930211461017e57600080fd5b8063b7b800a414610156578063ba019dab1461015e578063bc063e1a14610166578063bc694ea21461016e57600080fd5b8063867378c5116100d3578063867378c51461013e5780639381cd2b14610146578063992e2a921461014e578063b0e0d1361461015657600080fd5b806309a3bbe414610105578063189d00ca1461011f578063218b53821461012757806376c7a3c714610136575b600080fd5b61010d610186565b60405190815260200160405180910390f35b61010d61019c565b61010d670de0b6b3a764000081565b61010d6101b3565b61010d6101c7565b61010d6101de565b61010d6101f1565b61010d600281565b61010d600181565b61010d61020f565b61010d610222565b61010d600081565b61010d610241565b610199670de0b6b3a7640000603261026a565b81565b6101996402540be400670de0b6b3a7640000610289565b610199612710670de0b6b3a7640000610289565b61019964e8d4a51000670de0b6b3a7640000610289565b610199670de0b6b3a7640000606461026a565b6102046002670de0b6b3a7640000610289565b6101999060016102ab565b610199600a670de0b6b3a7640000610289565b6001610237670de0b6b3a7640000600261026a565b61019991906102c3565b6101996002670de0b6b3a7640000610289565b634e487b7160e01b600052601160045260246000fd5b600081600019048311821515161561028457610284610254565b500290565b6000826102a657634e487b7160e01b600052601260045260246000fd5b500490565b600082198211156102be576102be610254565b500190565b6000828210156102d5576102d5610254565b50039056fea2646970667358221220b5e01cfc6006b2dc51b8e040f352d0f72627127b21e9483410a48eee79be403264736f6c634300080c0033",
  "bytecodeSha1": "b09555bd5c2d8301a0c153b45b845e238c415f4f",
  "compiler": {
    "evm_version": "istanbul",
    "optimizer": {
      "enabled": true,
      "runs": 200
    },
    "version": "0.8.12+commit.f00d7308"
  },
  "contractName": "BTokenBase",
  "language": "Solidity",
  "natspec": {
    "kind": "dev",
    "methods": {},
    "version": 1
  },
  "opcodes": "PUSH1 0x80 PUSH1 0x40 MSTORE CALLVALUE DUP1 ISZERO PUSH2 0x10 JUMPI PUSH1 0x0 DUP1 REVERT JUMPDEST POP PUSH1 0x4 CALLDATASIZE LT PUSH2 0x100 JUMPI PUSH1 0x0 CALLDATALOAD PUSH1 0xE0 SHR DUP1 PUSH4 0xB7B800A4 GT PUSH2 0x97 JUMPI DUP1 PUSH4 0xC36596A6 GT PUSH2 0x66 JUMPI DUP1 PUSH4 0xC36596A6 EQ PUSH2 0x127 JUMPI DUP1 PUSH4 0xC6580D12 EQ PUSH2 0x176 JUMPI DUP1 PUSH4 0xE4A28A52 EQ PUSH2 0x105 JUMPI DUP1 PUSH4 0xEC093021 EQ PUSH2 0x17E JUMPI PUSH1 0x0 DUP1 REVERT JUMPDEST DUP1 PUSH4 0xB7B800A4 EQ PUSH2 0x156 JUMPI DUP1 PUSH4 0xBA019DAB EQ PUSH2 0x15E JUMPI DUP1 PUSH4 0xBC063E1A EQ PUSH2 0x166 JUMPI DUP1 PUSH4 0xBC694EA2 EQ PUSH2 0x16E JUMPI PUSH1 0x0 DUP1 REVERT JUMPDEST DUP1 PUSH4 0x867378C5 GT PUSH2 0xD3 JUMPI DUP1 PUSH4 0x867378C5 EQ PUSH2 0x13E JUMPI DUP1 PUSH4 0x9381CD2B EQ PUSH2 0x146 JUMPI DUP1 PUSH4 0x992E2A92 EQ PUSH2 0x14E JUMPI DUP1 PUSH4 0xB0E0D136 EQ PUSH2 0x156 JUMPI PUSH1 0x0 DUP1 REVERT JUMPDEST DUP1 PUSH4 0x9A3BBE4 EQ PUSH2 0x105 JUMPI DUP1 PUSH4 0x189D00CA EQ PUSH2 0x11F JUMPI DUP1 PUSH4 0x218B5382 EQ PUSH2 0x127 JUMPI DUP1 PUSH4 0x76C7A3C7 EQ PUSH2 0x136 JUMPI JUMPDEST PUSH1 0x0 DUP1 REVERT JUMPDEST PUSH2 0x10D PUSH2 0x186 JUMP JUMPDEST PUSH1 0x40 MLOAD SWAP1 DUP2 MSTORE PUSH1 0x20 ADD PUSH1 0x40 MLOAD DUP1 SWAP2 SUB SWAP1 RETURN JUMPDEST PUSH2 0x10D PUSH2 0x19C JUMP JUMPDEST PUSH2 0x10D PUSH8 0xDE0B6B3A7640000 DUP2 JUMP JUMPDEST PUSH2 0x10D PUSH2 0x1B3 JUMP JUMPDEST PUSH2 0x10D PUSH2 0x1C7 JUMP JUMPDEST PUSH2 0x10D PUSH2 0x1DE JUMP JUMPDEST PUSH2 0x10D PUSH2 0x1F1 JUMP JUMPDEST PUSH2 0x10D PUSH1 0x2 DUP2 JUMP JUMPDEST PUSH2 0x10D PUSH1 0x1 DUP2 JUMP JUMPDEST PUSH2 0x10D PUSH2 0x20F JUMP JUMPDEST PUSH2 0x10D PUSH2 0x222 JUMP JUMPDEST PUSH2 0x10D PUSH1 0x0 DUP2 JUMP JUMPDEST PUSH2 0x10D PUSH2 0x241 JUMP JUMPDEST PUSH2 0x199 PUSH8 0xDE0B6B3A7640000 PUSH1 0x32 PUSH2 0x26A JUMP JUMPDEST DUP2 JUMP JUMPDEST PUSH2 0x199 PUSH5 0x2540BE400 PUSH8 0xDE0B6B3A7640000 PUSH2 0x289 JUMP JUMPDEST PUSH2 0x199 PUSH2 0x2710 PUSH8 0xDE0B6B3A7640000 PUSH2 0x289 JUMP JUMPDEST PUSH2 0x199 PUSH5 0xE8D4A51000 PUSH8 0xDE0B6B3A7640000 PUSH2 0x289 JUMP JUMPDEST PUSH2 0x199 PUSH8 0xDE0B6B3A7640000 PUSH1 0x64 PUSH2 0x26A JUMP JUMPDEST PUSH2 0x204 PUSH1 0x2 PUSH8 0xDE0B6B3A7640000 PUSH2 0x289 JUMP JUMPDEST PUSH2 0x199 SWAP1 PUSH1 0x1 PUSH2 0x2AB JUMP JUMPDEST PUSH2 0x199 PUSH1 0xA PUSH8 0xDE0B6B3A7640000 PUSH2 0x289 JUMP JUMPDEST PUSH1 0x1 PUSH2 0x237 PUSH8 0xDE0B6B3A7640000 PUSH1 0x2 PUSH2 0x26A JUMP JUMPDEST PUSH2 0x199 SWAP2 SWAP1 PUSH2 0x2C3 JUMP JUMPDEST PUSH2 0x199 PUSH1 0x2 PUSH8 0xDE0B6B3A7640000 PUSH2 0x289 JUMP JUMPDEST PUSH4 0x4E487B71 PUSH1 0xE0 SHL PUSH1 0x0 MSTORE PUSH1 0x11 PUSH1 0x4 MSTORE PUSH1 0x24 PUSH1 0x0 REVERT JUMPDEST PUSH1 0x0 DUP2 PUSH1 0x0 NOT DIV DUP4 GT DUP3 ISZERO ISZERO AND ISZERO PUSH2 0x284 JUMPI PUSH2 0x284 PUSH2 0x254 JUMP JUMPDEST POP MUL SWAP1 JUMP JUMPDEST PUSH1 0x0 DUP3 PUSH2 0x2A6 JUMPI PUSH4 0x4E487B71 PUSH1 0xE0 SHL PUSH1 0x0 MSTORE PUSH1 0x12 PUSH1 0x4 MSTORE PUSH1 0x24 PUSH1 0x0 REVERT JUMPDEST POP DIV SWAP1 JUMP JUMPDEST PUSH1 0x0 DUP3 NOT DUP3 GT ISZERO PUSH2 0x2BE JUMPI PUSH2 0x2BE PUSH2 0x254 JUMP JUMPDEST POP ADD SWAP1 JUMP JUMPDEST PUSH1 0x0 DUP3 DUP3 LT ISZERO PUSH2 0x2D5 JUMPI PUSH2 0x2D5 PUSH2 0x254 JUMP JUMPDEST POP SUB SWAP1 JUMP INVALID LOG2 PUSH5 0x6970667358 0x22 SLT KECCAK256 0xB5 0xE0 SHR 0xFC PUSH1 0x6 0xB2 0xDC MLOAD 0xB8 0xE0 BLOCKHASH RETURN MSTORE 0xD0 0xF7 0x26 0x27 SLT PUSH28 0x21E9483410A48EEE79BE403264736F6C634300080C00330000000000 ",
  "sha1": "37c69fd037ae797234cb734efd5e3712b5847a07",
  "source": "// This program is free software: you can redistribute it and/or modify\n// it under the terms of the GNU General Public License as published by\n// the Free Software Foundation, either version 3 of the License, or\n// (at your option) any later version.\n\n// This program is distributed in the hope that it will be useful,\n// but WITHOUT ANY WARRANTY; without even the implied warranty of\n// MERCHANTABILITY or FITNESS FOR A PARTICULAR PURPOSE.  See the\n// GNU General Public License for more details.\n\n// You should have received a copy of the GNU General Public License\n// along with this program.  If not, see <http://www.gnu.org/licenses/>.\n\npragma solidity 0.8.12;\n// Copyright Balancer, BigchainDB GmbH and Ocean Protocol contributors\n// SPDX-License-Identifier: (Apache-2.0 AND CC-BY-4.0)\n// Code is Apache-2.0 and docs are CC-BY-4.0\n\nimport './BNum.sol';\n// import 'OpenZeppelin/openzeppelin-contracts@4.2.0/contracts/token/ERC20/IERC20.sol';\nimport '../../interfaces/IERC20.sol';\n// Highly opinionated token implementation\n\n// interface IERC20 {\n//     event Approval(address indexed src, address indexed dst, uint amt);\n//     event Transfer(address indexed src, address indexed dst, uint amt);\n\n//     function totalSupply() external view returns (uint);\n//     function balanceOf(address whom) external view returns (uint);\n//     function allowance(address src, address dst) external view returns (uint);\n\n//     function approve(address dst, uint amt) external returns (bool);\n//     function transfer(address dst, uint amt) external returns (bool);\n//     function transferFrom(\n//         address src, address dst, uint amt\n//     ) external returns (bool);\n// }\n\ncontract BTokenBase is BNum {\n\n    mapping(address => uint)                   internal _balance;\n    mapping(address => mapping(address=>uint)) internal _allowance;\n    uint internal _totalSupply;\n\n    event Approval(address indexed src, address indexed dst, uint amt);\n    event Transfer(address indexed src, address indexed dst, uint amt);\n\n    function _mint(uint amt) internal {\n        _balance[address(this)] = badd(_balance[address(this)], amt);\n        _totalSupply = badd(_totalSupply, amt);\n        emit Transfer(address(0), address(this), amt);\n    }\n\n    function _burn(uint amt) internal {\n        require(\n            _balance[address(this)] >= amt, \n            'ERR_INSUFFICIENT_BAL'\n        );\n        _balance[address(this)] = bsub(_balance[address(this)], amt);\n        _totalSupply = bsub(_totalSupply, amt);\n        emit Transfer(address(this), address(0), amt);\n    }\n\n    function _move(address src, address dst, uint amt) internal {\n        require(_balance[src] >= amt, 'ERR_INSUFFICIENT_BAL');\n        _balance[src] = bsub(_balance[src], amt);\n        _balance[dst] = badd(_balance[dst], amt);\n        emit Transfer(src, dst, amt);\n    }\n\n    function _push(address to, uint amt) internal {\n        _move(address(this), to, amt);\n    }\n\n    function _pull(address from, uint amt) internal {\n        _move(from, address(this), amt);\n    }\n}\n\ncontract BToken is BTokenBase {\n\n    function name() external view returns (string memory) {\n        return 'Ocean Pool Token';\n    }\n\n    function symbol() external view returns (string memory) {\n        return 'OPT';\n    }\n\n    function decimals() external view returns(uint8) {\n        return 18;\n    }\n\n    function allowance(address src, address dst) external view returns (uint256) {\n        return _allowance[src][dst];\n    }\n\n    function balanceOf(address whom) external view returns (uint) {\n        return _balance[whom];\n    }\n\n    function totalSupply() public view returns (uint) {\n        return _totalSupply;\n    }\n\n    function approve(address dst, uint amt) external returns (bool) {\n        _allowance[msg.sender][dst] = amt;\n        emit Approval(msg.sender, dst, amt);\n        return true;\n    }\n\n    function increaseApproval(address dst, uint amt) external returns (bool) {\n        _allowance[msg.sender][dst] = badd(_allowance[msg.sender][dst], amt);\n        emit Approval(msg.sender, dst, _allowance[msg.sender][dst]);\n        return true;\n    }\n\n    function decreaseApproval(address dst, uint amt) external returns (bool) {\n        uint oldValue = _allowance[msg.sender][dst];\n        if (amt > oldValue) {\n            _allowance[msg.sender][dst] = 0;\n        } else {\n            _allowance[msg.sender][dst] = bsub(oldValue, amt);\n        }\n        emit Approval(msg.sender, dst, _allowance[msg.sender][dst]);\n        return true;\n    }\n\n    function transfer(address dst, uint amt) external returns (bool) {\n        _move(msg.sender, dst, amt);\n        return true;\n    }\n\n    function transferFrom(\n        address src, \n        address dst, \n        uint amt\n    ) \n    external\n    returns (bool) \n    {\n        require(\n            msg.sender == src || amt <= _allowance[src][msg.sender], \n            'ERR_BTOKEN_BAD_CALLER'\n        );\n        _move(src, dst, amt);\n        if (msg.sender != src && _allowance[src][msg.sender] != uint256(int(-1)) ) {\n            _allowance[src][msg.sender] = bsub(_allowance[src][msg.sender], amt);\n            emit Approval(src, msg.sender, _allowance[src][msg.sender]);\n        }\n        return true;\n    }\n}\n",
  "sourcePath": "contracts/oceanv4/pools/balancer/BToken.sol",
  "type": "contract"
}