{
  "abi": [
    {
      "inputs": [
        {
          "internalType": "address",
          "name": "_dfrewards",
          "type": "address"
        }
      ],
      "stateMutability": "nonpayable",
      "type": "constructor"
    },
    {
      "inputs": [
        {
          "internalType": "address",
          "name": "tokenAddress",
          "type": "address"
        },
        {
          "internalType": "address",
          "name": "from",
          "type": "address"
        }
      ],
      "name": "claim",
      "outputs": [],
      "stateMutability": "nonpayable",
      "type": "function"
    }
  ],
  "bytecode": "608060405234801561001057600080fd5b506040516101f33803806101f383398101604081905261002f91610054565b600080546001600160a01b0319166001600160a01b0392909216919091179055610084565b60006020828403121561006657600080fd5b81516001600160a01b038116811461007d57600080fd5b9392505050565b610160806100936000396000f3fe608060405234801561001057600080fd5b506004361061002b5760003560e01c806321c0b34214610030575b600080fd5b61004361003e3660046100de565b610045565b005b600054604051631638efb160e11b81526001600160a01b038381166004830152848116602483015290911690632c71df62906044016020604051808303816000875af1158015610099573d6000803e3d6000fd5b505050506040513d601f19601f820116820180604052508101906100bd9190610111565b505050565b80356001600160a01b03811681146100d957600080fd5b919050565b600080604083850312156100f157600080fd5b6100fa836100c2565b9150610108602084016100c2565b90509250929050565b60006020828403121561012357600080fd5b505191905056fea264697066735822122021af4001a604af61d772400df0331d93e9474122c9b2359e85aa56dd5017aa4464736f6c634300080c0033",
  "bytecodeSha1": "1b61069e73376450833a10634d4231c7289a3977",
  "compiler": {
    "evm_version": "istanbul",
    "optimizer": {
      "enabled": true,
      "runs": 200
    },
    "version": "0.8.12+commit.f00d7308"
  },
  "contractName": "DummyStrategy",
  "language": "Solidity",
  "natspec": {
    "kind": "dev",
    "methods": {},
    "version": 1
  },
  "opcodes": "PUSH1 0x80 PUSH1 0x40 MSTORE CALLVALUE DUP1 ISZERO PUSH2 0x10 JUMPI PUSH1 0x0 DUP1 REVERT JUMPDEST POP PUSH1 0x4 CALLDATASIZE LT PUSH2 0x2B JUMPI PUSH1 0x0 CALLDATALOAD PUSH1 0xE0 SHR DUP1 PUSH4 0x21C0B342 EQ PUSH2 0x30 JUMPI JUMPDEST PUSH1 0x0 DUP1 REVERT JUMPDEST PUSH2 0x43 PUSH2 0x3E CALLDATASIZE PUSH1 0x4 PUSH2 0xDE JUMP JUMPDEST PUSH2 0x45 JUMP JUMPDEST STOP JUMPDEST PUSH1 0x0 SLOAD PUSH1 0x40 MLOAD PUSH4 0x1638EFB1 PUSH1 0xE1 SHL DUP2 MSTORE PUSH1 0x1 PUSH1 0x1 PUSH1 0xA0 SHL SUB DUP4 DUP2 AND PUSH1 0x4 DUP4 ADD MSTORE DUP5 DUP2 AND PUSH1 0x24 DUP4 ADD MSTORE SWAP1 SWAP2 AND SWAP1 PUSH4 0x2C71DF62 SWAP1 PUSH1 0x44 ADD PUSH1 0x20 PUSH1 0x40 MLOAD DUP1 DUP4 SUB DUP2 PUSH1 0x0 DUP8 GAS CALL ISZERO DUP1 ISZERO PUSH2 0x99 JUMPI RETURNDATASIZE PUSH1 0x0 DUP1 RETURNDATACOPY RETURNDATASIZE PUSH1 0x0 REVERT JUMPDEST POP POP POP POP PUSH1 0x40 MLOAD RETURNDATASIZE PUSH1 0x1F NOT PUSH1 0x1F DUP3 ADD AND DUP3 ADD DUP1 PUSH1 0x40 MSTORE POP DUP2 ADD SWAP1 PUSH2 0xBD SWAP2 SWAP1 PUSH2 0x111 JUMP JUMPDEST POP POP POP JUMP JUMPDEST DUP1 CALLDATALOAD PUSH1 0x1 PUSH1 0x1 PUSH1 0xA0 SHL SUB DUP2 AND DUP2 EQ PUSH2 0xD9 JUMPI PUSH1 0x0 DUP1 REVERT JUMPDEST SWAP2 SWAP1 POP JUMP JUMPDEST PUSH1 0x0 DUP1 PUSH1 0x40 DUP4 DUP6 SUB SLT ISZERO PUSH2 0xF1 JUMPI PUSH1 0x0 DUP1 REVERT JUMPDEST PUSH2 0xFA DUP4 PUSH2 0xC2 JUMP JUMPDEST SWAP2 POP PUSH2 0x108 PUSH1 0x20 DUP5 ADD PUSH2 0xC2 JUMP JUMPDEST SWAP1 POP SWAP3 POP SWAP3 SWAP1 POP JUMP JUMPDEST PUSH1 0x0 PUSH1 0x20 DUP3 DUP5 SUB SLT ISZERO PUSH2 0x123 JUMPI PUSH1 0x0 DUP1 REVERT JUMPDEST POP MLOAD SWAP2 SWAP1 POP JUMP INVALID LOG2 PUSH5 0x6970667358 0x22 SLT KECCAK256 0x21 0xAF BLOCKHASH ADD 0xA6 DIV 0xAF PUSH2 0xD772 BLOCKHASH 0xD CREATE CALLER SAR SWAP4 0xE9 SELFBALANCE COINBASE 0x22 0xC9 0xB2 CALLDATALOAD SWAP15 DUP6 0xAA JUMP 0xDD POP OR 0xAA DIFFICULTY PUSH5 0x736F6C6343 STOP ADDMOD 0xC STOP CALLER ",
  "sha1": "91bb2dd6b4b8dc2e3fef5886236a84af9b921556",
  "source": "// SPDX-License-Identifier: (Apache-2.0 AND CC-BY-4.0)\npragma solidity 0.8.12;\nimport \"../interfaces/IDFRewards.sol\";\n\ncontract DummyStrategy {\n    IDFRewards dfrewards;\n\n    constructor(address _dfrewards) {\n        dfrewards = IDFRewards(_dfrewards);\n    }\n\n    function claim(address tokenAddress, address from) public {\n        dfrewards.claimForStrat(from, tokenAddress); // claim rewards for strategy\n    }\n}\n",
  "sourcePath": "contracts/test/DummyStrategy.sol",
  "type": "contract"
}