{
  "abi": [
    {
      "anonymous": false,
      "inputs": [
        {
          "indexed": true,
          "internalType": "address",
          "name": "user",
          "type": "address"
        },
        {
          "indexed": true,
          "internalType": "address",
          "name": "signer",
          "type": "address"
        },
        {
          "indexed": false,
          "internalType": "uint256",
          "name": "timestamp",
          "type": "uint256"
        },
        {
          "indexed": false,
          "internalType": "uint256",
          "name": "blockNumber",
          "type": "uint256"
        }
      ],
      "name": "AddedMinter",
      "type": "event"
    },
    {
      "anonymous": false,
      "inputs": [
        {
          "indexed": true,
          "internalType": "address",
          "name": "user",
          "type": "address"
        },
        {
          "indexed": true,
          "internalType": "address",
          "name": "signer",
          "type": "address"
        },
        {
          "indexed": false,
          "internalType": "uint256",
          "name": "timestamp",
          "type": "uint256"
        },
        {
          "indexed": false,
          "internalType": "uint256",
          "name": "blockNumber",
          "type": "uint256"
        }
      ],
      "name": "AddedPaymentManager",
      "type": "event"
    },
    {
      "anonymous": false,
      "inputs": [
        {
          "indexed": true,
          "internalType": "address",
          "name": "signer",
          "type": "address"
        },
        {
          "indexed": false,
          "internalType": "uint256",
          "name": "timestamp",
          "type": "uint256"
        },
        {
          "indexed": false,
          "internalType": "uint256",
          "name": "blockNumber",
          "type": "uint256"
        }
      ],
      "name": "CleanedPermissions",
      "type": "event"
    },
    {
      "anonymous": false,
      "inputs": [
        {
          "indexed": true,
          "internalType": "address",
          "name": "user",
          "type": "address"
        },
        {
          "indexed": true,
          "internalType": "address",
          "name": "signer",
          "type": "address"
        },
        {
          "indexed": false,
          "internalType": "uint256",
          "name": "timestamp",
          "type": "uint256"
        },
        {
          "indexed": false,
          "internalType": "uint256",
          "name": "blockNumber",
          "type": "uint256"
        }
      ],
      "name": "RemovedMinter",
      "type": "event"
    },
    {
      "anonymous": false,
      "inputs": [
        {
          "indexed": true,
          "internalType": "address",
          "name": "user",
          "type": "address"
        },
        {
          "indexed": true,
          "internalType": "address",
          "name": "signer",
          "type": "address"
        },
        {
          "indexed": false,
          "internalType": "uint256",
          "name": "timestamp",
          "type": "uint256"
        },
        {
          "indexed": false,
          "internalType": "uint256",
          "name": "blockNumber",
          "type": "uint256"
        }
      ],
      "name": "RemovedPaymentManager",
      "type": "event"
    },
    {
      "inputs": [
        {
          "internalType": "uint256",
          "name": "",
          "type": "uint256"
        }
      ],
      "name": "authERC20",
      "outputs": [
        {
          "internalType": "address",
          "name": "",
          "type": "address"
        }
      ],
      "stateMutability": "view",
      "type": "function"
    },
    {
      "inputs": [
        {
          "internalType": "address",
          "name": "user",
          "type": "address"
        }
      ],
      "name": "getPermissions",
      "outputs": [
        {
          "components": [
            {
              "internalType": "bool",
              "name": "minter",
              "type": "bool"
            },
            {
              "internalType": "bool",
              "name": "paymentManager",
              "type": "bool"
            }
          ],
          "internalType": "struct ERC20Roles.RolesERC20",
          "name": "",
          "type": "tuple"
        }
      ],
      "stateMutability": "view",
      "type": "function"
    },
    {
      "inputs": [
        {
          "internalType": "address",
          "name": "account",
          "type": "address"
        }
      ],
      "name": "isMinter",
      "outputs": [
        {
          "internalType": "bool",
          "name": "",
          "type": "bool"
        }
      ],
      "stateMutability": "view",
      "type": "function"
    },
    {
      "inputs": [
        {
          "internalType": "address",
          "name": "",
          "type": "address"
        }
      ],
      "name": "permissions",
      "outputs": [
        {
          "internalType": "bool",
          "name": "minter",
          "type": "bool"
        },
        {
          "internalType": "bool",
          "name": "paymentManager",
          "type": "bool"
        }
      ],
      "stateMutability": "view",
      "type": "function"
    }
  ],
  "bytecode": "608060405234801561001057600080fd5b50610226806100206000396000f3fe608060405234801561001057600080fd5b506004361061004c5760003560e01c806301e8820814610051578063160a792514610099578063aa271e1a14610116578063ef867ff414610152575b600080fd5b61007d61005f3660046101a7565b60006020819052908152604090205460ff8082169161010090041682565b6040805192151583529015156020830152015b60405180910390f35b6100f76100a73660046101a7565b6040805180820190915260008082526020820152506001600160a01b03166000908152602081815260409182902082518084019093525460ff808216151584526101009091041615159082015290565b6040805182511515815260209283015115159281019290925201610090565b6101426101243660046101a7565b6001600160a01b031660009081526020819052604090205460ff1690565b6040519015158152602001610090565b6101656101603660046101d7565b61017d565b6040516001600160a01b039091168152602001610090565b6001818154811061018d57600080fd5b6000918252602090912001546001600160a01b0316905081565b6000602082840312156101b957600080fd5b81356001600160a01b03811681146101d057600080fd5b9392505050565b6000602082840312156101e957600080fd5b503591905056fea26469706673582212203bbec05a261c5e80545ebf82f452ab237a9ddcb6a8b4fc0ad527b7087806b0ab64736f6c634300080c0033",
  "bytecodeSha1": "da6c15408b067df5f945e3fb0763c3fc3f6f8abf",
  "compiler": {
    "evm_version": "istanbul",
    "optimizer": {
      "enabled": true,
      "runs": 200
    },
    "version": "0.8.12+commit.f00d7308"
  },
  "contractName": "ERC20Roles",
  "language": "Solidity",
  "natspec": {
    "kind": "dev",
    "methods": {
      "getPermissions(address)": {
        "details": "getPermissions      Returns list of roles for an user",
        "params": {
          "user": "user address"
        }
      },
      "isMinter(address)": {
        "details": "isMinter      Check if an address has the minter role",
        "params": {
          "account": "refers to an address that is checked"
        }
      }
    },
    "version": 1
  },
  "opcodes": "PUSH1 0x80 PUSH1 0x40 MSTORE CALLVALUE DUP1 ISZERO PUSH2 0x10 JUMPI PUSH1 0x0 DUP1 REVERT JUMPDEST POP PUSH1 0x4 CALLDATASIZE LT PUSH2 0x4C JUMPI PUSH1 0x0 CALLDATALOAD PUSH1 0xE0 SHR DUP1 PUSH4 0x1E88208 EQ PUSH2 0x51 JUMPI DUP1 PUSH4 0x160A7925 EQ PUSH2 0x99 JUMPI DUP1 PUSH4 0xAA271E1A EQ PUSH2 0x116 JUMPI DUP1 PUSH4 0xEF867FF4 EQ PUSH2 0x152 JUMPI JUMPDEST PUSH1 0x0 DUP1 REVERT JUMPDEST PUSH2 0x7D PUSH2 0x5F CALLDATASIZE PUSH1 0x4 PUSH2 0x1A7 JUMP JUMPDEST PUSH1 0x0 PUSH1 0x20 DUP2 SWAP1 MSTORE SWAP1 DUP2 MSTORE PUSH1 0x40 SWAP1 KECCAK256 SLOAD PUSH1 0xFF DUP1 DUP3 AND SWAP2 PUSH2 0x100 SWAP1 DIV AND DUP3 JUMP JUMPDEST PUSH1 0x40 DUP1 MLOAD SWAP3 ISZERO ISZERO DUP4 MSTORE SWAP1 ISZERO ISZERO PUSH1 0x20 DUP4 ADD MSTORE ADD JUMPDEST PUSH1 0x40 MLOAD DUP1 SWAP2 SUB SWAP1 RETURN JUMPDEST PUSH2 0xF7 PUSH2 0xA7 CALLDATASIZE PUSH1 0x4 PUSH2 0x1A7 JUMP JUMPDEST PUSH1 0x40 DUP1 MLOAD DUP1 DUP3 ADD SWAP1 SWAP2 MSTORE PUSH1 0x0 DUP1 DUP3 MSTORE PUSH1 0x20 DUP3 ADD MSTORE POP PUSH1 0x1 PUSH1 0x1 PUSH1 0xA0 SHL SUB AND PUSH1 0x0 SWAP1 DUP2 MSTORE PUSH1 0x20 DUP2 DUP2 MSTORE PUSH1 0x40 SWAP2 DUP3 SWAP1 KECCAK256 DUP3 MLOAD DUP1 DUP5 ADD SWAP1 SWAP4 MSTORE SLOAD PUSH1 0xFF DUP1 DUP3 AND ISZERO ISZERO DUP5 MSTORE PUSH2 0x100 SWAP1 SWAP2 DIV AND ISZERO ISZERO SWAP1 DUP3 ADD MSTORE SWAP1 JUMP JUMPDEST PUSH1 0x40 DUP1 MLOAD DUP3 MLOAD ISZERO ISZERO DUP2 MSTORE PUSH1 0x20 SWAP3 DUP4 ADD MLOAD ISZERO ISZERO SWAP3 DUP2 ADD SWAP3 SWAP1 SWAP3 MSTORE ADD PUSH2 0x90 JUMP JUMPDEST PUSH2 0x142 PUSH2 0x124 CALLDATASIZE PUSH1 0x4 PUSH2 0x1A7 JUMP JUMPDEST PUSH1 0x1 PUSH1 0x1 PUSH1 0xA0 SHL SUB AND PUSH1 0x0 SWAP1 DUP2 MSTORE PUSH1 0x20 DUP2 SWAP1 MSTORE PUSH1 0x40 SWAP1 KECCAK256 SLOAD PUSH1 0xFF AND SWAP1 JUMP JUMPDEST PUSH1 0x40 MLOAD SWAP1 ISZERO ISZERO DUP2 MSTORE PUSH1 0x20 ADD PUSH2 0x90 JUMP JUMPDEST PUSH2 0x165 PUSH2 0x160 CALLDATASIZE PUSH1 0x4 PUSH2 0x1D7 JUMP JUMPDEST PUSH2 0x17D JUMP JUMPDEST PUSH1 0x40 MLOAD PUSH1 0x1 PUSH1 0x1 PUSH1 0xA0 SHL SUB SWAP1 SWAP2 AND DUP2 MSTORE PUSH1 0x20 ADD PUSH2 0x90 JUMP JUMPDEST PUSH1 0x1 DUP2 DUP2 SLOAD DUP2 LT PUSH2 0x18D JUMPI PUSH1 0x0 DUP1 REVERT JUMPDEST PUSH1 0x0 SWAP2 DUP3 MSTORE PUSH1 0x20 SWAP1 SWAP2 KECCAK256 ADD SLOAD PUSH1 0x1 PUSH1 0x1 PUSH1 0xA0 SHL SUB AND SWAP1 POP DUP2 JUMP JUMPDEST PUSH1 0x0 PUSH1 0x20 DUP3 DUP5 SUB SLT ISZERO PUSH2 0x1B9 JUMPI PUSH1 0x0 DUP1 REVERT JUMPDEST DUP2 CALLDATALOAD PUSH1 0x1 PUSH1 0x1 PUSH1 0xA0 SHL SUB DUP2 AND DUP2 EQ PUSH2 0x1D0 JUMPI PUSH1 0x0 DUP1 REVERT JUMPDEST SWAP4 SWAP3 POP POP POP JUMP JUMPDEST PUSH1 0x0 PUSH1 0x20 DUP3 DUP5 SUB SLT ISZERO PUSH2 0x1E9 JUMPI PUSH1 0x0 DUP1 REVERT JUMPDEST POP CALLDATALOAD SWAP2 SWAP1 POP JUMP INVALID LOG2 PUSH5 0x6970667358 0x22 SLT KECCAK256 EXTCODESIZE 0xBE 0xC0 GAS 0x26 SHR 0x5E DUP1 SLOAD 0x5E 0xBF DUP3 DELEGATECALL MSTORE 0xAB 0x23 PUSH27 0x9DDCB6A8B4FC0AD527B7087806B0AB64736F6C634300080C003300 ",
  "sha1": "08d541aff8ebc36956657743e8f00ff189d3d34c",
  "source": "pragma solidity 0.8.12;\n// Copyright BigchainDB GmbH and Ocean Protocol contributors\n// SPDX-License-Identifier: (Apache-2.0 AND CC-BY-4.0)\n// Code is Apache-2.0 and docs are CC-BY-4.0\n\ncontract ERC20Roles {\n    \n    \n    mapping(address => RolesERC20) public permissions;\n\n    address[] public authERC20;\n\n    struct RolesERC20 {\n        bool minter;\n        bool paymentManager; \n    }\n\n    event AddedMinter(\n        address indexed user,\n        address indexed signer,\n        uint256 timestamp,\n        uint256 blockNumber\n    );\n    event RemovedMinter(\n        address indexed user,\n        address indexed signer,\n        uint256 timestamp,\n        uint256 blockNumber\n    );\n\n    /**\n    * @dev getPermissions\n    *      Returns list of roles for an user\n    * @param user user address\n    */\n    function getPermissions(address user) public view returns (RolesERC20 memory) {\n        return permissions[user];\n    }\n\n    /**\n     * @dev isMinter\n     *      Check if an address has the minter role\n     * @param account refers to an address that is checked\n     */\n    function isMinter(address account) public view returns (bool) {\n        return (permissions[account].minter);\n    }\n\n    \n    /**\n    * @dev _addMinter\n    *      Internal function to add minter role to an user.\n    * @param _minter user address\n    */\n    function _addMinter(address _minter) internal {\n        if(_minter != address(0)){\n            RolesERC20 storage user = permissions[_minter];\n            require(user.minter == false, \"ERC20Roles:  ALREADY A MINTER\");\n            user.minter = true;\n            _pushToAuthERC20(_minter);\n            emit AddedMinter(_minter,msg.sender,block.timestamp,block.number);\n        }\n    }\n\n    /**\n    * @dev _removeMinter\n    *      Internal function to remove minter role from an user.\n    * @param _minter user address\n    */\n    function _removeMinter(address _minter) internal {\n        RolesERC20 storage user = permissions[_minter];\n        user.minter = false;\n        emit RemovedMinter(_minter,msg.sender,block.timestamp,block.number);\n        _SafeRemoveFromAuthERC20(_minter);\n    }\n\n    event AddedPaymentManager(\n        address indexed user,\n        address indexed signer,\n        uint256 timestamp,\n        uint256 blockNumber\n    );\n    event RemovedPaymentManager(\n        address indexed user,\n        address indexed signer,\n        uint256 timestamp,\n        uint256 blockNumber\n    );\n\n    /**\n    * @dev _addPaymentManager\n    *      Internal function to add paymentManager role to an user.\n    * @param _paymentCollector user address\n    */\n    function _addPaymentManager(address _paymentCollector) internal {\n        if(_paymentCollector != address(0)){\n            RolesERC20 storage user = permissions[_paymentCollector];\n            require(user.paymentManager == false, \"ERC20Roles:  ALREADY A FEE MANAGER\");\n            user.paymentManager = true;\n            _pushToAuthERC20(_paymentCollector);\n            emit AddedPaymentManager(_paymentCollector,msg.sender,block.timestamp,block.number);\n        }\n    }\n\n    /**\n    * @dev _removePaymentManager\n    *      Internal function to remove paymentManager role from an user.\n    * @param _paymentCollector user address\n    */\n    function _removePaymentManager(address _paymentCollector) internal {\n        RolesERC20 storage user = permissions[_paymentCollector];\n        user.paymentManager = false;\n        emit RemovedPaymentManager(_paymentCollector,msg.sender,block.timestamp,block.number);\n        _SafeRemoveFromAuthERC20(_paymentCollector);\n    }\n\n\n    \n\n   \n    event CleanedPermissions(\n        address indexed signer,\n        uint256 timestamp,\n        uint256 blockNumber\n    );\n\n    \n    function _cleanPermissions() internal {\n        \n        for (uint256 i = 0; i < authERC20.length; i++) {\n            RolesERC20 storage user = permissions[authERC20[i]];\n            user.minter = false;\n            user.paymentManager = false;\n\n        }\n        \n        delete authERC20;\n        emit CleanedPermissions(msg.sender,block.timestamp,block.number);\n        \n    }\n\n\n\n        /**\n    * @dev _pushToAuthERC20\n    *      Checks authERC20 array and adds the user address if does not exists\n    * @param user address to be checked\n    */\n    function _pushToAuthERC20(address user) internal {\n        uint256 i;\n        for (i = 0; i < authERC20.length; i++) {\n            if(authERC20[i] == user) break;\n        }\n        if(i == authERC20.length){\n            // element was not found\n            authERC20.push(user);\n        }\n    }\n\n    /**\n    * @dev _SafeRemoveFromAuthERC20\n    *      Checks if user has any roles left, and if not, it will remove it from auth array\n    * @param user address to be checked and removed\n    */\n    function _SafeRemoveFromAuthERC20(address user) internal {\n        RolesERC20 storage userRoles = permissions[user];\n        if (userRoles.minter == false &&\n            userRoles.paymentManager == false\n        ){\n            uint256 i;\n            for (i = 0; i < authERC20.length; i++) {\n                if(authERC20[i] == user) break;\n            }\n            if(i < authERC20.length){\n                authERC20[i] = authERC20[authERC20.length -1];\n                authERC20.pop();\n            }\n        }\n    }\n    \n}\n",
  "sourcePath": "contracts/oceanv4/utils/ERC20Roles.sol",
  "type": "contract"
}