{
  "abi": [
    {
      "inputs": [],
      "stateMutability": "nonpayable",
      "type": "constructor"
    },
    {
      "anonymous": false,
      "inputs": [
        {
          "indexed": true,
          "internalType": "address",
          "name": "contractAddress",
          "type": "address"
        }
      ],
      "name": "ContractCreated",
      "type": "event"
    },
    {
      "anonymous": false,
      "inputs": [
        {
          "indexed": true,
          "internalType": "bytes32",
          "name": "key",
          "type": "bytes32"
        },
        {
          "indexed": false,
          "internalType": "bytes",
          "name": "value",
          "type": "bytes"
        }
      ],
      "name": "DataChanged",
      "type": "event"
    },
    {
      "anonymous": false,
      "inputs": [
        {
          "indexed": true,
          "internalType": "uint256",
          "name": "_operation",
          "type": "uint256"
        },
        {
          "indexed": true,
          "internalType": "address",
          "name": "_to",
          "type": "address"
        },
        {
          "indexed": true,
          "internalType": "uint256",
          "name": "_value",
          "type": "uint256"
        },
        {
          "indexed": false,
          "internalType": "bytes",
          "name": "_data",
          "type": "bytes"
        }
      ],
      "name": "Executed",
      "type": "event"
    },
    {
      "inputs": [
        {
          "internalType": "bytes32",
          "name": "_key",
          "type": "bytes32"
        }
      ],
      "name": "getData",
      "outputs": [
        {
          "internalType": "bytes",
          "name": "_value",
          "type": "bytes"
        }
      ],
      "stateMutability": "view",
      "type": "function"
    },
    {
      "inputs": [
        {
          "internalType": "bytes4",
          "name": "interfaceId",
          "type": "bytes4"
        }
      ],
      "name": "supportsInterface",
      "outputs": [
        {
          "internalType": "bool",
          "name": "",
          "type": "bool"
        }
      ],
      "stateMutability": "view",
      "type": "function"
    }
  ],
  "bytecode": "608060405234801561001057600080fd5b506100216301ffc9a760e01b610046565b610031632260147f60e11b610046565b610041632bd57b7360e01b610046565b6100c9565b6001600160e01b031980821614156100a45760405162461bcd60e51b815260206004820152601c60248201527f4552433136353a20696e76616c696420696e7465726661636520696400000000604482015260640160405180910390fd5b6001600160e01b0319166000908152602081905260409020805460ff19166001179055565b61024f806100d86000396000f3fe608060405234801561001057600080fd5b50600436106100365760003560e01c806301ffc9a71461003b57806354f6127f1461007d575b600080fd5b61006861004936600461013f565b6001600160e01b03191660009081526020819052604090205460ff1690565b60405190151581526020015b60405180910390f35b61009061008b366004610170565b61009d565b6040516100749190610189565b60008181526001602052604090208054606091906100ba906101de565b80601f01602080910402602001604051908101604052809291908181526020018280546100e6906101de565b80156101335780601f1061010857610100808354040283529160200191610133565b820191906000526020600020905b81548152906001019060200180831161011657829003601f168201915b50505050509050919050565b60006020828403121561015157600080fd5b81356001600160e01b03198116811461016957600080fd5b9392505050565b60006020828403121561018257600080fd5b5035919050565b600060208083528351808285015260005b818110156101b65785810183015185820160400152820161019a565b818111156101c8576000604083870101525b50601f01601f1916929092016040019392505050565b600181811c908216806101f257607f821691505b6020821081141561021357634e487b7160e01b600052602260045260246000fd5b5091905056fea2646970667358221220dd34738316b8ffcfd84e27bea51b49c2421313871a6c8ce283e531970078245e64736f6c634300080c0033",
  "bytecodeSha1": "9b8eb1f9b1c5f3ca78f403607df75181a761058b",
  "compiler": {
    "evm_version": "istanbul",
    "optimizer": {
      "enabled": true,
      "runs": 200
    },
    "version": "0.8.12+commit.f00d7308"
  },
  "contractName": "ERC725Ocean",
  "language": "Solidity",
  "natspec": {
    "author": "Fabian Vogelsteller <fabian@lukso.network>",
    "details": "Implementation of a contract module which provides the ability to call arbitrary functions at any other smart contract and itself, including using `delegatecall`, as well creating contracts using `create` and `create2`. This is the basis for a smart contract based account system, but could also be used as a proxy account system. `execute` MUST only be called by the owner of the contract set via ERC173.",
    "kind": "dev",
    "methods": {
      "getData(bytes32)": {
        "notice": "Gets data at a given `key`",
        "params": {
          "_key": "the key which value to retrieve"
        },
        "returns": {
          "_value": "The data stored at the key"
        }
      },
      "supportsInterface(bytes4)": {
        "details": "See {IERC165-supportsInterface}. Time complexity O(1), guaranteed to always use less than 30 000 gas."
      }
    },
    "title": "ERC725 X / ERC725 Y executor",
    "version": 1
  },
  "opcodes": "PUSH1 0x80 PUSH1 0x40 MSTORE CALLVALUE DUP1 ISZERO PUSH2 0x10 JUMPI PUSH1 0x0 DUP1 REVERT JUMPDEST POP PUSH1 0x4 CALLDATASIZE LT PUSH2 0x36 JUMPI PUSH1 0x0 CALLDATALOAD PUSH1 0xE0 SHR DUP1 PUSH4 0x1FFC9A7 EQ PUSH2 0x3B JUMPI DUP1 PUSH4 0x54F6127F EQ PUSH2 0x7D JUMPI JUMPDEST PUSH1 0x0 DUP1 REVERT JUMPDEST PUSH2 0x68 PUSH2 0x49 CALLDATASIZE PUSH1 0x4 PUSH2 0x13F JUMP JUMPDEST PUSH1 0x1 PUSH1 0x1 PUSH1 0xE0 SHL SUB NOT AND PUSH1 0x0 SWAP1 DUP2 MSTORE PUSH1 0x20 DUP2 SWAP1 MSTORE PUSH1 0x40 SWAP1 KECCAK256 SLOAD PUSH1 0xFF AND SWAP1 JUMP JUMPDEST PUSH1 0x40 MLOAD SWAP1 ISZERO ISZERO DUP2 MSTORE PUSH1 0x20 ADD JUMPDEST PUSH1 0x40 MLOAD DUP1 SWAP2 SUB SWAP1 RETURN JUMPDEST PUSH2 0x90 PUSH2 0x8B CALLDATASIZE PUSH1 0x4 PUSH2 0x170 JUMP JUMPDEST PUSH2 0x9D JUMP JUMPDEST PUSH1 0x40 MLOAD PUSH2 0x74 SWAP2 SWAP1 PUSH2 0x189 JUMP JUMPDEST PUSH1 0x0 DUP2 DUP2 MSTORE PUSH1 0x1 PUSH1 0x20 MSTORE PUSH1 0x40 SWAP1 KECCAK256 DUP1 SLOAD PUSH1 0x60 SWAP2 SWAP1 PUSH2 0xBA SWAP1 PUSH2 0x1DE JUMP JUMPDEST DUP1 PUSH1 0x1F ADD PUSH1 0x20 DUP1 SWAP2 DIV MUL PUSH1 0x20 ADD PUSH1 0x40 MLOAD SWAP1 DUP2 ADD PUSH1 0x40 MSTORE DUP1 SWAP3 SWAP2 SWAP1 DUP2 DUP2 MSTORE PUSH1 0x20 ADD DUP3 DUP1 SLOAD PUSH2 0xE6 SWAP1 PUSH2 0x1DE JUMP JUMPDEST DUP1 ISZERO PUSH2 0x133 JUMPI DUP1 PUSH1 0x1F LT PUSH2 0x108 JUMPI PUSH2 0x100 DUP1 DUP4 SLOAD DIV MUL DUP4 MSTORE SWAP2 PUSH1 0x20 ADD SWAP2 PUSH2 0x133 JUMP JUMPDEST DUP3 ADD SWAP2 SWAP1 PUSH1 0x0 MSTORE PUSH1 0x20 PUSH1 0x0 KECCAK256 SWAP1 JUMPDEST DUP2 SLOAD DUP2 MSTORE SWAP1 PUSH1 0x1 ADD SWAP1 PUSH1 0x20 ADD DUP1 DUP4 GT PUSH2 0x116 JUMPI DUP3 SWAP1 SUB PUSH1 0x1F AND DUP3 ADD SWAP2 JUMPDEST POP POP POP POP POP SWAP1 POP SWAP2 SWAP1 POP JUMP JUMPDEST PUSH1 0x0 PUSH1 0x20 DUP3 DUP5 SUB SLT ISZERO PUSH2 0x151 JUMPI PUSH1 0x0 DUP1 REVERT JUMPDEST DUP2 CALLDATALOAD PUSH1 0x1 PUSH1 0x1 PUSH1 0xE0 SHL SUB NOT DUP2 AND DUP2 EQ PUSH2 0x169 JUMPI PUSH1 0x0 DUP1 REVERT JUMPDEST SWAP4 SWAP3 POP POP POP JUMP JUMPDEST PUSH1 0x0 PUSH1 0x20 DUP3 DUP5 SUB SLT ISZERO PUSH2 0x182 JUMPI PUSH1 0x0 DUP1 REVERT JUMPDEST POP CALLDATALOAD SWAP2 SWAP1 POP JUMP JUMPDEST PUSH1 0x0 PUSH1 0x20 DUP1 DUP4 MSTORE DUP4 MLOAD DUP1 DUP3 DUP6 ADD MSTORE PUSH1 0x0 JUMPDEST DUP2 DUP2 LT ISZERO PUSH2 0x1B6 JUMPI DUP6 DUP2 ADD DUP4 ADD MLOAD DUP6 DUP3 ADD PUSH1 0x40 ADD MSTORE DUP3 ADD PUSH2 0x19A JUMP JUMPDEST DUP2 DUP2 GT ISZERO PUSH2 0x1C8 JUMPI PUSH1 0x0 PUSH1 0x40 DUP4 DUP8 ADD ADD MSTORE JUMPDEST POP PUSH1 0x1F ADD PUSH1 0x1F NOT AND SWAP3 SWAP1 SWAP3 ADD PUSH1 0x40 ADD SWAP4 SWAP3 POP POP POP JUMP JUMPDEST PUSH1 0x1 DUP2 DUP2 SHR SWAP1 DUP3 AND DUP1 PUSH2 0x1F2 JUMPI PUSH1 0x7F DUP3 AND SWAP2 POP JUMPDEST PUSH1 0x20 DUP3 LT DUP2 EQ ISZERO PUSH2 0x213 JUMPI PUSH4 0x4E487B71 PUSH1 0xE0 SHL PUSH1 0x0 MSTORE PUSH1 0x22 PUSH1 0x4 MSTORE PUSH1 0x24 PUSH1 0x0 REVERT JUMPDEST POP SWAP2 SWAP1 POP JUMP INVALID LOG2 PUSH5 0x6970667358 0x22 SLT KECCAK256 0xDD CALLVALUE PUSH20 0x8316B8FFCFD84E27BEA51B49C2421313871A6C8C 0xE2 DUP4 0xE5 BALANCE SWAP8 STOP PUSH25 0x245E64736F6C634300080C0033000000000000000000000000 ",
  "sha1": "f3227e182b570e19df8d2e8113131ca047d677ee",
  "source": "// SPDX-License-Identifier: Apache-2.0\npragma solidity 0.8.12;\n// interfaces\nimport \"../../interfaces/IERC725X.sol\";\nimport \"../../interfaces/IERC725Y.sol\";\nimport \"../ERC721/ERC165.sol\";\n\n// libraries\nimport \"OpenZeppelin/openzeppelin-contracts@4.2.0/contracts/utils/Create2.sol\";\nimport \"GNSPS/solidity-bytes-utils@0.8.0/contracts/BytesLib.sol\";\n\n\n/**\n * @title ERC725 X / ERC725 Y executor\n * @dev Implementation of a contract module which provides the ability to call arbitrary functions at any other smart contract and itself,\n * including using `delegatecall`, as well creating contracts using `create` and `create2`.\n * This is the basis for a smart contract based account system, but could also be used as a proxy account system.\n *\n * `execute` MUST only be called by the owner of the contract set via ERC173.\n *\n *  @author Fabian Vogelsteller <fabian@lukso.network>\n */\ncontract ERC725Ocean is ERC165, IERC725X, IERC725Y  {\n\n    bytes4 internal constant _INTERFACE_ID_ERC725X = 0x44c028fe;\n\n    uint256 constant OPERATION_CALL = 0;\n    uint256 constant OPERATION_DELEGATECALL = 1;\n    uint256 constant OPERATION_CREATE2 = 2;\n    uint256 constant OPERATION_CREATE = 3;\n\n    bytes4 internal constant _INTERFACE_ID_ERC725Y = 0x2bd57b73;\n\n    mapping(bytes32 => bytes) internal store;\n\n   \n    constructor() {\n       \n\n        _registerInterface(_INTERFACE_ID_ERC725X);\n        _registerInterface(_INTERFACE_ID_ERC725Y);\n    }\n\n    /* Public functions */\n\n    /**\n     * @notice Executes any other smart contract. Is only callable by the owner.\n     *\n     *\n     * @param _operation the operation to execute: CALL = 0; DELEGATECALL = 1; CREATE2 = 2; CREATE = 3;\n     * @param _to the smart contract or address to interact with. `_to` will be unused if a contract is created (operation 2 and 3)\n     * @param _value the value of ETH to transfer\n     * @param _data the call data, or the contract data to deploy\n     */\n    function execute(uint256 _operation, address _to, uint256 _value, bytes calldata _data)\n    internal\n    {\n        // emit event\n        emit Executed(_operation, _to, _value, _data);\n\n        uint256 txGas = gasleft() - 2500;\n\n        // CALL\n        if (_operation == OPERATION_CALL) {\n            executeCall(_to, _value, _data, txGas);\n\n        // DELEGATE CALL\n        // TODO: risky as storage slots can be overridden, remove?\n//        } else if (_operation == OPERATION_DELEGATECALL) {\n//            address currentOwner = owner();\n//            executeDelegateCall(_to, _data, txGas);\n//            // Check that the owner was not overridden\n//            require(owner() == currentOwner, \"Delegate call is not allowed to modify the owner!\");\n\n        // CREATE\n        } else if (_operation == OPERATION_CREATE) {\n            performCreate(_value, _data);\n\n        // CREATE2\n        } else if (_operation == OPERATION_CREATE2) {\n            bytes32 salt = BytesLib.toBytes32(_data, _data.length - 32);\n            bytes memory data = BytesLib.slice(_data, 0, _data.length - 32);\n\n            address contractAddress = Create2.deploy(_value, salt, data);\n\n            emit ContractCreated(contractAddress);\n\n        } else {\n            revert(\"Wrong operation type\");\n        }\n    }\n\n    /* Internal functions */\n\n    // Taken from GnosisSafe\n    // https://github.com/gnosis/safe-contracts/blob/development/contracts/base/Executor.sol\n    function executeCall(address to, uint256 value, bytes memory data, uint256 txGas)\n    internal\n    returns (bool success)\n    {\n        // solium-disable-next-line security/no-inline-assembly\n        assembly {\n            success := call(txGas, to, value, add(data, 0x20), mload(data), 0, 0)\n        }\n    }\n\n    // Taken from GnosisSafe\n    // https://github.com/gnosis/safe-contracts/blob/development/contracts/base/Executor.sol\n    function executeDelegateCall(address to, bytes memory data, uint256 txGas)\n    internal\n    returns (bool success)\n    {\n        // solium-disable-next-line security/no-inline-assembly\n        assembly {\n            success := delegatecall(txGas, to, add(data, 0x20), mload(data), 0, 0)\n        }\n    }\n\n    // Taken from GnosisSafe\n    // https://github.com/gnosis/safe-contracts/blob/development/contracts/libraries/CreateCall.sol\n    function performCreate(uint256 value, bytes memory deploymentData)\n    internal\n    returns (address newContract)\n    {\n        // solium-disable-next-line security/no-inline-assembly\n        assembly {\n            newContract := create(value, add(deploymentData, 0x20), mload(deploymentData))\n        }\n        require(newContract != address(0), \"Could not deploy contract\");\n        emit ContractCreated(newContract);\n    }\n\n\n       /* Public functions */\n\n    /**\n     * @notice Gets data at a given `key`\n     * @param _key the key which value to retrieve\n     * @return _value The data stored at the key\n     */\n    function getData(bytes32 _key)\n    public\n    view\n    override\n    virtual\n    returns (bytes memory _value)\n    {\n        return store[_key];\n    }\n\n    /**\n     * @notice Sets data at a given `key`\n     * @param _key the key which value to retrieve\n     * @param _value the bytes to set.\n     */\n    function setData(bytes32 _key, bytes calldata _value)\n    internal\n    virtual\n    {\n        store[_key] = _value;\n        emit DataChanged(_key, _value);\n    }\n\n\n}",
  "sourcePath": "contracts/oceanv4/utils/ERC725/ERC725Ocean.sol",
  "type": "contract"
}