{
  "abi": [
    {
      "anonymous": false,
      "inputs": [
        {
          "indexed": true,
          "internalType": "address",
          "name": "user",
          "type": "address"
        },
        {
          "indexed": true,
          "internalType": "address",
          "name": "signer",
          "type": "address"
        },
        {
          "indexed": false,
          "internalType": "uint256",
          "name": "timestamp",
          "type": "uint256"
        },
        {
          "indexed": false,
          "internalType": "uint256",
          "name": "blockNumber",
          "type": "uint256"
        }
      ],
      "name": "AddedManager",
      "type": "event"
    },
    {
      "anonymous": false,
      "inputs": [
        {
          "indexed": true,
          "internalType": "address",
          "name": "user",
          "type": "address"
        },
        {
          "indexed": true,
          "internalType": "address",
          "name": "signer",
          "type": "address"
        },
        {
          "indexed": false,
          "internalType": "uint256",
          "name": "timestamp",
          "type": "uint256"
        },
        {
          "indexed": false,
          "internalType": "uint256",
          "name": "blockNumber",
          "type": "uint256"
        }
      ],
      "name": "AddedTo725StoreList",
      "type": "event"
    },
    {
      "anonymous": false,
      "inputs": [
        {
          "indexed": true,
          "internalType": "address",
          "name": "user",
          "type": "address"
        },
        {
          "indexed": true,
          "internalType": "address",
          "name": "signer",
          "type": "address"
        },
        {
          "indexed": false,
          "internalType": "uint256",
          "name": "timestamp",
          "type": "uint256"
        },
        {
          "indexed": false,
          "internalType": "uint256",
          "name": "blockNumber",
          "type": "uint256"
        }
      ],
      "name": "AddedToCreateERC20List",
      "type": "event"
    },
    {
      "anonymous": false,
      "inputs": [
        {
          "indexed": true,
          "internalType": "address",
          "name": "user",
          "type": "address"
        },
        {
          "indexed": true,
          "internalType": "address",
          "name": "signer",
          "type": "address"
        },
        {
          "indexed": false,
          "internalType": "uint256",
          "name": "timestamp",
          "type": "uint256"
        },
        {
          "indexed": false,
          "internalType": "uint256",
          "name": "blockNumber",
          "type": "uint256"
        }
      ],
      "name": "AddedToMetadataList",
      "type": "event"
    },
    {
      "anonymous": false,
      "inputs": [
        {
          "indexed": true,
          "internalType": "address",
          "name": "signer",
          "type": "address"
        },
        {
          "indexed": false,
          "internalType": "uint256",
          "name": "timestamp",
          "type": "uint256"
        },
        {
          "indexed": false,
          "internalType": "uint256",
          "name": "blockNumber",
          "type": "uint256"
        }
      ],
      "name": "CleanedPermissions",
      "type": "event"
    },
    {
      "anonymous": false,
      "inputs": [
        {
          "indexed": true,
          "internalType": "address",
          "name": "user",
          "type": "address"
        },
        {
          "indexed": true,
          "internalType": "address",
          "name": "signer",
          "type": "address"
        },
        {
          "indexed": false,
          "internalType": "uint256",
          "name": "timestamp",
          "type": "uint256"
        },
        {
          "indexed": false,
          "internalType": "uint256",
          "name": "blockNumber",
          "type": "uint256"
        }
      ],
      "name": "RemovedFrom725StoreList",
      "type": "event"
    },
    {
      "anonymous": false,
      "inputs": [
        {
          "indexed": true,
          "internalType": "address",
          "name": "user",
          "type": "address"
        },
        {
          "indexed": true,
          "internalType": "address",
          "name": "signer",
          "type": "address"
        },
        {
          "indexed": false,
          "internalType": "uint256",
          "name": "timestamp",
          "type": "uint256"
        },
        {
          "indexed": false,
          "internalType": "uint256",
          "name": "blockNumber",
          "type": "uint256"
        }
      ],
      "name": "RemovedFromCreateERC20List",
      "type": "event"
    },
    {
      "anonymous": false,
      "inputs": [
        {
          "indexed": true,
          "internalType": "address",
          "name": "user",
          "type": "address"
        },
        {
          "indexed": true,
          "internalType": "address",
          "name": "signer",
          "type": "address"
        },
        {
          "indexed": false,
          "internalType": "uint256",
          "name": "timestamp",
          "type": "uint256"
        },
        {
          "indexed": false,
          "internalType": "uint256",
          "name": "blockNumber",
          "type": "uint256"
        }
      ],
      "name": "RemovedFromMetadataList",
      "type": "event"
    },
    {
      "anonymous": false,
      "inputs": [
        {
          "indexed": true,
          "internalType": "address",
          "name": "user",
          "type": "address"
        },
        {
          "indexed": true,
          "internalType": "address",
          "name": "signer",
          "type": "address"
        },
        {
          "indexed": false,
          "internalType": "uint256",
          "name": "timestamp",
          "type": "uint256"
        },
        {
          "indexed": false,
          "internalType": "uint256",
          "name": "blockNumber",
          "type": "uint256"
        }
      ],
      "name": "RemovedManager",
      "type": "event"
    },
    {
      "inputs": [
        {
          "internalType": "address[]",
          "name": "addresses",
          "type": "address[]"
        },
        {
          "internalType": "enum ERC721RolesAddress.RolesType[]",
          "name": "roles",
          "type": "uint8[]"
        }
      ],
      "name": "addMultipleUsersToRoles",
      "outputs": [],
      "stateMutability": "nonpayable",
      "type": "function"
    },
    {
      "inputs": [
        {
          "internalType": "address",
          "name": "_allowedAddress",
          "type": "address"
        }
      ],
      "name": "addTo725StoreList",
      "outputs": [],
      "stateMutability": "nonpayable",
      "type": "function"
    },
    {
      "inputs": [
        {
          "internalType": "address",
          "name": "_allowedAddress",
          "type": "address"
        }
      ],
      "name": "addToCreateERC20List",
      "outputs": [],
      "stateMutability": "nonpayable",
      "type": "function"
    },
    {
      "inputs": [
        {
          "internalType": "address",
          "name": "_allowedAddress",
          "type": "address"
        }
      ],
      "name": "addToMetadataList",
      "outputs": [],
      "stateMutability": "nonpayable",
      "type": "function"
    },
    {
      "inputs": [
        {
          "internalType": "uint256",
          "name": "",
          "type": "uint256"
        }
      ],
      "name": "auth",
      "outputs": [
        {
          "internalType": "address",
          "name": "",
          "type": "address"
        }
      ],
      "stateMutability": "view",
      "type": "function"
    },
    {
      "inputs": [
        {
          "internalType": "address",
          "name": "user",
          "type": "address"
        }
      ],
      "name": "getPermissions",
      "outputs": [
        {
          "components": [
            {
              "internalType": "bool",
              "name": "manager",
              "type": "bool"
            },
            {
              "internalType": "bool",
              "name": "deployERC20",
              "type": "bool"
            },
            {
              "internalType": "bool",
              "name": "updateMetadata",
              "type": "bool"
            },
            {
              "internalType": "bool",
              "name": "store",
              "type": "bool"
            }
          ],
          "internalType": "struct ERC721RolesAddress.Roles",
          "name": "",
          "type": "tuple"
        }
      ],
      "stateMutability": "view",
      "type": "function"
    },
    {
      "inputs": [
        {
          "internalType": "address",
          "name": "_allowedAddress",
          "type": "address"
        }
      ],
      "name": "removeFrom725StoreList",
      "outputs": [],
      "stateMutability": "nonpayable",
      "type": "function"
    },
    {
      "inputs": [
        {
          "internalType": "address",
          "name": "_allowedAddress",
          "type": "address"
        }
      ],
      "name": "removeFromCreateERC20List",
      "outputs": [],
      "stateMutability": "nonpayable",
      "type": "function"
    },
    {
      "inputs": [
        {
          "internalType": "address",
          "name": "_allowedAddress",
          "type": "address"
        }
      ],
      "name": "removeFromMetadataList",
      "outputs": [],
      "stateMutability": "nonpayable",
      "type": "function"
    }
  ],
  "bytecode": "608060405234801561001057600080fd5b50611149806100206000396000f3fe608060405234801561001057600080fd5b50600436106100935760003560e01c8063431053ac11610066578063431053ac146101aa5780634a63740a146101bd578063b0c41ead146101d0578063c2d60e6e146101fb578063fe1ec8801461020e57600080fd5b806310c558bf14610098578063160a7925146100ad57806319c186e514610184578063273e06b314610197575b600080fd5b6100ab6100a6366004610e73565b610221565b005b6101406100bb366004610e73565b604080516080810182526000808252602082018190529181018290526060810191909152506001600160a01b0316600090815260208181526040918290208251608081018452905460ff808216151583526101008204811615159383019390935262010000810483161515938201939093526301000000909204161515606082015290565b60405161017b919081511515815260208083015115159082015260408083015115159082015260609182015115159181019190915260800190565b60405180910390f35b6100ab610192366004610e73565b61026a565b6100ab6101a5366004610e73565b610329565b6100ab6101b8366004610e73565b61046c565b6100ab6101cb366004610e73565b61059d565b6101e36101de366004610e95565b6105da565b6040516001600160a01b03909116815260200161017b565b6100ab610209366004610f92565b610604565b6100ab61021c366004610e73565b610a10565b3360009081526020819052604090205460ff16151560011461025e5760405162461bcd60e51b815260040161025590611052565b60405180910390fd5b61026781610b3c565b50565b3360009081526020819052604090205460ff16151560011461029e5760405162461bcd60e51b815260040161025590611052565b6001600160a01b03811615610267576001600160a01b0381166000908152602081905260409020805463ff000000191663010000001781556102df82610bbd565b6040805142815243602082015233916001600160a01b038516917feb09276310ed110a7e565d64966d0ff68a47112d2dd5eeb6cbd7451836ce35ee91015b60405180910390a35050565b3360009081526020819052604090205460ff1615156001148061037a5750336001600160a01b03821614801561037a5750336000908152602081905260409020546301000000900460ff1615156001145b156103ef576001600160a01b03811660008181526020818152604091829020805463ff000000191681558251428152439281019290925292339290917fc929b18b08ffea86a1f95e29384dbe8968f2fcbd70cfd735df3aba1cc548cbf391015b60405180910390a36103eb82610c71565b5050565b60405162461bcd60e51b815260206004820152604660248201527f455243373231526f6c6573416464726573733a204e6f7420656e6f756768207060448201527f65726d697373696f6e7320746f2072656d6f76652066726f6d2037323553746f6064820152651c99531a5cdd60d21b608482015260a401610255565b3360009081526020819052604090205460ff161515600114806104bc5750336001600160a01b0382161480156104bc57503360009081526020819052604090205462010000900460ff1615156001145b1561051f576001600160a01b03811660008181526020818152604091829020805462ff0000191681558251428152439281019290925292339290917f9b41e1311fa819e825bc77fa2568492112e15ea92d173f3f8ee1c8ec3c1c562b91016103da565b60405162461bcd60e51b815260206004820152604760248201527f455243373231526f6c6573416464726573733a204e6f7420656e6f756768207060448201527f65726d697373696f6e7320746f2072656d6f76652066726f6d206d65746164616064820152661d18481b1a5cdd60ca1b608482015260a401610255565b3360009081526020819052604090205460ff1615156001146105d15760405162461bcd60e51b815260040161025590611052565b61026781610de7565b600181815481106105ea57600080fd5b6000918252602090912001546001600160a01b0316905081565b3360009081526020819052604090205460ff1615156001146106385760405162461bcd60e51b815260040161025590611052565b8051825114801561064a575060008151115b8015610657575060328151105b6106985760405162461bcd60e51b8152602060048201526012602482015271496e76616c69642061727261792073697a6560701b6044820152606401610255565b60005b8151811015610a0b5760006001600160a01b03168382815181106106c1576106c1611089565b60200260200101516001600160a01b0316146109f95760008060008584815181106106ee576106ee611089565b60200260200101516001600160a01b03166001600160a01b0316815260200190815260200160002090506000600381111561072b5761072b61109f565b83838151811061073d5761073d611089565b602002602001015160038111156107565761075661109f565b14156107d157805460ff191660011781558351339085908490811061077d5761077d611089565b60200260200101516001600160a01b03167faf8fc8b6726138c96881c895390a08e9d91a94c288f06281e7f9821c49c7155b42436040516107c8929190918252602082015260400190565b60405180910390a35b60018383815181106107e5576107e5611089565b602002602001015160038111156107fe576107fe61109f565b141561087b57805461ff0019166101001781558351339085908490811061082757610827611089565b60200260200101516001600160a01b03167f0572d56343be407a66810f01449212e8545e14ff5049c479d34be944cdfd0d4f4243604051610872929190918252602082015260400190565b60405180910390a35b600283838151811061088f5761088f611089565b602002602001015160038111156108a8576108a861109f565b141561092757805462ff0000191662010000178155835133908590849081106108d3576108d3611089565b60200260200101516001600160a01b03167fc2a42571a74ce1442c8c44d375ba9442e7d55d94b37afeace261c83c62128fa4424360405161091e929190918252602082015260400190565b60405180910390a35b600383838151811061093b5761093b611089565b602002602001015160038111156109545761095461109f565b14156109d557805463ff000000191663010000001781558351339085908490811061098157610981611089565b60200260200101516001600160a01b03167feb09276310ed110a7e565d64966d0ff68a47112d2dd5eeb6cbd7451836ce35ee42436040516109cc929190918252602082015260400190565b60405180910390a35b6109f78483815181106109ea576109ea611089565b6020026020010151610bbd565b505b80610a03816110cb565b91505061069b565b505050565b3360009081526020819052604090205460ff16151560011480610a605750336001600160a01b038216148015610a6057503360009081526020819052604090205460ff6101009091041615156001145b15610ac2576001600160a01b03811660008181526020818152604091829020805461ff00191681558251428152439281019290925292339290917f59bd33f4c27cc16a2d74450e1fa43d7896020be9aecea4bee009db9294de899791016103da565b60405162461bcd60e51b815260206004820152604360248201527f455243373231526f6c6573416464726573733a204e6f7420656e6f756768207060448201527f65726d697373696f6e7320746f2072656d6f76652066726f6d2045524332304c6064820152621a5cdd60ea1b608482015260a401610255565b6001600160a01b03811615610267576001600160a01b0381166000908152602081905260409020805462ff0000191662010000178155610b7b82610bbd565b6040805142815243602082015233916001600160a01b038516917fc2a42571a74ce1442c8c44d375ba9442e7d55d94b37afeace261c83c62128fa4910161031d565b60005b600154811015610c1957816001600160a01b031660018281548110610be757610be7611089565b6000918252602090912001546001600160a01b03161415610c0757610c19565b80610c11816110cb565b915050610bc0565b6001548114156103eb576001805480820182556000919091527fb10e2d527612073b26eecdfd717e6a320cf44b4afac2b0732d9fcbe2b7fa0cf60180546001600160a01b0319166001600160a01b0384161790555050565b6001600160a01b0381166000908152602081905260409020805460ff16158015610ca257508054610100900460ff16155b8015610cb65750805462010000900460ff16155b8015610ccb575080546301000000900460ff16155b156103eb5760005b600154811015610d2c57826001600160a01b031660018281548110610cfa57610cfa611089565b6000918252602090912001546001600160a01b03161415610d1a57610d2c565b80610d24816110cb565b915050610cd3565b600154811015610a0b5760018054610d459082906110e6565b81548110610d5557610d55611089565b600091825260209091200154600180546001600160a01b039092169183908110610d8157610d81611089565b9060005260206000200160006101000a8154816001600160a01b0302191690836001600160a01b031602179055506001805480610dc057610dc06110fd565b600082815260209020810160001990810180546001600160a01b0319169055019055505050565b6001600160a01b0381166000908152602081905260409020805461ff001916610100178155610e1582610bbd565b6040805142815243602082015233916001600160a01b038516917f0572d56343be407a66810f01449212e8545e14ff5049c479d34be944cdfd0d4f910161031d565b80356001600160a01b0381168114610e6e57600080fd5b919050565b600060208284031215610e8557600080fd5b610e8e82610e57565b9392505050565b600060208284031215610ea757600080fd5b5035919050565b634e487b7160e01b600052604160045260246000fd5b604051601f8201601f1916810167ffffffffffffffff81118282101715610eed57610eed610eae565b604052919050565b600067ffffffffffffffff821115610f0f57610f0f610eae565b5060051b60200190565b600082601f830112610f2a57600080fd5b81356020610f3f610f3a83610ef5565b610ec4565b82815260059290921b84018101918181019086841115610f5e57600080fd5b8286015b84811015610f8757803560048110610f7a5760008081fd5b8352918301918301610f62565b509695505050505050565b60008060408385031215610fa557600080fd5b823567ffffffffffffffff80821115610fbd57600080fd5b818501915085601f830112610fd157600080fd5b81356020610fe1610f3a83610ef5565b82815260059290921b8401810191818101908984111561100057600080fd5b948201945b838610156110255761101686610e57565b82529482019490820190611005565b9650508601359250508082111561103b57600080fd5b5061104885828601610f19565b9150509250929050565b6020808252601f908201527f455243373231526f6c6573416464726573733a204e4f54204d414e4147455200604082015260600190565b634e487b7160e01b600052603260045260246000fd5b634e487b7160e01b600052602160045260246000fd5b634e487b7160e01b600052601160045260246000fd5b60006000198214156110df576110df6110b5565b5060010190565b6000828210156110f8576110f86110b5565b500390565b634e487b7160e01b600052603160045260246000fdfea2646970667358221220dcbe33972ff1b7d95a08bcfe271f82a6594f1298d61adbf6edece1a4b4e5752764736f6c634300080c0033",
  "bytecodeSha1": "1cb187e7ee371b037d812441fab576c251e016ec",
  "compiler": {
    "evm_version": "istanbul",
    "optimizer": {
      "enabled": true,
      "runs": 200
    },
    "version": "0.8.12+commit.f00d7308"
  },
  "contractName": "ERC721RolesAddress",
  "language": "Solidity",
  "natspec": {
    "kind": "dev",
    "methods": {
      "addMultipleUsersToRoles(address[],uint8[])": {
        "details": "addMultipleUsersToRoles      Add multiple users to multiple roles",
        "params": {
          "addresses": "Array of addresses",
          "roles": "Array of coresponding roles"
        }
      },
      "addTo725StoreList(address)": {
        "details": "addTo725StoreList      Adds store role to an user.      It can be called only by a manager",
        "params": {
          "_allowedAddress": "user address"
        }
      },
      "addToCreateERC20List(address)": {
        "details": "addToCreateERC20List      Adds deployERC20 role to an user.      It can be called only by a manager",
        "params": {
          "_allowedAddress": "user address"
        }
      },
      "addToMetadataList(address)": {
        "details": "addToMetadataList      Adds metadata role to an user.      It can be called only by a manager",
        "params": {
          "_allowedAddress": "user address"
        }
      },
      "getPermissions(address)": {
        "details": "getPermissions      Returns list of roles for an user",
        "params": {
          "user": "user address"
        }
      },
      "removeFrom725StoreList(address)": {
        "details": "removeFrom725StoreList      Removes store role from an user.      It can be called by a manager or by the same user, if he already has store role",
        "params": {
          "_allowedAddress": "user address"
        }
      },
      "removeFromCreateERC20List(address)": {
        "details": "removeFromCreateERC20List      Removes deployERC20 role from an user.      It can be called by a manager or by the same user, if he already has deployERC20 role",
        "params": {
          "_allowedAddress": "user address"
        }
      },
      "removeFromMetadataList(address)": {
        "details": "removeFromMetadataList      Removes metadata role from an user.      It can be called by a manager or by the same user, if he already has metadata role",
        "params": {
          "_allowedAddress": "user address"
        }
      }
    },
    "version": 1
  },
  "opcodes": "PUSH1 0x80 PUSH1 0x40 MSTORE CALLVALUE DUP1 ISZERO PUSH2 0x10 JUMPI PUSH1 0x0 DUP1 REVERT JUMPDEST POP PUSH1 0x4 CALLDATASIZE LT PUSH2 0x93 JUMPI PUSH1 0x0 CALLDATALOAD PUSH1 0xE0 SHR DUP1 PUSH4 0x431053AC GT PUSH2 0x66 JUMPI DUP1 PUSH4 0x431053AC EQ PUSH2 0x1AA JUMPI DUP1 PUSH4 0x4A63740A EQ PUSH2 0x1BD JUMPI DUP1 PUSH4 0xB0C41EAD EQ PUSH2 0x1D0 JUMPI DUP1 PUSH4 0xC2D60E6E EQ PUSH2 0x1FB JUMPI DUP1 PUSH4 0xFE1EC880 EQ PUSH2 0x20E JUMPI PUSH1 0x0 DUP1 REVERT JUMPDEST DUP1 PUSH4 0x10C558BF EQ PUSH2 0x98 JUMPI DUP1 PUSH4 0x160A7925 EQ PUSH2 0xAD JUMPI DUP1 PUSH4 0x19C186E5 EQ PUSH2 0x184 JUMPI DUP1 PUSH4 0x273E06B3 EQ PUSH2 0x197 JUMPI JUMPDEST PUSH1 0x0 DUP1 REVERT JUMPDEST PUSH2 0xAB PUSH2 0xA6 CALLDATASIZE PUSH1 0x4 PUSH2 0xE73 JUMP JUMPDEST PUSH2 0x221 JUMP JUMPDEST STOP JUMPDEST PUSH2 0x140 PUSH2 0xBB CALLDATASIZE PUSH1 0x4 PUSH2 0xE73 JUMP JUMPDEST PUSH1 0x40 DUP1 MLOAD PUSH1 0x80 DUP2 ADD DUP3 MSTORE PUSH1 0x0 DUP1 DUP3 MSTORE PUSH1 0x20 DUP3 ADD DUP2 SWAP1 MSTORE SWAP2 DUP2 ADD DUP3 SWAP1 MSTORE PUSH1 0x60 DUP2 ADD SWAP2 SWAP1 SWAP2 MSTORE POP PUSH1 0x1 PUSH1 0x1 PUSH1 0xA0 SHL SUB AND PUSH1 0x0 SWAP1 DUP2 MSTORE PUSH1 0x20 DUP2 DUP2 MSTORE PUSH1 0x40 SWAP2 DUP3 SWAP1 KECCAK256 DUP3 MLOAD PUSH1 0x80 DUP2 ADD DUP5 MSTORE SWAP1 SLOAD PUSH1 0xFF DUP1 DUP3 AND ISZERO ISZERO DUP4 MSTORE PUSH2 0x100 DUP3 DIV DUP2 AND ISZERO ISZERO SWAP4 DUP4 ADD SWAP4 SWAP1 SWAP4 MSTORE PUSH3 0x10000 DUP2 DIV DUP4 AND ISZERO ISZERO SWAP4 DUP3 ADD SWAP4 SWAP1 SWAP4 MSTORE PUSH4 0x1000000 SWAP1 SWAP3 DIV AND ISZERO ISZERO PUSH1 0x60 DUP3 ADD MSTORE SWAP1 JUMP JUMPDEST PUSH1 0x40 MLOAD PUSH2 0x17B SWAP2 SWAP1 DUP2 MLOAD ISZERO ISZERO DUP2 MSTORE PUSH1 0x20 DUP1 DUP4 ADD MLOAD ISZERO ISZERO SWAP1 DUP3 ADD MSTORE PUSH1 0x40 DUP1 DUP4 ADD MLOAD ISZERO ISZERO SWAP1 DUP3 ADD MSTORE PUSH1 0x60 SWAP2 DUP3 ADD MLOAD ISZERO ISZERO SWAP2 DUP2 ADD SWAP2 SWAP1 SWAP2 MSTORE PUSH1 0x80 ADD SWAP1 JUMP JUMPDEST PUSH1 0x40 MLOAD DUP1 SWAP2 SUB SWAP1 RETURN JUMPDEST PUSH2 0xAB PUSH2 0x192 CALLDATASIZE PUSH1 0x4 PUSH2 0xE73 JUMP JUMPDEST PUSH2 0x26A JUMP JUMPDEST PUSH2 0xAB PUSH2 0x1A5 CALLDATASIZE PUSH1 0x4 PUSH2 0xE73 JUMP JUMPDEST PUSH2 0x329 JUMP JUMPDEST PUSH2 0xAB PUSH2 0x1B8 CALLDATASIZE PUSH1 0x4 PUSH2 0xE73 JUMP JUMPDEST PUSH2 0x46C JUMP JUMPDEST PUSH2 0xAB PUSH2 0x1CB CALLDATASIZE PUSH1 0x4 PUSH2 0xE73 JUMP JUMPDEST PUSH2 0x59D JUMP JUMPDEST PUSH2 0x1E3 PUSH2 0x1DE CALLDATASIZE PUSH1 0x4 PUSH2 0xE95 JUMP JUMPDEST PUSH2 0x5DA JUMP JUMPDEST PUSH1 0x40 MLOAD PUSH1 0x1 PUSH1 0x1 PUSH1 0xA0 SHL SUB SWAP1 SWAP2 AND DUP2 MSTORE PUSH1 0x20 ADD PUSH2 0x17B JUMP JUMPDEST PUSH2 0xAB PUSH2 0x209 CALLDATASIZE PUSH1 0x4 PUSH2 0xF92 JUMP JUMPDEST PUSH2 0x604 JUMP JUMPDEST PUSH2 0xAB PUSH2 0x21C CALLDATASIZE PUSH1 0x4 PUSH2 0xE73 JUMP JUMPDEST PUSH2 0xA10 JUMP JUMPDEST CALLER PUSH1 0x0 SWAP1 DUP2 MSTORE PUSH1 0x20 DUP2 SWAP1 MSTORE PUSH1 0x40 SWAP1 KECCAK256 SLOAD PUSH1 0xFF AND ISZERO ISZERO PUSH1 0x1 EQ PUSH2 0x25E JUMPI PUSH1 0x40 MLOAD PUSH3 0x461BCD PUSH1 0xE5 SHL DUP2 MSTORE PUSH1 0x4 ADD PUSH2 0x255 SWAP1 PUSH2 0x1052 JUMP JUMPDEST PUSH1 0x40 MLOAD DUP1 SWAP2 SUB SWAP1 REVERT JUMPDEST PUSH2 0x267 DUP2 PUSH2 0xB3C JUMP JUMPDEST POP JUMP JUMPDEST CALLER PUSH1 0x0 SWAP1 DUP2 MSTORE PUSH1 0x20 DUP2 SWAP1 MSTORE PUSH1 0x40 SWAP1 KECCAK256 SLOAD PUSH1 0xFF AND ISZERO ISZERO PUSH1 0x1 EQ PUSH2 0x29E JUMPI PUSH1 0x40 MLOAD PUSH3 0x461BCD PUSH1 0xE5 SHL DUP2 MSTORE PUSH1 0x4 ADD PUSH2 0x255 SWAP1 PUSH2 0x1052 JUMP JUMPDEST PUSH1 0x1 PUSH1 0x1 PUSH1 0xA0 SHL SUB DUP2 AND ISZERO PUSH2 0x267 JUMPI PUSH1 0x1 PUSH1 0x1 PUSH1 0xA0 SHL SUB DUP2 AND PUSH1 0x0 SWAP1 DUP2 MSTORE PUSH1 0x20 DUP2 SWAP1 MSTORE PUSH1 0x40 SWAP1 KECCAK256 DUP1 SLOAD PUSH4 0xFF000000 NOT AND PUSH4 0x1000000 OR DUP2 SSTORE PUSH2 0x2DF DUP3 PUSH2 0xBBD JUMP JUMPDEST PUSH1 0x40 DUP1 MLOAD TIMESTAMP DUP2 MSTORE NUMBER PUSH1 0x20 DUP3 ADD MSTORE CALLER SWAP2 PUSH1 0x1 PUSH1 0x1 PUSH1 0xA0 SHL SUB DUP6 AND SWAP2 PUSH32 0xEB09276310ED110A7E565D64966D0FF68A47112D2DD5EEB6CBD7451836CE35EE SWAP2 ADD JUMPDEST PUSH1 0x40 MLOAD DUP1 SWAP2 SUB SWAP1 LOG3 POP POP JUMP JUMPDEST CALLER PUSH1 0x0 SWAP1 DUP2 MSTORE PUSH1 0x20 DUP2 SWAP1 MSTORE PUSH1 0x40 SWAP1 KECCAK256 SLOAD PUSH1 0xFF AND ISZERO ISZERO PUSH1 0x1 EQ DUP1 PUSH2 0x37A JUMPI POP CALLER PUSH1 0x1 PUSH1 0x1 PUSH1 0xA0 SHL SUB DUP3 AND EQ DUP1 ISZERO PUSH2 0x37A JUMPI POP CALLER PUSH1 0x0 SWAP1 DUP2 MSTORE PUSH1 0x20 DUP2 SWAP1 MSTORE PUSH1 0x40 SWAP1 KECCAK256 SLOAD PUSH4 0x1000000 SWAP1 DIV PUSH1 0xFF AND ISZERO ISZERO PUSH1 0x1 EQ JUMPDEST ISZERO PUSH2 0x3EF JUMPI PUSH1 0x1 PUSH1 0x1 PUSH1 0xA0 SHL SUB DUP2 AND PUSH1 0x0 DUP2 DUP2 MSTORE PUSH1 0x20 DUP2 DUP2 MSTORE PUSH1 0x40 SWAP2 DUP3 SWAP1 KECCAK256 DUP1 SLOAD PUSH4 0xFF000000 NOT AND DUP2 SSTORE DUP3 MLOAD TIMESTAMP DUP2 MSTORE NUMBER SWAP3 DUP2 ADD SWAP3 SWAP1 SWAP3 MSTORE SWAP3 CALLER SWAP3 SWAP1 SWAP2 PUSH32 0xC929B18B08FFEA86A1F95E29384DBE8968F2FCBD70CFD735DF3ABA1CC548CBF3 SWAP2 ADD JUMPDEST PUSH1 0x40 MLOAD DUP1 SWAP2 SUB SWAP1 LOG3 PUSH2 0x3EB DUP3 PUSH2 0xC71 JUMP JUMPDEST POP POP JUMP JUMPDEST PUSH1 0x40 MLOAD PUSH3 0x461BCD PUSH1 0xE5 SHL DUP2 MSTORE PUSH1 0x20 PUSH1 0x4 DUP3 ADD MSTORE PUSH1 0x46 PUSH1 0x24 DUP3 ADD MSTORE PUSH32 0x455243373231526F6C6573416464726573733A204E6F7420656E6F7567682070 PUSH1 0x44 DUP3 ADD MSTORE PUSH32 0x65726D697373696F6E7320746F2072656D6F76652066726F6D2037323553746F PUSH1 0x64 DUP3 ADD MSTORE PUSH6 0x1C99531A5CDD PUSH1 0xD2 SHL PUSH1 0x84 DUP3 ADD MSTORE PUSH1 0xA4 ADD PUSH2 0x255 JUMP JUMPDEST CALLER PUSH1 0x0 SWAP1 DUP2 MSTORE PUSH1 0x20 DUP2 SWAP1 MSTORE PUSH1 0x40 SWAP1 KECCAK256 SLOAD PUSH1 0xFF AND ISZERO ISZERO PUSH1 0x1 EQ DUP1 PUSH2 0x4BC JUMPI POP CALLER PUSH1 0x1 PUSH1 0x1 PUSH1 0xA0 SHL SUB DUP3 AND EQ DUP1 ISZERO PUSH2 0x4BC JUMPI POP CALLER PUSH1 0x0 SWAP1 DUP2 MSTORE PUSH1 0x20 DUP2 SWAP1 MSTORE PUSH1 0x40 SWAP1 KECCAK256 SLOAD PUSH3 0x10000 SWAP1 DIV PUSH1 0xFF AND ISZERO ISZERO PUSH1 0x1 EQ JUMPDEST ISZERO PUSH2 0x51F JUMPI PUSH1 0x1 PUSH1 0x1 PUSH1 0xA0 SHL SUB DUP2 AND PUSH1 0x0 DUP2 DUP2 MSTORE PUSH1 0x20 DUP2 DUP2 MSTORE PUSH1 0x40 SWAP2 DUP3 SWAP1 KECCAK256 DUP1 SLOAD PUSH3 0xFF0000 NOT AND DUP2 SSTORE DUP3 MLOAD TIMESTAMP DUP2 MSTORE NUMBER SWAP3 DUP2 ADD SWAP3 SWAP1 SWAP3 MSTORE SWAP3 CALLER SWAP3 SWAP1 SWAP2 PUSH32 0x9B41E1311FA819E825BC77FA2568492112E15EA92D173F3F8EE1C8EC3C1C562B SWAP2 ADD PUSH2 0x3DA JUMP JUMPDEST PUSH1 0x40 MLOAD PUSH3 0x461BCD PUSH1 0xE5 SHL DUP2 MSTORE PUSH1 0x20 PUSH1 0x4 DUP3 ADD MSTORE PUSH1 0x47 PUSH1 0x24 DUP3 ADD MSTORE PUSH32 0x455243373231526F6C6573416464726573733A204E6F7420656E6F7567682070 PUSH1 0x44 DUP3 ADD MSTORE PUSH32 0x65726D697373696F6E7320746F2072656D6F76652066726F6D206D6574616461 PUSH1 0x64 DUP3 ADD MSTORE PUSH7 0x1D18481B1A5CDD PUSH1 0xCA SHL PUSH1 0x84 DUP3 ADD MSTORE PUSH1 0xA4 ADD PUSH2 0x255 JUMP JUMPDEST CALLER PUSH1 0x0 SWAP1 DUP2 MSTORE PUSH1 0x20 DUP2 SWAP1 MSTORE PUSH1 0x40 SWAP1 KECCAK256 SLOAD PUSH1 0xFF AND ISZERO ISZERO PUSH1 0x1 EQ PUSH2 0x5D1 JUMPI PUSH1 0x40 MLOAD PUSH3 0x461BCD PUSH1 0xE5 SHL DUP2 MSTORE PUSH1 0x4 ADD PUSH2 0x255 SWAP1 PUSH2 0x1052 JUMP JUMPDEST PUSH2 0x267 DUP2 PUSH2 0xDE7 JUMP JUMPDEST PUSH1 0x1 DUP2 DUP2 SLOAD DUP2 LT PUSH2 0x5EA JUMPI PUSH1 0x0 DUP1 REVERT JUMPDEST PUSH1 0x0 SWAP2 DUP3 MSTORE PUSH1 0x20 SWAP1 SWAP2 KECCAK256 ADD SLOAD PUSH1 0x1 PUSH1 0x1 PUSH1 0xA0 SHL SUB AND SWAP1 POP DUP2 JUMP JUMPDEST CALLER PUSH1 0x0 SWAP1 DUP2 MSTORE PUSH1 0x20 DUP2 SWAP1 MSTORE PUSH1 0x40 SWAP1 KECCAK256 SLOAD PUSH1 0xFF AND ISZERO ISZERO PUSH1 0x1 EQ PUSH2 0x638 JUMPI PUSH1 0x40 MLOAD PUSH3 0x461BCD PUSH1 0xE5 SHL DUP2 MSTORE PUSH1 0x4 ADD PUSH2 0x255 SWAP1 PUSH2 0x1052 JUMP JUMPDEST DUP1 MLOAD DUP3 MLOAD EQ DUP1 ISZERO PUSH2 0x64A JUMPI POP PUSH1 0x0 DUP2 MLOAD GT JUMPDEST DUP1 ISZERO PUSH2 0x657 JUMPI POP PUSH1 0x32 DUP2 MLOAD LT JUMPDEST PUSH2 0x698 JUMPI PUSH1 0x40 MLOAD PUSH3 0x461BCD PUSH1 0xE5 SHL DUP2 MSTORE PUSH1 0x20 PUSH1 0x4 DUP3 ADD MSTORE PUSH1 0x12 PUSH1 0x24 DUP3 ADD MSTORE PUSH18 0x496E76616C69642061727261792073697A65 PUSH1 0x70 SHL PUSH1 0x44 DUP3 ADD MSTORE PUSH1 0x64 ADD PUSH2 0x255 JUMP JUMPDEST PUSH1 0x0 JUMPDEST DUP2 MLOAD DUP2 LT ISZERO PUSH2 0xA0B JUMPI PUSH1 0x0 PUSH1 0x1 PUSH1 0x1 PUSH1 0xA0 SHL SUB AND DUP4 DUP3 DUP2 MLOAD DUP2 LT PUSH2 0x6C1 JUMPI PUSH2 0x6C1 PUSH2 0x1089 JUMP JUMPDEST PUSH1 0x20 MUL PUSH1 0x20 ADD ADD MLOAD PUSH1 0x1 PUSH1 0x1 PUSH1 0xA0 SHL SUB AND EQ PUSH2 0x9F9 JUMPI PUSH1 0x0 DUP1 PUSH1 0x0 DUP6 DUP5 DUP2 MLOAD DUP2 LT PUSH2 0x6EE JUMPI PUSH2 0x6EE PUSH2 0x1089 JUMP JUMPDEST PUSH1 0x20 MUL PUSH1 0x20 ADD ADD MLOAD PUSH1 0x1 PUSH1 0x1 PUSH1 0xA0 SHL SUB AND PUSH1 0x1 PUSH1 0x1 PUSH1 0xA0 SHL SUB AND DUP2 MSTORE PUSH1 0x20 ADD SWAP1 DUP2 MSTORE PUSH1 0x20 ADD PUSH1 0x0 KECCAK256 SWAP1 POP PUSH1 0x0 PUSH1 0x3 DUP2 GT ISZERO PUSH2 0x72B JUMPI PUSH2 0x72B PUSH2 0x109F JUMP JUMPDEST DUP4 DUP4 DUP2 MLOAD DUP2 LT PUSH2 0x73D JUMPI PUSH2 0x73D PUSH2 0x1089 JUMP JUMPDEST PUSH1 0x20 MUL PUSH1 0x20 ADD ADD MLOAD PUSH1 0x3 DUP2 GT ISZERO PUSH2 0x756 JUMPI PUSH2 0x756 PUSH2 0x109F JUMP JUMPDEST EQ ISZERO PUSH2 0x7D1 JUMPI DUP1 SLOAD PUSH1 0xFF NOT AND PUSH1 0x1 OR DUP2 SSTORE DUP4 MLOAD CALLER SWAP1 DUP6 SWAP1 DUP5 SWAP1 DUP2 LT PUSH2 0x77D JUMPI PUSH2 0x77D PUSH2 0x1089 JUMP JUMPDEST PUSH1 0x20 MUL PUSH1 0x20 ADD ADD MLOAD PUSH1 0x1 PUSH1 0x1 PUSH1 0xA0 SHL SUB AND PUSH32 0xAF8FC8B6726138C96881C895390A08E9D91A94C288F06281E7F9821C49C7155B TIMESTAMP NUMBER PUSH1 0x40 MLOAD PUSH2 0x7C8 SWAP3 SWAP2 SWAP1 SWAP2 DUP3 MSTORE PUSH1 0x20 DUP3 ADD MSTORE PUSH1 0x40 ADD SWAP1 JUMP JUMPDEST PUSH1 0x40 MLOAD DUP1 SWAP2 SUB SWAP1 LOG3 JUMPDEST PUSH1 0x1 DUP4 DUP4 DUP2 MLOAD DUP2 LT PUSH2 0x7E5 JUMPI PUSH2 0x7E5 PUSH2 0x1089 JUMP JUMPDEST PUSH1 0x20 MUL PUSH1 0x20 ADD ADD MLOAD PUSH1 0x3 DUP2 GT ISZERO PUSH2 0x7FE JUMPI PUSH2 0x7FE PUSH2 0x109F JUMP JUMPDEST EQ ISZERO PUSH2 0x87B JUMPI DUP1 SLOAD PUSH2 0xFF00 NOT AND PUSH2 0x100 OR DUP2 SSTORE DUP4 MLOAD CALLER SWAP1 DUP6 SWAP1 DUP5 SWAP1 DUP2 LT PUSH2 0x827 JUMPI PUSH2 0x827 PUSH2 0x1089 JUMP JUMPDEST PUSH1 0x20 MUL PUSH1 0x20 ADD ADD MLOAD PUSH1 0x1 PUSH1 0x1 PUSH1 0xA0 SHL SUB AND PUSH32 0x572D56343BE407A66810F01449212E8545E14FF5049C479D34BE944CDFD0D4F TIMESTAMP NUMBER PUSH1 0x40 MLOAD PUSH2 0x872 SWAP3 SWAP2 SWAP1 SWAP2 DUP3 MSTORE PUSH1 0x20 DUP3 ADD MSTORE PUSH1 0x40 ADD SWAP1 JUMP JUMPDEST PUSH1 0x40 MLOAD DUP1 SWAP2 SUB SWAP1 LOG3 JUMPDEST PUSH1 0x2 DUP4 DUP4 DUP2 MLOAD DUP2 LT PUSH2 0x88F JUMPI PUSH2 0x88F PUSH2 0x1089 JUMP JUMPDEST PUSH1 0x20 MUL PUSH1 0x20 ADD ADD MLOAD PUSH1 0x3 DUP2 GT ISZERO PUSH2 0x8A8 JUMPI PUSH2 0x8A8 PUSH2 0x109F JUMP JUMPDEST EQ ISZERO PUSH2 0x927 JUMPI DUP1 SLOAD PUSH3 0xFF0000 NOT AND PUSH3 0x10000 OR DUP2 SSTORE DUP4 MLOAD CALLER SWAP1 DUP6 SWAP1 DUP5 SWAP1 DUP2 LT PUSH2 0x8D3 JUMPI PUSH2 0x8D3 PUSH2 0x1089 JUMP JUMPDEST PUSH1 0x20 MUL PUSH1 0x20 ADD ADD MLOAD PUSH1 0x1 PUSH1 0x1 PUSH1 0xA0 SHL SUB AND PUSH32 0xC2A42571A74CE1442C8C44D375BA9442E7D55D94B37AFEACE261C83C62128FA4 TIMESTAMP NUMBER PUSH1 0x40 MLOAD PUSH2 0x91E SWAP3 SWAP2 SWAP1 SWAP2 DUP3 MSTORE PUSH1 0x20 DUP3 ADD MSTORE PUSH1 0x40 ADD SWAP1 JUMP JUMPDEST PUSH1 0x40 MLOAD DUP1 SWAP2 SUB SWAP1 LOG3 JUMPDEST PUSH1 0x3 DUP4 DUP4 DUP2 MLOAD DUP2 LT PUSH2 0x93B JUMPI PUSH2 0x93B PUSH2 0x1089 JUMP JUMPDEST PUSH1 0x20 MUL PUSH1 0x20 ADD ADD MLOAD PUSH1 0x3 DUP2 GT ISZERO PUSH2 0x954 JUMPI PUSH2 0x954 PUSH2 0x109F JUMP JUMPDEST EQ ISZERO PUSH2 0x9D5 JUMPI DUP1 SLOAD PUSH4 0xFF000000 NOT AND PUSH4 0x1000000 OR DUP2 SSTORE DUP4 MLOAD CALLER SWAP1 DUP6 SWAP1 DUP5 SWAP1 DUP2 LT PUSH2 0x981 JUMPI PUSH2 0x981 PUSH2 0x1089 JUMP JUMPDEST PUSH1 0x20 MUL PUSH1 0x20 ADD ADD MLOAD PUSH1 0x1 PUSH1 0x1 PUSH1 0xA0 SHL SUB AND PUSH32 0xEB09276310ED110A7E565D64966D0FF68A47112D2DD5EEB6CBD7451836CE35EE TIMESTAMP NUMBER PUSH1 0x40 MLOAD PUSH2 0x9CC SWAP3 SWAP2 SWAP1 SWAP2 DUP3 MSTORE PUSH1 0x20 DUP3 ADD MSTORE PUSH1 0x40 ADD SWAP1 JUMP JUMPDEST PUSH1 0x40 MLOAD DUP1 SWAP2 SUB SWAP1 LOG3 JUMPDEST PUSH2 0x9F7 DUP5 DUP4 DUP2 MLOAD DUP2 LT PUSH2 0x9EA JUMPI PUSH2 0x9EA PUSH2 0x1089 JUMP JUMPDEST PUSH1 0x20 MUL PUSH1 0x20 ADD ADD MLOAD PUSH2 0xBBD JUMP JUMPDEST POP JUMPDEST DUP1 PUSH2 0xA03 DUP2 PUSH2 0x10CB JUMP JUMPDEST SWAP2 POP POP PUSH2 0x69B JUMP JUMPDEST POP POP POP JUMP JUMPDEST CALLER PUSH1 0x0 SWAP1 DUP2 MSTORE PUSH1 0x20 DUP2 SWAP1 MSTORE PUSH1 0x40 SWAP1 KECCAK256 SLOAD PUSH1 0xFF AND ISZERO ISZERO PUSH1 0x1 EQ DUP1 PUSH2 0xA60 JUMPI POP CALLER PUSH1 0x1 PUSH1 0x1 PUSH1 0xA0 SHL SUB DUP3 AND EQ DUP1 ISZERO PUSH2 0xA60 JUMPI POP CALLER PUSH1 0x0 SWAP1 DUP2 MSTORE PUSH1 0x20 DUP2 SWAP1 MSTORE PUSH1 0x40 SWAP1 KECCAK256 SLOAD PUSH1 0xFF PUSH2 0x100 SWAP1 SWAP2 DIV AND ISZERO ISZERO PUSH1 0x1 EQ JUMPDEST ISZERO PUSH2 0xAC2 JUMPI PUSH1 0x1 PUSH1 0x1 PUSH1 0xA0 SHL SUB DUP2 AND PUSH1 0x0 DUP2 DUP2 MSTORE PUSH1 0x20 DUP2 DUP2 MSTORE PUSH1 0x40 SWAP2 DUP3 SWAP1 KECCAK256 DUP1 SLOAD PUSH2 0xFF00 NOT AND DUP2 SSTORE DUP3 MLOAD TIMESTAMP DUP2 MSTORE NUMBER SWAP3 DUP2 ADD SWAP3 SWAP1 SWAP3 MSTORE SWAP3 CALLER SWAP3 SWAP1 SWAP2 PUSH32 0x59BD33F4C27CC16A2D74450E1FA43D7896020BE9AECEA4BEE009DB9294DE8997 SWAP2 ADD PUSH2 0x3DA JUMP JUMPDEST PUSH1 0x40 MLOAD PUSH3 0x461BCD PUSH1 0xE5 SHL DUP2 MSTORE PUSH1 0x20 PUSH1 0x4 DUP3 ADD MSTORE PUSH1 0x43 PUSH1 0x24 DUP3 ADD MSTORE PUSH32 0x455243373231526F6C6573416464726573733A204E6F7420656E6F7567682070 PUSH1 0x44 DUP3 ADD MSTORE PUSH32 0x65726D697373696F6E7320746F2072656D6F76652066726F6D2045524332304C PUSH1 0x64 DUP3 ADD MSTORE PUSH3 0x1A5CDD PUSH1 0xEA SHL PUSH1 0x84 DUP3 ADD MSTORE PUSH1 0xA4 ADD PUSH2 0x255 JUMP JUMPDEST PUSH1 0x1 PUSH1 0x1 PUSH1 0xA0 SHL SUB DUP2 AND ISZERO PUSH2 0x267 JUMPI PUSH1 0x1 PUSH1 0x1 PUSH1 0xA0 SHL SUB DUP2 AND PUSH1 0x0 SWAP1 DUP2 MSTORE PUSH1 0x20 DUP2 SWAP1 MSTORE PUSH1 0x40 SWAP1 KECCAK256 DUP1 SLOAD PUSH3 0xFF0000 NOT AND PUSH3 0x10000 OR DUP2 SSTORE PUSH2 0xB7B DUP3 PUSH2 0xBBD JUMP JUMPDEST PUSH1 0x40 DUP1 MLOAD TIMESTAMP DUP2 MSTORE NUMBER PUSH1 0x20 DUP3 ADD MSTORE CALLER SWAP2 PUSH1 0x1 PUSH1 0x1 PUSH1 0xA0 SHL SUB DUP6 AND SWAP2 PUSH32 0xC2A42571A74CE1442C8C44D375BA9442E7D55D94B37AFEACE261C83C62128FA4 SWAP2 ADD PUSH2 0x31D JUMP JUMPDEST PUSH1 0x0 JUMPDEST PUSH1 0x1 SLOAD DUP2 LT ISZERO PUSH2 0xC19 JUMPI DUP2 PUSH1 0x1 PUSH1 0x1 PUSH1 0xA0 SHL SUB AND PUSH1 0x1 DUP3 DUP2 SLOAD DUP2 LT PUSH2 0xBE7 JUMPI PUSH2 0xBE7 PUSH2 0x1089 JUMP JUMPDEST PUSH1 0x0 SWAP2 DUP3 MSTORE PUSH1 0x20 SWAP1 SWAP2 KECCAK256 ADD SLOAD PUSH1 0x1 PUSH1 0x1 PUSH1 0xA0 SHL SUB AND EQ ISZERO PUSH2 0xC07 JUMPI PUSH2 0xC19 JUMP JUMPDEST DUP1 PUSH2 0xC11 DUP2 PUSH2 0x10CB JUMP JUMPDEST SWAP2 POP POP PUSH2 0xBC0 JUMP JUMPDEST PUSH1 0x1 SLOAD DUP2 EQ ISZERO PUSH2 0x3EB JUMPI PUSH1 0x1 DUP1 SLOAD DUP1 DUP3 ADD DUP3 SSTORE PUSH1 0x0 SWAP2 SWAP1 SWAP2 MSTORE PUSH32 0xB10E2D527612073B26EECDFD717E6A320CF44B4AFAC2B0732D9FCBE2B7FA0CF6 ADD DUP1 SLOAD PUSH1 0x1 PUSH1 0x1 PUSH1 0xA0 SHL SUB NOT AND PUSH1 0x1 PUSH1 0x1 PUSH1 0xA0 SHL SUB DUP5 AND OR SWAP1 SSTORE POP POP JUMP JUMPDEST PUSH1 0x1 PUSH1 0x1 PUSH1 0xA0 SHL SUB DUP2 AND PUSH1 0x0 SWAP1 DUP2 MSTORE PUSH1 0x20 DUP2 SWAP1 MSTORE PUSH1 0x40 SWAP1 KECCAK256 DUP1 SLOAD PUSH1 0xFF AND ISZERO DUP1 ISZERO PUSH2 0xCA2 JUMPI POP DUP1 SLOAD PUSH2 0x100 SWAP1 DIV PUSH1 0xFF AND ISZERO JUMPDEST DUP1 ISZERO PUSH2 0xCB6 JUMPI POP DUP1 SLOAD PUSH3 0x10000 SWAP1 DIV PUSH1 0xFF AND ISZERO JUMPDEST DUP1 ISZERO PUSH2 0xCCB JUMPI POP DUP1 SLOAD PUSH4 0x1000000 SWAP1 DIV PUSH1 0xFF AND ISZERO JUMPDEST ISZERO PUSH2 0x3EB JUMPI PUSH1 0x0 JUMPDEST PUSH1 0x1 SLOAD DUP2 LT ISZERO PUSH2 0xD2C JUMPI DUP3 PUSH1 0x1 PUSH1 0x1 PUSH1 0xA0 SHL SUB AND PUSH1 0x1 DUP3 DUP2 SLOAD DUP2 LT PUSH2 0xCFA JUMPI PUSH2 0xCFA PUSH2 0x1089 JUMP JUMPDEST PUSH1 0x0 SWAP2 DUP3 MSTORE PUSH1 0x20 SWAP1 SWAP2 KECCAK256 ADD SLOAD PUSH1 0x1 PUSH1 0x1 PUSH1 0xA0 SHL SUB AND EQ ISZERO PUSH2 0xD1A JUMPI PUSH2 0xD2C JUMP JUMPDEST DUP1 PUSH2 0xD24 DUP2 PUSH2 0x10CB JUMP JUMPDEST SWAP2 POP POP PUSH2 0xCD3 JUMP JUMPDEST PUSH1 0x1 SLOAD DUP2 LT ISZERO PUSH2 0xA0B JUMPI PUSH1 0x1 DUP1 SLOAD PUSH2 0xD45 SWAP1 DUP3 SWAP1 PUSH2 0x10E6 JUMP JUMPDEST DUP2 SLOAD DUP2 LT PUSH2 0xD55 JUMPI PUSH2 0xD55 PUSH2 0x1089 JUMP JUMPDEST PUSH1 0x0 SWAP2 DUP3 MSTORE PUSH1 0x20 SWAP1 SWAP2 KECCAK256 ADD SLOAD PUSH1 0x1 DUP1 SLOAD PUSH1 0x1 PUSH1 0x1 PUSH1 0xA0 SHL SUB SWAP1 SWAP3 AND SWAP2 DUP4 SWAP1 DUP2 LT PUSH2 0xD81 JUMPI PUSH2 0xD81 PUSH2 0x1089 JUMP JUMPDEST SWAP1 PUSH1 0x0 MSTORE PUSH1 0x20 PUSH1 0x0 KECCAK256 ADD PUSH1 0x0 PUSH2 0x100 EXP DUP2 SLOAD DUP2 PUSH1 0x1 PUSH1 0x1 PUSH1 0xA0 SHL SUB MUL NOT AND SWAP1 DUP4 PUSH1 0x1 PUSH1 0x1 PUSH1 0xA0 SHL SUB AND MUL OR SWAP1 SSTORE POP PUSH1 0x1 DUP1 SLOAD DUP1 PUSH2 0xDC0 JUMPI PUSH2 0xDC0 PUSH2 0x10FD JUMP JUMPDEST PUSH1 0x0 DUP3 DUP2 MSTORE PUSH1 0x20 SWAP1 KECCAK256 DUP2 ADD PUSH1 0x0 NOT SWAP1 DUP2 ADD DUP1 SLOAD PUSH1 0x1 PUSH1 0x1 PUSH1 0xA0 SHL SUB NOT AND SWAP1 SSTORE ADD SWAP1 SSTORE POP POP POP JUMP JUMPDEST PUSH1 0x1 PUSH1 0x1 PUSH1 0xA0 SHL SUB DUP2 AND PUSH1 0x0 SWAP1 DUP2 MSTORE PUSH1 0x20 DUP2 SWAP1 MSTORE PUSH1 0x40 SWAP1 KECCAK256 DUP1 SLOAD PUSH2 0xFF00 NOT AND PUSH2 0x100 OR DUP2 SSTORE PUSH2 0xE15 DUP3 PUSH2 0xBBD JUMP JUMPDEST PUSH1 0x40 DUP1 MLOAD TIMESTAMP DUP2 MSTORE NUMBER PUSH1 0x20 DUP3 ADD MSTORE CALLER SWAP2 PUSH1 0x1 PUSH1 0x1 PUSH1 0xA0 SHL SUB DUP6 AND SWAP2 PUSH32 0x572D56343BE407A66810F01449212E8545E14FF5049C479D34BE944CDFD0D4F SWAP2 ADD PUSH2 0x31D JUMP JUMPDEST DUP1 CALLDATALOAD PUSH1 0x1 PUSH1 0x1 PUSH1 0xA0 SHL SUB DUP2 AND DUP2 EQ PUSH2 0xE6E JUMPI PUSH1 0x0 DUP1 REVERT JUMPDEST SWAP2 SWAP1 POP JUMP JUMPDEST PUSH1 0x0 PUSH1 0x20 DUP3 DUP5 SUB SLT ISZERO PUSH2 0xE85 JUMPI PUSH1 0x0 DUP1 REVERT JUMPDEST PUSH2 0xE8E DUP3 PUSH2 0xE57 JUMP JUMPDEST SWAP4 SWAP3 POP POP POP JUMP JUMPDEST PUSH1 0x0 PUSH1 0x20 DUP3 DUP5 SUB SLT ISZERO PUSH2 0xEA7 JUMPI PUSH1 0x0 DUP1 REVERT JUMPDEST POP CALLDATALOAD SWAP2 SWAP1 POP JUMP JUMPDEST PUSH4 0x4E487B71 PUSH1 0xE0 SHL PUSH1 0x0 MSTORE PUSH1 0x41 PUSH1 0x4 MSTORE PUSH1 0x24 PUSH1 0x0 REVERT JUMPDEST PUSH1 0x40 MLOAD PUSH1 0x1F DUP3 ADD PUSH1 0x1F NOT AND DUP2 ADD PUSH8 0xFFFFFFFFFFFFFFFF DUP2 GT DUP3 DUP3 LT OR ISZERO PUSH2 0xEED JUMPI PUSH2 0xEED PUSH2 0xEAE JUMP JUMPDEST PUSH1 0x40 MSTORE SWAP2 SWAP1 POP JUMP JUMPDEST PUSH1 0x0 PUSH8 0xFFFFFFFFFFFFFFFF DUP3 GT ISZERO PUSH2 0xF0F JUMPI PUSH2 0xF0F PUSH2 0xEAE JUMP JUMPDEST POP PUSH1 0x5 SHL PUSH1 0x20 ADD SWAP1 JUMP JUMPDEST PUSH1 0x0 DUP3 PUSH1 0x1F DUP4 ADD SLT PUSH2 0xF2A JUMPI PUSH1 0x0 DUP1 REVERT JUMPDEST DUP2 CALLDATALOAD PUSH1 0x20 PUSH2 0xF3F PUSH2 0xF3A DUP4 PUSH2 0xEF5 JUMP JUMPDEST PUSH2 0xEC4 JUMP JUMPDEST DUP3 DUP2 MSTORE PUSH1 0x5 SWAP3 SWAP1 SWAP3 SHL DUP5 ADD DUP2 ADD SWAP2 DUP2 DUP2 ADD SWAP1 DUP7 DUP5 GT ISZERO PUSH2 0xF5E JUMPI PUSH1 0x0 DUP1 REVERT JUMPDEST DUP3 DUP7 ADD JUMPDEST DUP5 DUP2 LT ISZERO PUSH2 0xF87 JUMPI DUP1 CALLDATALOAD PUSH1 0x4 DUP2 LT PUSH2 0xF7A JUMPI PUSH1 0x0 DUP1 DUP2 REVERT JUMPDEST DUP4 MSTORE SWAP2 DUP4 ADD SWAP2 DUP4 ADD PUSH2 0xF62 JUMP JUMPDEST POP SWAP7 SWAP6 POP POP POP POP POP POP JUMP JUMPDEST PUSH1 0x0 DUP1 PUSH1 0x40 DUP4 DUP6 SUB SLT ISZERO PUSH2 0xFA5 JUMPI PUSH1 0x0 DUP1 REVERT JUMPDEST DUP3 CALLDATALOAD PUSH8 0xFFFFFFFFFFFFFFFF DUP1 DUP3 GT ISZERO PUSH2 0xFBD JUMPI PUSH1 0x0 DUP1 REVERT JUMPDEST DUP2 DUP6 ADD SWAP2 POP DUP6 PUSH1 0x1F DUP4 ADD SLT PUSH2 0xFD1 JUMPI PUSH1 0x0 DUP1 REVERT JUMPDEST DUP2 CALLDATALOAD PUSH1 0x20 PUSH2 0xFE1 PUSH2 0xF3A DUP4 PUSH2 0xEF5 JUMP JUMPDEST DUP3 DUP2 MSTORE PUSH1 0x5 SWAP3 SWAP1 SWAP3 SHL DUP5 ADD DUP2 ADD SWAP2 DUP2 DUP2 ADD SWAP1 DUP10 DUP5 GT ISZERO PUSH2 0x1000 JUMPI PUSH1 0x0 DUP1 REVERT JUMPDEST SWAP5 DUP3 ADD SWAP5 JUMPDEST DUP4 DUP7 LT ISZERO PUSH2 0x1025 JUMPI PUSH2 0x1016 DUP7 PUSH2 0xE57 JUMP JUMPDEST DUP3 MSTORE SWAP5 DUP3 ADD SWAP5 SWAP1 DUP3 ADD SWAP1 PUSH2 0x1005 JUMP JUMPDEST SWAP7 POP POP DUP7 ADD CALLDATALOAD SWAP3 POP POP DUP1 DUP3 GT ISZERO PUSH2 0x103B JUMPI PUSH1 0x0 DUP1 REVERT JUMPDEST POP PUSH2 0x1048 DUP6 DUP3 DUP7 ADD PUSH2 0xF19 JUMP JUMPDEST SWAP2 POP POP SWAP3 POP SWAP3 SWAP1 POP JUMP JUMPDEST PUSH1 0x20 DUP1 DUP3 MSTORE PUSH1 0x1F SWAP1 DUP3 ADD MSTORE PUSH32 0x455243373231526F6C6573416464726573733A204E4F54204D414E4147455200 PUSH1 0x40 DUP3 ADD MSTORE PUSH1 0x60 ADD SWAP1 JUMP JUMPDEST PUSH4 0x4E487B71 PUSH1 0xE0 SHL PUSH1 0x0 MSTORE PUSH1 0x32 PUSH1 0x4 MSTORE PUSH1 0x24 PUSH1 0x0 REVERT JUMPDEST PUSH4 0x4E487B71 PUSH1 0xE0 SHL PUSH1 0x0 MSTORE PUSH1 0x21 PUSH1 0x4 MSTORE PUSH1 0x24 PUSH1 0x0 REVERT JUMPDEST PUSH4 0x4E487B71 PUSH1 0xE0 SHL PUSH1 0x0 MSTORE PUSH1 0x11 PUSH1 0x4 MSTORE PUSH1 0x24 PUSH1 0x0 REVERT JUMPDEST PUSH1 0x0 PUSH1 0x0 NOT DUP3 EQ ISZERO PUSH2 0x10DF JUMPI PUSH2 0x10DF PUSH2 0x10B5 JUMP JUMPDEST POP PUSH1 0x1 ADD SWAP1 JUMP JUMPDEST PUSH1 0x0 DUP3 DUP3 LT ISZERO PUSH2 0x10F8 JUMPI PUSH2 0x10F8 PUSH2 0x10B5 JUMP JUMPDEST POP SUB SWAP1 JUMP JUMPDEST PUSH4 0x4E487B71 PUSH1 0xE0 SHL PUSH1 0x0 MSTORE PUSH1 0x31 PUSH1 0x4 MSTORE PUSH1 0x24 PUSH1 0x0 REVERT INVALID LOG2 PUSH5 0x6970667358 0x22 SLT KECCAK256 0xDC 0xBE CALLER SWAP8 0x2F CALL 0xB7 0xD9 GAS ADDMOD 0xBC INVALID 0x27 0x1F DUP3 0xA6 MSIZE 0x4F SLT SWAP9 0xD6 BYTE 0xDB 0xF6 0xED 0xEC 0xE1 LOG4 0xB4 0xE5 PUSH22 0x2764736F6C634300080C003300000000000000000000 ",
  "sha1": "5a4c14baf64cf09a9c3acac6c355cfff6ddd3059",
  "source": "pragma solidity 0.8.12;\n// Copyright BigchainDB GmbH and Ocean Protocol contributors\n// SPDX-License-Identifier: (Apache-2.0 AND CC-BY-4.0)\n// Code is Apache-2.0 and docs are CC-BY-4.0\n\ncontract ERC721RolesAddress {\n    mapping(address => Roles) internal permissions;\n\n    address[] public auth;\n\n    struct Roles {\n        bool manager;\n        bool deployERC20;\n        bool updateMetadata;\n        bool store;\n    }\n\n    enum RolesType {\n        Manager,\n        DeployERC20,\n        UpdateMetadata,\n        Store\n    }\n\n    /**\n    * @dev getPermissions\n    *      Returns list of roles for an user\n    * @param user user address\n    */\n    function getPermissions(address user) public view returns (Roles memory) {\n        return permissions[user];\n    }\n\n     modifier onlyManager() {\n        require(\n            permissions[msg.sender].manager == true,\n            \"ERC721RolesAddress: NOT MANAGER\"\n        );\n        _;\n    }\n\n    event AddedTo725StoreList(\n        address indexed user,\n        address indexed signer,\n        uint256 timestamp,\n        uint256 blockNumber\n    );\n    event RemovedFrom725StoreList(\n        address indexed user,\n        address indexed signer,\n        uint256 timestamp,\n        uint256 blockNumber\n    );\n\n    /**\n    * @dev addTo725StoreList\n    *      Adds store role to an user.\n    *      It can be called only by a manager\n    * @param _allowedAddress user address\n    */\n    function addTo725StoreList(address _allowedAddress) public onlyManager {\n        if(_allowedAddress != address(0)){\n            Roles storage user = permissions[_allowedAddress];\n            user.store = true;\n            _pushToAuth(_allowedAddress);\n            emit AddedTo725StoreList(_allowedAddress,msg.sender,block.timestamp,block.number);\n        }\n    }\n\n    /**\n    * @dev removeFrom725StoreList\n    *      Removes store role from an user.\n    *      It can be called by a manager or by the same user, if he already has store role\n    * @param _allowedAddress user address\n    */\n    function removeFrom725StoreList(address _allowedAddress) public {\n        if(permissions[msg.sender].manager == true ||\n        (msg.sender == _allowedAddress && permissions[msg.sender].store == true)\n        ){\n            Roles storage user = permissions[_allowedAddress];\n            user.store = false;\n            emit RemovedFrom725StoreList(_allowedAddress,msg.sender,block.timestamp,block.number);\n            _SafeRemoveFromAuth(_allowedAddress);\n        }\n        else{\n            revert(\"ERC721RolesAddress: Not enough permissions to remove from 725StoreList\");\n        }\n\n    }\n\n\n    event AddedToCreateERC20List(\n        address indexed user,\n        address indexed signer,\n        uint256 timestamp,\n        uint256 blockNumber\n    );\n    event RemovedFromCreateERC20List(\n        address indexed user,\n        address indexed signer,\n        uint256 timestamp,\n        uint256 blockNumber\n    );\n\n    /**\n    * @dev addToCreateERC20List\n    *      Adds deployERC20 role to an user.\n    *      It can be called only by a manager\n    * @param _allowedAddress user address\n    */\n    function addToCreateERC20List(address _allowedAddress) public onlyManager {\n        _addToCreateERC20List(_allowedAddress);\n    }\n\n    //it's only called internally, so is without checking onlyManager\n    function _addToCreateERC20List(address _allowedAddress) internal {\n        Roles storage user = permissions[_allowedAddress];\n        user.deployERC20 = true;\n        _pushToAuth(_allowedAddress);\n        emit AddedToCreateERC20List(_allowedAddress,msg.sender,block.timestamp,block.number);\n    }\n\n    /**\n    * @dev removeFromCreateERC20List\n    *      Removes deployERC20 role from an user.\n    *      It can be called by a manager or by the same user, if he already has deployERC20 role\n    * @param _allowedAddress user address\n    */\n    function removeFromCreateERC20List(address _allowedAddress)\n        public\n    {\n        if(permissions[msg.sender].manager == true ||\n        (msg.sender == _allowedAddress && permissions[msg.sender].deployERC20 == true)\n        ){\n            Roles storage user = permissions[_allowedAddress];\n            user.deployERC20 = false;\n            emit RemovedFromCreateERC20List(_allowedAddress,msg.sender,block.timestamp,block.number);\n            _SafeRemoveFromAuth(_allowedAddress);\n        }\n        else{\n            revert(\"ERC721RolesAddress: Not enough permissions to remove from ERC20List\");\n        }\n    }\n\n    event AddedToMetadataList(\n        address indexed user,\n        address indexed signer,\n        uint256 timestamp,\n        uint256 blockNumber\n    );\n    event RemovedFromMetadataList(\n        address indexed user,\n        address indexed signer,\n        uint256 timestamp,\n        uint256 blockNumber\n    );\n\n    /**\n    * @dev addToMetadataList\n    *      Adds metadata role to an user.\n    *      It can be called only by a manager\n    * @param _allowedAddress user address\n    */\n    function addToMetadataList(address _allowedAddress) public onlyManager {\n        _addToMetadataList(_allowedAddress);\n    }\n    //it's only called internally, so is without checking onlyManager\n    function _addToMetadataList(address _allowedAddress) internal {\n        if(_allowedAddress != address(0)){\n            Roles storage user = permissions[_allowedAddress];\n            user.updateMetadata = true;\n            _pushToAuth(_allowedAddress);\n            emit AddedToMetadataList(_allowedAddress,msg.sender,block.timestamp,block.number);\n        }\n    }\n\n    /**\n    * @dev removeFromMetadataList\n    *      Removes metadata role from an user.\n    *      It can be called by a manager or by the same user, if he already has metadata role\n    * @param _allowedAddress user address\n    */\n    function removeFromMetadataList(address _allowedAddress)\n        public\n    {\n        if(permissions[msg.sender].manager == true ||\n        (msg.sender == _allowedAddress && permissions[msg.sender].updateMetadata == true)\n        ){\n            Roles storage user = permissions[_allowedAddress];\n            user.updateMetadata = false;    \n            emit RemovedFromMetadataList(_allowedAddress,msg.sender,block.timestamp,block.number);\n            _SafeRemoveFromAuth(_allowedAddress);\n        }\n        else{\n            revert(\"ERC721RolesAddress: Not enough permissions to remove from metadata list\");\n        }\n    }\n\n    event AddedManager(\n        address indexed user,\n        address indexed signer,\n        uint256 timestamp,\n        uint256 blockNumber\n    );\n    event RemovedManager(\n        address indexed user,\n        address indexed signer,\n        uint256 timestamp,\n        uint256 blockNumber\n    );\n\n    /**\n    * @dev _addManager\n    *      Internal function to add manager role for an addres\n    * @param _managerAddress user address\n    */\n    function _addManager(address _managerAddress) internal {\n        if(_managerAddress != address(0)){\n            Roles storage user = permissions[_managerAddress];\n            user.manager = true;\n            _pushToAuth(_managerAddress);\n            emit AddedManager(_managerAddress,msg.sender,block.timestamp,block.number);\n        }\n    }\n\n    /**\n    * @dev _removeManager\n    *      Internal function to clear the manager role for an addres\n    * @param _managerAddress user address\n    */\n    function _removeManager(address _managerAddress) internal {\n        Roles storage user = permissions[_managerAddress];\n        user.manager = false;\n        emit RemovedManager(_managerAddress,msg.sender,block.timestamp,block.number);\n        _SafeRemoveFromAuth(_managerAddress);\n    }\n\n\n    event CleanedPermissions(\n        address indexed signer,\n        uint256 timestamp,\n        uint256 blockNumber\n    );\n\n    /**\n    * @dev _cleanPermissions\n    *      Internal function to clear all existing permisions\n    */\n    function _cleanPermissions() internal {\n        for (uint256 i = 0; i < auth.length; i++) {\n            Roles storage user = permissions[auth[i]];\n            user.manager = false;\n            user.deployERC20 = false;\n            user.updateMetadata = false;\n            user.store = false;\n        }\n\n        delete auth;\n        emit CleanedPermissions(msg.sender,block.timestamp,block.number);\n    }\n\n    /**\n     * @dev addMultipleUsersToRoles\n     *      Add multiple users to multiple roles\n     * @param addresses Array of addresses\n     * @param roles Array of coresponding roles\n     */\n    function addMultipleUsersToRoles(address[] memory addresses, RolesType[] memory roles) external onlyManager {\n        require(addresses.length == roles.length && roles.length>0 && roles.length<50, \"Invalid array size\");\n        uint256 i;\n        for(i=0; i<roles.length; i++){\n            if(addresses[i] != address(0)){\n                Roles storage user = permissions[addresses[i]];\n                if(roles[i] == RolesType.Manager) {\n                    user.manager = true;\n                    emit AddedManager(addresses[i],msg.sender,block.timestamp,block.number);\n                }\n                if(roles[i] == RolesType.DeployERC20) {\n                    user.deployERC20 = true;\n                    emit AddedToCreateERC20List(addresses[i],msg.sender,block.timestamp,block.number);\n                }\n                if(roles[i] == RolesType.UpdateMetadata) {\n                    user.updateMetadata = true;\n                    emit AddedToMetadataList(addresses[i],msg.sender,block.timestamp,block.number);\n                }\n                if(roles[i] == RolesType.Store) {\n                    user.store = true;\n                    emit AddedTo725StoreList(addresses[i],msg.sender,block.timestamp,block.number);\n                }\n                _pushToAuth(addresses[i]);\n            }\n        }\n    }\n\n    /**\n    * @dev _pushToAuth\n    *      Checks auth array and adds the user address if does not exists\n    * @param user address to be checked\n    */\n    function _pushToAuth(address user) internal {\n        uint256 i;\n        for (i = 0; i < auth.length; i++) {\n            if(auth[i] == user) break;\n        }\n        if(i == auth.length){\n            // element was not found\n            auth.push(user);\n        }\n    }\n\n    /**\n    * @dev _SafeRemoveFromAuth\n    *      Checks if user has any roles left, and if not, it will remove it from auth array\n    * @param user address to be checked and removed\n    */\n    function _SafeRemoveFromAuth(address user) internal {\n        Roles storage userRoles = permissions[user];\n        if (userRoles.manager == false &&\n            userRoles.deployERC20 == false && \n            userRoles.updateMetadata == false &&\n            userRoles.store == false\n        ){\n            uint256 i;\n            for (i = 0; i < auth.length; i++) {\n                if(auth[i] == user) break;\n            }\n            if(i < auth.length){\n                auth[i] = auth[auth.length -1];\n                auth.pop();\n            }\n        }\n    }\n}\n",
  "sourcePath": "contracts/oceanv4/utils/ERC721RolesAddress.sol",
  "type": "contract"
}