{
  "abi": [
    {
      "inputs": [
        {
          "internalType": "address",
          "name": "_router",
          "type": "address"
        }
      ],
      "stateMutability": "nonpayable",
      "type": "constructor"
    },
    {
      "anonymous": false,
      "inputs": [
        {
          "indexed": true,
          "internalType": "bytes32",
          "name": "exchangeId",
          "type": "bytes32"
        },
        {
          "indexed": false,
          "internalType": "address",
          "name": "to",
          "type": "address"
        },
        {
          "indexed": false,
          "internalType": "address",
          "name": "token",
          "type": "address"
        },
        {
          "indexed": false,
          "internalType": "uint256",
          "name": "amount",
          "type": "uint256"
        }
      ],
      "name": "ConsumeMarketFee",
      "type": "event"
    },
    {
      "anonymous": false,
      "inputs": [
        {
          "indexed": true,
          "internalType": "bytes32",
          "name": "exchangeId",
          "type": "bytes32"
        },
        {
          "indexed": true,
          "internalType": "address",
          "name": "exchangeOwner",
          "type": "address"
        }
      ],
      "name": "ExchangeActivated",
      "type": "event"
    },
    {
      "anonymous": false,
      "inputs": [
        {
          "indexed": true,
          "internalType": "bytes32",
          "name": "exchangeId",
          "type": "bytes32"
        },
        {
          "indexed": true,
          "internalType": "address",
          "name": "allowedSwapper",
          "type": "address"
        }
      ],
      "name": "ExchangeAllowedSwapperChanged",
      "type": "event"
    },
    {
      "anonymous": false,
      "inputs": [
        {
          "indexed": true,
          "internalType": "bytes32",
          "name": "exchangeId",
          "type": "bytes32"
        },
        {
          "indexed": true,
          "internalType": "address",
          "name": "baseToken",
          "type": "address"
        },
        {
          "indexed": true,
          "internalType": "address",
          "name": "datatoken",
          "type": "address"
        },
        {
          "indexed": false,
          "internalType": "address",
          "name": "exchangeOwner",
          "type": "address"
        },
        {
          "indexed": false,
          "internalType": "uint256",
          "name": "fixedRate",
          "type": "uint256"
        }
      ],
      "name": "ExchangeCreated",
      "type": "event"
    },
    {
      "anonymous": false,
      "inputs": [
        {
          "indexed": true,
          "internalType": "bytes32",
          "name": "exchangeId",
          "type": "bytes32"
        },
        {
          "indexed": true,
          "internalType": "address",
          "name": "exchangeOwner",
          "type": "address"
        }
      ],
      "name": "ExchangeDeactivated",
      "type": "event"
    },
    {
      "anonymous": false,
      "inputs": [
        {
          "indexed": true,
          "internalType": "bytes32",
          "name": "exchangeId",
          "type": "bytes32"
        },
        {
          "indexed": true,
          "internalType": "address",
          "name": "exchangeOwner",
          "type": "address"
        },
        {
          "indexed": false,
          "internalType": "bool",
          "name": "withMint",
          "type": "bool"
        }
      ],
      "name": "ExchangeMintStateChanged",
      "type": "event"
    },
    {
      "anonymous": false,
      "inputs": [
        {
          "indexed": true,
          "internalType": "bytes32",
          "name": "exchangeId",
          "type": "bytes32"
        },
        {
          "indexed": true,
          "internalType": "address",
          "name": "exchangeOwner",
          "type": "address"
        },
        {
          "indexed": false,
          "internalType": "uint256",
          "name": "newRate",
          "type": "uint256"
        }
      ],
      "name": "ExchangeRateChanged",
      "type": "event"
    },
    {
      "anonymous": false,
      "inputs": [
        {
          "indexed": true,
          "internalType": "bytes32",
          "name": "exchangeId",
          "type": "bytes32"
        },
        {
          "indexed": true,
          "internalType": "address",
          "name": "feeToken",
          "type": "address"
        },
        {
          "indexed": false,
          "internalType": "uint256",
          "name": "feeAmount",
          "type": "uint256"
        }
      ],
      "name": "MarketFeeCollected",
      "type": "event"
    },
    {
      "anonymous": false,
      "inputs": [
        {
          "indexed": true,
          "internalType": "bytes32",
          "name": "exchangeId",
          "type": "bytes32"
        },
        {
          "indexed": true,
          "internalType": "address",
          "name": "feeToken",
          "type": "address"
        },
        {
          "indexed": false,
          "internalType": "uint256",
          "name": "feeAmount",
          "type": "uint256"
        }
      ],
      "name": "OceanFeeCollected",
      "type": "event"
    },
    {
      "anonymous": false,
      "inputs": [
        {
          "indexed": true,
          "internalType": "bytes32",
          "name": "exchangeId",
          "type": "bytes32"
        },
        {
          "indexed": false,
          "internalType": "address",
          "name": "caller",
          "type": "address"
        },
        {
          "indexed": false,
          "internalType": "address",
          "name": "newMarketCollector",
          "type": "address"
        },
        {
          "indexed": false,
          "internalType": "uint256",
          "name": "swapFee",
          "type": "uint256"
        }
      ],
      "name": "PublishMarketFeeChanged",
      "type": "event"
    },
    {
      "anonymous": false,
      "inputs": [
        {
          "indexed": true,
          "internalType": "bytes32",
          "name": "exchangeId",
          "type": "bytes32"
        },
        {
          "indexed": false,
          "internalType": "uint256",
          "name": "oceanFeeAmount",
          "type": "uint256"
        },
        {
          "indexed": false,
          "internalType": "uint256",
          "name": "marketFeeAmount",
          "type": "uint256"
        },
        {
          "indexed": false,
          "internalType": "uint256",
          "name": "consumeMarketFeeAmount",
          "type": "uint256"
        },
        {
          "indexed": false,
          "internalType": "address",
          "name": "tokenFeeAddress",
          "type": "address"
        }
      ],
      "name": "SWAP_FEES",
      "type": "event"
    },
    {
      "anonymous": false,
      "inputs": [
        {
          "indexed": true,
          "internalType": "bytes32",
          "name": "exchangeId",
          "type": "bytes32"
        },
        {
          "indexed": true,
          "internalType": "address",
          "name": "by",
          "type": "address"
        },
        {
          "indexed": false,
          "internalType": "uint256",
          "name": "baseTokenSwappedAmount",
          "type": "uint256"
        },
        {
          "indexed": false,
          "internalType": "uint256",
          "name": "datatokenSwappedAmount",
          "type": "uint256"
        },
        {
          "indexed": false,
          "internalType": "address",
          "name": "tokenOutAddress",
          "type": "address"
        },
        {
          "indexed": false,
          "internalType": "uint256",
          "name": "marketFeeAmount",
          "type": "uint256"
        },
        {
          "indexed": false,
          "internalType": "uint256",
          "name": "oceanFeeAmount",
          "type": "uint256"
        },
        {
          "indexed": false,
          "internalType": "uint256",
          "name": "consumeMarketFeeAmount",
          "type": "uint256"
        }
      ],
      "name": "Swapped",
      "type": "event"
    },
    {
      "anonymous": false,
      "inputs": [
        {
          "indexed": true,
          "internalType": "bytes32",
          "name": "exchangeId",
          "type": "bytes32"
        },
        {
          "indexed": true,
          "internalType": "address",
          "name": "to",
          "type": "address"
        },
        {
          "indexed": true,
          "internalType": "address",
          "name": "token",
          "type": "address"
        },
        {
          "indexed": false,
          "internalType": "uint256",
          "name": "amount",
          "type": "uint256"
        }
      ],
      "name": "TokenCollected",
      "type": "event"
    },
    {
      "inputs": [],
      "name": "MAX_FEE",
      "outputs": [
        {
          "internalType": "uint256",
          "name": "",
          "type": "uint256"
        }
      ],
      "stateMutability": "view",
      "type": "function"
    },
    {
      "inputs": [],
      "name": "MIN_FEE",
      "outputs": [
        {
          "internalType": "uint256",
          "name": "",
          "type": "uint256"
        }
      ],
      "stateMutability": "view",
      "type": "function"
    },
    {
      "inputs": [],
      "name": "MIN_RATE",
      "outputs": [
        {
          "internalType": "uint256",
          "name": "",
          "type": "uint256"
        }
      ],
      "stateMutability": "view",
      "type": "function"
    },
    {
      "inputs": [
        {
          "internalType": "bytes32",
          "name": "exchangeId",
          "type": "bytes32"
        },
        {
          "internalType": "uint256",
          "name": "datatokenAmount",
          "type": "uint256"
        },
        {
          "internalType": "uint256",
          "name": "maxBaseTokenAmount",
          "type": "uint256"
        },
        {
          "internalType": "address",
          "name": "consumeMarketAddress",
          "type": "address"
        },
        {
          "internalType": "uint256",
          "name": "consumeMarketSwapFeeAmount",
          "type": "uint256"
        }
      ],
      "name": "buyDT",
      "outputs": [],
      "stateMutability": "nonpayable",
      "type": "function"
    },
    {
      "inputs": [
        {
          "internalType": "bytes32",
          "name": "exchangeId",
          "type": "bytes32"
        },
        {
          "internalType": "uint256",
          "name": "datatokenAmount",
          "type": "uint256"
        },
        {
          "internalType": "uint256",
          "name": "consumeMarketSwapFeeAmount",
          "type": "uint256"
        }
      ],
      "name": "calcBaseInGivenOutDT",
      "outputs": [
        {
          "internalType": "uint256",
          "name": "baseTokenAmount",
          "type": "uint256"
        },
        {
          "internalType": "uint256",
          "name": "oceanFeeAmount",
          "type": "uint256"
        },
        {
          "internalType": "uint256",
          "name": "publishMarketFeeAmount",
          "type": "uint256"
        },
        {
          "internalType": "uint256",
          "name": "consumeMarketFeeAmount",
          "type": "uint256"
        }
      ],
      "stateMutability": "view",
      "type": "function"
    },
    {
      "inputs": [
        {
          "internalType": "bytes32",
          "name": "exchangeId",
          "type": "bytes32"
        },
        {
          "internalType": "uint256",
          "name": "datatokenAmount",
          "type": "uint256"
        },
        {
          "internalType": "uint256",
          "name": "consumeMarketSwapFeeAmount",
          "type": "uint256"
        }
      ],
      "name": "calcBaseOutGivenInDT",
      "outputs": [
        {
          "internalType": "uint256",
          "name": "baseTokenAmount",
          "type": "uint256"
        },
        {
          "internalType": "uint256",
          "name": "oceanFeeAmount",
          "type": "uint256"
        },
        {
          "internalType": "uint256",
          "name": "publishMarketFeeAmount",
          "type": "uint256"
        },
        {
          "internalType": "uint256",
          "name": "consumeMarketFeeAmount",
          "type": "uint256"
        }
      ],
      "stateMutability": "view",
      "type": "function"
    },
    {
      "inputs": [
        {
          "internalType": "bytes32",
          "name": "exchangeId",
          "type": "bytes32"
        },
        {
          "internalType": "uint256",
          "name": "amount",
          "type": "uint256"
        }
      ],
      "name": "collectBT",
      "outputs": [],
      "stateMutability": "nonpayable",
      "type": "function"
    },
    {
      "inputs": [
        {
          "internalType": "bytes32",
          "name": "exchangeId",
          "type": "bytes32"
        },
        {
          "internalType": "uint256",
          "name": "amount",
          "type": "uint256"
        }
      ],
      "name": "collectDT",
      "outputs": [],
      "stateMutability": "nonpayable",
      "type": "function"
    },
    {
      "inputs": [
        {
          "internalType": "bytes32",
          "name": "exchangeId",
          "type": "bytes32"
        }
      ],
      "name": "collectMarketFee",
      "outputs": [],
      "stateMutability": "nonpayable",
      "type": "function"
    },
    {
      "inputs": [
        {
          "internalType": "bytes32",
          "name": "exchangeId",
          "type": "bytes32"
        }
      ],
      "name": "collectOceanFee",
      "outputs": [],
      "stateMutability": "nonpayable",
      "type": "function"
    },
    {
      "inputs": [
        {
          "internalType": "address",
          "name": "datatoken",
          "type": "address"
        },
        {
          "internalType": "address[]",
          "name": "addresses",
          "type": "address[]"
        },
        {
          "internalType": "uint256[]",
          "name": "uints",
          "type": "uint256[]"
        }
      ],
      "name": "createWithDecimals",
      "outputs": [
        {
          "internalType": "bytes32",
          "name": "exchangeId",
          "type": "bytes32"
        }
      ],
      "stateMutability": "nonpayable",
      "type": "function"
    },
    {
      "inputs": [
        {
          "internalType": "address",
          "name": "baseToken",
          "type": "address"
        },
        {
          "internalType": "address",
          "name": "datatoken",
          "type": "address"
        }
      ],
      "name": "generateExchangeId",
      "outputs": [
        {
          "internalType": "bytes32",
          "name": "",
          "type": "bytes32"
        }
      ],
      "stateMutability": "pure",
      "type": "function"
    },
    {
      "inputs": [
        {
          "internalType": "bytes32",
          "name": "exchangeId",
          "type": "bytes32"
        }
      ],
      "name": "getAllowedSwapper",
      "outputs": [
        {
          "internalType": "address",
          "name": "allowedSwapper",
          "type": "address"
        }
      ],
      "stateMutability": "view",
      "type": "function"
    },
    {
      "inputs": [
        {
          "internalType": "bytes32",
          "name": "exchangeId",
          "type": "bytes32"
        }
      ],
      "name": "getBTSupply",
      "outputs": [
        {
          "internalType": "uint256",
          "name": "supply",
          "type": "uint256"
        }
      ],
      "stateMutability": "view",
      "type": "function"
    },
    {
      "inputs": [
        {
          "internalType": "bytes32",
          "name": "exchangeId",
          "type": "bytes32"
        }
      ],
      "name": "getDTSupply",
      "outputs": [
        {
          "internalType": "uint256",
          "name": "supply",
          "type": "uint256"
        }
      ],
      "stateMutability": "view",
      "type": "function"
    },
    {
      "inputs": [
        {
          "internalType": "bytes32",
          "name": "exchangeId",
          "type": "bytes32"
        }
      ],
      "name": "getExchange",
      "outputs": [
        {
          "internalType": "address",
          "name": "exchangeOwner",
          "type": "address"
        },
        {
          "internalType": "address",
          "name": "datatoken",
          "type": "address"
        },
        {
          "internalType": "uint256",
          "name": "dtDecimals",
          "type": "uint256"
        },
        {
          "internalType": "address",
          "name": "baseToken",
          "type": "address"
        },
        {
          "internalType": "uint256",
          "name": "btDecimals",
          "type": "uint256"
        },
        {
          "internalType": "uint256",
          "name": "fixedRate",
          "type": "uint256"
        },
        {
          "internalType": "bool",
          "name": "active",
          "type": "bool"
        },
        {
          "internalType": "uint256",
          "name": "dtSupply",
          "type": "uint256"
        },
        {
          "internalType": "uint256",
          "name": "btSupply",
          "type": "uint256"
        },
        {
          "internalType": "uint256",
          "name": "dtBalance",
          "type": "uint256"
        },
        {
          "internalType": "uint256",
          "name": "btBalance",
          "type": "uint256"
        },
        {
          "internalType": "bool",
          "name": "withMint",
          "type": "bool"
        }
      ],
      "stateMutability": "view",
      "type": "function"
    },
    {
      "inputs": [],
      "name": "getExchanges",
      "outputs": [
        {
          "internalType": "bytes32[]",
          "name": "",
          "type": "bytes32[]"
        }
      ],
      "stateMutability": "view",
      "type": "function"
    },
    {
      "inputs": [
        {
          "internalType": "bytes32",
          "name": "exchangeId",
          "type": "bytes32"
        }
      ],
      "name": "getFeesInfo",
      "outputs": [
        {
          "internalType": "uint256",
          "name": "marketFee",
          "type": "uint256"
        },
        {
          "internalType": "address",
          "name": "marketFeeCollector",
          "type": "address"
        },
        {
          "internalType": "uint256",
          "name": "opcFee",
          "type": "uint256"
        },
        {
          "internalType": "uint256",
          "name": "marketFeeAvailable",
          "type": "uint256"
        },
        {
          "internalType": "uint256",
          "name": "oceanFeeAvailable",
          "type": "uint256"
        }
      ],
      "stateMutability": "view",
      "type": "function"
    },
    {
      "inputs": [],
      "name": "getId",
      "outputs": [
        {
          "internalType": "uint8",
          "name": "",
          "type": "uint8"
        }
      ],
      "stateMutability": "pure",
      "type": "function"
    },
    {
      "inputs": [
        {
          "internalType": "bytes32",
          "name": "exchangeId",
          "type": "bytes32"
        }
      ],
      "name": "getMarketFee",
      "outputs": [
        {
          "internalType": "uint256",
          "name": "",
          "type": "uint256"
        }
      ],
      "stateMutability": "view",
      "type": "function"
    },
    {
      "inputs": [],
      "name": "getNumberOfExchanges",
      "outputs": [
        {
          "internalType": "uint256",
          "name": "",
          "type": "uint256"
        }
      ],
      "stateMutability": "view",
      "type": "function"
    },
    {
      "inputs": [
        {
          "internalType": "address",
          "name": "baseTokenAddress",
          "type": "address"
        }
      ],
      "name": "getOPCFee",
      "outputs": [
        {
          "internalType": "uint256",
          "name": "",
          "type": "uint256"
        }
      ],
      "stateMutability": "view",
      "type": "function"
    },
    {
      "inputs": [
        {
          "internalType": "bytes32",
          "name": "exchangeId",
          "type": "bytes32"
        }
      ],
      "name": "getRate",
      "outputs": [
        {
          "internalType": "uint256",
          "name": "",
          "type": "uint256"
        }
      ],
      "stateMutability": "view",
      "type": "function"
    },
    {
      "inputs": [
        {
          "internalType": "bytes32",
          "name": "exchangeId",
          "type": "bytes32"
        }
      ],
      "name": "isActive",
      "outputs": [
        {
          "internalType": "bool",
          "name": "",
          "type": "bool"
        }
      ],
      "stateMutability": "view",
      "type": "function"
    },
    {
      "inputs": [],
      "name": "router",
      "outputs": [
        {
          "internalType": "address",
          "name": "",
          "type": "address"
        }
      ],
      "stateMutability": "view",
      "type": "function"
    },
    {
      "inputs": [
        {
          "internalType": "bytes32",
          "name": "exchangeId",
          "type": "bytes32"
        },
        {
          "internalType": "uint256",
          "name": "datatokenAmount",
          "type": "uint256"
        },
        {
          "internalType": "uint256",
          "name": "minBaseTokenAmount",
          "type": "uint256"
        },
        {
          "internalType": "address",
          "name": "consumeMarketAddress",
          "type": "address"
        },
        {
          "internalType": "uint256",
          "name": "consumeMarketSwapFeeAmount",
          "type": "uint256"
        }
      ],
      "name": "sellDT",
      "outputs": [],
      "stateMutability": "nonpayable",
      "type": "function"
    },
    {
      "inputs": [
        {
          "internalType": "bytes32",
          "name": "exchangeId",
          "type": "bytes32"
        },
        {
          "internalType": "address",
          "name": "newAllowedSwapper",
          "type": "address"
        }
      ],
      "name": "setAllowedSwapper",
      "outputs": [],
      "stateMutability": "nonpayable",
      "type": "function"
    },
    {
      "inputs": [
        {
          "internalType": "bytes32",
          "name": "exchangeId",
          "type": "bytes32"
        },
        {
          "internalType": "uint256",
          "name": "newRate",
          "type": "uint256"
        }
      ],
      "name": "setRate",
      "outputs": [],
      "stateMutability": "nonpayable",
      "type": "function"
    },
    {
      "inputs": [
        {
          "internalType": "bytes32",
          "name": "exchangeId",
          "type": "bytes32"
        }
      ],
      "name": "toggleExchangeState",
      "outputs": [],
      "stateMutability": "nonpayable",
      "type": "function"
    },
    {
      "inputs": [
        {
          "internalType": "bytes32",
          "name": "exchangeId",
          "type": "bytes32"
        },
        {
          "internalType": "bool",
          "name": "withMint",
          "type": "bool"
        }
      ],
      "name": "toggleMintState",
      "outputs": [],
      "stateMutability": "nonpayable",
      "type": "function"
    },
    {
      "inputs": [
        {
          "internalType": "bytes32",
          "name": "exchangeId",
          "type": "bytes32"
        },
        {
          "internalType": "uint256",
          "name": "_newMarketFee",
          "type": "uint256"
        }
      ],
      "name": "updateMarketFee",
      "outputs": [],
      "stateMutability": "nonpayable",
      "type": "function"
    },
    {
      "inputs": [
        {
          "internalType": "bytes32",
          "name": "exchangeId",
          "type": "bytes32"
        },
        {
          "internalType": "address",
          "name": "_newMarketCollector",
          "type": "address"
        }
      ],
      "name": "updateMarketFeeCollector",
      "outputs": [],
      "stateMutability": "nonpayable",
      "type": "function"
    }
  ],
  "bytecode": "60806040523480156200001157600080fd5b506040516200444a3803806200444a8339810160408190526200003491620000ca565b60016000556001600160a01b038116620000a45760405162461bcd60e51b815260206004820152602760248201527f46697865645261746545786368616e67653a2057726f6e6720526f75746572206044820152666164647265737360c81b606482015260840160405180910390fd5b600180546001600160a01b0319166001600160a01b0392909216919091179055620000fc565b600060208284031215620000dd57600080fd5b81516001600160a01b0381168114620000f557600080fd5b9392505050565b61433e806200010c6000396000f3fe608060405234801561001057600080fd5b50600436106101f05760003560e01c8063855058dd1161010f578063c2c0d1ab116100a2578063dd1bc96a11610071578063dd1bc96a146105e3578063ed2fc859146105f6578063f32f947614610609578063f887ea401461061c57600080fd5b8063c2c0d1ab1461057e578063c612e48a146105b1578063c66274ea146105c4578063d819bfef146105d757600080fd5b8063b4241429116100de578063b424142914610541578063b686bcaf14610549578063b8421e2b1461055c578063bc063e1a1461056f57600080fd5b8063855058dd146103f857806385fcbc2f146104f8578063888238721461050b578063b32b56f91461051e57600080fd5b80635c36901c1161018757806368c4b7e91161015657806368c4b7e9146103b757806376c7a3c7146103ca57806379dd2836146103d25780637c82ebe9146103e557600080fd5b80635c36901c1461034f5780635d1ca6311461038257806360311e9514610391578063680819eb146103a457600080fd5b80632e7e23b3116101c35780632e7e23b3146102885780634c87087d146102ab57806350d571d5146103295780635acfedc71461033c57600080fd5b8063012c3275146101f55780630b3b430d1461021b5780631e2e3a6b1461025e57806324cb477e14610273575b600080fd5b610208610203366004613bd6565b61062f565b6040519081526020015b60405180910390f35b61022e610229366004613cac565b610f51565b604080519586526001600160a01b039094166020860152928401919091526060830152608082015260a001610212565b61026661105b565b6040516102129190613cc5565b610286610281366004613cac565b6110b3565b005b610208610296366004613cac565b60009081526002602052604090206008015490565b6102be6102b9366004613cac565b6112d9565b604080516001600160a01b039d8e1681529b8d1660208d01528b0199909952999096166060890152608088019490945260a0870192909252151560c086015260e085015261010084015261012083015261014082019290925290151561016082015261018001610212565b610286610337366004613d09565b61137b565b61028661034a366004613cac565b6118b7565b61037261035d366004613cac565b60009081526002602052604090205460ff1690565b6040519015158152602001610212565b60405160018152602001610212565b61028661039f366004613d52565b6118f0565b6102866103b2366004613d82565b611ad7565b6102866103c5366004613d09565b611cd5565b6102086122d8565b6102866103e0366004613db2565b6122ef565b6102866103f3366004613d52565b6124f9565b6104e0610406366004613cac565b60009081526002602081815260409283902083516101e081018552815460ff808216151583526001600160a01b03610100928390048116958401959095526001840154851696830196909652938201548316606082015260038201546080820152600482015460a0820152600582015460c0820152600682015460e0820152600782015484820152600882015461012082015260098201548316610140820152600a820154610160820152600b820154610180820152600c9091015493841615156101a0820152919092049091166101c090910181905290565b6040516001600160a01b039091168152602001610212565b610208610506366004613cac565b6125cc565b610286610519366004613d82565b612754565b61020861052c366004613cac565b60009081526002602052604090206003015490565b600354610208565b610286610557366004613cac565b6128b9565b61020861056a366004613dd7565b6128ea565b6102086706f05b59d3b2000081565b61059161058c366004613df4565b61295f565b604080519485526020850193909352918301526060820152608001610212565b6102866105bf366004613d82565b612af2565b6102086105d2366004613cac565b612b2d565b6102086402540be40081565b6105916105f1366004613df4565b612e3f565b610208610604366004613e20565b612fa4565b610286610617366004613d82565b612fdc565b6001546104e0906001600160a01b031681565b6001546000906001600160a01b031633146106915760405162461bcd60e51b815260206004820152601e60248201527f46697865645261746545786368616e67653a206f6e6c7920726f75746572000060448201526064015b60405180910390fd5b6005825110156106da5760405162461bcd60e51b8152602060048201526014602482015273092dcecc2d8d2c840ead2dce8e640d8cadccee8d60631b6044820152606401610688565b60048351101561072c5760405162461bcd60e51b815260206004820152601860248201527f496e76616c696420616464726573736573206c656e67746800000000000000006044820152606401610688565b60006001600160a01b03168360008151811061074a5761074a613e4e565b60200260200101516001600160a01b031614156107c55760405162461bcd60e51b815260206004820152603360248201527f46697865645261746545786368616e67653a20496e76616c69642062617365546044820152726f6b656e2c20207a65726f206164647265737360681b6064820152608401610688565b6001600160a01b0384166108375760405162461bcd60e51b815260206004820152603360248201527f46697865645261746545786368616e67653a20496e76616c69642064617461746044820152726f6b656e2c20207a65726f206164647265737360681b6064820152608401610688565b836001600160a01b03168360008151811061085457610854613e4e565b60200260200101516001600160a01b031614156108d95760405162461bcd60e51b815260206004820152603760248201527f46697865645261746545786368616e67653a20496e76616c696420646174617460448201527f6f6b656e2c2020657175616c732062617365546f6b656e0000000000000000006064820152608401610688565b6402540be400826002815181106108f2576108f2613e4e565b602002602001015110156109185760405162461bcd60e51b815260040161068890613e64565b61093c8360008151811061092e5761092e613e4e565b602002602001015185612fa4565b600081815260026020526040902060030154909150156109b25760405162461bcd60e51b815260206004820152602b60248201527f46697865645261746545786368616e67653a2045786368616e676520616c726560448201526a616479206578697374732160a81b6064820152608401610688565b600060019050826004815181106109cb576109cb613e4e565b6020026020010151600014156109df575060005b604051806101e0016040528060011515815260200185600181518110610a0757610a07613e4e565b60200260200101516001600160a01b03168152602001866001600160a01b0316815260200185600081518110610a3f57610a3f613e4e565b60200260200101516001600160a01b0316815260200184600281518110610a6857610a68613e4e565b6020026020010151815260200184600181518110610a8857610a88613e4e565b6020026020010151815260200184600081518110610aa857610aa8613e4e565b60200260200101518152602001600081526020016000815260200184600381518110610ad657610ad6613e4e565b6020026020010151815260200185600281518110610af657610af6613e4e565b60200260200101516001600160a01b031681526020016000815260200160008152602001821515815260200185600381518110610b3557610b35613e4e565b6020908102919091018101516001600160a01b039081169092526000858152600280835260409182902085518154948701518616610100908102610100600160a81b031992151583166001600160a81b031997881617178355938701516001830180549188166001600160a01b03199283161790556060880151938301805494881694821694909417909355608087015160038084019190915560a0880151600484015560c0880151600584015560e0880151600684015584880151600784015561012088015160088401556101408801516009840180549189169190951617909355610160870151600a830155610180870151600b8301556101a0870151600c90920180546101c090980151909616909302901515909216949092169390931792909217905583518491908110610c6f57610c6f613e4e565b602002602001015160001480610cb25750610c94612710670de0b6b3a7640000613ec8565b83600381518110610ca757610ca7613e4e565b602002602001015110155b610cf05760405162461bcd60e51b815260206004820152600f60248201526e5377617046656520746f6f206c6f7760881b6044820152606401610688565b6706f05b59d3b2000083600381518110610d0c57610d0c613e4e565b60200260200101511115610d555760405162461bcd60e51b815260206004820152601060248201526f0a6eec2e08ccaca40e8dede40d0d2ced60831b6044820152606401610688565b6003805460018101825560009182527fc2575a0e9e593c00f959f8c92f12db2869c3395a3b0502d05e2516446f71f85b0183905584516001600160a01b038716918691610da457610da4613e4e565b60200260200101516001600160a01b0316837feb7a353641f7d3cc54b497ef1553fdc292b64d9cc3be8587c23dfba01f310b1987600181518110610dea57610dea613e4e565b602002602001015187600281518110610e0557610e05613e4e565b6020026020010151604051610e2f9291906001600160a01b03929092168252602082015260400190565b60405180910390a483600181518110610e4a57610e4a613e4e565b60200260200101516001600160a01b0316827fc7344c45124818d1d3a4c24ccb9b86d8b88d3bd05209b2a42b494cb32a50352960405160405180910390a383600381518110610e9b57610e9b613e4e565b60200260200101516001600160a01b0316827fcc1b4af8292e6b938f6743c78a62317c9a2d60e0d46b77776a027e53ce617c0c60405160405180910390a3817f1bf3af41af5ef4ea33bbeffb18acd246aae76d6f03bdb54916577c2e1ab03d523386600281518110610f0f57610f0f613e4e565b602002602001015186600381518110610f2a57610f2a613e4e565b6020026020010151604051610f4193929190613eea565b60405180910390a2509392505050565b600081815260026020818152604080842081516101e081018352815460ff808216151583526001600160a01b036101009283900481168488015260018501548116958401959095528387015485166060840181905260038501546080850152600485015460a0850152600585015460c0850152600685015460e085015260078501548385015260088501546101208501819052600986015487166101408601819052600a870154610160870152600b870154610180870152600c9096015492831615156101a0860152929091049094166101c083015287875294909352929391829182919061103f906128ea565b9350806101600151925080610180015191505091939590929450565b606060038054806020026020016040519081016040528092919081815260200182805480156110a957602002820191906000526020600020905b815481526020019060010190808311611095575b5050505050905090565b600081815260026020526040908190206001015490516396fb3eaf60e01b815233600482015282916001600160a01b03169081906396fb3eaf90602401602060405180830381865afa15801561110d573d6000803e3d6000fd5b505050506040513d601f19601f820116820180604052508101906111319190613f0e565b806112185750336001600160a01b0316816001600160a01b0316627ffb786040518163ffffffff1660e01b8152600401602060405180830381865afa15801561117e573d6000803e3d6000fd5b505050506040513d601f19601f820116820180604052508101906111a29190613f2b565b6040516331a9108f60e11b8152600160048201526001600160a01b039190911690636352211e90602401602060405180830381865afa1580156111e9573d6000803e3d6000fd5b505050506040513d601f19601f8201168201806040525081019061120d9190613f2b565b6001600160a01b0316145b6112345760405162461bcd60e51b815260040161068890613f48565b60008381526002602052604090205460ff161561129057600083815260026020526040808220805460ff1916905551339185917f03da9148e1de78fba22de63c573465562ebf6ef878a1d3ea83790a560229984c9190a3505050565b600083815260026020526040808220805460ff1916600117905551339185917fc7344c45124818d1d3a4c24ccb9b86d8b88d3bd05209b2a42b494cb32a5035299190a35b505050565b600081815260026020819052604082208054600182015460048301549383015460058401546003909401546001600160a01b03610100850481169793811696959216939192909160ff1690808080806113318d612b2d565b945061133c8d6125cc565b60009d8e5260026020526040909d2060068101546007820154600c909201549d9f9c9e9b9d9a9c999b989a9799969897909691955060ff169350915050565b600085815260026020526040902054859060ff166113ab5760405162461bcd60e51b815260040161068890613f91565b600260005414156113ce5760405162461bcd60e51b815260040161068890613fdc565b6002600055846113f05760405162461bcd60e51b815260040161068890614013565b811580611410575061140c612710670de0b6b3a7640000613ec8565b8210155b6114555760405162461bcd60e51b8152602060048201526016602482015275436f6e73756d655377617046656520746f6f206c6f7760501b6044820152606401610688565b6706f05b59d3b200008211156114a75760405162461bcd60e51b8152602060048201526017602482015276086dedce6eadacaa6eec2e08ccaca40e8dede40d0d2ced604b1b6044820152606401610688565b6000868152600260205260409020600c015461010090046001600160a01b03161561150a576000868152600260205260409020600c015461010090046001600160a01b0316331461150a5760405162461bcd60e51b81526004016106889061405b565b6040805160808101825260008082526020820181905291810182905260608101919091526001600160a01b03841661154157600092505b61154c87878561295f565b6060850152604084015260208301528082528511156115bc5760405162461bcd60e51b815260206004820152602660248201527f46697865645261746545786368616e67653a20546f6f20666577206261736520604482015265746f6b656e7360d01b6064820152608401610688565b602080820151600089815260029092526040909120600b01546115de9161300e565b60008881526002602052604090819020600b810192909255820151600a909101546116089161300e565b60026000898152602001908152602001600020600a01819055506000611655826060015161164f846040015161164f8660200151876000015161300e90919063ffffffff16565b9061300e565b60008981526002602052604090206001015490915061167f906001600160a01b031633308a613021565b60008881526002602052604090206006015461169b908861300e565b60008981526002602052604090206006810191909155600701548111156117215760008881526002602081905260409091209081015490546116f0916001600160a01b03908116916101009004163084613021565b81516000898152600260208190526040909120015461171c916001600160a01b0390911690339061316f565b611772565b60008881526002602052604090206007015461173d90826131d2565b600089815260026020819052604090912060078101929092558351910154611772916001600160a01b0390911690339061316f565b6001600160a01b0385161580159061178e575060008260600151115b15611822576060820151600089815260026020819052604090912001546117c2916001600160a01b0390911690879061316f565b6000888152600260208190526040918290200154606084015191518a927f086a8edf7ac99098be3ce56ba76ae3e5a1e212fed5f803fc3167990fa03079b992611819928a926001600160a01b039092169190613eea565b60405180910390a25b815160008981526002602081815260409283902090910154828601518287015160608089015186519788529487018e90526001600160a01b039093169486019490945290840152608083019190915260a0820152339089907f7b072645ce5b6a2fc627a544edee544b786747cafd1bb8f0e3238aa5f2e806469060c0015b60405180910390a350506001600055505050505050565b600260005414156118da5760405162461bcd60e51b815260040161068890613fdc565b60026000556118e8816131de565b506001600055565b600082815260026020526040908190206001015490516396fb3eaf60e01b815233600482015283916001600160a01b03169081906396fb3eaf90602401602060405180830381865afa15801561194a573d6000803e3d6000fd5b505050506040513d601f19601f8201168201806040525081019061196e9190613f0e565b80611a555750336001600160a01b0316816001600160a01b0316627ffb786040518163ffffffff1660e01b8152600401602060405180830381865afa1580156119bb573d6000803e3d6000fd5b505050506040513d601f19601f820116820180604052508101906119df9190613f2b565b6040516331a9108f60e11b8152600160048201526001600160a01b039190911690636352211e90602401602060405180830381865afa158015611a26573d6000803e3d6000fd5b505050506040513d601f19601f82011682018060405250810190611a4a9190613f2b565b6001600160a01b0316145b611a715760405162461bcd60e51b815260040161068890613f48565b600084815260026020526040808220600c018054610100600160a81b0319166101006001600160a01b038816908102919091179091559051909186917fcc1b4af8292e6b938f6743c78a62317c9a2d60e0d46b77776a027e53ce617c0c9190a350505050565b600082815260026020526040908190206001015490516396fb3eaf60e01b815233600482015283916001600160a01b03169081906396fb3eaf90602401602060405180830381865afa158015611b31573d6000803e3d6000fd5b505050506040513d601f19601f82011682018060405250810190611b559190613f0e565b80611c3c5750336001600160a01b0316816001600160a01b0316627ffb786040518163ffffffff1660e01b8152600401602060405180830381865afa158015611ba2573d6000803e3d6000fd5b505050506040513d601f19601f82011682018060405250810190611bc69190613f2b565b6040516331a9108f60e11b8152600160048201526001600160a01b039190911690636352211e90602401602060405180830381865afa158015611c0d573d6000803e3d6000fd5b505050506040513d601f19601f82011682018060405250810190611c319190613f2b565b6001600160a01b0316145b611c585760405162461bcd60e51b815260040161068890613f48565b6402540be400831015611c7d5760405162461bcd60e51b815260040161068890613e64565b6000848152600260205260409081902060030184905551339085907fe50f9919fdc524004a4ee0cb934f4734f144bec0713a52e5483b753f5de0f08c90611cc79087815260200190565b60405180910390a350505050565b600085815260026020526040902054859060ff16611d055760405162461bcd60e51b815260040161068890613f91565b60026000541415611d285760405162461bcd60e51b815260040161068890613fdc565b600260005584611d4a5760405162461bcd60e51b815260040161068890614013565b811580611d6a5750611d66612710670de0b6b3a7640000613ec8565b8210155b611daf5760405162461bcd60e51b8152602060048201526016602482015275436f6e73756d655377617046656520746f6f206c6f7760501b6044820152606401610688565b6706f05b59d3b20000821115611e015760405162461bcd60e51b8152602060048201526017602482015276086dedce6eadacaa6eec2e08ccaca40e8dede40d0d2ced604b1b6044820152606401610688565b6000868152600260205260409020600c015461010090046001600160a01b031615611e64576000868152600260205260409020600c015461010090046001600160a01b03163314611e645760405162461bcd60e51b81526004016106889061405b565b6001600160a01b038316611e7757600091505b6000604051806080016040528060008152602001600081526020016000815260200160008152509050611eab878785612e3f565b606085015260408401526020830152808252851015611f1c5760405162461bcd60e51b815260206004820152602760248201527f46697865645261746545786368616e67653a20546f6f206d616e79206261736560448201526620746f6b656e7360c81b6064820152608401610688565b602080820151600089815260029092526040909120600b0154611f3e9161300e565b60008881526002602052604090819020600b810192909255820151600a90910154611f689161300e565b6000888152600260208190526040909120600a81019290925501548151611f9c916001600160a01b03169033903090613021565b6000611fcf8260600151611fc98460400151611fc9866020015187600001516131d290919063ffffffff16565b906131d2565b600089815260026020526040902060070154909150611fee908261300e565b600089815260026020526040902060078101919091556006015487111561215c576000888152600260205260409020600c015460ff1680156120a75750600088815260026020526040908190206001015490516355138f0d60e11b81523060048201526001600160a01b039091169063aa271e1a90602401602060405180830381865afa158015612083573d6000803e3d6000fd5b505050506040513d601f19601f820116820180604052508101906120a79190613f0e565b1561212557600088815260026020526040908190206001015490516340c10f1960e01b8152336004820152602481018990526001600160a01b03909116906340c10f1990604401600060405180830381600087803b15801561210857600080fd5b505af115801561211c573d6000803e3d6000fd5b505050506121a6565b600088815260026020526040902060018101549054612157916001600160a01b0390811691610100900416338a613021565b6121a6565b60008881526002602052604090206006015461217890886131d2565b60008981526002602052604090206006810191909155600101546121a6906001600160a01b0316338961316f565b6001600160a01b038516158015906121c2575060008260600151115b15612256576060820151600089815260026020819052604090912001546121f6916001600160a01b0390911690879061316f565b6000888152600260208190526040918290200154606084015191518a927f086a8edf7ac99098be3ce56ba76ae3e5a1e212fed5f803fc3167990fa03079b99261224d928a926001600160a01b039092169190613eea565b60405180910390a25b815160008981526002602090815260409182902060010154828601518287015160608089015186519788529487018e90526001600160a01b039093169486019490945290840152608083019190915260a0820152339089907f7b072645ce5b6a2fc627a544edee544b786747cafd1bb8f0e3238aa5f2e806469060c0016118a0565b6122ec612710670de0b6b3a7640000613ec8565b81565b600082815260026020526040908190206001015490516396fb3eaf60e01b815233600482015283916001600160a01b03169081906396fb3eaf90602401602060405180830381865afa158015612349573d6000803e3d6000fd5b505050506040513d601f19601f8201168201806040525081019061236d9190613f0e565b806124545750336001600160a01b0316816001600160a01b0316627ffb786040518163ffffffff1660e01b8152600401602060405180830381865afa1580156123ba573d6000803e3d6000fd5b505050506040513d601f19601f820116820180604052508101906123de9190613f2b565b6040516331a9108f60e11b8152600160048201526001600160a01b039190911690636352211e90602401602060405180830381865afa158015612425573d6000803e3d6000fd5b505050506040513d601f19601f820116820180604052508101906124499190613f2b565b6001600160a01b0316145b6124705760405162461bcd60e51b815260040161068890613f48565b600084815260026020526040902080546001909101546124a2916001600160a01b0361010090910481169116856132de565b600085815260026020908152604091829020600c01805460ff191693151593909317909255518415158152339186917fe28e899e0f5d6fba0c8d73d1888083bcc62d4d9806d2e26fcf1f607c3ed52f539101611cc7565b6000828152600260205260409020600901546001600160a01b0316331461255b5760405162461bcd60e51b81526020600482015260166024820152753737ba1036b0b935b2ba2332b2a1b7b63632b1ba37b960511b6044820152606401610688565b600082815260026020526040908190206009810180546001600160a01b0319166001600160a01b03851617905560080154905183917f1bf3af41af5ef4ea33bbeffb18acd246aae76d6f03bdb54916577c2e1ab03d52916125c0913391869190613eea565b60405180910390a25050565b60008181526002602052604081205460ff166125ea57506000919050565b600082815260026020819052604080832091820154915490516370a0823160e01b81526001600160a01b03610100909204821660048201529116906370a0823190602401602060405180830381865afa15801561264b573d6000803e3d6000fd5b505050506040513d601f19601f8201168201806040525081019061266f91906140b1565b60008481526002602081905260408083209182015491549051636eb1769f60e11b81526101009091046001600160a01b0390811660048301523060248301529394509192169063dd62ed3e90604401602060405180830381865afa1580156126db573d6000803e3d6000fd5b505050506040513d601f19601f820116820180604052508101906126ff91906140b1565b90508082101561272d5760008481526002602052604090206007015461272690839061300e565b925061274d565b60008481526002602052604090206007015461274a90829061300e565b92505b5050919050565b6000828152600260205260409020600901546001600160a01b031633146127b65760405162461bcd60e51b81526020600482015260166024820152753737ba1036b0b935b2ba2332b2a1b7b63632b1ba37b960511b6044820152606401610688565b8015806127d657506127d2612710670de0b6b3a7640000613ec8565b8110155b6128145760405162461bcd60e51b815260206004820152600f60248201526e5377617046656520746f6f206c6f7760881b6044820152606401610688565b6706f05b59d3b2000081111561285f5760405162461bcd60e51b815260206004820152601060248201526f0a6eec2e08ccaca40e8dede40d0d2ced60831b6044820152606401610688565b600082815260026020526040908190206008810183905560090154905183917f1bf3af41af5ef4ea33bbeffb18acd246aae76d6f03bdb54916577c2e1ab03d52916125c09133916001600160a01b03909116908690613eea565b600260005414156128dc5760405162461bcd60e51b815260040161068890613fdc565b60026000556118e881613476565b60015460405163b8421e2b60e01b81526001600160a01b038381166004830152600092169063b8421e2b90602401602060405180830381865afa158015612935573d6000803e3d6000fd5b505050506040513d601f19601f8201168201806040525081019061295991906140b1565b92915050565b600083815260026020526040812054819081908190879060ff166129955760405162461bcd60e51b815260040161068890613f91565b60006129a18989613506565b6040805160808101825260008082526020808301829052828401829052606083018290528d825260029081905292812090920154929350916129eb906001600160a01b03166128ea565b90508015612a1957612a0f670de0b6b3a7640000612a098584613575565b90613581565b6020830152612a21565b600060208301525b60008b81526002602052604090206008015415612a6d5760008b815260026020526040902060080154612a6390670de0b6b3a764000090612a09908690613575565b6040830152612a75565b600060408301525b8815612a9b57612a91670de0b6b3a7640000612a09858c613575565b6060830152612aa3565b600060608301525b612aca8260600151611fc98460200151611fc98660400151886131d290919063ffffffff16565b80835260208301516040840151606090940151919d909c50929a509850909650505050505050565b60026000541415612b155760405162461bcd60e51b815260040161068890613fdc565b6002600055612b24828261358d565b50506001600055565b60008181526002602052604081205460ff16612b4b57506000919050565b6000828152600260205260409020600c015460ff168015612be35750600082815260026020526040908190206001015490516355138f0d60e11b81523060048201526001600160a01b039091169063aa271e1a90602401602060405180830381865afa158015612bbf573d6000803e3d6000fd5b505050506040513d601f19601f82011682018060405250810190612be39190613f0e565b15612ce8576000828152600260209081526040918290206001015482516318160ddd60e01b815292516001600160a01b03909116926318160ddd9260048083019391928290030181865afa158015612c3f573d6000803e3d6000fd5b505050506040513d601f19601f82011682018060405250810190612c6391906140b1565b600083815260026020908152604091829020600101548251631aa93a7560e11b815292516001600160a01b039091169263355274ea9260048083019391928290030181865afa158015612cba573d6000803e3d6000fd5b505050506040513d601f19601f82011682018060405250810190612cde91906140b1565b61295991906140ca565b6000828152600260205260408082206001810154905491516370a0823160e01b81526101009092046001600160a01b03908116600484015216906370a0823190602401602060405180830381865afa158015612d48573d6000803e3d6000fd5b505050506040513d601f19601f82011682018060405250810190612d6c91906140b1565b600084815260026020526040808220600181015490549151636eb1769f60e11b81526001600160a01b0361010090930483166004820152306024820152939450919291169063dd62ed3e90604401602060405180830381865afa158015612dd7573d6000803e3d6000fd5b505050506040513d601f19601f82011682018060405250810190612dfb91906140b1565b905080821015612e225760008481526002602052604090206006015461272690839061300e565b60008481526002602052604090206006015461274a90829061300e565b600083815260026020526040812054819081908190879060ff16612e755760405162461bcd60e51b815260040161068890613f91565b6000612e818989613506565b6040805160808101825260008082526020808301829052828401829052606083018290528d82526002908190529281209092015492935091612ecb906001600160a01b03166128ea565b90508015612ef357612ee9670de0b6b3a7640000612a098584613575565b6020830152612efb565b600060208301525b60008b81526002602052604090206008015415612f475760008b815260026020526040902060080154612f3d90670de0b6b3a764000090612a09908690613575565b6040830152612f4f565b600060408301525b8815612f7557612f6b670de0b6b3a7640000612a09858c613575565b6060830152612f7d565b600060608301525b612aca826060015161164f846020015161164f86604001518861300e90919063ffffffff16565b604080516001600160a01b03938416602080830191909152929093168382015280518084038201815260609093019052815191012090565b60026000541415612fff5760405162461bcd60e51b815260040161068890613fdc565b6002600055612b248282613706565b600061301a82846140e1565b9392505050565b6040516370a0823160e01b81526001600160a01b038381166004830152600091908616906370a0823190602401602060405180830381865afa15801561306b573d6000803e3d6000fd5b505050506040513d601f19601f8201168201806040525081019061308f91906140b1565b90506130a66001600160a01b038616858585613877565b6130b0818361300e565b6040516370a0823160e01b81526001600160a01b0385811660048301528716906370a0823190602401602060405180830381865afa1580156130f6573d6000803e3d6000fd5b505050506040513d601f19601f8201168201806040525081019061311a91906140b1565b10156131685760405162461bcd60e51b815260206004820152601a60248201527f5472616e7366657220616d6f756e7420697320746f6f206c6f770000000000006044820152606401610688565b5050505050565b6040516001600160a01b0383166024820152604481018290526112d490849063a9059cbb60e01b906064015b60408051601f198184030181529190526020810180516001600160e01b03166001600160e01b03199093169290921790915261389e565b600061301a82846140ca565b6000818152600260209081526040808320600b0180549390556001548151631a81876d60e01b81529151613286936001600160a01b0390921692631a81876d9260048083019391928290030181865afa15801561323f573d6000803e3d6000fd5b505050506040513d601f19601f820116820180604052508101906132639190613f2b565b600084815260026020819052604090912001546001600160a01b0316908361316f565b6000828152600260208181526040928390209091015491518381526001600160a01b039092169184917f457b44fd47c33fc65bfbd58d0202ad97fbed1bbc9881f56441d05fe9ebd58acf910160405180910390a35050565b6000816132ed5750600061301a565b6000836001600160a01b0316627ffb786040518163ffffffff1660e01b8152600401602060405180830381865afa15801561332c573d6000803e3d6000fd5b505050506040513d601f19601f820116820180604052508101906133509190613f2b565b60405163160a792560e01b81526001600160a01b03878116600483015291925060009183169063160a792590602401608060405180830381865afa15801561339c573d6000803e3d6000fd5b505050506040513d601f19601f820116820180604052508101906133c091906140f9565b80519091501515600114806133db5750602081015115156001145b8061345a57506040516331a9108f60e11b8152600160048201526001600160a01b038088169190841690636352211e90602401602060405180830381865afa15801561342b573d6000803e3d6000fd5b505050506040513d601f19601f8201168201806040525081019061344f9190613f2b565b6001600160a01b0316145b1561346a5760019250505061301a565b50600095945050505050565b6000818152600260208181526040808420600a810180549590559092015491518381526001600160a01b039092169184917f192a3cd95e40313e0e12c28b398e31633936e38d134419161f883c8d64079055910160405180910390a360008281526002602081905260409091206009810154910154613502916001600160a01b0391821691168361316f565b5050565b60008281526002602052604081206004015461301a90670de0b6b3a764000090612a099061353590600a614262565b600087815260026020526040902060050154612a099061355690600a614262565b600089815260026020526040902060030154613573908990613575565b905b600061301a828461426e565b600061301a8284613ec8565b6000828152600260205260409020600601548111156135e05760405162461bcd60e51b815260206004820152600f60248201526e082dadeeadce840e8dede40d0d2ced608b1b6044820152606401610688565b6000828152600260209081526040808320600101548151631c90f85d60e31b815291516001600160a01b039091169263e487c2e892600480820193918290030181865afa158015613635573d6000803e3d6000fd5b505050506040513d601f19601f820116820180604052508101906136599190613f2b565b60008481526002602052604090206006015490915061367890836131d2565b60008481526002602052604090819020600681019290925560019091015490516001600160a01b039182169183169085907fecc75f4464886bee0a1c5eae61c0cb4b99c64c5e9cdebe3696217d266f8b1636906136d89087815260200190565b60405180910390a46000838152600260205260409020600101546112d4906001600160a01b0316828461316f565b6000828152600260205260409020600701548111156137595760405162461bcd60e51b815260206004820152600f60248201526e082dadeeadce840e8dede40d0d2ced608b1b6044820152606401610688565b6000828152600260209081526040808320600101548151631c90f85d60e31b815291516001600160a01b039091169263e487c2e892600480820193918290030181865afa1580156137ae573d6000803e3d6000fd5b505050506040513d601f19601f820116820180604052508101906137d29190613f2b565b6000848152600260205260409020600701549091506137f190836131d2565b600084815260026020818152604092839020600781019490945592015490518481526001600160a01b03918216929184169186917fecc75f4464886bee0a1c5eae61c0cb4b99c64c5e9cdebe3696217d266f8b1636910160405180910390a4600083815260026020819052604090912001546112d4906001600160a01b0316828461316f565b613898846323b872dd60e01b85858560405160240161319b93929190613eea565b50505050565b60006138f3826040518060400160405280602081526020017f5361666545524332303a206c6f772d6c6576656c2063616c6c206661696c6564815250856001600160a01b03166139709092919063ffffffff16565b8051909150156112d457808060200190518101906139119190613f0e565b6112d45760405162461bcd60e51b815260206004820152602a60248201527f5361666545524332303a204552433230206f7065726174696f6e20646964206e6044820152691bdd081cdd58d8d9595960b21b6064820152608401610688565b606061397f8484600085613987565b949350505050565b6060824710156139e85760405162461bcd60e51b815260206004820152602660248201527f416464726573733a20696e73756666696369656e742062616c616e636520666f6044820152651c8818d85b1b60d21b6064820152608401610688565b843b613a365760405162461bcd60e51b815260206004820152601d60248201527f416464726573733a2063616c6c20746f206e6f6e2d636f6e74726163740000006044820152606401610688565b600080866001600160a01b03168587604051613a5291906142b9565b60006040518083038185875af1925050503d8060008114613a8f576040519150601f19603f3d011682016040523d82523d6000602084013e613a94565b606091505b5091509150613aa4828286613aaf565b979650505050505050565b60608315613abe57508161301a565b825115613ace5782518084602001fd5b8160405162461bcd60e51b815260040161068891906142d5565b6001600160a01b0381168114613afd57600080fd5b50565b634e487b7160e01b600052604160045260246000fd5b604051601f8201601f1916810167ffffffffffffffff81118282101715613b3f57613b3f613b00565b604052919050565b600067ffffffffffffffff821115613b6157613b61613b00565b5060051b60200190565b600082601f830112613b7c57600080fd5b81356020613b91613b8c83613b47565b613b16565b82815260059290921b84018101918181019086841115613bb057600080fd5b8286015b84811015613bcb5780358352918301918301613bb4565b509695505050505050565b600080600060608486031215613beb57600080fd5b8335613bf681613ae8565b925060208481013567ffffffffffffffff80821115613c1457600080fd5b818701915087601f830112613c2857600080fd5b8135613c36613b8c82613b47565b81815260059190911b8301840190848101908a831115613c5557600080fd5b938501935b82851015613c7c578435613c6d81613ae8565b82529385019390850190613c5a565b965050506040870135925080831115613c9457600080fd5b5050613ca286828701613b6b565b9150509250925092565b600060208284031215613cbe57600080fd5b5035919050565b6020808252825182820181905260009190848201906040850190845b81811015613cfd57835183529284019291840191600101613ce1565b50909695505050505050565b600080600080600060a08688031215613d2157600080fd5b8535945060208601359350604086013592506060860135613d4181613ae8565b949793965091946080013592915050565b60008060408385031215613d6557600080fd5b823591506020830135613d7781613ae8565b809150509250929050565b60008060408385031215613d9557600080fd5b50508035926020909101359150565b8015158114613afd57600080fd5b60008060408385031215613dc557600080fd5b823591506020830135613d7781613da4565b600060208284031215613de957600080fd5b813561301a81613ae8565b600080600060608486031215613e0957600080fd5b505081359360208301359350604090920135919050565b60008060408385031215613e3357600080fd5b8235613e3e81613ae8565b91506020830135613d7781613ae8565b634e487b7160e01b600052603260045260246000fd5b6020808252602e908201527f46697865645261746545786368616e67653a20496e76616c696420657863686160408201526d6e676520726174652076616c756560901b606082015260800190565b634e487b7160e01b600052601160045260246000fd5b600082613ee557634e487b7160e01b600052601260045260246000fd5b500490565b6001600160a01b039384168152919092166020820152604081019190915260600190565b600060208284031215613f2057600080fd5b815161301a81613da4565b600060208284031215613f3d57600080fd5b815161301a81613ae8565b60208082526029908201527f46697865645261746545786368616e67653a20696e76616c69642065786368616040820152683733b29037bbb732b960b91b606082015260800190565b6020808252602b908201527f46697865645261746545786368616e67653a2045786368616e676520646f657360408201526a206e6f742065786973742160a81b606082015260800190565b6020808252601f908201527f5265656e7472616e637947756172643a207265656e7472616e742063616c6c00604082015260600190565b60208082526028908201527f46697865645261746545786368616e67653a207a65726f2064617461746f6b656040820152671b88185b5bdd5b9d60c21b606082015260800190565b60208082526036908201527f46697865645261746545786368616e67653a205468697320616464726573732060408201527506973206e6f7420616c6c6f77656420746f20737761760541b606082015260800190565b6000602082840312156140c357600080fd5b5051919050565b6000828210156140dc576140dc613eb2565b500390565b600082198211156140f4576140f4613eb2565b500190565b60006080828403121561410b57600080fd5b6040516080810181811067ffffffffffffffff8211171561412e5761412e613b00565b604052825161413c81613da4565b8152602083015161414c81613da4565b6020820152604083015161415f81613da4565b6040820152606083015161417281613da4565b60608201529392505050565b600181815b808511156141b957816000190482111561419f5761419f613eb2565b808516156141ac57918102915b93841c9390800290614183565b509250929050565b6000826141d057506001612959565b816141dd57506000612959565b81600181146141f357600281146141fd57614219565b6001915050612959565b60ff84111561420e5761420e613eb2565b50506001821b612959565b5060208310610133831016604e8410600b841016171561423c575081810a612959565b614246838361417e565b806000190482111561425a5761425a613eb2565b029392505050565b600061301a83836141c1565b600081600019048311821515161561428857614288613eb2565b500290565b60005b838110156142a8578181015183820152602001614290565b838111156138985750506000910152565b600082516142cb81846020870161428d565b9190910192915050565b60208152600082518060208401526142f481604085016020870161428d565b601f01601f1916919091016040019291505056fea26469706673582212208edbcb9f233e1f939a2c0b4f75a3b69b7e1605f3eaa0b0c8d808e1504ee8d4a064736f6c634300080c0033",
  "bytecodeSha1": "8c00bb6ba6fb1580b1f4c0ec7aafa3c1fe61180e",
  "compiler": {
    "evm_version": "istanbul",
    "optimizer": {
      "enabled": true,
      "runs": 200
    },
    "version": "0.8.12+commit.f00d7308"
  },
  "contractName": "FixedRateExchange",
  "language": "Solidity",
  "natspec": {
    "details": "FixedRateExchange is a fixed rate exchange Contract      Marketplaces uses this contract to allow consumers      exchanging datatokens with ocean token using a fixed      exchange rate.",
    "kind": "dev",
    "methods": {
      "buyDT(bytes32,uint256,uint256,address,uint256)": {
        "details": "swap      atomic swap between two registered fixed rate exchange.",
        "params": {
          "consumeMarketAddress": "consumeMarketAddress",
          "consumeMarketSwapFeeAmount": "fee amount for consume market",
          "datatokenAmount": "the amount of datatokens to be exchanged",
          "exchangeId": "a unique exchange idnetifier",
          "maxBaseTokenAmount": "maximum amount of base tokens to pay"
        }
      },
      "calcBaseInGivenOutDT(bytes32,uint256,uint256)": {
        "details": "calcBaseInGivenOutDT      Calculates how many baseTokens are needed to get exact amount of datatokens",
        "params": {
          "consumeMarketSwapFeeAmount": "fee amount for consume market",
          "datatokenAmount": "the amount of datatokens to be exchanged",
          "exchangeId": "a unique exchange idnetifier"
        }
      },
      "calcBaseOutGivenInDT(bytes32,uint256,uint256)": {
        "details": "calcBaseOutGivenInDT      Calculates how many basteTokens you will get for selling exact amount of baseTokens",
        "params": {
          "consumeMarketSwapFeeAmount": "fee amount for consume market",
          "datatokenAmount": "the amount of datatokens to be exchanged",
          "exchangeId": "a unique exchange idnetifier"
        }
      },
      "collectBT(bytes32,uint256)": {
        "details": "collectBT      Collects and send basetokens.      This function can be called by anyone, because fees are being sent to ERC20.getPaymentCollector"
      },
      "collectDT(bytes32,uint256)": {
        "details": "collectDT      Collects and send datatokens.      This function can be called by anyone, because fees are being sent to ERC20.getPaymentCollector"
      },
      "collectMarketFee(bytes32)": {
        "details": "collectMarketFee      Collects and send publishingMarketFee.      This function can be called by anyone, because fees are being sent to exchanges.marketFeeCollector"
      },
      "collectOceanFee(bytes32)": {
        "details": "collectOceanFee      Collects and send OP Community fees.      This function can be called by anyone, because fees are being sent to opcCollector"
      },
      "createWithDecimals(address,address[],uint256[])": {
        "details": "create      creates new exchange pairs between a baseToken      (ocean token) and datatoken. datatoken refers to a datatoken contract address addresses  - array of addresses with the following struct:                [0] - baseToken                [1] - owner                [2] - marketFeeCollector                [3] - allowedSwapper - if != address(0), only that is allowed to swap (used for ERC20Enterprise) uints  - array of uints with the following struct:                [0] - baseTokenDecimals                [1] - datatokenDecimals                [2] - fixedRate                [3] - marketFee                [4] - withMint"
      },
      "generateExchangeId(address,address)": {
        "details": "generateExchangeId      creates unique exchange identifier for two token pairs.",
        "params": {
          "baseToken": "refers to a base token contract address",
          "datatoken": "refers to a datatoken contract address"
        }
      },
      "getBTSupply(bytes32)": {
        "details": "getSupply      gets the current supply of datatokens in an fixed      rate exchagne",
        "params": {
          "exchangeId": "the exchange ID"
        },
        "returns": {
          "supply": "supply"
        }
      },
      "getDTSupply(bytes32)": {
        "details": "getSupply      gets the current supply of datatokens in an fixed      rate exchagne",
        "params": {
          "exchangeId": "the exchange ID"
        },
        "returns": {
          "supply": "supply"
        }
      },
      "getExchanges()": {
        "details": "getExchanges      gets all the exchanges list",
        "returns": {
          "_0": "a list of all registered exchange Ids"
        }
      },
      "getId()": {
        "details": "getId      Return template id in case we need different ABIs.       If you construct your own template, please make sure to change the hardcoded value"
      },
      "getNumberOfExchanges()": {
        "details": "getNumberOfExchanges      gets the total number of registered exchanges",
        "returns": {
          "_0": "total number of registered exchange IDs"
        }
      },
      "getRate(bytes32)": {
        "details": "getRate      gets the current fixed rate for an exchange",
        "params": {
          "exchangeId": "a unique exchange idnetifier"
        },
        "returns": {
          "_0": "fixed rate value"
        }
      },
      "isActive(bytes32)": {
        "details": "isActive      checks whether exchange is active",
        "params": {
          "exchangeId": "a unique exchange idnetifier"
        },
        "returns": {
          "_0": "true if exchange is true, otherwise returns false"
        }
      },
      "sellDT(bytes32,uint256,uint256,address,uint256)": {
        "details": "sellDT      Sell datatokenAmount while expecting at least minBaseTokenAmount",
        "params": {
          "consumeMarketAddress": "consumeMarketAddress",
          "consumeMarketSwapFeeAmount": "fee amount for consume market",
          "datatokenAmount": "the amount of datatokens to be exchanged",
          "exchangeId": "a unique exchange idnetifier",
          "minBaseTokenAmount": "minimum amount of base tokens to cash in"
        }
      },
      "setAllowedSwapper(bytes32,address)": {
        "details": "setAllowedSwapper      Sets a new allowedSwapper",
        "params": {
          "exchangeId": "a unique exchange identifier",
          "newAllowedSwapper": "refers to the new allowedSwapper"
        }
      },
      "setRate(bytes32,uint256)": {
        "details": "setRate      changes the fixed rate for an exchange with a new rate",
        "params": {
          "exchangeId": "a unique exchange idnetifier",
          "newRate": "new fixed rate value"
        }
      },
      "toggleExchangeState(bytes32)": {
        "details": "toggleExchangeState      toggles the active state of an existing exchange",
        "params": {
          "exchangeId": "a unique exchange identifier"
        }
      },
      "toggleMintState(bytes32,bool)": {
        "details": "toggleMintState      toggle withMint state",
        "params": {
          "exchangeId": "a unique exchange idnetifier",
          "withMint": "new value"
        }
      },
      "updateMarketFeeCollector(bytes32,address)": {
        "details": "updateMarketFeeCollector      Set _newMarketCollector as _publishMarketCollector",
        "params": {
          "_newMarketCollector": "new _publishMarketCollector"
        }
      }
    },
    "title": "FixedRateExchange",
    "version": 1
  },
  "opcodes": "PUSH1 0x80 PUSH1 0x40 MSTORE CALLVALUE DUP1 ISZERO PUSH2 0x10 JUMPI PUSH1 0x0 DUP1 REVERT JUMPDEST POP PUSH1 0x4 CALLDATASIZE LT PUSH2 0x1F0 JUMPI PUSH1 0x0 CALLDATALOAD PUSH1 0xE0 SHR DUP1 PUSH4 0x855058DD GT PUSH2 0x10F JUMPI DUP1 PUSH4 0xC2C0D1AB GT PUSH2 0xA2 JUMPI DUP1 PUSH4 0xDD1BC96A GT PUSH2 0x71 JUMPI DUP1 PUSH4 0xDD1BC96A EQ PUSH2 0x5E3 JUMPI DUP1 PUSH4 0xED2FC859 EQ PUSH2 0x5F6 JUMPI DUP1 PUSH4 0xF32F9476 EQ PUSH2 0x609 JUMPI DUP1 PUSH4 0xF887EA40 EQ PUSH2 0x61C JUMPI PUSH1 0x0 DUP1 REVERT JUMPDEST DUP1 PUSH4 0xC2C0D1AB EQ PUSH2 0x57E JUMPI DUP1 PUSH4 0xC612E48A EQ PUSH2 0x5B1 JUMPI DUP1 PUSH4 0xC66274EA EQ PUSH2 0x5C4 JUMPI DUP1 PUSH4 0xD819BFEF EQ PUSH2 0x5D7 JUMPI PUSH1 0x0 DUP1 REVERT JUMPDEST DUP1 PUSH4 0xB4241429 GT PUSH2 0xDE JUMPI DUP1 PUSH4 0xB4241429 EQ PUSH2 0x541 JUMPI DUP1 PUSH4 0xB686BCAF EQ PUSH2 0x549 JUMPI DUP1 PUSH4 0xB8421E2B EQ PUSH2 0x55C JUMPI DUP1 PUSH4 0xBC063E1A EQ PUSH2 0x56F JUMPI PUSH1 0x0 DUP1 REVERT JUMPDEST DUP1 PUSH4 0x855058DD EQ PUSH2 0x3F8 JUMPI DUP1 PUSH4 0x85FCBC2F EQ PUSH2 0x4F8 JUMPI DUP1 PUSH4 0x88823872 EQ PUSH2 0x50B JUMPI DUP1 PUSH4 0xB32B56F9 EQ PUSH2 0x51E JUMPI PUSH1 0x0 DUP1 REVERT JUMPDEST DUP1 PUSH4 0x5C36901C GT PUSH2 0x187 JUMPI DUP1 PUSH4 0x68C4B7E9 GT PUSH2 0x156 JUMPI DUP1 PUSH4 0x68C4B7E9 EQ PUSH2 0x3B7 JUMPI DUP1 PUSH4 0x76C7A3C7 EQ PUSH2 0x3CA JUMPI DUP1 PUSH4 0x79DD2836 EQ PUSH2 0x3D2 JUMPI DUP1 PUSH4 0x7C82EBE9 EQ PUSH2 0x3E5 JUMPI PUSH1 0x0 DUP1 REVERT JUMPDEST DUP1 PUSH4 0x5C36901C EQ PUSH2 0x34F JUMPI DUP1 PUSH4 0x5D1CA631 EQ PUSH2 0x382 JUMPI DUP1 PUSH4 0x60311E95 EQ PUSH2 0x391 JUMPI DUP1 PUSH4 0x680819EB EQ PUSH2 0x3A4 JUMPI PUSH1 0x0 DUP1 REVERT JUMPDEST DUP1 PUSH4 0x2E7E23B3 GT PUSH2 0x1C3 JUMPI DUP1 PUSH4 0x2E7E23B3 EQ PUSH2 0x288 JUMPI DUP1 PUSH4 0x4C87087D EQ PUSH2 0x2AB JUMPI DUP1 PUSH4 0x50D571D5 EQ PUSH2 0x329 JUMPI DUP1 PUSH4 0x5ACFEDC7 EQ PUSH2 0x33C JUMPI PUSH1 0x0 DUP1 REVERT JUMPDEST DUP1 PUSH4 0x12C3275 EQ PUSH2 0x1F5 JUMPI DUP1 PUSH4 0xB3B430D EQ PUSH2 0x21B JUMPI DUP1 PUSH4 0x1E2E3A6B EQ PUSH2 0x25E JUMPI DUP1 PUSH4 0x24CB477E EQ PUSH2 0x273 JUMPI JUMPDEST PUSH1 0x0 DUP1 REVERT JUMPDEST PUSH2 0x208 PUSH2 0x203 CALLDATASIZE PUSH1 0x4 PUSH2 0x3BD6 JUMP JUMPDEST PUSH2 0x62F JUMP JUMPDEST PUSH1 0x40 MLOAD SWAP1 DUP2 MSTORE PUSH1 0x20 ADD JUMPDEST PUSH1 0x40 MLOAD DUP1 SWAP2 SUB SWAP1 RETURN JUMPDEST PUSH2 0x22E PUSH2 0x229 CALLDATASIZE PUSH1 0x4 PUSH2 0x3CAC JUMP JUMPDEST PUSH2 0xF51 JUMP JUMPDEST PUSH1 0x40 DUP1 MLOAD SWAP6 DUP7 MSTORE PUSH1 0x1 PUSH1 0x1 PUSH1 0xA0 SHL SUB SWAP1 SWAP5 AND PUSH1 0x20 DUP7 ADD MSTORE SWAP3 DUP5 ADD SWAP2 SWAP1 SWAP2 MSTORE PUSH1 0x60 DUP4 ADD MSTORE PUSH1 0x80 DUP3 ADD MSTORE PUSH1 0xA0 ADD PUSH2 0x212 JUMP JUMPDEST PUSH2 0x266 PUSH2 0x105B JUMP JUMPDEST PUSH1 0x40 MLOAD PUSH2 0x212 SWAP2 SWAP1 PUSH2 0x3CC5 JUMP JUMPDEST PUSH2 0x286 PUSH2 0x281 CALLDATASIZE PUSH1 0x4 PUSH2 0x3CAC JUMP JUMPDEST PUSH2 0x10B3 JUMP JUMPDEST STOP JUMPDEST PUSH2 0x208 PUSH2 0x296 CALLDATASIZE PUSH1 0x4 PUSH2 0x3CAC JUMP JUMPDEST PUSH1 0x0 SWAP1 DUP2 MSTORE PUSH1 0x2 PUSH1 0x20 MSTORE PUSH1 0x40 SWAP1 KECCAK256 PUSH1 0x8 ADD SLOAD SWAP1 JUMP JUMPDEST PUSH2 0x2BE PUSH2 0x2B9 CALLDATASIZE PUSH1 0x4 PUSH2 0x3CAC JUMP JUMPDEST PUSH2 0x12D9 JUMP JUMPDEST PUSH1 0x40 DUP1 MLOAD PUSH1 0x1 PUSH1 0x1 PUSH1 0xA0 SHL SUB SWAP14 DUP15 AND DUP2 MSTORE SWAP12 DUP14 AND PUSH1 0x20 DUP14 ADD MSTORE DUP12 ADD SWAP10 SWAP1 SWAP10 MSTORE SWAP10 SWAP1 SWAP7 AND PUSH1 0x60 DUP10 ADD MSTORE PUSH1 0x80 DUP9 ADD SWAP5 SWAP1 SWAP5 MSTORE PUSH1 0xA0 DUP8 ADD SWAP3 SWAP1 SWAP3 MSTORE ISZERO ISZERO PUSH1 0xC0 DUP7 ADD MSTORE PUSH1 0xE0 DUP6 ADD MSTORE PUSH2 0x100 DUP5 ADD MSTORE PUSH2 0x120 DUP4 ADD MSTORE PUSH2 0x140 DUP3 ADD SWAP3 SWAP1 SWAP3 MSTORE SWAP1 ISZERO ISZERO PUSH2 0x160 DUP3 ADD MSTORE PUSH2 0x180 ADD PUSH2 0x212 JUMP JUMPDEST PUSH2 0x286 PUSH2 0x337 CALLDATASIZE PUSH1 0x4 PUSH2 0x3D09 JUMP JUMPDEST PUSH2 0x137B JUMP JUMPDEST PUSH2 0x286 PUSH2 0x34A CALLDATASIZE PUSH1 0x4 PUSH2 0x3CAC JUMP JUMPDEST PUSH2 0x18B7 JUMP JUMPDEST PUSH2 0x372 PUSH2 0x35D CALLDATASIZE PUSH1 0x4 PUSH2 0x3CAC JUMP JUMPDEST PUSH1 0x0 SWAP1 DUP2 MSTORE PUSH1 0x2 PUSH1 0x20 MSTORE PUSH1 0x40 SWAP1 KECCAK256 SLOAD PUSH1 0xFF AND SWAP1 JUMP JUMPDEST PUSH1 0x40 MLOAD SWAP1 ISZERO ISZERO DUP2 MSTORE PUSH1 0x20 ADD PUSH2 0x212 JUMP JUMPDEST PUSH1 0x40 MLOAD PUSH1 0x1 DUP2 MSTORE PUSH1 0x20 ADD PUSH2 0x212 JUMP JUMPDEST PUSH2 0x286 PUSH2 0x39F CALLDATASIZE PUSH1 0x4 PUSH2 0x3D52 JUMP JUMPDEST PUSH2 0x18F0 JUMP JUMPDEST PUSH2 0x286 PUSH2 0x3B2 CALLDATASIZE PUSH1 0x4 PUSH2 0x3D82 JUMP JUMPDEST PUSH2 0x1AD7 JUMP JUMPDEST PUSH2 0x286 PUSH2 0x3C5 CALLDATASIZE PUSH1 0x4 PUSH2 0x3D09 JUMP JUMPDEST PUSH2 0x1CD5 JUMP JUMPDEST PUSH2 0x208 PUSH2 0x22D8 JUMP JUMPDEST PUSH2 0x286 PUSH2 0x3E0 CALLDATASIZE PUSH1 0x4 PUSH2 0x3DB2 JUMP JUMPDEST PUSH2 0x22EF JUMP JUMPDEST PUSH2 0x286 PUSH2 0x3F3 CALLDATASIZE PUSH1 0x4 PUSH2 0x3D52 JUMP JUMPDEST PUSH2 0x24F9 JUMP JUMPDEST PUSH2 0x4E0 PUSH2 0x406 CALLDATASIZE PUSH1 0x4 PUSH2 0x3CAC JUMP JUMPDEST PUSH1 0x0 SWAP1 DUP2 MSTORE PUSH1 0x2 PUSH1 0x20 DUP2 DUP2 MSTORE PUSH1 0x40 SWAP3 DUP4 SWAP1 KECCAK256 DUP4 MLOAD PUSH2 0x1E0 DUP2 ADD DUP6 MSTORE DUP2 SLOAD PUSH1 0xFF DUP1 DUP3 AND ISZERO ISZERO DUP4 MSTORE PUSH1 0x1 PUSH1 0x1 PUSH1 0xA0 SHL SUB PUSH2 0x100 SWAP3 DUP4 SWAP1 DIV DUP2 AND SWAP6 DUP5 ADD SWAP6 SWAP1 SWAP6 MSTORE PUSH1 0x1 DUP5 ADD SLOAD DUP6 AND SWAP7 DUP4 ADD SWAP7 SWAP1 SWAP7 MSTORE SWAP4 DUP3 ADD SLOAD DUP4 AND PUSH1 0x60 DUP3 ADD MSTORE PUSH1 0x3 DUP3 ADD SLOAD PUSH1 0x80 DUP3 ADD MSTORE PUSH1 0x4 DUP3 ADD SLOAD PUSH1 0xA0 DUP3 ADD MSTORE PUSH1 0x5 DUP3 ADD SLOAD PUSH1 0xC0 DUP3 ADD MSTORE PUSH1 0x6 DUP3 ADD SLOAD PUSH1 0xE0 DUP3 ADD MSTORE PUSH1 0x7 DUP3 ADD SLOAD DUP5 DUP3 ADD MSTORE PUSH1 0x8 DUP3 ADD SLOAD PUSH2 0x120 DUP3 ADD MSTORE PUSH1 0x9 DUP3 ADD SLOAD DUP4 AND PUSH2 0x140 DUP3 ADD MSTORE PUSH1 0xA DUP3 ADD SLOAD PUSH2 0x160 DUP3 ADD MSTORE PUSH1 0xB DUP3 ADD SLOAD PUSH2 0x180 DUP3 ADD MSTORE PUSH1 0xC SWAP1 SWAP2 ADD SLOAD SWAP4 DUP5 AND ISZERO ISZERO PUSH2 0x1A0 DUP3 ADD MSTORE SWAP2 SWAP1 SWAP3 DIV SWAP1 SWAP2 AND PUSH2 0x1C0 SWAP1 SWAP2 ADD DUP2 SWAP1 MSTORE SWAP1 JUMP JUMPDEST PUSH1 0x40 MLOAD PUSH1 0x1 PUSH1 0x1 PUSH1 0xA0 SHL SUB SWAP1 SWAP2 AND DUP2 MSTORE PUSH1 0x20 ADD PUSH2 0x212 JUMP JUMPDEST PUSH2 0x208 PUSH2 0x506 CALLDATASIZE PUSH1 0x4 PUSH2 0x3CAC JUMP JUMPDEST PUSH2 0x25CC JUMP JUMPDEST PUSH2 0x286 PUSH2 0x519 CALLDATASIZE PUSH1 0x4 PUSH2 0x3D82 JUMP JUMPDEST PUSH2 0x2754 JUMP JUMPDEST PUSH2 0x208 PUSH2 0x52C CALLDATASIZE PUSH1 0x4 PUSH2 0x3CAC JUMP JUMPDEST PUSH1 0x0 SWAP1 DUP2 MSTORE PUSH1 0x2 PUSH1 0x20 MSTORE PUSH1 0x40 SWAP1 KECCAK256 PUSH1 0x3 ADD SLOAD SWAP1 JUMP JUMPDEST PUSH1 0x3 SLOAD PUSH2 0x208 JUMP JUMPDEST PUSH2 0x286 PUSH2 0x557 CALLDATASIZE PUSH1 0x4 PUSH2 0x3CAC JUMP JUMPDEST PUSH2 0x28B9 JUMP JUMPDEST PUSH2 0x208 PUSH2 0x56A CALLDATASIZE PUSH1 0x4 PUSH2 0x3DD7 JUMP JUMPDEST PUSH2 0x28EA JUMP JUMPDEST PUSH2 0x208 PUSH8 0x6F05B59D3B20000 DUP2 JUMP JUMPDEST PUSH2 0x591 PUSH2 0x58C CALLDATASIZE PUSH1 0x4 PUSH2 0x3DF4 JUMP JUMPDEST PUSH2 0x295F JUMP JUMPDEST PUSH1 0x40 DUP1 MLOAD SWAP5 DUP6 MSTORE PUSH1 0x20 DUP6 ADD SWAP4 SWAP1 SWAP4 MSTORE SWAP2 DUP4 ADD MSTORE PUSH1 0x60 DUP3 ADD MSTORE PUSH1 0x80 ADD PUSH2 0x212 JUMP JUMPDEST PUSH2 0x286 PUSH2 0x5BF CALLDATASIZE PUSH1 0x4 PUSH2 0x3D82 JUMP JUMPDEST PUSH2 0x2AF2 JUMP JUMPDEST PUSH2 0x208 PUSH2 0x5D2 CALLDATASIZE PUSH1 0x4 PUSH2 0x3CAC JUMP JUMPDEST PUSH2 0x2B2D JUMP JUMPDEST PUSH2 0x208 PUSH5 0x2540BE400 DUP2 JUMP JUMPDEST PUSH2 0x591 PUSH2 0x5F1 CALLDATASIZE PUSH1 0x4 PUSH2 0x3DF4 JUMP JUMPDEST PUSH2 0x2E3F JUMP JUMPDEST PUSH2 0x208 PUSH2 0x604 CALLDATASIZE PUSH1 0x4 PUSH2 0x3E20 JUMP JUMPDEST PUSH2 0x2FA4 JUMP JUMPDEST PUSH2 0x286 PUSH2 0x617 CALLDATASIZE PUSH1 0x4 PUSH2 0x3D82 JUMP JUMPDEST PUSH2 0x2FDC JUMP JUMPDEST PUSH1 0x1 SLOAD PUSH2 0x4E0 SWAP1 PUSH1 0x1 PUSH1 0x1 PUSH1 0xA0 SHL SUB AND DUP2 JUMP JUMPDEST PUSH1 0x1 SLOAD PUSH1 0x0 SWAP1 PUSH1 0x1 PUSH1 0x1 PUSH1 0xA0 SHL SUB AND CALLER EQ PUSH2 0x691 JUMPI PUSH1 0x40 MLOAD PUSH3 0x461BCD PUSH1 0xE5 SHL DUP2 MSTORE PUSH1 0x20 PUSH1 0x4 DUP3 ADD MSTORE PUSH1 0x1E PUSH1 0x24 DUP3 ADD MSTORE PUSH32 0x46697865645261746545786368616E67653A206F6E6C7920726F757465720000 PUSH1 0x44 DUP3 ADD MSTORE PUSH1 0x64 ADD JUMPDEST PUSH1 0x40 MLOAD DUP1 SWAP2 SUB SWAP1 REVERT JUMPDEST PUSH1 0x5 DUP3 MLOAD LT ISZERO PUSH2 0x6DA JUMPI PUSH1 0x40 MLOAD PUSH3 0x461BCD PUSH1 0xE5 SHL DUP2 MSTORE PUSH1 0x20 PUSH1 0x4 DUP3 ADD MSTORE PUSH1 0x14 PUSH1 0x24 DUP3 ADD MSTORE PUSH20 0x92DCECC2D8D2C840EAD2DCE8E640D8CADCCEE8D PUSH1 0x63 SHL PUSH1 0x44 DUP3 ADD MSTORE PUSH1 0x64 ADD PUSH2 0x688 JUMP JUMPDEST PUSH1 0x4 DUP4 MLOAD LT ISZERO PUSH2 0x72C JUMPI PUSH1 0x40 MLOAD PUSH3 0x461BCD PUSH1 0xE5 SHL DUP2 MSTORE PUSH1 0x20 PUSH1 0x4 DUP3 ADD MSTORE PUSH1 0x18 PUSH1 0x24 DUP3 ADD MSTORE PUSH32 0x496E76616C696420616464726573736573206C656E6774680000000000000000 PUSH1 0x44 DUP3 ADD MSTORE PUSH1 0x64 ADD PUSH2 0x688 JUMP JUMPDEST PUSH1 0x0 PUSH1 0x1 PUSH1 0x1 PUSH1 0xA0 SHL SUB AND DUP4 PUSH1 0x0 DUP2 MLOAD DUP2 LT PUSH2 0x74A JUMPI PUSH2 0x74A PUSH2 0x3E4E JUMP JUMPDEST PUSH1 0x20 MUL PUSH1 0x20 ADD ADD MLOAD PUSH1 0x1 PUSH1 0x1 PUSH1 0xA0 SHL SUB AND EQ ISZERO PUSH2 0x7C5 JUMPI PUSH1 0x40 MLOAD PUSH3 0x461BCD PUSH1 0xE5 SHL DUP2 MSTORE PUSH1 0x20 PUSH1 0x4 DUP3 ADD MSTORE PUSH1 0x33 PUSH1 0x24 DUP3 ADD MSTORE PUSH32 0x46697865645261746545786368616E67653A20496E76616C6964206261736554 PUSH1 0x44 DUP3 ADD MSTORE PUSH19 0x6F6B656E2C20207A65726F2061646472657373 PUSH1 0x68 SHL PUSH1 0x64 DUP3 ADD MSTORE PUSH1 0x84 ADD PUSH2 0x688 JUMP JUMPDEST PUSH1 0x1 PUSH1 0x1 PUSH1 0xA0 SHL SUB DUP5 AND PUSH2 0x837 JUMPI PUSH1 0x40 MLOAD PUSH3 0x461BCD PUSH1 0xE5 SHL DUP2 MSTORE PUSH1 0x20 PUSH1 0x4 DUP3 ADD MSTORE PUSH1 0x33 PUSH1 0x24 DUP3 ADD MSTORE PUSH32 0x46697865645261746545786368616E67653A20496E76616C6964206461746174 PUSH1 0x44 DUP3 ADD MSTORE PUSH19 0x6F6B656E2C20207A65726F2061646472657373 PUSH1 0x68 SHL PUSH1 0x64 DUP3 ADD MSTORE PUSH1 0x84 ADD PUSH2 0x688 JUMP JUMPDEST DUP4 PUSH1 0x1 PUSH1 0x1 PUSH1 0xA0 SHL SUB AND DUP4 PUSH1 0x0 DUP2 MLOAD DUP2 LT PUSH2 0x854 JUMPI PUSH2 0x854 PUSH2 0x3E4E JUMP JUMPDEST PUSH1 0x20 MUL PUSH1 0x20 ADD ADD MLOAD PUSH1 0x1 PUSH1 0x1 PUSH1 0xA0 SHL SUB AND EQ ISZERO PUSH2 0x8D9 JUMPI PUSH1 0x40 MLOAD PUSH3 0x461BCD PUSH1 0xE5 SHL DUP2 MSTORE PUSH1 0x20 PUSH1 0x4 DUP3 ADD MSTORE PUSH1 0x37 PUSH1 0x24 DUP3 ADD MSTORE PUSH32 0x46697865645261746545786368616E67653A20496E76616C6964206461746174 PUSH1 0x44 DUP3 ADD MSTORE PUSH32 0x6F6B656E2C2020657175616C732062617365546F6B656E000000000000000000 PUSH1 0x64 DUP3 ADD MSTORE PUSH1 0x84 ADD PUSH2 0x688 JUMP JUMPDEST PUSH5 0x2540BE400 DUP3 PUSH1 0x2 DUP2 MLOAD DUP2 LT PUSH2 0x8F2 JUMPI PUSH2 0x8F2 PUSH2 0x3E4E JUMP JUMPDEST PUSH1 0x20 MUL PUSH1 0x20 ADD ADD MLOAD LT ISZERO PUSH2 0x918 JUMPI PUSH1 0x40 MLOAD PUSH3 0x461BCD PUSH1 0xE5 SHL DUP2 MSTORE PUSH1 0x4 ADD PUSH2 0x688 SWAP1 PUSH2 0x3E64 JUMP JUMPDEST PUSH2 0x93C DUP4 PUSH1 0x0 DUP2 MLOAD DUP2 LT PUSH2 0x92E JUMPI PUSH2 0x92E PUSH2 0x3E4E JUMP JUMPDEST PUSH1 0x20 MUL PUSH1 0x20 ADD ADD MLOAD DUP6 PUSH2 0x2FA4 JUMP JUMPDEST PUSH1 0x0 DUP2 DUP2 MSTORE PUSH1 0x2 PUSH1 0x20 MSTORE PUSH1 0x40 SWAP1 KECCAK256 PUSH1 0x3 ADD SLOAD SWAP1 SWAP2 POP ISZERO PUSH2 0x9B2 JUMPI PUSH1 0x40 MLOAD PUSH3 0x461BCD PUSH1 0xE5 SHL DUP2 MSTORE PUSH1 0x20 PUSH1 0x4 DUP3 ADD MSTORE PUSH1 0x2B PUSH1 0x24 DUP3 ADD MSTORE PUSH32 0x46697865645261746545786368616E67653A2045786368616E676520616C7265 PUSH1 0x44 DUP3 ADD MSTORE PUSH11 0x6164792065786973747321 PUSH1 0xA8 SHL PUSH1 0x64 DUP3 ADD MSTORE PUSH1 0x84 ADD PUSH2 0x688 JUMP JUMPDEST PUSH1 0x0 PUSH1 0x1 SWAP1 POP DUP3 PUSH1 0x4 DUP2 MLOAD DUP2 LT PUSH2 0x9CB JUMPI PUSH2 0x9CB PUSH2 0x3E4E JUMP JUMPDEST PUSH1 0x20 MUL PUSH1 0x20 ADD ADD MLOAD PUSH1 0x0 EQ ISZERO PUSH2 0x9DF JUMPI POP PUSH1 0x0 JUMPDEST PUSH1 0x40 MLOAD DUP1 PUSH2 0x1E0 ADD PUSH1 0x40 MSTORE DUP1 PUSH1 0x1 ISZERO ISZERO DUP2 MSTORE PUSH1 0x20 ADD DUP6 PUSH1 0x1 DUP2 MLOAD DUP2 LT PUSH2 0xA07 JUMPI PUSH2 0xA07 PUSH2 0x3E4E JUMP JUMPDEST PUSH1 0x20 MUL PUSH1 0x20 ADD ADD MLOAD PUSH1 0x1 PUSH1 0x1 PUSH1 0xA0 SHL SUB AND DUP2 MSTORE PUSH1 0x20 ADD DUP7 PUSH1 0x1 PUSH1 0x1 PUSH1 0xA0 SHL SUB AND DUP2 MSTORE PUSH1 0x20 ADD DUP6 PUSH1 0x0 DUP2 MLOAD DUP2 LT PUSH2 0xA3F JUMPI PUSH2 0xA3F PUSH2 0x3E4E JUMP JUMPDEST PUSH1 0x20 MUL PUSH1 0x20 ADD ADD MLOAD PUSH1 0x1 PUSH1 0x1 PUSH1 0xA0 SHL SUB AND DUP2 MSTORE PUSH1 0x20 ADD DUP5 PUSH1 0x2 DUP2 MLOAD DUP2 LT PUSH2 0xA68 JUMPI PUSH2 0xA68 PUSH2 0x3E4E JUMP JUMPDEST PUSH1 0x20 MUL PUSH1 0x20 ADD ADD MLOAD DUP2 MSTORE PUSH1 0x20 ADD DUP5 PUSH1 0x1 DUP2 MLOAD DUP2 LT PUSH2 0xA88 JUMPI PUSH2 0xA88 PUSH2 0x3E4E JUMP JUMPDEST PUSH1 0x20 MUL PUSH1 0x20 ADD ADD MLOAD DUP2 MSTORE PUSH1 0x20 ADD DUP5 PUSH1 0x0 DUP2 MLOAD DUP2 LT PUSH2 0xAA8 JUMPI PUSH2 0xAA8 PUSH2 0x3E4E JUMP JUMPDEST PUSH1 0x20 MUL PUSH1 0x20 ADD ADD MLOAD DUP2 MSTORE PUSH1 0x20 ADD PUSH1 0x0 DUP2 MSTORE PUSH1 0x20 ADD PUSH1 0x0 DUP2 MSTORE PUSH1 0x20 ADD DUP5 PUSH1 0x3 DUP2 MLOAD DUP2 LT PUSH2 0xAD6 JUMPI PUSH2 0xAD6 PUSH2 0x3E4E JUMP JUMPDEST PUSH1 0x20 MUL PUSH1 0x20 ADD ADD MLOAD DUP2 MSTORE PUSH1 0x20 ADD DUP6 PUSH1 0x2 DUP2 MLOAD DUP2 LT PUSH2 0xAF6 JUMPI PUSH2 0xAF6 PUSH2 0x3E4E JUMP JUMPDEST PUSH1 0x20 MUL PUSH1 0x20 ADD ADD MLOAD PUSH1 0x1 PUSH1 0x1 PUSH1 0xA0 SHL SUB AND DUP2 MSTORE PUSH1 0x20 ADD PUSH1 0x0 DUP2 MSTORE PUSH1 0x20 ADD PUSH1 0x0 DUP2 MSTORE PUSH1 0x20 ADD DUP3 ISZERO ISZERO DUP2 MSTORE PUSH1 0x20 ADD DUP6 PUSH1 0x3 DUP2 MLOAD DUP2 LT PUSH2 0xB35 JUMPI PUSH2 0xB35 PUSH2 0x3E4E JUMP JUMPDEST PUSH1 0x20 SWAP1 DUP2 MUL SWAP2 SWAP1 SWAP2 ADD DUP2 ADD MLOAD PUSH1 0x1 PUSH1 0x1 PUSH1 0xA0 SHL SUB SWAP1 DUP2 AND SWAP1 SWAP3 MSTORE PUSH1 0x0 DUP6 DUP2 MSTORE PUSH1 0x2 DUP1 DUP4 MSTORE PUSH1 0x40 SWAP2 DUP3 SWAP1 KECCAK256 DUP6 MLOAD DUP2 SLOAD SWAP5 DUP8 ADD MLOAD DUP7 AND PUSH2 0x100 SWAP1 DUP2 MUL PUSH2 0x100 PUSH1 0x1 PUSH1 0xA8 SHL SUB NOT SWAP3 ISZERO ISZERO DUP4 AND PUSH1 0x1 PUSH1 0x1 PUSH1 0xA8 SHL SUB NOT SWAP8 DUP9 AND OR OR DUP4 SSTORE SWAP4 DUP8 ADD MLOAD PUSH1 0x1 DUP4 ADD DUP1 SLOAD SWAP2 DUP9 AND PUSH1 0x1 PUSH1 0x1 PUSH1 0xA0 SHL SUB NOT SWAP3 DUP4 AND OR SWAP1 SSTORE PUSH1 0x60 DUP9 ADD MLOAD SWAP4 DUP4 ADD DUP1 SLOAD SWAP5 DUP9 AND SWAP5 DUP3 AND SWAP5 SWAP1 SWAP5 OR SWAP1 SWAP4 SSTORE PUSH1 0x80 DUP8 ADD MLOAD PUSH1 0x3 DUP1 DUP5 ADD SWAP2 SWAP1 SWAP2 SSTORE PUSH1 0xA0 DUP9 ADD MLOAD PUSH1 0x4 DUP5 ADD SSTORE PUSH1 0xC0 DUP9 ADD MLOAD PUSH1 0x5 DUP5 ADD SSTORE PUSH1 0xE0 DUP9 ADD MLOAD PUSH1 0x6 DUP5 ADD SSTORE DUP5 DUP9 ADD MLOAD PUSH1 0x7 DUP5 ADD SSTORE PUSH2 0x120 DUP9 ADD MLOAD PUSH1 0x8 DUP5 ADD SSTORE PUSH2 0x140 DUP9 ADD MLOAD PUSH1 0x9 DUP5 ADD DUP1 SLOAD SWAP2 DUP10 AND SWAP2 SWAP1 SWAP6 AND OR SWAP1 SWAP4 SSTORE PUSH2 0x160 DUP8 ADD MLOAD PUSH1 0xA DUP4 ADD SSTORE PUSH2 0x180 DUP8 ADD MLOAD PUSH1 0xB DUP4 ADD SSTORE PUSH2 0x1A0 DUP8 ADD MLOAD PUSH1 0xC SWAP1 SWAP3 ADD DUP1 SLOAD PUSH2 0x1C0 SWAP1 SWAP9 ADD MLOAD SWAP1 SWAP7 AND SWAP1 SWAP4 MUL SWAP1 ISZERO ISZERO SWAP1 SWAP3 AND SWAP5 SWAP1 SWAP3 AND SWAP4 SWAP1 SWAP4 OR SWAP3 SWAP1 SWAP3 OR SWAP1 SSTORE DUP4 MLOAD DUP5 SWAP2 SWAP1 DUP2 LT PUSH2 0xC6F JUMPI PUSH2 0xC6F PUSH2 0x3E4E JUMP JUMPDEST PUSH1 0x20 MUL PUSH1 0x20 ADD ADD MLOAD PUSH1 0x0 EQ DUP1 PUSH2 0xCB2 JUMPI POP PUSH2 0xC94 PUSH2 0x2710 PUSH8 0xDE0B6B3A7640000 PUSH2 0x3EC8 JUMP JUMPDEST DUP4 PUSH1 0x3 DUP2 MLOAD DUP2 LT PUSH2 0xCA7 JUMPI PUSH2 0xCA7 PUSH2 0x3E4E JUMP JUMPDEST PUSH1 0x20 MUL PUSH1 0x20 ADD ADD MLOAD LT ISZERO JUMPDEST PUSH2 0xCF0 JUMPI PUSH1 0x40 MLOAD PUSH3 0x461BCD PUSH1 0xE5 SHL DUP2 MSTORE PUSH1 0x20 PUSH1 0x4 DUP3 ADD MSTORE PUSH1 0xF PUSH1 0x24 DUP3 ADD MSTORE PUSH15 0x5377617046656520746F6F206C6F77 PUSH1 0x88 SHL PUSH1 0x44 DUP3 ADD MSTORE PUSH1 0x64 ADD PUSH2 0x688 JUMP JUMPDEST PUSH8 0x6F05B59D3B20000 DUP4 PUSH1 0x3 DUP2 MLOAD DUP2 LT PUSH2 0xD0C JUMPI PUSH2 0xD0C PUSH2 0x3E4E JUMP JUMPDEST PUSH1 0x20 MUL PUSH1 0x20 ADD ADD MLOAD GT ISZERO PUSH2 0xD55 JUMPI PUSH1 0x40 MLOAD PUSH3 0x461BCD PUSH1 0xE5 SHL DUP2 MSTORE PUSH1 0x20 PUSH1 0x4 DUP3 ADD MSTORE PUSH1 0x10 PUSH1 0x24 DUP3 ADD MSTORE PUSH16 0xA6EEC2E08CCACA40E8DEDE40D0D2CED PUSH1 0x83 SHL PUSH1 0x44 DUP3 ADD MSTORE PUSH1 0x64 ADD PUSH2 0x688 JUMP JUMPDEST PUSH1 0x3 DUP1 SLOAD PUSH1 0x1 DUP2 ADD DUP3 SSTORE PUSH1 0x0 SWAP2 DUP3 MSTORE PUSH32 0xC2575A0E9E593C00F959F8C92F12DB2869C3395A3B0502D05E2516446F71F85B ADD DUP4 SWAP1 SSTORE DUP5 MLOAD PUSH1 0x1 PUSH1 0x1 PUSH1 0xA0 SHL SUB DUP8 AND SWAP2 DUP7 SWAP2 PUSH2 0xDA4 JUMPI PUSH2 0xDA4 PUSH2 0x3E4E JUMP JUMPDEST PUSH1 0x20 MUL PUSH1 0x20 ADD ADD MLOAD PUSH1 0x1 PUSH1 0x1 PUSH1 0xA0 SHL SUB AND DUP4 PUSH32 0xEB7A353641F7D3CC54B497EF1553FDC292B64D9CC3BE8587C23DFBA01F310B19 DUP8 PUSH1 0x1 DUP2 MLOAD DUP2 LT PUSH2 0xDEA JUMPI PUSH2 0xDEA PUSH2 0x3E4E JUMP JUMPDEST PUSH1 0x20 MUL PUSH1 0x20 ADD ADD MLOAD DUP8 PUSH1 0x2 DUP2 MLOAD DUP2 LT PUSH2 0xE05 JUMPI PUSH2 0xE05 PUSH2 0x3E4E JUMP JUMPDEST PUSH1 0x20 MUL PUSH1 0x20 ADD ADD MLOAD PUSH1 0x40 MLOAD PUSH2 0xE2F SWAP3 SWAP2 SWAP1 PUSH1 0x1 PUSH1 0x1 PUSH1 0xA0 SHL SUB SWAP3 SWAP1 SWAP3 AND DUP3 MSTORE PUSH1 0x20 DUP3 ADD MSTORE PUSH1 0x40 ADD SWAP1 JUMP JUMPDEST PUSH1 0x40 MLOAD DUP1 SWAP2 SUB SWAP1 LOG4 DUP4 PUSH1 0x1 DUP2 MLOAD DUP2 LT PUSH2 0xE4A JUMPI PUSH2 0xE4A PUSH2 0x3E4E JUMP JUMPDEST PUSH1 0x20 MUL PUSH1 0x20 ADD ADD MLOAD PUSH1 0x1 PUSH1 0x1 PUSH1 0xA0 SHL SUB AND DUP3 PUSH32 0xC7344C45124818D1D3A4C24CCB9B86D8B88D3BD05209B2A42B494CB32A503529 PUSH1 0x40 MLOAD PUSH1 0x40 MLOAD DUP1 SWAP2 SUB SWAP1 LOG3 DUP4 PUSH1 0x3 DUP2 MLOAD DUP2 LT PUSH2 0xE9B JUMPI PUSH2 0xE9B PUSH2 0x3E4E JUMP JUMPDEST PUSH1 0x20 MUL PUSH1 0x20 ADD ADD MLOAD PUSH1 0x1 PUSH1 0x1 PUSH1 0xA0 SHL SUB AND DUP3 PUSH32 0xCC1B4AF8292E6B938F6743C78A62317C9A2D60E0D46B77776A027E53CE617C0C PUSH1 0x40 MLOAD PUSH1 0x40 MLOAD DUP1 SWAP2 SUB SWAP1 LOG3 DUP2 PUSH32 0x1BF3AF41AF5EF4EA33BBEFFB18ACD246AAE76D6F03BDB54916577C2E1AB03D52 CALLER DUP7 PUSH1 0x2 DUP2 MLOAD DUP2 LT PUSH2 0xF0F JUMPI PUSH2 0xF0F PUSH2 0x3E4E JUMP JUMPDEST PUSH1 0x20 MUL PUSH1 0x20 ADD ADD MLOAD DUP7 PUSH1 0x3 DUP2 MLOAD DUP2 LT PUSH2 0xF2A JUMPI PUSH2 0xF2A PUSH2 0x3E4E JUMP JUMPDEST PUSH1 0x20 MUL PUSH1 0x20 ADD ADD MLOAD PUSH1 0x40 MLOAD PUSH2 0xF41 SWAP4 SWAP3 SWAP2 SWAP1 PUSH2 0x3EEA JUMP JUMPDEST PUSH1 0x40 MLOAD DUP1 SWAP2 SUB SWAP1 LOG2 POP SWAP4 SWAP3 POP POP POP JUMP JUMPDEST PUSH1 0x0 DUP2 DUP2 MSTORE PUSH1 0x2 PUSH1 0x20 DUP2 DUP2 MSTORE PUSH1 0x40 DUP1 DUP5 KECCAK256 DUP2 MLOAD PUSH2 0x1E0 DUP2 ADD DUP4 MSTORE DUP2 SLOAD PUSH1 0xFF DUP1 DUP3 AND ISZERO ISZERO DUP4 MSTORE PUSH1 0x1 PUSH1 0x1 PUSH1 0xA0 SHL SUB PUSH2 0x100 SWAP3 DUP4 SWAP1 DIV DUP2 AND DUP5 DUP9 ADD MSTORE PUSH1 0x1 DUP6 ADD SLOAD DUP2 AND SWAP6 DUP5 ADD SWAP6 SWAP1 SWAP6 MSTORE DUP4 DUP8 ADD SLOAD DUP6 AND PUSH1 0x60 DUP5 ADD DUP2 SWAP1 MSTORE PUSH1 0x3 DUP6 ADD SLOAD PUSH1 0x80 DUP6 ADD MSTORE PUSH1 0x4 DUP6 ADD SLOAD PUSH1 0xA0 DUP6 ADD MSTORE PUSH1 0x5 DUP6 ADD SLOAD PUSH1 0xC0 DUP6 ADD MSTORE PUSH1 0x6 DUP6 ADD SLOAD PUSH1 0xE0 DUP6 ADD MSTORE PUSH1 0x7 DUP6 ADD SLOAD DUP4 DUP6 ADD MSTORE PUSH1 0x8 DUP6 ADD SLOAD PUSH2 0x120 DUP6 ADD DUP2 SWAP1 MSTORE PUSH1 0x9 DUP7 ADD SLOAD DUP8 AND PUSH2 0x140 DUP7 ADD DUP2 SWAP1 MSTORE PUSH1 0xA DUP8 ADD SLOAD PUSH2 0x160 DUP8 ADD MSTORE PUSH1 0xB DUP8 ADD SLOAD PUSH2 0x180 DUP8 ADD MSTORE PUSH1 0xC SWAP1 SWAP7 ADD SLOAD SWAP3 DUP4 AND ISZERO ISZERO PUSH2 0x1A0 DUP7 ADD MSTORE SWAP3 SWAP1 SWAP2 DIV SWAP1 SWAP5 AND PUSH2 0x1C0 DUP4 ADD MSTORE DUP8 DUP8 MSTORE SWAP5 SWAP1 SWAP4 MSTORE SWAP3 SWAP4 SWAP2 DUP3 SWAP2 DUP3 SWAP2 SWAP1 PUSH2 0x103F SWAP1 PUSH2 0x28EA JUMP JUMPDEST SWAP4 POP DUP1 PUSH2 0x160 ADD MLOAD SWAP3 POP DUP1 PUSH2 0x180 ADD MLOAD SWAP2 POP POP SWAP2 SWAP4 SWAP6 SWAP1 SWAP3 SWAP5 POP JUMP JUMPDEST PUSH1 0x60 PUSH1 0x3 DUP1 SLOAD DUP1 PUSH1 0x20 MUL PUSH1 0x20 ADD PUSH1 0x40 MLOAD SWAP1 DUP2 ADD PUSH1 0x40 MSTORE DUP1 SWAP3 SWAP2 SWAP1 DUP2 DUP2 MSTORE PUSH1 0x20 ADD DUP3 DUP1 SLOAD DUP1 ISZERO PUSH2 0x10A9 JUMPI PUSH1 0x20 MUL DUP3 ADD SWAP2 SWAP1 PUSH1 0x0 MSTORE PUSH1 0x20 PUSH1 0x0 KECCAK256 SWAP1 JUMPDEST DUP2 SLOAD DUP2 MSTORE PUSH1 0x20 ADD SWAP1 PUSH1 0x1 ADD SWAP1 DUP1 DUP4 GT PUSH2 0x1095 JUMPI JUMPDEST POP POP POP POP POP SWAP1 POP SWAP1 JUMP JUMPDEST PUSH1 0x0 DUP2 DUP2 MSTORE PUSH1 0x2 PUSH1 0x20 MSTORE PUSH1 0x40 SWAP1 DUP2 SWAP1 KECCAK256 PUSH1 0x1 ADD SLOAD SWAP1 MLOAD PUSH4 0x96FB3EAF PUSH1 0xE0 SHL DUP2 MSTORE CALLER PUSH1 0x4 DUP3 ADD MSTORE DUP3 SWAP2 PUSH1 0x1 PUSH1 0x1 PUSH1 0xA0 SHL SUB AND SWAP1 DUP2 SWAP1 PUSH4 0x96FB3EAF SWAP1 PUSH1 0x24 ADD PUSH1 0x20 PUSH1 0x40 MLOAD DUP1 DUP4 SUB DUP2 DUP7 GAS STATICCALL ISZERO DUP1 ISZERO PUSH2 0x110D JUMPI RETURNDATASIZE PUSH1 0x0 DUP1 RETURNDATACOPY RETURNDATASIZE PUSH1 0x0 REVERT JUMPDEST POP POP POP POP PUSH1 0x40 MLOAD RETURNDATASIZE PUSH1 0x1F NOT PUSH1 0x1F DUP3 ADD AND DUP3 ADD DUP1 PUSH1 0x40 MSTORE POP DUP2 ADD SWAP1 PUSH2 0x1131 SWAP2 SWAP1 PUSH2 0x3F0E JUMP JUMPDEST DUP1 PUSH2 0x1218 JUMPI POP CALLER PUSH1 0x1 PUSH1 0x1 PUSH1 0xA0 SHL SUB AND DUP2 PUSH1 0x1 PUSH1 0x1 PUSH1 0xA0 SHL SUB AND PUSH3 0x7FFB78 PUSH1 0x40 MLOAD DUP2 PUSH4 0xFFFFFFFF AND PUSH1 0xE0 SHL DUP2 MSTORE PUSH1 0x4 ADD PUSH1 0x20 PUSH1 0x40 MLOAD DUP1 DUP4 SUB DUP2 DUP7 GAS STATICCALL ISZERO DUP1 ISZERO PUSH2 0x117E JUMPI RETURNDATASIZE PUSH1 0x0 DUP1 RETURNDATACOPY RETURNDATASIZE PUSH1 0x0 REVERT JUMPDEST POP POP POP POP PUSH1 0x40 MLOAD RETURNDATASIZE PUSH1 0x1F NOT PUSH1 0x1F DUP3 ADD AND DUP3 ADD DUP1 PUSH1 0x40 MSTORE POP DUP2 ADD SWAP1 PUSH2 0x11A2 SWAP2 SWAP1 PUSH2 0x3F2B JUMP JUMPDEST PUSH1 0x40 MLOAD PUSH4 0x31A9108F PUSH1 0xE1 SHL DUP2 MSTORE PUSH1 0x1 PUSH1 0x4 DUP3 ADD MSTORE PUSH1 0x1 PUSH1 0x1 PUSH1 0xA0 SHL SUB SWAP2 SWAP1 SWAP2 AND SWAP1 PUSH4 0x6352211E SWAP1 PUSH1 0x24 ADD PUSH1 0x20 PUSH1 0x40 MLOAD DUP1 DUP4 SUB DUP2 DUP7 GAS STATICCALL ISZERO DUP1 ISZERO PUSH2 0x11E9 JUMPI RETURNDATASIZE PUSH1 0x0 DUP1 RETURNDATACOPY RETURNDATASIZE PUSH1 0x0 REVERT JUMPDEST POP POP POP POP PUSH1 0x40 MLOAD RETURNDATASIZE PUSH1 0x1F NOT PUSH1 0x1F DUP3 ADD AND DUP3 ADD DUP1 PUSH1 0x40 MSTORE POP DUP2 ADD SWAP1 PUSH2 0x120D SWAP2 SWAP1 PUSH2 0x3F2B JUMP JUMPDEST PUSH1 0x1 PUSH1 0x1 PUSH1 0xA0 SHL SUB AND EQ JUMPDEST PUSH2 0x1234 JUMPI PUSH1 0x40 MLOAD PUSH3 0x461BCD PUSH1 0xE5 SHL DUP2 MSTORE PUSH1 0x4 ADD PUSH2 0x688 SWAP1 PUSH2 0x3F48 JUMP JUMPDEST PUSH1 0x0 DUP4 DUP2 MSTORE PUSH1 0x2 PUSH1 0x20 MSTORE PUSH1 0x40 SWAP1 KECCAK256 SLOAD PUSH1 0xFF AND ISZERO PUSH2 0x1290 JUMPI PUSH1 0x0 DUP4 DUP2 MSTORE PUSH1 0x2 PUSH1 0x20 MSTORE PUSH1 0x40 DUP1 DUP3 KECCAK256 DUP1 SLOAD PUSH1 0xFF NOT AND SWAP1 SSTORE MLOAD CALLER SWAP2 DUP6 SWAP2 PUSH32 0x3DA9148E1DE78FBA22DE63C573465562EBF6EF878A1D3EA83790A560229984C SWAP2 SWAP1 LOG3 POP POP POP JUMP JUMPDEST PUSH1 0x0 DUP4 DUP2 MSTORE PUSH1 0x2 PUSH1 0x20 MSTORE PUSH1 0x40 DUP1 DUP3 KECCAK256 DUP1 SLOAD PUSH1 0xFF NOT AND PUSH1 0x1 OR SWAP1 SSTORE MLOAD CALLER SWAP2 DUP6 SWAP2 PUSH32 0xC7344C45124818D1D3A4C24CCB9B86D8B88D3BD05209B2A42B494CB32A503529 SWAP2 SWAP1 LOG3 JUMPDEST POP POP POP JUMP JUMPDEST PUSH1 0x0 DUP2 DUP2 MSTORE PUSH1 0x2 PUSH1 0x20 DUP2 SWAP1 MSTORE PUSH1 0x40 DUP3 KECCAK256 DUP1 SLOAD PUSH1 0x1 DUP3 ADD SLOAD PUSH1 0x4 DUP4 ADD SLOAD SWAP4 DUP4 ADD SLOAD PUSH1 0x5 DUP5 ADD SLOAD PUSH1 0x3 SWAP1 SWAP5 ADD SLOAD PUSH1 0x1 PUSH1 0x1 PUSH1 0xA0 SHL SUB PUSH2 0x100 DUP6 DIV DUP2 AND SWAP8 SWAP4 DUP2 AND SWAP7 SWAP6 SWAP3 AND SWAP4 SWAP2 SWAP3 SWAP1 SWAP2 PUSH1 0xFF AND SWAP1 DUP1 DUP1 DUP1 DUP1 PUSH2 0x1331 DUP14 PUSH2 0x2B2D JUMP JUMPDEST SWAP5 POP PUSH2 0x133C DUP14 PUSH2 0x25CC JUMP JUMPDEST PUSH1 0x0 SWAP14 DUP15 MSTORE PUSH1 0x2 PUSH1 0x20 MSTORE PUSH1 0x40 SWAP1 SWAP14 KECCAK256 PUSH1 0x6 DUP2 ADD SLOAD PUSH1 0x7 DUP3 ADD SLOAD PUSH1 0xC SWAP1 SWAP3 ADD SLOAD SWAP14 SWAP16 SWAP13 SWAP15 SWAP12 SWAP14 SWAP11 SWAP13 SWAP10 SWAP12 SWAP9 SWAP11 SWAP8 SWAP10 SWAP7 SWAP9 SWAP8 SWAP1 SWAP7 SWAP2 SWAP6 POP PUSH1 0xFF AND SWAP4 POP SWAP2 POP POP JUMP JUMPDEST PUSH1 0x0 DUP6 DUP2 MSTORE PUSH1 0x2 PUSH1 0x20 MSTORE PUSH1 0x40 SWAP1 KECCAK256 SLOAD DUP6 SWAP1 PUSH1 0xFF AND PUSH2 0x13AB JUMPI PUSH1 0x40 MLOAD PUSH3 0x461BCD PUSH1 0xE5 SHL DUP2 MSTORE PUSH1 0x4 ADD PUSH2 0x688 SWAP1 PUSH2 0x3F91 JUMP JUMPDEST PUSH1 0x2 PUSH1 0x0 SLOAD EQ ISZERO PUSH2 0x13CE JUMPI PUSH1 0x40 MLOAD PUSH3 0x461BCD PUSH1 0xE5 SHL DUP2 MSTORE PUSH1 0x4 ADD PUSH2 0x688 SWAP1 PUSH2 0x3FDC JUMP JUMPDEST PUSH1 0x2 PUSH1 0x0 SSTORE DUP5 PUSH2 0x13F0 JUMPI PUSH1 0x40 MLOAD PUSH3 0x461BCD PUSH1 0xE5 SHL DUP2 MSTORE PUSH1 0x4 ADD PUSH2 0x688 SWAP1 PUSH2 0x4013 JUMP JUMPDEST DUP2 ISZERO DUP1 PUSH2 0x1410 JUMPI POP PUSH2 0x140C PUSH2 0x2710 PUSH8 0xDE0B6B3A7640000 PUSH2 0x3EC8 JUMP JUMPDEST DUP3 LT ISZERO JUMPDEST PUSH2 0x1455 JUMPI PUSH1 0x40 MLOAD PUSH3 0x461BCD PUSH1 0xE5 SHL DUP2 MSTORE PUSH1 0x20 PUSH1 0x4 DUP3 ADD MSTORE PUSH1 0x16 PUSH1 0x24 DUP3 ADD MSTORE PUSH22 0x436F6E73756D655377617046656520746F6F206C6F77 PUSH1 0x50 SHL PUSH1 0x44 DUP3 ADD MSTORE PUSH1 0x64 ADD PUSH2 0x688 JUMP JUMPDEST PUSH8 0x6F05B59D3B20000 DUP3 GT ISZERO PUSH2 0x14A7 JUMPI PUSH1 0x40 MLOAD PUSH3 0x461BCD PUSH1 0xE5 SHL DUP2 MSTORE PUSH1 0x20 PUSH1 0x4 DUP3 ADD MSTORE PUSH1 0x17 PUSH1 0x24 DUP3 ADD MSTORE PUSH23 0x86DEDCE6EADACAA6EEC2E08CCACA40E8DEDE40D0D2CED PUSH1 0x4B SHL PUSH1 0x44 DUP3 ADD MSTORE PUSH1 0x64 ADD PUSH2 0x688 JUMP JUMPDEST PUSH1 0x0 DUP7 DUP2 MSTORE PUSH1 0x2 PUSH1 0x20 MSTORE PUSH1 0x40 SWAP1 KECCAK256 PUSH1 0xC ADD SLOAD PUSH2 0x100 SWAP1 DIV PUSH1 0x1 PUSH1 0x1 PUSH1 0xA0 SHL SUB AND ISZERO PUSH2 0x150A JUMPI PUSH1 0x0 DUP7 DUP2 MSTORE PUSH1 0x2 PUSH1 0x20 MSTORE PUSH1 0x40 SWAP1 KECCAK256 PUSH1 0xC ADD SLOAD PUSH2 0x100 SWAP1 DIV PUSH1 0x1 PUSH1 0x1 PUSH1 0xA0 SHL SUB AND CALLER EQ PUSH2 0x150A JUMPI PUSH1 0x40 MLOAD PUSH3 0x461BCD PUSH1 0xE5 SHL DUP2 MSTORE PUSH1 0x4 ADD PUSH2 0x688 SWAP1 PUSH2 0x405B JUMP JUMPDEST PUSH1 0x40 DUP1 MLOAD PUSH1 0x80 DUP2 ADD DUP3 MSTORE PUSH1 0x0 DUP1 DUP3 MSTORE PUSH1 0x20 DUP3 ADD DUP2 SWAP1 MSTORE SWAP2 DUP2 ADD DUP3 SWAP1 MSTORE PUSH1 0x60 DUP2 ADD SWAP2 SWAP1 SWAP2 MSTORE PUSH1 0x1 PUSH1 0x1 PUSH1 0xA0 SHL SUB DUP5 AND PUSH2 0x1541 JUMPI PUSH1 0x0 SWAP3 POP JUMPDEST PUSH2 0x154C DUP8 DUP8 DUP6 PUSH2 0x295F JUMP JUMPDEST PUSH1 0x60 DUP6 ADD MSTORE PUSH1 0x40 DUP5 ADD MSTORE PUSH1 0x20 DUP4 ADD MSTORE DUP1 DUP3 MSTORE DUP6 GT ISZERO PUSH2 0x15BC JUMPI PUSH1 0x40 MLOAD PUSH3 0x461BCD PUSH1 0xE5 SHL DUP2 MSTORE PUSH1 0x20 PUSH1 0x4 DUP3 ADD MSTORE PUSH1 0x26 PUSH1 0x24 DUP3 ADD MSTORE PUSH32 0x46697865645261746545786368616E67653A20546F6F20666577206261736520 PUSH1 0x44 DUP3 ADD MSTORE PUSH6 0x746F6B656E73 PUSH1 0xD0 SHL PUSH1 0x64 DUP3 ADD MSTORE PUSH1 0x84 ADD PUSH2 0x688 JUMP JUMPDEST PUSH1 0x20 DUP1 DUP3 ADD MLOAD PUSH1 0x0 DUP10 DUP2 MSTORE PUSH1 0x2 SWAP1 SWAP3 MSTORE PUSH1 0x40 SWAP1 SWAP2 KECCAK256 PUSH1 0xB ADD SLOAD PUSH2 0x15DE SWAP2 PUSH2 0x300E JUMP JUMPDEST PUSH1 0x0 DUP9 DUP2 MSTORE PUSH1 0x2 PUSH1 0x20 MSTORE PUSH1 0x40 SWAP1 DUP2 SWAP1 KECCAK256 PUSH1 0xB DUP2 ADD SWAP3 SWAP1 SWAP3 SSTORE DUP3 ADD MLOAD PUSH1 0xA SWAP1 SWAP2 ADD SLOAD PUSH2 0x1608 SWAP2 PUSH2 0x300E JUMP JUMPDEST PUSH1 0x2 PUSH1 0x0 DUP10 DUP2 MSTORE PUSH1 0x20 ADD SWAP1 DUP2 MSTORE PUSH1 0x20 ADD PUSH1 0x0 KECCAK256 PUSH1 0xA ADD DUP2 SWAP1 SSTORE POP PUSH1 0x0 PUSH2 0x1655 DUP3 PUSH1 0x60 ADD MLOAD PUSH2 0x164F DUP5 PUSH1 0x40 ADD MLOAD PUSH2 0x164F DUP7 PUSH1 0x20 ADD MLOAD DUP8 PUSH1 0x0 ADD MLOAD PUSH2 0x300E SWAP1 SWAP2 SWAP1 PUSH4 0xFFFFFFFF AND JUMP JUMPDEST SWAP1 PUSH2 0x300E JUMP JUMPDEST PUSH1 0x0 DUP10 DUP2 MSTORE PUSH1 0x2 PUSH1 0x20 MSTORE PUSH1 0x40 SWAP1 KECCAK256 PUSH1 0x1 ADD SLOAD SWAP1 SWAP2 POP PUSH2 0x167F SWAP1 PUSH1 0x1 PUSH1 0x1 PUSH1 0xA0 SHL SUB AND CALLER ADDRESS DUP11 PUSH2 0x3021 JUMP JUMPDEST PUSH1 0x0 DUP9 DUP2 MSTORE PUSH1 0x2 PUSH1 0x20 MSTORE PUSH1 0x40 SWAP1 KECCAK256 PUSH1 0x6 ADD SLOAD PUSH2 0x169B SWAP1 DUP9 PUSH2 0x300E JUMP JUMPDEST PUSH1 0x0 DUP10 DUP2 MSTORE PUSH1 0x2 PUSH1 0x20 MSTORE PUSH1 0x40 SWAP1 KECCAK256 PUSH1 0x6 DUP2 ADD SWAP2 SWAP1 SWAP2 SSTORE PUSH1 0x7 ADD SLOAD DUP2 GT ISZERO PUSH2 0x1721 JUMPI PUSH1 0x0 DUP9 DUP2 MSTORE PUSH1 0x2 PUSH1 0x20 DUP2 SWAP1 MSTORE PUSH1 0x40 SWAP1 SWAP2 KECCAK256 SWAP1 DUP2 ADD SLOAD SWAP1 SLOAD PUSH2 0x16F0 SWAP2 PUSH1 0x1 PUSH1 0x1 PUSH1 0xA0 SHL SUB SWAP1 DUP2 AND SWAP2 PUSH2 0x100 SWAP1 DIV AND ADDRESS DUP5 PUSH2 0x3021 JUMP JUMPDEST DUP2 MLOAD PUSH1 0x0 DUP10 DUP2 MSTORE PUSH1 0x2 PUSH1 0x20 DUP2 SWAP1 MSTORE PUSH1 0x40 SWAP1 SWAP2 KECCAK256 ADD SLOAD PUSH2 0x171C SWAP2 PUSH1 0x1 PUSH1 0x1 PUSH1 0xA0 SHL SUB SWAP1 SWAP2 AND SWAP1 CALLER SWAP1 PUSH2 0x316F JUMP JUMPDEST PUSH2 0x1772 JUMP JUMPDEST PUSH1 0x0 DUP9 DUP2 MSTORE PUSH1 0x2 PUSH1 0x20 MSTORE PUSH1 0x40 SWAP1 KECCAK256 PUSH1 0x7 ADD SLOAD PUSH2 0x173D SWAP1 DUP3 PUSH2 0x31D2 JUMP JUMPDEST PUSH1 0x0 DUP10 DUP2 MSTORE PUSH1 0x2 PUSH1 0x20 DUP2 SWAP1 MSTORE PUSH1 0x40 SWAP1 SWAP2 KECCAK256 PUSH1 0x7 DUP2 ADD SWAP3 SWAP1 SWAP3 SSTORE DUP4 MLOAD SWAP2 ADD SLOAD PUSH2 0x1772 SWAP2 PUSH1 0x1 PUSH1 0x1 PUSH1 0xA0 SHL SUB SWAP1 SWAP2 AND SWAP1 CALLER SWAP1 PUSH2 0x316F JUMP JUMPDEST PUSH1 0x1 PUSH1 0x1 PUSH1 0xA0 SHL SUB DUP6 AND ISZERO DUP1 ISZERO SWAP1 PUSH2 0x178E JUMPI POP PUSH1 0x0 DUP3 PUSH1 0x60 ADD MLOAD GT JUMPDEST ISZERO PUSH2 0x1822 JUMPI PUSH1 0x60 DUP3 ADD MLOAD PUSH1 0x0 DUP10 DUP2 MSTORE PUSH1 0x2 PUSH1 0x20 DUP2 SWAP1 MSTORE PUSH1 0x40 SWAP1 SWAP2 KECCAK256 ADD SLOAD PUSH2 0x17C2 SWAP2 PUSH1 0x1 PUSH1 0x1 PUSH1 0xA0 SHL SUB SWAP1 SWAP2 AND SWAP1 DUP8 SWAP1 PUSH2 0x316F JUMP JUMPDEST PUSH1 0x0 DUP9 DUP2 MSTORE PUSH1 0x2 PUSH1 0x20 DUP2 SWAP1 MSTORE PUSH1 0x40 SWAP2 DUP3 SWAP1 KECCAK256 ADD SLOAD PUSH1 0x60 DUP5 ADD MLOAD SWAP2 MLOAD DUP11 SWAP3 PUSH32 0x86A8EDF7AC99098BE3CE56BA76AE3E5A1E212FED5F803FC3167990FA03079B9 SWAP3 PUSH2 0x1819 SWAP3 DUP11 SWAP3 PUSH1 0x1 PUSH1 0x1 PUSH1 0xA0 SHL SUB SWAP1 SWAP3 AND SWAP2 SWAP1 PUSH2 0x3EEA JUMP JUMPDEST PUSH1 0x40 MLOAD DUP1 SWAP2 SUB SWAP1 LOG2 JUMPDEST DUP2 MLOAD PUSH1 0x0 DUP10 DUP2 MSTORE PUSH1 0x2 PUSH1 0x20 DUP2 DUP2 MSTORE PUSH1 0x40 SWAP3 DUP4 SWAP1 KECCAK256 SWAP1 SWAP2 ADD SLOAD DUP3 DUP7 ADD MLOAD DUP3 DUP8 ADD MLOAD PUSH1 0x60 DUP1 DUP10 ADD MLOAD DUP7 MLOAD SWAP8 DUP9 MSTORE SWAP5 DUP8 ADD DUP15 SWAP1 MSTORE PUSH1 0x1 PUSH1 0x1 PUSH1 0xA0 SHL SUB SWAP1 SWAP4 AND SWAP5 DUP7 ADD SWAP5 SWAP1 SWAP5 MSTORE SWAP1 DUP5 ADD MSTORE PUSH1 0x80 DUP4 ADD SWAP2 SWAP1 SWAP2 MSTORE PUSH1 0xA0 DUP3 ADD MSTORE CALLER SWAP1 DUP10 SWAP1 PUSH32 0x7B072645CE5B6A2FC627A544EDEE544B786747CAFD1BB8F0E3238AA5F2E80646 SWAP1 PUSH1 0xC0 ADD JUMPDEST PUSH1 0x40 MLOAD DUP1 SWAP2 SUB SWAP1 LOG3 POP POP PUSH1 0x1 PUSH1 0x0 SSTORE POP POP POP POP POP POP JUMP JUMPDEST PUSH1 0x2 PUSH1 0x0 SLOAD EQ ISZERO PUSH2 0x18DA JUMPI PUSH1 0x40 MLOAD PUSH3 0x461BCD PUSH1 0xE5 SHL DUP2 MSTORE PUSH1 0x4 ADD PUSH2 0x688 SWAP1 PUSH2 0x3FDC JUMP JUMPDEST PUSH1 0x2 PUSH1 0x0 SSTORE PUSH2 0x18E8 DUP2 PUSH2 0x31DE JUMP JUMPDEST POP PUSH1 0x1 PUSH1 0x0 SSTORE JUMP JUMPDEST PUSH1 0x0 DUP3 DUP2 MSTORE PUSH1 0x2 PUSH1 0x20 MSTORE PUSH1 0x40 SWAP1 DUP2 SWAP1 KECCAK256 PUSH1 0x1 ADD SLOAD SWAP1 MLOAD PUSH4 0x96FB3EAF PUSH1 0xE0 SHL DUP2 MSTORE CALLER PUSH1 0x4 DUP3 ADD MSTORE DUP4 SWAP2 PUSH1 0x1 PUSH1 0x1 PUSH1 0xA0 SHL SUB AND SWAP1 DUP2 SWAP1 PUSH4 0x96FB3EAF SWAP1 PUSH1 0x24 ADD PUSH1 0x20 PUSH1 0x40 MLOAD DUP1 DUP4 SUB DUP2 DUP7 GAS STATICCALL ISZERO DUP1 ISZERO PUSH2 0x194A JUMPI RETURNDATASIZE PUSH1 0x0 DUP1 RETURNDATACOPY RETURNDATASIZE PUSH1 0x0 REVERT JUMPDEST POP POP POP POP PUSH1 0x40 MLOAD RETURNDATASIZE PUSH1 0x1F NOT PUSH1 0x1F DUP3 ADD AND DUP3 ADD DUP1 PUSH1 0x40 MSTORE POP DUP2 ADD SWAP1 PUSH2 0x196E SWAP2 SWAP1 PUSH2 0x3F0E JUMP JUMPDEST DUP1 PUSH2 0x1A55 JUMPI POP CALLER PUSH1 0x1 PUSH1 0x1 PUSH1 0xA0 SHL SUB AND DUP2 PUSH1 0x1 PUSH1 0x1 PUSH1 0xA0 SHL SUB AND PUSH3 0x7FFB78 PUSH1 0x40 MLOAD DUP2 PUSH4 0xFFFFFFFF AND PUSH1 0xE0 SHL DUP2 MSTORE PUSH1 0x4 ADD PUSH1 0x20 PUSH1 0x40 MLOAD DUP1 DUP4 SUB DUP2 DUP7 GAS STATICCALL ISZERO DUP1 ISZERO PUSH2 0x19BB JUMPI RETURNDATASIZE PUSH1 0x0 DUP1 RETURNDATACOPY RETURNDATASIZE PUSH1 0x0 REVERT JUMPDEST POP POP POP POP PUSH1 0x40 MLOAD RETURNDATASIZE PUSH1 0x1F NOT PUSH1 0x1F DUP3 ADD AND DUP3 ADD DUP1 PUSH1 0x40 MSTORE POP DUP2 ADD SWAP1 PUSH2 0x19DF SWAP2 SWAP1 PUSH2 0x3F2B JUMP JUMPDEST PUSH1 0x40 MLOAD PUSH4 0x31A9108F PUSH1 0xE1 SHL DUP2 MSTORE PUSH1 0x1 PUSH1 0x4 DUP3 ADD MSTORE PUSH1 0x1 PUSH1 0x1 PUSH1 0xA0 SHL SUB SWAP2 SWAP1 SWAP2 AND SWAP1 PUSH4 0x6352211E SWAP1 PUSH1 0x24 ADD PUSH1 0x20 PUSH1 0x40 MLOAD DUP1 DUP4 SUB DUP2 DUP7 GAS STATICCALL ISZERO DUP1 ISZERO PUSH2 0x1A26 JUMPI RETURNDATASIZE PUSH1 0x0 DUP1 RETURNDATACOPY RETURNDATASIZE PUSH1 0x0 REVERT JUMPDEST POP POP POP POP PUSH1 0x40 MLOAD RETURNDATASIZE PUSH1 0x1F NOT PUSH1 0x1F DUP3 ADD AND DUP3 ADD DUP1 PUSH1 0x40 MSTORE POP DUP2 ADD SWAP1 PUSH2 0x1A4A SWAP2 SWAP1 PUSH2 0x3F2B JUMP JUMPDEST PUSH1 0x1 PUSH1 0x1 PUSH1 0xA0 SHL SUB AND EQ JUMPDEST PUSH2 0x1A71 JUMPI PUSH1 0x40 MLOAD PUSH3 0x461BCD PUSH1 0xE5 SHL DUP2 MSTORE PUSH1 0x4 ADD PUSH2 0x688 SWAP1 PUSH2 0x3F48 JUMP JUMPDEST PUSH1 0x0 DUP5 DUP2 MSTORE PUSH1 0x2 PUSH1 0x20 MSTORE PUSH1 0x40 DUP1 DUP3 KECCAK256 PUSH1 0xC ADD DUP1 SLOAD PUSH2 0x100 PUSH1 0x1 PUSH1 0xA8 SHL SUB NOT AND PUSH2 0x100 PUSH1 0x1 PUSH1 0x1 PUSH1 0xA0 SHL SUB DUP9 AND SWAP1 DUP2 MUL SWAP2 SWAP1 SWAP2 OR SWAP1 SWAP2 SSTORE SWAP1 MLOAD SWAP1 SWAP2 DUP7 SWAP2 PUSH32 0xCC1B4AF8292E6B938F6743C78A62317C9A2D60E0D46B77776A027E53CE617C0C SWAP2 SWAP1 LOG3 POP POP POP POP JUMP JUMPDEST PUSH1 0x0 DUP3 DUP2 MSTORE PUSH1 0x2 PUSH1 0x20 MSTORE PUSH1 0x40 SWAP1 DUP2 SWAP1 KECCAK256 PUSH1 0x1 ADD SLOAD SWAP1 MLOAD PUSH4 0x96FB3EAF PUSH1 0xE0 SHL DUP2 MSTORE CALLER PUSH1 0x4 DUP3 ADD MSTORE DUP4 SWAP2 PUSH1 0x1 PUSH1 0x1 PUSH1 0xA0 SHL SUB AND SWAP1 DUP2 SWAP1 PUSH4 0x96FB3EAF SWAP1 PUSH1 0x24 ADD PUSH1 0x20 PUSH1 0x40 MLOAD DUP1 DUP4 SUB DUP2 DUP7 GAS STATICCALL ISZERO DUP1 ISZERO PUSH2 0x1B31 JUMPI RETURNDATASIZE PUSH1 0x0 DUP1 RETURNDATACOPY RETURNDATASIZE PUSH1 0x0 REVERT JUMPDEST POP POP POP POP PUSH1 0x40 MLOAD RETURNDATASIZE PUSH1 0x1F NOT PUSH1 0x1F DUP3 ADD AND DUP3 ADD DUP1 PUSH1 0x40 MSTORE POP DUP2 ADD SWAP1 PUSH2 0x1B55 SWAP2 SWAP1 PUSH2 0x3F0E JUMP JUMPDEST DUP1 PUSH2 0x1C3C JUMPI POP CALLER PUSH1 0x1 PUSH1 0x1 PUSH1 0xA0 SHL SUB AND DUP2 PUSH1 0x1 PUSH1 0x1 PUSH1 0xA0 SHL SUB AND PUSH3 0x7FFB78 PUSH1 0x40 MLOAD DUP2 PUSH4 0xFFFFFFFF AND PUSH1 0xE0 SHL DUP2 MSTORE PUSH1 0x4 ADD PUSH1 0x20 PUSH1 0x40 MLOAD DUP1 DUP4 SUB DUP2 DUP7 GAS STATICCALL ISZERO DUP1 ISZERO PUSH2 0x1BA2 JUMPI RETURNDATASIZE PUSH1 0x0 DUP1 RETURNDATACOPY RETURNDATASIZE PUSH1 0x0 REVERT JUMPDEST POP POP POP POP PUSH1 0x40 MLOAD RETURNDATASIZE PUSH1 0x1F NOT PUSH1 0x1F DUP3 ADD AND DUP3 ADD DUP1 PUSH1 0x40 MSTORE POP DUP2 ADD SWAP1 PUSH2 0x1BC6 SWAP2 SWAP1 PUSH2 0x3F2B JUMP JUMPDEST PUSH1 0x40 MLOAD PUSH4 0x31A9108F PUSH1 0xE1 SHL DUP2 MSTORE PUSH1 0x1 PUSH1 0x4 DUP3 ADD MSTORE PUSH1 0x1 PUSH1 0x1 PUSH1 0xA0 SHL SUB SWAP2 SWAP1 SWAP2 AND SWAP1 PUSH4 0x6352211E SWAP1 PUSH1 0x24 ADD PUSH1 0x20 PUSH1 0x40 MLOAD DUP1 DUP4 SUB DUP2 DUP7 GAS STATICCALL ISZERO DUP1 ISZERO PUSH2 0x1C0D JUMPI RETURNDATASIZE PUSH1 0x0 DUP1 RETURNDATACOPY RETURNDATASIZE PUSH1 0x0 REVERT JUMPDEST POP POP POP POP PUSH1 0x40 MLOAD RETURNDATASIZE PUSH1 0x1F NOT PUSH1 0x1F DUP3 ADD AND DUP3 ADD DUP1 PUSH1 0x40 MSTORE POP DUP2 ADD SWAP1 PUSH2 0x1C31 SWAP2 SWAP1 PUSH2 0x3F2B JUMP JUMPDEST PUSH1 0x1 PUSH1 0x1 PUSH1 0xA0 SHL SUB AND EQ JUMPDEST PUSH2 0x1C58 JUMPI PUSH1 0x40 MLOAD PUSH3 0x461BCD PUSH1 0xE5 SHL DUP2 MSTORE PUSH1 0x4 ADD PUSH2 0x688 SWAP1 PUSH2 0x3F48 JUMP JUMPDEST PUSH5 0x2540BE400 DUP4 LT ISZERO PUSH2 0x1C7D JUMPI PUSH1 0x40 MLOAD PUSH3 0x461BCD PUSH1 0xE5 SHL DUP2 MSTORE PUSH1 0x4 ADD PUSH2 0x688 SWAP1 PUSH2 0x3E64 JUMP JUMPDEST PUSH1 0x0 DUP5 DUP2 MSTORE PUSH1 0x2 PUSH1 0x20 MSTORE PUSH1 0x40 SWAP1 DUP2 SWAP1 KECCAK256 PUSH1 0x3 ADD DUP5 SWAP1 SSTORE MLOAD CALLER SWAP1 DUP6 SWAP1 PUSH32 0xE50F9919FDC524004A4EE0CB934F4734F144BEC0713A52E5483B753F5DE0F08C SWAP1 PUSH2 0x1CC7 SWAP1 DUP8 DUP2 MSTORE PUSH1 0x20 ADD SWAP1 JUMP JUMPDEST PUSH1 0x40 MLOAD DUP1 SWAP2 SUB SWAP1 LOG3 POP POP POP POP JUMP JUMPDEST PUSH1 0x0 DUP6 DUP2 MSTORE PUSH1 0x2 PUSH1 0x20 MSTORE PUSH1 0x40 SWAP1 KECCAK256 SLOAD DUP6 SWAP1 PUSH1 0xFF AND PUSH2 0x1D05 JUMPI PUSH1 0x40 MLOAD PUSH3 0x461BCD PUSH1 0xE5 SHL DUP2 MSTORE PUSH1 0x4 ADD PUSH2 0x688 SWAP1 PUSH2 0x3F91 JUMP JUMPDEST PUSH1 0x2 PUSH1 0x0 SLOAD EQ ISZERO PUSH2 0x1D28 JUMPI PUSH1 0x40 MLOAD PUSH3 0x461BCD PUSH1 0xE5 SHL DUP2 MSTORE PUSH1 0x4 ADD PUSH2 0x688 SWAP1 PUSH2 0x3FDC JUMP JUMPDEST PUSH1 0x2 PUSH1 0x0 SSTORE DUP5 PUSH2 0x1D4A JUMPI PUSH1 0x40 MLOAD PUSH3 0x461BCD PUSH1 0xE5 SHL DUP2 MSTORE PUSH1 0x4 ADD PUSH2 0x688 SWAP1 PUSH2 0x4013 JUMP JUMPDEST DUP2 ISZERO DUP1 PUSH2 0x1D6A JUMPI POP PUSH2 0x1D66 PUSH2 0x2710 PUSH8 0xDE0B6B3A7640000 PUSH2 0x3EC8 JUMP JUMPDEST DUP3 LT ISZERO JUMPDEST PUSH2 0x1DAF JUMPI PUSH1 0x40 MLOAD PUSH3 0x461BCD PUSH1 0xE5 SHL DUP2 MSTORE PUSH1 0x20 PUSH1 0x4 DUP3 ADD MSTORE PUSH1 0x16 PUSH1 0x24 DUP3 ADD MSTORE PUSH22 0x436F6E73756D655377617046656520746F6F206C6F77 PUSH1 0x50 SHL PUSH1 0x44 DUP3 ADD MSTORE PUSH1 0x64 ADD PUSH2 0x688 JUMP JUMPDEST PUSH8 0x6F05B59D3B20000 DUP3 GT ISZERO PUSH2 0x1E01 JUMPI PUSH1 0x40 MLOAD PUSH3 0x461BCD PUSH1 0xE5 SHL DUP2 MSTORE PUSH1 0x20 PUSH1 0x4 DUP3 ADD MSTORE PUSH1 0x17 PUSH1 0x24 DUP3 ADD MSTORE PUSH23 0x86DEDCE6EADACAA6EEC2E08CCACA40E8DEDE40D0D2CED PUSH1 0x4B SHL PUSH1 0x44 DUP3 ADD MSTORE PUSH1 0x64 ADD PUSH2 0x688 JUMP JUMPDEST PUSH1 0x0 DUP7 DUP2 MSTORE PUSH1 0x2 PUSH1 0x20 MSTORE PUSH1 0x40 SWAP1 KECCAK256 PUSH1 0xC ADD SLOAD PUSH2 0x100 SWAP1 DIV PUSH1 0x1 PUSH1 0x1 PUSH1 0xA0 SHL SUB AND ISZERO PUSH2 0x1E64 JUMPI PUSH1 0x0 DUP7 DUP2 MSTORE PUSH1 0x2 PUSH1 0x20 MSTORE PUSH1 0x40 SWAP1 KECCAK256 PUSH1 0xC ADD SLOAD PUSH2 0x100 SWAP1 DIV PUSH1 0x1 PUSH1 0x1 PUSH1 0xA0 SHL SUB AND CALLER EQ PUSH2 0x1E64 JUMPI PUSH1 0x40 MLOAD PUSH3 0x461BCD PUSH1 0xE5 SHL DUP2 MSTORE PUSH1 0x4 ADD PUSH2 0x688 SWAP1 PUSH2 0x405B JUMP JUMPDEST PUSH1 0x1 PUSH1 0x1 PUSH1 0xA0 SHL SUB DUP4 AND PUSH2 0x1E77 JUMPI PUSH1 0x0 SWAP2 POP JUMPDEST PUSH1 0x0 PUSH1 0x40 MLOAD DUP1 PUSH1 0x80 ADD PUSH1 0x40 MSTORE DUP1 PUSH1 0x0 DUP2 MSTORE PUSH1 0x20 ADD PUSH1 0x0 DUP2 MSTORE PUSH1 0x20 ADD PUSH1 0x0 DUP2 MSTORE PUSH1 0x20 ADD PUSH1 0x0 DUP2 MSTORE POP SWAP1 POP PUSH2 0x1EAB DUP8 DUP8 DUP6 PUSH2 0x2E3F JUMP JUMPDEST PUSH1 0x60 DUP6 ADD MSTORE PUSH1 0x40 DUP5 ADD MSTORE PUSH1 0x20 DUP4 ADD MSTORE DUP1 DUP3 MSTORE DUP6 LT ISZERO PUSH2 0x1F1C JUMPI PUSH1 0x40 MLOAD PUSH3 0x461BCD PUSH1 0xE5 SHL DUP2 MSTORE PUSH1 0x20 PUSH1 0x4 DUP3 ADD MSTORE PUSH1 0x27 PUSH1 0x24 DUP3 ADD MSTORE PUSH32 0x46697865645261746545786368616E67653A20546F6F206D616E792062617365 PUSH1 0x44 DUP3 ADD MSTORE PUSH7 0x20746F6B656E73 PUSH1 0xC8 SHL PUSH1 0x64 DUP3 ADD MSTORE PUSH1 0x84 ADD PUSH2 0x688 JUMP JUMPDEST PUSH1 0x20 DUP1 DUP3 ADD MLOAD PUSH1 0x0 DUP10 DUP2 MSTORE PUSH1 0x2 SWAP1 SWAP3 MSTORE PUSH1 0x40 SWAP1 SWAP2 KECCAK256 PUSH1 0xB ADD SLOAD PUSH2 0x1F3E SWAP2 PUSH2 0x300E JUMP JUMPDEST PUSH1 0x0 DUP9 DUP2 MSTORE PUSH1 0x2 PUSH1 0x20 MSTORE PUSH1 0x40 SWAP1 DUP2 SWAP1 KECCAK256 PUSH1 0xB DUP2 ADD SWAP3 SWAP1 SWAP3 SSTORE DUP3 ADD MLOAD PUSH1 0xA SWAP1 SWAP2 ADD SLOAD PUSH2 0x1F68 SWAP2 PUSH2 0x300E JUMP JUMPDEST PUSH1 0x0 DUP9 DUP2 MSTORE PUSH1 0x2 PUSH1 0x20 DUP2 SWAP1 MSTORE PUSH1 0x40 SWAP1 SWAP2 KECCAK256 PUSH1 0xA DUP2 ADD SWAP3 SWAP1 SWAP3 SSTORE ADD SLOAD DUP2 MLOAD PUSH2 0x1F9C SWAP2 PUSH1 0x1 PUSH1 0x1 PUSH1 0xA0 SHL SUB AND SWAP1 CALLER SWAP1 ADDRESS SWAP1 PUSH2 0x3021 JUMP JUMPDEST PUSH1 0x0 PUSH2 0x1FCF DUP3 PUSH1 0x60 ADD MLOAD PUSH2 0x1FC9 DUP5 PUSH1 0x40 ADD MLOAD PUSH2 0x1FC9 DUP7 PUSH1 0x20 ADD MLOAD DUP8 PUSH1 0x0 ADD MLOAD PUSH2 0x31D2 SWAP1 SWAP2 SWAP1 PUSH4 0xFFFFFFFF AND JUMP JUMPDEST SWAP1 PUSH2 0x31D2 JUMP JUMPDEST PUSH1 0x0 DUP10 DUP2 MSTORE PUSH1 0x2 PUSH1 0x20 MSTORE PUSH1 0x40 SWAP1 KECCAK256 PUSH1 0x7 ADD SLOAD SWAP1 SWAP2 POP PUSH2 0x1FEE SWAP1 DUP3 PUSH2 0x300E JUMP JUMPDEST PUSH1 0x0 DUP10 DUP2 MSTORE PUSH1 0x2 PUSH1 0x20 MSTORE PUSH1 0x40 SWAP1 KECCAK256 PUSH1 0x7 DUP2 ADD SWAP2 SWAP1 SWAP2 SSTORE PUSH1 0x6 ADD SLOAD DUP8 GT ISZERO PUSH2 0x215C JUMPI PUSH1 0x0 DUP9 DUP2 MSTORE PUSH1 0x2 PUSH1 0x20 MSTORE PUSH1 0x40 SWAP1 KECCAK256 PUSH1 0xC ADD SLOAD PUSH1 0xFF AND DUP1 ISZERO PUSH2 0x20A7 JUMPI POP PUSH1 0x0 DUP9 DUP2 MSTORE PUSH1 0x2 PUSH1 0x20 MSTORE PUSH1 0x40 SWAP1 DUP2 SWAP1 KECCAK256 PUSH1 0x1 ADD SLOAD SWAP1 MLOAD PUSH4 0x55138F0D PUSH1 0xE1 SHL DUP2 MSTORE ADDRESS PUSH1 0x4 DUP3 ADD MSTORE PUSH1 0x1 PUSH1 0x1 PUSH1 0xA0 SHL SUB SWAP1 SWAP2 AND SWAP1 PUSH4 0xAA271E1A SWAP1 PUSH1 0x24 ADD PUSH1 0x20 PUSH1 0x40 MLOAD DUP1 DUP4 SUB DUP2 DUP7 GAS STATICCALL ISZERO DUP1 ISZERO PUSH2 0x2083 JUMPI RETURNDATASIZE PUSH1 0x0 DUP1 RETURNDATACOPY RETURNDATASIZE PUSH1 0x0 REVERT JUMPDEST POP POP POP POP PUSH1 0x40 MLOAD RETURNDATASIZE PUSH1 0x1F NOT PUSH1 0x1F DUP3 ADD AND DUP3 ADD DUP1 PUSH1 0x40 MSTORE POP DUP2 ADD SWAP1 PUSH2 0x20A7 SWAP2 SWAP1 PUSH2 0x3F0E JUMP JUMPDEST ISZERO PUSH2 0x2125 JUMPI PUSH1 0x0 DUP9 DUP2 MSTORE PUSH1 0x2 PUSH1 0x20 MSTORE PUSH1 0x40 SWAP1 DUP2 SWAP1 KECCAK256 PUSH1 0x1 ADD SLOAD SWAP1 MLOAD PUSH4 0x40C10F19 PUSH1 0xE0 SHL DUP2 MSTORE CALLER PUSH1 0x4 DUP3 ADD MSTORE PUSH1 0x24 DUP2 ADD DUP10 SWAP1 MSTORE PUSH1 0x1 PUSH1 0x1 PUSH1 0xA0 SHL SUB SWAP1 SWAP2 AND SWAP1 PUSH4 0x40C10F19 SWAP1 PUSH1 0x44 ADD PUSH1 0x0 PUSH1 0x40 MLOAD DUP1 DUP4 SUB DUP2 PUSH1 0x0 DUP8 DUP1 EXTCODESIZE ISZERO DUP1 ISZERO PUSH2 0x2108 JUMPI PUSH1 0x0 DUP1 REVERT JUMPDEST POP GAS CALL ISZERO DUP1 ISZERO PUSH2 0x211C JUMPI RETURNDATASIZE PUSH1 0x0 DUP1 RETURNDATACOPY RETURNDATASIZE PUSH1 0x0 REVERT JUMPDEST POP POP POP POP PUSH2 0x21A6 JUMP JUMPDEST PUSH1 0x0 DUP9 DUP2 MSTORE PUSH1 0x2 PUSH1 0x20 MSTORE PUSH1 0x40 SWAP1 KECCAK256 PUSH1 0x1 DUP2 ADD SLOAD SWAP1 SLOAD PUSH2 0x2157 SWAP2 PUSH1 0x1 PUSH1 0x1 PUSH1 0xA0 SHL SUB SWAP1 DUP2 AND SWAP2 PUSH2 0x100 SWAP1 DIV AND CALLER DUP11 PUSH2 0x3021 JUMP JUMPDEST PUSH2 0x21A6 JUMP JUMPDEST PUSH1 0x0 DUP9 DUP2 MSTORE PUSH1 0x2 PUSH1 0x20 MSTORE PUSH1 0x40 SWAP1 KECCAK256 PUSH1 0x6 ADD SLOAD PUSH2 0x2178 SWAP1 DUP9 PUSH2 0x31D2 JUMP JUMPDEST PUSH1 0x0 DUP10 DUP2 MSTORE PUSH1 0x2 PUSH1 0x20 MSTORE PUSH1 0x40 SWAP1 KECCAK256 PUSH1 0x6 DUP2 ADD SWAP2 SWAP1 SWAP2 SSTORE PUSH1 0x1 ADD SLOAD PUSH2 0x21A6 SWAP1 PUSH1 0x1 PUSH1 0x1 PUSH1 0xA0 SHL SUB AND CALLER DUP10 PUSH2 0x316F JUMP JUMPDEST PUSH1 0x1 PUSH1 0x1 PUSH1 0xA0 SHL SUB DUP6 AND ISZERO DUP1 ISZERO SWAP1 PUSH2 0x21C2 JUMPI POP PUSH1 0x0 DUP3 PUSH1 0x60 ADD MLOAD GT JUMPDEST ISZERO PUSH2 0x2256 JUMPI PUSH1 0x60 DUP3 ADD MLOAD PUSH1 0x0 DUP10 DUP2 MSTORE PUSH1 0x2 PUSH1 0x20 DUP2 SWAP1 MSTORE PUSH1 0x40 SWAP1 SWAP2 KECCAK256 ADD SLOAD PUSH2 0x21F6 SWAP2 PUSH1 0x1 PUSH1 0x1 PUSH1 0xA0 SHL SUB SWAP1 SWAP2 AND SWAP1 DUP8 SWAP1 PUSH2 0x316F JUMP JUMPDEST PUSH1 0x0 DUP9 DUP2 MSTORE PUSH1 0x2 PUSH1 0x20 DUP2 SWAP1 MSTORE PUSH1 0x40 SWAP2 DUP3 SWAP1 KECCAK256 ADD SLOAD PUSH1 0x60 DUP5 ADD MLOAD SWAP2 MLOAD DUP11 SWAP3 PUSH32 0x86A8EDF7AC99098BE3CE56BA76AE3E5A1E212FED5F803FC3167990FA03079B9 SWAP3 PUSH2 0x224D SWAP3 DUP11 SWAP3 PUSH1 0x1 PUSH1 0x1 PUSH1 0xA0 SHL SUB SWAP1 SWAP3 AND SWAP2 SWAP1 PUSH2 0x3EEA JUMP JUMPDEST PUSH1 0x40 MLOAD DUP1 SWAP2 SUB SWAP1 LOG2 JUMPDEST DUP2 MLOAD PUSH1 0x0 DUP10 DUP2 MSTORE PUSH1 0x2 PUSH1 0x20 SWAP1 DUP2 MSTORE PUSH1 0x40 SWAP2 DUP3 SWAP1 KECCAK256 PUSH1 0x1 ADD SLOAD DUP3 DUP7 ADD MLOAD DUP3 DUP8 ADD MLOAD PUSH1 0x60 DUP1 DUP10 ADD MLOAD DUP7 MLOAD SWAP8 DUP9 MSTORE SWAP5 DUP8 ADD DUP15 SWAP1 MSTORE PUSH1 0x1 PUSH1 0x1 PUSH1 0xA0 SHL SUB SWAP1 SWAP4 AND SWAP5 DUP7 ADD SWAP5 SWAP1 SWAP5 MSTORE SWAP1 DUP5 ADD MSTORE PUSH1 0x80 DUP4 ADD SWAP2 SWAP1 SWAP2 MSTORE PUSH1 0xA0 DUP3 ADD MSTORE CALLER SWAP1 DUP10 SWAP1 PUSH32 0x7B072645CE5B6A2FC627A544EDEE544B786747CAFD1BB8F0E3238AA5F2E80646 SWAP1 PUSH1 0xC0 ADD PUSH2 0x18A0 JUMP JUMPDEST PUSH2 0x22EC PUSH2 0x2710 PUSH8 0xDE0B6B3A7640000 PUSH2 0x3EC8 JUMP JUMPDEST DUP2 JUMP JUMPDEST PUSH1 0x0 DUP3 DUP2 MSTORE PUSH1 0x2 PUSH1 0x20 MSTORE PUSH1 0x40 SWAP1 DUP2 SWAP1 KECCAK256 PUSH1 0x1 ADD SLOAD SWAP1 MLOAD PUSH4 0x96FB3EAF PUSH1 0xE0 SHL DUP2 MSTORE CALLER PUSH1 0x4 DUP3 ADD MSTORE DUP4 SWAP2 PUSH1 0x1 PUSH1 0x1 PUSH1 0xA0 SHL SUB AND SWAP1 DUP2 SWAP1 PUSH4 0x96FB3EAF SWAP1 PUSH1 0x24 ADD PUSH1 0x20 PUSH1 0x40 MLOAD DUP1 DUP4 SUB DUP2 DUP7 GAS STATICCALL ISZERO DUP1 ISZERO PUSH2 0x2349 JUMPI RETURNDATASIZE PUSH1 0x0 DUP1 RETURNDATACOPY RETURNDATASIZE PUSH1 0x0 REVERT JUMPDEST POP POP POP POP PUSH1 0x40 MLOAD RETURNDATASIZE PUSH1 0x1F NOT PUSH1 0x1F DUP3 ADD AND DUP3 ADD DUP1 PUSH1 0x40 MSTORE POP DUP2 ADD SWAP1 PUSH2 0x236D SWAP2 SWAP1 PUSH2 0x3F0E JUMP JUMPDEST DUP1 PUSH2 0x2454 JUMPI POP CALLER PUSH1 0x1 PUSH1 0x1 PUSH1 0xA0 SHL SUB AND DUP2 PUSH1 0x1 PUSH1 0x1 PUSH1 0xA0 SHL SUB AND PUSH3 0x7FFB78 PUSH1 0x40 MLOAD DUP2 PUSH4 0xFFFFFFFF AND PUSH1 0xE0 SHL DUP2 MSTORE PUSH1 0x4 ADD PUSH1 0x20 PUSH1 0x40 MLOAD DUP1 DUP4 SUB DUP2 DUP7 GAS STATICCALL ISZERO DUP1 ISZERO PUSH2 0x23BA JUMPI RETURNDATASIZE PUSH1 0x0 DUP1 RETURNDATACOPY RETURNDATASIZE PUSH1 0x0 REVERT JUMPDEST POP POP POP POP PUSH1 0x40 MLOAD RETURNDATASIZE PUSH1 0x1F NOT PUSH1 0x1F DUP3 ADD AND DUP3 ADD DUP1 PUSH1 0x40 MSTORE POP DUP2 ADD SWAP1 PUSH2 0x23DE SWAP2 SWAP1 PUSH2 0x3F2B JUMP JUMPDEST PUSH1 0x40 MLOAD PUSH4 0x31A9108F PUSH1 0xE1 SHL DUP2 MSTORE PUSH1 0x1 PUSH1 0x4 DUP3 ADD MSTORE PUSH1 0x1 PUSH1 0x1 PUSH1 0xA0 SHL SUB SWAP2 SWAP1 SWAP2 AND SWAP1 PUSH4 0x6352211E SWAP1 PUSH1 0x24 ADD PUSH1 0x20 PUSH1 0x40 MLOAD DUP1 DUP4 SUB DUP2 DUP7 GAS STATICCALL ISZERO DUP1 ISZERO PUSH2 0x2425 JUMPI RETURNDATASIZE PUSH1 0x0 DUP1 RETURNDATACOPY RETURNDATASIZE PUSH1 0x0 REVERT JUMPDEST POP POP POP POP PUSH1 0x40 MLOAD RETURNDATASIZE PUSH1 0x1F NOT PUSH1 0x1F DUP3 ADD AND DUP3 ADD DUP1 PUSH1 0x40 MSTORE POP DUP2 ADD SWAP1 PUSH2 0x2449 SWAP2 SWAP1 PUSH2 0x3F2B JUMP JUMPDEST PUSH1 0x1 PUSH1 0x1 PUSH1 0xA0 SHL SUB AND EQ JUMPDEST PUSH2 0x2470 JUMPI PUSH1 0x40 MLOAD PUSH3 0x461BCD PUSH1 0xE5 SHL DUP2 MSTORE PUSH1 0x4 ADD PUSH2 0x688 SWAP1 PUSH2 0x3F48 JUMP JUMPDEST PUSH1 0x0 DUP5 DUP2 MSTORE PUSH1 0x2 PUSH1 0x20 MSTORE PUSH1 0x40 SWAP1 KECCAK256 DUP1 SLOAD PUSH1 0x1 SWAP1 SWAP2 ADD SLOAD PUSH2 0x24A2 SWAP2 PUSH1 0x1 PUSH1 0x1 PUSH1 0xA0 SHL SUB PUSH2 0x100 SWAP1 SWAP2 DIV DUP2 AND SWAP2 AND DUP6 PUSH2 0x32DE JUMP JUMPDEST PUSH1 0x0 DUP6 DUP2 MSTORE PUSH1 0x2 PUSH1 0x20 SWAP1 DUP2 MSTORE PUSH1 0x40 SWAP2 DUP3 SWAP1 KECCAK256 PUSH1 0xC ADD DUP1 SLOAD PUSH1 0xFF NOT AND SWAP4 ISZERO ISZERO SWAP4 SWAP1 SWAP4 OR SWAP1 SWAP3 SSTORE MLOAD DUP5 ISZERO ISZERO DUP2 MSTORE CALLER SWAP2 DUP7 SWAP2 PUSH32 0xE28E899E0F5D6FBA0C8D73D1888083BCC62D4D9806D2E26FCF1F607C3ED52F53 SWAP2 ADD PUSH2 0x1CC7 JUMP JUMPDEST PUSH1 0x0 DUP3 DUP2 MSTORE PUSH1 0x2 PUSH1 0x20 MSTORE PUSH1 0x40 SWAP1 KECCAK256 PUSH1 0x9 ADD SLOAD PUSH1 0x1 PUSH1 0x1 PUSH1 0xA0 SHL SUB AND CALLER EQ PUSH2 0x255B JUMPI PUSH1 0x40 MLOAD PUSH3 0x461BCD PUSH1 0xE5 SHL DUP2 MSTORE PUSH1 0x20 PUSH1 0x4 DUP3 ADD MSTORE PUSH1 0x16 PUSH1 0x24 DUP3 ADD MSTORE PUSH22 0x3737BA1036B0B935B2BA2332B2A1B7B63632B1BA37B9 PUSH1 0x51 SHL PUSH1 0x44 DUP3 ADD MSTORE PUSH1 0x64 ADD PUSH2 0x688 JUMP JUMPDEST PUSH1 0x0 DUP3 DUP2 MSTORE PUSH1 0x2 PUSH1 0x20 MSTORE PUSH1 0x40 SWAP1 DUP2 SWAP1 KECCAK256 PUSH1 0x9 DUP2 ADD DUP1 SLOAD PUSH1 0x1 PUSH1 0x1 PUSH1 0xA0 SHL SUB NOT AND PUSH1 0x1 PUSH1 0x1 PUSH1 0xA0 SHL SUB DUP6 AND OR SWAP1 SSTORE PUSH1 0x8 ADD SLOAD SWAP1 MLOAD DUP4 SWAP2 PUSH32 0x1BF3AF41AF5EF4EA33BBEFFB18ACD246AAE76D6F03BDB54916577C2E1AB03D52 SWAP2 PUSH2 0x25C0 SWAP2 CALLER SWAP2 DUP7 SWAP2 SWAP1 PUSH2 0x3EEA JUMP JUMPDEST PUSH1 0x40 MLOAD DUP1 SWAP2 SUB SWAP1 LOG2 POP POP JUMP JUMPDEST PUSH1 0x0 DUP2 DUP2 MSTORE PUSH1 0x2 PUSH1 0x20 MSTORE PUSH1 0x40 DUP2 KECCAK256 SLOAD PUSH1 0xFF AND PUSH2 0x25EA JUMPI POP PUSH1 0x0 SWAP2 SWAP1 POP JUMP JUMPDEST PUSH1 0x0 DUP3 DUP2 MSTORE PUSH1 0x2 PUSH1 0x20 DUP2 SWAP1 MSTORE PUSH1 0x40 DUP1 DUP4 KECCAK256 SWAP2 DUP3 ADD SLOAD SWAP2 SLOAD SWAP1 MLOAD PUSH4 0x70A08231 PUSH1 0xE0 SHL DUP2 MSTORE PUSH1 0x1 PUSH1 0x1 PUSH1 0xA0 SHL SUB PUSH2 0x100 SWAP1 SWAP3 DIV DUP3 AND PUSH1 0x4 DUP3 ADD MSTORE SWAP2 AND SWAP1 PUSH4 0x70A08231 SWAP1 PUSH1 0x24 ADD PUSH1 0x20 PUSH1 0x40 MLOAD DUP1 DUP4 SUB DUP2 DUP7 GAS STATICCALL ISZERO DUP1 ISZERO PUSH2 0x264B JUMPI RETURNDATASIZE PUSH1 0x0 DUP1 RETURNDATACOPY RETURNDATASIZE PUSH1 0x0 REVERT JUMPDEST POP POP POP POP PUSH1 0x40 MLOAD RETURNDATASIZE PUSH1 0x1F NOT PUSH1 0x1F DUP3 ADD AND DUP3 ADD DUP1 PUSH1 0x40 MSTORE POP DUP2 ADD SWAP1 PUSH2 0x266F SWAP2 SWAP1 PUSH2 0x40B1 JUMP JUMPDEST PUSH1 0x0 DUP5 DUP2 MSTORE PUSH1 0x2 PUSH1 0x20 DUP2 SWAP1 MSTORE PUSH1 0x40 DUP1 DUP4 KECCAK256 SWAP2 DUP3 ADD SLOAD SWAP2 SLOAD SWAP1 MLOAD PUSH4 0x6EB1769F PUSH1 0xE1 SHL DUP2 MSTORE PUSH2 0x100 SWAP1 SWAP2 DIV PUSH1 0x1 PUSH1 0x1 PUSH1 0xA0 SHL SUB SWAP1 DUP2 AND PUSH1 0x4 DUP4 ADD MSTORE ADDRESS PUSH1 0x24 DUP4 ADD MSTORE SWAP4 SWAP5 POP SWAP2 SWAP3 AND SWAP1 PUSH4 0xDD62ED3E SWAP1 PUSH1 0x44 ADD PUSH1 0x20 PUSH1 0x40 MLOAD DUP1 DUP4 SUB DUP2 DUP7 GAS STATICCALL ISZERO DUP1 ISZERO PUSH2 0x26DB JUMPI RETURNDATASIZE PUSH1 0x0 DUP1 RETURNDATACOPY RETURNDATASIZE PUSH1 0x0 REVERT JUMPDEST POP POP POP POP PUSH1 0x40 MLOAD RETURNDATASIZE PUSH1 0x1F NOT PUSH1 0x1F DUP3 ADD AND DUP3 ADD DUP1 PUSH1 0x40 MSTORE POP DUP2 ADD SWAP1 PUSH2 0x26FF SWAP2 SWAP1 PUSH2 0x40B1 JUMP JUMPDEST SWAP1 POP DUP1 DUP3 LT ISZERO PUSH2 0x272D JUMPI PUSH1 0x0 DUP5 DUP2 MSTORE PUSH1 0x2 PUSH1 0x20 MSTORE PUSH1 0x40 SWAP1 KECCAK256 PUSH1 0x7 ADD SLOAD PUSH2 0x2726 SWAP1 DUP4 SWAP1 PUSH2 0x300E JUMP JUMPDEST SWAP3 POP PUSH2 0x274D JUMP JUMPDEST PUSH1 0x0 DUP5 DUP2 MSTORE PUSH1 0x2 PUSH1 0x20 MSTORE PUSH1 0x40 SWAP1 KECCAK256 PUSH1 0x7 ADD SLOAD PUSH2 0x274A SWAP1 DUP3 SWAP1 PUSH2 0x300E JUMP JUMPDEST SWAP3 POP JUMPDEST POP POP SWAP2 SWAP1 POP JUMP JUMPDEST PUSH1 0x0 DUP3 DUP2 MSTORE PUSH1 0x2 PUSH1 0x20 MSTORE PUSH1 0x40 SWAP1 KECCAK256 PUSH1 0x9 ADD SLOAD PUSH1 0x1 PUSH1 0x1 PUSH1 0xA0 SHL SUB AND CALLER EQ PUSH2 0x27B6 JUMPI PUSH1 0x40 MLOAD PUSH3 0x461BCD PUSH1 0xE5 SHL DUP2 MSTORE PUSH1 0x20 PUSH1 0x4 DUP3 ADD MSTORE PUSH1 0x16 PUSH1 0x24 DUP3 ADD MSTORE PUSH22 0x3737BA1036B0B935B2BA2332B2A1B7B63632B1BA37B9 PUSH1 0x51 SHL PUSH1 0x44 DUP3 ADD MSTORE PUSH1 0x64 ADD PUSH2 0x688 JUMP JUMPDEST DUP1 ISZERO DUP1 PUSH2 0x27D6 JUMPI POP PUSH2 0x27D2 PUSH2 0x2710 PUSH8 0xDE0B6B3A7640000 PUSH2 0x3EC8 JUMP JUMPDEST DUP2 LT ISZERO JUMPDEST PUSH2 0x2814 JUMPI PUSH1 0x40 MLOAD PUSH3 0x461BCD PUSH1 0xE5 SHL DUP2 MSTORE PUSH1 0x20 PUSH1 0x4 DUP3 ADD MSTORE PUSH1 0xF PUSH1 0x24 DUP3 ADD MSTORE PUSH15 0x5377617046656520746F6F206C6F77 PUSH1 0x88 SHL PUSH1 0x44 DUP3 ADD MSTORE PUSH1 0x64 ADD PUSH2 0x688 JUMP JUMPDEST PUSH8 0x6F05B59D3B20000 DUP2 GT ISZERO PUSH2 0x285F JUMPI PUSH1 0x40 MLOAD PUSH3 0x461BCD PUSH1 0xE5 SHL DUP2 MSTORE PUSH1 0x20 PUSH1 0x4 DUP3 ADD MSTORE PUSH1 0x10 PUSH1 0x24 DUP3 ADD MSTORE PUSH16 0xA6EEC2E08CCACA40E8DEDE40D0D2CED PUSH1 0x83 SHL PUSH1 0x44 DUP3 ADD MSTORE PUSH1 0x64 ADD PUSH2 0x688 JUMP JUMPDEST PUSH1 0x0 DUP3 DUP2 MSTORE PUSH1 0x2 PUSH1 0x20 MSTORE PUSH1 0x40 SWAP1 DUP2 SWAP1 KECCAK256 PUSH1 0x8 DUP2 ADD DUP4 SWAP1 SSTORE PUSH1 0x9 ADD SLOAD SWAP1 MLOAD DUP4 SWAP2 PUSH32 0x1BF3AF41AF5EF4EA33BBEFFB18ACD246AAE76D6F03BDB54916577C2E1AB03D52 SWAP2 PUSH2 0x25C0 SWAP2 CALLER SWAP2 PUSH1 0x1 PUSH1 0x1 PUSH1 0xA0 SHL SUB SWAP1 SWAP2 AND SWAP1 DUP7 SWAP1 PUSH2 0x3EEA JUMP JUMPDEST PUSH1 0x2 PUSH1 0x0 SLOAD EQ ISZERO PUSH2 0x28DC JUMPI PUSH1 0x40 MLOAD PUSH3 0x461BCD PUSH1 0xE5 SHL DUP2 MSTORE PUSH1 0x4 ADD PUSH2 0x688 SWAP1 PUSH2 0x3FDC JUMP JUMPDEST PUSH1 0x2 PUSH1 0x0 SSTORE PUSH2 0x18E8 DUP2 PUSH2 0x3476 JUMP JUMPDEST PUSH1 0x1 SLOAD PUSH1 0x40 MLOAD PUSH4 0xB8421E2B PUSH1 0xE0 SHL DUP2 MSTORE PUSH1 0x1 PUSH1 0x1 PUSH1 0xA0 SHL SUB DUP4 DUP2 AND PUSH1 0x4 DUP4 ADD MSTORE PUSH1 0x0 SWAP3 AND SWAP1 PUSH4 0xB8421E2B SWAP1 PUSH1 0x24 ADD PUSH1 0x20 PUSH1 0x40 MLOAD DUP1 DUP4 SUB DUP2 DUP7 GAS STATICCALL ISZERO DUP1 ISZERO PUSH2 0x2935 JUMPI RETURNDATASIZE PUSH1 0x0 DUP1 RETURNDATACOPY RETURNDATASIZE PUSH1 0x0 REVERT JUMPDEST POP POP POP POP PUSH1 0x40 MLOAD RETURNDATASIZE PUSH1 0x1F NOT PUSH1 0x1F DUP3 ADD AND DUP3 ADD DUP1 PUSH1 0x40 MSTORE POP DUP2 ADD SWAP1 PUSH2 0x2959 SWAP2 SWAP1 PUSH2 0x40B1 JUMP JUMPDEST SWAP3 SWAP2 POP POP JUMP JUMPDEST PUSH1 0x0 DUP4 DUP2 MSTORE PUSH1 0x2 PUSH1 0x20 MSTORE PUSH1 0x40 DUP2 KECCAK256 SLOAD DUP2 SWAP1 DUP2 SWAP1 DUP2 SWAP1 DUP8 SWAP1 PUSH1 0xFF AND PUSH2 0x2995 JUMPI PUSH1 0x40 MLOAD PUSH3 0x461BCD PUSH1 0xE5 SHL DUP2 MSTORE PUSH1 0x4 ADD PUSH2 0x688 SWAP1 PUSH2 0x3F91 JUMP JUMPDEST PUSH1 0x0 PUSH2 0x29A1 DUP10 DUP10 PUSH2 0x3506 JUMP JUMPDEST PUSH1 0x40 DUP1 MLOAD PUSH1 0x80 DUP2 ADD DUP3 MSTORE PUSH1 0x0 DUP1 DUP3 MSTORE PUSH1 0x20 DUP1 DUP4 ADD DUP3 SWAP1 MSTORE DUP3 DUP5 ADD DUP3 SWAP1 MSTORE PUSH1 0x60 DUP4 ADD DUP3 SWAP1 MSTORE DUP14 DUP3 MSTORE PUSH1 0x2 SWAP1 DUP2 SWAP1 MSTORE SWAP3 DUP2 KECCAK256 SWAP1 SWAP3 ADD SLOAD SWAP3 SWAP4 POP SWAP2 PUSH2 0x29EB SWAP1 PUSH1 0x1 PUSH1 0x1 PUSH1 0xA0 SHL SUB AND PUSH2 0x28EA JUMP JUMPDEST SWAP1 POP DUP1 ISZERO PUSH2 0x2A19 JUMPI PUSH2 0x2A0F PUSH8 0xDE0B6B3A7640000 PUSH2 0x2A09 DUP6 DUP5 PUSH2 0x3575 JUMP JUMPDEST SWAP1 PUSH2 0x3581 JUMP JUMPDEST PUSH1 0x20 DUP4 ADD MSTORE PUSH2 0x2A21 JUMP JUMPDEST PUSH1 0x0 PUSH1 0x20 DUP4 ADD MSTORE JUMPDEST PUSH1 0x0 DUP12 DUP2 MSTORE PUSH1 0x2 PUSH1 0x20 MSTORE PUSH1 0x40 SWAP1 KECCAK256 PUSH1 0x8 ADD SLOAD ISZERO PUSH2 0x2A6D JUMPI PUSH1 0x0 DUP12 DUP2 MSTORE PUSH1 0x2 PUSH1 0x20 MSTORE PUSH1 0x40 SWAP1 KECCAK256 PUSH1 0x8 ADD SLOAD PUSH2 0x2A63 SWAP1 PUSH8 0xDE0B6B3A7640000 SWAP1 PUSH2 0x2A09 SWAP1 DUP7 SWAP1 PUSH2 0x3575 JUMP JUMPDEST PUSH1 0x40 DUP4 ADD MSTORE PUSH2 0x2A75 JUMP JUMPDEST PUSH1 0x0 PUSH1 0x40 DUP4 ADD MSTORE JUMPDEST DUP9 ISZERO PUSH2 0x2A9B JUMPI PUSH2 0x2A91 PUSH8 0xDE0B6B3A7640000 PUSH2 0x2A09 DUP6 DUP13 PUSH2 0x3575 JUMP JUMPDEST PUSH1 0x60 DUP4 ADD MSTORE PUSH2 0x2AA3 JUMP JUMPDEST PUSH1 0x0 PUSH1 0x60 DUP4 ADD MSTORE JUMPDEST PUSH2 0x2ACA DUP3 PUSH1 0x60 ADD MLOAD PUSH2 0x1FC9 DUP5 PUSH1 0x20 ADD MLOAD PUSH2 0x1FC9 DUP7 PUSH1 0x40 ADD MLOAD DUP9 PUSH2 0x31D2 SWAP1 SWAP2 SWAP1 PUSH4 0xFFFFFFFF AND JUMP JUMPDEST DUP1 DUP4 MSTORE PUSH1 0x20 DUP4 ADD MLOAD PUSH1 0x40 DUP5 ADD MLOAD PUSH1 0x60 SWAP1 SWAP5 ADD MLOAD SWAP2 SWAP14 SWAP1 SWAP13 POP SWAP3 SWAP11 POP SWAP9 POP SWAP1 SWAP7 POP POP POP POP POP POP POP JUMP JUMPDEST PUSH1 0x2 PUSH1 0x0 SLOAD EQ ISZERO PUSH2 0x2B15 JUMPI PUSH1 0x40 MLOAD PUSH3 0x461BCD PUSH1 0xE5 SHL DUP2 MSTORE PUSH1 0x4 ADD PUSH2 0x688 SWAP1 PUSH2 0x3FDC JUMP JUMPDEST PUSH1 0x2 PUSH1 0x0 SSTORE PUSH2 0x2B24 DUP3 DUP3 PUSH2 0x358D JUMP JUMPDEST POP POP PUSH1 0x1 PUSH1 0x0 SSTORE JUMP JUMPDEST PUSH1 0x0 DUP2 DUP2 MSTORE PUSH1 0x2 PUSH1 0x20 MSTORE PUSH1 0x40 DUP2 KECCAK256 SLOAD PUSH1 0xFF AND PUSH2 0x2B4B JUMPI POP PUSH1 0x0 SWAP2 SWAP1 POP JUMP JUMPDEST PUSH1 0x0 DUP3 DUP2 MSTORE PUSH1 0x2 PUSH1 0x20 MSTORE PUSH1 0x40 SWAP1 KECCAK256 PUSH1 0xC ADD SLOAD PUSH1 0xFF AND DUP1 ISZERO PUSH2 0x2BE3 JUMPI POP PUSH1 0x0 DUP3 DUP2 MSTORE PUSH1 0x2 PUSH1 0x20 MSTORE PUSH1 0x40 SWAP1 DUP2 SWAP1 KECCAK256 PUSH1 0x1 ADD SLOAD SWAP1 MLOAD PUSH4 0x55138F0D PUSH1 0xE1 SHL DUP2 MSTORE ADDRESS PUSH1 0x4 DUP3 ADD MSTORE PUSH1 0x1 PUSH1 0x1 PUSH1 0xA0 SHL SUB SWAP1 SWAP2 AND SWAP1 PUSH4 0xAA271E1A SWAP1 PUSH1 0x24 ADD PUSH1 0x20 PUSH1 0x40 MLOAD DUP1 DUP4 SUB DUP2 DUP7 GAS STATICCALL ISZERO DUP1 ISZERO PUSH2 0x2BBF JUMPI RETURNDATASIZE PUSH1 0x0 DUP1 RETURNDATACOPY RETURNDATASIZE PUSH1 0x0 REVERT JUMPDEST POP POP POP POP PUSH1 0x40 MLOAD RETURNDATASIZE PUSH1 0x1F NOT PUSH1 0x1F DUP3 ADD AND DUP3 ADD DUP1 PUSH1 0x40 MSTORE POP DUP2 ADD SWAP1 PUSH2 0x2BE3 SWAP2 SWAP1 PUSH2 0x3F0E JUMP JUMPDEST ISZERO PUSH2 0x2CE8 JUMPI PUSH1 0x0 DUP3 DUP2 MSTORE PUSH1 0x2 PUSH1 0x20 SWAP1 DUP2 MSTORE PUSH1 0x40 SWAP2 DUP3 SWAP1 KECCAK256 PUSH1 0x1 ADD SLOAD DUP3 MLOAD PUSH4 0x18160DDD PUSH1 0xE0 SHL DUP2 MSTORE SWAP3 MLOAD PUSH1 0x1 PUSH1 0x1 PUSH1 0xA0 SHL SUB SWAP1 SWAP2 AND SWAP3 PUSH4 0x18160DDD SWAP3 PUSH1 0x4 DUP1 DUP4 ADD SWAP4 SWAP2 SWAP3 DUP3 SWAP1 SUB ADD DUP2 DUP7 GAS STATICCALL ISZERO DUP1 ISZERO PUSH2 0x2C3F JUMPI RETURNDATASIZE PUSH1 0x0 DUP1 RETURNDATACOPY RETURNDATASIZE PUSH1 0x0 REVERT JUMPDEST POP POP POP POP PUSH1 0x40 MLOAD RETURNDATASIZE PUSH1 0x1F NOT PUSH1 0x1F DUP3 ADD AND DUP3 ADD DUP1 PUSH1 0x40 MSTORE POP DUP2 ADD SWAP1 PUSH2 0x2C63 SWAP2 SWAP1 PUSH2 0x40B1 JUMP JUMPDEST PUSH1 0x0 DUP4 DUP2 MSTORE PUSH1 0x2 PUSH1 0x20 SWAP1 DUP2 MSTORE PUSH1 0x40 SWAP2 DUP3 SWAP1 KECCAK256 PUSH1 0x1 ADD SLOAD DUP3 MLOAD PUSH4 0x1AA93A75 PUSH1 0xE1 SHL DUP2 MSTORE SWAP3 MLOAD PUSH1 0x1 PUSH1 0x1 PUSH1 0xA0 SHL SUB SWAP1 SWAP2 AND SWAP3 PUSH4 0x355274EA SWAP3 PUSH1 0x4 DUP1 DUP4 ADD SWAP4 SWAP2 SWAP3 DUP3 SWAP1 SUB ADD DUP2 DUP7 GAS STATICCALL ISZERO DUP1 ISZERO PUSH2 0x2CBA JUMPI RETURNDATASIZE PUSH1 0x0 DUP1 RETURNDATACOPY RETURNDATASIZE PUSH1 0x0 REVERT JUMPDEST POP POP POP POP PUSH1 0x40 MLOAD RETURNDATASIZE PUSH1 0x1F NOT PUSH1 0x1F DUP3 ADD AND DUP3 ADD DUP1 PUSH1 0x40 MSTORE POP DUP2 ADD SWAP1 PUSH2 0x2CDE SWAP2 SWAP1 PUSH2 0x40B1 JUMP JUMPDEST PUSH2 0x2959 SWAP2 SWAP1 PUSH2 0x40CA JUMP JUMPDEST PUSH1 0x0 DUP3 DUP2 MSTORE PUSH1 0x2 PUSH1 0x20 MSTORE PUSH1 0x40 DUP1 DUP3 KECCAK256 PUSH1 0x1 DUP2 ADD SLOAD SWAP1 SLOAD SWAP2 MLOAD PUSH4 0x70A08231 PUSH1 0xE0 SHL DUP2 MSTORE PUSH2 0x100 SWAP1 SWAP3 DIV PUSH1 0x1 PUSH1 0x1 PUSH1 0xA0 SHL SUB SWAP1 DUP2 AND PUSH1 0x4 DUP5 ADD MSTORE AND SWAP1 PUSH4 0x70A08231 SWAP1 PUSH1 0x24 ADD PUSH1 0x20 PUSH1 0x40 MLOAD DUP1 DUP4 SUB DUP2 DUP7 GAS STATICCALL ISZERO DUP1 ISZERO PUSH2 0x2D48 JUMPI RETURNDATASIZE PUSH1 0x0 DUP1 RETURNDATACOPY RETURNDATASIZE PUSH1 0x0 REVERT JUMPDEST POP POP POP POP PUSH1 0x40 MLOAD RETURNDATASIZE PUSH1 0x1F NOT PUSH1 0x1F DUP3 ADD AND DUP3 ADD DUP1 PUSH1 0x40 MSTORE POP DUP2 ADD SWAP1 PUSH2 0x2D6C SWAP2 SWAP1 PUSH2 0x40B1 JUMP JUMPDEST PUSH1 0x0 DUP5 DUP2 MSTORE PUSH1 0x2 PUSH1 0x20 MSTORE PUSH1 0x40 DUP1 DUP3 KECCAK256 PUSH1 0x1 DUP2 ADD SLOAD SWAP1 SLOAD SWAP2 MLOAD PUSH4 0x6EB1769F PUSH1 0xE1 SHL DUP2 MSTORE PUSH1 0x1 PUSH1 0x1 PUSH1 0xA0 SHL SUB PUSH2 0x100 SWAP1 SWAP4 DIV DUP4 AND PUSH1 0x4 DUP3 ADD MSTORE ADDRESS PUSH1 0x24 DUP3 ADD MSTORE SWAP4 SWAP5 POP SWAP2 SWAP3 SWAP2 AND SWAP1 PUSH4 0xDD62ED3E SWAP1 PUSH1 0x44 ADD PUSH1 0x20 PUSH1 0x40 MLOAD DUP1 DUP4 SUB DUP2 DUP7 GAS STATICCALL ISZERO DUP1 ISZERO PUSH2 0x2DD7 JUMPI RETURNDATASIZE PUSH1 0x0 DUP1 RETURNDATACOPY RETURNDATASIZE PUSH1 0x0 REVERT JUMPDEST POP POP POP POP PUSH1 0x40 MLOAD RETURNDATASIZE PUSH1 0x1F NOT PUSH1 0x1F DUP3 ADD AND DUP3 ADD DUP1 PUSH1 0x40 MSTORE POP DUP2 ADD SWAP1 PUSH2 0x2DFB SWAP2 SWAP1 PUSH2 0x40B1 JUMP JUMPDEST SWAP1 POP DUP1 DUP3 LT ISZERO PUSH2 0x2E22 JUMPI PUSH1 0x0 DUP5 DUP2 MSTORE PUSH1 0x2 PUSH1 0x20 MSTORE PUSH1 0x40 SWAP1 KECCAK256 PUSH1 0x6 ADD SLOAD PUSH2 0x2726 SWAP1 DUP4 SWAP1 PUSH2 0x300E JUMP JUMPDEST PUSH1 0x0 DUP5 DUP2 MSTORE PUSH1 0x2 PUSH1 0x20 MSTORE PUSH1 0x40 SWAP1 KECCAK256 PUSH1 0x6 ADD SLOAD PUSH2 0x274A SWAP1 DUP3 SWAP1 PUSH2 0x300E JUMP JUMPDEST PUSH1 0x0 DUP4 DUP2 MSTORE PUSH1 0x2 PUSH1 0x20 MSTORE PUSH1 0x40 DUP2 KECCAK256 SLOAD DUP2 SWAP1 DUP2 SWAP1 DUP2 SWAP1 DUP8 SWAP1 PUSH1 0xFF AND PUSH2 0x2E75 JUMPI PUSH1 0x40 MLOAD PUSH3 0x461BCD PUSH1 0xE5 SHL DUP2 MSTORE PUSH1 0x4 ADD PUSH2 0x688 SWAP1 PUSH2 0x3F91 JUMP JUMPDEST PUSH1 0x0 PUSH2 0x2E81 DUP10 DUP10 PUSH2 0x3506 JUMP JUMPDEST PUSH1 0x40 DUP1 MLOAD PUSH1 0x80 DUP2 ADD DUP3 MSTORE PUSH1 0x0 DUP1 DUP3 MSTORE PUSH1 0x20 DUP1 DUP4 ADD DUP3 SWAP1 MSTORE DUP3 DUP5 ADD DUP3 SWAP1 MSTORE PUSH1 0x60 DUP4 ADD DUP3 SWAP1 MSTORE DUP14 DUP3 MSTORE PUSH1 0x2 SWAP1 DUP2 SWAP1 MSTORE SWAP3 DUP2 KECCAK256 SWAP1 SWAP3 ADD SLOAD SWAP3 SWAP4 POP SWAP2 PUSH2 0x2ECB SWAP1 PUSH1 0x1 PUSH1 0x1 PUSH1 0xA0 SHL SUB AND PUSH2 0x28EA JUMP JUMPDEST SWAP1 POP DUP1 ISZERO PUSH2 0x2EF3 JUMPI PUSH2 0x2EE9 PUSH8 0xDE0B6B3A7640000 PUSH2 0x2A09 DUP6 DUP5 PUSH2 0x3575 JUMP JUMPDEST PUSH1 0x20 DUP4 ADD MSTORE PUSH2 0x2EFB JUMP JUMPDEST PUSH1 0x0 PUSH1 0x20 DUP4 ADD MSTORE JUMPDEST PUSH1 0x0 DUP12 DUP2 MSTORE PUSH1 0x2 PUSH1 0x20 MSTORE PUSH1 0x40 SWAP1 KECCAK256 PUSH1 0x8 ADD SLOAD ISZERO PUSH2 0x2F47 JUMPI PUSH1 0x0 DUP12 DUP2 MSTORE PUSH1 0x2 PUSH1 0x20 MSTORE PUSH1 0x40 SWAP1 KECCAK256 PUSH1 0x8 ADD SLOAD PUSH2 0x2F3D SWAP1 PUSH8 0xDE0B6B3A7640000 SWAP1 PUSH2 0x2A09 SWAP1 DUP7 SWAP1 PUSH2 0x3575 JUMP JUMPDEST PUSH1 0x40 DUP4 ADD MSTORE PUSH2 0x2F4F JUMP JUMPDEST PUSH1 0x0 PUSH1 0x40 DUP4 ADD MSTORE JUMPDEST DUP9 ISZERO PUSH2 0x2F75 JUMPI PUSH2 0x2F6B PUSH8 0xDE0B6B3A7640000 PUSH2 0x2A09 DUP6 DUP13 PUSH2 0x3575 JUMP JUMPDEST PUSH1 0x60 DUP4 ADD MSTORE PUSH2 0x2F7D JUMP JUMPDEST PUSH1 0x0 PUSH1 0x60 DUP4 ADD MSTORE JUMPDEST PUSH2 0x2ACA DUP3 PUSH1 0x60 ADD MLOAD PUSH2 0x164F DUP5 PUSH1 0x20 ADD MLOAD PUSH2 0x164F DUP7 PUSH1 0x40 ADD MLOAD DUP9 PUSH2 0x300E SWAP1 SWAP2 SWAP1 PUSH4 0xFFFFFFFF AND JUMP JUMPDEST PUSH1 0x40 DUP1 MLOAD PUSH1 0x1 PUSH1 0x1 PUSH1 0xA0 SHL SUB SWAP4 DUP5 AND PUSH1 0x20 DUP1 DUP4 ADD SWAP2 SWAP1 SWAP2 MSTORE SWAP3 SWAP1 SWAP4 AND DUP4 DUP3 ADD MSTORE DUP1 MLOAD DUP1 DUP5 SUB DUP3 ADD DUP2 MSTORE PUSH1 0x60 SWAP1 SWAP4 ADD SWAP1 MSTORE DUP2 MLOAD SWAP2 ADD KECCAK256 SWAP1 JUMP JUMPDEST PUSH1 0x2 PUSH1 0x0 SLOAD EQ ISZERO PUSH2 0x2FFF JUMPI PUSH1 0x40 MLOAD PUSH3 0x461BCD PUSH1 0xE5 SHL DUP2 MSTORE PUSH1 0x4 ADD PUSH2 0x688 SWAP1 PUSH2 0x3FDC JUMP JUMPDEST PUSH1 0x2 PUSH1 0x0 SSTORE PUSH2 0x2B24 DUP3 DUP3 PUSH2 0x3706 JUMP JUMPDEST PUSH1 0x0 PUSH2 0x301A DUP3 DUP5 PUSH2 0x40E1 JUMP JUMPDEST SWAP4 SWAP3 POP POP POP JUMP JUMPDEST PUSH1 0x40 MLOAD PUSH4 0x70A08231 PUSH1 0xE0 SHL DUP2 MSTORE PUSH1 0x1 PUSH1 0x1 PUSH1 0xA0 SHL SUB DUP4 DUP2 AND PUSH1 0x4 DUP4 ADD MSTORE PUSH1 0x0 SWAP2 SWAP1 DUP7 AND SWAP1 PUSH4 0x70A08231 SWAP1 PUSH1 0x24 ADD PUSH1 0x20 PUSH1 0x40 MLOAD DUP1 DUP4 SUB DUP2 DUP7 GAS STATICCALL ISZERO DUP1 ISZERO PUSH2 0x306B JUMPI RETURNDATASIZE PUSH1 0x0 DUP1 RETURNDATACOPY RETURNDATASIZE PUSH1 0x0 REVERT JUMPDEST POP POP POP POP PUSH1 0x40 MLOAD RETURNDATASIZE PUSH1 0x1F NOT PUSH1 0x1F DUP3 ADD AND DUP3 ADD DUP1 PUSH1 0x40 MSTORE POP DUP2 ADD SWAP1 PUSH2 0x308F SWAP2 SWAP1 PUSH2 0x40B1 JUMP JUMPDEST SWAP1 POP PUSH2 0x30A6 PUSH1 0x1 PUSH1 0x1 PUSH1 0xA0 SHL SUB DUP7 AND DUP6 DUP6 DUP6 PUSH2 0x3877 JUMP JUMPDEST PUSH2 0x30B0 DUP2 DUP4 PUSH2 0x300E JUMP JUMPDEST PUSH1 0x40 MLOAD PUSH4 0x70A08231 PUSH1 0xE0 SHL DUP2 MSTORE PUSH1 0x1 PUSH1 0x1 PUSH1 0xA0 SHL SUB DUP6 DUP2 AND PUSH1 0x4 DUP4 ADD MSTORE DUP8 AND SWAP1 PUSH4 0x70A08231 SWAP1 PUSH1 0x24 ADD PUSH1 0x20 PUSH1 0x40 MLOAD DUP1 DUP4 SUB DUP2 DUP7 GAS STATICCALL ISZERO DUP1 ISZERO PUSH2 0x30F6 JUMPI RETURNDATASIZE PUSH1 0x0 DUP1 RETURNDATACOPY RETURNDATASIZE PUSH1 0x0 REVERT JUMPDEST POP POP POP POP PUSH1 0x40 MLOAD RETURNDATASIZE PUSH1 0x1F NOT PUSH1 0x1F DUP3 ADD AND DUP3 ADD DUP1 PUSH1 0x40 MSTORE POP DUP2 ADD SWAP1 PUSH2 0x311A SWAP2 SWAP1 PUSH2 0x40B1 JUMP JUMPDEST LT ISZERO PUSH2 0x3168 JUMPI PUSH1 0x40 MLOAD PUSH3 0x461BCD PUSH1 0xE5 SHL DUP2 MSTORE PUSH1 0x20 PUSH1 0x4 DUP3 ADD MSTORE PUSH1 0x1A PUSH1 0x24 DUP3 ADD MSTORE PUSH32 0x5472616E7366657220616D6F756E7420697320746F6F206C6F77000000000000 PUSH1 0x44 DUP3 ADD MSTORE PUSH1 0x64 ADD PUSH2 0x688 JUMP JUMPDEST POP POP POP POP POP JUMP JUMPDEST PUSH1 0x40 MLOAD PUSH1 0x1 PUSH1 0x1 PUSH1 0xA0 SHL SUB DUP4 AND PUSH1 0x24 DUP3 ADD MSTORE PUSH1 0x44 DUP2 ADD DUP3 SWAP1 MSTORE PUSH2 0x12D4 SWAP1 DUP5 SWAP1 PUSH4 0xA9059CBB PUSH1 0xE0 SHL SWAP1 PUSH1 0x64 ADD JUMPDEST PUSH1 0x40 DUP1 MLOAD PUSH1 0x1F NOT DUP2 DUP5 SUB ADD DUP2 MSTORE SWAP2 SWAP1 MSTORE PUSH1 0x20 DUP2 ADD DUP1 MLOAD PUSH1 0x1 PUSH1 0x1 PUSH1 0xE0 SHL SUB AND PUSH1 0x1 PUSH1 0x1 PUSH1 0xE0 SHL SUB NOT SWAP1 SWAP4 AND SWAP3 SWAP1 SWAP3 OR SWAP1 SWAP2 MSTORE PUSH2 0x389E JUMP JUMPDEST PUSH1 0x0 PUSH2 0x301A DUP3 DUP5 PUSH2 0x40CA JUMP JUMPDEST PUSH1 0x0 DUP2 DUP2 MSTORE PUSH1 0x2 PUSH1 0x20 SWAP1 DUP2 MSTORE PUSH1 0x40 DUP1 DUP4 KECCAK256 PUSH1 0xB ADD DUP1 SLOAD SWAP4 SWAP1 SSTORE PUSH1 0x1 SLOAD DUP2 MLOAD PUSH4 0x1A81876D PUSH1 0xE0 SHL DUP2 MSTORE SWAP2 MLOAD PUSH2 0x3286 SWAP4 PUSH1 0x1 PUSH1 0x1 PUSH1 0xA0 SHL SUB SWAP1 SWAP3 AND SWAP3 PUSH4 0x1A81876D SWAP3 PUSH1 0x4 DUP1 DUP4 ADD SWAP4 SWAP2 SWAP3 DUP3 SWAP1 SUB ADD DUP2 DUP7 GAS STATICCALL ISZERO DUP1 ISZERO PUSH2 0x323F JUMPI RETURNDATASIZE PUSH1 0x0 DUP1 RETURNDATACOPY RETURNDATASIZE PUSH1 0x0 REVERT JUMPDEST POP POP POP POP PUSH1 0x40 MLOAD RETURNDATASIZE PUSH1 0x1F NOT PUSH1 0x1F DUP3 ADD AND DUP3 ADD DUP1 PUSH1 0x40 MSTORE POP DUP2 ADD SWAP1 PUSH2 0x3263 SWAP2 SWAP1 PUSH2 0x3F2B JUMP JUMPDEST PUSH1 0x0 DUP5 DUP2 MSTORE PUSH1 0x2 PUSH1 0x20 DUP2 SWAP1 MSTORE PUSH1 0x40 SWAP1 SWAP2 KECCAK256 ADD SLOAD PUSH1 0x1 PUSH1 0x1 PUSH1 0xA0 SHL SUB AND SWAP1 DUP4 PUSH2 0x316F JUMP JUMPDEST PUSH1 0x0 DUP3 DUP2 MSTORE PUSH1 0x2 PUSH1 0x20 DUP2 DUP2 MSTORE PUSH1 0x40 SWAP3 DUP4 SWAP1 KECCAK256 SWAP1 SWAP2 ADD SLOAD SWAP2 MLOAD DUP4 DUP2 MSTORE PUSH1 0x1 PUSH1 0x1 PUSH1 0xA0 SHL SUB SWAP1 SWAP3 AND SWAP2 DUP5 SWAP2 PUSH32 0x457B44FD47C33FC65BFBD58D0202AD97FBED1BBC9881F56441D05FE9EBD58ACF SWAP2 ADD PUSH1 0x40 MLOAD DUP1 SWAP2 SUB SWAP1 LOG3 POP POP JUMP JUMPDEST PUSH1 0x0 DUP2 PUSH2 0x32ED JUMPI POP PUSH1 0x0 PUSH2 0x301A JUMP JUMPDEST PUSH1 0x0 DUP4 PUSH1 0x1 PUSH1 0x1 PUSH1 0xA0 SHL SUB AND PUSH3 0x7FFB78 PUSH1 0x40 MLOAD DUP2 PUSH4 0xFFFFFFFF AND PUSH1 0xE0 SHL DUP2 MSTORE PUSH1 0x4 ADD PUSH1 0x20 PUSH1 0x40 MLOAD DUP1 DUP4 SUB DUP2 DUP7 GAS STATICCALL ISZERO DUP1 ISZERO PUSH2 0x332C JUMPI RETURNDATASIZE PUSH1 0x0 DUP1 RETURNDATACOPY RETURNDATASIZE PUSH1 0x0 REVERT JUMPDEST POP POP POP POP PUSH1 0x40 MLOAD RETURNDATASIZE PUSH1 0x1F NOT PUSH1 0x1F DUP3 ADD AND DUP3 ADD DUP1 PUSH1 0x40 MSTORE POP DUP2 ADD SWAP1 PUSH2 0x3350 SWAP2 SWAP1 PUSH2 0x3F2B JUMP JUMPDEST PUSH1 0x40 MLOAD PUSH4 0x160A7925 PUSH1 0xE0 SHL DUP2 MSTORE PUSH1 0x1 PUSH1 0x1 PUSH1 0xA0 SHL SUB DUP8 DUP2 AND PUSH1 0x4 DUP4 ADD MSTORE SWAP2 SWAP3 POP PUSH1 0x0 SWAP2 DUP4 AND SWAP1 PUSH4 0x160A7925 SWAP1 PUSH1 0x24 ADD PUSH1 0x80 PUSH1 0x40 MLOAD DUP1 DUP4 SUB DUP2 DUP7 GAS STATICCALL ISZERO DUP1 ISZERO PUSH2 0x339C JUMPI RETURNDATASIZE PUSH1 0x0 DUP1 RETURNDATACOPY RETURNDATASIZE PUSH1 0x0 REVERT JUMPDEST POP POP POP POP PUSH1 0x40 MLOAD RETURNDATASIZE PUSH1 0x1F NOT PUSH1 0x1F DUP3 ADD AND DUP3 ADD DUP1 PUSH1 0x40 MSTORE POP DUP2 ADD SWAP1 PUSH2 0x33C0 SWAP2 SWAP1 PUSH2 0x40F9 JUMP JUMPDEST DUP1 MLOAD SWAP1 SWAP2 POP ISZERO ISZERO PUSH1 0x1 EQ DUP1 PUSH2 0x33DB JUMPI POP PUSH1 0x20 DUP2 ADD MLOAD ISZERO ISZERO PUSH1 0x1 EQ JUMPDEST DUP1 PUSH2 0x345A JUMPI POP PUSH1 0x40 MLOAD PUSH4 0x31A9108F PUSH1 0xE1 SHL DUP2 MSTORE PUSH1 0x1 PUSH1 0x4 DUP3 ADD MSTORE PUSH1 0x1 PUSH1 0x1 PUSH1 0xA0 SHL SUB DUP1 DUP9 AND SWAP2 SWAP1 DUP5 AND SWAP1 PUSH4 0x6352211E SWAP1 PUSH1 0x24 ADD PUSH1 0x20 PUSH1 0x40 MLOAD DUP1 DUP4 SUB DUP2 DUP7 GAS STATICCALL ISZERO DUP1 ISZERO PUSH2 0x342B JUMPI RETURNDATASIZE PUSH1 0x0 DUP1 RETURNDATACOPY RETURNDATASIZE PUSH1 0x0 REVERT JUMPDEST POP POP POP POP PUSH1 0x40 MLOAD RETURNDATASIZE PUSH1 0x1F NOT PUSH1 0x1F DUP3 ADD AND DUP3 ADD DUP1 PUSH1 0x40 MSTORE POP DUP2 ADD SWAP1 PUSH2 0x344F SWAP2 SWAP1 PUSH2 0x3F2B JUMP JUMPDEST PUSH1 0x1 PUSH1 0x1 PUSH1 0xA0 SHL SUB AND EQ JUMPDEST ISZERO PUSH2 0x346A JUMPI PUSH1 0x1 SWAP3 POP POP POP PUSH2 0x301A JUMP JUMPDEST POP PUSH1 0x0 SWAP6 SWAP5 POP POP POP POP POP JUMP JUMPDEST PUSH1 0x0 DUP2 DUP2 MSTORE PUSH1 0x2 PUSH1 0x20 DUP2 DUP2 MSTORE PUSH1 0x40 DUP1 DUP5 KECCAK256 PUSH1 0xA DUP2 ADD DUP1 SLOAD SWAP6 SWAP1 SSTORE SWAP1 SWAP3 ADD SLOAD SWAP2 MLOAD DUP4 DUP2 MSTORE PUSH1 0x1 PUSH1 0x1 PUSH1 0xA0 SHL SUB SWAP1 SWAP3 AND SWAP2 DUP5 SWAP2 PUSH32 0x192A3CD95E40313E0E12C28B398E31633936E38D134419161F883C8D64079055 SWAP2 ADD PUSH1 0x40 MLOAD DUP1 SWAP2 SUB SWAP1 LOG3 PUSH1 0x0 DUP3 DUP2 MSTORE PUSH1 0x2 PUSH1 0x20 DUP2 SWAP1 MSTORE PUSH1 0x40 SWAP1 SWAP2 KECCAK256 PUSH1 0x9 DUP2 ADD SLOAD SWAP2 ADD SLOAD PUSH2 0x3502 SWAP2 PUSH1 0x1 PUSH1 0x1 PUSH1 0xA0 SHL SUB SWAP2 DUP3 AND SWAP2 AND DUP4 PUSH2 0x316F JUMP JUMPDEST POP POP JUMP JUMPDEST PUSH1 0x0 DUP3 DUP2 MSTORE PUSH1 0x2 PUSH1 0x20 MSTORE PUSH1 0x40 DUP2 KECCAK256 PUSH1 0x4 ADD SLOAD PUSH2 0x301A SWAP1 PUSH8 0xDE0B6B3A7640000 SWAP1 PUSH2 0x2A09 SWAP1 PUSH2 0x3535 SWAP1 PUSH1 0xA PUSH2 0x4262 JUMP JUMPDEST PUSH1 0x0 DUP8 DUP2 MSTORE PUSH1 0x2 PUSH1 0x20 MSTORE PUSH1 0x40 SWAP1 KECCAK256 PUSH1 0x5 ADD SLOAD PUSH2 0x2A09 SWAP1 PUSH2 0x3556 SWAP1 PUSH1 0xA PUSH2 0x4262 JUMP JUMPDEST PUSH1 0x0 DUP10 DUP2 MSTORE PUSH1 0x2 PUSH1 0x20 MSTORE PUSH1 0x40 SWAP1 KECCAK256 PUSH1 0x3 ADD SLOAD PUSH2 0x3573 SWAP1 DUP10 SWAP1 PUSH2 0x3575 JUMP JUMPDEST SWAP1 JUMPDEST PUSH1 0x0 PUSH2 0x301A DUP3 DUP5 PUSH2 0x426E JUMP JUMPDEST PUSH1 0x0 PUSH2 0x301A DUP3 DUP5 PUSH2 0x3EC8 JUMP JUMPDEST PUSH1 0x0 DUP3 DUP2 MSTORE PUSH1 0x2 PUSH1 0x20 MSTORE PUSH1 0x40 SWAP1 KECCAK256 PUSH1 0x6 ADD SLOAD DUP2 GT ISZERO PUSH2 0x35E0 JUMPI PUSH1 0x40 MLOAD PUSH3 0x461BCD PUSH1 0xE5 SHL DUP2 MSTORE PUSH1 0x20 PUSH1 0x4 DUP3 ADD MSTORE PUSH1 0xF PUSH1 0x24 DUP3 ADD MSTORE PUSH15 0x82DADEEADCE840E8DEDE40D0D2CED PUSH1 0x8B SHL PUSH1 0x44 DUP3 ADD MSTORE PUSH1 0x64 ADD PUSH2 0x688 JUMP JUMPDEST PUSH1 0x0 DUP3 DUP2 MSTORE PUSH1 0x2 PUSH1 0x20 SWAP1 DUP2 MSTORE PUSH1 0x40 DUP1 DUP4 KECCAK256 PUSH1 0x1 ADD SLOAD DUP2 MLOAD PUSH4 0x1C90F85D PUSH1 0xE3 SHL DUP2 MSTORE SWAP2 MLOAD PUSH1 0x1 PUSH1 0x1 PUSH1 0xA0 SHL SUB SWAP1 SWAP2 AND SWAP3 PUSH4 0xE487C2E8 SWAP3 PUSH1 0x4 DUP1 DUP3 ADD SWAP4 SWAP2 DUP3 SWAP1 SUB ADD DUP2 DUP7 GAS STATICCALL ISZERO DUP1 ISZERO PUSH2 0x3635 JUMPI RETURNDATASIZE PUSH1 0x0 DUP1 RETURNDATACOPY RETURNDATASIZE PUSH1 0x0 REVERT JUMPDEST POP POP POP POP PUSH1 0x40 MLOAD RETURNDATASIZE PUSH1 0x1F NOT PUSH1 0x1F DUP3 ADD AND DUP3 ADD DUP1 PUSH1 0x40 MSTORE POP DUP2 ADD SWAP1 PUSH2 0x3659 SWAP2 SWAP1 PUSH2 0x3F2B JUMP JUMPDEST PUSH1 0x0 DUP5 DUP2 MSTORE PUSH1 0x2 PUSH1 0x20 MSTORE PUSH1 0x40 SWAP1 KECCAK256 PUSH1 0x6 ADD SLOAD SWAP1 SWAP2 POP PUSH2 0x3678 SWAP1 DUP4 PUSH2 0x31D2 JUMP JUMPDEST PUSH1 0x0 DUP5 DUP2 MSTORE PUSH1 0x2 PUSH1 0x20 MSTORE PUSH1 0x40 SWAP1 DUP2 SWAP1 KECCAK256 PUSH1 0x6 DUP2 ADD SWAP3 SWAP1 SWAP3 SSTORE PUSH1 0x1 SWAP1 SWAP2 ADD SLOAD SWAP1 MLOAD PUSH1 0x1 PUSH1 0x1 PUSH1 0xA0 SHL SUB SWAP2 DUP3 AND SWAP2 DUP4 AND SWAP1 DUP6 SWAP1 PUSH32 0xECC75F4464886BEE0A1C5EAE61C0CB4B99C64C5E9CDEBE3696217D266F8B1636 SWAP1 PUSH2 0x36D8 SWAP1 DUP8 DUP2 MSTORE PUSH1 0x20 ADD SWAP1 JUMP JUMPDEST PUSH1 0x40 MLOAD DUP1 SWAP2 SUB SWAP1 LOG4 PUSH1 0x0 DUP4 DUP2 MSTORE PUSH1 0x2 PUSH1 0x20 MSTORE PUSH1 0x40 SWAP1 KECCAK256 PUSH1 0x1 ADD SLOAD PUSH2 0x12D4 SWAP1 PUSH1 0x1 PUSH1 0x1 PUSH1 0xA0 SHL SUB AND DUP3 DUP5 PUSH2 0x316F JUMP JUMPDEST PUSH1 0x0 DUP3 DUP2 MSTORE PUSH1 0x2 PUSH1 0x20 MSTORE PUSH1 0x40 SWAP1 KECCAK256 PUSH1 0x7 ADD SLOAD DUP2 GT ISZERO PUSH2 0x3759 JUMPI PUSH1 0x40 MLOAD PUSH3 0x461BCD PUSH1 0xE5 SHL DUP2 MSTORE PUSH1 0x20 PUSH1 0x4 DUP3 ADD MSTORE PUSH1 0xF PUSH1 0x24 DUP3 ADD MSTORE PUSH15 0x82DADEEADCE840E8DEDE40D0D2CED PUSH1 0x8B SHL PUSH1 0x44 DUP3 ADD MSTORE PUSH1 0x64 ADD PUSH2 0x688 JUMP JUMPDEST PUSH1 0x0 DUP3 DUP2 MSTORE PUSH1 0x2 PUSH1 0x20 SWAP1 DUP2 MSTORE PUSH1 0x40 DUP1 DUP4 KECCAK256 PUSH1 0x1 ADD SLOAD DUP2 MLOAD PUSH4 0x1C90F85D PUSH1 0xE3 SHL DUP2 MSTORE SWAP2 MLOAD PUSH1 0x1 PUSH1 0x1 PUSH1 0xA0 SHL SUB SWAP1 SWAP2 AND SWAP3 PUSH4 0xE487C2E8 SWAP3 PUSH1 0x4 DUP1 DUP3 ADD SWAP4 SWAP2 DUP3 SWAP1 SUB ADD DUP2 DUP7 GAS STATICCALL ISZERO DUP1 ISZERO PUSH2 0x37AE JUMPI RETURNDATASIZE PUSH1 0x0 DUP1 RETURNDATACOPY RETURNDATASIZE PUSH1 0x0 REVERT JUMPDEST POP POP POP POP PUSH1 0x40 MLOAD RETURNDATASIZE PUSH1 0x1F NOT PUSH1 0x1F DUP3 ADD AND DUP3 ADD DUP1 PUSH1 0x40 MSTORE POP DUP2 ADD SWAP1 PUSH2 0x37D2 SWAP2 SWAP1 PUSH2 0x3F2B JUMP JUMPDEST PUSH1 0x0 DUP5 DUP2 MSTORE PUSH1 0x2 PUSH1 0x20 MSTORE PUSH1 0x40 SWAP1 KECCAK256 PUSH1 0x7 ADD SLOAD SWAP1 SWAP2 POP PUSH2 0x37F1 SWAP1 DUP4 PUSH2 0x31D2 JUMP JUMPDEST PUSH1 0x0 DUP5 DUP2 MSTORE PUSH1 0x2 PUSH1 0x20 DUP2 DUP2 MSTORE PUSH1 0x40 SWAP3 DUP4 SWAP1 KECCAK256 PUSH1 0x7 DUP2 ADD SWAP5 SWAP1 SWAP5 SSTORE SWAP3 ADD SLOAD SWAP1 MLOAD DUP5 DUP2 MSTORE PUSH1 0x1 PUSH1 0x1 PUSH1 0xA0 SHL SUB SWAP2 DUP3 AND SWAP3 SWAP2 DUP5 AND SWAP2 DUP7 SWAP2 PUSH32 0xECC75F4464886BEE0A1C5EAE61C0CB4B99C64C5E9CDEBE3696217D266F8B1636 SWAP2 ADD PUSH1 0x40 MLOAD DUP1 SWAP2 SUB SWAP1 LOG4 PUSH1 0x0 DUP4 DUP2 MSTORE PUSH1 0x2 PUSH1 0x20 DUP2 SWAP1 MSTORE PUSH1 0x40 SWAP1 SWAP2 KECCAK256 ADD SLOAD PUSH2 0x12D4 SWAP1 PUSH1 0x1 PUSH1 0x1 PUSH1 0xA0 SHL SUB AND DUP3 DUP5 PUSH2 0x316F JUMP JUMPDEST PUSH2 0x3898 DUP5 PUSH4 0x23B872DD PUSH1 0xE0 SHL DUP6 DUP6 DUP6 PUSH1 0x40 MLOAD PUSH1 0x24 ADD PUSH2 0x319B SWAP4 SWAP3 SWAP2 SWAP1 PUSH2 0x3EEA JUMP JUMPDEST POP POP POP POP JUMP JUMPDEST PUSH1 0x0 PUSH2 0x38F3 DUP3 PUSH1 0x40 MLOAD DUP1 PUSH1 0x40 ADD PUSH1 0x40 MSTORE DUP1 PUSH1 0x20 DUP2 MSTORE PUSH1 0x20 ADD PUSH32 0x5361666545524332303A206C6F772D6C6576656C2063616C6C206661696C6564 DUP2 MSTORE POP DUP6 PUSH1 0x1 PUSH1 0x1 PUSH1 0xA0 SHL SUB AND PUSH2 0x3970 SWAP1 SWAP3 SWAP2 SWAP1 PUSH4 0xFFFFFFFF AND JUMP JUMPDEST DUP1 MLOAD SWAP1 SWAP2 POP ISZERO PUSH2 0x12D4 JUMPI DUP1 DUP1 PUSH1 0x20 ADD SWAP1 MLOAD DUP2 ADD SWAP1 PUSH2 0x3911 SWAP2 SWAP1 PUSH2 0x3F0E JUMP JUMPDEST PUSH2 0x12D4 JUMPI PUSH1 0x40 MLOAD PUSH3 0x461BCD PUSH1 0xE5 SHL DUP2 MSTORE PUSH1 0x20 PUSH1 0x4 DUP3 ADD MSTORE PUSH1 0x2A PUSH1 0x24 DUP3 ADD MSTORE PUSH32 0x5361666545524332303A204552433230206F7065726174696F6E20646964206E PUSH1 0x44 DUP3 ADD MSTORE PUSH10 0x1BDD081CDD58D8D95959 PUSH1 0xB2 SHL PUSH1 0x64 DUP3 ADD MSTORE PUSH1 0x84 ADD PUSH2 0x688 JUMP JUMPDEST PUSH1 0x60 PUSH2 0x397F DUP5 DUP5 PUSH1 0x0 DUP6 PUSH2 0x3987 JUMP JUMPDEST SWAP5 SWAP4 POP POP POP POP JUMP JUMPDEST PUSH1 0x60 DUP3 SELFBALANCE LT ISZERO PUSH2 0x39E8 JUMPI PUSH1 0x40 MLOAD PUSH3 0x461BCD PUSH1 0xE5 SHL DUP2 MSTORE PUSH1 0x20 PUSH1 0x4 DUP3 ADD MSTORE PUSH1 0x26 PUSH1 0x24 DUP3 ADD MSTORE PUSH32 0x416464726573733A20696E73756666696369656E742062616C616E636520666F PUSH1 0x44 DUP3 ADD MSTORE PUSH6 0x1C8818D85B1B PUSH1 0xD2 SHL PUSH1 0x64 DUP3 ADD MSTORE PUSH1 0x84 ADD PUSH2 0x688 JUMP JUMPDEST DUP5 EXTCODESIZE PUSH2 0x3A36 JUMPI PUSH1 0x40 MLOAD PUSH3 0x461BCD PUSH1 0xE5 SHL DUP2 MSTORE PUSH1 0x20 PUSH1 0x4 DUP3 ADD MSTORE PUSH1 0x1D PUSH1 0x24 DUP3 ADD MSTORE PUSH32 0x416464726573733A2063616C6C20746F206E6F6E2D636F6E7472616374000000 PUSH1 0x44 DUP3 ADD MSTORE PUSH1 0x64 ADD PUSH2 0x688 JUMP JUMPDEST PUSH1 0x0 DUP1 DUP7 PUSH1 0x1 PUSH1 0x1 PUSH1 0xA0 SHL SUB AND DUP6 DUP8 PUSH1 0x40 MLOAD PUSH2 0x3A52 SWAP2 SWAP1 PUSH2 0x42B9 JUMP JUMPDEST PUSH1 0x0 PUSH1 0x40 MLOAD DUP1 DUP4 SUB DUP2 DUP6 DUP8 GAS CALL SWAP3 POP POP POP RETURNDATASIZE DUP1 PUSH1 0x0 DUP2 EQ PUSH2 0x3A8F JUMPI PUSH1 0x40 MLOAD SWAP2 POP PUSH1 0x1F NOT PUSH1 0x3F RETURNDATASIZE ADD AND DUP3 ADD PUSH1 0x40 MSTORE RETURNDATASIZE DUP3 MSTORE RETURNDATASIZE PUSH1 0x0 PUSH1 0x20 DUP5 ADD RETURNDATACOPY PUSH2 0x3A94 JUMP JUMPDEST PUSH1 0x60 SWAP2 POP JUMPDEST POP SWAP2 POP SWAP2 POP PUSH2 0x3AA4 DUP3 DUP3 DUP7 PUSH2 0x3AAF JUMP JUMPDEST SWAP8 SWAP7 POP POP POP POP POP POP POP JUMP JUMPDEST PUSH1 0x60 DUP4 ISZERO PUSH2 0x3ABE JUMPI POP DUP2 PUSH2 0x301A JUMP JUMPDEST DUP3 MLOAD ISZERO PUSH2 0x3ACE JUMPI DUP3 MLOAD DUP1 DUP5 PUSH1 0x20 ADD REVERT JUMPDEST DUP2 PUSH1 0x40 MLOAD PUSH3 0x461BCD PUSH1 0xE5 SHL DUP2 MSTORE PUSH1 0x4 ADD PUSH2 0x688 SWAP2 SWAP1 PUSH2 0x42D5 JUMP JUMPDEST PUSH1 0x1 PUSH1 0x1 PUSH1 0xA0 SHL SUB DUP2 AND DUP2 EQ PUSH2 0x3AFD JUMPI PUSH1 0x0 DUP1 REVERT JUMPDEST POP JUMP JUMPDEST PUSH4 0x4E487B71 PUSH1 0xE0 SHL PUSH1 0x0 MSTORE PUSH1 0x41 PUSH1 0x4 MSTORE PUSH1 0x24 PUSH1 0x0 REVERT JUMPDEST PUSH1 0x40 MLOAD PUSH1 0x1F DUP3 ADD PUSH1 0x1F NOT AND DUP2 ADD PUSH8 0xFFFFFFFFFFFFFFFF DUP2 GT DUP3 DUP3 LT OR ISZERO PUSH2 0x3B3F JUMPI PUSH2 0x3B3F PUSH2 0x3B00 JUMP JUMPDEST PUSH1 0x40 MSTORE SWAP2 SWAP1 POP JUMP JUMPDEST PUSH1 0x0 PUSH8 0xFFFFFFFFFFFFFFFF DUP3 GT ISZERO PUSH2 0x3B61 JUMPI PUSH2 0x3B61 PUSH2 0x3B00 JUMP JUMPDEST POP PUSH1 0x5 SHL PUSH1 0x20 ADD SWAP1 JUMP JUMPDEST PUSH1 0x0 DUP3 PUSH1 0x1F DUP4 ADD SLT PUSH2 0x3B7C JUMPI PUSH1 0x0 DUP1 REVERT JUMPDEST DUP2 CALLDATALOAD PUSH1 0x20 PUSH2 0x3B91 PUSH2 0x3B8C DUP4 PUSH2 0x3B47 JUMP JUMPDEST PUSH2 0x3B16 JUMP JUMPDEST DUP3 DUP2 MSTORE PUSH1 0x5 SWAP3 SWAP1 SWAP3 SHL DUP5 ADD DUP2 ADD SWAP2 DUP2 DUP2 ADD SWAP1 DUP7 DUP5 GT ISZERO PUSH2 0x3BB0 JUMPI PUSH1 0x0 DUP1 REVERT JUMPDEST DUP3 DUP7 ADD JUMPDEST DUP5 DUP2 LT ISZERO PUSH2 0x3BCB JUMPI DUP1 CALLDATALOAD DUP4 MSTORE SWAP2 DUP4 ADD SWAP2 DUP4 ADD PUSH2 0x3BB4 JUMP JUMPDEST POP SWAP7 SWAP6 POP POP POP POP POP POP JUMP JUMPDEST PUSH1 0x0 DUP1 PUSH1 0x0 PUSH1 0x60 DUP5 DUP7 SUB SLT ISZERO PUSH2 0x3BEB JUMPI PUSH1 0x0 DUP1 REVERT JUMPDEST DUP4 CALLDATALOAD PUSH2 0x3BF6 DUP2 PUSH2 0x3AE8 JUMP JUMPDEST SWAP3 POP PUSH1 0x20 DUP5 DUP2 ADD CALLDATALOAD PUSH8 0xFFFFFFFFFFFFFFFF DUP1 DUP3 GT ISZERO PUSH2 0x3C14 JUMPI PUSH1 0x0 DUP1 REVERT JUMPDEST DUP2 DUP8 ADD SWAP2 POP DUP8 PUSH1 0x1F DUP4 ADD SLT PUSH2 0x3C28 JUMPI PUSH1 0x0 DUP1 REVERT JUMPDEST DUP2 CALLDATALOAD PUSH2 0x3C36 PUSH2 0x3B8C DUP3 PUSH2 0x3B47 JUMP JUMPDEST DUP2 DUP2 MSTORE PUSH1 0x5 SWAP2 SWAP1 SWAP2 SHL DUP4 ADD DUP5 ADD SWAP1 DUP5 DUP2 ADD SWAP1 DUP11 DUP4 GT ISZERO PUSH2 0x3C55 JUMPI PUSH1 0x0 DUP1 REVERT JUMPDEST SWAP4 DUP6 ADD SWAP4 JUMPDEST DUP3 DUP6 LT ISZERO PUSH2 0x3C7C JUMPI DUP5 CALLDATALOAD PUSH2 0x3C6D DUP2 PUSH2 0x3AE8 JUMP JUMPDEST DUP3 MSTORE SWAP4 DUP6 ADD SWAP4 SWAP1 DUP6 ADD SWAP1 PUSH2 0x3C5A JUMP JUMPDEST SWAP7 POP POP POP PUSH1 0x40 DUP8 ADD CALLDATALOAD SWAP3 POP DUP1 DUP4 GT ISZERO PUSH2 0x3C94 JUMPI PUSH1 0x0 DUP1 REVERT JUMPDEST POP POP PUSH2 0x3CA2 DUP7 DUP3 DUP8 ADD PUSH2 0x3B6B JUMP JUMPDEST SWAP2 POP POP SWAP3 POP SWAP3 POP SWAP3 JUMP JUMPDEST PUSH1 0x0 PUSH1 0x20 DUP3 DUP5 SUB SLT ISZERO PUSH2 0x3CBE JUMPI PUSH1 0x0 DUP1 REVERT JUMPDEST POP CALLDATALOAD SWAP2 SWAP1 POP JUMP JUMPDEST PUSH1 0x20 DUP1 DUP3 MSTORE DUP3 MLOAD DUP3 DUP3 ADD DUP2 SWAP1 MSTORE PUSH1 0x0 SWAP2 SWAP1 DUP5 DUP3 ADD SWAP1 PUSH1 0x40 DUP6 ADD SWAP1 DUP5 JUMPDEST DUP2 DUP2 LT ISZERO PUSH2 0x3CFD JUMPI DUP4 MLOAD DUP4 MSTORE SWAP3 DUP5 ADD SWAP3 SWAP2 DUP5 ADD SWAP2 PUSH1 0x1 ADD PUSH2 0x3CE1 JUMP JUMPDEST POP SWAP1 SWAP7 SWAP6 POP POP POP POP POP POP JUMP JUMPDEST PUSH1 0x0 DUP1 PUSH1 0x0 DUP1 PUSH1 0x0 PUSH1 0xA0 DUP7 DUP9 SUB SLT ISZERO PUSH2 0x3D21 JUMPI PUSH1 0x0 DUP1 REVERT JUMPDEST DUP6 CALLDATALOAD SWAP5 POP PUSH1 0x20 DUP7 ADD CALLDATALOAD SWAP4 POP PUSH1 0x40 DUP7 ADD CALLDATALOAD SWAP3 POP PUSH1 0x60 DUP7 ADD CALLDATALOAD PUSH2 0x3D41 DUP2 PUSH2 0x3AE8 JUMP JUMPDEST SWAP5 SWAP8 SWAP4 SWAP7 POP SWAP2 SWAP5 PUSH1 0x80 ADD CALLDATALOAD SWAP3 SWAP2 POP POP JUMP JUMPDEST PUSH1 0x0 DUP1 PUSH1 0x40 DUP4 DUP6 SUB SLT ISZERO PUSH2 0x3D65 JUMPI PUSH1 0x0 DUP1 REVERT JUMPDEST DUP3 CALLDATALOAD SWAP2 POP PUSH1 0x20 DUP4 ADD CALLDATALOAD PUSH2 0x3D77 DUP2 PUSH2 0x3AE8 JUMP JUMPDEST DUP1 SWAP2 POP POP SWAP3 POP SWAP3 SWAP1 POP JUMP JUMPDEST PUSH1 0x0 DUP1 PUSH1 0x40 DUP4 DUP6 SUB SLT ISZERO PUSH2 0x3D95 JUMPI PUSH1 0x0 DUP1 REVERT JUMPDEST POP POP DUP1 CALLDATALOAD SWAP3 PUSH1 0x20 SWAP1 SWAP2 ADD CALLDATALOAD SWAP2 POP JUMP JUMPDEST DUP1 ISZERO ISZERO DUP2 EQ PUSH2 0x3AFD JUMPI PUSH1 0x0 DUP1 REVERT JUMPDEST PUSH1 0x0 DUP1 PUSH1 0x40 DUP4 DUP6 SUB SLT ISZERO PUSH2 0x3DC5 JUMPI PUSH1 0x0 DUP1 REVERT JUMPDEST DUP3 CALLDATALOAD SWAP2 POP PUSH1 0x20 DUP4 ADD CALLDATALOAD PUSH2 0x3D77 DUP2 PUSH2 0x3DA4 JUMP JUMPDEST PUSH1 0x0 PUSH1 0x20 DUP3 DUP5 SUB SLT ISZERO PUSH2 0x3DE9 JUMPI PUSH1 0x0 DUP1 REVERT JUMPDEST DUP2 CALLDATALOAD PUSH2 0x301A DUP2 PUSH2 0x3AE8 JUMP JUMPDEST PUSH1 0x0 DUP1 PUSH1 0x0 PUSH1 0x60 DUP5 DUP7 SUB SLT ISZERO PUSH2 0x3E09 JUMPI PUSH1 0x0 DUP1 REVERT JUMPDEST POP POP DUP2 CALLDATALOAD SWAP4 PUSH1 0x20 DUP4 ADD CALLDATALOAD SWAP4 POP PUSH1 0x40 SWAP1 SWAP3 ADD CALLDATALOAD SWAP2 SWAP1 POP JUMP JUMPDEST PUSH1 0x0 DUP1 PUSH1 0x40 DUP4 DUP6 SUB SLT ISZERO PUSH2 0x3E33 JUMPI PUSH1 0x0 DUP1 REVERT JUMPDEST DUP3 CALLDATALOAD PUSH2 0x3E3E DUP2 PUSH2 0x3AE8 JUMP JUMPDEST SWAP2 POP PUSH1 0x20 DUP4 ADD CALLDATALOAD PUSH2 0x3D77 DUP2 PUSH2 0x3AE8 JUMP JUMPDEST PUSH4 0x4E487B71 PUSH1 0xE0 SHL PUSH1 0x0 MSTORE PUSH1 0x32 PUSH1 0x4 MSTORE PUSH1 0x24 PUSH1 0x0 REVERT JUMPDEST PUSH1 0x20 DUP1 DUP3 MSTORE PUSH1 0x2E SWAP1 DUP3 ADD MSTORE PUSH32 0x46697865645261746545786368616E67653A20496E76616C6964206578636861 PUSH1 0x40 DUP3 ADD MSTORE PUSH14 0x6E676520726174652076616C7565 PUSH1 0x90 SHL PUSH1 0x60 DUP3 ADD MSTORE PUSH1 0x80 ADD SWAP1 JUMP JUMPDEST PUSH4 0x4E487B71 PUSH1 0xE0 SHL PUSH1 0x0 MSTORE PUSH1 0x11 PUSH1 0x4 MSTORE PUSH1 0x24 PUSH1 0x0 REVERT JUMPDEST PUSH1 0x0 DUP3 PUSH2 0x3EE5 JUMPI PUSH4 0x4E487B71 PUSH1 0xE0 SHL PUSH1 0x0 MSTORE PUSH1 0x12 PUSH1 0x4 MSTORE PUSH1 0x24 PUSH1 0x0 REVERT JUMPDEST POP DIV SWAP1 JUMP JUMPDEST PUSH1 0x1 PUSH1 0x1 PUSH1 0xA0 SHL SUB SWAP4 DUP5 AND DUP2 MSTORE SWAP2 SWAP1 SWAP3 AND PUSH1 0x20 DUP3 ADD MSTORE PUSH1 0x40 DUP2 ADD SWAP2 SWAP1 SWAP2 MSTORE PUSH1 0x60 ADD SWAP1 JUMP JUMPDEST PUSH1 0x0 PUSH1 0x20 DUP3 DUP5 SUB SLT ISZERO PUSH2 0x3F20 JUMPI PUSH1 0x0 DUP1 REVERT JUMPDEST DUP2 MLOAD PUSH2 0x301A DUP2 PUSH2 0x3DA4 JUMP JUMPDEST PUSH1 0x0 PUSH1 0x20 DUP3 DUP5 SUB SLT ISZERO PUSH2 0x3F3D JUMPI PUSH1 0x0 DUP1 REVERT JUMPDEST DUP2 MLOAD PUSH2 0x301A DUP2 PUSH2 0x3AE8 JUMP JUMPDEST PUSH1 0x20 DUP1 DUP3 MSTORE PUSH1 0x29 SWAP1 DUP3 ADD MSTORE PUSH32 0x46697865645261746545786368616E67653A20696E76616C6964206578636861 PUSH1 0x40 DUP3 ADD MSTORE PUSH9 0x3733B29037BBB732B9 PUSH1 0xB9 SHL PUSH1 0x60 DUP3 ADD MSTORE PUSH1 0x80 ADD SWAP1 JUMP JUMPDEST PUSH1 0x20 DUP1 DUP3 MSTORE PUSH1 0x2B SWAP1 DUP3 ADD MSTORE PUSH32 0x46697865645261746545786368616E67653A2045786368616E676520646F6573 PUSH1 0x40 DUP3 ADD MSTORE PUSH11 0x206E6F7420657869737421 PUSH1 0xA8 SHL PUSH1 0x60 DUP3 ADD MSTORE PUSH1 0x80 ADD SWAP1 JUMP JUMPDEST PUSH1 0x20 DUP1 DUP3 MSTORE PUSH1 0x1F SWAP1 DUP3 ADD MSTORE PUSH32 0x5265656E7472616E637947756172643A207265656E7472616E742063616C6C00 PUSH1 0x40 DUP3 ADD MSTORE PUSH1 0x60 ADD SWAP1 JUMP JUMPDEST PUSH1 0x20 DUP1 DUP3 MSTORE PUSH1 0x28 SWAP1 DUP3 ADD MSTORE PUSH32 0x46697865645261746545786368616E67653A207A65726F2064617461746F6B65 PUSH1 0x40 DUP3 ADD MSTORE PUSH8 0x1B88185B5BDD5B9D PUSH1 0xC2 SHL PUSH1 0x60 DUP3 ADD MSTORE PUSH1 0x80 ADD SWAP1 JUMP JUMPDEST PUSH1 0x20 DUP1 DUP3 MSTORE PUSH1 0x36 SWAP1 DUP3 ADD MSTORE PUSH32 0x46697865645261746545786368616E67653A2054686973206164647265737320 PUSH1 0x40 DUP3 ADD MSTORE PUSH22 0x6973206E6F7420616C6C6F77656420746F207377617 PUSH1 0x54 SHL PUSH1 0x60 DUP3 ADD MSTORE PUSH1 0x80 ADD SWAP1 JUMP JUMPDEST PUSH1 0x0 PUSH1 0x20 DUP3 DUP5 SUB SLT ISZERO PUSH2 0x40C3 JUMPI PUSH1 0x0 DUP1 REVERT JUMPDEST POP MLOAD SWAP2 SWAP1 POP JUMP JUMPDEST PUSH1 0x0 DUP3 DUP3 LT ISZERO PUSH2 0x40DC JUMPI PUSH2 0x40DC PUSH2 0x3EB2 JUMP JUMPDEST POP SUB SWAP1 JUMP JUMPDEST PUSH1 0x0 DUP3 NOT DUP3 GT ISZERO PUSH2 0x40F4 JUMPI PUSH2 0x40F4 PUSH2 0x3EB2 JUMP JUMPDEST POP ADD SWAP1 JUMP JUMPDEST PUSH1 0x0 PUSH1 0x80 DUP3 DUP5 SUB SLT ISZERO PUSH2 0x410B JUMPI PUSH1 0x0 DUP1 REVERT JUMPDEST PUSH1 0x40 MLOAD PUSH1 0x80 DUP2 ADD DUP2 DUP2 LT PUSH8 0xFFFFFFFFFFFFFFFF DUP3 GT OR ISZERO PUSH2 0x412E JUMPI PUSH2 0x412E PUSH2 0x3B00 JUMP JUMPDEST PUSH1 0x40 MSTORE DUP3 MLOAD PUSH2 0x413C DUP2 PUSH2 0x3DA4 JUMP JUMPDEST DUP2 MSTORE PUSH1 0x20 DUP4 ADD MLOAD PUSH2 0x414C DUP2 PUSH2 0x3DA4 JUMP JUMPDEST PUSH1 0x20 DUP3 ADD MSTORE PUSH1 0x40 DUP4 ADD MLOAD PUSH2 0x415F DUP2 PUSH2 0x3DA4 JUMP JUMPDEST PUSH1 0x40 DUP3 ADD MSTORE PUSH1 0x60 DUP4 ADD MLOAD PUSH2 0x4172 DUP2 PUSH2 0x3DA4 JUMP JUMPDEST PUSH1 0x60 DUP3 ADD MSTORE SWAP4 SWAP3 POP POP POP JUMP JUMPDEST PUSH1 0x1 DUP2 DUP2 JUMPDEST DUP1 DUP6 GT ISZERO PUSH2 0x41B9 JUMPI DUP2 PUSH1 0x0 NOT DIV DUP3 GT ISZERO PUSH2 0x419F JUMPI PUSH2 0x419F PUSH2 0x3EB2 JUMP JUMPDEST DUP1 DUP6 AND ISZERO PUSH2 0x41AC JUMPI SWAP2 DUP2 MUL SWAP2 JUMPDEST SWAP4 DUP5 SHR SWAP4 SWAP1 DUP1 MUL SWAP1 PUSH2 0x4183 JUMP JUMPDEST POP SWAP3 POP SWAP3 SWAP1 POP JUMP JUMPDEST PUSH1 0x0 DUP3 PUSH2 0x41D0 JUMPI POP PUSH1 0x1 PUSH2 0x2959 JUMP JUMPDEST DUP2 PUSH2 0x41DD JUMPI POP PUSH1 0x0 PUSH2 0x2959 JUMP JUMPDEST DUP2 PUSH1 0x1 DUP2 EQ PUSH2 0x41F3 JUMPI PUSH1 0x2 DUP2 EQ PUSH2 0x41FD JUMPI PUSH2 0x4219 JUMP JUMPDEST PUSH1 0x1 SWAP2 POP POP PUSH2 0x2959 JUMP JUMPDEST PUSH1 0xFF DUP5 GT ISZERO PUSH2 0x420E JUMPI PUSH2 0x420E PUSH2 0x3EB2 JUMP JUMPDEST POP POP PUSH1 0x1 DUP3 SHL PUSH2 0x2959 JUMP JUMPDEST POP PUSH1 0x20 DUP4 LT PUSH2 0x133 DUP4 LT AND PUSH1 0x4E DUP5 LT PUSH1 0xB DUP5 LT AND OR ISZERO PUSH2 0x423C JUMPI POP DUP2 DUP2 EXP PUSH2 0x2959 JUMP JUMPDEST PUSH2 0x4246 DUP4 DUP4 PUSH2 0x417E JUMP JUMPDEST DUP1 PUSH1 0x0 NOT DIV DUP3 GT ISZERO PUSH2 0x425A JUMPI PUSH2 0x425A PUSH2 0x3EB2 JUMP JUMPDEST MUL SWAP4 SWAP3 POP POP POP JUMP JUMPDEST PUSH1 0x0 PUSH2 0x301A DUP4 DUP4 PUSH2 0x41C1 JUMP JUMPDEST PUSH1 0x0 DUP2 PUSH1 0x0 NOT DIV DUP4 GT DUP3 ISZERO ISZERO AND ISZERO PUSH2 0x4288 JUMPI PUSH2 0x4288 PUSH2 0x3EB2 JUMP JUMPDEST POP MUL SWAP1 JUMP JUMPDEST PUSH1 0x0 JUMPDEST DUP4 DUP2 LT ISZERO PUSH2 0x42A8 JUMPI DUP2 DUP2 ADD MLOAD DUP4 DUP3 ADD MSTORE PUSH1 0x20 ADD PUSH2 0x4290 JUMP JUMPDEST DUP4 DUP2 GT ISZERO PUSH2 0x3898 JUMPI POP POP PUSH1 0x0 SWAP2 ADD MSTORE JUMP JUMPDEST PUSH1 0x0 DUP3 MLOAD PUSH2 0x42CB DUP2 DUP5 PUSH1 0x20 DUP8 ADD PUSH2 0x428D JUMP JUMPDEST SWAP2 SWAP1 SWAP2 ADD SWAP3 SWAP2 POP POP JUMP JUMPDEST PUSH1 0x20 DUP2 MSTORE PUSH1 0x0 DUP3 MLOAD DUP1 PUSH1 0x20 DUP5 ADD MSTORE PUSH2 0x42F4 DUP2 PUSH1 0x40 DUP6 ADD PUSH1 0x20 DUP8 ADD PUSH2 0x428D JUMP JUMPDEST PUSH1 0x1F ADD PUSH1 0x1F NOT AND SWAP2 SWAP1 SWAP2 ADD PUSH1 0x40 ADD SWAP3 SWAP2 POP POP JUMP INVALID LOG2 PUSH5 0x6970667358 0x22 SLT KECCAK256 DUP15 0xDB 0xCB SWAP16 0x23 RETURNDATACOPY 0x1F SWAP4 SWAP11 0x2C SIGNEXTEND 0x4F PUSH22 0xA3B69B7E1605F3EAA0B0C8D808E1504EE8D4A064736F PUSH13 0x634300080C0033000000000000 ",
  "sha1": "7cabc560a3c288da0067f5b2088d33e932e57372",
  "source": "pragma solidity 0.8.12;\n// Copyright BigchainDB GmbH and Ocean Protocol contributors\n// SPDX-License-Identifier: (Apache-2.0 AND CC-BY-4.0)\n// Code is Apache-2.0 and docs are CC-BY-4.0\nimport \"../../interfaces/IFixedRateExchange.sol\";\nimport \"../../interfaces/IERC20.sol\";\nimport \"../../interfaces/IERC20Template.sol\";\nimport \"../../interfaces/IERC721Template.sol\";\nimport \"../../interfaces/IFactoryRouter.sol\";\nimport \"OpenZeppelin/openzeppelin-contracts@4.2.0/contracts/utils/math/SafeMath.sol\";\nimport \"../../utils/SafeERC20.sol\";\nimport \"OpenZeppelin/openzeppelin-contracts@4.2.0/contracts/security/ReentrancyGuard.sol\";\n\n/**\n * @title FixedRateExchange\n * @dev FixedRateExchange is a fixed rate exchange Contract\n *      Marketplaces uses this contract to allow consumers\n *      exchanging datatokens with ocean token using a fixed\n *      exchange rate.\n */\n\n\n\ncontract FixedRateExchange is ReentrancyGuard, IFixedRateExchange {\n    using SafeMath for uint256;\n    using SafeERC20 for IERC20;\n    uint256 private constant BASE = 1e18;\n    uint public constant MIN_FEE           = BASE / 1e4;\n    uint public constant MAX_FEE           = 5e17;\n    uint public constant MIN_RATE          = 1e10;\n\n    address public router;\n    \n    struct Exchange {\n        bool active;\n        address exchangeOwner;\n        address datatoken;\n        address baseToken;\n        uint256 fixedRate;\n        uint256 dtDecimals;\n        uint256 btDecimals;\n        uint256 dtBalance;\n        uint256 btBalance;\n        uint256 marketFee;\n        address marketFeeCollector;\n        uint256 marketFeeAvailable;\n        uint256 oceanFeeAvailable;\n        bool withMint;\n        address allowedSwapper;\n    }\n\n    // maps an exchangeId to an exchange\n    mapping(bytes32 => Exchange) private exchanges;\n    bytes32[] private exchangeIds;\n\n    modifier onlyActiveExchange(bytes32 exchangeId) {\n        require(\n            //exchanges[exchangeId].fixedRate != 0 &&\n                exchanges[exchangeId].active,\n            \"FixedRateExchange: Exchange does not exist!\"\n        );\n        _;\n    }\n\n    modifier onlyExchangeOwner(bytes32 exchangeId) {\n        // allow only ERC20 Deployers or NFT Owner\n        IERC20Template dt = IERC20Template(exchanges[exchangeId].datatoken);\n        require(\n            dt.isERC20Deployer(msg.sender) || \n            IERC721Template(dt.getERC721Address()).ownerOf(1) == msg.sender\n            ,\n            \"FixedRateExchange: invalid exchange owner\"\n        );\n        _;\n    }\n\n    modifier onlyRouter() {\n        require(msg.sender == router, \"FixedRateExchange: only router\");\n        _;\n    }\n\n    event ExchangeCreated(\n        bytes32 indexed exchangeId,\n        address indexed baseToken,\n        address indexed datatoken,\n        address exchangeOwner,\n        uint256 fixedRate\n    );\n\n    event ExchangeRateChanged(\n        bytes32 indexed exchangeId,\n        address indexed exchangeOwner,\n        uint256 newRate\n    );\n\n    //triggered when the withMint state is changed \n    event ExchangeMintStateChanged(\n        bytes32 indexed exchangeId,\n        address indexed exchangeOwner,\n        bool withMint\n    );\n    \n    event ExchangeActivated(\n        bytes32 indexed exchangeId,\n        address indexed exchangeOwner\n    );\n\n    event ExchangeDeactivated(\n        bytes32 indexed exchangeId,\n        address indexed exchangeOwner\n    );\n\n    event ExchangeAllowedSwapperChanged(\n        bytes32 indexed exchangeId,\n        address indexed allowedSwapper\n    );\n    \n    event Swapped(\n        bytes32 indexed exchangeId,\n        address indexed by,\n        uint256 baseTokenSwappedAmount,\n        uint256 datatokenSwappedAmount,\n        address tokenOutAddress,\n        uint256 marketFeeAmount,\n        uint256 oceanFeeAmount,\n        uint256 consumeMarketFeeAmount\n    );\n\n    event TokenCollected(\n        bytes32 indexed exchangeId,\n        address indexed to,\n        address indexed token,\n        uint256 amount\n    );\n\n    event OceanFeeCollected(\n        bytes32 indexed exchangeId,\n        address indexed feeToken,\n        uint256 feeAmount\n    );\n    event MarketFeeCollected(\n        bytes32 indexed exchangeId,\n        address indexed feeToken,\n        uint256 feeAmount\n    );\n    // emited for fees sent to consumeMarket\n    event ConsumeMarketFee(\n        bytes32 indexed exchangeId,\n        address to,\n        address token,\n        uint256 amount);\n    event SWAP_FEES(\n        bytes32 indexed exchangeId,\n        uint oceanFeeAmount,\n        uint marketFeeAmount,\n        uint consumeMarketFeeAmount,\n        address tokenFeeAddress);\n    event PublishMarketFeeChanged(\n        bytes32 indexed exchangeId,\n        address caller,\n        address newMarketCollector,\n        uint256 swapFee);\n\n\n    constructor(address _router) {\n        require(_router != address(0), \"FixedRateExchange: Wrong Router address\");\n        router = _router;\n    }\n\n    /**\n     * @dev getId\n     *      Return template id in case we need different ABIs. \n     *      If you construct your own template, please make sure to change the hardcoded value\n     */\n    function getId() pure public returns (uint8) {\n        return 1;\n    }\n    \n    function getOPCFee(address baseTokenAddress) public view returns (uint) {\n        return IFactoryRouter(router).getOPCFee(baseTokenAddress);\n    }\n  \n\n    /**\n     * @dev create\n     *      creates new exchange pairs between a baseToken\n     *      (ocean token) and datatoken.\n     * datatoken refers to a datatoken contract address\n     * addresses  - array of addresses with the following struct:\n     *                [0] - baseToken\n     *                [1] - owner\n     *                [2] - marketFeeCollector\n     *                [3] - allowedSwapper - if != address(0), only that is allowed to swap (used for ERC20Enterprise)\n     * uints  - array of uints with the following struct:\n     *                [0] - baseTokenDecimals\n     *                [1] - datatokenDecimals\n     *                [2] - fixedRate\n     *                [3] - marketFee\n     *                [4] - withMint\n     */\n    function createWithDecimals(\n        address datatoken,\n        address[] memory addresses, \n        uint256[] memory uints \n    ) external onlyRouter returns (bytes32 exchangeId) {\n       require(uints.length >=5, 'Invalid uints length');\n       require(addresses.length >=4, 'Invalid addresses length');\n        require(\n            addresses[0] != address(0),\n            \"FixedRateExchange: Invalid baseToken,  zero address\"\n        );\n        require(\n            datatoken != address(0),\n            \"FixedRateExchange: Invalid datatoken,  zero address\"\n        );\n        require(\n            addresses[0] != datatoken,\n            \"FixedRateExchange: Invalid datatoken,  equals baseToken\"\n        );\n        require(\n            uints[2] >= MIN_RATE,\n            \"FixedRateExchange: Invalid exchange rate value\"\n        );\n        exchangeId = generateExchangeId(addresses[0], datatoken);\n        require(\n            exchanges[exchangeId].fixedRate == 0,\n            \"FixedRateExchange: Exchange already exists!\"\n        );\n        bool withMint=true;\n        if(uints[4] == 0) withMint = false;\n        exchanges[exchangeId] = Exchange({\n            active: true,\n            exchangeOwner: addresses[1],\n            datatoken: datatoken,\n            baseToken: addresses[0],\n            fixedRate: uints[2],\n            dtDecimals: uints[1],\n            btDecimals: uints[0],\n            dtBalance: 0,\n            btBalance: 0,\n            marketFee: uints[3],\n            marketFeeCollector: addresses[2],\n            marketFeeAvailable: 0,\n            oceanFeeAvailable: 0,\n            withMint: withMint,\n            allowedSwapper: addresses[3]\n        });\n        require(uints[3] ==0 || uints[3] >= MIN_FEE,'SwapFee too low');\n        require(uints[3] <= MAX_FEE,'SwapFee too high');\n        exchangeIds.push(exchangeId);\n\n        emit ExchangeCreated(\n            exchangeId,\n            addresses[0], // \n            datatoken,\n            addresses[1],\n            uints[2]\n        );\n\n        emit ExchangeActivated(exchangeId, addresses[1]);\n        emit ExchangeAllowedSwapperChanged(exchangeId, addresses[3]);\n        emit PublishMarketFeeChanged(exchangeId,msg.sender, addresses[2], uints[3]);\n    }\n\n    /**\n     * @dev generateExchangeId\n     *      creates unique exchange identifier for two token pairs.\n     * @param baseToken refers to a base token contract address\n     * @param datatoken refers to a datatoken contract address\n     */\n    function generateExchangeId(\n        address baseToken,\n        address datatoken\n    ) public pure returns (bytes32) {\n        //make sure that there can only be one exchange for a given pair (datatoken <-> basetoken)\n        return keccak256(abi.encode(baseToken, datatoken));\n    }\n\n    struct Fees{\n            uint256 baseTokenAmount;\n            uint256 oceanFeeAmount;\n            uint256 publishMarketFeeAmount;\n            uint256 consumeMarketFeeAmount;\n    }\n        \n    function _getBaseTokenOutPrice(bytes32 exchangeId, uint256 datatokenAmount) \n    internal view returns (uint256 baseTokenAmount){\n        baseTokenAmount = datatokenAmount\n            .mul(exchanges[exchangeId].fixedRate)\n            .mul(10**exchanges[exchangeId].btDecimals)\n            .div(10**exchanges[exchangeId].dtDecimals)\n            .div(BASE);\n    }\n    /**\n     * @dev calcBaseInGivenOutDT\n     *      Calculates how many baseTokens are needed to get exact amount of datatokens\n     * @param exchangeId a unique exchange idnetifier\n     * @param datatokenAmount the amount of datatokens to be exchanged\n     * @param consumeMarketSwapFeeAmount fee amount for consume market\n     */\n    function calcBaseInGivenOutDT(bytes32 exchangeId, uint256 datatokenAmount, uint256 consumeMarketSwapFeeAmount)\n        public\n        view\n        onlyActiveExchange(exchangeId)\n        returns (\n            uint256 baseTokenAmount,\n            uint256 oceanFeeAmount,\n            uint256 publishMarketFeeAmount,\n            uint256 consumeMarketFeeAmount\n        )\n\n\n    {\n        uint256 baseTokenAmountBeforeFee = _getBaseTokenOutPrice(exchangeId, datatokenAmount);\n        Fees memory fee = Fees(0,0,0,0);\n        uint256 opcFee = getOPCFee(exchanges[exchangeId].baseToken);\n        if (opcFee != 0) {\n            fee.oceanFeeAmount = baseTokenAmountBeforeFee\n                .mul(opcFee)\n                .div(BASE);\n        }\n        else\n            fee.oceanFeeAmount = 0;\n\n        if( exchanges[exchangeId].marketFee !=0){\n            fee.publishMarketFeeAmount = baseTokenAmountBeforeFee\n            .mul(exchanges[exchangeId].marketFee)\n            .div(BASE);\n        }\n        else{\n            fee.publishMarketFeeAmount = 0;\n        }\n\n        if( consumeMarketSwapFeeAmount !=0){\n            fee.consumeMarketFeeAmount = baseTokenAmountBeforeFee\n            .mul(consumeMarketSwapFeeAmount)\n            .div(BASE);\n        }\n        else{\n            fee.consumeMarketFeeAmount = 0;\n        }\n       \n        \n        fee.baseTokenAmount = baseTokenAmountBeforeFee.add(fee.publishMarketFeeAmount)\n            .add(fee.oceanFeeAmount).add(fee.consumeMarketFeeAmount);\n      \n        return(fee.baseTokenAmount,fee.oceanFeeAmount,fee.publishMarketFeeAmount,fee.consumeMarketFeeAmount);\n    }\n\n    \n    /**\n     * @dev calcBaseOutGivenInDT\n     *      Calculates how many basteTokens you will get for selling exact amount of baseTokens\n     * @param exchangeId a unique exchange idnetifier\n     * @param datatokenAmount the amount of datatokens to be exchanged\n     * @param consumeMarketSwapFeeAmount fee amount for consume market\n     */\n    function calcBaseOutGivenInDT(bytes32 exchangeId, uint256 datatokenAmount, uint256 consumeMarketSwapFeeAmount)\n        public\n        view\n        onlyActiveExchange(exchangeId)\n        returns (\n            uint256 baseTokenAmount,\n            uint256 oceanFeeAmount,\n            uint256 publishMarketFeeAmount,\n            uint256 consumeMarketFeeAmount\n        )\n    {\n        uint256 baseTokenAmountBeforeFee = _getBaseTokenOutPrice(exchangeId, datatokenAmount);\n\n        Fees memory fee = Fees(0,0,0,0);\n        uint256 opcFee = getOPCFee(exchanges[exchangeId].baseToken);\n        if (opcFee != 0) {\n            fee.oceanFeeAmount = baseTokenAmountBeforeFee\n                .mul(opcFee)\n                .div(BASE);\n        }\n        else fee.oceanFeeAmount=0;\n      \n        if(exchanges[exchangeId].marketFee !=0 ){\n            fee.publishMarketFeeAmount = baseTokenAmountBeforeFee\n                .mul(exchanges[exchangeId].marketFee)\n                .div(BASE);\n        }\n        else{\n            fee.publishMarketFeeAmount = 0;\n        }\n\n        if( consumeMarketSwapFeeAmount !=0){\n            fee.consumeMarketFeeAmount = baseTokenAmountBeforeFee\n                .mul(consumeMarketSwapFeeAmount)\n                .div(BASE);\n        }\n        else{\n            fee.consumeMarketFeeAmount = 0;\n        }\n\n        fee.baseTokenAmount = baseTokenAmountBeforeFee.sub(fee.publishMarketFeeAmount)\n            .sub(fee.oceanFeeAmount).sub(fee.consumeMarketFeeAmount);\n        return(fee.baseTokenAmount,fee.oceanFeeAmount,fee.publishMarketFeeAmount,fee.consumeMarketFeeAmount);\n    }\n\n    \n    /**\n     * @dev swap\n     *      atomic swap between two registered fixed rate exchange.\n     * @param exchangeId a unique exchange idnetifier\n     * @param datatokenAmount the amount of datatokens to be exchanged\n     * @param maxBaseTokenAmount maximum amount of base tokens to pay\n     * @param consumeMarketAddress consumeMarketAddress\n     * @param consumeMarketSwapFeeAmount fee amount for consume market\n     */\n    function buyDT(bytes32 exchangeId, uint256 datatokenAmount, uint256 maxBaseTokenAmount,\n        address consumeMarketAddress, uint256 consumeMarketSwapFeeAmount)\n        external\n        onlyActiveExchange(exchangeId)\n        nonReentrant\n    {\n        require(\n            datatokenAmount != 0,\n            \"FixedRateExchange: zero datatoken amount\"\n        );\n        require(consumeMarketSwapFeeAmount ==0 || consumeMarketSwapFeeAmount >= MIN_FEE,'ConsumeSwapFee too low');\n        require(consumeMarketSwapFeeAmount <= MAX_FEE,'ConsumeSwapFee too high');\n        if(exchanges[exchangeId].allowedSwapper != address(0)){\n            require(\n                exchanges[exchangeId].allowedSwapper == msg.sender,\n                \"FixedRateExchange: This address is not allowed to swap\"\n            );\n        }\n        if(consumeMarketAddress == address(0)) consumeMarketSwapFeeAmount=0; \n        Fees memory fee = Fees(0,0,0,0);\n        (fee.baseTokenAmount,\n            fee.oceanFeeAmount,\n            fee.publishMarketFeeAmount,\n            fee.consumeMarketFeeAmount\n        )\n         = calcBaseInGivenOutDT(exchangeId, datatokenAmount, consumeMarketSwapFeeAmount);\n        require(\n            fee.baseTokenAmount <= maxBaseTokenAmount,\n            \"FixedRateExchange: Too many base tokens\"\n        );\n        // we account fees , fees are always collected in baseToken\n        exchanges[exchangeId].oceanFeeAvailable = exchanges[exchangeId]\n            .oceanFeeAvailable\n            .add(fee.oceanFeeAmount);\n        exchanges[exchangeId].marketFeeAvailable = exchanges[exchangeId]\n            .marketFeeAvailable\n            .add(fee.publishMarketFeeAmount);\n        _pullUnderlying(exchanges[exchangeId].baseToken,msg.sender,\n                address(this),\n                fee.baseTokenAmount);\n        uint256 baseTokenAmountBeforeFee = fee.baseTokenAmount.sub(fee.oceanFeeAmount).\n            sub(fee.publishMarketFeeAmount).sub(fee.consumeMarketFeeAmount);\n        exchanges[exchangeId].btBalance = (exchanges[exchangeId].btBalance).add(\n            baseTokenAmountBeforeFee\n        );\n\n        if (datatokenAmount > exchanges[exchangeId].dtBalance) {\n            //first, let's try to mint\n            if(exchanges[exchangeId].withMint \n            && IERC20Template(exchanges[exchangeId].datatoken).isMinter(address(this)))\n            {\n                IERC20Template(exchanges[exchangeId].datatoken).mint(msg.sender,datatokenAmount);\n            }\n            else{\n                    _pullUnderlying(exchanges[exchangeId].datatoken,exchanges[exchangeId].exchangeOwner,\n                    msg.sender,\n                    datatokenAmount);\n            }\n        } else {\n            exchanges[exchangeId].dtBalance = (exchanges[exchangeId].dtBalance)\n                .sub(datatokenAmount);\n            IERC20(exchanges[exchangeId].datatoken).safeTransfer(\n                msg.sender,\n                datatokenAmount\n            );\n        }\n        if(consumeMarketAddress!= address(0) && fee.consumeMarketFeeAmount>0){\n            IERC20(exchanges[exchangeId].baseToken).safeTransfer(consumeMarketAddress, fee.consumeMarketFeeAmount);\n            emit ConsumeMarketFee(\n                exchangeId,\n                consumeMarketAddress,\n                exchanges[exchangeId].baseToken,\n                fee.consumeMarketFeeAmount);\n        }\n        emit Swapped(\n            exchangeId,\n            msg.sender,\n            fee.baseTokenAmount,\n            datatokenAmount,\n            exchanges[exchangeId].datatoken,\n            fee.publishMarketFeeAmount,\n            fee.oceanFeeAmount,\n            fee.consumeMarketFeeAmount\n        );\n    }\n\n\n    /**\n     * @dev sellDT\n     *      Sell datatokenAmount while expecting at least minBaseTokenAmount\n     * @param exchangeId a unique exchange idnetifier\n     * @param datatokenAmount the amount of datatokens to be exchanged\n     * @param minBaseTokenAmount minimum amount of base tokens to cash in\n     * @param consumeMarketAddress consumeMarketAddress\n     * @param consumeMarketSwapFeeAmount fee amount for consume market\n     */\n    function sellDT(bytes32 exchangeId, uint256 datatokenAmount,\n    uint256 minBaseTokenAmount, address consumeMarketAddress, uint256 consumeMarketSwapFeeAmount)\n        external\n        onlyActiveExchange(exchangeId)\n        nonReentrant\n    {\n        require(\n            datatokenAmount != 0,\n            \"FixedRateExchange: zero datatoken amount\"\n        );\n        require(consumeMarketSwapFeeAmount ==0 || consumeMarketSwapFeeAmount >= MIN_FEE,'ConsumeSwapFee too low');\n        require(consumeMarketSwapFeeAmount <= MAX_FEE,'ConsumeSwapFee too high');\n        if(exchanges[exchangeId].allowedSwapper != address(0)){\n            require(\n                exchanges[exchangeId].allowedSwapper == msg.sender,\n                \"FixedRateExchange: This address is not allowed to swap\"\n            );\n        }\n        Fees memory fee = Fees(0,0,0,0);\n        if(consumeMarketAddress == address(0)) consumeMarketSwapFeeAmount=0; \n        (fee.baseTokenAmount,\n            fee.oceanFeeAmount,\n            fee.publishMarketFeeAmount,\n            fee.consumeMarketFeeAmount\n        ) = calcBaseOutGivenInDT(exchangeId, datatokenAmount, consumeMarketSwapFeeAmount);\n        require(\n            fee.baseTokenAmount >= minBaseTokenAmount,\n            \"FixedRateExchange: Too few base tokens\"\n        );\n        // we account fees , fees are always collected in baseToken\n        exchanges[exchangeId].oceanFeeAvailable = exchanges[exchangeId]\n            .oceanFeeAvailable\n            .add(fee.oceanFeeAmount);\n        exchanges[exchangeId].marketFeeAvailable = exchanges[exchangeId]\n            .marketFeeAvailable\n            .add(fee.publishMarketFeeAmount);\n        uint256 baseTokenAmountWithFees = fee.baseTokenAmount.add(fee.oceanFeeAmount)\n            .add(fee.publishMarketFeeAmount).add(fee.consumeMarketFeeAmount);\n        _pullUnderlying(exchanges[exchangeId].datatoken,msg.sender,\n                address(this),\n                datatokenAmount);\n        exchanges[exchangeId].dtBalance = (exchanges[exchangeId].dtBalance).add(\n            datatokenAmount\n        );\n        if (baseTokenAmountWithFees > exchanges[exchangeId].btBalance) {\n                _pullUnderlying(exchanges[exchangeId].baseToken,exchanges[exchangeId].exchangeOwner,\n                    address(this),\n                    baseTokenAmountWithFees);\n                IERC20(exchanges[exchangeId].baseToken).safeTransfer(\n                    msg.sender,\n                    fee.baseTokenAmount);\n        } else {\n            exchanges[exchangeId].btBalance = (exchanges[exchangeId].btBalance)\n                .sub(baseTokenAmountWithFees);\n            IERC20(exchanges[exchangeId].baseToken).safeTransfer(\n                msg.sender,\n                fee.baseTokenAmount\n            );\n        }\n        if(consumeMarketAddress!= address(0) && fee.consumeMarketFeeAmount>0){\n            IERC20(exchanges[exchangeId].baseToken).safeTransfer(consumeMarketAddress, fee.consumeMarketFeeAmount);    \n             emit ConsumeMarketFee(\n                exchangeId,\n                consumeMarketAddress,\n                exchanges[exchangeId].baseToken,\n                fee.consumeMarketFeeAmount);\n        }\n        emit Swapped(\n            exchangeId,\n            msg.sender,\n            fee.baseTokenAmount,\n            datatokenAmount,\n            exchanges[exchangeId].baseToken,\n            fee.publishMarketFeeAmount,\n            fee.oceanFeeAmount,\n            fee.consumeMarketFeeAmount\n        );\n    }\n\n    /**\n     * @dev collectBT\n     *      Collects and send basetokens.\n     *      This function can be called by anyone, because fees are being sent to ERC20.getPaymentCollector\n     */\n    function collectBT(bytes32 exchangeId, uint256 amount) public\n        nonReentrant\n    {\n        _collectBT(exchangeId, amount);\n    }\n\n    function _collectBT(bytes32 exchangeId, uint256 amount) internal{\n        require(amount <= exchanges[exchangeId].btBalance, \"Amount too high\");\n        address destination = IERC20Template(exchanges[exchangeId].datatoken).getPaymentCollector();\n        exchanges[exchangeId].btBalance = exchanges[exchangeId].btBalance.sub(amount);\n        emit TokenCollected(\n            exchangeId,\n            destination,\n            exchanges[exchangeId].baseToken,\n            amount\n        );\n        IERC20(exchanges[exchangeId].baseToken).safeTransfer(\n            destination,\n            amount\n        );\n    }\n    /**\n     * @dev collectDT\n     *      Collects and send datatokens.\n     *      This function can be called by anyone, because fees are being sent to ERC20.getPaymentCollector\n     */\n    function collectDT(bytes32 exchangeId, uint256 amount) public\n        nonReentrant\n    {\n        _collectDT(exchangeId, amount);\n    }\n    function _collectDT(bytes32 exchangeId, uint256 amount) internal {\n        require(amount <= exchanges[exchangeId].dtBalance, \"Amount too high\");\n        address destination = IERC20Template(exchanges[exchangeId].datatoken).getPaymentCollector();\n        exchanges[exchangeId].dtBalance = exchanges[exchangeId].dtBalance.sub(amount);\n        emit TokenCollected(\n            exchangeId,\n            destination,\n            exchanges[exchangeId].datatoken,\n            amount\n        );\n        IERC20(exchanges[exchangeId].datatoken).safeTransfer(\n            destination,\n            amount\n        );\n    }\n\n    /**\n     * @dev collectMarketFee\n     *      Collects and send publishingMarketFee.\n     *      This function can be called by anyone, because fees are being sent to exchanges.marketFeeCollector\n     */\n    function collectMarketFee(bytes32 exchangeId) public nonReentrant {\n        // anyone call call this function, because funds are sent to the correct address\n        _collectMarketFee(exchangeId);\n    }\n\n    function _collectMarketFee(bytes32 exchangeId) internal {\n        uint256 amount = exchanges[exchangeId].marketFeeAvailable;\n        exchanges[exchangeId].marketFeeAvailable = 0;\n        emit MarketFeeCollected(\n            exchangeId,\n            exchanges[exchangeId].baseToken,\n            amount\n        );\n        IERC20(exchanges[exchangeId].baseToken).safeTransfer(\n            exchanges[exchangeId].marketFeeCollector,\n            amount\n        );\n        \n    }\n\n    /**\n     * @dev collectOceanFee\n     *      Collects and send OP Community fees.\n     *      This function can be called by anyone, because fees are being sent to opcCollector\n     */\n    function collectOceanFee(bytes32 exchangeId) public nonReentrant {\n        // anyone call call this function, because funds are sent to the correct address\n        _collectOceanFee(exchangeId);\n        \n    }\n    function _collectOceanFee(bytes32 exchangeId) internal {\n        uint256 amount = exchanges[exchangeId].oceanFeeAvailable;\n        exchanges[exchangeId].oceanFeeAvailable = 0;\n        IERC20(exchanges[exchangeId].baseToken).safeTransfer(\n            IFactoryRouter(router).getOPCCollector(),\n            amount\n        );\n        emit OceanFeeCollected(\n            exchangeId,\n            exchanges[exchangeId].baseToken,\n            amount\n        );\n    }\n\n     /**\n     * @dev updateMarketFeeCollector\n     *      Set _newMarketCollector as _publishMarketCollector\n     * @param _newMarketCollector new _publishMarketCollector\n     */\n    function updateMarketFeeCollector(\n        bytes32 exchangeId,\n        address _newMarketCollector\n    ) external {\n        require(\n            msg.sender == exchanges[exchangeId].marketFeeCollector,\n            \"not marketFeeCollector\"\n        );\n        exchanges[exchangeId].marketFeeCollector = _newMarketCollector;\n        emit PublishMarketFeeChanged(exchangeId, msg.sender, _newMarketCollector, exchanges[exchangeId].marketFee);\n    }\n\n    function updateMarketFee(\n        bytes32 exchangeId,\n        uint256 _newMarketFee\n    ) external {\n        require(\n            msg.sender == exchanges[exchangeId].marketFeeCollector,\n            \"not marketFeeCollector\"\n        );\n        require(_newMarketFee ==0 || _newMarketFee >= MIN_FEE,'SwapFee too low');\n        require(_newMarketFee <= MAX_FEE,'SwapFee too high');\n        exchanges[exchangeId].marketFee = _newMarketFee;\n        emit PublishMarketFeeChanged(exchangeId, msg.sender, exchanges[exchangeId].marketFeeCollector, _newMarketFee);\n    }\n\n    function getMarketFee(bytes32 exchangeId) view public returns(uint256){\n        return(exchanges[exchangeId].marketFee);\n    }\n\n    /**\n     * @dev getNumberOfExchanges\n     *      gets the total number of registered exchanges\n     * @return total number of registered exchange IDs\n     */\n    function getNumberOfExchanges() external view returns (uint256) {\n        return exchangeIds.length;\n    }\n\n    /**\n     * @dev setRate\n     *      changes the fixed rate for an exchange with a new rate\n     * @param exchangeId a unique exchange idnetifier\n     * @param newRate new fixed rate value\n     */\n    function setRate(bytes32 exchangeId, uint256 newRate)\n        external\n        onlyExchangeOwner(exchangeId)\n    {\n        require(\n            newRate >= MIN_RATE,\n            \"FixedRateExchange: Invalid exchange rate value\"\n        );\n        exchanges[exchangeId].fixedRate = newRate;\n        emit ExchangeRateChanged(exchangeId, msg.sender, newRate);\n    }\n\n    /**\n     * @dev toggleMintState\n     *      toggle withMint state\n     * @param exchangeId a unique exchange idnetifier\n     * @param withMint new value\n     */\n    function toggleMintState(bytes32 exchangeId, bool withMint)\n        external\n        onlyExchangeOwner(exchangeId)\n    {\n        // check if owner still has role, maybe he was an ERC20Deployer when fixedrate was created, but not anymore\n        exchanges[exchangeId].withMint = \n            _checkAllowedWithMint(exchanges[exchangeId].exchangeOwner, exchanges[exchangeId].datatoken,withMint);\n        emit ExchangeMintStateChanged(exchangeId, msg.sender, withMint);\n    }\n\n    /**\n     * @dev checkAllowedWithMint\n     *      internal function which establishes if a withMint flag can be set.  \n     *      It does this by checking if the owner has rights for that datatoken\n     * @param owner exchange owner\n     * @param datatoken datatoken address\n     * @param withMint desired flag, might get overwritten if owner has no roles\n     */\n    function _checkAllowedWithMint(address owner, address datatoken, bool withMint) internal view returns(bool){\n            //if owner does not want withMint, return false\n            if(withMint == false) return false;\n            IERC721Template nft = IERC721Template(IERC20Template(datatoken).getERC721Address());\n            IERC721Template.Roles memory roles = nft.getPermissions(owner);\n            if(roles.manager == true || roles.deployERC20 == true || nft.ownerOf(1) == owner)\n                return true;\n            else\n                return false;\n    }\n\n    /**\n     * @dev toggleExchangeState\n     *      toggles the active state of an existing exchange\n     * @param exchangeId a unique exchange identifier\n     */\n    function toggleExchangeState(bytes32 exchangeId)\n        external\n        onlyExchangeOwner(exchangeId)\n    {\n        if (exchanges[exchangeId].active) {\n            exchanges[exchangeId].active = false;\n            emit ExchangeDeactivated(exchangeId, msg.sender);\n        } else {\n            exchanges[exchangeId].active = true;\n            emit ExchangeActivated(exchangeId, msg.sender);\n        }\n    }\n\n    /**\n     * @dev setAllowedSwapper\n     *      Sets a new allowedSwapper\n     * @param exchangeId a unique exchange identifier\n     * @param newAllowedSwapper refers to the new allowedSwapper\n     */\n    function setAllowedSwapper(bytes32 exchangeId, address newAllowedSwapper) external\n    onlyExchangeOwner(exchangeId)\n    {\n        exchanges[exchangeId].allowedSwapper = newAllowedSwapper;\n        emit ExchangeAllowedSwapperChanged(exchangeId, newAllowedSwapper);\n    }\n    /**\n     * @dev getRate\n     *      gets the current fixed rate for an exchange\n     * @param exchangeId a unique exchange idnetifier\n     * @return fixed rate value\n     */\n    function getRate(bytes32 exchangeId) external view returns (uint256) {\n        return exchanges[exchangeId].fixedRate;\n    }\n\n    /**\n     * @dev getSupply\n     *      gets the current supply of datatokens in an fixed\n     *      rate exchagne\n     * @param  exchangeId the exchange ID\n     * @return supply\n     */\n    function getDTSupply(bytes32 exchangeId)\n        public\n        view\n        returns (uint256 supply)\n    {\n        if (exchanges[exchangeId].active == false) supply = 0;\n        else if (exchanges[exchangeId].withMint\n        && IERC20Template(exchanges[exchangeId].datatoken).isMinter(address(this))){\n            supply = IERC20Template(exchanges[exchangeId].datatoken).cap() \n            - IERC20Template(exchanges[exchangeId].datatoken).totalSupply();\n        }\n        else {\n            uint256 balance = IERC20Template(exchanges[exchangeId].datatoken)\n                .balanceOf(exchanges[exchangeId].exchangeOwner);\n            uint256 allowance = IERC20Template(exchanges[exchangeId].datatoken)\n                .allowance(exchanges[exchangeId].exchangeOwner, address(this));\n            if (balance < allowance)\n                supply = balance.add(exchanges[exchangeId].dtBalance);\n            else supply = allowance.add(exchanges[exchangeId].dtBalance);\n        }\n    }\n\n    /**\n     * @dev getSupply\n     *      gets the current supply of datatokens in an fixed\n     *      rate exchagne\n     * @param  exchangeId the exchange ID\n     * @return supply\n     */\n    function getBTSupply(bytes32 exchangeId)\n        public\n        view\n        returns (uint256 supply)\n    {\n        if (exchanges[exchangeId].active == false) supply = 0;\n        else {\n            uint256 balance = IERC20Template(exchanges[exchangeId].baseToken)\n                .balanceOf(exchanges[exchangeId].exchangeOwner);\n            uint256 allowance = IERC20Template(exchanges[exchangeId].baseToken)\n                .allowance(exchanges[exchangeId].exchangeOwner, address(this));\n            if (balance < allowance)\n                supply = balance.add(exchanges[exchangeId].btBalance);\n            else supply = allowance.add(exchanges[exchangeId].btBalance);\n        }\n    }\n\n    // /**\n    //  * @dev getExchange\n    //  *      gets all the exchange details\n    //  * @param exchangeId a unique exchange idnetifier\n    //  * @return all the exchange details including  the exchange Owner\n    //  *         the datatoken contract address, the base token address, the\n    //  *         fixed rate, whether the exchange is active and the supply or the\n    //  *         the current datatoken liquidity.\n    //  */\n    function getExchange(bytes32 exchangeId)\n        external\n        view\n        returns (\n            address exchangeOwner,\n            address datatoken,\n            uint256 dtDecimals,\n            address baseToken,\n            uint256 btDecimals,\n            uint256 fixedRate,\n            bool active,\n            uint256 dtSupply,\n            uint256 btSupply,\n            uint256 dtBalance,\n            uint256 btBalance,\n            bool withMint\n           // address allowedSwapper\n        )\n    {\n        exchangeOwner = exchanges[exchangeId].exchangeOwner;\n        datatoken = exchanges[exchangeId].datatoken;\n        dtDecimals = exchanges[exchangeId].dtDecimals;\n        baseToken = exchanges[exchangeId].baseToken;\n        btDecimals = exchanges[exchangeId].btDecimals;\n        fixedRate = exchanges[exchangeId].fixedRate;\n        active = exchanges[exchangeId].active;\n        dtSupply = getDTSupply(exchangeId);\n        btSupply = getBTSupply(exchangeId);\n        dtBalance = exchanges[exchangeId].dtBalance;\n        btBalance = exchanges[exchangeId].btBalance;\n        withMint = exchanges[exchangeId].withMint;\n        // allowedSwapper = exchange.allowedSwapper;\n    }\n\n    // /**\n    //  * @dev getAllowedSwapper\n    //  *      gets allowedSwapper\n    //  * @param exchangeId a unique exchange idnetifier\n    //  * @return address of allowedSwapper \n    //  */\n    function getAllowedSwapper(bytes32 exchangeId)\n        external\n        view\n        returns (\n            address allowedSwapper\n        )\n    {\n        Exchange memory exchange = exchanges[exchangeId];\n        allowedSwapper = exchange.allowedSwapper;\n    }\n\n    function getFeesInfo(bytes32 exchangeId)\n        external\n        view\n        returns (\n            uint256 marketFee,\n            address marketFeeCollector,\n            uint256 opcFee,\n            uint256 marketFeeAvailable,\n            uint256 oceanFeeAvailable\n        )\n    {\n        Exchange memory exchange = exchanges[exchangeId];\n        marketFee = exchange.marketFee;\n        marketFeeCollector = exchange.marketFeeCollector;\n        opcFee = getOPCFee(exchanges[exchangeId].baseToken);\n        marketFeeAvailable = exchange.marketFeeAvailable;\n        oceanFeeAvailable = exchange.oceanFeeAvailable;\n    }\n\n    /**\n     * @dev getExchanges\n     *      gets all the exchanges list\n     * @return a list of all registered exchange Ids\n     */\n    function getExchanges() external view returns (bytes32[] memory) {\n        return exchangeIds;\n    }\n\n    /**\n     * @dev isActive\n     *      checks whether exchange is active\n     * @param exchangeId a unique exchange idnetifier\n     * @return true if exchange is true, otherwise returns false\n     */\n    function isActive(bytes32 exchangeId) external view returns (bool) {\n        return exchanges[exchangeId].active;\n    }\n\n    function _pullUnderlying(\n        address erc20,\n        address from,\n        address to,\n        uint256 amount\n    ) internal {\n        uint256 balanceBefore = IERC20(erc20).balanceOf(to);\n        IERC20(erc20).safeTransferFrom(from, to, amount);\n        require(IERC20(erc20).balanceOf(to) >= balanceBefore.add(amount),\n                    \"Transfer amount is too low\");\n    }\n}",
  "sourcePath": "contracts/oceanv4/pools/fixedRate/FixedRateExchange.sol",
  "type": "contract"
}