{
  "abi": [
    {
      "inputs": [],
      "stateMutability": "nonpayable",
      "type": "constructor"
    },
    {
      "anonymous": false,
      "inputs": [
        {
          "indexed": true,
          "internalType": "address",
          "name": "owner",
          "type": "address"
        },
        {
          "indexed": true,
          "internalType": "address",
          "name": "spender",
          "type": "address"
        },
        {
          "indexed": false,
          "internalType": "uint256",
          "name": "value",
          "type": "uint256"
        }
      ],
      "name": "Approval",
      "type": "event"
    },
    {
      "anonymous": false,
      "inputs": [
        {
          "indexed": false,
          "internalType": "address",
          "name": "currentMinter",
          "type": "address"
        },
        {
          "indexed": false,
          "internalType": "address",
          "name": "newMinter",
          "type": "address"
        }
      ],
      "name": "MinterApproved",
      "type": "event"
    },
    {
      "anonymous": false,
      "inputs": [
        {
          "indexed": false,
          "internalType": "address",
          "name": "currentMinter",
          "type": "address"
        },
        {
          "indexed": false,
          "internalType": "address",
          "name": "newMinter",
          "type": "address"
        }
      ],
      "name": "MinterProposed",
      "type": "event"
    },
    {
      "anonymous": false,
      "inputs": [
        {
          "indexed": false,
          "internalType": "bytes32",
          "name": "orderTxId",
          "type": "bytes32"
        },
        {
          "indexed": true,
          "internalType": "address",
          "name": "consumer",
          "type": "address"
        },
        {
          "indexed": false,
          "internalType": "uint256",
          "name": "amount",
          "type": "uint256"
        },
        {
          "indexed": false,
          "internalType": "uint256",
          "name": "serviceId",
          "type": "uint256"
        },
        {
          "indexed": true,
          "internalType": "address",
          "name": "provider",
          "type": "address"
        },
        {
          "indexed": false,
          "internalType": "uint256",
          "name": "timestamp",
          "type": "uint256"
        }
      ],
      "name": "OrderFinished",
      "type": "event"
    },
    {
      "anonymous": false,
      "inputs": [
        {
          "indexed": true,
          "internalType": "address",
          "name": "consumer",
          "type": "address"
        },
        {
          "indexed": true,
          "internalType": "address",
          "name": "payer",
          "type": "address"
        },
        {
          "indexed": false,
          "internalType": "uint256",
          "name": "amount",
          "type": "uint256"
        },
        {
          "indexed": false,
          "internalType": "uint256",
          "name": "serviceId",
          "type": "uint256"
        },
        {
          "indexed": false,
          "internalType": "uint256",
          "name": "timestamp",
          "type": "uint256"
        },
        {
          "indexed": true,
          "internalType": "address",
          "name": "mrktFeeCollector",
          "type": "address"
        },
        {
          "indexed": false,
          "internalType": "uint256",
          "name": "marketFee",
          "type": "uint256"
        }
      ],
      "name": "OrderStarted",
      "type": "event"
    },
    {
      "anonymous": false,
      "inputs": [
        {
          "indexed": true,
          "internalType": "address",
          "name": "from",
          "type": "address"
        },
        {
          "indexed": true,
          "internalType": "address",
          "name": "to",
          "type": "address"
        },
        {
          "indexed": false,
          "internalType": "uint256",
          "name": "value",
          "type": "uint256"
        }
      ],
      "name": "Transfer",
      "type": "event"
    },
    {
      "inputs": [],
      "name": "BASE",
      "outputs": [
        {
          "internalType": "uint256",
          "name": "",
          "type": "uint256"
        }
      ],
      "stateMutability": "view",
      "type": "function"
    },
    {
      "inputs": [],
      "name": "BASE_COMMUNITY_FEE_PERCENTAGE",
      "outputs": [
        {
          "internalType": "uint256",
          "name": "",
          "type": "uint256"
        }
      ],
      "stateMutability": "view",
      "type": "function"
    },
    {
      "inputs": [],
      "name": "BASE_MARKET_FEE_PERCENTAGE",
      "outputs": [
        {
          "internalType": "uint256",
          "name": "",
          "type": "uint256"
        }
      ],
      "stateMutability": "view",
      "type": "function"
    },
    {
      "inputs": [
        {
          "internalType": "address",
          "name": "owner",
          "type": "address"
        },
        {
          "internalType": "address",
          "name": "spender",
          "type": "address"
        }
      ],
      "name": "allowance",
      "outputs": [
        {
          "internalType": "uint256",
          "name": "",
          "type": "uint256"
        }
      ],
      "stateMutability": "view",
      "type": "function"
    },
    {
      "inputs": [
        {
          "internalType": "address",
          "name": "spender",
          "type": "address"
        },
        {
          "internalType": "uint256",
          "name": "amount",
          "type": "uint256"
        }
      ],
      "name": "approve",
      "outputs": [
        {
          "internalType": "bool",
          "name": "",
          "type": "bool"
        }
      ],
      "stateMutability": "nonpayable",
      "type": "function"
    },
    {
      "inputs": [],
      "name": "approveMinter",
      "outputs": [],
      "stateMutability": "nonpayable",
      "type": "function"
    },
    {
      "inputs": [
        {
          "internalType": "address",
          "name": "account",
          "type": "address"
        }
      ],
      "name": "balanceOf",
      "outputs": [
        {
          "internalType": "uint256",
          "name": "",
          "type": "uint256"
        }
      ],
      "stateMutability": "view",
      "type": "function"
    },
    {
      "inputs": [],
      "name": "blob",
      "outputs": [
        {
          "internalType": "string",
          "name": "",
          "type": "string"
        }
      ],
      "stateMutability": "view",
      "type": "function"
    },
    {
      "inputs": [
        {
          "internalType": "uint256",
          "name": "amount",
          "type": "uint256"
        },
        {
          "internalType": "uint256",
          "name": "feePercentage",
          "type": "uint256"
        }
      ],
      "name": "calculateFee",
      "outputs": [
        {
          "internalType": "uint256",
          "name": "",
          "type": "uint256"
        }
      ],
      "stateMutability": "pure",
      "type": "function"
    },
    {
      "inputs": [],
      "name": "cap",
      "outputs": [
        {
          "internalType": "uint256",
          "name": "",
          "type": "uint256"
        }
      ],
      "stateMutability": "view",
      "type": "function"
    },
    {
      "inputs": [],
      "name": "decimals",
      "outputs": [
        {
          "internalType": "uint8",
          "name": "",
          "type": "uint8"
        }
      ],
      "stateMutability": "view",
      "type": "function"
    },
    {
      "inputs": [
        {
          "internalType": "address",
          "name": "spender",
          "type": "address"
        },
        {
          "internalType": "uint256",
          "name": "subtractedValue",
          "type": "uint256"
        }
      ],
      "name": "decreaseAllowance",
      "outputs": [
        {
          "internalType": "bool",
          "name": "",
          "type": "bool"
        }
      ],
      "stateMutability": "nonpayable",
      "type": "function"
    },
    {
      "inputs": [
        {
          "internalType": "bytes32",
          "name": "orderTxId",
          "type": "bytes32"
        },
        {
          "internalType": "address",
          "name": "consumer",
          "type": "address"
        },
        {
          "internalType": "uint256",
          "name": "amount",
          "type": "uint256"
        },
        {
          "internalType": "uint256",
          "name": "serviceId",
          "type": "uint256"
        }
      ],
      "name": "finishOrder",
      "outputs": [],
      "stateMutability": "nonpayable",
      "type": "function"
    },
    {
      "inputs": [
        {
          "internalType": "address",
          "name": "spender",
          "type": "address"
        },
        {
          "internalType": "uint256",
          "name": "addedValue",
          "type": "uint256"
        }
      ],
      "name": "increaseAllowance",
      "outputs": [
        {
          "internalType": "bool",
          "name": "",
          "type": "bool"
        }
      ],
      "stateMutability": "nonpayable",
      "type": "function"
    },
    {
      "inputs": [
        {
          "internalType": "string",
          "name": "name",
          "type": "string"
        },
        {
          "internalType": "string",
          "name": "symbol",
          "type": "string"
        },
        {
          "internalType": "address",
          "name": "minterAddress",
          "type": "address"
        },
        {
          "internalType": "uint256",
          "name": "cap_",
          "type": "uint256"
        },
        {
          "internalType": "string",
          "name": "blob_",
          "type": "string"
        },
        {
          "internalType": "address",
          "name": "feeCollector",
          "type": "address"
        }
      ],
      "name": "initialize",
      "outputs": [
        {
          "internalType": "bool",
          "name": "",
          "type": "bool"
        }
      ],
      "stateMutability": "nonpayable",
      "type": "function"
    },
    {
      "inputs": [],
      "name": "isInitialized",
      "outputs": [
        {
          "internalType": "bool",
          "name": "",
          "type": "bool"
        }
      ],
      "stateMutability": "view",
      "type": "function"
    },
    {
      "inputs": [
        {
          "internalType": "address",
          "name": "account",
          "type": "address"
        }
      ],
      "name": "isMinter",
      "outputs": [
        {
          "internalType": "bool",
          "name": "",
          "type": "bool"
        }
      ],
      "stateMutability": "view",
      "type": "function"
    },
    {
      "inputs": [
        {
          "internalType": "address",
          "name": "account",
          "type": "address"
        },
        {
          "internalType": "uint256",
          "name": "value",
          "type": "uint256"
        }
      ],
      "name": "mint",
      "outputs": [],
      "stateMutability": "nonpayable",
      "type": "function"
    },
    {
      "inputs": [],
      "name": "minter",
      "outputs": [
        {
          "internalType": "address",
          "name": "",
          "type": "address"
        }
      ],
      "stateMutability": "view",
      "type": "function"
    },
    {
      "inputs": [],
      "name": "name",
      "outputs": [
        {
          "internalType": "string",
          "name": "",
          "type": "string"
        }
      ],
      "stateMutability": "view",
      "type": "function"
    },
    {
      "inputs": [
        {
          "internalType": "address",
          "name": "newMinter",
          "type": "address"
        }
      ],
      "name": "proposeMinter",
      "outputs": [],
      "stateMutability": "nonpayable",
      "type": "function"
    },
    {
      "inputs": [
        {
          "internalType": "address",
          "name": "consumer",
          "type": "address"
        },
        {
          "internalType": "uint256",
          "name": "amount",
          "type": "uint256"
        },
        {
          "internalType": "uint256",
          "name": "serviceId",
          "type": "uint256"
        },
        {
          "internalType": "address",
          "name": "mrktFeeCollector",
          "type": "address"
        }
      ],
      "name": "startOrder",
      "outputs": [],
      "stateMutability": "nonpayable",
      "type": "function"
    },
    {
      "inputs": [],
      "name": "symbol",
      "outputs": [
        {
          "internalType": "string",
          "name": "",
          "type": "string"
        }
      ],
      "stateMutability": "view",
      "type": "function"
    },
    {
      "inputs": [],
      "name": "totalSupply",
      "outputs": [
        {
          "internalType": "uint256",
          "name": "",
          "type": "uint256"
        }
      ],
      "stateMutability": "view",
      "type": "function"
    },
    {
      "inputs": [
        {
          "internalType": "address",
          "name": "recipient",
          "type": "address"
        },
        {
          "internalType": "uint256",
          "name": "amount",
          "type": "uint256"
        }
      ],
      "name": "transfer",
      "outputs": [
        {
          "internalType": "bool",
          "name": "",
          "type": "bool"
        }
      ],
      "stateMutability": "nonpayable",
      "type": "function"
    },
    {
      "inputs": [
        {
          "internalType": "address",
          "name": "sender",
          "type": "address"
        },
        {
          "internalType": "address",
          "name": "recipient",
          "type": "address"
        },
        {
          "internalType": "uint256",
          "name": "amount",
          "type": "uint256"
        }
      ],
      "name": "transferFrom",
      "outputs": [
        {
          "internalType": "bool",
          "name": "",
          "type": "bool"
        }
      ],
      "stateMutability": "nonpayable",
      "type": "function"
    }
  ],
  "bytecode": "60c060405260086080819052671353d0d2d58cd11560c21b60a09081526200002b916005919062000525565b5060408051808201909152600480825263158cd11560e21b6020909201918252620000599160069162000525565b5060408051808201909152600480825263313637b160e11b6020909201918252620000879160079162000525565b50683635c9adc5dea00000600855600980546001600160a81b0319169055348015620000b257600080fd5b50604080518082018252600481526315195cdd60e21b60208083019182528351808501909452600a845269151154d514d6535093d360b21b908401528151919291620001019160039162000525565b5080516200011790600490602084019062000525565b505050620002e8600580546200012d90620005cb565b80601f01602080910402602001604051908101604052809291908181526020018280546200015b90620005cb565b8015620001ac5780601f106200018057610100808354040283529160200191620001ac565b820191906000526020600020905b8154815290600101906020018083116200018e57829003601f168201915b505050505060068054620001c090620005cb565b80601f0160208091040260200160405190810160405280929190818152602001828054620001ee90620005cb565b80156200023f5780601f1062000213576101008083540402835291602001916200023f565b820191906000526020600020905b8154815290600101906020018083116200022157829003601f168201915b505050505033600854600780546200025790620005cb565b80601f01602080910402602001604051908101604052809291908181526020018280546200028590620005cb565b8015620002d65780601f10620002aa57610100808354040283529160200191620002d6565b820191906000526020600020905b815481529060010190602001808311620002b857829003601f168201915b505050505033620002ef60201b60201c565b5062000608565b60006001600160a01b038516620003555760405162461bcd60e51b8152602060048201526030602482015260008051602062001c4283398151915260448201526f722c20207a65726f206164647265737360801b60648201526084015b60405180910390fd5b600a546001600160a01b031615620003b75760405162461bcd60e51b815260206004820152602f602482015260008051602062001c4283398151915260448201526e722c207a65726f206164647265737360881b60648201526084016200034c565b6001600160a01b03821662000437576040805162461bcd60e51b81526020600482015260248101919091527f44617461746f6b656e54656d706c6174653a20496e76616c696420636f6d6d7560448201527f6e6974792066656520636f6c6c6563746f722c207a65726f206164647265737360648201526084016200034c565b83620004925760405162461bcd60e51b8152602060048201526024808201527f44617461746f6b656e54656d706c6174653a20496e76616c6964206361702076604482015263616c756560e01b60648201526084016200034c565b60088490558651620004ac9060059060208a019062000525565b508251620004c290600790602086019062000525565b508551620004d890600690602089019062000525565b5050600a80546001600160a01b039586166001600160a01b0319909116179055600980546001600160a81b0319169190941617600160a01b9081179384905590920460ff16949350505050565b8280546200053390620005cb565b90600052602060002090601f016020900481019282620005575760008555620005a2565b82601f106200057257805160ff1916838001178555620005a2565b82800160010185558215620005a2579182015b82811115620005a257825182559160200191906001019062000585565b50620005b0929150620005b4565b5090565b5b80821115620005b05760008155600101620005b5565b600181811c90821680620005e057607f821691505b602082108114156200060257634e487b7160e01b600052602260045260246000fd5b50919050565b61162a80620006186000396000f3fe608060405234801561001057600080fd5b506004361061018e5760003560e01c806370a08231116100de578063aa271e1a11610097578063dd62ed3e11610071578063dd62ed3e14610345578063eb40024b1461037e578063ec342ad014610386578063fde0e7a81461039557600080fd5b8063aa271e1a14610310578063ab63d2b214610332578063b2263a5d1461021457600080fd5b806370a08231146102935780638ca0c059146102bc5780639070d2f8146102cf57806395d89b41146102e2578063a457c2d7146102ea578063a9059cbb146102fd57600080fd5b8063313ce5671161014b578063392e53cd11610125578063392e53cd14610246578063395093511461025857806340c10f191461026b57806350d2fcc41461028057600080fd5b8063313ce5671461021c57806334e731221461022b578063355274ea1461023e57600080fd5b806306fdde031461019357806307546172146101b1578063095ea7b3146101cc57806318160ddd146101ef57806323b872dd14610201578063294541c714610214575b600080fd5b61019b61039d565b6040516101a8919061121a565b60405180910390f35b600a546040516001600160a01b0390911681526020016101a8565b6101df6101da36600461128b565b61042f565b60405190151581526020016101a8565b6002545b6040519081526020016101a8565b6101df61020f3660046112b5565b610446565b6101f36104f5565b604051601281526020016101a8565b6101f36102393660046112f1565b61050c565b6008546101f3565b600954600160a01b900460ff166101df565b6101df61026636600461128b565b61054b565b61027e61027936600461128b565b610587565b005b61027e61028e366004611313565b610623565b6101f36102a1366004611313565b6001600160a01b031660009081526020819052604090205490565b61027e6102ca36600461132e565b6106a8565b6101df6102dd3660046113b2565b610771565b61019b6108a7565b6101df6102f836600461128b565b6108b6565b6101df61030b36600461128b565b61094f565b6101df61031e366004611313565b600a546001600160a01b0390811691161490565b61027e610340366004611479565b61095c565b6101f36103533660046114bf565b6001600160a01b03918216600090815260016020908152604080832093909416825291909152205490565b61027e610a51565b6101f3670de0b6b3a764000081565b61019b610b38565b6060600380546103ac906114f2565b80601f01602080910402602001604051908101604052809291908181526020018280546103d8906114f2565b80156104255780601f106103fa57610100808354040283529160200191610425565b820191906000526020600020905b81548152906001019060200180831161040857829003601f168201915b5050505050905090565b600061043c338484610b47565b5060015b92915050565b6000610453848484610c6b565b6001600160a01b0384166000908152600160209081526040808320338452909152902054828110156104dd5760405162461bcd60e51b815260206004820152602860248201527f45524332303a207472616e7366657220616d6f756e74206578636565647320616044820152676c6c6f77616e636560c01b60648201526084015b60405180910390fd5b6104ea8533858403610b47565b506001949350505050565b6105096103e8670de0b6b3a7640000611543565b81565b60008261051b57506000610440565b8161052857506000610440565b610544670de0b6b3a764000061053e8585610e2c565b90610e38565b9392505050565b3360008181526001602090815260408083206001600160a01b0387168452909152812054909161043c918590610582908690611565565b610b47565b600a546001600160a01b031633146105b15760405162461bcd60e51b81526004016104d49061157d565b6008546105c7826105c160025490565b90610e44565b11156106155760405162461bcd60e51b815260206004820152601f60248201527f44617461746f6b656e54656d706c6174653a206361702065786365656465640060448201526064016104d4565b61061f8282610e50565b5050565b600a546001600160a01b0316331461064d5760405162461bcd60e51b81526004016104d49061157d565b600b80546001600160a01b0319166001600160a01b0383169081179091556040805133815260208101929092527fa24c529cc8b2d85b7dfb2ed0b4d7e9a816546212138b5d223bee13481e21be6b910160405180910390a150565b8115610716576106b8838361094f565b6107165760405162461bcd60e51b815260206004820152602960248201527f44617461746f6b656e54656d706c6174653a206661696c656420746f2066696e60448201526834b9b41037b93232b960b91b60648201526084016104d4565b604080518581526020810184905290810182905242606082015233906001600160a01b038516907f46872661d5d7765097d3a97ca99b7cbfa68b54b6d51904168974901ee607a26d906080015b60405180910390a350505050565b600954600090600160a01b900460ff16156107ec5760405162461bcd60e51b815260206004820152603560248201527f44617461746f6b656e54656d706c6174653a20746f6b656e20696e7374616e636044820152741948185b1c9958591e481a5b9a5d1a585b1a5e9959605a1b60648201526084016104d4565b6108998a8a8080601f01602080910402602001604051908101604052809392919081815260200183838082843760009201919091525050604080516020601f8e018190048102820181019092528c815292508c91508b908190840183828082843760009201919091525050604080516020601f8b018190048102820181019092528981528c93508b9250908a908a90819084018382808284376000920191909152508a9250610f2f915050565b9a9950505050505050505050565b6060600480546103ac906114f2565b3360009081526001602090815260408083206001600160a01b0386168452909152812054828110156109385760405162461bcd60e51b815260206004820152602560248201527f45524332303a2064656372656173656420616c6c6f77616e63652062656c6f77604482015264207a65726f60d81b60648201526084016104d4565b6109453385858403610b47565b5060019392505050565b600061043c338484610c6b565b600080610977856102396103e8670de0b6b3a7640000611543565b600954909150610990906001600160a01b03168261094f565b506001600160a01b038316156109c6576109b8856102396103e8670de0b6b3a7640000611543565b91506109c4838361094f565b505b60006109d28284610e44565b600a549091506109ef906001600160a01b031661030b8884611175565b50604080518781526020810187905242818301526060810185905290516001600160a01b03868116923392918b16917fe1c4fa794edfa8f619b8257a077398950357b9c6398528f94480307352f9afcc9181900360800190a450505050505050565b600b546001600160a01b03163314610ac65760405162461bcd60e51b815260206004820152603260248201527f44617461746f6b656e54656d706c6174653a20696e76616c69642070726f706f604482015271736564206d696e746572206164647265737360701b60648201526084016104d4565b600a54600b54604080516001600160a01b0393841681529290911660208301527f96ab0400119a548d3cc4c74e857d0d9c427fe9df20d3d0d99af10cc292e6c886910160405180910390a1600b8054600a80546001600160a01b03199081166001600160a01b03841617909155169055565b6060600780546103ac906114f2565b6001600160a01b038316610ba95760405162461bcd60e51b8152602060048201526024808201527f45524332303a20617070726f76652066726f6d20746865207a65726f206164646044820152637265737360e01b60648201526084016104d4565b6001600160a01b038216610c0a5760405162461bcd60e51b815260206004820152602260248201527f45524332303a20617070726f766520746f20746865207a65726f206164647265604482015261737360f01b60648201526084016104d4565b6001600160a01b0383811660008181526001602090815260408083209487168084529482529182902085905590518481527f8c5be1e5ebec7d5bd14f71427d1e84f3dd0314c0f7b2291e5b200ac8c7c3b925910160405180910390a3505050565b6001600160a01b038316610ccf5760405162461bcd60e51b815260206004820152602560248201527f45524332303a207472616e736665722066726f6d20746865207a65726f206164604482015264647265737360d81b60648201526084016104d4565b6001600160a01b038216610d315760405162461bcd60e51b815260206004820152602360248201527f45524332303a207472616e7366657220746f20746865207a65726f206164647260448201526265737360e81b60648201526084016104d4565b6001600160a01b03831660009081526020819052604090205481811015610da95760405162461bcd60e51b815260206004820152602660248201527f45524332303a207472616e7366657220616d6f756e7420657863656564732062604482015265616c616e636560d01b60648201526084016104d4565b6001600160a01b03808516600090815260208190526040808220858503905591851681529081208054849290610de0908490611565565b92505081905550826001600160a01b0316846001600160a01b03167fddf252ad1be2c89b69c2b068fc378daa952ba7f163c4a11628f55a4df523b3ef8460405161076391815260200190565b600061054482846115be565b60006105448284611543565b60006105448284611565565b6001600160a01b038216610ea65760405162461bcd60e51b815260206004820152601f60248201527f45524332303a206d696e7420746f20746865207a65726f20616464726573730060448201526064016104d4565b8060026000828254610eb89190611565565b90915550506001600160a01b03821660009081526020819052604081208054839290610ee5908490611565565b90915550506040518181526001600160a01b038316906000907fddf252ad1be2c89b69c2b068fc378daa952ba7f163c4a11628f55a4df523b3ef9060200160405180910390a35050565b60006001600160a01b038516610fa05760405162461bcd60e51b815260206004820152603060248201527f44617461746f6b656e54656d706c6174653a20496e76616c6964206d696e746560448201526f722c20207a65726f206164647265737360801b60648201526084016104d4565b600a546001600160a01b0316156110115760405162461bcd60e51b815260206004820152602f60248201527f44617461746f6b656e54656d706c6174653a20496e76616c6964206d696e746560448201526e722c207a65726f206164647265737360881b60648201526084016104d4565b6001600160a01b03821661108f576040805162461bcd60e51b81526020600482015260248101919091527f44617461746f6b656e54656d706c6174653a20496e76616c696420636f6d6d7560448201527f6e6974792066656520636f6c6c6563746f722c207a65726f206164647265737360648201526084016104d4565b836110e85760405162461bcd60e51b8152602060048201526024808201527f44617461746f6b656e54656d706c6174653a20496e76616c6964206361702076604482015263616c756560e01b60648201526084016104d4565b600884905586516111009060059060208a0190611181565b508251611114906007906020860190611181565b508551611128906006906020890190611181565b5050600a80546001600160a01b039586166001600160a01b0319909116179055600980546001600160a81b0319169190941617600160a01b9081179384905590920460ff16949350505050565b600061054482846115dd565b82805461118d906114f2565b90600052602060002090601f0160209004810192826111af57600085556111f5565b82601f106111c857805160ff19168380011785556111f5565b828001600101855582156111f5579182015b828111156111f55782518255916020019190600101906111da565b50611201929150611205565b5090565b5b808211156112015760008155600101611206565b600060208083528351808285015260005b818110156112475785810183015185820160400152820161122b565b81811115611259576000604083870101525b50601f01601f1916929092016040019392505050565b80356001600160a01b038116811461128657600080fd5b919050565b6000806040838503121561129e57600080fd5b6112a78361126f565b946020939093013593505050565b6000806000606084860312156112ca57600080fd5b6112d38461126f565b92506112e16020850161126f565b9150604084013590509250925092565b6000806040838503121561130457600080fd5b50508035926020909101359150565b60006020828403121561132557600080fd5b6105448261126f565b6000806000806080858703121561134457600080fd5b843593506113546020860161126f565b93969395505050506040820135916060013590565b60008083601f84011261137b57600080fd5b50813567ffffffffffffffff81111561139357600080fd5b6020830191508360208285010111156113ab57600080fd5b9250929050565b600080600080600080600080600060c08a8c0312156113d057600080fd5b893567ffffffffffffffff808211156113e857600080fd5b6113f48d838e01611369565b909b50995060208c013591508082111561140d57600080fd5b6114198d838e01611369565b909950975087915061142d60408d0161126f565b965060608c0135955060808c013591508082111561144a57600080fd5b506114578c828d01611369565b909450925061146a905060a08b0161126f565b90509295985092959850929598565b6000806000806080858703121561148f57600080fd5b6114988561126f565b935060208501359250604085013591506114b46060860161126f565b905092959194509250565b600080604083850312156114d257600080fd5b6114db8361126f565b91506114e96020840161126f565b90509250929050565b600181811c9082168061150657607f821691505b6020821081141561152757634e487b7160e01b600052602260045260246000fd5b50919050565b634e487b7160e01b600052601160045260246000fd5b60008261156057634e487b7160e01b600052601260045260246000fd5b500490565b600082198211156115785761157861152d565b500190565b60208082526021908201527f44617461746f6b656e54656d706c6174653a20696e76616c6964206d696e74656040820152603960f91b606082015260800190565b60008160001904831182151516156115d8576115d861152d565b500290565b6000828210156115ef576115ef61152d565b50039056fea2646970667358221220ac0a0ca7d153e4bdbf872d9f34dae9c95fe986e313e56275c4654f2ac376c3a464736f6c634300080c003344617461746f6b656e54656d706c6174653a20496e76616c6964206d696e7465",
  "bytecodeSha1": "da39a3ee5e6b4b0d3255bfef95601890afd80709",
  "compiler": {
    "evm_version": "istanbul",
    "optimizer": {
      "enabled": true,
      "runs": 200
    },
    "version": "0.8.12+commit.f00d7308"
  },
  "contractName": "MockOldDT",
  "language": "Solidity",
  "natspec": {
    "details": "DatatokenTemplate is an ERC20 compliant token template      Used by the factory contract as a bytecode reference to       deploy new Datatokens.",
    "kind": "dev",
    "methods": {
      "allowance(address,address)": {
        "details": "See {IERC20-allowance}."
      },
      "approve(address,uint256)": {
        "details": "See {IERC20-approve}. Requirements: - `spender` cannot be the zero address."
      },
      "approveMinter()": {
        "details": "approveMinter      It approves a new token minter address.      Only the current minter can call it."
      },
      "balanceOf(address)": {
        "details": "See {IERC20-balanceOf}."
      },
      "blob()": {
        "details": "blob      It returns the blob (e.g https://123.com).",
        "returns": {
          "_0": "Datatoken blob."
        }
      },
      "calculateFee(uint256,uint256)": {
        "details": "calculateFee      giving a fee percentage, and amount it calculates the actual fee",
        "params": {
          "amount": "the amount of token",
          "feePercentage": "the fee percentage "
        },
        "returns": {
          "_0": "the token fee."
        }
      },
      "cap()": {
        "details": "cap      it returns the capital.",
        "returns": {
          "_0": "Datatoken cap."
        }
      },
      "decimals()": {
        "details": "Returns the number of decimals used to get its user representation. For example, if `decimals` equals `2`, a balance of `505` tokens should be displayed to a user as `5,05` (`505 / 10 ** 2`). Tokens usually opt for a value of 18, imitating the relationship between Ether and Wei. This is the value {ERC20} uses, unless this function is overridden; NOTE: This information is only used for _display_ purposes: it in no way affects any of the arithmetic of the contract, including {IERC20-balanceOf} and {IERC20-transfer}."
      },
      "decreaseAllowance(address,uint256)": {
        "details": "Atomically decreases the allowance granted to `spender` by the caller. This is an alternative to {approve} that can be used as a mitigation for problems described in {IERC20-approve}. Emits an {Approval} event indicating the updated allowance. Requirements: - `spender` cannot be the zero address. - `spender` must have allowance for the caller of at least `subtractedValue`."
      },
      "increaseAllowance(address,uint256)": {
        "details": "Atomically increases the allowance granted to `spender` by the caller. This is an alternative to {approve} that can be used as a mitigation for problems described in {IERC20-approve}. Emits an {Approval} event indicating the updated allowance. Requirements: - `spender` cannot be the zero address."
      },
      "isInitialized()": {
        "details": "isInitialized      It checks whether the contract is initialized.",
        "returns": {
          "_0": "true if the contract is initialized."
        }
      },
      "isMinter(address)": {
        "details": "isMinter      It takes the address and checks whether it has a minter role.",
        "params": {
          "account": "refers to the address."
        },
        "returns": {
          "_0": "true if account has a minter role."
        }
      },
      "minter()": {
        "details": "minter",
        "returns": {
          "_0": "minter's address."
        }
      },
      "name()": {
        "details": "Returns the name of the token."
      },
      "proposeMinter(address)": {
        "details": "proposeMinter      It proposes a new token minter address.      Only the current minter can call it.",
        "params": {
          "newMinter": "refers to a new token minter address."
        }
      },
      "symbol()": {
        "details": "Returns the symbol of the token, usually a shorter version of the name."
      },
      "totalSupply()": {
        "details": "See {IERC20-totalSupply}."
      },
      "transfer(address,uint256)": {
        "details": "See {IERC20-transfer}. Requirements: - `recipient` cannot be the zero address. - the caller must have a balance of at least `amount`."
      },
      "transferFrom(address,address,uint256)": {
        "details": "See {IERC20-transferFrom}. Emits an {Approval} event indicating the updated allowance. This is not required by the EIP. See the note at the beginning of {ERC20}. Requirements: - `sender` and `recipient` cannot be the zero address. - `sender` must have a balance of at least `amount`. - the caller must have allowance for ``sender``'s tokens of at least `amount`."
      }
    },
    "title": "DatatokenTemplate  ",
    "version": 1
  },
  "opcodes": "PUSH1 0x80 PUSH1 0x40 MSTORE CALLVALUE DUP1 ISZERO PUSH2 0x10 JUMPI PUSH1 0x0 DUP1 REVERT JUMPDEST POP PUSH1 0x4 CALLDATASIZE LT PUSH2 0x18E JUMPI PUSH1 0x0 CALLDATALOAD PUSH1 0xE0 SHR DUP1 PUSH4 0x70A08231 GT PUSH2 0xDE JUMPI DUP1 PUSH4 0xAA271E1A GT PUSH2 0x97 JUMPI DUP1 PUSH4 0xDD62ED3E GT PUSH2 0x71 JUMPI DUP1 PUSH4 0xDD62ED3E EQ PUSH2 0x345 JUMPI DUP1 PUSH4 0xEB40024B EQ PUSH2 0x37E JUMPI DUP1 PUSH4 0xEC342AD0 EQ PUSH2 0x386 JUMPI DUP1 PUSH4 0xFDE0E7A8 EQ PUSH2 0x395 JUMPI PUSH1 0x0 DUP1 REVERT JUMPDEST DUP1 PUSH4 0xAA271E1A EQ PUSH2 0x310 JUMPI DUP1 PUSH4 0xAB63D2B2 EQ PUSH2 0x332 JUMPI DUP1 PUSH4 0xB2263A5D EQ PUSH2 0x214 JUMPI PUSH1 0x0 DUP1 REVERT JUMPDEST DUP1 PUSH4 0x70A08231 EQ PUSH2 0x293 JUMPI DUP1 PUSH4 0x8CA0C059 EQ PUSH2 0x2BC JUMPI DUP1 PUSH4 0x9070D2F8 EQ PUSH2 0x2CF JUMPI DUP1 PUSH4 0x95D89B41 EQ PUSH2 0x2E2 JUMPI DUP1 PUSH4 0xA457C2D7 EQ PUSH2 0x2EA JUMPI DUP1 PUSH4 0xA9059CBB EQ PUSH2 0x2FD JUMPI PUSH1 0x0 DUP1 REVERT JUMPDEST DUP1 PUSH4 0x313CE567 GT PUSH2 0x14B JUMPI DUP1 PUSH4 0x392E53CD GT PUSH2 0x125 JUMPI DUP1 PUSH4 0x392E53CD EQ PUSH2 0x246 JUMPI DUP1 PUSH4 0x39509351 EQ PUSH2 0x258 JUMPI DUP1 PUSH4 0x40C10F19 EQ PUSH2 0x26B JUMPI DUP1 PUSH4 0x50D2FCC4 EQ PUSH2 0x280 JUMPI PUSH1 0x0 DUP1 REVERT JUMPDEST DUP1 PUSH4 0x313CE567 EQ PUSH2 0x21C JUMPI DUP1 PUSH4 0x34E73122 EQ PUSH2 0x22B JUMPI DUP1 PUSH4 0x355274EA EQ PUSH2 0x23E JUMPI PUSH1 0x0 DUP1 REVERT JUMPDEST DUP1 PUSH4 0x6FDDE03 EQ PUSH2 0x193 JUMPI DUP1 PUSH4 0x7546172 EQ PUSH2 0x1B1 JUMPI DUP1 PUSH4 0x95EA7B3 EQ PUSH2 0x1CC JUMPI DUP1 PUSH4 0x18160DDD EQ PUSH2 0x1EF JUMPI DUP1 PUSH4 0x23B872DD EQ PUSH2 0x201 JUMPI DUP1 PUSH4 0x294541C7 EQ PUSH2 0x214 JUMPI JUMPDEST PUSH1 0x0 DUP1 REVERT JUMPDEST PUSH2 0x19B PUSH2 0x39D JUMP JUMPDEST PUSH1 0x40 MLOAD PUSH2 0x1A8 SWAP2 SWAP1 PUSH2 0x121A JUMP JUMPDEST PUSH1 0x40 MLOAD DUP1 SWAP2 SUB SWAP1 RETURN JUMPDEST PUSH1 0xA SLOAD PUSH1 0x40 MLOAD PUSH1 0x1 PUSH1 0x1 PUSH1 0xA0 SHL SUB SWAP1 SWAP2 AND DUP2 MSTORE PUSH1 0x20 ADD PUSH2 0x1A8 JUMP JUMPDEST PUSH2 0x1DF PUSH2 0x1DA CALLDATASIZE PUSH1 0x4 PUSH2 0x128B JUMP JUMPDEST PUSH2 0x42F JUMP JUMPDEST PUSH1 0x40 MLOAD SWAP1 ISZERO ISZERO DUP2 MSTORE PUSH1 0x20 ADD PUSH2 0x1A8 JUMP JUMPDEST PUSH1 0x2 SLOAD JUMPDEST PUSH1 0x40 MLOAD SWAP1 DUP2 MSTORE PUSH1 0x20 ADD PUSH2 0x1A8 JUMP JUMPDEST PUSH2 0x1DF PUSH2 0x20F CALLDATASIZE PUSH1 0x4 PUSH2 0x12B5 JUMP JUMPDEST PUSH2 0x446 JUMP JUMPDEST PUSH2 0x1F3 PUSH2 0x4F5 JUMP JUMPDEST PUSH1 0x40 MLOAD PUSH1 0x12 DUP2 MSTORE PUSH1 0x20 ADD PUSH2 0x1A8 JUMP JUMPDEST PUSH2 0x1F3 PUSH2 0x239 CALLDATASIZE PUSH1 0x4 PUSH2 0x12F1 JUMP JUMPDEST PUSH2 0x50C JUMP JUMPDEST PUSH1 0x8 SLOAD PUSH2 0x1F3 JUMP JUMPDEST PUSH1 0x9 SLOAD PUSH1 0x1 PUSH1 0xA0 SHL SWAP1 DIV PUSH1 0xFF AND PUSH2 0x1DF JUMP JUMPDEST PUSH2 0x1DF PUSH2 0x266 CALLDATASIZE PUSH1 0x4 PUSH2 0x128B JUMP JUMPDEST PUSH2 0x54B JUMP JUMPDEST PUSH2 0x27E PUSH2 0x279 CALLDATASIZE PUSH1 0x4 PUSH2 0x128B JUMP JUMPDEST PUSH2 0x587 JUMP JUMPDEST STOP JUMPDEST PUSH2 0x27E PUSH2 0x28E CALLDATASIZE PUSH1 0x4 PUSH2 0x1313 JUMP JUMPDEST PUSH2 0x623 JUMP JUMPDEST PUSH2 0x1F3 PUSH2 0x2A1 CALLDATASIZE PUSH1 0x4 PUSH2 0x1313 JUMP JUMPDEST PUSH1 0x1 PUSH1 0x1 PUSH1 0xA0 SHL SUB AND PUSH1 0x0 SWAP1 DUP2 MSTORE PUSH1 0x20 DUP2 SWAP1 MSTORE PUSH1 0x40 SWAP1 KECCAK256 SLOAD SWAP1 JUMP JUMPDEST PUSH2 0x27E PUSH2 0x2CA CALLDATASIZE PUSH1 0x4 PUSH2 0x132E JUMP JUMPDEST PUSH2 0x6A8 JUMP JUMPDEST PUSH2 0x1DF PUSH2 0x2DD CALLDATASIZE PUSH1 0x4 PUSH2 0x13B2 JUMP JUMPDEST PUSH2 0x771 JUMP JUMPDEST PUSH2 0x19B PUSH2 0x8A7 JUMP JUMPDEST PUSH2 0x1DF PUSH2 0x2F8 CALLDATASIZE PUSH1 0x4 PUSH2 0x128B JUMP JUMPDEST PUSH2 0x8B6 JUMP JUMPDEST PUSH2 0x1DF PUSH2 0x30B CALLDATASIZE PUSH1 0x4 PUSH2 0x128B JUMP JUMPDEST PUSH2 0x94F JUMP JUMPDEST PUSH2 0x1DF PUSH2 0x31E CALLDATASIZE PUSH1 0x4 PUSH2 0x1313 JUMP JUMPDEST PUSH1 0xA SLOAD PUSH1 0x1 PUSH1 0x1 PUSH1 0xA0 SHL SUB SWAP1 DUP2 AND SWAP2 AND EQ SWAP1 JUMP JUMPDEST PUSH2 0x27E PUSH2 0x340 CALLDATASIZE PUSH1 0x4 PUSH2 0x1479 JUMP JUMPDEST PUSH2 0x95C JUMP JUMPDEST PUSH2 0x1F3 PUSH2 0x353 CALLDATASIZE PUSH1 0x4 PUSH2 0x14BF JUMP JUMPDEST PUSH1 0x1 PUSH1 0x1 PUSH1 0xA0 SHL SUB SWAP2 DUP3 AND PUSH1 0x0 SWAP1 DUP2 MSTORE PUSH1 0x1 PUSH1 0x20 SWAP1 DUP2 MSTORE PUSH1 0x40 DUP1 DUP4 KECCAK256 SWAP4 SWAP1 SWAP5 AND DUP3 MSTORE SWAP2 SWAP1 SWAP2 MSTORE KECCAK256 SLOAD SWAP1 JUMP JUMPDEST PUSH2 0x27E PUSH2 0xA51 JUMP JUMPDEST PUSH2 0x1F3 PUSH8 0xDE0B6B3A7640000 DUP2 JUMP JUMPDEST PUSH2 0x19B PUSH2 0xB38 JUMP JUMPDEST PUSH1 0x60 PUSH1 0x3 DUP1 SLOAD PUSH2 0x3AC SWAP1 PUSH2 0x14F2 JUMP JUMPDEST DUP1 PUSH1 0x1F ADD PUSH1 0x20 DUP1 SWAP2 DIV MUL PUSH1 0x20 ADD PUSH1 0x40 MLOAD SWAP1 DUP2 ADD PUSH1 0x40 MSTORE DUP1 SWAP3 SWAP2 SWAP1 DUP2 DUP2 MSTORE PUSH1 0x20 ADD DUP3 DUP1 SLOAD PUSH2 0x3D8 SWAP1 PUSH2 0x14F2 JUMP JUMPDEST DUP1 ISZERO PUSH2 0x425 JUMPI DUP1 PUSH1 0x1F LT PUSH2 0x3FA JUMPI PUSH2 0x100 DUP1 DUP4 SLOAD DIV MUL DUP4 MSTORE SWAP2 PUSH1 0x20 ADD SWAP2 PUSH2 0x425 JUMP JUMPDEST DUP3 ADD SWAP2 SWAP1 PUSH1 0x0 MSTORE PUSH1 0x20 PUSH1 0x0 KECCAK256 SWAP1 JUMPDEST DUP2 SLOAD DUP2 MSTORE SWAP1 PUSH1 0x1 ADD SWAP1 PUSH1 0x20 ADD DUP1 DUP4 GT PUSH2 0x408 JUMPI DUP3 SWAP1 SUB PUSH1 0x1F AND DUP3 ADD SWAP2 JUMPDEST POP POP POP POP POP SWAP1 POP SWAP1 JUMP JUMPDEST PUSH1 0x0 PUSH2 0x43C CALLER DUP5 DUP5 PUSH2 0xB47 JUMP JUMPDEST POP PUSH1 0x1 JUMPDEST SWAP3 SWAP2 POP POP JUMP JUMPDEST PUSH1 0x0 PUSH2 0x453 DUP5 DUP5 DUP5 PUSH2 0xC6B JUMP JUMPDEST PUSH1 0x1 PUSH1 0x1 PUSH1 0xA0 SHL SUB DUP5 AND PUSH1 0x0 SWAP1 DUP2 MSTORE PUSH1 0x1 PUSH1 0x20 SWAP1 DUP2 MSTORE PUSH1 0x40 DUP1 DUP4 KECCAK256 CALLER DUP5 MSTORE SWAP1 SWAP2 MSTORE SWAP1 KECCAK256 SLOAD DUP3 DUP2 LT ISZERO PUSH2 0x4DD JUMPI PUSH1 0x40 MLOAD PUSH3 0x461BCD PUSH1 0xE5 SHL DUP2 MSTORE PUSH1 0x20 PUSH1 0x4 DUP3 ADD MSTORE PUSH1 0x28 PUSH1 0x24 DUP3 ADD MSTORE PUSH32 0x45524332303A207472616E7366657220616D6F756E7420657863656564732061 PUSH1 0x44 DUP3 ADD MSTORE PUSH8 0x6C6C6F77616E6365 PUSH1 0xC0 SHL PUSH1 0x64 DUP3 ADD MSTORE PUSH1 0x84 ADD JUMPDEST PUSH1 0x40 MLOAD DUP1 SWAP2 SUB SWAP1 REVERT JUMPDEST PUSH2 0x4EA DUP6 CALLER DUP6 DUP5 SUB PUSH2 0xB47 JUMP JUMPDEST POP PUSH1 0x1 SWAP5 SWAP4 POP POP POP POP JUMP JUMPDEST PUSH2 0x509 PUSH2 0x3E8 PUSH8 0xDE0B6B3A7640000 PUSH2 0x1543 JUMP JUMPDEST DUP2 JUMP JUMPDEST PUSH1 0x0 DUP3 PUSH2 0x51B JUMPI POP PUSH1 0x0 PUSH2 0x440 JUMP JUMPDEST DUP2 PUSH2 0x528 JUMPI POP PUSH1 0x0 PUSH2 0x440 JUMP JUMPDEST PUSH2 0x544 PUSH8 0xDE0B6B3A7640000 PUSH2 0x53E DUP6 DUP6 PUSH2 0xE2C JUMP JUMPDEST SWAP1 PUSH2 0xE38 JUMP JUMPDEST SWAP4 SWAP3 POP POP POP JUMP JUMPDEST CALLER PUSH1 0x0 DUP2 DUP2 MSTORE PUSH1 0x1 PUSH1 0x20 SWAP1 DUP2 MSTORE PUSH1 0x40 DUP1 DUP4 KECCAK256 PUSH1 0x1 PUSH1 0x1 PUSH1 0xA0 SHL SUB DUP8 AND DUP5 MSTORE SWAP1 SWAP2 MSTORE DUP2 KECCAK256 SLOAD SWAP1 SWAP2 PUSH2 0x43C SWAP2 DUP6 SWAP1 PUSH2 0x582 SWAP1 DUP7 SWAP1 PUSH2 0x1565 JUMP JUMPDEST PUSH2 0xB47 JUMP JUMPDEST PUSH1 0xA SLOAD PUSH1 0x1 PUSH1 0x1 PUSH1 0xA0 SHL SUB AND CALLER EQ PUSH2 0x5B1 JUMPI PUSH1 0x40 MLOAD PUSH3 0x461BCD PUSH1 0xE5 SHL DUP2 MSTORE PUSH1 0x4 ADD PUSH2 0x4D4 SWAP1 PUSH2 0x157D JUMP JUMPDEST PUSH1 0x8 SLOAD PUSH2 0x5C7 DUP3 PUSH2 0x5C1 PUSH1 0x2 SLOAD SWAP1 JUMP JUMPDEST SWAP1 PUSH2 0xE44 JUMP JUMPDEST GT ISZERO PUSH2 0x615 JUMPI PUSH1 0x40 MLOAD PUSH3 0x461BCD PUSH1 0xE5 SHL DUP2 MSTORE PUSH1 0x20 PUSH1 0x4 DUP3 ADD MSTORE PUSH1 0x1F PUSH1 0x24 DUP3 ADD MSTORE PUSH32 0x44617461746F6B656E54656D706C6174653A2063617020657863656564656400 PUSH1 0x44 DUP3 ADD MSTORE PUSH1 0x64 ADD PUSH2 0x4D4 JUMP JUMPDEST PUSH2 0x61F DUP3 DUP3 PUSH2 0xE50 JUMP JUMPDEST POP POP JUMP JUMPDEST PUSH1 0xA SLOAD PUSH1 0x1 PUSH1 0x1 PUSH1 0xA0 SHL SUB AND CALLER EQ PUSH2 0x64D JUMPI PUSH1 0x40 MLOAD PUSH3 0x461BCD PUSH1 0xE5 SHL DUP2 MSTORE PUSH1 0x4 ADD PUSH2 0x4D4 SWAP1 PUSH2 0x157D JUMP JUMPDEST PUSH1 0xB DUP1 SLOAD PUSH1 0x1 PUSH1 0x1 PUSH1 0xA0 SHL SUB NOT AND PUSH1 0x1 PUSH1 0x1 PUSH1 0xA0 SHL SUB DUP4 AND SWAP1 DUP2 OR SWAP1 SWAP2 SSTORE PUSH1 0x40 DUP1 MLOAD CALLER DUP2 MSTORE PUSH1 0x20 DUP2 ADD SWAP3 SWAP1 SWAP3 MSTORE PUSH32 0xA24C529CC8B2D85B7DFB2ED0B4D7E9A816546212138B5D223BEE13481E21BE6B SWAP2 ADD PUSH1 0x40 MLOAD DUP1 SWAP2 SUB SWAP1 LOG1 POP JUMP JUMPDEST DUP2 ISZERO PUSH2 0x716 JUMPI PUSH2 0x6B8 DUP4 DUP4 PUSH2 0x94F JUMP JUMPDEST PUSH2 0x716 JUMPI PUSH1 0x40 MLOAD PUSH3 0x461BCD PUSH1 0xE5 SHL DUP2 MSTORE PUSH1 0x20 PUSH1 0x4 DUP3 ADD MSTORE PUSH1 0x29 PUSH1 0x24 DUP3 ADD MSTORE PUSH32 0x44617461746F6B656E54656D706C6174653A206661696C656420746F2066696E PUSH1 0x44 DUP3 ADD MSTORE PUSH9 0x34B9B41037B93232B9 PUSH1 0xB9 SHL PUSH1 0x64 DUP3 ADD MSTORE PUSH1 0x84 ADD PUSH2 0x4D4 JUMP JUMPDEST PUSH1 0x40 DUP1 MLOAD DUP6 DUP2 MSTORE PUSH1 0x20 DUP2 ADD DUP5 SWAP1 MSTORE SWAP1 DUP2 ADD DUP3 SWAP1 MSTORE TIMESTAMP PUSH1 0x60 DUP3 ADD MSTORE CALLER SWAP1 PUSH1 0x1 PUSH1 0x1 PUSH1 0xA0 SHL SUB DUP6 AND SWAP1 PUSH32 0x46872661D5D7765097D3A97CA99B7CBFA68B54B6D51904168974901EE607A26D SWAP1 PUSH1 0x80 ADD JUMPDEST PUSH1 0x40 MLOAD DUP1 SWAP2 SUB SWAP1 LOG3 POP POP POP POP JUMP JUMPDEST PUSH1 0x9 SLOAD PUSH1 0x0 SWAP1 PUSH1 0x1 PUSH1 0xA0 SHL SWAP1 DIV PUSH1 0xFF AND ISZERO PUSH2 0x7EC JUMPI PUSH1 0x40 MLOAD PUSH3 0x461BCD PUSH1 0xE5 SHL DUP2 MSTORE PUSH1 0x20 PUSH1 0x4 DUP3 ADD MSTORE PUSH1 0x35 PUSH1 0x24 DUP3 ADD MSTORE PUSH32 0x44617461746F6B656E54656D706C6174653A20746F6B656E20696E7374616E63 PUSH1 0x44 DUP3 ADD MSTORE PUSH21 0x1948185B1C9958591E481A5B9A5D1A585B1A5E9959 PUSH1 0x5A SHL PUSH1 0x64 DUP3 ADD MSTORE PUSH1 0x84 ADD PUSH2 0x4D4 JUMP JUMPDEST PUSH2 0x899 DUP11 DUP11 DUP1 DUP1 PUSH1 0x1F ADD PUSH1 0x20 DUP1 SWAP2 DIV MUL PUSH1 0x20 ADD PUSH1 0x40 MLOAD SWAP1 DUP2 ADD PUSH1 0x40 MSTORE DUP1 SWAP4 SWAP3 SWAP2 SWAP1 DUP2 DUP2 MSTORE PUSH1 0x20 ADD DUP4 DUP4 DUP1 DUP3 DUP5 CALLDATACOPY PUSH1 0x0 SWAP3 ADD SWAP2 SWAP1 SWAP2 MSTORE POP POP PUSH1 0x40 DUP1 MLOAD PUSH1 0x20 PUSH1 0x1F DUP15 ADD DUP2 SWAP1 DIV DUP2 MUL DUP3 ADD DUP2 ADD SWAP1 SWAP3 MSTORE DUP13 DUP2 MSTORE SWAP3 POP DUP13 SWAP2 POP DUP12 SWAP1 DUP2 SWAP1 DUP5 ADD DUP4 DUP3 DUP1 DUP3 DUP5 CALLDATACOPY PUSH1 0x0 SWAP3 ADD SWAP2 SWAP1 SWAP2 MSTORE POP POP PUSH1 0x40 DUP1 MLOAD PUSH1 0x20 PUSH1 0x1F DUP12 ADD DUP2 SWAP1 DIV DUP2 MUL DUP3 ADD DUP2 ADD SWAP1 SWAP3 MSTORE DUP10 DUP2 MSTORE DUP13 SWAP4 POP DUP12 SWAP3 POP SWAP1 DUP11 SWAP1 DUP11 SWAP1 DUP2 SWAP1 DUP5 ADD DUP4 DUP3 DUP1 DUP3 DUP5 CALLDATACOPY PUSH1 0x0 SWAP3 ADD SWAP2 SWAP1 SWAP2 MSTORE POP DUP11 SWAP3 POP PUSH2 0xF2F SWAP2 POP POP JUMP JUMPDEST SWAP11 SWAP10 POP POP POP POP POP POP POP POP POP POP JUMP JUMPDEST PUSH1 0x60 PUSH1 0x4 DUP1 SLOAD PUSH2 0x3AC SWAP1 PUSH2 0x14F2 JUMP JUMPDEST CALLER PUSH1 0x0 SWAP1 DUP2 MSTORE PUSH1 0x1 PUSH1 0x20 SWAP1 DUP2 MSTORE PUSH1 0x40 DUP1 DUP4 KECCAK256 PUSH1 0x1 PUSH1 0x1 PUSH1 0xA0 SHL SUB DUP7 AND DUP5 MSTORE SWAP1 SWAP2 MSTORE DUP2 KECCAK256 SLOAD DUP3 DUP2 LT ISZERO PUSH2 0x938 JUMPI PUSH1 0x40 MLOAD PUSH3 0x461BCD PUSH1 0xE5 SHL DUP2 MSTORE PUSH1 0x20 PUSH1 0x4 DUP3 ADD MSTORE PUSH1 0x25 PUSH1 0x24 DUP3 ADD MSTORE PUSH32 0x45524332303A2064656372656173656420616C6C6F77616E63652062656C6F77 PUSH1 0x44 DUP3 ADD MSTORE PUSH5 0x207A65726F PUSH1 0xD8 SHL PUSH1 0x64 DUP3 ADD MSTORE PUSH1 0x84 ADD PUSH2 0x4D4 JUMP JUMPDEST PUSH2 0x945 CALLER DUP6 DUP6 DUP5 SUB PUSH2 0xB47 JUMP JUMPDEST POP PUSH1 0x1 SWAP4 SWAP3 POP POP POP JUMP JUMPDEST PUSH1 0x0 PUSH2 0x43C CALLER DUP5 DUP5 PUSH2 0xC6B JUMP JUMPDEST PUSH1 0x0 DUP1 PUSH2 0x977 DUP6 PUSH2 0x239 PUSH2 0x3E8 PUSH8 0xDE0B6B3A7640000 PUSH2 0x1543 JUMP JUMPDEST PUSH1 0x9 SLOAD SWAP1 SWAP2 POP PUSH2 0x990 SWAP1 PUSH1 0x1 PUSH1 0x1 PUSH1 0xA0 SHL SUB AND DUP3 PUSH2 0x94F JUMP JUMPDEST POP PUSH1 0x1 PUSH1 0x1 PUSH1 0xA0 SHL SUB DUP4 AND ISZERO PUSH2 0x9C6 JUMPI PUSH2 0x9B8 DUP6 PUSH2 0x239 PUSH2 0x3E8 PUSH8 0xDE0B6B3A7640000 PUSH2 0x1543 JUMP JUMPDEST SWAP2 POP PUSH2 0x9C4 DUP4 DUP4 PUSH2 0x94F JUMP JUMPDEST POP JUMPDEST PUSH1 0x0 PUSH2 0x9D2 DUP3 DUP5 PUSH2 0xE44 JUMP JUMPDEST PUSH1 0xA SLOAD SWAP1 SWAP2 POP PUSH2 0x9EF SWAP1 PUSH1 0x1 PUSH1 0x1 PUSH1 0xA0 SHL SUB AND PUSH2 0x30B DUP9 DUP5 PUSH2 0x1175 JUMP JUMPDEST POP PUSH1 0x40 DUP1 MLOAD DUP8 DUP2 MSTORE PUSH1 0x20 DUP2 ADD DUP8 SWAP1 MSTORE TIMESTAMP DUP2 DUP4 ADD MSTORE PUSH1 0x60 DUP2 ADD DUP6 SWAP1 MSTORE SWAP1 MLOAD PUSH1 0x1 PUSH1 0x1 PUSH1 0xA0 SHL SUB DUP7 DUP2 AND SWAP3 CALLER SWAP3 SWAP2 DUP12 AND SWAP2 PUSH32 0xE1C4FA794EDFA8F619B8257A077398950357B9C6398528F94480307352F9AFCC SWAP2 DUP2 SWAP1 SUB PUSH1 0x80 ADD SWAP1 LOG4 POP POP POP POP POP POP POP JUMP JUMPDEST PUSH1 0xB SLOAD PUSH1 0x1 PUSH1 0x1 PUSH1 0xA0 SHL SUB AND CALLER EQ PUSH2 0xAC6 JUMPI PUSH1 0x40 MLOAD PUSH3 0x461BCD PUSH1 0xE5 SHL DUP2 MSTORE PUSH1 0x20 PUSH1 0x4 DUP3 ADD MSTORE PUSH1 0x32 PUSH1 0x24 DUP3 ADD MSTORE PUSH32 0x44617461746F6B656E54656D706C6174653A20696E76616C69642070726F706F PUSH1 0x44 DUP3 ADD MSTORE PUSH18 0x736564206D696E7465722061646472657373 PUSH1 0x70 SHL PUSH1 0x64 DUP3 ADD MSTORE PUSH1 0x84 ADD PUSH2 0x4D4 JUMP JUMPDEST PUSH1 0xA SLOAD PUSH1 0xB SLOAD PUSH1 0x40 DUP1 MLOAD PUSH1 0x1 PUSH1 0x1 PUSH1 0xA0 SHL SUB SWAP4 DUP5 AND DUP2 MSTORE SWAP3 SWAP1 SWAP2 AND PUSH1 0x20 DUP4 ADD MSTORE PUSH32 0x96AB0400119A548D3CC4C74E857D0D9C427FE9DF20D3D0D99AF10CC292E6C886 SWAP2 ADD PUSH1 0x40 MLOAD DUP1 SWAP2 SUB SWAP1 LOG1 PUSH1 0xB DUP1 SLOAD PUSH1 0xA DUP1 SLOAD PUSH1 0x1 PUSH1 0x1 PUSH1 0xA0 SHL SUB NOT SWAP1 DUP2 AND PUSH1 0x1 PUSH1 0x1 PUSH1 0xA0 SHL SUB DUP5 AND OR SWAP1 SWAP2 SSTORE AND SWAP1 SSTORE JUMP JUMPDEST PUSH1 0x60 PUSH1 0x7 DUP1 SLOAD PUSH2 0x3AC SWAP1 PUSH2 0x14F2 JUMP JUMPDEST PUSH1 0x1 PUSH1 0x1 PUSH1 0xA0 SHL SUB DUP4 AND PUSH2 0xBA9 JUMPI PUSH1 0x40 MLOAD PUSH3 0x461BCD PUSH1 0xE5 SHL DUP2 MSTORE PUSH1 0x20 PUSH1 0x4 DUP3 ADD MSTORE PUSH1 0x24 DUP1 DUP3 ADD MSTORE PUSH32 0x45524332303A20617070726F76652066726F6D20746865207A65726F20616464 PUSH1 0x44 DUP3 ADD MSTORE PUSH4 0x72657373 PUSH1 0xE0 SHL PUSH1 0x64 DUP3 ADD MSTORE PUSH1 0x84 ADD PUSH2 0x4D4 JUMP JUMPDEST PUSH1 0x1 PUSH1 0x1 PUSH1 0xA0 SHL SUB DUP3 AND PUSH2 0xC0A JUMPI PUSH1 0x40 MLOAD PUSH3 0x461BCD PUSH1 0xE5 SHL DUP2 MSTORE PUSH1 0x20 PUSH1 0x4 DUP3 ADD MSTORE PUSH1 0x22 PUSH1 0x24 DUP3 ADD MSTORE PUSH32 0x45524332303A20617070726F766520746F20746865207A65726F206164647265 PUSH1 0x44 DUP3 ADD MSTORE PUSH2 0x7373 PUSH1 0xF0 SHL PUSH1 0x64 DUP3 ADD MSTORE PUSH1 0x84 ADD PUSH2 0x4D4 JUMP JUMPDEST PUSH1 0x1 PUSH1 0x1 PUSH1 0xA0 SHL SUB DUP4 DUP2 AND PUSH1 0x0 DUP2 DUP2 MSTORE PUSH1 0x1 PUSH1 0x20 SWAP1 DUP2 MSTORE PUSH1 0x40 DUP1 DUP4 KECCAK256 SWAP5 DUP8 AND DUP1 DUP5 MSTORE SWAP5 DUP3 MSTORE SWAP2 DUP3 SWAP1 KECCAK256 DUP6 SWAP1 SSTORE SWAP1 MLOAD DUP5 DUP2 MSTORE PUSH32 0x8C5BE1E5EBEC7D5BD14F71427D1E84F3DD0314C0F7B2291E5B200AC8C7C3B925 SWAP2 ADD PUSH1 0x40 MLOAD DUP1 SWAP2 SUB SWAP1 LOG3 POP POP POP JUMP JUMPDEST PUSH1 0x1 PUSH1 0x1 PUSH1 0xA0 SHL SUB DUP4 AND PUSH2 0xCCF JUMPI PUSH1 0x40 MLOAD PUSH3 0x461BCD PUSH1 0xE5 SHL DUP2 MSTORE PUSH1 0x20 PUSH1 0x4 DUP3 ADD MSTORE PUSH1 0x25 PUSH1 0x24 DUP3 ADD MSTORE PUSH32 0x45524332303A207472616E736665722066726F6D20746865207A65726F206164 PUSH1 0x44 DUP3 ADD MSTORE PUSH5 0x6472657373 PUSH1 0xD8 SHL PUSH1 0x64 DUP3 ADD MSTORE PUSH1 0x84 ADD PUSH2 0x4D4 JUMP JUMPDEST PUSH1 0x1 PUSH1 0x1 PUSH1 0xA0 SHL SUB DUP3 AND PUSH2 0xD31 JUMPI PUSH1 0x40 MLOAD PUSH3 0x461BCD PUSH1 0xE5 SHL DUP2 MSTORE PUSH1 0x20 PUSH1 0x4 DUP3 ADD MSTORE PUSH1 0x23 PUSH1 0x24 DUP3 ADD MSTORE PUSH32 0x45524332303A207472616E7366657220746F20746865207A65726F2061646472 PUSH1 0x44 DUP3 ADD MSTORE PUSH3 0x657373 PUSH1 0xE8 SHL PUSH1 0x64 DUP3 ADD MSTORE PUSH1 0x84 ADD PUSH2 0x4D4 JUMP JUMPDEST PUSH1 0x1 PUSH1 0x1 PUSH1 0xA0 SHL SUB DUP4 AND PUSH1 0x0 SWAP1 DUP2 MSTORE PUSH1 0x20 DUP2 SWAP1 MSTORE PUSH1 0x40 SWAP1 KECCAK256 SLOAD DUP2 DUP2 LT ISZERO PUSH2 0xDA9 JUMPI PUSH1 0x40 MLOAD PUSH3 0x461BCD PUSH1 0xE5 SHL DUP2 MSTORE PUSH1 0x20 PUSH1 0x4 DUP3 ADD MSTORE PUSH1 0x26 PUSH1 0x24 DUP3 ADD MSTORE PUSH32 0x45524332303A207472616E7366657220616D6F756E7420657863656564732062 PUSH1 0x44 DUP3 ADD MSTORE PUSH6 0x616C616E6365 PUSH1 0xD0 SHL PUSH1 0x64 DUP3 ADD MSTORE PUSH1 0x84 ADD PUSH2 0x4D4 JUMP JUMPDEST PUSH1 0x1 PUSH1 0x1 PUSH1 0xA0 SHL SUB DUP1 DUP6 AND PUSH1 0x0 SWAP1 DUP2 MSTORE PUSH1 0x20 DUP2 SWAP1 MSTORE PUSH1 0x40 DUP1 DUP3 KECCAK256 DUP6 DUP6 SUB SWAP1 SSTORE SWAP2 DUP6 AND DUP2 MSTORE SWAP1 DUP2 KECCAK256 DUP1 SLOAD DUP5 SWAP3 SWAP1 PUSH2 0xDE0 SWAP1 DUP5 SWAP1 PUSH2 0x1565 JUMP JUMPDEST SWAP3 POP POP DUP2 SWAP1 SSTORE POP DUP3 PUSH1 0x1 PUSH1 0x1 PUSH1 0xA0 SHL SUB AND DUP5 PUSH1 0x1 PUSH1 0x1 PUSH1 0xA0 SHL SUB AND PUSH32 0xDDF252AD1BE2C89B69C2B068FC378DAA952BA7F163C4A11628F55A4DF523B3EF DUP5 PUSH1 0x40 MLOAD PUSH2 0x763 SWAP2 DUP2 MSTORE PUSH1 0x20 ADD SWAP1 JUMP JUMPDEST PUSH1 0x0 PUSH2 0x544 DUP3 DUP5 PUSH2 0x15BE JUMP JUMPDEST PUSH1 0x0 PUSH2 0x544 DUP3 DUP5 PUSH2 0x1543 JUMP JUMPDEST PUSH1 0x0 PUSH2 0x544 DUP3 DUP5 PUSH2 0x1565 JUMP JUMPDEST PUSH1 0x1 PUSH1 0x1 PUSH1 0xA0 SHL SUB DUP3 AND PUSH2 0xEA6 JUMPI PUSH1 0x40 MLOAD PUSH3 0x461BCD PUSH1 0xE5 SHL DUP2 MSTORE PUSH1 0x20 PUSH1 0x4 DUP3 ADD MSTORE PUSH1 0x1F PUSH1 0x24 DUP3 ADD MSTORE PUSH32 0x45524332303A206D696E7420746F20746865207A65726F206164647265737300 PUSH1 0x44 DUP3 ADD MSTORE PUSH1 0x64 ADD PUSH2 0x4D4 JUMP JUMPDEST DUP1 PUSH1 0x2 PUSH1 0x0 DUP3 DUP3 SLOAD PUSH2 0xEB8 SWAP2 SWAP1 PUSH2 0x1565 JUMP JUMPDEST SWAP1 SWAP2 SSTORE POP POP PUSH1 0x1 PUSH1 0x1 PUSH1 0xA0 SHL SUB DUP3 AND PUSH1 0x0 SWAP1 DUP2 MSTORE PUSH1 0x20 DUP2 SWAP1 MSTORE PUSH1 0x40 DUP2 KECCAK256 DUP1 SLOAD DUP4 SWAP3 SWAP1 PUSH2 0xEE5 SWAP1 DUP5 SWAP1 PUSH2 0x1565 JUMP JUMPDEST SWAP1 SWAP2 SSTORE POP POP PUSH1 0x40 MLOAD DUP2 DUP2 MSTORE PUSH1 0x1 PUSH1 0x1 PUSH1 0xA0 SHL SUB DUP4 AND SWAP1 PUSH1 0x0 SWAP1 PUSH32 0xDDF252AD1BE2C89B69C2B068FC378DAA952BA7F163C4A11628F55A4DF523B3EF SWAP1 PUSH1 0x20 ADD PUSH1 0x40 MLOAD DUP1 SWAP2 SUB SWAP1 LOG3 POP POP JUMP JUMPDEST PUSH1 0x0 PUSH1 0x1 PUSH1 0x1 PUSH1 0xA0 SHL SUB DUP6 AND PUSH2 0xFA0 JUMPI PUSH1 0x40 MLOAD PUSH3 0x461BCD PUSH1 0xE5 SHL DUP2 MSTORE PUSH1 0x20 PUSH1 0x4 DUP3 ADD MSTORE PUSH1 0x30 PUSH1 0x24 DUP3 ADD MSTORE PUSH32 0x44617461746F6B656E54656D706C6174653A20496E76616C6964206D696E7465 PUSH1 0x44 DUP3 ADD MSTORE PUSH16 0x722C20207A65726F2061646472657373 PUSH1 0x80 SHL PUSH1 0x64 DUP3 ADD MSTORE PUSH1 0x84 ADD PUSH2 0x4D4 JUMP JUMPDEST PUSH1 0xA SLOAD PUSH1 0x1 PUSH1 0x1 PUSH1 0xA0 SHL SUB AND ISZERO PUSH2 0x1011 JUMPI PUSH1 0x40 MLOAD PUSH3 0x461BCD PUSH1 0xE5 SHL DUP2 MSTORE PUSH1 0x20 PUSH1 0x4 DUP3 ADD MSTORE PUSH1 0x2F PUSH1 0x24 DUP3 ADD MSTORE PUSH32 0x44617461746F6B656E54656D706C6174653A20496E76616C6964206D696E7465 PUSH1 0x44 DUP3 ADD MSTORE PUSH15 0x722C207A65726F2061646472657373 PUSH1 0x88 SHL PUSH1 0x64 DUP3 ADD MSTORE PUSH1 0x84 ADD PUSH2 0x4D4 JUMP JUMPDEST PUSH1 0x1 PUSH1 0x1 PUSH1 0xA0 SHL SUB DUP3 AND PUSH2 0x108F JUMPI PUSH1 0x40 DUP1 MLOAD PUSH3 0x461BCD PUSH1 0xE5 SHL DUP2 MSTORE PUSH1 0x20 PUSH1 0x4 DUP3 ADD MSTORE PUSH1 0x24 DUP2 ADD SWAP2 SWAP1 SWAP2 MSTORE PUSH32 0x44617461746F6B656E54656D706C6174653A20496E76616C696420636F6D6D75 PUSH1 0x44 DUP3 ADD MSTORE PUSH32 0x6E6974792066656520636F6C6C6563746F722C207A65726F2061646472657373 PUSH1 0x64 DUP3 ADD MSTORE PUSH1 0x84 ADD PUSH2 0x4D4 JUMP JUMPDEST DUP4 PUSH2 0x10E8 JUMPI PUSH1 0x40 MLOAD PUSH3 0x461BCD PUSH1 0xE5 SHL DUP2 MSTORE PUSH1 0x20 PUSH1 0x4 DUP3 ADD MSTORE PUSH1 0x24 DUP1 DUP3 ADD MSTORE PUSH32 0x44617461746F6B656E54656D706C6174653A20496E76616C6964206361702076 PUSH1 0x44 DUP3 ADD MSTORE PUSH4 0x616C7565 PUSH1 0xE0 SHL PUSH1 0x64 DUP3 ADD MSTORE PUSH1 0x84 ADD PUSH2 0x4D4 JUMP JUMPDEST PUSH1 0x8 DUP5 SWAP1 SSTORE DUP7 MLOAD PUSH2 0x1100 SWAP1 PUSH1 0x5 SWAP1 PUSH1 0x20 DUP11 ADD SWAP1 PUSH2 0x1181 JUMP JUMPDEST POP DUP3 MLOAD PUSH2 0x1114 SWAP1 PUSH1 0x7 SWAP1 PUSH1 0x20 DUP7 ADD SWAP1 PUSH2 0x1181 JUMP JUMPDEST POP DUP6 MLOAD PUSH2 0x1128 SWAP1 PUSH1 0x6 SWAP1 PUSH1 0x20 DUP10 ADD SWAP1 PUSH2 0x1181 JUMP JUMPDEST POP POP PUSH1 0xA DUP1 SLOAD PUSH1 0x1 PUSH1 0x1 PUSH1 0xA0 SHL SUB SWAP6 DUP7 AND PUSH1 0x1 PUSH1 0x1 PUSH1 0xA0 SHL SUB NOT SWAP1 SWAP2 AND OR SWAP1 SSTORE PUSH1 0x9 DUP1 SLOAD PUSH1 0x1 PUSH1 0x1 PUSH1 0xA8 SHL SUB NOT AND SWAP2 SWAP1 SWAP5 AND OR PUSH1 0x1 PUSH1 0xA0 SHL SWAP1 DUP2 OR SWAP4 DUP5 SWAP1 SSTORE SWAP1 SWAP3 DIV PUSH1 0xFF AND SWAP5 SWAP4 POP POP POP POP JUMP JUMPDEST PUSH1 0x0 PUSH2 0x544 DUP3 DUP5 PUSH2 0x15DD JUMP JUMPDEST DUP3 DUP1 SLOAD PUSH2 0x118D SWAP1 PUSH2 0x14F2 JUMP JUMPDEST SWAP1 PUSH1 0x0 MSTORE PUSH1 0x20 PUSH1 0x0 KECCAK256 SWAP1 PUSH1 0x1F ADD PUSH1 0x20 SWAP1 DIV DUP2 ADD SWAP3 DUP3 PUSH2 0x11AF JUMPI PUSH1 0x0 DUP6 SSTORE PUSH2 0x11F5 JUMP JUMPDEST DUP3 PUSH1 0x1F LT PUSH2 0x11C8 JUMPI DUP1 MLOAD PUSH1 0xFF NOT AND DUP4 DUP1 ADD OR DUP6 SSTORE PUSH2 0x11F5 JUMP JUMPDEST DUP3 DUP1 ADD PUSH1 0x1 ADD DUP6 SSTORE DUP3 ISZERO PUSH2 0x11F5 JUMPI SWAP2 DUP3 ADD JUMPDEST DUP3 DUP2 GT ISZERO PUSH2 0x11F5 JUMPI DUP3 MLOAD DUP3 SSTORE SWAP2 PUSH1 0x20 ADD SWAP2 SWAP1 PUSH1 0x1 ADD SWAP1 PUSH2 0x11DA JUMP JUMPDEST POP PUSH2 0x1201 SWAP3 SWAP2 POP PUSH2 0x1205 JUMP JUMPDEST POP SWAP1 JUMP JUMPDEST JUMPDEST DUP1 DUP3 GT ISZERO PUSH2 0x1201 JUMPI PUSH1 0x0 DUP2 SSTORE PUSH1 0x1 ADD PUSH2 0x1206 JUMP JUMPDEST PUSH1 0x0 PUSH1 0x20 DUP1 DUP4 MSTORE DUP4 MLOAD DUP1 DUP3 DUP6 ADD MSTORE PUSH1 0x0 JUMPDEST DUP2 DUP2 LT ISZERO PUSH2 0x1247 JUMPI DUP6 DUP2 ADD DUP4 ADD MLOAD DUP6 DUP3 ADD PUSH1 0x40 ADD MSTORE DUP3 ADD PUSH2 0x122B JUMP JUMPDEST DUP2 DUP2 GT ISZERO PUSH2 0x1259 JUMPI PUSH1 0x0 PUSH1 0x40 DUP4 DUP8 ADD ADD MSTORE JUMPDEST POP PUSH1 0x1F ADD PUSH1 0x1F NOT AND SWAP3 SWAP1 SWAP3 ADD PUSH1 0x40 ADD SWAP4 SWAP3 POP POP POP JUMP JUMPDEST DUP1 CALLDATALOAD PUSH1 0x1 PUSH1 0x1 PUSH1 0xA0 SHL SUB DUP2 AND DUP2 EQ PUSH2 0x1286 JUMPI PUSH1 0x0 DUP1 REVERT JUMPDEST SWAP2 SWAP1 POP JUMP JUMPDEST PUSH1 0x0 DUP1 PUSH1 0x40 DUP4 DUP6 SUB SLT ISZERO PUSH2 0x129E JUMPI PUSH1 0x0 DUP1 REVERT JUMPDEST PUSH2 0x12A7 DUP4 PUSH2 0x126F JUMP JUMPDEST SWAP5 PUSH1 0x20 SWAP4 SWAP1 SWAP4 ADD CALLDATALOAD SWAP4 POP POP POP JUMP JUMPDEST PUSH1 0x0 DUP1 PUSH1 0x0 PUSH1 0x60 DUP5 DUP7 SUB SLT ISZERO PUSH2 0x12CA JUMPI PUSH1 0x0 DUP1 REVERT JUMPDEST PUSH2 0x12D3 DUP5 PUSH2 0x126F JUMP JUMPDEST SWAP3 POP PUSH2 0x12E1 PUSH1 0x20 DUP6 ADD PUSH2 0x126F JUMP JUMPDEST SWAP2 POP PUSH1 0x40 DUP5 ADD CALLDATALOAD SWAP1 POP SWAP3 POP SWAP3 POP SWAP3 JUMP JUMPDEST PUSH1 0x0 DUP1 PUSH1 0x40 DUP4 DUP6 SUB SLT ISZERO PUSH2 0x1304 JUMPI PUSH1 0x0 DUP1 REVERT JUMPDEST POP POP DUP1 CALLDATALOAD SWAP3 PUSH1 0x20 SWAP1 SWAP2 ADD CALLDATALOAD SWAP2 POP JUMP JUMPDEST PUSH1 0x0 PUSH1 0x20 DUP3 DUP5 SUB SLT ISZERO PUSH2 0x1325 JUMPI PUSH1 0x0 DUP1 REVERT JUMPDEST PUSH2 0x544 DUP3 PUSH2 0x126F JUMP JUMPDEST PUSH1 0x0 DUP1 PUSH1 0x0 DUP1 PUSH1 0x80 DUP6 DUP8 SUB SLT ISZERO PUSH2 0x1344 JUMPI PUSH1 0x0 DUP1 REVERT JUMPDEST DUP5 CALLDATALOAD SWAP4 POP PUSH2 0x1354 PUSH1 0x20 DUP7 ADD PUSH2 0x126F JUMP JUMPDEST SWAP4 SWAP7 SWAP4 SWAP6 POP POP POP POP PUSH1 0x40 DUP3 ADD CALLDATALOAD SWAP2 PUSH1 0x60 ADD CALLDATALOAD SWAP1 JUMP JUMPDEST PUSH1 0x0 DUP1 DUP4 PUSH1 0x1F DUP5 ADD SLT PUSH2 0x137B JUMPI PUSH1 0x0 DUP1 REVERT JUMPDEST POP DUP2 CALLDATALOAD PUSH8 0xFFFFFFFFFFFFFFFF DUP2 GT ISZERO PUSH2 0x1393 JUMPI PUSH1 0x0 DUP1 REVERT JUMPDEST PUSH1 0x20 DUP4 ADD SWAP2 POP DUP4 PUSH1 0x20 DUP3 DUP6 ADD ADD GT ISZERO PUSH2 0x13AB JUMPI PUSH1 0x0 DUP1 REVERT JUMPDEST SWAP3 POP SWAP3 SWAP1 POP JUMP JUMPDEST PUSH1 0x0 DUP1 PUSH1 0x0 DUP1 PUSH1 0x0 DUP1 PUSH1 0x0 DUP1 PUSH1 0x0 PUSH1 0xC0 DUP11 DUP13 SUB SLT ISZERO PUSH2 0x13D0 JUMPI PUSH1 0x0 DUP1 REVERT JUMPDEST DUP10 CALLDATALOAD PUSH8 0xFFFFFFFFFFFFFFFF DUP1 DUP3 GT ISZERO PUSH2 0x13E8 JUMPI PUSH1 0x0 DUP1 REVERT JUMPDEST PUSH2 0x13F4 DUP14 DUP4 DUP15 ADD PUSH2 0x1369 JUMP JUMPDEST SWAP1 SWAP12 POP SWAP10 POP PUSH1 0x20 DUP13 ADD CALLDATALOAD SWAP2 POP DUP1 DUP3 GT ISZERO PUSH2 0x140D JUMPI PUSH1 0x0 DUP1 REVERT JUMPDEST PUSH2 0x1419 DUP14 DUP4 DUP15 ADD PUSH2 0x1369 JUMP JUMPDEST SWAP1 SWAP10 POP SWAP8 POP DUP8 SWAP2 POP PUSH2 0x142D PUSH1 0x40 DUP14 ADD PUSH2 0x126F JUMP JUMPDEST SWAP7 POP PUSH1 0x60 DUP13 ADD CALLDATALOAD SWAP6 POP PUSH1 0x80 DUP13 ADD CALLDATALOAD SWAP2 POP DUP1 DUP3 GT ISZERO PUSH2 0x144A JUMPI PUSH1 0x0 DUP1 REVERT JUMPDEST POP PUSH2 0x1457 DUP13 DUP3 DUP14 ADD PUSH2 0x1369 JUMP JUMPDEST SWAP1 SWAP5 POP SWAP3 POP PUSH2 0x146A SWAP1 POP PUSH1 0xA0 DUP12 ADD PUSH2 0x126F JUMP JUMPDEST SWAP1 POP SWAP3 SWAP6 SWAP9 POP SWAP3 SWAP6 SWAP9 POP SWAP3 SWAP6 SWAP9 JUMP JUMPDEST PUSH1 0x0 DUP1 PUSH1 0x0 DUP1 PUSH1 0x80 DUP6 DUP8 SUB SLT ISZERO PUSH2 0x148F JUMPI PUSH1 0x0 DUP1 REVERT JUMPDEST PUSH2 0x1498 DUP6 PUSH2 0x126F JUMP JUMPDEST SWAP4 POP PUSH1 0x20 DUP6 ADD CALLDATALOAD SWAP3 POP PUSH1 0x40 DUP6 ADD CALLDATALOAD SWAP2 POP PUSH2 0x14B4 PUSH1 0x60 DUP7 ADD PUSH2 0x126F JUMP JUMPDEST SWAP1 POP SWAP3 SWAP6 SWAP2 SWAP5 POP SWAP3 POP JUMP JUMPDEST PUSH1 0x0 DUP1 PUSH1 0x40 DUP4 DUP6 SUB SLT ISZERO PUSH2 0x14D2 JUMPI PUSH1 0x0 DUP1 REVERT JUMPDEST PUSH2 0x14DB DUP4 PUSH2 0x126F JUMP JUMPDEST SWAP2 POP PUSH2 0x14E9 PUSH1 0x20 DUP5 ADD PUSH2 0x126F JUMP JUMPDEST SWAP1 POP SWAP3 POP SWAP3 SWAP1 POP JUMP JUMPDEST PUSH1 0x1 DUP2 DUP2 SHR SWAP1 DUP3 AND DUP1 PUSH2 0x1506 JUMPI PUSH1 0x7F DUP3 AND SWAP2 POP JUMPDEST PUSH1 0x20 DUP3 LT DUP2 EQ ISZERO PUSH2 0x1527 JUMPI PUSH4 0x4E487B71 PUSH1 0xE0 SHL PUSH1 0x0 MSTORE PUSH1 0x22 PUSH1 0x4 MSTORE PUSH1 0x24 PUSH1 0x0 REVERT JUMPDEST POP SWAP2 SWAP1 POP JUMP JUMPDEST PUSH4 0x4E487B71 PUSH1 0xE0 SHL PUSH1 0x0 MSTORE PUSH1 0x11 PUSH1 0x4 MSTORE PUSH1 0x24 PUSH1 0x0 REVERT JUMPDEST PUSH1 0x0 DUP3 PUSH2 0x1560 JUMPI PUSH4 0x4E487B71 PUSH1 0xE0 SHL PUSH1 0x0 MSTORE PUSH1 0x12 PUSH1 0x4 MSTORE PUSH1 0x24 PUSH1 0x0 REVERT JUMPDEST POP DIV SWAP1 JUMP JUMPDEST PUSH1 0x0 DUP3 NOT DUP3 GT ISZERO PUSH2 0x1578 JUMPI PUSH2 0x1578 PUSH2 0x152D JUMP JUMPDEST POP ADD SWAP1 JUMP JUMPDEST PUSH1 0x20 DUP1 DUP3 MSTORE PUSH1 0x21 SWAP1 DUP3 ADD MSTORE PUSH32 0x44617461746F6B656E54656D706C6174653A20696E76616C6964206D696E7465 PUSH1 0x40 DUP3 ADD MSTORE PUSH1 0x39 PUSH1 0xF9 SHL PUSH1 0x60 DUP3 ADD MSTORE PUSH1 0x80 ADD SWAP1 JUMP JUMPDEST PUSH1 0x0 DUP2 PUSH1 0x0 NOT DIV DUP4 GT DUP3 ISZERO ISZERO AND ISZERO PUSH2 0x15D8 JUMPI PUSH2 0x15D8 PUSH2 0x152D JUMP JUMPDEST POP MUL SWAP1 JUMP JUMPDEST PUSH1 0x0 DUP3 DUP3 LT ISZERO PUSH2 0x15EF JUMPI PUSH2 0x15EF PUSH2 0x152D JUMP JUMPDEST POP SUB SWAP1 JUMP INVALID LOG2 PUSH5 0x6970667358 0x22 SLT KECCAK256 0xAC EXP 0xC 0xA7 0xD1 MSTORE8 0xE4 0xBD 0xBF DUP8 0x2D SWAP16 CALLVALUE 0xDA 0xE9 0xC9 0x5F 0xE9 DUP7 0xE3 SGT 0xE5 PUSH3 0x75C465 0x4F 0x2A 0xC3 PUSH23 0xC3A464736F6C634300080C003300000000000000000000 ",
  "sha1": "e80737c12249b08826b4a93b0aa6ae1ec2ff7e0f",
  "source": "pragma solidity 0.8.12;\n// Copyright BigchainDB GmbH and Ocean Protocol contributors\n// SPDX-License-Identifier: (Apache-2.0 AND CC-BY-4.0)\n// Code is Apache-2.0 and docs are CC-BY-4.0\n\n//import '../interfaces/IERC20Template.sol';\nimport \"OpenZeppelin/openzeppelin-contracts@4.2.0/contracts/token/ERC20/ERC20.sol\";\nimport \"OpenZeppelin/openzeppelin-contracts@4.2.0/contracts/utils/math/SafeMath.sol\";\n\n/**\n* @title DatatokenTemplate\n*  \n* @dev DatatokenTemplate is an ERC20 compliant token template\n*      Used by the factory contract as a bytecode reference to \n*      deploy new Datatokens.\n*/\ncontract MockOldDT is ERC20('Test','TESTSYMBOL') {\n    using SafeMath for uint256;\n\n    string  private _name = 'MOCKV3DT';\n    string  private _symbol = 'V3DT';\n    string  private _blob = 'blob';\n    uint256 private _cap = 1e21;\n    uint8 private constant _decimals = 18;\n    address private _communityFeeCollector = address(0);\n    bool    private initialized = false;\n    address private _minter;\n    address private _proposedMinter;\n    uint256 public constant BASE = 10**18;\n    uint256 public constant BASE_COMMUNITY_FEE_PERCENTAGE = BASE / 1000;\n    uint256 public constant BASE_MARKET_FEE_PERCENTAGE = BASE / 1000;\n\n    event OrderStarted(\n            address indexed consumer,\n            address indexed payer,\n            uint256 amount, \n            uint256 serviceId, \n            uint256 timestamp,\n            address indexed mrktFeeCollector,\n            uint256 marketFee\n    );\n\n    event OrderFinished(\n            bytes32 orderTxId, \n            address indexed consumer,\n            uint256 amount, \n            uint256 serviceId, \n            address indexed provider,\n            uint256 timestamp\n    );\n\n    event MinterProposed(\n        address currentMinter,\n        address newMinter\n    );\n\n    event MinterApproved(\n        address currentMinter,\n        address newMinter\n    );\n\n    modifier onlyNotInitialized() {\n        require(\n            !initialized,\n            'DatatokenTemplate: token instance already initialized'\n        );\n        _;\n    }\n    \n    modifier onlyMinter() {\n        require(\n            msg.sender == _minter,\n            'DatatokenTemplate: invalid minter' \n        );\n        _;\n    }\n\n    constructor() \n        \n    {\n        _initialize(\n            _name,\n            _symbol,\n            msg.sender,\n            _cap,\n            _blob,\n            msg.sender\n        );\n    }\n    \n   \n    function initialize(\n        string calldata name,\n        string calldata symbol,\n        address minterAddress,\n        uint256 cap_,\n        string calldata blob_,\n        address feeCollector\n    ) \n        external\n        onlyNotInitialized\n        returns(bool)\n    {\n        return _initialize(\n            name,\n            symbol,\n            minterAddress,\n            cap_,\n            blob_,\n            feeCollector\n        );\n    }\n\n   \n    function _initialize(\n        string memory name,\n        string memory symbol,\n        address minterAddress,\n        uint256 cap_,\n        string memory blob_,\n        address feeCollector\n    )\n        private\n        returns(bool)\n    {\n        require(\n            minterAddress != address(0), \n            'DatatokenTemplate: Invalid minter,  zero address'\n        );\n\n        require(\n            _minter == address(0), \n            'DatatokenTemplate: Invalid minter, zero address'\n        );\n\n        require(\n            feeCollector != address(0),\n            'DatatokenTemplate: Invalid community fee collector, zero address'\n        );\n\n        require(\n            cap_ != 0,\n            'DatatokenTemplate: Invalid cap value'\n        );\n        _cap = cap_;\n        _name = name;\n        _blob = blob_;\n        _symbol = symbol;\n        _minter = minterAddress;\n        _communityFeeCollector = feeCollector;\n        initialized = true;\n        return initialized;\n    }\n\n   \n    function mint(\n        address account,\n        uint256 value\n    ) \n        external  \n        onlyMinter \n    {\n        require(\n            totalSupply().add(value) <= _cap, \n            'DatatokenTemplate: cap exceeded'\n        );\n        _mint(account, value);\n    }\n\n    function startOrder(\n        address consumer,\n        uint256 amount,\n        uint256 serviceId,\n        address mrktFeeCollector\n    )\n        external\n    {\n        uint256 marketFee = 0;\n        uint256 communityFee = calculateFee(\n            amount, \n            BASE_COMMUNITY_FEE_PERCENTAGE\n        );\n        transfer(_communityFeeCollector, communityFee);\n        if(mrktFeeCollector != address(0)){\n            marketFee = calculateFee(\n                amount, \n                BASE_MARKET_FEE_PERCENTAGE\n            );\n            transfer(mrktFeeCollector, marketFee);\n        }\n        uint256 totalFee = communityFee.add(marketFee);\n        transfer(_minter, amount.sub(totalFee));\n        emit OrderStarted(\n            consumer,\n            msg.sender,\n            amount,\n            serviceId,\n            /* solium-disable-next-line */\n            block.timestamp,\n            mrktFeeCollector,\n            marketFee\n        );\n    }\n\n    \n    function finishOrder(\n        bytes32 orderTxId, \n        address consumer, \n        uint256 amount,\n        uint256 serviceId\n    )\n        external\n    {\n        if ( amount != 0 )  \n            require(\n                transfer(consumer, amount),\n                'DatatokenTemplate: failed to finish order'\n            );\n        \n        emit OrderFinished(\n            orderTxId, \n            consumer, \n            amount, \n            serviceId, \n            msg.sender,\n            /* solium-disable-next-line */\n            block.timestamp\n        );\n    }\n\n    /**\n     * @dev proposeMinter\n     *      It proposes a new token minter address.\n     *      Only the current minter can call it.\n     * @param newMinter refers to a new token minter address.\n     */\n    function proposeMinter(address newMinter) \n        external \n        onlyMinter \n    {\n        _proposedMinter = newMinter;\n        emit MinterProposed(\n            msg.sender,\n            _proposedMinter\n        );\n    }\n\n    /**\n     * @dev approveMinter\n     *      It approves a new token minter address.\n     *      Only the current minter can call it.\n     */\n    function approveMinter()\n        external\n    {\n        require(\n            msg.sender == _proposedMinter,\n            'DatatokenTemplate: invalid proposed minter address'\n        );\n        emit MinterApproved(\n            _minter,\n            _proposedMinter\n        );\n        _minter = _proposedMinter;\n        _proposedMinter = address(0);\n    }\n\n  \n\n    /**\n     * @dev blob\n     *      It returns the blob (e.g https://123.com).\n     * @return Datatoken blob.\n     */\n    function blob() external view returns(string memory) {\n        return _blob;\n    }\n\n   \n    /**\n     * @dev cap\n     *      it returns the capital.\n     * @return Datatoken cap.\n     */\n    function cap() external view returns (uint256) {\n        return _cap;\n    }\n\n    /**\n     * @dev isMinter\n     *      It takes the address and checks whether it has a minter role.\n     * @param account refers to the address.\n     * @return true if account has a minter role.\n     */\n    function isMinter(address account) external view returns(bool) {\n        return (_minter == account);\n    } \n\n    /**\n     * @dev minter\n     * @return minter's address.\n     */\n    function minter()\n        external\n        view \n        returns(address)\n    {\n        return _minter;\n    }\n\n    /**\n     * @dev isInitialized\n     *      It checks whether the contract is initialized.\n     * @return true if the contract is initialized.\n     */ \n    function isInitialized() external view returns(bool) {\n        return initialized;\n    }\n\n    /**\n     * @dev calculateFee\n     *      giving a fee percentage, and amount it calculates the actual fee\n     * @param amount the amount of token\n     * @param feePercentage the fee percentage \n     * @return the token fee.\n     */ \n    function calculateFee(\n        uint256 amount,\n        uint256 feePercentage\n    )\n        public\n        pure\n        returns(uint256)\n    {\n        if(amount == 0) return 0;\n        if(feePercentage == 0) return 0;\n        return amount.mul(feePercentage).div(BASE);\n    }\n}",
  "sourcePath": "contracts/oceanv4/utils/mock/MockOldDT.sol",
  "type": "contract"
}