{
  "abi": [
    {
      "inputs": [],
      "stateMutability": "nonpayable",
      "type": "constructor"
    },
    {
      "inputs": [
        {
          "internalType": "address",
          "name": "_address",
          "type": "address"
        }
      ],
      "name": "check",
      "outputs": [
        {
          "internalType": "bool",
          "name": "",
          "type": "bool"
        }
      ],
      "stateMutability": "view",
      "type": "function"
    },
    {
      "inputs": [
        {
          "internalType": "address",
          "name": "",
          "type": "address"
        }
      ],
      "name": "isAllowed",
      "outputs": [
        {
          "internalType": "bool",
          "name": "",
          "type": "bool"
        }
      ],
      "stateMutability": "view",
      "type": "function"
    },
    {
      "inputs": [
        {
          "internalType": "address",
          "name": "",
          "type": "address"
        }
      ],
      "name": "isManager",
      "outputs": [
        {
          "internalType": "bool",
          "name": "",
          "type": "bool"
        }
      ],
      "stateMutability": "view",
      "type": "function"
    },
    {
      "inputs": [
        {
          "internalType": "address",
          "name": "_contract",
          "type": "address"
        },
        {
          "internalType": "bool",
          "name": "_status",
          "type": "bool"
        }
      ],
      "name": "setAllowedContract",
      "outputs": [],
      "stateMutability": "nonpayable",
      "type": "function"
    },
    {
      "inputs": [
        {
          "internalType": "address",
          "name": "_manager",
          "type": "address"
        },
        {
          "internalType": "bool",
          "name": "_status",
          "type": "bool"
        }
      ],
      "name": "setManager",
      "outputs": [],
      "stateMutability": "nonpayable",
      "type": "function"
    }
  ],
  "bytecode": "608060405234801561001057600080fd5b50336000908152602081905260409020805460ff191660011790556102a98061003a6000396000f3fe608060405234801561001057600080fd5b50600436106100575760003560e01c806355de1faf1461005c578063a5e90eee14610071578063babcc53914610084578063c23697a8146100bb578063f3ae2415146100e7575b600080fd5b61006f61006a366004610215565b61010a565b005b61006f61007f366004610215565b610184565b6100a7610092366004610251565b60016020526000908152604090205460ff1681565b604051901515815260200160405180910390f35b6100a76100c9366004610251565b6001600160a01b031660009081526001602052604090205460ff1690565b6100a76100f5366004610251565b60006020819052908152604090205460ff1681565b3360009081526020819052604090205460ff166101595760405162461bcd60e51b815260206004820152600860248201526710b6b0b730b3b2b960c11b60448201526064015b60405180910390fd5b6001600160a01b03919091166000908152600160205260409020805460ff1916911515919091179055565b3360009081526020819052604090205460ff166101ce5760405162461bcd60e51b815260206004820152600860248201526710b6b0b730b3b2b960c11b6044820152606401610150565b6001600160a01b03919091166000908152602081905260409020805460ff1916911515919091179055565b80356001600160a01b038116811461021057600080fd5b919050565b6000806040838503121561022857600080fd5b610231836101f9565b91506020830135801515811461024657600080fd5b809150509250929050565b60006020828403121561026357600080fd5b61026c826101f9565b939250505056fea2646970667358221220f63d97fdff8e2c2c6442195941e0689b847ee97d60dcd6c4dc26662c70387a0b64736f6c634300080c0033",
  "bytecodeSha1": "0c1ef754dc7804387f84d2029ea43b82d8a8c0be",
  "compiler": {
    "evm_version": "istanbul",
    "optimizer": {
      "enabled": true,
      "runs": 200
    },
    "version": "0.8.12+commit.f00d7308"
  },
  "contractName": "SmartWalletChecker",
  "language": "Solidity",
  "natspec": {
    "kind": "dev",
    "methods": {
      "check(address)": {
        "notice": "returns true is _address is whitelisted",
        "params": {
          "_address": "The address to check"
        }
      },
      "setAllowedContract(address,bool)": {
        "notice": "Sets the status of a contract to be allowed or disallowed",
        "params": {
          "_contract": "The address of the contract",
          "_status": "The status to allow the manager "
        }
      },
      "setManager(address,bool)": {
        "notice": "Sets the status of a manager",
        "params": {
          "_manager": "The address of the manager",
          "_status": "The status to allow the manager "
        }
      }
    },
    "version": 1
  },
  "opcodes": "PUSH1 0x80 PUSH1 0x40 MSTORE CALLVALUE DUP1 ISZERO PUSH2 0x10 JUMPI PUSH1 0x0 DUP1 REVERT JUMPDEST POP PUSH1 0x4 CALLDATASIZE LT PUSH2 0x57 JUMPI PUSH1 0x0 CALLDATALOAD PUSH1 0xE0 SHR DUP1 PUSH4 0x55DE1FAF EQ PUSH2 0x5C JUMPI DUP1 PUSH4 0xA5E90EEE EQ PUSH2 0x71 JUMPI DUP1 PUSH4 0xBABCC539 EQ PUSH2 0x84 JUMPI DUP1 PUSH4 0xC23697A8 EQ PUSH2 0xBB JUMPI DUP1 PUSH4 0xF3AE2415 EQ PUSH2 0xE7 JUMPI JUMPDEST PUSH1 0x0 DUP1 REVERT JUMPDEST PUSH2 0x6F PUSH2 0x6A CALLDATASIZE PUSH1 0x4 PUSH2 0x215 JUMP JUMPDEST PUSH2 0x10A JUMP JUMPDEST STOP JUMPDEST PUSH2 0x6F PUSH2 0x7F CALLDATASIZE PUSH1 0x4 PUSH2 0x215 JUMP JUMPDEST PUSH2 0x184 JUMP JUMPDEST PUSH2 0xA7 PUSH2 0x92 CALLDATASIZE PUSH1 0x4 PUSH2 0x251 JUMP JUMPDEST PUSH1 0x1 PUSH1 0x20 MSTORE PUSH1 0x0 SWAP1 DUP2 MSTORE PUSH1 0x40 SWAP1 KECCAK256 SLOAD PUSH1 0xFF AND DUP2 JUMP JUMPDEST PUSH1 0x40 MLOAD SWAP1 ISZERO ISZERO DUP2 MSTORE PUSH1 0x20 ADD PUSH1 0x40 MLOAD DUP1 SWAP2 SUB SWAP1 RETURN JUMPDEST PUSH2 0xA7 PUSH2 0xC9 CALLDATASIZE PUSH1 0x4 PUSH2 0x251 JUMP JUMPDEST PUSH1 0x1 PUSH1 0x1 PUSH1 0xA0 SHL SUB AND PUSH1 0x0 SWAP1 DUP2 MSTORE PUSH1 0x1 PUSH1 0x20 MSTORE PUSH1 0x40 SWAP1 KECCAK256 SLOAD PUSH1 0xFF AND SWAP1 JUMP JUMPDEST PUSH2 0xA7 PUSH2 0xF5 CALLDATASIZE PUSH1 0x4 PUSH2 0x251 JUMP JUMPDEST PUSH1 0x0 PUSH1 0x20 DUP2 SWAP1 MSTORE SWAP1 DUP2 MSTORE PUSH1 0x40 SWAP1 KECCAK256 SLOAD PUSH1 0xFF AND DUP2 JUMP JUMPDEST CALLER PUSH1 0x0 SWAP1 DUP2 MSTORE PUSH1 0x20 DUP2 SWAP1 MSTORE PUSH1 0x40 SWAP1 KECCAK256 SLOAD PUSH1 0xFF AND PUSH2 0x159 JUMPI PUSH1 0x40 MLOAD PUSH3 0x461BCD PUSH1 0xE5 SHL DUP2 MSTORE PUSH1 0x20 PUSH1 0x4 DUP3 ADD MSTORE PUSH1 0x8 PUSH1 0x24 DUP3 ADD MSTORE PUSH8 0x10B6B0B730B3B2B9 PUSH1 0xC1 SHL PUSH1 0x44 DUP3 ADD MSTORE PUSH1 0x64 ADD JUMPDEST PUSH1 0x40 MLOAD DUP1 SWAP2 SUB SWAP1 REVERT JUMPDEST PUSH1 0x1 PUSH1 0x1 PUSH1 0xA0 SHL SUB SWAP2 SWAP1 SWAP2 AND PUSH1 0x0 SWAP1 DUP2 MSTORE PUSH1 0x1 PUSH1 0x20 MSTORE PUSH1 0x40 SWAP1 KECCAK256 DUP1 SLOAD PUSH1 0xFF NOT AND SWAP2 ISZERO ISZERO SWAP2 SWAP1 SWAP2 OR SWAP1 SSTORE JUMP JUMPDEST CALLER PUSH1 0x0 SWAP1 DUP2 MSTORE PUSH1 0x20 DUP2 SWAP1 MSTORE PUSH1 0x40 SWAP1 KECCAK256 SLOAD PUSH1 0xFF AND PUSH2 0x1CE JUMPI PUSH1 0x40 MLOAD PUSH3 0x461BCD PUSH1 0xE5 SHL DUP2 MSTORE PUSH1 0x20 PUSH1 0x4 DUP3 ADD MSTORE PUSH1 0x8 PUSH1 0x24 DUP3 ADD MSTORE PUSH8 0x10B6B0B730B3B2B9 PUSH1 0xC1 SHL PUSH1 0x44 DUP3 ADD MSTORE PUSH1 0x64 ADD PUSH2 0x150 JUMP JUMPDEST PUSH1 0x1 PUSH1 0x1 PUSH1 0xA0 SHL SUB SWAP2 SWAP1 SWAP2 AND PUSH1 0x0 SWAP1 DUP2 MSTORE PUSH1 0x20 DUP2 SWAP1 MSTORE PUSH1 0x40 SWAP1 KECCAK256 DUP1 SLOAD PUSH1 0xFF NOT AND SWAP2 ISZERO ISZERO SWAP2 SWAP1 SWAP2 OR SWAP1 SSTORE JUMP JUMPDEST DUP1 CALLDATALOAD PUSH1 0x1 PUSH1 0x1 PUSH1 0xA0 SHL SUB DUP2 AND DUP2 EQ PUSH2 0x210 JUMPI PUSH1 0x0 DUP1 REVERT JUMPDEST SWAP2 SWAP1 POP JUMP JUMPDEST PUSH1 0x0 DUP1 PUSH1 0x40 DUP4 DUP6 SUB SLT ISZERO PUSH2 0x228 JUMPI PUSH1 0x0 DUP1 REVERT JUMPDEST PUSH2 0x231 DUP4 PUSH2 0x1F9 JUMP JUMPDEST SWAP2 POP PUSH1 0x20 DUP4 ADD CALLDATALOAD DUP1 ISZERO ISZERO DUP2 EQ PUSH2 0x246 JUMPI PUSH1 0x0 DUP1 REVERT JUMPDEST DUP1 SWAP2 POP POP SWAP3 POP SWAP3 SWAP1 POP JUMP JUMPDEST PUSH1 0x0 PUSH1 0x20 DUP3 DUP5 SUB SLT ISZERO PUSH2 0x263 JUMPI PUSH1 0x0 DUP1 REVERT JUMPDEST PUSH2 0x26C DUP3 PUSH2 0x1F9 JUMP JUMPDEST SWAP4 SWAP3 POP POP POP JUMP INVALID LOG2 PUSH5 0x6970667358 0x22 SLT KECCAK256 0xF6 RETURNDATASIZE SWAP8 REVERT SELFDESTRUCT DUP15 0x2C 0x2C PUSH5 0x42195941E0 PUSH9 0x9B847EE97D60DCD6C4 0xDC 0x26 PUSH7 0x2C70387A0B6473 PUSH16 0x6C634300080C00330000000000000000 ",
  "sha1": "e406dea24ccd5301c4a2248e11f9d69c5f3231c2",
  "source": "// SPDX-License-Identifier: MIT\npragma solidity ^0.8.12;\n\n\ncontract SmartWalletChecker {\n    mapping(address => bool) public isManager;\n    mapping(address => bool) public isAllowed;\n\n\n    modifier onlyManager() {\n        require(isManager[msg.sender], \"!manager\");\n        _;\n    }\n    \n    constructor() {\n        isManager[msg.sender] = true;\n    }\n\n    /**\n     * @notice Sets the status of a manager\n     * @param _manager The address of the manager\n     * @param _status The status to allow the manager \n     */\n    function setManager(\n        address _manager,\n        bool _status\n    )\n        external\n        onlyManager\n    {\n        isManager[_manager] = _status;\n    }\n\n    /**\n     * @notice Sets the status of a contract to be allowed or disallowed\n     * @param _contract The address of the contract\n     * @param _status The status to allow the manager \n     */\n    function setAllowedContract(\n        address _contract,\n        bool _status\n    )\n        external\n        onlyManager\n    {\n        isAllowed[_contract] = _status;\n    }\n\n    /**\n     * @notice returns true is _address is whitelisted\n     * @param _address The address to check\n     */\n    function check (\n        address _address\n    )\n        external\n        view\n        returns(bool)\n    {\n        return isAllowed[_address];\n    }\n\n}",
  "sourcePath": "contracts/ve/SmartWalletChecker.sol",
  "type": "contract"
}