{
  "abi": [
    {
      "inputs": [
        {
          "internalType": "uint256",
          "name": "value",
          "type": "uint256"
        },
        {
          "internalType": "uint256",
          "name": "t",
          "type": "uint256"
        },
        {
          "internalType": "uint256",
          "name": "h",
          "type": "uint256"
        }
      ],
      "name": "getAmount",
      "outputs": [
        {
          "internalType": "uint256",
          "name": "",
          "type": "uint256"
        }
      ],
      "stateMutability": "pure",
      "type": "function"
    }
  ],
  "bytecode": "608060405234801561001057600080fd5b506101b5806100206000396000f3fe608060405234801561001057600080fd5b506004361061002b5760003560e01c806329c45cb614610030575b600080fd5b61004361003e3660046100b1565b610055565b60405190815260200160405180910390f35b6000806100628385610109565b85901c9050610071838561011d565b93506002836100808684610131565b61008a9190610109565b6100949190610109565b61009e8287610150565b6100a89190610167565b95945050505050565b6000806000606084860312156100c657600080fd5b505081359360208301359350604090920135919050565b634e487b7160e01b600052601260045260246000fd5b634e487b7160e01b600052601160045260246000fd5b600082610118576101186100dd565b500490565b60008261012c5761012c6100dd565b500690565b600081600019048311821515161561014b5761014b6100f3565b500290565b600082821015610162576101626100f3565b500390565b6000821982111561017a5761017a6100f3565b50019056fea264697066735822122015dce962917fb094c5facb719a703a7783611701435f6019709c3dce6a7c05f364736f6c634300080c0033",
  "bytecodeSha1": "ee7ca471ff05740460689207d410fa06aa6884d2",
  "compiler": {
    "evm_version": "istanbul",
    "optimizer": {
      "enabled": true,
      "runs": 200
    },
    "version": "0.8.12+commit.f00d7308"
  },
  "contractName": "VestingWalletV0",
  "language": "Solidity",
  "natspec": {
    "kind": "dev",
    "methods": {},
    "version": 1
  },
  "opcodes": "PUSH1 0x80 PUSH1 0x40 MSTORE CALLVALUE DUP1 ISZERO PUSH2 0x10 JUMPI PUSH1 0x0 DUP1 REVERT JUMPDEST POP PUSH1 0x4 CALLDATASIZE LT PUSH2 0x2B JUMPI PUSH1 0x0 CALLDATALOAD PUSH1 0xE0 SHR DUP1 PUSH4 0x29C45CB6 EQ PUSH2 0x30 JUMPI JUMPDEST PUSH1 0x0 DUP1 REVERT JUMPDEST PUSH2 0x43 PUSH2 0x3E CALLDATASIZE PUSH1 0x4 PUSH2 0xB1 JUMP JUMPDEST PUSH2 0x55 JUMP JUMPDEST PUSH1 0x40 MLOAD SWAP1 DUP2 MSTORE PUSH1 0x20 ADD PUSH1 0x40 MLOAD DUP1 SWAP2 SUB SWAP1 RETURN JUMPDEST PUSH1 0x0 DUP1 PUSH2 0x62 DUP4 DUP6 PUSH2 0x109 JUMP JUMPDEST DUP6 SWAP1 SHR SWAP1 POP PUSH2 0x71 DUP4 DUP6 PUSH2 0x11D JUMP JUMPDEST SWAP4 POP PUSH1 0x2 DUP4 PUSH2 0x80 DUP7 DUP5 PUSH2 0x131 JUMP JUMPDEST PUSH2 0x8A SWAP2 SWAP1 PUSH2 0x109 JUMP JUMPDEST PUSH2 0x94 SWAP2 SWAP1 PUSH2 0x109 JUMP JUMPDEST PUSH2 0x9E DUP3 DUP8 PUSH2 0x150 JUMP JUMPDEST PUSH2 0xA8 SWAP2 SWAP1 PUSH2 0x167 JUMP JUMPDEST SWAP6 SWAP5 POP POP POP POP POP JUMP JUMPDEST PUSH1 0x0 DUP1 PUSH1 0x0 PUSH1 0x60 DUP5 DUP7 SUB SLT ISZERO PUSH2 0xC6 JUMPI PUSH1 0x0 DUP1 REVERT JUMPDEST POP POP DUP2 CALLDATALOAD SWAP4 PUSH1 0x20 DUP4 ADD CALLDATALOAD SWAP4 POP PUSH1 0x40 SWAP1 SWAP3 ADD CALLDATALOAD SWAP2 SWAP1 POP JUMP JUMPDEST PUSH4 0x4E487B71 PUSH1 0xE0 SHL PUSH1 0x0 MSTORE PUSH1 0x12 PUSH1 0x4 MSTORE PUSH1 0x24 PUSH1 0x0 REVERT JUMPDEST PUSH4 0x4E487B71 PUSH1 0xE0 SHL PUSH1 0x0 MSTORE PUSH1 0x11 PUSH1 0x4 MSTORE PUSH1 0x24 PUSH1 0x0 REVERT JUMPDEST PUSH1 0x0 DUP3 PUSH2 0x118 JUMPI PUSH2 0x118 PUSH2 0xDD JUMP JUMPDEST POP DIV SWAP1 JUMP JUMPDEST PUSH1 0x0 DUP3 PUSH2 0x12C JUMPI PUSH2 0x12C PUSH2 0xDD JUMP JUMPDEST POP MOD SWAP1 JUMP JUMPDEST PUSH1 0x0 DUP2 PUSH1 0x0 NOT DIV DUP4 GT DUP3 ISZERO ISZERO AND ISZERO PUSH2 0x14B JUMPI PUSH2 0x14B PUSH2 0xF3 JUMP JUMPDEST POP MUL SWAP1 JUMP JUMPDEST PUSH1 0x0 DUP3 DUP3 LT ISZERO PUSH2 0x162 JUMPI PUSH2 0x162 PUSH2 0xF3 JUMP JUMPDEST POP SUB SWAP1 JUMP JUMPDEST PUSH1 0x0 DUP3 NOT DUP3 GT ISZERO PUSH2 0x17A JUMPI PUSH2 0x17A PUSH2 0xF3 JUMP JUMPDEST POP ADD SWAP1 JUMP INVALID LOG2 PUSH5 0x6970667358 0x22 SLT KECCAK256 ISZERO 0xDC 0xE9 PUSH3 0x917FB0 SWAP5 0xC5 STATICCALL 0xCB PUSH18 0x9A703A7783611701435F6019709C3DCE6A7C SDIV RETURN PUSH5 0x736F6C6343 STOP ADDMOD 0xC STOP CALLER ",
  "sha1": "53f081185fc901abc492d677bc8144e127ab2adf",
  "source": "pragma solidity 0.8.12;\n\ncontract VestingWalletV0 {\n    // taken from https://github.com/oceanprotocol/vw-cli/blob/main/contracts/VestingWalletHalving.sol\n    function getAmount(\n        uint256 value,\n        uint256 t,\n        uint256 h\n    ) public pure returns (uint256) {\n        uint256 p = value >> (t / h);\n        t %= h;\n        return value - p + (p * t) / h / 2;\n    }\n}\n",
  "sourcePath": "contracts/test/VestingWallet.sol",
  "type": "contract"
}